{
	"contracts/AuditLogger.sol": {
		"AuditLogger": {
			"abi": [
				{
					"inputs": [
						{
							"internalType": "address",
							"name": "_payrollCore",
							"type": "address"
						}
					],
					"stateMutability": "nonpayable",
					"type": "constructor"
				},
				{
					"inputs": [],
					"name": "AccessControlBadConfirmation",
					"type": "error"
				},
				{
					"inputs": [
						{
							"internalType": "address",
							"name": "account",
							"type": "address"
						},
						{
							"internalType": "bytes32",
							"name": "neededRole",
							"type": "bytes32"
						}
					],
					"name": "AccessControlUnauthorizedAccount",
					"type": "error"
				},
				{
					"anonymous": false,
					"inputs": [
						{
							"indexed": true,
							"internalType": "address",
							"name": "actor",
							"type": "address"
						},
						{
							"indexed": true,
							"internalType": "string",
							"name": "action",
							"type": "string"
						},
						{
							"indexed": false,
							"internalType": "uint256",
							"name": "timestamp",
							"type": "uint256"
						},
						{
							"indexed": false,
							"internalType": "uint256",
							"name": "logIndex",
							"type": "uint256"
						}
					],
					"name": "ActionLogged",
					"type": "event"
				},
				{
					"anonymous": false,
					"inputs": [
						{
							"indexed": true,
							"internalType": "bytes32",
							"name": "role",
							"type": "bytes32"
						},
						{
							"indexed": true,
							"internalType": "bytes32",
							"name": "previousAdminRole",
							"type": "bytes32"
						},
						{
							"indexed": true,
							"internalType": "bytes32",
							"name": "newAdminRole",
							"type": "bytes32"
						}
					],
					"name": "RoleAdminChanged",
					"type": "event"
				},
				{
					"anonymous": false,
					"inputs": [
						{
							"indexed": true,
							"internalType": "bytes32",
							"name": "role",
							"type": "bytes32"
						},
						{
							"indexed": true,
							"internalType": "address",
							"name": "account",
							"type": "address"
						},
						{
							"indexed": true,
							"internalType": "address",
							"name": "sender",
							"type": "address"
						}
					],
					"name": "RoleGranted",
					"type": "event"
				},
				{
					"anonymous": false,
					"inputs": [
						{
							"indexed": true,
							"internalType": "bytes32",
							"name": "role",
							"type": "bytes32"
						},
						{
							"indexed": true,
							"internalType": "address",
							"name": "account",
							"type": "address"
						},
						{
							"indexed": true,
							"internalType": "address",
							"name": "sender",
							"type": "address"
						}
					],
					"name": "RoleRevoked",
					"type": "event"
				},
				{
					"inputs": [],
					"name": "ADMIN_ROLE",
					"outputs": [
						{
							"internalType": "bytes32",
							"name": "",
							"type": "bytes32"
						}
					],
					"stateMutability": "view",
					"type": "function"
				},
				{
					"inputs": [],
					"name": "DEFAULT_ADMIN_ROLE",
					"outputs": [
						{
							"internalType": "bytes32",
							"name": "",
							"type": "bytes32"
						}
					],
					"stateMutability": "view",
					"type": "function"
				},
				{
					"inputs": [
						{
							"internalType": "string",
							"name": "",
							"type": "string"
						},
						{
							"internalType": "uint256",
							"name": "",
							"type": "uint256"
						}
					],
					"name": "actionLogs",
					"outputs": [
						{
							"internalType": "uint256",
							"name": "",
							"type": "uint256"
						}
					],
					"stateMutability": "view",
					"type": "function"
				},
				{
					"inputs": [
						{
							"internalType": "address",
							"name": "",
							"type": "address"
						},
						{
							"internalType": "uint256",
							"name": "",
							"type": "uint256"
						}
					],
					"name": "actorLogs",
					"outputs": [
						{
							"internalType": "uint256",
							"name": "",
							"type": "uint256"
						}
					],
					"stateMutability": "view",
					"type": "function"
				},
				{
					"inputs": [
						{
							"internalType": "uint256",
							"name": "",
							"type": "uint256"
						}
					],
					"name": "auditTrail",
					"outputs": [
						{
							"internalType": "address",
							"name": "actor",
							"type": "address"
						},
						{
							"internalType": "string",
							"name": "action",
							"type": "string"
						},
						{
							"internalType": "bytes",
							"name": "data",
							"type": "bytes"
						},
						{
							"internalType": "uint256",
							"name": "timestamp",
							"type": "uint256"
						},
						{
							"internalType": "uint256",
							"name": "blockNumber",
							"type": "uint256"
						},
						{
							"internalType": "bytes32",
							"name": "transactionHash",
							"type": "bytes32"
						}
					],
					"stateMutability": "view",
					"type": "function"
				},
				{
					"inputs": [
						{
							"internalType": "uint256",
							"name": "",
							"type": "uint256"
						},
						{
							"internalType": "uint256",
							"name": "",
							"type": "uint256"
						}
					],
					"name": "dailyLogs",
					"outputs": [
						{
							"internalType": "uint256",
							"name": "",
							"type": "uint256"
						}
					],
					"stateMutability": "view",
					"type": "function"
				},
				{
					"inputs": [
						{
							"internalType": "uint256",
							"name": "_startTime",
							"type": "uint256"
						},
						{
							"internalType": "uint256",
							"name": "_endTime",
							"type": "uint256"
						},
						{
							"internalType": "uint256",
							"name": "_offset",
							"type": "uint256"
						},
						{
							"internalType": "uint256",
							"name": "_limit",
							"type": "uint256"
						}
					],
					"name": "exportAuditTrail",
					"outputs": [
						{
							"components": [
								{
									"internalType": "address",
									"name": "actor",
									"type": "address"
								},
								{
									"internalType": "string",
									"name": "action",
									"type": "string"
								},
								{
									"internalType": "bytes",
									"name": "data",
									"type": "bytes"
								},
								{
									"internalType": "uint256",
									"name": "timestamp",
									"type": "uint256"
								},
								{
									"internalType": "uint256",
									"name": "blockNumber",
									"type": "uint256"
								},
								{
									"internalType": "bytes32",
									"name": "transactionHash",
									"type": "bytes32"
								}
							],
							"internalType": "struct AuditLogger.AuditLog[]",
							"name": "logs",
							"type": "tuple[]"
						},
						{
							"internalType": "bool",
							"name": "hasMore",
							"type": "bool"
						}
					],
					"stateMutability": "view",
					"type": "function"
				},
				{
					"inputs": [
						{
							"internalType": "uint256",
							"name": "_startTime",
							"type": "uint256"
						},
						{
							"internalType": "uint256",
							"name": "_endTime",
							"type": "uint256"
						}
					],
					"name": "generateComplianceReport",
					"outputs": [
						{
							"internalType": "uint256",
							"name": "totalTransactions",
							"type": "uint256"
						},
						{
							"internalType": "uint256",
							"name": "totalPayments",
							"type": "uint256"
						},
						{
							"internalType": "uint256",
							"name": "totalEmployeeChanges",
							"type": "uint256"
						},
						{
							"internalType": "uint256",
							"name": "totalAdminActions",
							"type": "uint256"
						},
						{
							"internalType": "uint256",
							"name": "uniqueActorCount",
							"type": "uint256"
						}
					],
					"stateMutability": "view",
					"type": "function"
				},
				{
					"inputs": [
						{
							"internalType": "string",
							"name": "_action",
							"type": "string"
						}
					],
					"name": "getActionLogCount",
					"outputs": [
						{
							"internalType": "uint256",
							"name": "",
							"type": "uint256"
						}
					],
					"stateMutability": "view",
					"type": "function"
				},
				{
					"inputs": [
						{
							"internalType": "string",
							"name": "_action",
							"type": "string"
						}
					],
					"name": "getActionLogs",
					"outputs": [
						{
							"internalType": "uint256[]",
							"name": "",
							"type": "uint256[]"
						}
					],
					"stateMutability": "view",
					"type": "function"
				},
				{
					"inputs": [
						{
							"internalType": "address",
							"name": "_actor",
							"type": "address"
						}
					],
					"name": "getActorLogCount",
					"outputs": [
						{
							"internalType": "uint256",
							"name": "",
							"type": "uint256"
						}
					],
					"stateMutability": "view",
					"type": "function"
				},
				{
					"inputs": [
						{
							"internalType": "address",
							"name": "_actor",
							"type": "address"
						}
					],
					"name": "getActorLogs",
					"outputs": [
						{
							"internalType": "uint256[]",
							"name": "",
							"type": "uint256[]"
						}
					],
					"stateMutability": "view",
					"type": "function"
				},
				{
					"inputs": [
						{
							"internalType": "uint256",
							"name": "_index",
							"type": "uint256"
						}
					],
					"name": "getAuditLog",
					"outputs": [
						{
							"components": [
								{
									"internalType": "address",
									"name": "actor",
									"type": "address"
								},
								{
									"internalType": "string",
									"name": "action",
									"type": "string"
								},
								{
									"internalType": "bytes",
									"name": "data",
									"type": "bytes"
								},
								{
									"internalType": "uint256",
									"name": "timestamp",
									"type": "uint256"
								},
								{
									"internalType": "uint256",
									"name": "blockNumber",
									"type": "uint256"
								},
								{
									"internalType": "bytes32",
									"name": "transactionHash",
									"type": "bytes32"
								}
							],
							"internalType": "struct AuditLogger.AuditLog",
							"name": "",
							"type": "tuple"
						}
					],
					"stateMutability": "view",
					"type": "function"
				},
				{
					"inputs": [
						{
							"internalType": "uint256",
							"name": "_day",
							"type": "uint256"
						}
					],
					"name": "getDailyLogCount",
					"outputs": [
						{
							"internalType": "uint256",
							"name": "",
							"type": "uint256"
						}
					],
					"stateMutability": "view",
					"type": "function"
				},
				{
					"inputs": [
						{
							"internalType": "uint256",
							"name": "_day",
							"type": "uint256"
						}
					],
					"name": "getDailyLogs",
					"outputs": [
						{
							"internalType": "uint256[]",
							"name": "",
							"type": "uint256[]"
						}
					],
					"stateMutability": "view",
					"type": "function"
				},
				{
					"inputs": [
						{
							"internalType": "string",
							"name": "_action",
							"type": "string"
						},
						{
							"internalType": "uint256",
							"name": "_limit",
							"type": "uint256"
						}
					],
					"name": "getLogsByAction",
					"outputs": [
						{
							"components": [
								{
									"internalType": "address",
									"name": "actor",
									"type": "address"
								},
								{
									"internalType": "string",
									"name": "action",
									"type": "string"
								},
								{
									"internalType": "bytes",
									"name": "data",
									"type": "bytes"
								},
								{
									"internalType": "uint256",
									"name": "timestamp",
									"type": "uint256"
								},
								{
									"internalType": "uint256",
									"name": "blockNumber",
									"type": "uint256"
								},
								{
									"internalType": "bytes32",
									"name": "transactionHash",
									"type": "bytes32"
								}
							],
							"internalType": "struct AuditLogger.AuditLog[]",
							"name": "logs",
							"type": "tuple[]"
						}
					],
					"stateMutability": "view",
					"type": "function"
				},
				{
					"inputs": [
						{
							"internalType": "address",
							"name": "_actor",
							"type": "address"
						},
						{
							"internalType": "uint256",
							"name": "_limit",
							"type": "uint256"
						}
					],
					"name": "getLogsByActor",
					"outputs": [
						{
							"components": [
								{
									"internalType": "address",
									"name": "actor",
									"type": "address"
								},
								{
									"internalType": "string",
									"name": "action",
									"type": "string"
								},
								{
									"internalType": "bytes",
									"name": "data",
									"type": "bytes"
								},
								{
									"internalType": "uint256",
									"name": "timestamp",
									"type": "uint256"
								},
								{
									"internalType": "uint256",
									"name": "blockNumber",
									"type": "uint256"
								},
								{
									"internalType": "bytes32",
									"name": "transactionHash",
									"type": "bytes32"
								}
							],
							"internalType": "struct AuditLogger.AuditLog[]",
							"name": "logs",
							"type": "tuple[]"
						}
					],
					"stateMutability": "view",
					"type": "function"
				},
				{
					"inputs": [
						{
							"internalType": "uint256",
							"name": "_startTime",
							"type": "uint256"
						},
						{
							"internalType": "uint256",
							"name": "_endTime",
							"type": "uint256"
						}
					],
					"name": "getLogsByTimeRange",
					"outputs": [
						{
							"components": [
								{
									"internalType": "address",
									"name": "actor",
									"type": "address"
								},
								{
									"internalType": "string",
									"name": "action",
									"type": "string"
								},
								{
									"internalType": "bytes",
									"name": "data",
									"type": "bytes"
								},
								{
									"internalType": "uint256",
									"name": "timestamp",
									"type": "uint256"
								},
								{
									"internalType": "uint256",
									"name": "blockNumber",
									"type": "uint256"
								},
								{
									"internalType": "bytes32",
									"name": "transactionHash",
									"type": "bytes32"
								}
							],
							"internalType": "struct AuditLogger.AuditLog[]",
							"name": "logs",
							"type": "tuple[]"
						}
					],
					"stateMutability": "view",
					"type": "function"
				},
				{
					"inputs": [
						{
							"internalType": "uint256",
							"name": "_startIndex",
							"type": "uint256"
						},
						{
							"internalType": "uint256",
							"name": "_endIndex",
							"type": "uint256"
						}
					],
					"name": "getLogsInRange",
					"outputs": [
						{
							"components": [
								{
									"internalType": "address",
									"name": "actor",
									"type": "address"
								},
								{
									"internalType": "string",
									"name": "action",
									"type": "string"
								},
								{
									"internalType": "bytes",
									"name": "data",
									"type": "bytes"
								},
								{
									"internalType": "uint256",
									"name": "timestamp",
									"type": "uint256"
								},
								{
									"internalType": "uint256",
									"name": "blockNumber",
									"type": "uint256"
								},
								{
									"internalType": "bytes32",
									"name": "transactionHash",
									"type": "bytes32"
								}
							],
							"internalType": "struct AuditLogger.AuditLog[]",
							"name": "logs",
							"type": "tuple[]"
						}
					],
					"stateMutability": "view",
					"type": "function"
				},
				{
					"inputs": [
						{
							"internalType": "bytes32",
							"name": "role",
							"type": "bytes32"
						}
					],
					"name": "getRoleAdmin",
					"outputs": [
						{
							"internalType": "bytes32",
							"name": "",
							"type": "bytes32"
						}
					],
					"stateMutability": "view",
					"type": "function"
				},
				{
					"inputs": [],
					"name": "getTotalLogs",
					"outputs": [
						{
							"internalType": "uint256",
							"name": "",
							"type": "uint256"
						}
					],
					"stateMutability": "view",
					"type": "function"
				},
				{
					"inputs": [
						{
							"internalType": "bytes32",
							"name": "role",
							"type": "bytes32"
						},
						{
							"internalType": "address",
							"name": "account",
							"type": "address"
						}
					],
					"name": "grantRole",
					"outputs": [],
					"stateMutability": "nonpayable",
					"type": "function"
				},
				{
					"inputs": [
						{
							"internalType": "bytes32",
							"name": "role",
							"type": "bytes32"
						},
						{
							"internalType": "address",
							"name": "account",
							"type": "address"
						}
					],
					"name": "hasRole",
					"outputs": [
						{
							"internalType": "bool",
							"name": "",
							"type": "bool"
						}
					],
					"stateMutability": "view",
					"type": "function"
				},
				{
					"inputs": [
						{
							"internalType": "address",
							"name": "_actor",
							"type": "address"
						},
						{
							"internalType": "string",
							"name": "_action",
							"type": "string"
						},
						{
							"internalType": "bytes",
							"name": "_data",
							"type": "bytes"
						}
					],
					"name": "logAction",
					"outputs": [],
					"stateMutability": "nonpayable",
					"type": "function"
				},
				{
					"inputs": [],
					"name": "payrollCore",
					"outputs": [
						{
							"internalType": "address",
							"name": "",
							"type": "address"
						}
					],
					"stateMutability": "view",
					"type": "function"
				},
				{
					"inputs": [
						{
							"internalType": "bytes32",
							"name": "role",
							"type": "bytes32"
						},
						{
							"internalType": "address",
							"name": "callerConfirmation",
							"type": "address"
						}
					],
					"name": "renounceRole",
					"outputs": [],
					"stateMutability": "nonpayable",
					"type": "function"
				},
				{
					"inputs": [
						{
							"internalType": "bytes32",
							"name": "role",
							"type": "bytes32"
						},
						{
							"internalType": "address",
							"name": "account",
							"type": "address"
						}
					],
					"name": "revokeRole",
					"outputs": [],
					"stateMutability": "nonpayable",
					"type": "function"
				},
				{
					"inputs": [
						{
							"internalType": "address",
							"name": "_actor",
							"type": "address"
						},
						{
							"internalType": "string",
							"name": "_action",
							"type": "string"
						},
						{
							"internalType": "uint256",
							"name": "_startTime",
							"type": "uint256"
						},
						{
							"internalType": "uint256",
							"name": "_endTime",
							"type": "uint256"
						}
					],
					"name": "searchLogs",
					"outputs": [
						{
							"components": [
								{
									"internalType": "address",
									"name": "actor",
									"type": "address"
								},
								{
									"internalType": "string",
									"name": "action",
									"type": "string"
								},
								{
									"internalType": "bytes",
									"name": "data",
									"type": "bytes"
								},
								{
									"internalType": "uint256",
									"name": "timestamp",
									"type": "uint256"
								},
								{
									"internalType": "uint256",
									"name": "blockNumber",
									"type": "uint256"
								},
								{
									"internalType": "bytes32",
									"name": "transactionHash",
									"type": "bytes32"
								}
							],
							"internalType": "struct AuditLogger.AuditLog[]",
							"name": "logs",
							"type": "tuple[]"
						}
					],
					"stateMutability": "view",
					"type": "function"
				},
				{
					"inputs": [
						{
							"internalType": "bytes4",
							"name": "interfaceId",
							"type": "bytes4"
						}
					],
					"name": "supportsInterface",
					"outputs": [
						{
							"internalType": "bool",
							"name": "",
							"type": "bool"
						}
					],
					"stateMutability": "view",
					"type": "function"
				}
			],
			"devdoc": {
				"errors": {
					"AccessControlBadConfirmation()": [
						{
							"details": "The caller of a function is not the expected one. NOTE: Don't confuse with {AccessControlUnauthorizedAccount}."
						}
					],
					"AccessControlUnauthorizedAccount(address,bytes32)": [
						{
							"details": "The `account` is missing a role."
						}
					]
				},
				"events": {
					"RoleAdminChanged(bytes32,bytes32,bytes32)": {
						"details": "Emitted when `newAdminRole` is set as ``role``'s admin role, replacing `previousAdminRole` `DEFAULT_ADMIN_ROLE` is the starting admin for all roles, despite {RoleAdminChanged} not being emitted to signal this."
					},
					"RoleGranted(bytes32,address,address)": {
						"details": "Emitted when `account` is granted `role`. `sender` is the account that originated the contract call. This account bears the admin role (for the granted role). Expected in cases where the role was granted using the internal {AccessControl-_grantRole}."
					},
					"RoleRevoked(bytes32,address,address)": {
						"details": "Emitted when `account` is revoked `role`. `sender` is the account that originated the contract call:   - if using `revokeRole`, it is the admin role bearer   - if using `renounceRole`, it is the role bearer (i.e. `account`)"
					}
				},
				"kind": "dev",
				"methods": {
					"getRoleAdmin(bytes32)": {
						"details": "Returns the admin role that controls `role`. See {grantRole} and {revokeRole}. To change a role's admin, use {_setRoleAdmin}."
					},
					"grantRole(bytes32,address)": {
						"details": "Grants `role` to `account`. If `account` had not been already granted `role`, emits a {RoleGranted} event. Requirements: - the caller must have ``role``'s admin role. May emit a {RoleGranted} event."
					},
					"hasRole(bytes32,address)": {
						"details": "Returns `true` if `account` has been granted `role`."
					},
					"renounceRole(bytes32,address)": {
						"details": "Revokes `role` from the calling account. Roles are often managed via {grantRole} and {revokeRole}: this function's purpose is to provide a mechanism for accounts to lose their privileges if they are compromised (such as when a trusted device is misplaced). If the calling account had been revoked `role`, emits a {RoleRevoked} event. Requirements: - the caller must be `callerConfirmation`. May emit a {RoleRevoked} event."
					},
					"revokeRole(bytes32,address)": {
						"details": "Revokes `role` from `account`. If `account` had been granted `role`, emits a {RoleRevoked} event. Requirements: - the caller must have ``role``'s admin role. May emit a {RoleRevoked} event."
					},
					"supportsInterface(bytes4)": {
						"details": "Returns true if this contract implements the interface defined by `interfaceId`. See the corresponding https://eips.ethereum.org/EIPS/eip-165#how-interfaces-are-identified[ERC section] to learn more about how these ids are created. This function call must use less than 30 000 gas."
					}
				},
				"version": 1
			},
			"evm": {
				"assembly": "    /* \"contracts/AuditLogger.sol\":123:11450  contract AuditLogger is AccessControl {... */\n  mstore(0x40, 0x80)\n    /* \"contracts/AuditLogger.sol\":1201:1280  constructor(address _payrollCore) {... */\n  callvalue\n  dup1\n  iszero\n  tag_1\n  jumpi\n  revert(0x00, 0x00)\ntag_1:\n  pop\n  mload(0x40)\n  sub(codesize, bytecodeSize)\n  dup1\n  bytecodeSize\n  dup4\n  codecopy\n  dup2\n  dup2\n  add\n  0x40\n  mstore\n  dup2\n  add\n  swap1\n  tag_2\n  swap2\n  swap1\n  tag_3\n  jump\t// in\ntag_2:\n    /* \"contracts/AuditLogger.sol\":1260:1272  _payrollCore */\n  dup1\n    /* \"contracts/AuditLogger.sol\":1246:1257  payrollCore */\n  0x01\n  0x00\n    /* \"contracts/AuditLogger.sol\":1246:1272  payrollCore = _payrollCore */\n  0x0100\n  exp\n  dup2\n  sload\n  dup2\n  0xffffffffffffffffffffffffffffffffffffffff\n  mul\n  not\n  and\n  swap1\n  dup4\n  0xffffffffffffffffffffffffffffffffffffffff\n  and\n  mul\n  or\n  swap1\n  sstore\n  pop\n    /* \"contracts/AuditLogger.sol\":1201:1280  constructor(address _payrollCore) {... */\n  pop\n    /* \"contracts/AuditLogger.sol\":123:11450  contract AuditLogger is AccessControl {... */\n  jump(tag_6)\n    /* \"#utility.yul\":88:205   */\ntag_8:\n    /* \"#utility.yul\":197:198   */\n  0x00\n    /* \"#utility.yul\":194:195   */\n  0x00\n    /* \"#utility.yul\":187:199   */\n  revert\n    /* \"#utility.yul\":334:460   */\ntag_10:\n    /* \"#utility.yul\":371:378   */\n  0x00\n    /* \"#utility.yul\":411:453   */\n  0xffffffffffffffffffffffffffffffffffffffff\n    /* \"#utility.yul\":404:409   */\n  dup3\n    /* \"#utility.yul\":400:454   */\n  and\n    /* \"#utility.yul\":389:454   */\n  swap1\n  pop\n    /* \"#utility.yul\":334:460   */\n  swap2\n  swap1\n  pop\n  jump\t// out\n    /* \"#utility.yul\":466:562   */\ntag_11:\n    /* \"#utility.yul\":503:510   */\n  0x00\n    /* \"#utility.yul\":532:556   */\n  tag_20\n    /* \"#utility.yul\":550:555   */\n  dup3\n    /* \"#utility.yul\":532:556   */\n  tag_10\n  jump\t// in\ntag_20:\n    /* \"#utility.yul\":521:556   */\n  swap1\n  pop\n    /* \"#utility.yul\":466:562   */\n  swap2\n  swap1\n  pop\n  jump\t// out\n    /* \"#utility.yul\":568:690   */\ntag_12:\n    /* \"#utility.yul\":641:665   */\n  tag_22\n    /* \"#utility.yul\":659:664   */\n  dup2\n    /* \"#utility.yul\":641:665   */\n  tag_11\n  jump\t// in\ntag_22:\n    /* \"#utility.yul\":634:639   */\n  dup2\n    /* \"#utility.yul\":631:666   */\n  eq\n    /* \"#utility.yul\":621:684   */\n  tag_23\n  jumpi\n    /* \"#utility.yul\":680:681   */\n  0x00\n    /* \"#utility.yul\":677:678   */\n  0x00\n    /* \"#utility.yul\":670:682   */\n  revert\n    /* \"#utility.yul\":621:684   */\ntag_23:\n    /* \"#utility.yul\":568:690   */\n  pop\n  jump\t// out\n    /* \"#utility.yul\":696:839   */\ntag_13:\n    /* \"#utility.yul\":753:758   */\n  0x00\n    /* \"#utility.yul\":784:790   */\n  dup2\n    /* \"#utility.yul\":778:791   */\n  mload\n    /* \"#utility.yul\":769:791   */\n  swap1\n  pop\n    /* \"#utility.yul\":800:833   */\n  tag_25\n    /* \"#utility.yul\":827:832   */\n  dup2\n    /* \"#utility.yul\":800:833   */\n  tag_12\n  jump\t// in\ntag_25:\n    /* \"#utility.yul\":696:839   */\n  swap3\n  swap2\n  pop\n  pop\n  jump\t// out\n    /* \"#utility.yul\":845:1196   */\ntag_3:\n    /* \"#utility.yul\":915:921   */\n  0x00\n    /* \"#utility.yul\":964:966   */\n  0x20\n    /* \"#utility.yul\":952:961   */\n  dup3\n    /* \"#utility.yul\":943:950   */\n  dup5\n    /* \"#utility.yul\":939:962   */\n  sub\n    /* \"#utility.yul\":935:967   */\n  slt\n    /* \"#utility.yul\":932:1051   */\n  iszero\n  tag_27\n  jumpi\n    /* \"#utility.yul\":970:1049   */\n  tag_28\n  tag_8\n  jump\t// in\ntag_28:\n    /* \"#utility.yul\":932:1051   */\ntag_27:\n    /* \"#utility.yul\":1090:1091   */\n  0x00\n    /* \"#utility.yul\":1115:1179   */\n  tag_29\n    /* \"#utility.yul\":1171:1178   */\n  dup5\n    /* \"#utility.yul\":1162:1168   */\n  dup3\n    /* \"#utility.yul\":1151:1160   */\n  dup6\n    /* \"#utility.yul\":1147:1169   */\n  add\n    /* \"#utility.yul\":1115:1179   */\n  tag_13\n  jump\t// in\ntag_29:\n    /* \"#utility.yul\":1105:1179   */\n  swap2\n  pop\n    /* \"#utility.yul\":1061:1189   */\n  pop\n    /* \"#utility.yul\":845:1196   */\n  swap3\n  swap2\n  pop\n  pop\n  jump\t// out\n    /* \"contracts/AuditLogger.sol\":123:11450  contract AuditLogger is AccessControl {... */\ntag_6:\n  dataSize(sub_0)\n  dup1\n  dataOffset(sub_0)\n  0x00\n  codecopy\n  0x00\n  return\nstop\n\nsub_0: assembly {\n        /* \"contracts/AuditLogger.sol\":123:11450  contract AuditLogger is AccessControl {... */\n      mstore(0x40, 0x80)\n      callvalue\n      dup1\n      iszero\n      tag_1\n      jumpi\n      revert(0x00, 0x00)\n    tag_1:\n      pop\n      jumpi(tag_2, lt(calldatasize, 0x04))\n      shr(0xe0, calldataload(0x00))\n      dup1\n      0x75b238fc\n      gt\n      tag_32\n      jumpi\n      dup1\n      0xa9c85164\n      gt\n      tag_33\n      jumpi\n      dup1\n      0xddaf0929\n      gt\n      tag_34\n      jumpi\n      dup1\n      0xddaf0929\n      eq\n      tag_28\n      jumpi\n      dup1\n      0xe887319a\n      eq\n      tag_29\n      jumpi\n      dup1\n      0xead2b306\n      eq\n      tag_30\n      jumpi\n      dup1\n      0xf44006e1\n      eq\n      tag_31\n      jumpi\n      jump(tag_2)\n    tag_34:\n      dup1\n      0xa9c85164\n      eq\n      tag_24\n      jumpi\n      dup1\n      0xbd628d26\n      eq\n      tag_25\n      jumpi\n      dup1\n      0xc9a9ba51\n      eq\n      tag_26\n      jumpi\n      dup1\n      0xd547741f\n      eq\n      tag_27\n      jumpi\n      jump(tag_2)\n    tag_33:\n      dup1\n      0xa217fddf\n      gt\n      tag_35\n      jumpi\n      dup1\n      0xa217fddf\n      eq\n      tag_20\n      jumpi\n      dup1\n      0xa246e46f\n      eq\n      tag_21\n      jumpi\n      dup1\n      0xa2b08f25\n      eq\n      tag_22\n      jumpi\n      dup1\n      0xa393bb3e\n      eq\n      tag_23\n      jumpi\n      jump(tag_2)\n    tag_35:\n      dup1\n      0x75b238fc\n      eq\n      tag_17\n      jumpi\n      dup1\n      0x91d14854\n      eq\n      tag_18\n      jumpi\n      dup1\n      0xa1c7c1a6\n      eq\n      tag_19\n      jumpi\n      jump(tag_2)\n    tag_32:\n      dup1\n      0x2f2ff15d\n      gt\n      tag_36\n      jumpi\n      dup1\n      0x3fbd2b52\n      gt\n      tag_37\n      jumpi\n      dup1\n      0x3fbd2b52\n      eq\n      tag_13\n      jumpi\n      dup1\n      0x44c83b97\n      eq\n      tag_14\n      jumpi\n      dup1\n      0x61b13aa2\n      eq\n      tag_15\n      jumpi\n      dup1\n      0x6a82b00b\n      eq\n      tag_16\n      jumpi\n      jump(tag_2)\n    tag_37:\n      dup1\n      0x2f2ff15d\n      eq\n      tag_10\n      jumpi\n      dup1\n      0x36568abe\n      eq\n      tag_11\n      jumpi\n      dup1\n      0x3947be52\n      eq\n      tag_12\n      jumpi\n      jump(tag_2)\n    tag_36:\n      dup1\n      0x1c580e1f\n      gt\n      tag_38\n      jumpi\n      dup1\n      0x1c580e1f\n      eq\n      tag_6\n      jumpi\n      dup1\n      0x248a9ca3\n      eq\n      tag_7\n      jumpi\n      dup1\n      0x25c31f04\n      eq\n      tag_8\n      jumpi\n      dup1\n      0x2820b656\n      eq\n      tag_9\n      jumpi\n      jump(tag_2)\n    tag_38:\n      dup1\n      0x01ffc9a7\n      eq\n      tag_3\n      jumpi\n      dup1\n      0x05ad65b0\n      eq\n      tag_4\n      jumpi\n      dup1\n      0x121254a8\n      eq\n      tag_5\n      jumpi\n    tag_2:\n      revert(0x00, 0x00)\n        /* \"@openzeppelin/contracts/access/AccessControl.sol\":2541:2743  function supportsInterface(bytes4 interfaceId) public view virtual override returns (bool) {... */\n    tag_3:\n      tag_39\n      0x04\n      dup1\n      calldatasize\n      sub\n      dup2\n      add\n      swap1\n      tag_40\n      swap2\n      swap1\n      tag_41\n      jump\t// in\n    tag_40:\n      tag_42\n      jump\t// in\n    tag_39:\n      mload(0x40)\n      tag_43\n      swap2\n      swap1\n      tag_44\n      jump\t// in\n    tag_43:\n      mload(0x40)\n      dup1\n      swap2\n      sub\n      swap1\n      return\n        /* \"contracts/AuditLogger.sol\":6012:7651  function searchLogs(... */\n    tag_4:\n      tag_45\n      0x04\n      dup1\n      calldatasize\n      sub\n      dup2\n      add\n      swap1\n      tag_46\n      swap2\n      swap1\n      tag_47\n      jump\t// in\n    tag_46:\n      tag_48\n      jump\t// in\n    tag_45:\n      mload(0x40)\n      tag_49\n      swap2\n      swap1\n      tag_50\n      jump\t// in\n    tag_49:\n      mload(0x40)\n      dup1\n      swap2\n      sub\n      swap1\n      return\n        /* \"contracts/AuditLogger.sol\":565:611  mapping(string => uint256[]) public actionLogs */\n    tag_5:\n      tag_51\n      0x04\n      dup1\n      calldatasize\n      sub\n      dup2\n      add\n      swap1\n      tag_52\n      swap2\n      swap1\n      tag_53\n      jump\t// in\n    tag_52:\n      tag_54\n      jump\t// in\n    tag_51:\n      mload(0x40)\n      tag_55\n      swap2\n      swap1\n      tag_56\n      jump\t// in\n    tag_55:\n      mload(0x40)\n      dup1\n      swap2\n      sub\n      swap1\n      return\n        /* \"contracts/AuditLogger.sol\":4826:5475  function getLogsByAction(string memory _action, uint256 _limit) external view returns (AuditLog[] memory logs) {... */\n    tag_6:\n      tag_57\n      0x04\n      dup1\n      calldatasize\n      sub\n      dup2\n      add\n      swap1\n      tag_58\n      swap2\n      swap1\n      tag_53\n      jump\t// in\n    tag_58:\n      tag_59\n      jump\t// in\n    tag_57:\n      mload(0x40)\n      tag_60\n      swap2\n      swap1\n      tag_50\n      jump\t// in\n    tag_60:\n      mload(0x40)\n      dup1\n      swap2\n      sub\n      swap1\n      return\n        /* \"@openzeppelin/contracts/access/AccessControl.sol\":3786:3906  function getRoleAdmin(bytes32 role) public view virtual returns (bytes32) {... */\n    tag_7:\n      tag_61\n      0x04\n      dup1\n      calldatasize\n      sub\n      dup2\n      add\n      swap1\n      tag_62\n      swap2\n      swap1\n      tag_63\n      jump\t// in\n    tag_62:\n      tag_64\n      jump\t// in\n    tag_61:\n      mload(0x40)\n      tag_65\n      swap2\n      swap1\n      tag_66\n      jump\t// in\n    tag_65:\n      mload(0x40)\n      dup1\n      swap2\n      sub\n      swap1\n      return\n        /* \"contracts/AuditLogger.sol\":10030:11447  function exportAuditTrail(... */\n    tag_8:\n      tag_67\n      0x04\n      dup1\n      calldatasize\n      sub\n      dup2\n      add\n      swap1\n      tag_68\n      swap2\n      swap1\n      tag_69\n      jump\t// in\n    tag_68:\n      tag_70\n      jump\t// in\n    tag_67:\n      mload(0x40)\n      tag_71\n      swap3\n      swap2\n      swap1\n      tag_72\n      jump\t// in\n    tag_71:\n      mload(0x40)\n      dup1\n      swap2\n      sub\n      swap1\n      return\n        /* \"contracts/AuditLogger.sol\":2434:2566  function getActionLogs(string memory _action) external view returns (uint256[] memory) {... */\n    tag_9:\n      tag_73\n      0x04\n      dup1\n      calldatasize\n      sub\n      dup2\n      add\n      swap1\n      tag_74\n      swap2\n      swap1\n      tag_75\n      jump\t// in\n    tag_74:\n      tag_76\n      jump\t// in\n    tag_73:\n      mload(0x40)\n      tag_77\n      swap2\n      swap1\n      tag_78\n      jump\t// in\n    tag_77:\n      mload(0x40)\n      dup1\n      swap2\n      sub\n      swap1\n      return\n        /* \"@openzeppelin/contracts/access/AccessControl.sol\":4202:4338  function grantRole(bytes32 role, address account) public virtual onlyRole(getRoleAdmin(role)) {... */\n    tag_10:\n      tag_79\n      0x04\n      dup1\n      calldatasize\n      sub\n      dup2\n      add\n      swap1\n      tag_80\n      swap2\n      swap1\n      tag_81\n      jump\t// in\n    tag_80:\n      tag_82\n      jump\t// in\n    tag_79:\n      stop\n        /* \"@openzeppelin/contracts/access/AccessControl.sol\":5304:5549  function renounceRole(bytes32 role, address callerConfirmation) public virtual {... */\n    tag_11:\n      tag_83\n      0x04\n      dup1\n      calldatasize\n      sub\n      dup2\n      add\n      swap1\n      tag_84\n      swap2\n      swap1\n      tag_81\n      jump\t// in\n    tag_84:\n      tag_85\n      jump\t// in\n    tag_83:\n      stop\n        /* \"contracts/AuditLogger.sol\":5598:5722  function getActorLogCount(address _actor) external view returns (uint256) {... */\n    tag_12:\n      tag_86\n      0x04\n      dup1\n      calldatasize\n      sub\n      dup2\n      add\n      swap1\n      tag_87\n      swap2\n      swap1\n      tag_88\n      jump\t// in\n    tag_87:\n      tag_89\n      jump\t// in\n    tag_86:\n      mload(0x40)\n      tag_90\n      swap2\n      swap1\n      tag_56\n      jump\t// in\n    tag_90:\n      mload(0x40)\n      dup1\n      swap2\n      sub\n      swap1\n      return\n        /* \"contracts/AuditLogger.sol\":5880:6000  function getDailyLogCount(uint256 _day) external view returns (uint256) {... */\n    tag_13:\n      tag_91\n      0x04\n      dup1\n      calldatasize\n      sub\n      dup2\n      add\n      swap1\n      tag_92\n      swap2\n      swap1\n      tag_93\n      jump\t// in\n    tag_92:\n      tag_94\n      jump\t// in\n    tag_91:\n      mload(0x40)\n      tag_95\n      swap2\n      swap1\n      tag_56\n      jump\t// in\n    tag_95:\n      mload(0x40)\n      dup1\n      swap2\n      sub\n      swap1\n      return\n        /* \"contracts/AuditLogger.sol\":1292:2088  function logAction(... */\n    tag_14:\n      tag_96\n      0x04\n      dup1\n      calldatasize\n      sub\n      dup2\n      add\n      swap1\n      tag_97\n      swap2\n      swap1\n      tag_98\n      jump\t// in\n    tag_97:\n      tag_99\n      jump\t// in\n    tag_96:\n      stop\n        /* \"contracts/AuditLogger.sol\":2300:2422  function getActorLogs(address _actor) external view returns (uint256[] memory) {... */\n    tag_15:\n      tag_100\n      0x04\n      dup1\n      calldatasize\n      sub\n      dup2\n      add\n      swap1\n      tag_101\n      swap2\n      swap1\n      tag_88\n      jump\t// in\n    tag_101:\n      tag_102\n      jump\t// in\n    tag_100:\n      mload(0x40)\n      tag_103\n      swap2\n      swap1\n      tag_78\n      jump\t// in\n    tag_103:\n      mload(0x40)\n      dup1\n      swap2\n      sub\n      swap1\n      return\n        /* \"contracts/AuditLogger.sol\":5734:5868  function getActionLogCount(string memory _action) external view returns (uint256) {... */\n    tag_16:\n      tag_104\n      0x04\n      dup1\n      calldatasize\n      sub\n      dup2\n      add\n      swap1\n      tag_105\n      swap2\n      swap1\n      tag_75\n      jump\t// in\n    tag_105:\n      tag_106\n      jump\t// in\n    tag_104:\n      mload(0x40)\n      tag_107\n      swap2\n      swap1\n      tag_56\n      jump\t// in\n    tag_107:\n      mload(0x40)\n      dup1\n      swap2\n      sub\n      swap1\n      return\n        /* \"contracts/AuditLogger.sol\":168:228  bytes32 public constant ADMIN_ROLE = keccak256(\"ADMIN_ROLE\") */\n    tag_17:\n      tag_108\n      tag_109\n      jump\t// in\n    tag_108:\n      mload(0x40)\n      tag_110\n      swap2\n      swap1\n      tag_66\n      jump\t// in\n    tag_110:\n      mload(0x40)\n      dup1\n      swap2\n      sub\n      swap1\n      return\n        /* \"@openzeppelin/contracts/access/AccessControl.sol\":2830:2966  function hasRole(bytes32 role, address account) public view virtual returns (bool) {... */\n    tag_18:\n      tag_111\n      0x04\n      dup1\n      calldatasize\n      sub\n      dup2\n      add\n      swap1\n      tag_112\n      swap2\n      swap1\n      tag_81\n      jump\t// in\n    tag_112:\n      tag_113\n      jump\t// in\n    tag_111:\n      mload(0x40)\n      tag_114\n      swap2\n      swap1\n      tag_44\n      jump\t// in\n    tag_114:\n      mload(0x40)\n      dup1\n      swap2\n      sub\n      swap1\n      return\n        /* \"contracts/AuditLogger.sol\":438:464  address public payrollCore */\n    tag_19:\n      tag_115\n      tag_116\n      jump\t// in\n    tag_115:\n      mload(0x40)\n      tag_117\n      swap2\n      swap1\n      tag_118\n      jump\t// in\n    tag_117:\n      mload(0x40)\n      dup1\n      swap2\n      sub\n      swap1\n      return\n        /* \"@openzeppelin/contracts/access/AccessControl.sol\":2196:2245  bytes32 public constant DEFAULT_ADMIN_ROLE = 0x00 */\n    tag_20:\n      tag_119\n      tag_120\n      jump\t// in\n    tag_119:\n      mload(0x40)\n      tag_121\n      swap2\n      swap1\n      tag_66\n      jump\t// in\n    tag_121:\n      mload(0x40)\n      dup1\n      swap2\n      sub\n      swap1\n      return\n        /* \"contracts/AuditLogger.sol\":618:664  mapping(uint256 => uint256[]) public dailyLogs */\n    tag_21:\n      tag_122\n      0x04\n      dup1\n      calldatasize\n      sub\n      dup2\n      add\n      swap1\n      tag_123\n      swap2\n      swap1\n      tag_124\n      jump\t// in\n    tag_123:\n      tag_125\n      jump\t// in\n    tag_122:\n      mload(0x40)\n      tag_126\n      swap2\n      swap1\n      tag_56\n      jump\t// in\n    tag_126:\n      mload(0x40)\n      dup1\n      swap2\n      sub\n      swap1\n      return\n        /* \"contracts/AuditLogger.sol\":3259:4167  function getLogsByTimeRange(... */\n    tag_22:\n      tag_127\n      0x04\n      dup1\n      calldatasize\n      sub\n      dup2\n      add\n      swap1\n      tag_128\n      swap2\n      swap1\n      tag_124\n      jump\t// in\n    tag_128:\n      tag_129\n      jump\t// in\n    tag_127:\n      mload(0x40)\n      tag_130\n      swap2\n      swap1\n      tag_50\n      jump\t// in\n    tag_130:\n      mload(0x40)\n      dup1\n      swap2\n      sub\n      swap1\n      return\n        /* \"contracts/AuditLogger.sol\":7663:10018  function generateComplianceReport(... */\n    tag_23:\n      tag_131\n      0x04\n      dup1\n      calldatasize\n      sub\n      dup2\n      add\n      swap1\n      tag_132\n      swap2\n      swap1\n      tag_124\n      jump\t// in\n    tag_132:\n      tag_133\n      jump\t// in\n    tag_131:\n      mload(0x40)\n      tag_134\n      swap6\n      swap5\n      swap4\n      swap3\n      swap2\n      swap1\n      tag_135\n      jump\t// in\n    tag_134:\n      mload(0x40)\n      dup1\n      swap2\n      sub\n      swap1\n      return\n        /* \"contracts/AuditLogger.sol\":512:558  mapping(address => uint256[]) public actorLogs */\n    tag_24:\n      tag_136\n      0x04\n      dup1\n      calldatasize\n      sub\n      dup2\n      add\n      swap1\n      tag_137\n      swap2\n      swap1\n      tag_138\n      jump\t// in\n    tag_137:\n      tag_139\n      jump\t// in\n    tag_136:\n      mload(0x40)\n      tag_140\n      swap2\n      swap1\n      tag_56\n      jump\t// in\n    tag_140:\n      mload(0x40)\n      dup1\n      swap2\n      sub\n      swap1\n      return\n        /* \"contracts/AuditLogger.sol\":5487:5586  function getTotalLogs() external view returns (uint256) {... */\n    tag_25:\n      tag_141\n      tag_142\n      jump\t// in\n    tag_141:\n      mload(0x40)\n      tag_143\n      swap2\n      swap1\n      tag_56\n      jump\t// in\n    tag_143:\n      mload(0x40)\n      dup1\n      swap2\n      sub\n      swap1\n      return\n        /* \"contracts/AuditLogger.sol\":2708:3247  function getLogsInRange(... */\n    tag_26:\n      tag_144\n      0x04\n      dup1\n      calldatasize\n      sub\n      dup2\n      add\n      swap1\n      tag_145\n      swap2\n      swap1\n      tag_124\n      jump\t// in\n    tag_145:\n      tag_146\n      jump\t// in\n    tag_144:\n      mload(0x40)\n      tag_147\n      swap2\n      swap1\n      tag_50\n      jump\t// in\n    tag_147:\n      mload(0x40)\n      dup1\n      swap2\n      sub\n      swap1\n      return\n        /* \"@openzeppelin/contracts/access/AccessControl.sol\":4618:4756  function revokeRole(bytes32 role, address account) public virtual onlyRole(getRoleAdmin(role)) {... */\n    tag_27:\n      tag_148\n      0x04\n      dup1\n      calldatasize\n      sub\n      dup2\n      add\n      swap1\n      tag_149\n      swap2\n      swap1\n      tag_81\n      jump\t// in\n    tag_149:\n      tag_150\n      jump\t// in\n    tag_148:\n      stop\n        /* \"contracts/AuditLogger.sol\":477:505  AuditLog[] public auditTrail */\n    tag_28:\n      tag_151\n      0x04\n      dup1\n      calldatasize\n      sub\n      dup2\n      add\n      swap1\n      tag_152\n      swap2\n      swap1\n      tag_93\n      jump\t// in\n    tag_152:\n      tag_153\n      jump\t// in\n    tag_151:\n      mload(0x40)\n      tag_154\n      swap7\n      swap6\n      swap5\n      swap4\n      swap3\n      swap2\n      swap1\n      tag_155\n      jump\t// in\n    tag_154:\n      mload(0x40)\n      dup1\n      swap2\n      sub\n      swap1\n      return\n        /* \"contracts/AuditLogger.sol\":2100:2288  function getAuditLog(uint256 _index) external view returns (AuditLog memory) {... */\n    tag_29:\n      tag_156\n      0x04\n      dup1\n      calldatasize\n      sub\n      dup2\n      add\n      swap1\n      tag_157\n      swap2\n      swap1\n      tag_93\n      jump\t// in\n    tag_157:\n      tag_158\n      jump\t// in\n    tag_156:\n      mload(0x40)\n      tag_159\n      swap2\n      swap1\n      tag_160\n      jump\t// in\n    tag_159:\n      mload(0x40)\n      dup1\n      swap2\n      sub\n      swap1\n      return\n        /* \"contracts/AuditLogger.sol\":2578:2696  function getDailyLogs(uint256 _day) external view returns (uint256[] memory) {... */\n    tag_30:\n      tag_161\n      0x04\n      dup1\n      calldatasize\n      sub\n      dup2\n      add\n      swap1\n      tag_162\n      swap2\n      swap1\n      tag_93\n      jump\t// in\n    tag_162:\n      tag_163\n      jump\t// in\n    tag_161:\n      mload(0x40)\n      tag_164\n      swap2\n      swap1\n      tag_78\n      jump\t// in\n    tag_164:\n      mload(0x40)\n      dup1\n      swap2\n      sub\n      swap1\n      return\n        /* \"contracts/AuditLogger.sol\":4179:4814  function getLogsByActor(address _actor, uint256 _limit) external view returns (AuditLog[] memory logs) {... */\n    tag_31:\n      tag_165\n      0x04\n      dup1\n      calldatasize\n      sub\n      dup2\n      add\n      swap1\n      tag_166\n      swap2\n      swap1\n      tag_138\n      jump\t// in\n    tag_166:\n      tag_167\n      jump\t// in\n    tag_165:\n      mload(0x40)\n      tag_168\n      swap2\n      swap1\n      tag_50\n      jump\t// in\n    tag_168:\n      mload(0x40)\n      dup1\n      swap2\n      sub\n      swap1\n      return\n        /* \"@openzeppelin/contracts/access/AccessControl.sol\":2541:2743  function supportsInterface(bytes4 interfaceId) public view virtual override returns (bool) {... */\n    tag_42:\n        /* \"@openzeppelin/contracts/access/AccessControl.sol\":2626:2630  bool */\n      0x00\n        /* \"@openzeppelin/contracts/access/AccessControl.sol\":2664:2696  type(IAccessControl).interfaceId */\n      0x7965db0b00000000000000000000000000000000000000000000000000000000\n        /* \"@openzeppelin/contracts/access/AccessControl.sol\":2649:2696  interfaceId == type(IAccessControl).interfaceId */\n      not(0xffffffffffffffffffffffffffffffffffffffffffffffffffffffff)\n      and\n        /* \"@openzeppelin/contracts/access/AccessControl.sol\":2649:2660  interfaceId */\n      dup3\n        /* \"@openzeppelin/contracts/access/AccessControl.sol\":2649:2696  interfaceId == type(IAccessControl).interfaceId */\n      not(0xffffffffffffffffffffffffffffffffffffffffffffffffffffffff)\n      and\n      eq\n        /* \"@openzeppelin/contracts/access/AccessControl.sol\":2649:2736  interfaceId == type(IAccessControl).interfaceId || super.supportsInterface(interfaceId) */\n      dup1\n      tag_170\n      jumpi\n      pop\n        /* \"@openzeppelin/contracts/access/AccessControl.sol\":2700:2736  super.supportsInterface(interfaceId) */\n      tag_171\n        /* \"@openzeppelin/contracts/access/AccessControl.sol\":2724:2735  interfaceId */\n      dup3\n        /* \"@openzeppelin/contracts/access/AccessControl.sol\":2700:2723  super.supportsInterface */\n      tag_172\n        /* \"@openzeppelin/contracts/access/AccessControl.sol\":2700:2736  super.supportsInterface(interfaceId) */\n      jump\t// in\n    tag_171:\n        /* \"@openzeppelin/contracts/access/AccessControl.sol\":2649:2736  interfaceId == type(IAccessControl).interfaceId || super.supportsInterface(interfaceId) */\n    tag_170:\n        /* \"@openzeppelin/contracts/access/AccessControl.sol\":2642:2736  return interfaceId == type(IAccessControl).interfaceId || super.supportsInterface(interfaceId) */\n      swap1\n      pop\n        /* \"@openzeppelin/contracts/access/AccessControl.sol\":2541:2743  function supportsInterface(bytes4 interfaceId) public view virtual override returns (bool) {... */\n      swap2\n      swap1\n      pop\n      jump\t// out\n        /* \"contracts/AuditLogger.sol\":6012:7651  function searchLogs(... */\n    tag_48:\n        /* \"contracts/AuditLogger.sol\":6175:6197  AuditLog[] memory logs */\n      0x60\n        /* \"contracts/AuditLogger.sol\":6248:6261  uint256 count */\n      0x00\n        /* \"contracts/AuditLogger.sol\":6264:6265  0 */\n      0x00\n        /* \"contracts/AuditLogger.sol\":6248:6265  uint256 count = 0 */\n      swap1\n      pop\n        /* \"contracts/AuditLogger.sol\":6281:6290  uint256 i */\n      0x00\n        /* \"contracts/AuditLogger.sol\":6293:6294  0 */\n      0x00\n        /* \"contracts/AuditLogger.sol\":6281:6294  uint256 i = 0 */\n      swap1\n      pop\n        /* \"contracts/AuditLogger.sol\":6276:6857  for (uint256 i = 0; i < auditTrail.length; i++) {... */\n    tag_174:\n        /* \"contracts/AuditLogger.sol\":6300:6310  auditTrail */\n      0x02\n        /* \"contracts/AuditLogger.sol\":6300:6317  auditTrail.length */\n      dup1\n      sload\n      swap1\n      pop\n        /* \"contracts/AuditLogger.sol\":6296:6297  i */\n      dup2\n        /* \"contracts/AuditLogger.sol\":6296:6317  i < auditTrail.length */\n      lt\n        /* \"contracts/AuditLogger.sol\":6276:6857  for (uint256 i = 0; i < auditTrail.length; i++) {... */\n      iszero\n      tag_175\n      jumpi\n        /* \"contracts/AuditLogger.sol\":6339:6358  AuditLog memory log */\n      0x00\n        /* \"contracts/AuditLogger.sol\":6361:6371  auditTrail */\n      0x02\n        /* \"contracts/AuditLogger.sol\":6372:6373  i */\n      dup3\n        /* \"contracts/AuditLogger.sol\":6361:6374  auditTrail[i] */\n      dup2\n      sload\n      dup2\n      lt\n      tag_177\n      jumpi\n      tag_178\n      tag_179\n      jump\t// in\n    tag_178:\n    tag_177:\n      swap1\n      0x00\n      mstore\n      keccak256(0x00, 0x20)\n      swap1\n      0x06\n      mul\n      add\n        /* \"contracts/AuditLogger.sol\":6339:6374  AuditLog memory log = auditTrail[i] */\n      mload(0x40)\n      dup1\n      0xc0\n      add\n      0x40\n      mstore\n      swap1\n      dup2\n      0x00\n      dup3\n      add\n      0x00\n      swap1\n      sload\n      swap1\n      0x0100\n      exp\n      swap1\n      div\n      0xffffffffffffffffffffffffffffffffffffffff\n      and\n      0xffffffffffffffffffffffffffffffffffffffff\n      and\n      0xffffffffffffffffffffffffffffffffffffffff\n      and\n      dup2\n      mstore\n      0x20\n      add\n      0x01\n      dup3\n      add\n      dup1\n      sload\n      tag_181\n      swap1\n      tag_182\n      jump\t// in\n    tag_181:\n      dup1\n      0x1f\n      add\n      0x20\n      dup1\n      swap2\n      div\n      mul\n      0x20\n      add\n      mload(0x40)\n      swap1\n      dup2\n      add\n      0x40\n      mstore\n      dup1\n      swap3\n      swap2\n      swap1\n      dup2\n      dup2\n      mstore\n      0x20\n      add\n      dup3\n      dup1\n      sload\n      tag_183\n      swap1\n      tag_182\n      jump\t// in\n    tag_183:\n      dup1\n      iszero\n      tag_184\n      jumpi\n      dup1\n      0x1f\n      lt\n      tag_185\n      jumpi\n      0x0100\n      dup1\n      dup4\n      sload\n      div\n      mul\n      dup4\n      mstore\n      swap2\n      0x20\n      add\n      swap2\n      jump(tag_184)\n    tag_185:\n      dup3\n      add\n      swap2\n      swap1\n      0x00\n      mstore\n      keccak256(0x00, 0x20)\n      swap1\n    tag_186:\n      dup2\n      sload\n      dup2\n      mstore\n      swap1\n      0x01\n      add\n      swap1\n      0x20\n      add\n      dup1\n      dup4\n      gt\n      tag_186\n      jumpi\n      dup3\n      swap1\n      sub\n      0x1f\n      and\n      dup3\n      add\n      swap2\n    tag_184:\n      pop\n      pop\n      pop\n      pop\n      pop\n      dup2\n      mstore\n      0x20\n      add\n      0x02\n      dup3\n      add\n      dup1\n      sload\n      tag_187\n      swap1\n      tag_182\n      jump\t// in\n    tag_187:\n      dup1\n      0x1f\n      add\n      0x20\n      dup1\n      swap2\n      div\n      mul\n      0x20\n      add\n      mload(0x40)\n      swap1\n      dup2\n      add\n      0x40\n      mstore\n      dup1\n      swap3\n      swap2\n      swap1\n      dup2\n      dup2\n      mstore\n      0x20\n      add\n      dup3\n      dup1\n      sload\n      tag_188\n      swap1\n      tag_182\n      jump\t// in\n    tag_188:\n      dup1\n      iszero\n      tag_189\n      jumpi\n      dup1\n      0x1f\n      lt\n      tag_190\n      jumpi\n      0x0100\n      dup1\n      dup4\n      sload\n      div\n      mul\n      dup4\n      mstore\n      swap2\n      0x20\n      add\n      swap2\n      jump(tag_189)\n    tag_190:\n      dup3\n      add\n      swap2\n      swap1\n      0x00\n      mstore\n      keccak256(0x00, 0x20)\n      swap1\n    tag_191:\n      dup2\n      sload\n      dup2\n      mstore\n      swap1\n      0x01\n      add\n      swap1\n      0x20\n      add\n      dup1\n      dup4\n      gt\n      tag_191\n      jumpi\n      dup3\n      swap1\n      sub\n      0x1f\n      and\n      dup3\n      add\n      swap2\n    tag_189:\n      pop\n      pop\n      pop\n      pop\n      pop\n      dup2\n      mstore\n      0x20\n      add\n      0x03\n      dup3\n      add\n      sload\n      dup2\n      mstore\n      0x20\n      add\n      0x04\n      dup3\n      add\n      sload\n      dup2\n      mstore\n      0x20\n      add\n      0x05\n      dup3\n      add\n      sload\n      dup2\n      mstore\n      pop\n      pop\n      swap1\n      pop\n        /* \"contracts/AuditLogger.sol\":6403:6420  bool matchesActor */\n      0x00\n        /* \"contracts/AuditLogger.sol\":6442:6443  0 */\n      0x00\n        /* \"contracts/AuditLogger.sol\":6424:6444  _actor == address(0) */\n      0xffffffffffffffffffffffffffffffffffffffff\n      and\n        /* \"contracts/AuditLogger.sol\":6424:6430  _actor */\n      dup10\n        /* \"contracts/AuditLogger.sol\":6424:6444  _actor == address(0) */\n      0xffffffffffffffffffffffffffffffffffffffff\n      and\n      eq\n        /* \"contracts/AuditLogger.sol\":6423:6470  (_actor == address(0)) || (log.actor == _actor) */\n      dup1\n      tag_192\n      jumpi\n      pop\n        /* \"contracts/AuditLogger.sol\":6463:6469  _actor */\n      dup9\n        /* \"contracts/AuditLogger.sol\":6450:6469  log.actor == _actor */\n      0xffffffffffffffffffffffffffffffffffffffff\n      and\n        /* \"contracts/AuditLogger.sol\":6450:6453  log */\n      dup3\n        /* \"contracts/AuditLogger.sol\":6450:6459  log.actor */\n      0x00\n      add\n      mload\n        /* \"contracts/AuditLogger.sol\":6450:6469  log.actor == _actor */\n      0xffffffffffffffffffffffffffffffffffffffff\n      and\n      eq\n        /* \"contracts/AuditLogger.sol\":6423:6470  (_actor == address(0)) || (log.actor == _actor) */\n    tag_192:\n        /* \"contracts/AuditLogger.sol\":6403:6470  bool matchesActor = (_actor == address(0)) || (log.actor == _actor) */\n      swap1\n      pop\n        /* \"contracts/AuditLogger.sol\":6485:6503  bool matchesAction */\n      0x00\n        /* \"contracts/AuditLogger.sol\":6532:6533  0 */\n      0x00\n        /* \"contracts/AuditLogger.sol\":6513:6520  _action */\n      dup10\n        /* \"contracts/AuditLogger.sol\":6507:6528  bytes(_action).length */\n      mload\n        /* \"contracts/AuditLogger.sol\":6507:6533  bytes(_action).length == 0 */\n      eq\n        /* \"contracts/AuditLogger.sol\":6506:6631  (bytes(_action).length == 0) || ... */\n      dup1\n      tag_193\n      jumpi\n      pop\n        /* \"contracts/AuditLogger.sol\":6621:6628  _action */\n      dup9\n        /* \"contracts/AuditLogger.sol\":6605:6630  keccak256(bytes(_action)) */\n      dup1\n      mload\n      swap1\n      0x20\n      add\n      keccak256\n        /* \"contracts/AuditLogger.sol\":6589:6592  log */\n      dup4\n        /* \"contracts/AuditLogger.sol\":6589:6599  log.action */\n      0x20\n      add\n      mload\n        /* \"contracts/AuditLogger.sol\":6573:6601  keccak256(bytes(log.action)) */\n      dup1\n      mload\n      swap1\n      0x20\n      add\n      keccak256\n        /* \"contracts/AuditLogger.sol\":6573:6630  keccak256(bytes(log.action)) == keccak256(bytes(_action)) */\n      eq\n        /* \"contracts/AuditLogger.sol\":6506:6631  (bytes(_action).length == 0) || ... */\n    tag_193:\n        /* \"contracts/AuditLogger.sol\":6485:6631  bool matchesAction = (bytes(_action).length == 0) || ... */\n      swap1\n      pop\n        /* \"contracts/AuditLogger.sol\":6646:6662  bool matchesTime */\n      0x00\n        /* \"contracts/AuditLogger.sol\":6683:6693  _startTime */\n      dup9\n        /* \"contracts/AuditLogger.sol\":6666:6669  log */\n      dup5\n        /* \"contracts/AuditLogger.sol\":6666:6679  log.timestamp */\n      0x60\n      add\n      mload\n        /* \"contracts/AuditLogger.sol\":6666:6693  log.timestamp >= _startTime */\n      lt\n      iszero\n        /* \"contracts/AuditLogger.sol\":6665:6725  (log.timestamp >= _startTime) && (log.timestamp <= _endTime) */\n      dup1\n      iszero\n      tag_194\n      jumpi\n      pop\n        /* \"contracts/AuditLogger.sol\":6716:6724  _endTime */\n      dup8\n        /* \"contracts/AuditLogger.sol\":6699:6702  log */\n      dup5\n        /* \"contracts/AuditLogger.sol\":6699:6712  log.timestamp */\n      0x60\n      add\n      mload\n        /* \"contracts/AuditLogger.sol\":6699:6724  log.timestamp <= _endTime */\n      gt\n      iszero\n        /* \"contracts/AuditLogger.sol\":6665:6725  (log.timestamp >= _startTime) && (log.timestamp <= _endTime) */\n    tag_194:\n        /* \"contracts/AuditLogger.sol\":6646:6725  bool matchesTime = (log.timestamp >= _startTime) && (log.timestamp <= _endTime) */\n      swap1\n      pop\n        /* \"contracts/AuditLogger.sol\":6758:6770  matchesActor */\n      dup3\n        /* \"contracts/AuditLogger.sol\":6758:6787  matchesActor && matchesAction */\n      dup1\n      iszero\n      tag_195\n      jumpi\n      pop\n        /* \"contracts/AuditLogger.sol\":6774:6787  matchesAction */\n      dup2\n        /* \"contracts/AuditLogger.sol\":6758:6787  matchesActor && matchesAction */\n    tag_195:\n        /* \"contracts/AuditLogger.sol\":6758:6802  matchesActor && matchesAction && matchesTime */\n      dup1\n      iszero\n      tag_196\n      jumpi\n      pop\n        /* \"contracts/AuditLogger.sol\":6791:6802  matchesTime */\n      dup1\n        /* \"contracts/AuditLogger.sol\":6758:6802  matchesActor && matchesAction && matchesTime */\n    tag_196:\n        /* \"contracts/AuditLogger.sol\":6754:6846  if (matchesActor && matchesAction && matchesTime) {... */\n      iszero\n      tag_197\n      jumpi\n        /* \"contracts/AuditLogger.sol\":6823:6830  count++ */\n      dup6\n      dup1\n      tag_198\n      swap1\n      tag_199\n      jump\t// in\n    tag_198:\n      swap7\n      pop\n      pop\n        /* \"contracts/AuditLogger.sol\":6754:6846  if (matchesActor && matchesAction && matchesTime) {... */\n    tag_197:\n        /* \"contracts/AuditLogger.sol\":6324:6857  {... */\n      pop\n      pop\n      pop\n      pop\n        /* \"contracts/AuditLogger.sol\":6319:6322  i++ */\n      dup1\n      dup1\n      0x01\n      add\n      swap2\n      pop\n      pop\n        /* \"contracts/AuditLogger.sol\":6276:6857  for (uint256 i = 0; i < auditTrail.length; i++) {... */\n      jump(tag_174)\n    tag_175:\n      pop\n        /* \"contracts/AuditLogger.sol\":6940:6945  count */\n      dup1\n        /* \"contracts/AuditLogger.sol\":6925:6946  new AuditLog[](count) */\n      0xffffffffffffffff\n      dup2\n      gt\n      iszero\n      tag_200\n      jumpi\n      tag_201\n      tag_202\n      jump\t// in\n    tag_201:\n    tag_200:\n      mload(0x40)\n      swap1\n      dup1\n      dup3\n      mstore\n      dup1\n      0x20\n      mul\n      0x20\n      add\n      dup3\n      add\n      0x40\n      mstore\n      dup1\n      iszero\n      tag_203\n      jumpi\n      dup2\n      0x20\n      add\n    tag_204:\n      tag_205\n      tag_206\n      jump\t// in\n    tag_205:\n      dup2\n      mstore\n      0x20\n      add\n      swap1\n      0x01\n      swap1\n      sub\n      swap1\n      dup2\n      tag_204\n      jumpi\n      swap1\n      pop\n    tag_203:\n      pop\n        /* \"contracts/AuditLogger.sol\":6918:6946  logs = new AuditLog[](count) */\n      swap2\n      pop\n        /* \"contracts/AuditLogger.sol\":6957:6970  uint256 index */\n      0x00\n        /* \"contracts/AuditLogger.sol\":6973:6974  0 */\n      0x00\n        /* \"contracts/AuditLogger.sol\":6957:6974  uint256 index = 0 */\n      swap1\n      pop\n        /* \"contracts/AuditLogger.sol\":7000:7009  uint256 i */\n      0x00\n        /* \"contracts/AuditLogger.sol\":7012:7013  0 */\n      0x00\n        /* \"contracts/AuditLogger.sol\":7000:7013  uint256 i = 0 */\n      swap1\n      pop\n        /* \"contracts/AuditLogger.sol\":6995:7612  for (uint256 i = 0; i < auditTrail.length; i++) {... */\n    tag_207:\n        /* \"contracts/AuditLogger.sol\":7019:7029  auditTrail */\n      0x02\n        /* \"contracts/AuditLogger.sol\":7019:7036  auditTrail.length */\n      dup1\n      sload\n      swap1\n      pop\n        /* \"contracts/AuditLogger.sol\":7015:7016  i */\n      dup2\n        /* \"contracts/AuditLogger.sol\":7015:7036  i < auditTrail.length */\n      lt\n        /* \"contracts/AuditLogger.sol\":6995:7612  for (uint256 i = 0; i < auditTrail.length; i++) {... */\n      iszero\n      tag_208\n      jumpi\n        /* \"contracts/AuditLogger.sol\":7058:7077  AuditLog memory log */\n      0x00\n        /* \"contracts/AuditLogger.sol\":7080:7090  auditTrail */\n      0x02\n        /* \"contracts/AuditLogger.sol\":7091:7092  i */\n      dup3\n        /* \"contracts/AuditLogger.sol\":7080:7093  auditTrail[i] */\n      dup2\n      sload\n      dup2\n      lt\n      tag_210\n      jumpi\n      tag_211\n      tag_179\n      jump\t// in\n    tag_211:\n    tag_210:\n      swap1\n      0x00\n      mstore\n      keccak256(0x00, 0x20)\n      swap1\n      0x06\n      mul\n      add\n        /* \"contracts/AuditLogger.sol\":7058:7093  AuditLog memory log = auditTrail[i] */\n      mload(0x40)\n      dup1\n      0xc0\n      add\n      0x40\n      mstore\n      swap1\n      dup2\n      0x00\n      dup3\n      add\n      0x00\n      swap1\n      sload\n      swap1\n      0x0100\n      exp\n      swap1\n      div\n      0xffffffffffffffffffffffffffffffffffffffff\n      and\n      0xffffffffffffffffffffffffffffffffffffffff\n      and\n      0xffffffffffffffffffffffffffffffffffffffff\n      and\n      dup2\n      mstore\n      0x20\n      add\n      0x01\n      dup3\n      add\n      dup1\n      sload\n      tag_213\n      swap1\n      tag_182\n      jump\t// in\n    tag_213:\n      dup1\n      0x1f\n      add\n      0x20\n      dup1\n      swap2\n      div\n      mul\n      0x20\n      add\n      mload(0x40)\n      swap1\n      dup2\n      add\n      0x40\n      mstore\n      dup1\n      swap3\n      swap2\n      swap1\n      dup2\n      dup2\n      mstore\n      0x20\n      add\n      dup3\n      dup1\n      sload\n      tag_214\n      swap1\n      tag_182\n      jump\t// in\n    tag_214:\n      dup1\n      iszero\n      tag_215\n      jumpi\n      dup1\n      0x1f\n      lt\n      tag_216\n      jumpi\n      0x0100\n      dup1\n      dup4\n      sload\n      div\n      mul\n      dup4\n      mstore\n      swap2\n      0x20\n      add\n      swap2\n      jump(tag_215)\n    tag_216:\n      dup3\n      add\n      swap2\n      swap1\n      0x00\n      mstore\n      keccak256(0x00, 0x20)\n      swap1\n    tag_217:\n      dup2\n      sload\n      dup2\n      mstore\n      swap1\n      0x01\n      add\n      swap1\n      0x20\n      add\n      dup1\n      dup4\n      gt\n      tag_217\n      jumpi\n      dup3\n      swap1\n      sub\n      0x1f\n      and\n      dup3\n      add\n      swap2\n    tag_215:\n      pop\n      pop\n      pop\n      pop\n      pop\n      dup2\n      mstore\n      0x20\n      add\n      0x02\n      dup3\n      add\n      dup1\n      sload\n      tag_218\n      swap1\n      tag_182\n      jump\t// in\n    tag_218:\n      dup1\n      0x1f\n      add\n      0x20\n      dup1\n      swap2\n      div\n      mul\n      0x20\n      add\n      mload(0x40)\n      swap1\n      dup2\n      add\n      0x40\n      mstore\n      dup1\n      swap3\n      swap2\n      swap1\n      dup2\n      dup2\n      mstore\n      0x20\n      add\n      dup3\n      dup1\n      sload\n      tag_219\n      swap1\n      tag_182\n      jump\t// in\n    tag_219:\n      dup1\n      iszero\n      tag_220\n      jumpi\n      dup1\n      0x1f\n      lt\n      tag_221\n      jumpi\n      0x0100\n      dup1\n      dup4\n      sload\n      div\n      mul\n      dup4\n      mstore\n      swap2\n      0x20\n      add\n      swap2\n      jump(tag_220)\n    tag_221:\n      dup3\n      add\n      swap2\n      swap1\n      0x00\n      mstore\n      keccak256(0x00, 0x20)\n      swap1\n    tag_222:\n      dup2\n      sload\n      dup2\n      mstore\n      swap1\n      0x01\n      add\n      swap1\n      0x20\n      add\n      dup1\n      dup4\n      gt\n      tag_222\n      jumpi\n      dup3\n      swap1\n      sub\n      0x1f\n      and\n      dup3\n      add\n      swap2\n    tag_220:\n      pop\n      pop\n      pop\n      pop\n      pop\n      dup2\n      mstore\n      0x20\n      add\n      0x03\n      dup3\n      add\n      sload\n      dup2\n      mstore\n      0x20\n      add\n      0x04\n      dup3\n      add\n      sload\n      dup2\n      mstore\n      0x20\n      add\n      0x05\n      dup3\n      add\n      sload\n      dup2\n      mstore\n      pop\n      pop\n      swap1\n      pop\n        /* \"contracts/AuditLogger.sol\":7122:7139  bool matchesActor */\n      0x00\n        /* \"contracts/AuditLogger.sol\":7161:7162  0 */\n      0x00\n        /* \"contracts/AuditLogger.sol\":7143:7163  _actor == address(0) */\n      0xffffffffffffffffffffffffffffffffffffffff\n      and\n        /* \"contracts/AuditLogger.sol\":7143:7149  _actor */\n      dup11\n        /* \"contracts/AuditLogger.sol\":7143:7163  _actor == address(0) */\n      0xffffffffffffffffffffffffffffffffffffffff\n      and\n      eq\n        /* \"contracts/AuditLogger.sol\":7142:7189  (_actor == address(0)) || (log.actor == _actor) */\n      dup1\n      tag_223\n      jumpi\n      pop\n        /* \"contracts/AuditLogger.sol\":7182:7188  _actor */\n      dup10\n        /* \"contracts/AuditLogger.sol\":7169:7188  log.actor == _actor */\n      0xffffffffffffffffffffffffffffffffffffffff\n      and\n        /* \"contracts/AuditLogger.sol\":7169:7172  log */\n      dup3\n        /* \"contracts/AuditLogger.sol\":7169:7178  log.actor */\n      0x00\n      add\n      mload\n        /* \"contracts/AuditLogger.sol\":7169:7188  log.actor == _actor */\n      0xffffffffffffffffffffffffffffffffffffffff\n      and\n      eq\n        /* \"contracts/AuditLogger.sol\":7142:7189  (_actor == address(0)) || (log.actor == _actor) */\n    tag_223:\n        /* \"contracts/AuditLogger.sol\":7122:7189  bool matchesActor = (_actor == address(0)) || (log.actor == _actor) */\n      swap1\n      pop\n        /* \"contracts/AuditLogger.sol\":7204:7222  bool matchesAction */\n      0x00\n        /* \"contracts/AuditLogger.sol\":7251:7252  0 */\n      0x00\n        /* \"contracts/AuditLogger.sol\":7232:7239  _action */\n      dup11\n        /* \"contracts/AuditLogger.sol\":7226:7247  bytes(_action).length */\n      mload\n        /* \"contracts/AuditLogger.sol\":7226:7252  bytes(_action).length == 0 */\n      eq\n        /* \"contracts/AuditLogger.sol\":7225:7350  (bytes(_action).length == 0) || ... */\n      dup1\n      tag_224\n      jumpi\n      pop\n        /* \"contracts/AuditLogger.sol\":7340:7347  _action */\n      dup10\n        /* \"contracts/AuditLogger.sol\":7324:7349  keccak256(bytes(_action)) */\n      dup1\n      mload\n      swap1\n      0x20\n      add\n      keccak256\n        /* \"contracts/AuditLogger.sol\":7308:7311  log */\n      dup4\n        /* \"contracts/AuditLogger.sol\":7308:7318  log.action */\n      0x20\n      add\n      mload\n        /* \"contracts/AuditLogger.sol\":7292:7320  keccak256(bytes(log.action)) */\n      dup1\n      mload\n      swap1\n      0x20\n      add\n      keccak256\n        /* \"contracts/AuditLogger.sol\":7292:7349  keccak256(bytes(log.action)) == keccak256(bytes(_action)) */\n      eq\n        /* \"contracts/AuditLogger.sol\":7225:7350  (bytes(_action).length == 0) || ... */\n    tag_224:\n        /* \"contracts/AuditLogger.sol\":7204:7350  bool matchesAction = (bytes(_action).length == 0) || ... */\n      swap1\n      pop\n        /* \"contracts/AuditLogger.sol\":7365:7381  bool matchesTime */\n      0x00\n        /* \"contracts/AuditLogger.sol\":7402:7412  _startTime */\n      dup10\n        /* \"contracts/AuditLogger.sol\":7385:7388  log */\n      dup5\n        /* \"contracts/AuditLogger.sol\":7385:7398  log.timestamp */\n      0x60\n      add\n      mload\n        /* \"contracts/AuditLogger.sol\":7385:7412  log.timestamp >= _startTime */\n      lt\n      iszero\n        /* \"contracts/AuditLogger.sol\":7384:7444  (log.timestamp >= _startTime) && (log.timestamp <= _endTime) */\n      dup1\n      iszero\n      tag_225\n      jumpi\n      pop\n        /* \"contracts/AuditLogger.sol\":7435:7443  _endTime */\n      dup9\n        /* \"contracts/AuditLogger.sol\":7418:7421  log */\n      dup5\n        /* \"contracts/AuditLogger.sol\":7418:7431  log.timestamp */\n      0x60\n      add\n      mload\n        /* \"contracts/AuditLogger.sol\":7418:7443  log.timestamp <= _endTime */\n      gt\n      iszero\n        /* \"contracts/AuditLogger.sol\":7384:7444  (log.timestamp >= _startTime) && (log.timestamp <= _endTime) */\n    tag_225:\n        /* \"contracts/AuditLogger.sol\":7365:7444  bool matchesTime = (log.timestamp >= _startTime) && (log.timestamp <= _endTime) */\n      swap1\n      pop\n        /* \"contracts/AuditLogger.sol\":7477:7489  matchesActor */\n      dup3\n        /* \"contracts/AuditLogger.sol\":7477:7506  matchesActor && matchesAction */\n      dup1\n      iszero\n      tag_226\n      jumpi\n      pop\n        /* \"contracts/AuditLogger.sol\":7493:7506  matchesAction */\n      dup2\n        /* \"contracts/AuditLogger.sol\":7477:7506  matchesActor && matchesAction */\n    tag_226:\n        /* \"contracts/AuditLogger.sol\":7477:7521  matchesActor && matchesAction && matchesTime */\n      dup1\n      iszero\n      tag_227\n      jumpi\n      pop\n        /* \"contracts/AuditLogger.sol\":7510:7521  matchesTime */\n      dup1\n        /* \"contracts/AuditLogger.sol\":7477:7521  matchesActor && matchesAction && matchesTime */\n    tag_227:\n        /* \"contracts/AuditLogger.sol\":7473:7601  if (matchesActor && matchesAction && matchesTime) {... */\n      iszero\n      tag_228\n      jumpi\n        /* \"contracts/AuditLogger.sol\":7556:7559  log */\n      dup4\n        /* \"contracts/AuditLogger.sol\":7542:7546  logs */\n      dup9\n        /* \"contracts/AuditLogger.sol\":7547:7552  index */\n      dup8\n        /* \"contracts/AuditLogger.sol\":7542:7553  logs[index] */\n      dup2\n      mload\n      dup2\n      lt\n      tag_229\n      jumpi\n      tag_230\n      tag_179\n      jump\t// in\n    tag_230:\n    tag_229:\n      0x20\n      mul\n      0x20\n      add\n      add\n        /* \"contracts/AuditLogger.sol\":7542:7559  logs[index] = log */\n      dup2\n      swap1\n      mstore\n      pop\n        /* \"contracts/AuditLogger.sol\":7578:7585  index++ */\n      dup6\n      dup1\n      tag_231\n      swap1\n      tag_199\n      jump\t// in\n    tag_231:\n      swap7\n      pop\n      pop\n        /* \"contracts/AuditLogger.sol\":7473:7601  if (matchesActor && matchesAction && matchesTime) {... */\n    tag_228:\n        /* \"contracts/AuditLogger.sol\":7043:7612  {... */\n      pop\n      pop\n      pop\n      pop\n        /* \"contracts/AuditLogger.sol\":7038:7041  i++ */\n      dup1\n      dup1\n      0x01\n      add\n      swap2\n      pop\n      pop\n        /* \"contracts/AuditLogger.sol\":6995:7612  for (uint256 i = 0; i < auditTrail.length; i++) {... */\n      jump(tag_207)\n    tag_208:\n      pop\n        /* \"contracts/AuditLogger.sol\":7632:7643  return logs */\n      pop\n      pop\n        /* \"contracts/AuditLogger.sol\":6012:7651  function searchLogs(... */\n      swap5\n      swap4\n      pop\n      pop\n      pop\n      pop\n      jump\t// out\n        /* \"contracts/AuditLogger.sol\":565:611  mapping(string => uint256[]) public actionLogs */\n    tag_54:\n      0x04\n      dup3\n      dup1\n      mload\n      0x20\n      dup2\n      add\n      dup3\n      add\n      dup1\n      mload\n      dup5\n      dup3\n      mstore\n      0x20\n      dup4\n      add\n      0x20\n      dup6\n      add\n      keccak256\n      dup2\n      dup4\n      mstore\n      dup1\n      swap6\n      pop\n      pop\n      pop\n      pop\n      pop\n      pop\n      dup2\n      dup2\n      sload\n      dup2\n      lt\n      tag_232\n      jumpi\n      0x00\n      dup1\n      revert\n    tag_232:\n      swap1\n      0x00\n      mstore\n      keccak256(0x00, 0x20)\n      add\n      0x00\n      swap2\n      pop\n      swap2\n      pop\n      pop\n      sload\n      dup2\n      jump\t// out\n        /* \"contracts/AuditLogger.sol\":4826:5475  function getLogsByAction(string memory _action, uint256 _limit) external view returns (AuditLog[] memory logs) {... */\n    tag_59:\n        /* \"contracts/AuditLogger.sol\":4913:4935  AuditLog[] memory logs */\n      0x60\n        /* \"contracts/AuditLogger.sol\":4948:4981  uint256[] memory actionLogIndices */\n      0x00\n        /* \"contracts/AuditLogger.sol\":4984:4994  actionLogs */\n      0x04\n        /* \"contracts/AuditLogger.sol\":4995:5002  _action */\n      dup5\n        /* \"contracts/AuditLogger.sol\":4984:5003  actionLogs[_action] */\n      mload(0x40)\n      tag_235\n      swap2\n      swap1\n      tag_236\n      jump\t// in\n    tag_235:\n      swap1\n      dup2\n      mstore\n      0x20\n      add\n      mload(0x40)\n      dup1\n      swap2\n      sub\n      swap1\n      keccak256\n        /* \"contracts/AuditLogger.sol\":4948:5003  uint256[] memory actionLogIndices = actionLogs[_action] */\n      dup1\n      sload\n      dup1\n      0x20\n      mul\n      0x20\n      add\n      mload(0x40)\n      swap1\n      dup2\n      add\n      0x40\n      mstore\n      dup1\n      swap3\n      swap2\n      swap1\n      dup2\n      dup2\n      mstore\n      0x20\n      add\n      dup3\n      dup1\n      sload\n      dup1\n      iszero\n      tag_237\n      jumpi\n      0x20\n      mul\n      dup3\n      add\n      swap2\n      swap1\n      0x00\n      mstore\n      keccak256(0x00, 0x20)\n      swap1\n    tag_238:\n      dup2\n      sload\n      dup2\n      mstore\n      0x20\n      add\n      swap1\n      0x01\n      add\n      swap1\n      dup1\n      dup4\n      gt\n      tag_238\n      jumpi\n    tag_237:\n      pop\n      pop\n      pop\n      pop\n      pop\n      swap1\n      pop\n        /* \"contracts/AuditLogger.sol\":5014:5028  uint256 length */\n      0x00\n        /* \"contracts/AuditLogger.sol\":5031:5047  actionLogIndices */\n      dup2\n        /* \"contracts/AuditLogger.sol\":5031:5054  actionLogIndices.length */\n      mload\n        /* \"contracts/AuditLogger.sol\":5014:5054  uint256 length = actionLogIndices.length */\n      swap1\n      pop\n        /* \"contracts/AuditLogger.sol\":5088:5089  0 */\n      0x00\n        /* \"contracts/AuditLogger.sol\":5079:5085  _limit */\n      dup5\n        /* \"contracts/AuditLogger.sol\":5079:5089  _limit > 0 */\n      gt\n        /* \"contracts/AuditLogger.sol\":5079:5108  _limit > 0 && _limit < length */\n      dup1\n      iszero\n      tag_239\n      jumpi\n      pop\n        /* \"contracts/AuditLogger.sol\":5102:5108  length */\n      dup1\n        /* \"contracts/AuditLogger.sol\":5093:5099  _limit */\n      dup5\n        /* \"contracts/AuditLogger.sol\":5093:5108  _limit < length */\n      lt\n        /* \"contracts/AuditLogger.sol\":5079:5108  _limit > 0 && _limit < length */\n    tag_239:\n        /* \"contracts/AuditLogger.sol\":5075:5152  if (_limit > 0 && _limit < length) {... */\n      iszero\n      tag_240\n      jumpi\n        /* \"contracts/AuditLogger.sol\":5134:5140  _limit */\n      dup4\n        /* \"contracts/AuditLogger.sol\":5125:5140  length = _limit */\n      swap1\n      pop\n        /* \"contracts/AuditLogger.sol\":5075:5152  if (_limit > 0 && _limit < length) {... */\n    tag_240:\n        /* \"contracts/AuditLogger.sol\":5194:5200  length */\n      dup1\n        /* \"contracts/AuditLogger.sol\":5179:5201  new AuditLog[](length) */\n      0xffffffffffffffff\n      dup2\n      gt\n      iszero\n      tag_241\n      jumpi\n      tag_242\n      tag_202\n      jump\t// in\n    tag_242:\n    tag_241:\n      mload(0x40)\n      swap1\n      dup1\n      dup3\n      mstore\n      dup1\n      0x20\n      mul\n      0x20\n      add\n      dup3\n      add\n      0x40\n      mstore\n      dup1\n      iszero\n      tag_243\n      jumpi\n      dup2\n      0x20\n      add\n    tag_244:\n      tag_245\n      tag_206\n      jump\t// in\n    tag_245:\n      dup2\n      mstore\n      0x20\n      add\n      swap1\n      0x01\n      swap1\n      sub\n      swap1\n      dup2\n      tag_244\n      jumpi\n      swap1\n      pop\n    tag_243:\n      pop\n        /* \"contracts/AuditLogger.sol\":5172:5201  logs = new AuditLog[](length) */\n      swap3\n      pop\n        /* \"contracts/AuditLogger.sol\":5264:5273  uint256 i */\n      0x00\n        /* \"contracts/AuditLogger.sol\":5276:5277  0 */\n      0x00\n        /* \"contracts/AuditLogger.sol\":5264:5277  uint256 i = 0 */\n      swap1\n      pop\n        /* \"contracts/AuditLogger.sol\":5259:5436  for (uint256 i = 0; i < length; i++) {... */\n    tag_246:\n        /* \"contracts/AuditLogger.sol\":5283:5289  length */\n      dup2\n        /* \"contracts/AuditLogger.sol\":5279:5280  i */\n      dup2\n        /* \"contracts/AuditLogger.sol\":5279:5289  i < length */\n      lt\n        /* \"contracts/AuditLogger.sol\":5259:5436  for (uint256 i = 0; i < length; i++) {... */\n      iszero\n      tag_247\n      jumpi\n        /* \"contracts/AuditLogger.sol\":5311:5327  uint256 logIndex */\n      0x00\n        /* \"contracts/AuditLogger.sol\":5330:5346  actionLogIndices */\n      dup4\n        /* \"contracts/AuditLogger.sol\":5377:5378  i */\n      dup3\n        /* \"contracts/AuditLogger.sol\":5373:5374  1 */\n      0x01\n        /* \"contracts/AuditLogger.sol\":5347:5363  actionLogIndices */\n      dup7\n        /* \"contracts/AuditLogger.sol\":5347:5370  actionLogIndices.length */\n      mload\n        /* \"contracts/AuditLogger.sol\":5347:5374  actionLogIndices.length - 1 */\n      tag_249\n      swap2\n      swap1\n      tag_250\n      jump\t// in\n    tag_249:\n        /* \"contracts/AuditLogger.sol\":5347:5378  actionLogIndices.length - 1 - i */\n      tag_251\n      swap2\n      swap1\n      tag_250\n      jump\t// in\n    tag_251:\n        /* \"contracts/AuditLogger.sol\":5330:5379  actionLogIndices[actionLogIndices.length - 1 - i] */\n      dup2\n      mload\n      dup2\n      lt\n      tag_252\n      jumpi\n      tag_253\n      tag_179\n      jump\t// in\n    tag_253:\n    tag_252:\n      0x20\n      mul\n      0x20\n      add\n      add\n      mload\n        /* \"contracts/AuditLogger.sol\":5311:5379  uint256 logIndex = actionLogIndices[actionLogIndices.length - 1 - i] */\n      swap1\n      pop\n        /* \"contracts/AuditLogger.sol\":5404:5414  auditTrail */\n      0x02\n        /* \"contracts/AuditLogger.sol\":5415:5423  logIndex */\n      dup2\n        /* \"contracts/AuditLogger.sol\":5404:5424  auditTrail[logIndex] */\n      dup2\n      sload\n      dup2\n      lt\n      tag_254\n      jumpi\n      tag_255\n      tag_179\n      jump\t// in\n    tag_255:\n    tag_254:\n      swap1\n      0x00\n      mstore\n      keccak256(0x00, 0x20)\n      swap1\n      0x06\n      mul\n      add\n        /* \"contracts/AuditLogger.sol\":5394:5424  logs[i] = auditTrail[logIndex] */\n      mload(0x40)\n      dup1\n      0xc0\n      add\n      0x40\n      mstore\n      swap1\n      dup2\n      0x00\n      dup3\n      add\n      0x00\n      swap1\n      sload\n      swap1\n      0x0100\n      exp\n      swap1\n      div\n      0xffffffffffffffffffffffffffffffffffffffff\n      and\n      0xffffffffffffffffffffffffffffffffffffffff\n      and\n      0xffffffffffffffffffffffffffffffffffffffff\n      and\n      dup2\n      mstore\n      0x20\n      add\n      0x01\n      dup3\n      add\n      dup1\n      sload\n      tag_257\n      swap1\n      tag_182\n      jump\t// in\n    tag_257:\n      dup1\n      0x1f\n      add\n      0x20\n      dup1\n      swap2\n      div\n      mul\n      0x20\n      add\n      mload(0x40)\n      swap1\n      dup2\n      add\n      0x40\n      mstore\n      dup1\n      swap3\n      swap2\n      swap1\n      dup2\n      dup2\n      mstore\n      0x20\n      add\n      dup3\n      dup1\n      sload\n      tag_258\n      swap1\n      tag_182\n      jump\t// in\n    tag_258:\n      dup1\n      iszero\n      tag_259\n      jumpi\n      dup1\n      0x1f\n      lt\n      tag_260\n      jumpi\n      0x0100\n      dup1\n      dup4\n      sload\n      div\n      mul\n      dup4\n      mstore\n      swap2\n      0x20\n      add\n      swap2\n      jump(tag_259)\n    tag_260:\n      dup3\n      add\n      swap2\n      swap1\n      0x00\n      mstore\n      keccak256(0x00, 0x20)\n      swap1\n    tag_261:\n      dup2\n      sload\n      dup2\n      mstore\n      swap1\n      0x01\n      add\n      swap1\n      0x20\n      add\n      dup1\n      dup4\n      gt\n      tag_261\n      jumpi\n      dup3\n      swap1\n      sub\n      0x1f\n      and\n      dup3\n      add\n      swap2\n    tag_259:\n      pop\n      pop\n      pop\n      pop\n      pop\n      dup2\n      mstore\n      0x20\n      add\n      0x02\n      dup3\n      add\n      dup1\n      sload\n      tag_262\n      swap1\n      tag_182\n      jump\t// in\n    tag_262:\n      dup1\n      0x1f\n      add\n      0x20\n      dup1\n      swap2\n      div\n      mul\n      0x20\n      add\n      mload(0x40)\n      swap1\n      dup2\n      add\n      0x40\n      mstore\n      dup1\n      swap3\n      swap2\n      swap1\n      dup2\n      dup2\n      mstore\n      0x20\n      add\n      dup3\n      dup1\n      sload\n      tag_263\n      swap1\n      tag_182\n      jump\t// in\n    tag_263:\n      dup1\n      iszero\n      tag_264\n      jumpi\n      dup1\n      0x1f\n      lt\n      tag_265\n      jumpi\n      0x0100\n      dup1\n      dup4\n      sload\n      div\n      mul\n      dup4\n      mstore\n      swap2\n      0x20\n      add\n      swap2\n      jump(tag_264)\n    tag_265:\n      dup3\n      add\n      swap2\n      swap1\n      0x00\n      mstore\n      keccak256(0x00, 0x20)\n      swap1\n    tag_266:\n      dup2\n      sload\n      dup2\n      mstore\n      swap1\n      0x01\n      add\n      swap1\n      0x20\n      add\n      dup1\n      dup4\n      gt\n      tag_266\n      jumpi\n      dup3\n      swap1\n      sub\n      0x1f\n      and\n      dup3\n      add\n      swap2\n    tag_264:\n      pop\n      pop\n      pop\n      pop\n      pop\n      dup2\n      mstore\n      0x20\n      add\n      0x03\n      dup3\n      add\n      sload\n      dup2\n      mstore\n      0x20\n      add\n      0x04\n      dup3\n      add\n      sload\n      dup2\n      mstore\n      0x20\n      add\n      0x05\n      dup3\n      add\n      sload\n      dup2\n      mstore\n      pop\n      pop\n        /* \"contracts/AuditLogger.sol\":5394:5398  logs */\n      dup6\n        /* \"contracts/AuditLogger.sol\":5399:5400  i */\n      dup4\n        /* \"contracts/AuditLogger.sol\":5394:5401  logs[i] */\n      dup2\n      mload\n      dup2\n      lt\n      tag_267\n      jumpi\n      tag_268\n      tag_179\n      jump\t// in\n    tag_268:\n    tag_267:\n      0x20\n      mul\n      0x20\n      add\n      add\n        /* \"contracts/AuditLogger.sol\":5394:5424  logs[i] = auditTrail[logIndex] */\n      dup2\n      swap1\n      mstore\n      pop\n        /* \"contracts/AuditLogger.sol\":5296:5436  {... */\n      pop\n        /* \"contracts/AuditLogger.sol\":5291:5294  i++ */\n      dup1\n      dup1\n      0x01\n      add\n      swap2\n      pop\n      pop\n        /* \"contracts/AuditLogger.sol\":5259:5436  for (uint256 i = 0; i < length; i++) {... */\n      jump(tag_246)\n    tag_247:\n      pop\n        /* \"contracts/AuditLogger.sol\":5456:5467  return logs */\n      pop\n      pop\n        /* \"contracts/AuditLogger.sol\":4826:5475  function getLogsByAction(string memory _action, uint256 _limit) external view returns (AuditLog[] memory logs) {... */\n      swap3\n      swap2\n      pop\n      pop\n      jump\t// out\n        /* \"@openzeppelin/contracts/access/AccessControl.sol\":3786:3906  function getRoleAdmin(bytes32 role) public view virtual returns (bytes32) {... */\n    tag_64:\n        /* \"@openzeppelin/contracts/access/AccessControl.sol\":3851:3858  bytes32 */\n      0x00\n        /* \"@openzeppelin/contracts/access/AccessControl.sol\":3877:3883  _roles */\n      0x00\n        /* \"@openzeppelin/contracts/access/AccessControl.sol\":3877:3889  _roles[role] */\n      0x00\n        /* \"@openzeppelin/contracts/access/AccessControl.sol\":3884:3888  role */\n      dup4\n        /* \"@openzeppelin/contracts/access/AccessControl.sol\":3877:3889  _roles[role] */\n      dup2\n      mstore\n      0x20\n      add\n      swap1\n      dup2\n      mstore\n      0x20\n      add\n      0x00\n      keccak256\n        /* \"@openzeppelin/contracts/access/AccessControl.sol\":3877:3899  _roles[role].adminRole */\n      0x01\n      add\n      sload\n        /* \"@openzeppelin/contracts/access/AccessControl.sol\":3870:3899  return _roles[role].adminRole */\n      swap1\n      pop\n        /* \"@openzeppelin/contracts/access/AccessControl.sol\":3786:3906  function getRoleAdmin(bytes32 role) public view virtual returns (bytes32) {... */\n      swap2\n      swap1\n      pop\n      jump\t// out\n        /* \"contracts/AuditLogger.sol\":10030:11447  function exportAuditTrail(... */\n    tag_70:\n        /* \"contracts/AuditLogger.sol\":10193:10215  AuditLog[] memory logs */\n      0x60\n        /* \"contracts/AuditLogger.sol\":10217:10229  bool hasMore */\n      0x00\n        /* \"contracts/AuditLogger.sol\":10259:10260  0 */\n      0x00\n        /* \"contracts/AuditLogger.sol\":10250:10256  _limit */\n      dup4\n        /* \"contracts/AuditLogger.sol\":10250:10260  _limit > 0 */\n      gt\n        /* \"contracts/AuditLogger.sol\":10250:10277  _limit > 0 && _limit <= 100 */\n      dup1\n      iszero\n      tag_271\n      jumpi\n      pop\n        /* \"contracts/AuditLogger.sol\":10274:10277  100 */\n      0x64\n        /* \"contracts/AuditLogger.sol\":10264:10270  _limit */\n      dup4\n        /* \"contracts/AuditLogger.sol\":10264:10277  _limit <= 100 */\n      gt\n      iszero\n        /* \"contracts/AuditLogger.sol\":10250:10277  _limit > 0 && _limit <= 100 */\n    tag_271:\n        /* \"contracts/AuditLogger.sol\":10242:10303  require(_limit > 0 && _limit <= 100, \"Invalid limit (1-100)\") */\n      tag_272\n      jumpi\n      mload(0x40)\n      0x08c379a000000000000000000000000000000000000000000000000000000000\n      dup2\n      mstore\n      0x04\n      add\n      tag_273\n      swap1\n      tag_274\n      jump\t// in\n    tag_273:\n      mload(0x40)\n      dup1\n      swap2\n      sub\n      swap1\n      revert\n    tag_272:\n        /* \"contracts/AuditLogger.sol\":10362:10383  uint256 totalMatching */\n      0x00\n        /* \"contracts/AuditLogger.sol\":10386:10387  0 */\n      0x00\n        /* \"contracts/AuditLogger.sol\":10362:10387  uint256 totalMatching = 0 */\n      swap1\n      pop\n        /* \"contracts/AuditLogger.sol\":10403:10412  uint256 i */\n      0x00\n        /* \"contracts/AuditLogger.sol\":10415:10416  0 */\n      0x00\n        /* \"contracts/AuditLogger.sol\":10403:10416  uint256 i = 0 */\n      swap1\n      pop\n        /* \"contracts/AuditLogger.sol\":10398:10604  for (uint256 i = 0; i < auditTrail.length; i++) {... */\n    tag_275:\n        /* \"contracts/AuditLogger.sol\":10422:10432  auditTrail */\n      0x02\n        /* \"contracts/AuditLogger.sol\":10422:10439  auditTrail.length */\n      dup1\n      sload\n      swap1\n      pop\n        /* \"contracts/AuditLogger.sol\":10418:10419  i */\n      dup2\n        /* \"contracts/AuditLogger.sol\":10418:10439  i < auditTrail.length */\n      lt\n        /* \"contracts/AuditLogger.sol\":10398:10604  for (uint256 i = 0; i < auditTrail.length; i++) {... */\n      iszero\n      tag_276\n      jumpi\n        /* \"contracts/AuditLogger.sol\":10492:10502  _startTime */\n      dup8\n        /* \"contracts/AuditLogger.sol\":10465:10475  auditTrail */\n      0x02\n        /* \"contracts/AuditLogger.sol\":10476:10477  i */\n      dup3\n        /* \"contracts/AuditLogger.sol\":10465:10478  auditTrail[i] */\n      dup2\n      sload\n      dup2\n      lt\n      tag_278\n      jumpi\n      tag_279\n      tag_179\n      jump\t// in\n    tag_279:\n    tag_278:\n      swap1\n      0x00\n      mstore\n      keccak256(0x00, 0x20)\n      swap1\n      0x06\n      mul\n      add\n        /* \"contracts/AuditLogger.sol\":10465:10488  auditTrail[i].timestamp */\n      0x03\n      add\n      sload\n        /* \"contracts/AuditLogger.sol\":10465:10502  auditTrail[i].timestamp >= _startTime */\n      lt\n      iszero\n        /* \"contracts/AuditLogger.sol\":10465:10541  auditTrail[i].timestamp >= _startTime && auditTrail[i].timestamp <= _endTime */\n      dup1\n      iszero\n      tag_281\n      jumpi\n      pop\n        /* \"contracts/AuditLogger.sol\":10533:10541  _endTime */\n      dup7\n        /* \"contracts/AuditLogger.sol\":10506:10516  auditTrail */\n      0x02\n        /* \"contracts/AuditLogger.sol\":10517:10518  i */\n      dup3\n        /* \"contracts/AuditLogger.sol\":10506:10519  auditTrail[i] */\n      dup2\n      sload\n      dup2\n      lt\n      tag_282\n      jumpi\n      tag_283\n      tag_179\n      jump\t// in\n    tag_283:\n    tag_282:\n      swap1\n      0x00\n      mstore\n      keccak256(0x00, 0x20)\n      swap1\n      0x06\n      mul\n      add\n        /* \"contracts/AuditLogger.sol\":10506:10529  auditTrail[i].timestamp */\n      0x03\n      add\n      sload\n        /* \"contracts/AuditLogger.sol\":10506:10541  auditTrail[i].timestamp <= _endTime */\n      gt\n      iszero\n        /* \"contracts/AuditLogger.sol\":10465:10541  auditTrail[i].timestamp >= _startTime && auditTrail[i].timestamp <= _endTime */\n    tag_281:\n        /* \"contracts/AuditLogger.sol\":10461:10593  if (auditTrail[i].timestamp >= _startTime && auditTrail[i].timestamp <= _endTime) {... */\n      iszero\n      tag_285\n      jumpi\n        /* \"contracts/AuditLogger.sol\":10562:10577  totalMatching++ */\n      dup2\n      dup1\n      tag_286\n      swap1\n      tag_199\n      jump\t// in\n    tag_286:\n      swap3\n      pop\n      pop\n        /* \"contracts/AuditLogger.sol\":10461:10593  if (auditTrail[i].timestamp >= _startTime && auditTrail[i].timestamp <= _endTime) {... */\n    tag_285:\n        /* \"contracts/AuditLogger.sol\":10441:10444  i++ */\n      dup1\n      dup1\n      0x01\n      add\n      swap2\n      pop\n      pop\n        /* \"contracts/AuditLogger.sol\":10398:10604  for (uint256 i = 0; i < auditTrail.length; i++) {... */\n      jump(tag_275)\n    tag_276:\n      pop\n        /* \"contracts/AuditLogger.sol\":10665:10682  uint256 remaining */\n      0x00\n        /* \"contracts/AuditLogger.sol\":10701:10708  _offset */\n      dup6\n        /* \"contracts/AuditLogger.sol\":10685:10698  totalMatching */\n      dup3\n        /* \"contracts/AuditLogger.sol\":10685:10708  totalMatching > _offset */\n      gt\n        /* \"contracts/AuditLogger.sol\":10685:10738  totalMatching > _offset ? totalMatching - _offset : 0 */\n      tag_287\n      jumpi\n        /* \"contracts/AuditLogger.sol\":10737:10738  0 */\n      0x00\n        /* \"contracts/AuditLogger.sol\":10685:10738  totalMatching > _offset ? totalMatching - _offset : 0 */\n      jump(tag_288)\n    tag_287:\n        /* \"contracts/AuditLogger.sol\":10727:10734  _offset */\n      dup6\n        /* \"contracts/AuditLogger.sol\":10711:10724  totalMatching */\n      dup3\n        /* \"contracts/AuditLogger.sol\":10711:10734  totalMatching - _offset */\n      tag_289\n      swap2\n      swap1\n      tag_250\n      jump\t// in\n    tag_289:\n        /* \"contracts/AuditLogger.sol\":10685:10738  totalMatching > _offset ? totalMatching - _offset : 0 */\n    tag_288:\n        /* \"contracts/AuditLogger.sol\":10665:10738  uint256 remaining = totalMatching > _offset ? totalMatching - _offset : 0 */\n      swap1\n      pop\n        /* \"contracts/AuditLogger.sol\":10749:10767  uint256 returnSize */\n      0x00\n        /* \"contracts/AuditLogger.sol\":10782:10788  _limit */\n      dup6\n        /* \"contracts/AuditLogger.sol\":10770:10779  remaining */\n      dup3\n        /* \"contracts/AuditLogger.sol\":10770:10788  remaining > _limit */\n      gt\n        /* \"contracts/AuditLogger.sol\":10770:10809  remaining > _limit ? _limit : remaining */\n      tag_290\n      jumpi\n        /* \"contracts/AuditLogger.sol\":10800:10809  remaining */\n      dup2\n        /* \"contracts/AuditLogger.sol\":10770:10809  remaining > _limit ? _limit : remaining */\n      jump(tag_291)\n    tag_290:\n        /* \"contracts/AuditLogger.sol\":10791:10797  _limit */\n      dup6\n        /* \"contracts/AuditLogger.sol\":10770:10809  remaining > _limit ? _limit : remaining */\n    tag_291:\n        /* \"contracts/AuditLogger.sol\":10749:10809  uint256 returnSize = remaining > _limit ? _limit : remaining */\n      swap1\n      pop\n        /* \"contracts/AuditLogger.sol\":10842:10848  _limit */\n      dup6\n        /* \"contracts/AuditLogger.sol\":10830:10839  remaining */\n      dup3\n        /* \"contracts/AuditLogger.sol\":10830:10848  remaining > _limit */\n      gt\n        /* \"contracts/AuditLogger.sol\":10820:10848  hasMore = remaining > _limit */\n      swap4\n      pop\n        /* \"contracts/AuditLogger.sol\":10891:10901  returnSize */\n      dup1\n        /* \"contracts/AuditLogger.sol\":10876:10902  new AuditLog[](returnSize) */\n      0xffffffffffffffff\n      dup2\n      gt\n      iszero\n      tag_292\n      jumpi\n      tag_293\n      tag_202\n      jump\t// in\n    tag_293:\n    tag_292:\n      mload(0x40)\n      swap1\n      dup1\n      dup3\n      mstore\n      dup1\n      0x20\n      mul\n      0x20\n      add\n      dup3\n      add\n      0x40\n      mstore\n      dup1\n      iszero\n      tag_294\n      jumpi\n      dup2\n      0x20\n      add\n    tag_295:\n      tag_296\n      tag_206\n      jump\t// in\n    tag_296:\n      dup2\n      mstore\n      0x20\n      add\n      swap1\n      0x01\n      swap1\n      sub\n      swap1\n      dup2\n      tag_295\n      jumpi\n      swap1\n      pop\n    tag_294:\n      pop\n        /* \"contracts/AuditLogger.sol\":10869:10902  logs = new AuditLog[](returnSize) */\n      swap5\n      pop\n        /* \"contracts/AuditLogger.sol\":10923:10944  uint256 matchingIndex */\n      0x00\n        /* \"contracts/AuditLogger.sol\":10947:10948  0 */\n      0x00\n        /* \"contracts/AuditLogger.sol\":10923:10948  uint256 matchingIndex = 0 */\n      swap1\n      pop\n        /* \"contracts/AuditLogger.sol\":10959:10978  uint256 returnIndex */\n      0x00\n        /* \"contracts/AuditLogger.sol\":10981:10982  0 */\n      0x00\n        /* \"contracts/AuditLogger.sol\":10959:10982  uint256 returnIndex = 0 */\n      swap1\n      pop\n        /* \"contracts/AuditLogger.sol\":11008:11017  uint256 i */\n      0x00\n        /* \"contracts/AuditLogger.sol\":11020:11021  0 */\n      0x00\n        /* \"contracts/AuditLogger.sol\":11008:11021  uint256 i = 0 */\n      swap1\n      pop\n        /* \"contracts/AuditLogger.sol\":11003:11397  for (uint256 i = 0; i < auditTrail.length && returnIndex < returnSize; i++) {... */\n    tag_297:\n        /* \"contracts/AuditLogger.sol\":11027:11037  auditTrail */\n      0x02\n        /* \"contracts/AuditLogger.sol\":11027:11044  auditTrail.length */\n      dup1\n      sload\n      swap1\n      pop\n        /* \"contracts/AuditLogger.sol\":11023:11024  i */\n      dup2\n        /* \"contracts/AuditLogger.sol\":11023:11044  i < auditTrail.length */\n      lt\n        /* \"contracts/AuditLogger.sol\":11023:11072  i < auditTrail.length && returnIndex < returnSize */\n      dup1\n      iszero\n      tag_300\n      jumpi\n      pop\n        /* \"contracts/AuditLogger.sol\":11062:11072  returnSize */\n      dup4\n        /* \"contracts/AuditLogger.sol\":11048:11059  returnIndex */\n      dup3\n        /* \"contracts/AuditLogger.sol\":11048:11072  returnIndex < returnSize */\n      lt\n        /* \"contracts/AuditLogger.sol\":11023:11072  i < auditTrail.length && returnIndex < returnSize */\n    tag_300:\n        /* \"contracts/AuditLogger.sol\":11003:11397  for (uint256 i = 0; i < auditTrail.length && returnIndex < returnSize; i++) {... */\n      iszero\n      tag_298\n      jumpi\n        /* \"contracts/AuditLogger.sol\":11125:11135  _startTime */\n      dup12\n        /* \"contracts/AuditLogger.sol\":11098:11108  auditTrail */\n      0x02\n        /* \"contracts/AuditLogger.sol\":11109:11110  i */\n      dup3\n        /* \"contracts/AuditLogger.sol\":11098:11111  auditTrail[i] */\n      dup2\n      sload\n      dup2\n      lt\n      tag_301\n      jumpi\n      tag_302\n      tag_179\n      jump\t// in\n    tag_302:\n    tag_301:\n      swap1\n      0x00\n      mstore\n      keccak256(0x00, 0x20)\n      swap1\n      0x06\n      mul\n      add\n        /* \"contracts/AuditLogger.sol\":11098:11121  auditTrail[i].timestamp */\n      0x03\n      add\n      sload\n        /* \"contracts/AuditLogger.sol\":11098:11135  auditTrail[i].timestamp >= _startTime */\n      lt\n      iszero\n        /* \"contracts/AuditLogger.sol\":11098:11174  auditTrail[i].timestamp >= _startTime && auditTrail[i].timestamp <= _endTime */\n      dup1\n      iszero\n      tag_304\n      jumpi\n      pop\n        /* \"contracts/AuditLogger.sol\":11166:11174  _endTime */\n      dup11\n        /* \"contracts/AuditLogger.sol\":11139:11149  auditTrail */\n      0x02\n        /* \"contracts/AuditLogger.sol\":11150:11151  i */\n      dup3\n        /* \"contracts/AuditLogger.sol\":11139:11152  auditTrail[i] */\n      dup2\n      sload\n      dup2\n      lt\n      tag_305\n      jumpi\n      tag_306\n      tag_179\n      jump\t// in\n    tag_306:\n    tag_305:\n      swap1\n      0x00\n      mstore\n      keccak256(0x00, 0x20)\n      swap1\n      0x06\n      mul\n      add\n        /* \"contracts/AuditLogger.sol\":11139:11162  auditTrail[i].timestamp */\n      0x03\n      add\n      sload\n        /* \"contracts/AuditLogger.sol\":11139:11174  auditTrail[i].timestamp <= _endTime */\n      gt\n      iszero\n        /* \"contracts/AuditLogger.sol\":11098:11174  auditTrail[i].timestamp >= _startTime && auditTrail[i].timestamp <= _endTime */\n    tag_304:\n        /* \"contracts/AuditLogger.sol\":11094:11386  if (auditTrail[i].timestamp >= _startTime && auditTrail[i].timestamp <= _endTime) {... */\n      iszero\n      tag_308\n      jumpi\n        /* \"contracts/AuditLogger.sol\":11216:11223  _offset */\n      dup10\n        /* \"contracts/AuditLogger.sol\":11199:11212  matchingIndex */\n      dup4\n        /* \"contracts/AuditLogger.sol\":11199:11223  matchingIndex >= _offset */\n      lt\n        /* \"contracts/AuditLogger.sol\":11195:11337  if (matchingIndex >= _offset) {... */\n      tag_309\n      jumpi\n        /* \"contracts/AuditLogger.sol\":11268:11278  auditTrail */\n      0x02\n        /* \"contracts/AuditLogger.sol\":11279:11280  i */\n      dup2\n        /* \"contracts/AuditLogger.sol\":11268:11281  auditTrail[i] */\n      dup2\n      sload\n      dup2\n      lt\n      tag_310\n      jumpi\n      tag_311\n      tag_179\n      jump\t// in\n    tag_311:\n    tag_310:\n      swap1\n      0x00\n      mstore\n      keccak256(0x00, 0x20)\n      swap1\n      0x06\n      mul\n      add\n        /* \"contracts/AuditLogger.sol\":11248:11281  logs[returnIndex] = auditTrail[i] */\n      mload(0x40)\n      dup1\n      0xc0\n      add\n      0x40\n      mstore\n      swap1\n      dup2\n      0x00\n      dup3\n      add\n      0x00\n      swap1\n      sload\n      swap1\n      0x0100\n      exp\n      swap1\n      div\n      0xffffffffffffffffffffffffffffffffffffffff\n      and\n      0xffffffffffffffffffffffffffffffffffffffff\n      and\n      0xffffffffffffffffffffffffffffffffffffffff\n      and\n      dup2\n      mstore\n      0x20\n      add\n      0x01\n      dup3\n      add\n      dup1\n      sload\n      tag_313\n      swap1\n      tag_182\n      jump\t// in\n    tag_313:\n      dup1\n      0x1f\n      add\n      0x20\n      dup1\n      swap2\n      div\n      mul\n      0x20\n      add\n      mload(0x40)\n      swap1\n      dup2\n      add\n      0x40\n      mstore\n      dup1\n      swap3\n      swap2\n      swap1\n      dup2\n      dup2\n      mstore\n      0x20\n      add\n      dup3\n      dup1\n      sload\n      tag_314\n      swap1\n      tag_182\n      jump\t// in\n    tag_314:\n      dup1\n      iszero\n      tag_315\n      jumpi\n      dup1\n      0x1f\n      lt\n      tag_316\n      jumpi\n      0x0100\n      dup1\n      dup4\n      sload\n      div\n      mul\n      dup4\n      mstore\n      swap2\n      0x20\n      add\n      swap2\n      jump(tag_315)\n    tag_316:\n      dup3\n      add\n      swap2\n      swap1\n      0x00\n      mstore\n      keccak256(0x00, 0x20)\n      swap1\n    tag_317:\n      dup2\n      sload\n      dup2\n      mstore\n      swap1\n      0x01\n      add\n      swap1\n      0x20\n      add\n      dup1\n      dup4\n      gt\n      tag_317\n      jumpi\n      dup3\n      swap1\n      sub\n      0x1f\n      and\n      dup3\n      add\n      swap2\n    tag_315:\n      pop\n      pop\n      pop\n      pop\n      pop\n      dup2\n      mstore\n      0x20\n      add\n      0x02\n      dup3\n      add\n      dup1\n      sload\n      tag_318\n      swap1\n      tag_182\n      jump\t// in\n    tag_318:\n      dup1\n      0x1f\n      add\n      0x20\n      dup1\n      swap2\n      div\n      mul\n      0x20\n      add\n      mload(0x40)\n      swap1\n      dup2\n      add\n      0x40\n      mstore\n      dup1\n      swap3\n      swap2\n      swap1\n      dup2\n      dup2\n      mstore\n      0x20\n      add\n      dup3\n      dup1\n      sload\n      tag_319\n      swap1\n      tag_182\n      jump\t// in\n    tag_319:\n      dup1\n      iszero\n      tag_320\n      jumpi\n      dup1\n      0x1f\n      lt\n      tag_321\n      jumpi\n      0x0100\n      dup1\n      dup4\n      sload\n      div\n      mul\n      dup4\n      mstore\n      swap2\n      0x20\n      add\n      swap2\n      jump(tag_320)\n    tag_321:\n      dup3\n      add\n      swap2\n      swap1\n      0x00\n      mstore\n      keccak256(0x00, 0x20)\n      swap1\n    tag_322:\n      dup2\n      sload\n      dup2\n      mstore\n      swap1\n      0x01\n      add\n      swap1\n      0x20\n      add\n      dup1\n      dup4\n      gt\n      tag_322\n      jumpi\n      dup3\n      swap1\n      sub\n      0x1f\n      and\n      dup3\n      add\n      swap2\n    tag_320:\n      pop\n      pop\n      pop\n      pop\n      pop\n      dup2\n      mstore\n      0x20\n      add\n      0x03\n      dup3\n      add\n      sload\n      dup2\n      mstore\n      0x20\n      add\n      0x04\n      dup3\n      add\n      sload\n      dup2\n      mstore\n      0x20\n      add\n      0x05\n      dup3\n      add\n      sload\n      dup2\n      mstore\n      pop\n      pop\n        /* \"contracts/AuditLogger.sol\":11248:11252  logs */\n      dup9\n        /* \"contracts/AuditLogger.sol\":11253:11264  returnIndex */\n      dup4\n        /* \"contracts/AuditLogger.sol\":11248:11265  logs[returnIndex] */\n      dup2\n      mload\n      dup2\n      lt\n      tag_323\n      jumpi\n      tag_324\n      tag_179\n      jump\t// in\n    tag_324:\n    tag_323:\n      0x20\n      mul\n      0x20\n      add\n      add\n        /* \"contracts/AuditLogger.sol\":11248:11281  logs[returnIndex] = auditTrail[i] */\n      dup2\n      swap1\n      mstore\n      pop\n        /* \"contracts/AuditLogger.sol\":11304:11317  returnIndex++ */\n      dup2\n      dup1\n      tag_325\n      swap1\n      tag_199\n      jump\t// in\n    tag_325:\n      swap3\n      pop\n      pop\n        /* \"contracts/AuditLogger.sol\":11195:11337  if (matchingIndex >= _offset) {... */\n    tag_309:\n        /* \"contracts/AuditLogger.sol\":11355:11370  matchingIndex++ */\n      dup3\n      dup1\n      tag_326\n      swap1\n      tag_199\n      jump\t// in\n    tag_326:\n      swap4\n      pop\n      pop\n        /* \"contracts/AuditLogger.sol\":11094:11386  if (auditTrail[i].timestamp >= _startTime && auditTrail[i].timestamp <= _endTime) {... */\n    tag_308:\n        /* \"contracts/AuditLogger.sol\":11074:11077  i++ */\n      dup1\n      dup1\n      tag_327\n      swap1\n      tag_199\n      jump\t// in\n    tag_327:\n      swap2\n      pop\n      pop\n        /* \"contracts/AuditLogger.sol\":11003:11397  for (uint256 i = 0; i < auditTrail.length && returnIndex < returnSize; i++) {... */\n      jump(tag_297)\n    tag_298:\n      pop\n        /* \"contracts/AuditLogger.sol\":11417:11439  return (logs, hasMore) */\n      pop\n      pop\n      pop\n      pop\n      pop\n        /* \"contracts/AuditLogger.sol\":10030:11447  function exportAuditTrail(... */\n      swap5\n      pop\n      swap5\n      swap3\n      pop\n      pop\n      pop\n      jump\t// out\n        /* \"contracts/AuditLogger.sol\":2434:2566  function getActionLogs(string memory _action) external view returns (uint256[] memory) {... */\n    tag_76:\n        /* \"contracts/AuditLogger.sol\":2503:2519  uint256[] memory */\n      0x60\n        /* \"contracts/AuditLogger.sol\":2539:2549  actionLogs */\n      0x04\n        /* \"contracts/AuditLogger.sol\":2550:2557  _action */\n      dup3\n        /* \"contracts/AuditLogger.sol\":2539:2558  actionLogs[_action] */\n      mload(0x40)\n      tag_329\n      swap2\n      swap1\n      tag_236\n      jump\t// in\n    tag_329:\n      swap1\n      dup2\n      mstore\n      0x20\n      add\n      mload(0x40)\n      dup1\n      swap2\n      sub\n      swap1\n      keccak256\n        /* \"contracts/AuditLogger.sol\":2532:2558  return actionLogs[_action] */\n      dup1\n      sload\n      dup1\n      0x20\n      mul\n      0x20\n      add\n      mload(0x40)\n      swap1\n      dup2\n      add\n      0x40\n      mstore\n      dup1\n      swap3\n      swap2\n      swap1\n      dup2\n      dup2\n      mstore\n      0x20\n      add\n      dup3\n      dup1\n      sload\n      dup1\n      iszero\n      tag_330\n      jumpi\n      0x20\n      mul\n      dup3\n      add\n      swap2\n      swap1\n      0x00\n      mstore\n      keccak256(0x00, 0x20)\n      swap1\n    tag_331:\n      dup2\n      sload\n      dup2\n      mstore\n      0x20\n      add\n      swap1\n      0x01\n      add\n      swap1\n      dup1\n      dup4\n      gt\n      tag_331\n      jumpi\n    tag_330:\n      pop\n      pop\n      pop\n      pop\n      pop\n      swap1\n      pop\n        /* \"contracts/AuditLogger.sol\":2434:2566  function getActionLogs(string memory _action) external view returns (uint256[] memory) {... */\n      swap2\n      swap1\n      pop\n      jump\t// out\n        /* \"@openzeppelin/contracts/access/AccessControl.sol\":4202:4338  function grantRole(bytes32 role, address account) public virtual onlyRole(getRoleAdmin(role)) {... */\n    tag_82:\n        /* \"@openzeppelin/contracts/access/AccessControl.sol\":4276:4294  getRoleAdmin(role) */\n      tag_332\n        /* \"@openzeppelin/contracts/access/AccessControl.sol\":4289:4293  role */\n      dup3\n        /* \"@openzeppelin/contracts/access/AccessControl.sol\":4276:4288  getRoleAdmin */\n      tag_64\n        /* \"@openzeppelin/contracts/access/AccessControl.sol\":4276:4294  getRoleAdmin(role) */\n      jump\t// in\n    tag_332:\n        /* \"@openzeppelin/contracts/access/AccessControl.sol\":2473:2489  _checkRole(role) */\n      tag_334\n        /* \"@openzeppelin/contracts/access/AccessControl.sol\":2484:2488  role */\n      dup2\n        /* \"@openzeppelin/contracts/access/AccessControl.sol\":2473:2483  _checkRole */\n      tag_335\n        /* \"@openzeppelin/contracts/access/AccessControl.sol\":2473:2489  _checkRole(role) */\n      jump\t// in\n    tag_334:\n        /* \"@openzeppelin/contracts/access/AccessControl.sol\":4306:4331  _grantRole(role, account) */\n      tag_337\n        /* \"@openzeppelin/contracts/access/AccessControl.sol\":4317:4321  role */\n      dup4\n        /* \"@openzeppelin/contracts/access/AccessControl.sol\":4323:4330  account */\n      dup4\n        /* \"@openzeppelin/contracts/access/AccessControl.sol\":4306:4316  _grantRole */\n      tag_338\n        /* \"@openzeppelin/contracts/access/AccessControl.sol\":4306:4331  _grantRole(role, account) */\n      jump\t// in\n    tag_337:\n      pop\n        /* \"@openzeppelin/contracts/access/AccessControl.sol\":4202:4338  function grantRole(bytes32 role, address account) public virtual onlyRole(getRoleAdmin(role)) {... */\n      pop\n      pop\n      pop\n      jump\t// out\n        /* \"@openzeppelin/contracts/access/AccessControl.sol\":5304:5549  function renounceRole(bytes32 role, address callerConfirmation) public virtual {... */\n    tag_85:\n        /* \"@openzeppelin/contracts/access/AccessControl.sol\":5419:5431  _msgSender() */\n      tag_340\n        /* \"@openzeppelin/contracts/access/AccessControl.sol\":5419:5429  _msgSender */\n      tag_341\n        /* \"@openzeppelin/contracts/access/AccessControl.sol\":5419:5431  _msgSender() */\n      jump\t// in\n    tag_340:\n        /* \"@openzeppelin/contracts/access/AccessControl.sol\":5397:5431  callerConfirmation != _msgSender() */\n      0xffffffffffffffffffffffffffffffffffffffff\n      and\n        /* \"@openzeppelin/contracts/access/AccessControl.sol\":5397:5415  callerConfirmation */\n      dup2\n        /* \"@openzeppelin/contracts/access/AccessControl.sol\":5397:5431  callerConfirmation != _msgSender() */\n      0xffffffffffffffffffffffffffffffffffffffff\n      and\n      eq\n        /* \"@openzeppelin/contracts/access/AccessControl.sol\":5393:5495  if (callerConfirmation != _msgSender()) {... */\n      tag_342\n      jumpi\n        /* \"@openzeppelin/contracts/access/AccessControl.sol\":5454:5484  AccessControlBadConfirmation() */\n      mload(0x40)\n      0x6697b23200000000000000000000000000000000000000000000000000000000\n      dup2\n      mstore\n      0x04\n      add\n      mload(0x40)\n      dup1\n      swap2\n      sub\n      swap1\n      revert\n        /* \"@openzeppelin/contracts/access/AccessControl.sol\":5393:5495  if (callerConfirmation != _msgSender()) {... */\n    tag_342:\n        /* \"@openzeppelin/contracts/access/AccessControl.sol\":5505:5542  _revokeRole(role, callerConfirmation) */\n      tag_343\n        /* \"@openzeppelin/contracts/access/AccessControl.sol\":5517:5521  role */\n      dup3\n        /* \"@openzeppelin/contracts/access/AccessControl.sol\":5523:5541  callerConfirmation */\n      dup3\n        /* \"@openzeppelin/contracts/access/AccessControl.sol\":5505:5516  _revokeRole */\n      tag_344\n        /* \"@openzeppelin/contracts/access/AccessControl.sol\":5505:5542  _revokeRole(role, callerConfirmation) */\n      jump\t// in\n    tag_343:\n      pop\n        /* \"@openzeppelin/contracts/access/AccessControl.sol\":5304:5549  function renounceRole(bytes32 role, address callerConfirmation) public virtual {... */\n      pop\n      pop\n      jump\t// out\n        /* \"contracts/AuditLogger.sol\":5598:5722  function getActorLogCount(address _actor) external view returns (uint256) {... */\n    tag_89:\n        /* \"contracts/AuditLogger.sol\":5663:5670  uint256 */\n      0x00\n        /* \"contracts/AuditLogger.sol\":5690:5699  actorLogs */\n      0x03\n        /* \"contracts/AuditLogger.sol\":5690:5707  actorLogs[_actor] */\n      0x00\n        /* \"contracts/AuditLogger.sol\":5700:5706  _actor */\n      dup4\n        /* \"contracts/AuditLogger.sol\":5690:5707  actorLogs[_actor] */\n      0xffffffffffffffffffffffffffffffffffffffff\n      and\n      0xffffffffffffffffffffffffffffffffffffffff\n      and\n      dup2\n      mstore\n      0x20\n      add\n      swap1\n      dup2\n      mstore\n      0x20\n      add\n      0x00\n      keccak256\n        /* \"contracts/AuditLogger.sol\":5690:5714  actorLogs[_actor].length */\n      dup1\n      sload\n      swap1\n      pop\n        /* \"contracts/AuditLogger.sol\":5683:5714  return actorLogs[_actor].length */\n      swap1\n      pop\n        /* \"contracts/AuditLogger.sol\":5598:5722  function getActorLogCount(address _actor) external view returns (uint256) {... */\n      swap2\n      swap1\n      pop\n      jump\t// out\n        /* \"contracts/AuditLogger.sol\":5880:6000  function getDailyLogCount(uint256 _day) external view returns (uint256) {... */\n    tag_94:\n        /* \"contracts/AuditLogger.sol\":5943:5950  uint256 */\n      0x00\n        /* \"contracts/AuditLogger.sol\":5970:5979  dailyLogs */\n      0x05\n        /* \"contracts/AuditLogger.sol\":5970:5985  dailyLogs[_day] */\n      0x00\n        /* \"contracts/AuditLogger.sol\":5980:5984  _day */\n      dup4\n        /* \"contracts/AuditLogger.sol\":5970:5985  dailyLogs[_day] */\n      dup2\n      mstore\n      0x20\n      add\n      swap1\n      dup2\n      mstore\n      0x20\n      add\n      0x00\n      keccak256\n        /* \"contracts/AuditLogger.sol\":5970:5992  dailyLogs[_day].length */\n      dup1\n      sload\n      swap1\n      pop\n        /* \"contracts/AuditLogger.sol\":5963:5992  return dailyLogs[_day].length */\n      swap1\n      pop\n        /* \"contracts/AuditLogger.sol\":5880:6000  function getDailyLogCount(uint256 _day) external view returns (uint256) {... */\n      swap2\n      swap1\n      pop\n      jump\t// out\n        /* \"contracts/AuditLogger.sol\":1292:2088  function logAction(... */\n    tag_99:\n        /* \"contracts/AuditLogger.sol\":1041:1052  payrollCore */\n      0x01\n      0x00\n      swap1\n      sload\n      swap1\n      0x0100\n      exp\n      swap1\n      div\n      0xffffffffffffffffffffffffffffffffffffffff\n      and\n        /* \"contracts/AuditLogger.sol\":1027:1052  msg.sender == payrollCore */\n      0xffffffffffffffffffffffffffffffffffffffff\n      and\n        /* \"contracts/AuditLogger.sol\":1027:1037  msg.sender */\n      caller\n        /* \"contracts/AuditLogger.sol\":1027:1052  msg.sender == payrollCore */\n      0xffffffffffffffffffffffffffffffffffffffff\n      and\n      eq\n        /* \"contracts/AuditLogger.sol\":1027:1127  msg.sender == payrollCore ||... */\n      dup1\n      tag_348\n      jumpi\n      pop\n        /* \"contracts/AuditLogger.sol\":1083:1094  payrollCore */\n      0x01\n      0x00\n      swap1\n      sload\n      swap1\n      0x0100\n      exp\n      swap1\n      div\n      0xffffffffffffffffffffffffffffffffffffffff\n      and\n        /* \"contracts/AuditLogger.sol\":1069:1103  AccessControl(payrollCore).hasRole */\n      0xffffffffffffffffffffffffffffffffffffffff\n      and\n      0x91d14854\n        /* \"contracts/AuditLogger.sol\":205:228  keccak256(\"ADMIN_ROLE\") */\n      0xa49807205ce4d355092ef5a8a18f56e8913cf4a201fbe287825b095693c21775\n        /* \"contracts/AuditLogger.sol\":1116:1126  msg.sender */\n      caller\n        /* \"contracts/AuditLogger.sol\":1069:1127  AccessControl(payrollCore).hasRole(ADMIN_ROLE, msg.sender) */\n      mload(0x40)\n      dup4\n      0xffffffff\n      and\n      0xe0\n      shl\n      dup2\n      mstore\n      0x04\n      add\n      tag_349\n      swap3\n      swap2\n      swap1\n      tag_350\n      jump\t// in\n    tag_349:\n      0x20\n      mload(0x40)\n      dup1\n      dup4\n      sub\n      dup2\n      dup7\n      gas\n      staticcall\n      iszero\n      dup1\n      iszero\n      tag_352\n      jumpi\n      returndatacopy(0x00, 0x00, returndatasize)\n      revert(0x00, returndatasize)\n    tag_352:\n      pop\n      pop\n      pop\n      pop\n      mload(0x40)\n      returndatasize\n      not(0x1f)\n      0x1f\n      dup3\n      add\n      and\n      dup3\n      add\n      dup1\n      0x40\n      mstore\n      pop\n      dup2\n      add\n      swap1\n      tag_353\n      swap2\n      swap1\n      tag_354\n      jump\t// in\n    tag_353:\n        /* \"contracts/AuditLogger.sol\":1027:1127  msg.sender == payrollCore ||... */\n    tag_348:\n        /* \"contracts/AuditLogger.sol\":1005:1169  require(... */\n      tag_355\n      jumpi\n      mload(0x40)\n      0x08c379a000000000000000000000000000000000000000000000000000000000\n      dup2\n      mstore\n      0x04\n      add\n      tag_356\n      swap1\n      tag_357\n      jump\t// in\n    tag_356:\n      mload(0x40)\n      dup1\n      swap2\n      sub\n      swap1\n      revert\n    tag_355:\n        /* \"contracts/AuditLogger.sol\":1439:1455  uint256 logIndex */\n      0x00\n        /* \"contracts/AuditLogger.sol\":1458:1468  auditTrail */\n      0x02\n        /* \"contracts/AuditLogger.sol\":1458:1475  auditTrail.length */\n      dup1\n      sload\n      swap1\n      pop\n        /* \"contracts/AuditLogger.sol\":1439:1475  uint256 logIndex = auditTrail.length */\n      swap1\n      pop\n        /* \"contracts/AuditLogger.sol\":1486:1497  uint256 day */\n      0x00\n        /* \"contracts/AuditLogger.sol\":1518:1523  86400 */\n      0x015180\n        /* \"contracts/AuditLogger.sol\":1500:1515  block.timestamp */\n      timestamp\n        /* \"contracts/AuditLogger.sol\":1500:1523  block.timestamp / 86400 */\n      tag_359\n      swap2\n      swap1\n      tag_360\n      jump\t// in\n    tag_359:\n        /* \"contracts/AuditLogger.sol\":1486:1523  uint256 day = block.timestamp / 86400 */\n      swap1\n      pop\n        /* \"contracts/AuditLogger.sol\":1562:1581  AuditLog memory log */\n      0x00\n        /* \"contracts/AuditLogger.sol\":1584:1829  AuditLog({... */\n      mload(0x40)\n      dup1\n      0xc0\n      add\n      0x40\n      mstore\n      dup1\n        /* \"contracts/AuditLogger.sol\":1615:1621  _actor */\n      dup8\n        /* \"contracts/AuditLogger.sol\":1584:1829  AuditLog({... */\n      0xffffffffffffffffffffffffffffffffffffffff\n      and\n      dup2\n      mstore\n      0x20\n      add\n        /* \"contracts/AuditLogger.sol\":1644:1651  _action */\n      dup7\n        /* \"contracts/AuditLogger.sol\":1584:1829  AuditLog({... */\n      dup2\n      mstore\n      0x20\n      add\n        /* \"contracts/AuditLogger.sol\":1672:1677  _data */\n      dup6\n        /* \"contracts/AuditLogger.sol\":1584:1829  AuditLog({... */\n      dup2\n      mstore\n      0x20\n      add\n        /* \"contracts/AuditLogger.sol\":1703:1718  block.timestamp */\n      timestamp\n        /* \"contracts/AuditLogger.sol\":1584:1829  AuditLog({... */\n      dup2\n      mstore\n      0x20\n      add\n        /* \"contracts/AuditLogger.sol\":1746:1758  block.number */\n      number\n        /* \"contracts/AuditLogger.sol\":1584:1829  AuditLog({... */\n      dup2\n      mstore\n      0x20\n      add\n        /* \"contracts/AuditLogger.sol\":1815:1816  1 */\n      0x01\n        /* \"contracts/AuditLogger.sol\":1800:1812  block.number */\n      number\n        /* \"contracts/AuditLogger.sol\":1800:1816  block.number - 1 */\n      tag_361\n      swap2\n      swap1\n      tag_250\n      jump\t// in\n    tag_361:\n        /* \"contracts/AuditLogger.sol\":1790:1817  blockhash(block.number - 1) */\n      blockhash\n        /* \"contracts/AuditLogger.sol\":1584:1829  AuditLog({... */\n      dup2\n      mstore\n      pop\n        /* \"contracts/AuditLogger.sol\":1562:1829  AuditLog memory log = AuditLog({... */\n      swap1\n      pop\n        /* \"contracts/AuditLogger.sol\":1850:1860  auditTrail */\n      0x02\n        /* \"contracts/AuditLogger.sol\":1866:1869  log */\n      dup2\n        /* \"contracts/AuditLogger.sol\":1850:1870  auditTrail.push(log) */\n      swap1\n      dup1\n      0x01\n      dup2\n      sload\n      add\n      dup1\n      dup3\n      sstore\n      dup1\n      swap2\n      pop\n      pop\n      0x01\n      swap1\n      sub\n      swap1\n      0x00\n      mstore\n      keccak256(0x00, 0x20)\n      swap1\n      0x06\n      mul\n      add\n      0x00\n      swap1\n      swap2\n      swap1\n      swap2\n      swap1\n      swap2\n      pop\n      0x00\n      dup3\n      add\n      mload\n      dup2\n      0x00\n      add\n      exp(0x0100, 0x00)\n      dup2\n      sload\n      dup2\n      0xffffffffffffffffffffffffffffffffffffffff\n      mul\n      not\n      and\n      swap1\n      dup4\n      0xffffffffffffffffffffffffffffffffffffffff\n      and\n      mul\n      or\n      swap1\n      sstore\n      pop\n      0x20\n      dup3\n      add\n      mload\n      dup2\n      0x01\n      add\n      swap1\n      dup2\n      tag_363\n      swap2\n      swap1\n      tag_364\n      jump\t// in\n    tag_363:\n      pop\n      0x40\n      dup3\n      add\n      mload\n      dup2\n      0x02\n      add\n      swap1\n      dup2\n      tag_365\n      swap2\n      swap1\n      tag_366\n      jump\t// in\n    tag_365:\n      pop\n      0x60\n      dup3\n      add\n      mload\n      dup2\n      0x03\n      add\n      sstore\n      0x80\n      dup3\n      add\n      mload\n      dup2\n      0x04\n      add\n      sstore\n      0xa0\n      dup3\n      add\n      mload\n      dup2\n      0x05\n      add\n      sstore\n      pop\n      pop\n        /* \"contracts/AuditLogger.sol\":1881:1890  actorLogs */\n      0x03\n        /* \"contracts/AuditLogger.sol\":1881:1898  actorLogs[_actor] */\n      0x00\n        /* \"contracts/AuditLogger.sol\":1891:1897  _actor */\n      dup8\n        /* \"contracts/AuditLogger.sol\":1881:1898  actorLogs[_actor] */\n      0xffffffffffffffffffffffffffffffffffffffff\n      and\n      0xffffffffffffffffffffffffffffffffffffffff\n      and\n      dup2\n      mstore\n      0x20\n      add\n      swap1\n      dup2\n      mstore\n      0x20\n      add\n      0x00\n      keccak256\n        /* \"contracts/AuditLogger.sol\":1904:1912  logIndex */\n      dup4\n        /* \"contracts/AuditLogger.sol\":1881:1913  actorLogs[_actor].push(logIndex) */\n      swap1\n      dup1\n      0x01\n      dup2\n      sload\n      add\n      dup1\n      dup3\n      sstore\n      dup1\n      swap2\n      pop\n      pop\n      0x01\n      swap1\n      sub\n      swap1\n      0x00\n      mstore\n      keccak256(0x00, 0x20)\n      add\n      0x00\n      swap1\n      swap2\n      swap1\n      swap2\n      swap1\n      swap2\n      pop\n      sstore\n        /* \"contracts/AuditLogger.sol\":1924:1934  actionLogs */\n      0x04\n        /* \"contracts/AuditLogger.sol\":1935:1942  _action */\n      dup6\n        /* \"contracts/AuditLogger.sol\":1924:1943  actionLogs[_action] */\n      mload(0x40)\n      tag_368\n      swap2\n      swap1\n      tag_236\n      jump\t// in\n    tag_368:\n      swap1\n      dup2\n      mstore\n      0x20\n      add\n      mload(0x40)\n      dup1\n      swap2\n      sub\n      swap1\n      keccak256\n        /* \"contracts/AuditLogger.sol\":1949:1957  logIndex */\n      dup4\n        /* \"contracts/AuditLogger.sol\":1924:1958  actionLogs[_action].push(logIndex) */\n      swap1\n      dup1\n      0x01\n      dup2\n      sload\n      add\n      dup1\n      dup3\n      sstore\n      dup1\n      swap2\n      pop\n      pop\n      0x01\n      swap1\n      sub\n      swap1\n      0x00\n      mstore\n      keccak256(0x00, 0x20)\n      add\n      0x00\n      swap1\n      swap2\n      swap1\n      swap2\n      swap1\n      swap2\n      pop\n      sstore\n        /* \"contracts/AuditLogger.sol\":1969:1978  dailyLogs */\n      0x05\n        /* \"contracts/AuditLogger.sol\":1969:1983  dailyLogs[day] */\n      0x00\n        /* \"contracts/AuditLogger.sol\":1979:1982  day */\n      dup4\n        /* \"contracts/AuditLogger.sol\":1969:1983  dailyLogs[day] */\n      dup2\n      mstore\n      0x20\n      add\n      swap1\n      dup2\n      mstore\n      0x20\n      add\n      0x00\n      keccak256\n        /* \"contracts/AuditLogger.sol\":1989:1997  logIndex */\n      dup4\n        /* \"contracts/AuditLogger.sol\":1969:1998  dailyLogs[day].push(logIndex) */\n      swap1\n      dup1\n      0x01\n      dup2\n      sload\n      add\n      dup1\n      dup3\n      sstore\n      dup1\n      swap2\n      pop\n      pop\n      0x01\n      swap1\n      sub\n      swap1\n      0x00\n      mstore\n      keccak256(0x00, 0x20)\n      add\n      0x00\n      swap1\n      swap2\n      swap1\n      swap2\n      swap1\n      swap2\n      pop\n      sstore\n        /* \"contracts/AuditLogger.sol\":2045:2052  _action */\n      dup5\n        /* \"contracts/AuditLogger.sol\":2024:2080  ActionLogged(_actor, _action, block.timestamp, logIndex) */\n      mload(0x40)\n      tag_371\n      swap2\n      swap1\n      tag_236\n      jump\t// in\n    tag_371:\n      mload(0x40)\n      dup1\n      swap2\n      sub\n      swap1\n      keccak256\n        /* \"contracts/AuditLogger.sol\":2037:2043  _actor */\n      dup7\n        /* \"contracts/AuditLogger.sol\":2024:2080  ActionLogged(_actor, _action, block.timestamp, logIndex) */\n      0xffffffffffffffffffffffffffffffffffffffff\n      and\n      0x2bd016dca1398209e4e532a5c95af48b682c5ed098c20eb0ec41e4b3ac420724\n        /* \"contracts/AuditLogger.sol\":2054:2069  block.timestamp */\n      timestamp\n        /* \"contracts/AuditLogger.sol\":2071:2079  logIndex */\n      dup7\n        /* \"contracts/AuditLogger.sol\":2024:2080  ActionLogged(_actor, _action, block.timestamp, logIndex) */\n      mload(0x40)\n      tag_372\n      swap3\n      swap2\n      swap1\n      tag_373\n      jump\t// in\n    tag_372:\n      mload(0x40)\n      dup1\n      swap2\n      sub\n      swap1\n      log3\n        /* \"contracts/AuditLogger.sol\":1428:2088  {... */\n      pop\n      pop\n      pop\n        /* \"contracts/AuditLogger.sol\":1292:2088  function logAction(... */\n      pop\n      pop\n      pop\n      jump\t// out\n        /* \"contracts/AuditLogger.sol\":2300:2422  function getActorLogs(address _actor) external view returns (uint256[] memory) {... */\n    tag_102:\n        /* \"contracts/AuditLogger.sol\":2361:2377  uint256[] memory */\n      0x60\n        /* \"contracts/AuditLogger.sol\":2397:2406  actorLogs */\n      0x03\n        /* \"contracts/AuditLogger.sol\":2397:2414  actorLogs[_actor] */\n      0x00\n        /* \"contracts/AuditLogger.sol\":2407:2413  _actor */\n      dup4\n        /* \"contracts/AuditLogger.sol\":2397:2414  actorLogs[_actor] */\n      0xffffffffffffffffffffffffffffffffffffffff\n      and\n      0xffffffffffffffffffffffffffffffffffffffff\n      and\n      dup2\n      mstore\n      0x20\n      add\n      swap1\n      dup2\n      mstore\n      0x20\n      add\n      0x00\n      keccak256\n        /* \"contracts/AuditLogger.sol\":2390:2414  return actorLogs[_actor] */\n      dup1\n      sload\n      dup1\n      0x20\n      mul\n      0x20\n      add\n      mload(0x40)\n      swap1\n      dup2\n      add\n      0x40\n      mstore\n      dup1\n      swap3\n      swap2\n      swap1\n      dup2\n      dup2\n      mstore\n      0x20\n      add\n      dup3\n      dup1\n      sload\n      dup1\n      iszero\n      tag_375\n      jumpi\n      0x20\n      mul\n      dup3\n      add\n      swap2\n      swap1\n      0x00\n      mstore\n      keccak256(0x00, 0x20)\n      swap1\n    tag_376:\n      dup2\n      sload\n      dup2\n      mstore\n      0x20\n      add\n      swap1\n      0x01\n      add\n      swap1\n      dup1\n      dup4\n      gt\n      tag_376\n      jumpi\n    tag_375:\n      pop\n      pop\n      pop\n      pop\n      pop\n      swap1\n      pop\n        /* \"contracts/AuditLogger.sol\":2300:2422  function getActorLogs(address _actor) external view returns (uint256[] memory) {... */\n      swap2\n      swap1\n      pop\n      jump\t// out\n        /* \"contracts/AuditLogger.sol\":5734:5868  function getActionLogCount(string memory _action) external view returns (uint256) {... */\n    tag_106:\n        /* \"contracts/AuditLogger.sol\":5807:5814  uint256 */\n      0x00\n        /* \"contracts/AuditLogger.sol\":5834:5844  actionLogs */\n      0x04\n        /* \"contracts/AuditLogger.sol\":5845:5852  _action */\n      dup3\n        /* \"contracts/AuditLogger.sol\":5834:5853  actionLogs[_action] */\n      mload(0x40)\n      tag_378\n      swap2\n      swap1\n      tag_236\n      jump\t// in\n    tag_378:\n      swap1\n      dup2\n      mstore\n      0x20\n      add\n      mload(0x40)\n      dup1\n      swap2\n      sub\n      swap1\n      keccak256\n        /* \"contracts/AuditLogger.sol\":5834:5860  actionLogs[_action].length */\n      dup1\n      sload\n      swap1\n      pop\n        /* \"contracts/AuditLogger.sol\":5827:5860  return actionLogs[_action].length */\n      swap1\n      pop\n        /* \"contracts/AuditLogger.sol\":5734:5868  function getActionLogCount(string memory _action) external view returns (uint256) {... */\n      swap2\n      swap1\n      pop\n      jump\t// out\n        /* \"contracts/AuditLogger.sol\":168:228  bytes32 public constant ADMIN_ROLE = keccak256(\"ADMIN_ROLE\") */\n    tag_109:\n        /* \"contracts/AuditLogger.sol\":205:228  keccak256(\"ADMIN_ROLE\") */\n      0xa49807205ce4d355092ef5a8a18f56e8913cf4a201fbe287825b095693c21775\n        /* \"contracts/AuditLogger.sol\":168:228  bytes32 public constant ADMIN_ROLE = keccak256(\"ADMIN_ROLE\") */\n      dup2\n      jump\t// out\n        /* \"@openzeppelin/contracts/access/AccessControl.sol\":2830:2966  function hasRole(bytes32 role, address account) public view virtual returns (bool) {... */\n    tag_113:\n        /* \"@openzeppelin/contracts/access/AccessControl.sol\":2907:2911  bool */\n      0x00\n        /* \"@openzeppelin/contracts/access/AccessControl.sol\":2930:2936  _roles */\n      0x00\n        /* \"@openzeppelin/contracts/access/AccessControl.sol\":2930:2942  _roles[role] */\n      0x00\n        /* \"@openzeppelin/contracts/access/AccessControl.sol\":2937:2941  role */\n      dup5\n        /* \"@openzeppelin/contracts/access/AccessControl.sol\":2930:2942  _roles[role] */\n      dup2\n      mstore\n      0x20\n      add\n      swap1\n      dup2\n      mstore\n      0x20\n      add\n      0x00\n      keccak256\n        /* \"@openzeppelin/contracts/access/AccessControl.sol\":2930:2950  _roles[role].hasRole */\n      0x00\n      add\n        /* \"@openzeppelin/contracts/access/AccessControl.sol\":2930:2959  _roles[role].hasRole[account] */\n      0x00\n        /* \"@openzeppelin/contracts/access/AccessControl.sol\":2951:2958  account */\n      dup4\n        /* \"@openzeppelin/contracts/access/AccessControl.sol\":2930:2959  _roles[role].hasRole[account] */\n      0xffffffffffffffffffffffffffffffffffffffff\n      and\n      0xffffffffffffffffffffffffffffffffffffffff\n      and\n      dup2\n      mstore\n      0x20\n      add\n      swap1\n      dup2\n      mstore\n      0x20\n      add\n      0x00\n      keccak256\n      0x00\n      swap1\n      sload\n      swap1\n      0x0100\n      exp\n      swap1\n      div\n      0xff\n      and\n        /* \"@openzeppelin/contracts/access/AccessControl.sol\":2923:2959  return _roles[role].hasRole[account] */\n      swap1\n      pop\n        /* \"@openzeppelin/contracts/access/AccessControl.sol\":2830:2966  function hasRole(bytes32 role, address account) public view virtual returns (bool) {... */\n      swap3\n      swap2\n      pop\n      pop\n      jump\t// out\n        /* \"contracts/AuditLogger.sol\":438:464  address public payrollCore */\n    tag_116:\n      0x01\n      0x00\n      swap1\n      sload\n      swap1\n      0x0100\n      exp\n      swap1\n      div\n      0xffffffffffffffffffffffffffffffffffffffff\n      and\n      dup2\n      jump\t// out\n        /* \"@openzeppelin/contracts/access/AccessControl.sol\":2196:2245  bytes32 public constant DEFAULT_ADMIN_ROLE = 0x00 */\n    tag_120:\n        /* \"@openzeppelin/contracts/access/AccessControl.sol\":2241:2245  0x00 */\n      0x00\n        /* \"@openzeppelin/contracts/access/AccessControl.sol\":2196:2245  bytes32 public constant DEFAULT_ADMIN_ROLE = 0x00 */\n      0x00\n      shl\n      dup2\n      jump\t// out\n        /* \"contracts/AuditLogger.sol\":618:664  mapping(uint256 => uint256[]) public dailyLogs */\n    tag_125:\n      mstore(0x20, 0x05)\n      dup2\n      0x00\n      mstore\n      keccak256(0x00, 0x40)\n      dup2\n      dup2\n      sload\n      dup2\n      lt\n      tag_380\n      jumpi\n      0x00\n      dup1\n      revert\n    tag_380:\n      swap1\n      0x00\n      mstore\n      keccak256(0x00, 0x20)\n      add\n      0x00\n      swap2\n      pop\n      swap2\n      pop\n      pop\n      sload\n      dup2\n      jump\t// out\n        /* \"contracts/AuditLogger.sol\":3259:4167  function getLogsByTimeRange(... */\n    tag_129:\n        /* \"contracts/AuditLogger.sol\":3373:3395  AuditLog[] memory logs */\n      0x60\n        /* \"contracts/AuditLogger.sol\":3430:3438  _endTime */\n      dup2\n        /* \"contracts/AuditLogger.sol\":3416:3426  _startTime */\n      dup4\n        /* \"contracts/AuditLogger.sol\":3416:3438  _startTime <= _endTime */\n      gt\n      iszero\n        /* \"contracts/AuditLogger.sol\":3408:3461  require(_startTime <= _endTime, \"Invalid time range\") */\n      tag_383\n      jumpi\n      mload(0x40)\n      0x08c379a000000000000000000000000000000000000000000000000000000000\n      dup2\n      mstore\n      0x04\n      add\n      tag_384\n      swap1\n      tag_385\n      jump\t// in\n    tag_384:\n      mload(0x40)\n      dup1\n      swap2\n      sub\n      swap1\n      revert\n    tag_383:\n        /* \"contracts/AuditLogger.sol\":3520:3533  uint256 count */\n      0x00\n        /* \"contracts/AuditLogger.sol\":3536:3537  0 */\n      0x00\n        /* \"contracts/AuditLogger.sol\":3520:3537  uint256 count = 0 */\n      swap1\n      pop\n        /* \"contracts/AuditLogger.sol\":3553:3562  uint256 i */\n      0x00\n        /* \"contracts/AuditLogger.sol\":3565:3566  0 */\n      0x00\n        /* \"contracts/AuditLogger.sol\":3553:3566  uint256 i = 0 */\n      swap1\n      pop\n        /* \"contracts/AuditLogger.sol\":3548:3746  for (uint256 i = 0; i < auditTrail.length; i++) {... */\n    tag_386:\n        /* \"contracts/AuditLogger.sol\":3572:3582  auditTrail */\n      0x02\n        /* \"contracts/AuditLogger.sol\":3572:3589  auditTrail.length */\n      dup1\n      sload\n      swap1\n      pop\n        /* \"contracts/AuditLogger.sol\":3568:3569  i */\n      dup2\n        /* \"contracts/AuditLogger.sol\":3568:3589  i < auditTrail.length */\n      lt\n        /* \"contracts/AuditLogger.sol\":3548:3746  for (uint256 i = 0; i < auditTrail.length; i++) {... */\n      iszero\n      tag_387\n      jumpi\n        /* \"contracts/AuditLogger.sol\":3642:3652  _startTime */\n      dup5\n        /* \"contracts/AuditLogger.sol\":3615:3625  auditTrail */\n      0x02\n        /* \"contracts/AuditLogger.sol\":3626:3627  i */\n      dup3\n        /* \"contracts/AuditLogger.sol\":3615:3628  auditTrail[i] */\n      dup2\n      sload\n      dup2\n      lt\n      tag_389\n      jumpi\n      tag_390\n      tag_179\n      jump\t// in\n    tag_390:\n    tag_389:\n      swap1\n      0x00\n      mstore\n      keccak256(0x00, 0x20)\n      swap1\n      0x06\n      mul\n      add\n        /* \"contracts/AuditLogger.sol\":3615:3638  auditTrail[i].timestamp */\n      0x03\n      add\n      sload\n        /* \"contracts/AuditLogger.sol\":3615:3652  auditTrail[i].timestamp >= _startTime */\n      lt\n      iszero\n        /* \"contracts/AuditLogger.sol\":3615:3691  auditTrail[i].timestamp >= _startTime && auditTrail[i].timestamp <= _endTime */\n      dup1\n      iszero\n      tag_392\n      jumpi\n      pop\n        /* \"contracts/AuditLogger.sol\":3683:3691  _endTime */\n      dup4\n        /* \"contracts/AuditLogger.sol\":3656:3666  auditTrail */\n      0x02\n        /* \"contracts/AuditLogger.sol\":3667:3668  i */\n      dup3\n        /* \"contracts/AuditLogger.sol\":3656:3669  auditTrail[i] */\n      dup2\n      sload\n      dup2\n      lt\n      tag_393\n      jumpi\n      tag_394\n      tag_179\n      jump\t// in\n    tag_394:\n    tag_393:\n      swap1\n      0x00\n      mstore\n      keccak256(0x00, 0x20)\n      swap1\n      0x06\n      mul\n      add\n        /* \"contracts/AuditLogger.sol\":3656:3679  auditTrail[i].timestamp */\n      0x03\n      add\n      sload\n        /* \"contracts/AuditLogger.sol\":3656:3691  auditTrail[i].timestamp <= _endTime */\n      gt\n      iszero\n        /* \"contracts/AuditLogger.sol\":3615:3691  auditTrail[i].timestamp >= _startTime && auditTrail[i].timestamp <= _endTime */\n    tag_392:\n        /* \"contracts/AuditLogger.sol\":3611:3735  if (auditTrail[i].timestamp >= _startTime && auditTrail[i].timestamp <= _endTime) {... */\n      iszero\n      tag_396\n      jumpi\n        /* \"contracts/AuditLogger.sol\":3712:3719  count++ */\n      dup2\n      dup1\n      tag_397\n      swap1\n      tag_199\n      jump\t// in\n    tag_397:\n      swap3\n      pop\n      pop\n        /* \"contracts/AuditLogger.sol\":3611:3735  if (auditTrail[i].timestamp >= _startTime && auditTrail[i].timestamp <= _endTime) {... */\n    tag_396:\n        /* \"contracts/AuditLogger.sol\":3591:3594  i++ */\n      dup1\n      dup1\n      0x01\n      add\n      swap2\n      pop\n      pop\n        /* \"contracts/AuditLogger.sol\":3548:3746  for (uint256 i = 0; i < auditTrail.length; i++) {... */\n      jump(tag_386)\n    tag_387:\n      pop\n        /* \"contracts/AuditLogger.sol\":3829:3834  count */\n      dup1\n        /* \"contracts/AuditLogger.sol\":3814:3835  new AuditLog[](count) */\n      0xffffffffffffffff\n      dup2\n      gt\n      iszero\n      tag_398\n      jumpi\n      tag_399\n      tag_202\n      jump\t// in\n    tag_399:\n    tag_398:\n      mload(0x40)\n      swap1\n      dup1\n      dup3\n      mstore\n      dup1\n      0x20\n      mul\n      0x20\n      add\n      dup3\n      add\n      0x40\n      mstore\n      dup1\n      iszero\n      tag_400\n      jumpi\n      dup2\n      0x20\n      add\n    tag_401:\n      tag_402\n      tag_206\n      jump\t// in\n    tag_402:\n      dup2\n      mstore\n      0x20\n      add\n      swap1\n      0x01\n      swap1\n      sub\n      swap1\n      dup2\n      tag_401\n      jumpi\n      swap1\n      pop\n    tag_400:\n      pop\n        /* \"contracts/AuditLogger.sol\":3807:3835  logs = new AuditLog[](count) */\n      swap2\n      pop\n        /* \"contracts/AuditLogger.sol\":3846:3859  uint256 index */\n      0x00\n        /* \"contracts/AuditLogger.sol\":3862:3863  0 */\n      0x00\n        /* \"contracts/AuditLogger.sol\":3846:3863  uint256 index = 0 */\n      swap1\n      pop\n        /* \"contracts/AuditLogger.sol\":3889:3898  uint256 i */\n      0x00\n        /* \"contracts/AuditLogger.sol\":3901:3902  0 */\n      0x00\n        /* \"contracts/AuditLogger.sol\":3889:3902  uint256 i = 0 */\n      swap1\n      pop\n        /* \"contracts/AuditLogger.sol\":3884:4128  for (uint256 i = 0; i < auditTrail.length; i++) {... */\n    tag_403:\n        /* \"contracts/AuditLogger.sol\":3908:3918  auditTrail */\n      0x02\n        /* \"contracts/AuditLogger.sol\":3908:3925  auditTrail.length */\n      dup1\n      sload\n      swap1\n      pop\n        /* \"contracts/AuditLogger.sol\":3904:3905  i */\n      dup2\n        /* \"contracts/AuditLogger.sol\":3904:3925  i < auditTrail.length */\n      lt\n        /* \"contracts/AuditLogger.sol\":3884:4128  for (uint256 i = 0; i < auditTrail.length; i++) {... */\n      iszero\n      tag_404\n      jumpi\n        /* \"contracts/AuditLogger.sol\":3978:3988  _startTime */\n      dup6\n        /* \"contracts/AuditLogger.sol\":3951:3961  auditTrail */\n      0x02\n        /* \"contracts/AuditLogger.sol\":3962:3963  i */\n      dup3\n        /* \"contracts/AuditLogger.sol\":3951:3964  auditTrail[i] */\n      dup2\n      sload\n      dup2\n      lt\n      tag_406\n      jumpi\n      tag_407\n      tag_179\n      jump\t// in\n    tag_407:\n    tag_406:\n      swap1\n      0x00\n      mstore\n      keccak256(0x00, 0x20)\n      swap1\n      0x06\n      mul\n      add\n        /* \"contracts/AuditLogger.sol\":3951:3974  auditTrail[i].timestamp */\n      0x03\n      add\n      sload\n        /* \"contracts/AuditLogger.sol\":3951:3988  auditTrail[i].timestamp >= _startTime */\n      lt\n      iszero\n        /* \"contracts/AuditLogger.sol\":3951:4027  auditTrail[i].timestamp >= _startTime && auditTrail[i].timestamp <= _endTime */\n      dup1\n      iszero\n      tag_409\n      jumpi\n      pop\n        /* \"contracts/AuditLogger.sol\":4019:4027  _endTime */\n      dup5\n        /* \"contracts/AuditLogger.sol\":3992:4002  auditTrail */\n      0x02\n        /* \"contracts/AuditLogger.sol\":4003:4004  i */\n      dup3\n        /* \"contracts/AuditLogger.sol\":3992:4005  auditTrail[i] */\n      dup2\n      sload\n      dup2\n      lt\n      tag_410\n      jumpi\n      tag_411\n      tag_179\n      jump\t// in\n    tag_411:\n    tag_410:\n      swap1\n      0x00\n      mstore\n      keccak256(0x00, 0x20)\n      swap1\n      0x06\n      mul\n      add\n        /* \"contracts/AuditLogger.sol\":3992:4015  auditTrail[i].timestamp */\n      0x03\n      add\n      sload\n        /* \"contracts/AuditLogger.sol\":3992:4027  auditTrail[i].timestamp <= _endTime */\n      gt\n      iszero\n        /* \"contracts/AuditLogger.sol\":3951:4027  auditTrail[i].timestamp >= _startTime && auditTrail[i].timestamp <= _endTime */\n    tag_409:\n        /* \"contracts/AuditLogger.sol\":3947:4117  if (auditTrail[i].timestamp >= _startTime && auditTrail[i].timestamp <= _endTime) {... */\n      iszero\n      tag_413\n      jumpi\n        /* \"contracts/AuditLogger.sol\":4062:4072  auditTrail */\n      0x02\n        /* \"contracts/AuditLogger.sol\":4073:4074  i */\n      dup2\n        /* \"contracts/AuditLogger.sol\":4062:4075  auditTrail[i] */\n      dup2\n      sload\n      dup2\n      lt\n      tag_414\n      jumpi\n      tag_415\n      tag_179\n      jump\t// in\n    tag_415:\n    tag_414:\n      swap1\n      0x00\n      mstore\n      keccak256(0x00, 0x20)\n      swap1\n      0x06\n      mul\n      add\n        /* \"contracts/AuditLogger.sol\":4048:4075  logs[index] = auditTrail[i] */\n      mload(0x40)\n      dup1\n      0xc0\n      add\n      0x40\n      mstore\n      swap1\n      dup2\n      0x00\n      dup3\n      add\n      0x00\n      swap1\n      sload\n      swap1\n      0x0100\n      exp\n      swap1\n      div\n      0xffffffffffffffffffffffffffffffffffffffff\n      and\n      0xffffffffffffffffffffffffffffffffffffffff\n      and\n      0xffffffffffffffffffffffffffffffffffffffff\n      and\n      dup2\n      mstore\n      0x20\n      add\n      0x01\n      dup3\n      add\n      dup1\n      sload\n      tag_417\n      swap1\n      tag_182\n      jump\t// in\n    tag_417:\n      dup1\n      0x1f\n      add\n      0x20\n      dup1\n      swap2\n      div\n      mul\n      0x20\n      add\n      mload(0x40)\n      swap1\n      dup2\n      add\n      0x40\n      mstore\n      dup1\n      swap3\n      swap2\n      swap1\n      dup2\n      dup2\n      mstore\n      0x20\n      add\n      dup3\n      dup1\n      sload\n      tag_418\n      swap1\n      tag_182\n      jump\t// in\n    tag_418:\n      dup1\n      iszero\n      tag_419\n      jumpi\n      dup1\n      0x1f\n      lt\n      tag_420\n      jumpi\n      0x0100\n      dup1\n      dup4\n      sload\n      div\n      mul\n      dup4\n      mstore\n      swap2\n      0x20\n      add\n      swap2\n      jump(tag_419)\n    tag_420:\n      dup3\n      add\n      swap2\n      swap1\n      0x00\n      mstore\n      keccak256(0x00, 0x20)\n      swap1\n    tag_421:\n      dup2\n      sload\n      dup2\n      mstore\n      swap1\n      0x01\n      add\n      swap1\n      0x20\n      add\n      dup1\n      dup4\n      gt\n      tag_421\n      jumpi\n      dup3\n      swap1\n      sub\n      0x1f\n      and\n      dup3\n      add\n      swap2\n    tag_419:\n      pop\n      pop\n      pop\n      pop\n      pop\n      dup2\n      mstore\n      0x20\n      add\n      0x02\n      dup3\n      add\n      dup1\n      sload\n      tag_422\n      swap1\n      tag_182\n      jump\t// in\n    tag_422:\n      dup1\n      0x1f\n      add\n      0x20\n      dup1\n      swap2\n      div\n      mul\n      0x20\n      add\n      mload(0x40)\n      swap1\n      dup2\n      add\n      0x40\n      mstore\n      dup1\n      swap3\n      swap2\n      swap1\n      dup2\n      dup2\n      mstore\n      0x20\n      add\n      dup3\n      dup1\n      sload\n      tag_423\n      swap1\n      tag_182\n      jump\t// in\n    tag_423:\n      dup1\n      iszero\n      tag_424\n      jumpi\n      dup1\n      0x1f\n      lt\n      tag_425\n      jumpi\n      0x0100\n      dup1\n      dup4\n      sload\n      div\n      mul\n      dup4\n      mstore\n      swap2\n      0x20\n      add\n      swap2\n      jump(tag_424)\n    tag_425:\n      dup3\n      add\n      swap2\n      swap1\n      0x00\n      mstore\n      keccak256(0x00, 0x20)\n      swap1\n    tag_426:\n      dup2\n      sload\n      dup2\n      mstore\n      swap1\n      0x01\n      add\n      swap1\n      0x20\n      add\n      dup1\n      dup4\n      gt\n      tag_426\n      jumpi\n      dup3\n      swap1\n      sub\n      0x1f\n      and\n      dup3\n      add\n      swap2\n    tag_424:\n      pop\n      pop\n      pop\n      pop\n      pop\n      dup2\n      mstore\n      0x20\n      add\n      0x03\n      dup3\n      add\n      sload\n      dup2\n      mstore\n      0x20\n      add\n      0x04\n      dup3\n      add\n      sload\n      dup2\n      mstore\n      0x20\n      add\n      0x05\n      dup3\n      add\n      sload\n      dup2\n      mstore\n      pop\n      pop\n        /* \"contracts/AuditLogger.sol\":4048:4052  logs */\n      dup5\n        /* \"contracts/AuditLogger.sol\":4053:4058  index */\n      dup4\n        /* \"contracts/AuditLogger.sol\":4048:4059  logs[index] */\n      dup2\n      mload\n      dup2\n      lt\n      tag_427\n      jumpi\n      tag_428\n      tag_179\n      jump\t// in\n    tag_428:\n    tag_427:\n      0x20\n      mul\n      0x20\n      add\n      add\n        /* \"contracts/AuditLogger.sol\":4048:4075  logs[index] = auditTrail[i] */\n      dup2\n      swap1\n      mstore\n      pop\n        /* \"contracts/AuditLogger.sol\":4094:4101  index++ */\n      dup2\n      dup1\n      tag_429\n      swap1\n      tag_199\n      jump\t// in\n    tag_429:\n      swap3\n      pop\n      pop\n        /* \"contracts/AuditLogger.sol\":3947:4117  if (auditTrail[i].timestamp >= _startTime && auditTrail[i].timestamp <= _endTime) {... */\n    tag_413:\n        /* \"contracts/AuditLogger.sol\":3927:3930  i++ */\n      dup1\n      dup1\n      0x01\n      add\n      swap2\n      pop\n      pop\n        /* \"contracts/AuditLogger.sol\":3884:4128  for (uint256 i = 0; i < auditTrail.length; i++) {... */\n      jump(tag_403)\n    tag_404:\n      pop\n        /* \"contracts/AuditLogger.sol\":4148:4159  return logs */\n      pop\n      pop\n        /* \"contracts/AuditLogger.sol\":3259:4167  function getLogsByTimeRange(... */\n      swap3\n      swap2\n      pop\n      pop\n      jump\t// out\n        /* \"contracts/AuditLogger.sol\":7663:10018  function generateComplianceReport(... */\n    tag_133:\n        /* \"contracts/AuditLogger.sol\":7793:7818  uint256 totalTransactions */\n      0x00\n        /* \"contracts/AuditLogger.sol\":7829:7850  uint256 totalPayments */\n      0x00\n        /* \"contracts/AuditLogger.sol\":7861:7889  uint256 totalEmployeeChanges */\n      0x00\n        /* \"contracts/AuditLogger.sol\":7900:7925  uint256 totalAdminActions */\n      0x00\n        /* \"contracts/AuditLogger.sol\":7936:7960  uint256 uniqueActorCount */\n      0x00\n        /* \"contracts/AuditLogger.sol\":7999:8000  0 */\n      0x00\n        /* \"contracts/AuditLogger.sol\":7979:8000  totalTransactions = 0 */\n      swap5\n      pop\n        /* \"contracts/AuditLogger.sol\":8027:8028  0 */\n      0x00\n        /* \"contracts/AuditLogger.sol\":8011:8028  totalPayments = 0 */\n      swap4\n      pop\n        /* \"contracts/AuditLogger.sol\":8062:8063  0 */\n      0x00\n        /* \"contracts/AuditLogger.sol\":8039:8063  totalEmployeeChanges = 0 */\n      swap3\n      pop\n        /* \"contracts/AuditLogger.sol\":8094:8095  0 */\n      0x00\n        /* \"contracts/AuditLogger.sol\":8074:8095  totalAdminActions = 0 */\n      swap2\n      pop\n        /* \"contracts/AuditLogger.sol\":8125:8126  0 */\n      0x00\n        /* \"contracts/AuditLogger.sol\":8106:8126  uniqueActorCount = 0 */\n      swap1\n      pop\n        /* \"contracts/AuditLogger.sol\":8210:8237  address[] memory seenActors */\n      0x00\n        /* \"contracts/AuditLogger.sol\":8254:8264  auditTrail */\n      0x02\n        /* \"contracts/AuditLogger.sol\":8254:8271  auditTrail.length */\n      dup1\n      sload\n      swap1\n      pop\n        /* \"contracts/AuditLogger.sol\":8240:8272  new address[](auditTrail.length) */\n      0xffffffffffffffff\n      dup2\n      gt\n      iszero\n      tag_431\n      jumpi\n      tag_432\n      tag_202\n      jump\t// in\n    tag_432:\n    tag_431:\n      mload(0x40)\n      swap1\n      dup1\n      dup3\n      mstore\n      dup1\n      0x20\n      mul\n      0x20\n      add\n      dup3\n      add\n      0x40\n      mstore\n      dup1\n      iszero\n      tag_433\n      jumpi\n      dup2\n      0x20\n      add\n      0x20\n      dup3\n      mul\n      dup1\n      calldatasize\n      dup4\n      calldatacopy\n      dup1\n      dup3\n      add\n      swap2\n      pop\n      pop\n      swap1\n      pop\n    tag_433:\n      pop\n        /* \"contracts/AuditLogger.sol\":8210:8272  address[] memory seenActors = new address[](auditTrail.length) */\n      swap1\n      pop\n        /* \"contracts/AuditLogger.sol\":8298:8307  uint256 i */\n      0x00\n        /* \"contracts/AuditLogger.sol\":8310:8311  0 */\n      0x00\n        /* \"contracts/AuditLogger.sol\":8298:8311  uint256 i = 0 */\n      swap1\n      pop\n        /* \"contracts/AuditLogger.sol\":8293:10011  for (uint256 i = 0; i < auditTrail.length; i++) {... */\n    tag_434:\n        /* \"contracts/AuditLogger.sol\":8317:8327  auditTrail */\n      0x02\n        /* \"contracts/AuditLogger.sol\":8317:8334  auditTrail.length */\n      dup1\n      sload\n      swap1\n      pop\n        /* \"contracts/AuditLogger.sol\":8313:8314  i */\n      dup2\n        /* \"contracts/AuditLogger.sol\":8313:8334  i < auditTrail.length */\n      lt\n        /* \"contracts/AuditLogger.sol\":8293:10011  for (uint256 i = 0; i < auditTrail.length; i++) {... */\n      iszero\n      tag_435\n      jumpi\n        /* \"contracts/AuditLogger.sol\":8356:8375  AuditLog memory log */\n      0x00\n        /* \"contracts/AuditLogger.sol\":8378:8388  auditTrail */\n      0x02\n        /* \"contracts/AuditLogger.sol\":8389:8390  i */\n      dup3\n        /* \"contracts/AuditLogger.sol\":8378:8391  auditTrail[i] */\n      dup2\n      sload\n      dup2\n      lt\n      tag_437\n      jumpi\n      tag_438\n      tag_179\n      jump\t// in\n    tag_438:\n    tag_437:\n      swap1\n      0x00\n      mstore\n      keccak256(0x00, 0x20)\n      swap1\n      0x06\n      mul\n      add\n        /* \"contracts/AuditLogger.sol\":8356:8391  AuditLog memory log = auditTrail[i] */\n      mload(0x40)\n      dup1\n      0xc0\n      add\n      0x40\n      mstore\n      swap1\n      dup2\n      0x00\n      dup3\n      add\n      0x00\n      swap1\n      sload\n      swap1\n      0x0100\n      exp\n      swap1\n      div\n      0xffffffffffffffffffffffffffffffffffffffff\n      and\n      0xffffffffffffffffffffffffffffffffffffffff\n      and\n      0xffffffffffffffffffffffffffffffffffffffff\n      and\n      dup2\n      mstore\n      0x20\n      add\n      0x01\n      dup3\n      add\n      dup1\n      sload\n      tag_440\n      swap1\n      tag_182\n      jump\t// in\n    tag_440:\n      dup1\n      0x1f\n      add\n      0x20\n      dup1\n      swap2\n      div\n      mul\n      0x20\n      add\n      mload(0x40)\n      swap1\n      dup2\n      add\n      0x40\n      mstore\n      dup1\n      swap3\n      swap2\n      swap1\n      dup2\n      dup2\n      mstore\n      0x20\n      add\n      dup3\n      dup1\n      sload\n      tag_441\n      swap1\n      tag_182\n      jump\t// in\n    tag_441:\n      dup1\n      iszero\n      tag_442\n      jumpi\n      dup1\n      0x1f\n      lt\n      tag_443\n      jumpi\n      0x0100\n      dup1\n      dup4\n      sload\n      div\n      mul\n      dup4\n      mstore\n      swap2\n      0x20\n      add\n      swap2\n      jump(tag_442)\n    tag_443:\n      dup3\n      add\n      swap2\n      swap1\n      0x00\n      mstore\n      keccak256(0x00, 0x20)\n      swap1\n    tag_444:\n      dup2\n      sload\n      dup2\n      mstore\n      swap1\n      0x01\n      add\n      swap1\n      0x20\n      add\n      dup1\n      dup4\n      gt\n      tag_444\n      jumpi\n      dup3\n      swap1\n      sub\n      0x1f\n      and\n      dup3\n      add\n      swap2\n    tag_442:\n      pop\n      pop\n      pop\n      pop\n      pop\n      dup2\n      mstore\n      0x20\n      add\n      0x02\n      dup3\n      add\n      dup1\n      sload\n      tag_445\n      swap1\n      tag_182\n      jump\t// in\n    tag_445:\n      dup1\n      0x1f\n      add\n      0x20\n      dup1\n      swap2\n      div\n      mul\n      0x20\n      add\n      mload(0x40)\n      swap1\n      dup2\n      add\n      0x40\n      mstore\n      dup1\n      swap3\n      swap2\n      swap1\n      dup2\n      dup2\n      mstore\n      0x20\n      add\n      dup3\n      dup1\n      sload\n      tag_446\n      swap1\n      tag_182\n      jump\t// in\n    tag_446:\n      dup1\n      iszero\n      tag_447\n      jumpi\n      dup1\n      0x1f\n      lt\n      tag_448\n      jumpi\n      0x0100\n      dup1\n      dup4\n      sload\n      div\n      mul\n      dup4\n      mstore\n      swap2\n      0x20\n      add\n      swap2\n      jump(tag_447)\n    tag_448:\n      dup3\n      add\n      swap2\n      swap1\n      0x00\n      mstore\n      keccak256(0x00, 0x20)\n      swap1\n    tag_449:\n      dup2\n      sload\n      dup2\n      mstore\n      swap1\n      0x01\n      add\n      swap1\n      0x20\n      add\n      dup1\n      dup4\n      gt\n      tag_449\n      jumpi\n      dup3\n      swap1\n      sub\n      0x1f\n      and\n      dup3\n      add\n      swap2\n    tag_447:\n      pop\n      pop\n      pop\n      pop\n      pop\n      dup2\n      mstore\n      0x20\n      add\n      0x03\n      dup3\n      add\n      sload\n      dup2\n      mstore\n      0x20\n      add\n      0x04\n      dup3\n      add\n      sload\n      dup2\n      mstore\n      0x20\n      add\n      0x05\n      dup3\n      add\n      sload\n      dup2\n      mstore\n      pop\n      pop\n      swap1\n      pop\n        /* \"contracts/AuditLogger.sol\":8441:8451  _startTime */\n      dup10\n        /* \"contracts/AuditLogger.sol\":8424:8427  log */\n      dup2\n        /* \"contracts/AuditLogger.sol\":8424:8437  log.timestamp */\n      0x60\n      add\n      mload\n        /* \"contracts/AuditLogger.sol\":8424:8451  log.timestamp >= _startTime */\n      lt\n      iszero\n        /* \"contracts/AuditLogger.sol\":8424:8480  log.timestamp >= _startTime && log.timestamp <= _endTime */\n      dup1\n      iszero\n      tag_450\n      jumpi\n      pop\n        /* \"contracts/AuditLogger.sol\":8472:8480  _endTime */\n      dup9\n        /* \"contracts/AuditLogger.sol\":8455:8458  log */\n      dup2\n        /* \"contracts/AuditLogger.sol\":8455:8468  log.timestamp */\n      0x60\n      add\n      mload\n        /* \"contracts/AuditLogger.sol\":8455:8480  log.timestamp <= _endTime */\n      gt\n      iszero\n        /* \"contracts/AuditLogger.sol\":8424:8480  log.timestamp >= _startTime && log.timestamp <= _endTime */\n    tag_450:\n        /* \"contracts/AuditLogger.sol\":8420:10000  if (log.timestamp >= _startTime && log.timestamp <= _endTime) {... */\n      iszero\n      tag_451\n      jumpi\n        /* \"contracts/AuditLogger.sol\":8501:8520  totalTransactions++ */\n      dup8\n      dup1\n      tag_452\n      swap1\n      tag_199\n      jump\t// in\n    tag_452:\n      swap9\n      pop\n      pop\n        /* \"contracts/AuditLogger.sol\":8596:8614  bytes32 actionHash */\n      0x00\n        /* \"contracts/AuditLogger.sol\":8633:8636  log */\n      dup2\n        /* \"contracts/AuditLogger.sol\":8633:8643  log.action */\n      0x20\n      add\n      mload\n        /* \"contracts/AuditLogger.sol\":8617:8645  keccak256(bytes(log.action)) */\n      dup1\n      mload\n      swap1\n      0x20\n      add\n      keccak256\n        /* \"contracts/AuditLogger.sol\":8596:8645  bytes32 actionHash = keccak256(bytes(log.action)) */\n      swap1\n      pop\n        /* \"contracts/AuditLogger.sol\":8700:8730  keccak256(\"PAYMENT_PROCESSED\") */\n      0x4383ec58706cdbe21052026f52771dbe49d31b19e829fd81c52ad7fcd456ce7a\n        /* \"contracts/AuditLogger.sol\":8686:8696  actionHash */\n      dup2\n        /* \"contracts/AuditLogger.sol\":8686:8730  actionHash == keccak256(\"PAYMENT_PROCESSED\") */\n      eq\n        /* \"contracts/AuditLogger.sol\":8686:8806  actionHash == keccak256(\"PAYMENT_PROCESSED\") || ... */\n      dup1\n      tag_453\n      jumpi\n      pop\n        /* \"contracts/AuditLogger.sol\":8770:8806  keccak256(\"BATCH_PAYMENT_PROCESSED\") */\n      0xe7858b8fa3b724c568ec721412e5a66b76ee39ca1029412751e683777fcfcbfa\n        /* \"contracts/AuditLogger.sol\":8756:8766  actionHash */\n      dup2\n        /* \"contracts/AuditLogger.sol\":8756:8806  actionHash == keccak256(\"BATCH_PAYMENT_PROCESSED\") */\n      eq\n        /* \"contracts/AuditLogger.sol\":8686:8806  actionHash == keccak256(\"PAYMENT_PROCESSED\") || ... */\n    tag_453:\n        /* \"contracts/AuditLogger.sol\":8682:9464  if (actionHash == keccak256(\"PAYMENT_PROCESSED\") || ... */\n      iszero\n      tag_454\n      jumpi\n        /* \"contracts/AuditLogger.sol\":8831:8846  totalPayments++ */\n      dup8\n      dup1\n      tag_455\n      swap1\n      tag_199\n      jump\t// in\n    tag_455:\n      swap9\n      pop\n      pop\n        /* \"contracts/AuditLogger.sol\":8682:9464  if (actionHash == keccak256(\"PAYMENT_PROCESSED\") || ... */\n      jump(tag_456)\n    tag_454:\n        /* \"contracts/AuditLogger.sol\":8890:8917  keccak256(\"EMPLOYEE_ADDED\") */\n      0xefc077a6a603cf81594be6944a3cadc86d55ad6e8f133bf89cc554e537a9d8c3\n        /* \"contracts/AuditLogger.sol\":8876:8886  actionHash */\n      dup2\n        /* \"contracts/AuditLogger.sol\":8876:8917  actionHash == keccak256(\"EMPLOYEE_ADDED\") */\n      eq\n        /* \"contracts/AuditLogger.sol\":8876:8991  actionHash == keccak256(\"EMPLOYEE_ADDED\") ||... */\n      dup1\n      tag_457\n      jumpi\n      pop\n        /* \"contracts/AuditLogger.sol\":8962:8991  keccak256(\"EMPLOYEE_UPDATED\") */\n      0x04d8e17292f3c03de52c5edbceb346240949c93893fa3ef9e282001dadb0ab5a\n        /* \"contracts/AuditLogger.sol\":8948:8958  actionHash */\n      dup2\n        /* \"contracts/AuditLogger.sol\":8948:8991  actionHash == keccak256(\"EMPLOYEE_UPDATED\") */\n      eq\n        /* \"contracts/AuditLogger.sol\":8876:8991  actionHash == keccak256(\"EMPLOYEE_ADDED\") ||... */\n    tag_457:\n        /* \"contracts/AuditLogger.sol\":8876:9069  actionHash == keccak256(\"EMPLOYEE_ADDED\") ||... */\n      dup1\n      tag_458\n      jumpi\n      pop\n        /* \"contracts/AuditLogger.sol\":9036:9069  keccak256(\"EMPLOYEE_DEACTIVATED\") */\n      0x6fe24903f2359fd645acabf4506a67ae45f81c788cb80c55c37699cf9a1a8797\n        /* \"contracts/AuditLogger.sol\":9022:9032  actionHash */\n      dup2\n        /* \"contracts/AuditLogger.sol\":9022:9069  actionHash == keccak256(\"EMPLOYEE_DEACTIVATED\") */\n      eq\n        /* \"contracts/AuditLogger.sol\":8876:9069  actionHash == keccak256(\"EMPLOYEE_ADDED\") ||... */\n    tag_458:\n        /* \"contracts/AuditLogger.sol\":8872:9464  if (actionHash == keccak256(\"EMPLOYEE_ADDED\") ||... */\n      iszero\n      tag_459\n      jumpi\n        /* \"contracts/AuditLogger.sol\":9094:9116  totalEmployeeChanges++ */\n      dup7\n      dup1\n      tag_460\n      swap1\n      tag_199\n      jump\t// in\n    tag_460:\n      swap8\n      pop\n      pop\n        /* \"contracts/AuditLogger.sol\":8872:9464  if (actionHash == keccak256(\"EMPLOYEE_ADDED\") ||... */\n      jump(tag_461)\n    tag_459:\n        /* \"contracts/AuditLogger.sol\":9160:9188  keccak256(\"EMERGENCY_PAUSE\") */\n      0x545760910ef327b12d33293c5a0f4701c83dc633f698db52bcc975a12afff190\n        /* \"contracts/AuditLogger.sol\":9146:9156  actionHash */\n      dup2\n        /* \"contracts/AuditLogger.sol\":9146:9188  actionHash == keccak256(\"EMERGENCY_PAUSE\") */\n      eq\n        /* \"contracts/AuditLogger.sol\":9146:9263  actionHash == keccak256(\"EMERGENCY_PAUSE\") ||... */\n      dup1\n      tag_462\n      jumpi\n      pop\n        /* \"contracts/AuditLogger.sol\":9233:9263  keccak256(\"EMERGENCY_UNPAUSE\") */\n      0x86190e9ba3e1a6f52f4c2cb149c10f5cbd68db5b96cb4cb53eda392c78f684e2\n        /* \"contracts/AuditLogger.sol\":9219:9229  actionHash */\n      dup2\n        /* \"contracts/AuditLogger.sol\":9219:9263  actionHash == keccak256(\"EMERGENCY_UNPAUSE\") */\n      eq\n        /* \"contracts/AuditLogger.sol\":9146:9263  actionHash == keccak256(\"EMERGENCY_PAUSE\") ||... */\n    tag_462:\n        /* \"contracts/AuditLogger.sol\":9146:9331  actionHash == keccak256(\"EMERGENCY_PAUSE\") ||... */\n      dup1\n      tag_463\n      jumpi\n      pop\n        /* \"contracts/AuditLogger.sol\":9308:9331  keccak256(\"GRANT_ROLE\") */\n      0x19daf714879a8d7ce7cf1f321ee5d4641baddaf542cc56400b31137e85e7f603\n        /* \"contracts/AuditLogger.sol\":9294:9304  actionHash */\n      dup2\n        /* \"contracts/AuditLogger.sol\":9294:9331  actionHash == keccak256(\"GRANT_ROLE\") */\n      eq\n        /* \"contracts/AuditLogger.sol\":9146:9331  actionHash == keccak256(\"EMERGENCY_PAUSE\") ||... */\n    tag_463:\n        /* \"contracts/AuditLogger.sol\":9146:9400  actionHash == keccak256(\"EMERGENCY_PAUSE\") ||... */\n      dup1\n      tag_464\n      jumpi\n      pop\n        /* \"contracts/AuditLogger.sol\":9376:9400  keccak256(\"REVOKE_ROLE\") */\n      0x5297e68f3a27f04914f2c6db0ad63b5e5c8173cebcc1a5341df045cf6dad7adc\n        /* \"contracts/AuditLogger.sol\":9362:9372  actionHash */\n      dup2\n        /* \"contracts/AuditLogger.sol\":9362:9400  actionHash == keccak256(\"REVOKE_ROLE\") */\n      eq\n        /* \"contracts/AuditLogger.sol\":9146:9400  actionHash == keccak256(\"EMERGENCY_PAUSE\") ||... */\n    tag_464:\n        /* \"contracts/AuditLogger.sol\":9142:9464  if (actionHash == keccak256(\"EMERGENCY_PAUSE\") ||... */\n      iszero\n      tag_465\n      jumpi\n        /* \"contracts/AuditLogger.sol\":9425:9444  totalAdminActions++ */\n      dup6\n      dup1\n      tag_466\n      swap1\n      tag_199\n      jump\t// in\n    tag_466:\n      swap7\n      pop\n      pop\n        /* \"contracts/AuditLogger.sol\":9142:9464  if (actionHash == keccak256(\"EMERGENCY_PAUSE\") ||... */\n    tag_465:\n        /* \"contracts/AuditLogger.sol\":8872:9464  if (actionHash == keccak256(\"EMPLOYEE_ADDED\") ||... */\n    tag_461:\n        /* \"contracts/AuditLogger.sol\":8682:9464  if (actionHash == keccak256(\"PAYMENT_PROCESSED\") || ... */\n    tag_456:\n        /* \"contracts/AuditLogger.sol\":9564:9579  bool isNewActor */\n      0x00\n        /* \"contracts/AuditLogger.sol\":9582:9586  true */\n      0x01\n        /* \"contracts/AuditLogger.sol\":9564:9586  bool isNewActor = true */\n      swap1\n      pop\n        /* \"contracts/AuditLogger.sol\":9610:9619  uint256 j */\n      0x00\n        /* \"contracts/AuditLogger.sol\":9622:9623  0 */\n      0x00\n        /* \"contracts/AuditLogger.sol\":9610:9623  uint256 j = 0 */\n      swap1\n      pop\n        /* \"contracts/AuditLogger.sol\":9605:9827  for (uint256 j = 0; j < uniqueActorCount; j++) {... */\n    tag_467:\n        /* \"contracts/AuditLogger.sol\":9629:9645  uniqueActorCount */\n      dup7\n        /* \"contracts/AuditLogger.sol\":9625:9626  j */\n      dup2\n        /* \"contracts/AuditLogger.sol\":9625:9645  j < uniqueActorCount */\n      lt\n        /* \"contracts/AuditLogger.sol\":9605:9827  for (uint256 j = 0; j < uniqueActorCount; j++) {... */\n      iszero\n      tag_468\n      jumpi\n        /* \"contracts/AuditLogger.sol\":9696:9699  log */\n      dup4\n        /* \"contracts/AuditLogger.sol\":9696:9705  log.actor */\n      0x00\n      add\n      mload\n        /* \"contracts/AuditLogger.sol\":9679:9705  seenActors[j] == log.actor */\n      0xffffffffffffffffffffffffffffffffffffffff\n      and\n        /* \"contracts/AuditLogger.sol\":9679:9689  seenActors */\n      dup7\n        /* \"contracts/AuditLogger.sol\":9690:9691  j */\n      dup3\n        /* \"contracts/AuditLogger.sol\":9679:9692  seenActors[j] */\n      dup2\n      mload\n      dup2\n      lt\n      tag_470\n      jumpi\n      tag_471\n      tag_179\n      jump\t// in\n    tag_471:\n    tag_470:\n      0x20\n      mul\n      0x20\n      add\n      add\n      mload\n        /* \"contracts/AuditLogger.sol\":9679:9705  seenActors[j] == log.actor */\n      0xffffffffffffffffffffffffffffffffffffffff\n      and\n      sub\n        /* \"contracts/AuditLogger.sol\":9675:9808  if (seenActors[j] == log.actor) {... */\n      tag_472\n      jumpi\n        /* \"contracts/AuditLogger.sol\":9747:9752  false */\n      0x00\n        /* \"contracts/AuditLogger.sol\":9734:9752  isNewActor = false */\n      swap2\n      pop\n        /* \"contracts/AuditLogger.sol\":9779:9784  break */\n      jump(tag_468)\n        /* \"contracts/AuditLogger.sol\":9675:9808  if (seenActors[j] == log.actor) {... */\n    tag_472:\n        /* \"contracts/AuditLogger.sol\":9647:9650  j++ */\n      dup1\n      dup1\n      0x01\n      add\n      swap2\n      pop\n      pop\n        /* \"contracts/AuditLogger.sol\":9605:9827  for (uint256 j = 0; j < uniqueActorCount; j++) {... */\n      jump(tag_467)\n    tag_468:\n      pop\n        /* \"contracts/AuditLogger.sol\":9849:9859  isNewActor */\n      dup1\n        /* \"contracts/AuditLogger.sol\":9845:9985  if (isNewActor) {... */\n      iszero\n      tag_473\n      jumpi\n        /* \"contracts/AuditLogger.sol\":9915:9918  log */\n      dup3\n        /* \"contracts/AuditLogger.sol\":9915:9924  log.actor */\n      0x00\n      add\n      mload\n        /* \"contracts/AuditLogger.sol\":9884:9894  seenActors */\n      dup6\n        /* \"contracts/AuditLogger.sol\":9895:9911  uniqueActorCount */\n      dup8\n        /* \"contracts/AuditLogger.sol\":9884:9912  seenActors[uniqueActorCount] */\n      dup2\n      mload\n      dup2\n      lt\n      tag_474\n      jumpi\n      tag_475\n      tag_179\n      jump\t// in\n    tag_475:\n    tag_474:\n      0x20\n      mul\n      0x20\n      add\n      add\n        /* \"contracts/AuditLogger.sol\":9884:9924  seenActors[uniqueActorCount] = log.actor */\n      swap1\n      0xffffffffffffffffffffffffffffffffffffffff\n      and\n      swap1\n      dup2\n      0xffffffffffffffffffffffffffffffffffffffff\n      and\n      dup2\n      mstore\n      pop\n      pop\n        /* \"contracts/AuditLogger.sol\":9947:9965  uniqueActorCount++ */\n      dup6\n      dup1\n      tag_476\n      swap1\n      tag_199\n      jump\t// in\n    tag_476:\n      swap7\n      pop\n      pop\n        /* \"contracts/AuditLogger.sol\":9845:9985  if (isNewActor) {... */\n    tag_473:\n        /* \"contracts/AuditLogger.sol\":8482:10000  {... */\n      pop\n      pop\n        /* \"contracts/AuditLogger.sol\":8420:10000  if (log.timestamp >= _startTime && log.timestamp <= _endTime) {... */\n    tag_451:\n        /* \"contracts/AuditLogger.sol\":8341:10011  {... */\n      pop\n        /* \"contracts/AuditLogger.sol\":8336:8339  i++ */\n      dup1\n      dup1\n      0x01\n      add\n      swap2\n      pop\n      pop\n        /* \"contracts/AuditLogger.sol\":8293:10011  for (uint256 i = 0; i < auditTrail.length; i++) {... */\n      jump(tag_434)\n    tag_435:\n      pop\n        /* \"contracts/AuditLogger.sol\":7968:10018  {... */\n      pop\n        /* \"contracts/AuditLogger.sol\":7663:10018  function generateComplianceReport(... */\n      swap3\n      swap6\n      pop\n      swap3\n      swap6\n      swap1\n      swap4\n      pop\n      jump\t// out\n        /* \"contracts/AuditLogger.sol\":512:558  mapping(address => uint256[]) public actorLogs */\n    tag_139:\n      mstore(0x20, 0x03)\n      dup2\n      0x00\n      mstore\n      keccak256(0x00, 0x40)\n      dup2\n      dup2\n      sload\n      dup2\n      lt\n      tag_477\n      jumpi\n      0x00\n      dup1\n      revert\n    tag_477:\n      swap1\n      0x00\n      mstore\n      keccak256(0x00, 0x20)\n      add\n      0x00\n      swap2\n      pop\n      swap2\n      pop\n      pop\n      sload\n      dup2\n      jump\t// out\n        /* \"contracts/AuditLogger.sol\":5487:5586  function getTotalLogs() external view returns (uint256) {... */\n    tag_142:\n        /* \"contracts/AuditLogger.sol\":5534:5541  uint256 */\n      0x00\n        /* \"contracts/AuditLogger.sol\":5561:5571  auditTrail */\n      0x02\n        /* \"contracts/AuditLogger.sol\":5561:5578  auditTrail.length */\n      dup1\n      sload\n      swap1\n      pop\n        /* \"contracts/AuditLogger.sol\":5554:5578  return auditTrail.length */\n      swap1\n      pop\n        /* \"contracts/AuditLogger.sol\":5487:5586  function getTotalLogs() external view returns (uint256) {... */\n      swap1\n      jump\t// out\n        /* \"contracts/AuditLogger.sol\":2708:3247  function getLogsInRange(... */\n    tag_146:\n        /* \"contracts/AuditLogger.sol\":2820:2842  AuditLog[] memory logs */\n      0x60\n        /* \"contracts/AuditLogger.sol\":2878:2887  _endIndex */\n      dup2\n        /* \"contracts/AuditLogger.sol\":2863:2874  _startIndex */\n      dup4\n        /* \"contracts/AuditLogger.sol\":2863:2887  _startIndex <= _endIndex */\n      gt\n      iszero\n        /* \"contracts/AuditLogger.sol\":2855:2905  require(_startIndex <= _endIndex, \"Invalid range\") */\n      tag_481\n      jumpi\n      mload(0x40)\n      0x08c379a000000000000000000000000000000000000000000000000000000000\n      dup2\n      mstore\n      0x04\n      add\n      tag_482\n      swap1\n      tag_483\n      jump\t// in\n    tag_482:\n      mload(0x40)\n      dup1\n      swap2\n      sub\n      swap1\n      revert\n    tag_481:\n        /* \"contracts/AuditLogger.sol\":2936:2946  auditTrail */\n      0x02\n        /* \"contracts/AuditLogger.sol\":2936:2953  auditTrail.length */\n      dup1\n      sload\n      swap1\n      pop\n        /* \"contracts/AuditLogger.sol\":2924:2933  _endIndex */\n      dup3\n        /* \"contracts/AuditLogger.sol\":2924:2953  _endIndex < auditTrail.length */\n      lt\n        /* \"contracts/AuditLogger.sol\":2916:2981  require(_endIndex < auditTrail.length, \"End index out of bounds\") */\n      tag_484\n      jumpi\n      mload(0x40)\n      0x08c379a000000000000000000000000000000000000000000000000000000000\n      dup2\n      mstore\n      0x04\n      add\n      tag_485\n      swap1\n      tag_486\n      jump\t// in\n    tag_485:\n      mload(0x40)\n      dup1\n      swap2\n      sub\n      swap1\n      revert\n    tag_484:\n        /* \"contracts/AuditLogger.sol\":3002:3016  uint256 length */\n      0x00\n        /* \"contracts/AuditLogger.sol\":3045:3046  1 */\n      0x01\n        /* \"contracts/AuditLogger.sol\":3031:3042  _startIndex */\n      dup5\n        /* \"contracts/AuditLogger.sol\":3019:3028  _endIndex */\n      dup5\n        /* \"contracts/AuditLogger.sol\":3019:3042  _endIndex - _startIndex */\n      tag_487\n      swap2\n      swap1\n      tag_250\n      jump\t// in\n    tag_487:\n        /* \"contracts/AuditLogger.sol\":3019:3046  _endIndex - _startIndex + 1 */\n      tag_488\n      swap2\n      swap1\n      tag_489\n      jump\t// in\n    tag_488:\n        /* \"contracts/AuditLogger.sol\":3002:3046  uint256 length = _endIndex - _startIndex + 1 */\n      swap1\n      pop\n        /* \"contracts/AuditLogger.sol\":3079:3085  length */\n      dup1\n        /* \"contracts/AuditLogger.sol\":3064:3086  new AuditLog[](length) */\n      0xffffffffffffffff\n      dup2\n      gt\n      iszero\n      tag_490\n      jumpi\n      tag_491\n      tag_202\n      jump\t// in\n    tag_491:\n    tag_490:\n      mload(0x40)\n      swap1\n      dup1\n      dup3\n      mstore\n      dup1\n      0x20\n      mul\n      0x20\n      add\n      dup3\n      add\n      0x40\n      mstore\n      dup1\n      iszero\n      tag_492\n      jumpi\n      dup2\n      0x20\n      add\n    tag_493:\n      tag_494\n      tag_206\n      jump\t// in\n    tag_494:\n      dup2\n      mstore\n      0x20\n      add\n      swap1\n      0x01\n      swap1\n      sub\n      swap1\n      dup2\n      tag_493\n      jumpi\n      swap1\n      pop\n    tag_492:\n      pop\n        /* \"contracts/AuditLogger.sol\":3057:3086  logs = new AuditLog[](length) */\n      swap2\n      pop\n        /* \"contracts/AuditLogger.sol\":3112:3121  uint256 i */\n      0x00\n        /* \"contracts/AuditLogger.sol\":3124:3125  0 */\n      0x00\n        /* \"contracts/AuditLogger.sol\":3112:3125  uint256 i = 0 */\n      swap1\n      pop\n        /* \"contracts/AuditLogger.sol\":3107:3208  for (uint256 i = 0; i < length; i++) {... */\n    tag_495:\n        /* \"contracts/AuditLogger.sol\":3131:3137  length */\n      dup2\n        /* \"contracts/AuditLogger.sol\":3127:3128  i */\n      dup2\n        /* \"contracts/AuditLogger.sol\":3127:3137  i < length */\n      lt\n        /* \"contracts/AuditLogger.sol\":3107:3208  for (uint256 i = 0; i < length; i++) {... */\n      iszero\n      tag_496\n      jumpi\n        /* \"contracts/AuditLogger.sol\":3169:3179  auditTrail */\n      0x02\n        /* \"contracts/AuditLogger.sol\":3194:3195  i */\n      dup2\n        /* \"contracts/AuditLogger.sol\":3180:3191  _startIndex */\n      dup7\n        /* \"contracts/AuditLogger.sol\":3180:3195  _startIndex + i */\n      tag_498\n      swap2\n      swap1\n      tag_489\n      jump\t// in\n    tag_498:\n        /* \"contracts/AuditLogger.sol\":3169:3196  auditTrail[_startIndex + i] */\n      dup2\n      sload\n      dup2\n      lt\n      tag_499\n      jumpi\n      tag_500\n      tag_179\n      jump\t// in\n    tag_500:\n    tag_499:\n      swap1\n      0x00\n      mstore\n      keccak256(0x00, 0x20)\n      swap1\n      0x06\n      mul\n      add\n        /* \"contracts/AuditLogger.sol\":3159:3196  logs[i] = auditTrail[_startIndex + i] */\n      mload(0x40)\n      dup1\n      0xc0\n      add\n      0x40\n      mstore\n      swap1\n      dup2\n      0x00\n      dup3\n      add\n      0x00\n      swap1\n      sload\n      swap1\n      0x0100\n      exp\n      swap1\n      div\n      0xffffffffffffffffffffffffffffffffffffffff\n      and\n      0xffffffffffffffffffffffffffffffffffffffff\n      and\n      0xffffffffffffffffffffffffffffffffffffffff\n      and\n      dup2\n      mstore\n      0x20\n      add\n      0x01\n      dup3\n      add\n      dup1\n      sload\n      tag_502\n      swap1\n      tag_182\n      jump\t// in\n    tag_502:\n      dup1\n      0x1f\n      add\n      0x20\n      dup1\n      swap2\n      div\n      mul\n      0x20\n      add\n      mload(0x40)\n      swap1\n      dup2\n      add\n      0x40\n      mstore\n      dup1\n      swap3\n      swap2\n      swap1\n      dup2\n      dup2\n      mstore\n      0x20\n      add\n      dup3\n      dup1\n      sload\n      tag_503\n      swap1\n      tag_182\n      jump\t// in\n    tag_503:\n      dup1\n      iszero\n      tag_504\n      jumpi\n      dup1\n      0x1f\n      lt\n      tag_505\n      jumpi\n      0x0100\n      dup1\n      dup4\n      sload\n      div\n      mul\n      dup4\n      mstore\n      swap2\n      0x20\n      add\n      swap2\n      jump(tag_504)\n    tag_505:\n      dup3\n      add\n      swap2\n      swap1\n      0x00\n      mstore\n      keccak256(0x00, 0x20)\n      swap1\n    tag_506:\n      dup2\n      sload\n      dup2\n      mstore\n      swap1\n      0x01\n      add\n      swap1\n      0x20\n      add\n      dup1\n      dup4\n      gt\n      tag_506\n      jumpi\n      dup3\n      swap1\n      sub\n      0x1f\n      and\n      dup3\n      add\n      swap2\n    tag_504:\n      pop\n      pop\n      pop\n      pop\n      pop\n      dup2\n      mstore\n      0x20\n      add\n      0x02\n      dup3\n      add\n      dup1\n      sload\n      tag_507\n      swap1\n      tag_182\n      jump\t// in\n    tag_507:\n      dup1\n      0x1f\n      add\n      0x20\n      dup1\n      swap2\n      div\n      mul\n      0x20\n      add\n      mload(0x40)\n      swap1\n      dup2\n      add\n      0x40\n      mstore\n      dup1\n      swap3\n      swap2\n      swap1\n      dup2\n      dup2\n      mstore\n      0x20\n      add\n      dup3\n      dup1\n      sload\n      tag_508\n      swap1\n      tag_182\n      jump\t// in\n    tag_508:\n      dup1\n      iszero\n      tag_509\n      jumpi\n      dup1\n      0x1f\n      lt\n      tag_510\n      jumpi\n      0x0100\n      dup1\n      dup4\n      sload\n      div\n      mul\n      dup4\n      mstore\n      swap2\n      0x20\n      add\n      swap2\n      jump(tag_509)\n    tag_510:\n      dup3\n      add\n      swap2\n      swap1\n      0x00\n      mstore\n      keccak256(0x00, 0x20)\n      swap1\n    tag_511:\n      dup2\n      sload\n      dup2\n      mstore\n      swap1\n      0x01\n      add\n      swap1\n      0x20\n      add\n      dup1\n      dup4\n      gt\n      tag_511\n      jumpi\n      dup3\n      swap1\n      sub\n      0x1f\n      and\n      dup3\n      add\n      swap2\n    tag_509:\n      pop\n      pop\n      pop\n      pop\n      pop\n      dup2\n      mstore\n      0x20\n      add\n      0x03\n      dup3\n      add\n      sload\n      dup2\n      mstore\n      0x20\n      add\n      0x04\n      dup3\n      add\n      sload\n      dup2\n      mstore\n      0x20\n      add\n      0x05\n      dup3\n      add\n      sload\n      dup2\n      mstore\n      pop\n      pop\n        /* \"contracts/AuditLogger.sol\":3159:3163  logs */\n      dup4\n        /* \"contracts/AuditLogger.sol\":3164:3165  i */\n      dup3\n        /* \"contracts/AuditLogger.sol\":3159:3166  logs[i] */\n      dup2\n      mload\n      dup2\n      lt\n      tag_512\n      jumpi\n      tag_513\n      tag_179\n      jump\t// in\n    tag_513:\n    tag_512:\n      0x20\n      mul\n      0x20\n      add\n      add\n        /* \"contracts/AuditLogger.sol\":3159:3196  logs[i] = auditTrail[_startIndex + i] */\n      dup2\n      swap1\n      mstore\n      pop\n        /* \"contracts/AuditLogger.sol\":3139:3142  i++ */\n      dup1\n      dup1\n      0x01\n      add\n      swap2\n      pop\n      pop\n        /* \"contracts/AuditLogger.sol\":3107:3208  for (uint256 i = 0; i < length; i++) {... */\n      jump(tag_495)\n    tag_496:\n      pop\n        /* \"contracts/AuditLogger.sol\":3228:3239  return logs */\n      pop\n        /* \"contracts/AuditLogger.sol\":2708:3247  function getLogsInRange(... */\n      swap3\n      swap2\n      pop\n      pop\n      jump\t// out\n        /* \"@openzeppelin/contracts/access/AccessControl.sol\":4618:4756  function revokeRole(bytes32 role, address account) public virtual onlyRole(getRoleAdmin(role)) {... */\n    tag_150:\n        /* \"@openzeppelin/contracts/access/AccessControl.sol\":4693:4711  getRoleAdmin(role) */\n      tag_514\n        /* \"@openzeppelin/contracts/access/AccessControl.sol\":4706:4710  role */\n      dup3\n        /* \"@openzeppelin/contracts/access/AccessControl.sol\":4693:4705  getRoleAdmin */\n      tag_64\n        /* \"@openzeppelin/contracts/access/AccessControl.sol\":4693:4711  getRoleAdmin(role) */\n      jump\t// in\n    tag_514:\n        /* \"@openzeppelin/contracts/access/AccessControl.sol\":2473:2489  _checkRole(role) */\n      tag_516\n        /* \"@openzeppelin/contracts/access/AccessControl.sol\":2484:2488  role */\n      dup2\n        /* \"@openzeppelin/contracts/access/AccessControl.sol\":2473:2483  _checkRole */\n      tag_335\n        /* \"@openzeppelin/contracts/access/AccessControl.sol\":2473:2489  _checkRole(role) */\n      jump\t// in\n    tag_516:\n        /* \"@openzeppelin/contracts/access/AccessControl.sol\":4723:4749  _revokeRole(role, account) */\n      tag_518\n        /* \"@openzeppelin/contracts/access/AccessControl.sol\":4735:4739  role */\n      dup4\n        /* \"@openzeppelin/contracts/access/AccessControl.sol\":4741:4748  account */\n      dup4\n        /* \"@openzeppelin/contracts/access/AccessControl.sol\":4723:4734  _revokeRole */\n      tag_344\n        /* \"@openzeppelin/contracts/access/AccessControl.sol\":4723:4749  _revokeRole(role, account) */\n      jump\t// in\n    tag_518:\n      pop\n        /* \"@openzeppelin/contracts/access/AccessControl.sol\":4618:4756  function revokeRole(bytes32 role, address account) public virtual onlyRole(getRoleAdmin(role)) {... */\n      pop\n      pop\n      pop\n      jump\t// out\n        /* \"contracts/AuditLogger.sol\":477:505  AuditLog[] public auditTrail */\n    tag_153:\n      0x02\n      dup2\n      dup2\n      sload\n      dup2\n      lt\n      tag_519\n      jumpi\n      0x00\n      dup1\n      revert\n    tag_519:\n      swap1\n      0x00\n      mstore\n      keccak256(0x00, 0x20)\n      swap1\n      0x06\n      mul\n      add\n      0x00\n      swap2\n      pop\n      swap1\n      pop\n      dup1\n      0x00\n      add\n      0x00\n      swap1\n      sload\n      swap1\n      0x0100\n      exp\n      swap1\n      div\n      0xffffffffffffffffffffffffffffffffffffffff\n      and\n      swap1\n      dup1\n      0x01\n      add\n      dup1\n      sload\n      tag_521\n      swap1\n      tag_182\n      jump\t// in\n    tag_521:\n      dup1\n      0x1f\n      add\n      0x20\n      dup1\n      swap2\n      div\n      mul\n      0x20\n      add\n      mload(0x40)\n      swap1\n      dup2\n      add\n      0x40\n      mstore\n      dup1\n      swap3\n      swap2\n      swap1\n      dup2\n      dup2\n      mstore\n      0x20\n      add\n      dup3\n      dup1\n      sload\n      tag_522\n      swap1\n      tag_182\n      jump\t// in\n    tag_522:\n      dup1\n      iszero\n      tag_523\n      jumpi\n      dup1\n      0x1f\n      lt\n      tag_524\n      jumpi\n      0x0100\n      dup1\n      dup4\n      sload\n      div\n      mul\n      dup4\n      mstore\n      swap2\n      0x20\n      add\n      swap2\n      jump(tag_523)\n    tag_524:\n      dup3\n      add\n      swap2\n      swap1\n      0x00\n      mstore\n      keccak256(0x00, 0x20)\n      swap1\n    tag_525:\n      dup2\n      sload\n      dup2\n      mstore\n      swap1\n      0x01\n      add\n      swap1\n      0x20\n      add\n      dup1\n      dup4\n      gt\n      tag_525\n      jumpi\n      dup3\n      swap1\n      sub\n      0x1f\n      and\n      dup3\n      add\n      swap2\n    tag_523:\n      pop\n      pop\n      pop\n      pop\n      pop\n      swap1\n      dup1\n      0x02\n      add\n      dup1\n      sload\n      tag_526\n      swap1\n      tag_182\n      jump\t// in\n    tag_526:\n      dup1\n      0x1f\n      add\n      0x20\n      dup1\n      swap2\n      div\n      mul\n      0x20\n      add\n      mload(0x40)\n      swap1\n      dup2\n      add\n      0x40\n      mstore\n      dup1\n      swap3\n      swap2\n      swap1\n      dup2\n      dup2\n      mstore\n      0x20\n      add\n      dup3\n      dup1\n      sload\n      tag_527\n      swap1\n      tag_182\n      jump\t// in\n    tag_527:\n      dup1\n      iszero\n      tag_528\n      jumpi\n      dup1\n      0x1f\n      lt\n      tag_529\n      jumpi\n      0x0100\n      dup1\n      dup4\n      sload\n      div\n      mul\n      dup4\n      mstore\n      swap2\n      0x20\n      add\n      swap2\n      jump(tag_528)\n    tag_529:\n      dup3\n      add\n      swap2\n      swap1\n      0x00\n      mstore\n      keccak256(0x00, 0x20)\n      swap1\n    tag_530:\n      dup2\n      sload\n      dup2\n      mstore\n      swap1\n      0x01\n      add\n      swap1\n      0x20\n      add\n      dup1\n      dup4\n      gt\n      tag_530\n      jumpi\n      dup3\n      swap1\n      sub\n      0x1f\n      and\n      dup3\n      add\n      swap2\n    tag_528:\n      pop\n      pop\n      pop\n      pop\n      pop\n      swap1\n      dup1\n      0x03\n      add\n      sload\n      swap1\n      dup1\n      0x04\n      add\n      sload\n      swap1\n      dup1\n      0x05\n      add\n      sload\n      swap1\n      pop\n      dup7\n      jump\t// out\n        /* \"contracts/AuditLogger.sol\":2100:2288  function getAuditLog(uint256 _index) external view returns (AuditLog memory) {... */\n    tag_158:\n        /* \"contracts/AuditLogger.sol\":2160:2175  AuditLog memory */\n      tag_531\n      tag_206\n      jump\t// in\n    tag_531:\n        /* \"contracts/AuditLogger.sol\":2205:2215  auditTrail */\n      0x02\n        /* \"contracts/AuditLogger.sol\":2205:2222  auditTrail.length */\n      dup1\n      sload\n      swap1\n      pop\n        /* \"contracts/AuditLogger.sol\":2196:2202  _index */\n      dup3\n        /* \"contracts/AuditLogger.sol\":2196:2222  _index < auditTrail.length */\n      lt\n        /* \"contracts/AuditLogger.sol\":2188:2244  require(_index < auditTrail.length, \"Invalid log index\") */\n      tag_533\n      jumpi\n      mload(0x40)\n      0x08c379a000000000000000000000000000000000000000000000000000000000\n      dup2\n      mstore\n      0x04\n      add\n      tag_534\n      swap1\n      tag_535\n      jump\t// in\n    tag_534:\n      mload(0x40)\n      dup1\n      swap2\n      sub\n      swap1\n      revert\n    tag_533:\n        /* \"contracts/AuditLogger.sol\":2262:2272  auditTrail */\n      0x02\n        /* \"contracts/AuditLogger.sol\":2273:2279  _index */\n      dup3\n        /* \"contracts/AuditLogger.sol\":2262:2280  auditTrail[_index] */\n      dup2\n      sload\n      dup2\n      lt\n      tag_536\n      jumpi\n      tag_537\n      tag_179\n      jump\t// in\n    tag_537:\n    tag_536:\n      swap1\n      0x00\n      mstore\n      keccak256(0x00, 0x20)\n      swap1\n      0x06\n      mul\n      add\n        /* \"contracts/AuditLogger.sol\":2255:2280  return auditTrail[_index] */\n      mload(0x40)\n      dup1\n      0xc0\n      add\n      0x40\n      mstore\n      swap1\n      dup2\n      0x00\n      dup3\n      add\n      0x00\n      swap1\n      sload\n      swap1\n      0x0100\n      exp\n      swap1\n      div\n      0xffffffffffffffffffffffffffffffffffffffff\n      and\n      0xffffffffffffffffffffffffffffffffffffffff\n      and\n      0xffffffffffffffffffffffffffffffffffffffff\n      and\n      dup2\n      mstore\n      0x20\n      add\n      0x01\n      dup3\n      add\n      dup1\n      sload\n      tag_539\n      swap1\n      tag_182\n      jump\t// in\n    tag_539:\n      dup1\n      0x1f\n      add\n      0x20\n      dup1\n      swap2\n      div\n      mul\n      0x20\n      add\n      mload(0x40)\n      swap1\n      dup2\n      add\n      0x40\n      mstore\n      dup1\n      swap3\n      swap2\n      swap1\n      dup2\n      dup2\n      mstore\n      0x20\n      add\n      dup3\n      dup1\n      sload\n      tag_540\n      swap1\n      tag_182\n      jump\t// in\n    tag_540:\n      dup1\n      iszero\n      tag_541\n      jumpi\n      dup1\n      0x1f\n      lt\n      tag_542\n      jumpi\n      0x0100\n      dup1\n      dup4\n      sload\n      div\n      mul\n      dup4\n      mstore\n      swap2\n      0x20\n      add\n      swap2\n      jump(tag_541)\n    tag_542:\n      dup3\n      add\n      swap2\n      swap1\n      0x00\n      mstore\n      keccak256(0x00, 0x20)\n      swap1\n    tag_543:\n      dup2\n      sload\n      dup2\n      mstore\n      swap1\n      0x01\n      add\n      swap1\n      0x20\n      add\n      dup1\n      dup4\n      gt\n      tag_543\n      jumpi\n      dup3\n      swap1\n      sub\n      0x1f\n      and\n      dup3\n      add\n      swap2\n    tag_541:\n      pop\n      pop\n      pop\n      pop\n      pop\n      dup2\n      mstore\n      0x20\n      add\n      0x02\n      dup3\n      add\n      dup1\n      sload\n      tag_544\n      swap1\n      tag_182\n      jump\t// in\n    tag_544:\n      dup1\n      0x1f\n      add\n      0x20\n      dup1\n      swap2\n      div\n      mul\n      0x20\n      add\n      mload(0x40)\n      swap1\n      dup2\n      add\n      0x40\n      mstore\n      dup1\n      swap3\n      swap2\n      swap1\n      dup2\n      dup2\n      mstore\n      0x20\n      add\n      dup3\n      dup1\n      sload\n      tag_545\n      swap1\n      tag_182\n      jump\t// in\n    tag_545:\n      dup1\n      iszero\n      tag_546\n      jumpi\n      dup1\n      0x1f\n      lt\n      tag_547\n      jumpi\n      0x0100\n      dup1\n      dup4\n      sload\n      div\n      mul\n      dup4\n      mstore\n      swap2\n      0x20\n      add\n      swap2\n      jump(tag_546)\n    tag_547:\n      dup3\n      add\n      swap2\n      swap1\n      0x00\n      mstore\n      keccak256(0x00, 0x20)\n      swap1\n    tag_548:\n      dup2\n      sload\n      dup2\n      mstore\n      swap1\n      0x01\n      add\n      swap1\n      0x20\n      add\n      dup1\n      dup4\n      gt\n      tag_548\n      jumpi\n      dup3\n      swap1\n      sub\n      0x1f\n      and\n      dup3\n      add\n      swap2\n    tag_546:\n      pop\n      pop\n      pop\n      pop\n      pop\n      dup2\n      mstore\n      0x20\n      add\n      0x03\n      dup3\n      add\n      sload\n      dup2\n      mstore\n      0x20\n      add\n      0x04\n      dup3\n      add\n      sload\n      dup2\n      mstore\n      0x20\n      add\n      0x05\n      dup3\n      add\n      sload\n      dup2\n      mstore\n      pop\n      pop\n      swap1\n      pop\n        /* \"contracts/AuditLogger.sol\":2100:2288  function getAuditLog(uint256 _index) external view returns (AuditLog memory) {... */\n      swap2\n      swap1\n      pop\n      jump\t// out\n        /* \"contracts/AuditLogger.sol\":2578:2696  function getDailyLogs(uint256 _day) external view returns (uint256[] memory) {... */\n    tag_163:\n        /* \"contracts/AuditLogger.sol\":2637:2653  uint256[] memory */\n      0x60\n        /* \"contracts/AuditLogger.sol\":2673:2682  dailyLogs */\n      0x05\n        /* \"contracts/AuditLogger.sol\":2673:2688  dailyLogs[_day] */\n      0x00\n        /* \"contracts/AuditLogger.sol\":2683:2687  _day */\n      dup4\n        /* \"contracts/AuditLogger.sol\":2673:2688  dailyLogs[_day] */\n      dup2\n      mstore\n      0x20\n      add\n      swap1\n      dup2\n      mstore\n      0x20\n      add\n      0x00\n      keccak256\n        /* \"contracts/AuditLogger.sol\":2666:2688  return dailyLogs[_day] */\n      dup1\n      sload\n      dup1\n      0x20\n      mul\n      0x20\n      add\n      mload(0x40)\n      swap1\n      dup2\n      add\n      0x40\n      mstore\n      dup1\n      swap3\n      swap2\n      swap1\n      dup2\n      dup2\n      mstore\n      0x20\n      add\n      dup3\n      dup1\n      sload\n      dup1\n      iszero\n      tag_550\n      jumpi\n      0x20\n      mul\n      dup3\n      add\n      swap2\n      swap1\n      0x00\n      mstore\n      keccak256(0x00, 0x20)\n      swap1\n    tag_551:\n      dup2\n      sload\n      dup2\n      mstore\n      0x20\n      add\n      swap1\n      0x01\n      add\n      swap1\n      dup1\n      dup4\n      gt\n      tag_551\n      jumpi\n    tag_550:\n      pop\n      pop\n      pop\n      pop\n      pop\n      swap1\n      pop\n        /* \"contracts/AuditLogger.sol\":2578:2696  function getDailyLogs(uint256 _day) external view returns (uint256[] memory) {... */\n      swap2\n      swap1\n      pop\n      jump\t// out\n        /* \"contracts/AuditLogger.sol\":4179:4814  function getLogsByActor(address _actor, uint256 _limit) external view returns (AuditLog[] memory logs) {... */\n    tag_167:\n        /* \"contracts/AuditLogger.sol\":4258:4280  AuditLog[] memory logs */\n      0x60\n        /* \"contracts/AuditLogger.sol\":4293:4325  uint256[] memory actorLogIndices */\n      0x00\n        /* \"contracts/AuditLogger.sol\":4328:4337  actorLogs */\n      0x03\n        /* \"contracts/AuditLogger.sol\":4328:4345  actorLogs[_actor] */\n      0x00\n        /* \"contracts/AuditLogger.sol\":4338:4344  _actor */\n      dup6\n        /* \"contracts/AuditLogger.sol\":4328:4345  actorLogs[_actor] */\n      0xffffffffffffffffffffffffffffffffffffffff\n      and\n      0xffffffffffffffffffffffffffffffffffffffff\n      and\n      dup2\n      mstore\n      0x20\n      add\n      swap1\n      dup2\n      mstore\n      0x20\n      add\n      0x00\n      keccak256\n        /* \"contracts/AuditLogger.sol\":4293:4345  uint256[] memory actorLogIndices = actorLogs[_actor] */\n      dup1\n      sload\n      dup1\n      0x20\n      mul\n      0x20\n      add\n      mload(0x40)\n      swap1\n      dup2\n      add\n      0x40\n      mstore\n      dup1\n      swap3\n      swap2\n      swap1\n      dup2\n      dup2\n      mstore\n      0x20\n      add\n      dup3\n      dup1\n      sload\n      dup1\n      iszero\n      tag_553\n      jumpi\n      0x20\n      mul\n      dup3\n      add\n      swap2\n      swap1\n      0x00\n      mstore\n      keccak256(0x00, 0x20)\n      swap1\n    tag_554:\n      dup2\n      sload\n      dup2\n      mstore\n      0x20\n      add\n      swap1\n      0x01\n      add\n      swap1\n      dup1\n      dup4\n      gt\n      tag_554\n      jumpi\n    tag_553:\n      pop\n      pop\n      pop\n      pop\n      pop\n      swap1\n      pop\n        /* \"contracts/AuditLogger.sol\":4356:4370  uint256 length */\n      0x00\n        /* \"contracts/AuditLogger.sol\":4373:4388  actorLogIndices */\n      dup2\n        /* \"contracts/AuditLogger.sol\":4373:4395  actorLogIndices.length */\n      mload\n        /* \"contracts/AuditLogger.sol\":4356:4395  uint256 length = actorLogIndices.length */\n      swap1\n      pop\n        /* \"contracts/AuditLogger.sol\":4429:4430  0 */\n      0x00\n        /* \"contracts/AuditLogger.sol\":4420:4426  _limit */\n      dup5\n        /* \"contracts/AuditLogger.sol\":4420:4430  _limit > 0 */\n      gt\n        /* \"contracts/AuditLogger.sol\":4420:4449  _limit > 0 && _limit < length */\n      dup1\n      iszero\n      tag_555\n      jumpi\n      pop\n        /* \"contracts/AuditLogger.sol\":4443:4449  length */\n      dup1\n        /* \"contracts/AuditLogger.sol\":4434:4440  _limit */\n      dup5\n        /* \"contracts/AuditLogger.sol\":4434:4449  _limit < length */\n      lt\n        /* \"contracts/AuditLogger.sol\":4420:4449  _limit > 0 && _limit < length */\n    tag_555:\n        /* \"contracts/AuditLogger.sol\":4416:4493  if (_limit > 0 && _limit < length) {... */\n      iszero\n      tag_556\n      jumpi\n        /* \"contracts/AuditLogger.sol\":4475:4481  _limit */\n      dup4\n        /* \"contracts/AuditLogger.sol\":4466:4481  length = _limit */\n      swap1\n      pop\n        /* \"contracts/AuditLogger.sol\":4416:4493  if (_limit > 0 && _limit < length) {... */\n    tag_556:\n        /* \"contracts/AuditLogger.sol\":4535:4541  length */\n      dup1\n        /* \"contracts/AuditLogger.sol\":4520:4542  new AuditLog[](length) */\n      0xffffffffffffffff\n      dup2\n      gt\n      iszero\n      tag_557\n      jumpi\n      tag_558\n      tag_202\n      jump\t// in\n    tag_558:\n    tag_557:\n      mload(0x40)\n      swap1\n      dup1\n      dup3\n      mstore\n      dup1\n      0x20\n      mul\n      0x20\n      add\n      dup3\n      add\n      0x40\n      mstore\n      dup1\n      iszero\n      tag_559\n      jumpi\n      dup2\n      0x20\n      add\n    tag_560:\n      tag_561\n      tag_206\n      jump\t// in\n    tag_561:\n      dup2\n      mstore\n      0x20\n      add\n      swap1\n      0x01\n      swap1\n      sub\n      swap1\n      dup2\n      tag_560\n      jumpi\n      swap1\n      pop\n    tag_559:\n      pop\n        /* \"contracts/AuditLogger.sol\":4513:4542  logs = new AuditLog[](length) */\n      swap3\n      pop\n        /* \"contracts/AuditLogger.sol\":4605:4614  uint256 i */\n      0x00\n        /* \"contracts/AuditLogger.sol\":4617:4618  0 */\n      0x00\n        /* \"contracts/AuditLogger.sol\":4605:4618  uint256 i = 0 */\n      swap1\n      pop\n        /* \"contracts/AuditLogger.sol\":4600:4775  for (uint256 i = 0; i < length; i++) {... */\n    tag_562:\n        /* \"contracts/AuditLogger.sol\":4624:4630  length */\n      dup2\n        /* \"contracts/AuditLogger.sol\":4620:4621  i */\n      dup2\n        /* \"contracts/AuditLogger.sol\":4620:4630  i < length */\n      lt\n        /* \"contracts/AuditLogger.sol\":4600:4775  for (uint256 i = 0; i < length; i++) {... */\n      iszero\n      tag_563\n      jumpi\n        /* \"contracts/AuditLogger.sol\":4652:4668  uint256 logIndex */\n      0x00\n        /* \"contracts/AuditLogger.sol\":4671:4686  actorLogIndices */\n      dup4\n        /* \"contracts/AuditLogger.sol\":4716:4717  i */\n      dup3\n        /* \"contracts/AuditLogger.sol\":4712:4713  1 */\n      0x01\n        /* \"contracts/AuditLogger.sol\":4687:4702  actorLogIndices */\n      dup7\n        /* \"contracts/AuditLogger.sol\":4687:4709  actorLogIndices.length */\n      mload\n        /* \"contracts/AuditLogger.sol\":4687:4713  actorLogIndices.length - 1 */\n      tag_565\n      swap2\n      swap1\n      tag_250\n      jump\t// in\n    tag_565:\n        /* \"contracts/AuditLogger.sol\":4687:4717  actorLogIndices.length - 1 - i */\n      tag_566\n      swap2\n      swap1\n      tag_250\n      jump\t// in\n    tag_566:\n        /* \"contracts/AuditLogger.sol\":4671:4718  actorLogIndices[actorLogIndices.length - 1 - i] */\n      dup2\n      mload\n      dup2\n      lt\n      tag_567\n      jumpi\n      tag_568\n      tag_179\n      jump\t// in\n    tag_568:\n    tag_567:\n      0x20\n      mul\n      0x20\n      add\n      add\n      mload\n        /* \"contracts/AuditLogger.sol\":4652:4718  uint256 logIndex = actorLogIndices[actorLogIndices.length - 1 - i] */\n      swap1\n      pop\n        /* \"contracts/AuditLogger.sol\":4743:4753  auditTrail */\n      0x02\n        /* \"contracts/AuditLogger.sol\":4754:4762  logIndex */\n      dup2\n        /* \"contracts/AuditLogger.sol\":4743:4763  auditTrail[logIndex] */\n      dup2\n      sload\n      dup2\n      lt\n      tag_569\n      jumpi\n      tag_570\n      tag_179\n      jump\t// in\n    tag_570:\n    tag_569:\n      swap1\n      0x00\n      mstore\n      keccak256(0x00, 0x20)\n      swap1\n      0x06\n      mul\n      add\n        /* \"contracts/AuditLogger.sol\":4733:4763  logs[i] = auditTrail[logIndex] */\n      mload(0x40)\n      dup1\n      0xc0\n      add\n      0x40\n      mstore\n      swap1\n      dup2\n      0x00\n      dup3\n      add\n      0x00\n      swap1\n      sload\n      swap1\n      0x0100\n      exp\n      swap1\n      div\n      0xffffffffffffffffffffffffffffffffffffffff\n      and\n      0xffffffffffffffffffffffffffffffffffffffff\n      and\n      0xffffffffffffffffffffffffffffffffffffffff\n      and\n      dup2\n      mstore\n      0x20\n      add\n      0x01\n      dup3\n      add\n      dup1\n      sload\n      tag_572\n      swap1\n      tag_182\n      jump\t// in\n    tag_572:\n      dup1\n      0x1f\n      add\n      0x20\n      dup1\n      swap2\n      div\n      mul\n      0x20\n      add\n      mload(0x40)\n      swap1\n      dup2\n      add\n      0x40\n      mstore\n      dup1\n      swap3\n      swap2\n      swap1\n      dup2\n      dup2\n      mstore\n      0x20\n      add\n      dup3\n      dup1\n      sload\n      tag_573\n      swap1\n      tag_182\n      jump\t// in\n    tag_573:\n      dup1\n      iszero\n      tag_574\n      jumpi\n      dup1\n      0x1f\n      lt\n      tag_575\n      jumpi\n      0x0100\n      dup1\n      dup4\n      sload\n      div\n      mul\n      dup4\n      mstore\n      swap2\n      0x20\n      add\n      swap2\n      jump(tag_574)\n    tag_575:\n      dup3\n      add\n      swap2\n      swap1\n      0x00\n      mstore\n      keccak256(0x00, 0x20)\n      swap1\n    tag_576:\n      dup2\n      sload\n      dup2\n      mstore\n      swap1\n      0x01\n      add\n      swap1\n      0x20\n      add\n      dup1\n      dup4\n      gt\n      tag_576\n      jumpi\n      dup3\n      swap1\n      sub\n      0x1f\n      and\n      dup3\n      add\n      swap2\n    tag_574:\n      pop\n      pop\n      pop\n      pop\n      pop\n      dup2\n      mstore\n      0x20\n      add\n      0x02\n      dup3\n      add\n      dup1\n      sload\n      tag_577\n      swap1\n      tag_182\n      jump\t// in\n    tag_577:\n      dup1\n      0x1f\n      add\n      0x20\n      dup1\n      swap2\n      div\n      mul\n      0x20\n      add\n      mload(0x40)\n      swap1\n      dup2\n      add\n      0x40\n      mstore\n      dup1\n      swap3\n      swap2\n      swap1\n      dup2\n      dup2\n      mstore\n      0x20\n      add\n      dup3\n      dup1\n      sload\n      tag_578\n      swap1\n      tag_182\n      jump\t// in\n    tag_578:\n      dup1\n      iszero\n      tag_579\n      jumpi\n      dup1\n      0x1f\n      lt\n      tag_580\n      jumpi\n      0x0100\n      dup1\n      dup4\n      sload\n      div\n      mul\n      dup4\n      mstore\n      swap2\n      0x20\n      add\n      swap2\n      jump(tag_579)\n    tag_580:\n      dup3\n      add\n      swap2\n      swap1\n      0x00\n      mstore\n      keccak256(0x00, 0x20)\n      swap1\n    tag_581:\n      dup2\n      sload\n      dup2\n      mstore\n      swap1\n      0x01\n      add\n      swap1\n      0x20\n      add\n      dup1\n      dup4\n      gt\n      tag_581\n      jumpi\n      dup3\n      swap1\n      sub\n      0x1f\n      and\n      dup3\n      add\n      swap2\n    tag_579:\n      pop\n      pop\n      pop\n      pop\n      pop\n      dup2\n      mstore\n      0x20\n      add\n      0x03\n      dup3\n      add\n      sload\n      dup2\n      mstore\n      0x20\n      add\n      0x04\n      dup3\n      add\n      sload\n      dup2\n      mstore\n      0x20\n      add\n      0x05\n      dup3\n      add\n      sload\n      dup2\n      mstore\n      pop\n      pop\n        /* \"contracts/AuditLogger.sol\":4733:4737  logs */\n      dup6\n        /* \"contracts/AuditLogger.sol\":4738:4739  i */\n      dup4\n        /* \"contracts/AuditLogger.sol\":4733:4740  logs[i] */\n      dup2\n      mload\n      dup2\n      lt\n      tag_582\n      jumpi\n      tag_583\n      tag_179\n      jump\t// in\n    tag_583:\n    tag_582:\n      0x20\n      mul\n      0x20\n      add\n      add\n        /* \"contracts/AuditLogger.sol\":4733:4763  logs[i] = auditTrail[logIndex] */\n      dup2\n      swap1\n      mstore\n      pop\n        /* \"contracts/AuditLogger.sol\":4637:4775  {... */\n      pop\n        /* \"contracts/AuditLogger.sol\":4632:4635  i++ */\n      dup1\n      dup1\n      0x01\n      add\n      swap2\n      pop\n      pop\n        /* \"contracts/AuditLogger.sol\":4600:4775  for (uint256 i = 0; i < length; i++) {... */\n      jump(tag_562)\n    tag_563:\n      pop\n        /* \"contracts/AuditLogger.sol\":4795:4806  return logs */\n      pop\n      pop\n        /* \"contracts/AuditLogger.sol\":4179:4814  function getLogsByActor(address _actor, uint256 _limit) external view returns (AuditLog[] memory logs) {... */\n      swap3\n      swap2\n      pop\n      pop\n      jump\t// out\n        /* \"@openzeppelin/contracts/utils/introspection/ERC165.sol\":730:876  function supportsInterface(bytes4 interfaceId) public view virtual returns (bool) {... */\n    tag_172:\n        /* \"@openzeppelin/contracts/utils/introspection/ERC165.sol\":806:810  bool */\n      0x00\n        /* \"@openzeppelin/contracts/utils/introspection/ERC165.sol\":844:869  type(IERC165).interfaceId */\n      0x01ffc9a700000000000000000000000000000000000000000000000000000000\n        /* \"@openzeppelin/contracts/utils/introspection/ERC165.sol\":829:869  interfaceId == type(IERC165).interfaceId */\n      not(0xffffffffffffffffffffffffffffffffffffffffffffffffffffffff)\n      and\n        /* \"@openzeppelin/contracts/utils/introspection/ERC165.sol\":829:840  interfaceId */\n      dup3\n        /* \"@openzeppelin/contracts/utils/introspection/ERC165.sol\":829:869  interfaceId == type(IERC165).interfaceId */\n      not(0xffffffffffffffffffffffffffffffffffffffffffffffffffffffff)\n      and\n      eq\n        /* \"@openzeppelin/contracts/utils/introspection/ERC165.sol\":822:869  return interfaceId == type(IERC165).interfaceId */\n      swap1\n      pop\n        /* \"@openzeppelin/contracts/utils/introspection/ERC165.sol\":730:876  function supportsInterface(bytes4 interfaceId) public view virtual returns (bool) {... */\n      swap2\n      swap1\n      pop\n      jump\t// out\n        /* \"@openzeppelin/contracts/access/AccessControl.sol\":3175:3278  function _checkRole(bytes32 role) internal view virtual {... */\n    tag_335:\n        /* \"@openzeppelin/contracts/access/AccessControl.sol\":3241:3271  _checkRole(role, _msgSender()) */\n      tag_586\n        /* \"@openzeppelin/contracts/access/AccessControl.sol\":3252:3256  role */\n      dup2\n        /* \"@openzeppelin/contracts/access/AccessControl.sol\":3258:3270  _msgSender() */\n      tag_587\n        /* \"@openzeppelin/contracts/access/AccessControl.sol\":3258:3268  _msgSender */\n      tag_341\n        /* \"@openzeppelin/contracts/access/AccessControl.sol\":3258:3270  _msgSender() */\n      jump\t// in\n    tag_587:\n        /* \"@openzeppelin/contracts/access/AccessControl.sol\":3241:3251  _checkRole */\n      tag_588\n        /* \"@openzeppelin/contracts/access/AccessControl.sol\":3241:3271  _checkRole(role, _msgSender()) */\n      jump\t// in\n    tag_586:\n        /* \"@openzeppelin/contracts/access/AccessControl.sol\":3175:3278  function _checkRole(bytes32 role) internal view virtual {... */\n      pop\n      jump\t// out\n        /* \"@openzeppelin/contracts/access/AccessControl.sol\":6155:6471  function _grantRole(bytes32 role, address account) internal virtual returns (bool) {... */\n    tag_338:\n        /* \"@openzeppelin/contracts/access/AccessControl.sol\":6232:6236  bool */\n      0x00\n        /* \"@openzeppelin/contracts/access/AccessControl.sol\":6253:6275  hasRole(role, account) */\n      tag_590\n        /* \"@openzeppelin/contracts/access/AccessControl.sol\":6261:6265  role */\n      dup4\n        /* \"@openzeppelin/contracts/access/AccessControl.sol\":6267:6274  account */\n      dup4\n        /* \"@openzeppelin/contracts/access/AccessControl.sol\":6253:6260  hasRole */\n      tag_113\n        /* \"@openzeppelin/contracts/access/AccessControl.sol\":6253:6275  hasRole(role, account) */\n      jump\t// in\n    tag_590:\n        /* \"@openzeppelin/contracts/access/AccessControl.sol\":6248:6465  if (!hasRole(role, account)) {... */\n      tag_591\n      jumpi\n        /* \"@openzeppelin/contracts/access/AccessControl.sol\":6323:6327  true */\n      0x01\n        /* \"@openzeppelin/contracts/access/AccessControl.sol\":6291:6297  _roles */\n      0x00\n        /* \"@openzeppelin/contracts/access/AccessControl.sol\":6291:6303  _roles[role] */\n      0x00\n        /* \"@openzeppelin/contracts/access/AccessControl.sol\":6298:6302  role */\n      dup6\n        /* \"@openzeppelin/contracts/access/AccessControl.sol\":6291:6303  _roles[role] */\n      dup2\n      mstore\n      0x20\n      add\n      swap1\n      dup2\n      mstore\n      0x20\n      add\n      0x00\n      keccak256\n        /* \"@openzeppelin/contracts/access/AccessControl.sol\":6291:6311  _roles[role].hasRole */\n      0x00\n      add\n        /* \"@openzeppelin/contracts/access/AccessControl.sol\":6291:6320  _roles[role].hasRole[account] */\n      0x00\n        /* \"@openzeppelin/contracts/access/AccessControl.sol\":6312:6319  account */\n      dup5\n        /* \"@openzeppelin/contracts/access/AccessControl.sol\":6291:6320  _roles[role].hasRole[account] */\n      0xffffffffffffffffffffffffffffffffffffffff\n      and\n      0xffffffffffffffffffffffffffffffffffffffff\n      and\n      dup2\n      mstore\n      0x20\n      add\n      swap1\n      dup2\n      mstore\n      0x20\n      add\n      0x00\n      keccak256\n      0x00\n        /* \"@openzeppelin/contracts/access/AccessControl.sol\":6291:6327  _roles[role].hasRole[account] = true */\n      0x0100\n      exp\n      dup2\n      sload\n      dup2\n      0xff\n      mul\n      not\n      and\n      swap1\n      dup4\n      iszero\n      iszero\n      mul\n      or\n      swap1\n      sstore\n      pop\n        /* \"@openzeppelin/contracts/access/AccessControl.sol\":6373:6385  _msgSender() */\n      tag_592\n        /* \"@openzeppelin/contracts/access/AccessControl.sol\":6373:6383  _msgSender */\n      tag_341\n        /* \"@openzeppelin/contracts/access/AccessControl.sol\":6373:6385  _msgSender() */\n      jump\t// in\n    tag_592:\n        /* \"@openzeppelin/contracts/access/AccessControl.sol\":6346:6386  RoleGranted(role, account, _msgSender()) */\n      0xffffffffffffffffffffffffffffffffffffffff\n      and\n        /* \"@openzeppelin/contracts/access/AccessControl.sol\":6364:6371  account */\n      dup3\n        /* \"@openzeppelin/contracts/access/AccessControl.sol\":6346:6386  RoleGranted(role, account, _msgSender()) */\n      0xffffffffffffffffffffffffffffffffffffffff\n      and\n        /* \"@openzeppelin/contracts/access/AccessControl.sol\":6358:6362  role */\n      dup5\n        /* \"@openzeppelin/contracts/access/AccessControl.sol\":6346:6386  RoleGranted(role, account, _msgSender()) */\n      0x2f8788117e7eff1d82e926ec794901d17c78024a50270940304540a733656f0d\n      mload(0x40)\n      mload(0x40)\n      dup1\n      swap2\n      sub\n      swap1\n      log4\n        /* \"@openzeppelin/contracts/access/AccessControl.sol\":6407:6411  true */\n      0x01\n        /* \"@openzeppelin/contracts/access/AccessControl.sol\":6400:6411  return true */\n      swap1\n      pop\n      jump(tag_589)\n        /* \"@openzeppelin/contracts/access/AccessControl.sol\":6248:6465  if (!hasRole(role, account)) {... */\n    tag_591:\n        /* \"@openzeppelin/contracts/access/AccessControl.sol\":6449:6454  false */\n      0x00\n        /* \"@openzeppelin/contracts/access/AccessControl.sol\":6442:6454  return false */\n      swap1\n      pop\n        /* \"@openzeppelin/contracts/access/AccessControl.sol\":6155:6471  function _grantRole(bytes32 role, address account) internal virtual returns (bool) {... */\n    tag_589:\n      swap3\n      swap2\n      pop\n      pop\n      jump\t// out\n        /* \"@openzeppelin/contracts/utils/Context.sol\":656:752  function _msgSender() internal view virtual returns (address) {... */\n    tag_341:\n        /* \"@openzeppelin/contracts/utils/Context.sol\":709:716  address */\n      0x00\n        /* \"@openzeppelin/contracts/utils/Context.sol\":735:745  msg.sender */\n      caller\n        /* \"@openzeppelin/contracts/utils/Context.sol\":728:745  return msg.sender */\n      swap1\n      pop\n        /* \"@openzeppelin/contracts/utils/Context.sol\":656:752  function _msgSender() internal view virtual returns (address) {... */\n      swap1\n      jump\t// out\n        /* \"@openzeppelin/contracts/access/AccessControl.sol\":6708:7025  function _revokeRole(bytes32 role, address account) internal virtual returns (bool) {... */\n    tag_344:\n        /* \"@openzeppelin/contracts/access/AccessControl.sol\":6786:6790  bool */\n      0x00\n        /* \"@openzeppelin/contracts/access/AccessControl.sol\":6806:6828  hasRole(role, account) */\n      tag_596\n        /* \"@openzeppelin/contracts/access/AccessControl.sol\":6814:6818  role */\n      dup4\n        /* \"@openzeppelin/contracts/access/AccessControl.sol\":6820:6827  account */\n      dup4\n        /* \"@openzeppelin/contracts/access/AccessControl.sol\":6806:6813  hasRole */\n      tag_113\n        /* \"@openzeppelin/contracts/access/AccessControl.sol\":6806:6828  hasRole(role, account) */\n      jump\t// in\n    tag_596:\n        /* \"@openzeppelin/contracts/access/AccessControl.sol\":6802:7019  if (hasRole(role, account)) {... */\n      iszero\n      tag_597\n      jumpi\n        /* \"@openzeppelin/contracts/access/AccessControl.sol\":6876:6881  false */\n      0x00\n        /* \"@openzeppelin/contracts/access/AccessControl.sol\":6844:6850  _roles */\n      0x00\n        /* \"@openzeppelin/contracts/access/AccessControl.sol\":6844:6856  _roles[role] */\n      0x00\n        /* \"@openzeppelin/contracts/access/AccessControl.sol\":6851:6855  role */\n      dup6\n        /* \"@openzeppelin/contracts/access/AccessControl.sol\":6844:6856  _roles[role] */\n      dup2\n      mstore\n      0x20\n      add\n      swap1\n      dup2\n      mstore\n      0x20\n      add\n      0x00\n      keccak256\n        /* \"@openzeppelin/contracts/access/AccessControl.sol\":6844:6864  _roles[role].hasRole */\n      0x00\n      add\n        /* \"@openzeppelin/contracts/access/AccessControl.sol\":6844:6873  _roles[role].hasRole[account] */\n      0x00\n        /* \"@openzeppelin/contracts/access/AccessControl.sol\":6865:6872  account */\n      dup5\n        /* \"@openzeppelin/contracts/access/AccessControl.sol\":6844:6873  _roles[role].hasRole[account] */\n      0xffffffffffffffffffffffffffffffffffffffff\n      and\n      0xffffffffffffffffffffffffffffffffffffffff\n      and\n      dup2\n      mstore\n      0x20\n      add\n      swap1\n      dup2\n      mstore\n      0x20\n      add\n      0x00\n      keccak256\n      0x00\n        /* \"@openzeppelin/contracts/access/AccessControl.sol\":6844:6881  _roles[role].hasRole[account] = false */\n      0x0100\n      exp\n      dup2\n      sload\n      dup2\n      0xff\n      mul\n      not\n      and\n      swap1\n      dup4\n      iszero\n      iszero\n      mul\n      or\n      swap1\n      sstore\n      pop\n        /* \"@openzeppelin/contracts/access/AccessControl.sol\":6927:6939  _msgSender() */\n      tag_598\n        /* \"@openzeppelin/contracts/access/AccessControl.sol\":6927:6937  _msgSender */\n      tag_341\n        /* \"@openzeppelin/contracts/access/AccessControl.sol\":6927:6939  _msgSender() */\n      jump\t// in\n    tag_598:\n        /* \"@openzeppelin/contracts/access/AccessControl.sol\":6900:6940  RoleRevoked(role, account, _msgSender()) */\n      0xffffffffffffffffffffffffffffffffffffffff\n      and\n        /* \"@openzeppelin/contracts/access/AccessControl.sol\":6918:6925  account */\n      dup3\n        /* \"@openzeppelin/contracts/access/AccessControl.sol\":6900:6940  RoleRevoked(role, account, _msgSender()) */\n      0xffffffffffffffffffffffffffffffffffffffff\n      and\n        /* \"@openzeppelin/contracts/access/AccessControl.sol\":6912:6916  role */\n      dup5\n        /* \"@openzeppelin/contracts/access/AccessControl.sol\":6900:6940  RoleRevoked(role, account, _msgSender()) */\n      0xf6391f5c32d9c69d2a47ea670b442974b53935d1edc7fd64eb21e047a839171b\n      mload(0x40)\n      mload(0x40)\n      dup1\n      swap2\n      sub\n      swap1\n      log4\n        /* \"@openzeppelin/contracts/access/AccessControl.sol\":6961:6965  true */\n      0x01\n        /* \"@openzeppelin/contracts/access/AccessControl.sol\":6954:6965  return true */\n      swap1\n      pop\n      jump(tag_595)\n        /* \"@openzeppelin/contracts/access/AccessControl.sol\":6802:7019  if (hasRole(role, account)) {... */\n    tag_597:\n        /* \"@openzeppelin/contracts/access/AccessControl.sol\":7003:7008  false */\n      0x00\n        /* \"@openzeppelin/contracts/access/AccessControl.sol\":6996:7008  return false */\n      swap1\n      pop\n        /* \"@openzeppelin/contracts/access/AccessControl.sol\":6708:7025  function _revokeRole(bytes32 role, address account) internal virtual returns (bool) {... */\n    tag_595:\n      swap3\n      swap2\n      pop\n      pop\n      jump\t// out\n        /* \"@openzeppelin/contracts/access/AccessControl.sol\":3408:3605  function _checkRole(bytes32 role, address account) internal view virtual {... */\n    tag_588:\n        /* \"@openzeppelin/contracts/access/AccessControl.sol\":3496:3518  hasRole(role, account) */\n      tag_601\n        /* \"@openzeppelin/contracts/access/AccessControl.sol\":3504:3508  role */\n      dup3\n        /* \"@openzeppelin/contracts/access/AccessControl.sol\":3510:3517  account */\n      dup3\n        /* \"@openzeppelin/contracts/access/AccessControl.sol\":3496:3503  hasRole */\n      tag_113\n        /* \"@openzeppelin/contracts/access/AccessControl.sol\":3496:3518  hasRole(role, account) */\n      jump\t// in\n    tag_601:\n        /* \"@openzeppelin/contracts/access/AccessControl.sol\":3491:3599  if (!hasRole(role, account)) {... */\n      tag_602\n      jumpi\n        /* \"@openzeppelin/contracts/access/AccessControl.sol\":3574:3581  account */\n      dup1\n        /* \"@openzeppelin/contracts/access/AccessControl.sol\":3583:3587  role */\n      dup3\n        /* \"@openzeppelin/contracts/access/AccessControl.sol\":3541:3588  AccessControlUnauthorizedAccount(account, role) */\n      mload(0x40)\n      0xe2517d3f00000000000000000000000000000000000000000000000000000000\n      dup2\n      mstore\n      0x04\n      add\n      tag_603\n      swap3\n      swap2\n      swap1\n      tag_604\n      jump\t// in\n    tag_603:\n      mload(0x40)\n      dup1\n      swap2\n      sub\n      swap1\n      revert\n        /* \"@openzeppelin/contracts/access/AccessControl.sol\":3491:3599  if (!hasRole(role, account)) {... */\n    tag_602:\n        /* \"@openzeppelin/contracts/access/AccessControl.sol\":3408:3605  function _checkRole(bytes32 role, address account) internal view virtual {... */\n      pop\n      pop\n      jump\t// out\n    tag_206:\n      mload(0x40)\n      dup1\n      0xc0\n      add\n      0x40\n      mstore\n      dup1\n      and(0xffffffffffffffffffffffffffffffffffffffff, 0x00)\n      dup2\n      mstore\n      0x20\n      add\n      0x60\n      dup2\n      mstore\n      0x20\n      add\n      0x60\n      dup2\n      mstore\n      0x20\n      add\n      0x00\n      dup2\n      mstore\n      0x20\n      add\n      0x00\n      dup2\n      mstore\n      0x20\n      add\n      0x00\n      dup2\n      mstore\n      pop\n      swap1\n      jump\t// out\n        /* \"#utility.yul\":7:82   */\n    tag_605:\n        /* \"#utility.yul\":40:46   */\n      0x00\n        /* \"#utility.yul\":73:75   */\n      0x40\n        /* \"#utility.yul\":67:76   */\n      mload\n        /* \"#utility.yul\":57:76   */\n      swap1\n      pop\n        /* \"#utility.yul\":7:82   */\n      swap1\n      jump\t// out\n        /* \"#utility.yul\":88:205   */\n    tag_606:\n        /* \"#utility.yul\":197:198   */\n      0x00\n        /* \"#utility.yul\":194:195   */\n      0x00\n        /* \"#utility.yul\":187:199   */\n      revert\n        /* \"#utility.yul\":211:328   */\n    tag_607:\n        /* \"#utility.yul\":320:321   */\n      0x00\n        /* \"#utility.yul\":317:318   */\n      0x00\n        /* \"#utility.yul\":310:322   */\n      revert\n        /* \"#utility.yul\":334:483   */\n    tag_608:\n        /* \"#utility.yul\":370:377   */\n      0x00\n        /* \"#utility.yul\":410:476   */\n      0xffffffff00000000000000000000000000000000000000000000000000000000\n        /* \"#utility.yul\":403:408   */\n      dup3\n        /* \"#utility.yul\":399:477   */\n      and\n        /* \"#utility.yul\":388:477   */\n      swap1\n      pop\n        /* \"#utility.yul\":334:483   */\n      swap2\n      swap1\n      pop\n      jump\t// out\n        /* \"#utility.yul\":489:609   */\n    tag_609:\n        /* \"#utility.yul\":561:584   */\n      tag_708\n        /* \"#utility.yul\":578:583   */\n      dup2\n        /* \"#utility.yul\":561:584   */\n      tag_608\n      jump\t// in\n    tag_708:\n        /* \"#utility.yul\":554:559   */\n      dup2\n        /* \"#utility.yul\":551:585   */\n      eq\n        /* \"#utility.yul\":541:603   */\n      tag_709\n      jumpi\n        /* \"#utility.yul\":599:600   */\n      0x00\n        /* \"#utility.yul\":596:597   */\n      0x00\n        /* \"#utility.yul\":589:601   */\n      revert\n        /* \"#utility.yul\":541:603   */\n    tag_709:\n        /* \"#utility.yul\":489:609   */\n      pop\n      jump\t// out\n        /* \"#utility.yul\":615:752   */\n    tag_610:\n        /* \"#utility.yul\":660:665   */\n      0x00\n        /* \"#utility.yul\":698:704   */\n      dup2\n        /* \"#utility.yul\":685:705   */\n      calldataload\n        /* \"#utility.yul\":676:705   */\n      swap1\n      pop\n        /* \"#utility.yul\":714:746   */\n      tag_711\n        /* \"#utility.yul\":740:745   */\n      dup2\n        /* \"#utility.yul\":714:746   */\n      tag_609\n      jump\t// in\n    tag_711:\n        /* \"#utility.yul\":615:752   */\n      swap3\n      swap2\n      pop\n      pop\n      jump\t// out\n        /* \"#utility.yul\":758:1085   */\n    tag_41:\n        /* \"#utility.yul\":816:822   */\n      0x00\n        /* \"#utility.yul\":865:867   */\n      0x20\n        /* \"#utility.yul\":853:862   */\n      dup3\n        /* \"#utility.yul\":844:851   */\n      dup5\n        /* \"#utility.yul\":840:863   */\n      sub\n        /* \"#utility.yul\":836:868   */\n      slt\n        /* \"#utility.yul\":833:952   */\n      iszero\n      tag_713\n      jumpi\n        /* \"#utility.yul\":871:950   */\n      tag_714\n      tag_606\n      jump\t// in\n    tag_714:\n        /* \"#utility.yul\":833:952   */\n    tag_713:\n        /* \"#utility.yul\":991:992   */\n      0x00\n        /* \"#utility.yul\":1016:1068   */\n      tag_715\n        /* \"#utility.yul\":1060:1067   */\n      dup5\n        /* \"#utility.yul\":1051:1057   */\n      dup3\n        /* \"#utility.yul\":1040:1049   */\n      dup6\n        /* \"#utility.yul\":1036:1058   */\n      add\n        /* \"#utility.yul\":1016:1068   */\n      tag_610\n      jump\t// in\n    tag_715:\n        /* \"#utility.yul\":1006:1068   */\n      swap2\n      pop\n        /* \"#utility.yul\":962:1078   */\n      pop\n        /* \"#utility.yul\":758:1085   */\n      swap3\n      swap2\n      pop\n      pop\n      jump\t// out\n        /* \"#utility.yul\":1091:1181   */\n    tag_611:\n        /* \"#utility.yul\":1125:1132   */\n      0x00\n        /* \"#utility.yul\":1168:1173   */\n      dup2\n        /* \"#utility.yul\":1161:1174   */\n      iszero\n        /* \"#utility.yul\":1154:1175   */\n      iszero\n        /* \"#utility.yul\":1143:1175   */\n      swap1\n      pop\n        /* \"#utility.yul\":1091:1181   */\n      swap2\n      swap1\n      pop\n      jump\t// out\n        /* \"#utility.yul\":1187:1296   */\n    tag_612:\n        /* \"#utility.yul\":1268:1289   */\n      tag_718\n        /* \"#utility.yul\":1283:1288   */\n      dup2\n        /* \"#utility.yul\":1268:1289   */\n      tag_611\n      jump\t// in\n    tag_718:\n        /* \"#utility.yul\":1263:1266   */\n      dup3\n        /* \"#utility.yul\":1256:1290   */\n      mstore\n        /* \"#utility.yul\":1187:1296   */\n      pop\n      pop\n      jump\t// out\n        /* \"#utility.yul\":1302:1512   */\n    tag_44:\n        /* \"#utility.yul\":1389:1393   */\n      0x00\n        /* \"#utility.yul\":1427:1429   */\n      0x20\n        /* \"#utility.yul\":1416:1425   */\n      dup3\n        /* \"#utility.yul\":1412:1430   */\n      add\n        /* \"#utility.yul\":1404:1430   */\n      swap1\n      pop\n        /* \"#utility.yul\":1440:1505   */\n      tag_720\n        /* \"#utility.yul\":1502:1503   */\n      0x00\n        /* \"#utility.yul\":1491:1500   */\n      dup4\n        /* \"#utility.yul\":1487:1504   */\n      add\n        /* \"#utility.yul\":1478:1484   */\n      dup5\n        /* \"#utility.yul\":1440:1505   */\n      tag_612\n      jump\t// in\n    tag_720:\n        /* \"#utility.yul\":1302:1512   */\n      swap3\n      swap2\n      pop\n      pop\n      jump\t// out\n        /* \"#utility.yul\":1518:1644   */\n    tag_613:\n        /* \"#utility.yul\":1555:1562   */\n      0x00\n        /* \"#utility.yul\":1595:1637   */\n      0xffffffffffffffffffffffffffffffffffffffff\n        /* \"#utility.yul\":1588:1593   */\n      dup3\n        /* \"#utility.yul\":1584:1638   */\n      and\n        /* \"#utility.yul\":1573:1638   */\n      swap1\n      pop\n        /* \"#utility.yul\":1518:1644   */\n      swap2\n      swap1\n      pop\n      jump\t// out\n        /* \"#utility.yul\":1650:1746   */\n    tag_614:\n        /* \"#utility.yul\":1687:1694   */\n      0x00\n        /* \"#utility.yul\":1716:1740   */\n      tag_723\n        /* \"#utility.yul\":1734:1739   */\n      dup3\n        /* \"#utility.yul\":1716:1740   */\n      tag_613\n      jump\t// in\n    tag_723:\n        /* \"#utility.yul\":1705:1740   */\n      swap1\n      pop\n        /* \"#utility.yul\":1650:1746   */\n      swap2\n      swap1\n      pop\n      jump\t// out\n        /* \"#utility.yul\":1752:1874   */\n    tag_615:\n        /* \"#utility.yul\":1825:1849   */\n      tag_725\n        /* \"#utility.yul\":1843:1848   */\n      dup2\n        /* \"#utility.yul\":1825:1849   */\n      tag_614\n      jump\t// in\n    tag_725:\n        /* \"#utility.yul\":1818:1823   */\n      dup2\n        /* \"#utility.yul\":1815:1850   */\n      eq\n        /* \"#utility.yul\":1805:1868   */\n      tag_726\n      jumpi\n        /* \"#utility.yul\":1864:1865   */\n      0x00\n        /* \"#utility.yul\":1861:1862   */\n      0x00\n        /* \"#utility.yul\":1854:1866   */\n      revert\n        /* \"#utility.yul\":1805:1868   */\n    tag_726:\n        /* \"#utility.yul\":1752:1874   */\n      pop\n      jump\t// out\n        /* \"#utility.yul\":1880:2019   */\n    tag_616:\n        /* \"#utility.yul\":1926:1931   */\n      0x00\n        /* \"#utility.yul\":1964:1970   */\n      dup2\n        /* \"#utility.yul\":1951:1971   */\n      calldataload\n        /* \"#utility.yul\":1942:1971   */\n      swap1\n      pop\n        /* \"#utility.yul\":1980:2013   */\n      tag_728\n        /* \"#utility.yul\":2007:2012   */\n      dup2\n        /* \"#utility.yul\":1980:2013   */\n      tag_615\n      jump\t// in\n    tag_728:\n        /* \"#utility.yul\":1880:2019   */\n      swap3\n      swap2\n      pop\n      pop\n      jump\t// out\n        /* \"#utility.yul\":2025:2142   */\n    tag_617:\n        /* \"#utility.yul\":2134:2135   */\n      0x00\n        /* \"#utility.yul\":2131:2132   */\n      0x00\n        /* \"#utility.yul\":2124:2136   */\n      revert\n        /* \"#utility.yul\":2148:2265   */\n    tag_618:\n        /* \"#utility.yul\":2257:2258   */\n      0x00\n        /* \"#utility.yul\":2254:2255   */\n      0x00\n        /* \"#utility.yul\":2247:2259   */\n      revert\n        /* \"#utility.yul\":2271:2373   */\n    tag_619:\n        /* \"#utility.yul\":2312:2318   */\n      0x00\n        /* \"#utility.yul\":2363:2365   */\n      0x1f\n        /* \"#utility.yul\":2359:2366   */\n      not\n        /* \"#utility.yul\":2354:2356   */\n      0x1f\n        /* \"#utility.yul\":2347:2352   */\n      dup4\n        /* \"#utility.yul\":2343:2357   */\n      add\n        /* \"#utility.yul\":2339:2367   */\n      and\n        /* \"#utility.yul\":2329:2367   */\n      swap1\n      pop\n        /* \"#utility.yul\":2271:2373   */\n      swap2\n      swap1\n      pop\n      jump\t// out\n        /* \"#utility.yul\":2379:2559   */\n    tag_202:\n        /* \"#utility.yul\":2427:2504   */\n      0x4e487b7100000000000000000000000000000000000000000000000000000000\n        /* \"#utility.yul\":2424:2425   */\n      0x00\n        /* \"#utility.yul\":2417:2505   */\n      mstore\n        /* \"#utility.yul\":2524:2528   */\n      0x41\n        /* \"#utility.yul\":2521:2522   */\n      0x04\n        /* \"#utility.yul\":2514:2529   */\n      mstore\n        /* \"#utility.yul\":2548:2552   */\n      0x24\n        /* \"#utility.yul\":2545:2546   */\n      0x00\n        /* \"#utility.yul\":2538:2553   */\n      revert\n        /* \"#utility.yul\":2565:2846   */\n    tag_620:\n        /* \"#utility.yul\":2648:2675   */\n      tag_734\n        /* \"#utility.yul\":2670:2674   */\n      dup3\n        /* \"#utility.yul\":2648:2675   */\n      tag_619\n      jump\t// in\n    tag_734:\n        /* \"#utility.yul\":2640:2646   */\n      dup2\n        /* \"#utility.yul\":2636:2676   */\n      add\n        /* \"#utility.yul\":2778:2784   */\n      dup2\n        /* \"#utility.yul\":2766:2776   */\n      dup2\n        /* \"#utility.yul\":2763:2785   */\n      lt\n        /* \"#utility.yul\":2742:2760   */\n      0xffffffffffffffff\n        /* \"#utility.yul\":2730:2740   */\n      dup3\n        /* \"#utility.yul\":2727:2761   */\n      gt\n        /* \"#utility.yul\":2724:2786   */\n      or\n        /* \"#utility.yul\":2721:2809   */\n      iszero\n      tag_735\n      jumpi\n        /* \"#utility.yul\":2789:2807   */\n      tag_736\n      tag_202\n      jump\t// in\n    tag_736:\n        /* \"#utility.yul\":2721:2809   */\n    tag_735:\n        /* \"#utility.yul\":2829:2839   */\n      dup1\n        /* \"#utility.yul\":2825:2827   */\n      0x40\n        /* \"#utility.yul\":2818:2840   */\n      mstore\n        /* \"#utility.yul\":2608:2846   */\n      pop\n        /* \"#utility.yul\":2565:2846   */\n      pop\n      pop\n      jump\t// out\n        /* \"#utility.yul\":2852:2981   */\n    tag_621:\n        /* \"#utility.yul\":2886:2892   */\n      0x00\n        /* \"#utility.yul\":2913:2933   */\n      tag_738\n      tag_605\n      jump\t// in\n    tag_738:\n        /* \"#utility.yul\":2903:2933   */\n      swap1\n      pop\n        /* \"#utility.yul\":2942:2975   */\n      tag_739\n        /* \"#utility.yul\":2970:2974   */\n      dup3\n        /* \"#utility.yul\":2962:2968   */\n      dup3\n        /* \"#utility.yul\":2942:2975   */\n      tag_620\n      jump\t// in\n    tag_739:\n        /* \"#utility.yul\":2852:2981   */\n      swap2\n      swap1\n      pop\n      jump\t// out\n        /* \"#utility.yul\":2987:3295   */\n    tag_622:\n        /* \"#utility.yul\":3049:3053   */\n      0x00\n        /* \"#utility.yul\":3139:3157   */\n      0xffffffffffffffff\n        /* \"#utility.yul\":3131:3137   */\n      dup3\n        /* \"#utility.yul\":3128:3158   */\n      gt\n        /* \"#utility.yul\":3125:3181   */\n      iszero\n      tag_741\n      jumpi\n        /* \"#utility.yul\":3161:3179   */\n      tag_742\n      tag_202\n      jump\t// in\n    tag_742:\n        /* \"#utility.yul\":3125:3181   */\n    tag_741:\n        /* \"#utility.yul\":3199:3228   */\n      tag_743\n        /* \"#utility.yul\":3221:3227   */\n      dup3\n        /* \"#utility.yul\":3199:3228   */\n      tag_619\n      jump\t// in\n    tag_743:\n        /* \"#utility.yul\":3191:3228   */\n      swap1\n      pop\n        /* \"#utility.yul\":3283:3287   */\n      0x20\n        /* \"#utility.yul\":3277:3281   */\n      dup2\n        /* \"#utility.yul\":3273:3288   */\n      add\n        /* \"#utility.yul\":3265:3288   */\n      swap1\n      pop\n        /* \"#utility.yul\":2987:3295   */\n      swap2\n      swap1\n      pop\n      jump\t// out\n        /* \"#utility.yul\":3301:3449   */\n    tag_623:\n        /* \"#utility.yul\":3399:3405   */\n      dup3\n        /* \"#utility.yul\":3394:3397   */\n      dup2\n        /* \"#utility.yul\":3389:3392   */\n      dup4\n        /* \"#utility.yul\":3376:3406   */\n      calldatacopy\n        /* \"#utility.yul\":3440:3441   */\n      0x00\n        /* \"#utility.yul\":3431:3437   */\n      dup4\n        /* \"#utility.yul\":3426:3429   */\n      dup4\n        /* \"#utility.yul\":3422:3438   */\n      add\n        /* \"#utility.yul\":3415:3442   */\n      mstore\n        /* \"#utility.yul\":3301:3449   */\n      pop\n      pop\n      pop\n      jump\t// out\n        /* \"#utility.yul\":3455:3880   */\n    tag_624:\n        /* \"#utility.yul\":3533:3538   */\n      0x00\n        /* \"#utility.yul\":3558:3624   */\n      tag_746\n        /* \"#utility.yul\":3574:3623   */\n      tag_747\n        /* \"#utility.yul\":3616:3622   */\n      dup5\n        /* \"#utility.yul\":3574:3623   */\n      tag_622\n      jump\t// in\n    tag_747:\n        /* \"#utility.yul\":3558:3624   */\n      tag_621\n      jump\t// in\n    tag_746:\n        /* \"#utility.yul\":3549:3624   */\n      swap1\n      pop\n        /* \"#utility.yul\":3647:3653   */\n      dup3\n        /* \"#utility.yul\":3640:3645   */\n      dup2\n        /* \"#utility.yul\":3633:3654   */\n      mstore\n        /* \"#utility.yul\":3685:3689   */\n      0x20\n        /* \"#utility.yul\":3678:3683   */\n      dup2\n        /* \"#utility.yul\":3674:3690   */\n      add\n        /* \"#utility.yul\":3723:3726   */\n      dup5\n        /* \"#utility.yul\":3714:3720   */\n      dup5\n        /* \"#utility.yul\":3709:3712   */\n      dup5\n        /* \"#utility.yul\":3705:3721   */\n      add\n        /* \"#utility.yul\":3702:3727   */\n      gt\n        /* \"#utility.yul\":3699:3811   */\n      iszero\n      tag_748\n      jumpi\n        /* \"#utility.yul\":3730:3809   */\n      tag_749\n      tag_618\n      jump\t// in\n    tag_749:\n        /* \"#utility.yul\":3699:3811   */\n    tag_748:\n        /* \"#utility.yul\":3820:3874   */\n      tag_750\n        /* \"#utility.yul\":3867:3873   */\n      dup5\n        /* \"#utility.yul\":3862:3865   */\n      dup3\n        /* \"#utility.yul\":3857:3860   */\n      dup6\n        /* \"#utility.yul\":3820:3874   */\n      tag_623\n      jump\t// in\n    tag_750:\n        /* \"#utility.yul\":3539:3880   */\n      pop\n        /* \"#utility.yul\":3455:3880   */\n      swap4\n      swap3\n      pop\n      pop\n      pop\n      jump\t// out\n        /* \"#utility.yul\":3900:4240   */\n    tag_625:\n        /* \"#utility.yul\":3956:3961   */\n      0x00\n        /* \"#utility.yul\":4005:4008   */\n      dup3\n        /* \"#utility.yul\":3998:4002   */\n      0x1f\n        /* \"#utility.yul\":3990:3996   */\n      dup4\n        /* \"#utility.yul\":3986:4003   */\n      add\n        /* \"#utility.yul\":3982:4009   */\n      slt\n        /* \"#utility.yul\":3972:4094   */\n      tag_752\n      jumpi\n        /* \"#utility.yul\":4013:4092   */\n      tag_753\n      tag_617\n      jump\t// in\n    tag_753:\n        /* \"#utility.yul\":3972:4094   */\n    tag_752:\n        /* \"#utility.yul\":4130:4136   */\n      dup2\n        /* \"#utility.yul\":4117:4137   */\n      calldataload\n        /* \"#utility.yul\":4155:4234   */\n      tag_754\n        /* \"#utility.yul\":4230:4233   */\n      dup5\n        /* \"#utility.yul\":4222:4228   */\n      dup3\n        /* \"#utility.yul\":4215:4219   */\n      0x20\n        /* \"#utility.yul\":4207:4213   */\n      dup7\n        /* \"#utility.yul\":4203:4220   */\n      add\n        /* \"#utility.yul\":4155:4234   */\n      tag_624\n      jump\t// in\n    tag_754:\n        /* \"#utility.yul\":4146:4234   */\n      swap2\n      pop\n        /* \"#utility.yul\":3962:4240   */\n      pop\n        /* \"#utility.yul\":3900:4240   */\n      swap3\n      swap2\n      pop\n      pop\n      jump\t// out\n        /* \"#utility.yul\":4246:4323   */\n    tag_626:\n        /* \"#utility.yul\":4283:4290   */\n      0x00\n        /* \"#utility.yul\":4312:4317   */\n      dup2\n        /* \"#utility.yul\":4301:4317   */\n      swap1\n      pop\n        /* \"#utility.yul\":4246:4323   */\n      swap2\n      swap1\n      pop\n      jump\t// out\n        /* \"#utility.yul\":4329:4451   */\n    tag_627:\n        /* \"#utility.yul\":4402:4426   */\n      tag_757\n        /* \"#utility.yul\":4420:4425   */\n      dup2\n        /* \"#utility.yul\":4402:4426   */\n      tag_626\n      jump\t// in\n    tag_757:\n        /* \"#utility.yul\":4395:4400   */\n      dup2\n        /* \"#utility.yul\":4392:4427   */\n      eq\n        /* \"#utility.yul\":4382:4445   */\n      tag_758\n      jumpi\n        /* \"#utility.yul\":4441:4442   */\n      0x00\n        /* \"#utility.yul\":4438:4439   */\n      0x00\n        /* \"#utility.yul\":4431:4443   */\n      revert\n        /* \"#utility.yul\":4382:4445   */\n    tag_758:\n        /* \"#utility.yul\":4329:4451   */\n      pop\n      jump\t// out\n        /* \"#utility.yul\":4457:4596   */\n    tag_628:\n        /* \"#utility.yul\":4503:4508   */\n      0x00\n        /* \"#utility.yul\":4541:4547   */\n      dup2\n        /* \"#utility.yul\":4528:4548   */\n      calldataload\n        /* \"#utility.yul\":4519:4548   */\n      swap1\n      pop\n        /* \"#utility.yul\":4557:4590   */\n      tag_760\n        /* \"#utility.yul\":4584:4589   */\n      dup2\n        /* \"#utility.yul\":4557:4590   */\n      tag_627\n      jump\t// in\n    tag_760:\n        /* \"#utility.yul\":4457:4596   */\n      swap3\n      swap2\n      pop\n      pop\n      jump\t// out\n        /* \"#utility.yul\":4602:5547   */\n    tag_47:\n        /* \"#utility.yul\":4698:4704   */\n      0x00\n        /* \"#utility.yul\":4706:4712   */\n      0x00\n        /* \"#utility.yul\":4714:4720   */\n      0x00\n        /* \"#utility.yul\":4722:4728   */\n      0x00\n        /* \"#utility.yul\":4771:4774   */\n      0x80\n        /* \"#utility.yul\":4759:4768   */\n      dup6\n        /* \"#utility.yul\":4750:4757   */\n      dup8\n        /* \"#utility.yul\":4746:4769   */\n      sub\n        /* \"#utility.yul\":4742:4775   */\n      slt\n        /* \"#utility.yul\":4739:4859   */\n      iszero\n      tag_762\n      jumpi\n        /* \"#utility.yul\":4778:4857   */\n      tag_763\n      tag_606\n      jump\t// in\n    tag_763:\n        /* \"#utility.yul\":4739:4859   */\n    tag_762:\n        /* \"#utility.yul\":4898:4899   */\n      0x00\n        /* \"#utility.yul\":4923:4976   */\n      tag_764\n        /* \"#utility.yul\":4968:4975   */\n      dup8\n        /* \"#utility.yul\":4959:4965   */\n      dup3\n        /* \"#utility.yul\":4948:4957   */\n      dup9\n        /* \"#utility.yul\":4944:4966   */\n      add\n        /* \"#utility.yul\":4923:4976   */\n      tag_616\n      jump\t// in\n    tag_764:\n        /* \"#utility.yul\":4913:4976   */\n      swap5\n      pop\n        /* \"#utility.yul\":4869:4986   */\n      pop\n        /* \"#utility.yul\":5053:5055   */\n      0x20\n        /* \"#utility.yul\":5042:5051   */\n      dup6\n        /* \"#utility.yul\":5038:5056   */\n      add\n        /* \"#utility.yul\":5025:5057   */\n      calldataload\n        /* \"#utility.yul\":5084:5102   */\n      0xffffffffffffffff\n        /* \"#utility.yul\":5076:5082   */\n      dup2\n        /* \"#utility.yul\":5073:5103   */\n      gt\n        /* \"#utility.yul\":5070:5187   */\n      iszero\n      tag_765\n      jumpi\n        /* \"#utility.yul\":5106:5185   */\n      tag_766\n      tag_607\n      jump\t// in\n    tag_766:\n        /* \"#utility.yul\":5070:5187   */\n    tag_765:\n        /* \"#utility.yul\":5211:5274   */\n      tag_767\n        /* \"#utility.yul\":5266:5273   */\n      dup8\n        /* \"#utility.yul\":5257:5263   */\n      dup3\n        /* \"#utility.yul\":5246:5255   */\n      dup9\n        /* \"#utility.yul\":5242:5264   */\n      add\n        /* \"#utility.yul\":5211:5274   */\n      tag_625\n      jump\t// in\n    tag_767:\n        /* \"#utility.yul\":5201:5274   */\n      swap4\n      pop\n        /* \"#utility.yul\":4996:5284   */\n      pop\n        /* \"#utility.yul\":5323:5325   */\n      0x40\n        /* \"#utility.yul\":5349:5402   */\n      tag_768\n        /* \"#utility.yul\":5394:5401   */\n      dup8\n        /* \"#utility.yul\":5385:5391   */\n      dup3\n        /* \"#utility.yul\":5374:5383   */\n      dup9\n        /* \"#utility.yul\":5370:5392   */\n      add\n        /* \"#utility.yul\":5349:5402   */\n      tag_628\n      jump\t// in\n    tag_768:\n        /* \"#utility.yul\":5339:5402   */\n      swap3\n      pop\n        /* \"#utility.yul\":5294:5412   */\n      pop\n        /* \"#utility.yul\":5451:5453   */\n      0x60\n        /* \"#utility.yul\":5477:5530   */\n      tag_769\n        /* \"#utility.yul\":5522:5529   */\n      dup8\n        /* \"#utility.yul\":5513:5519   */\n      dup3\n        /* \"#utility.yul\":5502:5511   */\n      dup9\n        /* \"#utility.yul\":5498:5520   */\n      add\n        /* \"#utility.yul\":5477:5530   */\n      tag_628\n      jump\t// in\n    tag_769:\n        /* \"#utility.yul\":5467:5530   */\n      swap2\n      pop\n        /* \"#utility.yul\":5422:5540   */\n      pop\n        /* \"#utility.yul\":4602:5547   */\n      swap3\n      swap6\n      swap2\n      swap5\n      pop\n      swap3\n      pop\n      jump\t// out\n        /* \"#utility.yul\":5553:5692   */\n    tag_629:\n        /* \"#utility.yul\":5645:5651   */\n      0x00\n        /* \"#utility.yul\":5679:5684   */\n      dup2\n        /* \"#utility.yul\":5673:5685   */\n      mload\n        /* \"#utility.yul\":5663:5685   */\n      swap1\n      pop\n        /* \"#utility.yul\":5553:5692   */\n      swap2\n      swap1\n      pop\n      jump\t// out\n        /* \"#utility.yul\":5698:5907   */\n    tag_630:\n        /* \"#utility.yul\":5822:5833   */\n      0x00\n        /* \"#utility.yul\":5856:5862   */\n      dup3\n        /* \"#utility.yul\":5851:5854   */\n      dup3\n        /* \"#utility.yul\":5844:5863   */\n      mstore\n        /* \"#utility.yul\":5896:5900   */\n      0x20\n        /* \"#utility.yul\":5891:5894   */\n      dup3\n        /* \"#utility.yul\":5887:5901   */\n      add\n        /* \"#utility.yul\":5872:5901   */\n      swap1\n      pop\n        /* \"#utility.yul\":5698:5907   */\n      swap3\n      swap2\n      pop\n      pop\n      jump\t// out\n        /* \"#utility.yul\":5913:6070   */\n    tag_631:\n        /* \"#utility.yul\":6005:6009   */\n      0x00\n        /* \"#utility.yul\":6028:6031   */\n      dup2\n        /* \"#utility.yul\":6020:6031   */\n      swap1\n      pop\n        /* \"#utility.yul\":6058:6062   */\n      0x20\n        /* \"#utility.yul\":6053:6056   */\n      dup3\n        /* \"#utility.yul\":6049:6063   */\n      add\n        /* \"#utility.yul\":6041:6063   */\n      swap1\n      pop\n        /* \"#utility.yul\":5913:6070   */\n      swap2\n      swap1\n      pop\n      jump\t// out\n        /* \"#utility.yul\":6076:6184   */\n    tag_632:\n        /* \"#utility.yul\":6153:6177   */\n      tag_774\n        /* \"#utility.yul\":6171:6176   */\n      dup2\n        /* \"#utility.yul\":6153:6177   */\n      tag_614\n      jump\t// in\n    tag_774:\n        /* \"#utility.yul\":6148:6151   */\n      dup3\n        /* \"#utility.yul\":6141:6178   */\n      mstore\n        /* \"#utility.yul\":6076:6184   */\n      pop\n      pop\n      jump\t// out\n        /* \"#utility.yul\":6190:6289   */\n    tag_633:\n        /* \"#utility.yul\":6242:6248   */\n      0x00\n        /* \"#utility.yul\":6276:6281   */\n      dup2\n        /* \"#utility.yul\":6270:6282   */\n      mload\n        /* \"#utility.yul\":6260:6282   */\n      swap1\n      pop\n        /* \"#utility.yul\":6190:6289   */\n      swap2\n      swap1\n      pop\n      jump\t// out\n        /* \"#utility.yul\":6295:6454   */\n    tag_634:\n        /* \"#utility.yul\":6369:6380   */\n      0x00\n        /* \"#utility.yul\":6403:6409   */\n      dup3\n        /* \"#utility.yul\":6398:6401   */\n      dup3\n        /* \"#utility.yul\":6391:6410   */\n      mstore\n        /* \"#utility.yul\":6443:6447   */\n      0x20\n        /* \"#utility.yul\":6438:6441   */\n      dup3\n        /* \"#utility.yul\":6434:6448   */\n      add\n        /* \"#utility.yul\":6419:6448   */\n      swap1\n      pop\n        /* \"#utility.yul\":6295:6454   */\n      swap3\n      swap2\n      pop\n      pop\n      jump\t// out\n        /* \"#utility.yul\":6460:6599   */\n    tag_635:\n        /* \"#utility.yul\":6549:6555   */\n      dup3\n        /* \"#utility.yul\":6544:6547   */\n      dup2\n        /* \"#utility.yul\":6539:6542   */\n      dup4\n        /* \"#utility.yul\":6533:6556   */\n      mcopy\n        /* \"#utility.yul\":6590:6591   */\n      0x00\n        /* \"#utility.yul\":6581:6587   */\n      dup4\n        /* \"#utility.yul\":6576:6579   */\n      dup4\n        /* \"#utility.yul\":6572:6588   */\n      add\n        /* \"#utility.yul\":6565:6592   */\n      mstore\n        /* \"#utility.yul\":6460:6599   */\n      pop\n      pop\n      pop\n      jump\t// out\n        /* \"#utility.yul\":6605:6962   */\n    tag_636:\n        /* \"#utility.yul\":6683:6686   */\n      0x00\n        /* \"#utility.yul\":6711:6750   */\n      tag_779\n        /* \"#utility.yul\":6744:6749   */\n      dup3\n        /* \"#utility.yul\":6711:6750   */\n      tag_633\n      jump\t// in\n    tag_779:\n        /* \"#utility.yul\":6766:6827   */\n      tag_780\n        /* \"#utility.yul\":6820:6826   */\n      dup2\n        /* \"#utility.yul\":6815:6818   */\n      dup6\n        /* \"#utility.yul\":6766:6827   */\n      tag_634\n      jump\t// in\n    tag_780:\n        /* \"#utility.yul\":6759:6827   */\n      swap4\n      pop\n        /* \"#utility.yul\":6836:6901   */\n      tag_781\n        /* \"#utility.yul\":6894:6900   */\n      dup2\n        /* \"#utility.yul\":6889:6892   */\n      dup6\n        /* \"#utility.yul\":6882:6886   */\n      0x20\n        /* \"#utility.yul\":6875:6880   */\n      dup7\n        /* \"#utility.yul\":6871:6887   */\n      add\n        /* \"#utility.yul\":6836:6901   */\n      tag_635\n      jump\t// in\n    tag_781:\n        /* \"#utility.yul\":6926:6955   */\n      tag_782\n        /* \"#utility.yul\":6948:6954   */\n      dup2\n        /* \"#utility.yul\":6926:6955   */\n      tag_619\n      jump\t// in\n    tag_782:\n        /* \"#utility.yul\":6921:6924   */\n      dup5\n        /* \"#utility.yul\":6917:6956   */\n      add\n        /* \"#utility.yul\":6910:6956   */\n      swap2\n      pop\n        /* \"#utility.yul\":6687:6962   */\n      pop\n        /* \"#utility.yul\":6605:6962   */\n      swap3\n      swap2\n      pop\n      pop\n      jump\t// out\n        /* \"#utility.yul\":6968:7066   */\n    tag_637:\n        /* \"#utility.yul\":7019:7025   */\n      0x00\n        /* \"#utility.yul\":7053:7058   */\n      dup2\n        /* \"#utility.yul\":7047:7059   */\n      mload\n        /* \"#utility.yul\":7037:7059   */\n      swap1\n      pop\n        /* \"#utility.yul\":6968:7066   */\n      swap2\n      swap1\n      pop\n      jump\t// out\n        /* \"#utility.yul\":7072:7230   */\n    tag_638:\n        /* \"#utility.yul\":7145:7156   */\n      0x00\n        /* \"#utility.yul\":7179:7185   */\n      dup3\n        /* \"#utility.yul\":7174:7177   */\n      dup3\n        /* \"#utility.yul\":7167:7186   */\n      mstore\n        /* \"#utility.yul\":7219:7223   */\n      0x20\n        /* \"#utility.yul\":7214:7217   */\n      dup3\n        /* \"#utility.yul\":7210:7224   */\n      add\n        /* \"#utility.yul\":7195:7224   */\n      swap1\n      pop\n        /* \"#utility.yul\":7072:7230   */\n      swap3\n      swap2\n      pop\n      pop\n      jump\t// out\n        /* \"#utility.yul\":7236:7589   */\n    tag_639:\n        /* \"#utility.yul\":7312:7315   */\n      0x00\n        /* \"#utility.yul\":7340:7378   */\n      tag_786\n        /* \"#utility.yul\":7372:7377   */\n      dup3\n        /* \"#utility.yul\":7340:7378   */\n      tag_637\n      jump\t// in\n    tag_786:\n        /* \"#utility.yul\":7394:7454   */\n      tag_787\n        /* \"#utility.yul\":7447:7453   */\n      dup2\n        /* \"#utility.yul\":7442:7445   */\n      dup6\n        /* \"#utility.yul\":7394:7454   */\n      tag_638\n      jump\t// in\n    tag_787:\n        /* \"#utility.yul\":7387:7454   */\n      swap4\n      pop\n        /* \"#utility.yul\":7463:7528   */\n      tag_788\n        /* \"#utility.yul\":7521:7527   */\n      dup2\n        /* \"#utility.yul\":7516:7519   */\n      dup6\n        /* \"#utility.yul\":7509:7513   */\n      0x20\n        /* \"#utility.yul\":7502:7507   */\n      dup7\n        /* \"#utility.yul\":7498:7514   */\n      add\n        /* \"#utility.yul\":7463:7528   */\n      tag_635\n      jump\t// in\n    tag_788:\n        /* \"#utility.yul\":7553:7582   */\n      tag_789\n        /* \"#utility.yul\":7575:7581   */\n      dup2\n        /* \"#utility.yul\":7553:7582   */\n      tag_619\n      jump\t// in\n    tag_789:\n        /* \"#utility.yul\":7548:7551   */\n      dup5\n        /* \"#utility.yul\":7544:7583   */\n      add\n        /* \"#utility.yul\":7537:7583   */\n      swap2\n      pop\n        /* \"#utility.yul\":7316:7589   */\n      pop\n        /* \"#utility.yul\":7236:7589   */\n      swap3\n      swap2\n      pop\n      pop\n      jump\t// out\n        /* \"#utility.yul\":7595:7703   */\n    tag_640:\n        /* \"#utility.yul\":7672:7696   */\n      tag_791\n        /* \"#utility.yul\":7690:7695   */\n      dup2\n        /* \"#utility.yul\":7672:7696   */\n      tag_626\n      jump\t// in\n    tag_791:\n        /* \"#utility.yul\":7667:7670   */\n      dup3\n        /* \"#utility.yul\":7660:7697   */\n      mstore\n        /* \"#utility.yul\":7595:7703   */\n      pop\n      pop\n      jump\t// out\n        /* \"#utility.yul\":7709:7786   */\n    tag_641:\n        /* \"#utility.yul\":7746:7753   */\n      0x00\n        /* \"#utility.yul\":7775:7780   */\n      dup2\n        /* \"#utility.yul\":7764:7780   */\n      swap1\n      pop\n        /* \"#utility.yul\":7709:7786   */\n      swap2\n      swap1\n      pop\n      jump\t// out\n        /* \"#utility.yul\":7792:7900   */\n    tag_642:\n        /* \"#utility.yul\":7869:7893   */\n      tag_794\n        /* \"#utility.yul\":7887:7892   */\n      dup2\n        /* \"#utility.yul\":7869:7893   */\n      tag_641\n      jump\t// in\n    tag_794:\n        /* \"#utility.yul\":7864:7867   */\n      dup3\n        /* \"#utility.yul\":7857:7894   */\n      mstore\n        /* \"#utility.yul\":7792:7900   */\n      pop\n      pop\n      jump\t// out\n        /* \"#utility.yul\":7972:9359   */\n    tag_643:\n        /* \"#utility.yul\":8081:8084   */\n      0x00\n        /* \"#utility.yul\":8117:8121   */\n      0xc0\n        /* \"#utility.yul\":8112:8115   */\n      dup4\n        /* \"#utility.yul\":8108:8122   */\n      add\n        /* \"#utility.yul\":8205:8209   */\n      0x00\n        /* \"#utility.yul\":8198:8203   */\n      dup4\n        /* \"#utility.yul\":8194:8210   */\n      add\n        /* \"#utility.yul\":8188:8211   */\n      mload\n        /* \"#utility.yul\":8224:8287   */\n      tag_796\n        /* \"#utility.yul\":8281:8285   */\n      0x00\n        /* \"#utility.yul\":8276:8279   */\n      dup7\n        /* \"#utility.yul\":8272:8286   */\n      add\n        /* \"#utility.yul\":8258:8270   */\n      dup3\n        /* \"#utility.yul\":8224:8287   */\n      tag_632\n      jump\t// in\n    tag_796:\n        /* \"#utility.yul\":8132:8297   */\n      pop\n        /* \"#utility.yul\":8381:8385   */\n      0x20\n        /* \"#utility.yul\":8374:8379   */\n      dup4\n        /* \"#utility.yul\":8370:8386   */\n      add\n        /* \"#utility.yul\":8364:8387   */\n      mload\n        /* \"#utility.yul\":8434:8437   */\n      dup5\n        /* \"#utility.yul\":8428:8432   */\n      dup3\n        /* \"#utility.yul\":8424:8438   */\n      sub\n        /* \"#utility.yul\":8417:8421   */\n      0x20\n        /* \"#utility.yul\":8412:8415   */\n      dup7\n        /* \"#utility.yul\":8408:8422   */\n      add\n        /* \"#utility.yul\":8401:8439   */\n      mstore\n        /* \"#utility.yul\":8460:8533   */\n      tag_797\n        /* \"#utility.yul\":8528:8532   */\n      dup3\n        /* \"#utility.yul\":8514:8526   */\n      dup3\n        /* \"#utility.yul\":8460:8533   */\n      tag_636\n      jump\t// in\n    tag_797:\n        /* \"#utility.yul\":8452:8533   */\n      swap2\n      pop\n        /* \"#utility.yul\":8307:8544   */\n      pop\n        /* \"#utility.yul\":8626:8630   */\n      0x40\n        /* \"#utility.yul\":8619:8624   */\n      dup4\n        /* \"#utility.yul\":8615:8631   */\n      add\n        /* \"#utility.yul\":8609:8632   */\n      mload\n        /* \"#utility.yul\":8679:8682   */\n      dup5\n        /* \"#utility.yul\":8673:8677   */\n      dup3\n        /* \"#utility.yul\":8669:8683   */\n      sub\n        /* \"#utility.yul\":8662:8666   */\n      0x40\n        /* \"#utility.yul\":8657:8660   */\n      dup7\n        /* \"#utility.yul\":8653:8667   */\n      add\n        /* \"#utility.yul\":8646:8684   */\n      mstore\n        /* \"#utility.yul\":8705:8776   */\n      tag_798\n        /* \"#utility.yul\":8771:8775   */\n      dup3\n        /* \"#utility.yul\":8757:8769   */\n      dup3\n        /* \"#utility.yul\":8705:8776   */\n      tag_639\n      jump\t// in\n    tag_798:\n        /* \"#utility.yul\":8697:8776   */\n      swap2\n      pop\n        /* \"#utility.yul\":8554:8787   */\n      pop\n        /* \"#utility.yul\":8874:8878   */\n      0x60\n        /* \"#utility.yul\":8867:8872   */\n      dup4\n        /* \"#utility.yul\":8863:8879   */\n      add\n        /* \"#utility.yul\":8857:8880   */\n      mload\n        /* \"#utility.yul\":8893:8956   */\n      tag_799\n        /* \"#utility.yul\":8950:8954   */\n      0x60\n        /* \"#utility.yul\":8945:8948   */\n      dup7\n        /* \"#utility.yul\":8941:8955   */\n      add\n        /* \"#utility.yul\":8927:8939   */\n      dup3\n        /* \"#utility.yul\":8893:8956   */\n      tag_640\n      jump\t// in\n    tag_799:\n        /* \"#utility.yul\":8797:8966   */\n      pop\n        /* \"#utility.yul\":9055:9059   */\n      0x80\n        /* \"#utility.yul\":9048:9053   */\n      dup4\n        /* \"#utility.yul\":9044:9060   */\n      add\n        /* \"#utility.yul\":9038:9061   */\n      mload\n        /* \"#utility.yul\":9074:9137   */\n      tag_800\n        /* \"#utility.yul\":9131:9135   */\n      0x80\n        /* \"#utility.yul\":9126:9129   */\n      dup7\n        /* \"#utility.yul\":9122:9136   */\n      add\n        /* \"#utility.yul\":9108:9120   */\n      dup3\n        /* \"#utility.yul\":9074:9137   */\n      tag_640\n      jump\t// in\n    tag_800:\n        /* \"#utility.yul\":8976:9147   */\n      pop\n        /* \"#utility.yul\":9240:9244   */\n      0xa0\n        /* \"#utility.yul\":9233:9238   */\n      dup4\n        /* \"#utility.yul\":9229:9245   */\n      add\n        /* \"#utility.yul\":9223:9246   */\n      mload\n        /* \"#utility.yul\":9259:9322   */\n      tag_801\n        /* \"#utility.yul\":9316:9320   */\n      0xa0\n        /* \"#utility.yul\":9311:9314   */\n      dup7\n        /* \"#utility.yul\":9307:9321   */\n      add\n        /* \"#utility.yul\":9293:9305   */\n      dup3\n        /* \"#utility.yul\":9259:9322   */\n      tag_642\n      jump\t// in\n    tag_801:\n        /* \"#utility.yul\":9157:9332   */\n      pop\n        /* \"#utility.yul\":9349:9353   */\n      dup1\n        /* \"#utility.yul\":9342:9353   */\n      swap2\n      pop\n        /* \"#utility.yul\":8086:9359   */\n      pop\n        /* \"#utility.yul\":7972:9359   */\n      swap3\n      swap2\n      pop\n      pop\n      jump\t// out\n        /* \"#utility.yul\":9365:9621   */\n    tag_644:\n        /* \"#utility.yul\":9484:9494   */\n      0x00\n        /* \"#utility.yul\":9519:9615   */\n      tag_803\n        /* \"#utility.yul\":9611:9614   */\n      dup4\n        /* \"#utility.yul\":9603:9609   */\n      dup4\n        /* \"#utility.yul\":9519:9615   */\n      tag_643\n      jump\t// in\n    tag_803:\n        /* \"#utility.yul\":9505:9615   */\n      swap1\n      pop\n        /* \"#utility.yul\":9365:9621   */\n      swap3\n      swap2\n      pop\n      pop\n      jump\t// out\n        /* \"#utility.yul\":9627:9765   */\n    tag_645:\n        /* \"#utility.yul\":9722:9726   */\n      0x00\n        /* \"#utility.yul\":9754:9758   */\n      0x20\n        /* \"#utility.yul\":9749:9752   */\n      dup3\n        /* \"#utility.yul\":9745:9759   */\n      add\n        /* \"#utility.yul\":9737:9759   */\n      swap1\n      pop\n        /* \"#utility.yul\":9627:9765   */\n      swap2\n      swap1\n      pop\n      jump\t// out\n        /* \"#utility.yul\":9841:10952   */\n    tag_646:\n        /* \"#utility.yul\":10010:10013   */\n      0x00\n        /* \"#utility.yul\":10039:10118   */\n      tag_806\n        /* \"#utility.yul\":10112:10117   */\n      dup3\n        /* \"#utility.yul\":10039:10118   */\n      tag_629\n      jump\t// in\n    tag_806:\n        /* \"#utility.yul\":10134:10245   */\n      tag_807\n        /* \"#utility.yul\":10238:10244   */\n      dup2\n        /* \"#utility.yul\":10233:10236   */\n      dup6\n        /* \"#utility.yul\":10134:10245   */\n      tag_630\n      jump\t// in\n    tag_807:\n        /* \"#utility.yul\":10127:10245   */\n      swap4\n      pop\n        /* \"#utility.yul\":10271:10274   */\n      dup4\n        /* \"#utility.yul\":10316:10320   */\n      0x20\n        /* \"#utility.yul\":10308:10314   */\n      dup3\n        /* \"#utility.yul\":10304:10321   */\n      mul\n        /* \"#utility.yul\":10299:10302   */\n      dup6\n        /* \"#utility.yul\":10295:10322   */\n      add\n        /* \"#utility.yul\":10346:10427   */\n      tag_808\n        /* \"#utility.yul\":10421:10426   */\n      dup6\n        /* \"#utility.yul\":10346:10427   */\n      tag_631\n      jump\t// in\n    tag_808:\n        /* \"#utility.yul\":10450:10457   */\n      dup1\n        /* \"#utility.yul\":10481:10482   */\n      0x00\n        /* \"#utility.yul\":10466:10907   */\n    tag_809:\n        /* \"#utility.yul\":10491:10497   */\n      dup6\n        /* \"#utility.yul\":10488:10489   */\n      dup2\n        /* \"#utility.yul\":10485:10498   */\n      lt\n        /* \"#utility.yul\":10466:10907   */\n      iszero\n      tag_811\n      jumpi\n        /* \"#utility.yul\":10562:10571   */\n      dup5\n        /* \"#utility.yul\":10556:10560   */\n      dup5\n        /* \"#utility.yul\":10552:10572   */\n      sub\n        /* \"#utility.yul\":10547:10550   */\n      dup10\n        /* \"#utility.yul\":10540:10573   */\n      mstore\n        /* \"#utility.yul\":10613:10619   */\n      dup2\n        /* \"#utility.yul\":10607:10620   */\n      mload\n        /* \"#utility.yul\":10641:10755   */\n      tag_812\n        /* \"#utility.yul\":10750:10754   */\n      dup6\n        /* \"#utility.yul\":10735:10748   */\n      dup3\n        /* \"#utility.yul\":10641:10755   */\n      tag_644\n      jump\t// in\n    tag_812:\n        /* \"#utility.yul\":10633:10755   */\n      swap5\n      pop\n        /* \"#utility.yul\":10778:10863   */\n      tag_813\n        /* \"#utility.yul\":10856:10862   */\n      dup4\n        /* \"#utility.yul\":10778:10863   */\n      tag_645\n      jump\t// in\n    tag_813:\n        /* \"#utility.yul\":10768:10863   */\n      swap3\n      pop\n        /* \"#utility.yul\":10892:10896   */\n      0x20\n        /* \"#utility.yul\":10887:10890   */\n      dup11\n        /* \"#utility.yul\":10883:10897   */\n      add\n        /* \"#utility.yul\":10876:10897   */\n      swap10\n      pop\n        /* \"#utility.yul\":10526:10907   */\n      pop\n        /* \"#utility.yul\":10513:10514   */\n      0x01\n        /* \"#utility.yul\":10510:10511   */\n      dup2\n        /* \"#utility.yul\":10506:10515   */\n      add\n        /* \"#utility.yul\":10501:10515   */\n      swap1\n      pop\n        /* \"#utility.yul\":10466:10907   */\n      jump(tag_809)\n    tag_811:\n        /* \"#utility.yul\":10470:10484   */\n      pop\n        /* \"#utility.yul\":10923:10927   */\n      dup3\n        /* \"#utility.yul\":10916:10927   */\n      swap8\n      pop\n        /* \"#utility.yul\":10943:10946   */\n      dup8\n        /* \"#utility.yul\":10936:10946   */\n      swap6\n      pop\n        /* \"#utility.yul\":10015:10952   */\n      pop\n      pop\n      pop\n      pop\n      pop\n        /* \"#utility.yul\":9841:10952   */\n      swap3\n      swap2\n      pop\n      pop\n      jump\t// out\n        /* \"#utility.yul\":10958:11431   */\n    tag_50:\n        /* \"#utility.yul\":11151:11155   */\n      0x00\n        /* \"#utility.yul\":11189:11191   */\n      0x20\n        /* \"#utility.yul\":11178:11187   */\n      dup3\n        /* \"#utility.yul\":11174:11192   */\n      add\n        /* \"#utility.yul\":11166:11192   */\n      swap1\n      pop\n        /* \"#utility.yul\":11238:11247   */\n      dup2\n        /* \"#utility.yul\":11232:11236   */\n      dup2\n        /* \"#utility.yul\":11228:11248   */\n      sub\n        /* \"#utility.yul\":11224:11225   */\n      0x00\n        /* \"#utility.yul\":11213:11222   */\n      dup4\n        /* \"#utility.yul\":11209:11226   */\n      add\n        /* \"#utility.yul\":11202:11249   */\n      mstore\n        /* \"#utility.yul\":11266:11424   */\n      tag_815\n        /* \"#utility.yul\":11419:11423   */\n      dup2\n        /* \"#utility.yul\":11410:11416   */\n      dup5\n        /* \"#utility.yul\":11266:11424   */\n      tag_646\n      jump\t// in\n    tag_815:\n        /* \"#utility.yul\":11258:11424   */\n      swap1\n      pop\n        /* \"#utility.yul\":10958:11431   */\n      swap3\n      swap2\n      pop\n      pop\n      jump\t// out\n        /* \"#utility.yul\":11437:12091   */\n    tag_53:\n        /* \"#utility.yul\":11515:11521   */\n      0x00\n        /* \"#utility.yul\":11523:11529   */\n      0x00\n        /* \"#utility.yul\":11572:11574   */\n      0x40\n        /* \"#utility.yul\":11560:11569   */\n      dup4\n        /* \"#utility.yul\":11551:11558   */\n      dup6\n        /* \"#utility.yul\":11547:11570   */\n      sub\n        /* \"#utility.yul\":11543:11575   */\n      slt\n        /* \"#utility.yul\":11540:11659   */\n      iszero\n      tag_817\n      jumpi\n        /* \"#utility.yul\":11578:11657   */\n      tag_818\n      tag_606\n      jump\t// in\n    tag_818:\n        /* \"#utility.yul\":11540:11659   */\n    tag_817:\n        /* \"#utility.yul\":11726:11727   */\n      0x00\n        /* \"#utility.yul\":11715:11724   */\n      dup4\n        /* \"#utility.yul\":11711:11728   */\n      add\n        /* \"#utility.yul\":11698:11729   */\n      calldataload\n        /* \"#utility.yul\":11756:11774   */\n      0xffffffffffffffff\n        /* \"#utility.yul\":11748:11754   */\n      dup2\n        /* \"#utility.yul\":11745:11775   */\n      gt\n        /* \"#utility.yul\":11742:11859   */\n      iszero\n      tag_819\n      jumpi\n        /* \"#utility.yul\":11778:11857   */\n      tag_820\n      tag_607\n      jump\t// in\n    tag_820:\n        /* \"#utility.yul\":11742:11859   */\n    tag_819:\n        /* \"#utility.yul\":11883:11946   */\n      tag_821\n        /* \"#utility.yul\":11938:11945   */\n      dup6\n        /* \"#utility.yul\":11929:11935   */\n      dup3\n        /* \"#utility.yul\":11918:11927   */\n      dup7\n        /* \"#utility.yul\":11914:11936   */\n      add\n        /* \"#utility.yul\":11883:11946   */\n      tag_625\n      jump\t// in\n    tag_821:\n        /* \"#utility.yul\":11873:11946   */\n      swap3\n      pop\n        /* \"#utility.yul\":11669:11956   */\n      pop\n        /* \"#utility.yul\":11995:11997   */\n      0x20\n        /* \"#utility.yul\":12021:12074   */\n      tag_822\n        /* \"#utility.yul\":12066:12073   */\n      dup6\n        /* \"#utility.yul\":12057:12063   */\n      dup3\n        /* \"#utility.yul\":12046:12055   */\n      dup7\n        /* \"#utility.yul\":12042:12064   */\n      add\n        /* \"#utility.yul\":12021:12074   */\n      tag_628\n      jump\t// in\n    tag_822:\n        /* \"#utility.yul\":12011:12074   */\n      swap2\n      pop\n        /* \"#utility.yul\":11966:12084   */\n      pop\n        /* \"#utility.yul\":11437:12091   */\n      swap3\n      pop\n      swap3\n      swap1\n      pop\n      jump\t// out\n        /* \"#utility.yul\":12097:12215   */\n    tag_647:\n        /* \"#utility.yul\":12184:12208   */\n      tag_824\n        /* \"#utility.yul\":12202:12207   */\n      dup2\n        /* \"#utility.yul\":12184:12208   */\n      tag_626\n      jump\t// in\n    tag_824:\n        /* \"#utility.yul\":12179:12182   */\n      dup3\n        /* \"#utility.yul\":12172:12209   */\n      mstore\n        /* \"#utility.yul\":12097:12215   */\n      pop\n      pop\n      jump\t// out\n        /* \"#utility.yul\":12221:12443   */\n    tag_56:\n        /* \"#utility.yul\":12314:12318   */\n      0x00\n        /* \"#utility.yul\":12352:12354   */\n      0x20\n        /* \"#utility.yul\":12341:12350   */\n      dup3\n        /* \"#utility.yul\":12337:12355   */\n      add\n        /* \"#utility.yul\":12329:12355   */\n      swap1\n      pop\n        /* \"#utility.yul\":12365:12436   */\n      tag_826\n        /* \"#utility.yul\":12433:12434   */\n      0x00\n        /* \"#utility.yul\":12422:12431   */\n      dup4\n        /* \"#utility.yul\":12418:12435   */\n      add\n        /* \"#utility.yul\":12409:12415   */\n      dup5\n        /* \"#utility.yul\":12365:12436   */\n      tag_647\n      jump\t// in\n    tag_826:\n        /* \"#utility.yul\":12221:12443   */\n      swap3\n      swap2\n      pop\n      pop\n      jump\t// out\n        /* \"#utility.yul\":12449:12571   */\n    tag_648:\n        /* \"#utility.yul\":12522:12546   */\n      tag_828\n        /* \"#utility.yul\":12540:12545   */\n      dup2\n        /* \"#utility.yul\":12522:12546   */\n      tag_641\n      jump\t// in\n    tag_828:\n        /* \"#utility.yul\":12515:12520   */\n      dup2\n        /* \"#utility.yul\":12512:12547   */\n      eq\n        /* \"#utility.yul\":12502:12565   */\n      tag_829\n      jumpi\n        /* \"#utility.yul\":12561:12562   */\n      0x00\n        /* \"#utility.yul\":12558:12559   */\n      0x00\n        /* \"#utility.yul\":12551:12563   */\n      revert\n        /* \"#utility.yul\":12502:12565   */\n    tag_829:\n        /* \"#utility.yul\":12449:12571   */\n      pop\n      jump\t// out\n        /* \"#utility.yul\":12577:12716   */\n    tag_649:\n        /* \"#utility.yul\":12623:12628   */\n      0x00\n        /* \"#utility.yul\":12661:12667   */\n      dup2\n        /* \"#utility.yul\":12648:12668   */\n      calldataload\n        /* \"#utility.yul\":12639:12668   */\n      swap1\n      pop\n        /* \"#utility.yul\":12677:12710   */\n      tag_831\n        /* \"#utility.yul\":12704:12709   */\n      dup2\n        /* \"#utility.yul\":12677:12710   */\n      tag_648\n      jump\t// in\n    tag_831:\n        /* \"#utility.yul\":12577:12716   */\n      swap3\n      swap2\n      pop\n      pop\n      jump\t// out\n        /* \"#utility.yul\":12722:13051   */\n    tag_63:\n        /* \"#utility.yul\":12781:12787   */\n      0x00\n        /* \"#utility.yul\":12830:12832   */\n      0x20\n        /* \"#utility.yul\":12818:12827   */\n      dup3\n        /* \"#utility.yul\":12809:12816   */\n      dup5\n        /* \"#utility.yul\":12805:12828   */\n      sub\n        /* \"#utility.yul\":12801:12833   */\n      slt\n        /* \"#utility.yul\":12798:12917   */\n      iszero\n      tag_833\n      jumpi\n        /* \"#utility.yul\":12836:12915   */\n      tag_834\n      tag_606\n      jump\t// in\n    tag_834:\n        /* \"#utility.yul\":12798:12917   */\n    tag_833:\n        /* \"#utility.yul\":12956:12957   */\n      0x00\n        /* \"#utility.yul\":12981:13034   */\n      tag_835\n        /* \"#utility.yul\":13026:13033   */\n      dup5\n        /* \"#utility.yul\":13017:13023   */\n      dup3\n        /* \"#utility.yul\":13006:13015   */\n      dup6\n        /* \"#utility.yul\":13002:13024   */\n      add\n        /* \"#utility.yul\":12981:13034   */\n      tag_649\n      jump\t// in\n    tag_835:\n        /* \"#utility.yul\":12971:13034   */\n      swap2\n      pop\n        /* \"#utility.yul\":12927:13044   */\n      pop\n        /* \"#utility.yul\":12722:13051   */\n      swap3\n      swap2\n      pop\n      pop\n      jump\t// out\n        /* \"#utility.yul\":13057:13175   */\n    tag_650:\n        /* \"#utility.yul\":13144:13168   */\n      tag_837\n        /* \"#utility.yul\":13162:13167   */\n      dup2\n        /* \"#utility.yul\":13144:13168   */\n      tag_641\n      jump\t// in\n    tag_837:\n        /* \"#utility.yul\":13139:13142   */\n      dup3\n        /* \"#utility.yul\":13132:13169   */\n      mstore\n        /* \"#utility.yul\":13057:13175   */\n      pop\n      pop\n      jump\t// out\n        /* \"#utility.yul\":13181:13403   */\n    tag_66:\n        /* \"#utility.yul\":13274:13278   */\n      0x00\n        /* \"#utility.yul\":13312:13314   */\n      0x20\n        /* \"#utility.yul\":13301:13310   */\n      dup3\n        /* \"#utility.yul\":13297:13315   */\n      add\n        /* \"#utility.yul\":13289:13315   */\n      swap1\n      pop\n        /* \"#utility.yul\":13325:13396   */\n      tag_839\n        /* \"#utility.yul\":13393:13394   */\n      0x00\n        /* \"#utility.yul\":13382:13391   */\n      dup4\n        /* \"#utility.yul\":13378:13395   */\n      add\n        /* \"#utility.yul\":13369:13375   */\n      dup5\n        /* \"#utility.yul\":13325:13396   */\n      tag_650\n      jump\t// in\n    tag_839:\n        /* \"#utility.yul\":13181:13403   */\n      swap3\n      swap2\n      pop\n      pop\n      jump\t// out\n        /* \"#utility.yul\":13409:14174   */\n    tag_69:\n        /* \"#utility.yul\":13495:13501   */\n      0x00\n        /* \"#utility.yul\":13503:13509   */\n      0x00\n        /* \"#utility.yul\":13511:13517   */\n      0x00\n        /* \"#utility.yul\":13519:13525   */\n      0x00\n        /* \"#utility.yul\":13568:13571   */\n      0x80\n        /* \"#utility.yul\":13556:13565   */\n      dup6\n        /* \"#utility.yul\":13547:13554   */\n      dup8\n        /* \"#utility.yul\":13543:13566   */\n      sub\n        /* \"#utility.yul\":13539:13572   */\n      slt\n        /* \"#utility.yul\":13536:13656   */\n      iszero\n      tag_841\n      jumpi\n        /* \"#utility.yul\":13575:13654   */\n      tag_842\n      tag_606\n      jump\t// in\n    tag_842:\n        /* \"#utility.yul\":13536:13656   */\n    tag_841:\n        /* \"#utility.yul\":13695:13696   */\n      0x00\n        /* \"#utility.yul\":13720:13773   */\n      tag_843\n        /* \"#utility.yul\":13765:13772   */\n      dup8\n        /* \"#utility.yul\":13756:13762   */\n      dup3\n        /* \"#utility.yul\":13745:13754   */\n      dup9\n        /* \"#utility.yul\":13741:13763   */\n      add\n        /* \"#utility.yul\":13720:13773   */\n      tag_628\n      jump\t// in\n    tag_843:\n        /* \"#utility.yul\":13710:13773   */\n      swap5\n      pop\n        /* \"#utility.yul\":13666:13783   */\n      pop\n        /* \"#utility.yul\":13822:13824   */\n      0x20\n        /* \"#utility.yul\":13848:13901   */\n      tag_844\n        /* \"#utility.yul\":13893:13900   */\n      dup8\n        /* \"#utility.yul\":13884:13890   */\n      dup3\n        /* \"#utility.yul\":13873:13882   */\n      dup9\n        /* \"#utility.yul\":13869:13891   */\n      add\n        /* \"#utility.yul\":13848:13901   */\n      tag_628\n      jump\t// in\n    tag_844:\n        /* \"#utility.yul\":13838:13901   */\n      swap4\n      pop\n        /* \"#utility.yul\":13793:13911   */\n      pop\n        /* \"#utility.yul\":13950:13952   */\n      0x40\n        /* \"#utility.yul\":13976:14029   */\n      tag_845\n        /* \"#utility.yul\":14021:14028   */\n      dup8\n        /* \"#utility.yul\":14012:14018   */\n      dup3\n        /* \"#utility.yul\":14001:14010   */\n      dup9\n        /* \"#utility.yul\":13997:14019   */\n      add\n        /* \"#utility.yul\":13976:14029   */\n      tag_628\n      jump\t// in\n    tag_845:\n        /* \"#utility.yul\":13966:14029   */\n      swap3\n      pop\n        /* \"#utility.yul\":13921:14039   */\n      pop\n        /* \"#utility.yul\":14078:14080   */\n      0x60\n        /* \"#utility.yul\":14104:14157   */\n      tag_846\n        /* \"#utility.yul\":14149:14156   */\n      dup8\n        /* \"#utility.yul\":14140:14146   */\n      dup3\n        /* \"#utility.yul\":14129:14138   */\n      dup9\n        /* \"#utility.yul\":14125:14147   */\n      add\n        /* \"#utility.yul\":14104:14157   */\n      tag_628\n      jump\t// in\n    tag_846:\n        /* \"#utility.yul\":14094:14157   */\n      swap2\n      pop\n        /* \"#utility.yul\":14049:14167   */\n      pop\n        /* \"#utility.yul\":13409:14174   */\n      swap3\n      swap6\n      swap2\n      swap5\n      pop\n      swap3\n      pop\n      jump\t// out\n        /* \"#utility.yul\":14180:14751   */\n    tag_72:\n        /* \"#utility.yul\":14395:14399   */\n      0x00\n        /* \"#utility.yul\":14433:14435   */\n      0x40\n        /* \"#utility.yul\":14422:14431   */\n      dup3\n        /* \"#utility.yul\":14418:14436   */\n      add\n        /* \"#utility.yul\":14410:14436   */\n      swap1\n      pop\n        /* \"#utility.yul\":14482:14491   */\n      dup2\n        /* \"#utility.yul\":14476:14480   */\n      dup2\n        /* \"#utility.yul\":14472:14492   */\n      sub\n        /* \"#utility.yul\":14468:14469   */\n      0x00\n        /* \"#utility.yul\":14457:14466   */\n      dup4\n        /* \"#utility.yul\":14453:14470   */\n      add\n        /* \"#utility.yul\":14446:14493   */\n      mstore\n        /* \"#utility.yul\":14510:14668   */\n      tag_848\n        /* \"#utility.yul\":14663:14667   */\n      dup2\n        /* \"#utility.yul\":14654:14660   */\n      dup6\n        /* \"#utility.yul\":14510:14668   */\n      tag_646\n      jump\t// in\n    tag_848:\n        /* \"#utility.yul\":14502:14668   */\n      swap1\n      pop\n        /* \"#utility.yul\":14678:14744   */\n      tag_849\n        /* \"#utility.yul\":14740:14742   */\n      0x20\n        /* \"#utility.yul\":14729:14738   */\n      dup4\n        /* \"#utility.yul\":14725:14743   */\n      add\n        /* \"#utility.yul\":14716:14722   */\n      dup5\n        /* \"#utility.yul\":14678:14744   */\n      tag_612\n      jump\t// in\n    tag_849:\n        /* \"#utility.yul\":14180:14751   */\n      swap4\n      swap3\n      pop\n      pop\n      pop\n      jump\t// out\n        /* \"#utility.yul\":14757:15266   */\n    tag_75:\n        /* \"#utility.yul\":14826:14832   */\n      0x00\n        /* \"#utility.yul\":14875:14877   */\n      0x20\n        /* \"#utility.yul\":14863:14872   */\n      dup3\n        /* \"#utility.yul\":14854:14861   */\n      dup5\n        /* \"#utility.yul\":14850:14873   */\n      sub\n        /* \"#utility.yul\":14846:14878   */\n      slt\n        /* \"#utility.yul\":14843:14962   */\n      iszero\n      tag_851\n      jumpi\n        /* \"#utility.yul\":14881:14960   */\n      tag_852\n      tag_606\n      jump\t// in\n    tag_852:\n        /* \"#utility.yul\":14843:14962   */\n    tag_851:\n        /* \"#utility.yul\":15029:15030   */\n      0x00\n        /* \"#utility.yul\":15018:15027   */\n      dup3\n        /* \"#utility.yul\":15014:15031   */\n      add\n        /* \"#utility.yul\":15001:15032   */\n      calldataload\n        /* \"#utility.yul\":15059:15077   */\n      0xffffffffffffffff\n        /* \"#utility.yul\":15051:15057   */\n      dup2\n        /* \"#utility.yul\":15048:15078   */\n      gt\n        /* \"#utility.yul\":15045:15162   */\n      iszero\n      tag_853\n      jumpi\n        /* \"#utility.yul\":15081:15160   */\n      tag_854\n      tag_607\n      jump\t// in\n    tag_854:\n        /* \"#utility.yul\":15045:15162   */\n    tag_853:\n        /* \"#utility.yul\":15186:15249   */\n      tag_855\n        /* \"#utility.yul\":15241:15248   */\n      dup5\n        /* \"#utility.yul\":15232:15238   */\n      dup3\n        /* \"#utility.yul\":15221:15230   */\n      dup6\n        /* \"#utility.yul\":15217:15239   */\n      add\n        /* \"#utility.yul\":15186:15249   */\n      tag_625\n      jump\t// in\n    tag_855:\n        /* \"#utility.yul\":15176:15249   */\n      swap2\n      pop\n        /* \"#utility.yul\":14972:15259   */\n      pop\n        /* \"#utility.yul\":14757:15266   */\n      swap3\n      swap2\n      pop\n      pop\n      jump\t// out\n        /* \"#utility.yul\":15272:15386   */\n    tag_651:\n        /* \"#utility.yul\":15339:15345   */\n      0x00\n        /* \"#utility.yul\":15373:15378   */\n      dup2\n        /* \"#utility.yul\":15367:15379   */\n      mload\n        /* \"#utility.yul\":15357:15379   */\n      swap1\n      pop\n        /* \"#utility.yul\":15272:15386   */\n      swap2\n      swap1\n      pop\n      jump\t// out\n        /* \"#utility.yul\":15392:15576   */\n    tag_652:\n        /* \"#utility.yul\":15491:15502   */\n      0x00\n        /* \"#utility.yul\":15525:15531   */\n      dup3\n        /* \"#utility.yul\":15520:15523   */\n      dup3\n        /* \"#utility.yul\":15513:15532   */\n      mstore\n        /* \"#utility.yul\":15565:15569   */\n      0x20\n        /* \"#utility.yul\":15560:15563   */\n      dup3\n        /* \"#utility.yul\":15556:15570   */\n      add\n        /* \"#utility.yul\":15541:15570   */\n      swap1\n      pop\n        /* \"#utility.yul\":15392:15576   */\n      swap3\n      swap2\n      pop\n      pop\n      jump\t// out\n        /* \"#utility.yul\":15582:15714   */\n    tag_653:\n        /* \"#utility.yul\":15649:15653   */\n      0x00\n        /* \"#utility.yul\":15672:15675   */\n      dup2\n        /* \"#utility.yul\":15664:15675   */\n      swap1\n      pop\n        /* \"#utility.yul\":15702:15706   */\n      0x20\n        /* \"#utility.yul\":15697:15700   */\n      dup3\n        /* \"#utility.yul\":15693:15707   */\n      add\n        /* \"#utility.yul\":15685:15707   */\n      swap1\n      pop\n        /* \"#utility.yul\":15582:15714   */\n      swap2\n      swap1\n      pop\n      jump\t// out\n        /* \"#utility.yul\":15720:15899   */\n    tag_654:\n        /* \"#utility.yul\":15789:15799   */\n      0x00\n        /* \"#utility.yul\":15810:15856   */\n      tag_860\n        /* \"#utility.yul\":15852:15855   */\n      dup4\n        /* \"#utility.yul\":15844:15850   */\n      dup4\n        /* \"#utility.yul\":15810:15856   */\n      tag_640\n      jump\t// in\n    tag_860:\n        /* \"#utility.yul\":15888:15892   */\n      0x20\n        /* \"#utility.yul\":15883:15886   */\n      dup4\n        /* \"#utility.yul\":15879:15893   */\n      add\n        /* \"#utility.yul\":15865:15893   */\n      swap1\n      pop\n        /* \"#utility.yul\":15720:15899   */\n      swap3\n      swap2\n      pop\n      pop\n      jump\t// out\n        /* \"#utility.yul\":15905:16018   */\n    tag_655:\n        /* \"#utility.yul\":15975:15979   */\n      0x00\n        /* \"#utility.yul\":16007:16011   */\n      0x20\n        /* \"#utility.yul\":16002:16005   */\n      dup3\n        /* \"#utility.yul\":15998:16012   */\n      add\n        /* \"#utility.yul\":15990:16012   */\n      swap1\n      pop\n        /* \"#utility.yul\":15905:16018   */\n      swap2\n      swap1\n      pop\n      jump\t// out\n        /* \"#utility.yul\":16054:16786   */\n    tag_656:\n        /* \"#utility.yul\":16173:16176   */\n      0x00\n        /* \"#utility.yul\":16202:16256   */\n      tag_863\n        /* \"#utility.yul\":16250:16255   */\n      dup3\n        /* \"#utility.yul\":16202:16256   */\n      tag_651\n      jump\t// in\n    tag_863:\n        /* \"#utility.yul\":16272:16358   */\n      tag_864\n        /* \"#utility.yul\":16351:16357   */\n      dup2\n        /* \"#utility.yul\":16346:16349   */\n      dup6\n        /* \"#utility.yul\":16272:16358   */\n      tag_652\n      jump\t// in\n    tag_864:\n        /* \"#utility.yul\":16265:16358   */\n      swap4\n      pop\n        /* \"#utility.yul\":16382:16438   */\n      tag_865\n        /* \"#utility.yul\":16432:16437   */\n      dup4\n        /* \"#utility.yul\":16382:16438   */\n      tag_653\n      jump\t// in\n    tag_865:\n        /* \"#utility.yul\":16461:16468   */\n      dup1\n        /* \"#utility.yul\":16492:16493   */\n      0x00\n        /* \"#utility.yul\":16477:16761   */\n    tag_866:\n        /* \"#utility.yul\":16502:16508   */\n      dup4\n        /* \"#utility.yul\":16499:16500   */\n      dup2\n        /* \"#utility.yul\":16496:16509   */\n      lt\n        /* \"#utility.yul\":16477:16761   */\n      iszero\n      tag_868\n      jumpi\n        /* \"#utility.yul\":16578:16584   */\n      dup2\n        /* \"#utility.yul\":16572:16585   */\n      mload\n        /* \"#utility.yul\":16605:16668   */\n      tag_869\n        /* \"#utility.yul\":16664:16667   */\n      dup9\n        /* \"#utility.yul\":16649:16662   */\n      dup3\n        /* \"#utility.yul\":16605:16668   */\n      tag_654\n      jump\t// in\n    tag_869:\n        /* \"#utility.yul\":16598:16668   */\n      swap8\n      pop\n        /* \"#utility.yul\":16691:16751   */\n      tag_870\n        /* \"#utility.yul\":16744:16750   */\n      dup4\n        /* \"#utility.yul\":16691:16751   */\n      tag_655\n      jump\t// in\n    tag_870:\n        /* \"#utility.yul\":16681:16751   */\n      swap3\n      pop\n        /* \"#utility.yul\":16537:16761   */\n      pop\n        /* \"#utility.yul\":16524:16525   */\n      0x01\n        /* \"#utility.yul\":16521:16522   */\n      dup2\n        /* \"#utility.yul\":16517:16526   */\n      add\n        /* \"#utility.yul\":16512:16526   */\n      swap1\n      pop\n        /* \"#utility.yul\":16477:16761   */\n      jump(tag_866)\n    tag_868:\n        /* \"#utility.yul\":16481:16495   */\n      pop\n        /* \"#utility.yul\":16777:16780   */\n      dup6\n        /* \"#utility.yul\":16770:16780   */\n      swap4\n      pop\n        /* \"#utility.yul\":16178:16786   */\n      pop\n      pop\n      pop\n        /* \"#utility.yul\":16054:16786   */\n      swap3\n      swap2\n      pop\n      pop\n      jump\t// out\n        /* \"#utility.yul\":16792:17165   */\n    tag_78:\n        /* \"#utility.yul\":16935:16939   */\n      0x00\n        /* \"#utility.yul\":16973:16975   */\n      0x20\n        /* \"#utility.yul\":16962:16971   */\n      dup3\n        /* \"#utility.yul\":16958:16976   */\n      add\n        /* \"#utility.yul\":16950:16976   */\n      swap1\n      pop\n        /* \"#utility.yul\":17022:17031   */\n      dup2\n        /* \"#utility.yul\":17016:17020   */\n      dup2\n        /* \"#utility.yul\":17012:17032   */\n      sub\n        /* \"#utility.yul\":17008:17009   */\n      0x00\n        /* \"#utility.yul\":16997:17006   */\n      dup4\n        /* \"#utility.yul\":16993:17010   */\n      add\n        /* \"#utility.yul\":16986:17033   */\n      mstore\n        /* \"#utility.yul\":17050:17158   */\n      tag_872\n        /* \"#utility.yul\":17153:17157   */\n      dup2\n        /* \"#utility.yul\":17144:17150   */\n      dup5\n        /* \"#utility.yul\":17050:17158   */\n      tag_656\n      jump\t// in\n    tag_872:\n        /* \"#utility.yul\":17042:17158   */\n      swap1\n      pop\n        /* \"#utility.yul\":16792:17165   */\n      swap3\n      swap2\n      pop\n      pop\n      jump\t// out\n        /* \"#utility.yul\":17171:17645   */\n    tag_81:\n        /* \"#utility.yul\":17239:17245   */\n      0x00\n        /* \"#utility.yul\":17247:17253   */\n      0x00\n        /* \"#utility.yul\":17296:17298   */\n      0x40\n        /* \"#utility.yul\":17284:17293   */\n      dup4\n        /* \"#utility.yul\":17275:17282   */\n      dup6\n        /* \"#utility.yul\":17271:17294   */\n      sub\n        /* \"#utility.yul\":17267:17299   */\n      slt\n        /* \"#utility.yul\":17264:17383   */\n      iszero\n      tag_874\n      jumpi\n        /* \"#utility.yul\":17302:17381   */\n      tag_875\n      tag_606\n      jump\t// in\n    tag_875:\n        /* \"#utility.yul\":17264:17383   */\n    tag_874:\n        /* \"#utility.yul\":17422:17423   */\n      0x00\n        /* \"#utility.yul\":17447:17500   */\n      tag_876\n        /* \"#utility.yul\":17492:17499   */\n      dup6\n        /* \"#utility.yul\":17483:17489   */\n      dup3\n        /* \"#utility.yul\":17472:17481   */\n      dup7\n        /* \"#utility.yul\":17468:17490   */\n      add\n        /* \"#utility.yul\":17447:17500   */\n      tag_649\n      jump\t// in\n    tag_876:\n        /* \"#utility.yul\":17437:17500   */\n      swap3\n      pop\n        /* \"#utility.yul\":17393:17510   */\n      pop\n        /* \"#utility.yul\":17549:17551   */\n      0x20\n        /* \"#utility.yul\":17575:17628   */\n      tag_877\n        /* \"#utility.yul\":17620:17627   */\n      dup6\n        /* \"#utility.yul\":17611:17617   */\n      dup3\n        /* \"#utility.yul\":17600:17609   */\n      dup7\n        /* \"#utility.yul\":17596:17618   */\n      add\n        /* \"#utility.yul\":17575:17628   */\n      tag_616\n      jump\t// in\n    tag_877:\n        /* \"#utility.yul\":17565:17628   */\n      swap2\n      pop\n        /* \"#utility.yul\":17520:17638   */\n      pop\n        /* \"#utility.yul\":17171:17645   */\n      swap3\n      pop\n      swap3\n      swap1\n      pop\n      jump\t// out\n        /* \"#utility.yul\":17651:17980   */\n    tag_88:\n        /* \"#utility.yul\":17710:17716   */\n      0x00\n        /* \"#utility.yul\":17759:17761   */\n      0x20\n        /* \"#utility.yul\":17747:17756   */\n      dup3\n        /* \"#utility.yul\":17738:17745   */\n      dup5\n        /* \"#utility.yul\":17734:17757   */\n      sub\n        /* \"#utility.yul\":17730:17762   */\n      slt\n        /* \"#utility.yul\":17727:17846   */\n      iszero\n      tag_879\n      jumpi\n        /* \"#utility.yul\":17765:17844   */\n      tag_880\n      tag_606\n      jump\t// in\n    tag_880:\n        /* \"#utility.yul\":17727:17846   */\n    tag_879:\n        /* \"#utility.yul\":17885:17886   */\n      0x00\n        /* \"#utility.yul\":17910:17963   */\n      tag_881\n        /* \"#utility.yul\":17955:17962   */\n      dup5\n        /* \"#utility.yul\":17946:17952   */\n      dup3\n        /* \"#utility.yul\":17935:17944   */\n      dup6\n        /* \"#utility.yul\":17931:17953   */\n      add\n        /* \"#utility.yul\":17910:17963   */\n      tag_616\n      jump\t// in\n    tag_881:\n        /* \"#utility.yul\":17900:17963   */\n      swap2\n      pop\n        /* \"#utility.yul\":17856:17973   */\n      pop\n        /* \"#utility.yul\":17651:17980   */\n      swap3\n      swap2\n      pop\n      pop\n      jump\t// out\n        /* \"#utility.yul\":17986:18315   */\n    tag_93:\n        /* \"#utility.yul\":18045:18051   */\n      0x00\n        /* \"#utility.yul\":18094:18096   */\n      0x20\n        /* \"#utility.yul\":18082:18091   */\n      dup3\n        /* \"#utility.yul\":18073:18080   */\n      dup5\n        /* \"#utility.yul\":18069:18092   */\n      sub\n        /* \"#utility.yul\":18065:18097   */\n      slt\n        /* \"#utility.yul\":18062:18181   */\n      iszero\n      tag_883\n      jumpi\n        /* \"#utility.yul\":18100:18179   */\n      tag_884\n      tag_606\n      jump\t// in\n    tag_884:\n        /* \"#utility.yul\":18062:18181   */\n    tag_883:\n        /* \"#utility.yul\":18220:18221   */\n      0x00\n        /* \"#utility.yul\":18245:18298   */\n      tag_885\n        /* \"#utility.yul\":18290:18297   */\n      dup5\n        /* \"#utility.yul\":18281:18287   */\n      dup3\n        /* \"#utility.yul\":18270:18279   */\n      dup6\n        /* \"#utility.yul\":18266:18288   */\n      add\n        /* \"#utility.yul\":18245:18298   */\n      tag_628\n      jump\t// in\n    tag_885:\n        /* \"#utility.yul\":18235:18298   */\n      swap2\n      pop\n        /* \"#utility.yul\":18191:18308   */\n      pop\n        /* \"#utility.yul\":17986:18315   */\n      swap3\n      swap2\n      pop\n      pop\n      jump\t// out\n        /* \"#utility.yul\":18321:18628   */\n    tag_657:\n        /* \"#utility.yul\":18382:18386   */\n      0x00\n        /* \"#utility.yul\":18472:18490   */\n      0xffffffffffffffff\n        /* \"#utility.yul\":18464:18470   */\n      dup3\n        /* \"#utility.yul\":18461:18491   */\n      gt\n        /* \"#utility.yul\":18458:18514   */\n      iszero\n      tag_887\n      jumpi\n        /* \"#utility.yul\":18494:18512   */\n      tag_888\n      tag_202\n      jump\t// in\n    tag_888:\n        /* \"#utility.yul\":18458:18514   */\n    tag_887:\n        /* \"#utility.yul\":18532:18561   */\n      tag_889\n        /* \"#utility.yul\":18554:18560   */\n      dup3\n        /* \"#utility.yul\":18532:18561   */\n      tag_619\n      jump\t// in\n    tag_889:\n        /* \"#utility.yul\":18524:18561   */\n      swap1\n      pop\n        /* \"#utility.yul\":18616:18620   */\n      0x20\n        /* \"#utility.yul\":18610:18614   */\n      dup2\n        /* \"#utility.yul\":18606:18621   */\n      add\n        /* \"#utility.yul\":18598:18621   */\n      swap1\n      pop\n        /* \"#utility.yul\":18321:18628   */\n      swap2\n      swap1\n      pop\n      jump\t// out\n        /* \"#utility.yul\":18634:19057   */\n    tag_658:\n        /* \"#utility.yul\":18711:18716   */\n      0x00\n        /* \"#utility.yul\":18736:18801   */\n      tag_891\n        /* \"#utility.yul\":18752:18800   */\n      tag_892\n        /* \"#utility.yul\":18793:18799   */\n      dup5\n        /* \"#utility.yul\":18752:18800   */\n      tag_657\n      jump\t// in\n    tag_892:\n        /* \"#utility.yul\":18736:18801   */\n      tag_621\n      jump\t// in\n    tag_891:\n        /* \"#utility.yul\":18727:18801   */\n      swap1\n      pop\n        /* \"#utility.yul\":18824:18830   */\n      dup3\n        /* \"#utility.yul\":18817:18822   */\n      dup2\n        /* \"#utility.yul\":18810:18831   */\n      mstore\n        /* \"#utility.yul\":18862:18866   */\n      0x20\n        /* \"#utility.yul\":18855:18860   */\n      dup2\n        /* \"#utility.yul\":18851:18867   */\n      add\n        /* \"#utility.yul\":18900:18903   */\n      dup5\n        /* \"#utility.yul\":18891:18897   */\n      dup5\n        /* \"#utility.yul\":18886:18889   */\n      dup5\n        /* \"#utility.yul\":18882:18898   */\n      add\n        /* \"#utility.yul\":18879:18904   */\n      gt\n        /* \"#utility.yul\":18876:18988   */\n      iszero\n      tag_893\n      jumpi\n        /* \"#utility.yul\":18907:18986   */\n      tag_894\n      tag_618\n      jump\t// in\n    tag_894:\n        /* \"#utility.yul\":18876:18988   */\n    tag_893:\n        /* \"#utility.yul\":18997:19051   */\n      tag_895\n        /* \"#utility.yul\":19044:19050   */\n      dup5\n        /* \"#utility.yul\":19039:19042   */\n      dup3\n        /* \"#utility.yul\":19034:19037   */\n      dup6\n        /* \"#utility.yul\":18997:19051   */\n      tag_623\n      jump\t// in\n    tag_895:\n        /* \"#utility.yul\":18717:19057   */\n      pop\n        /* \"#utility.yul\":18634:19057   */\n      swap4\n      swap3\n      pop\n      pop\n      pop\n      jump\t// out\n        /* \"#utility.yul\":19076:19414   */\n    tag_659:\n        /* \"#utility.yul\":19131:19136   */\n      0x00\n        /* \"#utility.yul\":19180:19183   */\n      dup3\n        /* \"#utility.yul\":19173:19177   */\n      0x1f\n        /* \"#utility.yul\":19165:19171   */\n      dup4\n        /* \"#utility.yul\":19161:19178   */\n      add\n        /* \"#utility.yul\":19157:19184   */\n      slt\n        /* \"#utility.yul\":19147:19269   */\n      tag_897\n      jumpi\n        /* \"#utility.yul\":19188:19267   */\n      tag_898\n      tag_617\n      jump\t// in\n    tag_898:\n        /* \"#utility.yul\":19147:19269   */\n    tag_897:\n        /* \"#utility.yul\":19305:19311   */\n      dup2\n        /* \"#utility.yul\":19292:19312   */\n      calldataload\n        /* \"#utility.yul\":19330:19408   */\n      tag_899\n        /* \"#utility.yul\":19404:19407   */\n      dup5\n        /* \"#utility.yul\":19396:19402   */\n      dup3\n        /* \"#utility.yul\":19389:19393   */\n      0x20\n        /* \"#utility.yul\":19381:19387   */\n      dup7\n        /* \"#utility.yul\":19377:19394   */\n      add\n        /* \"#utility.yul\":19330:19408   */\n      tag_658\n      jump\t// in\n    tag_899:\n        /* \"#utility.yul\":19321:19408   */\n      swap2\n      pop\n        /* \"#utility.yul\":19137:19414   */\n      pop\n        /* \"#utility.yul\":19076:19414   */\n      swap3\n      swap2\n      pop\n      pop\n      jump\t// out\n        /* \"#utility.yul\":19420:20397   */\n    tag_98:\n        /* \"#utility.yul\":19516:19522   */\n      0x00\n        /* \"#utility.yul\":19524:19530   */\n      0x00\n        /* \"#utility.yul\":19532:19538   */\n      0x00\n        /* \"#utility.yul\":19581:19583   */\n      0x60\n        /* \"#utility.yul\":19569:19578   */\n      dup5\n        /* \"#utility.yul\":19560:19567   */\n      dup7\n        /* \"#utility.yul\":19556:19579   */\n      sub\n        /* \"#utility.yul\":19552:19584   */\n      slt\n        /* \"#utility.yul\":19549:19668   */\n      iszero\n      tag_901\n      jumpi\n        /* \"#utility.yul\":19587:19666   */\n      tag_902\n      tag_606\n      jump\t// in\n    tag_902:\n        /* \"#utility.yul\":19549:19668   */\n    tag_901:\n        /* \"#utility.yul\":19707:19708   */\n      0x00\n        /* \"#utility.yul\":19732:19785   */\n      tag_903\n        /* \"#utility.yul\":19777:19784   */\n      dup7\n        /* \"#utility.yul\":19768:19774   */\n      dup3\n        /* \"#utility.yul\":19757:19766   */\n      dup8\n        /* \"#utility.yul\":19753:19775   */\n      add\n        /* \"#utility.yul\":19732:19785   */\n      tag_616\n      jump\t// in\n    tag_903:\n        /* \"#utility.yul\":19722:19785   */\n      swap4\n      pop\n        /* \"#utility.yul\":19678:19795   */\n      pop\n        /* \"#utility.yul\":19862:19864   */\n      0x20\n        /* \"#utility.yul\":19851:19860   */\n      dup5\n        /* \"#utility.yul\":19847:19865   */\n      add\n        /* \"#utility.yul\":19834:19866   */\n      calldataload\n        /* \"#utility.yul\":19893:19911   */\n      0xffffffffffffffff\n        /* \"#utility.yul\":19885:19891   */\n      dup2\n        /* \"#utility.yul\":19882:19912   */\n      gt\n        /* \"#utility.yul\":19879:19996   */\n      iszero\n      tag_904\n      jumpi\n        /* \"#utility.yul\":19915:19994   */\n      tag_905\n      tag_607\n      jump\t// in\n    tag_905:\n        /* \"#utility.yul\":19879:19996   */\n    tag_904:\n        /* \"#utility.yul\":20020:20083   */\n      tag_906\n        /* \"#utility.yul\":20075:20082   */\n      dup7\n        /* \"#utility.yul\":20066:20072   */\n      dup3\n        /* \"#utility.yul\":20055:20064   */\n      dup8\n        /* \"#utility.yul\":20051:20073   */\n      add\n        /* \"#utility.yul\":20020:20083   */\n      tag_625\n      jump\t// in\n    tag_906:\n        /* \"#utility.yul\":20010:20083   */\n      swap3\n      pop\n        /* \"#utility.yul\":19805:20093   */\n      pop\n        /* \"#utility.yul\":20160:20162   */\n      0x40\n        /* \"#utility.yul\":20149:20158   */\n      dup5\n        /* \"#utility.yul\":20145:20163   */\n      add\n        /* \"#utility.yul\":20132:20164   */\n      calldataload\n        /* \"#utility.yul\":20191:20209   */\n      0xffffffffffffffff\n        /* \"#utility.yul\":20183:20189   */\n      dup2\n        /* \"#utility.yul\":20180:20210   */\n      gt\n        /* \"#utility.yul\":20177:20294   */\n      iszero\n      tag_907\n      jumpi\n        /* \"#utility.yul\":20213:20292   */\n      tag_908\n      tag_607\n      jump\t// in\n    tag_908:\n        /* \"#utility.yul\":20177:20294   */\n    tag_907:\n        /* \"#utility.yul\":20318:20380   */\n      tag_909\n        /* \"#utility.yul\":20372:20379   */\n      dup7\n        /* \"#utility.yul\":20363:20369   */\n      dup3\n        /* \"#utility.yul\":20352:20361   */\n      dup8\n        /* \"#utility.yul\":20348:20370   */\n      add\n        /* \"#utility.yul\":20318:20380   */\n      tag_659\n      jump\t// in\n    tag_909:\n        /* \"#utility.yul\":20308:20380   */\n      swap2\n      pop\n        /* \"#utility.yul\":20103:20390   */\n      pop\n        /* \"#utility.yul\":19420:20397   */\n      swap3\n      pop\n      swap3\n      pop\n      swap3\n      jump\t// out\n        /* \"#utility.yul\":20403:20521   */\n    tag_660:\n        /* \"#utility.yul\":20490:20514   */\n      tag_911\n        /* \"#utility.yul\":20508:20513   */\n      dup2\n        /* \"#utility.yul\":20490:20514   */\n      tag_614\n      jump\t// in\n    tag_911:\n        /* \"#utility.yul\":20485:20488   */\n      dup3\n        /* \"#utility.yul\":20478:20515   */\n      mstore\n        /* \"#utility.yul\":20403:20521   */\n      pop\n      pop\n      jump\t// out\n        /* \"#utility.yul\":20527:20749   */\n    tag_118:\n        /* \"#utility.yul\":20620:20624   */\n      0x00\n        /* \"#utility.yul\":20658:20660   */\n      0x20\n        /* \"#utility.yul\":20647:20656   */\n      dup3\n        /* \"#utility.yul\":20643:20661   */\n      add\n        /* \"#utility.yul\":20635:20661   */\n      swap1\n      pop\n        /* \"#utility.yul\":20671:20742   */\n      tag_913\n        /* \"#utility.yul\":20739:20740   */\n      0x00\n        /* \"#utility.yul\":20728:20737   */\n      dup4\n        /* \"#utility.yul\":20724:20741   */\n      add\n        /* \"#utility.yul\":20715:20721   */\n      dup5\n        /* \"#utility.yul\":20671:20742   */\n      tag_660\n      jump\t// in\n    tag_913:\n        /* \"#utility.yul\":20527:20749   */\n      swap3\n      swap2\n      pop\n      pop\n      jump\t// out\n        /* \"#utility.yul\":20755:21229   */\n    tag_124:\n        /* \"#utility.yul\":20823:20829   */\n      0x00\n        /* \"#utility.yul\":20831:20837   */\n      0x00\n        /* \"#utility.yul\":20880:20882   */\n      0x40\n        /* \"#utility.yul\":20868:20877   */\n      dup4\n        /* \"#utility.yul\":20859:20866   */\n      dup6\n        /* \"#utility.yul\":20855:20878   */\n      sub\n        /* \"#utility.yul\":20851:20883   */\n      slt\n        /* \"#utility.yul\":20848:20967   */\n      iszero\n      tag_915\n      jumpi\n        /* \"#utility.yul\":20886:20965   */\n      tag_916\n      tag_606\n      jump\t// in\n    tag_916:\n        /* \"#utility.yul\":20848:20967   */\n    tag_915:\n        /* \"#utility.yul\":21006:21007   */\n      0x00\n        /* \"#utility.yul\":21031:21084   */\n      tag_917\n        /* \"#utility.yul\":21076:21083   */\n      dup6\n        /* \"#utility.yul\":21067:21073   */\n      dup3\n        /* \"#utility.yul\":21056:21065   */\n      dup7\n        /* \"#utility.yul\":21052:21074   */\n      add\n        /* \"#utility.yul\":21031:21084   */\n      tag_628\n      jump\t// in\n    tag_917:\n        /* \"#utility.yul\":21021:21084   */\n      swap3\n      pop\n        /* \"#utility.yul\":20977:21094   */\n      pop\n        /* \"#utility.yul\":21133:21135   */\n      0x20\n        /* \"#utility.yul\":21159:21212   */\n      tag_918\n        /* \"#utility.yul\":21204:21211   */\n      dup6\n        /* \"#utility.yul\":21195:21201   */\n      dup3\n        /* \"#utility.yul\":21184:21193   */\n      dup7\n        /* \"#utility.yul\":21180:21202   */\n      add\n        /* \"#utility.yul\":21159:21212   */\n      tag_628\n      jump\t// in\n    tag_918:\n        /* \"#utility.yul\":21149:21212   */\n      swap2\n      pop\n        /* \"#utility.yul\":21104:21222   */\n      pop\n        /* \"#utility.yul\":20755:21229   */\n      swap3\n      pop\n      swap3\n      swap1\n      pop\n      jump\t// out\n        /* \"#utility.yul\":21235:21899   */\n    tag_135:\n        /* \"#utility.yul\":21440:21444   */\n      0x00\n        /* \"#utility.yul\":21478:21481   */\n      0xa0\n        /* \"#utility.yul\":21467:21476   */\n      dup3\n        /* \"#utility.yul\":21463:21482   */\n      add\n        /* \"#utility.yul\":21455:21482   */\n      swap1\n      pop\n        /* \"#utility.yul\":21492:21563   */\n      tag_920\n        /* \"#utility.yul\":21560:21561   */\n      0x00\n        /* \"#utility.yul\":21549:21558   */\n      dup4\n        /* \"#utility.yul\":21545:21562   */\n      add\n        /* \"#utility.yul\":21536:21542   */\n      dup9\n        /* \"#utility.yul\":21492:21563   */\n      tag_647\n      jump\t// in\n    tag_920:\n        /* \"#utility.yul\":21573:21645   */\n      tag_921\n        /* \"#utility.yul\":21641:21643   */\n      0x20\n        /* \"#utility.yul\":21630:21639   */\n      dup4\n        /* \"#utility.yul\":21626:21644   */\n      add\n        /* \"#utility.yul\":21617:21623   */\n      dup8\n        /* \"#utility.yul\":21573:21645   */\n      tag_647\n      jump\t// in\n    tag_921:\n        /* \"#utility.yul\":21655:21727   */\n      tag_922\n        /* \"#utility.yul\":21723:21725   */\n      0x40\n        /* \"#utility.yul\":21712:21721   */\n      dup4\n        /* \"#utility.yul\":21708:21726   */\n      add\n        /* \"#utility.yul\":21699:21705   */\n      dup7\n        /* \"#utility.yul\":21655:21727   */\n      tag_647\n      jump\t// in\n    tag_922:\n        /* \"#utility.yul\":21737:21809   */\n      tag_923\n        /* \"#utility.yul\":21805:21807   */\n      0x60\n        /* \"#utility.yul\":21794:21803   */\n      dup4\n        /* \"#utility.yul\":21790:21808   */\n      add\n        /* \"#utility.yul\":21781:21787   */\n      dup6\n        /* \"#utility.yul\":21737:21809   */\n      tag_647\n      jump\t// in\n    tag_923:\n        /* \"#utility.yul\":21819:21892   */\n      tag_924\n        /* \"#utility.yul\":21887:21890   */\n      0x80\n        /* \"#utility.yul\":21876:21885   */\n      dup4\n        /* \"#utility.yul\":21872:21891   */\n      add\n        /* \"#utility.yul\":21863:21869   */\n      dup5\n        /* \"#utility.yul\":21819:21892   */\n      tag_647\n      jump\t// in\n    tag_924:\n        /* \"#utility.yul\":21235:21899   */\n      swap7\n      swap6\n      pop\n      pop\n      pop\n      pop\n      pop\n      pop\n      jump\t// out\n        /* \"#utility.yul\":21905:22379   */\n    tag_138:\n        /* \"#utility.yul\":21973:21979   */\n      0x00\n        /* \"#utility.yul\":21981:21987   */\n      0x00\n        /* \"#utility.yul\":22030:22032   */\n      0x40\n        /* \"#utility.yul\":22018:22027   */\n      dup4\n        /* \"#utility.yul\":22009:22016   */\n      dup6\n        /* \"#utility.yul\":22005:22028   */\n      sub\n        /* \"#utility.yul\":22001:22033   */\n      slt\n        /* \"#utility.yul\":21998:22117   */\n      iszero\n      tag_926\n      jumpi\n        /* \"#utility.yul\":22036:22115   */\n      tag_927\n      tag_606\n      jump\t// in\n    tag_927:\n        /* \"#utility.yul\":21998:22117   */\n    tag_926:\n        /* \"#utility.yul\":22156:22157   */\n      0x00\n        /* \"#utility.yul\":22181:22234   */\n      tag_928\n        /* \"#utility.yul\":22226:22233   */\n      dup6\n        /* \"#utility.yul\":22217:22223   */\n      dup3\n        /* \"#utility.yul\":22206:22215   */\n      dup7\n        /* \"#utility.yul\":22202:22224   */\n      add\n        /* \"#utility.yul\":22181:22234   */\n      tag_616\n      jump\t// in\n    tag_928:\n        /* \"#utility.yul\":22171:22234   */\n      swap3\n      pop\n        /* \"#utility.yul\":22127:22244   */\n      pop\n        /* \"#utility.yul\":22283:22285   */\n      0x20\n        /* \"#utility.yul\":22309:22362   */\n      tag_929\n        /* \"#utility.yul\":22354:22361   */\n      dup6\n        /* \"#utility.yul\":22345:22351   */\n      dup3\n        /* \"#utility.yul\":22334:22343   */\n      dup7\n        /* \"#utility.yul\":22330:22352   */\n      add\n        /* \"#utility.yul\":22309:22362   */\n      tag_628\n      jump\t// in\n    tag_929:\n        /* \"#utility.yul\":22299:22362   */\n      swap2\n      pop\n        /* \"#utility.yul\":22254:22372   */\n      pop\n        /* \"#utility.yul\":21905:22379   */\n      swap3\n      pop\n      swap3\n      swap1\n      pop\n      jump\t// out\n        /* \"#utility.yul\":22385:22554   */\n    tag_661:\n        /* \"#utility.yul\":22469:22480   */\n      0x00\n        /* \"#utility.yul\":22503:22509   */\n      dup3\n        /* \"#utility.yul\":22498:22501   */\n      dup3\n        /* \"#utility.yul\":22491:22510   */\n      mstore\n        /* \"#utility.yul\":22543:22547   */\n      0x20\n        /* \"#utility.yul\":22538:22541   */\n      dup3\n        /* \"#utility.yul\":22534:22548   */\n      add\n        /* \"#utility.yul\":22519:22548   */\n      swap1\n      pop\n        /* \"#utility.yul\":22385:22554   */\n      swap3\n      swap2\n      pop\n      pop\n      jump\t// out\n        /* \"#utility.yul\":22560:22937   */\n    tag_662:\n        /* \"#utility.yul\":22648:22651   */\n      0x00\n        /* \"#utility.yul\":22676:22715   */\n      tag_932\n        /* \"#utility.yul\":22709:22714   */\n      dup3\n        /* \"#utility.yul\":22676:22715   */\n      tag_633\n      jump\t// in\n    tag_932:\n        /* \"#utility.yul\":22731:22802   */\n      tag_933\n        /* \"#utility.yul\":22795:22801   */\n      dup2\n        /* \"#utility.yul\":22790:22793   */\n      dup6\n        /* \"#utility.yul\":22731:22802   */\n      tag_661\n      jump\t// in\n    tag_933:\n        /* \"#utility.yul\":22724:22802   */\n      swap4\n      pop\n        /* \"#utility.yul\":22811:22876   */\n      tag_934\n        /* \"#utility.yul\":22869:22875   */\n      dup2\n        /* \"#utility.yul\":22864:22867   */\n      dup6\n        /* \"#utility.yul\":22857:22861   */\n      0x20\n        /* \"#utility.yul\":22850:22855   */\n      dup7\n        /* \"#utility.yul\":22846:22862   */\n      add\n        /* \"#utility.yul\":22811:22876   */\n      tag_635\n      jump\t// in\n    tag_934:\n        /* \"#utility.yul\":22901:22930   */\n      tag_935\n        /* \"#utility.yul\":22923:22929   */\n      dup2\n        /* \"#utility.yul\":22901:22930   */\n      tag_619\n      jump\t// in\n    tag_935:\n        /* \"#utility.yul\":22896:22899   */\n      dup5\n        /* \"#utility.yul\":22892:22931   */\n      add\n        /* \"#utility.yul\":22885:22931   */\n      swap2\n      pop\n        /* \"#utility.yul\":22652:22937   */\n      pop\n        /* \"#utility.yul\":22560:22937   */\n      swap3\n      swap2\n      pop\n      pop\n      jump\t// out\n        /* \"#utility.yul\":22943:23111   */\n    tag_663:\n        /* \"#utility.yul\":23026:23037   */\n      0x00\n        /* \"#utility.yul\":23060:23066   */\n      dup3\n        /* \"#utility.yul\":23055:23058   */\n      dup3\n        /* \"#utility.yul\":23048:23067   */\n      mstore\n        /* \"#utility.yul\":23100:23104   */\n      0x20\n        /* \"#utility.yul\":23095:23098   */\n      dup3\n        /* \"#utility.yul\":23091:23105   */\n      add\n        /* \"#utility.yul\":23076:23105   */\n      swap1\n      pop\n        /* \"#utility.yul\":22943:23111   */\n      swap3\n      swap2\n      pop\n      pop\n      jump\t// out\n        /* \"#utility.yul\":23117:23490   */\n    tag_664:\n        /* \"#utility.yul\":23203:23206   */\n      0x00\n        /* \"#utility.yul\":23231:23269   */\n      tag_938\n        /* \"#utility.yul\":23263:23268   */\n      dup3\n        /* \"#utility.yul\":23231:23269   */\n      tag_637\n      jump\t// in\n    tag_938:\n        /* \"#utility.yul\":23285:23355   */\n      tag_939\n        /* \"#utility.yul\":23348:23354   */\n      dup2\n        /* \"#utility.yul\":23343:23346   */\n      dup6\n        /* \"#utility.yul\":23285:23355   */\n      tag_663\n      jump\t// in\n    tag_939:\n        /* \"#utility.yul\":23278:23355   */\n      swap4\n      pop\n        /* \"#utility.yul\":23364:23429   */\n      tag_940\n        /* \"#utility.yul\":23422:23428   */\n      dup2\n        /* \"#utility.yul\":23417:23420   */\n      dup6\n        /* \"#utility.yul\":23410:23414   */\n      0x20\n        /* \"#utility.yul\":23403:23408   */\n      dup7\n        /* \"#utility.yul\":23399:23415   */\n      add\n        /* \"#utility.yul\":23364:23429   */\n      tag_635\n      jump\t// in\n    tag_940:\n        /* \"#utility.yul\":23454:23483   */\n      tag_941\n        /* \"#utility.yul\":23476:23482   */\n      dup2\n        /* \"#utility.yul\":23454:23483   */\n      tag_619\n      jump\t// in\n    tag_941:\n        /* \"#utility.yul\":23449:23452   */\n      dup5\n        /* \"#utility.yul\":23445:23484   */\n      add\n        /* \"#utility.yul\":23438:23484   */\n      swap2\n      pop\n        /* \"#utility.yul\":23207:23490   */\n      pop\n        /* \"#utility.yul\":23117:23490   */\n      swap3\n      swap2\n      pop\n      pop\n      jump\t// out\n        /* \"#utility.yul\":23496:24449   */\n    tag_155:\n        /* \"#utility.yul\":23767:23771   */\n      0x00\n        /* \"#utility.yul\":23805:23808   */\n      0xc0\n        /* \"#utility.yul\":23794:23803   */\n      dup3\n        /* \"#utility.yul\":23790:23809   */\n      add\n        /* \"#utility.yul\":23782:23809   */\n      swap1\n      pop\n        /* \"#utility.yul\":23819:23890   */\n      tag_943\n        /* \"#utility.yul\":23887:23888   */\n      0x00\n        /* \"#utility.yul\":23876:23885   */\n      dup4\n        /* \"#utility.yul\":23872:23889   */\n      add\n        /* \"#utility.yul\":23863:23869   */\n      dup10\n        /* \"#utility.yul\":23819:23890   */\n      tag_660\n      jump\t// in\n    tag_943:\n        /* \"#utility.yul\":23937:23946   */\n      dup2\n        /* \"#utility.yul\":23931:23935   */\n      dup2\n        /* \"#utility.yul\":23927:23947   */\n      sub\n        /* \"#utility.yul\":23922:23924   */\n      0x20\n        /* \"#utility.yul\":23911:23920   */\n      dup4\n        /* \"#utility.yul\":23907:23925   */\n      add\n        /* \"#utility.yul\":23900:23948   */\n      mstore\n        /* \"#utility.yul\":23965:24043   */\n      tag_944\n        /* \"#utility.yul\":24038:24042   */\n      dup2\n        /* \"#utility.yul\":24029:24035   */\n      dup9\n        /* \"#utility.yul\":23965:24043   */\n      tag_662\n      jump\t// in\n    tag_944:\n        /* \"#utility.yul\":23957:24043   */\n      swap1\n      pop\n        /* \"#utility.yul\":24090:24099   */\n      dup2\n        /* \"#utility.yul\":24084:24088   */\n      dup2\n        /* \"#utility.yul\":24080:24100   */\n      sub\n        /* \"#utility.yul\":24075:24077   */\n      0x40\n        /* \"#utility.yul\":24064:24073   */\n      dup4\n        /* \"#utility.yul\":24060:24078   */\n      add\n        /* \"#utility.yul\":24053:24101   */\n      mstore\n        /* \"#utility.yul\":24118:24194   */\n      tag_945\n        /* \"#utility.yul\":24189:24193   */\n      dup2\n        /* \"#utility.yul\":24180:24186   */\n      dup8\n        /* \"#utility.yul\":24118:24194   */\n      tag_664\n      jump\t// in\n    tag_945:\n        /* \"#utility.yul\":24110:24194   */\n      swap1\n      pop\n        /* \"#utility.yul\":24204:24276   */\n      tag_946\n        /* \"#utility.yul\":24272:24274   */\n      0x60\n        /* \"#utility.yul\":24261:24270   */\n      dup4\n        /* \"#utility.yul\":24257:24275   */\n      add\n        /* \"#utility.yul\":24248:24254   */\n      dup7\n        /* \"#utility.yul\":24204:24276   */\n      tag_647\n      jump\t// in\n    tag_946:\n        /* \"#utility.yul\":24286:24359   */\n      tag_947\n        /* \"#utility.yul\":24354:24357   */\n      0x80\n        /* \"#utility.yul\":24343:24352   */\n      dup4\n        /* \"#utility.yul\":24339:24358   */\n      add\n        /* \"#utility.yul\":24330:24336   */\n      dup6\n        /* \"#utility.yul\":24286:24359   */\n      tag_647\n      jump\t// in\n    tag_947:\n        /* \"#utility.yul\":24369:24442   */\n      tag_948\n        /* \"#utility.yul\":24437:24440   */\n      0xa0\n        /* \"#utility.yul\":24426:24435   */\n      dup4\n        /* \"#utility.yul\":24422:24441   */\n      add\n        /* \"#utility.yul\":24413:24419   */\n      dup5\n        /* \"#utility.yul\":24369:24442   */\n      tag_650\n      jump\t// in\n    tag_948:\n        /* \"#utility.yul\":23496:24449   */\n      swap8\n      swap7\n      pop\n      pop\n      pop\n      pop\n      pop\n      pop\n      pop\n      jump\t// out\n        /* \"#utility.yul\":24521:25918   */\n    tag_665:\n        /* \"#utility.yul\":24640:24643   */\n      0x00\n        /* \"#utility.yul\":24676:24680   */\n      0xc0\n        /* \"#utility.yul\":24671:24674   */\n      dup4\n        /* \"#utility.yul\":24667:24681   */\n      add\n        /* \"#utility.yul\":24764:24768   */\n      0x00\n        /* \"#utility.yul\":24757:24762   */\n      dup4\n        /* \"#utility.yul\":24753:24769   */\n      add\n        /* \"#utility.yul\":24747:24770   */\n      mload\n        /* \"#utility.yul\":24783:24846   */\n      tag_950\n        /* \"#utility.yul\":24840:24844   */\n      0x00\n        /* \"#utility.yul\":24835:24838   */\n      dup7\n        /* \"#utility.yul\":24831:24845   */\n      add\n        /* \"#utility.yul\":24817:24829   */\n      dup3\n        /* \"#utility.yul\":24783:24846   */\n      tag_632\n      jump\t// in\n    tag_950:\n        /* \"#utility.yul\":24691:24856   */\n      pop\n        /* \"#utility.yul\":24940:24944   */\n      0x20\n        /* \"#utility.yul\":24933:24938   */\n      dup4\n        /* \"#utility.yul\":24929:24945   */\n      add\n        /* \"#utility.yul\":24923:24946   */\n      mload\n        /* \"#utility.yul\":24993:24996   */\n      dup5\n        /* \"#utility.yul\":24987:24991   */\n      dup3\n        /* \"#utility.yul\":24983:24997   */\n      sub\n        /* \"#utility.yul\":24976:24980   */\n      0x20\n        /* \"#utility.yul\":24971:24974   */\n      dup7\n        /* \"#utility.yul\":24967:24981   */\n      add\n        /* \"#utility.yul\":24960:24998   */\n      mstore\n        /* \"#utility.yul\":25019:25092   */\n      tag_951\n        /* \"#utility.yul\":25087:25091   */\n      dup3\n        /* \"#utility.yul\":25073:25085   */\n      dup3\n        /* \"#utility.yul\":25019:25092   */\n      tag_636\n      jump\t// in\n    tag_951:\n        /* \"#utility.yul\":25011:25092   */\n      swap2\n      pop\n        /* \"#utility.yul\":24866:25103   */\n      pop\n        /* \"#utility.yul\":25185:25189   */\n      0x40\n        /* \"#utility.yul\":25178:25183   */\n      dup4\n        /* \"#utility.yul\":25174:25190   */\n      add\n        /* \"#utility.yul\":25168:25191   */\n      mload\n        /* \"#utility.yul\":25238:25241   */\n      dup5\n        /* \"#utility.yul\":25232:25236   */\n      dup3\n        /* \"#utility.yul\":25228:25242   */\n      sub\n        /* \"#utility.yul\":25221:25225   */\n      0x40\n        /* \"#utility.yul\":25216:25219   */\n      dup7\n        /* \"#utility.yul\":25212:25226   */\n      add\n        /* \"#utility.yul\":25205:25243   */\n      mstore\n        /* \"#utility.yul\":25264:25335   */\n      tag_952\n        /* \"#utility.yul\":25330:25334   */\n      dup3\n        /* \"#utility.yul\":25316:25328   */\n      dup3\n        /* \"#utility.yul\":25264:25335   */\n      tag_639\n      jump\t// in\n    tag_952:\n        /* \"#utility.yul\":25256:25335   */\n      swap2\n      pop\n        /* \"#utility.yul\":25113:25346   */\n      pop\n        /* \"#utility.yul\":25433:25437   */\n      0x60\n        /* \"#utility.yul\":25426:25431   */\n      dup4\n        /* \"#utility.yul\":25422:25438   */\n      add\n        /* \"#utility.yul\":25416:25439   */\n      mload\n        /* \"#utility.yul\":25452:25515   */\n      tag_953\n        /* \"#utility.yul\":25509:25513   */\n      0x60\n        /* \"#utility.yul\":25504:25507   */\n      dup7\n        /* \"#utility.yul\":25500:25514   */\n      add\n        /* \"#utility.yul\":25486:25498   */\n      dup3\n        /* \"#utility.yul\":25452:25515   */\n      tag_640\n      jump\t// in\n    tag_953:\n        /* \"#utility.yul\":25356:25525   */\n      pop\n        /* \"#utility.yul\":25614:25618   */\n      0x80\n        /* \"#utility.yul\":25607:25612   */\n      dup4\n        /* \"#utility.yul\":25603:25619   */\n      add\n        /* \"#utility.yul\":25597:25620   */\n      mload\n        /* \"#utility.yul\":25633:25696   */\n      tag_954\n        /* \"#utility.yul\":25690:25694   */\n      0x80\n        /* \"#utility.yul\":25685:25688   */\n      dup7\n        /* \"#utility.yul\":25681:25695   */\n      add\n        /* \"#utility.yul\":25667:25679   */\n      dup3\n        /* \"#utility.yul\":25633:25696   */\n      tag_640\n      jump\t// in\n    tag_954:\n        /* \"#utility.yul\":25535:25706   */\n      pop\n        /* \"#utility.yul\":25799:25803   */\n      0xa0\n        /* \"#utility.yul\":25792:25797   */\n      dup4\n        /* \"#utility.yul\":25788:25804   */\n      add\n        /* \"#utility.yul\":25782:25805   */\n      mload\n        /* \"#utility.yul\":25818:25881   */\n      tag_955\n        /* \"#utility.yul\":25875:25879   */\n      0xa0\n        /* \"#utility.yul\":25870:25873   */\n      dup7\n        /* \"#utility.yul\":25866:25880   */\n      add\n        /* \"#utility.yul\":25852:25864   */\n      dup3\n        /* \"#utility.yul\":25818:25881   */\n      tag_642\n      jump\t// in\n    tag_955:\n        /* \"#utility.yul\":25716:25891   */\n      pop\n        /* \"#utility.yul\":25908:25912   */\n      dup1\n        /* \"#utility.yul\":25901:25912   */\n      swap2\n      pop\n        /* \"#utility.yul\":24645:25918   */\n      pop\n        /* \"#utility.yul\":24521:25918   */\n      swap3\n      swap2\n      pop\n      pop\n      jump\t// out\n        /* \"#utility.yul\":25924:26297   */\n    tag_160:\n        /* \"#utility.yul\":26067:26071   */\n      0x00\n        /* \"#utility.yul\":26105:26107   */\n      0x20\n        /* \"#utility.yul\":26094:26103   */\n      dup3\n        /* \"#utility.yul\":26090:26108   */\n      add\n        /* \"#utility.yul\":26082:26108   */\n      swap1\n      pop\n        /* \"#utility.yul\":26154:26163   */\n      dup2\n        /* \"#utility.yul\":26148:26152   */\n      dup2\n        /* \"#utility.yul\":26144:26164   */\n      sub\n        /* \"#utility.yul\":26140:26141   */\n      0x00\n        /* \"#utility.yul\":26129:26138   */\n      dup4\n        /* \"#utility.yul\":26125:26142   */\n      add\n        /* \"#utility.yul\":26118:26165   */\n      mstore\n        /* \"#utility.yul\":26182:26290   */\n      tag_957\n        /* \"#utility.yul\":26285:26289   */\n      dup2\n        /* \"#utility.yul\":26276:26282   */\n      dup5\n        /* \"#utility.yul\":26182:26290   */\n      tag_665\n      jump\t// in\n    tag_957:\n        /* \"#utility.yul\":26174:26290   */\n      swap1\n      pop\n        /* \"#utility.yul\":25924:26297   */\n      swap3\n      swap2\n      pop\n      pop\n      jump\t// out\n        /* \"#utility.yul\":26303:26483   */\n    tag_179:\n        /* \"#utility.yul\":26351:26428   */\n      0x4e487b7100000000000000000000000000000000000000000000000000000000\n        /* \"#utility.yul\":26348:26349   */\n      0x00\n        /* \"#utility.yul\":26341:26429   */\n      mstore\n        /* \"#utility.yul\":26448:26452   */\n      0x32\n        /* \"#utility.yul\":26445:26446   */\n      0x04\n        /* \"#utility.yul\":26438:26453   */\n      mstore\n        /* \"#utility.yul\":26472:26476   */\n      0x24\n        /* \"#utility.yul\":26469:26470   */\n      0x00\n        /* \"#utility.yul\":26462:26477   */\n      revert\n        /* \"#utility.yul\":26489:26669   */\n    tag_666:\n        /* \"#utility.yul\":26537:26614   */\n      0x4e487b7100000000000000000000000000000000000000000000000000000000\n        /* \"#utility.yul\":26534:26535   */\n      0x00\n        /* \"#utility.yul\":26527:26615   */\n      mstore\n        /* \"#utility.yul\":26634:26638   */\n      0x22\n        /* \"#utility.yul\":26631:26632   */\n      0x04\n        /* \"#utility.yul\":26624:26639   */\n      mstore\n        /* \"#utility.yul\":26658:26662   */\n      0x24\n        /* \"#utility.yul\":26655:26656   */\n      0x00\n        /* \"#utility.yul\":26648:26663   */\n      revert\n        /* \"#utility.yul\":26675:26995   */\n    tag_182:\n        /* \"#utility.yul\":26719:26725   */\n      0x00\n        /* \"#utility.yul\":26756:26757   */\n      0x02\n        /* \"#utility.yul\":26750:26754   */\n      dup3\n        /* \"#utility.yul\":26746:26758   */\n      div\n        /* \"#utility.yul\":26736:26758   */\n      swap1\n      pop\n        /* \"#utility.yul\":26803:26804   */\n      0x01\n        /* \"#utility.yul\":26797:26801   */\n      dup3\n        /* \"#utility.yul\":26793:26805   */\n      and\n        /* \"#utility.yul\":26824:26842   */\n      dup1\n        /* \"#utility.yul\":26814:26895   */\n      tag_961\n      jumpi\n        /* \"#utility.yul\":26880:26884   */\n      0x7f\n        /* \"#utility.yul\":26872:26878   */\n      dup3\n        /* \"#utility.yul\":26868:26885   */\n      and\n        /* \"#utility.yul\":26858:26885   */\n      swap2\n      pop\n        /* \"#utility.yul\":26814:26895   */\n    tag_961:\n        /* \"#utility.yul\":26942:26944   */\n      0x20\n        /* \"#utility.yul\":26934:26940   */\n      dup3\n        /* \"#utility.yul\":26931:26945   */\n      lt\n        /* \"#utility.yul\":26911:26929   */\n      dup2\n        /* \"#utility.yul\":26908:26946   */\n      sub\n        /* \"#utility.yul\":26905:26989   */\n      tag_962\n      jumpi\n        /* \"#utility.yul\":26961:26979   */\n      tag_963\n      tag_666\n      jump\t// in\n    tag_963:\n        /* \"#utility.yul\":26905:26989   */\n    tag_962:\n        /* \"#utility.yul\":26726:26995   */\n      pop\n        /* \"#utility.yul\":26675:26995   */\n      swap2\n      swap1\n      pop\n      jump\t// out\n        /* \"#utility.yul\":27001:27181   */\n    tag_667:\n        /* \"#utility.yul\":27049:27126   */\n      0x4e487b7100000000000000000000000000000000000000000000000000000000\n        /* \"#utility.yul\":27046:27047   */\n      0x00\n        /* \"#utility.yul\":27039:27127   */\n      mstore\n        /* \"#utility.yul\":27146:27150   */\n      0x11\n        /* \"#utility.yul\":27143:27144   */\n      0x04\n        /* \"#utility.yul\":27136:27151   */\n      mstore\n        /* \"#utility.yul\":27170:27174   */\n      0x24\n        /* \"#utility.yul\":27167:27168   */\n      0x00\n        /* \"#utility.yul\":27160:27175   */\n      revert\n        /* \"#utility.yul\":27187:27420   */\n    tag_199:\n        /* \"#utility.yul\":27226:27229   */\n      0x00\n        /* \"#utility.yul\":27249:27273   */\n      tag_966\n        /* \"#utility.yul\":27267:27272   */\n      dup3\n        /* \"#utility.yul\":27249:27273   */\n      tag_626\n      jump\t// in\n    tag_966:\n        /* \"#utility.yul\":27240:27273   */\n      swap2\n      pop\n        /* \"#utility.yul\":27295:27361   */\n      0xffffffffffffffffffffffffffffffffffffffffffffffffffffffffffffffff\n        /* \"#utility.yul\":27288:27293   */\n      dup3\n        /* \"#utility.yul\":27285:27362   */\n      sub\n        /* \"#utility.yul\":27282:27385   */\n      tag_967\n      jumpi\n        /* \"#utility.yul\":27365:27383   */\n      tag_968\n      tag_667\n      jump\t// in\n    tag_968:\n        /* \"#utility.yul\":27282:27385   */\n    tag_967:\n        /* \"#utility.yul\":27412:27413   */\n      0x01\n        /* \"#utility.yul\":27405:27410   */\n      dup3\n        /* \"#utility.yul\":27401:27414   */\n      add\n        /* \"#utility.yul\":27394:27414   */\n      swap1\n      pop\n        /* \"#utility.yul\":27187:27420   */\n      swap2\n      swap1\n      pop\n      jump\t// out\n        /* \"#utility.yul\":27426:27574   */\n    tag_668:\n        /* \"#utility.yul\":27528:27539   */\n      0x00\n        /* \"#utility.yul\":27565:27568   */\n      dup2\n        /* \"#utility.yul\":27550:27568   */\n      swap1\n      pop\n        /* \"#utility.yul\":27426:27574   */\n      swap3\n      swap2\n      pop\n      pop\n      jump\t// out\n        /* \"#utility.yul\":27580:27970   */\n    tag_669:\n        /* \"#utility.yul\":27686:27689   */\n      0x00\n        /* \"#utility.yul\":27714:27753   */\n      tag_971\n        /* \"#utility.yul\":27747:27752   */\n      dup3\n        /* \"#utility.yul\":27714:27753   */\n      tag_633\n      jump\t// in\n    tag_971:\n        /* \"#utility.yul\":27769:27858   */\n      tag_972\n        /* \"#utility.yul\":27851:27857   */\n      dup2\n        /* \"#utility.yul\":27846:27849   */\n      dup6\n        /* \"#utility.yul\":27769:27858   */\n      tag_668\n      jump\t// in\n    tag_972:\n        /* \"#utility.yul\":27762:27858   */\n      swap4\n      pop\n        /* \"#utility.yul\":27867:27932   */\n      tag_973\n        /* \"#utility.yul\":27925:27931   */\n      dup2\n        /* \"#utility.yul\":27920:27923   */\n      dup6\n        /* \"#utility.yul\":27913:27917   */\n      0x20\n        /* \"#utility.yul\":27906:27911   */\n      dup7\n        /* \"#utility.yul\":27902:27918   */\n      add\n        /* \"#utility.yul\":27867:27932   */\n      tag_635\n      jump\t// in\n    tag_973:\n        /* \"#utility.yul\":27957:27963   */\n      dup1\n        /* \"#utility.yul\":27952:27955   */\n      dup5\n        /* \"#utility.yul\":27948:27964   */\n      add\n        /* \"#utility.yul\":27941:27964   */\n      swap2\n      pop\n        /* \"#utility.yul\":27690:27970   */\n      pop\n        /* \"#utility.yul\":27580:27970   */\n      swap3\n      swap2\n      pop\n      pop\n      jump\t// out\n        /* \"#utility.yul\":27976:28251   */\n    tag_236:\n        /* \"#utility.yul\":28108:28111   */\n      0x00\n        /* \"#utility.yul\":28130:28225   */\n      tag_975\n        /* \"#utility.yul\":28221:28224   */\n      dup3\n        /* \"#utility.yul\":28212:28218   */\n      dup5\n        /* \"#utility.yul\":28130:28225   */\n      tag_669\n      jump\t// in\n    tag_975:\n        /* \"#utility.yul\":28123:28225   */\n      swap2\n      pop\n        /* \"#utility.yul\":28242:28245   */\n      dup2\n        /* \"#utility.yul\":28235:28245   */\n      swap1\n      pop\n        /* \"#utility.yul\":27976:28251   */\n      swap3\n      swap2\n      pop\n      pop\n      jump\t// out\n        /* \"#utility.yul\":28257:28451   */\n    tag_250:\n        /* \"#utility.yul\":28297:28301   */\n      0x00\n        /* \"#utility.yul\":28317:28337   */\n      tag_977\n        /* \"#utility.yul\":28335:28336   */\n      dup3\n        /* \"#utility.yul\":28317:28337   */\n      tag_626\n      jump\t// in\n    tag_977:\n        /* \"#utility.yul\":28312:28337   */\n      swap2\n      pop\n        /* \"#utility.yul\":28351:28371   */\n      tag_978\n        /* \"#utility.yul\":28369:28370   */\n      dup4\n        /* \"#utility.yul\":28351:28371   */\n      tag_626\n      jump\t// in\n    tag_978:\n        /* \"#utility.yul\":28346:28371   */\n      swap3\n      pop\n        /* \"#utility.yul\":28395:28396   */\n      dup3\n        /* \"#utility.yul\":28392:28393   */\n      dup3\n        /* \"#utility.yul\":28388:28397   */\n      sub\n        /* \"#utility.yul\":28380:28397   */\n      swap1\n      pop\n        /* \"#utility.yul\":28419:28420   */\n      dup2\n        /* \"#utility.yul\":28413:28417   */\n      dup2\n        /* \"#utility.yul\":28410:28421   */\n      gt\n        /* \"#utility.yul\":28407:28444   */\n      iszero\n      tag_979\n      jumpi\n        /* \"#utility.yul\":28424:28442   */\n      tag_980\n      tag_667\n      jump\t// in\n    tag_980:\n        /* \"#utility.yul\":28407:28444   */\n    tag_979:\n        /* \"#utility.yul\":28257:28451   */\n      swap3\n      swap2\n      pop\n      pop\n      jump\t// out\n        /* \"#utility.yul\":28457:28628   */\n    tag_670:\n        /* \"#utility.yul\":28597:28620   */\n      0x496e76616c6964206c696d69742028312d313030290000000000000000000000\n        /* \"#utility.yul\":28593:28594   */\n      0x00\n        /* \"#utility.yul\":28585:28591   */\n      dup3\n        /* \"#utility.yul\":28581:28595   */\n      add\n        /* \"#utility.yul\":28574:28621   */\n      mstore\n        /* \"#utility.yul\":28457:28628   */\n      pop\n      jump\t// out\n        /* \"#utility.yul\":28634:29000   */\n    tag_671:\n        /* \"#utility.yul\":28776:28779   */\n      0x00\n        /* \"#utility.yul\":28797:28864   */\n      tag_983\n        /* \"#utility.yul\":28861:28863   */\n      0x15\n        /* \"#utility.yul\":28856:28859   */\n      dup4\n        /* \"#utility.yul\":28797:28864   */\n      tag_661\n      jump\t// in\n    tag_983:\n        /* \"#utility.yul\":28790:28864   */\n      swap2\n      pop\n        /* \"#utility.yul\":28873:28966   */\n      tag_984\n        /* \"#utility.yul\":28962:28965   */\n      dup3\n        /* \"#utility.yul\":28873:28966   */\n      tag_670\n      jump\t// in\n    tag_984:\n        /* \"#utility.yul\":28991:28993   */\n      0x20\n        /* \"#utility.yul\":28986:28989   */\n      dup3\n        /* \"#utility.yul\":28982:28994   */\n      add\n        /* \"#utility.yul\":28975:28994   */\n      swap1\n      pop\n        /* \"#utility.yul\":28634:29000   */\n      swap2\n      swap1\n      pop\n      jump\t// out\n        /* \"#utility.yul\":29006:29425   */\n    tag_274:\n        /* \"#utility.yul\":29172:29176   */\n      0x00\n        /* \"#utility.yul\":29210:29212   */\n      0x20\n        /* \"#utility.yul\":29199:29208   */\n      dup3\n        /* \"#utility.yul\":29195:29213   */\n      add\n        /* \"#utility.yul\":29187:29213   */\n      swap1\n      pop\n        /* \"#utility.yul\":29259:29268   */\n      dup2\n        /* \"#utility.yul\":29253:29257   */\n      dup2\n        /* \"#utility.yul\":29249:29269   */\n      sub\n        /* \"#utility.yul\":29245:29246   */\n      0x00\n        /* \"#utility.yul\":29234:29243   */\n      dup4\n        /* \"#utility.yul\":29230:29247   */\n      add\n        /* \"#utility.yul\":29223:29270   */\n      mstore\n        /* \"#utility.yul\":29287:29418   */\n      tag_986\n        /* \"#utility.yul\":29413:29417   */\n      dup2\n        /* \"#utility.yul\":29287:29418   */\n      tag_671\n      jump\t// in\n    tag_986:\n        /* \"#utility.yul\":29279:29418   */\n      swap1\n      pop\n        /* \"#utility.yul\":29006:29425   */\n      swap2\n      swap1\n      pop\n      jump\t// out\n        /* \"#utility.yul\":29431:29763   */\n    tag_350:\n        /* \"#utility.yul\":29552:29556   */\n      0x00\n        /* \"#utility.yul\":29590:29592   */\n      0x40\n        /* \"#utility.yul\":29579:29588   */\n      dup3\n        /* \"#utility.yul\":29575:29593   */\n      add\n        /* \"#utility.yul\":29567:29593   */\n      swap1\n      pop\n        /* \"#utility.yul\":29603:29674   */\n      tag_988\n        /* \"#utility.yul\":29671:29672   */\n      0x00\n        /* \"#utility.yul\":29660:29669   */\n      dup4\n        /* \"#utility.yul\":29656:29673   */\n      add\n        /* \"#utility.yul\":29647:29653   */\n      dup6\n        /* \"#utility.yul\":29603:29674   */\n      tag_650\n      jump\t// in\n    tag_988:\n        /* \"#utility.yul\":29684:29756   */\n      tag_989\n        /* \"#utility.yul\":29752:29754   */\n      0x20\n        /* \"#utility.yul\":29741:29750   */\n      dup4\n        /* \"#utility.yul\":29737:29755   */\n      add\n        /* \"#utility.yul\":29728:29734   */\n      dup5\n        /* \"#utility.yul\":29684:29756   */\n      tag_660\n      jump\t// in\n    tag_989:\n        /* \"#utility.yul\":29431:29763   */\n      swap4\n      swap3\n      pop\n      pop\n      pop\n      jump\t// out\n        /* \"#utility.yul\":29769:29885   */\n    tag_672:\n        /* \"#utility.yul\":29839:29860   */\n      tag_991\n        /* \"#utility.yul\":29854:29859   */\n      dup2\n        /* \"#utility.yul\":29839:29860   */\n      tag_611\n      jump\t// in\n    tag_991:\n        /* \"#utility.yul\":29832:29837   */\n      dup2\n        /* \"#utility.yul\":29829:29861   */\n      eq\n        /* \"#utility.yul\":29819:29879   */\n      tag_992\n      jumpi\n        /* \"#utility.yul\":29875:29876   */\n      0x00\n        /* \"#utility.yul\":29872:29873   */\n      0x00\n        /* \"#utility.yul\":29865:29877   */\n      revert\n        /* \"#utility.yul\":29819:29879   */\n    tag_992:\n        /* \"#utility.yul\":29769:29885   */\n      pop\n      jump\t// out\n        /* \"#utility.yul\":29891:30028   */\n    tag_673:\n        /* \"#utility.yul\":29945:29950   */\n      0x00\n        /* \"#utility.yul\":29976:29982   */\n      dup2\n        /* \"#utility.yul\":29970:29983   */\n      mload\n        /* \"#utility.yul\":29961:29983   */\n      swap1\n      pop\n        /* \"#utility.yul\":29992:30022   */\n      tag_994\n        /* \"#utility.yul\":30016:30021   */\n      dup2\n        /* \"#utility.yul\":29992:30022   */\n      tag_672\n      jump\t// in\n    tag_994:\n        /* \"#utility.yul\":29891:30028   */\n      swap3\n      swap2\n      pop\n      pop\n      jump\t// out\n        /* \"#utility.yul\":30034:30379   */\n    tag_354:\n        /* \"#utility.yul\":30101:30107   */\n      0x00\n        /* \"#utility.yul\":30150:30152   */\n      0x20\n        /* \"#utility.yul\":30138:30147   */\n      dup3\n        /* \"#utility.yul\":30129:30136   */\n      dup5\n        /* \"#utility.yul\":30125:30148   */\n      sub\n        /* \"#utility.yul\":30121:30153   */\n      slt\n        /* \"#utility.yul\":30118:30237   */\n      iszero\n      tag_996\n      jumpi\n        /* \"#utility.yul\":30156:30235   */\n      tag_997\n      tag_606\n      jump\t// in\n    tag_997:\n        /* \"#utility.yul\":30118:30237   */\n    tag_996:\n        /* \"#utility.yul\":30276:30277   */\n      0x00\n        /* \"#utility.yul\":30301:30362   */\n      tag_998\n        /* \"#utility.yul\":30354:30361   */\n      dup5\n        /* \"#utility.yul\":30345:30351   */\n      dup3\n        /* \"#utility.yul\":30334:30343   */\n      dup6\n        /* \"#utility.yul\":30330:30352   */\n      add\n        /* \"#utility.yul\":30301:30362   */\n      tag_673\n      jump\t// in\n    tag_998:\n        /* \"#utility.yul\":30291:30362   */\n      swap2\n      pop\n        /* \"#utility.yul\":30247:30372   */\n      pop\n        /* \"#utility.yul\":30034:30379   */\n      swap3\n      swap2\n      pop\n      pop\n      jump\t// out\n        /* \"#utility.yul\":30385:30549   */\n    tag_674:\n        /* \"#utility.yul\":30525:30541   */\n      0x4e6f7420617574686f72697a6564000000000000000000000000000000000000\n        /* \"#utility.yul\":30521:30522   */\n      0x00\n        /* \"#utility.yul\":30513:30519   */\n      dup3\n        /* \"#utility.yul\":30509:30523   */\n      add\n        /* \"#utility.yul\":30502:30542   */\n      mstore\n        /* \"#utility.yul\":30385:30549   */\n      pop\n      jump\t// out\n        /* \"#utility.yul\":30555:30921   */\n    tag_675:\n        /* \"#utility.yul\":30697:30700   */\n      0x00\n        /* \"#utility.yul\":30718:30785   */\n      tag_1001\n        /* \"#utility.yul\":30782:30784   */\n      0x0e\n        /* \"#utility.yul\":30777:30780   */\n      dup4\n        /* \"#utility.yul\":30718:30785   */\n      tag_661\n      jump\t// in\n    tag_1001:\n        /* \"#utility.yul\":30711:30785   */\n      swap2\n      pop\n        /* \"#utility.yul\":30794:30887   */\n      tag_1002\n        /* \"#utility.yul\":30883:30886   */\n      dup3\n        /* \"#utility.yul\":30794:30887   */\n      tag_674\n      jump\t// in\n    tag_1002:\n        /* \"#utility.yul\":30912:30914   */\n      0x20\n        /* \"#utility.yul\":30907:30910   */\n      dup3\n        /* \"#utility.yul\":30903:30915   */\n      add\n        /* \"#utility.yul\":30896:30915   */\n      swap1\n      pop\n        /* \"#utility.yul\":30555:30921   */\n      swap2\n      swap1\n      pop\n      jump\t// out\n        /* \"#utility.yul\":30927:31346   */\n    tag_357:\n        /* \"#utility.yul\":31093:31097   */\n      0x00\n        /* \"#utility.yul\":31131:31133   */\n      0x20\n        /* \"#utility.yul\":31120:31129   */\n      dup3\n        /* \"#utility.yul\":31116:31134   */\n      add\n        /* \"#utility.yul\":31108:31134   */\n      swap1\n      pop\n        /* \"#utility.yul\":31180:31189   */\n      dup2\n        /* \"#utility.yul\":31174:31178   */\n      dup2\n        /* \"#utility.yul\":31170:31190   */\n      sub\n        /* \"#utility.yul\":31166:31167   */\n      0x00\n        /* \"#utility.yul\":31155:31164   */\n      dup4\n        /* \"#utility.yul\":31151:31168   */\n      add\n        /* \"#utility.yul\":31144:31191   */\n      mstore\n        /* \"#utility.yul\":31208:31339   */\n      tag_1004\n        /* \"#utility.yul\":31334:31338   */\n      dup2\n        /* \"#utility.yul\":31208:31339   */\n      tag_675\n      jump\t// in\n    tag_1004:\n        /* \"#utility.yul\":31200:31339   */\n      swap1\n      pop\n        /* \"#utility.yul\":30927:31346   */\n      swap2\n      swap1\n      pop\n      jump\t// out\n        /* \"#utility.yul\":31352:31532   */\n    tag_676:\n        /* \"#utility.yul\":31400:31477   */\n      0x4e487b7100000000000000000000000000000000000000000000000000000000\n        /* \"#utility.yul\":31397:31398   */\n      0x00\n        /* \"#utility.yul\":31390:31478   */\n      mstore\n        /* \"#utility.yul\":31497:31501   */\n      0x12\n        /* \"#utility.yul\":31494:31495   */\n      0x04\n        /* \"#utility.yul\":31487:31502   */\n      mstore\n        /* \"#utility.yul\":31521:31525   */\n      0x24\n        /* \"#utility.yul\":31518:31519   */\n      0x00\n        /* \"#utility.yul\":31511:31526   */\n      revert\n        /* \"#utility.yul\":31538:31723   */\n    tag_360:\n        /* \"#utility.yul\":31578:31579   */\n      0x00\n        /* \"#utility.yul\":31595:31615   */\n      tag_1007\n        /* \"#utility.yul\":31613:31614   */\n      dup3\n        /* \"#utility.yul\":31595:31615   */\n      tag_626\n      jump\t// in\n    tag_1007:\n        /* \"#utility.yul\":31590:31615   */\n      swap2\n      pop\n        /* \"#utility.yul\":31629:31649   */\n      tag_1008\n        /* \"#utility.yul\":31647:31648   */\n      dup4\n        /* \"#utility.yul\":31629:31649   */\n      tag_626\n      jump\t// in\n    tag_1008:\n        /* \"#utility.yul\":31624:31649   */\n      swap3\n      pop\n        /* \"#utility.yul\":31668:31669   */\n      dup3\n        /* \"#utility.yul\":31658:31693   */\n      tag_1009\n      jumpi\n        /* \"#utility.yul\":31673:31691   */\n      tag_1010\n      tag_676\n      jump\t// in\n    tag_1010:\n        /* \"#utility.yul\":31658:31693   */\n    tag_1009:\n        /* \"#utility.yul\":31715:31716   */\n      dup3\n        /* \"#utility.yul\":31712:31713   */\n      dup3\n        /* \"#utility.yul\":31708:31717   */\n      div\n        /* \"#utility.yul\":31703:31717   */\n      swap1\n      pop\n        /* \"#utility.yul\":31538:31723   */\n      swap3\n      swap2\n      pop\n      pop\n      jump\t// out\n        /* \"#utility.yul\":31729:31870   */\n    tag_677:\n        /* \"#utility.yul\":31778:31782   */\n      0x00\n        /* \"#utility.yul\":31801:31804   */\n      dup2\n        /* \"#utility.yul\":31793:31804   */\n      swap1\n      pop\n        /* \"#utility.yul\":31824:31827   */\n      dup2\n        /* \"#utility.yul\":31821:31822   */\n      0x00\n        /* \"#utility.yul\":31814:31828   */\n      mstore\n        /* \"#utility.yul\":31858:31862   */\n      0x20\n        /* \"#utility.yul\":31855:31856   */\n      0x00\n        /* \"#utility.yul\":31845:31863   */\n      keccak256\n        /* \"#utility.yul\":31837:31863   */\n      swap1\n      pop\n        /* \"#utility.yul\":31729:31870   */\n      swap2\n      swap1\n      pop\n      jump\t// out\n        /* \"#utility.yul\":31876:31969   */\n    tag_678:\n        /* \"#utility.yul\":31913:31919   */\n      0x00\n        /* \"#utility.yul\":31960:31962   */\n      0x20\n        /* \"#utility.yul\":31955:31957   */\n      0x1f\n        /* \"#utility.yul\":31948:31953   */\n      dup4\n        /* \"#utility.yul\":31944:31958   */\n      add\n        /* \"#utility.yul\":31940:31963   */\n      div\n        /* \"#utility.yul\":31930:31963   */\n      swap1\n      pop\n        /* \"#utility.yul\":31876:31969   */\n      swap2\n      swap1\n      pop\n      jump\t// out\n        /* \"#utility.yul\":31975:32082   */\n    tag_679:\n        /* \"#utility.yul\":32019:32027   */\n      0x00\n        /* \"#utility.yul\":32069:32074   */\n      dup3\n        /* \"#utility.yul\":32063:32067   */\n      dup3\n        /* \"#utility.yul\":32059:32075   */\n      shl\n        /* \"#utility.yul\":32038:32075   */\n      swap1\n      pop\n        /* \"#utility.yul\":31975:32082   */\n      swap3\n      swap2\n      pop\n      pop\n      jump\t// out\n        /* \"#utility.yul\":32088:32481   */\n    tag_680:\n        /* \"#utility.yul\":32157:32163   */\n      0x00\n        /* \"#utility.yul\":32207:32208   */\n      0x08\n        /* \"#utility.yul\":32195:32205   */\n      dup4\n        /* \"#utility.yul\":32191:32209   */\n      mul\n        /* \"#utility.yul\":32230:32327   */\n      tag_1015\n        /* \"#utility.yul\":32260:32326   */\n      0xffffffffffffffffffffffffffffffffffffffffffffffffffffffffffffffff\n        /* \"#utility.yul\":32249:32258   */\n      dup3\n        /* \"#utility.yul\":32230:32327   */\n      tag_679\n      jump\t// in\n    tag_1015:\n        /* \"#utility.yul\":32348:32387   */\n      tag_1016\n        /* \"#utility.yul\":32378:32386   */\n      dup7\n        /* \"#utility.yul\":32367:32376   */\n      dup4\n        /* \"#utility.yul\":32348:32387   */\n      tag_679\n      jump\t// in\n    tag_1016:\n        /* \"#utility.yul\":32336:32387   */\n      swap6\n      pop\n        /* \"#utility.yul\":32420:32424   */\n      dup1\n        /* \"#utility.yul\":32416:32425   */\n      not\n        /* \"#utility.yul\":32409:32414   */\n      dup5\n        /* \"#utility.yul\":32405:32426   */\n      and\n        /* \"#utility.yul\":32396:32426   */\n      swap4\n      pop\n        /* \"#utility.yul\":32469:32473   */\n      dup1\n        /* \"#utility.yul\":32459:32467   */\n      dup7\n        /* \"#utility.yul\":32455:32474   */\n      and\n        /* \"#utility.yul\":32448:32453   */\n      dup5\n        /* \"#utility.yul\":32445:32475   */\n      or\n        /* \"#utility.yul\":32435:32475   */\n      swap3\n      pop\n        /* \"#utility.yul\":32164:32481   */\n      pop\n      pop\n        /* \"#utility.yul\":32088:32481   */\n      swap4\n      swap3\n      pop\n      pop\n      pop\n      jump\t// out\n        /* \"#utility.yul\":32487:32547   */\n    tag_681:\n        /* \"#utility.yul\":32515:32518   */\n      0x00\n        /* \"#utility.yul\":32536:32541   */\n      dup2\n        /* \"#utility.yul\":32529:32541   */\n      swap1\n      pop\n        /* \"#utility.yul\":32487:32547   */\n      swap2\n      swap1\n      pop\n      jump\t// out\n        /* \"#utility.yul\":32553:32695   */\n    tag_682:\n        /* \"#utility.yul\":32603:32612   */\n      0x00\n        /* \"#utility.yul\":32636:32689   */\n      tag_1019\n        /* \"#utility.yul\":32654:32688   */\n      tag_1020\n        /* \"#utility.yul\":32663:32687   */\n      tag_1021\n        /* \"#utility.yul\":32681:32686   */\n      dup5\n        /* \"#utility.yul\":32663:32687   */\n      tag_626\n      jump\t// in\n    tag_1021:\n        /* \"#utility.yul\":32654:32688   */\n      tag_681\n      jump\t// in\n    tag_1020:\n        /* \"#utility.yul\":32636:32689   */\n      tag_626\n      jump\t// in\n    tag_1019:\n        /* \"#utility.yul\":32623:32689   */\n      swap1\n      pop\n        /* \"#utility.yul\":32553:32695   */\n      swap2\n      swap1\n      pop\n      jump\t// out\n        /* \"#utility.yul\":32701:32776   */\n    tag_683:\n        /* \"#utility.yul\":32744:32747   */\n      0x00\n        /* \"#utility.yul\":32765:32770   */\n      dup2\n        /* \"#utility.yul\":32758:32770   */\n      swap1\n      pop\n        /* \"#utility.yul\":32701:32776   */\n      swap2\n      swap1\n      pop\n      jump\t// out\n        /* \"#utility.yul\":32782:33051   */\n    tag_684:\n        /* \"#utility.yul\":32892:32931   */\n      tag_1024\n        /* \"#utility.yul\":32923:32930   */\n      dup4\n        /* \"#utility.yul\":32892:32931   */\n      tag_682\n      jump\t// in\n    tag_1024:\n        /* \"#utility.yul\":32953:33044   */\n      tag_1025\n        /* \"#utility.yul\":33002:33043   */\n      tag_1026\n        /* \"#utility.yul\":33026:33042   */\n      dup3\n        /* \"#utility.yul\":33002:33043   */\n      tag_683\n      jump\t// in\n    tag_1026:\n        /* \"#utility.yul\":32994:33000   */\n      dup5\n        /* \"#utility.yul\":32987:32991   */\n      dup5\n        /* \"#utility.yul\":32981:32992   */\n      sload\n        /* \"#utility.yul\":32953:33044   */\n      tag_680\n      jump\t// in\n    tag_1025:\n        /* \"#utility.yul\":32947:32951   */\n      dup3\n        /* \"#utility.yul\":32940:33045   */\n      sstore\n        /* \"#utility.yul\":32858:33051   */\n      pop\n        /* \"#utility.yul\":32782:33051   */\n      pop\n      pop\n      pop\n      jump\t// out\n        /* \"#utility.yul\":33057:33130   */\n    tag_685:\n        /* \"#utility.yul\":33102:33105   */\n      0x00\n        /* \"#utility.yul\":33123:33124   */\n      0x00\n        /* \"#utility.yul\":33116:33124   */\n      swap1\n      pop\n        /* \"#utility.yul\":33057:33130   */\n      swap1\n      jump\t// out\n        /* \"#utility.yul\":33136:33325   */\n    tag_686:\n        /* \"#utility.yul\":33213:33245   */\n      tag_1029\n      tag_685\n      jump\t// in\n    tag_1029:\n        /* \"#utility.yul\":33254:33319   */\n      tag_1030\n        /* \"#utility.yul\":33312:33318   */\n      dup2\n        /* \"#utility.yul\":33304:33310   */\n      dup5\n        /* \"#utility.yul\":33298:33302   */\n      dup5\n        /* \"#utility.yul\":33254:33319   */\n      tag_684\n      jump\t// in\n    tag_1030:\n        /* \"#utility.yul\":33189:33325   */\n      pop\n        /* \"#utility.yul\":33136:33325   */\n      pop\n      pop\n      jump\t// out\n        /* \"#utility.yul\":33331:33517   */\n    tag_687:\n        /* \"#utility.yul\":33391:33511   */\n    tag_1032:\n        /* \"#utility.yul\":33408:33411   */\n      dup2\n        /* \"#utility.yul\":33401:33406   */\n      dup2\n        /* \"#utility.yul\":33398:33412   */\n      lt\n        /* \"#utility.yul\":33391:33511   */\n      iszero\n      tag_1034\n      jumpi\n        /* \"#utility.yul\":33462:33501   */\n      tag_1035\n        /* \"#utility.yul\":33499:33500   */\n      0x00\n        /* \"#utility.yul\":33492:33497   */\n      dup3\n        /* \"#utility.yul\":33462:33501   */\n      tag_686\n      jump\t// in\n    tag_1035:\n        /* \"#utility.yul\":33435:33436   */\n      0x01\n        /* \"#utility.yul\":33428:33433   */\n      dup2\n        /* \"#utility.yul\":33424:33437   */\n      add\n        /* \"#utility.yul\":33415:33437   */\n      swap1\n      pop\n        /* \"#utility.yul\":33391:33511   */\n      jump(tag_1032)\n    tag_1034:\n        /* \"#utility.yul\":33331:33517   */\n      pop\n      pop\n      jump\t// out\n        /* \"#utility.yul\":33523:34066   */\n    tag_688:\n        /* \"#utility.yul\":33624:33626   */\n      0x1f\n        /* \"#utility.yul\":33619:33622   */\n      dup3\n        /* \"#utility.yul\":33616:33627   */\n      gt\n        /* \"#utility.yul\":33613:34059   */\n      iszero\n      tag_1037\n      jumpi\n        /* \"#utility.yul\":33658:33696   */\n      tag_1038\n        /* \"#utility.yul\":33690:33695   */\n      dup2\n        /* \"#utility.yul\":33658:33696   */\n      tag_677\n      jump\t// in\n    tag_1038:\n        /* \"#utility.yul\":33742:33771   */\n      tag_1039\n        /* \"#utility.yul\":33760:33770   */\n      dup5\n        /* \"#utility.yul\":33742:33771   */\n      tag_678\n      jump\t// in\n    tag_1039:\n        /* \"#utility.yul\":33732:33740   */\n      dup2\n        /* \"#utility.yul\":33728:33772   */\n      add\n        /* \"#utility.yul\":33925:33927   */\n      0x20\n        /* \"#utility.yul\":33913:33923   */\n      dup6\n        /* \"#utility.yul\":33910:33928   */\n      lt\n        /* \"#utility.yul\":33907:33956   */\n      iszero\n      tag_1040\n      jumpi\n        /* \"#utility.yul\":33946:33954   */\n      dup2\n        /* \"#utility.yul\":33931:33954   */\n      swap1\n      pop\n        /* \"#utility.yul\":33907:33956   */\n    tag_1040:\n        /* \"#utility.yul\":33969:34049   */\n      tag_1041\n        /* \"#utility.yul\":34025:34047   */\n      tag_1042\n        /* \"#utility.yul\":34043:34046   */\n      dup6\n        /* \"#utility.yul\":34025:34047   */\n      tag_678\n      jump\t// in\n    tag_1042:\n        /* \"#utility.yul\":34015:34023   */\n      dup4\n        /* \"#utility.yul\":34011:34048   */\n      add\n        /* \"#utility.yul\":33998:34009   */\n      dup3\n        /* \"#utility.yul\":33969:34049   */\n      tag_687\n      jump\t// in\n    tag_1041:\n        /* \"#utility.yul\":33628:34059   */\n      pop\n      pop\n        /* \"#utility.yul\":33613:34059   */\n    tag_1037:\n        /* \"#utility.yul\":33523:34066   */\n      pop\n      pop\n      pop\n      jump\t// out\n        /* \"#utility.yul\":34072:34189   */\n    tag_689:\n        /* \"#utility.yul\":34126:34134   */\n      0x00\n        /* \"#utility.yul\":34176:34181   */\n      dup3\n        /* \"#utility.yul\":34170:34174   */\n      dup3\n        /* \"#utility.yul\":34166:34182   */\n      shr\n        /* \"#utility.yul\":34145:34182   */\n      swap1\n      pop\n        /* \"#utility.yul\":34072:34189   */\n      swap3\n      swap2\n      pop\n      pop\n      jump\t// out\n        /* \"#utility.yul\":34195:34364   */\n    tag_690:\n        /* \"#utility.yul\":34239:34245   */\n      0x00\n        /* \"#utility.yul\":34272:34323   */\n      tag_1045\n        /* \"#utility.yul\":34320:34321   */\n      0x00\n        /* \"#utility.yul\":34316:34322   */\n      not\n        /* \"#utility.yul\":34308:34313   */\n      dup5\n        /* \"#utility.yul\":34305:34306   */\n      0x08\n        /* \"#utility.yul\":34301:34314   */\n      mul\n        /* \"#utility.yul\":34272:34323   */\n      tag_689\n      jump\t// in\n    tag_1045:\n        /* \"#utility.yul\":34268:34324   */\n      not\n        /* \"#utility.yul\":34353:34357   */\n      dup1\n        /* \"#utility.yul\":34347:34351   */\n      dup4\n        /* \"#utility.yul\":34343:34358   */\n      and\n        /* \"#utility.yul\":34333:34358   */\n      swap2\n      pop\n        /* \"#utility.yul\":34246:34364   */\n      pop\n        /* \"#utility.yul\":34195:34364   */\n      swap3\n      swap2\n      pop\n      pop\n      jump\t// out\n        /* \"#utility.yul\":34369:34664   */\n    tag_691:\n        /* \"#utility.yul\":34445:34449   */\n      0x00\n        /* \"#utility.yul\":34591:34620   */\n      tag_1047\n        /* \"#utility.yul\":34616:34619   */\n      dup4\n        /* \"#utility.yul\":34610:34614   */\n      dup4\n        /* \"#utility.yul\":34591:34620   */\n      tag_690\n      jump\t// in\n    tag_1047:\n        /* \"#utility.yul\":34583:34620   */\n      swap2\n      pop\n        /* \"#utility.yul\":34653:34656   */\n      dup3\n        /* \"#utility.yul\":34650:34651   */\n      0x02\n        /* \"#utility.yul\":34646:34657   */\n      mul\n        /* \"#utility.yul\":34640:34644   */\n      dup3\n        /* \"#utility.yul\":34637:34658   */\n      or\n        /* \"#utility.yul\":34629:34658   */\n      swap1\n      pop\n        /* \"#utility.yul\":34369:34664   */\n      swap3\n      swap2\n      pop\n      pop\n      jump\t// out\n        /* \"#utility.yul\":34669:36064   */\n    tag_364:\n        /* \"#utility.yul\":34786:34823   */\n      tag_1049\n        /* \"#utility.yul\":34819:34822   */\n      dup3\n        /* \"#utility.yul\":34786:34823   */\n      tag_633\n      jump\t// in\n    tag_1049:\n        /* \"#utility.yul\":34888:34906   */\n      0xffffffffffffffff\n        /* \"#utility.yul\":34880:34886   */\n      dup2\n        /* \"#utility.yul\":34877:34907   */\n      gt\n        /* \"#utility.yul\":34874:34930   */\n      iszero\n      tag_1050\n      jumpi\n        /* \"#utility.yul\":34910:34928   */\n      tag_1051\n      tag_202\n      jump\t// in\n    tag_1051:\n        /* \"#utility.yul\":34874:34930   */\n    tag_1050:\n        /* \"#utility.yul\":34954:34992   */\n      tag_1052\n        /* \"#utility.yul\":34986:34990   */\n      dup3\n        /* \"#utility.yul\":34980:34991   */\n      sload\n        /* \"#utility.yul\":34954:34992   */\n      tag_182\n      jump\t// in\n    tag_1052:\n        /* \"#utility.yul\":35039:35106   */\n      tag_1053\n        /* \"#utility.yul\":35099:35105   */\n      dup3\n        /* \"#utility.yul\":35091:35097   */\n      dup3\n        /* \"#utility.yul\":35085:35089   */\n      dup6\n        /* \"#utility.yul\":35039:35106   */\n      tag_688\n      jump\t// in\n    tag_1053:\n        /* \"#utility.yul\":35133:35134   */\n      0x00\n        /* \"#utility.yul\":35157:35161   */\n      0x20\n        /* \"#utility.yul\":35144:35161   */\n      swap1\n      pop\n        /* \"#utility.yul\":35189:35191   */\n      0x1f\n        /* \"#utility.yul\":35181:35187   */\n      dup4\n        /* \"#utility.yul\":35178:35192   */\n      gt\n        /* \"#utility.yul\":35206:35207   */\n      0x01\n        /* \"#utility.yul\":35201:35819   */\n      dup2\n      eq\n      tag_1055\n      jumpi\n        /* \"#utility.yul\":35863:35864   */\n      0x00\n        /* \"#utility.yul\":35880:35886   */\n      dup5\n        /* \"#utility.yul\":35877:35954   */\n      iszero\n      tag_1056\n      jumpi\n        /* \"#utility.yul\":35929:35938   */\n      dup3\n        /* \"#utility.yul\":35924:35927   */\n      dup8\n        /* \"#utility.yul\":35920:35939   */\n      add\n        /* \"#utility.yul\":35914:35940   */\n      mload\n        /* \"#utility.yul\":35905:35940   */\n      swap1\n      pop\n        /* \"#utility.yul\":35877:35954   */\n    tag_1056:\n        /* \"#utility.yul\":35980:36047   */\n      tag_1057\n        /* \"#utility.yul\":36040:36046   */\n      dup6\n        /* \"#utility.yul\":36033:36038   */\n      dup3\n        /* \"#utility.yul\":35980:36047   */\n      tag_691\n      jump\t// in\n    tag_1057:\n        /* \"#utility.yul\":35974:35978   */\n      dup7\n        /* \"#utility.yul\":35967:36048   */\n      sstore\n        /* \"#utility.yul\":35836:36058   */\n      pop\n        /* \"#utility.yul\":35171:36058   */\n      jump(tag_1054)\n        /* \"#utility.yul\":35201:35819   */\n    tag_1055:\n        /* \"#utility.yul\":35253:35257   */\n      0x1f\n        /* \"#utility.yul\":35249:35258   */\n      not\n        /* \"#utility.yul\":35241:35247   */\n      dup5\n        /* \"#utility.yul\":35237:35259   */\n      and\n        /* \"#utility.yul\":35287:35324   */\n      tag_1058\n        /* \"#utility.yul\":35319:35323   */\n      dup7\n        /* \"#utility.yul\":35287:35324   */\n      tag_677\n      jump\t// in\n    tag_1058:\n        /* \"#utility.yul\":35346:35347   */\n      0x00\n        /* \"#utility.yul\":35360:35568   */\n    tag_1059:\n        /* \"#utility.yul\":35374:35381   */\n      dup3\n        /* \"#utility.yul\":35371:35372   */\n      dup2\n        /* \"#utility.yul\":35368:35382   */\n      lt\n        /* \"#utility.yul\":35360:35568   */\n      iszero\n      tag_1061\n      jumpi\n        /* \"#utility.yul\":35453:35462   */\n      dup5\n        /* \"#utility.yul\":35448:35451   */\n      dup10\n        /* \"#utility.yul\":35444:35463   */\n      add\n        /* \"#utility.yul\":35438:35464   */\n      mload\n        /* \"#utility.yul\":35430:35436   */\n      dup3\n        /* \"#utility.yul\":35423:35465   */\n      sstore\n        /* \"#utility.yul\":35504:35505   */\n      0x01\n        /* \"#utility.yul\":35496:35502   */\n      dup3\n        /* \"#utility.yul\":35492:35506   */\n      add\n        /* \"#utility.yul\":35482:35506   */\n      swap2\n      pop\n        /* \"#utility.yul\":35551:35553   */\n      0x20\n        /* \"#utility.yul\":35540:35549   */\n      dup6\n        /* \"#utility.yul\":35536:35554   */\n      add\n        /* \"#utility.yul\":35523:35554   */\n      swap5\n      pop\n        /* \"#utility.yul\":35397:35401   */\n      0x20\n        /* \"#utility.yul\":35394:35395   */\n      dup2\n        /* \"#utility.yul\":35390:35402   */\n      add\n        /* \"#utility.yul\":35385:35402   */\n      swap1\n      pop\n        /* \"#utility.yul\":35360:35568   */\n      jump(tag_1059)\n    tag_1061:\n        /* \"#utility.yul\":35596:35602   */\n      dup7\n        /* \"#utility.yul\":35587:35594   */\n      dup4\n        /* \"#utility.yul\":35584:35603   */\n      lt\n        /* \"#utility.yul\":35581:35760   */\n      iszero\n      tag_1062\n      jumpi\n        /* \"#utility.yul\":35654:35663   */\n      dup5\n        /* \"#utility.yul\":35649:35652   */\n      dup10\n        /* \"#utility.yul\":35645:35664   */\n      add\n        /* \"#utility.yul\":35639:35665   */\n      mload\n        /* \"#utility.yul\":35697:35745   */\n      tag_1063\n        /* \"#utility.yul\":35739:35743   */\n      0x1f\n        /* \"#utility.yul\":35731:35737   */\n      dup10\n        /* \"#utility.yul\":35727:35744   */\n      and\n        /* \"#utility.yul\":35716:35725   */\n      dup3\n        /* \"#utility.yul\":35697:35745   */\n      tag_690\n      jump\t// in\n    tag_1063:\n        /* \"#utility.yul\":35689:35695   */\n      dup4\n        /* \"#utility.yul\":35682:35746   */\n      sstore\n        /* \"#utility.yul\":35604:35760   */\n      pop\n        /* \"#utility.yul\":35581:35760   */\n    tag_1062:\n        /* \"#utility.yul\":35806:35807   */\n      0x01\n        /* \"#utility.yul\":35802:35803   */\n      0x02\n        /* \"#utility.yul\":35794:35800   */\n      dup9\n        /* \"#utility.yul\":35790:35804   */\n      mul\n        /* \"#utility.yul\":35786:35808   */\n      add\n        /* \"#utility.yul\":35780:35784   */\n      dup9\n        /* \"#utility.yul\":35773:35809   */\n      sstore\n        /* \"#utility.yul\":35208:35819   */\n      pop\n      pop\n      pop\n        /* \"#utility.yul\":35171:36058   */\n    tag_1054:\n      pop\n        /* \"#utility.yul\":34761:36064   */\n      pop\n      pop\n      pop\n        /* \"#utility.yul\":34669:36064   */\n      pop\n      pop\n      jump\t// out\n        /* \"#utility.yul\":36070:36210   */\n    tag_692:\n        /* \"#utility.yul\":36118:36122   */\n      0x00\n        /* \"#utility.yul\":36141:36144   */\n      dup2\n        /* \"#utility.yul\":36133:36144   */\n      swap1\n      pop\n        /* \"#utility.yul\":36164:36167   */\n      dup2\n        /* \"#utility.yul\":36161:36162   */\n      0x00\n        /* \"#utility.yul\":36154:36168   */\n      mstore\n        /* \"#utility.yul\":36198:36202   */\n      0x20\n        /* \"#utility.yul\":36195:36196   */\n      0x00\n        /* \"#utility.yul\":36185:36203   */\n      keccak256\n        /* \"#utility.yul\":36177:36203   */\n      swap1\n      pop\n        /* \"#utility.yul\":36070:36210   */\n      swap2\n      swap1\n      pop\n      jump\t// out\n        /* \"#utility.yul\":36216:36757   */\n    tag_693:\n        /* \"#utility.yul\":36316:36318   */\n      0x1f\n        /* \"#utility.yul\":36311:36314   */\n      dup3\n        /* \"#utility.yul\":36308:36319   */\n      gt\n        /* \"#utility.yul\":36305:36750   */\n      iszero\n      tag_1066\n      jumpi\n        /* \"#utility.yul\":36350:36387   */\n      tag_1067\n        /* \"#utility.yul\":36381:36386   */\n      dup2\n        /* \"#utility.yul\":36350:36387   */\n      tag_692\n      jump\t// in\n    tag_1067:\n        /* \"#utility.yul\":36433:36462   */\n      tag_1068\n        /* \"#utility.yul\":36451:36461   */\n      dup5\n        /* \"#utility.yul\":36433:36462   */\n      tag_678\n      jump\t// in\n    tag_1068:\n        /* \"#utility.yul\":36423:36431   */\n      dup2\n        /* \"#utility.yul\":36419:36463   */\n      add\n        /* \"#utility.yul\":36616:36618   */\n      0x20\n        /* \"#utility.yul\":36604:36614   */\n      dup6\n        /* \"#utility.yul\":36601:36619   */\n      lt\n        /* \"#utility.yul\":36598:36647   */\n      iszero\n      tag_1069\n      jumpi\n        /* \"#utility.yul\":36637:36645   */\n      dup2\n        /* \"#utility.yul\":36622:36645   */\n      swap1\n      pop\n        /* \"#utility.yul\":36598:36647   */\n    tag_1069:\n        /* \"#utility.yul\":36660:36740   */\n      tag_1070\n        /* \"#utility.yul\":36716:36738   */\n      tag_1071\n        /* \"#utility.yul\":36734:36737   */\n      dup6\n        /* \"#utility.yul\":36716:36738   */\n      tag_678\n      jump\t// in\n    tag_1071:\n        /* \"#utility.yul\":36706:36714   */\n      dup4\n        /* \"#utility.yul\":36702:36739   */\n      add\n        /* \"#utility.yul\":36689:36700   */\n      dup3\n        /* \"#utility.yul\":36660:36740   */\n      tag_687\n      jump\t// in\n    tag_1070:\n        /* \"#utility.yul\":36320:36750   */\n      pop\n      pop\n        /* \"#utility.yul\":36305:36750   */\n    tag_1066:\n        /* \"#utility.yul\":36216:36757   */\n      pop\n      pop\n      pop\n      jump\t// out\n        /* \"#utility.yul\":36763:38153   */\n    tag_366:\n        /* \"#utility.yul\":36878:36914   */\n      tag_1073\n        /* \"#utility.yul\":36910:36913   */\n      dup3\n        /* \"#utility.yul\":36878:36914   */\n      tag_637\n      jump\t// in\n    tag_1073:\n        /* \"#utility.yul\":36979:36997   */\n      0xffffffffffffffff\n        /* \"#utility.yul\":36971:36977   */\n      dup2\n        /* \"#utility.yul\":36968:36998   */\n      gt\n        /* \"#utility.yul\":36965:37021   */\n      iszero\n      tag_1074\n      jumpi\n        /* \"#utility.yul\":37001:37019   */\n      tag_1075\n      tag_202\n      jump\t// in\n    tag_1075:\n        /* \"#utility.yul\":36965:37021   */\n    tag_1074:\n        /* \"#utility.yul\":37045:37083   */\n      tag_1076\n        /* \"#utility.yul\":37077:37081   */\n      dup3\n        /* \"#utility.yul\":37071:37082   */\n      sload\n        /* \"#utility.yul\":37045:37083   */\n      tag_182\n      jump\t// in\n    tag_1076:\n        /* \"#utility.yul\":37130:37196   */\n      tag_1077\n        /* \"#utility.yul\":37189:37195   */\n      dup3\n        /* \"#utility.yul\":37181:37187   */\n      dup3\n        /* \"#utility.yul\":37175:37179   */\n      dup6\n        /* \"#utility.yul\":37130:37196   */\n      tag_693\n      jump\t// in\n    tag_1077:\n        /* \"#utility.yul\":37223:37224   */\n      0x00\n        /* \"#utility.yul\":37247:37251   */\n      0x20\n        /* \"#utility.yul\":37234:37251   */\n      swap1\n      pop\n        /* \"#utility.yul\":37279:37281   */\n      0x1f\n        /* \"#utility.yul\":37271:37277   */\n      dup4\n        /* \"#utility.yul\":37268:37282   */\n      gt\n        /* \"#utility.yul\":37296:37297   */\n      0x01\n        /* \"#utility.yul\":37291:37908   */\n      dup2\n      eq\n      tag_1079\n      jumpi\n        /* \"#utility.yul\":37952:37953   */\n      0x00\n        /* \"#utility.yul\":37969:37975   */\n      dup5\n        /* \"#utility.yul\":37966:38043   */\n      iszero\n      tag_1080\n      jumpi\n        /* \"#utility.yul\":38018:38027   */\n      dup3\n        /* \"#utility.yul\":38013:38016   */\n      dup8\n        /* \"#utility.yul\":38009:38028   */\n      add\n        /* \"#utility.yul\":38003:38029   */\n      mload\n        /* \"#utility.yul\":37994:38029   */\n      swap1\n      pop\n        /* \"#utility.yul\":37966:38043   */\n    tag_1080:\n        /* \"#utility.yul\":38069:38136   */\n      tag_1081\n        /* \"#utility.yul\":38129:38135   */\n      dup6\n        /* \"#utility.yul\":38122:38127   */\n      dup3\n        /* \"#utility.yul\":38069:38136   */\n      tag_691\n      jump\t// in\n    tag_1081:\n        /* \"#utility.yul\":38063:38067   */\n      dup7\n        /* \"#utility.yul\":38056:38137   */\n      sstore\n        /* \"#utility.yul\":37925:38147   */\n      pop\n        /* \"#utility.yul\":37261:38147   */\n      jump(tag_1078)\n        /* \"#utility.yul\":37291:37908   */\n    tag_1079:\n        /* \"#utility.yul\":37343:37347   */\n      0x1f\n        /* \"#utility.yul\":37339:37348   */\n      not\n        /* \"#utility.yul\":37331:37337   */\n      dup5\n        /* \"#utility.yul\":37327:37349   */\n      and\n        /* \"#utility.yul\":37377:37413   */\n      tag_1082\n        /* \"#utility.yul\":37408:37412   */\n      dup7\n        /* \"#utility.yul\":37377:37413   */\n      tag_692\n      jump\t// in\n    tag_1082:\n        /* \"#utility.yul\":37435:37436   */\n      0x00\n        /* \"#utility.yul\":37449:37657   */\n    tag_1083:\n        /* \"#utility.yul\":37463:37470   */\n      dup3\n        /* \"#utility.yul\":37460:37461   */\n      dup2\n        /* \"#utility.yul\":37457:37471   */\n      lt\n        /* \"#utility.yul\":37449:37657   */\n      iszero\n      tag_1085\n      jumpi\n        /* \"#utility.yul\":37542:37551   */\n      dup5\n        /* \"#utility.yul\":37537:37540   */\n      dup10\n        /* \"#utility.yul\":37533:37552   */\n      add\n        /* \"#utility.yul\":37527:37553   */\n      mload\n        /* \"#utility.yul\":37519:37525   */\n      dup3\n        /* \"#utility.yul\":37512:37554   */\n      sstore\n        /* \"#utility.yul\":37593:37594   */\n      0x01\n        /* \"#utility.yul\":37585:37591   */\n      dup3\n        /* \"#utility.yul\":37581:37595   */\n      add\n        /* \"#utility.yul\":37571:37595   */\n      swap2\n      pop\n        /* \"#utility.yul\":37640:37642   */\n      0x20\n        /* \"#utility.yul\":37629:37638   */\n      dup6\n        /* \"#utility.yul\":37625:37643   */\n      add\n        /* \"#utility.yul\":37612:37643   */\n      swap5\n      pop\n        /* \"#utility.yul\":37486:37490   */\n      0x20\n        /* \"#utility.yul\":37483:37484   */\n      dup2\n        /* \"#utility.yul\":37479:37491   */\n      add\n        /* \"#utility.yul\":37474:37491   */\n      swap1\n      pop\n        /* \"#utility.yul\":37449:37657   */\n      jump(tag_1083)\n    tag_1085:\n        /* \"#utility.yul\":37685:37691   */\n      dup7\n        /* \"#utility.yul\":37676:37683   */\n      dup4\n        /* \"#utility.yul\":37673:37692   */\n      lt\n        /* \"#utility.yul\":37670:37849   */\n      iszero\n      tag_1086\n      jumpi\n        /* \"#utility.yul\":37743:37752   */\n      dup5\n        /* \"#utility.yul\":37738:37741   */\n      dup10\n        /* \"#utility.yul\":37734:37753   */\n      add\n        /* \"#utility.yul\":37728:37754   */\n      mload\n        /* \"#utility.yul\":37786:37834   */\n      tag_1087\n        /* \"#utility.yul\":37828:37832   */\n      0x1f\n        /* \"#utility.yul\":37820:37826   */\n      dup10\n        /* \"#utility.yul\":37816:37833   */\n      and\n        /* \"#utility.yul\":37805:37814   */\n      dup3\n        /* \"#utility.yul\":37786:37834   */\n      tag_690\n      jump\t// in\n    tag_1087:\n        /* \"#utility.yul\":37778:37784   */\n      dup4\n        /* \"#utility.yul\":37771:37835   */\n      sstore\n        /* \"#utility.yul\":37693:37849   */\n      pop\n        /* \"#utility.yul\":37670:37849   */\n    tag_1086:\n        /* \"#utility.yul\":37895:37896   */\n      0x01\n        /* \"#utility.yul\":37891:37892   */\n      0x02\n        /* \"#utility.yul\":37883:37889   */\n      dup9\n        /* \"#utility.yul\":37879:37893   */\n      mul\n        /* \"#utility.yul\":37875:37897   */\n      add\n        /* \"#utility.yul\":37869:37873   */\n      dup9\n        /* \"#utility.yul\":37862:37898   */\n      sstore\n        /* \"#utility.yul\":37298:37908   */\n      pop\n      pop\n      pop\n        /* \"#utility.yul\":37261:38147   */\n    tag_1078:\n      pop\n        /* \"#utility.yul\":36853:38153   */\n      pop\n      pop\n      pop\n        /* \"#utility.yul\":36763:38153   */\n      pop\n      pop\n      jump\t// out\n        /* \"#utility.yul\":38159:38491   */\n    tag_373:\n        /* \"#utility.yul\":38280:38284   */\n      0x00\n        /* \"#utility.yul\":38318:38320   */\n      0x40\n        /* \"#utility.yul\":38307:38316   */\n      dup3\n        /* \"#utility.yul\":38303:38321   */\n      add\n        /* \"#utility.yul\":38295:38321   */\n      swap1\n      pop\n        /* \"#utility.yul\":38331:38402   */\n      tag_1089\n        /* \"#utility.yul\":38399:38400   */\n      0x00\n        /* \"#utility.yul\":38388:38397   */\n      dup4\n        /* \"#utility.yul\":38384:38401   */\n      add\n        /* \"#utility.yul\":38375:38381   */\n      dup6\n        /* \"#utility.yul\":38331:38402   */\n      tag_647\n      jump\t// in\n    tag_1089:\n        /* \"#utility.yul\":38412:38484   */\n      tag_1090\n        /* \"#utility.yul\":38480:38482   */\n      0x20\n        /* \"#utility.yul\":38469:38478   */\n      dup4\n        /* \"#utility.yul\":38465:38483   */\n      add\n        /* \"#utility.yul\":38456:38462   */\n      dup5\n        /* \"#utility.yul\":38412:38484   */\n      tag_647\n      jump\t// in\n    tag_1090:\n        /* \"#utility.yul\":38159:38491   */\n      swap4\n      swap3\n      pop\n      pop\n      pop\n      jump\t// out\n        /* \"#utility.yul\":38497:38665   */\n    tag_694:\n        /* \"#utility.yul\":38637:38657   */\n      0x496e76616c69642074696d652072616e67650000000000000000000000000000\n        /* \"#utility.yul\":38633:38634   */\n      0x00\n        /* \"#utility.yul\":38625:38631   */\n      dup3\n        /* \"#utility.yul\":38621:38635   */\n      add\n        /* \"#utility.yul\":38614:38658   */\n      mstore\n        /* \"#utility.yul\":38497:38665   */\n      pop\n      jump\t// out\n        /* \"#utility.yul\":38671:39037   */\n    tag_695:\n        /* \"#utility.yul\":38813:38816   */\n      0x00\n        /* \"#utility.yul\":38834:38901   */\n      tag_1093\n        /* \"#utility.yul\":38898:38900   */\n      0x12\n        /* \"#utility.yul\":38893:38896   */\n      dup4\n        /* \"#utility.yul\":38834:38901   */\n      tag_661\n      jump\t// in\n    tag_1093:\n        /* \"#utility.yul\":38827:38901   */\n      swap2\n      pop\n        /* \"#utility.yul\":38910:39003   */\n      tag_1094\n        /* \"#utility.yul\":38999:39002   */\n      dup3\n        /* \"#utility.yul\":38910:39003   */\n      tag_694\n      jump\t// in\n    tag_1094:\n        /* \"#utility.yul\":39028:39030   */\n      0x20\n        /* \"#utility.yul\":39023:39026   */\n      dup3\n        /* \"#utility.yul\":39019:39031   */\n      add\n        /* \"#utility.yul\":39012:39031   */\n      swap1\n      pop\n        /* \"#utility.yul\":38671:39037   */\n      swap2\n      swap1\n      pop\n      jump\t// out\n        /* \"#utility.yul\":39043:39462   */\n    tag_385:\n        /* \"#utility.yul\":39209:39213   */\n      0x00\n        /* \"#utility.yul\":39247:39249   */\n      0x20\n        /* \"#utility.yul\":39236:39245   */\n      dup3\n        /* \"#utility.yul\":39232:39250   */\n      add\n        /* \"#utility.yul\":39224:39250   */\n      swap1\n      pop\n        /* \"#utility.yul\":39296:39305   */\n      dup2\n        /* \"#utility.yul\":39290:39294   */\n      dup2\n        /* \"#utility.yul\":39286:39306   */\n      sub\n        /* \"#utility.yul\":39282:39283   */\n      0x00\n        /* \"#utility.yul\":39271:39280   */\n      dup4\n        /* \"#utility.yul\":39267:39284   */\n      add\n        /* \"#utility.yul\":39260:39307   */\n      mstore\n        /* \"#utility.yul\":39324:39455   */\n      tag_1096\n        /* \"#utility.yul\":39450:39454   */\n      dup2\n        /* \"#utility.yul\":39324:39455   */\n      tag_695\n      jump\t// in\n    tag_1096:\n        /* \"#utility.yul\":39316:39455   */\n      swap1\n      pop\n        /* \"#utility.yul\":39043:39462   */\n      swap2\n      swap1\n      pop\n      jump\t// out\n        /* \"#utility.yul\":39468:39631   */\n    tag_696:\n        /* \"#utility.yul\":39608:39623   */\n      0x496e76616c69642072616e676500000000000000000000000000000000000000\n        /* \"#utility.yul\":39604:39605   */\n      0x00\n        /* \"#utility.yul\":39596:39602   */\n      dup3\n        /* \"#utility.yul\":39592:39606   */\n      add\n        /* \"#utility.yul\":39585:39624   */\n      mstore\n        /* \"#utility.yul\":39468:39631   */\n      pop\n      jump\t// out\n        /* \"#utility.yul\":39637:40003   */\n    tag_697:\n        /* \"#utility.yul\":39779:39782   */\n      0x00\n        /* \"#utility.yul\":39800:39867   */\n      tag_1099\n        /* \"#utility.yul\":39864:39866   */\n      0x0d\n        /* \"#utility.yul\":39859:39862   */\n      dup4\n        /* \"#utility.yul\":39800:39867   */\n      tag_661\n      jump\t// in\n    tag_1099:\n        /* \"#utility.yul\":39793:39867   */\n      swap2\n      pop\n        /* \"#utility.yul\":39876:39969   */\n      tag_1100\n        /* \"#utility.yul\":39965:39968   */\n      dup3\n        /* \"#utility.yul\":39876:39969   */\n      tag_696\n      jump\t// in\n    tag_1100:\n        /* \"#utility.yul\":39994:39996   */\n      0x20\n        /* \"#utility.yul\":39989:39992   */\n      dup3\n        /* \"#utility.yul\":39985:39997   */\n      add\n        /* \"#utility.yul\":39978:39997   */\n      swap1\n      pop\n        /* \"#utility.yul\":39637:40003   */\n      swap2\n      swap1\n      pop\n      jump\t// out\n        /* \"#utility.yul\":40009:40428   */\n    tag_483:\n        /* \"#utility.yul\":40175:40179   */\n      0x00\n        /* \"#utility.yul\":40213:40215   */\n      0x20\n        /* \"#utility.yul\":40202:40211   */\n      dup3\n        /* \"#utility.yul\":40198:40216   */\n      add\n        /* \"#utility.yul\":40190:40216   */\n      swap1\n      pop\n        /* \"#utility.yul\":40262:40271   */\n      dup2\n        /* \"#utility.yul\":40256:40260   */\n      dup2\n        /* \"#utility.yul\":40252:40272   */\n      sub\n        /* \"#utility.yul\":40248:40249   */\n      0x00\n        /* \"#utility.yul\":40237:40246   */\n      dup4\n        /* \"#utility.yul\":40233:40250   */\n      add\n        /* \"#utility.yul\":40226:40273   */\n      mstore\n        /* \"#utility.yul\":40290:40421   */\n      tag_1102\n        /* \"#utility.yul\":40416:40420   */\n      dup2\n        /* \"#utility.yul\":40290:40421   */\n      tag_697\n      jump\t// in\n    tag_1102:\n        /* \"#utility.yul\":40282:40421   */\n      swap1\n      pop\n        /* \"#utility.yul\":40009:40428   */\n      swap2\n      swap1\n      pop\n      jump\t// out\n        /* \"#utility.yul\":40434:40607   */\n    tag_698:\n        /* \"#utility.yul\":40574:40599   */\n      0x456e6420696e646578206f7574206f6620626f756e6473000000000000000000\n        /* \"#utility.yul\":40570:40571   */\n      0x00\n        /* \"#utility.yul\":40562:40568   */\n      dup3\n        /* \"#utility.yul\":40558:40572   */\n      add\n        /* \"#utility.yul\":40551:40600   */\n      mstore\n        /* \"#utility.yul\":40434:40607   */\n      pop\n      jump\t// out\n        /* \"#utility.yul\":40613:40979   */\n    tag_699:\n        /* \"#utility.yul\":40755:40758   */\n      0x00\n        /* \"#utility.yul\":40776:40843   */\n      tag_1105\n        /* \"#utility.yul\":40840:40842   */\n      0x17\n        /* \"#utility.yul\":40835:40838   */\n      dup4\n        /* \"#utility.yul\":40776:40843   */\n      tag_661\n      jump\t// in\n    tag_1105:\n        /* \"#utility.yul\":40769:40843   */\n      swap2\n      pop\n        /* \"#utility.yul\":40852:40945   */\n      tag_1106\n        /* \"#utility.yul\":40941:40944   */\n      dup3\n        /* \"#utility.yul\":40852:40945   */\n      tag_698\n      jump\t// in\n    tag_1106:\n        /* \"#utility.yul\":40970:40972   */\n      0x20\n        /* \"#utility.yul\":40965:40968   */\n      dup3\n        /* \"#utility.yul\":40961:40973   */\n      add\n        /* \"#utility.yul\":40954:40973   */\n      swap1\n      pop\n        /* \"#utility.yul\":40613:40979   */\n      swap2\n      swap1\n      pop\n      jump\t// out\n        /* \"#utility.yul\":40985:41404   */\n    tag_486:\n        /* \"#utility.yul\":41151:41155   */\n      0x00\n        /* \"#utility.yul\":41189:41191   */\n      0x20\n        /* \"#utility.yul\":41178:41187   */\n      dup3\n        /* \"#utility.yul\":41174:41192   */\n      add\n        /* \"#utility.yul\":41166:41192   */\n      swap1\n      pop\n        /* \"#utility.yul\":41238:41247   */\n      dup2\n        /* \"#utility.yul\":41232:41236   */\n      dup2\n        /* \"#utility.yul\":41228:41248   */\n      sub\n        /* \"#utility.yul\":41224:41225   */\n      0x00\n        /* \"#utility.yul\":41213:41222   */\n      dup4\n        /* \"#utility.yul\":41209:41226   */\n      add\n        /* \"#utility.yul\":41202:41249   */\n      mstore\n        /* \"#utility.yul\":41266:41397   */\n      tag_1108\n        /* \"#utility.yul\":41392:41396   */\n      dup2\n        /* \"#utility.yul\":41266:41397   */\n      tag_699\n      jump\t// in\n    tag_1108:\n        /* \"#utility.yul\":41258:41397   */\n      swap1\n      pop\n        /* \"#utility.yul\":40985:41404   */\n      swap2\n      swap1\n      pop\n      jump\t// out\n        /* \"#utility.yul\":41410:41601   */\n    tag_489:\n        /* \"#utility.yul\":41450:41453   */\n      0x00\n        /* \"#utility.yul\":41469:41489   */\n      tag_1110\n        /* \"#utility.yul\":41487:41488   */\n      dup3\n        /* \"#utility.yul\":41469:41489   */\n      tag_626\n      jump\t// in\n    tag_1110:\n        /* \"#utility.yul\":41464:41489   */\n      swap2\n      pop\n        /* \"#utility.yul\":41503:41523   */\n      tag_1111\n        /* \"#utility.yul\":41521:41522   */\n      dup4\n        /* \"#utility.yul\":41503:41523   */\n      tag_626\n      jump\t// in\n    tag_1111:\n        /* \"#utility.yul\":41498:41523   */\n      swap3\n      pop\n        /* \"#utility.yul\":41546:41547   */\n      dup3\n        /* \"#utility.yul\":41543:41544   */\n      dup3\n        /* \"#utility.yul\":41539:41548   */\n      add\n        /* \"#utility.yul\":41532:41548   */\n      swap1\n      pop\n        /* \"#utility.yul\":41567:41570   */\n      dup1\n        /* \"#utility.yul\":41564:41565   */\n      dup3\n        /* \"#utility.yul\":41561:41571   */\n      gt\n        /* \"#utility.yul\":41558:41594   */\n      iszero\n      tag_1112\n      jumpi\n        /* \"#utility.yul\":41574:41592   */\n      tag_1113\n      tag_667\n      jump\t// in\n    tag_1113:\n        /* \"#utility.yul\":41558:41594   */\n    tag_1112:\n        /* \"#utility.yul\":41410:41601   */\n      swap3\n      swap2\n      pop\n      pop\n      jump\t// out\n        /* \"#utility.yul\":41607:41774   */\n    tag_700:\n        /* \"#utility.yul\":41747:41766   */\n      0x496e76616c6964206c6f6720696e646578000000000000000000000000000000\n        /* \"#utility.yul\":41743:41744   */\n      0x00\n        /* \"#utility.yul\":41735:41741   */\n      dup3\n        /* \"#utility.yul\":41731:41745   */\n      add\n        /* \"#utility.yul\":41724:41767   */\n      mstore\n        /* \"#utility.yul\":41607:41774   */\n      pop\n      jump\t// out\n        /* \"#utility.yul\":41780:42146   */\n    tag_701:\n        /* \"#utility.yul\":41922:41925   */\n      0x00\n        /* \"#utility.yul\":41943:42010   */\n      tag_1116\n        /* \"#utility.yul\":42007:42009   */\n      0x11\n        /* \"#utility.yul\":42002:42005   */\n      dup4\n        /* \"#utility.yul\":41943:42010   */\n      tag_661\n      jump\t// in\n    tag_1116:\n        /* \"#utility.yul\":41936:42010   */\n      swap2\n      pop\n        /* \"#utility.yul\":42019:42112   */\n      tag_1117\n        /* \"#utility.yul\":42108:42111   */\n      dup3\n        /* \"#utility.yul\":42019:42112   */\n      tag_700\n      jump\t// in\n    tag_1117:\n        /* \"#utility.yul\":42137:42139   */\n      0x20\n        /* \"#utility.yul\":42132:42135   */\n      dup3\n        /* \"#utility.yul\":42128:42140   */\n      add\n        /* \"#utility.yul\":42121:42140   */\n      swap1\n      pop\n        /* \"#utility.yul\":41780:42146   */\n      swap2\n      swap1\n      pop\n      jump\t// out\n        /* \"#utility.yul\":42152:42571   */\n    tag_535:\n        /* \"#utility.yul\":42318:42322   */\n      0x00\n        /* \"#utility.yul\":42356:42358   */\n      0x20\n        /* \"#utility.yul\":42345:42354   */\n      dup3\n        /* \"#utility.yul\":42341:42359   */\n      add\n        /* \"#utility.yul\":42333:42359   */\n      swap1\n      pop\n        /* \"#utility.yul\":42405:42414   */\n      dup2\n        /* \"#utility.yul\":42399:42403   */\n      dup2\n        /* \"#utility.yul\":42395:42415   */\n      sub\n        /* \"#utility.yul\":42391:42392   */\n      0x00\n        /* \"#utility.yul\":42380:42389   */\n      dup4\n        /* \"#utility.yul\":42376:42393   */\n      add\n        /* \"#utility.yul\":42369:42416   */\n      mstore\n        /* \"#utility.yul\":42433:42564   */\n      tag_1119\n        /* \"#utility.yul\":42559:42563   */\n      dup2\n        /* \"#utility.yul\":42433:42564   */\n      tag_701\n      jump\t// in\n    tag_1119:\n        /* \"#utility.yul\":42425:42564   */\n      swap1\n      pop\n        /* \"#utility.yul\":42152:42571   */\n      swap2\n      swap1\n      pop\n      jump\t// out\n        /* \"#utility.yul\":42577:42909   */\n    tag_604:\n        /* \"#utility.yul\":42698:42702   */\n      0x00\n        /* \"#utility.yul\":42736:42738   */\n      0x40\n        /* \"#utility.yul\":42725:42734   */\n      dup3\n        /* \"#utility.yul\":42721:42739   */\n      add\n        /* \"#utility.yul\":42713:42739   */\n      swap1\n      pop\n        /* \"#utility.yul\":42749:42820   */\n      tag_1121\n        /* \"#utility.yul\":42817:42818   */\n      0x00\n        /* \"#utility.yul\":42806:42815   */\n      dup4\n        /* \"#utility.yul\":42802:42819   */\n      add\n        /* \"#utility.yul\":42793:42799   */\n      dup6\n        /* \"#utility.yul\":42749:42820   */\n      tag_660\n      jump\t// in\n    tag_1121:\n        /* \"#utility.yul\":42830:42902   */\n      tag_1122\n        /* \"#utility.yul\":42898:42900   */\n      0x20\n        /* \"#utility.yul\":42887:42896   */\n      dup4\n        /* \"#utility.yul\":42883:42901   */\n      add\n        /* \"#utility.yul\":42874:42880   */\n      dup5\n        /* \"#utility.yul\":42830:42902   */\n      tag_650\n      jump\t// in\n    tag_1122:\n        /* \"#utility.yul\":42577:42909   */\n      swap4\n      swap3\n      pop\n      pop\n      pop\n      jump\t// out\n\n    auxdata: 0xa26469706673582212205972a4c113e67cbbbf999d04db39ea658f162524a519642d595cfc68a0ed37a964736f6c634300081e0033\n}\n",
				"bytecode": {
					"linkReferences": {},
					"object": "608060405234801561000f575f5ffd5b50604051614808380380614808833981810160405281019061003191906100d5565b8060015f6101000a81548173ffffffffffffffffffffffffffffffffffffffff021916908373ffffffffffffffffffffffffffffffffffffffff16021790555050610100565b5f5ffd5b5f73ffffffffffffffffffffffffffffffffffffffff82169050919050565b5f6100a48261007b565b9050919050565b6100b48161009a565b81146100be575f5ffd5b50565b5f815190506100cf816100ab565b92915050565b5f602082840312156100ea576100e9610077565b5b5f6100f7848285016100c1565b91505092915050565b6146fb8061010d5f395ff3fe608060405234801561000f575f5ffd5b50600436106101cd575f3560e01c806375b238fc11610102578063a9c85164116100a0578063ddaf09291161006f578063ddaf0929146105ee578063e887319a14610623578063ead2b30614610653578063f44006e114610683576101cd565b8063a9c8516414610554578063bd628d2614610584578063c9a9ba51146105a2578063d547741f146105d2576101cd565b8063a217fddf116100dc578063a217fddf146104a2578063a246e46f146104c0578063a2b08f25146104f0578063a393bb3e14610520576101cd565b806375b238fc1461043657806391d1485414610454578063a1c7c1a614610484576101cd565b80632f2ff15d1161016f5780633fbd2b52116101495780633fbd2b521461038a57806344c83b97146103ba57806361b13aa2146103d65780636a82b00b14610406576101cd565b80632f2ff15d1461032257806336568abe1461033e5780633947be521461035a576101cd565b80631c580e1f116101ab5780631c580e1f14610261578063248a9ca31461029157806325c31f04146102c15780632820b656146102f2576101cd565b806301ffc9a7146101d157806305ad65b014610201578063121254a814610231575b5f5ffd5b6101eb60048036038101906101e691906131f4565b6106b3565b6040516101f89190613239565b60405180910390f35b61021b6004803603810190610216919061341b565b61072c565b60405161022891906136cb565b60405180910390f35b61024b600480360381019061024691906136eb565b610d1d565b6040516102589190613754565b60405180910390f35b61027b600480360381019061027691906136eb565b610d60565b60405161028891906136cb565b60405180910390f35b6102ab60048036038101906102a69190613797565b611077565b6040516102b891906137d1565b60405180910390f35b6102db60048036038101906102d691906137ea565b611093565b6040516102e992919061384e565b60405180910390f35b61030c6004803603810190610307919061387c565b61149f565b604051610319919061396b565b60405180910390f35b61033c6004803603810190610337919061398b565b611513565b005b6103586004803603810190610353919061398b565b611535565b005b610374600480360381019061036f91906139c9565b6115b0565b6040516103819190613754565b60405180910390f35b6103a4600480360381019061039f91906139f4565b6115f9565b6040516103b19190613754565b60405180910390f35b6103d460048036038101906103cf9190613abd565b611616565b005b6103f060048036038101906103eb91906139c9565b6119d4565b6040516103fd919061396b565b60405180910390f35b610420600480360381019061041b919061387c565b611a67565b60405161042d9190613754565b60405180910390f35b61043e611a91565b60405161044b91906137d1565b60405180910390f35b61046e6004803603810190610469919061398b565b611ab5565b60405161047b9190613239565b60405180910390f35b61048c611b18565b6040516104999190613b54565b60405180910390f35b6104aa611b3d565b6040516104b791906137d1565b60405180910390f35b6104da60048036038101906104d59190613b6d565b611b43565b6040516104e79190613754565b60405180910390f35b61050a60048036038101906105059190613b6d565b611b6e565b60405161051791906136cb565b60405180910390f35b61053a60048036038101906105359190613b6d565b611f08565b60405161054b959493929190613bab565b60405180910390f35b61056e60048036038101906105699190613bfc565b61241f565b60405161057b9190613754565b60405180910390f35b61058c61244a565b6040516105999190613754565b60405180910390f35b6105bc60048036038101906105b79190613b6d565b612456565b6040516105c991906136cb565b60405180910390f35b6105ec60048036038101906105e7919061398b565b61275b565b005b610608600480360381019061060391906139f4565b61277d565b60405161061a96959493929190613cca565b60405180910390f35b61063d600480360381019061063891906139f4565b6128ef565b60405161064a9190613dc4565b60405180910390f35b61066d600480360381019061066891906139f4565b612b02565b60405161067a919061396b565b60405180910390f35b61069d60048036038101906106989190613bfc565b612b69565b6040516106aa91906136cb565b60405180910390f35b5f7f7965db0b000000000000000000000000000000000000000000000000000000007bffffffffffffffffffffffffffffffffffffffffffffffffffffffff1916827bffffffffffffffffffffffffffffffffffffffffffffffffffffffff19161480610725575061072482612e9f565b5b9050919050565b60605f5f90505f5f90505b6002805490508110156109e5575f6002828154811061075957610758613de4565b5b905f5260205f2090600602016040518060c00160405290815f82015f9054906101000a900473ffffffffffffffffffffffffffffffffffffffff1673ffffffffffffffffffffffffffffffffffffffff1673ffffffffffffffffffffffffffffffffffffffff1681526020016001820180546107d490613e3e565b80601f016020809104026020016040519081016040528092919081815260200182805461080090613e3e565b801561084b5780601f106108225761010080835404028352916020019161084b565b820191905f5260205f20905b81548152906001019060200180831161082e57829003601f168201915b5050505050815260200160028201805461086490613e3e565b80601f016020809104026020016040519081016040528092919081815260200182805461089090613e3e565b80156108db5780601f106108b2576101008083540402835291602001916108db565b820191905f5260205f20905b8154815290600101906020018083116108be57829003601f168201915b50505050508152602001600382015481526020016004820154815260200160058201548152505090505f5f73ffffffffffffffffffffffffffffffffffffffff168973ffffffffffffffffffffffffffffffffffffffff16148061096d57508873ffffffffffffffffffffffffffffffffffffffff16825f015173ffffffffffffffffffffffffffffffffffffffff16145b90505f5f8951148061099057508880519060200120836020015180519060200120145b90505f888460600151101580156109ab575087846060015111155b90508280156109b75750815b80156109c05750805b156109d45785806109d090613e9b565b9650505b505050508080600101915050610737565b508067ffffffffffffffff811115610a00576109ff6132c4565b5b604051908082528060200260200182016040528015610a3957816020015b610a26613146565b815260200190600190039081610a1e5790505b5091505f5f90505f5f90505b600280549050811015610d12575f60028281548110610a6757610a66613de4565b5b905f5260205f2090600602016040518060c00160405290815f82015f9054906101000a900473ffffffffffffffffffffffffffffffffffffffff1673ffffffffffffffffffffffffffffffffffffffff1673ffffffffffffffffffffffffffffffffffffffff168152602001600182018054610ae290613e3e565b80601f0160208091040260200160405190810160405280929190818152602001828054610b0e90613e3e565b8015610b595780601f10610b3057610100808354040283529160200191610b59565b820191905f5260205f20905b815481529060010190602001808311610b3c57829003601f168201915b50505050508152602001600282018054610b7290613e3e565b80601f0160208091040260200160405190810160405280929190818152602001828054610b9e90613e3e565b8015610be95780601f10610bc057610100808354040283529160200191610be9565b820191905f5260205f20905b815481529060010190602001808311610bcc57829003601f168201915b50505050508152602001600382015481526020016004820154815260200160058201548152505090505f5f73ffffffffffffffffffffffffffffffffffffffff168a73ffffffffffffffffffffffffffffffffffffffff161480610c7b57508973ffffffffffffffffffffffffffffffffffffffff16825f015173ffffffffffffffffffffffffffffffffffffffff16145b90505f5f8a511480610c9e57508980519060200120836020015180519060200120145b90505f89846060015110158015610cb9575088846060015111155b9050828015610cc55750815b8015610cce5750805b15610d015783888781518110610ce757610ce6613de4565b5b60200260200101819052508580610cfd90613e9b565b9650505b505050508080600101915050610a45565b505050949350505050565b6004828051602081018201805184825260208301602085012081835280955050505050508181548110610d4e575f80fd5b905f5260205f20015f91509150505481565b60605f600484604051610d739190613f1c565b9081526020016040518091039020805480602002602001604051908101604052809291908181526020018280548015610dc957602002820191905f5260205f20905b815481526020019060010190808311610db5575b505050505090505f815190505f84118015610de357508084105b15610dec578390505b8067ffffffffffffffff811115610e0657610e056132c4565b5b604051908082528060200260200182016040528015610e3f57816020015b610e2c613146565b815260200190600190039081610e245790505b5092505f5f90505b8181101561106e575f838260018651610e609190613f32565b610e6a9190613f32565b81518110610e7b57610e7a613de4565b5b6020026020010151905060028181548110610e9957610e98613de4565b5b905f5260205f2090600602016040518060c00160405290815f82015f9054906101000a900473ffffffffffffffffffffffffffffffffffffffff1673ffffffffffffffffffffffffffffffffffffffff1673ffffffffffffffffffffffffffffffffffffffff168152602001600182018054610f1490613e3e565b80601f0160208091040260200160405190810160405280929190818152602001828054610f4090613e3e565b8015610f8b5780601f10610f6257610100808354040283529160200191610f8b565b820191905f5260205f20905b815481529060010190602001808311610f6e57829003601f168201915b50505050508152602001600282018054610fa490613e3e565b80601f0160208091040260200160405190810160405280929190818152602001828054610fd090613e3e565b801561101b5780601f10610ff25761010080835404028352916020019161101b565b820191905f5260205f20905b815481529060010190602001808311610ffe57829003601f168201915b50505050508152602001600382015481526020016004820154815260200160058201548152505085838151811061105557611054613de4565b5b6020026020010181905250508080600101915050610e47565b50505092915050565b5f5f5f8381526020019081526020015f20600101549050919050565b60605f5f831180156110a6575060648311155b6110e5576040517f08c379a00000000000000000000000000000000000000000000000000000000081526004016110dc90613faf565b60405180910390fd5b5f5f90505f5f90505b6002805490508110156111725787600282815481106111105761110f613de4565b5b905f5260205f20906006020160030154101580156111515750866002828154811061113e5761113d613de4565b5b905f5260205f2090600602016003015411155b1561116557818061116190613e9b565b9250505b80806001019150506110ee565b505f858211611181575f61118e565b858261118d9190613f32565b5b90505f85821161119e57816111a0565b855b905085821193508067ffffffffffffffff8111156111c1576111c06132c4565b5b6040519080825280602002602001820160405280156111fa57816020015b6111e7613146565b8152602001906001900390816111df5790505b5094505f5f90505f5f90505f5f90505b6002805490508110801561121d57508382105b15611490578b6002828154811061123757611236613de4565b5b905f5260205f209060060201600301541015801561127857508a6002828154811061126557611264613de4565b5b905f5260205f2090600602016003015411155b1561147d5789831061146e576002818154811061129857611297613de4565b5b905f5260205f2090600602016040518060c00160405290815f82015f9054906101000a900473ffffffffffffffffffffffffffffffffffffffff1673ffffffffffffffffffffffffffffffffffffffff1673ffffffffffffffffffffffffffffffffffffffff16815260200160018201805461131390613e3e565b80601f016020809104026020016040519081016040528092919081815260200182805461133f90613e3e565b801561138a5780601f106113615761010080835404028352916020019161138a565b820191905f5260205f20905b81548152906001019060200180831161136d57829003601f168201915b505050505081526020016002820180546113a390613e3e565b80601f01602080910402602001604051908101604052809291908181526020018280546113cf90613e3e565b801561141a5780601f106113f15761010080835404028352916020019161141a565b820191905f5260205f20905b8154815290600101906020018083116113fd57829003601f168201915b50505050508152602001600382015481526020016004820154815260200160058201548152505088838151811061145457611453613de4565b5b6020026020010181905250818061146a90613e9b565b9250505b828061147990613e9b565b9350505b808061148890613e9b565b91505061120a565b50505050505094509492505050565b60606004826040516114b19190613f1c565b908152602001604051809103902080548060200260200160405190810160405280929190818152602001828054801561150757602002820191905f5260205f20905b8154815260200190600101908083116114f3575b50505050509050919050565b61151c82611077565b61152581612f08565b61152f8383612f1c565b50505050565b61153d613005565b73ffffffffffffffffffffffffffffffffffffffff168173ffffffffffffffffffffffffffffffffffffffff16146115a1576040517f6697b23200000000000000000000000000000000000000000000000000000000815260040160405180910390fd5b6115ab828261300c565b505050565b5f60035f8373ffffffffffffffffffffffffffffffffffffffff1673ffffffffffffffffffffffffffffffffffffffff1681526020019081526020015f20805490509050919050565b5f60055f8381526020019081526020015f20805490509050919050565b60015f9054906101000a900473ffffffffffffffffffffffffffffffffffffffff1673ffffffffffffffffffffffffffffffffffffffff163373ffffffffffffffffffffffffffffffffffffffff161480611728575060015f9054906101000a900473ffffffffffffffffffffffffffffffffffffffff1673ffffffffffffffffffffffffffffffffffffffff166391d148547fa49807205ce4d355092ef5a8a18f56e8913cf4a201fbe287825b095693c21775336040518363ffffffff1660e01b81526004016116e8929190613fcd565b602060405180830381865afa158015611703573d5f5f3e3d5ffd5b505050506040513d601f19601f82011682018060405250810190611727919061401e565b5b611767576040517f08c379a000000000000000000000000000000000000000000000000000000000815260040161175e90614093565b60405180910390fd5b5f60028054905090505f620151804261178091906140de565b90505f6040518060c001604052808773ffffffffffffffffffffffffffffffffffffffff1681526020018681526020018581526020014281526020014381526020016001436117cf9190613f32565b408152509050600281908060018154018082558091505060019003905f5260205f2090600602015f909190919091505f820151815f015f6101000a81548173ffffffffffffffffffffffffffffffffffffffff021916908373ffffffffffffffffffffffffffffffffffffffff160217905550602082015181600101908161185791906142ae565b50604082015181600201908161186d91906143d5565b50606082015181600301556080820151816004015560a08201518160050155505060035f8773ffffffffffffffffffffffffffffffffffffffff1673ffffffffffffffffffffffffffffffffffffffff1681526020019081526020015f2083908060018154018082558091505060019003905f5260205f20015f90919091909150556004856040516118ff9190613f1c565b908152602001604051809103902083908060018154018082558091505060019003905f5260205f20015f909190919091505560055f8381526020019081526020015f2083908060018154018082558091505060019003905f5260205f20015f9091909190915055846040516119749190613f1c565b60405180910390208673ffffffffffffffffffffffffffffffffffffffff167f2bd016dca1398209e4e532a5c95af48b682c5ed098c20eb0ec41e4b3ac42072442866040516119c49291906144a4565b60405180910390a3505050505050565b606060035f8373ffffffffffffffffffffffffffffffffffffffff1673ffffffffffffffffffffffffffffffffffffffff1681526020019081526020015f20805480602002602001604051908101604052809291908181526020018280548015611a5b57602002820191905f5260205f20905b815481526020019060010190808311611a47575b50505050509050919050565b5f600482604051611a789190613f1c565b9081526020016040518091039020805490509050919050565b7fa49807205ce4d355092ef5a8a18f56e8913cf4a201fbe287825b095693c2177581565b5f5f5f8481526020019081526020015f205f015f8373ffffffffffffffffffffffffffffffffffffffff1673ffffffffffffffffffffffffffffffffffffffff1681526020019081526020015f205f9054906101000a900460ff16905092915050565b60015f9054906101000a900473ffffffffffffffffffffffffffffffffffffffff1681565b5f5f1b81565b6005602052815f5260405f208181548110611b5c575f80fd5b905f5260205f20015f91509150505481565b606081831115611bb3576040517f08c379a0000000000000000000000000000000000000000000000000000000008152600401611baa90614515565b60405180910390fd5b5f5f90505f5f90505b600280549050811015611c40578460028281548110611bde57611bdd613de4565b5b905f5260205f2090600602016003015410158015611c1f57508360028281548110611c0c57611c0b613de4565b5b905f5260205f2090600602016003015411155b15611c33578180611c2f90613e9b565b9250505b8080600101915050611bbc565b508067ffffffffffffffff811115611c5b57611c5a6132c4565b5b604051908082528060200260200182016040528015611c9457816020015b611c81613146565b815260200190600190039081611c795790505b5091505f5f90505f5f90505b600280549050811015611eff578560028281548110611cc257611cc1613de4565b5b905f5260205f2090600602016003015410158015611d0357508460028281548110611cf057611cef613de4565b5b905f5260205f2090600602016003015411155b15611ef25760028181548110611d1c57611d1b613de4565b5b905f5260205f2090600602016040518060c00160405290815f82015f9054906101000a900473ffffffffffffffffffffffffffffffffffffffff1673ffffffffffffffffffffffffffffffffffffffff1673ffffffffffffffffffffffffffffffffffffffff168152602001600182018054611d9790613e3e565b80601f0160208091040260200160405190810160405280929190818152602001828054611dc390613e3e565b8015611e0e5780601f10611de557610100808354040283529160200191611e0e565b820191905f5260205f20905b815481529060010190602001808311611df157829003601f168201915b50505050508152602001600282018054611e2790613e3e565b80601f0160208091040260200160405190810160405280929190818152602001828054611e5390613e3e565b8015611e9e5780601f10611e7557610100808354040283529160200191611e9e565b820191905f5260205f20905b815481529060010190602001808311611e8157829003601f168201915b505050505081526020016003820154815260200160048201548152602001600582015481525050848381518110611ed857611ed7613de4565b5b60200260200101819052508180611eee90613e9b565b9250505b8080600101915050611ca0565b50505092915050565b5f5f5f5f5f5f94505f93505f92505f91505f90505f60028054905067ffffffffffffffff811115611f3c57611f3b6132c4565b5b604051908082528060200260200182016040528015611f6a5781602001602082028036833780820191505090505b5090505f5f90505b600280549050811015612413575f60028281548110611f9457611f93613de4565b5b905f5260205f2090600602016040518060c00160405290815f82015f9054906101000a900473ffffffffffffffffffffffffffffffffffffffff1673ffffffffffffffffffffffffffffffffffffffff1673ffffffffffffffffffffffffffffffffffffffff16815260200160018201805461200f90613e3e565b80601f016020809104026020016040519081016040528092919081815260200182805461203b90613e3e565b80156120865780601f1061205d57610100808354040283529160200191612086565b820191905f5260205f20905b81548152906001019060200180831161206957829003601f168201915b5050505050815260200160028201805461209f90613e3e565b80601f01602080910402602001604051908101604052809291908181526020018280546120cb90613e3e565b80156121165780601f106120ed57610100808354040283529160200191612116565b820191905f5260205f20905b8154815290600101906020018083116120f957829003601f168201915b505050505081526020016003820154815260200160048201548152602001600582015481525050905089816060015110158015612157575088816060015111155b1561240557878061216790613e9b565b9850505f81602001518051906020012090507f4383ec58706cdbe21052026f52771dbe49d31b19e829fd81c52ad7fcd456ce7a8114806121c657507fe7858b8fa3b724c568ec721412e5a66b76ee39ca1029412751e683777fcfcbfa81145b156121de5787806121d690613e9b565b985050612324565b7fefc077a6a603cf81594be6944a3cadc86d55ad6e8f133bf89cc554e537a9d8c381148061222b57507f04d8e17292f3c03de52c5edbceb346240949c93893fa3ef9e282001dadb0ab5a81145b8061225557507f6fe24903f2359fd645acabf4506a67ae45f81c788cb80c55c37699cf9a1a879781145b1561226d57868061226590613e9b565b975050612323565b7f545760910ef327b12d33293c5a0f4701c83dc633f698db52bcc975a12afff1908114806122ba57507f86190e9ba3e1a6f52f4c2cb149c10f5cbd68db5b96cb4cb53eda392c78f684e281145b806122e457507f19daf714879a8d7ce7cf1f321ee5d4641baddaf542cc56400b31137e85e7f60381145b8061230e57507f5297e68f3a27f04914f2c6db0ad63b5e5c8173cebcc1a5341df045cf6dad7adc81145b1561232257858061231e90613e9b565b9650505b5b5b5f600190505f5f90505b8681101561239b57835f015173ffffffffffffffffffffffffffffffffffffffff1686828151811061236357612362613de4565b5b602002602001015173ffffffffffffffffffffffffffffffffffffffff160361238e575f915061239b565b808060010191505061232e565b50801561240257825f01518587815181106123b9576123b8613de4565b5b602002602001019073ffffffffffffffffffffffffffffffffffffffff16908173ffffffffffffffffffffffffffffffffffffffff168152505085806123fe90613e9b565b9650505b50505b508080600101915050611f72565b50509295509295909350565b6003602052815f5260405f208181548110612438575f80fd5b905f5260205f20015f91509150505481565b5f600280549050905090565b60608183111561249b576040517f08c379a00000000000000000000000000000000000000000000000000000000081526004016124929061457d565b60405180910390fd5b60028054905082106124e2576040517f08c379a00000000000000000000000000000000000000000000000000000000081526004016124d9906145e5565b60405180910390fd5b5f600184846124f19190613f32565b6124fb9190614603565b90508067ffffffffffffffff811115612517576125166132c4565b5b60405190808252806020026020018201604052801561255057816020015b61253d613146565b8152602001906001900390816125355790505b5091505f5f90505b81811015612753576002818661256e9190614603565b8154811061257f5761257e613de4565b5b905f5260205f2090600602016040518060c00160405290815f82015f9054906101000a900473ffffffffffffffffffffffffffffffffffffffff1673ffffffffffffffffffffffffffffffffffffffff1673ffffffffffffffffffffffffffffffffffffffff1681526020016001820180546125fa90613e3e565b80601f016020809104026020016040519081016040528092919081815260200182805461262690613e3e565b80156126715780601f1061264857610100808354040283529160200191612671565b820191905f5260205f20905b81548152906001019060200180831161265457829003601f168201915b5050505050815260200160028201805461268a90613e3e565b80601f01602080910402602001604051908101604052809291908181526020018280546126b690613e3e565b80156127015780601f106126d857610100808354040283529160200191612701565b820191905f5260205f20905b8154815290600101906020018083116126e457829003601f168201915b50505050508152602001600382015481526020016004820154815260200160058201548152505083828151811061273b5761273a613de4565b5b60200260200101819052508080600101915050612558565b505092915050565b61276482611077565b61276d81612f08565b612777838361300c565b50505050565b6002818154811061278c575f80fd5b905f5260205f2090600602015f91509050805f015f9054906101000a900473ffffffffffffffffffffffffffffffffffffffff16908060010180546127d090613e3e565b80601f01602080910402602001604051908101604052809291908181526020018280546127fc90613e3e565b80156128475780601f1061281e57610100808354040283529160200191612847565b820191905f5260205f20905b81548152906001019060200180831161282a57829003601f168201915b50505050509080600201805461285c90613e3e565b80601f016020809104026020016040519081016040528092919081815260200182805461288890613e3e565b80156128d35780601f106128aa576101008083540402835291602001916128d3565b820191905f5260205f20905b8154815290600101906020018083116128b657829003601f168201915b5050505050908060030154908060040154908060050154905086565b6128f7613146565b600280549050821061293e576040517f08c379a000000000000000000000000000000000000000000000000000000000815260040161293590614680565b60405180910390fd5b6002828154811061295257612951613de4565b5b905f5260205f2090600602016040518060c00160405290815f82015f9054906101000a900473ffffffffffffffffffffffffffffffffffffffff1673ffffffffffffffffffffffffffffffffffffffff1673ffffffffffffffffffffffffffffffffffffffff1681526020016001820180546129cd90613e3e565b80601f01602080910402602001604051908101604052809291908181526020018280546129f990613e3e565b8015612a445780601f10612a1b57610100808354040283529160200191612a44565b820191905f5260205f20905b815481529060010190602001808311612a2757829003601f168201915b50505050508152602001600282018054612a5d90613e3e565b80601f0160208091040260200160405190810160405280929190818152602001828054612a8990613e3e565b8015612ad45780601f10612aab57610100808354040283529160200191612ad4565b820191905f5260205f20905b815481529060010190602001808311612ab757829003601f168201915b5050505050815260200160038201548152602001600482015481526020016005820154815250509050919050565b606060055f8381526020019081526020015f20805480602002602001604051908101604052809291908181526020018280548015612b5d57602002820191905f5260205f20905b815481526020019060010190808311612b49575b50505050509050919050565b60605f60035f8573ffffffffffffffffffffffffffffffffffffffff1673ffffffffffffffffffffffffffffffffffffffff1681526020019081526020015f20805480602002602001604051908101604052809291908181526020018280548015612bf157602002820191905f5260205f20905b815481526020019060010190808311612bdd575b505050505090505f815190505f84118015612c0b57508084105b15612c14578390505b8067ffffffffffffffff811115612c2e57612c2d6132c4565b5b604051908082528060200260200182016040528015612c6757816020015b612c54613146565b815260200190600190039081612c4c5790505b5092505f5f90505b81811015612e96575f838260018651612c889190613f32565b612c929190613f32565b81518110612ca357612ca2613de4565b5b6020026020010151905060028181548110612cc157612cc0613de4565b5b905f5260205f2090600602016040518060c00160405290815f82015f9054906101000a900473ffffffffffffffffffffffffffffffffffffffff1673ffffffffffffffffffffffffffffffffffffffff1673ffffffffffffffffffffffffffffffffffffffff168152602001600182018054612d3c90613e3e565b80601f0160208091040260200160405190810160405280929190818152602001828054612d6890613e3e565b8015612db35780601f10612d8a57610100808354040283529160200191612db3565b820191905f5260205f20905b815481529060010190602001808311612d9657829003601f168201915b50505050508152602001600282018054612dcc90613e3e565b80601f0160208091040260200160405190810160405280929190818152602001828054612df890613e3e565b8015612e435780601f10612e1a57610100808354040283529160200191612e43565b820191905f5260205f20905b815481529060010190602001808311612e2657829003601f168201915b505050505081526020016003820154815260200160048201548152602001600582015481525050858381518110612e7d57612e7c613de4565b5b6020026020010181905250508080600101915050612c6f565b50505092915050565b5f7f01ffc9a7000000000000000000000000000000000000000000000000000000007bffffffffffffffffffffffffffffffffffffffffffffffffffffffff1916827bffffffffffffffffffffffffffffffffffffffffffffffffffffffff1916149050919050565b612f1981612f14613005565b6130f5565b50565b5f612f278383611ab5565b612ffb5760015f5f8581526020019081526020015f205f015f8473ffffffffffffffffffffffffffffffffffffffff1673ffffffffffffffffffffffffffffffffffffffff1681526020019081526020015f205f6101000a81548160ff021916908315150217905550612f98613005565b73ffffffffffffffffffffffffffffffffffffffff168273ffffffffffffffffffffffffffffffffffffffff16847f2f8788117e7eff1d82e926ec794901d17c78024a50270940304540a733656f0d60405160405180910390a460019050612fff565b5f90505b92915050565b5f33905090565b5f6130178383611ab5565b156130eb575f5f5f8581526020019081526020015f205f015f8473ffffffffffffffffffffffffffffffffffffffff1673ffffffffffffffffffffffffffffffffffffffff1681526020019081526020015f205f6101000a81548160ff021916908315150217905550613088613005565b73ffffffffffffffffffffffffffffffffffffffff168273ffffffffffffffffffffffffffffffffffffffff16847ff6391f5c32d9c69d2a47ea670b442974b53935d1edc7fd64eb21e047a839171b60405160405180910390a4600190506130ef565b5f90505b92915050565b6130ff8282611ab5565b6131425780826040517fe2517d3f00000000000000000000000000000000000000000000000000000000815260040161313992919061469e565b60405180910390fd5b5050565b6040518060c001604052805f73ffffffffffffffffffffffffffffffffffffffff16815260200160608152602001606081526020015f81526020015f81526020015f81525090565b5f604051905090565b5f5ffd5b5f5ffd5b5f7fffffffff0000000000000000000000000000000000000000000000000000000082169050919050565b6131d38161319f565b81146131dd575f5ffd5b50565b5f813590506131ee816131ca565b92915050565b5f6020828403121561320957613208613197565b5b5f613216848285016131e0565b91505092915050565b5f8115159050919050565b6132338161321f565b82525050565b5f60208201905061324c5f83018461322a565b92915050565b5f73ffffffffffffffffffffffffffffffffffffffff82169050919050565b5f61327b82613252565b9050919050565b61328b81613271565b8114613295575f5ffd5b50565b5f813590506132a681613282565b92915050565b5f5ffd5b5f5ffd5b5f601f19601f8301169050919050565b7f4e487b71000000000000000000000000000000000000000000000000000000005f52604160045260245ffd5b6132fa826132b4565b810181811067ffffffffffffffff82111715613319576133186132c4565b5b80604052505050565b5f61332b61318e565b905061333782826132f1565b919050565b5f67ffffffffffffffff821115613356576133556132c4565b5b61335f826132b4565b9050602081019050919050565b828183375f83830152505050565b5f61338c6133878461333c565b613322565b9050828152602081018484840111156133a8576133a76132b0565b5b6133b384828561336c565b509392505050565b5f82601f8301126133cf576133ce6132ac565b5b81356133df84826020860161337a565b91505092915050565b5f819050919050565b6133fa816133e8565b8114613404575f5ffd5b50565b5f81359050613415816133f1565b92915050565b5f5f5f5f6080858703121561343357613432613197565b5b5f61344087828801613298565b945050602085013567ffffffffffffffff8111156134615761346061319b565b5b61346d878288016133bb565b935050604061347e87828801613407565b925050606061348f87828801613407565b91505092959194509250565b5f81519050919050565b5f82825260208201905092915050565b5f819050602082019050919050565b6134cd81613271565b82525050565b5f81519050919050565b5f82825260208201905092915050565b8281835e5f83830152505050565b5f613505826134d3565b61350f81856134dd565b935061351f8185602086016134ed565b613528816132b4565b840191505092915050565b5f81519050919050565b5f82825260208201905092915050565b5f61355782613533565b613561818561353d565b93506135718185602086016134ed565b61357a816132b4565b840191505092915050565b61358e816133e8565b82525050565b5f819050919050565b6135a681613594565b82525050565b5f60c083015f8301516135c15f8601826134c4565b50602083015184820360208601526135d982826134fb565b915050604083015184820360408601526135f3828261354d565b91505060608301516136086060860182613585565b50608083015161361b6080860182613585565b5060a083015161362e60a086018261359d565b508091505092915050565b5f61364483836135ac565b905092915050565b5f602082019050919050565b5f6136628261349b565b61366c81856134a5565b93508360208202850161367e856134b5565b805f5b858110156136b9578484038952815161369a8582613639565b94506136a58361364c565b925060208a01995050600181019050613681565b50829750879550505050505092915050565b5f6020820190508181035f8301526136e38184613658565b905092915050565b5f5f6040838503121561370157613700613197565b5b5f83013567ffffffffffffffff81111561371e5761371d61319b565b5b61372a858286016133bb565b925050602061373b85828601613407565b9150509250929050565b61374e816133e8565b82525050565b5f6020820190506137675f830184613745565b92915050565b61377681613594565b8114613780575f5ffd5b50565b5f813590506137918161376d565b92915050565b5f602082840312156137ac576137ab613197565b5b5f6137b984828501613783565b91505092915050565b6137cb81613594565b82525050565b5f6020820190506137e45f8301846137c2565b92915050565b5f5f5f5f6080858703121561380257613801613197565b5b5f61380f87828801613407565b945050602061382087828801613407565b935050604061383187828801613407565b925050606061384287828801613407565b91505092959194509250565b5f6040820190508181035f8301526138668185613658565b9050613875602083018461322a565b9392505050565b5f6020828403121561389157613890613197565b5b5f82013567ffffffffffffffff8111156138ae576138ad61319b565b5b6138ba848285016133bb565b91505092915050565b5f81519050919050565b5f82825260208201905092915050565b5f819050602082019050919050565b5f6138f78383613585565b60208301905092915050565b5f602082019050919050565b5f613919826138c3565b61392381856138cd565b935061392e836138dd565b805f5b8381101561395e57815161394588826138ec565b975061395083613903565b925050600181019050613931565b5085935050505092915050565b5f6020820190508181035f830152613983818461390f565b905092915050565b5f5f604083850312156139a1576139a0613197565b5b5f6139ae85828601613783565b92505060206139bf85828601613298565b9150509250929050565b5f602082840312156139de576139dd613197565b5b5f6139eb84828501613298565b91505092915050565b5f60208284031215613a0957613a08613197565b5b5f613a1684828501613407565b91505092915050565b5f67ffffffffffffffff821115613a3957613a386132c4565b5b613a42826132b4565b9050602081019050919050565b5f613a61613a5c84613a1f565b613322565b905082815260208101848484011115613a7d57613a7c6132b0565b5b613a8884828561336c565b509392505050565b5f82601f830112613aa457613aa36132ac565b5b8135613ab4848260208601613a4f565b91505092915050565b5f5f5f60608486031215613ad457613ad3613197565b5b5f613ae186828701613298565b935050602084013567ffffffffffffffff811115613b0257613b0161319b565b5b613b0e868287016133bb565b925050604084013567ffffffffffffffff811115613b2f57613b2e61319b565b5b613b3b86828701613a90565b9150509250925092565b613b4e81613271565b82525050565b5f602082019050613b675f830184613b45565b92915050565b5f5f60408385031215613b8357613b82613197565b5b5f613b9085828601613407565b9250506020613ba185828601613407565b9150509250929050565b5f60a082019050613bbe5f830188613745565b613bcb6020830187613745565b613bd86040830186613745565b613be56060830185613745565b613bf26080830184613745565b9695505050505050565b5f5f60408385031215613c1257613c11613197565b5b5f613c1f85828601613298565b9250506020613c3085828601613407565b9150509250929050565b5f82825260208201905092915050565b5f613c54826134d3565b613c5e8185613c3a565b9350613c6e8185602086016134ed565b613c77816132b4565b840191505092915050565b5f82825260208201905092915050565b5f613c9c82613533565b613ca68185613c82565b9350613cb68185602086016134ed565b613cbf816132b4565b840191505092915050565b5f60c082019050613cdd5f830189613b45565b8181036020830152613cef8188613c4a565b90508181036040830152613d038187613c92565b9050613d126060830186613745565b613d1f6080830185613745565b613d2c60a08301846137c2565b979650505050505050565b5f60c083015f830151613d4c5f8601826134c4565b5060208301518482036020860152613d6482826134fb565b91505060408301518482036040860152613d7e828261354d565b9150506060830151613d936060860182613585565b506080830151613da66080860182613585565b5060a0830151613db960a086018261359d565b508091505092915050565b5f6020820190508181035f830152613ddc8184613d37565b905092915050565b7f4e487b71000000000000000000000000000000000000000000000000000000005f52603260045260245ffd5b7f4e487b71000000000000000000000000000000000000000000000000000000005f52602260045260245ffd5b5f6002820490506001821680613e5557607f821691505b602082108103613e6857613e67613e11565b5b50919050565b7f4e487b71000000000000000000000000000000000000000000000000000000005f52601160045260245ffd5b5f613ea5826133e8565b91507fffffffffffffffffffffffffffffffffffffffffffffffffffffffffffffffff8203613ed757613ed6613e6e565b5b600182019050919050565b5f81905092915050565b5f613ef6826134d3565b613f008185613ee2565b9350613f108185602086016134ed565b80840191505092915050565b5f613f278284613eec565b915081905092915050565b5f613f3c826133e8565b9150613f47836133e8565b9250828203905081811115613f5f57613f5e613e6e565b5b92915050565b7f496e76616c6964206c696d69742028312d3130302900000000000000000000005f82015250565b5f613f99601583613c3a565b9150613fa482613f65565b602082019050919050565b5f6020820190508181035f830152613fc681613f8d565b9050919050565b5f604082019050613fe05f8301856137c2565b613fed6020830184613b45565b9392505050565b613ffd8161321f565b8114614007575f5ffd5b50565b5f8151905061401881613ff4565b92915050565b5f6020828403121561403357614032613197565b5b5f6140408482850161400a565b91505092915050565b7f4e6f7420617574686f72697a65640000000000000000000000000000000000005f82015250565b5f61407d600e83613c3a565b915061408882614049565b602082019050919050565b5f6020820190508181035f8301526140aa81614071565b9050919050565b7f4e487b71000000000000000000000000000000000000000000000000000000005f52601260045260245ffd5b5f6140e8826133e8565b91506140f3836133e8565b925082614103576141026140b1565b5b828204905092915050565b5f819050815f5260205f209050919050565b5f6020601f8301049050919050565b5f82821b905092915050565b5f6008830261416a7fffffffffffffffffffffffffffffffffffffffffffffffffffffffffffffffff8261412f565b614174868361412f565b95508019841693508086168417925050509392505050565b5f819050919050565b5f6141af6141aa6141a5846133e8565b61418c565b6133e8565b9050919050565b5f819050919050565b6141c883614195565b6141dc6141d4826141b6565b84845461413b565b825550505050565b5f5f905090565b6141f36141e4565b6141fe8184846141bf565b505050565b5b81811015614221576142165f826141eb565b600181019050614204565b5050565b601f821115614266576142378161410e565b61424084614120565b8101602085101561424f578190505b61426361425b85614120565b830182614203565b50505b505050565b5f82821c905092915050565b5f6142865f198460080261426b565b1980831691505092915050565b5f61429e8383614277565b9150826002028217905092915050565b6142b7826134d3565b67ffffffffffffffff8111156142d0576142cf6132c4565b5b6142da8254613e3e565b6142e5828285614225565b5f60209050601f831160018114614316575f8415614304578287015190505b61430e8582614293565b865550614375565b601f1984166143248661410e565b5f5b8281101561434b57848901518255600182019150602085019450602081019050614326565b868310156143685784890151614364601f891682614277565b8355505b6001600288020188555050505b505050505050565b5f819050815f5260205f209050919050565b601f8211156143d0576143a18161437d565b6143aa84614120565b810160208510156143b9578190505b6143cd6143c585614120565b830182614203565b50505b505050565b6143de82613533565b67ffffffffffffffff8111156143f7576143f66132c4565b5b6144018254613e3e565b61440c82828561438f565b5f60209050601f83116001811461443d575f841561442b578287015190505b6144358582614293565b86555061449c565b601f19841661444b8661437d565b5f5b828110156144725784890151825560018201915060208501945060208101905061444d565b8683101561448f578489015161448b601f891682614277565b8355505b6001600288020188555050505b505050505050565b5f6040820190506144b75f830185613745565b6144c46020830184613745565b9392505050565b7f496e76616c69642074696d652072616e676500000000000000000000000000005f82015250565b5f6144ff601283613c3a565b915061450a826144cb565b602082019050919050565b5f6020820190508181035f83015261452c816144f3565b9050919050565b7f496e76616c69642072616e6765000000000000000000000000000000000000005f82015250565b5f614567600d83613c3a565b915061457282614533565b602082019050919050565b5f6020820190508181035f8301526145948161455b565b9050919050565b7f456e6420696e646578206f7574206f6620626f756e64730000000000000000005f82015250565b5f6145cf601783613c3a565b91506145da8261459b565b602082019050919050565b5f6020820190508181035f8301526145fc816145c3565b9050919050565b5f61460d826133e8565b9150614618836133e8565b92508282019050808211156146305761462f613e6e565b5b92915050565b7f496e76616c6964206c6f6720696e6465780000000000000000000000000000005f82015250565b5f61466a601183613c3a565b915061467582614636565b602082019050919050565b5f6020820190508181035f8301526146978161465e565b9050919050565b5f6040820190506146b15f830185613b45565b6146be60208301846137c2565b939250505056fea26469706673582212205972a4c113e67cbbbf999d04db39ea658f162524a519642d595cfc68a0ed37a964736f6c634300081e0033",
					"opcodes": "PUSH1 0x80 PUSH1 0x40 MSTORE CALLVALUE DUP1 ISZERO PUSH2 0xF JUMPI PUSH0 PUSH0 REVERT JUMPDEST POP PUSH1 0x40 MLOAD PUSH2 0x4808 CODESIZE SUB DUP1 PUSH2 0x4808 DUP4 CODECOPY DUP2 DUP2 ADD PUSH1 0x40 MSTORE DUP2 ADD SWAP1 PUSH2 0x31 SWAP2 SWAP1 PUSH2 0xD5 JUMP JUMPDEST DUP1 PUSH1 0x1 PUSH0 PUSH2 0x100 EXP DUP2 SLOAD DUP2 PUSH20 0xFFFFFFFFFFFFFFFFFFFFFFFFFFFFFFFFFFFFFFFF MUL NOT AND SWAP1 DUP4 PUSH20 0xFFFFFFFFFFFFFFFFFFFFFFFFFFFFFFFFFFFFFFFF AND MUL OR SWAP1 SSTORE POP POP PUSH2 0x100 JUMP JUMPDEST PUSH0 PUSH0 REVERT JUMPDEST PUSH0 PUSH20 0xFFFFFFFFFFFFFFFFFFFFFFFFFFFFFFFFFFFFFFFF DUP3 AND SWAP1 POP SWAP2 SWAP1 POP JUMP JUMPDEST PUSH0 PUSH2 0xA4 DUP3 PUSH2 0x7B JUMP JUMPDEST SWAP1 POP SWAP2 SWAP1 POP JUMP JUMPDEST PUSH2 0xB4 DUP2 PUSH2 0x9A JUMP JUMPDEST DUP2 EQ PUSH2 0xBE JUMPI PUSH0 PUSH0 REVERT JUMPDEST POP JUMP JUMPDEST PUSH0 DUP2 MLOAD SWAP1 POP PUSH2 0xCF DUP2 PUSH2 0xAB JUMP JUMPDEST SWAP3 SWAP2 POP POP JUMP JUMPDEST PUSH0 PUSH1 0x20 DUP3 DUP5 SUB SLT ISZERO PUSH2 0xEA JUMPI PUSH2 0xE9 PUSH2 0x77 JUMP JUMPDEST JUMPDEST PUSH0 PUSH2 0xF7 DUP5 DUP3 DUP6 ADD PUSH2 0xC1 JUMP JUMPDEST SWAP2 POP POP SWAP3 SWAP2 POP POP JUMP JUMPDEST PUSH2 0x46FB DUP1 PUSH2 0x10D PUSH0 CODECOPY PUSH0 RETURN INVALID PUSH1 0x80 PUSH1 0x40 MSTORE CALLVALUE DUP1 ISZERO PUSH2 0xF JUMPI PUSH0 PUSH0 REVERT JUMPDEST POP PUSH1 0x4 CALLDATASIZE LT PUSH2 0x1CD JUMPI PUSH0 CALLDATALOAD PUSH1 0xE0 SHR DUP1 PUSH4 0x75B238FC GT PUSH2 0x102 JUMPI DUP1 PUSH4 0xA9C85164 GT PUSH2 0xA0 JUMPI DUP1 PUSH4 0xDDAF0929 GT PUSH2 0x6F JUMPI DUP1 PUSH4 0xDDAF0929 EQ PUSH2 0x5EE JUMPI DUP1 PUSH4 0xE887319A EQ PUSH2 0x623 JUMPI DUP1 PUSH4 0xEAD2B306 EQ PUSH2 0x653 JUMPI DUP1 PUSH4 0xF44006E1 EQ PUSH2 0x683 JUMPI PUSH2 0x1CD JUMP JUMPDEST DUP1 PUSH4 0xA9C85164 EQ PUSH2 0x554 JUMPI DUP1 PUSH4 0xBD628D26 EQ PUSH2 0x584 JUMPI DUP1 PUSH4 0xC9A9BA51 EQ PUSH2 0x5A2 JUMPI DUP1 PUSH4 0xD547741F EQ PUSH2 0x5D2 JUMPI PUSH2 0x1CD JUMP JUMPDEST DUP1 PUSH4 0xA217FDDF GT PUSH2 0xDC JUMPI DUP1 PUSH4 0xA217FDDF EQ PUSH2 0x4A2 JUMPI DUP1 PUSH4 0xA246E46F EQ PUSH2 0x4C0 JUMPI DUP1 PUSH4 0xA2B08F25 EQ PUSH2 0x4F0 JUMPI DUP1 PUSH4 0xA393BB3E EQ PUSH2 0x520 JUMPI PUSH2 0x1CD JUMP JUMPDEST DUP1 PUSH4 0x75B238FC EQ PUSH2 0x436 JUMPI DUP1 PUSH4 0x91D14854 EQ PUSH2 0x454 JUMPI DUP1 PUSH4 0xA1C7C1A6 EQ PUSH2 0x484 JUMPI PUSH2 0x1CD JUMP JUMPDEST DUP1 PUSH4 0x2F2FF15D GT PUSH2 0x16F JUMPI DUP1 PUSH4 0x3FBD2B52 GT PUSH2 0x149 JUMPI DUP1 PUSH4 0x3FBD2B52 EQ PUSH2 0x38A JUMPI DUP1 PUSH4 0x44C83B97 EQ PUSH2 0x3BA JUMPI DUP1 PUSH4 0x61B13AA2 EQ PUSH2 0x3D6 JUMPI DUP1 PUSH4 0x6A82B00B EQ PUSH2 0x406 JUMPI PUSH2 0x1CD JUMP JUMPDEST DUP1 PUSH4 0x2F2FF15D EQ PUSH2 0x322 JUMPI DUP1 PUSH4 0x36568ABE EQ PUSH2 0x33E JUMPI DUP1 PUSH4 0x3947BE52 EQ PUSH2 0x35A JUMPI PUSH2 0x1CD JUMP JUMPDEST DUP1 PUSH4 0x1C580E1F GT PUSH2 0x1AB JUMPI DUP1 PUSH4 0x1C580E1F EQ PUSH2 0x261 JUMPI DUP1 PUSH4 0x248A9CA3 EQ PUSH2 0x291 JUMPI DUP1 PUSH4 0x25C31F04 EQ PUSH2 0x2C1 JUMPI DUP1 PUSH4 0x2820B656 EQ PUSH2 0x2F2 JUMPI PUSH2 0x1CD JUMP JUMPDEST DUP1 PUSH4 0x1FFC9A7 EQ PUSH2 0x1D1 JUMPI DUP1 PUSH4 0x5AD65B0 EQ PUSH2 0x201 JUMPI DUP1 PUSH4 0x121254A8 EQ PUSH2 0x231 JUMPI JUMPDEST PUSH0 PUSH0 REVERT JUMPDEST PUSH2 0x1EB PUSH1 0x4 DUP1 CALLDATASIZE SUB DUP2 ADD SWAP1 PUSH2 0x1E6 SWAP2 SWAP1 PUSH2 0x31F4 JUMP JUMPDEST PUSH2 0x6B3 JUMP JUMPDEST PUSH1 0x40 MLOAD PUSH2 0x1F8 SWAP2 SWAP1 PUSH2 0x3239 JUMP JUMPDEST PUSH1 0x40 MLOAD DUP1 SWAP2 SUB SWAP1 RETURN JUMPDEST PUSH2 0x21B PUSH1 0x4 DUP1 CALLDATASIZE SUB DUP2 ADD SWAP1 PUSH2 0x216 SWAP2 SWAP1 PUSH2 0x341B JUMP JUMPDEST PUSH2 0x72C JUMP JUMPDEST PUSH1 0x40 MLOAD PUSH2 0x228 SWAP2 SWAP1 PUSH2 0x36CB JUMP JUMPDEST PUSH1 0x40 MLOAD DUP1 SWAP2 SUB SWAP1 RETURN JUMPDEST PUSH2 0x24B PUSH1 0x4 DUP1 CALLDATASIZE SUB DUP2 ADD SWAP1 PUSH2 0x246 SWAP2 SWAP1 PUSH2 0x36EB JUMP JUMPDEST PUSH2 0xD1D JUMP JUMPDEST PUSH1 0x40 MLOAD PUSH2 0x258 SWAP2 SWAP1 PUSH2 0x3754 JUMP JUMPDEST PUSH1 0x40 MLOAD DUP1 SWAP2 SUB SWAP1 RETURN JUMPDEST PUSH2 0x27B PUSH1 0x4 DUP1 CALLDATASIZE SUB DUP2 ADD SWAP1 PUSH2 0x276 SWAP2 SWAP1 PUSH2 0x36EB JUMP JUMPDEST PUSH2 0xD60 JUMP JUMPDEST PUSH1 0x40 MLOAD PUSH2 0x288 SWAP2 SWAP1 PUSH2 0x36CB JUMP JUMPDEST PUSH1 0x40 MLOAD DUP1 SWAP2 SUB SWAP1 RETURN JUMPDEST PUSH2 0x2AB PUSH1 0x4 DUP1 CALLDATASIZE SUB DUP2 ADD SWAP1 PUSH2 0x2A6 SWAP2 SWAP1 PUSH2 0x3797 JUMP JUMPDEST PUSH2 0x1077 JUMP JUMPDEST PUSH1 0x40 MLOAD PUSH2 0x2B8 SWAP2 SWAP1 PUSH2 0x37D1 JUMP JUMPDEST PUSH1 0x40 MLOAD DUP1 SWAP2 SUB SWAP1 RETURN JUMPDEST PUSH2 0x2DB PUSH1 0x4 DUP1 CALLDATASIZE SUB DUP2 ADD SWAP1 PUSH2 0x2D6 SWAP2 SWAP1 PUSH2 0x37EA JUMP JUMPDEST PUSH2 0x1093 JUMP JUMPDEST PUSH1 0x40 MLOAD PUSH2 0x2E9 SWAP3 SWAP2 SWAP1 PUSH2 0x384E JUMP JUMPDEST PUSH1 0x40 MLOAD DUP1 SWAP2 SUB SWAP1 RETURN JUMPDEST PUSH2 0x30C PUSH1 0x4 DUP1 CALLDATASIZE SUB DUP2 ADD SWAP1 PUSH2 0x307 SWAP2 SWAP1 PUSH2 0x387C JUMP JUMPDEST PUSH2 0x149F JUMP JUMPDEST PUSH1 0x40 MLOAD PUSH2 0x319 SWAP2 SWAP1 PUSH2 0x396B JUMP JUMPDEST PUSH1 0x40 MLOAD DUP1 SWAP2 SUB SWAP1 RETURN JUMPDEST PUSH2 0x33C PUSH1 0x4 DUP1 CALLDATASIZE SUB DUP2 ADD SWAP1 PUSH2 0x337 SWAP2 SWAP1 PUSH2 0x398B JUMP JUMPDEST PUSH2 0x1513 JUMP JUMPDEST STOP JUMPDEST PUSH2 0x358 PUSH1 0x4 DUP1 CALLDATASIZE SUB DUP2 ADD SWAP1 PUSH2 0x353 SWAP2 SWAP1 PUSH2 0x398B JUMP JUMPDEST PUSH2 0x1535 JUMP JUMPDEST STOP JUMPDEST PUSH2 0x374 PUSH1 0x4 DUP1 CALLDATASIZE SUB DUP2 ADD SWAP1 PUSH2 0x36F SWAP2 SWAP1 PUSH2 0x39C9 JUMP JUMPDEST PUSH2 0x15B0 JUMP JUMPDEST PUSH1 0x40 MLOAD PUSH2 0x381 SWAP2 SWAP1 PUSH2 0x3754 JUMP JUMPDEST PUSH1 0x40 MLOAD DUP1 SWAP2 SUB SWAP1 RETURN JUMPDEST PUSH2 0x3A4 PUSH1 0x4 DUP1 CALLDATASIZE SUB DUP2 ADD SWAP1 PUSH2 0x39F SWAP2 SWAP1 PUSH2 0x39F4 JUMP JUMPDEST PUSH2 0x15F9 JUMP JUMPDEST PUSH1 0x40 MLOAD PUSH2 0x3B1 SWAP2 SWAP1 PUSH2 0x3754 JUMP JUMPDEST PUSH1 0x40 MLOAD DUP1 SWAP2 SUB SWAP1 RETURN JUMPDEST PUSH2 0x3D4 PUSH1 0x4 DUP1 CALLDATASIZE SUB DUP2 ADD SWAP1 PUSH2 0x3CF SWAP2 SWAP1 PUSH2 0x3ABD JUMP JUMPDEST PUSH2 0x1616 JUMP JUMPDEST STOP JUMPDEST PUSH2 0x3F0 PUSH1 0x4 DUP1 CALLDATASIZE SUB DUP2 ADD SWAP1 PUSH2 0x3EB SWAP2 SWAP1 PUSH2 0x39C9 JUMP JUMPDEST PUSH2 0x19D4 JUMP JUMPDEST PUSH1 0x40 MLOAD PUSH2 0x3FD SWAP2 SWAP1 PUSH2 0x396B JUMP JUMPDEST PUSH1 0x40 MLOAD DUP1 SWAP2 SUB SWAP1 RETURN JUMPDEST PUSH2 0x420 PUSH1 0x4 DUP1 CALLDATASIZE SUB DUP2 ADD SWAP1 PUSH2 0x41B SWAP2 SWAP1 PUSH2 0x387C JUMP JUMPDEST PUSH2 0x1A67 JUMP JUMPDEST PUSH1 0x40 MLOAD PUSH2 0x42D SWAP2 SWAP1 PUSH2 0x3754 JUMP JUMPDEST PUSH1 0x40 MLOAD DUP1 SWAP2 SUB SWAP1 RETURN JUMPDEST PUSH2 0x43E PUSH2 0x1A91 JUMP JUMPDEST PUSH1 0x40 MLOAD PUSH2 0x44B SWAP2 SWAP1 PUSH2 0x37D1 JUMP JUMPDEST PUSH1 0x40 MLOAD DUP1 SWAP2 SUB SWAP1 RETURN JUMPDEST PUSH2 0x46E PUSH1 0x4 DUP1 CALLDATASIZE SUB DUP2 ADD SWAP1 PUSH2 0x469 SWAP2 SWAP1 PUSH2 0x398B JUMP JUMPDEST PUSH2 0x1AB5 JUMP JUMPDEST PUSH1 0x40 MLOAD PUSH2 0x47B SWAP2 SWAP1 PUSH2 0x3239 JUMP JUMPDEST PUSH1 0x40 MLOAD DUP1 SWAP2 SUB SWAP1 RETURN JUMPDEST PUSH2 0x48C PUSH2 0x1B18 JUMP JUMPDEST PUSH1 0x40 MLOAD PUSH2 0x499 SWAP2 SWAP1 PUSH2 0x3B54 JUMP JUMPDEST PUSH1 0x40 MLOAD DUP1 SWAP2 SUB SWAP1 RETURN JUMPDEST PUSH2 0x4AA PUSH2 0x1B3D JUMP JUMPDEST PUSH1 0x40 MLOAD PUSH2 0x4B7 SWAP2 SWAP1 PUSH2 0x37D1 JUMP JUMPDEST PUSH1 0x40 MLOAD DUP1 SWAP2 SUB SWAP1 RETURN JUMPDEST PUSH2 0x4DA PUSH1 0x4 DUP1 CALLDATASIZE SUB DUP2 ADD SWAP1 PUSH2 0x4D5 SWAP2 SWAP1 PUSH2 0x3B6D JUMP JUMPDEST PUSH2 0x1B43 JUMP JUMPDEST PUSH1 0x40 MLOAD PUSH2 0x4E7 SWAP2 SWAP1 PUSH2 0x3754 JUMP JUMPDEST PUSH1 0x40 MLOAD DUP1 SWAP2 SUB SWAP1 RETURN JUMPDEST PUSH2 0x50A PUSH1 0x4 DUP1 CALLDATASIZE SUB DUP2 ADD SWAP1 PUSH2 0x505 SWAP2 SWAP1 PUSH2 0x3B6D JUMP JUMPDEST PUSH2 0x1B6E JUMP JUMPDEST PUSH1 0x40 MLOAD PUSH2 0x517 SWAP2 SWAP1 PUSH2 0x36CB JUMP JUMPDEST PUSH1 0x40 MLOAD DUP1 SWAP2 SUB SWAP1 RETURN JUMPDEST PUSH2 0x53A PUSH1 0x4 DUP1 CALLDATASIZE SUB DUP2 ADD SWAP1 PUSH2 0x535 SWAP2 SWAP1 PUSH2 0x3B6D JUMP JUMPDEST PUSH2 0x1F08 JUMP JUMPDEST PUSH1 0x40 MLOAD PUSH2 0x54B SWAP6 SWAP5 SWAP4 SWAP3 SWAP2 SWAP1 PUSH2 0x3BAB JUMP JUMPDEST PUSH1 0x40 MLOAD DUP1 SWAP2 SUB SWAP1 RETURN JUMPDEST PUSH2 0x56E PUSH1 0x4 DUP1 CALLDATASIZE SUB DUP2 ADD SWAP1 PUSH2 0x569 SWAP2 SWAP1 PUSH2 0x3BFC JUMP JUMPDEST PUSH2 0x241F JUMP JUMPDEST PUSH1 0x40 MLOAD PUSH2 0x57B SWAP2 SWAP1 PUSH2 0x3754 JUMP JUMPDEST PUSH1 0x40 MLOAD DUP1 SWAP2 SUB SWAP1 RETURN JUMPDEST PUSH2 0x58C PUSH2 0x244A JUMP JUMPDEST PUSH1 0x40 MLOAD PUSH2 0x599 SWAP2 SWAP1 PUSH2 0x3754 JUMP JUMPDEST PUSH1 0x40 MLOAD DUP1 SWAP2 SUB SWAP1 RETURN JUMPDEST PUSH2 0x5BC PUSH1 0x4 DUP1 CALLDATASIZE SUB DUP2 ADD SWAP1 PUSH2 0x5B7 SWAP2 SWAP1 PUSH2 0x3B6D JUMP JUMPDEST PUSH2 0x2456 JUMP JUMPDEST PUSH1 0x40 MLOAD PUSH2 0x5C9 SWAP2 SWAP1 PUSH2 0x36CB JUMP JUMPDEST PUSH1 0x40 MLOAD DUP1 SWAP2 SUB SWAP1 RETURN JUMPDEST PUSH2 0x5EC PUSH1 0x4 DUP1 CALLDATASIZE SUB DUP2 ADD SWAP1 PUSH2 0x5E7 SWAP2 SWAP1 PUSH2 0x398B JUMP JUMPDEST PUSH2 0x275B JUMP JUMPDEST STOP JUMPDEST PUSH2 0x608 PUSH1 0x4 DUP1 CALLDATASIZE SUB DUP2 ADD SWAP1 PUSH2 0x603 SWAP2 SWAP1 PUSH2 0x39F4 JUMP JUMPDEST PUSH2 0x277D JUMP JUMPDEST PUSH1 0x40 MLOAD PUSH2 0x61A SWAP7 SWAP6 SWAP5 SWAP4 SWAP3 SWAP2 SWAP1 PUSH2 0x3CCA JUMP JUMPDEST PUSH1 0x40 MLOAD DUP1 SWAP2 SUB SWAP1 RETURN JUMPDEST PUSH2 0x63D PUSH1 0x4 DUP1 CALLDATASIZE SUB DUP2 ADD SWAP1 PUSH2 0x638 SWAP2 SWAP1 PUSH2 0x39F4 JUMP JUMPDEST PUSH2 0x28EF JUMP JUMPDEST PUSH1 0x40 MLOAD PUSH2 0x64A SWAP2 SWAP1 PUSH2 0x3DC4 JUMP JUMPDEST PUSH1 0x40 MLOAD DUP1 SWAP2 SUB SWAP1 RETURN JUMPDEST PUSH2 0x66D PUSH1 0x4 DUP1 CALLDATASIZE SUB DUP2 ADD SWAP1 PUSH2 0x668 SWAP2 SWAP1 PUSH2 0x39F4 JUMP JUMPDEST PUSH2 0x2B02 JUMP JUMPDEST PUSH1 0x40 MLOAD PUSH2 0x67A SWAP2 SWAP1 PUSH2 0x396B JUMP JUMPDEST PUSH1 0x40 MLOAD DUP1 SWAP2 SUB SWAP1 RETURN JUMPDEST PUSH2 0x69D PUSH1 0x4 DUP1 CALLDATASIZE SUB DUP2 ADD SWAP1 PUSH2 0x698 SWAP2 SWAP1 PUSH2 0x3BFC JUMP JUMPDEST PUSH2 0x2B69 JUMP JUMPDEST PUSH1 0x40 MLOAD PUSH2 0x6AA SWAP2 SWAP1 PUSH2 0x36CB JUMP JUMPDEST PUSH1 0x40 MLOAD DUP1 SWAP2 SUB SWAP1 RETURN JUMPDEST PUSH0 PUSH32 0x7965DB0B00000000000000000000000000000000000000000000000000000000 PUSH28 0xFFFFFFFFFFFFFFFFFFFFFFFFFFFFFFFFFFFFFFFFFFFFFFFFFFFFFFFF NOT AND DUP3 PUSH28 0xFFFFFFFFFFFFFFFFFFFFFFFFFFFFFFFFFFFFFFFFFFFFFFFFFFFFFFFF NOT AND EQ DUP1 PUSH2 0x725 JUMPI POP PUSH2 0x724 DUP3 PUSH2 0x2E9F JUMP JUMPDEST JUMPDEST SWAP1 POP SWAP2 SWAP1 POP JUMP JUMPDEST PUSH1 0x60 PUSH0 PUSH0 SWAP1 POP PUSH0 PUSH0 SWAP1 POP JUMPDEST PUSH1 0x2 DUP1 SLOAD SWAP1 POP DUP2 LT ISZERO PUSH2 0x9E5 JUMPI PUSH0 PUSH1 0x2 DUP3 DUP2 SLOAD DUP2 LT PUSH2 0x759 JUMPI PUSH2 0x758 PUSH2 0x3DE4 JUMP JUMPDEST JUMPDEST SWAP1 PUSH0 MSTORE PUSH1 0x20 PUSH0 KECCAK256 SWAP1 PUSH1 0x6 MUL ADD PUSH1 0x40 MLOAD DUP1 PUSH1 0xC0 ADD PUSH1 0x40 MSTORE SWAP1 DUP2 PUSH0 DUP3 ADD PUSH0 SWAP1 SLOAD SWAP1 PUSH2 0x100 EXP SWAP1 DIV PUSH20 0xFFFFFFFFFFFFFFFFFFFFFFFFFFFFFFFFFFFFFFFF AND PUSH20 0xFFFFFFFFFFFFFFFFFFFFFFFFFFFFFFFFFFFFFFFF AND PUSH20 0xFFFFFFFFFFFFFFFFFFFFFFFFFFFFFFFFFFFFFFFF AND DUP2 MSTORE PUSH1 0x20 ADD PUSH1 0x1 DUP3 ADD DUP1 SLOAD PUSH2 0x7D4 SWAP1 PUSH2 0x3E3E JUMP JUMPDEST DUP1 PUSH1 0x1F ADD PUSH1 0x20 DUP1 SWAP2 DIV MUL PUSH1 0x20 ADD PUSH1 0x40 MLOAD SWAP1 DUP2 ADD PUSH1 0x40 MSTORE DUP1 SWAP3 SWAP2 SWAP1 DUP2 DUP2 MSTORE PUSH1 0x20 ADD DUP3 DUP1 SLOAD PUSH2 0x800 SWAP1 PUSH2 0x3E3E JUMP JUMPDEST DUP1 ISZERO PUSH2 0x84B JUMPI DUP1 PUSH1 0x1F LT PUSH2 0x822 JUMPI PUSH2 0x100 DUP1 DUP4 SLOAD DIV MUL DUP4 MSTORE SWAP2 PUSH1 0x20 ADD SWAP2 PUSH2 0x84B JUMP JUMPDEST DUP3 ADD SWAP2 SWAP1 PUSH0 MSTORE PUSH1 0x20 PUSH0 KECCAK256 SWAP1 JUMPDEST DUP2 SLOAD DUP2 MSTORE SWAP1 PUSH1 0x1 ADD SWAP1 PUSH1 0x20 ADD DUP1 DUP4 GT PUSH2 0x82E JUMPI DUP3 SWAP1 SUB PUSH1 0x1F AND DUP3 ADD SWAP2 JUMPDEST POP POP POP POP POP DUP2 MSTORE PUSH1 0x20 ADD PUSH1 0x2 DUP3 ADD DUP1 SLOAD PUSH2 0x864 SWAP1 PUSH2 0x3E3E JUMP JUMPDEST DUP1 PUSH1 0x1F ADD PUSH1 0x20 DUP1 SWAP2 DIV MUL PUSH1 0x20 ADD PUSH1 0x40 MLOAD SWAP1 DUP2 ADD PUSH1 0x40 MSTORE DUP1 SWAP3 SWAP2 SWAP1 DUP2 DUP2 MSTORE PUSH1 0x20 ADD DUP3 DUP1 SLOAD PUSH2 0x890 SWAP1 PUSH2 0x3E3E JUMP JUMPDEST DUP1 ISZERO PUSH2 0x8DB JUMPI DUP1 PUSH1 0x1F LT PUSH2 0x8B2 JUMPI PUSH2 0x100 DUP1 DUP4 SLOAD DIV MUL DUP4 MSTORE SWAP2 PUSH1 0x20 ADD SWAP2 PUSH2 0x8DB JUMP JUMPDEST DUP3 ADD SWAP2 SWAP1 PUSH0 MSTORE PUSH1 0x20 PUSH0 KECCAK256 SWAP1 JUMPDEST DUP2 SLOAD DUP2 MSTORE SWAP1 PUSH1 0x1 ADD SWAP1 PUSH1 0x20 ADD DUP1 DUP4 GT PUSH2 0x8BE JUMPI DUP3 SWAP1 SUB PUSH1 0x1F AND DUP3 ADD SWAP2 JUMPDEST POP POP POP POP POP DUP2 MSTORE PUSH1 0x20 ADD PUSH1 0x3 DUP3 ADD SLOAD DUP2 MSTORE PUSH1 0x20 ADD PUSH1 0x4 DUP3 ADD SLOAD DUP2 MSTORE PUSH1 0x20 ADD PUSH1 0x5 DUP3 ADD SLOAD DUP2 MSTORE POP POP SWAP1 POP PUSH0 PUSH0 PUSH20 0xFFFFFFFFFFFFFFFFFFFFFFFFFFFFFFFFFFFFFFFF AND DUP10 PUSH20 0xFFFFFFFFFFFFFFFFFFFFFFFFFFFFFFFFFFFFFFFF AND EQ DUP1 PUSH2 0x96D JUMPI POP DUP9 PUSH20 0xFFFFFFFFFFFFFFFFFFFFFFFFFFFFFFFFFFFFFFFF AND DUP3 PUSH0 ADD MLOAD PUSH20 0xFFFFFFFFFFFFFFFFFFFFFFFFFFFFFFFFFFFFFFFF AND EQ JUMPDEST SWAP1 POP PUSH0 PUSH0 DUP10 MLOAD EQ DUP1 PUSH2 0x990 JUMPI POP DUP9 DUP1 MLOAD SWAP1 PUSH1 0x20 ADD KECCAK256 DUP4 PUSH1 0x20 ADD MLOAD DUP1 MLOAD SWAP1 PUSH1 0x20 ADD KECCAK256 EQ JUMPDEST SWAP1 POP PUSH0 DUP9 DUP5 PUSH1 0x60 ADD MLOAD LT ISZERO DUP1 ISZERO PUSH2 0x9AB JUMPI POP DUP8 DUP5 PUSH1 0x60 ADD MLOAD GT ISZERO JUMPDEST SWAP1 POP DUP3 DUP1 ISZERO PUSH2 0x9B7 JUMPI POP DUP2 JUMPDEST DUP1 ISZERO PUSH2 0x9C0 JUMPI POP DUP1 JUMPDEST ISZERO PUSH2 0x9D4 JUMPI DUP6 DUP1 PUSH2 0x9D0 SWAP1 PUSH2 0x3E9B JUMP JUMPDEST SWAP7 POP POP JUMPDEST POP POP POP POP DUP1 DUP1 PUSH1 0x1 ADD SWAP2 POP POP PUSH2 0x737 JUMP JUMPDEST POP DUP1 PUSH8 0xFFFFFFFFFFFFFFFF DUP2 GT ISZERO PUSH2 0xA00 JUMPI PUSH2 0x9FF PUSH2 0x32C4 JUMP JUMPDEST JUMPDEST PUSH1 0x40 MLOAD SWAP1 DUP1 DUP3 MSTORE DUP1 PUSH1 0x20 MUL PUSH1 0x20 ADD DUP3 ADD PUSH1 0x40 MSTORE DUP1 ISZERO PUSH2 0xA39 JUMPI DUP2 PUSH1 0x20 ADD JUMPDEST PUSH2 0xA26 PUSH2 0x3146 JUMP JUMPDEST DUP2 MSTORE PUSH1 0x20 ADD SWAP1 PUSH1 0x1 SWAP1 SUB SWAP1 DUP2 PUSH2 0xA1E JUMPI SWAP1 POP JUMPDEST POP SWAP2 POP PUSH0 PUSH0 SWAP1 POP PUSH0 PUSH0 SWAP1 POP JUMPDEST PUSH1 0x2 DUP1 SLOAD SWAP1 POP DUP2 LT ISZERO PUSH2 0xD12 JUMPI PUSH0 PUSH1 0x2 DUP3 DUP2 SLOAD DUP2 LT PUSH2 0xA67 JUMPI PUSH2 0xA66 PUSH2 0x3DE4 JUMP JUMPDEST JUMPDEST SWAP1 PUSH0 MSTORE PUSH1 0x20 PUSH0 KECCAK256 SWAP1 PUSH1 0x6 MUL ADD PUSH1 0x40 MLOAD DUP1 PUSH1 0xC0 ADD PUSH1 0x40 MSTORE SWAP1 DUP2 PUSH0 DUP3 ADD PUSH0 SWAP1 SLOAD SWAP1 PUSH2 0x100 EXP SWAP1 DIV PUSH20 0xFFFFFFFFFFFFFFFFFFFFFFFFFFFFFFFFFFFFFFFF AND PUSH20 0xFFFFFFFFFFFFFFFFFFFFFFFFFFFFFFFFFFFFFFFF AND PUSH20 0xFFFFFFFFFFFFFFFFFFFFFFFFFFFFFFFFFFFFFFFF AND DUP2 MSTORE PUSH1 0x20 ADD PUSH1 0x1 DUP3 ADD DUP1 SLOAD PUSH2 0xAE2 SWAP1 PUSH2 0x3E3E JUMP JUMPDEST DUP1 PUSH1 0x1F ADD PUSH1 0x20 DUP1 SWAP2 DIV MUL PUSH1 0x20 ADD PUSH1 0x40 MLOAD SWAP1 DUP2 ADD PUSH1 0x40 MSTORE DUP1 SWAP3 SWAP2 SWAP1 DUP2 DUP2 MSTORE PUSH1 0x20 ADD DUP3 DUP1 SLOAD PUSH2 0xB0E SWAP1 PUSH2 0x3E3E JUMP JUMPDEST DUP1 ISZERO PUSH2 0xB59 JUMPI DUP1 PUSH1 0x1F LT PUSH2 0xB30 JUMPI PUSH2 0x100 DUP1 DUP4 SLOAD DIV MUL DUP4 MSTORE SWAP2 PUSH1 0x20 ADD SWAP2 PUSH2 0xB59 JUMP JUMPDEST DUP3 ADD SWAP2 SWAP1 PUSH0 MSTORE PUSH1 0x20 PUSH0 KECCAK256 SWAP1 JUMPDEST DUP2 SLOAD DUP2 MSTORE SWAP1 PUSH1 0x1 ADD SWAP1 PUSH1 0x20 ADD DUP1 DUP4 GT PUSH2 0xB3C JUMPI DUP3 SWAP1 SUB PUSH1 0x1F AND DUP3 ADD SWAP2 JUMPDEST POP POP POP POP POP DUP2 MSTORE PUSH1 0x20 ADD PUSH1 0x2 DUP3 ADD DUP1 SLOAD PUSH2 0xB72 SWAP1 PUSH2 0x3E3E JUMP JUMPDEST DUP1 PUSH1 0x1F ADD PUSH1 0x20 DUP1 SWAP2 DIV MUL PUSH1 0x20 ADD PUSH1 0x40 MLOAD SWAP1 DUP2 ADD PUSH1 0x40 MSTORE DUP1 SWAP3 SWAP2 SWAP1 DUP2 DUP2 MSTORE PUSH1 0x20 ADD DUP3 DUP1 SLOAD PUSH2 0xB9E SWAP1 PUSH2 0x3E3E JUMP JUMPDEST DUP1 ISZERO PUSH2 0xBE9 JUMPI DUP1 PUSH1 0x1F LT PUSH2 0xBC0 JUMPI PUSH2 0x100 DUP1 DUP4 SLOAD DIV MUL DUP4 MSTORE SWAP2 PUSH1 0x20 ADD SWAP2 PUSH2 0xBE9 JUMP JUMPDEST DUP3 ADD SWAP2 SWAP1 PUSH0 MSTORE PUSH1 0x20 PUSH0 KECCAK256 SWAP1 JUMPDEST DUP2 SLOAD DUP2 MSTORE SWAP1 PUSH1 0x1 ADD SWAP1 PUSH1 0x20 ADD DUP1 DUP4 GT PUSH2 0xBCC JUMPI DUP3 SWAP1 SUB PUSH1 0x1F AND DUP3 ADD SWAP2 JUMPDEST POP POP POP POP POP DUP2 MSTORE PUSH1 0x20 ADD PUSH1 0x3 DUP3 ADD SLOAD DUP2 MSTORE PUSH1 0x20 ADD PUSH1 0x4 DUP3 ADD SLOAD DUP2 MSTORE PUSH1 0x20 ADD PUSH1 0x5 DUP3 ADD SLOAD DUP2 MSTORE POP POP SWAP1 POP PUSH0 PUSH0 PUSH20 0xFFFFFFFFFFFFFFFFFFFFFFFFFFFFFFFFFFFFFFFF AND DUP11 PUSH20 0xFFFFFFFFFFFFFFFFFFFFFFFFFFFFFFFFFFFFFFFF AND EQ DUP1 PUSH2 0xC7B JUMPI POP DUP10 PUSH20 0xFFFFFFFFFFFFFFFFFFFFFFFFFFFFFFFFFFFFFFFF AND DUP3 PUSH0 ADD MLOAD PUSH20 0xFFFFFFFFFFFFFFFFFFFFFFFFFFFFFFFFFFFFFFFF AND EQ JUMPDEST SWAP1 POP PUSH0 PUSH0 DUP11 MLOAD EQ DUP1 PUSH2 0xC9E JUMPI POP DUP10 DUP1 MLOAD SWAP1 PUSH1 0x20 ADD KECCAK256 DUP4 PUSH1 0x20 ADD MLOAD DUP1 MLOAD SWAP1 PUSH1 0x20 ADD KECCAK256 EQ JUMPDEST SWAP1 POP PUSH0 DUP10 DUP5 PUSH1 0x60 ADD MLOAD LT ISZERO DUP1 ISZERO PUSH2 0xCB9 JUMPI POP DUP9 DUP5 PUSH1 0x60 ADD MLOAD GT ISZERO JUMPDEST SWAP1 POP DUP3 DUP1 ISZERO PUSH2 0xCC5 JUMPI POP DUP2 JUMPDEST DUP1 ISZERO PUSH2 0xCCE JUMPI POP DUP1 JUMPDEST ISZERO PUSH2 0xD01 JUMPI DUP4 DUP9 DUP8 DUP2 MLOAD DUP2 LT PUSH2 0xCE7 JUMPI PUSH2 0xCE6 PUSH2 0x3DE4 JUMP JUMPDEST JUMPDEST PUSH1 0x20 MUL PUSH1 0x20 ADD ADD DUP2 SWAP1 MSTORE POP DUP6 DUP1 PUSH2 0xCFD SWAP1 PUSH2 0x3E9B JUMP JUMPDEST SWAP7 POP POP JUMPDEST POP POP POP POP DUP1 DUP1 PUSH1 0x1 ADD SWAP2 POP POP PUSH2 0xA45 JUMP JUMPDEST POP POP POP SWAP5 SWAP4 POP POP POP POP JUMP JUMPDEST PUSH1 0x4 DUP3 DUP1 MLOAD PUSH1 0x20 DUP2 ADD DUP3 ADD DUP1 MLOAD DUP5 DUP3 MSTORE PUSH1 0x20 DUP4 ADD PUSH1 0x20 DUP6 ADD KECCAK256 DUP2 DUP4 MSTORE DUP1 SWAP6 POP POP POP POP POP POP DUP2 DUP2 SLOAD DUP2 LT PUSH2 0xD4E JUMPI PUSH0 DUP1 REVERT JUMPDEST SWAP1 PUSH0 MSTORE PUSH1 0x20 PUSH0 KECCAK256 ADD PUSH0 SWAP2 POP SWAP2 POP POP SLOAD DUP2 JUMP JUMPDEST PUSH1 0x60 PUSH0 PUSH1 0x4 DUP5 PUSH1 0x40 MLOAD PUSH2 0xD73 SWAP2 SWAP1 PUSH2 0x3F1C JUMP JUMPDEST SWAP1 DUP2 MSTORE PUSH1 0x20 ADD PUSH1 0x40 MLOAD DUP1 SWAP2 SUB SWAP1 KECCAK256 DUP1 SLOAD DUP1 PUSH1 0x20 MUL PUSH1 0x20 ADD PUSH1 0x40 MLOAD SWAP1 DUP2 ADD PUSH1 0x40 MSTORE DUP1 SWAP3 SWAP2 SWAP1 DUP2 DUP2 MSTORE PUSH1 0x20 ADD DUP3 DUP1 SLOAD DUP1 ISZERO PUSH2 0xDC9 JUMPI PUSH1 0x20 MUL DUP3 ADD SWAP2 SWAP1 PUSH0 MSTORE PUSH1 0x20 PUSH0 KECCAK256 SWAP1 JUMPDEST DUP2 SLOAD DUP2 MSTORE PUSH1 0x20 ADD SWAP1 PUSH1 0x1 ADD SWAP1 DUP1 DUP4 GT PUSH2 0xDB5 JUMPI JUMPDEST POP POP POP POP POP SWAP1 POP PUSH0 DUP2 MLOAD SWAP1 POP PUSH0 DUP5 GT DUP1 ISZERO PUSH2 0xDE3 JUMPI POP DUP1 DUP5 LT JUMPDEST ISZERO PUSH2 0xDEC JUMPI DUP4 SWAP1 POP JUMPDEST DUP1 PUSH8 0xFFFFFFFFFFFFFFFF DUP2 GT ISZERO PUSH2 0xE06 JUMPI PUSH2 0xE05 PUSH2 0x32C4 JUMP JUMPDEST JUMPDEST PUSH1 0x40 MLOAD SWAP1 DUP1 DUP3 MSTORE DUP1 PUSH1 0x20 MUL PUSH1 0x20 ADD DUP3 ADD PUSH1 0x40 MSTORE DUP1 ISZERO PUSH2 0xE3F JUMPI DUP2 PUSH1 0x20 ADD JUMPDEST PUSH2 0xE2C PUSH2 0x3146 JUMP JUMPDEST DUP2 MSTORE PUSH1 0x20 ADD SWAP1 PUSH1 0x1 SWAP1 SUB SWAP1 DUP2 PUSH2 0xE24 JUMPI SWAP1 POP JUMPDEST POP SWAP3 POP PUSH0 PUSH0 SWAP1 POP JUMPDEST DUP2 DUP2 LT ISZERO PUSH2 0x106E JUMPI PUSH0 DUP4 DUP3 PUSH1 0x1 DUP7 MLOAD PUSH2 0xE60 SWAP2 SWAP1 PUSH2 0x3F32 JUMP JUMPDEST PUSH2 0xE6A SWAP2 SWAP1 PUSH2 0x3F32 JUMP JUMPDEST DUP2 MLOAD DUP2 LT PUSH2 0xE7B JUMPI PUSH2 0xE7A PUSH2 0x3DE4 JUMP JUMPDEST JUMPDEST PUSH1 0x20 MUL PUSH1 0x20 ADD ADD MLOAD SWAP1 POP PUSH1 0x2 DUP2 DUP2 SLOAD DUP2 LT PUSH2 0xE99 JUMPI PUSH2 0xE98 PUSH2 0x3DE4 JUMP JUMPDEST JUMPDEST SWAP1 PUSH0 MSTORE PUSH1 0x20 PUSH0 KECCAK256 SWAP1 PUSH1 0x6 MUL ADD PUSH1 0x40 MLOAD DUP1 PUSH1 0xC0 ADD PUSH1 0x40 MSTORE SWAP1 DUP2 PUSH0 DUP3 ADD PUSH0 SWAP1 SLOAD SWAP1 PUSH2 0x100 EXP SWAP1 DIV PUSH20 0xFFFFFFFFFFFFFFFFFFFFFFFFFFFFFFFFFFFFFFFF AND PUSH20 0xFFFFFFFFFFFFFFFFFFFFFFFFFFFFFFFFFFFFFFFF AND PUSH20 0xFFFFFFFFFFFFFFFFFFFFFFFFFFFFFFFFFFFFFFFF AND DUP2 MSTORE PUSH1 0x20 ADD PUSH1 0x1 DUP3 ADD DUP1 SLOAD PUSH2 0xF14 SWAP1 PUSH2 0x3E3E JUMP JUMPDEST DUP1 PUSH1 0x1F ADD PUSH1 0x20 DUP1 SWAP2 DIV MUL PUSH1 0x20 ADD PUSH1 0x40 MLOAD SWAP1 DUP2 ADD PUSH1 0x40 MSTORE DUP1 SWAP3 SWAP2 SWAP1 DUP2 DUP2 MSTORE PUSH1 0x20 ADD DUP3 DUP1 SLOAD PUSH2 0xF40 SWAP1 PUSH2 0x3E3E JUMP JUMPDEST DUP1 ISZERO PUSH2 0xF8B JUMPI DUP1 PUSH1 0x1F LT PUSH2 0xF62 JUMPI PUSH2 0x100 DUP1 DUP4 SLOAD DIV MUL DUP4 MSTORE SWAP2 PUSH1 0x20 ADD SWAP2 PUSH2 0xF8B JUMP JUMPDEST DUP3 ADD SWAP2 SWAP1 PUSH0 MSTORE PUSH1 0x20 PUSH0 KECCAK256 SWAP1 JUMPDEST DUP2 SLOAD DUP2 MSTORE SWAP1 PUSH1 0x1 ADD SWAP1 PUSH1 0x20 ADD DUP1 DUP4 GT PUSH2 0xF6E JUMPI DUP3 SWAP1 SUB PUSH1 0x1F AND DUP3 ADD SWAP2 JUMPDEST POP POP POP POP POP DUP2 MSTORE PUSH1 0x20 ADD PUSH1 0x2 DUP3 ADD DUP1 SLOAD PUSH2 0xFA4 SWAP1 PUSH2 0x3E3E JUMP JUMPDEST DUP1 PUSH1 0x1F ADD PUSH1 0x20 DUP1 SWAP2 DIV MUL PUSH1 0x20 ADD PUSH1 0x40 MLOAD SWAP1 DUP2 ADD PUSH1 0x40 MSTORE DUP1 SWAP3 SWAP2 SWAP1 DUP2 DUP2 MSTORE PUSH1 0x20 ADD DUP3 DUP1 SLOAD PUSH2 0xFD0 SWAP1 PUSH2 0x3E3E JUMP JUMPDEST DUP1 ISZERO PUSH2 0x101B JUMPI DUP1 PUSH1 0x1F LT PUSH2 0xFF2 JUMPI PUSH2 0x100 DUP1 DUP4 SLOAD DIV MUL DUP4 MSTORE SWAP2 PUSH1 0x20 ADD SWAP2 PUSH2 0x101B JUMP JUMPDEST DUP3 ADD SWAP2 SWAP1 PUSH0 MSTORE PUSH1 0x20 PUSH0 KECCAK256 SWAP1 JUMPDEST DUP2 SLOAD DUP2 MSTORE SWAP1 PUSH1 0x1 ADD SWAP1 PUSH1 0x20 ADD DUP1 DUP4 GT PUSH2 0xFFE JUMPI DUP3 SWAP1 SUB PUSH1 0x1F AND DUP3 ADD SWAP2 JUMPDEST POP POP POP POP POP DUP2 MSTORE PUSH1 0x20 ADD PUSH1 0x3 DUP3 ADD SLOAD DUP2 MSTORE PUSH1 0x20 ADD PUSH1 0x4 DUP3 ADD SLOAD DUP2 MSTORE PUSH1 0x20 ADD PUSH1 0x5 DUP3 ADD SLOAD DUP2 MSTORE POP POP DUP6 DUP4 DUP2 MLOAD DUP2 LT PUSH2 0x1055 JUMPI PUSH2 0x1054 PUSH2 0x3DE4 JUMP JUMPDEST JUMPDEST PUSH1 0x20 MUL PUSH1 0x20 ADD ADD DUP2 SWAP1 MSTORE POP POP DUP1 DUP1 PUSH1 0x1 ADD SWAP2 POP POP PUSH2 0xE47 JUMP JUMPDEST POP POP POP SWAP3 SWAP2 POP POP JUMP JUMPDEST PUSH0 PUSH0 PUSH0 DUP4 DUP2 MSTORE PUSH1 0x20 ADD SWAP1 DUP2 MSTORE PUSH1 0x20 ADD PUSH0 KECCAK256 PUSH1 0x1 ADD SLOAD SWAP1 POP SWAP2 SWAP1 POP JUMP JUMPDEST PUSH1 0x60 PUSH0 PUSH0 DUP4 GT DUP1 ISZERO PUSH2 0x10A6 JUMPI POP PUSH1 0x64 DUP4 GT ISZERO JUMPDEST PUSH2 0x10E5 JUMPI PUSH1 0x40 MLOAD PUSH32 0x8C379A000000000000000000000000000000000000000000000000000000000 DUP2 MSTORE PUSH1 0x4 ADD PUSH2 0x10DC SWAP1 PUSH2 0x3FAF JUMP JUMPDEST PUSH1 0x40 MLOAD DUP1 SWAP2 SUB SWAP1 REVERT JUMPDEST PUSH0 PUSH0 SWAP1 POP PUSH0 PUSH0 SWAP1 POP JUMPDEST PUSH1 0x2 DUP1 SLOAD SWAP1 POP DUP2 LT ISZERO PUSH2 0x1172 JUMPI DUP8 PUSH1 0x2 DUP3 DUP2 SLOAD DUP2 LT PUSH2 0x1110 JUMPI PUSH2 0x110F PUSH2 0x3DE4 JUMP JUMPDEST JUMPDEST SWAP1 PUSH0 MSTORE PUSH1 0x20 PUSH0 KECCAK256 SWAP1 PUSH1 0x6 MUL ADD PUSH1 0x3 ADD SLOAD LT ISZERO DUP1 ISZERO PUSH2 0x1151 JUMPI POP DUP7 PUSH1 0x2 DUP3 DUP2 SLOAD DUP2 LT PUSH2 0x113E JUMPI PUSH2 0x113D PUSH2 0x3DE4 JUMP JUMPDEST JUMPDEST SWAP1 PUSH0 MSTORE PUSH1 0x20 PUSH0 KECCAK256 SWAP1 PUSH1 0x6 MUL ADD PUSH1 0x3 ADD SLOAD GT ISZERO JUMPDEST ISZERO PUSH2 0x1165 JUMPI DUP2 DUP1 PUSH2 0x1161 SWAP1 PUSH2 0x3E9B JUMP JUMPDEST SWAP3 POP POP JUMPDEST DUP1 DUP1 PUSH1 0x1 ADD SWAP2 POP POP PUSH2 0x10EE JUMP JUMPDEST POP PUSH0 DUP6 DUP3 GT PUSH2 0x1181 JUMPI PUSH0 PUSH2 0x118E JUMP JUMPDEST DUP6 DUP3 PUSH2 0x118D SWAP2 SWAP1 PUSH2 0x3F32 JUMP JUMPDEST JUMPDEST SWAP1 POP PUSH0 DUP6 DUP3 GT PUSH2 0x119E JUMPI DUP2 PUSH2 0x11A0 JUMP JUMPDEST DUP6 JUMPDEST SWAP1 POP DUP6 DUP3 GT SWAP4 POP DUP1 PUSH8 0xFFFFFFFFFFFFFFFF DUP2 GT ISZERO PUSH2 0x11C1 JUMPI PUSH2 0x11C0 PUSH2 0x32C4 JUMP JUMPDEST JUMPDEST PUSH1 0x40 MLOAD SWAP1 DUP1 DUP3 MSTORE DUP1 PUSH1 0x20 MUL PUSH1 0x20 ADD DUP3 ADD PUSH1 0x40 MSTORE DUP1 ISZERO PUSH2 0x11FA JUMPI DUP2 PUSH1 0x20 ADD JUMPDEST PUSH2 0x11E7 PUSH2 0x3146 JUMP JUMPDEST DUP2 MSTORE PUSH1 0x20 ADD SWAP1 PUSH1 0x1 SWAP1 SUB SWAP1 DUP2 PUSH2 0x11DF JUMPI SWAP1 POP JUMPDEST POP SWAP5 POP PUSH0 PUSH0 SWAP1 POP PUSH0 PUSH0 SWAP1 POP PUSH0 PUSH0 SWAP1 POP JUMPDEST PUSH1 0x2 DUP1 SLOAD SWAP1 POP DUP2 LT DUP1 ISZERO PUSH2 0x121D JUMPI POP DUP4 DUP3 LT JUMPDEST ISZERO PUSH2 0x1490 JUMPI DUP12 PUSH1 0x2 DUP3 DUP2 SLOAD DUP2 LT PUSH2 0x1237 JUMPI PUSH2 0x1236 PUSH2 0x3DE4 JUMP JUMPDEST JUMPDEST SWAP1 PUSH0 MSTORE PUSH1 0x20 PUSH0 KECCAK256 SWAP1 PUSH1 0x6 MUL ADD PUSH1 0x3 ADD SLOAD LT ISZERO DUP1 ISZERO PUSH2 0x1278 JUMPI POP DUP11 PUSH1 0x2 DUP3 DUP2 SLOAD DUP2 LT PUSH2 0x1265 JUMPI PUSH2 0x1264 PUSH2 0x3DE4 JUMP JUMPDEST JUMPDEST SWAP1 PUSH0 MSTORE PUSH1 0x20 PUSH0 KECCAK256 SWAP1 PUSH1 0x6 MUL ADD PUSH1 0x3 ADD SLOAD GT ISZERO JUMPDEST ISZERO PUSH2 0x147D JUMPI DUP10 DUP4 LT PUSH2 0x146E JUMPI PUSH1 0x2 DUP2 DUP2 SLOAD DUP2 LT PUSH2 0x1298 JUMPI PUSH2 0x1297 PUSH2 0x3DE4 JUMP JUMPDEST JUMPDEST SWAP1 PUSH0 MSTORE PUSH1 0x20 PUSH0 KECCAK256 SWAP1 PUSH1 0x6 MUL ADD PUSH1 0x40 MLOAD DUP1 PUSH1 0xC0 ADD PUSH1 0x40 MSTORE SWAP1 DUP2 PUSH0 DUP3 ADD PUSH0 SWAP1 SLOAD SWAP1 PUSH2 0x100 EXP SWAP1 DIV PUSH20 0xFFFFFFFFFFFFFFFFFFFFFFFFFFFFFFFFFFFFFFFF AND PUSH20 0xFFFFFFFFFFFFFFFFFFFFFFFFFFFFFFFFFFFFFFFF AND PUSH20 0xFFFFFFFFFFFFFFFFFFFFFFFFFFFFFFFFFFFFFFFF AND DUP2 MSTORE PUSH1 0x20 ADD PUSH1 0x1 DUP3 ADD DUP1 SLOAD PUSH2 0x1313 SWAP1 PUSH2 0x3E3E JUMP JUMPDEST DUP1 PUSH1 0x1F ADD PUSH1 0x20 DUP1 SWAP2 DIV MUL PUSH1 0x20 ADD PUSH1 0x40 MLOAD SWAP1 DUP2 ADD PUSH1 0x40 MSTORE DUP1 SWAP3 SWAP2 SWAP1 DUP2 DUP2 MSTORE PUSH1 0x20 ADD DUP3 DUP1 SLOAD PUSH2 0x133F SWAP1 PUSH2 0x3E3E JUMP JUMPDEST DUP1 ISZERO PUSH2 0x138A JUMPI DUP1 PUSH1 0x1F LT PUSH2 0x1361 JUMPI PUSH2 0x100 DUP1 DUP4 SLOAD DIV MUL DUP4 MSTORE SWAP2 PUSH1 0x20 ADD SWAP2 PUSH2 0x138A JUMP JUMPDEST DUP3 ADD SWAP2 SWAP1 PUSH0 MSTORE PUSH1 0x20 PUSH0 KECCAK256 SWAP1 JUMPDEST DUP2 SLOAD DUP2 MSTORE SWAP1 PUSH1 0x1 ADD SWAP1 PUSH1 0x20 ADD DUP1 DUP4 GT PUSH2 0x136D JUMPI DUP3 SWAP1 SUB PUSH1 0x1F AND DUP3 ADD SWAP2 JUMPDEST POP POP POP POP POP DUP2 MSTORE PUSH1 0x20 ADD PUSH1 0x2 DUP3 ADD DUP1 SLOAD PUSH2 0x13A3 SWAP1 PUSH2 0x3E3E JUMP JUMPDEST DUP1 PUSH1 0x1F ADD PUSH1 0x20 DUP1 SWAP2 DIV MUL PUSH1 0x20 ADD PUSH1 0x40 MLOAD SWAP1 DUP2 ADD PUSH1 0x40 MSTORE DUP1 SWAP3 SWAP2 SWAP1 DUP2 DUP2 MSTORE PUSH1 0x20 ADD DUP3 DUP1 SLOAD PUSH2 0x13CF SWAP1 PUSH2 0x3E3E JUMP JUMPDEST DUP1 ISZERO PUSH2 0x141A JUMPI DUP1 PUSH1 0x1F LT PUSH2 0x13F1 JUMPI PUSH2 0x100 DUP1 DUP4 SLOAD DIV MUL DUP4 MSTORE SWAP2 PUSH1 0x20 ADD SWAP2 PUSH2 0x141A JUMP JUMPDEST DUP3 ADD SWAP2 SWAP1 PUSH0 MSTORE PUSH1 0x20 PUSH0 KECCAK256 SWAP1 JUMPDEST DUP2 SLOAD DUP2 MSTORE SWAP1 PUSH1 0x1 ADD SWAP1 PUSH1 0x20 ADD DUP1 DUP4 GT PUSH2 0x13FD JUMPI DUP3 SWAP1 SUB PUSH1 0x1F AND DUP3 ADD SWAP2 JUMPDEST POP POP POP POP POP DUP2 MSTORE PUSH1 0x20 ADD PUSH1 0x3 DUP3 ADD SLOAD DUP2 MSTORE PUSH1 0x20 ADD PUSH1 0x4 DUP3 ADD SLOAD DUP2 MSTORE PUSH1 0x20 ADD PUSH1 0x5 DUP3 ADD SLOAD DUP2 MSTORE POP POP DUP9 DUP4 DUP2 MLOAD DUP2 LT PUSH2 0x1454 JUMPI PUSH2 0x1453 PUSH2 0x3DE4 JUMP JUMPDEST JUMPDEST PUSH1 0x20 MUL PUSH1 0x20 ADD ADD DUP2 SWAP1 MSTORE POP DUP2 DUP1 PUSH2 0x146A SWAP1 PUSH2 0x3E9B JUMP JUMPDEST SWAP3 POP POP JUMPDEST DUP3 DUP1 PUSH2 0x1479 SWAP1 PUSH2 0x3E9B JUMP JUMPDEST SWAP4 POP POP JUMPDEST DUP1 DUP1 PUSH2 0x1488 SWAP1 PUSH2 0x3E9B JUMP JUMPDEST SWAP2 POP POP PUSH2 0x120A JUMP JUMPDEST POP POP POP POP POP POP SWAP5 POP SWAP5 SWAP3 POP POP POP JUMP JUMPDEST PUSH1 0x60 PUSH1 0x4 DUP3 PUSH1 0x40 MLOAD PUSH2 0x14B1 SWAP2 SWAP1 PUSH2 0x3F1C JUMP JUMPDEST SWAP1 DUP2 MSTORE PUSH1 0x20 ADD PUSH1 0x40 MLOAD DUP1 SWAP2 SUB SWAP1 KECCAK256 DUP1 SLOAD DUP1 PUSH1 0x20 MUL PUSH1 0x20 ADD PUSH1 0x40 MLOAD SWAP1 DUP2 ADD PUSH1 0x40 MSTORE DUP1 SWAP3 SWAP2 SWAP1 DUP2 DUP2 MSTORE PUSH1 0x20 ADD DUP3 DUP1 SLOAD DUP1 ISZERO PUSH2 0x1507 JUMPI PUSH1 0x20 MUL DUP3 ADD SWAP2 SWAP1 PUSH0 MSTORE PUSH1 0x20 PUSH0 KECCAK256 SWAP1 JUMPDEST DUP2 SLOAD DUP2 MSTORE PUSH1 0x20 ADD SWAP1 PUSH1 0x1 ADD SWAP1 DUP1 DUP4 GT PUSH2 0x14F3 JUMPI JUMPDEST POP POP POP POP POP SWAP1 POP SWAP2 SWAP1 POP JUMP JUMPDEST PUSH2 0x151C DUP3 PUSH2 0x1077 JUMP JUMPDEST PUSH2 0x1525 DUP2 PUSH2 0x2F08 JUMP JUMPDEST PUSH2 0x152F DUP4 DUP4 PUSH2 0x2F1C JUMP JUMPDEST POP POP POP POP JUMP JUMPDEST PUSH2 0x153D PUSH2 0x3005 JUMP JUMPDEST PUSH20 0xFFFFFFFFFFFFFFFFFFFFFFFFFFFFFFFFFFFFFFFF AND DUP2 PUSH20 0xFFFFFFFFFFFFFFFFFFFFFFFFFFFFFFFFFFFFFFFF AND EQ PUSH2 0x15A1 JUMPI PUSH1 0x40 MLOAD PUSH32 0x6697B23200000000000000000000000000000000000000000000000000000000 DUP2 MSTORE PUSH1 0x4 ADD PUSH1 0x40 MLOAD DUP1 SWAP2 SUB SWAP1 REVERT JUMPDEST PUSH2 0x15AB DUP3 DUP3 PUSH2 0x300C JUMP JUMPDEST POP POP POP JUMP JUMPDEST PUSH0 PUSH1 0x3 PUSH0 DUP4 PUSH20 0xFFFFFFFFFFFFFFFFFFFFFFFFFFFFFFFFFFFFFFFF AND PUSH20 0xFFFFFFFFFFFFFFFFFFFFFFFFFFFFFFFFFFFFFFFF AND DUP2 MSTORE PUSH1 0x20 ADD SWAP1 DUP2 MSTORE PUSH1 0x20 ADD PUSH0 KECCAK256 DUP1 SLOAD SWAP1 POP SWAP1 POP SWAP2 SWAP1 POP JUMP JUMPDEST PUSH0 PUSH1 0x5 PUSH0 DUP4 DUP2 MSTORE PUSH1 0x20 ADD SWAP1 DUP2 MSTORE PUSH1 0x20 ADD PUSH0 KECCAK256 DUP1 SLOAD SWAP1 POP SWAP1 POP SWAP2 SWAP1 POP JUMP JUMPDEST PUSH1 0x1 PUSH0 SWAP1 SLOAD SWAP1 PUSH2 0x100 EXP SWAP1 DIV PUSH20 0xFFFFFFFFFFFFFFFFFFFFFFFFFFFFFFFFFFFFFFFF AND PUSH20 0xFFFFFFFFFFFFFFFFFFFFFFFFFFFFFFFFFFFFFFFF AND CALLER PUSH20 0xFFFFFFFFFFFFFFFFFFFFFFFFFFFFFFFFFFFFFFFF AND EQ DUP1 PUSH2 0x1728 JUMPI POP PUSH1 0x1 PUSH0 SWAP1 SLOAD SWAP1 PUSH2 0x100 EXP SWAP1 DIV PUSH20 0xFFFFFFFFFFFFFFFFFFFFFFFFFFFFFFFFFFFFFFFF AND PUSH20 0xFFFFFFFFFFFFFFFFFFFFFFFFFFFFFFFFFFFFFFFF AND PUSH4 0x91D14854 PUSH32 0xA49807205CE4D355092EF5A8A18F56E8913CF4A201FBE287825B095693C21775 CALLER PUSH1 0x40 MLOAD DUP4 PUSH4 0xFFFFFFFF AND PUSH1 0xE0 SHL DUP2 MSTORE PUSH1 0x4 ADD PUSH2 0x16E8 SWAP3 SWAP2 SWAP1 PUSH2 0x3FCD JUMP JUMPDEST PUSH1 0x20 PUSH1 0x40 MLOAD DUP1 DUP4 SUB DUP2 DUP7 GAS STATICCALL ISZERO DUP1 ISZERO PUSH2 0x1703 JUMPI RETURNDATASIZE PUSH0 PUSH0 RETURNDATACOPY RETURNDATASIZE PUSH0 REVERT JUMPDEST POP POP POP POP PUSH1 0x40 MLOAD RETURNDATASIZE PUSH1 0x1F NOT PUSH1 0x1F DUP3 ADD AND DUP3 ADD DUP1 PUSH1 0x40 MSTORE POP DUP2 ADD SWAP1 PUSH2 0x1727 SWAP2 SWAP1 PUSH2 0x401E JUMP JUMPDEST JUMPDEST PUSH2 0x1767 JUMPI PUSH1 0x40 MLOAD PUSH32 0x8C379A000000000000000000000000000000000000000000000000000000000 DUP2 MSTORE PUSH1 0x4 ADD PUSH2 0x175E SWAP1 PUSH2 0x4093 JUMP JUMPDEST PUSH1 0x40 MLOAD DUP1 SWAP2 SUB SWAP1 REVERT JUMPDEST PUSH0 PUSH1 0x2 DUP1 SLOAD SWAP1 POP SWAP1 POP PUSH0 PUSH3 0x15180 TIMESTAMP PUSH2 0x1780 SWAP2 SWAP1 PUSH2 0x40DE JUMP JUMPDEST SWAP1 POP PUSH0 PUSH1 0x40 MLOAD DUP1 PUSH1 0xC0 ADD PUSH1 0x40 MSTORE DUP1 DUP8 PUSH20 0xFFFFFFFFFFFFFFFFFFFFFFFFFFFFFFFFFFFFFFFF AND DUP2 MSTORE PUSH1 0x20 ADD DUP7 DUP2 MSTORE PUSH1 0x20 ADD DUP6 DUP2 MSTORE PUSH1 0x20 ADD TIMESTAMP DUP2 MSTORE PUSH1 0x20 ADD NUMBER DUP2 MSTORE PUSH1 0x20 ADD PUSH1 0x1 NUMBER PUSH2 0x17CF SWAP2 SWAP1 PUSH2 0x3F32 JUMP JUMPDEST BLOCKHASH DUP2 MSTORE POP SWAP1 POP PUSH1 0x2 DUP2 SWAP1 DUP1 PUSH1 0x1 DUP2 SLOAD ADD DUP1 DUP3 SSTORE DUP1 SWAP2 POP POP PUSH1 0x1 SWAP1 SUB SWAP1 PUSH0 MSTORE PUSH1 0x20 PUSH0 KECCAK256 SWAP1 PUSH1 0x6 MUL ADD PUSH0 SWAP1 SWAP2 SWAP1 SWAP2 SWAP1 SWAP2 POP PUSH0 DUP3 ADD MLOAD DUP2 PUSH0 ADD PUSH0 PUSH2 0x100 EXP DUP2 SLOAD DUP2 PUSH20 0xFFFFFFFFFFFFFFFFFFFFFFFFFFFFFFFFFFFFFFFF MUL NOT AND SWAP1 DUP4 PUSH20 0xFFFFFFFFFFFFFFFFFFFFFFFFFFFFFFFFFFFFFFFF AND MUL OR SWAP1 SSTORE POP PUSH1 0x20 DUP3 ADD MLOAD DUP2 PUSH1 0x1 ADD SWAP1 DUP2 PUSH2 0x1857 SWAP2 SWAP1 PUSH2 0x42AE JUMP JUMPDEST POP PUSH1 0x40 DUP3 ADD MLOAD DUP2 PUSH1 0x2 ADD SWAP1 DUP2 PUSH2 0x186D SWAP2 SWAP1 PUSH2 0x43D5 JUMP JUMPDEST POP PUSH1 0x60 DUP3 ADD MLOAD DUP2 PUSH1 0x3 ADD SSTORE PUSH1 0x80 DUP3 ADD MLOAD DUP2 PUSH1 0x4 ADD SSTORE PUSH1 0xA0 DUP3 ADD MLOAD DUP2 PUSH1 0x5 ADD SSTORE POP POP PUSH1 0x3 PUSH0 DUP8 PUSH20 0xFFFFFFFFFFFFFFFFFFFFFFFFFFFFFFFFFFFFFFFF AND PUSH20 0xFFFFFFFFFFFFFFFFFFFFFFFFFFFFFFFFFFFFFFFF AND DUP2 MSTORE PUSH1 0x20 ADD SWAP1 DUP2 MSTORE PUSH1 0x20 ADD PUSH0 KECCAK256 DUP4 SWAP1 DUP1 PUSH1 0x1 DUP2 SLOAD ADD DUP1 DUP3 SSTORE DUP1 SWAP2 POP POP PUSH1 0x1 SWAP1 SUB SWAP1 PUSH0 MSTORE PUSH1 0x20 PUSH0 KECCAK256 ADD PUSH0 SWAP1 SWAP2 SWAP1 SWAP2 SWAP1 SWAP2 POP SSTORE PUSH1 0x4 DUP6 PUSH1 0x40 MLOAD PUSH2 0x18FF SWAP2 SWAP1 PUSH2 0x3F1C JUMP JUMPDEST SWAP1 DUP2 MSTORE PUSH1 0x20 ADD PUSH1 0x40 MLOAD DUP1 SWAP2 SUB SWAP1 KECCAK256 DUP4 SWAP1 DUP1 PUSH1 0x1 DUP2 SLOAD ADD DUP1 DUP3 SSTORE DUP1 SWAP2 POP POP PUSH1 0x1 SWAP1 SUB SWAP1 PUSH0 MSTORE PUSH1 0x20 PUSH0 KECCAK256 ADD PUSH0 SWAP1 SWAP2 SWAP1 SWAP2 SWAP1 SWAP2 POP SSTORE PUSH1 0x5 PUSH0 DUP4 DUP2 MSTORE PUSH1 0x20 ADD SWAP1 DUP2 MSTORE PUSH1 0x20 ADD PUSH0 KECCAK256 DUP4 SWAP1 DUP1 PUSH1 0x1 DUP2 SLOAD ADD DUP1 DUP3 SSTORE DUP1 SWAP2 POP POP PUSH1 0x1 SWAP1 SUB SWAP1 PUSH0 MSTORE PUSH1 0x20 PUSH0 KECCAK256 ADD PUSH0 SWAP1 SWAP2 SWAP1 SWAP2 SWAP1 SWAP2 POP SSTORE DUP5 PUSH1 0x40 MLOAD PUSH2 0x1974 SWAP2 SWAP1 PUSH2 0x3F1C JUMP JUMPDEST PUSH1 0x40 MLOAD DUP1 SWAP2 SUB SWAP1 KECCAK256 DUP7 PUSH20 0xFFFFFFFFFFFFFFFFFFFFFFFFFFFFFFFFFFFFFFFF AND PUSH32 0x2BD016DCA1398209E4E532A5C95AF48B682C5ED098C20EB0EC41E4B3AC420724 TIMESTAMP DUP7 PUSH1 0x40 MLOAD PUSH2 0x19C4 SWAP3 SWAP2 SWAP1 PUSH2 0x44A4 JUMP JUMPDEST PUSH1 0x40 MLOAD DUP1 SWAP2 SUB SWAP1 LOG3 POP POP POP POP POP POP JUMP JUMPDEST PUSH1 0x60 PUSH1 0x3 PUSH0 DUP4 PUSH20 0xFFFFFFFFFFFFFFFFFFFFFFFFFFFFFFFFFFFFFFFF AND PUSH20 0xFFFFFFFFFFFFFFFFFFFFFFFFFFFFFFFFFFFFFFFF AND DUP2 MSTORE PUSH1 0x20 ADD SWAP1 DUP2 MSTORE PUSH1 0x20 ADD PUSH0 KECCAK256 DUP1 SLOAD DUP1 PUSH1 0x20 MUL PUSH1 0x20 ADD PUSH1 0x40 MLOAD SWAP1 DUP2 ADD PUSH1 0x40 MSTORE DUP1 SWAP3 SWAP2 SWAP1 DUP2 DUP2 MSTORE PUSH1 0x20 ADD DUP3 DUP1 SLOAD DUP1 ISZERO PUSH2 0x1A5B JUMPI PUSH1 0x20 MUL DUP3 ADD SWAP2 SWAP1 PUSH0 MSTORE PUSH1 0x20 PUSH0 KECCAK256 SWAP1 JUMPDEST DUP2 SLOAD DUP2 MSTORE PUSH1 0x20 ADD SWAP1 PUSH1 0x1 ADD SWAP1 DUP1 DUP4 GT PUSH2 0x1A47 JUMPI JUMPDEST POP POP POP POP POP SWAP1 POP SWAP2 SWAP1 POP JUMP JUMPDEST PUSH0 PUSH1 0x4 DUP3 PUSH1 0x40 MLOAD PUSH2 0x1A78 SWAP2 SWAP1 PUSH2 0x3F1C JUMP JUMPDEST SWAP1 DUP2 MSTORE PUSH1 0x20 ADD PUSH1 0x40 MLOAD DUP1 SWAP2 SUB SWAP1 KECCAK256 DUP1 SLOAD SWAP1 POP SWAP1 POP SWAP2 SWAP1 POP JUMP JUMPDEST PUSH32 0xA49807205CE4D355092EF5A8A18F56E8913CF4A201FBE287825B095693C21775 DUP2 JUMP JUMPDEST PUSH0 PUSH0 PUSH0 DUP5 DUP2 MSTORE PUSH1 0x20 ADD SWAP1 DUP2 MSTORE PUSH1 0x20 ADD PUSH0 KECCAK256 PUSH0 ADD PUSH0 DUP4 PUSH20 0xFFFFFFFFFFFFFFFFFFFFFFFFFFFFFFFFFFFFFFFF AND PUSH20 0xFFFFFFFFFFFFFFFFFFFFFFFFFFFFFFFFFFFFFFFF AND DUP2 MSTORE PUSH1 0x20 ADD SWAP1 DUP2 MSTORE PUSH1 0x20 ADD PUSH0 KECCAK256 PUSH0 SWAP1 SLOAD SWAP1 PUSH2 0x100 EXP SWAP1 DIV PUSH1 0xFF AND SWAP1 POP SWAP3 SWAP2 POP POP JUMP JUMPDEST PUSH1 0x1 PUSH0 SWAP1 SLOAD SWAP1 PUSH2 0x100 EXP SWAP1 DIV PUSH20 0xFFFFFFFFFFFFFFFFFFFFFFFFFFFFFFFFFFFFFFFF AND DUP2 JUMP JUMPDEST PUSH0 PUSH0 SHL DUP2 JUMP JUMPDEST PUSH1 0x5 PUSH1 0x20 MSTORE DUP2 PUSH0 MSTORE PUSH1 0x40 PUSH0 KECCAK256 DUP2 DUP2 SLOAD DUP2 LT PUSH2 0x1B5C JUMPI PUSH0 DUP1 REVERT JUMPDEST SWAP1 PUSH0 MSTORE PUSH1 0x20 PUSH0 KECCAK256 ADD PUSH0 SWAP2 POP SWAP2 POP POP SLOAD DUP2 JUMP JUMPDEST PUSH1 0x60 DUP2 DUP4 GT ISZERO PUSH2 0x1BB3 JUMPI PUSH1 0x40 MLOAD PUSH32 0x8C379A000000000000000000000000000000000000000000000000000000000 DUP2 MSTORE PUSH1 0x4 ADD PUSH2 0x1BAA SWAP1 PUSH2 0x4515 JUMP JUMPDEST PUSH1 0x40 MLOAD DUP1 SWAP2 SUB SWAP1 REVERT JUMPDEST PUSH0 PUSH0 SWAP1 POP PUSH0 PUSH0 SWAP1 POP JUMPDEST PUSH1 0x2 DUP1 SLOAD SWAP1 POP DUP2 LT ISZERO PUSH2 0x1C40 JUMPI DUP5 PUSH1 0x2 DUP3 DUP2 SLOAD DUP2 LT PUSH2 0x1BDE JUMPI PUSH2 0x1BDD PUSH2 0x3DE4 JUMP JUMPDEST JUMPDEST SWAP1 PUSH0 MSTORE PUSH1 0x20 PUSH0 KECCAK256 SWAP1 PUSH1 0x6 MUL ADD PUSH1 0x3 ADD SLOAD LT ISZERO DUP1 ISZERO PUSH2 0x1C1F JUMPI POP DUP4 PUSH1 0x2 DUP3 DUP2 SLOAD DUP2 LT PUSH2 0x1C0C JUMPI PUSH2 0x1C0B PUSH2 0x3DE4 JUMP JUMPDEST JUMPDEST SWAP1 PUSH0 MSTORE PUSH1 0x20 PUSH0 KECCAK256 SWAP1 PUSH1 0x6 MUL ADD PUSH1 0x3 ADD SLOAD GT ISZERO JUMPDEST ISZERO PUSH2 0x1C33 JUMPI DUP2 DUP1 PUSH2 0x1C2F SWAP1 PUSH2 0x3E9B JUMP JUMPDEST SWAP3 POP POP JUMPDEST DUP1 DUP1 PUSH1 0x1 ADD SWAP2 POP POP PUSH2 0x1BBC JUMP JUMPDEST POP DUP1 PUSH8 0xFFFFFFFFFFFFFFFF DUP2 GT ISZERO PUSH2 0x1C5B JUMPI PUSH2 0x1C5A PUSH2 0x32C4 JUMP JUMPDEST JUMPDEST PUSH1 0x40 MLOAD SWAP1 DUP1 DUP3 MSTORE DUP1 PUSH1 0x20 MUL PUSH1 0x20 ADD DUP3 ADD PUSH1 0x40 MSTORE DUP1 ISZERO PUSH2 0x1C94 JUMPI DUP2 PUSH1 0x20 ADD JUMPDEST PUSH2 0x1C81 PUSH2 0x3146 JUMP JUMPDEST DUP2 MSTORE PUSH1 0x20 ADD SWAP1 PUSH1 0x1 SWAP1 SUB SWAP1 DUP2 PUSH2 0x1C79 JUMPI SWAP1 POP JUMPDEST POP SWAP2 POP PUSH0 PUSH0 SWAP1 POP PUSH0 PUSH0 SWAP1 POP JUMPDEST PUSH1 0x2 DUP1 SLOAD SWAP1 POP DUP2 LT ISZERO PUSH2 0x1EFF JUMPI DUP6 PUSH1 0x2 DUP3 DUP2 SLOAD DUP2 LT PUSH2 0x1CC2 JUMPI PUSH2 0x1CC1 PUSH2 0x3DE4 JUMP JUMPDEST JUMPDEST SWAP1 PUSH0 MSTORE PUSH1 0x20 PUSH0 KECCAK256 SWAP1 PUSH1 0x6 MUL ADD PUSH1 0x3 ADD SLOAD LT ISZERO DUP1 ISZERO PUSH2 0x1D03 JUMPI POP DUP5 PUSH1 0x2 DUP3 DUP2 SLOAD DUP2 LT PUSH2 0x1CF0 JUMPI PUSH2 0x1CEF PUSH2 0x3DE4 JUMP JUMPDEST JUMPDEST SWAP1 PUSH0 MSTORE PUSH1 0x20 PUSH0 KECCAK256 SWAP1 PUSH1 0x6 MUL ADD PUSH1 0x3 ADD SLOAD GT ISZERO JUMPDEST ISZERO PUSH2 0x1EF2 JUMPI PUSH1 0x2 DUP2 DUP2 SLOAD DUP2 LT PUSH2 0x1D1C JUMPI PUSH2 0x1D1B PUSH2 0x3DE4 JUMP JUMPDEST JUMPDEST SWAP1 PUSH0 MSTORE PUSH1 0x20 PUSH0 KECCAK256 SWAP1 PUSH1 0x6 MUL ADD PUSH1 0x40 MLOAD DUP1 PUSH1 0xC0 ADD PUSH1 0x40 MSTORE SWAP1 DUP2 PUSH0 DUP3 ADD PUSH0 SWAP1 SLOAD SWAP1 PUSH2 0x100 EXP SWAP1 DIV PUSH20 0xFFFFFFFFFFFFFFFFFFFFFFFFFFFFFFFFFFFFFFFF AND PUSH20 0xFFFFFFFFFFFFFFFFFFFFFFFFFFFFFFFFFFFFFFFF AND PUSH20 0xFFFFFFFFFFFFFFFFFFFFFFFFFFFFFFFFFFFFFFFF AND DUP2 MSTORE PUSH1 0x20 ADD PUSH1 0x1 DUP3 ADD DUP1 SLOAD PUSH2 0x1D97 SWAP1 PUSH2 0x3E3E JUMP JUMPDEST DUP1 PUSH1 0x1F ADD PUSH1 0x20 DUP1 SWAP2 DIV MUL PUSH1 0x20 ADD PUSH1 0x40 MLOAD SWAP1 DUP2 ADD PUSH1 0x40 MSTORE DUP1 SWAP3 SWAP2 SWAP1 DUP2 DUP2 MSTORE PUSH1 0x20 ADD DUP3 DUP1 SLOAD PUSH2 0x1DC3 SWAP1 PUSH2 0x3E3E JUMP JUMPDEST DUP1 ISZERO PUSH2 0x1E0E JUMPI DUP1 PUSH1 0x1F LT PUSH2 0x1DE5 JUMPI PUSH2 0x100 DUP1 DUP4 SLOAD DIV MUL DUP4 MSTORE SWAP2 PUSH1 0x20 ADD SWAP2 PUSH2 0x1E0E JUMP JUMPDEST DUP3 ADD SWAP2 SWAP1 PUSH0 MSTORE PUSH1 0x20 PUSH0 KECCAK256 SWAP1 JUMPDEST DUP2 SLOAD DUP2 MSTORE SWAP1 PUSH1 0x1 ADD SWAP1 PUSH1 0x20 ADD DUP1 DUP4 GT PUSH2 0x1DF1 JUMPI DUP3 SWAP1 SUB PUSH1 0x1F AND DUP3 ADD SWAP2 JUMPDEST POP POP POP POP POP DUP2 MSTORE PUSH1 0x20 ADD PUSH1 0x2 DUP3 ADD DUP1 SLOAD PUSH2 0x1E27 SWAP1 PUSH2 0x3E3E JUMP JUMPDEST DUP1 PUSH1 0x1F ADD PUSH1 0x20 DUP1 SWAP2 DIV MUL PUSH1 0x20 ADD PUSH1 0x40 MLOAD SWAP1 DUP2 ADD PUSH1 0x40 MSTORE DUP1 SWAP3 SWAP2 SWAP1 DUP2 DUP2 MSTORE PUSH1 0x20 ADD DUP3 DUP1 SLOAD PUSH2 0x1E53 SWAP1 PUSH2 0x3E3E JUMP JUMPDEST DUP1 ISZERO PUSH2 0x1E9E JUMPI DUP1 PUSH1 0x1F LT PUSH2 0x1E75 JUMPI PUSH2 0x100 DUP1 DUP4 SLOAD DIV MUL DUP4 MSTORE SWAP2 PUSH1 0x20 ADD SWAP2 PUSH2 0x1E9E JUMP JUMPDEST DUP3 ADD SWAP2 SWAP1 PUSH0 MSTORE PUSH1 0x20 PUSH0 KECCAK256 SWAP1 JUMPDEST DUP2 SLOAD DUP2 MSTORE SWAP1 PUSH1 0x1 ADD SWAP1 PUSH1 0x20 ADD DUP1 DUP4 GT PUSH2 0x1E81 JUMPI DUP3 SWAP1 SUB PUSH1 0x1F AND DUP3 ADD SWAP2 JUMPDEST POP POP POP POP POP DUP2 MSTORE PUSH1 0x20 ADD PUSH1 0x3 DUP3 ADD SLOAD DUP2 MSTORE PUSH1 0x20 ADD PUSH1 0x4 DUP3 ADD SLOAD DUP2 MSTORE PUSH1 0x20 ADD PUSH1 0x5 DUP3 ADD SLOAD DUP2 MSTORE POP POP DUP5 DUP4 DUP2 MLOAD DUP2 LT PUSH2 0x1ED8 JUMPI PUSH2 0x1ED7 PUSH2 0x3DE4 JUMP JUMPDEST JUMPDEST PUSH1 0x20 MUL PUSH1 0x20 ADD ADD DUP2 SWAP1 MSTORE POP DUP2 DUP1 PUSH2 0x1EEE SWAP1 PUSH2 0x3E9B JUMP JUMPDEST SWAP3 POP POP JUMPDEST DUP1 DUP1 PUSH1 0x1 ADD SWAP2 POP POP PUSH2 0x1CA0 JUMP JUMPDEST POP POP POP SWAP3 SWAP2 POP POP JUMP JUMPDEST PUSH0 PUSH0 PUSH0 PUSH0 PUSH0 PUSH0 SWAP5 POP PUSH0 SWAP4 POP PUSH0 SWAP3 POP PUSH0 SWAP2 POP PUSH0 SWAP1 POP PUSH0 PUSH1 0x2 DUP1 SLOAD SWAP1 POP PUSH8 0xFFFFFFFFFFFFFFFF DUP2 GT ISZERO PUSH2 0x1F3C JUMPI PUSH2 0x1F3B PUSH2 0x32C4 JUMP JUMPDEST JUMPDEST PUSH1 0x40 MLOAD SWAP1 DUP1 DUP3 MSTORE DUP1 PUSH1 0x20 MUL PUSH1 0x20 ADD DUP3 ADD PUSH1 0x40 MSTORE DUP1 ISZERO PUSH2 0x1F6A JUMPI DUP2 PUSH1 0x20 ADD PUSH1 0x20 DUP3 MUL DUP1 CALLDATASIZE DUP4 CALLDATACOPY DUP1 DUP3 ADD SWAP2 POP POP SWAP1 POP JUMPDEST POP SWAP1 POP PUSH0 PUSH0 SWAP1 POP JUMPDEST PUSH1 0x2 DUP1 SLOAD SWAP1 POP DUP2 LT ISZERO PUSH2 0x2413 JUMPI PUSH0 PUSH1 0x2 DUP3 DUP2 SLOAD DUP2 LT PUSH2 0x1F94 JUMPI PUSH2 0x1F93 PUSH2 0x3DE4 JUMP JUMPDEST JUMPDEST SWAP1 PUSH0 MSTORE PUSH1 0x20 PUSH0 KECCAK256 SWAP1 PUSH1 0x6 MUL ADD PUSH1 0x40 MLOAD DUP1 PUSH1 0xC0 ADD PUSH1 0x40 MSTORE SWAP1 DUP2 PUSH0 DUP3 ADD PUSH0 SWAP1 SLOAD SWAP1 PUSH2 0x100 EXP SWAP1 DIV PUSH20 0xFFFFFFFFFFFFFFFFFFFFFFFFFFFFFFFFFFFFFFFF AND PUSH20 0xFFFFFFFFFFFFFFFFFFFFFFFFFFFFFFFFFFFFFFFF AND PUSH20 0xFFFFFFFFFFFFFFFFFFFFFFFFFFFFFFFFFFFFFFFF AND DUP2 MSTORE PUSH1 0x20 ADD PUSH1 0x1 DUP3 ADD DUP1 SLOAD PUSH2 0x200F SWAP1 PUSH2 0x3E3E JUMP JUMPDEST DUP1 PUSH1 0x1F ADD PUSH1 0x20 DUP1 SWAP2 DIV MUL PUSH1 0x20 ADD PUSH1 0x40 MLOAD SWAP1 DUP2 ADD PUSH1 0x40 MSTORE DUP1 SWAP3 SWAP2 SWAP1 DUP2 DUP2 MSTORE PUSH1 0x20 ADD DUP3 DUP1 SLOAD PUSH2 0x203B SWAP1 PUSH2 0x3E3E JUMP JUMPDEST DUP1 ISZERO PUSH2 0x2086 JUMPI DUP1 PUSH1 0x1F LT PUSH2 0x205D JUMPI PUSH2 0x100 DUP1 DUP4 SLOAD DIV MUL DUP4 MSTORE SWAP2 PUSH1 0x20 ADD SWAP2 PUSH2 0x2086 JUMP JUMPDEST DUP3 ADD SWAP2 SWAP1 PUSH0 MSTORE PUSH1 0x20 PUSH0 KECCAK256 SWAP1 JUMPDEST DUP2 SLOAD DUP2 MSTORE SWAP1 PUSH1 0x1 ADD SWAP1 PUSH1 0x20 ADD DUP1 DUP4 GT PUSH2 0x2069 JUMPI DUP3 SWAP1 SUB PUSH1 0x1F AND DUP3 ADD SWAP2 JUMPDEST POP POP POP POP POP DUP2 MSTORE PUSH1 0x20 ADD PUSH1 0x2 DUP3 ADD DUP1 SLOAD PUSH2 0x209F SWAP1 PUSH2 0x3E3E JUMP JUMPDEST DUP1 PUSH1 0x1F ADD PUSH1 0x20 DUP1 SWAP2 DIV MUL PUSH1 0x20 ADD PUSH1 0x40 MLOAD SWAP1 DUP2 ADD PUSH1 0x40 MSTORE DUP1 SWAP3 SWAP2 SWAP1 DUP2 DUP2 MSTORE PUSH1 0x20 ADD DUP3 DUP1 SLOAD PUSH2 0x20CB SWAP1 PUSH2 0x3E3E JUMP JUMPDEST DUP1 ISZERO PUSH2 0x2116 JUMPI DUP1 PUSH1 0x1F LT PUSH2 0x20ED JUMPI PUSH2 0x100 DUP1 DUP4 SLOAD DIV MUL DUP4 MSTORE SWAP2 PUSH1 0x20 ADD SWAP2 PUSH2 0x2116 JUMP JUMPDEST DUP3 ADD SWAP2 SWAP1 PUSH0 MSTORE PUSH1 0x20 PUSH0 KECCAK256 SWAP1 JUMPDEST DUP2 SLOAD DUP2 MSTORE SWAP1 PUSH1 0x1 ADD SWAP1 PUSH1 0x20 ADD DUP1 DUP4 GT PUSH2 0x20F9 JUMPI DUP3 SWAP1 SUB PUSH1 0x1F AND DUP3 ADD SWAP2 JUMPDEST POP POP POP POP POP DUP2 MSTORE PUSH1 0x20 ADD PUSH1 0x3 DUP3 ADD SLOAD DUP2 MSTORE PUSH1 0x20 ADD PUSH1 0x4 DUP3 ADD SLOAD DUP2 MSTORE PUSH1 0x20 ADD PUSH1 0x5 DUP3 ADD SLOAD DUP2 MSTORE POP POP SWAP1 POP DUP10 DUP2 PUSH1 0x60 ADD MLOAD LT ISZERO DUP1 ISZERO PUSH2 0x2157 JUMPI POP DUP9 DUP2 PUSH1 0x60 ADD MLOAD GT ISZERO JUMPDEST ISZERO PUSH2 0x2405 JUMPI DUP8 DUP1 PUSH2 0x2167 SWAP1 PUSH2 0x3E9B JUMP JUMPDEST SWAP9 POP POP PUSH0 DUP2 PUSH1 0x20 ADD MLOAD DUP1 MLOAD SWAP1 PUSH1 0x20 ADD KECCAK256 SWAP1 POP PUSH32 0x4383EC58706CDBE21052026F52771DBE49D31B19E829FD81C52AD7FCD456CE7A DUP2 EQ DUP1 PUSH2 0x21C6 JUMPI POP PUSH32 0xE7858B8FA3B724C568EC721412E5A66B76EE39CA1029412751E683777FCFCBFA DUP2 EQ JUMPDEST ISZERO PUSH2 0x21DE JUMPI DUP8 DUP1 PUSH2 0x21D6 SWAP1 PUSH2 0x3E9B JUMP JUMPDEST SWAP9 POP POP PUSH2 0x2324 JUMP JUMPDEST PUSH32 0xEFC077A6A603CF81594BE6944A3CADC86D55AD6E8F133BF89CC554E537A9D8C3 DUP2 EQ DUP1 PUSH2 0x222B JUMPI POP PUSH32 0x4D8E17292F3C03DE52C5EDBCEB346240949C93893FA3EF9E282001DADB0AB5A DUP2 EQ JUMPDEST DUP1 PUSH2 0x2255 JUMPI POP PUSH32 0x6FE24903F2359FD645ACABF4506A67AE45F81C788CB80C55C37699CF9A1A8797 DUP2 EQ JUMPDEST ISZERO PUSH2 0x226D JUMPI DUP7 DUP1 PUSH2 0x2265 SWAP1 PUSH2 0x3E9B JUMP JUMPDEST SWAP8 POP POP PUSH2 0x2323 JUMP JUMPDEST PUSH32 0x545760910EF327B12D33293C5A0F4701C83DC633F698DB52BCC975A12AFFF190 DUP2 EQ DUP1 PUSH2 0x22BA JUMPI POP PUSH32 0x86190E9BA3E1A6F52F4C2CB149C10F5CBD68DB5B96CB4CB53EDA392C78F684E2 DUP2 EQ JUMPDEST DUP1 PUSH2 0x22E4 JUMPI POP PUSH32 0x19DAF714879A8D7CE7CF1F321EE5D4641BADDAF542CC56400B31137E85E7F603 DUP2 EQ JUMPDEST DUP1 PUSH2 0x230E JUMPI POP PUSH32 0x5297E68F3A27F04914F2C6DB0AD63B5E5C8173CEBCC1A5341DF045CF6DAD7ADC DUP2 EQ JUMPDEST ISZERO PUSH2 0x2322 JUMPI DUP6 DUP1 PUSH2 0x231E SWAP1 PUSH2 0x3E9B JUMP JUMPDEST SWAP7 POP POP JUMPDEST JUMPDEST JUMPDEST PUSH0 PUSH1 0x1 SWAP1 POP PUSH0 PUSH0 SWAP1 POP JUMPDEST DUP7 DUP2 LT ISZERO PUSH2 0x239B JUMPI DUP4 PUSH0 ADD MLOAD PUSH20 0xFFFFFFFFFFFFFFFFFFFFFFFFFFFFFFFFFFFFFFFF AND DUP7 DUP3 DUP2 MLOAD DUP2 LT PUSH2 0x2363 JUMPI PUSH2 0x2362 PUSH2 0x3DE4 JUMP JUMPDEST JUMPDEST PUSH1 0x20 MUL PUSH1 0x20 ADD ADD MLOAD PUSH20 0xFFFFFFFFFFFFFFFFFFFFFFFFFFFFFFFFFFFFFFFF AND SUB PUSH2 0x238E JUMPI PUSH0 SWAP2 POP PUSH2 0x239B JUMP JUMPDEST DUP1 DUP1 PUSH1 0x1 ADD SWAP2 POP POP PUSH2 0x232E JUMP JUMPDEST POP DUP1 ISZERO PUSH2 0x2402 JUMPI DUP3 PUSH0 ADD MLOAD DUP6 DUP8 DUP2 MLOAD DUP2 LT PUSH2 0x23B9 JUMPI PUSH2 0x23B8 PUSH2 0x3DE4 JUMP JUMPDEST JUMPDEST PUSH1 0x20 MUL PUSH1 0x20 ADD ADD SWAP1 PUSH20 0xFFFFFFFFFFFFFFFFFFFFFFFFFFFFFFFFFFFFFFFF AND SWAP1 DUP2 PUSH20 0xFFFFFFFFFFFFFFFFFFFFFFFFFFFFFFFFFFFFFFFF AND DUP2 MSTORE POP POP DUP6 DUP1 PUSH2 0x23FE SWAP1 PUSH2 0x3E9B JUMP JUMPDEST SWAP7 POP POP JUMPDEST POP POP JUMPDEST POP DUP1 DUP1 PUSH1 0x1 ADD SWAP2 POP POP PUSH2 0x1F72 JUMP JUMPDEST POP POP SWAP3 SWAP6 POP SWAP3 SWAP6 SWAP1 SWAP4 POP JUMP JUMPDEST PUSH1 0x3 PUSH1 0x20 MSTORE DUP2 PUSH0 MSTORE PUSH1 0x40 PUSH0 KECCAK256 DUP2 DUP2 SLOAD DUP2 LT PUSH2 0x2438 JUMPI PUSH0 DUP1 REVERT JUMPDEST SWAP1 PUSH0 MSTORE PUSH1 0x20 PUSH0 KECCAK256 ADD PUSH0 SWAP2 POP SWAP2 POP POP SLOAD DUP2 JUMP JUMPDEST PUSH0 PUSH1 0x2 DUP1 SLOAD SWAP1 POP SWAP1 POP SWAP1 JUMP JUMPDEST PUSH1 0x60 DUP2 DUP4 GT ISZERO PUSH2 0x249B JUMPI PUSH1 0x40 MLOAD PUSH32 0x8C379A000000000000000000000000000000000000000000000000000000000 DUP2 MSTORE PUSH1 0x4 ADD PUSH2 0x2492 SWAP1 PUSH2 0x457D JUMP JUMPDEST PUSH1 0x40 MLOAD DUP1 SWAP2 SUB SWAP1 REVERT JUMPDEST PUSH1 0x2 DUP1 SLOAD SWAP1 POP DUP3 LT PUSH2 0x24E2 JUMPI PUSH1 0x40 MLOAD PUSH32 0x8C379A000000000000000000000000000000000000000000000000000000000 DUP2 MSTORE PUSH1 0x4 ADD PUSH2 0x24D9 SWAP1 PUSH2 0x45E5 JUMP JUMPDEST PUSH1 0x40 MLOAD DUP1 SWAP2 SUB SWAP1 REVERT JUMPDEST PUSH0 PUSH1 0x1 DUP5 DUP5 PUSH2 0x24F1 SWAP2 SWAP1 PUSH2 0x3F32 JUMP JUMPDEST PUSH2 0x24FB SWAP2 SWAP1 PUSH2 0x4603 JUMP JUMPDEST SWAP1 POP DUP1 PUSH8 0xFFFFFFFFFFFFFFFF DUP2 GT ISZERO PUSH2 0x2517 JUMPI PUSH2 0x2516 PUSH2 0x32C4 JUMP JUMPDEST JUMPDEST PUSH1 0x40 MLOAD SWAP1 DUP1 DUP3 MSTORE DUP1 PUSH1 0x20 MUL PUSH1 0x20 ADD DUP3 ADD PUSH1 0x40 MSTORE DUP1 ISZERO PUSH2 0x2550 JUMPI DUP2 PUSH1 0x20 ADD JUMPDEST PUSH2 0x253D PUSH2 0x3146 JUMP JUMPDEST DUP2 MSTORE PUSH1 0x20 ADD SWAP1 PUSH1 0x1 SWAP1 SUB SWAP1 DUP2 PUSH2 0x2535 JUMPI SWAP1 POP JUMPDEST POP SWAP2 POP PUSH0 PUSH0 SWAP1 POP JUMPDEST DUP2 DUP2 LT ISZERO PUSH2 0x2753 JUMPI PUSH1 0x2 DUP2 DUP7 PUSH2 0x256E SWAP2 SWAP1 PUSH2 0x4603 JUMP JUMPDEST DUP2 SLOAD DUP2 LT PUSH2 0x257F JUMPI PUSH2 0x257E PUSH2 0x3DE4 JUMP JUMPDEST JUMPDEST SWAP1 PUSH0 MSTORE PUSH1 0x20 PUSH0 KECCAK256 SWAP1 PUSH1 0x6 MUL ADD PUSH1 0x40 MLOAD DUP1 PUSH1 0xC0 ADD PUSH1 0x40 MSTORE SWAP1 DUP2 PUSH0 DUP3 ADD PUSH0 SWAP1 SLOAD SWAP1 PUSH2 0x100 EXP SWAP1 DIV PUSH20 0xFFFFFFFFFFFFFFFFFFFFFFFFFFFFFFFFFFFFFFFF AND PUSH20 0xFFFFFFFFFFFFFFFFFFFFFFFFFFFFFFFFFFFFFFFF AND PUSH20 0xFFFFFFFFFFFFFFFFFFFFFFFFFFFFFFFFFFFFFFFF AND DUP2 MSTORE PUSH1 0x20 ADD PUSH1 0x1 DUP3 ADD DUP1 SLOAD PUSH2 0x25FA SWAP1 PUSH2 0x3E3E JUMP JUMPDEST DUP1 PUSH1 0x1F ADD PUSH1 0x20 DUP1 SWAP2 DIV MUL PUSH1 0x20 ADD PUSH1 0x40 MLOAD SWAP1 DUP2 ADD PUSH1 0x40 MSTORE DUP1 SWAP3 SWAP2 SWAP1 DUP2 DUP2 MSTORE PUSH1 0x20 ADD DUP3 DUP1 SLOAD PUSH2 0x2626 SWAP1 PUSH2 0x3E3E JUMP JUMPDEST DUP1 ISZERO PUSH2 0x2671 JUMPI DUP1 PUSH1 0x1F LT PUSH2 0x2648 JUMPI PUSH2 0x100 DUP1 DUP4 SLOAD DIV MUL DUP4 MSTORE SWAP2 PUSH1 0x20 ADD SWAP2 PUSH2 0x2671 JUMP JUMPDEST DUP3 ADD SWAP2 SWAP1 PUSH0 MSTORE PUSH1 0x20 PUSH0 KECCAK256 SWAP1 JUMPDEST DUP2 SLOAD DUP2 MSTORE SWAP1 PUSH1 0x1 ADD SWAP1 PUSH1 0x20 ADD DUP1 DUP4 GT PUSH2 0x2654 JUMPI DUP3 SWAP1 SUB PUSH1 0x1F AND DUP3 ADD SWAP2 JUMPDEST POP POP POP POP POP DUP2 MSTORE PUSH1 0x20 ADD PUSH1 0x2 DUP3 ADD DUP1 SLOAD PUSH2 0x268A SWAP1 PUSH2 0x3E3E JUMP JUMPDEST DUP1 PUSH1 0x1F ADD PUSH1 0x20 DUP1 SWAP2 DIV MUL PUSH1 0x20 ADD PUSH1 0x40 MLOAD SWAP1 DUP2 ADD PUSH1 0x40 MSTORE DUP1 SWAP3 SWAP2 SWAP1 DUP2 DUP2 MSTORE PUSH1 0x20 ADD DUP3 DUP1 SLOAD PUSH2 0x26B6 SWAP1 PUSH2 0x3E3E JUMP JUMPDEST DUP1 ISZERO PUSH2 0x2701 JUMPI DUP1 PUSH1 0x1F LT PUSH2 0x26D8 JUMPI PUSH2 0x100 DUP1 DUP4 SLOAD DIV MUL DUP4 MSTORE SWAP2 PUSH1 0x20 ADD SWAP2 PUSH2 0x2701 JUMP JUMPDEST DUP3 ADD SWAP2 SWAP1 PUSH0 MSTORE PUSH1 0x20 PUSH0 KECCAK256 SWAP1 JUMPDEST DUP2 SLOAD DUP2 MSTORE SWAP1 PUSH1 0x1 ADD SWAP1 PUSH1 0x20 ADD DUP1 DUP4 GT PUSH2 0x26E4 JUMPI DUP3 SWAP1 SUB PUSH1 0x1F AND DUP3 ADD SWAP2 JUMPDEST POP POP POP POP POP DUP2 MSTORE PUSH1 0x20 ADD PUSH1 0x3 DUP3 ADD SLOAD DUP2 MSTORE PUSH1 0x20 ADD PUSH1 0x4 DUP3 ADD SLOAD DUP2 MSTORE PUSH1 0x20 ADD PUSH1 0x5 DUP3 ADD SLOAD DUP2 MSTORE POP POP DUP4 DUP3 DUP2 MLOAD DUP2 LT PUSH2 0x273B JUMPI PUSH2 0x273A PUSH2 0x3DE4 JUMP JUMPDEST JUMPDEST PUSH1 0x20 MUL PUSH1 0x20 ADD ADD DUP2 SWAP1 MSTORE POP DUP1 DUP1 PUSH1 0x1 ADD SWAP2 POP POP PUSH2 0x2558 JUMP JUMPDEST POP POP SWAP3 SWAP2 POP POP JUMP JUMPDEST PUSH2 0x2764 DUP3 PUSH2 0x1077 JUMP JUMPDEST PUSH2 0x276D DUP2 PUSH2 0x2F08 JUMP JUMPDEST PUSH2 0x2777 DUP4 DUP4 PUSH2 0x300C JUMP JUMPDEST POP POP POP POP JUMP JUMPDEST PUSH1 0x2 DUP2 DUP2 SLOAD DUP2 LT PUSH2 0x278C JUMPI PUSH0 DUP1 REVERT JUMPDEST SWAP1 PUSH0 MSTORE PUSH1 0x20 PUSH0 KECCAK256 SWAP1 PUSH1 0x6 MUL ADD PUSH0 SWAP2 POP SWAP1 POP DUP1 PUSH0 ADD PUSH0 SWAP1 SLOAD SWAP1 PUSH2 0x100 EXP SWAP1 DIV PUSH20 0xFFFFFFFFFFFFFFFFFFFFFFFFFFFFFFFFFFFFFFFF AND SWAP1 DUP1 PUSH1 0x1 ADD DUP1 SLOAD PUSH2 0x27D0 SWAP1 PUSH2 0x3E3E JUMP JUMPDEST DUP1 PUSH1 0x1F ADD PUSH1 0x20 DUP1 SWAP2 DIV MUL PUSH1 0x20 ADD PUSH1 0x40 MLOAD SWAP1 DUP2 ADD PUSH1 0x40 MSTORE DUP1 SWAP3 SWAP2 SWAP1 DUP2 DUP2 MSTORE PUSH1 0x20 ADD DUP3 DUP1 SLOAD PUSH2 0x27FC SWAP1 PUSH2 0x3E3E JUMP JUMPDEST DUP1 ISZERO PUSH2 0x2847 JUMPI DUP1 PUSH1 0x1F LT PUSH2 0x281E JUMPI PUSH2 0x100 DUP1 DUP4 SLOAD DIV MUL DUP4 MSTORE SWAP2 PUSH1 0x20 ADD SWAP2 PUSH2 0x2847 JUMP JUMPDEST DUP3 ADD SWAP2 SWAP1 PUSH0 MSTORE PUSH1 0x20 PUSH0 KECCAK256 SWAP1 JUMPDEST DUP2 SLOAD DUP2 MSTORE SWAP1 PUSH1 0x1 ADD SWAP1 PUSH1 0x20 ADD DUP1 DUP4 GT PUSH2 0x282A JUMPI DUP3 SWAP1 SUB PUSH1 0x1F AND DUP3 ADD SWAP2 JUMPDEST POP POP POP POP POP SWAP1 DUP1 PUSH1 0x2 ADD DUP1 SLOAD PUSH2 0x285C SWAP1 PUSH2 0x3E3E JUMP JUMPDEST DUP1 PUSH1 0x1F ADD PUSH1 0x20 DUP1 SWAP2 DIV MUL PUSH1 0x20 ADD PUSH1 0x40 MLOAD SWAP1 DUP2 ADD PUSH1 0x40 MSTORE DUP1 SWAP3 SWAP2 SWAP1 DUP2 DUP2 MSTORE PUSH1 0x20 ADD DUP3 DUP1 SLOAD PUSH2 0x2888 SWAP1 PUSH2 0x3E3E JUMP JUMPDEST DUP1 ISZERO PUSH2 0x28D3 JUMPI DUP1 PUSH1 0x1F LT PUSH2 0x28AA JUMPI PUSH2 0x100 DUP1 DUP4 SLOAD DIV MUL DUP4 MSTORE SWAP2 PUSH1 0x20 ADD SWAP2 PUSH2 0x28D3 JUMP JUMPDEST DUP3 ADD SWAP2 SWAP1 PUSH0 MSTORE PUSH1 0x20 PUSH0 KECCAK256 SWAP1 JUMPDEST DUP2 SLOAD DUP2 MSTORE SWAP1 PUSH1 0x1 ADD SWAP1 PUSH1 0x20 ADD DUP1 DUP4 GT PUSH2 0x28B6 JUMPI DUP3 SWAP1 SUB PUSH1 0x1F AND DUP3 ADD SWAP2 JUMPDEST POP POP POP POP POP SWAP1 DUP1 PUSH1 0x3 ADD SLOAD SWAP1 DUP1 PUSH1 0x4 ADD SLOAD SWAP1 DUP1 PUSH1 0x5 ADD SLOAD SWAP1 POP DUP7 JUMP JUMPDEST PUSH2 0x28F7 PUSH2 0x3146 JUMP JUMPDEST PUSH1 0x2 DUP1 SLOAD SWAP1 POP DUP3 LT PUSH2 0x293E JUMPI PUSH1 0x40 MLOAD PUSH32 0x8C379A000000000000000000000000000000000000000000000000000000000 DUP2 MSTORE PUSH1 0x4 ADD PUSH2 0x2935 SWAP1 PUSH2 0x4680 JUMP JUMPDEST PUSH1 0x40 MLOAD DUP1 SWAP2 SUB SWAP1 REVERT JUMPDEST PUSH1 0x2 DUP3 DUP2 SLOAD DUP2 LT PUSH2 0x2952 JUMPI PUSH2 0x2951 PUSH2 0x3DE4 JUMP JUMPDEST JUMPDEST SWAP1 PUSH0 MSTORE PUSH1 0x20 PUSH0 KECCAK256 SWAP1 PUSH1 0x6 MUL ADD PUSH1 0x40 MLOAD DUP1 PUSH1 0xC0 ADD PUSH1 0x40 MSTORE SWAP1 DUP2 PUSH0 DUP3 ADD PUSH0 SWAP1 SLOAD SWAP1 PUSH2 0x100 EXP SWAP1 DIV PUSH20 0xFFFFFFFFFFFFFFFFFFFFFFFFFFFFFFFFFFFFFFFF AND PUSH20 0xFFFFFFFFFFFFFFFFFFFFFFFFFFFFFFFFFFFFFFFF AND PUSH20 0xFFFFFFFFFFFFFFFFFFFFFFFFFFFFFFFFFFFFFFFF AND DUP2 MSTORE PUSH1 0x20 ADD PUSH1 0x1 DUP3 ADD DUP1 SLOAD PUSH2 0x29CD SWAP1 PUSH2 0x3E3E JUMP JUMPDEST DUP1 PUSH1 0x1F ADD PUSH1 0x20 DUP1 SWAP2 DIV MUL PUSH1 0x20 ADD PUSH1 0x40 MLOAD SWAP1 DUP2 ADD PUSH1 0x40 MSTORE DUP1 SWAP3 SWAP2 SWAP1 DUP2 DUP2 MSTORE PUSH1 0x20 ADD DUP3 DUP1 SLOAD PUSH2 0x29F9 SWAP1 PUSH2 0x3E3E JUMP JUMPDEST DUP1 ISZERO PUSH2 0x2A44 JUMPI DUP1 PUSH1 0x1F LT PUSH2 0x2A1B JUMPI PUSH2 0x100 DUP1 DUP4 SLOAD DIV MUL DUP4 MSTORE SWAP2 PUSH1 0x20 ADD SWAP2 PUSH2 0x2A44 JUMP JUMPDEST DUP3 ADD SWAP2 SWAP1 PUSH0 MSTORE PUSH1 0x20 PUSH0 KECCAK256 SWAP1 JUMPDEST DUP2 SLOAD DUP2 MSTORE SWAP1 PUSH1 0x1 ADD SWAP1 PUSH1 0x20 ADD DUP1 DUP4 GT PUSH2 0x2A27 JUMPI DUP3 SWAP1 SUB PUSH1 0x1F AND DUP3 ADD SWAP2 JUMPDEST POP POP POP POP POP DUP2 MSTORE PUSH1 0x20 ADD PUSH1 0x2 DUP3 ADD DUP1 SLOAD PUSH2 0x2A5D SWAP1 PUSH2 0x3E3E JUMP JUMPDEST DUP1 PUSH1 0x1F ADD PUSH1 0x20 DUP1 SWAP2 DIV MUL PUSH1 0x20 ADD PUSH1 0x40 MLOAD SWAP1 DUP2 ADD PUSH1 0x40 MSTORE DUP1 SWAP3 SWAP2 SWAP1 DUP2 DUP2 MSTORE PUSH1 0x20 ADD DUP3 DUP1 SLOAD PUSH2 0x2A89 SWAP1 PUSH2 0x3E3E JUMP JUMPDEST DUP1 ISZERO PUSH2 0x2AD4 JUMPI DUP1 PUSH1 0x1F LT PUSH2 0x2AAB JUMPI PUSH2 0x100 DUP1 DUP4 SLOAD DIV MUL DUP4 MSTORE SWAP2 PUSH1 0x20 ADD SWAP2 PUSH2 0x2AD4 JUMP JUMPDEST DUP3 ADD SWAP2 SWAP1 PUSH0 MSTORE PUSH1 0x20 PUSH0 KECCAK256 SWAP1 JUMPDEST DUP2 SLOAD DUP2 MSTORE SWAP1 PUSH1 0x1 ADD SWAP1 PUSH1 0x20 ADD DUP1 DUP4 GT PUSH2 0x2AB7 JUMPI DUP3 SWAP1 SUB PUSH1 0x1F AND DUP3 ADD SWAP2 JUMPDEST POP POP POP POP POP DUP2 MSTORE PUSH1 0x20 ADD PUSH1 0x3 DUP3 ADD SLOAD DUP2 MSTORE PUSH1 0x20 ADD PUSH1 0x4 DUP3 ADD SLOAD DUP2 MSTORE PUSH1 0x20 ADD PUSH1 0x5 DUP3 ADD SLOAD DUP2 MSTORE POP POP SWAP1 POP SWAP2 SWAP1 POP JUMP JUMPDEST PUSH1 0x60 PUSH1 0x5 PUSH0 DUP4 DUP2 MSTORE PUSH1 0x20 ADD SWAP1 DUP2 MSTORE PUSH1 0x20 ADD PUSH0 KECCAK256 DUP1 SLOAD DUP1 PUSH1 0x20 MUL PUSH1 0x20 ADD PUSH1 0x40 MLOAD SWAP1 DUP2 ADD PUSH1 0x40 MSTORE DUP1 SWAP3 SWAP2 SWAP1 DUP2 DUP2 MSTORE PUSH1 0x20 ADD DUP3 DUP1 SLOAD DUP1 ISZERO PUSH2 0x2B5D JUMPI PUSH1 0x20 MUL DUP3 ADD SWAP2 SWAP1 PUSH0 MSTORE PUSH1 0x20 PUSH0 KECCAK256 SWAP1 JUMPDEST DUP2 SLOAD DUP2 MSTORE PUSH1 0x20 ADD SWAP1 PUSH1 0x1 ADD SWAP1 DUP1 DUP4 GT PUSH2 0x2B49 JUMPI JUMPDEST POP POP POP POP POP SWAP1 POP SWAP2 SWAP1 POP JUMP JUMPDEST PUSH1 0x60 PUSH0 PUSH1 0x3 PUSH0 DUP6 PUSH20 0xFFFFFFFFFFFFFFFFFFFFFFFFFFFFFFFFFFFFFFFF AND PUSH20 0xFFFFFFFFFFFFFFFFFFFFFFFFFFFFFFFFFFFFFFFF AND DUP2 MSTORE PUSH1 0x20 ADD SWAP1 DUP2 MSTORE PUSH1 0x20 ADD PUSH0 KECCAK256 DUP1 SLOAD DUP1 PUSH1 0x20 MUL PUSH1 0x20 ADD PUSH1 0x40 MLOAD SWAP1 DUP2 ADD PUSH1 0x40 MSTORE DUP1 SWAP3 SWAP2 SWAP1 DUP2 DUP2 MSTORE PUSH1 0x20 ADD DUP3 DUP1 SLOAD DUP1 ISZERO PUSH2 0x2BF1 JUMPI PUSH1 0x20 MUL DUP3 ADD SWAP2 SWAP1 PUSH0 MSTORE PUSH1 0x20 PUSH0 KECCAK256 SWAP1 JUMPDEST DUP2 SLOAD DUP2 MSTORE PUSH1 0x20 ADD SWAP1 PUSH1 0x1 ADD SWAP1 DUP1 DUP4 GT PUSH2 0x2BDD JUMPI JUMPDEST POP POP POP POP POP SWAP1 POP PUSH0 DUP2 MLOAD SWAP1 POP PUSH0 DUP5 GT DUP1 ISZERO PUSH2 0x2C0B JUMPI POP DUP1 DUP5 LT JUMPDEST ISZERO PUSH2 0x2C14 JUMPI DUP4 SWAP1 POP JUMPDEST DUP1 PUSH8 0xFFFFFFFFFFFFFFFF DUP2 GT ISZERO PUSH2 0x2C2E JUMPI PUSH2 0x2C2D PUSH2 0x32C4 JUMP JUMPDEST JUMPDEST PUSH1 0x40 MLOAD SWAP1 DUP1 DUP3 MSTORE DUP1 PUSH1 0x20 MUL PUSH1 0x20 ADD DUP3 ADD PUSH1 0x40 MSTORE DUP1 ISZERO PUSH2 0x2C67 JUMPI DUP2 PUSH1 0x20 ADD JUMPDEST PUSH2 0x2C54 PUSH2 0x3146 JUMP JUMPDEST DUP2 MSTORE PUSH1 0x20 ADD SWAP1 PUSH1 0x1 SWAP1 SUB SWAP1 DUP2 PUSH2 0x2C4C JUMPI SWAP1 POP JUMPDEST POP SWAP3 POP PUSH0 PUSH0 SWAP1 POP JUMPDEST DUP2 DUP2 LT ISZERO PUSH2 0x2E96 JUMPI PUSH0 DUP4 DUP3 PUSH1 0x1 DUP7 MLOAD PUSH2 0x2C88 SWAP2 SWAP1 PUSH2 0x3F32 JUMP JUMPDEST PUSH2 0x2C92 SWAP2 SWAP1 PUSH2 0x3F32 JUMP JUMPDEST DUP2 MLOAD DUP2 LT PUSH2 0x2CA3 JUMPI PUSH2 0x2CA2 PUSH2 0x3DE4 JUMP JUMPDEST JUMPDEST PUSH1 0x20 MUL PUSH1 0x20 ADD ADD MLOAD SWAP1 POP PUSH1 0x2 DUP2 DUP2 SLOAD DUP2 LT PUSH2 0x2CC1 JUMPI PUSH2 0x2CC0 PUSH2 0x3DE4 JUMP JUMPDEST JUMPDEST SWAP1 PUSH0 MSTORE PUSH1 0x20 PUSH0 KECCAK256 SWAP1 PUSH1 0x6 MUL ADD PUSH1 0x40 MLOAD DUP1 PUSH1 0xC0 ADD PUSH1 0x40 MSTORE SWAP1 DUP2 PUSH0 DUP3 ADD PUSH0 SWAP1 SLOAD SWAP1 PUSH2 0x100 EXP SWAP1 DIV PUSH20 0xFFFFFFFFFFFFFFFFFFFFFFFFFFFFFFFFFFFFFFFF AND PUSH20 0xFFFFFFFFFFFFFFFFFFFFFFFFFFFFFFFFFFFFFFFF AND PUSH20 0xFFFFFFFFFFFFFFFFFFFFFFFFFFFFFFFFFFFFFFFF AND DUP2 MSTORE PUSH1 0x20 ADD PUSH1 0x1 DUP3 ADD DUP1 SLOAD PUSH2 0x2D3C SWAP1 PUSH2 0x3E3E JUMP JUMPDEST DUP1 PUSH1 0x1F ADD PUSH1 0x20 DUP1 SWAP2 DIV MUL PUSH1 0x20 ADD PUSH1 0x40 MLOAD SWAP1 DUP2 ADD PUSH1 0x40 MSTORE DUP1 SWAP3 SWAP2 SWAP1 DUP2 DUP2 MSTORE PUSH1 0x20 ADD DUP3 DUP1 SLOAD PUSH2 0x2D68 SWAP1 PUSH2 0x3E3E JUMP JUMPDEST DUP1 ISZERO PUSH2 0x2DB3 JUMPI DUP1 PUSH1 0x1F LT PUSH2 0x2D8A JUMPI PUSH2 0x100 DUP1 DUP4 SLOAD DIV MUL DUP4 MSTORE SWAP2 PUSH1 0x20 ADD SWAP2 PUSH2 0x2DB3 JUMP JUMPDEST DUP3 ADD SWAP2 SWAP1 PUSH0 MSTORE PUSH1 0x20 PUSH0 KECCAK256 SWAP1 JUMPDEST DUP2 SLOAD DUP2 MSTORE SWAP1 PUSH1 0x1 ADD SWAP1 PUSH1 0x20 ADD DUP1 DUP4 GT PUSH2 0x2D96 JUMPI DUP3 SWAP1 SUB PUSH1 0x1F AND DUP3 ADD SWAP2 JUMPDEST POP POP POP POP POP DUP2 MSTORE PUSH1 0x20 ADD PUSH1 0x2 DUP3 ADD DUP1 SLOAD PUSH2 0x2DCC SWAP1 PUSH2 0x3E3E JUMP JUMPDEST DUP1 PUSH1 0x1F ADD PUSH1 0x20 DUP1 SWAP2 DIV MUL PUSH1 0x20 ADD PUSH1 0x40 MLOAD SWAP1 DUP2 ADD PUSH1 0x40 MSTORE DUP1 SWAP3 SWAP2 SWAP1 DUP2 DUP2 MSTORE PUSH1 0x20 ADD DUP3 DUP1 SLOAD PUSH2 0x2DF8 SWAP1 PUSH2 0x3E3E JUMP JUMPDEST DUP1 ISZERO PUSH2 0x2E43 JUMPI DUP1 PUSH1 0x1F LT PUSH2 0x2E1A JUMPI PUSH2 0x100 DUP1 DUP4 SLOAD DIV MUL DUP4 MSTORE SWAP2 PUSH1 0x20 ADD SWAP2 PUSH2 0x2E43 JUMP JUMPDEST DUP3 ADD SWAP2 SWAP1 PUSH0 MSTORE PUSH1 0x20 PUSH0 KECCAK256 SWAP1 JUMPDEST DUP2 SLOAD DUP2 MSTORE SWAP1 PUSH1 0x1 ADD SWAP1 PUSH1 0x20 ADD DUP1 DUP4 GT PUSH2 0x2E26 JUMPI DUP3 SWAP1 SUB PUSH1 0x1F AND DUP3 ADD SWAP2 JUMPDEST POP POP POP POP POP DUP2 MSTORE PUSH1 0x20 ADD PUSH1 0x3 DUP3 ADD SLOAD DUP2 MSTORE PUSH1 0x20 ADD PUSH1 0x4 DUP3 ADD SLOAD DUP2 MSTORE PUSH1 0x20 ADD PUSH1 0x5 DUP3 ADD SLOAD DUP2 MSTORE POP POP DUP6 DUP4 DUP2 MLOAD DUP2 LT PUSH2 0x2E7D JUMPI PUSH2 0x2E7C PUSH2 0x3DE4 JUMP JUMPDEST JUMPDEST PUSH1 0x20 MUL PUSH1 0x20 ADD ADD DUP2 SWAP1 MSTORE POP POP DUP1 DUP1 PUSH1 0x1 ADD SWAP2 POP POP PUSH2 0x2C6F JUMP JUMPDEST POP POP POP SWAP3 SWAP2 POP POP JUMP JUMPDEST PUSH0 PUSH32 0x1FFC9A700000000000000000000000000000000000000000000000000000000 PUSH28 0xFFFFFFFFFFFFFFFFFFFFFFFFFFFFFFFFFFFFFFFFFFFFFFFFFFFFFFFF NOT AND DUP3 PUSH28 0xFFFFFFFFFFFFFFFFFFFFFFFFFFFFFFFFFFFFFFFFFFFFFFFFFFFFFFFF NOT AND EQ SWAP1 POP SWAP2 SWAP1 POP JUMP JUMPDEST PUSH2 0x2F19 DUP2 PUSH2 0x2F14 PUSH2 0x3005 JUMP JUMPDEST PUSH2 0x30F5 JUMP JUMPDEST POP JUMP JUMPDEST PUSH0 PUSH2 0x2F27 DUP4 DUP4 PUSH2 0x1AB5 JUMP JUMPDEST PUSH2 0x2FFB JUMPI PUSH1 0x1 PUSH0 PUSH0 DUP6 DUP2 MSTORE PUSH1 0x20 ADD SWAP1 DUP2 MSTORE PUSH1 0x20 ADD PUSH0 KECCAK256 PUSH0 ADD PUSH0 DUP5 PUSH20 0xFFFFFFFFFFFFFFFFFFFFFFFFFFFFFFFFFFFFFFFF AND PUSH20 0xFFFFFFFFFFFFFFFFFFFFFFFFFFFFFFFFFFFFFFFF AND DUP2 MSTORE PUSH1 0x20 ADD SWAP1 DUP2 MSTORE PUSH1 0x20 ADD PUSH0 KECCAK256 PUSH0 PUSH2 0x100 EXP DUP2 SLOAD DUP2 PUSH1 0xFF MUL NOT AND SWAP1 DUP4 ISZERO ISZERO MUL OR SWAP1 SSTORE POP PUSH2 0x2F98 PUSH2 0x3005 JUMP JUMPDEST PUSH20 0xFFFFFFFFFFFFFFFFFFFFFFFFFFFFFFFFFFFFFFFF AND DUP3 PUSH20 0xFFFFFFFFFFFFFFFFFFFFFFFFFFFFFFFFFFFFFFFF AND DUP5 PUSH32 0x2F8788117E7EFF1D82E926EC794901D17C78024A50270940304540A733656F0D PUSH1 0x40 MLOAD PUSH1 0x40 MLOAD DUP1 SWAP2 SUB SWAP1 LOG4 PUSH1 0x1 SWAP1 POP PUSH2 0x2FFF JUMP JUMPDEST PUSH0 SWAP1 POP JUMPDEST SWAP3 SWAP2 POP POP JUMP JUMPDEST PUSH0 CALLER SWAP1 POP SWAP1 JUMP JUMPDEST PUSH0 PUSH2 0x3017 DUP4 DUP4 PUSH2 0x1AB5 JUMP JUMPDEST ISZERO PUSH2 0x30EB JUMPI PUSH0 PUSH0 PUSH0 DUP6 DUP2 MSTORE PUSH1 0x20 ADD SWAP1 DUP2 MSTORE PUSH1 0x20 ADD PUSH0 KECCAK256 PUSH0 ADD PUSH0 DUP5 PUSH20 0xFFFFFFFFFFFFFFFFFFFFFFFFFFFFFFFFFFFFFFFF AND PUSH20 0xFFFFFFFFFFFFFFFFFFFFFFFFFFFFFFFFFFFFFFFF AND DUP2 MSTORE PUSH1 0x20 ADD SWAP1 DUP2 MSTORE PUSH1 0x20 ADD PUSH0 KECCAK256 PUSH0 PUSH2 0x100 EXP DUP2 SLOAD DUP2 PUSH1 0xFF MUL NOT AND SWAP1 DUP4 ISZERO ISZERO MUL OR SWAP1 SSTORE POP PUSH2 0x3088 PUSH2 0x3005 JUMP JUMPDEST PUSH20 0xFFFFFFFFFFFFFFFFFFFFFFFFFFFFFFFFFFFFFFFF AND DUP3 PUSH20 0xFFFFFFFFFFFFFFFFFFFFFFFFFFFFFFFFFFFFFFFF AND DUP5 PUSH32 0xF6391F5C32D9C69D2A47EA670B442974B53935D1EDC7FD64EB21E047A839171B PUSH1 0x40 MLOAD PUSH1 0x40 MLOAD DUP1 SWAP2 SUB SWAP1 LOG4 PUSH1 0x1 SWAP1 POP PUSH2 0x30EF JUMP JUMPDEST PUSH0 SWAP1 POP JUMPDEST SWAP3 SWAP2 POP POP JUMP JUMPDEST PUSH2 0x30FF DUP3 DUP3 PUSH2 0x1AB5 JUMP JUMPDEST PUSH2 0x3142 JUMPI DUP1 DUP3 PUSH1 0x40 MLOAD PUSH32 0xE2517D3F00000000000000000000000000000000000000000000000000000000 DUP2 MSTORE PUSH1 0x4 ADD PUSH2 0x3139 SWAP3 SWAP2 SWAP1 PUSH2 0x469E JUMP JUMPDEST PUSH1 0x40 MLOAD DUP1 SWAP2 SUB SWAP1 REVERT JUMPDEST POP POP JUMP JUMPDEST PUSH1 0x40 MLOAD DUP1 PUSH1 0xC0 ADD PUSH1 0x40 MSTORE DUP1 PUSH0 PUSH20 0xFFFFFFFFFFFFFFFFFFFFFFFFFFFFFFFFFFFFFFFF AND DUP2 MSTORE PUSH1 0x20 ADD PUSH1 0x60 DUP2 MSTORE PUSH1 0x20 ADD PUSH1 0x60 DUP2 MSTORE PUSH1 0x20 ADD PUSH0 DUP2 MSTORE PUSH1 0x20 ADD PUSH0 DUP2 MSTORE PUSH1 0x20 ADD PUSH0 DUP2 MSTORE POP SWAP1 JUMP JUMPDEST PUSH0 PUSH1 0x40 MLOAD SWAP1 POP SWAP1 JUMP JUMPDEST PUSH0 PUSH0 REVERT JUMPDEST PUSH0 PUSH0 REVERT JUMPDEST PUSH0 PUSH32 0xFFFFFFFF00000000000000000000000000000000000000000000000000000000 DUP3 AND SWAP1 POP SWAP2 SWAP1 POP JUMP JUMPDEST PUSH2 0x31D3 DUP2 PUSH2 0x319F JUMP JUMPDEST DUP2 EQ PUSH2 0x31DD JUMPI PUSH0 PUSH0 REVERT JUMPDEST POP JUMP JUMPDEST PUSH0 DUP2 CALLDATALOAD SWAP1 POP PUSH2 0x31EE DUP2 PUSH2 0x31CA JUMP JUMPDEST SWAP3 SWAP2 POP POP JUMP JUMPDEST PUSH0 PUSH1 0x20 DUP3 DUP5 SUB SLT ISZERO PUSH2 0x3209 JUMPI PUSH2 0x3208 PUSH2 0x3197 JUMP JUMPDEST JUMPDEST PUSH0 PUSH2 0x3216 DUP5 DUP3 DUP6 ADD PUSH2 0x31E0 JUMP JUMPDEST SWAP2 POP POP SWAP3 SWAP2 POP POP JUMP JUMPDEST PUSH0 DUP2 ISZERO ISZERO SWAP1 POP SWAP2 SWAP1 POP JUMP JUMPDEST PUSH2 0x3233 DUP2 PUSH2 0x321F JUMP JUMPDEST DUP3 MSTORE POP POP JUMP JUMPDEST PUSH0 PUSH1 0x20 DUP3 ADD SWAP1 POP PUSH2 0x324C PUSH0 DUP4 ADD DUP5 PUSH2 0x322A JUMP JUMPDEST SWAP3 SWAP2 POP POP JUMP JUMPDEST PUSH0 PUSH20 0xFFFFFFFFFFFFFFFFFFFFFFFFFFFFFFFFFFFFFFFF DUP3 AND SWAP1 POP SWAP2 SWAP1 POP JUMP JUMPDEST PUSH0 PUSH2 0x327B DUP3 PUSH2 0x3252 JUMP JUMPDEST SWAP1 POP SWAP2 SWAP1 POP JUMP JUMPDEST PUSH2 0x328B DUP2 PUSH2 0x3271 JUMP JUMPDEST DUP2 EQ PUSH2 0x3295 JUMPI PUSH0 PUSH0 REVERT JUMPDEST POP JUMP JUMPDEST PUSH0 DUP2 CALLDATALOAD SWAP1 POP PUSH2 0x32A6 DUP2 PUSH2 0x3282 JUMP JUMPDEST SWAP3 SWAP2 POP POP JUMP JUMPDEST PUSH0 PUSH0 REVERT JUMPDEST PUSH0 PUSH0 REVERT JUMPDEST PUSH0 PUSH1 0x1F NOT PUSH1 0x1F DUP4 ADD AND SWAP1 POP SWAP2 SWAP1 POP JUMP JUMPDEST PUSH32 0x4E487B7100000000000000000000000000000000000000000000000000000000 PUSH0 MSTORE PUSH1 0x41 PUSH1 0x4 MSTORE PUSH1 0x24 PUSH0 REVERT JUMPDEST PUSH2 0x32FA DUP3 PUSH2 0x32B4 JUMP JUMPDEST DUP2 ADD DUP2 DUP2 LT PUSH8 0xFFFFFFFFFFFFFFFF DUP3 GT OR ISZERO PUSH2 0x3319 JUMPI PUSH2 0x3318 PUSH2 0x32C4 JUMP JUMPDEST JUMPDEST DUP1 PUSH1 0x40 MSTORE POP POP POP JUMP JUMPDEST PUSH0 PUSH2 0x332B PUSH2 0x318E JUMP JUMPDEST SWAP1 POP PUSH2 0x3337 DUP3 DUP3 PUSH2 0x32F1 JUMP JUMPDEST SWAP2 SWAP1 POP JUMP JUMPDEST PUSH0 PUSH8 0xFFFFFFFFFFFFFFFF DUP3 GT ISZERO PUSH2 0x3356 JUMPI PUSH2 0x3355 PUSH2 0x32C4 JUMP JUMPDEST JUMPDEST PUSH2 0x335F DUP3 PUSH2 0x32B4 JUMP JUMPDEST SWAP1 POP PUSH1 0x20 DUP2 ADD SWAP1 POP SWAP2 SWAP1 POP JUMP JUMPDEST DUP3 DUP2 DUP4 CALLDATACOPY PUSH0 DUP4 DUP4 ADD MSTORE POP POP POP JUMP JUMPDEST PUSH0 PUSH2 0x338C PUSH2 0x3387 DUP5 PUSH2 0x333C JUMP JUMPDEST PUSH2 0x3322 JUMP JUMPDEST SWAP1 POP DUP3 DUP2 MSTORE PUSH1 0x20 DUP2 ADD DUP5 DUP5 DUP5 ADD GT ISZERO PUSH2 0x33A8 JUMPI PUSH2 0x33A7 PUSH2 0x32B0 JUMP JUMPDEST JUMPDEST PUSH2 0x33B3 DUP5 DUP3 DUP6 PUSH2 0x336C JUMP JUMPDEST POP SWAP4 SWAP3 POP POP POP JUMP JUMPDEST PUSH0 DUP3 PUSH1 0x1F DUP4 ADD SLT PUSH2 0x33CF JUMPI PUSH2 0x33CE PUSH2 0x32AC JUMP JUMPDEST JUMPDEST DUP2 CALLDATALOAD PUSH2 0x33DF DUP5 DUP3 PUSH1 0x20 DUP7 ADD PUSH2 0x337A JUMP JUMPDEST SWAP2 POP POP SWAP3 SWAP2 POP POP JUMP JUMPDEST PUSH0 DUP2 SWAP1 POP SWAP2 SWAP1 POP JUMP JUMPDEST PUSH2 0x33FA DUP2 PUSH2 0x33E8 JUMP JUMPDEST DUP2 EQ PUSH2 0x3404 JUMPI PUSH0 PUSH0 REVERT JUMPDEST POP JUMP JUMPDEST PUSH0 DUP2 CALLDATALOAD SWAP1 POP PUSH2 0x3415 DUP2 PUSH2 0x33F1 JUMP JUMPDEST SWAP3 SWAP2 POP POP JUMP JUMPDEST PUSH0 PUSH0 PUSH0 PUSH0 PUSH1 0x80 DUP6 DUP8 SUB SLT ISZERO PUSH2 0x3433 JUMPI PUSH2 0x3432 PUSH2 0x3197 JUMP JUMPDEST JUMPDEST PUSH0 PUSH2 0x3440 DUP8 DUP3 DUP9 ADD PUSH2 0x3298 JUMP JUMPDEST SWAP5 POP POP PUSH1 0x20 DUP6 ADD CALLDATALOAD PUSH8 0xFFFFFFFFFFFFFFFF DUP2 GT ISZERO PUSH2 0x3461 JUMPI PUSH2 0x3460 PUSH2 0x319B JUMP JUMPDEST JUMPDEST PUSH2 0x346D DUP8 DUP3 DUP9 ADD PUSH2 0x33BB JUMP JUMPDEST SWAP4 POP POP PUSH1 0x40 PUSH2 0x347E DUP8 DUP3 DUP9 ADD PUSH2 0x3407 JUMP JUMPDEST SWAP3 POP POP PUSH1 0x60 PUSH2 0x348F DUP8 DUP3 DUP9 ADD PUSH2 0x3407 JUMP JUMPDEST SWAP2 POP POP SWAP3 SWAP6 SWAP2 SWAP5 POP SWAP3 POP JUMP JUMPDEST PUSH0 DUP2 MLOAD SWAP1 POP SWAP2 SWAP1 POP JUMP JUMPDEST PUSH0 DUP3 DUP3 MSTORE PUSH1 0x20 DUP3 ADD SWAP1 POP SWAP3 SWAP2 POP POP JUMP JUMPDEST PUSH0 DUP2 SWAP1 POP PUSH1 0x20 DUP3 ADD SWAP1 POP SWAP2 SWAP1 POP JUMP JUMPDEST PUSH2 0x34CD DUP2 PUSH2 0x3271 JUMP JUMPDEST DUP3 MSTORE POP POP JUMP JUMPDEST PUSH0 DUP2 MLOAD SWAP1 POP SWAP2 SWAP1 POP JUMP JUMPDEST PUSH0 DUP3 DUP3 MSTORE PUSH1 0x20 DUP3 ADD SWAP1 POP SWAP3 SWAP2 POP POP JUMP JUMPDEST DUP3 DUP2 DUP4 MCOPY PUSH0 DUP4 DUP4 ADD MSTORE POP POP POP JUMP JUMPDEST PUSH0 PUSH2 0x3505 DUP3 PUSH2 0x34D3 JUMP JUMPDEST PUSH2 0x350F DUP2 DUP6 PUSH2 0x34DD JUMP JUMPDEST SWAP4 POP PUSH2 0x351F DUP2 DUP6 PUSH1 0x20 DUP7 ADD PUSH2 0x34ED JUMP JUMPDEST PUSH2 0x3528 DUP2 PUSH2 0x32B4 JUMP JUMPDEST DUP5 ADD SWAP2 POP POP SWAP3 SWAP2 POP POP JUMP JUMPDEST PUSH0 DUP2 MLOAD SWAP1 POP SWAP2 SWAP1 POP JUMP JUMPDEST PUSH0 DUP3 DUP3 MSTORE PUSH1 0x20 DUP3 ADD SWAP1 POP SWAP3 SWAP2 POP POP JUMP JUMPDEST PUSH0 PUSH2 0x3557 DUP3 PUSH2 0x3533 JUMP JUMPDEST PUSH2 0x3561 DUP2 DUP6 PUSH2 0x353D JUMP JUMPDEST SWAP4 POP PUSH2 0x3571 DUP2 DUP6 PUSH1 0x20 DUP7 ADD PUSH2 0x34ED JUMP JUMPDEST PUSH2 0x357A DUP2 PUSH2 0x32B4 JUMP JUMPDEST DUP5 ADD SWAP2 POP POP SWAP3 SWAP2 POP POP JUMP JUMPDEST PUSH2 0x358E DUP2 PUSH2 0x33E8 JUMP JUMPDEST DUP3 MSTORE POP POP JUMP JUMPDEST PUSH0 DUP2 SWAP1 POP SWAP2 SWAP1 POP JUMP JUMPDEST PUSH2 0x35A6 DUP2 PUSH2 0x3594 JUMP JUMPDEST DUP3 MSTORE POP POP JUMP JUMPDEST PUSH0 PUSH1 0xC0 DUP4 ADD PUSH0 DUP4 ADD MLOAD PUSH2 0x35C1 PUSH0 DUP7 ADD DUP3 PUSH2 0x34C4 JUMP JUMPDEST POP PUSH1 0x20 DUP4 ADD MLOAD DUP5 DUP3 SUB PUSH1 0x20 DUP7 ADD MSTORE PUSH2 0x35D9 DUP3 DUP3 PUSH2 0x34FB JUMP JUMPDEST SWAP2 POP POP PUSH1 0x40 DUP4 ADD MLOAD DUP5 DUP3 SUB PUSH1 0x40 DUP7 ADD MSTORE PUSH2 0x35F3 DUP3 DUP3 PUSH2 0x354D JUMP JUMPDEST SWAP2 POP POP PUSH1 0x60 DUP4 ADD MLOAD PUSH2 0x3608 PUSH1 0x60 DUP7 ADD DUP3 PUSH2 0x3585 JUMP JUMPDEST POP PUSH1 0x80 DUP4 ADD MLOAD PUSH2 0x361B PUSH1 0x80 DUP7 ADD DUP3 PUSH2 0x3585 JUMP JUMPDEST POP PUSH1 0xA0 DUP4 ADD MLOAD PUSH2 0x362E PUSH1 0xA0 DUP7 ADD DUP3 PUSH2 0x359D JUMP JUMPDEST POP DUP1 SWAP2 POP POP SWAP3 SWAP2 POP POP JUMP JUMPDEST PUSH0 PUSH2 0x3644 DUP4 DUP4 PUSH2 0x35AC JUMP JUMPDEST SWAP1 POP SWAP3 SWAP2 POP POP JUMP JUMPDEST PUSH0 PUSH1 0x20 DUP3 ADD SWAP1 POP SWAP2 SWAP1 POP JUMP JUMPDEST PUSH0 PUSH2 0x3662 DUP3 PUSH2 0x349B JUMP JUMPDEST PUSH2 0x366C DUP2 DUP6 PUSH2 0x34A5 JUMP JUMPDEST SWAP4 POP DUP4 PUSH1 0x20 DUP3 MUL DUP6 ADD PUSH2 0x367E DUP6 PUSH2 0x34B5 JUMP JUMPDEST DUP1 PUSH0 JUMPDEST DUP6 DUP2 LT ISZERO PUSH2 0x36B9 JUMPI DUP5 DUP5 SUB DUP10 MSTORE DUP2 MLOAD PUSH2 0x369A DUP6 DUP3 PUSH2 0x3639 JUMP JUMPDEST SWAP5 POP PUSH2 0x36A5 DUP4 PUSH2 0x364C JUMP JUMPDEST SWAP3 POP PUSH1 0x20 DUP11 ADD SWAP10 POP POP PUSH1 0x1 DUP2 ADD SWAP1 POP PUSH2 0x3681 JUMP JUMPDEST POP DUP3 SWAP8 POP DUP8 SWAP6 POP POP POP POP POP POP SWAP3 SWAP2 POP POP JUMP JUMPDEST PUSH0 PUSH1 0x20 DUP3 ADD SWAP1 POP DUP2 DUP2 SUB PUSH0 DUP4 ADD MSTORE PUSH2 0x36E3 DUP2 DUP5 PUSH2 0x3658 JUMP JUMPDEST SWAP1 POP SWAP3 SWAP2 POP POP JUMP JUMPDEST PUSH0 PUSH0 PUSH1 0x40 DUP4 DUP6 SUB SLT ISZERO PUSH2 0x3701 JUMPI PUSH2 0x3700 PUSH2 0x3197 JUMP JUMPDEST JUMPDEST PUSH0 DUP4 ADD CALLDATALOAD PUSH8 0xFFFFFFFFFFFFFFFF DUP2 GT ISZERO PUSH2 0x371E JUMPI PUSH2 0x371D PUSH2 0x319B JUMP JUMPDEST JUMPDEST PUSH2 0x372A DUP6 DUP3 DUP7 ADD PUSH2 0x33BB JUMP JUMPDEST SWAP3 POP POP PUSH1 0x20 PUSH2 0x373B DUP6 DUP3 DUP7 ADD PUSH2 0x3407 JUMP JUMPDEST SWAP2 POP POP SWAP3 POP SWAP3 SWAP1 POP JUMP JUMPDEST PUSH2 0x374E DUP2 PUSH2 0x33E8 JUMP JUMPDEST DUP3 MSTORE POP POP JUMP JUMPDEST PUSH0 PUSH1 0x20 DUP3 ADD SWAP1 POP PUSH2 0x3767 PUSH0 DUP4 ADD DUP5 PUSH2 0x3745 JUMP JUMPDEST SWAP3 SWAP2 POP POP JUMP JUMPDEST PUSH2 0x3776 DUP2 PUSH2 0x3594 JUMP JUMPDEST DUP2 EQ PUSH2 0x3780 JUMPI PUSH0 PUSH0 REVERT JUMPDEST POP JUMP JUMPDEST PUSH0 DUP2 CALLDATALOAD SWAP1 POP PUSH2 0x3791 DUP2 PUSH2 0x376D JUMP JUMPDEST SWAP3 SWAP2 POP POP JUMP JUMPDEST PUSH0 PUSH1 0x20 DUP3 DUP5 SUB SLT ISZERO PUSH2 0x37AC JUMPI PUSH2 0x37AB PUSH2 0x3197 JUMP JUMPDEST JUMPDEST PUSH0 PUSH2 0x37B9 DUP5 DUP3 DUP6 ADD PUSH2 0x3783 JUMP JUMPDEST SWAP2 POP POP SWAP3 SWAP2 POP POP JUMP JUMPDEST PUSH2 0x37CB DUP2 PUSH2 0x3594 JUMP JUMPDEST DUP3 MSTORE POP POP JUMP JUMPDEST PUSH0 PUSH1 0x20 DUP3 ADD SWAP1 POP PUSH2 0x37E4 PUSH0 DUP4 ADD DUP5 PUSH2 0x37C2 JUMP JUMPDEST SWAP3 SWAP2 POP POP JUMP JUMPDEST PUSH0 PUSH0 PUSH0 PUSH0 PUSH1 0x80 DUP6 DUP8 SUB SLT ISZERO PUSH2 0x3802 JUMPI PUSH2 0x3801 PUSH2 0x3197 JUMP JUMPDEST JUMPDEST PUSH0 PUSH2 0x380F DUP8 DUP3 DUP9 ADD PUSH2 0x3407 JUMP JUMPDEST SWAP5 POP POP PUSH1 0x20 PUSH2 0x3820 DUP8 DUP3 DUP9 ADD PUSH2 0x3407 JUMP JUMPDEST SWAP4 POP POP PUSH1 0x40 PUSH2 0x3831 DUP8 DUP3 DUP9 ADD PUSH2 0x3407 JUMP JUMPDEST SWAP3 POP POP PUSH1 0x60 PUSH2 0x3842 DUP8 DUP3 DUP9 ADD PUSH2 0x3407 JUMP JUMPDEST SWAP2 POP POP SWAP3 SWAP6 SWAP2 SWAP5 POP SWAP3 POP JUMP JUMPDEST PUSH0 PUSH1 0x40 DUP3 ADD SWAP1 POP DUP2 DUP2 SUB PUSH0 DUP4 ADD MSTORE PUSH2 0x3866 DUP2 DUP6 PUSH2 0x3658 JUMP JUMPDEST SWAP1 POP PUSH2 0x3875 PUSH1 0x20 DUP4 ADD DUP5 PUSH2 0x322A JUMP JUMPDEST SWAP4 SWAP3 POP POP POP JUMP JUMPDEST PUSH0 PUSH1 0x20 DUP3 DUP5 SUB SLT ISZERO PUSH2 0x3891 JUMPI PUSH2 0x3890 PUSH2 0x3197 JUMP JUMPDEST JUMPDEST PUSH0 DUP3 ADD CALLDATALOAD PUSH8 0xFFFFFFFFFFFFFFFF DUP2 GT ISZERO PUSH2 0x38AE JUMPI PUSH2 0x38AD PUSH2 0x319B JUMP JUMPDEST JUMPDEST PUSH2 0x38BA DUP5 DUP3 DUP6 ADD PUSH2 0x33BB JUMP JUMPDEST SWAP2 POP POP SWAP3 SWAP2 POP POP JUMP JUMPDEST PUSH0 DUP2 MLOAD SWAP1 POP SWAP2 SWAP1 POP JUMP JUMPDEST PUSH0 DUP3 DUP3 MSTORE PUSH1 0x20 DUP3 ADD SWAP1 POP SWAP3 SWAP2 POP POP JUMP JUMPDEST PUSH0 DUP2 SWAP1 POP PUSH1 0x20 DUP3 ADD SWAP1 POP SWAP2 SWAP1 POP JUMP JUMPDEST PUSH0 PUSH2 0x38F7 DUP4 DUP4 PUSH2 0x3585 JUMP JUMPDEST PUSH1 0x20 DUP4 ADD SWAP1 POP SWAP3 SWAP2 POP POP JUMP JUMPDEST PUSH0 PUSH1 0x20 DUP3 ADD SWAP1 POP SWAP2 SWAP1 POP JUMP JUMPDEST PUSH0 PUSH2 0x3919 DUP3 PUSH2 0x38C3 JUMP JUMPDEST PUSH2 0x3923 DUP2 DUP6 PUSH2 0x38CD JUMP JUMPDEST SWAP4 POP PUSH2 0x392E DUP4 PUSH2 0x38DD JUMP JUMPDEST DUP1 PUSH0 JUMPDEST DUP4 DUP2 LT ISZERO PUSH2 0x395E JUMPI DUP2 MLOAD PUSH2 0x3945 DUP9 DUP3 PUSH2 0x38EC JUMP JUMPDEST SWAP8 POP PUSH2 0x3950 DUP4 PUSH2 0x3903 JUMP JUMPDEST SWAP3 POP POP PUSH1 0x1 DUP2 ADD SWAP1 POP PUSH2 0x3931 JUMP JUMPDEST POP DUP6 SWAP4 POP POP POP POP SWAP3 SWAP2 POP POP JUMP JUMPDEST PUSH0 PUSH1 0x20 DUP3 ADD SWAP1 POP DUP2 DUP2 SUB PUSH0 DUP4 ADD MSTORE PUSH2 0x3983 DUP2 DUP5 PUSH2 0x390F JUMP JUMPDEST SWAP1 POP SWAP3 SWAP2 POP POP JUMP JUMPDEST PUSH0 PUSH0 PUSH1 0x40 DUP4 DUP6 SUB SLT ISZERO PUSH2 0x39A1 JUMPI PUSH2 0x39A0 PUSH2 0x3197 JUMP JUMPDEST JUMPDEST PUSH0 PUSH2 0x39AE DUP6 DUP3 DUP7 ADD PUSH2 0x3783 JUMP JUMPDEST SWAP3 POP POP PUSH1 0x20 PUSH2 0x39BF DUP6 DUP3 DUP7 ADD PUSH2 0x3298 JUMP JUMPDEST SWAP2 POP POP SWAP3 POP SWAP3 SWAP1 POP JUMP JUMPDEST PUSH0 PUSH1 0x20 DUP3 DUP5 SUB SLT ISZERO PUSH2 0x39DE JUMPI PUSH2 0x39DD PUSH2 0x3197 JUMP JUMPDEST JUMPDEST PUSH0 PUSH2 0x39EB DUP5 DUP3 DUP6 ADD PUSH2 0x3298 JUMP JUMPDEST SWAP2 POP POP SWAP3 SWAP2 POP POP JUMP JUMPDEST PUSH0 PUSH1 0x20 DUP3 DUP5 SUB SLT ISZERO PUSH2 0x3A09 JUMPI PUSH2 0x3A08 PUSH2 0x3197 JUMP JUMPDEST JUMPDEST PUSH0 PUSH2 0x3A16 DUP5 DUP3 DUP6 ADD PUSH2 0x3407 JUMP JUMPDEST SWAP2 POP POP SWAP3 SWAP2 POP POP JUMP JUMPDEST PUSH0 PUSH8 0xFFFFFFFFFFFFFFFF DUP3 GT ISZERO PUSH2 0x3A39 JUMPI PUSH2 0x3A38 PUSH2 0x32C4 JUMP JUMPDEST JUMPDEST PUSH2 0x3A42 DUP3 PUSH2 0x32B4 JUMP JUMPDEST SWAP1 POP PUSH1 0x20 DUP2 ADD SWAP1 POP SWAP2 SWAP1 POP JUMP JUMPDEST PUSH0 PUSH2 0x3A61 PUSH2 0x3A5C DUP5 PUSH2 0x3A1F JUMP JUMPDEST PUSH2 0x3322 JUMP JUMPDEST SWAP1 POP DUP3 DUP2 MSTORE PUSH1 0x20 DUP2 ADD DUP5 DUP5 DUP5 ADD GT ISZERO PUSH2 0x3A7D JUMPI PUSH2 0x3A7C PUSH2 0x32B0 JUMP JUMPDEST JUMPDEST PUSH2 0x3A88 DUP5 DUP3 DUP6 PUSH2 0x336C JUMP JUMPDEST POP SWAP4 SWAP3 POP POP POP JUMP JUMPDEST PUSH0 DUP3 PUSH1 0x1F DUP4 ADD SLT PUSH2 0x3AA4 JUMPI PUSH2 0x3AA3 PUSH2 0x32AC JUMP JUMPDEST JUMPDEST DUP2 CALLDATALOAD PUSH2 0x3AB4 DUP5 DUP3 PUSH1 0x20 DUP7 ADD PUSH2 0x3A4F JUMP JUMPDEST SWAP2 POP POP SWAP3 SWAP2 POP POP JUMP JUMPDEST PUSH0 PUSH0 PUSH0 PUSH1 0x60 DUP5 DUP7 SUB SLT ISZERO PUSH2 0x3AD4 JUMPI PUSH2 0x3AD3 PUSH2 0x3197 JUMP JUMPDEST JUMPDEST PUSH0 PUSH2 0x3AE1 DUP7 DUP3 DUP8 ADD PUSH2 0x3298 JUMP JUMPDEST SWAP4 POP POP PUSH1 0x20 DUP5 ADD CALLDATALOAD PUSH8 0xFFFFFFFFFFFFFFFF DUP2 GT ISZERO PUSH2 0x3B02 JUMPI PUSH2 0x3B01 PUSH2 0x319B JUMP JUMPDEST JUMPDEST PUSH2 0x3B0E DUP7 DUP3 DUP8 ADD PUSH2 0x33BB JUMP JUMPDEST SWAP3 POP POP PUSH1 0x40 DUP5 ADD CALLDATALOAD PUSH8 0xFFFFFFFFFFFFFFFF DUP2 GT ISZERO PUSH2 0x3B2F JUMPI PUSH2 0x3B2E PUSH2 0x319B JUMP JUMPDEST JUMPDEST PUSH2 0x3B3B DUP7 DUP3 DUP8 ADD PUSH2 0x3A90 JUMP JUMPDEST SWAP2 POP POP SWAP3 POP SWAP3 POP SWAP3 JUMP JUMPDEST PUSH2 0x3B4E DUP2 PUSH2 0x3271 JUMP JUMPDEST DUP3 MSTORE POP POP JUMP JUMPDEST PUSH0 PUSH1 0x20 DUP3 ADD SWAP1 POP PUSH2 0x3B67 PUSH0 DUP4 ADD DUP5 PUSH2 0x3B45 JUMP JUMPDEST SWAP3 SWAP2 POP POP JUMP JUMPDEST PUSH0 PUSH0 PUSH1 0x40 DUP4 DUP6 SUB SLT ISZERO PUSH2 0x3B83 JUMPI PUSH2 0x3B82 PUSH2 0x3197 JUMP JUMPDEST JUMPDEST PUSH0 PUSH2 0x3B90 DUP6 DUP3 DUP7 ADD PUSH2 0x3407 JUMP JUMPDEST SWAP3 POP POP PUSH1 0x20 PUSH2 0x3BA1 DUP6 DUP3 DUP7 ADD PUSH2 0x3407 JUMP JUMPDEST SWAP2 POP POP SWAP3 POP SWAP3 SWAP1 POP JUMP JUMPDEST PUSH0 PUSH1 0xA0 DUP3 ADD SWAP1 POP PUSH2 0x3BBE PUSH0 DUP4 ADD DUP9 PUSH2 0x3745 JUMP JUMPDEST PUSH2 0x3BCB PUSH1 0x20 DUP4 ADD DUP8 PUSH2 0x3745 JUMP JUMPDEST PUSH2 0x3BD8 PUSH1 0x40 DUP4 ADD DUP7 PUSH2 0x3745 JUMP JUMPDEST PUSH2 0x3BE5 PUSH1 0x60 DUP4 ADD DUP6 PUSH2 0x3745 JUMP JUMPDEST PUSH2 0x3BF2 PUSH1 0x80 DUP4 ADD DUP5 PUSH2 0x3745 JUMP JUMPDEST SWAP7 SWAP6 POP POP POP POP POP POP JUMP JUMPDEST PUSH0 PUSH0 PUSH1 0x40 DUP4 DUP6 SUB SLT ISZERO PUSH2 0x3C12 JUMPI PUSH2 0x3C11 PUSH2 0x3197 JUMP JUMPDEST JUMPDEST PUSH0 PUSH2 0x3C1F DUP6 DUP3 DUP7 ADD PUSH2 0x3298 JUMP JUMPDEST SWAP3 POP POP PUSH1 0x20 PUSH2 0x3C30 DUP6 DUP3 DUP7 ADD PUSH2 0x3407 JUMP JUMPDEST SWAP2 POP POP SWAP3 POP SWAP3 SWAP1 POP JUMP JUMPDEST PUSH0 DUP3 DUP3 MSTORE PUSH1 0x20 DUP3 ADD SWAP1 POP SWAP3 SWAP2 POP POP JUMP JUMPDEST PUSH0 PUSH2 0x3C54 DUP3 PUSH2 0x34D3 JUMP JUMPDEST PUSH2 0x3C5E DUP2 DUP6 PUSH2 0x3C3A JUMP JUMPDEST SWAP4 POP PUSH2 0x3C6E DUP2 DUP6 PUSH1 0x20 DUP7 ADD PUSH2 0x34ED JUMP JUMPDEST PUSH2 0x3C77 DUP2 PUSH2 0x32B4 JUMP JUMPDEST DUP5 ADD SWAP2 POP POP SWAP3 SWAP2 POP POP JUMP JUMPDEST PUSH0 DUP3 DUP3 MSTORE PUSH1 0x20 DUP3 ADD SWAP1 POP SWAP3 SWAP2 POP POP JUMP JUMPDEST PUSH0 PUSH2 0x3C9C DUP3 PUSH2 0x3533 JUMP JUMPDEST PUSH2 0x3CA6 DUP2 DUP6 PUSH2 0x3C82 JUMP JUMPDEST SWAP4 POP PUSH2 0x3CB6 DUP2 DUP6 PUSH1 0x20 DUP7 ADD PUSH2 0x34ED JUMP JUMPDEST PUSH2 0x3CBF DUP2 PUSH2 0x32B4 JUMP JUMPDEST DUP5 ADD SWAP2 POP POP SWAP3 SWAP2 POP POP JUMP JUMPDEST PUSH0 PUSH1 0xC0 DUP3 ADD SWAP1 POP PUSH2 0x3CDD PUSH0 DUP4 ADD DUP10 PUSH2 0x3B45 JUMP JUMPDEST DUP2 DUP2 SUB PUSH1 0x20 DUP4 ADD MSTORE PUSH2 0x3CEF DUP2 DUP9 PUSH2 0x3C4A JUMP JUMPDEST SWAP1 POP DUP2 DUP2 SUB PUSH1 0x40 DUP4 ADD MSTORE PUSH2 0x3D03 DUP2 DUP8 PUSH2 0x3C92 JUMP JUMPDEST SWAP1 POP PUSH2 0x3D12 PUSH1 0x60 DUP4 ADD DUP7 PUSH2 0x3745 JUMP JUMPDEST PUSH2 0x3D1F PUSH1 0x80 DUP4 ADD DUP6 PUSH2 0x3745 JUMP JUMPDEST PUSH2 0x3D2C PUSH1 0xA0 DUP4 ADD DUP5 PUSH2 0x37C2 JUMP JUMPDEST SWAP8 SWAP7 POP POP POP POP POP POP POP JUMP JUMPDEST PUSH0 PUSH1 0xC0 DUP4 ADD PUSH0 DUP4 ADD MLOAD PUSH2 0x3D4C PUSH0 DUP7 ADD DUP3 PUSH2 0x34C4 JUMP JUMPDEST POP PUSH1 0x20 DUP4 ADD MLOAD DUP5 DUP3 SUB PUSH1 0x20 DUP7 ADD MSTORE PUSH2 0x3D64 DUP3 DUP3 PUSH2 0x34FB JUMP JUMPDEST SWAP2 POP POP PUSH1 0x40 DUP4 ADD MLOAD DUP5 DUP3 SUB PUSH1 0x40 DUP7 ADD MSTORE PUSH2 0x3D7E DUP3 DUP3 PUSH2 0x354D JUMP JUMPDEST SWAP2 POP POP PUSH1 0x60 DUP4 ADD MLOAD PUSH2 0x3D93 PUSH1 0x60 DUP7 ADD DUP3 PUSH2 0x3585 JUMP JUMPDEST POP PUSH1 0x80 DUP4 ADD MLOAD PUSH2 0x3DA6 PUSH1 0x80 DUP7 ADD DUP3 PUSH2 0x3585 JUMP JUMPDEST POP PUSH1 0xA0 DUP4 ADD MLOAD PUSH2 0x3DB9 PUSH1 0xA0 DUP7 ADD DUP3 PUSH2 0x359D JUMP JUMPDEST POP DUP1 SWAP2 POP POP SWAP3 SWAP2 POP POP JUMP JUMPDEST PUSH0 PUSH1 0x20 DUP3 ADD SWAP1 POP DUP2 DUP2 SUB PUSH0 DUP4 ADD MSTORE PUSH2 0x3DDC DUP2 DUP5 PUSH2 0x3D37 JUMP JUMPDEST SWAP1 POP SWAP3 SWAP2 POP POP JUMP JUMPDEST PUSH32 0x4E487B7100000000000000000000000000000000000000000000000000000000 PUSH0 MSTORE PUSH1 0x32 PUSH1 0x4 MSTORE PUSH1 0x24 PUSH0 REVERT JUMPDEST PUSH32 0x4E487B7100000000000000000000000000000000000000000000000000000000 PUSH0 MSTORE PUSH1 0x22 PUSH1 0x4 MSTORE PUSH1 0x24 PUSH0 REVERT JUMPDEST PUSH0 PUSH1 0x2 DUP3 DIV SWAP1 POP PUSH1 0x1 DUP3 AND DUP1 PUSH2 0x3E55 JUMPI PUSH1 0x7F DUP3 AND SWAP2 POP JUMPDEST PUSH1 0x20 DUP3 LT DUP2 SUB PUSH2 0x3E68 JUMPI PUSH2 0x3E67 PUSH2 0x3E11 JUMP JUMPDEST JUMPDEST POP SWAP2 SWAP1 POP JUMP JUMPDEST PUSH32 0x4E487B7100000000000000000000000000000000000000000000000000000000 PUSH0 MSTORE PUSH1 0x11 PUSH1 0x4 MSTORE PUSH1 0x24 PUSH0 REVERT JUMPDEST PUSH0 PUSH2 0x3EA5 DUP3 PUSH2 0x33E8 JUMP JUMPDEST SWAP2 POP PUSH32 0xFFFFFFFFFFFFFFFFFFFFFFFFFFFFFFFFFFFFFFFFFFFFFFFFFFFFFFFFFFFFFFFF DUP3 SUB PUSH2 0x3ED7 JUMPI PUSH2 0x3ED6 PUSH2 0x3E6E JUMP JUMPDEST JUMPDEST PUSH1 0x1 DUP3 ADD SWAP1 POP SWAP2 SWAP1 POP JUMP JUMPDEST PUSH0 DUP2 SWAP1 POP SWAP3 SWAP2 POP POP JUMP JUMPDEST PUSH0 PUSH2 0x3EF6 DUP3 PUSH2 0x34D3 JUMP JUMPDEST PUSH2 0x3F00 DUP2 DUP6 PUSH2 0x3EE2 JUMP JUMPDEST SWAP4 POP PUSH2 0x3F10 DUP2 DUP6 PUSH1 0x20 DUP7 ADD PUSH2 0x34ED JUMP JUMPDEST DUP1 DUP5 ADD SWAP2 POP POP SWAP3 SWAP2 POP POP JUMP JUMPDEST PUSH0 PUSH2 0x3F27 DUP3 DUP5 PUSH2 0x3EEC JUMP JUMPDEST SWAP2 POP DUP2 SWAP1 POP SWAP3 SWAP2 POP POP JUMP JUMPDEST PUSH0 PUSH2 0x3F3C DUP3 PUSH2 0x33E8 JUMP JUMPDEST SWAP2 POP PUSH2 0x3F47 DUP4 PUSH2 0x33E8 JUMP JUMPDEST SWAP3 POP DUP3 DUP3 SUB SWAP1 POP DUP2 DUP2 GT ISZERO PUSH2 0x3F5F JUMPI PUSH2 0x3F5E PUSH2 0x3E6E JUMP JUMPDEST JUMPDEST SWAP3 SWAP2 POP POP JUMP JUMPDEST PUSH32 0x496E76616C6964206C696D69742028312D313030290000000000000000000000 PUSH0 DUP3 ADD MSTORE POP JUMP JUMPDEST PUSH0 PUSH2 0x3F99 PUSH1 0x15 DUP4 PUSH2 0x3C3A JUMP JUMPDEST SWAP2 POP PUSH2 0x3FA4 DUP3 PUSH2 0x3F65 JUMP JUMPDEST PUSH1 0x20 DUP3 ADD SWAP1 POP SWAP2 SWAP1 POP JUMP JUMPDEST PUSH0 PUSH1 0x20 DUP3 ADD SWAP1 POP DUP2 DUP2 SUB PUSH0 DUP4 ADD MSTORE PUSH2 0x3FC6 DUP2 PUSH2 0x3F8D JUMP JUMPDEST SWAP1 POP SWAP2 SWAP1 POP JUMP JUMPDEST PUSH0 PUSH1 0x40 DUP3 ADD SWAP1 POP PUSH2 0x3FE0 PUSH0 DUP4 ADD DUP6 PUSH2 0x37C2 JUMP JUMPDEST PUSH2 0x3FED PUSH1 0x20 DUP4 ADD DUP5 PUSH2 0x3B45 JUMP JUMPDEST SWAP4 SWAP3 POP POP POP JUMP JUMPDEST PUSH2 0x3FFD DUP2 PUSH2 0x321F JUMP JUMPDEST DUP2 EQ PUSH2 0x4007 JUMPI PUSH0 PUSH0 REVERT JUMPDEST POP JUMP JUMPDEST PUSH0 DUP2 MLOAD SWAP1 POP PUSH2 0x4018 DUP2 PUSH2 0x3FF4 JUMP JUMPDEST SWAP3 SWAP2 POP POP JUMP JUMPDEST PUSH0 PUSH1 0x20 DUP3 DUP5 SUB SLT ISZERO PUSH2 0x4033 JUMPI PUSH2 0x4032 PUSH2 0x3197 JUMP JUMPDEST JUMPDEST PUSH0 PUSH2 0x4040 DUP5 DUP3 DUP6 ADD PUSH2 0x400A JUMP JUMPDEST SWAP2 POP POP SWAP3 SWAP2 POP POP JUMP JUMPDEST PUSH32 0x4E6F7420617574686F72697A6564000000000000000000000000000000000000 PUSH0 DUP3 ADD MSTORE POP JUMP JUMPDEST PUSH0 PUSH2 0x407D PUSH1 0xE DUP4 PUSH2 0x3C3A JUMP JUMPDEST SWAP2 POP PUSH2 0x4088 DUP3 PUSH2 0x4049 JUMP JUMPDEST PUSH1 0x20 DUP3 ADD SWAP1 POP SWAP2 SWAP1 POP JUMP JUMPDEST PUSH0 PUSH1 0x20 DUP3 ADD SWAP1 POP DUP2 DUP2 SUB PUSH0 DUP4 ADD MSTORE PUSH2 0x40AA DUP2 PUSH2 0x4071 JUMP JUMPDEST SWAP1 POP SWAP2 SWAP1 POP JUMP JUMPDEST PUSH32 0x4E487B7100000000000000000000000000000000000000000000000000000000 PUSH0 MSTORE PUSH1 0x12 PUSH1 0x4 MSTORE PUSH1 0x24 PUSH0 REVERT JUMPDEST PUSH0 PUSH2 0x40E8 DUP3 PUSH2 0x33E8 JUMP JUMPDEST SWAP2 POP PUSH2 0x40F3 DUP4 PUSH2 0x33E8 JUMP JUMPDEST SWAP3 POP DUP3 PUSH2 0x4103 JUMPI PUSH2 0x4102 PUSH2 0x40B1 JUMP JUMPDEST JUMPDEST DUP3 DUP3 DIV SWAP1 POP SWAP3 SWAP2 POP POP JUMP JUMPDEST PUSH0 DUP2 SWAP1 POP DUP2 PUSH0 MSTORE PUSH1 0x20 PUSH0 KECCAK256 SWAP1 POP SWAP2 SWAP1 POP JUMP JUMPDEST PUSH0 PUSH1 0x20 PUSH1 0x1F DUP4 ADD DIV SWAP1 POP SWAP2 SWAP1 POP JUMP JUMPDEST PUSH0 DUP3 DUP3 SHL SWAP1 POP SWAP3 SWAP2 POP POP JUMP JUMPDEST PUSH0 PUSH1 0x8 DUP4 MUL PUSH2 0x416A PUSH32 0xFFFFFFFFFFFFFFFFFFFFFFFFFFFFFFFFFFFFFFFFFFFFFFFFFFFFFFFFFFFFFFFF DUP3 PUSH2 0x412F JUMP JUMPDEST PUSH2 0x4174 DUP7 DUP4 PUSH2 0x412F JUMP JUMPDEST SWAP6 POP DUP1 NOT DUP5 AND SWAP4 POP DUP1 DUP7 AND DUP5 OR SWAP3 POP POP POP SWAP4 SWAP3 POP POP POP JUMP JUMPDEST PUSH0 DUP2 SWAP1 POP SWAP2 SWAP1 POP JUMP JUMPDEST PUSH0 PUSH2 0x41AF PUSH2 0x41AA PUSH2 0x41A5 DUP5 PUSH2 0x33E8 JUMP JUMPDEST PUSH2 0x418C JUMP JUMPDEST PUSH2 0x33E8 JUMP JUMPDEST SWAP1 POP SWAP2 SWAP1 POP JUMP JUMPDEST PUSH0 DUP2 SWAP1 POP SWAP2 SWAP1 POP JUMP JUMPDEST PUSH2 0x41C8 DUP4 PUSH2 0x4195 JUMP JUMPDEST PUSH2 0x41DC PUSH2 0x41D4 DUP3 PUSH2 0x41B6 JUMP JUMPDEST DUP5 DUP5 SLOAD PUSH2 0x413B JUMP JUMPDEST DUP3 SSTORE POP POP POP POP JUMP JUMPDEST PUSH0 PUSH0 SWAP1 POP SWAP1 JUMP JUMPDEST PUSH2 0x41F3 PUSH2 0x41E4 JUMP JUMPDEST PUSH2 0x41FE DUP2 DUP5 DUP5 PUSH2 0x41BF JUMP JUMPDEST POP POP POP JUMP JUMPDEST JUMPDEST DUP2 DUP2 LT ISZERO PUSH2 0x4221 JUMPI PUSH2 0x4216 PUSH0 DUP3 PUSH2 0x41EB JUMP JUMPDEST PUSH1 0x1 DUP2 ADD SWAP1 POP PUSH2 0x4204 JUMP JUMPDEST POP POP JUMP JUMPDEST PUSH1 0x1F DUP3 GT ISZERO PUSH2 0x4266 JUMPI PUSH2 0x4237 DUP2 PUSH2 0x410E JUMP JUMPDEST PUSH2 0x4240 DUP5 PUSH2 0x4120 JUMP JUMPDEST DUP2 ADD PUSH1 0x20 DUP6 LT ISZERO PUSH2 0x424F JUMPI DUP2 SWAP1 POP JUMPDEST PUSH2 0x4263 PUSH2 0x425B DUP6 PUSH2 0x4120 JUMP JUMPDEST DUP4 ADD DUP3 PUSH2 0x4203 JUMP JUMPDEST POP POP JUMPDEST POP POP POP JUMP JUMPDEST PUSH0 DUP3 DUP3 SHR SWAP1 POP SWAP3 SWAP2 POP POP JUMP JUMPDEST PUSH0 PUSH2 0x4286 PUSH0 NOT DUP5 PUSH1 0x8 MUL PUSH2 0x426B JUMP JUMPDEST NOT DUP1 DUP4 AND SWAP2 POP POP SWAP3 SWAP2 POP POP JUMP JUMPDEST PUSH0 PUSH2 0x429E DUP4 DUP4 PUSH2 0x4277 JUMP JUMPDEST SWAP2 POP DUP3 PUSH1 0x2 MUL DUP3 OR SWAP1 POP SWAP3 SWAP2 POP POP JUMP JUMPDEST PUSH2 0x42B7 DUP3 PUSH2 0x34D3 JUMP JUMPDEST PUSH8 0xFFFFFFFFFFFFFFFF DUP2 GT ISZERO PUSH2 0x42D0 JUMPI PUSH2 0x42CF PUSH2 0x32C4 JUMP JUMPDEST JUMPDEST PUSH2 0x42DA DUP3 SLOAD PUSH2 0x3E3E JUMP JUMPDEST PUSH2 0x42E5 DUP3 DUP3 DUP6 PUSH2 0x4225 JUMP JUMPDEST PUSH0 PUSH1 0x20 SWAP1 POP PUSH1 0x1F DUP4 GT PUSH1 0x1 DUP2 EQ PUSH2 0x4316 JUMPI PUSH0 DUP5 ISZERO PUSH2 0x4304 JUMPI DUP3 DUP8 ADD MLOAD SWAP1 POP JUMPDEST PUSH2 0x430E DUP6 DUP3 PUSH2 0x4293 JUMP JUMPDEST DUP7 SSTORE POP PUSH2 0x4375 JUMP JUMPDEST PUSH1 0x1F NOT DUP5 AND PUSH2 0x4324 DUP7 PUSH2 0x410E JUMP JUMPDEST PUSH0 JUMPDEST DUP3 DUP2 LT ISZERO PUSH2 0x434B JUMPI DUP5 DUP10 ADD MLOAD DUP3 SSTORE PUSH1 0x1 DUP3 ADD SWAP2 POP PUSH1 0x20 DUP6 ADD SWAP5 POP PUSH1 0x20 DUP2 ADD SWAP1 POP PUSH2 0x4326 JUMP JUMPDEST DUP7 DUP4 LT ISZERO PUSH2 0x4368 JUMPI DUP5 DUP10 ADD MLOAD PUSH2 0x4364 PUSH1 0x1F DUP10 AND DUP3 PUSH2 0x4277 JUMP JUMPDEST DUP4 SSTORE POP JUMPDEST PUSH1 0x1 PUSH1 0x2 DUP9 MUL ADD DUP9 SSTORE POP POP POP JUMPDEST POP POP POP POP POP POP JUMP JUMPDEST PUSH0 DUP2 SWAP1 POP DUP2 PUSH0 MSTORE PUSH1 0x20 PUSH0 KECCAK256 SWAP1 POP SWAP2 SWAP1 POP JUMP JUMPDEST PUSH1 0x1F DUP3 GT ISZERO PUSH2 0x43D0 JUMPI PUSH2 0x43A1 DUP2 PUSH2 0x437D JUMP JUMPDEST PUSH2 0x43AA DUP5 PUSH2 0x4120 JUMP JUMPDEST DUP2 ADD PUSH1 0x20 DUP6 LT ISZERO PUSH2 0x43B9 JUMPI DUP2 SWAP1 POP JUMPDEST PUSH2 0x43CD PUSH2 0x43C5 DUP6 PUSH2 0x4120 JUMP JUMPDEST DUP4 ADD DUP3 PUSH2 0x4203 JUMP JUMPDEST POP POP JUMPDEST POP POP POP JUMP JUMPDEST PUSH2 0x43DE DUP3 PUSH2 0x3533 JUMP JUMPDEST PUSH8 0xFFFFFFFFFFFFFFFF DUP2 GT ISZERO PUSH2 0x43F7 JUMPI PUSH2 0x43F6 PUSH2 0x32C4 JUMP JUMPDEST JUMPDEST PUSH2 0x4401 DUP3 SLOAD PUSH2 0x3E3E JUMP JUMPDEST PUSH2 0x440C DUP3 DUP3 DUP6 PUSH2 0x438F JUMP JUMPDEST PUSH0 PUSH1 0x20 SWAP1 POP PUSH1 0x1F DUP4 GT PUSH1 0x1 DUP2 EQ PUSH2 0x443D JUMPI PUSH0 DUP5 ISZERO PUSH2 0x442B JUMPI DUP3 DUP8 ADD MLOAD SWAP1 POP JUMPDEST PUSH2 0x4435 DUP6 DUP3 PUSH2 0x4293 JUMP JUMPDEST DUP7 SSTORE POP PUSH2 0x449C JUMP JUMPDEST PUSH1 0x1F NOT DUP5 AND PUSH2 0x444B DUP7 PUSH2 0x437D JUMP JUMPDEST PUSH0 JUMPDEST DUP3 DUP2 LT ISZERO PUSH2 0x4472 JUMPI DUP5 DUP10 ADD MLOAD DUP3 SSTORE PUSH1 0x1 DUP3 ADD SWAP2 POP PUSH1 0x20 DUP6 ADD SWAP5 POP PUSH1 0x20 DUP2 ADD SWAP1 POP PUSH2 0x444D JUMP JUMPDEST DUP7 DUP4 LT ISZERO PUSH2 0x448F JUMPI DUP5 DUP10 ADD MLOAD PUSH2 0x448B PUSH1 0x1F DUP10 AND DUP3 PUSH2 0x4277 JUMP JUMPDEST DUP4 SSTORE POP JUMPDEST PUSH1 0x1 PUSH1 0x2 DUP9 MUL ADD DUP9 SSTORE POP POP POP JUMPDEST POP POP POP POP POP POP JUMP JUMPDEST PUSH0 PUSH1 0x40 DUP3 ADD SWAP1 POP PUSH2 0x44B7 PUSH0 DUP4 ADD DUP6 PUSH2 0x3745 JUMP JUMPDEST PUSH2 0x44C4 PUSH1 0x20 DUP4 ADD DUP5 PUSH2 0x3745 JUMP JUMPDEST SWAP4 SWAP3 POP POP POP JUMP JUMPDEST PUSH32 0x496E76616C69642074696D652072616E67650000000000000000000000000000 PUSH0 DUP3 ADD MSTORE POP JUMP JUMPDEST PUSH0 PUSH2 0x44FF PUSH1 0x12 DUP4 PUSH2 0x3C3A JUMP JUMPDEST SWAP2 POP PUSH2 0x450A DUP3 PUSH2 0x44CB JUMP JUMPDEST PUSH1 0x20 DUP3 ADD SWAP1 POP SWAP2 SWAP1 POP JUMP JUMPDEST PUSH0 PUSH1 0x20 DUP3 ADD SWAP1 POP DUP2 DUP2 SUB PUSH0 DUP4 ADD MSTORE PUSH2 0x452C DUP2 PUSH2 0x44F3 JUMP JUMPDEST SWAP1 POP SWAP2 SWAP1 POP JUMP JUMPDEST PUSH32 0x496E76616C69642072616E676500000000000000000000000000000000000000 PUSH0 DUP3 ADD MSTORE POP JUMP JUMPDEST PUSH0 PUSH2 0x4567 PUSH1 0xD DUP4 PUSH2 0x3C3A JUMP JUMPDEST SWAP2 POP PUSH2 0x4572 DUP3 PUSH2 0x4533 JUMP JUMPDEST PUSH1 0x20 DUP3 ADD SWAP1 POP SWAP2 SWAP1 POP JUMP JUMPDEST PUSH0 PUSH1 0x20 DUP3 ADD SWAP1 POP DUP2 DUP2 SUB PUSH0 DUP4 ADD MSTORE PUSH2 0x4594 DUP2 PUSH2 0x455B JUMP JUMPDEST SWAP1 POP SWAP2 SWAP1 POP JUMP JUMPDEST PUSH32 0x456E6420696E646578206F7574206F6620626F756E6473000000000000000000 PUSH0 DUP3 ADD MSTORE POP JUMP JUMPDEST PUSH0 PUSH2 0x45CF PUSH1 0x17 DUP4 PUSH2 0x3C3A JUMP JUMPDEST SWAP2 POP PUSH2 0x45DA DUP3 PUSH2 0x459B JUMP JUMPDEST PUSH1 0x20 DUP3 ADD SWAP1 POP SWAP2 SWAP1 POP JUMP JUMPDEST PUSH0 PUSH1 0x20 DUP3 ADD SWAP1 POP DUP2 DUP2 SUB PUSH0 DUP4 ADD MSTORE PUSH2 0x45FC DUP2 PUSH2 0x45C3 JUMP JUMPDEST SWAP1 POP SWAP2 SWAP1 POP JUMP JUMPDEST PUSH0 PUSH2 0x460D DUP3 PUSH2 0x33E8 JUMP JUMPDEST SWAP2 POP PUSH2 0x4618 DUP4 PUSH2 0x33E8 JUMP JUMPDEST SWAP3 POP DUP3 DUP3 ADD SWAP1 POP DUP1 DUP3 GT ISZERO PUSH2 0x4630 JUMPI PUSH2 0x462F PUSH2 0x3E6E JUMP JUMPDEST JUMPDEST SWAP3 SWAP2 POP POP JUMP JUMPDEST PUSH32 0x496E76616C6964206C6F6720696E646578000000000000000000000000000000 PUSH0 DUP3 ADD MSTORE POP JUMP JUMPDEST PUSH0 PUSH2 0x466A PUSH1 0x11 DUP4 PUSH2 0x3C3A JUMP JUMPDEST SWAP2 POP PUSH2 0x4675 DUP3 PUSH2 0x4636 JUMP JUMPDEST PUSH1 0x20 DUP3 ADD SWAP1 POP SWAP2 SWAP1 POP JUMP JUMPDEST PUSH0 PUSH1 0x20 DUP3 ADD SWAP1 POP DUP2 DUP2 SUB PUSH0 DUP4 ADD MSTORE PUSH2 0x4697 DUP2 PUSH2 0x465E JUMP JUMPDEST SWAP1 POP SWAP2 SWAP1 POP JUMP JUMPDEST PUSH0 PUSH1 0x40 DUP3 ADD SWAP1 POP PUSH2 0x46B1 PUSH0 DUP4 ADD DUP6 PUSH2 0x3B45 JUMP JUMPDEST PUSH2 0x46BE PUSH1 0x20 DUP4 ADD DUP5 PUSH2 0x37C2 JUMP JUMPDEST SWAP4 SWAP3 POP POP POP JUMP INVALID LOG2 PUSH5 0x6970667358 0x22 SLT KECCAK256 MSIZE PUSH19 0xA4C113E67CBBBF999D04DB39EA658F162524A5 NOT PUSH5 0x2D595CFC68 LOG0 0xED CALLDATACOPY 0xA9 PUSH5 0x736F6C6343 STOP ADDMOD 0x1E STOP CALLER "
				},
				"gasEstimates": {
					"creation": {
						"codeDepositCost": "3634200",
						"executionCost": "infinite",
						"totalCost": "infinite"
					},
					"external": {
						"ADMIN_ROLE()": "371",
						"DEFAULT_ADMIN_ROLE()": "374",
						"actionLogs(string,uint256)": "infinite",
						"actorLogs(address,uint256)": "infinite",
						"auditTrail(uint256)": "infinite",
						"dailyLogs(uint256,uint256)": "infinite",
						"exportAuditTrail(uint256,uint256,uint256,uint256)": "infinite",
						"generateComplianceReport(uint256,uint256)": "infinite",
						"getActionLogCount(string)": "infinite",
						"getActionLogs(string)": "infinite",
						"getActorLogCount(address)": "2927",
						"getActorLogs(address)": "infinite",
						"getAuditLog(uint256)": "infinite",
						"getDailyLogCount(uint256)": "infinite",
						"getDailyLogs(uint256)": "infinite",
						"getLogsByAction(string,uint256)": "infinite",
						"getLogsByActor(address,uint256)": "infinite",
						"getLogsByTimeRange(uint256,uint256)": "infinite",
						"getLogsInRange(uint256,uint256)": "infinite",
						"getRoleAdmin(bytes32)": "infinite",
						"getTotalLogs()": "2507",
						"grantRole(bytes32,address)": "infinite",
						"hasRole(bytes32,address)": "3188",
						"logAction(address,string,bytes)": "infinite",
						"payrollCore()": "2598",
						"renounceRole(bytes32,address)": "infinite",
						"revokeRole(bytes32,address)": "infinite",
						"searchLogs(address,string,uint256,uint256)": "infinite",
						"supportsInterface(bytes4)": "764"
					}
				},
				"methodIdentifiers": {
					"ADMIN_ROLE()": "75b238fc",
					"DEFAULT_ADMIN_ROLE()": "a217fddf",
					"actionLogs(string,uint256)": "121254a8",
					"actorLogs(address,uint256)": "a9c85164",
					"auditTrail(uint256)": "ddaf0929",
					"dailyLogs(uint256,uint256)": "a246e46f",
					"exportAuditTrail(uint256,uint256,uint256,uint256)": "25c31f04",
					"generateComplianceReport(uint256,uint256)": "a393bb3e",
					"getActionLogCount(string)": "6a82b00b",
					"getActionLogs(string)": "2820b656",
					"getActorLogCount(address)": "3947be52",
					"getActorLogs(address)": "61b13aa2",
					"getAuditLog(uint256)": "e887319a",
					"getDailyLogCount(uint256)": "3fbd2b52",
					"getDailyLogs(uint256)": "ead2b306",
					"getLogsByAction(string,uint256)": "1c580e1f",
					"getLogsByActor(address,uint256)": "f44006e1",
					"getLogsByTimeRange(uint256,uint256)": "a2b08f25",
					"getLogsInRange(uint256,uint256)": "c9a9ba51",
					"getRoleAdmin(bytes32)": "248a9ca3",
					"getTotalLogs()": "bd628d26",
					"grantRole(bytes32,address)": "2f2ff15d",
					"hasRole(bytes32,address)": "91d14854",
					"logAction(address,string,bytes)": "44c83b97",
					"payrollCore()": "a1c7c1a6",
					"renounceRole(bytes32,address)": "36568abe",
					"revokeRole(bytes32,address)": "d547741f",
					"searchLogs(address,string,uint256,uint256)": "05ad65b0",
					"supportsInterface(bytes4)": "01ffc9a7"
				}
			},
			"storageLayout": {
				"storage": [
					{
						"astId": 27,
						"contract": "contracts/AuditLogger.sol:AuditLogger",
						"label": "_roles",
						"offset": 0,
						"slot": "0",
						"type": "t_mapping(t_bytes32,t_struct(RoleData)22_storage)"
					},
					{
						"astId": 470,
						"contract": "contracts/AuditLogger.sol:AuditLogger",
						"label": "payrollCore",
						"offset": 0,
						"slot": "1",
						"type": "t_address"
					},
					{
						"astId": 474,
						"contract": "contracts/AuditLogger.sol:AuditLogger",
						"label": "auditTrail",
						"offset": 0,
						"slot": "2",
						"type": "t_array(t_struct(AuditLog)468_storage)dyn_storage"
					},
					{
						"astId": 479,
						"contract": "contracts/AuditLogger.sol:AuditLogger",
						"label": "actorLogs",
						"offset": 0,
						"slot": "3",
						"type": "t_mapping(t_address,t_array(t_uint256)dyn_storage)"
					},
					{
						"astId": 484,
						"contract": "contracts/AuditLogger.sol:AuditLogger",
						"label": "actionLogs",
						"offset": 0,
						"slot": "4",
						"type": "t_mapping(t_string_memory_ptr,t_array(t_uint256)dyn_storage)"
					},
					{
						"astId": 489,
						"contract": "contracts/AuditLogger.sol:AuditLogger",
						"label": "dailyLogs",
						"offset": 0,
						"slot": "5",
						"type": "t_mapping(t_uint256,t_array(t_uint256)dyn_storage)"
					}
				],
				"types": {
					"t_address": {
						"encoding": "inplace",
						"label": "address",
						"numberOfBytes": "20"
					},
					"t_array(t_struct(AuditLog)468_storage)dyn_storage": {
						"base": "t_struct(AuditLog)468_storage",
						"encoding": "dynamic_array",
						"label": "struct AuditLogger.AuditLog[]",
						"numberOfBytes": "32"
					},
					"t_array(t_uint256)dyn_storage": {
						"base": "t_uint256",
						"encoding": "dynamic_array",
						"label": "uint256[]",
						"numberOfBytes": "32"
					},
					"t_bool": {
						"encoding": "inplace",
						"label": "bool",
						"numberOfBytes": "1"
					},
					"t_bytes32": {
						"encoding": "inplace",
						"label": "bytes32",
						"numberOfBytes": "32"
					},
					"t_bytes_storage": {
						"encoding": "bytes",
						"label": "bytes",
						"numberOfBytes": "32"
					},
					"t_mapping(t_address,t_array(t_uint256)dyn_storage)": {
						"encoding": "mapping",
						"key": "t_address",
						"label": "mapping(address => uint256[])",
						"numberOfBytes": "32",
						"value": "t_array(t_uint256)dyn_storage"
					},
					"t_mapping(t_address,t_bool)": {
						"encoding": "mapping",
						"key": "t_address",
						"label": "mapping(address => bool)",
						"numberOfBytes": "32",
						"value": "t_bool"
					},
					"t_mapping(t_bytes32,t_struct(RoleData)22_storage)": {
						"encoding": "mapping",
						"key": "t_bytes32",
						"label": "mapping(bytes32 => struct AccessControl.RoleData)",
						"numberOfBytes": "32",
						"value": "t_struct(RoleData)22_storage"
					},
					"t_mapping(t_string_memory_ptr,t_array(t_uint256)dyn_storage)": {
						"encoding": "mapping",
						"key": "t_string_memory_ptr",
						"label": "mapping(string => uint256[])",
						"numberOfBytes": "32",
						"value": "t_array(t_uint256)dyn_storage"
					},
					"t_mapping(t_uint256,t_array(t_uint256)dyn_storage)": {
						"encoding": "mapping",
						"key": "t_uint256",
						"label": "mapping(uint256 => uint256[])",
						"numberOfBytes": "32",
						"value": "t_array(t_uint256)dyn_storage"
					},
					"t_string_memory_ptr": {
						"encoding": "bytes",
						"label": "string",
						"numberOfBytes": "32"
					},
					"t_string_storage": {
						"encoding": "bytes",
						"label": "string",
						"numberOfBytes": "32"
					},
					"t_struct(AuditLog)468_storage": {
						"encoding": "inplace",
						"label": "struct AuditLogger.AuditLog",
						"members": [
							{
								"astId": 457,
								"contract": "contracts/AuditLogger.sol:AuditLogger",
								"label": "actor",
								"offset": 0,
								"slot": "0",
								"type": "t_address"
							},
							{
								"astId": 459,
								"contract": "contracts/AuditLogger.sol:AuditLogger",
								"label": "action",
								"offset": 0,
								"slot": "1",
								"type": "t_string_storage"
							},
							{
								"astId": 461,
								"contract": "contracts/AuditLogger.sol:AuditLogger",
								"label": "data",
								"offset": 0,
								"slot": "2",
								"type": "t_bytes_storage"
							},
							{
								"astId": 463,
								"contract": "contracts/AuditLogger.sol:AuditLogger",
								"label": "timestamp",
								"offset": 0,
								"slot": "3",
								"type": "t_uint256"
							},
							{
								"astId": 465,
								"contract": "contracts/AuditLogger.sol:AuditLogger",
								"label": "blockNumber",
								"offset": 0,
								"slot": "4",
								"type": "t_uint256"
							},
							{
								"astId": 467,
								"contract": "contracts/AuditLogger.sol:AuditLogger",
								"label": "transactionHash",
								"offset": 0,
								"slot": "5",
								"type": "t_bytes32"
							}
						],
						"numberOfBytes": "192"
					},
					"t_struct(RoleData)22_storage": {
						"encoding": "inplace",
						"label": "struct AccessControl.RoleData",
						"members": [
							{
								"astId": 19,
								"contract": "contracts/AuditLogger.sol:AuditLogger",
								"label": "hasRole",
								"offset": 0,
								"slot": "0",
								"type": "t_mapping(t_address,t_bool)"
							},
							{
								"astId": 21,
								"contract": "contracts/AuditLogger.sol:AuditLogger",
								"label": "adminRole",
								"offset": 0,
								"slot": "1",
								"type": "t_bytes32"
							}
						],
						"numberOfBytes": "64"
					},
					"t_uint256": {
						"encoding": "inplace",
						"label": "uint256",
						"numberOfBytes": "32"
					}
				}
			},
			"userdoc": {
				"kind": "user",
				"methods": {},
				"version": 1
			}
		}
	}
}