{
	"data": {
		"bytecode": {
			"linkReferences": {},
			"object": "60806040526003600955610e10600a5534801561001a575f5ffd5b50604051615bf0380380615bf0833981810160405281019061003c91906100e7565b600180819055508060025f6101000a81548173ffffffffffffffffffffffffffffffffffffffff021916908373ffffffffffffffffffffffffffffffffffffffff16021790555050610112565b5f5ffd5b5f73ffffffffffffffffffffffffffffffffffffffff82169050919050565b5f6100b68261008d565b9050919050565b6100c6816100ac565b81146100d0575f5ffd5b50565b5f815190506100e1816100bd565b92915050565b5f602082840312156100fc576100fb610089565b5b5f610109848285016100d3565b91505092915050565b615ad18061011f5f395ff3fe608060405234801561000f575f5ffd5b50600436106101e3575f3560e01c80637da2ba7c1161010d578063acefc3e7116100a0578063c7d20e1b1161006f578063c7d20e1b146105b3578063d547741f146105e3578063f649ec87146105ff578063fb5114771461061d576101e3565b8063acefc3e71461053f578063ade77ad314610549578063bbd8acbe14610565578063c1d446be14610583576101e3565b80639b101f9a116100dc5780639b101f9a1461049a578063a1c7c1a6146104ca578063a217fddf146104e8578063a5e047b814610506576101e3565b80637da2ba7c146103e55780638b5a3853146104155780638d7d2bd71461044e57806391d148541461046a576101e3565b8063349b59541161018557806359502d1f1161015457806359502d1f14610371578063708f29a61461038d57806375b238fc146103ab5780637cb2b79c146103c9576101e3565b8063349b5954146102ff57806336568abe1461031d578063460515a114610339578063526777e914610355576101e3565b8063248a9ca3116101c1578063248a9ca3146102655780632a709b14146102955780632f2ff15d146102b3578063315873ff146102cf576101e3565b806301ffc9a7146101e75780630921224b14610217578063153244e614610235575b5f5ffd5b61020160048036038101906101fc919061416c565b61063b565b60405161020e91906141b1565b60405180910390f35b61021f6106b4565b60405161022c9190614244565b60405180910390f35b61024f600480360381019061024a9190614298565b6106d9565b60405161025c91906142db565b60405180910390f35b61027f600480360381019061027a9190614327565b6106ee565b60405161028c9190614361565b60405180910390f35b61029d61070a565b6040516102aa91906143ab565b60405180910390f35b6102cd60048036038101906102c891906143c4565b61072f565b005b6102e960048036038101906102e4919061444f565b610751565b6040516102f691906141b1565b60405180910390f35b610307610fde565b6040516103149190614361565b60405180910390f35b610337600480360381019061033291906143c4565b611002565b005b610353600480360381019061034e9190614298565b61107d565b005b61036f600480360381019061036a91906144b3565b61114f565b005b61038b600480360381019061038691906144b3565b611ee4565b005b6103956120aa565b6040516103a291906142db565b60405180910390f35b6103b36120b6565b6040516103c09190614361565b60405180910390f35b6103e360048036038101906103de9190614519565b6120da565b005b6103ff60048036038101906103fa9190614298565b6121ac565b60405161040c9190614824565b60405180910390f35b61042f600480360381019061042a9190614844565b6124ac565b6040516104459a999897969594939291906148f7565b60405180910390f35b610468600480360381019061046391906144b3565b612679565b005b610484600480360381019061047f91906143c4565b61283f565b60405161049191906141b1565b60405180910390f35b6104b460048036038101906104af9190614298565b6128a2565b6040516104c191906142db565b60405180910390f35b6104d26128e8565b6040516104df919061499f565b60405180910390f35b6104f061290d565b6040516104fd9190614361565b60405180910390f35b610520600480360381019061051b91906144b3565b612913565b6040516105369a999897969594939291906148f7565b60405180910390f35b610547612ad5565b005b610563600480360381019061055e9190614298565b612f12565b005b61056d612fe4565b60405161057a91906142db565b60405180910390f35b61059d600480360381019061059891906144b3565b612fea565b6040516105aa9190614a96565b60405180910390f35b6105cd60048036038101906105c89190614ab6565b6132d2565b6040516105da91906142db565b60405180910390f35b6105fd60048036038101906105f891906143c4565b613379565b005b61060761339b565b6040516106149190614b26565b60405180910390f35b6106256133c0565b60405161063291906142db565b60405180910390f35b5f7f7965db0b000000000000000000000000000000000000000000000000000000007bffffffffffffffffffffffffffffffffffffffffffffffffffffffff1916827bffffffffffffffffffffffffffffffffffffffffffffffffffffffff191614806106ad57506106ac826133c6565b5b9050919050565b60055f9054906101000a900473ffffffffffffffffffffffffffffffffffffffff1681565b6008602052805f5260405f205f915090505481565b5f5f5f8381526020019081526020015f20600101549050919050565b60045f9054906101000a900473ffffffffffffffffffffffffffffffffffffffff1681565b610738826106ee565b6107418161342f565b61074b8383613443565b50505050565b5f60025f9054906101000a900473ffffffffffffffffffffffffffffffffffffffff1673ffffffffffffffffffffffffffffffffffffffff166391d148547fa49807205ce4d355092ef5a8a18f56e8913cf4a201fbe287825b095693c21775336040518363ffffffff1660e01b81526004016107ce929190614b3f565b602060405180830381865afa1580156107e9573d5f5f3e3d5ffd5b505050506040513d601f19601f8201168201806040525081019061080d9190614b90565b806108cf575060025f9054906101000a900473ffffffffffffffffffffffffffffffffffffffff1673ffffffffffffffffffffffffffffffffffffffff166391d148547f940d6b1946ff1d2b5a9f1909219c3c81a370804b5ba0f91ec0828c99a2e6a681336040518363ffffffff1660e01b815260040161088f929190614b3f565b602060405180830381865afa1580156108aa573d5f5f3e3d5ffd5b505050506040513d601f19601f820116820180604052508101906108ce9190614b90565b5b61090e576040517f08c379a000000000000000000000000000000000000000000000000000000000815260040161090590614c05565b60405180910390fd5b61091661352c565b60035f9054906101000a900473ffffffffffffffffffffffffffffffffffffffff1673ffffffffffffffffffffffffffffffffffffffff166332648e09866040518263ffffffff1660e01b8152600401610970919061499f565b61018060405180830381865afa15801561098c573d5f5f3e3d5ffd5b505050506040513d601f19601f820116820180604052508101906109b09190614e3c565b608001516109f3576040517f08c379a00000000000000000000000000000000000000000000000000000000081526004016109ea90614eb2565b60405180910390fd5b5f5a90505f6040518061014001604052808873ffffffffffffffffffffffffffffffffffffffff1681526020018773ffffffffffffffffffffffffffffffffffffffff168152602001868152602001428152602001856003811115610a5b57610a5a61458b565b5b81526020015f6003811115610a7357610a7261458b565b5b815260200160405180602001604052805f81525081526020015f81526020015f815260200160405180602001604052805f8152508152509050610ab58161357b565b92505a82610ac39190614efd565b8160e001818152505082610ad8576002610adb565b60015b8160a001906003811115610af257610af161458b565b5b90816003811115610b0657610b0561458b565b5b815250508215610baf5760035f9054906101000a900473ffffffffffffffffffffffffffffffffffffffff1673ffffffffffffffffffffffffffffffffffffffff1663c11d2d1888876040518363ffffffff1660e01b8152600401610b6c929190614f30565b5f604051808303815f87803b158015610b83575f5ffd5b505af1158015610b95573d5f5f3e3d5ffd5b50505050610ba28161362c565b8160c00181905250610c41565b6040518060400160405280601881526020017f5061796d656e7420657865637574696f6e206661696c6564000000000000000081525081610120018190525060085f8873ffffffffffffffffffffffffffffffffffffffff1673ffffffffffffffffffffffffffffffffffffffff1681526020019081526020015f205f815480929190610c3b90614f57565b91905055505b600681908060018154018082558091505060019003905f5260205f2090600902015f909190919091505f820151815f015f6101000a81548173ffffffffffffffffffffffffffffffffffffffff021916908373ffffffffffffffffffffffffffffffffffffffff1602179055506020820151816001015f6101000a81548173ffffffffffffffffffffffffffffffffffffffff021916908373ffffffffffffffffffffffffffffffffffffffff16021790555060408201518160020155606082015181600301556080820151816004015f6101000a81548160ff02191690836003811115610d3257610d3161458b565b5b021790555060a08201518160040160016101000a81548160ff02191690836003811115610d6257610d6161458b565b5b021790555060c0820151816005019081610d7c9190615192565b5060e082015181600601556101008201518160070155610120820151816008019081610da89190615192565b50505060075f8873ffffffffffffffffffffffffffffffffffffffff1673ffffffffffffffffffffffffffffffffffffffff1681526020019081526020015f2081908060018154018082558091505060019003905f5260205f2090600902015f909190919091505f820151815f015f6101000a81548173ffffffffffffffffffffffffffffffffffffffff021916908373ffffffffffffffffffffffffffffffffffffffff1602179055506020820151816001015f6101000a81548173ffffffffffffffffffffffffffffffffffffffff021916908373ffffffffffffffffffffffffffffffffffffffff16021790555060408201518160020155606082015181600301556080820151816004015f6101000a81548160ff02191690836003811115610ed757610ed661458b565b5b021790555060a08201518160040160016101000a81548160ff02191690836003811115610f0757610f0661458b565b5b021790555060c0820151816005019081610f219190615192565b5060e082015181600601556101008201518160070155610120820151816008019081610f4d9190615192565b505050610f59816136db565b8573ffffffffffffffffffffffffffffffffffffffff168773ffffffffffffffffffffffffffffffffffffffff167f05392e49ae81f9d730fab8b9d95085c57ced2c8f481ca60e3d4dd2e7d626ebb587878560a001518660e00151604051610fc49493929190615261565b60405180910390a35050610fd66137a5565b949350505050565b7f940d6b1946ff1d2b5a9f1909219c3c81a370804b5ba0f91ec0828c99a2e6a68181565b61100a6137ae565b73ffffffffffffffffffffffffffffffffffffffff168173ffffffffffffffffffffffffffffffffffffffff161461106e576040517f6697b23200000000000000000000000000000000000000000000000000000000815260040160405180910390fd5b61107882826137b5565b505050565b60025f9054906101000a900473ffffffffffffffffffffffffffffffffffffffff1673ffffffffffffffffffffffffffffffffffffffff163373ffffffffffffffffffffffffffffffffffffffff161461110c576040517f08c379a0000000000000000000000000000000000000000000000000000000008152600401611103906152ee565b60405180910390fd5b8060035f6101000a81548173ffffffffffffffffffffffffffffffffffffffff021916908373ffffffffffffffffffffffffffffffffffffffff16021790555050565b60025f9054906101000a900473ffffffffffffffffffffffffffffffffffffffff1673ffffffffffffffffffffffffffffffffffffffff166391d148547fa49807205ce4d355092ef5a8a18f56e8913cf4a201fbe287825b095693c21775336040518363ffffffff1660e01b81526004016111cb929190614b3f565b602060405180830381865afa1580156111e6573d5f5f3e3d5ffd5b505050506040513d601f19601f8201168201806040525081019061120a9190614b90565b806112cc575060025f9054906101000a900473ffffffffffffffffffffffffffffffffffffffff1673ffffffffffffffffffffffffffffffffffffffff166391d148547f940d6b1946ff1d2b5a9f1909219c3c81a370804b5ba0f91ec0828c99a2e6a681336040518363ffffffff1660e01b815260040161128c929190614b3f565b602060405180830381865afa1580156112a7573d5f5f3e3d5ffd5b505050506040513d601f19601f820116820180604052508101906112cb9190614b90565b5b61130b576040517f08c379a000000000000000000000000000000000000000000000000000000000815260040161130290614c05565b60405180910390fd5b6006805490508110611352576040517f08c379a000000000000000000000000000000000000000000000000000000000815260040161134990615356565b60405180910390fd5b5f6006828154811061136757611366615374565b5b905f5260205f2090600902019050600260038111156113895761138861458b565b5b8160040160019054906101000a900460ff1660038111156113ad576113ac61458b565b5b146113ed576040517f08c379a00000000000000000000000000000000000000000000000000000000081526004016113e4906153eb565b60405180910390fd5b600954816007015410611435576040517f08c379a000000000000000000000000000000000000000000000000000000000815260040161142c90615453565b60405180910390fd5b600181600701546114469190615471565b600a5461145391906154a4565b81600301546114629190615471565b4210156114a4576040517f08c379a000000000000000000000000000000000000000000000000000000000815260040161149b9061552f565b60405180910390fd5b60038160040160016101000a81548160ff021916908360038111156114cc576114cb61458b565b5b0217905550806007015f8154809291906114e590614f57565b91905055505f5a90505f61176a83604051806101400160405290815f82015f9054906101000a900473ffffffffffffffffffffffffffffffffffffffff1673ffffffffffffffffffffffffffffffffffffffff1673ffffffffffffffffffffffffffffffffffffffff168152602001600182015f9054906101000a900473ffffffffffffffffffffffffffffffffffffffff1673ffffffffffffffffffffffffffffffffffffffff1673ffffffffffffffffffffffffffffffffffffffff1681526020016002820154815260200160038201548152602001600482015f9054906101000a900460ff1660038111156115e0576115df61458b565b5b60038111156115f2576115f161458b565b5b81526020016004820160019054906101000a900460ff16600381111561161b5761161a61458b565b5b600381111561162d5761162c61458b565b5b815260200160058201805461164190614fcb565b80601f016020809104026020016040519081016040528092919081815260200182805461166d90614fcb565b80156116b85780601f1061168f576101008083540402835291602001916116b8565b820191905f5260205f20905b81548152906001019060200180831161169b57829003601f168201915b5050505050815260200160068201548152602001600782015481526020016008820180546116e590614fcb565b80601f016020809104026020016040519081016040528092919081815260200182805461171190614fcb565b801561175c5780601f106117335761010080835404028352916020019161175c565b820191905f5260205f20905b81548152906001019060200180831161173f57829003601f168201915b50505050508152505061357b565b90505a826117789190614efd565b836006015f82825461178a9190615471565b925050819055508015611b785760018360040160016101000a81548160ff021916908360038111156117bf576117be61458b565b5b021790555060035f9054906101000a900473ffffffffffffffffffffffffffffffffffffffff1673ffffffffffffffffffffffffffffffffffffffff1663c11d2d18845f015f9054906101000a900473ffffffffffffffffffffffffffffffffffffffff1685600201546040518363ffffffff1660e01b8152600401611846929190614f30565b5f604051808303815f87803b15801561185d575f5ffd5b505af115801561186f573d5f5f3e3d5ffd5b50505050611aee83604051806101400160405290815f82015f9054906101000a900473ffffffffffffffffffffffffffffffffffffffff1673ffffffffffffffffffffffffffffffffffffffff1673ffffffffffffffffffffffffffffffffffffffff168152602001600182015f9054906101000a900473ffffffffffffffffffffffffffffffffffffffff1673ffffffffffffffffffffffffffffffffffffffff1673ffffffffffffffffffffffffffffffffffffffff1681526020016002820154815260200160038201548152602001600482015f9054906101000a900460ff1660038111156119645761196361458b565b5b60038111156119765761197561458b565b5b81526020016004820160019054906101000a900460ff16600381111561199f5761199e61458b565b5b60038111156119b1576119b061458b565b5b81526020016005820180546119c590614fcb565b80601f01602080910402602001604051908101604052809291908181526020018280546119f190614fcb565b8015611a3c5780601f10611a1357610100808354040283529160200191611a3c565b820191905f5260205f20905b815481529060010190602001808311611a1f57829003601f168201915b505050505081526020016006820154815260200160078201548152602001600882018054611a6990614fcb565b80601f0160208091040260200160405190810160405280929190818152602001828054611a9590614fcb565b8015611ae05780601f10611ab757610100808354040283529160200191611ae0565b820191905f5260205f20905b815481529060010190602001808311611ac357829003601f168201915b50505050508152505061362c565b836005019081611afe9190615192565b5060085f845f015f9054906101000a900473ffffffffffffffffffffffffffffffffffffffff1673ffffffffffffffffffffffffffffffffffffffff1673ffffffffffffffffffffffffffffffffffffffff1681526020019081526020015f205f815480929190611b6e9061554d565b9190505550611bed565b60028360040160016101000a81548160ff02191690836003811115611ba057611b9f61458b565b5b02179055506040518060400160405280600c81526020017f5265747279206661696c65640000000000000000000000000000000000000000815250836008019081611beb9190615192565b505b825f015f9054906101000a900473ffffffffffffffffffffffffffffffffffffffff1673ffffffffffffffffffffffffffffffffffffffff167f6d9b44e30a0dc7bd26b9a325ebbe8752e37cdd4fcc0c45444189c16ba7da52bc858560070154604051611c5b929190615574565b60405180910390a2611ede83604051806101400160405290815f82015f9054906101000a900473ffffffffffffffffffffffffffffffffffffffff1673ffffffffffffffffffffffffffffffffffffffff1673ffffffffffffffffffffffffffffffffffffffff168152602001600182015f9054906101000a900473ffffffffffffffffffffffffffffffffffffffff1673ffffffffffffffffffffffffffffffffffffffff1673ffffffffffffffffffffffffffffffffffffffff1681526020016002820154815260200160038201548152602001600482015f9054906101000a900460ff166003811115611d5457611d5361458b565b5b6003811115611d6657611d6561458b565b5b81526020016004820160019054906101000a900460ff166003811115611d8f57611d8e61458b565b5b6003811115611da157611da061458b565b5b8152602001600582018054611db590614fcb565b80601f0160208091040260200160405190810160405280929190818152602001828054611de190614fcb565b8015611e2c5780601f10611e0357610100808354040283529160200191611e2c565b820191905f5260205f20905b815481529060010190602001808311611e0f57829003601f168201915b505050505081526020016006820154815260200160078201548152602001600882018054611e5990614fcb565b80601f0160208091040260200160405190810160405280929190818152602001828054611e8590614fcb565b8015611ed05780601f10611ea757610100808354040283529160200191611ed0565b820191905f5260205f20905b815481529060010190602001808311611eb357829003601f168201915b5050505050815250506136db565b50505050565b60025f9054906101000a900473ffffffffffffffffffffffffffffffffffffffff1673ffffffffffffffffffffffffffffffffffffffff166391d148547fa49807205ce4d355092ef5a8a18f56e8913cf4a201fbe287825b095693c21775336040518363ffffffff1660e01b8152600401611f60929190614b3f565b602060405180830381865afa158015611f7b573d5f5f3e3d5ffd5b505050506040513d601f19601f82011682018060405250810190611f9f9190614b90565b80612061575060025f9054906101000a900473ffffffffffffffffffffffffffffffffffffffff1673ffffffffffffffffffffffffffffffffffffffff166391d148547f940d6b1946ff1d2b5a9f1909219c3c81a370804b5ba0f91ec0828c99a2e6a681336040518363ffffffff1660e01b8152600401612021929190614b3f565b602060405180830381865afa15801561203c573d5f5f3e3d5ffd5b505050506040513d601f19601f820116820180604052508101906120609190614b90565b5b6120a0576040517f08c379a000000000000000000000000000000000000000000000000000000000815260040161209790614c05565b60405180910390fd5b8060098190555050565b5f600680549050905090565b7fa49807205ce4d355092ef5a8a18f56e8913cf4a201fbe287825b095693c2177581565b60025f9054906101000a900473ffffffffffffffffffffffffffffffffffffffff1673ffffffffffffffffffffffffffffffffffffffff163373ffffffffffffffffffffffffffffffffffffffff1614612169576040517f08c379a0000000000000000000000000000000000000000000000000000000008152600401612160906152ee565b60405180910390fd5b8060045f6101000a81548173ffffffffffffffffffffffffffffffffffffffff021916908373ffffffffffffffffffffffffffffffffffffffff16021790555050565b606060075f8373ffffffffffffffffffffffffffffffffffffffff1673ffffffffffffffffffffffffffffffffffffffff1681526020019081526020015f20805480602002602001604051908101604052809291908181526020015f905b828210156124a1578382905f5260205f209060090201604051806101400160405290815f82015f9054906101000a900473ffffffffffffffffffffffffffffffffffffffff1673ffffffffffffffffffffffffffffffffffffffff1673ffffffffffffffffffffffffffffffffffffffff168152602001600182015f9054906101000a900473ffffffffffffffffffffffffffffffffffffffff1673ffffffffffffffffffffffffffffffffffffffff1673ffffffffffffffffffffffffffffffffffffffff1681526020016002820154815260200160038201548152602001600482015f9054906101000a900460ff16600381111561230d5761230c61458b565b5b600381111561231f5761231e61458b565b5b81526020016004820160019054906101000a900460ff1660038111156123485761234761458b565b5b600381111561235a5761235961458b565b5b815260200160058201805461236e90614fcb565b80601f016020809104026020016040519081016040528092919081815260200182805461239a90614fcb565b80156123e55780601f106123bc576101008083540402835291602001916123e5565b820191905f5260205f20905b8154815290600101906020018083116123c857829003601f168201915b50505050508152602001600682015481526020016007820154815260200160088201805461241290614fcb565b80601f016020809104026020016040519081016040528092919081815260200182805461243e90614fcb565b80156124895780601f1061246057610100808354040283529160200191612489565b820191905f5260205f20905b81548152906001019060200180831161246c57829003601f168201915b5050505050815250508152602001906001019061220a565b505050509050919050565b6007602052815f5260405f2081815481106124c5575f80fd5b905f5260205f2090600902015f9150915050805f015f9054906101000a900473ffffffffffffffffffffffffffffffffffffffff1690806001015f9054906101000a900473ffffffffffffffffffffffffffffffffffffffff1690806002015490806003015490806004015f9054906101000a900460ff16908060040160019054906101000a900460ff169080600501805461256090614fcb565b80601f016020809104026020016040519081016040528092919081815260200182805461258c90614fcb565b80156125d75780601f106125ae576101008083540402835291602001916125d7565b820191905f5260205f20905b8154815290600101906020018083116125ba57829003601f168201915b5050505050908060060154908060070154908060080180546125f890614fcb565b80601f016020809104026020016040519081016040528092919081815260200182805461262490614fcb565b801561266f5780601f106126465761010080835404028352916020019161266f565b820191905f5260205f20905b81548152906001019060200180831161265257829003601f168201915b505050505090508a565b60025f9054906101000a900473ffffffffffffffffffffffffffffffffffffffff1673ffffffffffffffffffffffffffffffffffffffff166391d148547fa49807205ce4d355092ef5a8a18f56e8913cf4a201fbe287825b095693c21775336040518363ffffffff1660e01b81526004016126f5929190614b3f565b602060405180830381865afa158015612710573d5f5f3e3d5ffd5b505050506040513d601f19601f820116820180604052508101906127349190614b90565b806127f6575060025f9054906101000a900473ffffffffffffffffffffffffffffffffffffffff1673ffffffffffffffffffffffffffffffffffffffff166391d148547f940d6b1946ff1d2b5a9f1909219c3c81a370804b5ba0f91ec0828c99a2e6a681336040518363ffffffff1660e01b81526004016127b6929190614b3f565b602060405180830381865afa1580156127d1573d5f5f3e3d5ffd5b505050506040513d601f19601f820116820180604052508101906127f59190614b90565b5b612835576040517f08c379a000000000000000000000000000000000000000000000000000000000815260040161282c90614c05565b60405180910390fd5b80600a8190555050565b5f5f5f8481526020019081526020015f205f015f8373ffffffffffffffffffffffffffffffffffffffff1673ffffffffffffffffffffffffffffffffffffffff1681526020019081526020015f205f9054906101000a900460ff16905092915050565b5f60085f8373ffffffffffffffffffffffffffffffffffffffff1673ffffffffffffffffffffffffffffffffffffffff1681526020019081526020015f20549050919050565b60025f9054906101000a900473ffffffffffffffffffffffffffffffffffffffff1681565b5f5f1b81565b60068181548110612922575f80fd5b905f5260205f2090600902015f91509050805f015f9054906101000a900473ffffffffffffffffffffffffffffffffffffffff1690806001015f9054906101000a900473ffffffffffffffffffffffffffffffffffffffff1690806002015490806003015490806004015f9054906101000a900460ff16908060040160019054906101000a900460ff16908060050180546129bc90614fcb565b80601f01602080910402602001604051908101604052809291908181526020018280546129e890614fcb565b8015612a335780601f10612a0a57610100808354040283529160200191612a33565b820191905f5260205f20905b815481529060010190602001808311612a1657829003601f168201915b505050505090806006015490806007015490806008018054612a5490614fcb565b80601f0160208091040260200160405190810160405280929190818152602001828054612a8090614fcb565b8015612acb5780601f10612aa257610100808354040283529160200191612acb565b820191905f5260205f20905b815481529060010190602001808311612aae57829003601f168201915b505050505090508a565b60025f9054906101000a900473ffffffffffffffffffffffffffffffffffffffff1673ffffffffffffffffffffffffffffffffffffffff163373ffffffffffffffffffffffffffffffffffffffff1614612b64576040517f08c379a0000000000000000000000000000000000000000000000000000000008152600401612b5b906152ee565b60405180910390fd5b612b6c61352c565b5f60035f9054906101000a900473ffffffffffffffffffffffffffffffffffffffff1673ffffffffffffffffffffffffffffffffffffffff16635dd38bfa6040518163ffffffff1660e01b81526004015f60405180830381865afa158015612bd6573d5f5f3e3d5ffd5b505050506040513d5f823e3d601f19601f82011682018060405250810190612bfe9190615663565b90505f5f90505f5f90505f5f90505b8351811015612e58575f848281518110612c2a57612c29615374565b5b6020026020010151905060035f9054906101000a900473ffffffffffffffffffffffffffffffffffffffff1673ffffffffffffffffffffffffffffffffffffffff166397ad7e02826040518263ffffffff1660e01b8152600401612c8e919061499f565b602060405180830381865afa158015612ca9573d5f5f3e3d5ffd5b505050506040513d601f19601f82011682018060405250810190612ccd9190614b90565b15612e4a575f60035f9054906101000a900473ffffffffffffffffffffffffffffffffffffffff1673ffffffffffffffffffffffffffffffffffffffff166332648e09836040518263ffffffff1660e01b8152600401612d2d919061499f565b61018060405180830381865afa158015612d49573d5f5f3e3d5ffd5b505050506040513d601f19601f82011682018060405250810190612d6d9190614e3c565b90505f60035f9054906101000a900473ffffffffffffffffffffffffffffffffffffffff1673ffffffffffffffffffffffffffffffffffffffff1663774b2535846040518263ffffffff1660e01b8152600401612dca919061499f565b602060405180830381865afa158015612de5573d5f5f3e3d5ffd5b505050506040513d601f19601f82011682018060405250810190612e0991906156aa565b90505f612e1c848460600151845f61389e565b90508015612e37578680612e2f90614f57565b975050612e46565b8580612e4290614f57565b9650505b5050505b508080600101915050612c0d565b5060055f9054906101000a900473ffffffffffffffffffffffffffffffffffffffff1673ffffffffffffffffffffffffffffffffffffffff166344c83b9733848442604051602001612eac939291906156d5565b6040516020818303038152906040526040518363ffffffff1660e01b8152600401612ed89291906157a6565b5f604051808303815f87803b158015612eef575f5ffd5b505af1158015612f01573d5f5f3e3d5ffd5b50505050505050612f106137a5565b565b60025f9054906101000a900473ffffffffffffffffffffffffffffffffffffffff1673ffffffffffffffffffffffffffffffffffffffff163373ffffffffffffffffffffffffffffffffffffffff1614612fa1576040517f08c379a0000000000000000000000000000000000000000000000000000000008152600401612f98906152ee565b60405180910390fd5b8060055f6101000a81548173ffffffffffffffffffffffffffffffffffffffff021916908373ffffffffffffffffffffffffffffffffffffffff16021790555050565b60095481565b612ff261406b565b6006805490508210613039576040517f08c379a000000000000000000000000000000000000000000000000000000000815260040161303090615356565b60405180910390fd5b6006828154811061304d5761304c615374565b5b905f5260205f209060090201604051806101400160405290815f82015f9054906101000a900473ffffffffffffffffffffffffffffffffffffffff1673ffffffffffffffffffffffffffffffffffffffff1673ffffffffffffffffffffffffffffffffffffffff168152602001600182015f9054906101000a900473ffffffffffffffffffffffffffffffffffffffff1673ffffffffffffffffffffffffffffffffffffffff1673ffffffffffffffffffffffffffffffffffffffff1681526020016002820154815260200160038201548152602001600482015f9054906101000a900460ff1660038111156131465761314561458b565b5b60038111156131585761315761458b565b5b81526020016004820160019054906101000a900460ff1660038111156131815761318061458b565b5b60038111156131935761319261458b565b5b81526020016005820180546131a790614fcb565b80601f01602080910402602001604051908101604052809291908181526020018280546131d390614fcb565b801561321e5780601f106131f55761010080835404028352916020019161321e565b820191905f5260205f20905b81548152906001019060200180831161320157829003601f168201915b50505050508152602001600682015481526020016007820154815260200160088201805461324b90614fcb565b80601f016020809104026020016040519081016040528092919081815260200182805461327790614fcb565b80156132c25780601f10613299576101008083540402835291602001916132c2565b820191905f5260205f20905b8154815290600101906020018083116132a557829003601f168201915b5050505050815250509050919050565b5f60045f9054906101000a900473ffffffffffffffffffffffffffffffffffffffff1673ffffffffffffffffffffffffffffffffffffffff16631cc0a1c38585856040518463ffffffff1660e01b8152600401613331939291906157e7565b602060405180830381865afa15801561334c573d5f5f3e3d5ffd5b505050506040513d601f19601f8201168201806040525081019061337091906156aa565b90509392505050565b613382826106ee565b61338b8161342f565b61339583836137b5565b50505050565b60035f9054906101000a900473ffffffffffffffffffffffffffffffffffffffff1681565b600a5481565b5f7f01ffc9a7000000000000000000000000000000000000000000000000000000007bffffffffffffffffffffffffffffffffffffffffffffffffffffffff1916827bffffffffffffffffffffffffffffffffffffffffffffffffffffffff1916149050919050565b6134408161343b6137ae565b613e82565b50565b5f61344e838361283f565b6135225760015f5f8581526020019081526020015f205f015f8473ffffffffffffffffffffffffffffffffffffffff1673ffffffffffffffffffffffffffffffffffffffff1681526020019081526020015f205f6101000a81548160ff0219169083151502179055506134bf6137ae565b73ffffffffffffffffffffffffffffffffffffffff168273ffffffffffffffffffffffffffffffffffffffff16847f2f8788117e7eff1d82e926ec794901d17c78024a50270940304540a733656f0d60405160405180910390a460019050613526565b5f90505b92915050565b600260015403613571576040517f08c379a000000000000000000000000000000000000000000000000000000000815260040161356890615866565b60405180910390fd5b6002600181905550565b5f60045f9054906101000a900473ffffffffffffffffffffffffffffffffffffffff1673ffffffffffffffffffffffffffffffffffffffff1663d1a0cc5c8360200151845f015185604001516040518463ffffffff1660e01b81526004016135e5939291906157e7565b6020604051808303815f875af1158015613601573d5f5f3e3d5ffd5b505050506040513d601f19601f820116820180604052508101906136259190614b90565b9050919050565b60605f825f015183604001518460200151856060015160405160200161365594939291906158e9565b6040516020818303038152906040528051906020012090505f61367782613ed3565b9050835f015173ffffffffffffffffffffffffffffffffffffffff167f59180834f899f4489ff46f8a483a5e8910be42b5ab7e4ea95619fc2546851aad600680549050836040516136c9929190615936565b60405180910390a28092505050919050565b60055f9054906101000a900473ffffffffffffffffffffffffffffffffffffffff1673ffffffffffffffffffffffffffffffffffffffff166344c83b97825f01518360200151846040015185608001518660a001518760600151604051602001613749959493929190615964565b6040516020818303038152906040526040518363ffffffff1660e01b81526004016137759291906159ff565b5f604051808303815f87803b15801561378c575f5ffd5b505af115801561379e573d5f5f3e3d5ffd5b5050505050565b60018081905550565b5f33905090565b5f6137c0838361283f565b15613894575f5f5f8581526020019081526020015f205f015f8473ffffffffffffffffffffffffffffffffffffffff1673ffffffffffffffffffffffffffffffffffffffff1681526020019081526020015f205f6101000a81548160ff0219169083151502179055506138316137ae565b73ffffffffffffffffffffffffffffffffffffffff168273ffffffffffffffffffffffffffffffffffffffff16847ff6391f5c32d9c69d2a47ea670b442974b53935d1edc7fd64eb21e047a839171b60405160405180910390a460019050613898565b5f90505b92915050565b5f5f5a90505f6040518061014001604052808873ffffffffffffffffffffffffffffffffffffffff1681526020018773ffffffffffffffffffffffffffffffffffffffff1681526020018681526020014281526020018560038111156139075761390661458b565b5b81526020015f600381111561391f5761391e61458b565b5b815260200160405180602001604052805f81525081526020015f81526020015f815260200160405180602001604052805f81525081525090506139618161357b565b92505a8261396f9190614efd565b8160e001818152505082613984576002613987565b60015b8160a00190600381111561399e5761399d61458b565b5b908160038111156139b2576139b161458b565b5b815250508215613a5b5760035f9054906101000a900473ffffffffffffffffffffffffffffffffffffffff1673ffffffffffffffffffffffffffffffffffffffff1663c11d2d1888876040518363ffffffff1660e01b8152600401613a18929190614f30565b5f604051808303815f87803b158015613a2f575f5ffd5b505af1158015613a41573d5f5f3e3d5ffd5b50505050613a4e8161362c565b8160c00181905250613aed565b6040518060400160405280601881526020017f5061796d656e7420657865637574696f6e206661696c6564000000000000000081525081610120018190525060085f8873ffffffffffffffffffffffffffffffffffffffff1673ffffffffffffffffffffffffffffffffffffffff1681526020019081526020015f205f815480929190613ae790614f57565b91905055505b600681908060018154018082558091505060019003905f5260205f2090600902015f909190919091505f820151815f015f6101000a81548173ffffffffffffffffffffffffffffffffffffffff021916908373ffffffffffffffffffffffffffffffffffffffff1602179055506020820151816001015f6101000a81548173ffffffffffffffffffffffffffffffffffffffff021916908373ffffffffffffffffffffffffffffffffffffffff16021790555060408201518160020155606082015181600301556080820151816004015f6101000a81548160ff02191690836003811115613bde57613bdd61458b565b5b021790555060a08201518160040160016101000a81548160ff02191690836003811115613c0e57613c0d61458b565b5b021790555060c0820151816005019081613c289190615192565b5060e082015181600601556101008201518160070155610120820151816008019081613c549190615192565b50505060075f8873ffffffffffffffffffffffffffffffffffffffff1673ffffffffffffffffffffffffffffffffffffffff1681526020019081526020015f2081908060018154018082558091505060019003905f5260205f2090600902015f909190919091505f820151815f015f6101000a81548173ffffffffffffffffffffffffffffffffffffffff021916908373ffffffffffffffffffffffffffffffffffffffff1602179055506020820151816001015f6101000a81548173ffffffffffffffffffffffffffffffffffffffff021916908373ffffffffffffffffffffffffffffffffffffffff16021790555060408201518160020155606082015181600301556080820151816004015f6101000a81548160ff02191690836003811115613d8357613d8261458b565b5b021790555060a08201518160040160016101000a81548160ff02191690836003811115613db357613db261458b565b5b021790555060c0820151816005019081613dcd9190615192565b5060e082015181600601556101008201518160070155610120820151816008019081613df99190615192565b505050613e05816136db565b8573ffffffffffffffffffffffffffffffffffffffff168773ffffffffffffffffffffffffffffffffffffffff167f05392e49ae81f9d730fab8b9d95085c57ced2c8f481ca60e3d4dd2e7d626ebb587878560a001518660e00151604051613e709493929190615261565b60405180910390a35050949350505050565b613e8c828261283f565b613ecf5780826040517fe2517d3f000000000000000000000000000000000000000000000000000000008152600401613ec6929190615a40565b60405180910390fd5b5050565b60605f5f90505b60208160ff16108015613f2b57505f60f81b838260ff1660208110613f0257613f01615374565b5b1a60f81b7effffffffffffffffffffffffffffffffffffffffffffffffffffffffffffff191614155b15613f43578080613f3b90615a73565b915050613eda565b5f8160ff1667ffffffffffffffff811115613f6157613f60614c27565b5b6040519080825280601f01601f191660200182016040528015613f935781602001600182028036833780820191505090505b5090505f91505b60208260ff16108015613feb57505f60f81b848360ff1660208110613fc257613fc1615374565b5b1a60f81b7effffffffffffffffffffffffffffffffffffffffffffffffffffffffffffff191614155b1561406157838260ff166020811061400657614005615374565b5b1a60f81b818360ff16815181106140205761401f615374565b5b60200101907effffffffffffffffffffffffffffffffffffffffffffffffffffffffffffff191690815f1a905350818061405990615a73565b925050613f9a565b8092505050919050565b6040518061014001604052805f73ffffffffffffffffffffffffffffffffffffffff1681526020015f73ffffffffffffffffffffffffffffffffffffffff1681526020015f81526020015f81526020015f60038111156140ce576140cd61458b565b5b81526020015f60038111156140e6576140e561458b565b5b8152602001606081526020015f81526020015f8152602001606081525090565b5f604051905090565b5f5ffd5b5f5ffd5b5f7fffffffff0000000000000000000000000000000000000000000000000000000082169050919050565b61414b81614117565b8114614155575f5ffd5b50565b5f8135905061416681614142565b92915050565b5f602082840312156141815761418061410f565b5b5f61418e84828501614158565b91505092915050565b5f8115159050919050565b6141ab81614197565b82525050565b5f6020820190506141c45f8301846141a2565b92915050565b5f73ffffffffffffffffffffffffffffffffffffffff82169050919050565b5f819050919050565b5f61420c614207614202846141ca565b6141e9565b6141ca565b9050919050565b5f61421d826141f2565b9050919050565b5f61422e82614213565b9050919050565b61423e81614224565b82525050565b5f6020820190506142575f830184614235565b92915050565b5f614267826141ca565b9050919050565b6142778161425d565b8114614281575f5ffd5b50565b5f813590506142928161426e565b92915050565b5f602082840312156142ad576142ac61410f565b5b5f6142ba84828501614284565b91505092915050565b5f819050919050565b6142d5816142c3565b82525050565b5f6020820190506142ee5f8301846142cc565b92915050565b5f819050919050565b614306816142f4565b8114614310575f5ffd5b50565b5f81359050614321816142fd565b92915050565b5f6020828403121561433c5761433b61410f565b5b5f61434984828501614313565b91505092915050565b61435b816142f4565b82525050565b5f6020820190506143745f830184614352565b92915050565b5f614384826141f2565b9050919050565b5f6143958261437a565b9050919050565b6143a58161438b565b82525050565b5f6020820190506143be5f83018461439c565b92915050565b5f5f604083850312156143da576143d961410f565b5b5f6143e785828601614313565b92505060206143f885828601614284565b9150509250929050565b61440b816142c3565b8114614415575f5ffd5b50565b5f8135905061442681614402565b92915050565b60048110614438575f5ffd5b50565b5f813590506144498161442c565b92915050565b5f5f5f5f608085870312156144675761446661410f565b5b5f61447487828801614284565b945050602061448587828801614284565b935050604061449687828801614418565b92505060606144a78782880161443b565b91505092959194509250565b5f602082840312156144c8576144c761410f565b5b5f6144d584828501614418565b91505092915050565b5f6144e8826141ca565b9050919050565b6144f8816144de565b8114614502575f5ffd5b50565b5f81359050614513816144ef565b92915050565b5f6020828403121561452e5761452d61410f565b5b5f61453b84828501614505565b91505092915050565b5f81519050919050565b5f82825260208201905092915050565b5f819050602082019050919050565b6145768161425d565b82525050565b614585816142c3565b82525050565b7f4e487b71000000000000000000000000000000000000000000000000000000005f52602160045260245ffd5b600481106145c9576145c861458b565b5b50565b5f8190506145d9826145b8565b919050565b5f6145e8826145cc565b9050919050565b6145f8816145de565b82525050565b6004811061460f5761460e61458b565b5b50565b5f81905061461f826145fe565b919050565b5f61462e82614612565b9050919050565b61463e81614624565b82525050565b5f81519050919050565b5f82825260208201905092915050565b8281835e5f83830152505050565b5f601f19601f8301169050919050565b5f61468682614644565b614690818561464e565b93506146a081856020860161465e565b6146a98161466c565b840191505092915050565b5f61014083015f8301516146ca5f86018261456d565b5060208301516146dd602086018261456d565b5060408301516146f0604086018261457c565b506060830151614703606086018261457c565b50608083015161471660808601826145ef565b5060a083015161472960a0860182614635565b5060c083015184820360c0860152614741828261467c565b91505060e083015161475660e086018261457c565b5061010083015161476b61010086018261457c565b50610120830151848203610120860152614785828261467c565b9150508091505092915050565b5f61479d83836146b4565b905092915050565b5f602082019050919050565b5f6147bb82614544565b6147c5818561454e565b9350836020820285016147d78561455e565b805f5b8581101561481257848403895281516147f38582614792565b94506147fe836147a5565b925060208a019950506001810190506147da565b50829750879550505050505092915050565b5f6020820190508181035f83015261483c81846147b1565b905092915050565b5f5f6040838503121561485a5761485961410f565b5b5f61486785828601614284565b925050602061487885828601614418565b9150509250929050565b61488b8161425d565b82525050565b61489a816145de565b82525050565b6148a981614624565b82525050565b5f82825260208201905092915050565b5f6148c982614644565b6148d381856148af565b93506148e381856020860161465e565b6148ec8161466c565b840191505092915050565b5f6101408201905061490b5f83018d614882565b614918602083018c614882565b614925604083018b6142cc565b614932606083018a6142cc565b61493f6080830189614891565b61494c60a08301886148a0565b81810360c083015261495e81876148bf565b905061496d60e08301866142cc565b61497b6101008301856142cc565b81810361012083015261498e81846148bf565b90509b9a5050505050505050505050565b5f6020820190506149b25f830184614882565b92915050565b5f61014083015f8301516149ce5f86018261456d565b5060208301516149e1602086018261456d565b5060408301516149f4604086018261457c565b506060830151614a07606086018261457c565b506080830151614a1a60808601826145ef565b5060a0830151614a2d60a0860182614635565b5060c083015184820360c0860152614a45828261467c565b91505060e0830151614a5a60e086018261457c565b50610100830151614a6f61010086018261457c565b50610120830151848203610120860152614a89828261467c565b9150508091505092915050565b5f6020820190508181035f830152614aae81846149b8565b905092915050565b5f5f5f60608486031215614acd57614acc61410f565b5b5f614ada86828701614284565b9350506020614aeb86828701614284565b9250506040614afc86828701614418565b9150509250925092565b5f614b1082614213565b9050919050565b614b2081614b06565b82525050565b5f602082019050614b395f830184614b17565b92915050565b5f604082019050614b525f830185614352565b614b5f6020830184614882565b9392505050565b614b6f81614197565b8114614b79575f5ffd5b50565b5f81519050614b8a81614b66565b92915050565b5f60208284031215614ba557614ba461410f565b5b5f614bb284828501614b7c565b91505092915050565b7f4e6f7420617574686f72697a65640000000000000000000000000000000000005f82015250565b5f614bef600e836148af565b9150614bfa82614bbb565b602082019050919050565b5f6020820190508181035f830152614c1c81614be3565b9050919050565b5f5ffd5b7f4e487b71000000000000000000000000000000000000000000000000000000005f52604160045260245ffd5b614c5d8261466c565b810181811067ffffffffffffffff82111715614c7c57614c7b614c27565b5b80604052505050565b5f614c8e614106565b9050614c9a8282614c54565b919050565b5f81519050614cad8161426e565b92915050565b5f81519050614cc181614402565b92915050565b60038110614cd3575f5ffd5b50565b5f81519050614ce481614cc7565b92915050565b5f819050919050565b614cfc81614cea565b8114614d06575f5ffd5b50565b5f81519050614d1781614cf3565b92915050565b5f6101808284031215614d3357614d32614c23565b5b614d3e610180614c85565b90505f614d4d84828501614c9f565b5f830152506020614d6084828501614cb3565b6020830152506040614d7484828501614cd6565b6040830152506060614d8884828501614c9f565b6060830152506080614d9c84828501614b7c565b60808301525060a0614db084828501614cb3565b60a08301525060c0614dc484828501614cb3565b60c08301525060e0614dd884828501614cb3565b60e083015250610100614ded84828501614d09565b61010083015250610120614e0384828501614d09565b61012083015250610140614e1984828501614cb3565b61014083015250610160614e2f84828501614b7c565b6101608301525092915050565b5f6101808284031215614e5257614e5161410f565b5b5f614e5f84828501614d1d565b91505092915050565b7f456d706c6f796565206e6f7420616374697665000000000000000000000000005f82015250565b5f614e9c6013836148af565b9150614ea782614e68565b602082019050919050565b5f6020820190508181035f830152614ec981614e90565b9050919050565b7f4e487b71000000000000000000000000000000000000000000000000000000005f52601160045260245ffd5b5f614f07826142c3565b9150614f12836142c3565b9250828203905081811115614f2a57614f29614ed0565b5b92915050565b5f604082019050614f435f830185614882565b614f5060208301846142cc565b9392505050565b5f614f61826142c3565b91507fffffffffffffffffffffffffffffffffffffffffffffffffffffffffffffffff8203614f9357614f92614ed0565b5b600182019050919050565b7f4e487b71000000000000000000000000000000000000000000000000000000005f52602260045260245ffd5b5f6002820490506001821680614fe257607f821691505b602082108103614ff557614ff4614f9e565b5b50919050565b5f819050815f5260205f209050919050565b5f6020601f8301049050919050565b5f82821b905092915050565b5f600883026150577fffffffffffffffffffffffffffffffffffffffffffffffffffffffffffffffff8261501c565b615061868361501c565b95508019841693508086168417925050509392505050565b5f61509361508e615089846142c3565b6141e9565b6142c3565b9050919050565b5f819050919050565b6150ac83615079565b6150c06150b88261509a565b848454615028565b825550505050565b5f5f905090565b6150d76150c8565b6150e28184846150a3565b505050565b5b81811015615105576150fa5f826150cf565b6001810190506150e8565b5050565b601f82111561514a5761511b81614ffb565b6151248461500d565b81016020851015615133578190505b61514761513f8561500d565b8301826150e7565b50505b505050565b5f82821c905092915050565b5f61516a5f198460080261514f565b1980831691505092915050565b5f615182838361515b565b9150826002028217905092915050565b61519b82614644565b67ffffffffffffffff8111156151b4576151b3614c27565b5b6151be8254614fcb565b6151c9828285615109565b5f60209050601f8311600181146151fa575f84156151e8578287015190505b6151f28582615177565b865550615259565b601f19841661520886614ffb565b5f5b8281101561522f5784890151825560018201915060208501945060208101905061520a565b8683101561524c5784890151615248601f89168261515b565b8355505b6001600288020188555050505b505050505050565b5f6080820190506152745f8301876142cc565b6152816020830186614891565b61528e60408301856148a0565b61529b60608301846142cc565b95945050505050565b7f4f6e6c7920706179726f6c6c20636f72652063616e2063616c6c0000000000005f82015250565b5f6152d8601a836148af565b91506152e3826152a4565b602082019050919050565b5f6020820190508181035f830152615305816152cc565b9050919050565b7f496e76616c6964207061796d656e7420494400000000000000000000000000005f82015250565b5f6153406012836148af565b915061534b8261530c565b602082019050919050565b5f6020820190508181035f83015261536d81615334565b9050919050565b7f4e487b71000000000000000000000000000000000000000000000000000000005f52603260045260245ffd5b7f5061796d656e74206e6f74206661696c656400000000000000000000000000005f82015250565b5f6153d56012836148af565b91506153e0826153a1565b602082019050919050565b5f6020820190508181035f830152615402816153c9565b9050919050565b7f4d617820726574726965732065786365656465640000000000000000000000005f82015250565b5f61543d6014836148af565b915061544882615409565b602082019050919050565b5f6020820190508181035f83015261546a81615431565b9050919050565b5f61547b826142c3565b9150615486836142c3565b925082820190508082111561549e5761549d614ed0565b5b92915050565b5f6154ae826142c3565b91506154b9836142c3565b92508282026154c7816142c3565b915082820484148315176154de576154dd614ed0565b5b5092915050565b7f52657472792064656c6179206e6f74206d6574000000000000000000000000005f82015250565b5f6155196013836148af565b9150615524826154e5565b602082019050919050565b5f6020820190508181035f8301526155468161550d565b9050919050565b5f615557826142c3565b91505f820361556957615568614ed0565b5b600182039050919050565b5f6040820190506155875f8301856142cc565b61559460208301846142cc565b9392505050565b5f5ffd5b5f67ffffffffffffffff8211156155b9576155b8614c27565b5b602082029050602081019050919050565b5f5ffd5b5f6155e06155db8461559f565b614c85565b90508083825260208201905060208402830185811115615603576156026155ca565b5b835b8181101561562c57806156188882614c9f565b845260208401935050602081019050615605565b5050509392505050565b5f82601f83011261564a5761564961559b565b5b815161565a8482602086016155ce565b91505092915050565b5f602082840312156156785761567761410f565b5b5f82015167ffffffffffffffff81111561569557615694614113565b5b6156a184828501615636565b91505092915050565b5f602082840312156156bf576156be61410f565b5b5f6156cc84828501614cb3565b91505092915050565b5f6060820190506156e85f8301866142cc565b6156f560208301856142cc565b61570260408301846142cc565b949350505050565b7f5343484544554c45445f5041594d454e54535f50524f434553534544000000005f82015250565b5f61573e601c836148af565b91506157498261570a565b602082019050919050565b5f81519050919050565b5f82825260208201905092915050565b5f61577882615754565b615782818561575e565b935061579281856020860161465e565b61579b8161466c565b840191505092915050565b5f6060820190506157b95f830185614882565b81810360208301526157ca81615732565b905081810360408301526157de818461576e565b90509392505050565b5f6060820190506157fa5f830186614882565b6158076020830185614882565b61581460408301846142cc565b949350505050565b7f5265656e7472616e637947756172643a207265656e7472616e742063616c6c005f82015250565b5f615850601f836148af565b915061585b8261581c565b602082019050919050565b5f6020820190508181035f83015261587d81615844565b9050919050565b5f8160601b9050919050565b5f61589a82615884565b9050919050565b5f6158ab82615890565b9050919050565b6158c36158be8261425d565b6158a1565b82525050565b5f819050919050565b6158e36158de826142c3565b6158c9565b82525050565b5f6158f482876158b2565b60148201915061590482866158d2565b60208201915061591482856158b2565b60148201915061592482846158d2565b60208201915081905095945050505050565b5f6040820190506159495f8301856142cc565b818103602083015261595b81846148bf565b90509392505050565b5f60a0820190506159775f830188614882565b61598460208301876142cc565b6159916040830186614891565b61599e60608301856148a0565b6159ab60808301846142cc565b9695505050505050565b7f5041594d454e545f50524f4345535345440000000000000000000000000000005f82015250565b5f6159e96011836148af565b91506159f4826159b5565b602082019050919050565b5f606082019050615a125f830185614882565b8181036020830152615a23816159dd565b90508181036040830152615a37818461576e565b90509392505050565b5f604082019050615a535f830185614882565b615a606020830184614352565b9392505050565b5f60ff82169050919050565b5f615a7d82615a67565b915060ff8203615a9057615a8f614ed0565b5b60018201905091905056fea2646970667358221220ffed1dfbcca5a75bf67d98a3195c36046c539c4537beecf29719a11c3bad535464736f6c634300081e0033",
			"opcodes": "PUSH1 0x80 PUSH1 0x40 MSTORE PUSH1 0x3 PUSH1 0x9 SSTORE PUSH2 0xE10 PUSH1 0xA SSTORE CALLVALUE DUP1 ISZERO PUSH2 0x1A JUMPI PUSH0 PUSH0 REVERT JUMPDEST POP PUSH1 0x40 MLOAD PUSH2 0x5BF0 CODESIZE SUB DUP1 PUSH2 0x5BF0 DUP4 CODECOPY DUP2 DUP2 ADD PUSH1 0x40 MSTORE DUP2 ADD SWAP1 PUSH2 0x3C SWAP2 SWAP1 PUSH2 0xE7 JUMP JUMPDEST PUSH1 0x1 DUP1 DUP2 SWAP1 SSTORE POP DUP1 PUSH1 0x2 PUSH0 PUSH2 0x100 EXP DUP2 SLOAD DUP2 PUSH20 0xFFFFFFFFFFFFFFFFFFFFFFFFFFFFFFFFFFFFFFFF MUL NOT AND SWAP1 DUP4 PUSH20 0xFFFFFFFFFFFFFFFFFFFFFFFFFFFFFFFFFFFFFFFF AND MUL OR SWAP1 SSTORE POP POP PUSH2 0x112 JUMP JUMPDEST PUSH0 PUSH0 REVERT JUMPDEST PUSH0 PUSH20 0xFFFFFFFFFFFFFFFFFFFFFFFFFFFFFFFFFFFFFFFF DUP3 AND SWAP1 POP SWAP2 SWAP1 POP JUMP JUMPDEST PUSH0 PUSH2 0xB6 DUP3 PUSH2 0x8D JUMP JUMPDEST SWAP1 POP SWAP2 SWAP1 POP JUMP JUMPDEST PUSH2 0xC6 DUP2 PUSH2 0xAC JUMP JUMPDEST DUP2 EQ PUSH2 0xD0 JUMPI PUSH0 PUSH0 REVERT JUMPDEST POP JUMP JUMPDEST PUSH0 DUP2 MLOAD SWAP1 POP PUSH2 0xE1 DUP2 PUSH2 0xBD JUMP JUMPDEST SWAP3 SWAP2 POP POP JUMP JUMPDEST PUSH0 PUSH1 0x20 DUP3 DUP5 SUB SLT ISZERO PUSH2 0xFC JUMPI PUSH2 0xFB PUSH2 0x89 JUMP JUMPDEST JUMPDEST PUSH0 PUSH2 0x109 DUP5 DUP3 DUP6 ADD PUSH2 0xD3 JUMP JUMPDEST SWAP2 POP POP SWAP3 SWAP2 POP POP JUMP JUMPDEST PUSH2 0x5AD1 DUP1 PUSH2 0x11F PUSH0 CODECOPY PUSH0 RETURN INVALID PUSH1 0x80 PUSH1 0x40 MSTORE CALLVALUE DUP1 ISZERO PUSH2 0xF JUMPI PUSH0 PUSH0 REVERT JUMPDEST POP PUSH1 0x4 CALLDATASIZE LT PUSH2 0x1E3 JUMPI PUSH0 CALLDATALOAD PUSH1 0xE0 SHR DUP1 PUSH4 0x7DA2BA7C GT PUSH2 0x10D JUMPI DUP1 PUSH4 0xACEFC3E7 GT PUSH2 0xA0 JUMPI DUP1 PUSH4 0xC7D20E1B GT PUSH2 0x6F JUMPI DUP1 PUSH4 0xC7D20E1B EQ PUSH2 0x5B3 JUMPI DUP1 PUSH4 0xD547741F EQ PUSH2 0x5E3 JUMPI DUP1 PUSH4 0xF649EC87 EQ PUSH2 0x5FF JUMPI DUP1 PUSH4 0xFB511477 EQ PUSH2 0x61D JUMPI PUSH2 0x1E3 JUMP JUMPDEST DUP1 PUSH4 0xACEFC3E7 EQ PUSH2 0x53F JUMPI DUP1 PUSH4 0xADE77AD3 EQ PUSH2 0x549 JUMPI DUP1 PUSH4 0xBBD8ACBE EQ PUSH2 0x565 JUMPI DUP1 PUSH4 0xC1D446BE EQ PUSH2 0x583 JUMPI PUSH2 0x1E3 JUMP JUMPDEST DUP1 PUSH4 0x9B101F9A GT PUSH2 0xDC JUMPI DUP1 PUSH4 0x9B101F9A EQ PUSH2 0x49A JUMPI DUP1 PUSH4 0xA1C7C1A6 EQ PUSH2 0x4CA JUMPI DUP1 PUSH4 0xA217FDDF EQ PUSH2 0x4E8 JUMPI DUP1 PUSH4 0xA5E047B8 EQ PUSH2 0x506 JUMPI PUSH2 0x1E3 JUMP JUMPDEST DUP1 PUSH4 0x7DA2BA7C EQ PUSH2 0x3E5 JUMPI DUP1 PUSH4 0x8B5A3853 EQ PUSH2 0x415 JUMPI DUP1 PUSH4 0x8D7D2BD7 EQ PUSH2 0x44E JUMPI DUP1 PUSH4 0x91D14854 EQ PUSH2 0x46A JUMPI PUSH2 0x1E3 JUMP JUMPDEST DUP1 PUSH4 0x349B5954 GT PUSH2 0x185 JUMPI DUP1 PUSH4 0x59502D1F GT PUSH2 0x154 JUMPI DUP1 PUSH4 0x59502D1F EQ PUSH2 0x371 JUMPI DUP1 PUSH4 0x708F29A6 EQ PUSH2 0x38D JUMPI DUP1 PUSH4 0x75B238FC EQ PUSH2 0x3AB JUMPI DUP1 PUSH4 0x7CB2B79C EQ PUSH2 0x3C9 JUMPI PUSH2 0x1E3 JUMP JUMPDEST DUP1 PUSH4 0x349B5954 EQ PUSH2 0x2FF JUMPI DUP1 PUSH4 0x36568ABE EQ PUSH2 0x31D JUMPI DUP1 PUSH4 0x460515A1 EQ PUSH2 0x339 JUMPI DUP1 PUSH4 0x526777E9 EQ PUSH2 0x355 JUMPI PUSH2 0x1E3 JUMP JUMPDEST DUP1 PUSH4 0x248A9CA3 GT PUSH2 0x1C1 JUMPI DUP1 PUSH4 0x248A9CA3 EQ PUSH2 0x265 JUMPI DUP1 PUSH4 0x2A709B14 EQ PUSH2 0x295 JUMPI DUP1 PUSH4 0x2F2FF15D EQ PUSH2 0x2B3 JUMPI DUP1 PUSH4 0x315873FF EQ PUSH2 0x2CF JUMPI PUSH2 0x1E3 JUMP JUMPDEST DUP1 PUSH4 0x1FFC9A7 EQ PUSH2 0x1E7 JUMPI DUP1 PUSH4 0x921224B EQ PUSH2 0x217 JUMPI DUP1 PUSH4 0x153244E6 EQ PUSH2 0x235 JUMPI JUMPDEST PUSH0 PUSH0 REVERT JUMPDEST PUSH2 0x201 PUSH1 0x4 DUP1 CALLDATASIZE SUB DUP2 ADD SWAP1 PUSH2 0x1FC SWAP2 SWAP1 PUSH2 0x416C JUMP JUMPDEST PUSH2 0x63B JUMP JUMPDEST PUSH1 0x40 MLOAD PUSH2 0x20E SWAP2 SWAP1 PUSH2 0x41B1 JUMP JUMPDEST PUSH1 0x40 MLOAD DUP1 SWAP2 SUB SWAP1 RETURN JUMPDEST PUSH2 0x21F PUSH2 0x6B4 JUMP JUMPDEST PUSH1 0x40 MLOAD PUSH2 0x22C SWAP2 SWAP1 PUSH2 0x4244 JUMP JUMPDEST PUSH1 0x40 MLOAD DUP1 SWAP2 SUB SWAP1 RETURN JUMPDEST PUSH2 0x24F PUSH1 0x4 DUP1 CALLDATASIZE SUB DUP2 ADD SWAP1 PUSH2 0x24A SWAP2 SWAP1 PUSH2 0x4298 JUMP JUMPDEST PUSH2 0x6D9 JUMP JUMPDEST PUSH1 0x40 MLOAD PUSH2 0x25C SWAP2 SWAP1 PUSH2 0x42DB JUMP JUMPDEST PUSH1 0x40 MLOAD DUP1 SWAP2 SUB SWAP1 RETURN JUMPDEST PUSH2 0x27F PUSH1 0x4 DUP1 CALLDATASIZE SUB DUP2 ADD SWAP1 PUSH2 0x27A SWAP2 SWAP1 PUSH2 0x4327 JUMP JUMPDEST PUSH2 0x6EE JUMP JUMPDEST PUSH1 0x40 MLOAD PUSH2 0x28C SWAP2 SWAP1 PUSH2 0x4361 JUMP JUMPDEST PUSH1 0x40 MLOAD DUP1 SWAP2 SUB SWAP1 RETURN JUMPDEST PUSH2 0x29D PUSH2 0x70A JUMP JUMPDEST PUSH1 0x40 MLOAD PUSH2 0x2AA SWAP2 SWAP1 PUSH2 0x43AB JUMP JUMPDEST PUSH1 0x40 MLOAD DUP1 SWAP2 SUB SWAP1 RETURN JUMPDEST PUSH2 0x2CD PUSH1 0x4 DUP1 CALLDATASIZE SUB DUP2 ADD SWAP1 PUSH2 0x2C8 SWAP2 SWAP1 PUSH2 0x43C4 JUMP JUMPDEST PUSH2 0x72F JUMP JUMPDEST STOP JUMPDEST PUSH2 0x2E9 PUSH1 0x4 DUP1 CALLDATASIZE SUB DUP2 ADD SWAP1 PUSH2 0x2E4 SWAP2 SWAP1 PUSH2 0x444F JUMP JUMPDEST PUSH2 0x751 JUMP JUMPDEST PUSH1 0x40 MLOAD PUSH2 0x2F6 SWAP2 SWAP1 PUSH2 0x41B1 JUMP JUMPDEST PUSH1 0x40 MLOAD DUP1 SWAP2 SUB SWAP1 RETURN JUMPDEST PUSH2 0x307 PUSH2 0xFDE JUMP JUMPDEST PUSH1 0x40 MLOAD PUSH2 0x314 SWAP2 SWAP1 PUSH2 0x4361 JUMP JUMPDEST PUSH1 0x40 MLOAD DUP1 SWAP2 SUB SWAP1 RETURN JUMPDEST PUSH2 0x337 PUSH1 0x4 DUP1 CALLDATASIZE SUB DUP2 ADD SWAP1 PUSH2 0x332 SWAP2 SWAP1 PUSH2 0x43C4 JUMP JUMPDEST PUSH2 0x1002 JUMP JUMPDEST STOP JUMPDEST PUSH2 0x353 PUSH1 0x4 DUP1 CALLDATASIZE SUB DUP2 ADD SWAP1 PUSH2 0x34E SWAP2 SWAP1 PUSH2 0x4298 JUMP JUMPDEST PUSH2 0x107D JUMP JUMPDEST STOP JUMPDEST PUSH2 0x36F PUSH1 0x4 DUP1 CALLDATASIZE SUB DUP2 ADD SWAP1 PUSH2 0x36A SWAP2 SWAP1 PUSH2 0x44B3 JUMP JUMPDEST PUSH2 0x114F JUMP JUMPDEST STOP JUMPDEST PUSH2 0x38B PUSH1 0x4 DUP1 CALLDATASIZE SUB DUP2 ADD SWAP1 PUSH2 0x386 SWAP2 SWAP1 PUSH2 0x44B3 JUMP JUMPDEST PUSH2 0x1EE4 JUMP JUMPDEST STOP JUMPDEST PUSH2 0x395 PUSH2 0x20AA JUMP JUMPDEST PUSH1 0x40 MLOAD PUSH2 0x3A2 SWAP2 SWAP1 PUSH2 0x42DB JUMP JUMPDEST PUSH1 0x40 MLOAD DUP1 SWAP2 SUB SWAP1 RETURN JUMPDEST PUSH2 0x3B3 PUSH2 0x20B6 JUMP JUMPDEST PUSH1 0x40 MLOAD PUSH2 0x3C0 SWAP2 SWAP1 PUSH2 0x4361 JUMP JUMPDEST PUSH1 0x40 MLOAD DUP1 SWAP2 SUB SWAP1 RETURN JUMPDEST PUSH2 0x3E3 PUSH1 0x4 DUP1 CALLDATASIZE SUB DUP2 ADD SWAP1 PUSH2 0x3DE SWAP2 SWAP1 PUSH2 0x4519 JUMP JUMPDEST PUSH2 0x20DA JUMP JUMPDEST STOP JUMPDEST PUSH2 0x3FF PUSH1 0x4 DUP1 CALLDATASIZE SUB DUP2 ADD SWAP1 PUSH2 0x3FA SWAP2 SWAP1 PUSH2 0x4298 JUMP JUMPDEST PUSH2 0x21AC JUMP JUMPDEST PUSH1 0x40 MLOAD PUSH2 0x40C SWAP2 SWAP1 PUSH2 0x4824 JUMP JUMPDEST PUSH1 0x40 MLOAD DUP1 SWAP2 SUB SWAP1 RETURN JUMPDEST PUSH2 0x42F PUSH1 0x4 DUP1 CALLDATASIZE SUB DUP2 ADD SWAP1 PUSH2 0x42A SWAP2 SWAP1 PUSH2 0x4844 JUMP JUMPDEST PUSH2 0x24AC JUMP JUMPDEST PUSH1 0x40 MLOAD PUSH2 0x445 SWAP11 SWAP10 SWAP9 SWAP8 SWAP7 SWAP6 SWAP5 SWAP4 SWAP3 SWAP2 SWAP1 PUSH2 0x48F7 JUMP JUMPDEST PUSH1 0x40 MLOAD DUP1 SWAP2 SUB SWAP1 RETURN JUMPDEST PUSH2 0x468 PUSH1 0x4 DUP1 CALLDATASIZE SUB DUP2 ADD SWAP1 PUSH2 0x463 SWAP2 SWAP1 PUSH2 0x44B3 JUMP JUMPDEST PUSH2 0x2679 JUMP JUMPDEST STOP JUMPDEST PUSH2 0x484 PUSH1 0x4 DUP1 CALLDATASIZE SUB DUP2 ADD SWAP1 PUSH2 0x47F SWAP2 SWAP1 PUSH2 0x43C4 JUMP JUMPDEST PUSH2 0x283F JUMP JUMPDEST PUSH1 0x40 MLOAD PUSH2 0x491 SWAP2 SWAP1 PUSH2 0x41B1 JUMP JUMPDEST PUSH1 0x40 MLOAD DUP1 SWAP2 SUB SWAP1 RETURN JUMPDEST PUSH2 0x4B4 PUSH1 0x4 DUP1 CALLDATASIZE SUB DUP2 ADD SWAP1 PUSH2 0x4AF SWAP2 SWAP1 PUSH2 0x4298 JUMP JUMPDEST PUSH2 0x28A2 JUMP JUMPDEST PUSH1 0x40 MLOAD PUSH2 0x4C1 SWAP2 SWAP1 PUSH2 0x42DB JUMP JUMPDEST PUSH1 0x40 MLOAD DUP1 SWAP2 SUB SWAP1 RETURN JUMPDEST PUSH2 0x4D2 PUSH2 0x28E8 JUMP JUMPDEST PUSH1 0x40 MLOAD PUSH2 0x4DF SWAP2 SWAP1 PUSH2 0x499F JUMP JUMPDEST PUSH1 0x40 MLOAD DUP1 SWAP2 SUB SWAP1 RETURN JUMPDEST PUSH2 0x4F0 PUSH2 0x290D JUMP JUMPDEST PUSH1 0x40 MLOAD PUSH2 0x4FD SWAP2 SWAP1 PUSH2 0x4361 JUMP JUMPDEST PUSH1 0x40 MLOAD DUP1 SWAP2 SUB SWAP1 RETURN JUMPDEST PUSH2 0x520 PUSH1 0x4 DUP1 CALLDATASIZE SUB DUP2 ADD SWAP1 PUSH2 0x51B SWAP2 SWAP1 PUSH2 0x44B3 JUMP JUMPDEST PUSH2 0x2913 JUMP JUMPDEST PUSH1 0x40 MLOAD PUSH2 0x536 SWAP11 SWAP10 SWAP9 SWAP8 SWAP7 SWAP6 SWAP5 SWAP4 SWAP3 SWAP2 SWAP1 PUSH2 0x48F7 JUMP JUMPDEST PUSH1 0x40 MLOAD DUP1 SWAP2 SUB SWAP1 RETURN JUMPDEST PUSH2 0x547 PUSH2 0x2AD5 JUMP JUMPDEST STOP JUMPDEST PUSH2 0x563 PUSH1 0x4 DUP1 CALLDATASIZE SUB DUP2 ADD SWAP1 PUSH2 0x55E SWAP2 SWAP1 PUSH2 0x4298 JUMP JUMPDEST PUSH2 0x2F12 JUMP JUMPDEST STOP JUMPDEST PUSH2 0x56D PUSH2 0x2FE4 JUMP JUMPDEST PUSH1 0x40 MLOAD PUSH2 0x57A SWAP2 SWAP1 PUSH2 0x42DB JUMP JUMPDEST PUSH1 0x40 MLOAD DUP1 SWAP2 SUB SWAP1 RETURN JUMPDEST PUSH2 0x59D PUSH1 0x4 DUP1 CALLDATASIZE SUB DUP2 ADD SWAP1 PUSH2 0x598 SWAP2 SWAP1 PUSH2 0x44B3 JUMP JUMPDEST PUSH2 0x2FEA JUMP JUMPDEST PUSH1 0x40 MLOAD PUSH2 0x5AA SWAP2 SWAP1 PUSH2 0x4A96 JUMP JUMPDEST PUSH1 0x40 MLOAD DUP1 SWAP2 SUB SWAP1 RETURN JUMPDEST PUSH2 0x5CD PUSH1 0x4 DUP1 CALLDATASIZE SUB DUP2 ADD SWAP1 PUSH2 0x5C8 SWAP2 SWAP1 PUSH2 0x4AB6 JUMP JUMPDEST PUSH2 0x32D2 JUMP JUMPDEST PUSH1 0x40 MLOAD PUSH2 0x5DA SWAP2 SWAP1 PUSH2 0x42DB JUMP JUMPDEST PUSH1 0x40 MLOAD DUP1 SWAP2 SUB SWAP1 RETURN JUMPDEST PUSH2 0x5FD PUSH1 0x4 DUP1 CALLDATASIZE SUB DUP2 ADD SWAP1 PUSH2 0x5F8 SWAP2 SWAP1 PUSH2 0x43C4 JUMP JUMPDEST PUSH2 0x3379 JUMP JUMPDEST STOP JUMPDEST PUSH2 0x607 PUSH2 0x339B JUMP JUMPDEST PUSH1 0x40 MLOAD PUSH2 0x614 SWAP2 SWAP1 PUSH2 0x4B26 JUMP JUMPDEST PUSH1 0x40 MLOAD DUP1 SWAP2 SUB SWAP1 RETURN JUMPDEST PUSH2 0x625 PUSH2 0x33C0 JUMP JUMPDEST PUSH1 0x40 MLOAD PUSH2 0x632 SWAP2 SWAP1 PUSH2 0x42DB JUMP JUMPDEST PUSH1 0x40 MLOAD DUP1 SWAP2 SUB SWAP1 RETURN JUMPDEST PUSH0 PUSH32 0x7965DB0B00000000000000000000000000000000000000000000000000000000 PUSH28 0xFFFFFFFFFFFFFFFFFFFFFFFFFFFFFFFFFFFFFFFFFFFFFFFFFFFFFFFF NOT AND DUP3 PUSH28 0xFFFFFFFFFFFFFFFFFFFFFFFFFFFFFFFFFFFFFFFFFFFFFFFFFFFFFFFF NOT AND EQ DUP1 PUSH2 0x6AD JUMPI POP PUSH2 0x6AC DUP3 PUSH2 0x33C6 JUMP JUMPDEST JUMPDEST SWAP1 POP SWAP2 SWAP1 POP JUMP JUMPDEST PUSH1 0x5 PUSH0 SWAP1 SLOAD SWAP1 PUSH2 0x100 EXP SWAP1 DIV PUSH20 0xFFFFFFFFFFFFFFFFFFFFFFFFFFFFFFFFFFFFFFFF AND DUP2 JUMP JUMPDEST PUSH1 0x8 PUSH1 0x20 MSTORE DUP1 PUSH0 MSTORE PUSH1 0x40 PUSH0 KECCAK256 PUSH0 SWAP2 POP SWAP1 POP SLOAD DUP2 JUMP JUMPDEST PUSH0 PUSH0 PUSH0 DUP4 DUP2 MSTORE PUSH1 0x20 ADD SWAP1 DUP2 MSTORE PUSH1 0x20 ADD PUSH0 KECCAK256 PUSH1 0x1 ADD SLOAD SWAP1 POP SWAP2 SWAP1 POP JUMP JUMPDEST PUSH1 0x4 PUSH0 SWAP1 SLOAD SWAP1 PUSH2 0x100 EXP SWAP1 DIV PUSH20 0xFFFFFFFFFFFFFFFFFFFFFFFFFFFFFFFFFFFFFFFF AND DUP2 JUMP JUMPDEST PUSH2 0x738 DUP3 PUSH2 0x6EE JUMP JUMPDEST PUSH2 0x741 DUP2 PUSH2 0x342F JUMP JUMPDEST PUSH2 0x74B DUP4 DUP4 PUSH2 0x3443 JUMP JUMPDEST POP POP POP POP JUMP JUMPDEST PUSH0 PUSH1 0x2 PUSH0 SWAP1 SLOAD SWAP1 PUSH2 0x100 EXP SWAP1 DIV PUSH20 0xFFFFFFFFFFFFFFFFFFFFFFFFFFFFFFFFFFFFFFFF AND PUSH20 0xFFFFFFFFFFFFFFFFFFFFFFFFFFFFFFFFFFFFFFFF AND PUSH4 0x91D14854 PUSH32 0xA49807205CE4D355092EF5A8A18F56E8913CF4A201FBE287825B095693C21775 CALLER PUSH1 0x40 MLOAD DUP4 PUSH4 0xFFFFFFFF AND PUSH1 0xE0 SHL DUP2 MSTORE PUSH1 0x4 ADD PUSH2 0x7CE SWAP3 SWAP2 SWAP1 PUSH2 0x4B3F JUMP JUMPDEST PUSH1 0x20 PUSH1 0x40 MLOAD DUP1 DUP4 SUB DUP2 DUP7 GAS STATICCALL ISZERO DUP1 ISZERO PUSH2 0x7E9 JUMPI RETURNDATASIZE PUSH0 PUSH0 RETURNDATACOPY RETURNDATASIZE PUSH0 REVERT JUMPDEST POP POP POP POP PUSH1 0x40 MLOAD RETURNDATASIZE PUSH1 0x1F NOT PUSH1 0x1F DUP3 ADD AND DUP3 ADD DUP1 PUSH1 0x40 MSTORE POP DUP2 ADD SWAP1 PUSH2 0x80D SWAP2 SWAP1 PUSH2 0x4B90 JUMP JUMPDEST DUP1 PUSH2 0x8CF JUMPI POP PUSH1 0x2 PUSH0 SWAP1 SLOAD SWAP1 PUSH2 0x100 EXP SWAP1 DIV PUSH20 0xFFFFFFFFFFFFFFFFFFFFFFFFFFFFFFFFFFFFFFFF AND PUSH20 0xFFFFFFFFFFFFFFFFFFFFFFFFFFFFFFFFFFFFFFFF AND PUSH4 0x91D14854 PUSH32 0x940D6B1946FF1D2B5A9F1909219C3C81A370804B5BA0F91EC0828C99A2E6A681 CALLER PUSH1 0x40 MLOAD DUP4 PUSH4 0xFFFFFFFF AND PUSH1 0xE0 SHL DUP2 MSTORE PUSH1 0x4 ADD PUSH2 0x88F SWAP3 SWAP2 SWAP1 PUSH2 0x4B3F JUMP JUMPDEST PUSH1 0x20 PUSH1 0x40 MLOAD DUP1 DUP4 SUB DUP2 DUP7 GAS STATICCALL ISZERO DUP1 ISZERO PUSH2 0x8AA JUMPI RETURNDATASIZE PUSH0 PUSH0 RETURNDATACOPY RETURNDATASIZE PUSH0 REVERT JUMPDEST POP POP POP POP PUSH1 0x40 MLOAD RETURNDATASIZE PUSH1 0x1F NOT PUSH1 0x1F DUP3 ADD AND DUP3 ADD DUP1 PUSH1 0x40 MSTORE POP DUP2 ADD SWAP1 PUSH2 0x8CE SWAP2 SWAP1 PUSH2 0x4B90 JUMP JUMPDEST JUMPDEST PUSH2 0x90E JUMPI PUSH1 0x40 MLOAD PUSH32 0x8C379A000000000000000000000000000000000000000000000000000000000 DUP2 MSTORE PUSH1 0x4 ADD PUSH2 0x905 SWAP1 PUSH2 0x4C05 JUMP JUMPDEST PUSH1 0x40 MLOAD DUP1 SWAP2 SUB SWAP1 REVERT JUMPDEST PUSH2 0x916 PUSH2 0x352C JUMP JUMPDEST PUSH1 0x3 PUSH0 SWAP1 SLOAD SWAP1 PUSH2 0x100 EXP SWAP1 DIV PUSH20 0xFFFFFFFFFFFFFFFFFFFFFFFFFFFFFFFFFFFFFFFF AND PUSH20 0xFFFFFFFFFFFFFFFFFFFFFFFFFFFFFFFFFFFFFFFF AND PUSH4 0x32648E09 DUP7 PUSH1 0x40 MLOAD DUP3 PUSH4 0xFFFFFFFF AND PUSH1 0xE0 SHL DUP2 MSTORE PUSH1 0x4 ADD PUSH2 0x970 SWAP2 SWAP1 PUSH2 0x499F JUMP JUMPDEST PUSH2 0x180 PUSH1 0x40 MLOAD DUP1 DUP4 SUB DUP2 DUP7 GAS STATICCALL ISZERO DUP1 ISZERO PUSH2 0x98C JUMPI RETURNDATASIZE PUSH0 PUSH0 RETURNDATACOPY RETURNDATASIZE PUSH0 REVERT JUMPDEST POP POP POP POP PUSH1 0x40 MLOAD RETURNDATASIZE PUSH1 0x1F NOT PUSH1 0x1F DUP3 ADD AND DUP3 ADD DUP1 PUSH1 0x40 MSTORE POP DUP2 ADD SWAP1 PUSH2 0x9B0 SWAP2 SWAP1 PUSH2 0x4E3C JUMP JUMPDEST PUSH1 0x80 ADD MLOAD PUSH2 0x9F3 JUMPI PUSH1 0x40 MLOAD PUSH32 0x8C379A000000000000000000000000000000000000000000000000000000000 DUP2 MSTORE PUSH1 0x4 ADD PUSH2 0x9EA SWAP1 PUSH2 0x4EB2 JUMP JUMPDEST PUSH1 0x40 MLOAD DUP1 SWAP2 SUB SWAP1 REVERT JUMPDEST PUSH0 GAS SWAP1 POP PUSH0 PUSH1 0x40 MLOAD DUP1 PUSH2 0x140 ADD PUSH1 0x40 MSTORE DUP1 DUP9 PUSH20 0xFFFFFFFFFFFFFFFFFFFFFFFFFFFFFFFFFFFFFFFF AND DUP2 MSTORE PUSH1 0x20 ADD DUP8 PUSH20 0xFFFFFFFFFFFFFFFFFFFFFFFFFFFFFFFFFFFFFFFF AND DUP2 MSTORE PUSH1 0x20 ADD DUP7 DUP2 MSTORE PUSH1 0x20 ADD TIMESTAMP DUP2 MSTORE PUSH1 0x20 ADD DUP6 PUSH1 0x3 DUP2 GT ISZERO PUSH2 0xA5B JUMPI PUSH2 0xA5A PUSH2 0x458B JUMP JUMPDEST JUMPDEST DUP2 MSTORE PUSH1 0x20 ADD PUSH0 PUSH1 0x3 DUP2 GT ISZERO PUSH2 0xA73 JUMPI PUSH2 0xA72 PUSH2 0x458B JUMP JUMPDEST JUMPDEST DUP2 MSTORE PUSH1 0x20 ADD PUSH1 0x40 MLOAD DUP1 PUSH1 0x20 ADD PUSH1 0x40 MSTORE DUP1 PUSH0 DUP2 MSTORE POP DUP2 MSTORE PUSH1 0x20 ADD PUSH0 DUP2 MSTORE PUSH1 0x20 ADD PUSH0 DUP2 MSTORE PUSH1 0x20 ADD PUSH1 0x40 MLOAD DUP1 PUSH1 0x20 ADD PUSH1 0x40 MSTORE DUP1 PUSH0 DUP2 MSTORE POP DUP2 MSTORE POP SWAP1 POP PUSH2 0xAB5 DUP2 PUSH2 0x357B JUMP JUMPDEST SWAP3 POP GAS DUP3 PUSH2 0xAC3 SWAP2 SWAP1 PUSH2 0x4EFD JUMP JUMPDEST DUP2 PUSH1 0xE0 ADD DUP2 DUP2 MSTORE POP POP DUP3 PUSH2 0xAD8 JUMPI PUSH1 0x2 PUSH2 0xADB JUMP JUMPDEST PUSH1 0x1 JUMPDEST DUP2 PUSH1 0xA0 ADD SWAP1 PUSH1 0x3 DUP2 GT ISZERO PUSH2 0xAF2 JUMPI PUSH2 0xAF1 PUSH2 0x458B JUMP JUMPDEST JUMPDEST SWAP1 DUP2 PUSH1 0x3 DUP2 GT ISZERO PUSH2 0xB06 JUMPI PUSH2 0xB05 PUSH2 0x458B JUMP JUMPDEST JUMPDEST DUP2 MSTORE POP POP DUP3 ISZERO PUSH2 0xBAF JUMPI PUSH1 0x3 PUSH0 SWAP1 SLOAD SWAP1 PUSH2 0x100 EXP SWAP1 DIV PUSH20 0xFFFFFFFFFFFFFFFFFFFFFFFFFFFFFFFFFFFFFFFF AND PUSH20 0xFFFFFFFFFFFFFFFFFFFFFFFFFFFFFFFFFFFFFFFF AND PUSH4 0xC11D2D18 DUP9 DUP8 PUSH1 0x40 MLOAD DUP4 PUSH4 0xFFFFFFFF AND PUSH1 0xE0 SHL DUP2 MSTORE PUSH1 0x4 ADD PUSH2 0xB6C SWAP3 SWAP2 SWAP1 PUSH2 0x4F30 JUMP JUMPDEST PUSH0 PUSH1 0x40 MLOAD DUP1 DUP4 SUB DUP2 PUSH0 DUP8 DUP1 EXTCODESIZE ISZERO DUP1 ISZERO PUSH2 0xB83 JUMPI PUSH0 PUSH0 REVERT JUMPDEST POP GAS CALL ISZERO DUP1 ISZERO PUSH2 0xB95 JUMPI RETURNDATASIZE PUSH0 PUSH0 RETURNDATACOPY RETURNDATASIZE PUSH0 REVERT JUMPDEST POP POP POP POP PUSH2 0xBA2 DUP2 PUSH2 0x362C JUMP JUMPDEST DUP2 PUSH1 0xC0 ADD DUP2 SWAP1 MSTORE POP PUSH2 0xC41 JUMP JUMPDEST PUSH1 0x40 MLOAD DUP1 PUSH1 0x40 ADD PUSH1 0x40 MSTORE DUP1 PUSH1 0x18 DUP2 MSTORE PUSH1 0x20 ADD PUSH32 0x5061796D656E7420657865637574696F6E206661696C65640000000000000000 DUP2 MSTORE POP DUP2 PUSH2 0x120 ADD DUP2 SWAP1 MSTORE POP PUSH1 0x8 PUSH0 DUP9 PUSH20 0xFFFFFFFFFFFFFFFFFFFFFFFFFFFFFFFFFFFFFFFF AND PUSH20 0xFFFFFFFFFFFFFFFFFFFFFFFFFFFFFFFFFFFFFFFF AND DUP2 MSTORE PUSH1 0x20 ADD SWAP1 DUP2 MSTORE PUSH1 0x20 ADD PUSH0 KECCAK256 PUSH0 DUP2 SLOAD DUP1 SWAP3 SWAP2 SWAP1 PUSH2 0xC3B SWAP1 PUSH2 0x4F57 JUMP JUMPDEST SWAP2 SWAP1 POP SSTORE POP JUMPDEST PUSH1 0x6 DUP2 SWAP1 DUP1 PUSH1 0x1 DUP2 SLOAD ADD DUP1 DUP3 SSTORE DUP1 SWAP2 POP POP PUSH1 0x1 SWAP1 SUB SWAP1 PUSH0 MSTORE PUSH1 0x20 PUSH0 KECCAK256 SWAP1 PUSH1 0x9 MUL ADD PUSH0 SWAP1 SWAP2 SWAP1 SWAP2 SWAP1 SWAP2 POP PUSH0 DUP3 ADD MLOAD DUP2 PUSH0 ADD PUSH0 PUSH2 0x100 EXP DUP2 SLOAD DUP2 PUSH20 0xFFFFFFFFFFFFFFFFFFFFFFFFFFFFFFFFFFFFFFFF MUL NOT AND SWAP1 DUP4 PUSH20 0xFFFFFFFFFFFFFFFFFFFFFFFFFFFFFFFFFFFFFFFF AND MUL OR SWAP1 SSTORE POP PUSH1 0x20 DUP3 ADD MLOAD DUP2 PUSH1 0x1 ADD PUSH0 PUSH2 0x100 EXP DUP2 SLOAD DUP2 PUSH20 0xFFFFFFFFFFFFFFFFFFFFFFFFFFFFFFFFFFFFFFFF MUL NOT AND SWAP1 DUP4 PUSH20 0xFFFFFFFFFFFFFFFFFFFFFFFFFFFFFFFFFFFFFFFF AND MUL OR SWAP1 SSTORE POP PUSH1 0x40 DUP3 ADD MLOAD DUP2 PUSH1 0x2 ADD SSTORE PUSH1 0x60 DUP3 ADD MLOAD DUP2 PUSH1 0x3 ADD SSTORE PUSH1 0x80 DUP3 ADD MLOAD DUP2 PUSH1 0x4 ADD PUSH0 PUSH2 0x100 EXP DUP2 SLOAD DUP2 PUSH1 0xFF MUL NOT AND SWAP1 DUP4 PUSH1 0x3 DUP2 GT ISZERO PUSH2 0xD32 JUMPI PUSH2 0xD31 PUSH2 0x458B JUMP JUMPDEST JUMPDEST MUL OR SWAP1 SSTORE POP PUSH1 0xA0 DUP3 ADD MLOAD DUP2 PUSH1 0x4 ADD PUSH1 0x1 PUSH2 0x100 EXP DUP2 SLOAD DUP2 PUSH1 0xFF MUL NOT AND SWAP1 DUP4 PUSH1 0x3 DUP2 GT ISZERO PUSH2 0xD62 JUMPI PUSH2 0xD61 PUSH2 0x458B JUMP JUMPDEST JUMPDEST MUL OR SWAP1 SSTORE POP PUSH1 0xC0 DUP3 ADD MLOAD DUP2 PUSH1 0x5 ADD SWAP1 DUP2 PUSH2 0xD7C SWAP2 SWAP1 PUSH2 0x5192 JUMP JUMPDEST POP PUSH1 0xE0 DUP3 ADD MLOAD DUP2 PUSH1 0x6 ADD SSTORE PUSH2 0x100 DUP3 ADD MLOAD DUP2 PUSH1 0x7 ADD SSTORE PUSH2 0x120 DUP3 ADD MLOAD DUP2 PUSH1 0x8 ADD SWAP1 DUP2 PUSH2 0xDA8 SWAP2 SWAP1 PUSH2 0x5192 JUMP JUMPDEST POP POP POP PUSH1 0x7 PUSH0 DUP9 PUSH20 0xFFFFFFFFFFFFFFFFFFFFFFFFFFFFFFFFFFFFFFFF AND PUSH20 0xFFFFFFFFFFFFFFFFFFFFFFFFFFFFFFFFFFFFFFFF AND DUP2 MSTORE PUSH1 0x20 ADD SWAP1 DUP2 MSTORE PUSH1 0x20 ADD PUSH0 KECCAK256 DUP2 SWAP1 DUP1 PUSH1 0x1 DUP2 SLOAD ADD DUP1 DUP3 SSTORE DUP1 SWAP2 POP POP PUSH1 0x1 SWAP1 SUB SWAP1 PUSH0 MSTORE PUSH1 0x20 PUSH0 KECCAK256 SWAP1 PUSH1 0x9 MUL ADD PUSH0 SWAP1 SWAP2 SWAP1 SWAP2 SWAP1 SWAP2 POP PUSH0 DUP3 ADD MLOAD DUP2 PUSH0 ADD PUSH0 PUSH2 0x100 EXP DUP2 SLOAD DUP2 PUSH20 0xFFFFFFFFFFFFFFFFFFFFFFFFFFFFFFFFFFFFFFFF MUL NOT AND SWAP1 DUP4 PUSH20 0xFFFFFFFFFFFFFFFFFFFFFFFFFFFFFFFFFFFFFFFF AND MUL OR SWAP1 SSTORE POP PUSH1 0x20 DUP3 ADD MLOAD DUP2 PUSH1 0x1 ADD PUSH0 PUSH2 0x100 EXP DUP2 SLOAD DUP2 PUSH20 0xFFFFFFFFFFFFFFFFFFFFFFFFFFFFFFFFFFFFFFFF MUL NOT AND SWAP1 DUP4 PUSH20 0xFFFFFFFFFFFFFFFFFFFFFFFFFFFFFFFFFFFFFFFF AND MUL OR SWAP1 SSTORE POP PUSH1 0x40 DUP3 ADD MLOAD DUP2 PUSH1 0x2 ADD SSTORE PUSH1 0x60 DUP3 ADD MLOAD DUP2 PUSH1 0x3 ADD SSTORE PUSH1 0x80 DUP3 ADD MLOAD DUP2 PUSH1 0x4 ADD PUSH0 PUSH2 0x100 EXP DUP2 SLOAD DUP2 PUSH1 0xFF MUL NOT AND SWAP1 DUP4 PUSH1 0x3 DUP2 GT ISZERO PUSH2 0xED7 JUMPI PUSH2 0xED6 PUSH2 0x458B JUMP JUMPDEST JUMPDEST MUL OR SWAP1 SSTORE POP PUSH1 0xA0 DUP3 ADD MLOAD DUP2 PUSH1 0x4 ADD PUSH1 0x1 PUSH2 0x100 EXP DUP2 SLOAD DUP2 PUSH1 0xFF MUL NOT AND SWAP1 DUP4 PUSH1 0x3 DUP2 GT ISZERO PUSH2 0xF07 JUMPI PUSH2 0xF06 PUSH2 0x458B JUMP JUMPDEST JUMPDEST MUL OR SWAP1 SSTORE POP PUSH1 0xC0 DUP3 ADD MLOAD DUP2 PUSH1 0x5 ADD SWAP1 DUP2 PUSH2 0xF21 SWAP2 SWAP1 PUSH2 0x5192 JUMP JUMPDEST POP PUSH1 0xE0 DUP3 ADD MLOAD DUP2 PUSH1 0x6 ADD SSTORE PUSH2 0x100 DUP3 ADD MLOAD DUP2 PUSH1 0x7 ADD SSTORE PUSH2 0x120 DUP3 ADD MLOAD DUP2 PUSH1 0x8 ADD SWAP1 DUP2 PUSH2 0xF4D SWAP2 SWAP1 PUSH2 0x5192 JUMP JUMPDEST POP POP POP PUSH2 0xF59 DUP2 PUSH2 0x36DB JUMP JUMPDEST DUP6 PUSH20 0xFFFFFFFFFFFFFFFFFFFFFFFFFFFFFFFFFFFFFFFF AND DUP8 PUSH20 0xFFFFFFFFFFFFFFFFFFFFFFFFFFFFFFFFFFFFFFFF AND PUSH32 0x5392E49AE81F9D730FAB8B9D95085C57CED2C8F481CA60E3D4DD2E7D626EBB5 DUP8 DUP8 DUP6 PUSH1 0xA0 ADD MLOAD DUP7 PUSH1 0xE0 ADD MLOAD PUSH1 0x40 MLOAD PUSH2 0xFC4 SWAP5 SWAP4 SWAP3 SWAP2 SWAP1 PUSH2 0x5261 JUMP JUMPDEST PUSH1 0x40 MLOAD DUP1 SWAP2 SUB SWAP1 LOG3 POP POP PUSH2 0xFD6 PUSH2 0x37A5 JUMP JUMPDEST SWAP5 SWAP4 POP POP POP POP JUMP JUMPDEST PUSH32 0x940D6B1946FF1D2B5A9F1909219C3C81A370804B5BA0F91EC0828C99A2E6A681 DUP2 JUMP JUMPDEST PUSH2 0x100A PUSH2 0x37AE JUMP JUMPDEST PUSH20 0xFFFFFFFFFFFFFFFFFFFFFFFFFFFFFFFFFFFFFFFF AND DUP2 PUSH20 0xFFFFFFFFFFFFFFFFFFFFFFFFFFFFFFFFFFFFFFFF AND EQ PUSH2 0x106E JUMPI PUSH1 0x40 MLOAD PUSH32 0x6697B23200000000000000000000000000000000000000000000000000000000 DUP2 MSTORE PUSH1 0x4 ADD PUSH1 0x40 MLOAD DUP1 SWAP2 SUB SWAP1 REVERT JUMPDEST PUSH2 0x1078 DUP3 DUP3 PUSH2 0x37B5 JUMP JUMPDEST POP POP POP JUMP JUMPDEST PUSH1 0x2 PUSH0 SWAP1 SLOAD SWAP1 PUSH2 0x100 EXP SWAP1 DIV PUSH20 0xFFFFFFFFFFFFFFFFFFFFFFFFFFFFFFFFFFFFFFFF AND PUSH20 0xFFFFFFFFFFFFFFFFFFFFFFFFFFFFFFFFFFFFFFFF AND CALLER PUSH20 0xFFFFFFFFFFFFFFFFFFFFFFFFFFFFFFFFFFFFFFFF AND EQ PUSH2 0x110C JUMPI PUSH1 0x40 MLOAD PUSH32 0x8C379A000000000000000000000000000000000000000000000000000000000 DUP2 MSTORE PUSH1 0x4 ADD PUSH2 0x1103 SWAP1 PUSH2 0x52EE JUMP JUMPDEST PUSH1 0x40 MLOAD DUP1 SWAP2 SUB SWAP1 REVERT JUMPDEST DUP1 PUSH1 0x3 PUSH0 PUSH2 0x100 EXP DUP2 SLOAD DUP2 PUSH20 0xFFFFFFFFFFFFFFFFFFFFFFFFFFFFFFFFFFFFFFFF MUL NOT AND SWAP1 DUP4 PUSH20 0xFFFFFFFFFFFFFFFFFFFFFFFFFFFFFFFFFFFFFFFF AND MUL OR SWAP1 SSTORE POP POP JUMP JUMPDEST PUSH1 0x2 PUSH0 SWAP1 SLOAD SWAP1 PUSH2 0x100 EXP SWAP1 DIV PUSH20 0xFFFFFFFFFFFFFFFFFFFFFFFFFFFFFFFFFFFFFFFF AND PUSH20 0xFFFFFFFFFFFFFFFFFFFFFFFFFFFFFFFFFFFFFFFF AND PUSH4 0x91D14854 PUSH32 0xA49807205CE4D355092EF5A8A18F56E8913CF4A201FBE287825B095693C21775 CALLER PUSH1 0x40 MLOAD DUP4 PUSH4 0xFFFFFFFF AND PUSH1 0xE0 SHL DUP2 MSTORE PUSH1 0x4 ADD PUSH2 0x11CB SWAP3 SWAP2 SWAP1 PUSH2 0x4B3F JUMP JUMPDEST PUSH1 0x20 PUSH1 0x40 MLOAD DUP1 DUP4 SUB DUP2 DUP7 GAS STATICCALL ISZERO DUP1 ISZERO PUSH2 0x11E6 JUMPI RETURNDATASIZE PUSH0 PUSH0 RETURNDATACOPY RETURNDATASIZE PUSH0 REVERT JUMPDEST POP POP POP POP PUSH1 0x40 MLOAD RETURNDATASIZE PUSH1 0x1F NOT PUSH1 0x1F DUP3 ADD AND DUP3 ADD DUP1 PUSH1 0x40 MSTORE POP DUP2 ADD SWAP1 PUSH2 0x120A SWAP2 SWAP1 PUSH2 0x4B90 JUMP JUMPDEST DUP1 PUSH2 0x12CC JUMPI POP PUSH1 0x2 PUSH0 SWAP1 SLOAD SWAP1 PUSH2 0x100 EXP SWAP1 DIV PUSH20 0xFFFFFFFFFFFFFFFFFFFFFFFFFFFFFFFFFFFFFFFF AND PUSH20 0xFFFFFFFFFFFFFFFFFFFFFFFFFFFFFFFFFFFFFFFF AND PUSH4 0x91D14854 PUSH32 0x940D6B1946FF1D2B5A9F1909219C3C81A370804B5BA0F91EC0828C99A2E6A681 CALLER PUSH1 0x40 MLOAD DUP4 PUSH4 0xFFFFFFFF AND PUSH1 0xE0 SHL DUP2 MSTORE PUSH1 0x4 ADD PUSH2 0x128C SWAP3 SWAP2 SWAP1 PUSH2 0x4B3F JUMP JUMPDEST PUSH1 0x20 PUSH1 0x40 MLOAD DUP1 DUP4 SUB DUP2 DUP7 GAS STATICCALL ISZERO DUP1 ISZERO PUSH2 0x12A7 JUMPI RETURNDATASIZE PUSH0 PUSH0 RETURNDATACOPY RETURNDATASIZE PUSH0 REVERT JUMPDEST POP POP POP POP PUSH1 0x40 MLOAD RETURNDATASIZE PUSH1 0x1F NOT PUSH1 0x1F DUP3 ADD AND DUP3 ADD DUP1 PUSH1 0x40 MSTORE POP DUP2 ADD SWAP1 PUSH2 0x12CB SWAP2 SWAP1 PUSH2 0x4B90 JUMP JUMPDEST JUMPDEST PUSH2 0x130B JUMPI PUSH1 0x40 MLOAD PUSH32 0x8C379A000000000000000000000000000000000000000000000000000000000 DUP2 MSTORE PUSH1 0x4 ADD PUSH2 0x1302 SWAP1 PUSH2 0x4C05 JUMP JUMPDEST PUSH1 0x40 MLOAD DUP1 SWAP2 SUB SWAP1 REVERT JUMPDEST PUSH1 0x6 DUP1 SLOAD SWAP1 POP DUP2 LT PUSH2 0x1352 JUMPI PUSH1 0x40 MLOAD PUSH32 0x8C379A000000000000000000000000000000000000000000000000000000000 DUP2 MSTORE PUSH1 0x4 ADD PUSH2 0x1349 SWAP1 PUSH2 0x5356 JUMP JUMPDEST PUSH1 0x40 MLOAD DUP1 SWAP2 SUB SWAP1 REVERT JUMPDEST PUSH0 PUSH1 0x6 DUP3 DUP2 SLOAD DUP2 LT PUSH2 0x1367 JUMPI PUSH2 0x1366 PUSH2 0x5374 JUMP JUMPDEST JUMPDEST SWAP1 PUSH0 MSTORE PUSH1 0x20 PUSH0 KECCAK256 SWAP1 PUSH1 0x9 MUL ADD SWAP1 POP PUSH1 0x2 PUSH1 0x3 DUP2 GT ISZERO PUSH2 0x1389 JUMPI PUSH2 0x1388 PUSH2 0x458B JUMP JUMPDEST JUMPDEST DUP2 PUSH1 0x4 ADD PUSH1 0x1 SWAP1 SLOAD SWAP1 PUSH2 0x100 EXP SWAP1 DIV PUSH1 0xFF AND PUSH1 0x3 DUP2 GT ISZERO PUSH2 0x13AD JUMPI PUSH2 0x13AC PUSH2 0x458B JUMP JUMPDEST JUMPDEST EQ PUSH2 0x13ED JUMPI PUSH1 0x40 MLOAD PUSH32 0x8C379A000000000000000000000000000000000000000000000000000000000 DUP2 MSTORE PUSH1 0x4 ADD PUSH2 0x13E4 SWAP1 PUSH2 0x53EB JUMP JUMPDEST PUSH1 0x40 MLOAD DUP1 SWAP2 SUB SWAP1 REVERT JUMPDEST PUSH1 0x9 SLOAD DUP2 PUSH1 0x7 ADD SLOAD LT PUSH2 0x1435 JUMPI PUSH1 0x40 MLOAD PUSH32 0x8C379A000000000000000000000000000000000000000000000000000000000 DUP2 MSTORE PUSH1 0x4 ADD PUSH2 0x142C SWAP1 PUSH2 0x5453 JUMP JUMPDEST PUSH1 0x40 MLOAD DUP1 SWAP2 SUB SWAP1 REVERT JUMPDEST PUSH1 0x1 DUP2 PUSH1 0x7 ADD SLOAD PUSH2 0x1446 SWAP2 SWAP1 PUSH2 0x5471 JUMP JUMPDEST PUSH1 0xA SLOAD PUSH2 0x1453 SWAP2 SWAP1 PUSH2 0x54A4 JUMP JUMPDEST DUP2 PUSH1 0x3 ADD SLOAD PUSH2 0x1462 SWAP2 SWAP1 PUSH2 0x5471 JUMP JUMPDEST TIMESTAMP LT ISZERO PUSH2 0x14A4 JUMPI PUSH1 0x40 MLOAD PUSH32 0x8C379A000000000000000000000000000000000000000000000000000000000 DUP2 MSTORE PUSH1 0x4 ADD PUSH2 0x149B SWAP1 PUSH2 0x552F JUMP JUMPDEST PUSH1 0x40 MLOAD DUP1 SWAP2 SUB SWAP1 REVERT JUMPDEST PUSH1 0x3 DUP2 PUSH1 0x4 ADD PUSH1 0x1 PUSH2 0x100 EXP DUP2 SLOAD DUP2 PUSH1 0xFF MUL NOT AND SWAP1 DUP4 PUSH1 0x3 DUP2 GT ISZERO PUSH2 0x14CC JUMPI PUSH2 0x14CB PUSH2 0x458B JUMP JUMPDEST JUMPDEST MUL OR SWAP1 SSTORE POP DUP1 PUSH1 0x7 ADD PUSH0 DUP2 SLOAD DUP1 SWAP3 SWAP2 SWAP1 PUSH2 0x14E5 SWAP1 PUSH2 0x4F57 JUMP JUMPDEST SWAP2 SWAP1 POP SSTORE POP PUSH0 GAS SWAP1 POP PUSH0 PUSH2 0x176A DUP4 PUSH1 0x40 MLOAD DUP1 PUSH2 0x140 ADD PUSH1 0x40 MSTORE SWAP1 DUP2 PUSH0 DUP3 ADD PUSH0 SWAP1 SLOAD SWAP1 PUSH2 0x100 EXP SWAP1 DIV PUSH20 0xFFFFFFFFFFFFFFFFFFFFFFFFFFFFFFFFFFFFFFFF AND PUSH20 0xFFFFFFFFFFFFFFFFFFFFFFFFFFFFFFFFFFFFFFFF AND PUSH20 0xFFFFFFFFFFFFFFFFFFFFFFFFFFFFFFFFFFFFFFFF AND DUP2 MSTORE PUSH1 0x20 ADD PUSH1 0x1 DUP3 ADD PUSH0 SWAP1 SLOAD SWAP1 PUSH2 0x100 EXP SWAP1 DIV PUSH20 0xFFFFFFFFFFFFFFFFFFFFFFFFFFFFFFFFFFFFFFFF AND PUSH20 0xFFFFFFFFFFFFFFFFFFFFFFFFFFFFFFFFFFFFFFFF AND PUSH20 0xFFFFFFFFFFFFFFFFFFFFFFFFFFFFFFFFFFFFFFFF AND DUP2 MSTORE PUSH1 0x20 ADD PUSH1 0x2 DUP3 ADD SLOAD DUP2 MSTORE PUSH1 0x20 ADD PUSH1 0x3 DUP3 ADD SLOAD DUP2 MSTORE PUSH1 0x20 ADD PUSH1 0x4 DUP3 ADD PUSH0 SWAP1 SLOAD SWAP1 PUSH2 0x100 EXP SWAP1 DIV PUSH1 0xFF AND PUSH1 0x3 DUP2 GT ISZERO PUSH2 0x15E0 JUMPI PUSH2 0x15DF PUSH2 0x458B JUMP JUMPDEST JUMPDEST PUSH1 0x3 DUP2 GT ISZERO PUSH2 0x15F2 JUMPI PUSH2 0x15F1 PUSH2 0x458B JUMP JUMPDEST JUMPDEST DUP2 MSTORE PUSH1 0x20 ADD PUSH1 0x4 DUP3 ADD PUSH1 0x1 SWAP1 SLOAD SWAP1 PUSH2 0x100 EXP SWAP1 DIV PUSH1 0xFF AND PUSH1 0x3 DUP2 GT ISZERO PUSH2 0x161B JUMPI PUSH2 0x161A PUSH2 0x458B JUMP JUMPDEST JUMPDEST PUSH1 0x3 DUP2 GT ISZERO PUSH2 0x162D JUMPI PUSH2 0x162C PUSH2 0x458B JUMP JUMPDEST JUMPDEST DUP2 MSTORE PUSH1 0x20 ADD PUSH1 0x5 DUP3 ADD DUP1 SLOAD PUSH2 0x1641 SWAP1 PUSH2 0x4FCB JUMP JUMPDEST DUP1 PUSH1 0x1F ADD PUSH1 0x20 DUP1 SWAP2 DIV MUL PUSH1 0x20 ADD PUSH1 0x40 MLOAD SWAP1 DUP2 ADD PUSH1 0x40 MSTORE DUP1 SWAP3 SWAP2 SWAP1 DUP2 DUP2 MSTORE PUSH1 0x20 ADD DUP3 DUP1 SLOAD PUSH2 0x166D SWAP1 PUSH2 0x4FCB JUMP JUMPDEST DUP1 ISZERO PUSH2 0x16B8 JUMPI DUP1 PUSH1 0x1F LT PUSH2 0x168F JUMPI PUSH2 0x100 DUP1 DUP4 SLOAD DIV MUL DUP4 MSTORE SWAP2 PUSH1 0x20 ADD SWAP2 PUSH2 0x16B8 JUMP JUMPDEST DUP3 ADD SWAP2 SWAP1 PUSH0 MSTORE PUSH1 0x20 PUSH0 KECCAK256 SWAP1 JUMPDEST DUP2 SLOAD DUP2 MSTORE SWAP1 PUSH1 0x1 ADD SWAP1 PUSH1 0x20 ADD DUP1 DUP4 GT PUSH2 0x169B JUMPI DUP3 SWAP1 SUB PUSH1 0x1F AND DUP3 ADD SWAP2 JUMPDEST POP POP POP POP POP DUP2 MSTORE PUSH1 0x20 ADD PUSH1 0x6 DUP3 ADD SLOAD DUP2 MSTORE PUSH1 0x20 ADD PUSH1 0x7 DUP3 ADD SLOAD DUP2 MSTORE PUSH1 0x20 ADD PUSH1 0x8 DUP3 ADD DUP1 SLOAD PUSH2 0x16E5 SWAP1 PUSH2 0x4FCB JUMP JUMPDEST DUP1 PUSH1 0x1F ADD PUSH1 0x20 DUP1 SWAP2 DIV MUL PUSH1 0x20 ADD PUSH1 0x40 MLOAD SWAP1 DUP2 ADD PUSH1 0x40 MSTORE DUP1 SWAP3 SWAP2 SWAP1 DUP2 DUP2 MSTORE PUSH1 0x20 ADD DUP3 DUP1 SLOAD PUSH2 0x1711 SWAP1 PUSH2 0x4FCB JUMP JUMPDEST DUP1 ISZERO PUSH2 0x175C JUMPI DUP1 PUSH1 0x1F LT PUSH2 0x1733 JUMPI PUSH2 0x100 DUP1 DUP4 SLOAD DIV MUL DUP4 MSTORE SWAP2 PUSH1 0x20 ADD SWAP2 PUSH2 0x175C JUMP JUMPDEST DUP3 ADD SWAP2 SWAP1 PUSH0 MSTORE PUSH1 0x20 PUSH0 KECCAK256 SWAP1 JUMPDEST DUP2 SLOAD DUP2 MSTORE SWAP1 PUSH1 0x1 ADD SWAP1 PUSH1 0x20 ADD DUP1 DUP4 GT PUSH2 0x173F JUMPI DUP3 SWAP1 SUB PUSH1 0x1F AND DUP3 ADD SWAP2 JUMPDEST POP POP POP POP POP DUP2 MSTORE POP POP PUSH2 0x357B JUMP JUMPDEST SWAP1 POP GAS DUP3 PUSH2 0x1778 SWAP2 SWAP1 PUSH2 0x4EFD JUMP JUMPDEST DUP4 PUSH1 0x6 ADD PUSH0 DUP3 DUP3 SLOAD PUSH2 0x178A SWAP2 SWAP1 PUSH2 0x5471 JUMP JUMPDEST SWAP3 POP POP DUP2 SWAP1 SSTORE POP DUP1 ISZERO PUSH2 0x1B78 JUMPI PUSH1 0x1 DUP4 PUSH1 0x4 ADD PUSH1 0x1 PUSH2 0x100 EXP DUP2 SLOAD DUP2 PUSH1 0xFF MUL NOT AND SWAP1 DUP4 PUSH1 0x3 DUP2 GT ISZERO PUSH2 0x17BF JUMPI PUSH2 0x17BE PUSH2 0x458B JUMP JUMPDEST JUMPDEST MUL OR SWAP1 SSTORE POP PUSH1 0x3 PUSH0 SWAP1 SLOAD SWAP1 PUSH2 0x100 EXP SWAP1 DIV PUSH20 0xFFFFFFFFFFFFFFFFFFFFFFFFFFFFFFFFFFFFFFFF AND PUSH20 0xFFFFFFFFFFFFFFFFFFFFFFFFFFFFFFFFFFFFFFFF AND PUSH4 0xC11D2D18 DUP5 PUSH0 ADD PUSH0 SWAP1 SLOAD SWAP1 PUSH2 0x100 EXP SWAP1 DIV PUSH20 0xFFFFFFFFFFFFFFFFFFFFFFFFFFFFFFFFFFFFFFFF AND DUP6 PUSH1 0x2 ADD SLOAD PUSH1 0x40 MLOAD DUP4 PUSH4 0xFFFFFFFF AND PUSH1 0xE0 SHL DUP2 MSTORE PUSH1 0x4 ADD PUSH2 0x1846 SWAP3 SWAP2 SWAP1 PUSH2 0x4F30 JUMP JUMPDEST PUSH0 PUSH1 0x40 MLOAD DUP1 DUP4 SUB DUP2 PUSH0 DUP8 DUP1 EXTCODESIZE ISZERO DUP1 ISZERO PUSH2 0x185D JUMPI PUSH0 PUSH0 REVERT JUMPDEST POP GAS CALL ISZERO DUP1 ISZERO PUSH2 0x186F JUMPI RETURNDATASIZE PUSH0 PUSH0 RETURNDATACOPY RETURNDATASIZE PUSH0 REVERT JUMPDEST POP POP POP POP PUSH2 0x1AEE DUP4 PUSH1 0x40 MLOAD DUP1 PUSH2 0x140 ADD PUSH1 0x40 MSTORE SWAP1 DUP2 PUSH0 DUP3 ADD PUSH0 SWAP1 SLOAD SWAP1 PUSH2 0x100 EXP SWAP1 DIV PUSH20 0xFFFFFFFFFFFFFFFFFFFFFFFFFFFFFFFFFFFFFFFF AND PUSH20 0xFFFFFFFFFFFFFFFFFFFFFFFFFFFFFFFFFFFFFFFF AND PUSH20 0xFFFFFFFFFFFFFFFFFFFFFFFFFFFFFFFFFFFFFFFF AND DUP2 MSTORE PUSH1 0x20 ADD PUSH1 0x1 DUP3 ADD PUSH0 SWAP1 SLOAD SWAP1 PUSH2 0x100 EXP SWAP1 DIV PUSH20 0xFFFFFFFFFFFFFFFFFFFFFFFFFFFFFFFFFFFFFFFF AND PUSH20 0xFFFFFFFFFFFFFFFFFFFFFFFFFFFFFFFFFFFFFFFF AND PUSH20 0xFFFFFFFFFFFFFFFFFFFFFFFFFFFFFFFFFFFFFFFF AND DUP2 MSTORE PUSH1 0x20 ADD PUSH1 0x2 DUP3 ADD SLOAD DUP2 MSTORE PUSH1 0x20 ADD PUSH1 0x3 DUP3 ADD SLOAD DUP2 MSTORE PUSH1 0x20 ADD PUSH1 0x4 DUP3 ADD PUSH0 SWAP1 SLOAD SWAP1 PUSH2 0x100 EXP SWAP1 DIV PUSH1 0xFF AND PUSH1 0x3 DUP2 GT ISZERO PUSH2 0x1964 JUMPI PUSH2 0x1963 PUSH2 0x458B JUMP JUMPDEST JUMPDEST PUSH1 0x3 DUP2 GT ISZERO PUSH2 0x1976 JUMPI PUSH2 0x1975 PUSH2 0x458B JUMP JUMPDEST JUMPDEST DUP2 MSTORE PUSH1 0x20 ADD PUSH1 0x4 DUP3 ADD PUSH1 0x1 SWAP1 SLOAD SWAP1 PUSH2 0x100 EXP SWAP1 DIV PUSH1 0xFF AND PUSH1 0x3 DUP2 GT ISZERO PUSH2 0x199F JUMPI PUSH2 0x199E PUSH2 0x458B JUMP JUMPDEST JUMPDEST PUSH1 0x3 DUP2 GT ISZERO PUSH2 0x19B1 JUMPI PUSH2 0x19B0 PUSH2 0x458B JUMP JUMPDEST JUMPDEST DUP2 MSTORE PUSH1 0x20 ADD PUSH1 0x5 DUP3 ADD DUP1 SLOAD PUSH2 0x19C5 SWAP1 PUSH2 0x4FCB JUMP JUMPDEST DUP1 PUSH1 0x1F ADD PUSH1 0x20 DUP1 SWAP2 DIV MUL PUSH1 0x20 ADD PUSH1 0x40 MLOAD SWAP1 DUP2 ADD PUSH1 0x40 MSTORE DUP1 SWAP3 SWAP2 SWAP1 DUP2 DUP2 MSTORE PUSH1 0x20 ADD DUP3 DUP1 SLOAD PUSH2 0x19F1 SWAP1 PUSH2 0x4FCB JUMP JUMPDEST DUP1 ISZERO PUSH2 0x1A3C JUMPI DUP1 PUSH1 0x1F LT PUSH2 0x1A13 JUMPI PUSH2 0x100 DUP1 DUP4 SLOAD DIV MUL DUP4 MSTORE SWAP2 PUSH1 0x20 ADD SWAP2 PUSH2 0x1A3C JUMP JUMPDEST DUP3 ADD SWAP2 SWAP1 PUSH0 MSTORE PUSH1 0x20 PUSH0 KECCAK256 SWAP1 JUMPDEST DUP2 SLOAD DUP2 MSTORE SWAP1 PUSH1 0x1 ADD SWAP1 PUSH1 0x20 ADD DUP1 DUP4 GT PUSH2 0x1A1F JUMPI DUP3 SWAP1 SUB PUSH1 0x1F AND DUP3 ADD SWAP2 JUMPDEST POP POP POP POP POP DUP2 MSTORE PUSH1 0x20 ADD PUSH1 0x6 DUP3 ADD SLOAD DUP2 MSTORE PUSH1 0x20 ADD PUSH1 0x7 DUP3 ADD SLOAD DUP2 MSTORE PUSH1 0x20 ADD PUSH1 0x8 DUP3 ADD DUP1 SLOAD PUSH2 0x1A69 SWAP1 PUSH2 0x4FCB JUMP JUMPDEST DUP1 PUSH1 0x1F ADD PUSH1 0x20 DUP1 SWAP2 DIV MUL PUSH1 0x20 ADD PUSH1 0x40 MLOAD SWAP1 DUP2 ADD PUSH1 0x40 MSTORE DUP1 SWAP3 SWAP2 SWAP1 DUP2 DUP2 MSTORE PUSH1 0x20 ADD DUP3 DUP1 SLOAD PUSH2 0x1A95 SWAP1 PUSH2 0x4FCB JUMP JUMPDEST DUP1 ISZERO PUSH2 0x1AE0 JUMPI DUP1 PUSH1 0x1F LT PUSH2 0x1AB7 JUMPI PUSH2 0x100 DUP1 DUP4 SLOAD DIV MUL DUP4 MSTORE SWAP2 PUSH1 0x20 ADD SWAP2 PUSH2 0x1AE0 JUMP JUMPDEST DUP3 ADD SWAP2 SWAP1 PUSH0 MSTORE PUSH1 0x20 PUSH0 KECCAK256 SWAP1 JUMPDEST DUP2 SLOAD DUP2 MSTORE SWAP1 PUSH1 0x1 ADD SWAP1 PUSH1 0x20 ADD DUP1 DUP4 GT PUSH2 0x1AC3 JUMPI DUP3 SWAP1 SUB PUSH1 0x1F AND DUP3 ADD SWAP2 JUMPDEST POP POP POP POP POP DUP2 MSTORE POP POP PUSH2 0x362C JUMP JUMPDEST DUP4 PUSH1 0x5 ADD SWAP1 DUP2 PUSH2 0x1AFE SWAP2 SWAP1 PUSH2 0x5192 JUMP JUMPDEST POP PUSH1 0x8 PUSH0 DUP5 PUSH0 ADD PUSH0 SWAP1 SLOAD SWAP1 PUSH2 0x100 EXP SWAP1 DIV PUSH20 0xFFFFFFFFFFFFFFFFFFFFFFFFFFFFFFFFFFFFFFFF AND PUSH20 0xFFFFFFFFFFFFFFFFFFFFFFFFFFFFFFFFFFFFFFFF AND PUSH20 0xFFFFFFFFFFFFFFFFFFFFFFFFFFFFFFFFFFFFFFFF AND DUP2 MSTORE PUSH1 0x20 ADD SWAP1 DUP2 MSTORE PUSH1 0x20 ADD PUSH0 KECCAK256 PUSH0 DUP2 SLOAD DUP1 SWAP3 SWAP2 SWAP1 PUSH2 0x1B6E SWAP1 PUSH2 0x554D JUMP JUMPDEST SWAP2 SWAP1 POP SSTORE POP PUSH2 0x1BED JUMP JUMPDEST PUSH1 0x2 DUP4 PUSH1 0x4 ADD PUSH1 0x1 PUSH2 0x100 EXP DUP2 SLOAD DUP2 PUSH1 0xFF MUL NOT AND SWAP1 DUP4 PUSH1 0x3 DUP2 GT ISZERO PUSH2 0x1BA0 JUMPI PUSH2 0x1B9F PUSH2 0x458B JUMP JUMPDEST JUMPDEST MUL OR SWAP1 SSTORE POP PUSH1 0x40 MLOAD DUP1 PUSH1 0x40 ADD PUSH1 0x40 MSTORE DUP1 PUSH1 0xC DUP2 MSTORE PUSH1 0x20 ADD PUSH32 0x5265747279206661696C65640000000000000000000000000000000000000000 DUP2 MSTORE POP DUP4 PUSH1 0x8 ADD SWAP1 DUP2 PUSH2 0x1BEB SWAP2 SWAP1 PUSH2 0x5192 JUMP JUMPDEST POP JUMPDEST DUP3 PUSH0 ADD PUSH0 SWAP1 SLOAD SWAP1 PUSH2 0x100 EXP SWAP1 DIV PUSH20 0xFFFFFFFFFFFFFFFFFFFFFFFFFFFFFFFFFFFFFFFF AND PUSH20 0xFFFFFFFFFFFFFFFFFFFFFFFFFFFFFFFFFFFFFFFF AND PUSH32 0x6D9B44E30A0DC7BD26B9A325EBBE8752E37CDD4FCC0C45444189C16BA7DA52BC DUP6 DUP6 PUSH1 0x7 ADD SLOAD PUSH1 0x40 MLOAD PUSH2 0x1C5B SWAP3 SWAP2 SWAP1 PUSH2 0x5574 JUMP JUMPDEST PUSH1 0x40 MLOAD DUP1 SWAP2 SUB SWAP1 LOG2 PUSH2 0x1EDE DUP4 PUSH1 0x40 MLOAD DUP1 PUSH2 0x140 ADD PUSH1 0x40 MSTORE SWAP1 DUP2 PUSH0 DUP3 ADD PUSH0 SWAP1 SLOAD SWAP1 PUSH2 0x100 EXP SWAP1 DIV PUSH20 0xFFFFFFFFFFFFFFFFFFFFFFFFFFFFFFFFFFFFFFFF AND PUSH20 0xFFFFFFFFFFFFFFFFFFFFFFFFFFFFFFFFFFFFFFFF AND PUSH20 0xFFFFFFFFFFFFFFFFFFFFFFFFFFFFFFFFFFFFFFFF AND DUP2 MSTORE PUSH1 0x20 ADD PUSH1 0x1 DUP3 ADD PUSH0 SWAP1 SLOAD SWAP1 PUSH2 0x100 EXP SWAP1 DIV PUSH20 0xFFFFFFFFFFFFFFFFFFFFFFFFFFFFFFFFFFFFFFFF AND PUSH20 0xFFFFFFFFFFFFFFFFFFFFFFFFFFFFFFFFFFFFFFFF AND PUSH20 0xFFFFFFFFFFFFFFFFFFFFFFFFFFFFFFFFFFFFFFFF AND DUP2 MSTORE PUSH1 0x20 ADD PUSH1 0x2 DUP3 ADD SLOAD DUP2 MSTORE PUSH1 0x20 ADD PUSH1 0x3 DUP3 ADD SLOAD DUP2 MSTORE PUSH1 0x20 ADD PUSH1 0x4 DUP3 ADD PUSH0 SWAP1 SLOAD SWAP1 PUSH2 0x100 EXP SWAP1 DIV PUSH1 0xFF AND PUSH1 0x3 DUP2 GT ISZERO PUSH2 0x1D54 JUMPI PUSH2 0x1D53 PUSH2 0x458B JUMP JUMPDEST JUMPDEST PUSH1 0x3 DUP2 GT ISZERO PUSH2 0x1D66 JUMPI PUSH2 0x1D65 PUSH2 0x458B JUMP JUMPDEST JUMPDEST DUP2 MSTORE PUSH1 0x20 ADD PUSH1 0x4 DUP3 ADD PUSH1 0x1 SWAP1 SLOAD SWAP1 PUSH2 0x100 EXP SWAP1 DIV PUSH1 0xFF AND PUSH1 0x3 DUP2 GT ISZERO PUSH2 0x1D8F JUMPI PUSH2 0x1D8E PUSH2 0x458B JUMP JUMPDEST JUMPDEST PUSH1 0x3 DUP2 GT ISZERO PUSH2 0x1DA1 JUMPI PUSH2 0x1DA0 PUSH2 0x458B JUMP JUMPDEST JUMPDEST DUP2 MSTORE PUSH1 0x20 ADD PUSH1 0x5 DUP3 ADD DUP1 SLOAD PUSH2 0x1DB5 SWAP1 PUSH2 0x4FCB JUMP JUMPDEST DUP1 PUSH1 0x1F ADD PUSH1 0x20 DUP1 SWAP2 DIV MUL PUSH1 0x20 ADD PUSH1 0x40 MLOAD SWAP1 DUP2 ADD PUSH1 0x40 MSTORE DUP1 SWAP3 SWAP2 SWAP1 DUP2 DUP2 MSTORE PUSH1 0x20 ADD DUP3 DUP1 SLOAD PUSH2 0x1DE1 SWAP1 PUSH2 0x4FCB JUMP JUMPDEST DUP1 ISZERO PUSH2 0x1E2C JUMPI DUP1 PUSH1 0x1F LT PUSH2 0x1E03 JUMPI PUSH2 0x100 DUP1 DUP4 SLOAD DIV MUL DUP4 MSTORE SWAP2 PUSH1 0x20 ADD SWAP2 PUSH2 0x1E2C JUMP JUMPDEST DUP3 ADD SWAP2 SWAP1 PUSH0 MSTORE PUSH1 0x20 PUSH0 KECCAK256 SWAP1 JUMPDEST DUP2 SLOAD DUP2 MSTORE SWAP1 PUSH1 0x1 ADD SWAP1 PUSH1 0x20 ADD DUP1 DUP4 GT PUSH2 0x1E0F JUMPI DUP3 SWAP1 SUB PUSH1 0x1F AND DUP3 ADD SWAP2 JUMPDEST POP POP POP POP POP DUP2 MSTORE PUSH1 0x20 ADD PUSH1 0x6 DUP3 ADD SLOAD DUP2 MSTORE PUSH1 0x20 ADD PUSH1 0x7 DUP3 ADD SLOAD DUP2 MSTORE PUSH1 0x20 ADD PUSH1 0x8 DUP3 ADD DUP1 SLOAD PUSH2 0x1E59 SWAP1 PUSH2 0x4FCB JUMP JUMPDEST DUP1 PUSH1 0x1F ADD PUSH1 0x20 DUP1 SWAP2 DIV MUL PUSH1 0x20 ADD PUSH1 0x40 MLOAD SWAP1 DUP2 ADD PUSH1 0x40 MSTORE DUP1 SWAP3 SWAP2 SWAP1 DUP2 DUP2 MSTORE PUSH1 0x20 ADD DUP3 DUP1 SLOAD PUSH2 0x1E85 SWAP1 PUSH2 0x4FCB JUMP JUMPDEST DUP1 ISZERO PUSH2 0x1ED0 JUMPI DUP1 PUSH1 0x1F LT PUSH2 0x1EA7 JUMPI PUSH2 0x100 DUP1 DUP4 SLOAD DIV MUL DUP4 MSTORE SWAP2 PUSH1 0x20 ADD SWAP2 PUSH2 0x1ED0 JUMP JUMPDEST DUP3 ADD SWAP2 SWAP1 PUSH0 MSTORE PUSH1 0x20 PUSH0 KECCAK256 SWAP1 JUMPDEST DUP2 SLOAD DUP2 MSTORE SWAP1 PUSH1 0x1 ADD SWAP1 PUSH1 0x20 ADD DUP1 DUP4 GT PUSH2 0x1EB3 JUMPI DUP3 SWAP1 SUB PUSH1 0x1F AND DUP3 ADD SWAP2 JUMPDEST POP POP POP POP POP DUP2 MSTORE POP POP PUSH2 0x36DB JUMP JUMPDEST POP POP POP POP JUMP JUMPDEST PUSH1 0x2 PUSH0 SWAP1 SLOAD SWAP1 PUSH2 0x100 EXP SWAP1 DIV PUSH20 0xFFFFFFFFFFFFFFFFFFFFFFFFFFFFFFFFFFFFFFFF AND PUSH20 0xFFFFFFFFFFFFFFFFFFFFFFFFFFFFFFFFFFFFFFFF AND PUSH4 0x91D14854 PUSH32 0xA49807205CE4D355092EF5A8A18F56E8913CF4A201FBE287825B095693C21775 CALLER PUSH1 0x40 MLOAD DUP4 PUSH4 0xFFFFFFFF AND PUSH1 0xE0 SHL DUP2 MSTORE PUSH1 0x4 ADD PUSH2 0x1F60 SWAP3 SWAP2 SWAP1 PUSH2 0x4B3F JUMP JUMPDEST PUSH1 0x20 PUSH1 0x40 MLOAD DUP1 DUP4 SUB DUP2 DUP7 GAS STATICCALL ISZERO DUP1 ISZERO PUSH2 0x1F7B JUMPI RETURNDATASIZE PUSH0 PUSH0 RETURNDATACOPY RETURNDATASIZE PUSH0 REVERT JUMPDEST POP POP POP POP PUSH1 0x40 MLOAD RETURNDATASIZE PUSH1 0x1F NOT PUSH1 0x1F DUP3 ADD AND DUP3 ADD DUP1 PUSH1 0x40 MSTORE POP DUP2 ADD SWAP1 PUSH2 0x1F9F SWAP2 SWAP1 PUSH2 0x4B90 JUMP JUMPDEST DUP1 PUSH2 0x2061 JUMPI POP PUSH1 0x2 PUSH0 SWAP1 SLOAD SWAP1 PUSH2 0x100 EXP SWAP1 DIV PUSH20 0xFFFFFFFFFFFFFFFFFFFFFFFFFFFFFFFFFFFFFFFF AND PUSH20 0xFFFFFFFFFFFFFFFFFFFFFFFFFFFFFFFFFFFFFFFF AND PUSH4 0x91D14854 PUSH32 0x940D6B1946FF1D2B5A9F1909219C3C81A370804B5BA0F91EC0828C99A2E6A681 CALLER PUSH1 0x40 MLOAD DUP4 PUSH4 0xFFFFFFFF AND PUSH1 0xE0 SHL DUP2 MSTORE PUSH1 0x4 ADD PUSH2 0x2021 SWAP3 SWAP2 SWAP1 PUSH2 0x4B3F JUMP JUMPDEST PUSH1 0x20 PUSH1 0x40 MLOAD DUP1 DUP4 SUB DUP2 DUP7 GAS STATICCALL ISZERO DUP1 ISZERO PUSH2 0x203C JUMPI RETURNDATASIZE PUSH0 PUSH0 RETURNDATACOPY RETURNDATASIZE PUSH0 REVERT JUMPDEST POP POP POP POP PUSH1 0x40 MLOAD RETURNDATASIZE PUSH1 0x1F NOT PUSH1 0x1F DUP3 ADD AND DUP3 ADD DUP1 PUSH1 0x40 MSTORE POP DUP2 ADD SWAP1 PUSH2 0x2060 SWAP2 SWAP1 PUSH2 0x4B90 JUMP JUMPDEST JUMPDEST PUSH2 0x20A0 JUMPI PUSH1 0x40 MLOAD PUSH32 0x8C379A000000000000000000000000000000000000000000000000000000000 DUP2 MSTORE PUSH1 0x4 ADD PUSH2 0x2097 SWAP1 PUSH2 0x4C05 JUMP JUMPDEST PUSH1 0x40 MLOAD DUP1 SWAP2 SUB SWAP1 REVERT JUMPDEST DUP1 PUSH1 0x9 DUP2 SWAP1 SSTORE POP POP JUMP JUMPDEST PUSH0 PUSH1 0x6 DUP1 SLOAD SWAP1 POP SWAP1 POP SWAP1 JUMP JUMPDEST PUSH32 0xA49807205CE4D355092EF5A8A18F56E8913CF4A201FBE287825B095693C21775 DUP2 JUMP JUMPDEST PUSH1 0x2 PUSH0 SWAP1 SLOAD SWAP1 PUSH2 0x100 EXP SWAP1 DIV PUSH20 0xFFFFFFFFFFFFFFFFFFFFFFFFFFFFFFFFFFFFFFFF AND PUSH20 0xFFFFFFFFFFFFFFFFFFFFFFFFFFFFFFFFFFFFFFFF AND CALLER PUSH20 0xFFFFFFFFFFFFFFFFFFFFFFFFFFFFFFFFFFFFFFFF AND EQ PUSH2 0x2169 JUMPI PUSH1 0x40 MLOAD PUSH32 0x8C379A000000000000000000000000000000000000000000000000000000000 DUP2 MSTORE PUSH1 0x4 ADD PUSH2 0x2160 SWAP1 PUSH2 0x52EE JUMP JUMPDEST PUSH1 0x40 MLOAD DUP1 SWAP2 SUB SWAP1 REVERT JUMPDEST DUP1 PUSH1 0x4 PUSH0 PUSH2 0x100 EXP DUP2 SLOAD DUP2 PUSH20 0xFFFFFFFFFFFFFFFFFFFFFFFFFFFFFFFFFFFFFFFF MUL NOT AND SWAP1 DUP4 PUSH20 0xFFFFFFFFFFFFFFFFFFFFFFFFFFFFFFFFFFFFFFFF AND MUL OR SWAP1 SSTORE POP POP JUMP JUMPDEST PUSH1 0x60 PUSH1 0x7 PUSH0 DUP4 PUSH20 0xFFFFFFFFFFFFFFFFFFFFFFFFFFFFFFFFFFFFFFFF AND PUSH20 0xFFFFFFFFFFFFFFFFFFFFFFFFFFFFFFFFFFFFFFFF AND DUP2 MSTORE PUSH1 0x20 ADD SWAP1 DUP2 MSTORE PUSH1 0x20 ADD PUSH0 KECCAK256 DUP1 SLOAD DUP1 PUSH1 0x20 MUL PUSH1 0x20 ADD PUSH1 0x40 MLOAD SWAP1 DUP2 ADD PUSH1 0x40 MSTORE DUP1 SWAP3 SWAP2 SWAP1 DUP2 DUP2 MSTORE PUSH1 0x20 ADD PUSH0 SWAP1 JUMPDEST DUP3 DUP3 LT ISZERO PUSH2 0x24A1 JUMPI DUP4 DUP3 SWAP1 PUSH0 MSTORE PUSH1 0x20 PUSH0 KECCAK256 SWAP1 PUSH1 0x9 MUL ADD PUSH1 0x40 MLOAD DUP1 PUSH2 0x140 ADD PUSH1 0x40 MSTORE SWAP1 DUP2 PUSH0 DUP3 ADD PUSH0 SWAP1 SLOAD SWAP1 PUSH2 0x100 EXP SWAP1 DIV PUSH20 0xFFFFFFFFFFFFFFFFFFFFFFFFFFFFFFFFFFFFFFFF AND PUSH20 0xFFFFFFFFFFFFFFFFFFFFFFFFFFFFFFFFFFFFFFFF AND PUSH20 0xFFFFFFFFFFFFFFFFFFFFFFFFFFFFFFFFFFFFFFFF AND DUP2 MSTORE PUSH1 0x20 ADD PUSH1 0x1 DUP3 ADD PUSH0 SWAP1 SLOAD SWAP1 PUSH2 0x100 EXP SWAP1 DIV PUSH20 0xFFFFFFFFFFFFFFFFFFFFFFFFFFFFFFFFFFFFFFFF AND PUSH20 0xFFFFFFFFFFFFFFFFFFFFFFFFFFFFFFFFFFFFFFFF AND PUSH20 0xFFFFFFFFFFFFFFFFFFFFFFFFFFFFFFFFFFFFFFFF AND DUP2 MSTORE PUSH1 0x20 ADD PUSH1 0x2 DUP3 ADD SLOAD DUP2 MSTORE PUSH1 0x20 ADD PUSH1 0x3 DUP3 ADD SLOAD DUP2 MSTORE PUSH1 0x20 ADD PUSH1 0x4 DUP3 ADD PUSH0 SWAP1 SLOAD SWAP1 PUSH2 0x100 EXP SWAP1 DIV PUSH1 0xFF AND PUSH1 0x3 DUP2 GT ISZERO PUSH2 0x230D JUMPI PUSH2 0x230C PUSH2 0x458B JUMP JUMPDEST JUMPDEST PUSH1 0x3 DUP2 GT ISZERO PUSH2 0x231F JUMPI PUSH2 0x231E PUSH2 0x458B JUMP JUMPDEST JUMPDEST DUP2 MSTORE PUSH1 0x20 ADD PUSH1 0x4 DUP3 ADD PUSH1 0x1 SWAP1 SLOAD SWAP1 PUSH2 0x100 EXP SWAP1 DIV PUSH1 0xFF AND PUSH1 0x3 DUP2 GT ISZERO PUSH2 0x2348 JUMPI PUSH2 0x2347 PUSH2 0x458B JUMP JUMPDEST JUMPDEST PUSH1 0x3 DUP2 GT ISZERO PUSH2 0x235A JUMPI PUSH2 0x2359 PUSH2 0x458B JUMP JUMPDEST JUMPDEST DUP2 MSTORE PUSH1 0x20 ADD PUSH1 0x5 DUP3 ADD DUP1 SLOAD PUSH2 0x236E SWAP1 PUSH2 0x4FCB JUMP JUMPDEST DUP1 PUSH1 0x1F ADD PUSH1 0x20 DUP1 SWAP2 DIV MUL PUSH1 0x20 ADD PUSH1 0x40 MLOAD SWAP1 DUP2 ADD PUSH1 0x40 MSTORE DUP1 SWAP3 SWAP2 SWAP1 DUP2 DUP2 MSTORE PUSH1 0x20 ADD DUP3 DUP1 SLOAD PUSH2 0x239A SWAP1 PUSH2 0x4FCB JUMP JUMPDEST DUP1 ISZERO PUSH2 0x23E5 JUMPI DUP1 PUSH1 0x1F LT PUSH2 0x23BC JUMPI PUSH2 0x100 DUP1 DUP4 SLOAD DIV MUL DUP4 MSTORE SWAP2 PUSH1 0x20 ADD SWAP2 PUSH2 0x23E5 JUMP JUMPDEST DUP3 ADD SWAP2 SWAP1 PUSH0 MSTORE PUSH1 0x20 PUSH0 KECCAK256 SWAP1 JUMPDEST DUP2 SLOAD DUP2 MSTORE SWAP1 PUSH1 0x1 ADD SWAP1 PUSH1 0x20 ADD DUP1 DUP4 GT PUSH2 0x23C8 JUMPI DUP3 SWAP1 SUB PUSH1 0x1F AND DUP3 ADD SWAP2 JUMPDEST POP POP POP POP POP DUP2 MSTORE PUSH1 0x20 ADD PUSH1 0x6 DUP3 ADD SLOAD DUP2 MSTORE PUSH1 0x20 ADD PUSH1 0x7 DUP3 ADD SLOAD DUP2 MSTORE PUSH1 0x20 ADD PUSH1 0x8 DUP3 ADD DUP1 SLOAD PUSH2 0x2412 SWAP1 PUSH2 0x4FCB JUMP JUMPDEST DUP1 PUSH1 0x1F ADD PUSH1 0x20 DUP1 SWAP2 DIV MUL PUSH1 0x20 ADD PUSH1 0x40 MLOAD SWAP1 DUP2 ADD PUSH1 0x40 MSTORE DUP1 SWAP3 SWAP2 SWAP1 DUP2 DUP2 MSTORE PUSH1 0x20 ADD DUP3 DUP1 SLOAD PUSH2 0x243E SWAP1 PUSH2 0x4FCB JUMP JUMPDEST DUP1 ISZERO PUSH2 0x2489 JUMPI DUP1 PUSH1 0x1F LT PUSH2 0x2460 JUMPI PUSH2 0x100 DUP1 DUP4 SLOAD DIV MUL DUP4 MSTORE SWAP2 PUSH1 0x20 ADD SWAP2 PUSH2 0x2489 JUMP JUMPDEST DUP3 ADD SWAP2 SWAP1 PUSH0 MSTORE PUSH1 0x20 PUSH0 KECCAK256 SWAP1 JUMPDEST DUP2 SLOAD DUP2 MSTORE SWAP1 PUSH1 0x1 ADD SWAP1 PUSH1 0x20 ADD DUP1 DUP4 GT PUSH2 0x246C JUMPI DUP3 SWAP1 SUB PUSH1 0x1F AND DUP3 ADD SWAP2 JUMPDEST POP POP POP POP POP DUP2 MSTORE POP POP DUP2 MSTORE PUSH1 0x20 ADD SWAP1 PUSH1 0x1 ADD SWAP1 PUSH2 0x220A JUMP JUMPDEST POP POP POP POP SWAP1 POP SWAP2 SWAP1 POP JUMP JUMPDEST PUSH1 0x7 PUSH1 0x20 MSTORE DUP2 PUSH0 MSTORE PUSH1 0x40 PUSH0 KECCAK256 DUP2 DUP2 SLOAD DUP2 LT PUSH2 0x24C5 JUMPI PUSH0 DUP1 REVERT JUMPDEST SWAP1 PUSH0 MSTORE PUSH1 0x20 PUSH0 KECCAK256 SWAP1 PUSH1 0x9 MUL ADD PUSH0 SWAP2 POP SWAP2 POP POP DUP1 PUSH0 ADD PUSH0 SWAP1 SLOAD SWAP1 PUSH2 0x100 EXP SWAP1 DIV PUSH20 0xFFFFFFFFFFFFFFFFFFFFFFFFFFFFFFFFFFFFFFFF AND SWAP1 DUP1 PUSH1 0x1 ADD PUSH0 SWAP1 SLOAD SWAP1 PUSH2 0x100 EXP SWAP1 DIV PUSH20 0xFFFFFFFFFFFFFFFFFFFFFFFFFFFFFFFFFFFFFFFF AND SWAP1 DUP1 PUSH1 0x2 ADD SLOAD SWAP1 DUP1 PUSH1 0x3 ADD SLOAD SWAP1 DUP1 PUSH1 0x4 ADD PUSH0 SWAP1 SLOAD SWAP1 PUSH2 0x100 EXP SWAP1 DIV PUSH1 0xFF AND SWAP1 DUP1 PUSH1 0x4 ADD PUSH1 0x1 SWAP1 SLOAD SWAP1 PUSH2 0x100 EXP SWAP1 DIV PUSH1 0xFF AND SWAP1 DUP1 PUSH1 0x5 ADD DUP1 SLOAD PUSH2 0x2560 SWAP1 PUSH2 0x4FCB JUMP JUMPDEST DUP1 PUSH1 0x1F ADD PUSH1 0x20 DUP1 SWAP2 DIV MUL PUSH1 0x20 ADD PUSH1 0x40 MLOAD SWAP1 DUP2 ADD PUSH1 0x40 MSTORE DUP1 SWAP3 SWAP2 SWAP1 DUP2 DUP2 MSTORE PUSH1 0x20 ADD DUP3 DUP1 SLOAD PUSH2 0x258C SWAP1 PUSH2 0x4FCB JUMP JUMPDEST DUP1 ISZERO PUSH2 0x25D7 JUMPI DUP1 PUSH1 0x1F LT PUSH2 0x25AE JUMPI PUSH2 0x100 DUP1 DUP4 SLOAD DIV MUL DUP4 MSTORE SWAP2 PUSH1 0x20 ADD SWAP2 PUSH2 0x25D7 JUMP JUMPDEST DUP3 ADD SWAP2 SWAP1 PUSH0 MSTORE PUSH1 0x20 PUSH0 KECCAK256 SWAP1 JUMPDEST DUP2 SLOAD DUP2 MSTORE SWAP1 PUSH1 0x1 ADD SWAP1 PUSH1 0x20 ADD DUP1 DUP4 GT PUSH2 0x25BA JUMPI DUP3 SWAP1 SUB PUSH1 0x1F AND DUP3 ADD SWAP2 JUMPDEST POP POP POP POP POP SWAP1 DUP1 PUSH1 0x6 ADD SLOAD SWAP1 DUP1 PUSH1 0x7 ADD SLOAD SWAP1 DUP1 PUSH1 0x8 ADD DUP1 SLOAD PUSH2 0x25F8 SWAP1 PUSH2 0x4FCB JUMP JUMPDEST DUP1 PUSH1 0x1F ADD PUSH1 0x20 DUP1 SWAP2 DIV MUL PUSH1 0x20 ADD PUSH1 0x40 MLOAD SWAP1 DUP2 ADD PUSH1 0x40 MSTORE DUP1 SWAP3 SWAP2 SWAP1 DUP2 DUP2 MSTORE PUSH1 0x20 ADD DUP3 DUP1 SLOAD PUSH2 0x2624 SWAP1 PUSH2 0x4FCB JUMP JUMPDEST DUP1 ISZERO PUSH2 0x266F JUMPI DUP1 PUSH1 0x1F LT PUSH2 0x2646 JUMPI PUSH2 0x100 DUP1 DUP4 SLOAD DIV MUL DUP4 MSTORE SWAP2 PUSH1 0x20 ADD SWAP2 PUSH2 0x266F JUMP JUMPDEST DUP3 ADD SWAP2 SWAP1 PUSH0 MSTORE PUSH1 0x20 PUSH0 KECCAK256 SWAP1 JUMPDEST DUP2 SLOAD DUP2 MSTORE SWAP1 PUSH1 0x1 ADD SWAP1 PUSH1 0x20 ADD DUP1 DUP4 GT PUSH2 0x2652 JUMPI DUP3 SWAP1 SUB PUSH1 0x1F AND DUP3 ADD SWAP2 JUMPDEST POP POP POP POP POP SWAP1 POP DUP11 JUMP JUMPDEST PUSH1 0x2 PUSH0 SWAP1 SLOAD SWAP1 PUSH2 0x100 EXP SWAP1 DIV PUSH20 0xFFFFFFFFFFFFFFFFFFFFFFFFFFFFFFFFFFFFFFFF AND PUSH20 0xFFFFFFFFFFFFFFFFFFFFFFFFFFFFFFFFFFFFFFFF AND PUSH4 0x91D14854 PUSH32 0xA49807205CE4D355092EF5A8A18F56E8913CF4A201FBE287825B095693C21775 CALLER PUSH1 0x40 MLOAD DUP4 PUSH4 0xFFFFFFFF AND PUSH1 0xE0 SHL DUP2 MSTORE PUSH1 0x4 ADD PUSH2 0x26F5 SWAP3 SWAP2 SWAP1 PUSH2 0x4B3F JUMP JUMPDEST PUSH1 0x20 PUSH1 0x40 MLOAD DUP1 DUP4 SUB DUP2 DUP7 GAS STATICCALL ISZERO DUP1 ISZERO PUSH2 0x2710 JUMPI RETURNDATASIZE PUSH0 PUSH0 RETURNDATACOPY RETURNDATASIZE PUSH0 REVERT JUMPDEST POP POP POP POP PUSH1 0x40 MLOAD RETURNDATASIZE PUSH1 0x1F NOT PUSH1 0x1F DUP3 ADD AND DUP3 ADD DUP1 PUSH1 0x40 MSTORE POP DUP2 ADD SWAP1 PUSH2 0x2734 SWAP2 SWAP1 PUSH2 0x4B90 JUMP JUMPDEST DUP1 PUSH2 0x27F6 JUMPI POP PUSH1 0x2 PUSH0 SWAP1 SLOAD SWAP1 PUSH2 0x100 EXP SWAP1 DIV PUSH20 0xFFFFFFFFFFFFFFFFFFFFFFFFFFFFFFFFFFFFFFFF AND PUSH20 0xFFFFFFFFFFFFFFFFFFFFFFFFFFFFFFFFFFFFFFFF AND PUSH4 0x91D14854 PUSH32 0x940D6B1946FF1D2B5A9F1909219C3C81A370804B5BA0F91EC0828C99A2E6A681 CALLER PUSH1 0x40 MLOAD DUP4 PUSH4 0xFFFFFFFF AND PUSH1 0xE0 SHL DUP2 MSTORE PUSH1 0x4 ADD PUSH2 0x27B6 SWAP3 SWAP2 SWAP1 PUSH2 0x4B3F JUMP JUMPDEST PUSH1 0x20 PUSH1 0x40 MLOAD DUP1 DUP4 SUB DUP2 DUP7 GAS STATICCALL ISZERO DUP1 ISZERO PUSH2 0x27D1 JUMPI RETURNDATASIZE PUSH0 PUSH0 RETURNDATACOPY RETURNDATASIZE PUSH0 REVERT JUMPDEST POP POP POP POP PUSH1 0x40 MLOAD RETURNDATASIZE PUSH1 0x1F NOT PUSH1 0x1F DUP3 ADD AND DUP3 ADD DUP1 PUSH1 0x40 MSTORE POP DUP2 ADD SWAP1 PUSH2 0x27F5 SWAP2 SWAP1 PUSH2 0x4B90 JUMP JUMPDEST JUMPDEST PUSH2 0x2835 JUMPI PUSH1 0x40 MLOAD PUSH32 0x8C379A000000000000000000000000000000000000000000000000000000000 DUP2 MSTORE PUSH1 0x4 ADD PUSH2 0x282C SWAP1 PUSH2 0x4C05 JUMP JUMPDEST PUSH1 0x40 MLOAD DUP1 SWAP2 SUB SWAP1 REVERT JUMPDEST DUP1 PUSH1 0xA DUP2 SWAP1 SSTORE POP POP JUMP JUMPDEST PUSH0 PUSH0 PUSH0 DUP5 DUP2 MSTORE PUSH1 0x20 ADD SWAP1 DUP2 MSTORE PUSH1 0x20 ADD PUSH0 KECCAK256 PUSH0 ADD PUSH0 DUP4 PUSH20 0xFFFFFFFFFFFFFFFFFFFFFFFFFFFFFFFFFFFFFFFF AND PUSH20 0xFFFFFFFFFFFFFFFFFFFFFFFFFFFFFFFFFFFFFFFF AND DUP2 MSTORE PUSH1 0x20 ADD SWAP1 DUP2 MSTORE PUSH1 0x20 ADD PUSH0 KECCAK256 PUSH0 SWAP1 SLOAD SWAP1 PUSH2 0x100 EXP SWAP1 DIV PUSH1 0xFF AND SWAP1 POP SWAP3 SWAP2 POP POP JUMP JUMPDEST PUSH0 PUSH1 0x8 PUSH0 DUP4 PUSH20 0xFFFFFFFFFFFFFFFFFFFFFFFFFFFFFFFFFFFFFFFF AND PUSH20 0xFFFFFFFFFFFFFFFFFFFFFFFFFFFFFFFFFFFFFFFF AND DUP2 MSTORE PUSH1 0x20 ADD SWAP1 DUP2 MSTORE PUSH1 0x20 ADD PUSH0 KECCAK256 SLOAD SWAP1 POP SWAP2 SWAP1 POP JUMP JUMPDEST PUSH1 0x2 PUSH0 SWAP1 SLOAD SWAP1 PUSH2 0x100 EXP SWAP1 DIV PUSH20 0xFFFFFFFFFFFFFFFFFFFFFFFFFFFFFFFFFFFFFFFF AND DUP2 JUMP JUMPDEST PUSH0 PUSH0 SHL DUP2 JUMP JUMPDEST PUSH1 0x6 DUP2 DUP2 SLOAD DUP2 LT PUSH2 0x2922 JUMPI PUSH0 DUP1 REVERT JUMPDEST SWAP1 PUSH0 MSTORE PUSH1 0x20 PUSH0 KECCAK256 SWAP1 PUSH1 0x9 MUL ADD PUSH0 SWAP2 POP SWAP1 POP DUP1 PUSH0 ADD PUSH0 SWAP1 SLOAD SWAP1 PUSH2 0x100 EXP SWAP1 DIV PUSH20 0xFFFFFFFFFFFFFFFFFFFFFFFFFFFFFFFFFFFFFFFF AND SWAP1 DUP1 PUSH1 0x1 ADD PUSH0 SWAP1 SLOAD SWAP1 PUSH2 0x100 EXP SWAP1 DIV PUSH20 0xFFFFFFFFFFFFFFFFFFFFFFFFFFFFFFFFFFFFFFFF AND SWAP1 DUP1 PUSH1 0x2 ADD SLOAD SWAP1 DUP1 PUSH1 0x3 ADD SLOAD SWAP1 DUP1 PUSH1 0x4 ADD PUSH0 SWAP1 SLOAD SWAP1 PUSH2 0x100 EXP SWAP1 DIV PUSH1 0xFF AND SWAP1 DUP1 PUSH1 0x4 ADD PUSH1 0x1 SWAP1 SLOAD SWAP1 PUSH2 0x100 EXP SWAP1 DIV PUSH1 0xFF AND SWAP1 DUP1 PUSH1 0x5 ADD DUP1 SLOAD PUSH2 0x29BC SWAP1 PUSH2 0x4FCB JUMP JUMPDEST DUP1 PUSH1 0x1F ADD PUSH1 0x20 DUP1 SWAP2 DIV MUL PUSH1 0x20 ADD PUSH1 0x40 MLOAD SWAP1 DUP2 ADD PUSH1 0x40 MSTORE DUP1 SWAP3 SWAP2 SWAP1 DUP2 DUP2 MSTORE PUSH1 0x20 ADD DUP3 DUP1 SLOAD PUSH2 0x29E8 SWAP1 PUSH2 0x4FCB JUMP JUMPDEST DUP1 ISZERO PUSH2 0x2A33 JUMPI DUP1 PUSH1 0x1F LT PUSH2 0x2A0A JUMPI PUSH2 0x100 DUP1 DUP4 SLOAD DIV MUL DUP4 MSTORE SWAP2 PUSH1 0x20 ADD SWAP2 PUSH2 0x2A33 JUMP JUMPDEST DUP3 ADD SWAP2 SWAP1 PUSH0 MSTORE PUSH1 0x20 PUSH0 KECCAK256 SWAP1 JUMPDEST DUP2 SLOAD DUP2 MSTORE SWAP1 PUSH1 0x1 ADD SWAP1 PUSH1 0x20 ADD DUP1 DUP4 GT PUSH2 0x2A16 JUMPI DUP3 SWAP1 SUB PUSH1 0x1F AND DUP3 ADD SWAP2 JUMPDEST POP POP POP POP POP SWAP1 DUP1 PUSH1 0x6 ADD SLOAD SWAP1 DUP1 PUSH1 0x7 ADD SLOAD SWAP1 DUP1 PUSH1 0x8 ADD DUP1 SLOAD PUSH2 0x2A54 SWAP1 PUSH2 0x4FCB JUMP JUMPDEST DUP1 PUSH1 0x1F ADD PUSH1 0x20 DUP1 SWAP2 DIV MUL PUSH1 0x20 ADD PUSH1 0x40 MLOAD SWAP1 DUP2 ADD PUSH1 0x40 MSTORE DUP1 SWAP3 SWAP2 SWAP1 DUP2 DUP2 MSTORE PUSH1 0x20 ADD DUP3 DUP1 SLOAD PUSH2 0x2A80 SWAP1 PUSH2 0x4FCB JUMP JUMPDEST DUP1 ISZERO PUSH2 0x2ACB JUMPI DUP1 PUSH1 0x1F LT PUSH2 0x2AA2 JUMPI PUSH2 0x100 DUP1 DUP4 SLOAD DIV MUL DUP4 MSTORE SWAP2 PUSH1 0x20 ADD SWAP2 PUSH2 0x2ACB JUMP JUMPDEST DUP3 ADD SWAP2 SWAP1 PUSH0 MSTORE PUSH1 0x20 PUSH0 KECCAK256 SWAP1 JUMPDEST DUP2 SLOAD DUP2 MSTORE SWAP1 PUSH1 0x1 ADD SWAP1 PUSH1 0x20 ADD DUP1 DUP4 GT PUSH2 0x2AAE JUMPI DUP3 SWAP1 SUB PUSH1 0x1F AND DUP3 ADD SWAP2 JUMPDEST POP POP POP POP POP SWAP1 POP DUP11 JUMP JUMPDEST PUSH1 0x2 PUSH0 SWAP1 SLOAD SWAP1 PUSH2 0x100 EXP SWAP1 DIV PUSH20 0xFFFFFFFFFFFFFFFFFFFFFFFFFFFFFFFFFFFFFFFF AND PUSH20 0xFFFFFFFFFFFFFFFFFFFFFFFFFFFFFFFFFFFFFFFF AND CALLER PUSH20 0xFFFFFFFFFFFFFFFFFFFFFFFFFFFFFFFFFFFFFFFF AND EQ PUSH2 0x2B64 JUMPI PUSH1 0x40 MLOAD PUSH32 0x8C379A000000000000000000000000000000000000000000000000000000000 DUP2 MSTORE PUSH1 0x4 ADD PUSH2 0x2B5B SWAP1 PUSH2 0x52EE JUMP JUMPDEST PUSH1 0x40 MLOAD DUP1 SWAP2 SUB SWAP1 REVERT JUMPDEST PUSH2 0x2B6C PUSH2 0x352C JUMP JUMPDEST PUSH0 PUSH1 0x3 PUSH0 SWAP1 SLOAD SWAP1 PUSH2 0x100 EXP SWAP1 DIV PUSH20 0xFFFFFFFFFFFFFFFFFFFFFFFFFFFFFFFFFFFFFFFF AND PUSH20 0xFFFFFFFFFFFFFFFFFFFFFFFFFFFFFFFFFFFFFFFF AND PUSH4 0x5DD38BFA PUSH1 0x40 MLOAD DUP2 PUSH4 0xFFFFFFFF AND PUSH1 0xE0 SHL DUP2 MSTORE PUSH1 0x4 ADD PUSH0 PUSH1 0x40 MLOAD DUP1 DUP4 SUB DUP2 DUP7 GAS STATICCALL ISZERO DUP1 ISZERO PUSH2 0x2BD6 JUMPI RETURNDATASIZE PUSH0 PUSH0 RETURNDATACOPY RETURNDATASIZE PUSH0 REVERT JUMPDEST POP POP POP POP PUSH1 0x40 MLOAD RETURNDATASIZE PUSH0 DUP3 RETURNDATACOPY RETURNDATASIZE PUSH1 0x1F NOT PUSH1 0x1F DUP3 ADD AND DUP3 ADD DUP1 PUSH1 0x40 MSTORE POP DUP2 ADD SWAP1 PUSH2 0x2BFE SWAP2 SWAP1 PUSH2 0x5663 JUMP JUMPDEST SWAP1 POP PUSH0 PUSH0 SWAP1 POP PUSH0 PUSH0 SWAP1 POP PUSH0 PUSH0 SWAP1 POP JUMPDEST DUP4 MLOAD DUP2 LT ISZERO PUSH2 0x2E58 JUMPI PUSH0 DUP5 DUP3 DUP2 MLOAD DUP2 LT PUSH2 0x2C2A JUMPI PUSH2 0x2C29 PUSH2 0x5374 JUMP JUMPDEST JUMPDEST PUSH1 0x20 MUL PUSH1 0x20 ADD ADD MLOAD SWAP1 POP PUSH1 0x3 PUSH0 SWAP1 SLOAD SWAP1 PUSH2 0x100 EXP SWAP1 DIV PUSH20 0xFFFFFFFFFFFFFFFFFFFFFFFFFFFFFFFFFFFFFFFF AND PUSH20 0xFFFFFFFFFFFFFFFFFFFFFFFFFFFFFFFFFFFFFFFF AND PUSH4 0x97AD7E02 DUP3 PUSH1 0x40 MLOAD DUP3 PUSH4 0xFFFFFFFF AND PUSH1 0xE0 SHL DUP2 MSTORE PUSH1 0x4 ADD PUSH2 0x2C8E SWAP2 SWAP1 PUSH2 0x499F JUMP JUMPDEST PUSH1 0x20 PUSH1 0x40 MLOAD DUP1 DUP4 SUB DUP2 DUP7 GAS STATICCALL ISZERO DUP1 ISZERO PUSH2 0x2CA9 JUMPI RETURNDATASIZE PUSH0 PUSH0 RETURNDATACOPY RETURNDATASIZE PUSH0 REVERT JUMPDEST POP POP POP POP PUSH1 0x40 MLOAD RETURNDATASIZE PUSH1 0x1F NOT PUSH1 0x1F DUP3 ADD AND DUP3 ADD DUP1 PUSH1 0x40 MSTORE POP DUP2 ADD SWAP1 PUSH2 0x2CCD SWAP2 SWAP1 PUSH2 0x4B90 JUMP JUMPDEST ISZERO PUSH2 0x2E4A JUMPI PUSH0 PUSH1 0x3 PUSH0 SWAP1 SLOAD SWAP1 PUSH2 0x100 EXP SWAP1 DIV PUSH20 0xFFFFFFFFFFFFFFFFFFFFFFFFFFFFFFFFFFFFFFFF AND PUSH20 0xFFFFFFFFFFFFFFFFFFFFFFFFFFFFFFFFFFFFFFFF AND PUSH4 0x32648E09 DUP4 PUSH1 0x40 MLOAD DUP3 PUSH4 0xFFFFFFFF AND PUSH1 0xE0 SHL DUP2 MSTORE PUSH1 0x4 ADD PUSH2 0x2D2D SWAP2 SWAP1 PUSH2 0x499F JUMP JUMPDEST PUSH2 0x180 PUSH1 0x40 MLOAD DUP1 DUP4 SUB DUP2 DUP7 GAS STATICCALL ISZERO DUP1 ISZERO PUSH2 0x2D49 JUMPI RETURNDATASIZE PUSH0 PUSH0 RETURNDATACOPY RETURNDATASIZE PUSH0 REVERT JUMPDEST POP POP POP POP PUSH1 0x40 MLOAD RETURNDATASIZE PUSH1 0x1F NOT PUSH1 0x1F DUP3 ADD AND DUP3 ADD DUP1 PUSH1 0x40 MSTORE POP DUP2 ADD SWAP1 PUSH2 0x2D6D SWAP2 SWAP1 PUSH2 0x4E3C JUMP JUMPDEST SWAP1 POP PUSH0 PUSH1 0x3 PUSH0 SWAP1 SLOAD SWAP1 PUSH2 0x100 EXP SWAP1 DIV PUSH20 0xFFFFFFFFFFFFFFFFFFFFFFFFFFFFFFFFFFFFFFFF AND PUSH20 0xFFFFFFFFFFFFFFFFFFFFFFFFFFFFFFFFFFFFFFFF AND PUSH4 0x774B2535 DUP5 PUSH1 0x40 MLOAD DUP3 PUSH4 0xFFFFFFFF AND PUSH1 0xE0 SHL DUP2 MSTORE PUSH1 0x4 ADD PUSH2 0x2DCA SWAP2 SWAP1 PUSH2 0x499F JUMP JUMPDEST PUSH1 0x20 PUSH1 0x40 MLOAD DUP1 DUP4 SUB DUP2 DUP7 GAS STATICCALL ISZERO DUP1 ISZERO PUSH2 0x2DE5 JUMPI RETURNDATASIZE PUSH0 PUSH0 RETURNDATACOPY RETURNDATASIZE PUSH0 REVERT JUMPDEST POP POP POP POP PUSH1 0x40 MLOAD RETURNDATASIZE PUSH1 0x1F NOT PUSH1 0x1F DUP3 ADD AND DUP3 ADD DUP1 PUSH1 0x40 MSTORE POP DUP2 ADD SWAP1 PUSH2 0x2E09 SWAP2 SWAP1 PUSH2 0x56AA JUMP JUMPDEST SWAP1 POP PUSH0 PUSH2 0x2E1C DUP5 DUP5 PUSH1 0x60 ADD MLOAD DUP5 PUSH0 PUSH2 0x389E JUMP JUMPDEST SWAP1 POP DUP1 ISZERO PUSH2 0x2E37 JUMPI DUP7 DUP1 PUSH2 0x2E2F SWAP1 PUSH2 0x4F57 JUMP JUMPDEST SWAP8 POP POP PUSH2 0x2E46 JUMP JUMPDEST DUP6 DUP1 PUSH2 0x2E42 SWAP1 PUSH2 0x4F57 JUMP JUMPDEST SWAP7 POP POP JUMPDEST POP POP POP JUMPDEST POP DUP1 DUP1 PUSH1 0x1 ADD SWAP2 POP POP PUSH2 0x2C0D JUMP JUMPDEST POP PUSH1 0x5 PUSH0 SWAP1 SLOAD SWAP1 PUSH2 0x100 EXP SWAP1 DIV PUSH20 0xFFFFFFFFFFFFFFFFFFFFFFFFFFFFFFFFFFFFFFFF AND PUSH20 0xFFFFFFFFFFFFFFFFFFFFFFFFFFFFFFFFFFFFFFFF AND PUSH4 0x44C83B97 CALLER DUP5 DUP5 TIMESTAMP PUSH1 0x40 MLOAD PUSH1 0x20 ADD PUSH2 0x2EAC SWAP4 SWAP3 SWAP2 SWAP1 PUSH2 0x56D5 JUMP JUMPDEST PUSH1 0x40 MLOAD PUSH1 0x20 DUP2 DUP4 SUB SUB DUP2 MSTORE SWAP1 PUSH1 0x40 MSTORE PUSH1 0x40 MLOAD DUP4 PUSH4 0xFFFFFFFF AND PUSH1 0xE0 SHL DUP2 MSTORE PUSH1 0x4 ADD PUSH2 0x2ED8 SWAP3 SWAP2 SWAP1 PUSH2 0x57A6 JUMP JUMPDEST PUSH0 PUSH1 0x40 MLOAD DUP1 DUP4 SUB DUP2 PUSH0 DUP8 DUP1 EXTCODESIZE ISZERO DUP1 ISZERO PUSH2 0x2EEF JUMPI PUSH0 PUSH0 REVERT JUMPDEST POP GAS CALL ISZERO DUP1 ISZERO PUSH2 0x2F01 JUMPI RETURNDATASIZE PUSH0 PUSH0 RETURNDATACOPY RETURNDATASIZE PUSH0 REVERT JUMPDEST POP POP POP POP POP POP POP PUSH2 0x2F10 PUSH2 0x37A5 JUMP JUMPDEST JUMP JUMPDEST PUSH1 0x2 PUSH0 SWAP1 SLOAD SWAP1 PUSH2 0x100 EXP SWAP1 DIV PUSH20 0xFFFFFFFFFFFFFFFFFFFFFFFFFFFFFFFFFFFFFFFF AND PUSH20 0xFFFFFFFFFFFFFFFFFFFFFFFFFFFFFFFFFFFFFFFF AND CALLER PUSH20 0xFFFFFFFFFFFFFFFFFFFFFFFFFFFFFFFFFFFFFFFF AND EQ PUSH2 0x2FA1 JUMPI PUSH1 0x40 MLOAD PUSH32 0x8C379A000000000000000000000000000000000000000000000000000000000 DUP2 MSTORE PUSH1 0x4 ADD PUSH2 0x2F98 SWAP1 PUSH2 0x52EE JUMP JUMPDEST PUSH1 0x40 MLOAD DUP1 SWAP2 SUB SWAP1 REVERT JUMPDEST DUP1 PUSH1 0x5 PUSH0 PUSH2 0x100 EXP DUP2 SLOAD DUP2 PUSH20 0xFFFFFFFFFFFFFFFFFFFFFFFFFFFFFFFFFFFFFFFF MUL NOT AND SWAP1 DUP4 PUSH20 0xFFFFFFFFFFFFFFFFFFFFFFFFFFFFFFFFFFFFFFFF AND MUL OR SWAP1 SSTORE POP POP JUMP JUMPDEST PUSH1 0x9 SLOAD DUP2 JUMP JUMPDEST PUSH2 0x2FF2 PUSH2 0x406B JUMP JUMPDEST PUSH1 0x6 DUP1 SLOAD SWAP1 POP DUP3 LT PUSH2 0x3039 JUMPI PUSH1 0x40 MLOAD PUSH32 0x8C379A000000000000000000000000000000000000000000000000000000000 DUP2 MSTORE PUSH1 0x4 ADD PUSH2 0x3030 SWAP1 PUSH2 0x5356 JUMP JUMPDEST PUSH1 0x40 MLOAD DUP1 SWAP2 SUB SWAP1 REVERT JUMPDEST PUSH1 0x6 DUP3 DUP2 SLOAD DUP2 LT PUSH2 0x304D JUMPI PUSH2 0x304C PUSH2 0x5374 JUMP JUMPDEST JUMPDEST SWAP1 PUSH0 MSTORE PUSH1 0x20 PUSH0 KECCAK256 SWAP1 PUSH1 0x9 MUL ADD PUSH1 0x40 MLOAD DUP1 PUSH2 0x140 ADD PUSH1 0x40 MSTORE SWAP1 DUP2 PUSH0 DUP3 ADD PUSH0 SWAP1 SLOAD SWAP1 PUSH2 0x100 EXP SWAP1 DIV PUSH20 0xFFFFFFFFFFFFFFFFFFFFFFFFFFFFFFFFFFFFFFFF AND PUSH20 0xFFFFFFFFFFFFFFFFFFFFFFFFFFFFFFFFFFFFFFFF AND PUSH20 0xFFFFFFFFFFFFFFFFFFFFFFFFFFFFFFFFFFFFFFFF AND DUP2 MSTORE PUSH1 0x20 ADD PUSH1 0x1 DUP3 ADD PUSH0 SWAP1 SLOAD SWAP1 PUSH2 0x100 EXP SWAP1 DIV PUSH20 0xFFFFFFFFFFFFFFFFFFFFFFFFFFFFFFFFFFFFFFFF AND PUSH20 0xFFFFFFFFFFFFFFFFFFFFFFFFFFFFFFFFFFFFFFFF AND PUSH20 0xFFFFFFFFFFFFFFFFFFFFFFFFFFFFFFFFFFFFFFFF AND DUP2 MSTORE PUSH1 0x20 ADD PUSH1 0x2 DUP3 ADD SLOAD DUP2 MSTORE PUSH1 0x20 ADD PUSH1 0x3 DUP3 ADD SLOAD DUP2 MSTORE PUSH1 0x20 ADD PUSH1 0x4 DUP3 ADD PUSH0 SWAP1 SLOAD SWAP1 PUSH2 0x100 EXP SWAP1 DIV PUSH1 0xFF AND PUSH1 0x3 DUP2 GT ISZERO PUSH2 0x3146 JUMPI PUSH2 0x3145 PUSH2 0x458B JUMP JUMPDEST JUMPDEST PUSH1 0x3 DUP2 GT ISZERO PUSH2 0x3158 JUMPI PUSH2 0x3157 PUSH2 0x458B JUMP JUMPDEST JUMPDEST DUP2 MSTORE PUSH1 0x20 ADD PUSH1 0x4 DUP3 ADD PUSH1 0x1 SWAP1 SLOAD SWAP1 PUSH2 0x100 EXP SWAP1 DIV PUSH1 0xFF AND PUSH1 0x3 DUP2 GT ISZERO PUSH2 0x3181 JUMPI PUSH2 0x3180 PUSH2 0x458B JUMP JUMPDEST JUMPDEST PUSH1 0x3 DUP2 GT ISZERO PUSH2 0x3193 JUMPI PUSH2 0x3192 PUSH2 0x458B JUMP JUMPDEST JUMPDEST DUP2 MSTORE PUSH1 0x20 ADD PUSH1 0x5 DUP3 ADD DUP1 SLOAD PUSH2 0x31A7 SWAP1 PUSH2 0x4FCB JUMP JUMPDEST DUP1 PUSH1 0x1F ADD PUSH1 0x20 DUP1 SWAP2 DIV MUL PUSH1 0x20 ADD PUSH1 0x40 MLOAD SWAP1 DUP2 ADD PUSH1 0x40 MSTORE DUP1 SWAP3 SWAP2 SWAP1 DUP2 DUP2 MSTORE PUSH1 0x20 ADD DUP3 DUP1 SLOAD PUSH2 0x31D3 SWAP1 PUSH2 0x4FCB JUMP JUMPDEST DUP1 ISZERO PUSH2 0x321E JUMPI DUP1 PUSH1 0x1F LT PUSH2 0x31F5 JUMPI PUSH2 0x100 DUP1 DUP4 SLOAD DIV MUL DUP4 MSTORE SWAP2 PUSH1 0x20 ADD SWAP2 PUSH2 0x321E JUMP JUMPDEST DUP3 ADD SWAP2 SWAP1 PUSH0 MSTORE PUSH1 0x20 PUSH0 KECCAK256 SWAP1 JUMPDEST DUP2 SLOAD DUP2 MSTORE SWAP1 PUSH1 0x1 ADD SWAP1 PUSH1 0x20 ADD DUP1 DUP4 GT PUSH2 0x3201 JUMPI DUP3 SWAP1 SUB PUSH1 0x1F AND DUP3 ADD SWAP2 JUMPDEST POP POP POP POP POP DUP2 MSTORE PUSH1 0x20 ADD PUSH1 0x6 DUP3 ADD SLOAD DUP2 MSTORE PUSH1 0x20 ADD PUSH1 0x7 DUP3 ADD SLOAD DUP2 MSTORE PUSH1 0x20 ADD PUSH1 0x8 DUP3 ADD DUP1 SLOAD PUSH2 0x324B SWAP1 PUSH2 0x4FCB JUMP JUMPDEST DUP1 PUSH1 0x1F ADD PUSH1 0x20 DUP1 SWAP2 DIV MUL PUSH1 0x20 ADD PUSH1 0x40 MLOAD SWAP1 DUP2 ADD PUSH1 0x40 MSTORE DUP1 SWAP3 SWAP2 SWAP1 DUP2 DUP2 MSTORE PUSH1 0x20 ADD DUP3 DUP1 SLOAD PUSH2 0x3277 SWAP1 PUSH2 0x4FCB JUMP JUMPDEST DUP1 ISZERO PUSH2 0x32C2 JUMPI DUP1 PUSH1 0x1F LT PUSH2 0x3299 JUMPI PUSH2 0x100 DUP1 DUP4 SLOAD DIV MUL DUP4 MSTORE SWAP2 PUSH1 0x20 ADD SWAP2 PUSH2 0x32C2 JUMP JUMPDEST DUP3 ADD SWAP2 SWAP1 PUSH0 MSTORE PUSH1 0x20 PUSH0 KECCAK256 SWAP1 JUMPDEST DUP2 SLOAD DUP2 MSTORE SWAP1 PUSH1 0x1 ADD SWAP1 PUSH1 0x20 ADD DUP1 DUP4 GT PUSH2 0x32A5 JUMPI DUP3 SWAP1 SUB PUSH1 0x1F AND DUP3 ADD SWAP2 JUMPDEST POP POP POP POP POP DUP2 MSTORE POP POP SWAP1 POP SWAP2 SWAP1 POP JUMP JUMPDEST PUSH0 PUSH1 0x4 PUSH0 SWAP1 SLOAD SWAP1 PUSH2 0x100 EXP SWAP1 DIV PUSH20 0xFFFFFFFFFFFFFFFFFFFFFFFFFFFFFFFFFFFFFFFF AND PUSH20 0xFFFFFFFFFFFFFFFFFFFFFFFFFFFFFFFFFFFFFFFF AND PUSH4 0x1CC0A1C3 DUP6 DUP6 DUP6 PUSH1 0x40 MLOAD DUP5 PUSH4 0xFFFFFFFF AND PUSH1 0xE0 SHL DUP2 MSTORE PUSH1 0x4 ADD PUSH2 0x3331 SWAP4 SWAP3 SWAP2 SWAP1 PUSH2 0x57E7 JUMP JUMPDEST PUSH1 0x20 PUSH1 0x40 MLOAD DUP1 DUP4 SUB DUP2 DUP7 GAS STATICCALL ISZERO DUP1 ISZERO PUSH2 0x334C JUMPI RETURNDATASIZE PUSH0 PUSH0 RETURNDATACOPY RETURNDATASIZE PUSH0 REVERT JUMPDEST POP POP POP POP PUSH1 0x40 MLOAD RETURNDATASIZE PUSH1 0x1F NOT PUSH1 0x1F DUP3 ADD AND DUP3 ADD DUP1 PUSH1 0x40 MSTORE POP DUP2 ADD SWAP1 PUSH2 0x3370 SWAP2 SWAP1 PUSH2 0x56AA JUMP JUMPDEST SWAP1 POP SWAP4 SWAP3 POP POP POP JUMP JUMPDEST PUSH2 0x3382 DUP3 PUSH2 0x6EE JUMP JUMPDEST PUSH2 0x338B DUP2 PUSH2 0x342F JUMP JUMPDEST PUSH2 0x3395 DUP4 DUP4 PUSH2 0x37B5 JUMP JUMPDEST POP POP POP POP JUMP JUMPDEST PUSH1 0x3 PUSH0 SWAP1 SLOAD SWAP1 PUSH2 0x100 EXP SWAP1 DIV PUSH20 0xFFFFFFFFFFFFFFFFFFFFFFFFFFFFFFFFFFFFFFFF AND DUP2 JUMP JUMPDEST PUSH1 0xA SLOAD DUP2 JUMP JUMPDEST PUSH0 PUSH32 0x1FFC9A700000000000000000000000000000000000000000000000000000000 PUSH28 0xFFFFFFFFFFFFFFFFFFFFFFFFFFFFFFFFFFFFFFFFFFFFFFFFFFFFFFFF NOT AND DUP3 PUSH28 0xFFFFFFFFFFFFFFFFFFFFFFFFFFFFFFFFFFFFFFFFFFFFFFFFFFFFFFFF NOT AND EQ SWAP1 POP SWAP2 SWAP1 POP JUMP JUMPDEST PUSH2 0x3440 DUP2 PUSH2 0x343B PUSH2 0x37AE JUMP JUMPDEST PUSH2 0x3E82 JUMP JUMPDEST POP JUMP JUMPDEST PUSH0 PUSH2 0x344E DUP4 DUP4 PUSH2 0x283F JUMP JUMPDEST PUSH2 0x3522 JUMPI PUSH1 0x1 PUSH0 PUSH0 DUP6 DUP2 MSTORE PUSH1 0x20 ADD SWAP1 DUP2 MSTORE PUSH1 0x20 ADD PUSH0 KECCAK256 PUSH0 ADD PUSH0 DUP5 PUSH20 0xFFFFFFFFFFFFFFFFFFFFFFFFFFFFFFFFFFFFFFFF AND PUSH20 0xFFFFFFFFFFFFFFFFFFFFFFFFFFFFFFFFFFFFFFFF AND DUP2 MSTORE PUSH1 0x20 ADD SWAP1 DUP2 MSTORE PUSH1 0x20 ADD PUSH0 KECCAK256 PUSH0 PUSH2 0x100 EXP DUP2 SLOAD DUP2 PUSH1 0xFF MUL NOT AND SWAP1 DUP4 ISZERO ISZERO MUL OR SWAP1 SSTORE POP PUSH2 0x34BF PUSH2 0x37AE JUMP JUMPDEST PUSH20 0xFFFFFFFFFFFFFFFFFFFFFFFFFFFFFFFFFFFFFFFF AND DUP3 PUSH20 0xFFFFFFFFFFFFFFFFFFFFFFFFFFFFFFFFFFFFFFFF AND DUP5 PUSH32 0x2F8788117E7EFF1D82E926EC794901D17C78024A50270940304540A733656F0D PUSH1 0x40 MLOAD PUSH1 0x40 MLOAD DUP1 SWAP2 SUB SWAP1 LOG4 PUSH1 0x1 SWAP1 POP PUSH2 0x3526 JUMP JUMPDEST PUSH0 SWAP1 POP JUMPDEST SWAP3 SWAP2 POP POP JUMP JUMPDEST PUSH1 0x2 PUSH1 0x1 SLOAD SUB PUSH2 0x3571 JUMPI PUSH1 0x40 MLOAD PUSH32 0x8C379A000000000000000000000000000000000000000000000000000000000 DUP2 MSTORE PUSH1 0x4 ADD PUSH2 0x3568 SWAP1 PUSH2 0x5866 JUMP JUMPDEST PUSH1 0x40 MLOAD DUP1 SWAP2 SUB SWAP1 REVERT JUMPDEST PUSH1 0x2 PUSH1 0x1 DUP2 SWAP1 SSTORE POP JUMP JUMPDEST PUSH0 PUSH1 0x4 PUSH0 SWAP1 SLOAD SWAP1 PUSH2 0x100 EXP SWAP1 DIV PUSH20 0xFFFFFFFFFFFFFFFFFFFFFFFFFFFFFFFFFFFFFFFF AND PUSH20 0xFFFFFFFFFFFFFFFFFFFFFFFFFFFFFFFFFFFFFFFF AND PUSH4 0xD1A0CC5C DUP4 PUSH1 0x20 ADD MLOAD DUP5 PUSH0 ADD MLOAD DUP6 PUSH1 0x40 ADD MLOAD PUSH1 0x40 MLOAD DUP5 PUSH4 0xFFFFFFFF AND PUSH1 0xE0 SHL DUP2 MSTORE PUSH1 0x4 ADD PUSH2 0x35E5 SWAP4 SWAP3 SWAP2 SWAP1 PUSH2 0x57E7 JUMP JUMPDEST PUSH1 0x20 PUSH1 0x40 MLOAD DUP1 DUP4 SUB DUP2 PUSH0 DUP8 GAS CALL ISZERO DUP1 ISZERO PUSH2 0x3601 JUMPI RETURNDATASIZE PUSH0 PUSH0 RETURNDATACOPY RETURNDATASIZE PUSH0 REVERT JUMPDEST POP POP POP POP PUSH1 0x40 MLOAD RETURNDATASIZE PUSH1 0x1F NOT PUSH1 0x1F DUP3 ADD AND DUP3 ADD DUP1 PUSH1 0x40 MSTORE POP DUP2 ADD SWAP1 PUSH2 0x3625 SWAP2 SWAP1 PUSH2 0x4B90 JUMP JUMPDEST SWAP1 POP SWAP2 SWAP1 POP JUMP JUMPDEST PUSH1 0x60 PUSH0 DUP3 PUSH0 ADD MLOAD DUP4 PUSH1 0x40 ADD MLOAD DUP5 PUSH1 0x20 ADD MLOAD DUP6 PUSH1 0x60 ADD MLOAD PUSH1 0x40 MLOAD PUSH1 0x20 ADD PUSH2 0x3655 SWAP5 SWAP4 SWAP3 SWAP2 SWAP1 PUSH2 0x58E9 JUMP JUMPDEST PUSH1 0x40 MLOAD PUSH1 0x20 DUP2 DUP4 SUB SUB DUP2 MSTORE SWAP1 PUSH1 0x40 MSTORE DUP1 MLOAD SWAP1 PUSH1 0x20 ADD KECCAK256 SWAP1 POP PUSH0 PUSH2 0x3677 DUP3 PUSH2 0x3ED3 JUMP JUMPDEST SWAP1 POP DUP4 PUSH0 ADD MLOAD PUSH20 0xFFFFFFFFFFFFFFFFFFFFFFFFFFFFFFFFFFFFFFFF AND PUSH32 0x59180834F899F4489FF46F8A483A5E8910BE42B5AB7E4EA95619FC2546851AAD PUSH1 0x6 DUP1 SLOAD SWAP1 POP DUP4 PUSH1 0x40 MLOAD PUSH2 0x36C9 SWAP3 SWAP2 SWAP1 PUSH2 0x5936 JUMP JUMPDEST PUSH1 0x40 MLOAD DUP1 SWAP2 SUB SWAP1 LOG2 DUP1 SWAP3 POP POP POP SWAP2 SWAP1 POP JUMP JUMPDEST PUSH1 0x5 PUSH0 SWAP1 SLOAD SWAP1 PUSH2 0x100 EXP SWAP1 DIV PUSH20 0xFFFFFFFFFFFFFFFFFFFFFFFFFFFFFFFFFFFFFFFF AND PUSH20 0xFFFFFFFFFFFFFFFFFFFFFFFFFFFFFFFFFFFFFFFF AND PUSH4 0x44C83B97 DUP3 PUSH0 ADD MLOAD DUP4 PUSH1 0x20 ADD MLOAD DUP5 PUSH1 0x40 ADD MLOAD DUP6 PUSH1 0x80 ADD MLOAD DUP7 PUSH1 0xA0 ADD MLOAD DUP8 PUSH1 0x60 ADD MLOAD PUSH1 0x40 MLOAD PUSH1 0x20 ADD PUSH2 0x3749 SWAP6 SWAP5 SWAP4 SWAP3 SWAP2 SWAP1 PUSH2 0x5964 JUMP JUMPDEST PUSH1 0x40 MLOAD PUSH1 0x20 DUP2 DUP4 SUB SUB DUP2 MSTORE SWAP1 PUSH1 0x40 MSTORE PUSH1 0x40 MLOAD DUP4 PUSH4 0xFFFFFFFF AND PUSH1 0xE0 SHL DUP2 MSTORE PUSH1 0x4 ADD PUSH2 0x3775 SWAP3 SWAP2 SWAP1 PUSH2 0x59FF JUMP JUMPDEST PUSH0 PUSH1 0x40 MLOAD DUP1 DUP4 SUB DUP2 PUSH0 DUP8 DUP1 EXTCODESIZE ISZERO DUP1 ISZERO PUSH2 0x378C JUMPI PUSH0 PUSH0 REVERT JUMPDEST POP GAS CALL ISZERO DUP1 ISZERO PUSH2 0x379E JUMPI RETURNDATASIZE PUSH0 PUSH0 RETURNDATACOPY RETURNDATASIZE PUSH0 REVERT JUMPDEST POP POP POP POP POP JUMP JUMPDEST PUSH1 0x1 DUP1 DUP2 SWAP1 SSTORE POP JUMP JUMPDEST PUSH0 CALLER SWAP1 POP SWAP1 JUMP JUMPDEST PUSH0 PUSH2 0x37C0 DUP4 DUP4 PUSH2 0x283F JUMP JUMPDEST ISZERO PUSH2 0x3894 JUMPI PUSH0 PUSH0 PUSH0 DUP6 DUP2 MSTORE PUSH1 0x20 ADD SWAP1 DUP2 MSTORE PUSH1 0x20 ADD PUSH0 KECCAK256 PUSH0 ADD PUSH0 DUP5 PUSH20 0xFFFFFFFFFFFFFFFFFFFFFFFFFFFFFFFFFFFFFFFF AND PUSH20 0xFFFFFFFFFFFFFFFFFFFFFFFFFFFFFFFFFFFFFFFF AND DUP2 MSTORE PUSH1 0x20 ADD SWAP1 DUP2 MSTORE PUSH1 0x20 ADD PUSH0 KECCAK256 PUSH0 PUSH2 0x100 EXP DUP2 SLOAD DUP2 PUSH1 0xFF MUL NOT AND SWAP1 DUP4 ISZERO ISZERO MUL OR SWAP1 SSTORE POP PUSH2 0x3831 PUSH2 0x37AE JUMP JUMPDEST PUSH20 0xFFFFFFFFFFFFFFFFFFFFFFFFFFFFFFFFFFFFFFFF AND DUP3 PUSH20 0xFFFFFFFFFFFFFFFFFFFFFFFFFFFFFFFFFFFFFFFF AND DUP5 PUSH32 0xF6391F5C32D9C69D2A47EA670B442974B53935D1EDC7FD64EB21E047A839171B PUSH1 0x40 MLOAD PUSH1 0x40 MLOAD DUP1 SWAP2 SUB SWAP1 LOG4 PUSH1 0x1 SWAP1 POP PUSH2 0x3898 JUMP JUMPDEST PUSH0 SWAP1 POP JUMPDEST SWAP3 SWAP2 POP POP JUMP JUMPDEST PUSH0 PUSH0 GAS SWAP1 POP PUSH0 PUSH1 0x40 MLOAD DUP1 PUSH2 0x140 ADD PUSH1 0x40 MSTORE DUP1 DUP9 PUSH20 0xFFFFFFFFFFFFFFFFFFFFFFFFFFFFFFFFFFFFFFFF AND DUP2 MSTORE PUSH1 0x20 ADD DUP8 PUSH20 0xFFFFFFFFFFFFFFFFFFFFFFFFFFFFFFFFFFFFFFFF AND DUP2 MSTORE PUSH1 0x20 ADD DUP7 DUP2 MSTORE PUSH1 0x20 ADD TIMESTAMP DUP2 MSTORE PUSH1 0x20 ADD DUP6 PUSH1 0x3 DUP2 GT ISZERO PUSH2 0x3907 JUMPI PUSH2 0x3906 PUSH2 0x458B JUMP JUMPDEST JUMPDEST DUP2 MSTORE PUSH1 0x20 ADD PUSH0 PUSH1 0x3 DUP2 GT ISZERO PUSH2 0x391F JUMPI PUSH2 0x391E PUSH2 0x458B JUMP JUMPDEST JUMPDEST DUP2 MSTORE PUSH1 0x20 ADD PUSH1 0x40 MLOAD DUP1 PUSH1 0x20 ADD PUSH1 0x40 MSTORE DUP1 PUSH0 DUP2 MSTORE POP DUP2 MSTORE PUSH1 0x20 ADD PUSH0 DUP2 MSTORE PUSH1 0x20 ADD PUSH0 DUP2 MSTORE PUSH1 0x20 ADD PUSH1 0x40 MLOAD DUP1 PUSH1 0x20 ADD PUSH1 0x40 MSTORE DUP1 PUSH0 DUP2 MSTORE POP DUP2 MSTORE POP SWAP1 POP PUSH2 0x3961 DUP2 PUSH2 0x357B JUMP JUMPDEST SWAP3 POP GAS DUP3 PUSH2 0x396F SWAP2 SWAP1 PUSH2 0x4EFD JUMP JUMPDEST DUP2 PUSH1 0xE0 ADD DUP2 DUP2 MSTORE POP POP DUP3 PUSH2 0x3984 JUMPI PUSH1 0x2 PUSH2 0x3987 JUMP JUMPDEST PUSH1 0x1 JUMPDEST DUP2 PUSH1 0xA0 ADD SWAP1 PUSH1 0x3 DUP2 GT ISZERO PUSH2 0x399E JUMPI PUSH2 0x399D PUSH2 0x458B JUMP JUMPDEST JUMPDEST SWAP1 DUP2 PUSH1 0x3 DUP2 GT ISZERO PUSH2 0x39B2 JUMPI PUSH2 0x39B1 PUSH2 0x458B JUMP JUMPDEST JUMPDEST DUP2 MSTORE POP POP DUP3 ISZERO PUSH2 0x3A5B JUMPI PUSH1 0x3 PUSH0 SWAP1 SLOAD SWAP1 PUSH2 0x100 EXP SWAP1 DIV PUSH20 0xFFFFFFFFFFFFFFFFFFFFFFFFFFFFFFFFFFFFFFFF AND PUSH20 0xFFFFFFFFFFFFFFFFFFFFFFFFFFFFFFFFFFFFFFFF AND PUSH4 0xC11D2D18 DUP9 DUP8 PUSH1 0x40 MLOAD DUP4 PUSH4 0xFFFFFFFF AND PUSH1 0xE0 SHL DUP2 MSTORE PUSH1 0x4 ADD PUSH2 0x3A18 SWAP3 SWAP2 SWAP1 PUSH2 0x4F30 JUMP JUMPDEST PUSH0 PUSH1 0x40 MLOAD DUP1 DUP4 SUB DUP2 PUSH0 DUP8 DUP1 EXTCODESIZE ISZERO DUP1 ISZERO PUSH2 0x3A2F JUMPI PUSH0 PUSH0 REVERT JUMPDEST POP GAS CALL ISZERO DUP1 ISZERO PUSH2 0x3A41 JUMPI RETURNDATASIZE PUSH0 PUSH0 RETURNDATACOPY RETURNDATASIZE PUSH0 REVERT JUMPDEST POP POP POP POP PUSH2 0x3A4E DUP2 PUSH2 0x362C JUMP JUMPDEST DUP2 PUSH1 0xC0 ADD DUP2 SWAP1 MSTORE POP PUSH2 0x3AED JUMP JUMPDEST PUSH1 0x40 MLOAD DUP1 PUSH1 0x40 ADD PUSH1 0x40 MSTORE DUP1 PUSH1 0x18 DUP2 MSTORE PUSH1 0x20 ADD PUSH32 0x5061796D656E7420657865637574696F6E206661696C65640000000000000000 DUP2 MSTORE POP DUP2 PUSH2 0x120 ADD DUP2 SWAP1 MSTORE POP PUSH1 0x8 PUSH0 DUP9 PUSH20 0xFFFFFFFFFFFFFFFFFFFFFFFFFFFFFFFFFFFFFFFF AND PUSH20 0xFFFFFFFFFFFFFFFFFFFFFFFFFFFFFFFFFFFFFFFF AND DUP2 MSTORE PUSH1 0x20 ADD SWAP1 DUP2 MSTORE PUSH1 0x20 ADD PUSH0 KECCAK256 PUSH0 DUP2 SLOAD DUP1 SWAP3 SWAP2 SWAP1 PUSH2 0x3AE7 SWAP1 PUSH2 0x4F57 JUMP JUMPDEST SWAP2 SWAP1 POP SSTORE POP JUMPDEST PUSH1 0x6 DUP2 SWAP1 DUP1 PUSH1 0x1 DUP2 SLOAD ADD DUP1 DUP3 SSTORE DUP1 SWAP2 POP POP PUSH1 0x1 SWAP1 SUB SWAP1 PUSH0 MSTORE PUSH1 0x20 PUSH0 KECCAK256 SWAP1 PUSH1 0x9 MUL ADD PUSH0 SWAP1 SWAP2 SWAP1 SWAP2 SWAP1 SWAP2 POP PUSH0 DUP3 ADD MLOAD DUP2 PUSH0 ADD PUSH0 PUSH2 0x100 EXP DUP2 SLOAD DUP2 PUSH20 0xFFFFFFFFFFFFFFFFFFFFFFFFFFFFFFFFFFFFFFFF MUL NOT AND SWAP1 DUP4 PUSH20 0xFFFFFFFFFFFFFFFFFFFFFFFFFFFFFFFFFFFFFFFF AND MUL OR SWAP1 SSTORE POP PUSH1 0x20 DUP3 ADD MLOAD DUP2 PUSH1 0x1 ADD PUSH0 PUSH2 0x100 EXP DUP2 SLOAD DUP2 PUSH20 0xFFFFFFFFFFFFFFFFFFFFFFFFFFFFFFFFFFFFFFFF MUL NOT AND SWAP1 DUP4 PUSH20 0xFFFFFFFFFFFFFFFFFFFFFFFFFFFFFFFFFFFFFFFF AND MUL OR SWAP1 SSTORE POP PUSH1 0x40 DUP3 ADD MLOAD DUP2 PUSH1 0x2 ADD SSTORE PUSH1 0x60 DUP3 ADD MLOAD DUP2 PUSH1 0x3 ADD SSTORE PUSH1 0x80 DUP3 ADD MLOAD DUP2 PUSH1 0x4 ADD PUSH0 PUSH2 0x100 EXP DUP2 SLOAD DUP2 PUSH1 0xFF MUL NOT AND SWAP1 DUP4 PUSH1 0x3 DUP2 GT ISZERO PUSH2 0x3BDE JUMPI PUSH2 0x3BDD PUSH2 0x458B JUMP JUMPDEST JUMPDEST MUL OR SWAP1 SSTORE POP PUSH1 0xA0 DUP3 ADD MLOAD DUP2 PUSH1 0x4 ADD PUSH1 0x1 PUSH2 0x100 EXP DUP2 SLOAD DUP2 PUSH1 0xFF MUL NOT AND SWAP1 DUP4 PUSH1 0x3 DUP2 GT ISZERO PUSH2 0x3C0E JUMPI PUSH2 0x3C0D PUSH2 0x458B JUMP JUMPDEST JUMPDEST MUL OR SWAP1 SSTORE POP PUSH1 0xC0 DUP3 ADD MLOAD DUP2 PUSH1 0x5 ADD SWAP1 DUP2 PUSH2 0x3C28 SWAP2 SWAP1 PUSH2 0x5192 JUMP JUMPDEST POP PUSH1 0xE0 DUP3 ADD MLOAD DUP2 PUSH1 0x6 ADD SSTORE PUSH2 0x100 DUP3 ADD MLOAD DUP2 PUSH1 0x7 ADD SSTORE PUSH2 0x120 DUP3 ADD MLOAD DUP2 PUSH1 0x8 ADD SWAP1 DUP2 PUSH2 0x3C54 SWAP2 SWAP1 PUSH2 0x5192 JUMP JUMPDEST POP POP POP PUSH1 0x7 PUSH0 DUP9 PUSH20 0xFFFFFFFFFFFFFFFFFFFFFFFFFFFFFFFFFFFFFFFF AND PUSH20 0xFFFFFFFFFFFFFFFFFFFFFFFFFFFFFFFFFFFFFFFF AND DUP2 MSTORE PUSH1 0x20 ADD SWAP1 DUP2 MSTORE PUSH1 0x20 ADD PUSH0 KECCAK256 DUP2 SWAP1 DUP1 PUSH1 0x1 DUP2 SLOAD ADD DUP1 DUP3 SSTORE DUP1 SWAP2 POP POP PUSH1 0x1 SWAP1 SUB SWAP1 PUSH0 MSTORE PUSH1 0x20 PUSH0 KECCAK256 SWAP1 PUSH1 0x9 MUL ADD PUSH0 SWAP1 SWAP2 SWAP1 SWAP2 SWAP1 SWAP2 POP PUSH0 DUP3 ADD MLOAD DUP2 PUSH0 ADD PUSH0 PUSH2 0x100 EXP DUP2 SLOAD DUP2 PUSH20 0xFFFFFFFFFFFFFFFFFFFFFFFFFFFFFFFFFFFFFFFF MUL NOT AND SWAP1 DUP4 PUSH20 0xFFFFFFFFFFFFFFFFFFFFFFFFFFFFFFFFFFFFFFFF AND MUL OR SWAP1 SSTORE POP PUSH1 0x20 DUP3 ADD MLOAD DUP2 PUSH1 0x1 ADD PUSH0 PUSH2 0x100 EXP DUP2 SLOAD DUP2 PUSH20 0xFFFFFFFFFFFFFFFFFFFFFFFFFFFFFFFFFFFFFFFF MUL NOT AND SWAP1 DUP4 PUSH20 0xFFFFFFFFFFFFFFFFFFFFFFFFFFFFFFFFFFFFFFFF AND MUL OR SWAP1 SSTORE POP PUSH1 0x40 DUP3 ADD MLOAD DUP2 PUSH1 0x2 ADD SSTORE PUSH1 0x60 DUP3 ADD MLOAD DUP2 PUSH1 0x3 ADD SSTORE PUSH1 0x80 DUP3 ADD MLOAD DUP2 PUSH1 0x4 ADD PUSH0 PUSH2 0x100 EXP DUP2 SLOAD DUP2 PUSH1 0xFF MUL NOT AND SWAP1 DUP4 PUSH1 0x3 DUP2 GT ISZERO PUSH2 0x3D83 JUMPI PUSH2 0x3D82 PUSH2 0x458B JUMP JUMPDEST JUMPDEST MUL OR SWAP1 SSTORE POP PUSH1 0xA0 DUP3 ADD MLOAD DUP2 PUSH1 0x4 ADD PUSH1 0x1 PUSH2 0x100 EXP DUP2 SLOAD DUP2 PUSH1 0xFF MUL NOT AND SWAP1 DUP4 PUSH1 0x3 DUP2 GT ISZERO PUSH2 0x3DB3 JUMPI PUSH2 0x3DB2 PUSH2 0x458B JUMP JUMPDEST JUMPDEST MUL OR SWAP1 SSTORE POP PUSH1 0xC0 DUP3 ADD MLOAD DUP2 PUSH1 0x5 ADD SWAP1 DUP2 PUSH2 0x3DCD SWAP2 SWAP1 PUSH2 0x5192 JUMP JUMPDEST POP PUSH1 0xE0 DUP3 ADD MLOAD DUP2 PUSH1 0x6 ADD SSTORE PUSH2 0x100 DUP3 ADD MLOAD DUP2 PUSH1 0x7 ADD SSTORE PUSH2 0x120 DUP3 ADD MLOAD DUP2 PUSH1 0x8 ADD SWAP1 DUP2 PUSH2 0x3DF9 SWAP2 SWAP1 PUSH2 0x5192 JUMP JUMPDEST POP POP POP PUSH2 0x3E05 DUP2 PUSH2 0x36DB JUMP JUMPDEST DUP6 PUSH20 0xFFFFFFFFFFFFFFFFFFFFFFFFFFFFFFFFFFFFFFFF AND DUP8 PUSH20 0xFFFFFFFFFFFFFFFFFFFFFFFFFFFFFFFFFFFFFFFF AND PUSH32 0x5392E49AE81F9D730FAB8B9D95085C57CED2C8F481CA60E3D4DD2E7D626EBB5 DUP8 DUP8 DUP6 PUSH1 0xA0 ADD MLOAD DUP7 PUSH1 0xE0 ADD MLOAD PUSH1 0x40 MLOAD PUSH2 0x3E70 SWAP5 SWAP4 SWAP3 SWAP2 SWAP1 PUSH2 0x5261 JUMP JUMPDEST PUSH1 0x40 MLOAD DUP1 SWAP2 SUB SWAP1 LOG3 POP POP SWAP5 SWAP4 POP POP POP POP JUMP JUMPDEST PUSH2 0x3E8C DUP3 DUP3 PUSH2 0x283F JUMP JUMPDEST PUSH2 0x3ECF JUMPI DUP1 DUP3 PUSH1 0x40 MLOAD PUSH32 0xE2517D3F00000000000000000000000000000000000000000000000000000000 DUP2 MSTORE PUSH1 0x4 ADD PUSH2 0x3EC6 SWAP3 SWAP2 SWAP1 PUSH2 0x5A40 JUMP JUMPDEST PUSH1 0x40 MLOAD DUP1 SWAP2 SUB SWAP1 REVERT JUMPDEST POP POP JUMP JUMPDEST PUSH1 0x60 PUSH0 PUSH0 SWAP1 POP JUMPDEST PUSH1 0x20 DUP2 PUSH1 0xFF AND LT DUP1 ISZERO PUSH2 0x3F2B JUMPI POP PUSH0 PUSH1 0xF8 SHL DUP4 DUP3 PUSH1 0xFF AND PUSH1 0x20 DUP2 LT PUSH2 0x3F02 JUMPI PUSH2 0x3F01 PUSH2 0x5374 JUMP JUMPDEST JUMPDEST BYTE PUSH1 0xF8 SHL PUSH31 0xFFFFFFFFFFFFFFFFFFFFFFFFFFFFFFFFFFFFFFFFFFFFFFFFFFFFFFFFFFFFFF NOT AND EQ ISZERO JUMPDEST ISZERO PUSH2 0x3F43 JUMPI DUP1 DUP1 PUSH2 0x3F3B SWAP1 PUSH2 0x5A73 JUMP JUMPDEST SWAP2 POP POP PUSH2 0x3EDA JUMP JUMPDEST PUSH0 DUP2 PUSH1 0xFF AND PUSH8 0xFFFFFFFFFFFFFFFF DUP2 GT ISZERO PUSH2 0x3F61 JUMPI PUSH2 0x3F60 PUSH2 0x4C27 JUMP JUMPDEST JUMPDEST PUSH1 0x40 MLOAD SWAP1 DUP1 DUP3 MSTORE DUP1 PUSH1 0x1F ADD PUSH1 0x1F NOT AND PUSH1 0x20 ADD DUP3 ADD PUSH1 0x40 MSTORE DUP1 ISZERO PUSH2 0x3F93 JUMPI DUP2 PUSH1 0x20 ADD PUSH1 0x1 DUP3 MUL DUP1 CALLDATASIZE DUP4 CALLDATACOPY DUP1 DUP3 ADD SWAP2 POP POP SWAP1 POP JUMPDEST POP SWAP1 POP PUSH0 SWAP2 POP JUMPDEST PUSH1 0x20 DUP3 PUSH1 0xFF AND LT DUP1 ISZERO PUSH2 0x3FEB JUMPI POP PUSH0 PUSH1 0xF8 SHL DUP5 DUP4 PUSH1 0xFF AND PUSH1 0x20 DUP2 LT PUSH2 0x3FC2 JUMPI PUSH2 0x3FC1 PUSH2 0x5374 JUMP JUMPDEST JUMPDEST BYTE PUSH1 0xF8 SHL PUSH31 0xFFFFFFFFFFFFFFFFFFFFFFFFFFFFFFFFFFFFFFFFFFFFFFFFFFFFFFFFFFFFFF NOT AND EQ ISZERO JUMPDEST ISZERO PUSH2 0x4061 JUMPI DUP4 DUP3 PUSH1 0xFF AND PUSH1 0x20 DUP2 LT PUSH2 0x4006 JUMPI PUSH2 0x4005 PUSH2 0x5374 JUMP JUMPDEST JUMPDEST BYTE PUSH1 0xF8 SHL DUP2 DUP4 PUSH1 0xFF AND DUP2 MLOAD DUP2 LT PUSH2 0x4020 JUMPI PUSH2 0x401F PUSH2 0x5374 JUMP JUMPDEST JUMPDEST PUSH1 0x20 ADD ADD SWAP1 PUSH31 0xFFFFFFFFFFFFFFFFFFFFFFFFFFFFFFFFFFFFFFFFFFFFFFFFFFFFFFFFFFFFFF NOT AND SWAP1 DUP2 PUSH0 BYTE SWAP1 MSTORE8 POP DUP2 DUP1 PUSH2 0x4059 SWAP1 PUSH2 0x5A73 JUMP JUMPDEST SWAP3 POP POP PUSH2 0x3F9A JUMP JUMPDEST DUP1 SWAP3 POP POP POP SWAP2 SWAP1 POP JUMP JUMPDEST PUSH1 0x40 MLOAD DUP1 PUSH2 0x140 ADD PUSH1 0x40 MSTORE DUP1 PUSH0 PUSH20 0xFFFFFFFFFFFFFFFFFFFFFFFFFFFFFFFFFFFFFFFF AND DUP2 MSTORE PUSH1 0x20 ADD PUSH0 PUSH20 0xFFFFFFFFFFFFFFFFFFFFFFFFFFFFFFFFFFFFFFFF AND DUP2 MSTORE PUSH1 0x20 ADD PUSH0 DUP2 MSTORE PUSH1 0x20 ADD PUSH0 DUP2 MSTORE PUSH1 0x20 ADD PUSH0 PUSH1 0x3 DUP2 GT ISZERO PUSH2 0x40CE JUMPI PUSH2 0x40CD PUSH2 0x458B JUMP JUMPDEST JUMPDEST DUP2 MSTORE PUSH1 0x20 ADD PUSH0 PUSH1 0x3 DUP2 GT ISZERO PUSH2 0x40E6 JUMPI PUSH2 0x40E5 PUSH2 0x458B JUMP JUMPDEST JUMPDEST DUP2 MSTORE PUSH1 0x20 ADD PUSH1 0x60 DUP2 MSTORE PUSH1 0x20 ADD PUSH0 DUP2 MSTORE PUSH1 0x20 ADD PUSH0 DUP2 MSTORE PUSH1 0x20 ADD PUSH1 0x60 DUP2 MSTORE POP SWAP1 JUMP JUMPDEST PUSH0 PUSH1 0x40 MLOAD SWAP1 POP SWAP1 JUMP JUMPDEST PUSH0 PUSH0 REVERT JUMPDEST PUSH0 PUSH0 REVERT JUMPDEST PUSH0 PUSH32 0xFFFFFFFF00000000000000000000000000000000000000000000000000000000 DUP3 AND SWAP1 POP SWAP2 SWAP1 POP JUMP JUMPDEST PUSH2 0x414B DUP2 PUSH2 0x4117 JUMP JUMPDEST DUP2 EQ PUSH2 0x4155 JUMPI PUSH0 PUSH0 REVERT JUMPDEST POP JUMP JUMPDEST PUSH0 DUP2 CALLDATALOAD SWAP1 POP PUSH2 0x4166 DUP2 PUSH2 0x4142 JUMP JUMPDEST SWAP3 SWAP2 POP POP JUMP JUMPDEST PUSH0 PUSH1 0x20 DUP3 DUP5 SUB SLT ISZERO PUSH2 0x4181 JUMPI PUSH2 0x4180 PUSH2 0x410F JUMP JUMPDEST JUMPDEST PUSH0 PUSH2 0x418E DUP5 DUP3 DUP6 ADD PUSH2 0x4158 JUMP JUMPDEST SWAP2 POP POP SWAP3 SWAP2 POP POP JUMP JUMPDEST PUSH0 DUP2 ISZERO ISZERO SWAP1 POP SWAP2 SWAP1 POP JUMP JUMPDEST PUSH2 0x41AB DUP2 PUSH2 0x4197 JUMP JUMPDEST DUP3 MSTORE POP POP JUMP JUMPDEST PUSH0 PUSH1 0x20 DUP3 ADD SWAP1 POP PUSH2 0x41C4 PUSH0 DUP4 ADD DUP5 PUSH2 0x41A2 JUMP JUMPDEST SWAP3 SWAP2 POP POP JUMP JUMPDEST PUSH0 PUSH20 0xFFFFFFFFFFFFFFFFFFFFFFFFFFFFFFFFFFFFFFFF DUP3 AND SWAP1 POP SWAP2 SWAP1 POP JUMP JUMPDEST PUSH0 DUP2 SWAP1 POP SWAP2 SWAP1 POP JUMP JUMPDEST PUSH0 PUSH2 0x420C PUSH2 0x4207 PUSH2 0x4202 DUP5 PUSH2 0x41CA JUMP JUMPDEST PUSH2 0x41E9 JUMP JUMPDEST PUSH2 0x41CA JUMP JUMPDEST SWAP1 POP SWAP2 SWAP1 POP JUMP JUMPDEST PUSH0 PUSH2 0x421D DUP3 PUSH2 0x41F2 JUMP JUMPDEST SWAP1 POP SWAP2 SWAP1 POP JUMP JUMPDEST PUSH0 PUSH2 0x422E DUP3 PUSH2 0x4213 JUMP JUMPDEST SWAP1 POP SWAP2 SWAP1 POP JUMP JUMPDEST PUSH2 0x423E DUP2 PUSH2 0x4224 JUMP JUMPDEST DUP3 MSTORE POP POP JUMP JUMPDEST PUSH0 PUSH1 0x20 DUP3 ADD SWAP1 POP PUSH2 0x4257 PUSH0 DUP4 ADD DUP5 PUSH2 0x4235 JUMP JUMPDEST SWAP3 SWAP2 POP POP JUMP JUMPDEST PUSH0 PUSH2 0x4267 DUP3 PUSH2 0x41CA JUMP JUMPDEST SWAP1 POP SWAP2 SWAP1 POP JUMP JUMPDEST PUSH2 0x4277 DUP2 PUSH2 0x425D JUMP JUMPDEST DUP2 EQ PUSH2 0x4281 JUMPI PUSH0 PUSH0 REVERT JUMPDEST POP JUMP JUMPDEST PUSH0 DUP2 CALLDATALOAD SWAP1 POP PUSH2 0x4292 DUP2 PUSH2 0x426E JUMP JUMPDEST SWAP3 SWAP2 POP POP JUMP JUMPDEST PUSH0 PUSH1 0x20 DUP3 DUP5 SUB SLT ISZERO PUSH2 0x42AD JUMPI PUSH2 0x42AC PUSH2 0x410F JUMP JUMPDEST JUMPDEST PUSH0 PUSH2 0x42BA DUP5 DUP3 DUP6 ADD PUSH2 0x4284 JUMP JUMPDEST SWAP2 POP POP SWAP3 SWAP2 POP POP JUMP JUMPDEST PUSH0 DUP2 SWAP1 POP SWAP2 SWAP1 POP JUMP JUMPDEST PUSH2 0x42D5 DUP2 PUSH2 0x42C3 JUMP JUMPDEST DUP3 MSTORE POP POP JUMP JUMPDEST PUSH0 PUSH1 0x20 DUP3 ADD SWAP1 POP PUSH2 0x42EE PUSH0 DUP4 ADD DUP5 PUSH2 0x42CC JUMP JUMPDEST SWAP3 SWAP2 POP POP JUMP JUMPDEST PUSH0 DUP2 SWAP1 POP SWAP2 SWAP1 POP JUMP JUMPDEST PUSH2 0x4306 DUP2 PUSH2 0x42F4 JUMP JUMPDEST DUP2 EQ PUSH2 0x4310 JUMPI PUSH0 PUSH0 REVERT JUMPDEST POP JUMP JUMPDEST PUSH0 DUP2 CALLDATALOAD SWAP1 POP PUSH2 0x4321 DUP2 PUSH2 0x42FD JUMP JUMPDEST SWAP3 SWAP2 POP POP JUMP JUMPDEST PUSH0 PUSH1 0x20 DUP3 DUP5 SUB SLT ISZERO PUSH2 0x433C JUMPI PUSH2 0x433B PUSH2 0x410F JUMP JUMPDEST JUMPDEST PUSH0 PUSH2 0x4349 DUP5 DUP3 DUP6 ADD PUSH2 0x4313 JUMP JUMPDEST SWAP2 POP POP SWAP3 SWAP2 POP POP JUMP JUMPDEST PUSH2 0x435B DUP2 PUSH2 0x42F4 JUMP JUMPDEST DUP3 MSTORE POP POP JUMP JUMPDEST PUSH0 PUSH1 0x20 DUP3 ADD SWAP1 POP PUSH2 0x4374 PUSH0 DUP4 ADD DUP5 PUSH2 0x4352 JUMP JUMPDEST SWAP3 SWAP2 POP POP JUMP JUMPDEST PUSH0 PUSH2 0x4384 DUP3 PUSH2 0x41F2 JUMP JUMPDEST SWAP1 POP SWAP2 SWAP1 POP JUMP JUMPDEST PUSH0 PUSH2 0x4395 DUP3 PUSH2 0x437A JUMP JUMPDEST SWAP1 POP SWAP2 SWAP1 POP JUMP JUMPDEST PUSH2 0x43A5 DUP2 PUSH2 0x438B JUMP JUMPDEST DUP3 MSTORE POP POP JUMP JUMPDEST PUSH0 PUSH1 0x20 DUP3 ADD SWAP1 POP PUSH2 0x43BE PUSH0 DUP4 ADD DUP5 PUSH2 0x439C JUMP JUMPDEST SWAP3 SWAP2 POP POP JUMP JUMPDEST PUSH0 PUSH0 PUSH1 0x40 DUP4 DUP6 SUB SLT ISZERO PUSH2 0x43DA JUMPI PUSH2 0x43D9 PUSH2 0x410F JUMP JUMPDEST JUMPDEST PUSH0 PUSH2 0x43E7 DUP6 DUP3 DUP7 ADD PUSH2 0x4313 JUMP JUMPDEST SWAP3 POP POP PUSH1 0x20 PUSH2 0x43F8 DUP6 DUP3 DUP7 ADD PUSH2 0x4284 JUMP JUMPDEST SWAP2 POP POP SWAP3 POP SWAP3 SWAP1 POP JUMP JUMPDEST PUSH2 0x440B DUP2 PUSH2 0x42C3 JUMP JUMPDEST DUP2 EQ PUSH2 0x4415 JUMPI PUSH0 PUSH0 REVERT JUMPDEST POP JUMP JUMPDEST PUSH0 DUP2 CALLDATALOAD SWAP1 POP PUSH2 0x4426 DUP2 PUSH2 0x4402 JUMP JUMPDEST SWAP3 SWAP2 POP POP JUMP JUMPDEST PUSH1 0x4 DUP2 LT PUSH2 0x4438 JUMPI PUSH0 PUSH0 REVERT JUMPDEST POP JUMP JUMPDEST PUSH0 DUP2 CALLDATALOAD SWAP1 POP PUSH2 0x4449 DUP2 PUSH2 0x442C JUMP JUMPDEST SWAP3 SWAP2 POP POP JUMP JUMPDEST PUSH0 PUSH0 PUSH0 PUSH0 PUSH1 0x80 DUP6 DUP8 SUB SLT ISZERO PUSH2 0x4467 JUMPI PUSH2 0x4466 PUSH2 0x410F JUMP JUMPDEST JUMPDEST PUSH0 PUSH2 0x4474 DUP8 DUP3 DUP9 ADD PUSH2 0x4284 JUMP JUMPDEST SWAP5 POP POP PUSH1 0x20 PUSH2 0x4485 DUP8 DUP3 DUP9 ADD PUSH2 0x4284 JUMP JUMPDEST SWAP4 POP POP PUSH1 0x40 PUSH2 0x4496 DUP8 DUP3 DUP9 ADD PUSH2 0x4418 JUMP JUMPDEST SWAP3 POP POP PUSH1 0x60 PUSH2 0x44A7 DUP8 DUP3 DUP9 ADD PUSH2 0x443B JUMP JUMPDEST SWAP2 POP POP SWAP3 SWAP6 SWAP2 SWAP5 POP SWAP3 POP JUMP JUMPDEST PUSH0 PUSH1 0x20 DUP3 DUP5 SUB SLT ISZERO PUSH2 0x44C8 JUMPI PUSH2 0x44C7 PUSH2 0x410F JUMP JUMPDEST JUMPDEST PUSH0 PUSH2 0x44D5 DUP5 DUP3 DUP6 ADD PUSH2 0x4418 JUMP JUMPDEST SWAP2 POP POP SWAP3 SWAP2 POP POP JUMP JUMPDEST PUSH0 PUSH2 0x44E8 DUP3 PUSH2 0x41CA JUMP JUMPDEST SWAP1 POP SWAP2 SWAP1 POP JUMP JUMPDEST PUSH2 0x44F8 DUP2 PUSH2 0x44DE JUMP JUMPDEST DUP2 EQ PUSH2 0x4502 JUMPI PUSH0 PUSH0 REVERT JUMPDEST POP JUMP JUMPDEST PUSH0 DUP2 CALLDATALOAD SWAP1 POP PUSH2 0x4513 DUP2 PUSH2 0x44EF JUMP JUMPDEST SWAP3 SWAP2 POP POP JUMP JUMPDEST PUSH0 PUSH1 0x20 DUP3 DUP5 SUB SLT ISZERO PUSH2 0x452E JUMPI PUSH2 0x452D PUSH2 0x410F JUMP JUMPDEST JUMPDEST PUSH0 PUSH2 0x453B DUP5 DUP3 DUP6 ADD PUSH2 0x4505 JUMP JUMPDEST SWAP2 POP POP SWAP3 SWAP2 POP POP JUMP JUMPDEST PUSH0 DUP2 MLOAD SWAP1 POP SWAP2 SWAP1 POP JUMP JUMPDEST PUSH0 DUP3 DUP3 MSTORE PUSH1 0x20 DUP3 ADD SWAP1 POP SWAP3 SWAP2 POP POP JUMP JUMPDEST PUSH0 DUP2 SWAP1 POP PUSH1 0x20 DUP3 ADD SWAP1 POP SWAP2 SWAP1 POP JUMP JUMPDEST PUSH2 0x4576 DUP2 PUSH2 0x425D JUMP JUMPDEST DUP3 MSTORE POP POP JUMP JUMPDEST PUSH2 0x4585 DUP2 PUSH2 0x42C3 JUMP JUMPDEST DUP3 MSTORE POP POP JUMP JUMPDEST PUSH32 0x4E487B7100000000000000000000000000000000000000000000000000000000 PUSH0 MSTORE PUSH1 0x21 PUSH1 0x4 MSTORE PUSH1 0x24 PUSH0 REVERT JUMPDEST PUSH1 0x4 DUP2 LT PUSH2 0x45C9 JUMPI PUSH2 0x45C8 PUSH2 0x458B JUMP JUMPDEST JUMPDEST POP JUMP JUMPDEST PUSH0 DUP2 SWAP1 POP PUSH2 0x45D9 DUP3 PUSH2 0x45B8 JUMP JUMPDEST SWAP2 SWAP1 POP JUMP JUMPDEST PUSH0 PUSH2 0x45E8 DUP3 PUSH2 0x45CC JUMP JUMPDEST SWAP1 POP SWAP2 SWAP1 POP JUMP JUMPDEST PUSH2 0x45F8 DUP2 PUSH2 0x45DE JUMP JUMPDEST DUP3 MSTORE POP POP JUMP JUMPDEST PUSH1 0x4 DUP2 LT PUSH2 0x460F JUMPI PUSH2 0x460E PUSH2 0x458B JUMP JUMPDEST JUMPDEST POP JUMP JUMPDEST PUSH0 DUP2 SWAP1 POP PUSH2 0x461F DUP3 PUSH2 0x45FE JUMP JUMPDEST SWAP2 SWAP1 POP JUMP JUMPDEST PUSH0 PUSH2 0x462E DUP3 PUSH2 0x4612 JUMP JUMPDEST SWAP1 POP SWAP2 SWAP1 POP JUMP JUMPDEST PUSH2 0x463E DUP2 PUSH2 0x4624 JUMP JUMPDEST DUP3 MSTORE POP POP JUMP JUMPDEST PUSH0 DUP2 MLOAD SWAP1 POP SWAP2 SWAP1 POP JUMP JUMPDEST PUSH0 DUP3 DUP3 MSTORE PUSH1 0x20 DUP3 ADD SWAP1 POP SWAP3 SWAP2 POP POP JUMP JUMPDEST DUP3 DUP2 DUP4 MCOPY PUSH0 DUP4 DUP4 ADD MSTORE POP POP POP JUMP JUMPDEST PUSH0 PUSH1 0x1F NOT PUSH1 0x1F DUP4 ADD AND SWAP1 POP SWAP2 SWAP1 POP JUMP JUMPDEST PUSH0 PUSH2 0x4686 DUP3 PUSH2 0x4644 JUMP JUMPDEST PUSH2 0x4690 DUP2 DUP6 PUSH2 0x464E JUMP JUMPDEST SWAP4 POP PUSH2 0x46A0 DUP2 DUP6 PUSH1 0x20 DUP7 ADD PUSH2 0x465E JUMP JUMPDEST PUSH2 0x46A9 DUP2 PUSH2 0x466C JUMP JUMPDEST DUP5 ADD SWAP2 POP POP SWAP3 SWAP2 POP POP JUMP JUMPDEST PUSH0 PUSH2 0x140 DUP4 ADD PUSH0 DUP4 ADD MLOAD PUSH2 0x46CA PUSH0 DUP7 ADD DUP3 PUSH2 0x456D JUMP JUMPDEST POP PUSH1 0x20 DUP4 ADD MLOAD PUSH2 0x46DD PUSH1 0x20 DUP7 ADD DUP3 PUSH2 0x456D JUMP JUMPDEST POP PUSH1 0x40 DUP4 ADD MLOAD PUSH2 0x46F0 PUSH1 0x40 DUP7 ADD DUP3 PUSH2 0x457C JUMP JUMPDEST POP PUSH1 0x60 DUP4 ADD MLOAD PUSH2 0x4703 PUSH1 0x60 DUP7 ADD DUP3 PUSH2 0x457C JUMP JUMPDEST POP PUSH1 0x80 DUP4 ADD MLOAD PUSH2 0x4716 PUSH1 0x80 DUP7 ADD DUP3 PUSH2 0x45EF JUMP JUMPDEST POP PUSH1 0xA0 DUP4 ADD MLOAD PUSH2 0x4729 PUSH1 0xA0 DUP7 ADD DUP3 PUSH2 0x4635 JUMP JUMPDEST POP PUSH1 0xC0 DUP4 ADD MLOAD DUP5 DUP3 SUB PUSH1 0xC0 DUP7 ADD MSTORE PUSH2 0x4741 DUP3 DUP3 PUSH2 0x467C JUMP JUMPDEST SWAP2 POP POP PUSH1 0xE0 DUP4 ADD MLOAD PUSH2 0x4756 PUSH1 0xE0 DUP7 ADD DUP3 PUSH2 0x457C JUMP JUMPDEST POP PUSH2 0x100 DUP4 ADD MLOAD PUSH2 0x476B PUSH2 0x100 DUP7 ADD DUP3 PUSH2 0x457C JUMP JUMPDEST POP PUSH2 0x120 DUP4 ADD MLOAD DUP5 DUP3 SUB PUSH2 0x120 DUP7 ADD MSTORE PUSH2 0x4785 DUP3 DUP3 PUSH2 0x467C JUMP JUMPDEST SWAP2 POP POP DUP1 SWAP2 POP POP SWAP3 SWAP2 POP POP JUMP JUMPDEST PUSH0 PUSH2 0x479D DUP4 DUP4 PUSH2 0x46B4 JUMP JUMPDEST SWAP1 POP SWAP3 SWAP2 POP POP JUMP JUMPDEST PUSH0 PUSH1 0x20 DUP3 ADD SWAP1 POP SWAP2 SWAP1 POP JUMP JUMPDEST PUSH0 PUSH2 0x47BB DUP3 PUSH2 0x4544 JUMP JUMPDEST PUSH2 0x47C5 DUP2 DUP6 PUSH2 0x454E JUMP JUMPDEST SWAP4 POP DUP4 PUSH1 0x20 DUP3 MUL DUP6 ADD PUSH2 0x47D7 DUP6 PUSH2 0x455E JUMP JUMPDEST DUP1 PUSH0 JUMPDEST DUP6 DUP2 LT ISZERO PUSH2 0x4812 JUMPI DUP5 DUP5 SUB DUP10 MSTORE DUP2 MLOAD PUSH2 0x47F3 DUP6 DUP3 PUSH2 0x4792 JUMP JUMPDEST SWAP5 POP PUSH2 0x47FE DUP4 PUSH2 0x47A5 JUMP JUMPDEST SWAP3 POP PUSH1 0x20 DUP11 ADD SWAP10 POP POP PUSH1 0x1 DUP2 ADD SWAP1 POP PUSH2 0x47DA JUMP JUMPDEST POP DUP3 SWAP8 POP DUP8 SWAP6 POP POP POP POP POP POP SWAP3 SWAP2 POP POP JUMP JUMPDEST PUSH0 PUSH1 0x20 DUP3 ADD SWAP1 POP DUP2 DUP2 SUB PUSH0 DUP4 ADD MSTORE PUSH2 0x483C DUP2 DUP5 PUSH2 0x47B1 JUMP JUMPDEST SWAP1 POP SWAP3 SWAP2 POP POP JUMP JUMPDEST PUSH0 PUSH0 PUSH1 0x40 DUP4 DUP6 SUB SLT ISZERO PUSH2 0x485A JUMPI PUSH2 0x4859 PUSH2 0x410F JUMP JUMPDEST JUMPDEST PUSH0 PUSH2 0x4867 DUP6 DUP3 DUP7 ADD PUSH2 0x4284 JUMP JUMPDEST SWAP3 POP POP PUSH1 0x20 PUSH2 0x4878 DUP6 DUP3 DUP7 ADD PUSH2 0x4418 JUMP JUMPDEST SWAP2 POP POP SWAP3 POP SWAP3 SWAP1 POP JUMP JUMPDEST PUSH2 0x488B DUP2 PUSH2 0x425D JUMP JUMPDEST DUP3 MSTORE POP POP JUMP JUMPDEST PUSH2 0x489A DUP2 PUSH2 0x45DE JUMP JUMPDEST DUP3 MSTORE POP POP JUMP JUMPDEST PUSH2 0x48A9 DUP2 PUSH2 0x4624 JUMP JUMPDEST DUP3 MSTORE POP POP JUMP JUMPDEST PUSH0 DUP3 DUP3 MSTORE PUSH1 0x20 DUP3 ADD SWAP1 POP SWAP3 SWAP2 POP POP JUMP JUMPDEST PUSH0 PUSH2 0x48C9 DUP3 PUSH2 0x4644 JUMP JUMPDEST PUSH2 0x48D3 DUP2 DUP6 PUSH2 0x48AF JUMP JUMPDEST SWAP4 POP PUSH2 0x48E3 DUP2 DUP6 PUSH1 0x20 DUP7 ADD PUSH2 0x465E JUMP JUMPDEST PUSH2 0x48EC DUP2 PUSH2 0x466C JUMP JUMPDEST DUP5 ADD SWAP2 POP POP SWAP3 SWAP2 POP POP JUMP JUMPDEST PUSH0 PUSH2 0x140 DUP3 ADD SWAP1 POP PUSH2 0x490B PUSH0 DUP4 ADD DUP14 PUSH2 0x4882 JUMP JUMPDEST PUSH2 0x4918 PUSH1 0x20 DUP4 ADD DUP13 PUSH2 0x4882 JUMP JUMPDEST PUSH2 0x4925 PUSH1 0x40 DUP4 ADD DUP12 PUSH2 0x42CC JUMP JUMPDEST PUSH2 0x4932 PUSH1 0x60 DUP4 ADD DUP11 PUSH2 0x42CC JUMP JUMPDEST PUSH2 0x493F PUSH1 0x80 DUP4 ADD DUP10 PUSH2 0x4891 JUMP JUMPDEST PUSH2 0x494C PUSH1 0xA0 DUP4 ADD DUP9 PUSH2 0x48A0 JUMP JUMPDEST DUP2 DUP2 SUB PUSH1 0xC0 DUP4 ADD MSTORE PUSH2 0x495E DUP2 DUP8 PUSH2 0x48BF JUMP JUMPDEST SWAP1 POP PUSH2 0x496D PUSH1 0xE0 DUP4 ADD DUP7 PUSH2 0x42CC JUMP JUMPDEST PUSH2 0x497B PUSH2 0x100 DUP4 ADD DUP6 PUSH2 0x42CC JUMP JUMPDEST DUP2 DUP2 SUB PUSH2 0x120 DUP4 ADD MSTORE PUSH2 0x498E DUP2 DUP5 PUSH2 0x48BF JUMP JUMPDEST SWAP1 POP SWAP12 SWAP11 POP POP POP POP POP POP POP POP POP POP POP JUMP JUMPDEST PUSH0 PUSH1 0x20 DUP3 ADD SWAP1 POP PUSH2 0x49B2 PUSH0 DUP4 ADD DUP5 PUSH2 0x4882 JUMP JUMPDEST SWAP3 SWAP2 POP POP JUMP JUMPDEST PUSH0 PUSH2 0x140 DUP4 ADD PUSH0 DUP4 ADD MLOAD PUSH2 0x49CE PUSH0 DUP7 ADD DUP3 PUSH2 0x456D JUMP JUMPDEST POP PUSH1 0x20 DUP4 ADD MLOAD PUSH2 0x49E1 PUSH1 0x20 DUP7 ADD DUP3 PUSH2 0x456D JUMP JUMPDEST POP PUSH1 0x40 DUP4 ADD MLOAD PUSH2 0x49F4 PUSH1 0x40 DUP7 ADD DUP3 PUSH2 0x457C JUMP JUMPDEST POP PUSH1 0x60 DUP4 ADD MLOAD PUSH2 0x4A07 PUSH1 0x60 DUP7 ADD DUP3 PUSH2 0x457C JUMP JUMPDEST POP PUSH1 0x80 DUP4 ADD MLOAD PUSH2 0x4A1A PUSH1 0x80 DUP7 ADD DUP3 PUSH2 0x45EF JUMP JUMPDEST POP PUSH1 0xA0 DUP4 ADD MLOAD PUSH2 0x4A2D PUSH1 0xA0 DUP7 ADD DUP3 PUSH2 0x4635 JUMP JUMPDEST POP PUSH1 0xC0 DUP4 ADD MLOAD DUP5 DUP3 SUB PUSH1 0xC0 DUP7 ADD MSTORE PUSH2 0x4A45 DUP3 DUP3 PUSH2 0x467C JUMP JUMPDEST SWAP2 POP POP PUSH1 0xE0 DUP4 ADD MLOAD PUSH2 0x4A5A PUSH1 0xE0 DUP7 ADD DUP3 PUSH2 0x457C JUMP JUMPDEST POP PUSH2 0x100 DUP4 ADD MLOAD PUSH2 0x4A6F PUSH2 0x100 DUP7 ADD DUP3 PUSH2 0x457C JUMP JUMPDEST POP PUSH2 0x120 DUP4 ADD MLOAD DUP5 DUP3 SUB PUSH2 0x120 DUP7 ADD MSTORE PUSH2 0x4A89 DUP3 DUP3 PUSH2 0x467C JUMP JUMPDEST SWAP2 POP POP DUP1 SWAP2 POP POP SWAP3 SWAP2 POP POP JUMP JUMPDEST PUSH0 PUSH1 0x20 DUP3 ADD SWAP1 POP DUP2 DUP2 SUB PUSH0 DUP4 ADD MSTORE PUSH2 0x4AAE DUP2 DUP5 PUSH2 0x49B8 JUMP JUMPDEST SWAP1 POP SWAP3 SWAP2 POP POP JUMP JUMPDEST PUSH0 PUSH0 PUSH0 PUSH1 0x60 DUP5 DUP7 SUB SLT ISZERO PUSH2 0x4ACD JUMPI PUSH2 0x4ACC PUSH2 0x410F JUMP JUMPDEST JUMPDEST PUSH0 PUSH2 0x4ADA DUP7 DUP3 DUP8 ADD PUSH2 0x4284 JUMP JUMPDEST SWAP4 POP POP PUSH1 0x20 PUSH2 0x4AEB DUP7 DUP3 DUP8 ADD PUSH2 0x4284 JUMP JUMPDEST SWAP3 POP POP PUSH1 0x40 PUSH2 0x4AFC DUP7 DUP3 DUP8 ADD PUSH2 0x4418 JUMP JUMPDEST SWAP2 POP POP SWAP3 POP SWAP3 POP SWAP3 JUMP JUMPDEST PUSH0 PUSH2 0x4B10 DUP3 PUSH2 0x4213 JUMP JUMPDEST SWAP1 POP SWAP2 SWAP1 POP JUMP JUMPDEST PUSH2 0x4B20 DUP2 PUSH2 0x4B06 JUMP JUMPDEST DUP3 MSTORE POP POP JUMP JUMPDEST PUSH0 PUSH1 0x20 DUP3 ADD SWAP1 POP PUSH2 0x4B39 PUSH0 DUP4 ADD DUP5 PUSH2 0x4B17 JUMP JUMPDEST SWAP3 SWAP2 POP POP JUMP JUMPDEST PUSH0 PUSH1 0x40 DUP3 ADD SWAP1 POP PUSH2 0x4B52 PUSH0 DUP4 ADD DUP6 PUSH2 0x4352 JUMP JUMPDEST PUSH2 0x4B5F PUSH1 0x20 DUP4 ADD DUP5 PUSH2 0x4882 JUMP JUMPDEST SWAP4 SWAP3 POP POP POP JUMP JUMPDEST PUSH2 0x4B6F DUP2 PUSH2 0x4197 JUMP JUMPDEST DUP2 EQ PUSH2 0x4B79 JUMPI PUSH0 PUSH0 REVERT JUMPDEST POP JUMP JUMPDEST PUSH0 DUP2 MLOAD SWAP1 POP PUSH2 0x4B8A DUP2 PUSH2 0x4B66 JUMP JUMPDEST SWAP3 SWAP2 POP POP JUMP JUMPDEST PUSH0 PUSH1 0x20 DUP3 DUP5 SUB SLT ISZERO PUSH2 0x4BA5 JUMPI PUSH2 0x4BA4 PUSH2 0x410F JUMP JUMPDEST JUMPDEST PUSH0 PUSH2 0x4BB2 DUP5 DUP3 DUP6 ADD PUSH2 0x4B7C JUMP JUMPDEST SWAP2 POP POP SWAP3 SWAP2 POP POP JUMP JUMPDEST PUSH32 0x4E6F7420617574686F72697A6564000000000000000000000000000000000000 PUSH0 DUP3 ADD MSTORE POP JUMP JUMPDEST PUSH0 PUSH2 0x4BEF PUSH1 0xE DUP4 PUSH2 0x48AF JUMP JUMPDEST SWAP2 POP PUSH2 0x4BFA DUP3 PUSH2 0x4BBB JUMP JUMPDEST PUSH1 0x20 DUP3 ADD SWAP1 POP SWAP2 SWAP1 POP JUMP JUMPDEST PUSH0 PUSH1 0x20 DUP3 ADD SWAP1 POP DUP2 DUP2 SUB PUSH0 DUP4 ADD MSTORE PUSH2 0x4C1C DUP2 PUSH2 0x4BE3 JUMP JUMPDEST SWAP1 POP SWAP2 SWAP1 POP JUMP JUMPDEST PUSH0 PUSH0 REVERT JUMPDEST PUSH32 0x4E487B7100000000000000000000000000000000000000000000000000000000 PUSH0 MSTORE PUSH1 0x41 PUSH1 0x4 MSTORE PUSH1 0x24 PUSH0 REVERT JUMPDEST PUSH2 0x4C5D DUP3 PUSH2 0x466C JUMP JUMPDEST DUP2 ADD DUP2 DUP2 LT PUSH8 0xFFFFFFFFFFFFFFFF DUP3 GT OR ISZERO PUSH2 0x4C7C JUMPI PUSH2 0x4C7B PUSH2 0x4C27 JUMP JUMPDEST JUMPDEST DUP1 PUSH1 0x40 MSTORE POP POP POP JUMP JUMPDEST PUSH0 PUSH2 0x4C8E PUSH2 0x4106 JUMP JUMPDEST SWAP1 POP PUSH2 0x4C9A DUP3 DUP3 PUSH2 0x4C54 JUMP JUMPDEST SWAP2 SWAP1 POP JUMP JUMPDEST PUSH0 DUP2 MLOAD SWAP1 POP PUSH2 0x4CAD DUP2 PUSH2 0x426E JUMP JUMPDEST SWAP3 SWAP2 POP POP JUMP JUMPDEST PUSH0 DUP2 MLOAD SWAP1 POP PUSH2 0x4CC1 DUP2 PUSH2 0x4402 JUMP JUMPDEST SWAP3 SWAP2 POP POP JUMP JUMPDEST PUSH1 0x3 DUP2 LT PUSH2 0x4CD3 JUMPI PUSH0 PUSH0 REVERT JUMPDEST POP JUMP JUMPDEST PUSH0 DUP2 MLOAD SWAP1 POP PUSH2 0x4CE4 DUP2 PUSH2 0x4CC7 JUMP JUMPDEST SWAP3 SWAP2 POP POP JUMP JUMPDEST PUSH0 DUP2 SWAP1 POP SWAP2 SWAP1 POP JUMP JUMPDEST PUSH2 0x4CFC DUP2 PUSH2 0x4CEA JUMP JUMPDEST DUP2 EQ PUSH2 0x4D06 JUMPI PUSH0 PUSH0 REVERT JUMPDEST POP JUMP JUMPDEST PUSH0 DUP2 MLOAD SWAP1 POP PUSH2 0x4D17 DUP2 PUSH2 0x4CF3 JUMP JUMPDEST SWAP3 SWAP2 POP POP JUMP JUMPDEST PUSH0 PUSH2 0x180 DUP3 DUP5 SUB SLT ISZERO PUSH2 0x4D33 JUMPI PUSH2 0x4D32 PUSH2 0x4C23 JUMP JUMPDEST JUMPDEST PUSH2 0x4D3E PUSH2 0x180 PUSH2 0x4C85 JUMP JUMPDEST SWAP1 POP PUSH0 PUSH2 0x4D4D DUP5 DUP3 DUP6 ADD PUSH2 0x4C9F JUMP JUMPDEST PUSH0 DUP4 ADD MSTORE POP PUSH1 0x20 PUSH2 0x4D60 DUP5 DUP3 DUP6 ADD PUSH2 0x4CB3 JUMP JUMPDEST PUSH1 0x20 DUP4 ADD MSTORE POP PUSH1 0x40 PUSH2 0x4D74 DUP5 DUP3 DUP6 ADD PUSH2 0x4CD6 JUMP JUMPDEST PUSH1 0x40 DUP4 ADD MSTORE POP PUSH1 0x60 PUSH2 0x4D88 DUP5 DUP3 DUP6 ADD PUSH2 0x4C9F JUMP JUMPDEST PUSH1 0x60 DUP4 ADD MSTORE POP PUSH1 0x80 PUSH2 0x4D9C DUP5 DUP3 DUP6 ADD PUSH2 0x4B7C JUMP JUMPDEST PUSH1 0x80 DUP4 ADD MSTORE POP PUSH1 0xA0 PUSH2 0x4DB0 DUP5 DUP3 DUP6 ADD PUSH2 0x4CB3 JUMP JUMPDEST PUSH1 0xA0 DUP4 ADD MSTORE POP PUSH1 0xC0 PUSH2 0x4DC4 DUP5 DUP3 DUP6 ADD PUSH2 0x4CB3 JUMP JUMPDEST PUSH1 0xC0 DUP4 ADD MSTORE POP PUSH1 0xE0 PUSH2 0x4DD8 DUP5 DUP3 DUP6 ADD PUSH2 0x4CB3 JUMP JUMPDEST PUSH1 0xE0 DUP4 ADD MSTORE POP PUSH2 0x100 PUSH2 0x4DED DUP5 DUP3 DUP6 ADD PUSH2 0x4D09 JUMP JUMPDEST PUSH2 0x100 DUP4 ADD MSTORE POP PUSH2 0x120 PUSH2 0x4E03 DUP5 DUP3 DUP6 ADD PUSH2 0x4D09 JUMP JUMPDEST PUSH2 0x120 DUP4 ADD MSTORE POP PUSH2 0x140 PUSH2 0x4E19 DUP5 DUP3 DUP6 ADD PUSH2 0x4CB3 JUMP JUMPDEST PUSH2 0x140 DUP4 ADD MSTORE POP PUSH2 0x160 PUSH2 0x4E2F DUP5 DUP3 DUP6 ADD PUSH2 0x4B7C JUMP JUMPDEST PUSH2 0x160 DUP4 ADD MSTORE POP SWAP3 SWAP2 POP POP JUMP JUMPDEST PUSH0 PUSH2 0x180 DUP3 DUP5 SUB SLT ISZERO PUSH2 0x4E52 JUMPI PUSH2 0x4E51 PUSH2 0x410F JUMP JUMPDEST JUMPDEST PUSH0 PUSH2 0x4E5F DUP5 DUP3 DUP6 ADD PUSH2 0x4D1D JUMP JUMPDEST SWAP2 POP POP SWAP3 SWAP2 POP POP JUMP JUMPDEST PUSH32 0x456D706C6F796565206E6F742061637469766500000000000000000000000000 PUSH0 DUP3 ADD MSTORE POP JUMP JUMPDEST PUSH0 PUSH2 0x4E9C PUSH1 0x13 DUP4 PUSH2 0x48AF JUMP JUMPDEST SWAP2 POP PUSH2 0x4EA7 DUP3 PUSH2 0x4E68 JUMP JUMPDEST PUSH1 0x20 DUP3 ADD SWAP1 POP SWAP2 SWAP1 POP JUMP JUMPDEST PUSH0 PUSH1 0x20 DUP3 ADD SWAP1 POP DUP2 DUP2 SUB PUSH0 DUP4 ADD MSTORE PUSH2 0x4EC9 DUP2 PUSH2 0x4E90 JUMP JUMPDEST SWAP1 POP SWAP2 SWAP1 POP JUMP JUMPDEST PUSH32 0x4E487B7100000000000000000000000000000000000000000000000000000000 PUSH0 MSTORE PUSH1 0x11 PUSH1 0x4 MSTORE PUSH1 0x24 PUSH0 REVERT JUMPDEST PUSH0 PUSH2 0x4F07 DUP3 PUSH2 0x42C3 JUMP JUMPDEST SWAP2 POP PUSH2 0x4F12 DUP4 PUSH2 0x42C3 JUMP JUMPDEST SWAP3 POP DUP3 DUP3 SUB SWAP1 POP DUP2 DUP2 GT ISZERO PUSH2 0x4F2A JUMPI PUSH2 0x4F29 PUSH2 0x4ED0 JUMP JUMPDEST JUMPDEST SWAP3 SWAP2 POP POP JUMP JUMPDEST PUSH0 PUSH1 0x40 DUP3 ADD SWAP1 POP PUSH2 0x4F43 PUSH0 DUP4 ADD DUP6 PUSH2 0x4882 JUMP JUMPDEST PUSH2 0x4F50 PUSH1 0x20 DUP4 ADD DUP5 PUSH2 0x42CC JUMP JUMPDEST SWAP4 SWAP3 POP POP POP JUMP JUMPDEST PUSH0 PUSH2 0x4F61 DUP3 PUSH2 0x42C3 JUMP JUMPDEST SWAP2 POP PUSH32 0xFFFFFFFFFFFFFFFFFFFFFFFFFFFFFFFFFFFFFFFFFFFFFFFFFFFFFFFFFFFFFFFF DUP3 SUB PUSH2 0x4F93 JUMPI PUSH2 0x4F92 PUSH2 0x4ED0 JUMP JUMPDEST JUMPDEST PUSH1 0x1 DUP3 ADD SWAP1 POP SWAP2 SWAP1 POP JUMP JUMPDEST PUSH32 0x4E487B7100000000000000000000000000000000000000000000000000000000 PUSH0 MSTORE PUSH1 0x22 PUSH1 0x4 MSTORE PUSH1 0x24 PUSH0 REVERT JUMPDEST PUSH0 PUSH1 0x2 DUP3 DIV SWAP1 POP PUSH1 0x1 DUP3 AND DUP1 PUSH2 0x4FE2 JUMPI PUSH1 0x7F DUP3 AND SWAP2 POP JUMPDEST PUSH1 0x20 DUP3 LT DUP2 SUB PUSH2 0x4FF5 JUMPI PUSH2 0x4FF4 PUSH2 0x4F9E JUMP JUMPDEST JUMPDEST POP SWAP2 SWAP1 POP JUMP JUMPDEST PUSH0 DUP2 SWAP1 POP DUP2 PUSH0 MSTORE PUSH1 0x20 PUSH0 KECCAK256 SWAP1 POP SWAP2 SWAP1 POP JUMP JUMPDEST PUSH0 PUSH1 0x20 PUSH1 0x1F DUP4 ADD DIV SWAP1 POP SWAP2 SWAP1 POP JUMP JUMPDEST PUSH0 DUP3 DUP3 SHL SWAP1 POP SWAP3 SWAP2 POP POP JUMP JUMPDEST PUSH0 PUSH1 0x8 DUP4 MUL PUSH2 0x5057 PUSH32 0xFFFFFFFFFFFFFFFFFFFFFFFFFFFFFFFFFFFFFFFFFFFFFFFFFFFFFFFFFFFFFFFF DUP3 PUSH2 0x501C JUMP JUMPDEST PUSH2 0x5061 DUP7 DUP4 PUSH2 0x501C JUMP JUMPDEST SWAP6 POP DUP1 NOT DUP5 AND SWAP4 POP DUP1 DUP7 AND DUP5 OR SWAP3 POP POP POP SWAP4 SWAP3 POP POP POP JUMP JUMPDEST PUSH0 PUSH2 0x5093 PUSH2 0x508E PUSH2 0x5089 DUP5 PUSH2 0x42C3 JUMP JUMPDEST PUSH2 0x41E9 JUMP JUMPDEST PUSH2 0x42C3 JUMP JUMPDEST SWAP1 POP SWAP2 SWAP1 POP JUMP JUMPDEST PUSH0 DUP2 SWAP1 POP SWAP2 SWAP1 POP JUMP JUMPDEST PUSH2 0x50AC DUP4 PUSH2 0x5079 JUMP JUMPDEST PUSH2 0x50C0 PUSH2 0x50B8 DUP3 PUSH2 0x509A JUMP JUMPDEST DUP5 DUP5 SLOAD PUSH2 0x5028 JUMP JUMPDEST DUP3 SSTORE POP POP POP POP JUMP JUMPDEST PUSH0 PUSH0 SWAP1 POP SWAP1 JUMP JUMPDEST PUSH2 0x50D7 PUSH2 0x50C8 JUMP JUMPDEST PUSH2 0x50E2 DUP2 DUP5 DUP5 PUSH2 0x50A3 JUMP JUMPDEST POP POP POP JUMP JUMPDEST JUMPDEST DUP2 DUP2 LT ISZERO PUSH2 0x5105 JUMPI PUSH2 0x50FA PUSH0 DUP3 PUSH2 0x50CF JUMP JUMPDEST PUSH1 0x1 DUP2 ADD SWAP1 POP PUSH2 0x50E8 JUMP JUMPDEST POP POP JUMP JUMPDEST PUSH1 0x1F DUP3 GT ISZERO PUSH2 0x514A JUMPI PUSH2 0x511B DUP2 PUSH2 0x4FFB JUMP JUMPDEST PUSH2 0x5124 DUP5 PUSH2 0x500D JUMP JUMPDEST DUP2 ADD PUSH1 0x20 DUP6 LT ISZERO PUSH2 0x5133 JUMPI DUP2 SWAP1 POP JUMPDEST PUSH2 0x5147 PUSH2 0x513F DUP6 PUSH2 0x500D JUMP JUMPDEST DUP4 ADD DUP3 PUSH2 0x50E7 JUMP JUMPDEST POP POP JUMPDEST POP POP POP JUMP JUMPDEST PUSH0 DUP3 DUP3 SHR SWAP1 POP SWAP3 SWAP2 POP POP JUMP JUMPDEST PUSH0 PUSH2 0x516A PUSH0 NOT DUP5 PUSH1 0x8 MUL PUSH2 0x514F JUMP JUMPDEST NOT DUP1 DUP4 AND SWAP2 POP POP SWAP3 SWAP2 POP POP JUMP JUMPDEST PUSH0 PUSH2 0x5182 DUP4 DUP4 PUSH2 0x515B JUMP JUMPDEST SWAP2 POP DUP3 PUSH1 0x2 MUL DUP3 OR SWAP1 POP SWAP3 SWAP2 POP POP JUMP JUMPDEST PUSH2 0x519B DUP3 PUSH2 0x4644 JUMP JUMPDEST PUSH8 0xFFFFFFFFFFFFFFFF DUP2 GT ISZERO PUSH2 0x51B4 JUMPI PUSH2 0x51B3 PUSH2 0x4C27 JUMP JUMPDEST JUMPDEST PUSH2 0x51BE DUP3 SLOAD PUSH2 0x4FCB JUMP JUMPDEST PUSH2 0x51C9 DUP3 DUP3 DUP6 PUSH2 0x5109 JUMP JUMPDEST PUSH0 PUSH1 0x20 SWAP1 POP PUSH1 0x1F DUP4 GT PUSH1 0x1 DUP2 EQ PUSH2 0x51FA JUMPI PUSH0 DUP5 ISZERO PUSH2 0x51E8 JUMPI DUP3 DUP8 ADD MLOAD SWAP1 POP JUMPDEST PUSH2 0x51F2 DUP6 DUP3 PUSH2 0x5177 JUMP JUMPDEST DUP7 SSTORE POP PUSH2 0x5259 JUMP JUMPDEST PUSH1 0x1F NOT DUP5 AND PUSH2 0x5208 DUP7 PUSH2 0x4FFB JUMP JUMPDEST PUSH0 JUMPDEST DUP3 DUP2 LT ISZERO PUSH2 0x522F JUMPI DUP5 DUP10 ADD MLOAD DUP3 SSTORE PUSH1 0x1 DUP3 ADD SWAP2 POP PUSH1 0x20 DUP6 ADD SWAP5 POP PUSH1 0x20 DUP2 ADD SWAP1 POP PUSH2 0x520A JUMP JUMPDEST DUP7 DUP4 LT ISZERO PUSH2 0x524C JUMPI DUP5 DUP10 ADD MLOAD PUSH2 0x5248 PUSH1 0x1F DUP10 AND DUP3 PUSH2 0x515B JUMP JUMPDEST DUP4 SSTORE POP JUMPDEST PUSH1 0x1 PUSH1 0x2 DUP9 MUL ADD DUP9 SSTORE POP POP POP JUMPDEST POP POP POP POP POP POP JUMP JUMPDEST PUSH0 PUSH1 0x80 DUP3 ADD SWAP1 POP PUSH2 0x5274 PUSH0 DUP4 ADD DUP8 PUSH2 0x42CC JUMP JUMPDEST PUSH2 0x5281 PUSH1 0x20 DUP4 ADD DUP7 PUSH2 0x4891 JUMP JUMPDEST PUSH2 0x528E PUSH1 0x40 DUP4 ADD DUP6 PUSH2 0x48A0 JUMP JUMPDEST PUSH2 0x529B PUSH1 0x60 DUP4 ADD DUP5 PUSH2 0x42CC JUMP JUMPDEST SWAP6 SWAP5 POP POP POP POP POP JUMP JUMPDEST PUSH32 0x4F6E6C7920706179726F6C6C20636F72652063616E2063616C6C000000000000 PUSH0 DUP3 ADD MSTORE POP JUMP JUMPDEST PUSH0 PUSH2 0x52D8 PUSH1 0x1A DUP4 PUSH2 0x48AF JUMP JUMPDEST SWAP2 POP PUSH2 0x52E3 DUP3 PUSH2 0x52A4 JUMP JUMPDEST PUSH1 0x20 DUP3 ADD SWAP1 POP SWAP2 SWAP1 POP JUMP JUMPDEST PUSH0 PUSH1 0x20 DUP3 ADD SWAP1 POP DUP2 DUP2 SUB PUSH0 DUP4 ADD MSTORE PUSH2 0x5305 DUP2 PUSH2 0x52CC JUMP JUMPDEST SWAP1 POP SWAP2 SWAP1 POP JUMP JUMPDEST PUSH32 0x496E76616C6964207061796D656E742049440000000000000000000000000000 PUSH0 DUP3 ADD MSTORE POP JUMP JUMPDEST PUSH0 PUSH2 0x5340 PUSH1 0x12 DUP4 PUSH2 0x48AF JUMP JUMPDEST SWAP2 POP PUSH2 0x534B DUP3 PUSH2 0x530C JUMP JUMPDEST PUSH1 0x20 DUP3 ADD SWAP1 POP SWAP2 SWAP1 POP JUMP JUMPDEST PUSH0 PUSH1 0x20 DUP3 ADD SWAP1 POP DUP2 DUP2 SUB PUSH0 DUP4 ADD MSTORE PUSH2 0x536D DUP2 PUSH2 0x5334 JUMP JUMPDEST SWAP1 POP SWAP2 SWAP1 POP JUMP JUMPDEST PUSH32 0x4E487B7100000000000000000000000000000000000000000000000000000000 PUSH0 MSTORE PUSH1 0x32 PUSH1 0x4 MSTORE PUSH1 0x24 PUSH0 REVERT JUMPDEST PUSH32 0x5061796D656E74206E6F74206661696C65640000000000000000000000000000 PUSH0 DUP3 ADD MSTORE POP JUMP JUMPDEST PUSH0 PUSH2 0x53D5 PUSH1 0x12 DUP4 PUSH2 0x48AF JUMP JUMPDEST SWAP2 POP PUSH2 0x53E0 DUP3 PUSH2 0x53A1 JUMP JUMPDEST PUSH1 0x20 DUP3 ADD SWAP1 POP SWAP2 SWAP1 POP JUMP JUMPDEST PUSH0 PUSH1 0x20 DUP3 ADD SWAP1 POP DUP2 DUP2 SUB PUSH0 DUP4 ADD MSTORE PUSH2 0x5402 DUP2 PUSH2 0x53C9 JUMP JUMPDEST SWAP1 POP SWAP2 SWAP1 POP JUMP JUMPDEST PUSH32 0x4D61782072657472696573206578636565646564000000000000000000000000 PUSH0 DUP3 ADD MSTORE POP JUMP JUMPDEST PUSH0 PUSH2 0x543D PUSH1 0x14 DUP4 PUSH2 0x48AF JUMP JUMPDEST SWAP2 POP PUSH2 0x5448 DUP3 PUSH2 0x5409 JUMP JUMPDEST PUSH1 0x20 DUP3 ADD SWAP1 POP SWAP2 SWAP1 POP JUMP JUMPDEST PUSH0 PUSH1 0x20 DUP3 ADD SWAP1 POP DUP2 DUP2 SUB PUSH0 DUP4 ADD MSTORE PUSH2 0x546A DUP2 PUSH2 0x5431 JUMP JUMPDEST SWAP1 POP SWAP2 SWAP1 POP JUMP JUMPDEST PUSH0 PUSH2 0x547B DUP3 PUSH2 0x42C3 JUMP JUMPDEST SWAP2 POP PUSH2 0x5486 DUP4 PUSH2 0x42C3 JUMP JUMPDEST SWAP3 POP DUP3 DUP3 ADD SWAP1 POP DUP1 DUP3 GT ISZERO PUSH2 0x549E JUMPI PUSH2 0x549D PUSH2 0x4ED0 JUMP JUMPDEST JUMPDEST SWAP3 SWAP2 POP POP JUMP JUMPDEST PUSH0 PUSH2 0x54AE DUP3 PUSH2 0x42C3 JUMP JUMPDEST SWAP2 POP PUSH2 0x54B9 DUP4 PUSH2 0x42C3 JUMP JUMPDEST SWAP3 POP DUP3 DUP3 MUL PUSH2 0x54C7 DUP2 PUSH2 0x42C3 JUMP JUMPDEST SWAP2 POP DUP3 DUP3 DIV DUP5 EQ DUP4 ISZERO OR PUSH2 0x54DE JUMPI PUSH2 0x54DD PUSH2 0x4ED0 JUMP JUMPDEST JUMPDEST POP SWAP3 SWAP2 POP POP JUMP JUMPDEST PUSH32 0x52657472792064656C6179206E6F74206D657400000000000000000000000000 PUSH0 DUP3 ADD MSTORE POP JUMP JUMPDEST PUSH0 PUSH2 0x5519 PUSH1 0x13 DUP4 PUSH2 0x48AF JUMP JUMPDEST SWAP2 POP PUSH2 0x5524 DUP3 PUSH2 0x54E5 JUMP JUMPDEST PUSH1 0x20 DUP3 ADD SWAP1 POP SWAP2 SWAP1 POP JUMP JUMPDEST PUSH0 PUSH1 0x20 DUP3 ADD SWAP1 POP DUP2 DUP2 SUB PUSH0 DUP4 ADD MSTORE PUSH2 0x5546 DUP2 PUSH2 0x550D JUMP JUMPDEST SWAP1 POP SWAP2 SWAP1 POP JUMP JUMPDEST PUSH0 PUSH2 0x5557 DUP3 PUSH2 0x42C3 JUMP JUMPDEST SWAP2 POP PUSH0 DUP3 SUB PUSH2 0x5569 JUMPI PUSH2 0x5568 PUSH2 0x4ED0 JUMP JUMPDEST JUMPDEST PUSH1 0x1 DUP3 SUB SWAP1 POP SWAP2 SWAP1 POP JUMP JUMPDEST PUSH0 PUSH1 0x40 DUP3 ADD SWAP1 POP PUSH2 0x5587 PUSH0 DUP4 ADD DUP6 PUSH2 0x42CC JUMP JUMPDEST PUSH2 0x5594 PUSH1 0x20 DUP4 ADD DUP5 PUSH2 0x42CC JUMP JUMPDEST SWAP4 SWAP3 POP POP POP JUMP JUMPDEST PUSH0 PUSH0 REVERT JUMPDEST PUSH0 PUSH8 0xFFFFFFFFFFFFFFFF DUP3 GT ISZERO PUSH2 0x55B9 JUMPI PUSH2 0x55B8 PUSH2 0x4C27 JUMP JUMPDEST JUMPDEST PUSH1 0x20 DUP3 MUL SWAP1 POP PUSH1 0x20 DUP2 ADD SWAP1 POP SWAP2 SWAP1 POP JUMP JUMPDEST PUSH0 PUSH0 REVERT JUMPDEST PUSH0 PUSH2 0x55E0 PUSH2 0x55DB DUP5 PUSH2 0x559F JUMP JUMPDEST PUSH2 0x4C85 JUMP JUMPDEST SWAP1 POP DUP1 DUP4 DUP3 MSTORE PUSH1 0x20 DUP3 ADD SWAP1 POP PUSH1 0x20 DUP5 MUL DUP4 ADD DUP6 DUP2 GT ISZERO PUSH2 0x5603 JUMPI PUSH2 0x5602 PUSH2 0x55CA JUMP JUMPDEST JUMPDEST DUP4 JUMPDEST DUP2 DUP2 LT ISZERO PUSH2 0x562C JUMPI DUP1 PUSH2 0x5618 DUP9 DUP3 PUSH2 0x4C9F JUMP JUMPDEST DUP5 MSTORE PUSH1 0x20 DUP5 ADD SWAP4 POP POP PUSH1 0x20 DUP2 ADD SWAP1 POP PUSH2 0x5605 JUMP JUMPDEST POP POP POP SWAP4 SWAP3 POP POP POP JUMP JUMPDEST PUSH0 DUP3 PUSH1 0x1F DUP4 ADD SLT PUSH2 0x564A JUMPI PUSH2 0x5649 PUSH2 0x559B JUMP JUMPDEST JUMPDEST DUP2 MLOAD PUSH2 0x565A DUP5 DUP3 PUSH1 0x20 DUP7 ADD PUSH2 0x55CE JUMP JUMPDEST SWAP2 POP POP SWAP3 SWAP2 POP POP JUMP JUMPDEST PUSH0 PUSH1 0x20 DUP3 DUP5 SUB SLT ISZERO PUSH2 0x5678 JUMPI PUSH2 0x5677 PUSH2 0x410F JUMP JUMPDEST JUMPDEST PUSH0 DUP3 ADD MLOAD PUSH8 0xFFFFFFFFFFFFFFFF DUP2 GT ISZERO PUSH2 0x5695 JUMPI PUSH2 0x5694 PUSH2 0x4113 JUMP JUMPDEST JUMPDEST PUSH2 0x56A1 DUP5 DUP3 DUP6 ADD PUSH2 0x5636 JUMP JUMPDEST SWAP2 POP POP SWAP3 SWAP2 POP POP JUMP JUMPDEST PUSH0 PUSH1 0x20 DUP3 DUP5 SUB SLT ISZERO PUSH2 0x56BF JUMPI PUSH2 0x56BE PUSH2 0x410F JUMP JUMPDEST JUMPDEST PUSH0 PUSH2 0x56CC DUP5 DUP3 DUP6 ADD PUSH2 0x4CB3 JUMP JUMPDEST SWAP2 POP POP SWAP3 SWAP2 POP POP JUMP JUMPDEST PUSH0 PUSH1 0x60 DUP3 ADD SWAP1 POP PUSH2 0x56E8 PUSH0 DUP4 ADD DUP7 PUSH2 0x42CC JUMP JUMPDEST PUSH2 0x56F5 PUSH1 0x20 DUP4 ADD DUP6 PUSH2 0x42CC JUMP JUMPDEST PUSH2 0x5702 PUSH1 0x40 DUP4 ADD DUP5 PUSH2 0x42CC JUMP JUMPDEST SWAP5 SWAP4 POP POP POP POP JUMP JUMPDEST PUSH32 0x5343484544554C45445F5041594D454E54535F50524F43455353454400000000 PUSH0 DUP3 ADD MSTORE POP JUMP JUMPDEST PUSH0 PUSH2 0x573E PUSH1 0x1C DUP4 PUSH2 0x48AF JUMP JUMPDEST SWAP2 POP PUSH2 0x5749 DUP3 PUSH2 0x570A JUMP JUMPDEST PUSH1 0x20 DUP3 ADD SWAP1 POP SWAP2 SWAP1 POP JUMP JUMPDEST PUSH0 DUP2 MLOAD SWAP1 POP SWAP2 SWAP1 POP JUMP JUMPDEST PUSH0 DUP3 DUP3 MSTORE PUSH1 0x20 DUP3 ADD SWAP1 POP SWAP3 SWAP2 POP POP JUMP JUMPDEST PUSH0 PUSH2 0x5778 DUP3 PUSH2 0x5754 JUMP JUMPDEST PUSH2 0x5782 DUP2 DUP6 PUSH2 0x575E JUMP JUMPDEST SWAP4 POP PUSH2 0x5792 DUP2 DUP6 PUSH1 0x20 DUP7 ADD PUSH2 0x465E JUMP JUMPDEST PUSH2 0x579B DUP2 PUSH2 0x466C JUMP JUMPDEST DUP5 ADD SWAP2 POP POP SWAP3 SWAP2 POP POP JUMP JUMPDEST PUSH0 PUSH1 0x60 DUP3 ADD SWAP1 POP PUSH2 0x57B9 PUSH0 DUP4 ADD DUP6 PUSH2 0x4882 JUMP JUMPDEST DUP2 DUP2 SUB PUSH1 0x20 DUP4 ADD MSTORE PUSH2 0x57CA DUP2 PUSH2 0x5732 JUMP JUMPDEST SWAP1 POP DUP2 DUP2 SUB PUSH1 0x40 DUP4 ADD MSTORE PUSH2 0x57DE DUP2 DUP5 PUSH2 0x576E JUMP JUMPDEST SWAP1 POP SWAP4 SWAP3 POP POP POP JUMP JUMPDEST PUSH0 PUSH1 0x60 DUP3 ADD SWAP1 POP PUSH2 0x57FA PUSH0 DUP4 ADD DUP7 PUSH2 0x4882 JUMP JUMPDEST PUSH2 0x5807 PUSH1 0x20 DUP4 ADD DUP6 PUSH2 0x4882 JUMP JUMPDEST PUSH2 0x5814 PUSH1 0x40 DUP4 ADD DUP5 PUSH2 0x42CC JUMP JUMPDEST SWAP5 SWAP4 POP POP POP POP JUMP JUMPDEST PUSH32 0x5265656E7472616E637947756172643A207265656E7472616E742063616C6C00 PUSH0 DUP3 ADD MSTORE POP JUMP JUMPDEST PUSH0 PUSH2 0x5850 PUSH1 0x1F DUP4 PUSH2 0x48AF JUMP JUMPDEST SWAP2 POP PUSH2 0x585B DUP3 PUSH2 0x581C JUMP JUMPDEST PUSH1 0x20 DUP3 ADD SWAP1 POP SWAP2 SWAP1 POP JUMP JUMPDEST PUSH0 PUSH1 0x20 DUP3 ADD SWAP1 POP DUP2 DUP2 SUB PUSH0 DUP4 ADD MSTORE PUSH2 0x587D DUP2 PUSH2 0x5844 JUMP JUMPDEST SWAP1 POP SWAP2 SWAP1 POP JUMP JUMPDEST PUSH0 DUP2 PUSH1 0x60 SHL SWAP1 POP SWAP2 SWAP1 POP JUMP JUMPDEST PUSH0 PUSH2 0x589A DUP3 PUSH2 0x5884 JUMP JUMPDEST SWAP1 POP SWAP2 SWAP1 POP JUMP JUMPDEST PUSH0 PUSH2 0x58AB DUP3 PUSH2 0x5890 JUMP JUMPDEST SWAP1 POP SWAP2 SWAP1 POP JUMP JUMPDEST PUSH2 0x58C3 PUSH2 0x58BE DUP3 PUSH2 0x425D JUMP JUMPDEST PUSH2 0x58A1 JUMP JUMPDEST DUP3 MSTORE POP POP JUMP JUMPDEST PUSH0 DUP2 SWAP1 POP SWAP2 SWAP1 POP JUMP JUMPDEST PUSH2 0x58E3 PUSH2 0x58DE DUP3 PUSH2 0x42C3 JUMP JUMPDEST PUSH2 0x58C9 JUMP JUMPDEST DUP3 MSTORE POP POP JUMP JUMPDEST PUSH0 PUSH2 0x58F4 DUP3 DUP8 PUSH2 0x58B2 JUMP JUMPDEST PUSH1 0x14 DUP3 ADD SWAP2 POP PUSH2 0x5904 DUP3 DUP7 PUSH2 0x58D2 JUMP JUMPDEST PUSH1 0x20 DUP3 ADD SWAP2 POP PUSH2 0x5914 DUP3 DUP6 PUSH2 0x58B2 JUMP JUMPDEST PUSH1 0x14 DUP3 ADD SWAP2 POP PUSH2 0x5924 DUP3 DUP5 PUSH2 0x58D2 JUMP JUMPDEST PUSH1 0x20 DUP3 ADD SWAP2 POP DUP2 SWAP1 POP SWAP6 SWAP5 POP POP POP POP POP JUMP JUMPDEST PUSH0 PUSH1 0x40 DUP3 ADD SWAP1 POP PUSH2 0x5949 PUSH0 DUP4 ADD DUP6 PUSH2 0x42CC JUMP JUMPDEST DUP2 DUP2 SUB PUSH1 0x20 DUP4 ADD MSTORE PUSH2 0x595B DUP2 DUP5 PUSH2 0x48BF JUMP JUMPDEST SWAP1 POP SWAP4 SWAP3 POP POP POP JUMP JUMPDEST PUSH0 PUSH1 0xA0 DUP3 ADD SWAP1 POP PUSH2 0x5977 PUSH0 DUP4 ADD DUP9 PUSH2 0x4882 JUMP JUMPDEST PUSH2 0x5984 PUSH1 0x20 DUP4 ADD DUP8 PUSH2 0x42CC JUMP JUMPDEST PUSH2 0x5991 PUSH1 0x40 DUP4 ADD DUP7 PUSH2 0x4891 JUMP JUMPDEST PUSH2 0x599E PUSH1 0x60 DUP4 ADD DUP6 PUSH2 0x48A0 JUMP JUMPDEST PUSH2 0x59AB PUSH1 0x80 DUP4 ADD DUP5 PUSH2 0x42CC JUMP JUMPDEST SWAP7 SWAP6 POP POP POP POP POP POP JUMP JUMPDEST PUSH32 0x5041594D454E545F50524F434553534544000000000000000000000000000000 PUSH0 DUP3 ADD MSTORE POP JUMP JUMPDEST PUSH0 PUSH2 0x59E9 PUSH1 0x11 DUP4 PUSH2 0x48AF JUMP JUMPDEST SWAP2 POP PUSH2 0x59F4 DUP3 PUSH2 0x59B5 JUMP JUMPDEST PUSH1 0x20 DUP3 ADD SWAP1 POP SWAP2 SWAP1 POP JUMP JUMPDEST PUSH0 PUSH1 0x60 DUP3 ADD SWAP1 POP PUSH2 0x5A12 PUSH0 DUP4 ADD DUP6 PUSH2 0x4882 JUMP JUMPDEST DUP2 DUP2 SUB PUSH1 0x20 DUP4 ADD MSTORE PUSH2 0x5A23 DUP2 PUSH2 0x59DD JUMP JUMPDEST SWAP1 POP DUP2 DUP2 SUB PUSH1 0x40 DUP4 ADD MSTORE PUSH2 0x5A37 DUP2 DUP5 PUSH2 0x576E JUMP JUMPDEST SWAP1 POP SWAP4 SWAP3 POP POP POP JUMP JUMPDEST PUSH0 PUSH1 0x40 DUP3 ADD SWAP1 POP PUSH2 0x5A53 PUSH0 DUP4 ADD DUP6 PUSH2 0x4882 JUMP JUMPDEST PUSH2 0x5A60 PUSH1 0x20 DUP4 ADD DUP5 PUSH2 0x4352 JUMP JUMPDEST SWAP4 SWAP3 POP POP POP JUMP JUMPDEST PUSH0 PUSH1 0xFF DUP3 AND SWAP1 POP SWAP2 SWAP1 POP JUMP JUMPDEST PUSH0 PUSH2 0x5A7D DUP3 PUSH2 0x5A67 JUMP JUMPDEST SWAP2 POP PUSH1 0xFF DUP3 SUB PUSH2 0x5A90 JUMPI PUSH2 0x5A8F PUSH2 0x4ED0 JUMP JUMPDEST JUMPDEST PUSH1 0x1 DUP3 ADD SWAP1 POP SWAP2 SWAP1 POP JUMP INVALID LOG2 PUSH5 0x6970667358 0x22 SLT KECCAK256 SELFDESTRUCT 0xED SAR EXTSTATICCALL 0xCC 0xA5 0xA7 JUMPDEST 0xF6 PUSH30 0x98A3195C36046C539C4537BEECF29719A11C3BAD535464736F6C63430008 0x1E STOP CALLER "
		},
		"gasEstimates": {
			"creation": {
				"codeDepositCost": "4649800",
				"executionCost": "infinite",
				"totalCost": "infinite"
			},
			"external": {
				"ADMIN_ROLE()": "414",
				"DEFAULT_ADMIN_ROLE()": "418",
				"FINANCE_ROLE()": "371",
				"auditLogger()": "infinite",
				"employeeManager()": "infinite",
				"employeePaymentHistory(address,uint256)": "infinite",
				"estimatePaymentGas(address,address,uint256)": "infinite",
				"failedPaymentCount(address)": "2893",
				"getFailedPaymentCount(address)": "2874",
				"getPaymentHistory(address)": "infinite",
				"getPaymentRecord(uint256)": "infinite",
				"getRoleAdmin(bytes32)": "infinite",
				"getTotalPayments()": "2507",
				"grantRole(bytes32,address)": "infinite",
				"hasRole(bytes32,address)": "3232",
				"maxRetryAttempts()": "2514",
				"paymentHistory(uint256)": "infinite",
				"payrollCore()": "2575",
				"processScheduledPayments()": "infinite",
				"processSinglePayment(address,address,uint256,uint8)": "infinite",
				"renounceRole(bytes32,address)": "infinite",
				"retryDelay()": "2535",
				"retryFailedPayment(uint256)": "infinite",
				"revokeRole(bytes32,address)": "infinite",
				"setAuditLogger(address)": "26951",
				"setEmployeeManager(address)": "26974",
				"setMaxRetryAttempts(uint256)": "infinite",
				"setRetryDelay(uint256)": "infinite",
				"setTokenManager(address)": "26995",
				"supportsInterface(bytes4)": "764",
				"tokenManager()": "infinite"
			},
			"internal": {
				"_bytes32ToString(bytes32)": "infinite",
				"_executePayment(struct PaymentExecutor.PaymentRecord memory)": "infinite",
				"_generateReceipt(struct PaymentExecutor.PaymentRecord memory)": "infinite",
				"_logPayment(struct PaymentExecutor.PaymentRecord memory)": "infinite",
				"_processSinglePaymentInternal(address,address,uint256,enum PaymentExecutor.PaymentType)": "infinite"
			}
		},
		"methodIdentifiers": {
			"ADMIN_ROLE()": "75b238fc",
			"DEFAULT_ADMIN_ROLE()": "a217fddf",
			"FINANCE_ROLE()": "349b5954",
			"auditLogger()": "0921224b",
			"employeeManager()": "f649ec87",
			"employeePaymentHistory(address,uint256)": "8b5a3853",
			"estimatePaymentGas(address,address,uint256)": "c7d20e1b",
			"failedPaymentCount(address)": "153244e6",
			"getFailedPaymentCount(address)": "9b101f9a",
			"getPaymentHistory(address)": "7da2ba7c",
			"getPaymentRecord(uint256)": "c1d446be",
			"getRoleAdmin(bytes32)": "248a9ca3",
			"getTotalPayments()": "708f29a6",
			"grantRole(bytes32,address)": "2f2ff15d",
			"hasRole(bytes32,address)": "91d14854",
			"maxRetryAttempts()": "bbd8acbe",
			"paymentHistory(uint256)": "a5e047b8",
			"payrollCore()": "a1c7c1a6",
			"processScheduledPayments()": "acefc3e7",
			"processSinglePayment(address,address,uint256,uint8)": "315873ff",
			"renounceRole(bytes32,address)": "36568abe",
			"retryDelay()": "fb511477",
			"retryFailedPayment(uint256)": "526777e9",
			"revokeRole(bytes32,address)": "d547741f",
			"setAuditLogger(address)": "ade77ad3",
			"setEmployeeManager(address)": "460515a1",
			"setMaxRetryAttempts(uint256)": "59502d1f",
			"setRetryDelay(uint256)": "8d7d2bd7",
			"setTokenManager(address)": "7cb2b79c",
			"supportsInterface(bytes4)": "01ffc9a7",
			"tokenManager()": "2a709b14"
		}
	},
	"abi": [
		{
			"inputs": [
				{
					"internalType": "address",
					"name": "_payrollCore",
					"type": "address"
				}
			],
			"stateMutability": "nonpayable",
			"type": "constructor"
		},
		{
			"inputs": [],
			"name": "AccessControlBadConfirmation",
			"type": "error"
		},
		{
			"inputs": [
				{
					"internalType": "address",
					"name": "account",
					"type": "address"
				},
				{
					"internalType": "bytes32",
					"name": "neededRole",
					"type": "bytes32"
				}
			],
			"name": "AccessControlUnauthorizedAccount",
			"type": "error"
		},
		{
			"anonymous": false,
			"inputs": [
				{
					"indexed": true,
					"internalType": "address",
					"name": "employee",
					"type": "address"
				},
				{
					"indexed": true,
					"internalType": "address",
					"name": "token",
					"type": "address"
				},
				{
					"indexed": false,
					"internalType": "uint256",
					"name": "amount",
					"type": "uint256"
				},
				{
					"indexed": false,
					"internalType": "string",
					"name": "reason",
					"type": "string"
				},
				{
					"indexed": false,
					"internalType": "uint256",
					"name": "retryCount",
					"type": "uint256"
				}
			],
			"name": "PaymentFailed",
			"type": "event"
		},
		{
			"anonymous": false,
			"inputs": [
				{
					"indexed": true,
					"internalType": "address",
					"name": "employee",
					"type": "address"
				},
				{
					"indexed": true,
					"internalType": "address",
					"name": "token",
					"type": "address"
				},
				{
					"indexed": false,
					"internalType": "uint256",
					"name": "amount",
					"type": "uint256"
				},
				{
					"indexed": false,
					"internalType": "enum PaymentExecutor.PaymentType",
					"name": "paymentType",
					"type": "uint8"
				},
				{
					"indexed": false,
					"internalType": "enum PaymentExecutor.PaymentStatus",
					"name": "status",
					"type": "uint8"
				},
				{
					"indexed": false,
					"internalType": "uint256",
					"name": "gasUsed",
					"type": "uint256"
				}
			],
			"name": "PaymentProcessed",
			"type": "event"
		},
		{
			"anonymous": false,
			"inputs": [
				{
					"indexed": true,
					"internalType": "address",
					"name": "employee",
					"type": "address"
				},
				{
					"indexed": false,
					"internalType": "uint256",
					"name": "paymentId",
					"type": "uint256"
				},
				{
					"indexed": false,
					"internalType": "uint256",
					"name": "retryCount",
					"type": "uint256"
				}
			],
			"name": "PaymentRetried",
			"type": "event"
		},
		{
			"anonymous": false,
			"inputs": [
				{
					"indexed": true,
					"internalType": "address",
					"name": "employee",
					"type": "address"
				},
				{
					"indexed": false,
					"internalType": "uint256",
					"name": "paymentId",
					"type": "uint256"
				},
				{
					"indexed": false,
					"internalType": "string",
					"name": "ipfsHash",
					"type": "string"
				}
			],
			"name": "ReceiptGenerated",
			"type": "event"
		},
		{
			"anonymous": false,
			"inputs": [
				{
					"indexed": true,
					"internalType": "bytes32",
					"name": "role",
					"type": "bytes32"
				},
				{
					"indexed": true,
					"internalType": "bytes32",
					"name": "previousAdminRole",
					"type": "bytes32"
				},
				{
					"indexed": true,
					"internalType": "bytes32",
					"name": "newAdminRole",
					"type": "bytes32"
				}
			],
			"name": "RoleAdminChanged",
			"type": "event"
		},
		{
			"anonymous": false,
			"inputs": [
				{
					"indexed": true,
					"internalType": "bytes32",
					"name": "role",
					"type": "bytes32"
				},
				{
					"indexed": true,
					"internalType": "address",
					"name": "account",
					"type": "address"
				},
				{
					"indexed": true,
					"internalType": "address",
					"name": "sender",
					"type": "address"
				}
			],
			"name": "RoleGranted",
			"type": "event"
		},
		{
			"anonymous": false,
			"inputs": [
				{
					"indexed": true,
					"internalType": "bytes32",
					"name": "role",
					"type": "bytes32"
				},
				{
					"indexed": true,
					"internalType": "address",
					"name": "account",
					"type": "address"
				},
				{
					"indexed": true,
					"internalType": "address",
					"name": "sender",
					"type": "address"
				}
			],
			"name": "RoleRevoked",
			"type": "event"
		},
		{
			"inputs": [],
			"name": "ADMIN_ROLE",
			"outputs": [
				{
					"internalType": "bytes32",
					"name": "",
					"type": "bytes32"
				}
			],
			"stateMutability": "view",
			"type": "function"
		},
		{
			"inputs": [],
			"name": "DEFAULT_ADMIN_ROLE",
			"outputs": [
				{
					"internalType": "bytes32",
					"name": "",
					"type": "bytes32"
				}
			],
			"stateMutability": "view",
			"type": "function"
		},
		{
			"inputs": [],
			"name": "FINANCE_ROLE",
			"outputs": [
				{
					"internalType": "bytes32",
					"name": "",
					"type": "bytes32"
				}
			],
			"stateMutability": "view",
			"type": "function"
		},
		{
			"inputs": [],
			"name": "auditLogger",
			"outputs": [
				{
					"internalType": "contract AuditLogger",
					"name": "",
					"type": "address"
				}
			],
			"stateMutability": "view",
			"type": "function"
		},
		{
			"inputs": [],
			"name": "employeeManager",
			"outputs": [
				{
					"internalType": "contract EmployeeManager",
					"name": "",
					"type": "address"
				}
			],
			"stateMutability": "view",
			"type": "function"
		},
		{
			"inputs": [
				{
					"internalType": "address",
					"name": "",
					"type": "address"
				},
				{
					"internalType": "uint256",
					"name": "",
					"type": "uint256"
				}
			],
			"name": "employeePaymentHistory",
			"outputs": [
				{
					"internalType": "address",
					"name": "employee",
					"type": "address"
				},
				{
					"internalType": "address",
					"name": "token",
					"type": "address"
				},
				{
					"internalType": "uint256",
					"name": "amount",
					"type": "uint256"
				},
				{
					"internalType": "uint256",
					"name": "timestamp",
					"type": "uint256"
				},
				{
					"internalType": "enum PaymentExecutor.PaymentType",
					"name": "paymentType",
					"type": "uint8"
				},
				{
					"internalType": "enum PaymentExecutor.PaymentStatus",
					"name": "status",
					"type": "uint8"
				},
				{
					"internalType": "string",
					"name": "receiptHash",
					"type": "string"
				},
				{
					"internalType": "uint256",
					"name": "gasUsed",
					"type": "uint256"
				},
				{
					"internalType": "uint256",
					"name": "retryCount",
					"type": "uint256"
				},
				{
					"internalType": "string",
					"name": "failureReason",
					"type": "string"
				}
			],
			"stateMutability": "view",
			"type": "function"
		},
		{
			"inputs": [
				{
					"internalType": "address",
					"name": "_token",
					"type": "address"
				},
				{
					"internalType": "address",
					"name": "_employee",
					"type": "address"
				},
				{
					"internalType": "uint256",
					"name": "_amount",
					"type": "uint256"
				}
			],
			"name": "estimatePaymentGas",
			"outputs": [
				{
					"internalType": "uint256",
					"name": "",
					"type": "uint256"
				}
			],
			"stateMutability": "view",
			"type": "function"
		},
		{
			"inputs": [
				{
					"internalType": "address",
					"name": "",
					"type": "address"
				}
			],
			"name": "failedPaymentCount",
			"outputs": [
				{
					"internalType": "uint256",
					"name": "",
					"type": "uint256"
				}
			],
			"stateMutability": "view",
			"type": "function"
		},
		{
			"inputs": [
				{
					"internalType": "address",
					"name": "_employee",
					"type": "address"
				}
			],
			"name": "getFailedPaymentCount",
			"outputs": [
				{
					"internalType": "uint256",
					"name": "",
					"type": "uint256"
				}
			],
			"stateMutability": "view",
			"type": "function"
		},
		{
			"inputs": [
				{
					"internalType": "address",
					"name": "_employee",
					"type": "address"
				}
			],
			"name": "getPaymentHistory",
			"outputs": [
				{
					"components": [
						{
							"internalType": "address",
							"name": "employee",
							"type": "address"
						},
						{
							"internalType": "address",
							"name": "token",
							"type": "address"
						},
						{
							"internalType": "uint256",
							"name": "amount",
							"type": "uint256"
						},
						{
							"internalType": "uint256",
							"name": "timestamp",
							"type": "uint256"
						},
						{
							"internalType": "enum PaymentExecutor.PaymentType",
							"name": "paymentType",
							"type": "uint8"
						},
						{
							"internalType": "enum PaymentExecutor.PaymentStatus",
							"name": "status",
							"type": "uint8"
						},
						{
							"internalType": "string",
							"name": "receiptHash",
							"type": "string"
						},
						{
							"internalType": "uint256",
							"name": "gasUsed",
							"type": "uint256"
						},
						{
							"internalType": "uint256",
							"name": "retryCount",
							"type": "uint256"
						},
						{
							"internalType": "string",
							"name": "failureReason",
							"type": "string"
						}
					],
					"internalType": "struct PaymentExecutor.PaymentRecord[]",
					"name": "",
					"type": "tuple[]"
				}
			],
			"stateMutability": "view",
			"type": "function"
		},
		{
			"inputs": [
				{
					"internalType": "uint256",
					"name": "_paymentId",
					"type": "uint256"
				}
			],
			"name": "getPaymentRecord",
			"outputs": [
				{
					"components": [
						{
							"internalType": "address",
							"name": "employee",
							"type": "address"
						},
						{
							"internalType": "address",
							"name": "token",
							"type": "address"
						},
						{
							"internalType": "uint256",
							"name": "amount",
							"type": "uint256"
						},
						{
							"internalType": "uint256",
							"name": "timestamp",
							"type": "uint256"
						},
						{
							"internalType": "enum PaymentExecutor.PaymentType",
							"name": "paymentType",
							"type": "uint8"
						},
						{
							"internalType": "enum PaymentExecutor.PaymentStatus",
							"name": "status",
							"type": "uint8"
						},
						{
							"internalType": "string",
							"name": "receiptHash",
							"type": "string"
						},
						{
							"internalType": "uint256",
							"name": "gasUsed",
							"type": "uint256"
						},
						{
							"internalType": "uint256",
							"name": "retryCount",
							"type": "uint256"
						},
						{
							"internalType": "string",
							"name": "failureReason",
							"type": "string"
						}
					],
					"internalType": "struct PaymentExecutor.PaymentRecord",
					"name": "",
					"type": "tuple"
				}
			],
			"stateMutability": "view",
			"type": "function"
		},
		{
			"inputs": [
				{
					"internalType": "bytes32",
					"name": "role",
					"type": "bytes32"
				}
			],
			"name": "getRoleAdmin",
			"outputs": [
				{
					"internalType": "bytes32",
					"name": "",
					"type": "bytes32"
				}
			],
			"stateMutability": "view",
			"type": "function"
		},
		{
			"inputs": [],
			"name": "getTotalPayments",
			"outputs": [
				{
					"internalType": "uint256",
					"name": "",
					"type": "uint256"
				}
			],
			"stateMutability": "view",
			"type": "function"
		},
		{
			"inputs": [
				{
					"internalType": "bytes32",
					"name": "role",
					"type": "bytes32"
				},
				{
					"internalType": "address",
					"name": "account",
					"type": "address"
				}
			],
			"name": "grantRole",
			"outputs": [],
			"stateMutability": "nonpayable",
			"type": "function"
		},
		{
			"inputs": [
				{
					"internalType": "bytes32",
					"name": "role",
					"type": "bytes32"
				},
				{
					"internalType": "address",
					"name": "account",
					"type": "address"
				}
			],
			"name": "hasRole",
			"outputs": [
				{
					"internalType": "bool",
					"name": "",
					"type": "bool"
				}
			],
			"stateMutability": "view",
			"type": "function"
		},
		{
			"inputs": [],
			"name": "maxRetryAttempts",
			"outputs": [
				{
					"internalType": "uint256",
					"name": "",
					"type": "uint256"
				}
			],
			"stateMutability": "view",
			"type": "function"
		},
		{
			"inputs": [
				{
					"internalType": "uint256",
					"name": "",
					"type": "uint256"
				}
			],
			"name": "paymentHistory",
			"outputs": [
				{
					"internalType": "address",
					"name": "employee",
					"type": "address"
				},
				{
					"internalType": "address",
					"name": "token",
					"type": "address"
				},
				{
					"internalType": "uint256",
					"name": "amount",
					"type": "uint256"
				},
				{
					"internalType": "uint256",
					"name": "timestamp",
					"type": "uint256"
				},
				{
					"internalType": "enum PaymentExecutor.PaymentType",
					"name": "paymentType",
					"type": "uint8"
				},
				{
					"internalType": "enum PaymentExecutor.PaymentStatus",
					"name": "status",
					"type": "uint8"
				},
				{
					"internalType": "string",
					"name": "receiptHash",
					"type": "string"
				},
				{
					"internalType": "uint256",
					"name": "gasUsed",
					"type": "uint256"
				},
				{
					"internalType": "uint256",
					"name": "retryCount",
					"type": "uint256"
				},
				{
					"internalType": "string",
					"name": "failureReason",
					"type": "string"
				}
			],
			"stateMutability": "view",
			"type": "function"
		},
		{
			"inputs": [],
			"name": "payrollCore",
			"outputs": [
				{
					"internalType": "address",
					"name": "",
					"type": "address"
				}
			],
			"stateMutability": "view",
			"type": "function"
		},
		{
			"inputs": [],
			"name": "processScheduledPayments",
			"outputs": [],
			"stateMutability": "nonpayable",
			"type": "function"
		},
		{
			"inputs": [
				{
					"internalType": "address",
					"name": "_employee",
					"type": "address"
				},
				{
					"internalType": "address",
					"name": "_token",
					"type": "address"
				},
				{
					"internalType": "uint256",
					"name": "_amount",
					"type": "uint256"
				},
				{
					"internalType": "enum PaymentExecutor.PaymentType",
					"name": "_paymentType",
					"type": "uint8"
				}
			],
			"name": "processSinglePayment",
			"outputs": [
				{
					"internalType": "bool",
					"name": "success",
					"type": "bool"
				}
			],
			"stateMutability": "nonpayable",
			"type": "function"
		},
		{
			"inputs": [
				{
					"internalType": "bytes32",
					"name": "role",
					"type": "bytes32"
				},
				{
					"internalType": "address",
					"name": "callerConfirmation",
					"type": "address"
				}
			],
			"name": "renounceRole",
			"outputs": [],
			"stateMutability": "nonpayable",
			"type": "function"
		},
		{
			"inputs": [],
			"name": "retryDelay",
			"outputs": [
				{
					"internalType": "uint256",
					"name": "",
					"type": "uint256"
				}
			],
			"stateMutability": "view",
			"type": "function"
		},
		{
			"inputs": [
				{
					"internalType": "uint256",
					"name": "_paymentId",
					"type": "uint256"
				}
			],
			"name": "retryFailedPayment",
			"outputs": [],
			"stateMutability": "nonpayable",
			"type": "function"
		},
		{
			"inputs": [
				{
					"internalType": "bytes32",
					"name": "role",
					"type": "bytes32"
				},
				{
					"internalType": "address",
					"name": "account",
					"type": "address"
				}
			],
			"name": "revokeRole",
			"outputs": [],
			"stateMutability": "nonpayable",
			"type": "function"
		},
		{
			"inputs": [
				{
					"internalType": "address",
					"name": "_auditLogger",
					"type": "address"
				}
			],
			"name": "setAuditLogger",
			"outputs": [],
			"stateMutability": "nonpayable",
			"type": "function"
		},
		{
			"inputs": [
				{
					"internalType": "address",
					"name": "_employeeManager",
					"type": "address"
				}
			],
			"name": "setEmployeeManager",
			"outputs": [],
			"stateMutability": "nonpayable",
			"type": "function"
		},
		{
			"inputs": [
				{
					"internalType": "uint256",
					"name": "_maxRetries",
					"type": "uint256"
				}
			],
			"name": "setMaxRetryAttempts",
			"outputs": [],
			"stateMutability": "nonpayable",
			"type": "function"
		},
		{
			"inputs": [
				{
					"internalType": "uint256",
					"name": "_delaySeconds",
					"type": "uint256"
				}
			],
			"name": "setRetryDelay",
			"outputs": [],
			"stateMutability": "nonpayable",
			"type": "function"
		},
		{
			"inputs": [
				{
					"internalType": "address payable",
					"name": "_tokenManager",
					"type": "address"
				}
			],
			"name": "setTokenManager",
			"outputs": [],
			"stateMutability": "nonpayable",
			"type": "function"
		},
		{
			"inputs": [
				{
					"internalType": "bytes4",
					"name": "interfaceId",
					"type": "bytes4"
				}
			],
			"name": "supportsInterface",
			"outputs": [
				{
					"internalType": "bool",
					"name": "",
					"type": "bool"
				}
			],
			"stateMutability": "view",
			"type": "function"
		},
		{
			"inputs": [],
			"name": "tokenManager",
			"outputs": [
				{
					"internalType": "contract TokenManager",
					"name": "",
					"type": "address"
				}
			],
			"stateMutability": "view",
			"type": "function"
		}
	]
}