{
	"data": {
		"bytecode": {
			"linkReferences": {},
			"object": "60806040526003600b55610e10600c556001600d5f6101000a81548160ff021916908315150217905550348015610034575f5ffd5b506040516182a33803806182a383398181016040528101906100569190610101565b600180819055508060025f6101000a81548173ffffffffffffffffffffffffffffffffffffffff021916908373ffffffffffffffffffffffffffffffffffffffff1602179055505061012c565b5f5ffd5b5f73ffffffffffffffffffffffffffffffffffffffff82169050919050565b5f6100d0826100a7565b9050919050565b6100e0816100c6565b81146100ea575f5ffd5b50565b5f815190506100fb816100d7565b92915050565b5f60208284031215610116576101156100a3565b5b5f610123848285016100ed565b91505092915050565b61816a806101395f395ff3fe608060405234801561000f575f5ffd5b5060043610610246575f3560e01c806380344c2411610139578063ade77ad3116100b6578063d547741f1161007a578063d547741f1461074f578063d7e0e5411461076b578063e4dd015a14610787578063f649ec87146107b7578063fb511477146107d557610246565b8063ade77ad314610699578063b9ee6e55146106b5578063bbd8acbe146106d1578063c1d446be146106ef578063c7d20e1b1461071f57610246565b80639b101f9a116100fd5780639b101f9a146105ea578063a1c7c1a61461061a578063a217fddf14610638578063a5e047b814610656578063acefc3e71461068f57610246565b806380344c241461052b57806389e482ce146105475780638b5a3853146105655780638d7d2bd71461059e57806391d14854146105ba57610246565b8063349b5954116101c7578063708f29a61161018b578063708f29a61461047357806375b238fc146104915780637a08a7f9146104af5780637cb2b79c146104df5780637da2ba7c146104fb57610246565b8063349b5954146103e557806336568abe14610403578063460515a11461041f578063526777e91461043b57806359502d1f1461045757610246565b8063248a9ca31161020e578063248a9ca31461031b5780632a709b141461034b5780632f2ff15d146103695780632fcef5cc14610385578063315873ff146103b557610246565b806301ffc9a71461024a5780630921224b1461027a5780631457a87214610298578063153244e6146102cd5780631acf39bf146102fd575b5f5ffd5b610264600480360381019061025f9190615dba565b6107f3565b6040516102719190615dff565b60405180910390f35b61028261086c565b60405161028f9190615e92565b60405180910390f35b6102b260048036038101906102ad9190615ede565b610891565b6040516102c496959493929190615fab565b60405180910390f35b6102e760048036038101906102e29190616034565b61093e565b6040516102f4919061605f565b60405180910390f35b610305610953565b6040516103129190615dff565b60405180910390f35b610335600480360381019061033091906160ab565b610965565b60405161034291906160e5565b60405180910390f35b610353610981565b604051610360919061612f565b60405180910390f35b610383600480360381019061037e9190616148565b6109a6565b005b61039f600480360381019061039a9190615ede565b6109c8565b6040516103ac91906163c6565b60405180910390f35b6103cf60048036038101906103ca9190616409565b610c4f565b6040516103dc9190615dff565b60405180910390f35b6103ed6114dc565b6040516103fa91906160e5565b60405180910390f35b61041d60048036038101906104189190616148565b611500565b005b61043960048036038101906104349190616034565b61157b565b005b61045560048036038101906104509190615ede565b61164d565b005b610471600480360381019061046c9190615ede565b6123e2565b005b61047b6125a8565b604051610488919061605f565b60405180910390f35b6104996125b4565b6040516104a691906160e5565b60405180910390f35b6104c960048036038101906104c4919061667d565b6125d8565b6040516104d6919061605f565b60405180910390f35b6104f960048036038101906104f49190616754565b612a93565b005b61051560048036038101906105109190616034565b612b65565b60405161052291906169be565b60405180910390f35b61054560048036038101906105409190615ede565b612e65565b005b61054f613533565b60405161055c919061605f565b60405180910390f35b61057f600480360381019061057a91906169de565b61353f565b6040516105959a99989796959493929190616a73565b60405180910390f35b6105b860048036038101906105b39190615ede565b61370c565b005b6105d460048036038101906105cf9190616148565b6138d2565b6040516105e19190615dff565b60405180910390f35b61060460048036038101906105ff9190616034565b613935565b604051610611919061605f565b60405180910390f35b61062261397b565b60405161062f9190616b1b565b60405180910390f35b6106406139a0565b60405161064d91906160e5565b60405180910390f35b610670600480360381019061066b9190615ede565b6139a6565b6040516106869a99989796959493929190616a73565b60405180910390f35b610697613b68565b005b6106b360048036038101906106ae9190616034565b613fa5565b005b6106cf60048036038101906106ca9190615ede565b614077565b005b6106d9614434565b6040516106e6919061605f565b60405180910390f35b61070960048036038101906107049190615ede565b61443a565b6040516107169190616c12565b60405180910390f35b61073960048036038101906107349190616c32565b614722565b604051610746919061605f565b60405180910390f35b61076960048036038101906107649190616148565b6147c9565b005b61078560048036038101906107809190616cac565b6147eb565b005b6107a1600480360381019061079c9190615ede565b6149c3565b6040516107ae9190615dff565b60405180910390f35b6107bf6149e0565b6040516107cc9190616cf7565b60405180910390f35b6107dd614a05565b6040516107ea919061605f565b60405180910390f35b5f7f7965db0b000000000000000000000000000000000000000000000000000000007bffffffffffffffffffffffffffffffffffffffffffffffffffffffff1916827bffffffffffffffffffffffffffffffffffffffffffffffffffffffff19161480610865575061086482614a0b565b5b9050919050565b60055f9054906101000a900473ffffffffffffffffffffffffffffffffffffffff1681565b600981815481106108a0575f80fd5b905f5260205f2090600502015f91509050806001015f9054906101000a900473ffffffffffffffffffffffffffffffffffffffff1690806003015f9054906101000a900460ff16908060030160019054906101000a900460ff16908060030160029054906101000a900460ff16908060030160039054906101000a900473ffffffffffffffffffffffffffffffffffffffff16908060040154905086565b6008602052805f5260405f205f915090505481565b600d5f9054906101000a900460ff1681565b5f5f5f8381526020019081526020015f20600101549050919050565b60045f9054906101000a900473ffffffffffffffffffffffffffffffffffffffff1681565b6109af82610965565b6109b881614a74565b6109c28383614a88565b50505050565b6109d0615b4b565b6009805490508210610a17576040517f08c379a0000000000000000000000000000000000000000000000000000000008152600401610a0e90616d5a565b60405180910390fd5b60098281548110610a2b57610a2a616d78565b5b905f5260205f209060050201604051806101000160405290815f8201805480602002602001604051908101604052809291908181526020018280548015610ac457602002820191905f5260205f20905b815f9054906101000a900473ffffffffffffffffffffffffffffffffffffffff1673ffffffffffffffffffffffffffffffffffffffff1681526020019060010190808311610a7b575b50505050508152602001600182015f9054906101000a900473ffffffffffffffffffffffffffffffffffffffff1673ffffffffffffffffffffffffffffffffffffffff1673ffffffffffffffffffffffffffffffffffffffff16815260200160028201805480602002602001604051908101604052809291908181526020018280548015610b6f57602002820191905f5260205f20905b815481526020019060010190808311610b5b575b50505050508152602001600382015f9054906101000a900460ff166003811115610b9c57610b9b615f29565b5b6003811115610bae57610bad615f29565b5b81526020016003820160019054906101000a900460ff161515151581526020016003820160029054906101000a900460ff161515151581526020016003820160039054906101000a900473ffffffffffffffffffffffffffffffffffffffff1673ffffffffffffffffffffffffffffffffffffffff1673ffffffffffffffffffffffffffffffffffffffff1681526020016004820154815250509050919050565b5f60025f9054906101000a900473ffffffffffffffffffffffffffffffffffffffff1673ffffffffffffffffffffffffffffffffffffffff166391d148547fa49807205ce4d355092ef5a8a18f56e8913cf4a201fbe287825b095693c21775336040518363ffffffff1660e01b8152600401610ccc929190616da5565b602060405180830381865afa158015610ce7573d5f5f3e3d5ffd5b505050506040513d601f19601f82011682018060405250810190610d0b9190616de0565b80610dcd575060025f9054906101000a900473ffffffffffffffffffffffffffffffffffffffff1673ffffffffffffffffffffffffffffffffffffffff166391d148547f940d6b1946ff1d2b5a9f1909219c3c81a370804b5ba0f91ec0828c99a2e6a681336040518363ffffffff1660e01b8152600401610d8d929190616da5565b602060405180830381865afa158015610da8573d5f5f3e3d5ffd5b505050506040513d601f19601f82011682018060405250810190610dcc9190616de0565b5b610e0c576040517f08c379a0000000000000000000000000000000000000000000000000000000008152600401610e0390616e55565b60405180910390fd5b610e14614b71565b60035f9054906101000a900473ffffffffffffffffffffffffffffffffffffffff1673ffffffffffffffffffffffffffffffffffffffff166332648e09866040518263ffffffff1660e01b8152600401610e6e9190616b1b565b61018060405180830381865afa158015610e8a573d5f5f3e3d5ffd5b505050506040513d601f19601f82011682018060405250810190610eae9190617014565b60800151610ef1576040517f08c379a0000000000000000000000000000000000000000000000000000000008152600401610ee89061708a565b60405180910390fd5b5f5a90505f6040518061014001604052808873ffffffffffffffffffffffffffffffffffffffff1681526020018773ffffffffffffffffffffffffffffffffffffffff168152602001868152602001428152602001856003811115610f5957610f58615f29565b5b81526020015f6003811115610f7157610f70615f29565b5b815260200160405180602001604052805f81525081526020015f81526020015f815260200160405180602001604052805f8152508152509050610fb381614bc0565b92505a82610fc191906170d5565b8160e001818152505082610fd6576002610fd9565b60015b8160a001906003811115610ff057610fef615f29565b5b9081600381111561100457611003615f29565b5b8152505082156110ad5760035f9054906101000a900473ffffffffffffffffffffffffffffffffffffffff1673ffffffffffffffffffffffffffffffffffffffff1663c11d2d1888876040518363ffffffff1660e01b815260040161106a929190617108565b5f604051808303815f87803b158015611081575f5ffd5b505af1158015611093573d5f5f3e3d5ffd5b505050506110a081614c71565b8160c0018190525061113f565b6040518060400160405280601881526020017f5061796d656e7420657865637574696f6e206661696c6564000000000000000081525081610120018190525060085f8873ffffffffffffffffffffffffffffffffffffffff1673ffffffffffffffffffffffffffffffffffffffff1681526020019081526020015f205f8154809291906111399061712f565b91905055505b600681908060018154018082558091505060019003905f5260205f2090600902015f909190919091505f820151815f015f6101000a81548173ffffffffffffffffffffffffffffffffffffffff021916908373ffffffffffffffffffffffffffffffffffffffff1602179055506020820151816001015f6101000a81548173ffffffffffffffffffffffffffffffffffffffff021916908373ffffffffffffffffffffffffffffffffffffffff16021790555060408201518160020155606082015181600301556080820151816004015f6101000a81548160ff021916908360038111156112305761122f615f29565b5b021790555060a08201518160040160016101000a81548160ff021916908360038111156112605761125f615f29565b5b021790555060c082015181600501908161127a919061736a565b5060e0820151816006015561010082015181600701556101208201518160080190816112a6919061736a565b50505060075f8873ffffffffffffffffffffffffffffffffffffffff1673ffffffffffffffffffffffffffffffffffffffff1681526020019081526020015f2081908060018154018082558091505060019003905f5260205f2090600902015f909190919091505f820151815f015f6101000a81548173ffffffffffffffffffffffffffffffffffffffff021916908373ffffffffffffffffffffffffffffffffffffffff1602179055506020820151816001015f6101000a81548173ffffffffffffffffffffffffffffffffffffffff021916908373ffffffffffffffffffffffffffffffffffffffff16021790555060408201518160020155606082015181600301556080820151816004015f6101000a81548160ff021916908360038111156113d5576113d4615f29565b5b021790555060a08201518160040160016101000a81548160ff0219169083600381111561140557611404615f29565b5b021790555060c082015181600501908161141f919061736a565b5060e08201518160060155610100820151816007015561012082015181600801908161144b919061736a565b50505061145781614d64565b8573ffffffffffffffffffffffffffffffffffffffff168773ffffffffffffffffffffffffffffffffffffffff167f05392e49ae81f9d730fab8b9d95085c57ced2c8f481ca60e3d4dd2e7d626ebb587878560a001518660e001516040516114c29493929190617439565b60405180910390a350506114d4614e2e565b949350505050565b7f940d6b1946ff1d2b5a9f1909219c3c81a370804b5ba0f91ec0828c99a2e6a68181565b611508614e37565b73ffffffffffffffffffffffffffffffffffffffff168173ffffffffffffffffffffffffffffffffffffffff161461156c576040517f6697b23200000000000000000000000000000000000000000000000000000000815260040160405180910390fd5b6115768282614e3e565b505050565b60025f9054906101000a900473ffffffffffffffffffffffffffffffffffffffff1673ffffffffffffffffffffffffffffffffffffffff163373ffffffffffffffffffffffffffffffffffffffff161461160a576040517f08c379a0000000000000000000000000000000000000000000000000000000008152600401611601906174c6565b60405180910390fd5b8060035f6101000a81548173ffffffffffffffffffffffffffffffffffffffff021916908373ffffffffffffffffffffffffffffffffffffffff16021790555050565b60025f9054906101000a900473ffffffffffffffffffffffffffffffffffffffff1673ffffffffffffffffffffffffffffffffffffffff166391d148547fa49807205ce4d355092ef5a8a18f56e8913cf4a201fbe287825b095693c21775336040518363ffffffff1660e01b81526004016116c9929190616da5565b602060405180830381865afa1580156116e4573d5f5f3e3d5ffd5b505050506040513d601f19601f820116820180604052508101906117089190616de0565b806117ca575060025f9054906101000a900473ffffffffffffffffffffffffffffffffffffffff1673ffffffffffffffffffffffffffffffffffffffff166391d148547f940d6b1946ff1d2b5a9f1909219c3c81a370804b5ba0f91ec0828c99a2e6a681336040518363ffffffff1660e01b815260040161178a929190616da5565b602060405180830381865afa1580156117a5573d5f5f3e3d5ffd5b505050506040513d601f19601f820116820180604052508101906117c99190616de0565b5b611809576040517f08c379a000000000000000000000000000000000000000000000000000000000815260040161180090616e55565b60405180910390fd5b6006805490508110611850576040517f08c379a00000000000000000000000000000000000000000000000000000000081526004016118479061752e565b60405180910390fd5b5f6006828154811061186557611864616d78565b5b905f5260205f20906009020190506002600381111561188757611886615f29565b5b8160040160019054906101000a900460ff1660038111156118ab576118aa615f29565b5b146118eb576040517f08c379a00000000000000000000000000000000000000000000000000000000081526004016118e290617596565b60405180910390fd5b600b54816007015410611933576040517f08c379a000000000000000000000000000000000000000000000000000000000815260040161192a906175fe565b60405180910390fd5b60018160070154611944919061761c565b600c54611951919061764f565b8160030154611960919061761c565b4210156119a2576040517f08c379a0000000000000000000000000000000000000000000000000000000008152600401611999906176da565b60405180910390fd5b60038160040160016101000a81548160ff021916908360038111156119ca576119c9615f29565b5b0217905550806007015f8154809291906119e39061712f565b91905055505f5a90505f611c6883604051806101400160405290815f82015f9054906101000a900473ffffffffffffffffffffffffffffffffffffffff1673ffffffffffffffffffffffffffffffffffffffff1673ffffffffffffffffffffffffffffffffffffffff168152602001600182015f9054906101000a900473ffffffffffffffffffffffffffffffffffffffff1673ffffffffffffffffffffffffffffffffffffffff1673ffffffffffffffffffffffffffffffffffffffff1681526020016002820154815260200160038201548152602001600482015f9054906101000a900460ff166003811115611ade57611add615f29565b5b6003811115611af057611aef615f29565b5b81526020016004820160019054906101000a900460ff166003811115611b1957611b18615f29565b5b6003811115611b2b57611b2a615f29565b5b8152602001600582018054611b3f906171a3565b80601f0160208091040260200160405190810160405280929190818152602001828054611b6b906171a3565b8015611bb65780601f10611b8d57610100808354040283529160200191611bb6565b820191905f5260205f20905b815481529060010190602001808311611b9957829003601f168201915b505050505081526020016006820154815260200160078201548152602001600882018054611be3906171a3565b80601f0160208091040260200160405190810160405280929190818152602001828054611c0f906171a3565b8015611c5a5780601f10611c3157610100808354040283529160200191611c5a565b820191905f5260205f20905b815481529060010190602001808311611c3d57829003601f168201915b505050505081525050614bc0565b90505a82611c7691906170d5565b836006015f828254611c88919061761c565b9250508190555080156120765760018360040160016101000a81548160ff02191690836003811115611cbd57611cbc615f29565b5b021790555060035f9054906101000a900473ffffffffffffffffffffffffffffffffffffffff1673ffffffffffffffffffffffffffffffffffffffff1663c11d2d18845f015f9054906101000a900473ffffffffffffffffffffffffffffffffffffffff1685600201546040518363ffffffff1660e01b8152600401611d44929190617108565b5f604051808303815f87803b158015611d5b575f5ffd5b505af1158015611d6d573d5f5f3e3d5ffd5b50505050611fec83604051806101400160405290815f82015f9054906101000a900473ffffffffffffffffffffffffffffffffffffffff1673ffffffffffffffffffffffffffffffffffffffff1673ffffffffffffffffffffffffffffffffffffffff168152602001600182015f9054906101000a900473ffffffffffffffffffffffffffffffffffffffff1673ffffffffffffffffffffffffffffffffffffffff1673ffffffffffffffffffffffffffffffffffffffff1681526020016002820154815260200160038201548152602001600482015f9054906101000a900460ff166003811115611e6257611e61615f29565b5b6003811115611e7457611e73615f29565b5b81526020016004820160019054906101000a900460ff166003811115611e9d57611e9c615f29565b5b6003811115611eaf57611eae615f29565b5b8152602001600582018054611ec3906171a3565b80601f0160208091040260200160405190810160405280929190818152602001828054611eef906171a3565b8015611f3a5780601f10611f1157610100808354040283529160200191611f3a565b820191905f5260205f20905b815481529060010190602001808311611f1d57829003601f168201915b505050505081526020016006820154815260200160078201548152602001600882018054611f67906171a3565b80601f0160208091040260200160405190810160405280929190818152602001828054611f93906171a3565b8015611fde5780601f10611fb557610100808354040283529160200191611fde565b820191905f5260205f20905b815481529060010190602001808311611fc157829003601f168201915b505050505081525050614c71565b836005019081611ffc919061736a565b5060085f845f015f9054906101000a900473ffffffffffffffffffffffffffffffffffffffff1673ffffffffffffffffffffffffffffffffffffffff1673ffffffffffffffffffffffffffffffffffffffff1681526020019081526020015f205f81548092919061206c906176f8565b91905055506120eb565b60028360040160016101000a81548160ff0219169083600381111561209e5761209d615f29565b5b02179055506040518060400160405280600c81526020017f5265747279206661696c656400000000000000000000000000000000000000008152508360080190816120e9919061736a565b505b825f015f9054906101000a900473ffffffffffffffffffffffffffffffffffffffff1673ffffffffffffffffffffffffffffffffffffffff167f6d9b44e30a0dc7bd26b9a325ebbe8752e37cdd4fcc0c45444189c16ba7da52bc85856007015460405161215992919061771f565b60405180910390a26123dc83604051806101400160405290815f82015f9054906101000a900473ffffffffffffffffffffffffffffffffffffffff1673ffffffffffffffffffffffffffffffffffffffff1673ffffffffffffffffffffffffffffffffffffffff168152602001600182015f9054906101000a900473ffffffffffffffffffffffffffffffffffffffff1673ffffffffffffffffffffffffffffffffffffffff1673ffffffffffffffffffffffffffffffffffffffff1681526020016002820154815260200160038201548152602001600482015f9054906101000a900460ff16600381111561225257612251615f29565b5b600381111561226457612263615f29565b5b81526020016004820160019054906101000a900460ff16600381111561228d5761228c615f29565b5b600381111561229f5761229e615f29565b5b81526020016005820180546122b3906171a3565b80601f01602080910402602001604051908101604052809291908181526020018280546122df906171a3565b801561232a5780601f106123015761010080835404028352916020019161232a565b820191905f5260205f20905b81548152906001019060200180831161230d57829003601f168201915b505050505081526020016006820154815260200160078201548152602001600882018054612357906171a3565b80601f0160208091040260200160405190810160405280929190818152602001828054612383906171a3565b80156123ce5780601f106123a5576101008083540402835291602001916123ce565b820191905f5260205f20905b8154815290600101906020018083116123b157829003601f168201915b505050505081525050614d64565b50505050565b60025f9054906101000a900473ffffffffffffffffffffffffffffffffffffffff1673ffffffffffffffffffffffffffffffffffffffff166391d148547fa49807205ce4d355092ef5a8a18f56e8913cf4a201fbe287825b095693c21775336040518363ffffffff1660e01b815260040161245e929190616da5565b602060405180830381865afa158015612479573d5f5f3e3d5ffd5b505050506040513d601f19601f8201168201806040525081019061249d9190616de0565b8061255f575060025f9054906101000a900473ffffffffffffffffffffffffffffffffffffffff1673ffffffffffffffffffffffffffffffffffffffff166391d148547f940d6b1946ff1d2b5a9f1909219c3c81a370804b5ba0f91ec0828c99a2e6a681336040518363ffffffff1660e01b815260040161251f929190616da5565b602060405180830381865afa15801561253a573d5f5f3e3d5ffd5b505050506040513d601f19601f8201168201806040525081019061255e9190616de0565b5b61259e576040517f08c379a000000000000000000000000000000000000000000000000000000000815260040161259590616e55565b60405180910390fd5b80600b8190555050565b5f600680549050905090565b7fa49807205ce4d355092ef5a8a18f56e8913cf4a201fbe287825b095693c2177581565b5f60025f9054906101000a900473ffffffffffffffffffffffffffffffffffffffff1673ffffffffffffffffffffffffffffffffffffffff166391d148547fa49807205ce4d355092ef5a8a18f56e8913cf4a201fbe287825b095693c21775336040518363ffffffff1660e01b8152600401612655929190616da5565b602060405180830381865afa158015612670573d5f5f3e3d5ffd5b505050506040513d601f19601f820116820180604052508101906126949190616de0565b80612756575060025f9054906101000a900473ffffffffffffffffffffffffffffffffffffffff1673ffffffffffffffffffffffffffffffffffffffff166391d148547f940d6b1946ff1d2b5a9f1909219c3c81a370804b5ba0f91ec0828c99a2e6a681336040518363ffffffff1660e01b8152600401612716929190616da5565b602060405180830381865afa158015612731573d5f5f3e3d5ffd5b505050506040513d601f19601f820116820180604052508101906127559190616de0565b5b612795576040517f08c379a000000000000000000000000000000000000000000000000000000000815260040161278c90616e55565b60405180910390fd5b82518551146127d9576040517f08c379a00000000000000000000000000000000000000000000000000000000081526004016127d090617790565b60405180910390fd5b5f85511161281c576040517f08c379a0000000000000000000000000000000000000000000000000000000008152600401612813906177f8565b60405180910390fd5b5f6040518061010001604052808781526020018673ffffffffffffffffffffffffffffffffffffffff16815260200185815260200184600381111561286457612863615f29565b5b8152602001600d5f9054906101000a900460ff1615158152602001600d5f9054906101000a900460ff161515158152602001600d5f9054906101000a900460ff166128af57336128b1565b5f5b73ffffffffffffffffffffffffffffffffffffffff168152602001428152509050600981908060018154018082558091505060019003905f5260205f2090600502015f909190919091505f820151815f019080519060200190612915929190615bcc565b506020820151816001015f6101000a81548173ffffffffffffffffffffffffffffffffffffffff021916908373ffffffffffffffffffffffffffffffffffffffff1602179055506040820151816002019080519060200190612978929190615c53565b506060820151816003015f6101000a81548160ff021916908360038111156129a3576129a2615f29565b5b021790555060808201518160030160016101000a81548160ff02191690831515021790555060a08201518160030160026101000a81548160ff02191690831515021790555060c08201518160030160036101000a81548173ffffffffffffffffffffffffffffffffffffffff021916908373ffffffffffffffffffffffffffffffffffffffff16021790555060e0820151816004015550506001600980549050612a4d91906170d5565b9150817fa40b9abc4125f71cdc69fcd4f0e85d101dbfc67713f9e57f769eeb4c009d0e58875187604051612a82929190617816565b60405180910390a250949350505050565b60025f9054906101000a900473ffffffffffffffffffffffffffffffffffffffff1673ffffffffffffffffffffffffffffffffffffffff163373ffffffffffffffffffffffffffffffffffffffff1614612b22576040517f08c379a0000000000000000000000000000000000000000000000000000000008152600401612b19906174c6565b60405180910390fd5b8060045f6101000a81548173ffffffffffffffffffffffffffffffffffffffff021916908373ffffffffffffffffffffffffffffffffffffffff16021790555050565b606060075f8373ffffffffffffffffffffffffffffffffffffffff1673ffffffffffffffffffffffffffffffffffffffff1681526020019081526020015f20805480602002602001604051908101604052809291908181526020015f905b82821015612e5a578382905f5260205f209060090201604051806101400160405290815f82015f9054906101000a900473ffffffffffffffffffffffffffffffffffffffff1673ffffffffffffffffffffffffffffffffffffffff1673ffffffffffffffffffffffffffffffffffffffff168152602001600182015f9054906101000a900473ffffffffffffffffffffffffffffffffffffffff1673ffffffffffffffffffffffffffffffffffffffff1673ffffffffffffffffffffffffffffffffffffffff1681526020016002820154815260200160038201548152602001600482015f9054906101000a900460ff166003811115612cc657612cc5615f29565b5b6003811115612cd857612cd7615f29565b5b81526020016004820160019054906101000a900460ff166003811115612d0157612d00615f29565b5b6003811115612d1357612d12615f29565b5b8152602001600582018054612d27906171a3565b80601f0160208091040260200160405190810160405280929190818152602001828054612d53906171a3565b8015612d9e5780601f10612d7557610100808354040283529160200191612d9e565b820191905f5260205f20905b815481529060010190602001808311612d8157829003601f168201915b505050505081526020016006820154815260200160078201548152602001600882018054612dcb906171a3565b80601f0160208091040260200160405190810160405280929190818152602001828054612df7906171a3565b8015612e425780601f10612e1957610100808354040283529160200191612e42565b820191905f5260205f20905b815481529060010190602001808311612e2557829003601f168201915b50505050508152505081526020019060010190612bc3565b505050509050919050565b60025f9054906101000a900473ffffffffffffffffffffffffffffffffffffffff1673ffffffffffffffffffffffffffffffffffffffff166391d148547fa49807205ce4d355092ef5a8a18f56e8913cf4a201fbe287825b095693c21775336040518363ffffffff1660e01b8152600401612ee1929190616da5565b602060405180830381865afa158015612efc573d5f5f3e3d5ffd5b505050506040513d601f19601f82011682018060405250810190612f209190616de0565b80612fe2575060025f9054906101000a900473ffffffffffffffffffffffffffffffffffffffff1673ffffffffffffffffffffffffffffffffffffffff166391d148547f940d6b1946ff1d2b5a9f1909219c3c81a370804b5ba0f91ec0828c99a2e6a681336040518363ffffffff1660e01b8152600401612fa2929190616da5565b602060405180830381865afa158015612fbd573d5f5f3e3d5ffd5b505050506040513d601f19601f82011682018060405250810190612fe19190616de0565b5b613021576040517f08c379a000000000000000000000000000000000000000000000000000000000815260040161301890616e55565b60405180910390fd5b613029614b71565b6009805490508110613070576040517f08c379a000000000000000000000000000000000000000000000000000000000815260040161306790616d5a565b60405180910390fd5b6009818154811061308457613083616d78565b5b905f5260205f20906005020160030160029054906101000a900460ff166130e0576040517f08c379a00000000000000000000000000000000000000000000000000000000081526004016130d790617887565b60405180910390fd5b600a5f8281526020019081526020015f205f9054906101000a900460ff161561313e576040517f08c379a0000000000000000000000000000000000000000000000000000000008152600401613135906178ef565b60405180910390fd5b5f6009828154811061315357613152616d78565b5b905f5260205f209060050201604051806101000160405290815f82018054806020026020016040519081016040528092919081815260200182805480156131ec57602002820191905f5260205f20905b815f9054906101000a900473ffffffffffffffffffffffffffffffffffffffff1673ffffffffffffffffffffffffffffffffffffffff16815260200190600101908083116131a3575b50505050508152602001600182015f9054906101000a900473ffffffffffffffffffffffffffffffffffffffff1673ffffffffffffffffffffffffffffffffffffffff1673ffffffffffffffffffffffffffffffffffffffff1681526020016002820180548060200260200160405190810160405280929190818152602001828054801561329757602002820191905f5260205f20905b815481526020019060010190808311613283575b50505050508152602001600382015f9054906101000a900460ff1660038111156132c4576132c3615f29565b5b60038111156132d6576132d5615f29565b5b81526020016003820160019054906101000a900460ff161515151581526020016003820160029054906101000a900460ff161515151581526020016003820160039054906101000a900473ffffffffffffffffffffffffffffffffffffffff1673ffffffffffffffffffffffffffffffffffffffff1673ffffffffffffffffffffffffffffffffffffffff16815260200160048201548152505090505f5f90505f5f90505f5f90505b835f015151811015613413575f6133db855f015183815181106133a5576133a4616d78565b5b60200260200101518660200151876040015185815181106133c9576133c8616d78565b5b60200260200101518860600151614f27565b905080156133f65783806133ee9061712f565b945050613405565b82806134019061712f565b9350505b50808060010191505061337f565b506001600a5f8681526020019081526020015f205f6101000a81548160ff021916908315150217905550837f20eb9f3aebb74816a1325a7477cfa6f6ab692b692cd5930db98bd2d0343b70ca838360405161346f92919061771f565b60405180910390a260055f9054906101000a900473ffffffffffffffffffffffffffffffffffffffff1673ffffffffffffffffffffffffffffffffffffffff166344c83b9733868585426040516020016134cc949392919061790d565b6040516020818303038152906040526040518363ffffffff1660e01b81526004016134f89291906179ec565b5f604051808303815f87803b15801561350f575f5ffd5b505af1158015613521573d5f5f3e3d5ffd5b50505050505050613530614e2e565b50565b5f600980549050905090565b6007602052815f5260405f208181548110613558575f80fd5b905f5260205f2090600902015f9150915050805f015f9054906101000a900473ffffffffffffffffffffffffffffffffffffffff1690806001015f9054906101000a900473ffffffffffffffffffffffffffffffffffffffff1690806002015490806003015490806004015f9054906101000a900460ff16908060040160019054906101000a900460ff16908060050180546135f3906171a3565b80601f016020809104026020016040519081016040528092919081815260200182805461361f906171a3565b801561366a5780601f106136415761010080835404028352916020019161366a565b820191905f5260205f20905b81548152906001019060200180831161364d57829003601f168201915b50505050509080600601549080600701549080600801805461368b906171a3565b80601f01602080910402602001604051908101604052809291908181526020018280546136b7906171a3565b80156137025780601f106136d957610100808354040283529160200191613702565b820191905f5260205f20905b8154815290600101906020018083116136e557829003601f168201915b505050505090508a565b60025f9054906101000a900473ffffffffffffffffffffffffffffffffffffffff1673ffffffffffffffffffffffffffffffffffffffff166391d148547fa49807205ce4d355092ef5a8a18f56e8913cf4a201fbe287825b095693c21775336040518363ffffffff1660e01b8152600401613788929190616da5565b602060405180830381865afa1580156137a3573d5f5f3e3d5ffd5b505050506040513d601f19601f820116820180604052508101906137c79190616de0565b80613889575060025f9054906101000a900473ffffffffffffffffffffffffffffffffffffffff1673ffffffffffffffffffffffffffffffffffffffff166391d148547f940d6b1946ff1d2b5a9f1909219c3c81a370804b5ba0f91ec0828c99a2e6a681336040518363ffffffff1660e01b8152600401613849929190616da5565b602060405180830381865afa158015613864573d5f5f3e3d5ffd5b505050506040513d601f19601f820116820180604052508101906138889190616de0565b5b6138c8576040517f08c379a00000000000000000000000000000000000000000000000000000000081526004016138bf90616e55565b60405180910390fd5b80600c8190555050565b5f5f5f8481526020019081526020015f205f015f8373ffffffffffffffffffffffffffffffffffffffff1673ffffffffffffffffffffffffffffffffffffffff1681526020019081526020015f205f9054906101000a900460ff16905092915050565b5f60085f8373ffffffffffffffffffffffffffffffffffffffff1673ffffffffffffffffffffffffffffffffffffffff1681526020019081526020015f20549050919050565b60025f9054906101000a900473ffffffffffffffffffffffffffffffffffffffff1681565b5f5f1b81565b600681815481106139b5575f80fd5b905f5260205f2090600902015f91509050805f015f9054906101000a900473ffffffffffffffffffffffffffffffffffffffff1690806001015f9054906101000a900473ffffffffffffffffffffffffffffffffffffffff1690806002015490806003015490806004015f9054906101000a900460ff16908060040160019054906101000a900460ff1690806005018054613a4f906171a3565b80601f0160208091040260200160405190810160405280929190818152602001828054613a7b906171a3565b8015613ac65780601f10613a9d57610100808354040283529160200191613ac6565b820191905f5260205f20905b815481529060010190602001808311613aa957829003601f168201915b505050505090806006015490806007015490806008018054613ae7906171a3565b80601f0160208091040260200160405190810160405280929190818152602001828054613b13906171a3565b8015613b5e5780601f10613b3557610100808354040283529160200191613b5e565b820191905f5260205f20905b815481529060010190602001808311613b4157829003601f168201915b505050505090508a565b60025f9054906101000a900473ffffffffffffffffffffffffffffffffffffffff1673ffffffffffffffffffffffffffffffffffffffff163373ffffffffffffffffffffffffffffffffffffffff1614613bf7576040517f08c379a0000000000000000000000000000000000000000000000000000000008152600401613bee906174c6565b60405180910390fd5b613bff614b71565b5f60035f9054906101000a900473ffffffffffffffffffffffffffffffffffffffff1673ffffffffffffffffffffffffffffffffffffffff16635dd38bfa6040518163ffffffff1660e01b81526004015f60405180830381865afa158015613c69573d5f5f3e3d5ffd5b505050506040513d5f823e3d601f19601f82011682018060405250810190613c919190617ac2565b90505f5f90505f5f90505f5f90505b8351811015613eeb575f848281518110613cbd57613cbc616d78565b5b6020026020010151905060035f9054906101000a900473ffffffffffffffffffffffffffffffffffffffff1673ffffffffffffffffffffffffffffffffffffffff166397ad7e02826040518263ffffffff1660e01b8152600401613d219190616b1b565b602060405180830381865afa158015613d3c573d5f5f3e3d5ffd5b505050506040513d601f19601f82011682018060405250810190613d609190616de0565b15613edd575f60035f9054906101000a900473ffffffffffffffffffffffffffffffffffffffff1673ffffffffffffffffffffffffffffffffffffffff166332648e09836040518263ffffffff1660e01b8152600401613dc09190616b1b565b61018060405180830381865afa158015613ddc573d5f5f3e3d5ffd5b505050506040513d601f19601f82011682018060405250810190613e009190617014565b90505f60035f9054906101000a900473ffffffffffffffffffffffffffffffffffffffff1673ffffffffffffffffffffffffffffffffffffffff1663774b2535846040518263ffffffff1660e01b8152600401613e5d9190616b1b565b602060405180830381865afa158015613e78573d5f5f3e3d5ffd5b505050506040513d601f19601f82011682018060405250810190613e9c9190617b09565b90505f613eaf848460600151845f614f27565b90508015613eca578680613ec29061712f565b975050613ed9565b8580613ed59061712f565b9650505b5050505b508080600101915050613ca0565b5060055f9054906101000a900473ffffffffffffffffffffffffffffffffffffffff1673ffffffffffffffffffffffffffffffffffffffff166344c83b9733848442604051602001613f3f93929190617b34565b6040516020818303038152906040526040518363ffffffff1660e01b8152600401613f6b929190617bb3565b5f604051808303815f87803b158015613f82575f5ffd5b505af1158015613f94573d5f5f3e3d5ffd5b50505050505050613fa3614e2e565b565b60025f9054906101000a900473ffffffffffffffffffffffffffffffffffffffff1673ffffffffffffffffffffffffffffffffffffffff163373ffffffffffffffffffffffffffffffffffffffff1614614034576040517f08c379a000000000000000000000000000000000000000000000000000000000815260040161402b906174c6565b60405180910390fd5b8060055f6101000a81548173ffffffffffffffffffffffffffffffffffffffff021916908373ffffffffffffffffffffffffffffffffffffffff16021790555050565b60025f9054906101000a900473ffffffffffffffffffffffffffffffffffffffff1673ffffffffffffffffffffffffffffffffffffffff166391d148547fa49807205ce4d355092ef5a8a18f56e8913cf4a201fbe287825b095693c21775336040518363ffffffff1660e01b81526004016140f3929190616da5565b602060405180830381865afa15801561410e573d5f5f3e3d5ffd5b505050506040513d601f19601f820116820180604052508101906141329190616de0565b806141f4575060025f9054906101000a900473ffffffffffffffffffffffffffffffffffffffff1673ffffffffffffffffffffffffffffffffffffffff166391d148547f940d6b1946ff1d2b5a9f1909219c3c81a370804b5ba0f91ec0828c99a2e6a681336040518363ffffffff1660e01b81526004016141b4929190616da5565b602060405180830381865afa1580156141cf573d5f5f3e3d5ffd5b505050506040513d601f19601f820116820180604052508101906141f39190616de0565b5b614233576040517f08c379a000000000000000000000000000000000000000000000000000000000815260040161422a90616e55565b60405180910390fd5b600980549050811061427a576040517f08c379a000000000000000000000000000000000000000000000000000000000815260040161427190616d5a565b60405180910390fd5b6009818154811061428e5761428d616d78565b5b905f5260205f20906005020160030160029054906101000a900460ff16156142eb576040517f08c379a00000000000000000000000000000000000000000000000000000000081526004016142e290617c3e565b60405180910390fd5b600981815481106142ff576142fe616d78565b5b905f5260205f20906005020160030160019054906101000a900460ff1661435b576040517f08c379a000000000000000000000000000000000000000000000000000000000815260040161435290617ca6565b60405180910390fd5b60016009828154811061437157614370616d78565b5b905f5260205f20906005020160030160026101000a81548160ff02191690831515021790555033600982815481106143ac576143ab616d78565b5b905f5260205f20906005020160030160036101000a81548173ffffffffffffffffffffffffffffffffffffffff021916908373ffffffffffffffffffffffffffffffffffffffff160217905550807f3dbc34279ef7d20a65f8815e5677a41470c442acb057f954b9da359c05a7b884336040516144299190616b1b565b60405180910390a250565b600b5481565b614442615c9e565b6006805490508210614489576040517f08c379a00000000000000000000000000000000000000000000000000000000081526004016144809061752e565b60405180910390fd5b6006828154811061449d5761449c616d78565b5b905f5260205f209060090201604051806101400160405290815f82015f9054906101000a900473ffffffffffffffffffffffffffffffffffffffff1673ffffffffffffffffffffffffffffffffffffffff1673ffffffffffffffffffffffffffffffffffffffff168152602001600182015f9054906101000a900473ffffffffffffffffffffffffffffffffffffffff1673ffffffffffffffffffffffffffffffffffffffff1673ffffffffffffffffffffffffffffffffffffffff1681526020016002820154815260200160038201548152602001600482015f9054906101000a900460ff16600381111561459657614595615f29565b5b60038111156145a8576145a7615f29565b5b81526020016004820160019054906101000a900460ff1660038111156145d1576145d0615f29565b5b60038111156145e3576145e2615f29565b5b81526020016005820180546145f7906171a3565b80601f0160208091040260200160405190810160405280929190818152602001828054614623906171a3565b801561466e5780601f106146455761010080835404028352916020019161466e565b820191905f5260205f20905b81548152906001019060200180831161465157829003601f168201915b50505050508152602001600682015481526020016007820154815260200160088201805461469b906171a3565b80601f01602080910402602001604051908101604052809291908181526020018280546146c7906171a3565b80156147125780601f106146e957610100808354040283529160200191614712565b820191905f5260205f20905b8154815290600101906020018083116146f557829003601f168201915b5050505050815250509050919050565b5f60045f9054906101000a900473ffffffffffffffffffffffffffffffffffffffff1673ffffffffffffffffffffffffffffffffffffffff16631cc0a1c38585856040518463ffffffff1660e01b815260040161478193929190617cc4565b602060405180830381865afa15801561479c573d5f5f3e3d5ffd5b505050506040513d601f19601f820116820180604052508101906147c09190617b09565b90509392505050565b6147d282610965565b6147db81614a74565b6147e58383614e3e565b50505050565b60025f9054906101000a900473ffffffffffffffffffffffffffffffffffffffff1673ffffffffffffffffffffffffffffffffffffffff166391d148547fa49807205ce4d355092ef5a8a18f56e8913cf4a201fbe287825b095693c21775336040518363ffffffff1660e01b8152600401614867929190616da5565b602060405180830381865afa158015614882573d5f5f3e3d5ffd5b505050506040513d601f19601f820116820180604052508101906148a69190616de0565b80614968575060025f9054906101000a900473ffffffffffffffffffffffffffffffffffffffff1673ffffffffffffffffffffffffffffffffffffffff166391d148547f940d6b1946ff1d2b5a9f1909219c3c81a370804b5ba0f91ec0828c99a2e6a681336040518363ffffffff1660e01b8152600401614928929190616da5565b602060405180830381865afa158015614943573d5f5f3e3d5ffd5b505050506040513d601f19601f820116820180604052508101906149679190616de0565b5b6149a7576040517f08c379a000000000000000000000000000000000000000000000000000000000815260040161499e90616e55565b60405180910390fd5b80600d5f6101000a81548160ff02191690831515021790555050565b600a602052805f5260405f205f915054906101000a900460ff1681565b60035f9054906101000a900473ffffffffffffffffffffffffffffffffffffffff1681565b600c5481565b5f7f01ffc9a7000000000000000000000000000000000000000000000000000000007bffffffffffffffffffffffffffffffffffffffffffffffffffffffff1916827bffffffffffffffffffffffffffffffffffffffffffffffffffffffff1916149050919050565b614a8581614a80614e37565b61550b565b50565b5f614a9383836138d2565b614b675760015f5f8581526020019081526020015f205f015f8473ffffffffffffffffffffffffffffffffffffffff1673ffffffffffffffffffffffffffffffffffffffff1681526020019081526020015f205f6101000a81548160ff021916908315150217905550614b04614e37565b73ffffffffffffffffffffffffffffffffffffffff168273ffffffffffffffffffffffffffffffffffffffff16847f2f8788117e7eff1d82e926ec794901d17c78024a50270940304540a733656f0d60405160405180910390a460019050614b6b565b5f90505b92915050565b600260015403614bb6576040517f08c379a0000000000000000000000000000000000000000000000000000000008152600401614bad90617d43565b60405180910390fd5b6002600181905550565b5f60045f9054906101000a900473ffffffffffffffffffffffffffffffffffffffff1673ffffffffffffffffffffffffffffffffffffffff1663d1a0cc5c8360200151845f015185604001516040518463ffffffff1660e01b8152600401614c2a93929190617cc4565b6020604051808303815f875af1158015614c46573d5f5f3e3d5ffd5b505050506040513d601f19601f82011682018060405250810190614c6a9190616de0565b9050919050565b60605f614c80835f015161555c565b614c8d846040015161585a565b614c9a856020015161555c565b614ca7866060015161585a565b604051602001614cba9493929190617ec3565b60405160208183030381529060405290505f81604051602001614cdd9190617f2c565b6040516020818303038152906040528051906020012090505f614cff826159b3565b9050845f015173ffffffffffffffffffffffffffffffffffffffff167f59180834f899f4489ff46f8a483a5e8910be42b5ab7e4ea95619fc2546851aad60068054905083604051614d51929190617f42565b60405180910390a2809350505050919050565b60055f9054906101000a900473ffffffffffffffffffffffffffffffffffffffff1673ffffffffffffffffffffffffffffffffffffffff166344c83b97825f01518360200151846040015185608001518660a001518760600151604051602001614dd2959493929190617f70565b6040516020818303038152906040526040518363ffffffff1660e01b8152600401614dfe92919061800b565b5f604051808303815f87803b158015614e15575f5ffd5b505af1158015614e27573d5f5f3e3d5ffd5b5050505050565b60018081905550565b5f33905090565b5f614e4983836138d2565b15614f1d575f5f5f8581526020019081526020015f205f015f8473ffffffffffffffffffffffffffffffffffffffff1673ffffffffffffffffffffffffffffffffffffffff1681526020019081526020015f205f6101000a81548160ff021916908315150217905550614eba614e37565b73ffffffffffffffffffffffffffffffffffffffff168273ffffffffffffffffffffffffffffffffffffffff16847ff6391f5c32d9c69d2a47ea670b442974b53935d1edc7fd64eb21e047a839171b60405160405180910390a460019050614f21565b5f90505b92915050565b5f5f5a90505f6040518061014001604052808873ffffffffffffffffffffffffffffffffffffffff1681526020018773ffffffffffffffffffffffffffffffffffffffff168152602001868152602001428152602001856003811115614f9057614f8f615f29565b5b81526020015f6003811115614fa857614fa7615f29565b5b815260200160405180602001604052805f81525081526020015f81526020015f815260200160405180602001604052805f8152508152509050614fea81614bc0565b92505a82614ff891906170d5565b8160e00181815250508261500d576002615010565b60015b8160a00190600381111561502757615026615f29565b5b9081600381111561503b5761503a615f29565b5b8152505082156150e45760035f9054906101000a900473ffffffffffffffffffffffffffffffffffffffff1673ffffffffffffffffffffffffffffffffffffffff1663c11d2d1888876040518363ffffffff1660e01b81526004016150a1929190617108565b5f604051808303815f87803b1580156150b8575f5ffd5b505af11580156150ca573d5f5f3e3d5ffd5b505050506150d781614c71565b8160c00181905250615176565b6040518060400160405280601881526020017f5061796d656e7420657865637574696f6e206661696c6564000000000000000081525081610120018190525060085f8873ffffffffffffffffffffffffffffffffffffffff1673ffffffffffffffffffffffffffffffffffffffff1681526020019081526020015f205f8154809291906151709061712f565b91905055505b600681908060018154018082558091505060019003905f5260205f2090600902015f909190919091505f820151815f015f6101000a81548173ffffffffffffffffffffffffffffffffffffffff021916908373ffffffffffffffffffffffffffffffffffffffff1602179055506020820151816001015f6101000a81548173ffffffffffffffffffffffffffffffffffffffff021916908373ffffffffffffffffffffffffffffffffffffffff16021790555060408201518160020155606082015181600301556080820151816004015f6101000a81548160ff0219169083600381111561526757615266615f29565b5b021790555060a08201518160040160016101000a81548160ff0219169083600381111561529757615296615f29565b5b021790555060c08201518160050190816152b1919061736a565b5060e0820151816006015561010082015181600701556101208201518160080190816152dd919061736a565b50505060075f8873ffffffffffffffffffffffffffffffffffffffff1673ffffffffffffffffffffffffffffffffffffffff1681526020019081526020015f2081908060018154018082558091505060019003905f5260205f2090600902015f909190919091505f820151815f015f6101000a81548173ffffffffffffffffffffffffffffffffffffffff021916908373ffffffffffffffffffffffffffffffffffffffff1602179055506020820151816001015f6101000a81548173ffffffffffffffffffffffffffffffffffffffff021916908373ffffffffffffffffffffffffffffffffffffffff16021790555060408201518160020155606082015181600301556080820151816004015f6101000a81548160ff0219169083600381111561540c5761540b615f29565b5b021790555060a08201518160040160016101000a81548160ff0219169083600381111561543c5761543b615f29565b5b021790555060c0820151816005019081615456919061736a565b5060e082015181600601556101008201518160070155610120820151816008019081615482919061736a565b50505061548e81614d64565b8573ffffffffffffffffffffffffffffffffffffffff168773ffffffffffffffffffffffffffffffffffffffff167f05392e49ae81f9d730fab8b9d95085c57ced2c8f481ca60e3d4dd2e7d626ebb587878560a001518660e001516040516154f99493929190617439565b60405180910390a35050949350505050565b61551582826138d2565b6155585780826040517fe2517d3f00000000000000000000000000000000000000000000000000000000815260040161554f92919061804c565b60405180910390fd5b5050565b60605f8273ffffffffffffffffffffffffffffffffffffffff165f1b90505f6040518060400160405280601081526020017f303132333435363738396162636465660000000000000000000000000000000081525090505f602a67ffffffffffffffff8111156155cf576155ce616481565b5b6040519080825280601f01601f1916602001820160405280156156015781602001600182028036833780820191505090505b5090507f3000000000000000000000000000000000000000000000000000000000000000815f8151811061563857615637616d78565b5b60200101907effffffffffffffffffffffffffffffffffffffffffffffffffffffffffffff191690815f1a9053507f78000000000000000000000000000000000000000000000000000000000000008160018151811061569b5761569a616d78565b5b60200101907effffffffffffffffffffffffffffffffffffffffffffffffffffffffffffff191690815f1a9053505f5f90505b601481101561584e5782600485600c846156e8919061761c565b602081106156f9576156f8616d78565b5b1a60f81b7effffffffffffffffffffffffffffffffffffffffffffffffffffffffffffff1916901c60f81c60ff168151811061573857615737616d78565b5b602001015160f81c60f81b82600283615751919061764f565b600261575d919061761c565b8151811061576e5761576d616d78565b5b60200101907effffffffffffffffffffffffffffffffffffffffffffffffffffffffffffff191690815f1a90535082600f60f81b85600c846157b0919061761c565b602081106157c1576157c0616d78565b5b1a60f81b1660f81c60ff16815181106157dd576157dc616d78565b5b602001015160f81c60f81b826002836157f6919061764f565b6003615802919061761c565b8151811061581357615812616d78565b5b60200101907effffffffffffffffffffffffffffffffffffffffffffffffffffffffffffff191690815f1a90535080806001019150506156ce565b50809350505050919050565b60605f82036158a0576040518060400160405280600181526020017f300000000000000000000000000000000000000000000000000000000000000081525090506159ae565b5f8290505f5b5f82146158cf5780806158b89061712f565b915050600a826158c891906180a0565b91506158a6565b5f8167ffffffffffffffff8111156158ea576158e9616481565b5b6040519080825280601f01601f19166020018201604052801561591c5781602001600182028036833780820191505090505b5090505b5f85146159a75760018261593491906170d5565b9150600a8561594391906180d0565b603061594f919061761c565b60f81b81838151811061596557615964616d78565b5b60200101907effffffffffffffffffffffffffffffffffffffffffffffffffffffffffffff191690815f1a905350600a856159a091906180a0565b9450615920565b8093505050505b919050565b60605f5f90505b60208160ff16108015615a0b57505f60f81b838260ff16602081106159e2576159e1616d78565b5b1a60f81b7effffffffffffffffffffffffffffffffffffffffffffffffffffffffffffff191614155b15615a23578080615a1b9061810c565b9150506159ba565b5f8160ff1667ffffffffffffffff811115615a4157615a40616481565b5b6040519080825280601f01601f191660200182016040528015615a735781602001600182028036833780820191505090505b5090505f91505b60208260ff16108015615acb57505f60f81b848360ff1660208110615aa257615aa1616d78565b5b1a60f81b7effffffffffffffffffffffffffffffffffffffffffffffffffffffffffffff191614155b15615b4157838260ff1660208110615ae657615ae5616d78565b5b1a60f81b818360ff1681518110615b0057615aff616d78565b5b60200101907effffffffffffffffffffffffffffffffffffffffffffffffffffffffffffff191690815f1a9053508180615b399061810c565b925050615a7a565b8092505050919050565b604051806101000160405280606081526020015f73ffffffffffffffffffffffffffffffffffffffff168152602001606081526020015f6003811115615b9457615b93615f29565b5b81526020015f151581526020015f151581526020015f73ffffffffffffffffffffffffffffffffffffffff1681526020015f81525090565b828054828255905f5260205f20908101928215615c42579160200282015b82811115615c41578251825f6101000a81548173ffffffffffffffffffffffffffffffffffffffff021916908373ffffffffffffffffffffffffffffffffffffffff16021790555091602001919060010190615bea565b5b509050615c4f9190615d39565b5090565b828054828255905f5260205f20908101928215615c8d579160200282015b82811115615c8c578251825591602001919060010190615c71565b5b509050615c9a9190615d39565b5090565b6040518061014001604052805f73ffffffffffffffffffffffffffffffffffffffff1681526020015f73ffffffffffffffffffffffffffffffffffffffff1681526020015f81526020015f81526020015f6003811115615d0157615d00615f29565b5b81526020015f6003811115615d1957615d18615f29565b5b8152602001606081526020015f81526020015f8152602001606081525090565b5b80821115615d50575f815f905550600101615d3a565b5090565b5f604051905090565b5f5ffd5b5f5ffd5b5f7fffffffff0000000000000000000000000000000000000000000000000000000082169050919050565b615d9981615d65565b8114615da3575f5ffd5b50565b5f81359050615db481615d90565b92915050565b5f60208284031215615dcf57615dce615d5d565b5b5f615ddc84828501615da6565b91505092915050565b5f8115159050919050565b615df981615de5565b82525050565b5f602082019050615e125f830184615df0565b92915050565b5f73ffffffffffffffffffffffffffffffffffffffff82169050919050565b5f819050919050565b5f615e5a615e55615e5084615e18565b615e37565b615e18565b9050919050565b5f615e6b82615e40565b9050919050565b5f615e7c82615e61565b9050919050565b615e8c81615e72565b82525050565b5f602082019050615ea55f830184615e83565b92915050565b5f819050919050565b615ebd81615eab565b8114615ec7575f5ffd5b50565b5f81359050615ed881615eb4565b92915050565b5f60208284031215615ef357615ef2615d5d565b5b5f615f0084828501615eca565b91505092915050565b5f615f1382615e18565b9050919050565b615f2381615f09565b82525050565b7f4e487b71000000000000000000000000000000000000000000000000000000005f52602160045260245ffd5b60048110615f6757615f66615f29565b5b50565b5f819050615f7782615f56565b919050565b5f615f8682615f6a565b9050919050565b615f9681615f7c565b82525050565b615fa581615eab565b82525050565b5f60c082019050615fbe5f830189615f1a565b615fcb6020830188615f8d565b615fd86040830187615df0565b615fe56060830186615df0565b615ff26080830185615f1a565b615fff60a0830184615f9c565b979650505050505050565b61601381615f09565b811461601d575f5ffd5b50565b5f8135905061602e8161600a565b92915050565b5f6020828403121561604957616048615d5d565b5b5f61605684828501616020565b91505092915050565b5f6020820190506160725f830184615f9c565b92915050565b5f819050919050565b61608a81616078565b8114616094575f5ffd5b50565b5f813590506160a581616081565b92915050565b5f602082840312156160c0576160bf615d5d565b5b5f6160cd84828501616097565b91505092915050565b6160df81616078565b82525050565b5f6020820190506160f85f8301846160d6565b92915050565b5f61610882615e40565b9050919050565b5f616119826160fe565b9050919050565b6161298161610f565b82525050565b5f6020820190506161425f830184616120565b92915050565b5f5f6040838503121561615e5761615d615d5d565b5b5f61616b85828601616097565b925050602061617c85828601616020565b9150509250929050565b5f81519050919050565b5f82825260208201905092915050565b5f819050602082019050919050565b6161b881615f09565b82525050565b5f6161c983836161af565b60208301905092915050565b5f602082019050919050565b5f6161eb82616186565b6161f58185616190565b9350616200836161a0565b805f5b8381101561623057815161621788826161be565b9750616222836161d5565b925050600181019050616203565b5085935050505092915050565b5f81519050919050565b5f82825260208201905092915050565b5f819050602082019050919050565b61626f81615eab565b82525050565b5f6162808383616266565b60208301905092915050565b5f602082019050919050565b5f6162a28261623d565b6162ac8185616247565b93506162b783616257565b805f5b838110156162e75781516162ce8882616275565b97506162d98361628c565b9250506001810190506162ba565b5085935050505092915050565b6162fd81615f7c565b82525050565b61630c81615de5565b82525050565b5f61010083015f8301518482035f86015261632d82826161e1565b915050602083015161634260208601826161af565b506040830151848203604086015261635a8282616298565b915050606083015161636f60608601826162f4565b5060808301516163826080860182616303565b5060a083015161639560a0860182616303565b5060c08301516163a860c08601826161af565b5060e08301516163bb60e0860182616266565b508091505092915050565b5f6020820190508181035f8301526163de8184616312565b905092915050565b600481106163f2575f5ffd5b50565b5f81359050616403816163e6565b92915050565b5f5f5f5f6080858703121561642157616420615d5d565b5b5f61642e87828801616020565b945050602061643f87828801616020565b935050604061645087828801615eca565b9250506060616461878288016163f5565b91505092959194509250565b5f5ffd5b5f601f19601f8301169050919050565b7f4e487b71000000000000000000000000000000000000000000000000000000005f52604160045260245ffd5b6164b782616471565b810181811067ffffffffffffffff821117156164d6576164d5616481565b5b80604052505050565b5f6164e8615d54565b90506164f482826164ae565b919050565b5f67ffffffffffffffff82111561651357616512616481565b5b602082029050602081019050919050565b5f5ffd5b5f61653a616535846164f9565b6164df565b9050808382526020820190506020840283018581111561655d5761655c616524565b5b835b8181101561658657806165728882616020565b84526020840193505060208101905061655f565b5050509392505050565b5f82601f8301126165a4576165a361646d565b5b81356165b4848260208601616528565b91505092915050565b5f67ffffffffffffffff8211156165d7576165d6616481565b5b602082029050602081019050919050565b5f6165fa6165f5846165bd565b6164df565b9050808382526020820190506020840283018581111561661d5761661c616524565b5b835b8181101561664657806166328882615eca565b84526020840193505060208101905061661f565b5050509392505050565b5f82601f8301126166645761666361646d565b5b81356166748482602086016165e8565b91505092915050565b5f5f5f5f6080858703121561669557616694615d5d565b5b5f85013567ffffffffffffffff8111156166b2576166b1615d61565b5b6166be87828801616590565b94505060206166cf87828801616020565b935050604085013567ffffffffffffffff8111156166f0576166ef615d61565b5b6166fc87828801616650565b925050606061670d878288016163f5565b91505092959194509250565b5f61672382615e18565b9050919050565b61673381616719565b811461673d575f5ffd5b50565b5f8135905061674e8161672a565b92915050565b5f6020828403121561676957616768615d5d565b5b5f61677684828501616740565b91505092915050565b5f81519050919050565b5f82825260208201905092915050565b5f819050602082019050919050565b600481106167b9576167b8615f29565b5b50565b5f8190506167c9826167a8565b919050565b5f6167d8826167bc565b9050919050565b6167e8816167ce565b82525050565b5f81519050919050565b5f82825260208201905092915050565b8281835e5f83830152505050565b5f616820826167ee565b61682a81856167f8565b935061683a818560208601616808565b61684381616471565b840191505092915050565b5f61014083015f8301516168645f8601826161af565b50602083015161687760208601826161af565b50604083015161688a6040860182616266565b50606083015161689d6060860182616266565b5060808301516168b060808601826162f4565b5060a08301516168c360a08601826167df565b5060c083015184820360c08601526168db8282616816565b91505060e08301516168f060e0860182616266565b50610100830151616905610100860182616266565b5061012083015184820361012086015261691f8282616816565b9150508091505092915050565b5f616937838361684e565b905092915050565b5f602082019050919050565b5f6169558261677f565b61695f8185616789565b93508360208202850161697185616799565b805f5b858110156169ac578484038952815161698d858261692c565b94506169988361693f565b925060208a01995050600181019050616974565b50829750879550505050505092915050565b5f6020820190508181035f8301526169d6818461694b565b905092915050565b5f5f604083850312156169f4576169f3615d5d565b5b5f616a0185828601616020565b9250506020616a1285828601615eca565b9150509250929050565b616a25816167ce565b82525050565b5f82825260208201905092915050565b5f616a45826167ee565b616a4f8185616a2b565b9350616a5f818560208601616808565b616a6881616471565b840191505092915050565b5f61014082019050616a875f83018d615f1a565b616a94602083018c615f1a565b616aa1604083018b615f9c565b616aae606083018a615f9c565b616abb6080830189615f8d565b616ac860a0830188616a1c565b81810360c0830152616ada8187616a3b565b9050616ae960e0830186615f9c565b616af7610100830185615f9c565b818103610120830152616b0a8184616a3b565b90509b9a5050505050505050505050565b5f602082019050616b2e5f830184615f1a565b92915050565b5f61014083015f830151616b4a5f8601826161af565b506020830151616b5d60208601826161af565b506040830151616b706040860182616266565b506060830151616b836060860182616266565b506080830151616b9660808601826162f4565b5060a0830151616ba960a08601826167df565b5060c083015184820360c0860152616bc18282616816565b91505060e0830151616bd660e0860182616266565b50610100830151616beb610100860182616266565b50610120830151848203610120860152616c058282616816565b9150508091505092915050565b5f6020820190508181035f830152616c2a8184616b34565b905092915050565b5f5f5f60608486031215616c4957616c48615d5d565b5b5f616c5686828701616020565b9350506020616c6786828701616020565b9250506040616c7886828701615eca565b9150509250925092565b616c8b81615de5565b8114616c95575f5ffd5b50565b5f81359050616ca681616c82565b92915050565b5f60208284031215616cc157616cc0615d5d565b5b5f616cce84828501616c98565b91505092915050565b5f616ce182615e61565b9050919050565b616cf181616cd7565b82525050565b5f602082019050616d0a5f830184616ce8565b92915050565b7f496e76616c6964206261746368204944000000000000000000000000000000005f82015250565b5f616d44601083616a2b565b9150616d4f82616d10565b602082019050919050565b5f6020820190508181035f830152616d7181616d38565b9050919050565b7f4e487b71000000000000000000000000000000000000000000000000000000005f52603260045260245ffd5b5f604082019050616db85f8301856160d6565b616dc56020830184615f1a565b9392505050565b5f81519050616dda81616c82565b92915050565b5f60208284031215616df557616df4615d5d565b5b5f616e0284828501616dcc565b91505092915050565b7f4e6f7420617574686f72697a65640000000000000000000000000000000000005f82015250565b5f616e3f600e83616a2b565b9150616e4a82616e0b565b602082019050919050565b5f6020820190508181035f830152616e6c81616e33565b9050919050565b5f5ffd5b5f81519050616e858161600a565b92915050565b5f81519050616e9981615eb4565b92915050565b60038110616eab575f5ffd5b50565b5f81519050616ebc81616e9f565b92915050565b5f819050919050565b616ed481616ec2565b8114616ede575f5ffd5b50565b5f81519050616eef81616ecb565b92915050565b5f6101808284031215616f0b57616f0a616e73565b5b616f166101806164df565b90505f616f2584828501616e77565b5f830152506020616f3884828501616e8b565b6020830152506040616f4c84828501616eae565b6040830152506060616f6084828501616e77565b6060830152506080616f7484828501616dcc565b60808301525060a0616f8884828501616e8b565b60a08301525060c0616f9c84828501616e8b565b60c08301525060e0616fb084828501616e8b565b60e083015250610100616fc584828501616ee1565b61010083015250610120616fdb84828501616ee1565b61012083015250610140616ff184828501616e8b565b6101408301525061016061700784828501616dcc565b6101608301525092915050565b5f610180828403121561702a57617029615d5d565b5b5f61703784828501616ef5565b91505092915050565b7f456d706c6f796565206e6f7420616374697665000000000000000000000000005f82015250565b5f617074601383616a2b565b915061707f82617040565b602082019050919050565b5f6020820190508181035f8301526170a181617068565b9050919050565b7f4e487b71000000000000000000000000000000000000000000000000000000005f52601160045260245ffd5b5f6170df82615eab565b91506170ea83615eab565b9250828203905081811115617102576171016170a8565b5b92915050565b5f60408201905061711b5f830185615f1a565b6171286020830184615f9c565b9392505050565b5f61713982615eab565b91507fffffffffffffffffffffffffffffffffffffffffffffffffffffffffffffffff820361716b5761716a6170a8565b5b600182019050919050565b7f4e487b71000000000000000000000000000000000000000000000000000000005f52602260045260245ffd5b5f60028204905060018216806171ba57607f821691505b6020821081036171cd576171cc617176565b5b50919050565b5f819050815f5260205f209050919050565b5f6020601f8301049050919050565b5f82821b905092915050565b5f6008830261722f7fffffffffffffffffffffffffffffffffffffffffffffffffffffffffffffffff826171f4565b61723986836171f4565b95508019841693508086168417925050509392505050565b5f61726b61726661726184615eab565b615e37565b615eab565b9050919050565b5f819050919050565b61728483617251565b61729861729082617272565b848454617200565b825550505050565b5f5f905090565b6172af6172a0565b6172ba81848461727b565b505050565b5b818110156172dd576172d25f826172a7565b6001810190506172c0565b5050565b601f821115617322576172f3816171d3565b6172fc846171e5565b8101602085101561730b578190505b61731f617317856171e5565b8301826172bf565b50505b505050565b5f82821c905092915050565b5f6173425f1984600802617327565b1980831691505092915050565b5f61735a8383617333565b9150826002028217905092915050565b617373826167ee565b67ffffffffffffffff81111561738c5761738b616481565b5b61739682546171a3565b6173a18282856172e1565b5f60209050601f8311600181146173d2575f84156173c0578287015190505b6173ca858261734f565b865550617431565b601f1984166173e0866171d3565b5f5b82811015617407578489015182556001820191506020850194506020810190506173e2565b868310156174245784890151617420601f891682617333565b8355505b6001600288020188555050505b505050505050565b5f60808201905061744c5f830187615f9c565b6174596020830186615f8d565b6174666040830185616a1c565b6174736060830184615f9c565b95945050505050565b7f4f6e6c7920706179726f6c6c20636f72652063616e2063616c6c0000000000005f82015250565b5f6174b0601a83616a2b565b91506174bb8261747c565b602082019050919050565b5f6020820190508181035f8301526174dd816174a4565b9050919050565b7f496e76616c6964207061796d656e7420494400000000000000000000000000005f82015250565b5f617518601283616a2b565b9150617523826174e4565b602082019050919050565b5f6020820190508181035f8301526175458161750c565b9050919050565b7f5061796d656e74206e6f74206661696c656400000000000000000000000000005f82015250565b5f617580601283616a2b565b915061758b8261754c565b602082019050919050565b5f6020820190508181035f8301526175ad81617574565b9050919050565b7f4d617820726574726965732065786365656465640000000000000000000000005f82015250565b5f6175e8601483616a2b565b91506175f3826175b4565b602082019050919050565b5f6020820190508181035f830152617615816175dc565b9050919050565b5f61762682615eab565b915061763183615eab565b9250828201905080821115617649576176486170a8565b5b92915050565b5f61765982615eab565b915061766483615eab565b925082820261767281615eab565b91508282048414831517617689576176886170a8565b5b5092915050565b7f52657472792064656c6179206e6f74206d6574000000000000000000000000005f82015250565b5f6176c4601383616a2b565b91506176cf82617690565b602082019050919050565b5f6020820190508181035f8301526176f1816176b8565b9050919050565b5f61770282615eab565b91505f8203617714576177136170a8565b5b600182039050919050565b5f6040820190506177325f830185615f9c565b61773f6020830184615f9c565b9392505050565b7f4172726179206c656e677468206d69736d6174636800000000000000000000005f82015250565b5f61777a601583616a2b565b915061778582617746565b602082019050919050565b5f6020820190508181035f8301526177a78161776e565b9050919050565b7f4e6f20656d706c6f7965657320737065636966696564000000000000000000005f82015250565b5f6177e2601683616a2b565b91506177ed826177ae565b602082019050919050565b5f6020820190508181035f83015261780f816177d6565b9050919050565b5f6040820190506178295f830185615f9c565b6178366020830184615f1a565b9392505050565b7f4261746368206e6f7420617070726f76656400000000000000000000000000005f82015250565b5f617871601283616a2b565b915061787c8261783d565b602082019050919050565b5f6020820190508181035f83015261789e81617865565b9050919050565b7f426174636820616c72656164792070726f6365737365640000000000000000005f82015250565b5f6178d9601783616a2b565b91506178e4826178a5565b602082019050919050565b5f6020820190508181035f830152617906816178cd565b9050919050565b5f6080820190506179205f830187615f9c565b61792d6020830186615f9c565b61793a6040830185615f9c565b6179476060830184615f9c565b95945050505050565b7f42415443485f5041594d454e545f50524f4345535345440000000000000000005f82015250565b5f617984601783616a2b565b915061798f82617950565b602082019050919050565b5f81519050919050565b5f82825260208201905092915050565b5f6179be8261799a565b6179c881856179a4565b93506179d8818560208601616808565b6179e181616471565b840191505092915050565b5f6060820190506179ff5f830185615f1a565b8181036020830152617a1081617978565b90508181036040830152617a2481846179b4565b90509392505050565b5f617a3f617a3a846164f9565b6164df565b90508083825260208201905060208402830185811115617a6257617a61616524565b5b835b81811015617a8b5780617a778882616e77565b845260208401935050602081019050617a64565b5050509392505050565b5f82601f830112617aa957617aa861646d565b5b8151617ab9848260208601617a2d565b91505092915050565b5f60208284031215617ad757617ad6615d5d565b5b5f82015167ffffffffffffffff811115617af457617af3615d61565b5b617b0084828501617a95565b91505092915050565b5f60208284031215617b1e57617b1d615d5d565b5b5f617b2b84828501616e8b565b91505092915050565b5f606082019050617b475f830186615f9c565b617b546020830185615f9c565b617b616040830184615f9c565b949350505050565b7f5343484544554c45445f5041594d454e54535f50524f434553534544000000005f82015250565b5f617b9d601c83616a2b565b9150617ba882617b69565b602082019050919050565b5f606082019050617bc65f830185615f1a565b8181036020830152617bd781617b91565b90508181036040830152617beb81846179b4565b90509392505050565b7f426174636820616c726561647920617070726f766564000000000000000000005f82015250565b5f617c28601683616a2b565b9150617c3382617bf4565b602082019050919050565b5f6020820190508181035f830152617c5581617c1c565b9050919050565b7f426174636820646f65736e2774207265717569726520617070726f76616c00005f82015250565b5f617c90601e83616a2b565b9150617c9b82617c5c565b602082019050919050565b5f6020820190508181035f830152617cbd81617c84565b9050919050565b5f606082019050617cd75f830186615f1a565b617ce46020830185615f1a565b617cf16040830184615f9c565b949350505050565b7f5265656e7472616e637947756172643a207265656e7472616e742063616c6c005f82015250565b5f617d2d601f83616a2b565b9150617d3882617cf9565b602082019050919050565b5f6020820190508181035f830152617d5a81617d21565b9050919050565b5f81905092915050565b7f456d706c6f7965653a20000000000000000000000000000000000000000000005f82015250565b5f617d9f600a83617d61565b9150617daa82617d6b565b600a82019050919050565b5f617dbf826167ee565b617dc98185617d61565b9350617dd9818560208601616808565b80840191505092915050565b7f20416d6f756e743a2000000000000000000000000000000000000000000000005f82015250565b5f617e19600983617d61565b9150617e2482617de5565b600982019050919050565b7f20546f6b656e3a200000000000000000000000000000000000000000000000005f82015250565b5f617e63600883617d61565b9150617e6e82617e2f565b600882019050919050565b7f2054696d657374616d703a2000000000000000000000000000000000000000005f82015250565b5f617ead600c83617d61565b9150617eb882617e79565b600c82019050919050565b5f617ecd82617d93565b9150617ed98287617db5565b9150617ee482617e0d565b9150617ef08286617db5565b9150617efb82617e57565b9150617f078285617db5565b9150617f1282617ea1565b9150617f1e8284617db5565b915081905095945050505050565b5f617f378284617db5565b915081905092915050565b5f604082019050617f555f830185615f9c565b8181036020830152617f678184616a3b565b90509392505050565b5f60a082019050617f835f830188615f1a565b617f906020830187615f9c565b617f9d6040830186615f8d565b617faa6060830185616a1c565b617fb76080830184615f9c565b9695505050505050565b7f5041594d454e545f50524f4345535345440000000000000000000000000000005f82015250565b5f617ff5601183616a2b565b915061800082617fc1565b602082019050919050565b5f60608201905061801e5f830185615f1a565b818103602083015261802f81617fe9565b9050818103604083015261804381846179b4565b90509392505050565b5f60408201905061805f5f830185615f1a565b61806c60208301846160d6565b9392505050565b7f4e487b71000000000000000000000000000000000000000000000000000000005f52601260045260245ffd5b5f6180aa82615eab565b91506180b583615eab565b9250826180c5576180c4618073565b5b828204905092915050565b5f6180da82615eab565b91506180e583615eab565b9250826180f5576180f4618073565b5b828206905092915050565b5f60ff82169050919050565b5f61811682618100565b915060ff8203618129576181286170a8565b5b60018201905091905056fea26469706673582212207a4eb88452d66df5d27749bb88fee7cfd4437c79b80bc37a1a52dc15a64e7d8e64736f6c634300081e0033",
			"opcodes": "PUSH1 0x80 PUSH1 0x40 MSTORE PUSH1 0x3 PUSH1 0xB SSTORE PUSH2 0xE10 PUSH1 0xC SSTORE PUSH1 0x1 PUSH1 0xD PUSH0 PUSH2 0x100 EXP DUP2 SLOAD DUP2 PUSH1 0xFF MUL NOT AND SWAP1 DUP4 ISZERO ISZERO MUL OR SWAP1 SSTORE POP CALLVALUE DUP1 ISZERO PUSH2 0x34 JUMPI PUSH0 PUSH0 REVERT JUMPDEST POP PUSH1 0x40 MLOAD PUSH2 0x82A3 CODESIZE SUB DUP1 PUSH2 0x82A3 DUP4 CODECOPY DUP2 DUP2 ADD PUSH1 0x40 MSTORE DUP2 ADD SWAP1 PUSH2 0x56 SWAP2 SWAP1 PUSH2 0x101 JUMP JUMPDEST PUSH1 0x1 DUP1 DUP2 SWAP1 SSTORE POP DUP1 PUSH1 0x2 PUSH0 PUSH2 0x100 EXP DUP2 SLOAD DUP2 PUSH20 0xFFFFFFFFFFFFFFFFFFFFFFFFFFFFFFFFFFFFFFFF MUL NOT AND SWAP1 DUP4 PUSH20 0xFFFFFFFFFFFFFFFFFFFFFFFFFFFFFFFFFFFFFFFF AND MUL OR SWAP1 SSTORE POP POP PUSH2 0x12C JUMP JUMPDEST PUSH0 PUSH0 REVERT JUMPDEST PUSH0 PUSH20 0xFFFFFFFFFFFFFFFFFFFFFFFFFFFFFFFFFFFFFFFF DUP3 AND SWAP1 POP SWAP2 SWAP1 POP JUMP JUMPDEST PUSH0 PUSH2 0xD0 DUP3 PUSH2 0xA7 JUMP JUMPDEST SWAP1 POP SWAP2 SWAP1 POP JUMP JUMPDEST PUSH2 0xE0 DUP2 PUSH2 0xC6 JUMP JUMPDEST DUP2 EQ PUSH2 0xEA JUMPI PUSH0 PUSH0 REVERT JUMPDEST POP JUMP JUMPDEST PUSH0 DUP2 MLOAD SWAP1 POP PUSH2 0xFB DUP2 PUSH2 0xD7 JUMP JUMPDEST SWAP3 SWAP2 POP POP JUMP JUMPDEST PUSH0 PUSH1 0x20 DUP3 DUP5 SUB SLT ISZERO PUSH2 0x116 JUMPI PUSH2 0x115 PUSH2 0xA3 JUMP JUMPDEST JUMPDEST PUSH0 PUSH2 0x123 DUP5 DUP3 DUP6 ADD PUSH2 0xED JUMP JUMPDEST SWAP2 POP POP SWAP3 SWAP2 POP POP JUMP JUMPDEST PUSH2 0x816A DUP1 PUSH2 0x139 PUSH0 CODECOPY PUSH0 RETURN INVALID PUSH1 0x80 PUSH1 0x40 MSTORE CALLVALUE DUP1 ISZERO PUSH2 0xF JUMPI PUSH0 PUSH0 REVERT JUMPDEST POP PUSH1 0x4 CALLDATASIZE LT PUSH2 0x246 JUMPI PUSH0 CALLDATALOAD PUSH1 0xE0 SHR DUP1 PUSH4 0x80344C24 GT PUSH2 0x139 JUMPI DUP1 PUSH4 0xADE77AD3 GT PUSH2 0xB6 JUMPI DUP1 PUSH4 0xD547741F GT PUSH2 0x7A JUMPI DUP1 PUSH4 0xD547741F EQ PUSH2 0x74F JUMPI DUP1 PUSH4 0xD7E0E541 EQ PUSH2 0x76B JUMPI DUP1 PUSH4 0xE4DD015A EQ PUSH2 0x787 JUMPI DUP1 PUSH4 0xF649EC87 EQ PUSH2 0x7B7 JUMPI DUP1 PUSH4 0xFB511477 EQ PUSH2 0x7D5 JUMPI PUSH2 0x246 JUMP JUMPDEST DUP1 PUSH4 0xADE77AD3 EQ PUSH2 0x699 JUMPI DUP1 PUSH4 0xB9EE6E55 EQ PUSH2 0x6B5 JUMPI DUP1 PUSH4 0xBBD8ACBE EQ PUSH2 0x6D1 JUMPI DUP1 PUSH4 0xC1D446BE EQ PUSH2 0x6EF JUMPI DUP1 PUSH4 0xC7D20E1B EQ PUSH2 0x71F JUMPI PUSH2 0x246 JUMP JUMPDEST DUP1 PUSH4 0x9B101F9A GT PUSH2 0xFD JUMPI DUP1 PUSH4 0x9B101F9A EQ PUSH2 0x5EA JUMPI DUP1 PUSH4 0xA1C7C1A6 EQ PUSH2 0x61A JUMPI DUP1 PUSH4 0xA217FDDF EQ PUSH2 0x638 JUMPI DUP1 PUSH4 0xA5E047B8 EQ PUSH2 0x656 JUMPI DUP1 PUSH4 0xACEFC3E7 EQ PUSH2 0x68F JUMPI PUSH2 0x246 JUMP JUMPDEST DUP1 PUSH4 0x80344C24 EQ PUSH2 0x52B JUMPI DUP1 PUSH4 0x89E482CE EQ PUSH2 0x547 JUMPI DUP1 PUSH4 0x8B5A3853 EQ PUSH2 0x565 JUMPI DUP1 PUSH4 0x8D7D2BD7 EQ PUSH2 0x59E JUMPI DUP1 PUSH4 0x91D14854 EQ PUSH2 0x5BA JUMPI PUSH2 0x246 JUMP JUMPDEST DUP1 PUSH4 0x349B5954 GT PUSH2 0x1C7 JUMPI DUP1 PUSH4 0x708F29A6 GT PUSH2 0x18B JUMPI DUP1 PUSH4 0x708F29A6 EQ PUSH2 0x473 JUMPI DUP1 PUSH4 0x75B238FC EQ PUSH2 0x491 JUMPI DUP1 PUSH4 0x7A08A7F9 EQ PUSH2 0x4AF JUMPI DUP1 PUSH4 0x7CB2B79C EQ PUSH2 0x4DF JUMPI DUP1 PUSH4 0x7DA2BA7C EQ PUSH2 0x4FB JUMPI PUSH2 0x246 JUMP JUMPDEST DUP1 PUSH4 0x349B5954 EQ PUSH2 0x3E5 JUMPI DUP1 PUSH4 0x36568ABE EQ PUSH2 0x403 JUMPI DUP1 PUSH4 0x460515A1 EQ PUSH2 0x41F JUMPI DUP1 PUSH4 0x526777E9 EQ PUSH2 0x43B JUMPI DUP1 PUSH4 0x59502D1F EQ PUSH2 0x457 JUMPI PUSH2 0x246 JUMP JUMPDEST DUP1 PUSH4 0x248A9CA3 GT PUSH2 0x20E JUMPI DUP1 PUSH4 0x248A9CA3 EQ PUSH2 0x31B JUMPI DUP1 PUSH4 0x2A709B14 EQ PUSH2 0x34B JUMPI DUP1 PUSH4 0x2F2FF15D EQ PUSH2 0x369 JUMPI DUP1 PUSH4 0x2FCEF5CC EQ PUSH2 0x385 JUMPI DUP1 PUSH4 0x315873FF EQ PUSH2 0x3B5 JUMPI PUSH2 0x246 JUMP JUMPDEST DUP1 PUSH4 0x1FFC9A7 EQ PUSH2 0x24A JUMPI DUP1 PUSH4 0x921224B EQ PUSH2 0x27A JUMPI DUP1 PUSH4 0x1457A872 EQ PUSH2 0x298 JUMPI DUP1 PUSH4 0x153244E6 EQ PUSH2 0x2CD JUMPI DUP1 PUSH4 0x1ACF39BF EQ PUSH2 0x2FD JUMPI JUMPDEST PUSH0 PUSH0 REVERT JUMPDEST PUSH2 0x264 PUSH1 0x4 DUP1 CALLDATASIZE SUB DUP2 ADD SWAP1 PUSH2 0x25F SWAP2 SWAP1 PUSH2 0x5DBA JUMP JUMPDEST PUSH2 0x7F3 JUMP JUMPDEST PUSH1 0x40 MLOAD PUSH2 0x271 SWAP2 SWAP1 PUSH2 0x5DFF JUMP JUMPDEST PUSH1 0x40 MLOAD DUP1 SWAP2 SUB SWAP1 RETURN JUMPDEST PUSH2 0x282 PUSH2 0x86C JUMP JUMPDEST PUSH1 0x40 MLOAD PUSH2 0x28F SWAP2 SWAP1 PUSH2 0x5E92 JUMP JUMPDEST PUSH1 0x40 MLOAD DUP1 SWAP2 SUB SWAP1 RETURN JUMPDEST PUSH2 0x2B2 PUSH1 0x4 DUP1 CALLDATASIZE SUB DUP2 ADD SWAP1 PUSH2 0x2AD SWAP2 SWAP1 PUSH2 0x5EDE JUMP JUMPDEST PUSH2 0x891 JUMP JUMPDEST PUSH1 0x40 MLOAD PUSH2 0x2C4 SWAP7 SWAP6 SWAP5 SWAP4 SWAP3 SWAP2 SWAP1 PUSH2 0x5FAB JUMP JUMPDEST PUSH1 0x40 MLOAD DUP1 SWAP2 SUB SWAP1 RETURN JUMPDEST PUSH2 0x2E7 PUSH1 0x4 DUP1 CALLDATASIZE SUB DUP2 ADD SWAP1 PUSH2 0x2E2 SWAP2 SWAP1 PUSH2 0x6034 JUMP JUMPDEST PUSH2 0x93E JUMP JUMPDEST PUSH1 0x40 MLOAD PUSH2 0x2F4 SWAP2 SWAP1 PUSH2 0x605F JUMP JUMPDEST PUSH1 0x40 MLOAD DUP1 SWAP2 SUB SWAP1 RETURN JUMPDEST PUSH2 0x305 PUSH2 0x953 JUMP JUMPDEST PUSH1 0x40 MLOAD PUSH2 0x312 SWAP2 SWAP1 PUSH2 0x5DFF JUMP JUMPDEST PUSH1 0x40 MLOAD DUP1 SWAP2 SUB SWAP1 RETURN JUMPDEST PUSH2 0x335 PUSH1 0x4 DUP1 CALLDATASIZE SUB DUP2 ADD SWAP1 PUSH2 0x330 SWAP2 SWAP1 PUSH2 0x60AB JUMP JUMPDEST PUSH2 0x965 JUMP JUMPDEST PUSH1 0x40 MLOAD PUSH2 0x342 SWAP2 SWAP1 PUSH2 0x60E5 JUMP JUMPDEST PUSH1 0x40 MLOAD DUP1 SWAP2 SUB SWAP1 RETURN JUMPDEST PUSH2 0x353 PUSH2 0x981 JUMP JUMPDEST PUSH1 0x40 MLOAD PUSH2 0x360 SWAP2 SWAP1 PUSH2 0x612F JUMP JUMPDEST PUSH1 0x40 MLOAD DUP1 SWAP2 SUB SWAP1 RETURN JUMPDEST PUSH2 0x383 PUSH1 0x4 DUP1 CALLDATASIZE SUB DUP2 ADD SWAP1 PUSH2 0x37E SWAP2 SWAP1 PUSH2 0x6148 JUMP JUMPDEST PUSH2 0x9A6 JUMP JUMPDEST STOP JUMPDEST PUSH2 0x39F PUSH1 0x4 DUP1 CALLDATASIZE SUB DUP2 ADD SWAP1 PUSH2 0x39A SWAP2 SWAP1 PUSH2 0x5EDE JUMP JUMPDEST PUSH2 0x9C8 JUMP JUMPDEST PUSH1 0x40 MLOAD PUSH2 0x3AC SWAP2 SWAP1 PUSH2 0x63C6 JUMP JUMPDEST PUSH1 0x40 MLOAD DUP1 SWAP2 SUB SWAP1 RETURN JUMPDEST PUSH2 0x3CF PUSH1 0x4 DUP1 CALLDATASIZE SUB DUP2 ADD SWAP1 PUSH2 0x3CA SWAP2 SWAP1 PUSH2 0x6409 JUMP JUMPDEST PUSH2 0xC4F JUMP JUMPDEST PUSH1 0x40 MLOAD PUSH2 0x3DC SWAP2 SWAP1 PUSH2 0x5DFF JUMP JUMPDEST PUSH1 0x40 MLOAD DUP1 SWAP2 SUB SWAP1 RETURN JUMPDEST PUSH2 0x3ED PUSH2 0x14DC JUMP JUMPDEST PUSH1 0x40 MLOAD PUSH2 0x3FA SWAP2 SWAP1 PUSH2 0x60E5 JUMP JUMPDEST PUSH1 0x40 MLOAD DUP1 SWAP2 SUB SWAP1 RETURN JUMPDEST PUSH2 0x41D PUSH1 0x4 DUP1 CALLDATASIZE SUB DUP2 ADD SWAP1 PUSH2 0x418 SWAP2 SWAP1 PUSH2 0x6148 JUMP JUMPDEST PUSH2 0x1500 JUMP JUMPDEST STOP JUMPDEST PUSH2 0x439 PUSH1 0x4 DUP1 CALLDATASIZE SUB DUP2 ADD SWAP1 PUSH2 0x434 SWAP2 SWAP1 PUSH2 0x6034 JUMP JUMPDEST PUSH2 0x157B JUMP JUMPDEST STOP JUMPDEST PUSH2 0x455 PUSH1 0x4 DUP1 CALLDATASIZE SUB DUP2 ADD SWAP1 PUSH2 0x450 SWAP2 SWAP1 PUSH2 0x5EDE JUMP JUMPDEST PUSH2 0x164D JUMP JUMPDEST STOP JUMPDEST PUSH2 0x471 PUSH1 0x4 DUP1 CALLDATASIZE SUB DUP2 ADD SWAP1 PUSH2 0x46C SWAP2 SWAP1 PUSH2 0x5EDE JUMP JUMPDEST PUSH2 0x23E2 JUMP JUMPDEST STOP JUMPDEST PUSH2 0x47B PUSH2 0x25A8 JUMP JUMPDEST PUSH1 0x40 MLOAD PUSH2 0x488 SWAP2 SWAP1 PUSH2 0x605F JUMP JUMPDEST PUSH1 0x40 MLOAD DUP1 SWAP2 SUB SWAP1 RETURN JUMPDEST PUSH2 0x499 PUSH2 0x25B4 JUMP JUMPDEST PUSH1 0x40 MLOAD PUSH2 0x4A6 SWAP2 SWAP1 PUSH2 0x60E5 JUMP JUMPDEST PUSH1 0x40 MLOAD DUP1 SWAP2 SUB SWAP1 RETURN JUMPDEST PUSH2 0x4C9 PUSH1 0x4 DUP1 CALLDATASIZE SUB DUP2 ADD SWAP1 PUSH2 0x4C4 SWAP2 SWAP1 PUSH2 0x667D JUMP JUMPDEST PUSH2 0x25D8 JUMP JUMPDEST PUSH1 0x40 MLOAD PUSH2 0x4D6 SWAP2 SWAP1 PUSH2 0x605F JUMP JUMPDEST PUSH1 0x40 MLOAD DUP1 SWAP2 SUB SWAP1 RETURN JUMPDEST PUSH2 0x4F9 PUSH1 0x4 DUP1 CALLDATASIZE SUB DUP2 ADD SWAP1 PUSH2 0x4F4 SWAP2 SWAP1 PUSH2 0x6754 JUMP JUMPDEST PUSH2 0x2A93 JUMP JUMPDEST STOP JUMPDEST PUSH2 0x515 PUSH1 0x4 DUP1 CALLDATASIZE SUB DUP2 ADD SWAP1 PUSH2 0x510 SWAP2 SWAP1 PUSH2 0x6034 JUMP JUMPDEST PUSH2 0x2B65 JUMP JUMPDEST PUSH1 0x40 MLOAD PUSH2 0x522 SWAP2 SWAP1 PUSH2 0x69BE JUMP JUMPDEST PUSH1 0x40 MLOAD DUP1 SWAP2 SUB SWAP1 RETURN JUMPDEST PUSH2 0x545 PUSH1 0x4 DUP1 CALLDATASIZE SUB DUP2 ADD SWAP1 PUSH2 0x540 SWAP2 SWAP1 PUSH2 0x5EDE JUMP JUMPDEST PUSH2 0x2E65 JUMP JUMPDEST STOP JUMPDEST PUSH2 0x54F PUSH2 0x3533 JUMP JUMPDEST PUSH1 0x40 MLOAD PUSH2 0x55C SWAP2 SWAP1 PUSH2 0x605F JUMP JUMPDEST PUSH1 0x40 MLOAD DUP1 SWAP2 SUB SWAP1 RETURN JUMPDEST PUSH2 0x57F PUSH1 0x4 DUP1 CALLDATASIZE SUB DUP2 ADD SWAP1 PUSH2 0x57A SWAP2 SWAP1 PUSH2 0x69DE JUMP JUMPDEST PUSH2 0x353F JUMP JUMPDEST PUSH1 0x40 MLOAD PUSH2 0x595 SWAP11 SWAP10 SWAP9 SWAP8 SWAP7 SWAP6 SWAP5 SWAP4 SWAP3 SWAP2 SWAP1 PUSH2 0x6A73 JUMP JUMPDEST PUSH1 0x40 MLOAD DUP1 SWAP2 SUB SWAP1 RETURN JUMPDEST PUSH2 0x5B8 PUSH1 0x4 DUP1 CALLDATASIZE SUB DUP2 ADD SWAP1 PUSH2 0x5B3 SWAP2 SWAP1 PUSH2 0x5EDE JUMP JUMPDEST PUSH2 0x370C JUMP JUMPDEST STOP JUMPDEST PUSH2 0x5D4 PUSH1 0x4 DUP1 CALLDATASIZE SUB DUP2 ADD SWAP1 PUSH2 0x5CF SWAP2 SWAP1 PUSH2 0x6148 JUMP JUMPDEST PUSH2 0x38D2 JUMP JUMPDEST PUSH1 0x40 MLOAD PUSH2 0x5E1 SWAP2 SWAP1 PUSH2 0x5DFF JUMP JUMPDEST PUSH1 0x40 MLOAD DUP1 SWAP2 SUB SWAP1 RETURN JUMPDEST PUSH2 0x604 PUSH1 0x4 DUP1 CALLDATASIZE SUB DUP2 ADD SWAP1 PUSH2 0x5FF SWAP2 SWAP1 PUSH2 0x6034 JUMP JUMPDEST PUSH2 0x3935 JUMP JUMPDEST PUSH1 0x40 MLOAD PUSH2 0x611 SWAP2 SWAP1 PUSH2 0x605F JUMP JUMPDEST PUSH1 0x40 MLOAD DUP1 SWAP2 SUB SWAP1 RETURN JUMPDEST PUSH2 0x622 PUSH2 0x397B JUMP JUMPDEST PUSH1 0x40 MLOAD PUSH2 0x62F SWAP2 SWAP1 PUSH2 0x6B1B JUMP JUMPDEST PUSH1 0x40 MLOAD DUP1 SWAP2 SUB SWAP1 RETURN JUMPDEST PUSH2 0x640 PUSH2 0x39A0 JUMP JUMPDEST PUSH1 0x40 MLOAD PUSH2 0x64D SWAP2 SWAP1 PUSH2 0x60E5 JUMP JUMPDEST PUSH1 0x40 MLOAD DUP1 SWAP2 SUB SWAP1 RETURN JUMPDEST PUSH2 0x670 PUSH1 0x4 DUP1 CALLDATASIZE SUB DUP2 ADD SWAP1 PUSH2 0x66B SWAP2 SWAP1 PUSH2 0x5EDE JUMP JUMPDEST PUSH2 0x39A6 JUMP JUMPDEST PUSH1 0x40 MLOAD PUSH2 0x686 SWAP11 SWAP10 SWAP9 SWAP8 SWAP7 SWAP6 SWAP5 SWAP4 SWAP3 SWAP2 SWAP1 PUSH2 0x6A73 JUMP JUMPDEST PUSH1 0x40 MLOAD DUP1 SWAP2 SUB SWAP1 RETURN JUMPDEST PUSH2 0x697 PUSH2 0x3B68 JUMP JUMPDEST STOP JUMPDEST PUSH2 0x6B3 PUSH1 0x4 DUP1 CALLDATASIZE SUB DUP2 ADD SWAP1 PUSH2 0x6AE SWAP2 SWAP1 PUSH2 0x6034 JUMP JUMPDEST PUSH2 0x3FA5 JUMP JUMPDEST STOP JUMPDEST PUSH2 0x6CF PUSH1 0x4 DUP1 CALLDATASIZE SUB DUP2 ADD SWAP1 PUSH2 0x6CA SWAP2 SWAP1 PUSH2 0x5EDE JUMP JUMPDEST PUSH2 0x4077 JUMP JUMPDEST STOP JUMPDEST PUSH2 0x6D9 PUSH2 0x4434 JUMP JUMPDEST PUSH1 0x40 MLOAD PUSH2 0x6E6 SWAP2 SWAP1 PUSH2 0x605F JUMP JUMPDEST PUSH1 0x40 MLOAD DUP1 SWAP2 SUB SWAP1 RETURN JUMPDEST PUSH2 0x709 PUSH1 0x4 DUP1 CALLDATASIZE SUB DUP2 ADD SWAP1 PUSH2 0x704 SWAP2 SWAP1 PUSH2 0x5EDE JUMP JUMPDEST PUSH2 0x443A JUMP JUMPDEST PUSH1 0x40 MLOAD PUSH2 0x716 SWAP2 SWAP1 PUSH2 0x6C12 JUMP JUMPDEST PUSH1 0x40 MLOAD DUP1 SWAP2 SUB SWAP1 RETURN JUMPDEST PUSH2 0x739 PUSH1 0x4 DUP1 CALLDATASIZE SUB DUP2 ADD SWAP1 PUSH2 0x734 SWAP2 SWAP1 PUSH2 0x6C32 JUMP JUMPDEST PUSH2 0x4722 JUMP JUMPDEST PUSH1 0x40 MLOAD PUSH2 0x746 SWAP2 SWAP1 PUSH2 0x605F JUMP JUMPDEST PUSH1 0x40 MLOAD DUP1 SWAP2 SUB SWAP1 RETURN JUMPDEST PUSH2 0x769 PUSH1 0x4 DUP1 CALLDATASIZE SUB DUP2 ADD SWAP1 PUSH2 0x764 SWAP2 SWAP1 PUSH2 0x6148 JUMP JUMPDEST PUSH2 0x47C9 JUMP JUMPDEST STOP JUMPDEST PUSH2 0x785 PUSH1 0x4 DUP1 CALLDATASIZE SUB DUP2 ADD SWAP1 PUSH2 0x780 SWAP2 SWAP1 PUSH2 0x6CAC JUMP JUMPDEST PUSH2 0x47EB JUMP JUMPDEST STOP JUMPDEST PUSH2 0x7A1 PUSH1 0x4 DUP1 CALLDATASIZE SUB DUP2 ADD SWAP1 PUSH2 0x79C SWAP2 SWAP1 PUSH2 0x5EDE JUMP JUMPDEST PUSH2 0x49C3 JUMP JUMPDEST PUSH1 0x40 MLOAD PUSH2 0x7AE SWAP2 SWAP1 PUSH2 0x5DFF JUMP JUMPDEST PUSH1 0x40 MLOAD DUP1 SWAP2 SUB SWAP1 RETURN JUMPDEST PUSH2 0x7BF PUSH2 0x49E0 JUMP JUMPDEST PUSH1 0x40 MLOAD PUSH2 0x7CC SWAP2 SWAP1 PUSH2 0x6CF7 JUMP JUMPDEST PUSH1 0x40 MLOAD DUP1 SWAP2 SUB SWAP1 RETURN JUMPDEST PUSH2 0x7DD PUSH2 0x4A05 JUMP JUMPDEST PUSH1 0x40 MLOAD PUSH2 0x7EA SWAP2 SWAP1 PUSH2 0x605F JUMP JUMPDEST PUSH1 0x40 MLOAD DUP1 SWAP2 SUB SWAP1 RETURN JUMPDEST PUSH0 PUSH32 0x7965DB0B00000000000000000000000000000000000000000000000000000000 PUSH28 0xFFFFFFFFFFFFFFFFFFFFFFFFFFFFFFFFFFFFFFFFFFFFFFFFFFFFFFFF NOT AND DUP3 PUSH28 0xFFFFFFFFFFFFFFFFFFFFFFFFFFFFFFFFFFFFFFFFFFFFFFFFFFFFFFFF NOT AND EQ DUP1 PUSH2 0x865 JUMPI POP PUSH2 0x864 DUP3 PUSH2 0x4A0B JUMP JUMPDEST JUMPDEST SWAP1 POP SWAP2 SWAP1 POP JUMP JUMPDEST PUSH1 0x5 PUSH0 SWAP1 SLOAD SWAP1 PUSH2 0x100 EXP SWAP1 DIV PUSH20 0xFFFFFFFFFFFFFFFFFFFFFFFFFFFFFFFFFFFFFFFF AND DUP2 JUMP JUMPDEST PUSH1 0x9 DUP2 DUP2 SLOAD DUP2 LT PUSH2 0x8A0 JUMPI PUSH0 DUP1 REVERT JUMPDEST SWAP1 PUSH0 MSTORE PUSH1 0x20 PUSH0 KECCAK256 SWAP1 PUSH1 0x5 MUL ADD PUSH0 SWAP2 POP SWAP1 POP DUP1 PUSH1 0x1 ADD PUSH0 SWAP1 SLOAD SWAP1 PUSH2 0x100 EXP SWAP1 DIV PUSH20 0xFFFFFFFFFFFFFFFFFFFFFFFFFFFFFFFFFFFFFFFF AND SWAP1 DUP1 PUSH1 0x3 ADD PUSH0 SWAP1 SLOAD SWAP1 PUSH2 0x100 EXP SWAP1 DIV PUSH1 0xFF AND SWAP1 DUP1 PUSH1 0x3 ADD PUSH1 0x1 SWAP1 SLOAD SWAP1 PUSH2 0x100 EXP SWAP1 DIV PUSH1 0xFF AND SWAP1 DUP1 PUSH1 0x3 ADD PUSH1 0x2 SWAP1 SLOAD SWAP1 PUSH2 0x100 EXP SWAP1 DIV PUSH1 0xFF AND SWAP1 DUP1 PUSH1 0x3 ADD PUSH1 0x3 SWAP1 SLOAD SWAP1 PUSH2 0x100 EXP SWAP1 DIV PUSH20 0xFFFFFFFFFFFFFFFFFFFFFFFFFFFFFFFFFFFFFFFF AND SWAP1 DUP1 PUSH1 0x4 ADD SLOAD SWAP1 POP DUP7 JUMP JUMPDEST PUSH1 0x8 PUSH1 0x20 MSTORE DUP1 PUSH0 MSTORE PUSH1 0x40 PUSH0 KECCAK256 PUSH0 SWAP2 POP SWAP1 POP SLOAD DUP2 JUMP JUMPDEST PUSH1 0xD PUSH0 SWAP1 SLOAD SWAP1 PUSH2 0x100 EXP SWAP1 DIV PUSH1 0xFF AND DUP2 JUMP JUMPDEST PUSH0 PUSH0 PUSH0 DUP4 DUP2 MSTORE PUSH1 0x20 ADD SWAP1 DUP2 MSTORE PUSH1 0x20 ADD PUSH0 KECCAK256 PUSH1 0x1 ADD SLOAD SWAP1 POP SWAP2 SWAP1 POP JUMP JUMPDEST PUSH1 0x4 PUSH0 SWAP1 SLOAD SWAP1 PUSH2 0x100 EXP SWAP1 DIV PUSH20 0xFFFFFFFFFFFFFFFFFFFFFFFFFFFFFFFFFFFFFFFF AND DUP2 JUMP JUMPDEST PUSH2 0x9AF DUP3 PUSH2 0x965 JUMP JUMPDEST PUSH2 0x9B8 DUP2 PUSH2 0x4A74 JUMP JUMPDEST PUSH2 0x9C2 DUP4 DUP4 PUSH2 0x4A88 JUMP JUMPDEST POP POP POP POP JUMP JUMPDEST PUSH2 0x9D0 PUSH2 0x5B4B JUMP JUMPDEST PUSH1 0x9 DUP1 SLOAD SWAP1 POP DUP3 LT PUSH2 0xA17 JUMPI PUSH1 0x40 MLOAD PUSH32 0x8C379A000000000000000000000000000000000000000000000000000000000 DUP2 MSTORE PUSH1 0x4 ADD PUSH2 0xA0E SWAP1 PUSH2 0x6D5A JUMP JUMPDEST PUSH1 0x40 MLOAD DUP1 SWAP2 SUB SWAP1 REVERT JUMPDEST PUSH1 0x9 DUP3 DUP2 SLOAD DUP2 LT PUSH2 0xA2B JUMPI PUSH2 0xA2A PUSH2 0x6D78 JUMP JUMPDEST JUMPDEST SWAP1 PUSH0 MSTORE PUSH1 0x20 PUSH0 KECCAK256 SWAP1 PUSH1 0x5 MUL ADD PUSH1 0x40 MLOAD DUP1 PUSH2 0x100 ADD PUSH1 0x40 MSTORE SWAP1 DUP2 PUSH0 DUP3 ADD DUP1 SLOAD DUP1 PUSH1 0x20 MUL PUSH1 0x20 ADD PUSH1 0x40 MLOAD SWAP1 DUP2 ADD PUSH1 0x40 MSTORE DUP1 SWAP3 SWAP2 SWAP1 DUP2 DUP2 MSTORE PUSH1 0x20 ADD DUP3 DUP1 SLOAD DUP1 ISZERO PUSH2 0xAC4 JUMPI PUSH1 0x20 MUL DUP3 ADD SWAP2 SWAP1 PUSH0 MSTORE PUSH1 0x20 PUSH0 KECCAK256 SWAP1 JUMPDEST DUP2 PUSH0 SWAP1 SLOAD SWAP1 PUSH2 0x100 EXP SWAP1 DIV PUSH20 0xFFFFFFFFFFFFFFFFFFFFFFFFFFFFFFFFFFFFFFFF AND PUSH20 0xFFFFFFFFFFFFFFFFFFFFFFFFFFFFFFFFFFFFFFFF AND DUP2 MSTORE PUSH1 0x20 ADD SWAP1 PUSH1 0x1 ADD SWAP1 DUP1 DUP4 GT PUSH2 0xA7B JUMPI JUMPDEST POP POP POP POP POP DUP2 MSTORE PUSH1 0x20 ADD PUSH1 0x1 DUP3 ADD PUSH0 SWAP1 SLOAD SWAP1 PUSH2 0x100 EXP SWAP1 DIV PUSH20 0xFFFFFFFFFFFFFFFFFFFFFFFFFFFFFFFFFFFFFFFF AND PUSH20 0xFFFFFFFFFFFFFFFFFFFFFFFFFFFFFFFFFFFFFFFF AND PUSH20 0xFFFFFFFFFFFFFFFFFFFFFFFFFFFFFFFFFFFFFFFF AND DUP2 MSTORE PUSH1 0x20 ADD PUSH1 0x2 DUP3 ADD DUP1 SLOAD DUP1 PUSH1 0x20 MUL PUSH1 0x20 ADD PUSH1 0x40 MLOAD SWAP1 DUP2 ADD PUSH1 0x40 MSTORE DUP1 SWAP3 SWAP2 SWAP1 DUP2 DUP2 MSTORE PUSH1 0x20 ADD DUP3 DUP1 SLOAD DUP1 ISZERO PUSH2 0xB6F JUMPI PUSH1 0x20 MUL DUP3 ADD SWAP2 SWAP1 PUSH0 MSTORE PUSH1 0x20 PUSH0 KECCAK256 SWAP1 JUMPDEST DUP2 SLOAD DUP2 MSTORE PUSH1 0x20 ADD SWAP1 PUSH1 0x1 ADD SWAP1 DUP1 DUP4 GT PUSH2 0xB5B JUMPI JUMPDEST POP POP POP POP POP DUP2 MSTORE PUSH1 0x20 ADD PUSH1 0x3 DUP3 ADD PUSH0 SWAP1 SLOAD SWAP1 PUSH2 0x100 EXP SWAP1 DIV PUSH1 0xFF AND PUSH1 0x3 DUP2 GT ISZERO PUSH2 0xB9C JUMPI PUSH2 0xB9B PUSH2 0x5F29 JUMP JUMPDEST JUMPDEST PUSH1 0x3 DUP2 GT ISZERO PUSH2 0xBAE JUMPI PUSH2 0xBAD PUSH2 0x5F29 JUMP JUMPDEST JUMPDEST DUP2 MSTORE PUSH1 0x20 ADD PUSH1 0x3 DUP3 ADD PUSH1 0x1 SWAP1 SLOAD SWAP1 PUSH2 0x100 EXP SWAP1 DIV PUSH1 0xFF AND ISZERO ISZERO ISZERO ISZERO DUP2 MSTORE PUSH1 0x20 ADD PUSH1 0x3 DUP3 ADD PUSH1 0x2 SWAP1 SLOAD SWAP1 PUSH2 0x100 EXP SWAP1 DIV PUSH1 0xFF AND ISZERO ISZERO ISZERO ISZERO DUP2 MSTORE PUSH1 0x20 ADD PUSH1 0x3 DUP3 ADD PUSH1 0x3 SWAP1 SLOAD SWAP1 PUSH2 0x100 EXP SWAP1 DIV PUSH20 0xFFFFFFFFFFFFFFFFFFFFFFFFFFFFFFFFFFFFFFFF AND PUSH20 0xFFFFFFFFFFFFFFFFFFFFFFFFFFFFFFFFFFFFFFFF AND PUSH20 0xFFFFFFFFFFFFFFFFFFFFFFFFFFFFFFFFFFFFFFFF AND DUP2 MSTORE PUSH1 0x20 ADD PUSH1 0x4 DUP3 ADD SLOAD DUP2 MSTORE POP POP SWAP1 POP SWAP2 SWAP1 POP JUMP JUMPDEST PUSH0 PUSH1 0x2 PUSH0 SWAP1 SLOAD SWAP1 PUSH2 0x100 EXP SWAP1 DIV PUSH20 0xFFFFFFFFFFFFFFFFFFFFFFFFFFFFFFFFFFFFFFFF AND PUSH20 0xFFFFFFFFFFFFFFFFFFFFFFFFFFFFFFFFFFFFFFFF AND PUSH4 0x91D14854 PUSH32 0xA49807205CE4D355092EF5A8A18F56E8913CF4A201FBE287825B095693C21775 CALLER PUSH1 0x40 MLOAD DUP4 PUSH4 0xFFFFFFFF AND PUSH1 0xE0 SHL DUP2 MSTORE PUSH1 0x4 ADD PUSH2 0xCCC SWAP3 SWAP2 SWAP1 PUSH2 0x6DA5 JUMP JUMPDEST PUSH1 0x20 PUSH1 0x40 MLOAD DUP1 DUP4 SUB DUP2 DUP7 GAS STATICCALL ISZERO DUP1 ISZERO PUSH2 0xCE7 JUMPI RETURNDATASIZE PUSH0 PUSH0 RETURNDATACOPY RETURNDATASIZE PUSH0 REVERT JUMPDEST POP POP POP POP PUSH1 0x40 MLOAD RETURNDATASIZE PUSH1 0x1F NOT PUSH1 0x1F DUP3 ADD AND DUP3 ADD DUP1 PUSH1 0x40 MSTORE POP DUP2 ADD SWAP1 PUSH2 0xD0B SWAP2 SWAP1 PUSH2 0x6DE0 JUMP JUMPDEST DUP1 PUSH2 0xDCD JUMPI POP PUSH1 0x2 PUSH0 SWAP1 SLOAD SWAP1 PUSH2 0x100 EXP SWAP1 DIV PUSH20 0xFFFFFFFFFFFFFFFFFFFFFFFFFFFFFFFFFFFFFFFF AND PUSH20 0xFFFFFFFFFFFFFFFFFFFFFFFFFFFFFFFFFFFFFFFF AND PUSH4 0x91D14854 PUSH32 0x940D6B1946FF1D2B5A9F1909219C3C81A370804B5BA0F91EC0828C99A2E6A681 CALLER PUSH1 0x40 MLOAD DUP4 PUSH4 0xFFFFFFFF AND PUSH1 0xE0 SHL DUP2 MSTORE PUSH1 0x4 ADD PUSH2 0xD8D SWAP3 SWAP2 SWAP1 PUSH2 0x6DA5 JUMP JUMPDEST PUSH1 0x20 PUSH1 0x40 MLOAD DUP1 DUP4 SUB DUP2 DUP7 GAS STATICCALL ISZERO DUP1 ISZERO PUSH2 0xDA8 JUMPI RETURNDATASIZE PUSH0 PUSH0 RETURNDATACOPY RETURNDATASIZE PUSH0 REVERT JUMPDEST POP POP POP POP PUSH1 0x40 MLOAD RETURNDATASIZE PUSH1 0x1F NOT PUSH1 0x1F DUP3 ADD AND DUP3 ADD DUP1 PUSH1 0x40 MSTORE POP DUP2 ADD SWAP1 PUSH2 0xDCC SWAP2 SWAP1 PUSH2 0x6DE0 JUMP JUMPDEST JUMPDEST PUSH2 0xE0C JUMPI PUSH1 0x40 MLOAD PUSH32 0x8C379A000000000000000000000000000000000000000000000000000000000 DUP2 MSTORE PUSH1 0x4 ADD PUSH2 0xE03 SWAP1 PUSH2 0x6E55 JUMP JUMPDEST PUSH1 0x40 MLOAD DUP1 SWAP2 SUB SWAP1 REVERT JUMPDEST PUSH2 0xE14 PUSH2 0x4B71 JUMP JUMPDEST PUSH1 0x3 PUSH0 SWAP1 SLOAD SWAP1 PUSH2 0x100 EXP SWAP1 DIV PUSH20 0xFFFFFFFFFFFFFFFFFFFFFFFFFFFFFFFFFFFFFFFF AND PUSH20 0xFFFFFFFFFFFFFFFFFFFFFFFFFFFFFFFFFFFFFFFF AND PUSH4 0x32648E09 DUP7 PUSH1 0x40 MLOAD DUP3 PUSH4 0xFFFFFFFF AND PUSH1 0xE0 SHL DUP2 MSTORE PUSH1 0x4 ADD PUSH2 0xE6E SWAP2 SWAP1 PUSH2 0x6B1B JUMP JUMPDEST PUSH2 0x180 PUSH1 0x40 MLOAD DUP1 DUP4 SUB DUP2 DUP7 GAS STATICCALL ISZERO DUP1 ISZERO PUSH2 0xE8A JUMPI RETURNDATASIZE PUSH0 PUSH0 RETURNDATACOPY RETURNDATASIZE PUSH0 REVERT JUMPDEST POP POP POP POP PUSH1 0x40 MLOAD RETURNDATASIZE PUSH1 0x1F NOT PUSH1 0x1F DUP3 ADD AND DUP3 ADD DUP1 PUSH1 0x40 MSTORE POP DUP2 ADD SWAP1 PUSH2 0xEAE SWAP2 SWAP1 PUSH2 0x7014 JUMP JUMPDEST PUSH1 0x80 ADD MLOAD PUSH2 0xEF1 JUMPI PUSH1 0x40 MLOAD PUSH32 0x8C379A000000000000000000000000000000000000000000000000000000000 DUP2 MSTORE PUSH1 0x4 ADD PUSH2 0xEE8 SWAP1 PUSH2 0x708A JUMP JUMPDEST PUSH1 0x40 MLOAD DUP1 SWAP2 SUB SWAP1 REVERT JUMPDEST PUSH0 GAS SWAP1 POP PUSH0 PUSH1 0x40 MLOAD DUP1 PUSH2 0x140 ADD PUSH1 0x40 MSTORE DUP1 DUP9 PUSH20 0xFFFFFFFFFFFFFFFFFFFFFFFFFFFFFFFFFFFFFFFF AND DUP2 MSTORE PUSH1 0x20 ADD DUP8 PUSH20 0xFFFFFFFFFFFFFFFFFFFFFFFFFFFFFFFFFFFFFFFF AND DUP2 MSTORE PUSH1 0x20 ADD DUP7 DUP2 MSTORE PUSH1 0x20 ADD TIMESTAMP DUP2 MSTORE PUSH1 0x20 ADD DUP6 PUSH1 0x3 DUP2 GT ISZERO PUSH2 0xF59 JUMPI PUSH2 0xF58 PUSH2 0x5F29 JUMP JUMPDEST JUMPDEST DUP2 MSTORE PUSH1 0x20 ADD PUSH0 PUSH1 0x3 DUP2 GT ISZERO PUSH2 0xF71 JUMPI PUSH2 0xF70 PUSH2 0x5F29 JUMP JUMPDEST JUMPDEST DUP2 MSTORE PUSH1 0x20 ADD PUSH1 0x40 MLOAD DUP1 PUSH1 0x20 ADD PUSH1 0x40 MSTORE DUP1 PUSH0 DUP2 MSTORE POP DUP2 MSTORE PUSH1 0x20 ADD PUSH0 DUP2 MSTORE PUSH1 0x20 ADD PUSH0 DUP2 MSTORE PUSH1 0x20 ADD PUSH1 0x40 MLOAD DUP1 PUSH1 0x20 ADD PUSH1 0x40 MSTORE DUP1 PUSH0 DUP2 MSTORE POP DUP2 MSTORE POP SWAP1 POP PUSH2 0xFB3 DUP2 PUSH2 0x4BC0 JUMP JUMPDEST SWAP3 POP GAS DUP3 PUSH2 0xFC1 SWAP2 SWAP1 PUSH2 0x70D5 JUMP JUMPDEST DUP2 PUSH1 0xE0 ADD DUP2 DUP2 MSTORE POP POP DUP3 PUSH2 0xFD6 JUMPI PUSH1 0x2 PUSH2 0xFD9 JUMP JUMPDEST PUSH1 0x1 JUMPDEST DUP2 PUSH1 0xA0 ADD SWAP1 PUSH1 0x3 DUP2 GT ISZERO PUSH2 0xFF0 JUMPI PUSH2 0xFEF PUSH2 0x5F29 JUMP JUMPDEST JUMPDEST SWAP1 DUP2 PUSH1 0x3 DUP2 GT ISZERO PUSH2 0x1004 JUMPI PUSH2 0x1003 PUSH2 0x5F29 JUMP JUMPDEST JUMPDEST DUP2 MSTORE POP POP DUP3 ISZERO PUSH2 0x10AD JUMPI PUSH1 0x3 PUSH0 SWAP1 SLOAD SWAP1 PUSH2 0x100 EXP SWAP1 DIV PUSH20 0xFFFFFFFFFFFFFFFFFFFFFFFFFFFFFFFFFFFFFFFF AND PUSH20 0xFFFFFFFFFFFFFFFFFFFFFFFFFFFFFFFFFFFFFFFF AND PUSH4 0xC11D2D18 DUP9 DUP8 PUSH1 0x40 MLOAD DUP4 PUSH4 0xFFFFFFFF AND PUSH1 0xE0 SHL DUP2 MSTORE PUSH1 0x4 ADD PUSH2 0x106A SWAP3 SWAP2 SWAP1 PUSH2 0x7108 JUMP JUMPDEST PUSH0 PUSH1 0x40 MLOAD DUP1 DUP4 SUB DUP2 PUSH0 DUP8 DUP1 EXTCODESIZE ISZERO DUP1 ISZERO PUSH2 0x1081 JUMPI PUSH0 PUSH0 REVERT JUMPDEST POP GAS CALL ISZERO DUP1 ISZERO PUSH2 0x1093 JUMPI RETURNDATASIZE PUSH0 PUSH0 RETURNDATACOPY RETURNDATASIZE PUSH0 REVERT JUMPDEST POP POP POP POP PUSH2 0x10A0 DUP2 PUSH2 0x4C71 JUMP JUMPDEST DUP2 PUSH1 0xC0 ADD DUP2 SWAP1 MSTORE POP PUSH2 0x113F JUMP JUMPDEST PUSH1 0x40 MLOAD DUP1 PUSH1 0x40 ADD PUSH1 0x40 MSTORE DUP1 PUSH1 0x18 DUP2 MSTORE PUSH1 0x20 ADD PUSH32 0x5061796D656E7420657865637574696F6E206661696C65640000000000000000 DUP2 MSTORE POP DUP2 PUSH2 0x120 ADD DUP2 SWAP1 MSTORE POP PUSH1 0x8 PUSH0 DUP9 PUSH20 0xFFFFFFFFFFFFFFFFFFFFFFFFFFFFFFFFFFFFFFFF AND PUSH20 0xFFFFFFFFFFFFFFFFFFFFFFFFFFFFFFFFFFFFFFFF AND DUP2 MSTORE PUSH1 0x20 ADD SWAP1 DUP2 MSTORE PUSH1 0x20 ADD PUSH0 KECCAK256 PUSH0 DUP2 SLOAD DUP1 SWAP3 SWAP2 SWAP1 PUSH2 0x1139 SWAP1 PUSH2 0x712F JUMP JUMPDEST SWAP2 SWAP1 POP SSTORE POP JUMPDEST PUSH1 0x6 DUP2 SWAP1 DUP1 PUSH1 0x1 DUP2 SLOAD ADD DUP1 DUP3 SSTORE DUP1 SWAP2 POP POP PUSH1 0x1 SWAP1 SUB SWAP1 PUSH0 MSTORE PUSH1 0x20 PUSH0 KECCAK256 SWAP1 PUSH1 0x9 MUL ADD PUSH0 SWAP1 SWAP2 SWAP1 SWAP2 SWAP1 SWAP2 POP PUSH0 DUP3 ADD MLOAD DUP2 PUSH0 ADD PUSH0 PUSH2 0x100 EXP DUP2 SLOAD DUP2 PUSH20 0xFFFFFFFFFFFFFFFFFFFFFFFFFFFFFFFFFFFFFFFF MUL NOT AND SWAP1 DUP4 PUSH20 0xFFFFFFFFFFFFFFFFFFFFFFFFFFFFFFFFFFFFFFFF AND MUL OR SWAP1 SSTORE POP PUSH1 0x20 DUP3 ADD MLOAD DUP2 PUSH1 0x1 ADD PUSH0 PUSH2 0x100 EXP DUP2 SLOAD DUP2 PUSH20 0xFFFFFFFFFFFFFFFFFFFFFFFFFFFFFFFFFFFFFFFF MUL NOT AND SWAP1 DUP4 PUSH20 0xFFFFFFFFFFFFFFFFFFFFFFFFFFFFFFFFFFFFFFFF AND MUL OR SWAP1 SSTORE POP PUSH1 0x40 DUP3 ADD MLOAD DUP2 PUSH1 0x2 ADD SSTORE PUSH1 0x60 DUP3 ADD MLOAD DUP2 PUSH1 0x3 ADD SSTORE PUSH1 0x80 DUP3 ADD MLOAD DUP2 PUSH1 0x4 ADD PUSH0 PUSH2 0x100 EXP DUP2 SLOAD DUP2 PUSH1 0xFF MUL NOT AND SWAP1 DUP4 PUSH1 0x3 DUP2 GT ISZERO PUSH2 0x1230 JUMPI PUSH2 0x122F PUSH2 0x5F29 JUMP JUMPDEST JUMPDEST MUL OR SWAP1 SSTORE POP PUSH1 0xA0 DUP3 ADD MLOAD DUP2 PUSH1 0x4 ADD PUSH1 0x1 PUSH2 0x100 EXP DUP2 SLOAD DUP2 PUSH1 0xFF MUL NOT AND SWAP1 DUP4 PUSH1 0x3 DUP2 GT ISZERO PUSH2 0x1260 JUMPI PUSH2 0x125F PUSH2 0x5F29 JUMP JUMPDEST JUMPDEST MUL OR SWAP1 SSTORE POP PUSH1 0xC0 DUP3 ADD MLOAD DUP2 PUSH1 0x5 ADD SWAP1 DUP2 PUSH2 0x127A SWAP2 SWAP1 PUSH2 0x736A JUMP JUMPDEST POP PUSH1 0xE0 DUP3 ADD MLOAD DUP2 PUSH1 0x6 ADD SSTORE PUSH2 0x100 DUP3 ADD MLOAD DUP2 PUSH1 0x7 ADD SSTORE PUSH2 0x120 DUP3 ADD MLOAD DUP2 PUSH1 0x8 ADD SWAP1 DUP2 PUSH2 0x12A6 SWAP2 SWAP1 PUSH2 0x736A JUMP JUMPDEST POP POP POP PUSH1 0x7 PUSH0 DUP9 PUSH20 0xFFFFFFFFFFFFFFFFFFFFFFFFFFFFFFFFFFFFFFFF AND PUSH20 0xFFFFFFFFFFFFFFFFFFFFFFFFFFFFFFFFFFFFFFFF AND DUP2 MSTORE PUSH1 0x20 ADD SWAP1 DUP2 MSTORE PUSH1 0x20 ADD PUSH0 KECCAK256 DUP2 SWAP1 DUP1 PUSH1 0x1 DUP2 SLOAD ADD DUP1 DUP3 SSTORE DUP1 SWAP2 POP POP PUSH1 0x1 SWAP1 SUB SWAP1 PUSH0 MSTORE PUSH1 0x20 PUSH0 KECCAK256 SWAP1 PUSH1 0x9 MUL ADD PUSH0 SWAP1 SWAP2 SWAP1 SWAP2 SWAP1 SWAP2 POP PUSH0 DUP3 ADD MLOAD DUP2 PUSH0 ADD PUSH0 PUSH2 0x100 EXP DUP2 SLOAD DUP2 PUSH20 0xFFFFFFFFFFFFFFFFFFFFFFFFFFFFFFFFFFFFFFFF MUL NOT AND SWAP1 DUP4 PUSH20 0xFFFFFFFFFFFFFFFFFFFFFFFFFFFFFFFFFFFFFFFF AND MUL OR SWAP1 SSTORE POP PUSH1 0x20 DUP3 ADD MLOAD DUP2 PUSH1 0x1 ADD PUSH0 PUSH2 0x100 EXP DUP2 SLOAD DUP2 PUSH20 0xFFFFFFFFFFFFFFFFFFFFFFFFFFFFFFFFFFFFFFFF MUL NOT AND SWAP1 DUP4 PUSH20 0xFFFFFFFFFFFFFFFFFFFFFFFFFFFFFFFFFFFFFFFF AND MUL OR SWAP1 SSTORE POP PUSH1 0x40 DUP3 ADD MLOAD DUP2 PUSH1 0x2 ADD SSTORE PUSH1 0x60 DUP3 ADD MLOAD DUP2 PUSH1 0x3 ADD SSTORE PUSH1 0x80 DUP3 ADD MLOAD DUP2 PUSH1 0x4 ADD PUSH0 PUSH2 0x100 EXP DUP2 SLOAD DUP2 PUSH1 0xFF MUL NOT AND SWAP1 DUP4 PUSH1 0x3 DUP2 GT ISZERO PUSH2 0x13D5 JUMPI PUSH2 0x13D4 PUSH2 0x5F29 JUMP JUMPDEST JUMPDEST MUL OR SWAP1 SSTORE POP PUSH1 0xA0 DUP3 ADD MLOAD DUP2 PUSH1 0x4 ADD PUSH1 0x1 PUSH2 0x100 EXP DUP2 SLOAD DUP2 PUSH1 0xFF MUL NOT AND SWAP1 DUP4 PUSH1 0x3 DUP2 GT ISZERO PUSH2 0x1405 JUMPI PUSH2 0x1404 PUSH2 0x5F29 JUMP JUMPDEST JUMPDEST MUL OR SWAP1 SSTORE POP PUSH1 0xC0 DUP3 ADD MLOAD DUP2 PUSH1 0x5 ADD SWAP1 DUP2 PUSH2 0x141F SWAP2 SWAP1 PUSH2 0x736A JUMP JUMPDEST POP PUSH1 0xE0 DUP3 ADD MLOAD DUP2 PUSH1 0x6 ADD SSTORE PUSH2 0x100 DUP3 ADD MLOAD DUP2 PUSH1 0x7 ADD SSTORE PUSH2 0x120 DUP3 ADD MLOAD DUP2 PUSH1 0x8 ADD SWAP1 DUP2 PUSH2 0x144B SWAP2 SWAP1 PUSH2 0x736A JUMP JUMPDEST POP POP POP PUSH2 0x1457 DUP2 PUSH2 0x4D64 JUMP JUMPDEST DUP6 PUSH20 0xFFFFFFFFFFFFFFFFFFFFFFFFFFFFFFFFFFFFFFFF AND DUP8 PUSH20 0xFFFFFFFFFFFFFFFFFFFFFFFFFFFFFFFFFFFFFFFF AND PUSH32 0x5392E49AE81F9D730FAB8B9D95085C57CED2C8F481CA60E3D4DD2E7D626EBB5 DUP8 DUP8 DUP6 PUSH1 0xA0 ADD MLOAD DUP7 PUSH1 0xE0 ADD MLOAD PUSH1 0x40 MLOAD PUSH2 0x14C2 SWAP5 SWAP4 SWAP3 SWAP2 SWAP1 PUSH2 0x7439 JUMP JUMPDEST PUSH1 0x40 MLOAD DUP1 SWAP2 SUB SWAP1 LOG3 POP POP PUSH2 0x14D4 PUSH2 0x4E2E JUMP JUMPDEST SWAP5 SWAP4 POP POP POP POP JUMP JUMPDEST PUSH32 0x940D6B1946FF1D2B5A9F1909219C3C81A370804B5BA0F91EC0828C99A2E6A681 DUP2 JUMP JUMPDEST PUSH2 0x1508 PUSH2 0x4E37 JUMP JUMPDEST PUSH20 0xFFFFFFFFFFFFFFFFFFFFFFFFFFFFFFFFFFFFFFFF AND DUP2 PUSH20 0xFFFFFFFFFFFFFFFFFFFFFFFFFFFFFFFFFFFFFFFF AND EQ PUSH2 0x156C JUMPI PUSH1 0x40 MLOAD PUSH32 0x6697B23200000000000000000000000000000000000000000000000000000000 DUP2 MSTORE PUSH1 0x4 ADD PUSH1 0x40 MLOAD DUP1 SWAP2 SUB SWAP1 REVERT JUMPDEST PUSH2 0x1576 DUP3 DUP3 PUSH2 0x4E3E JUMP JUMPDEST POP POP POP JUMP JUMPDEST PUSH1 0x2 PUSH0 SWAP1 SLOAD SWAP1 PUSH2 0x100 EXP SWAP1 DIV PUSH20 0xFFFFFFFFFFFFFFFFFFFFFFFFFFFFFFFFFFFFFFFF AND PUSH20 0xFFFFFFFFFFFFFFFFFFFFFFFFFFFFFFFFFFFFFFFF AND CALLER PUSH20 0xFFFFFFFFFFFFFFFFFFFFFFFFFFFFFFFFFFFFFFFF AND EQ PUSH2 0x160A JUMPI PUSH1 0x40 MLOAD PUSH32 0x8C379A000000000000000000000000000000000000000000000000000000000 DUP2 MSTORE PUSH1 0x4 ADD PUSH2 0x1601 SWAP1 PUSH2 0x74C6 JUMP JUMPDEST PUSH1 0x40 MLOAD DUP1 SWAP2 SUB SWAP1 REVERT JUMPDEST DUP1 PUSH1 0x3 PUSH0 PUSH2 0x100 EXP DUP2 SLOAD DUP2 PUSH20 0xFFFFFFFFFFFFFFFFFFFFFFFFFFFFFFFFFFFFFFFF MUL NOT AND SWAP1 DUP4 PUSH20 0xFFFFFFFFFFFFFFFFFFFFFFFFFFFFFFFFFFFFFFFF AND MUL OR SWAP1 SSTORE POP POP JUMP JUMPDEST PUSH1 0x2 PUSH0 SWAP1 SLOAD SWAP1 PUSH2 0x100 EXP SWAP1 DIV PUSH20 0xFFFFFFFFFFFFFFFFFFFFFFFFFFFFFFFFFFFFFFFF AND PUSH20 0xFFFFFFFFFFFFFFFFFFFFFFFFFFFFFFFFFFFFFFFF AND PUSH4 0x91D14854 PUSH32 0xA49807205CE4D355092EF5A8A18F56E8913CF4A201FBE287825B095693C21775 CALLER PUSH1 0x40 MLOAD DUP4 PUSH4 0xFFFFFFFF AND PUSH1 0xE0 SHL DUP2 MSTORE PUSH1 0x4 ADD PUSH2 0x16C9 SWAP3 SWAP2 SWAP1 PUSH2 0x6DA5 JUMP JUMPDEST PUSH1 0x20 PUSH1 0x40 MLOAD DUP1 DUP4 SUB DUP2 DUP7 GAS STATICCALL ISZERO DUP1 ISZERO PUSH2 0x16E4 JUMPI RETURNDATASIZE PUSH0 PUSH0 RETURNDATACOPY RETURNDATASIZE PUSH0 REVERT JUMPDEST POP POP POP POP PUSH1 0x40 MLOAD RETURNDATASIZE PUSH1 0x1F NOT PUSH1 0x1F DUP3 ADD AND DUP3 ADD DUP1 PUSH1 0x40 MSTORE POP DUP2 ADD SWAP1 PUSH2 0x1708 SWAP2 SWAP1 PUSH2 0x6DE0 JUMP JUMPDEST DUP1 PUSH2 0x17CA JUMPI POP PUSH1 0x2 PUSH0 SWAP1 SLOAD SWAP1 PUSH2 0x100 EXP SWAP1 DIV PUSH20 0xFFFFFFFFFFFFFFFFFFFFFFFFFFFFFFFFFFFFFFFF AND PUSH20 0xFFFFFFFFFFFFFFFFFFFFFFFFFFFFFFFFFFFFFFFF AND PUSH4 0x91D14854 PUSH32 0x940D6B1946FF1D2B5A9F1909219C3C81A370804B5BA0F91EC0828C99A2E6A681 CALLER PUSH1 0x40 MLOAD DUP4 PUSH4 0xFFFFFFFF AND PUSH1 0xE0 SHL DUP2 MSTORE PUSH1 0x4 ADD PUSH2 0x178A SWAP3 SWAP2 SWAP1 PUSH2 0x6DA5 JUMP JUMPDEST PUSH1 0x20 PUSH1 0x40 MLOAD DUP1 DUP4 SUB DUP2 DUP7 GAS STATICCALL ISZERO DUP1 ISZERO PUSH2 0x17A5 JUMPI RETURNDATASIZE PUSH0 PUSH0 RETURNDATACOPY RETURNDATASIZE PUSH0 REVERT JUMPDEST POP POP POP POP PUSH1 0x40 MLOAD RETURNDATASIZE PUSH1 0x1F NOT PUSH1 0x1F DUP3 ADD AND DUP3 ADD DUP1 PUSH1 0x40 MSTORE POP DUP2 ADD SWAP1 PUSH2 0x17C9 SWAP2 SWAP1 PUSH2 0x6DE0 JUMP JUMPDEST JUMPDEST PUSH2 0x1809 JUMPI PUSH1 0x40 MLOAD PUSH32 0x8C379A000000000000000000000000000000000000000000000000000000000 DUP2 MSTORE PUSH1 0x4 ADD PUSH2 0x1800 SWAP1 PUSH2 0x6E55 JUMP JUMPDEST PUSH1 0x40 MLOAD DUP1 SWAP2 SUB SWAP1 REVERT JUMPDEST PUSH1 0x6 DUP1 SLOAD SWAP1 POP DUP2 LT PUSH2 0x1850 JUMPI PUSH1 0x40 MLOAD PUSH32 0x8C379A000000000000000000000000000000000000000000000000000000000 DUP2 MSTORE PUSH1 0x4 ADD PUSH2 0x1847 SWAP1 PUSH2 0x752E JUMP JUMPDEST PUSH1 0x40 MLOAD DUP1 SWAP2 SUB SWAP1 REVERT JUMPDEST PUSH0 PUSH1 0x6 DUP3 DUP2 SLOAD DUP2 LT PUSH2 0x1865 JUMPI PUSH2 0x1864 PUSH2 0x6D78 JUMP JUMPDEST JUMPDEST SWAP1 PUSH0 MSTORE PUSH1 0x20 PUSH0 KECCAK256 SWAP1 PUSH1 0x9 MUL ADD SWAP1 POP PUSH1 0x2 PUSH1 0x3 DUP2 GT ISZERO PUSH2 0x1887 JUMPI PUSH2 0x1886 PUSH2 0x5F29 JUMP JUMPDEST JUMPDEST DUP2 PUSH1 0x4 ADD PUSH1 0x1 SWAP1 SLOAD SWAP1 PUSH2 0x100 EXP SWAP1 DIV PUSH1 0xFF AND PUSH1 0x3 DUP2 GT ISZERO PUSH2 0x18AB JUMPI PUSH2 0x18AA PUSH2 0x5F29 JUMP JUMPDEST JUMPDEST EQ PUSH2 0x18EB JUMPI PUSH1 0x40 MLOAD PUSH32 0x8C379A000000000000000000000000000000000000000000000000000000000 DUP2 MSTORE PUSH1 0x4 ADD PUSH2 0x18E2 SWAP1 PUSH2 0x7596 JUMP JUMPDEST PUSH1 0x40 MLOAD DUP1 SWAP2 SUB SWAP1 REVERT JUMPDEST PUSH1 0xB SLOAD DUP2 PUSH1 0x7 ADD SLOAD LT PUSH2 0x1933 JUMPI PUSH1 0x40 MLOAD PUSH32 0x8C379A000000000000000000000000000000000000000000000000000000000 DUP2 MSTORE PUSH1 0x4 ADD PUSH2 0x192A SWAP1 PUSH2 0x75FE JUMP JUMPDEST PUSH1 0x40 MLOAD DUP1 SWAP2 SUB SWAP1 REVERT JUMPDEST PUSH1 0x1 DUP2 PUSH1 0x7 ADD SLOAD PUSH2 0x1944 SWAP2 SWAP1 PUSH2 0x761C JUMP JUMPDEST PUSH1 0xC SLOAD PUSH2 0x1951 SWAP2 SWAP1 PUSH2 0x764F JUMP JUMPDEST DUP2 PUSH1 0x3 ADD SLOAD PUSH2 0x1960 SWAP2 SWAP1 PUSH2 0x761C JUMP JUMPDEST TIMESTAMP LT ISZERO PUSH2 0x19A2 JUMPI PUSH1 0x40 MLOAD PUSH32 0x8C379A000000000000000000000000000000000000000000000000000000000 DUP2 MSTORE PUSH1 0x4 ADD PUSH2 0x1999 SWAP1 PUSH2 0x76DA JUMP JUMPDEST PUSH1 0x40 MLOAD DUP1 SWAP2 SUB SWAP1 REVERT JUMPDEST PUSH1 0x3 DUP2 PUSH1 0x4 ADD PUSH1 0x1 PUSH2 0x100 EXP DUP2 SLOAD DUP2 PUSH1 0xFF MUL NOT AND SWAP1 DUP4 PUSH1 0x3 DUP2 GT ISZERO PUSH2 0x19CA JUMPI PUSH2 0x19C9 PUSH2 0x5F29 JUMP JUMPDEST JUMPDEST MUL OR SWAP1 SSTORE POP DUP1 PUSH1 0x7 ADD PUSH0 DUP2 SLOAD DUP1 SWAP3 SWAP2 SWAP1 PUSH2 0x19E3 SWAP1 PUSH2 0x712F JUMP JUMPDEST SWAP2 SWAP1 POP SSTORE POP PUSH0 GAS SWAP1 POP PUSH0 PUSH2 0x1C68 DUP4 PUSH1 0x40 MLOAD DUP1 PUSH2 0x140 ADD PUSH1 0x40 MSTORE SWAP1 DUP2 PUSH0 DUP3 ADD PUSH0 SWAP1 SLOAD SWAP1 PUSH2 0x100 EXP SWAP1 DIV PUSH20 0xFFFFFFFFFFFFFFFFFFFFFFFFFFFFFFFFFFFFFFFF AND PUSH20 0xFFFFFFFFFFFFFFFFFFFFFFFFFFFFFFFFFFFFFFFF AND PUSH20 0xFFFFFFFFFFFFFFFFFFFFFFFFFFFFFFFFFFFFFFFF AND DUP2 MSTORE PUSH1 0x20 ADD PUSH1 0x1 DUP3 ADD PUSH0 SWAP1 SLOAD SWAP1 PUSH2 0x100 EXP SWAP1 DIV PUSH20 0xFFFFFFFFFFFFFFFFFFFFFFFFFFFFFFFFFFFFFFFF AND PUSH20 0xFFFFFFFFFFFFFFFFFFFFFFFFFFFFFFFFFFFFFFFF AND PUSH20 0xFFFFFFFFFFFFFFFFFFFFFFFFFFFFFFFFFFFFFFFF AND DUP2 MSTORE PUSH1 0x20 ADD PUSH1 0x2 DUP3 ADD SLOAD DUP2 MSTORE PUSH1 0x20 ADD PUSH1 0x3 DUP3 ADD SLOAD DUP2 MSTORE PUSH1 0x20 ADD PUSH1 0x4 DUP3 ADD PUSH0 SWAP1 SLOAD SWAP1 PUSH2 0x100 EXP SWAP1 DIV PUSH1 0xFF AND PUSH1 0x3 DUP2 GT ISZERO PUSH2 0x1ADE JUMPI PUSH2 0x1ADD PUSH2 0x5F29 JUMP JUMPDEST JUMPDEST PUSH1 0x3 DUP2 GT ISZERO PUSH2 0x1AF0 JUMPI PUSH2 0x1AEF PUSH2 0x5F29 JUMP JUMPDEST JUMPDEST DUP2 MSTORE PUSH1 0x20 ADD PUSH1 0x4 DUP3 ADD PUSH1 0x1 SWAP1 SLOAD SWAP1 PUSH2 0x100 EXP SWAP1 DIV PUSH1 0xFF AND PUSH1 0x3 DUP2 GT ISZERO PUSH2 0x1B19 JUMPI PUSH2 0x1B18 PUSH2 0x5F29 JUMP JUMPDEST JUMPDEST PUSH1 0x3 DUP2 GT ISZERO PUSH2 0x1B2B JUMPI PUSH2 0x1B2A PUSH2 0x5F29 JUMP JUMPDEST JUMPDEST DUP2 MSTORE PUSH1 0x20 ADD PUSH1 0x5 DUP3 ADD DUP1 SLOAD PUSH2 0x1B3F SWAP1 PUSH2 0x71A3 JUMP JUMPDEST DUP1 PUSH1 0x1F ADD PUSH1 0x20 DUP1 SWAP2 DIV MUL PUSH1 0x20 ADD PUSH1 0x40 MLOAD SWAP1 DUP2 ADD PUSH1 0x40 MSTORE DUP1 SWAP3 SWAP2 SWAP1 DUP2 DUP2 MSTORE PUSH1 0x20 ADD DUP3 DUP1 SLOAD PUSH2 0x1B6B SWAP1 PUSH2 0x71A3 JUMP JUMPDEST DUP1 ISZERO PUSH2 0x1BB6 JUMPI DUP1 PUSH1 0x1F LT PUSH2 0x1B8D JUMPI PUSH2 0x100 DUP1 DUP4 SLOAD DIV MUL DUP4 MSTORE SWAP2 PUSH1 0x20 ADD SWAP2 PUSH2 0x1BB6 JUMP JUMPDEST DUP3 ADD SWAP2 SWAP1 PUSH0 MSTORE PUSH1 0x20 PUSH0 KECCAK256 SWAP1 JUMPDEST DUP2 SLOAD DUP2 MSTORE SWAP1 PUSH1 0x1 ADD SWAP1 PUSH1 0x20 ADD DUP1 DUP4 GT PUSH2 0x1B99 JUMPI DUP3 SWAP1 SUB PUSH1 0x1F AND DUP3 ADD SWAP2 JUMPDEST POP POP POP POP POP DUP2 MSTORE PUSH1 0x20 ADD PUSH1 0x6 DUP3 ADD SLOAD DUP2 MSTORE PUSH1 0x20 ADD PUSH1 0x7 DUP3 ADD SLOAD DUP2 MSTORE PUSH1 0x20 ADD PUSH1 0x8 DUP3 ADD DUP1 SLOAD PUSH2 0x1BE3 SWAP1 PUSH2 0x71A3 JUMP JUMPDEST DUP1 PUSH1 0x1F ADD PUSH1 0x20 DUP1 SWAP2 DIV MUL PUSH1 0x20 ADD PUSH1 0x40 MLOAD SWAP1 DUP2 ADD PUSH1 0x40 MSTORE DUP1 SWAP3 SWAP2 SWAP1 DUP2 DUP2 MSTORE PUSH1 0x20 ADD DUP3 DUP1 SLOAD PUSH2 0x1C0F SWAP1 PUSH2 0x71A3 JUMP JUMPDEST DUP1 ISZERO PUSH2 0x1C5A JUMPI DUP1 PUSH1 0x1F LT PUSH2 0x1C31 JUMPI PUSH2 0x100 DUP1 DUP4 SLOAD DIV MUL DUP4 MSTORE SWAP2 PUSH1 0x20 ADD SWAP2 PUSH2 0x1C5A JUMP JUMPDEST DUP3 ADD SWAP2 SWAP1 PUSH0 MSTORE PUSH1 0x20 PUSH0 KECCAK256 SWAP1 JUMPDEST DUP2 SLOAD DUP2 MSTORE SWAP1 PUSH1 0x1 ADD SWAP1 PUSH1 0x20 ADD DUP1 DUP4 GT PUSH2 0x1C3D JUMPI DUP3 SWAP1 SUB PUSH1 0x1F AND DUP3 ADD SWAP2 JUMPDEST POP POP POP POP POP DUP2 MSTORE POP POP PUSH2 0x4BC0 JUMP JUMPDEST SWAP1 POP GAS DUP3 PUSH2 0x1C76 SWAP2 SWAP1 PUSH2 0x70D5 JUMP JUMPDEST DUP4 PUSH1 0x6 ADD PUSH0 DUP3 DUP3 SLOAD PUSH2 0x1C88 SWAP2 SWAP1 PUSH2 0x761C JUMP JUMPDEST SWAP3 POP POP DUP2 SWAP1 SSTORE POP DUP1 ISZERO PUSH2 0x2076 JUMPI PUSH1 0x1 DUP4 PUSH1 0x4 ADD PUSH1 0x1 PUSH2 0x100 EXP DUP2 SLOAD DUP2 PUSH1 0xFF MUL NOT AND SWAP1 DUP4 PUSH1 0x3 DUP2 GT ISZERO PUSH2 0x1CBD JUMPI PUSH2 0x1CBC PUSH2 0x5F29 JUMP JUMPDEST JUMPDEST MUL OR SWAP1 SSTORE POP PUSH1 0x3 PUSH0 SWAP1 SLOAD SWAP1 PUSH2 0x100 EXP SWAP1 DIV PUSH20 0xFFFFFFFFFFFFFFFFFFFFFFFFFFFFFFFFFFFFFFFF AND PUSH20 0xFFFFFFFFFFFFFFFFFFFFFFFFFFFFFFFFFFFFFFFF AND PUSH4 0xC11D2D18 DUP5 PUSH0 ADD PUSH0 SWAP1 SLOAD SWAP1 PUSH2 0x100 EXP SWAP1 DIV PUSH20 0xFFFFFFFFFFFFFFFFFFFFFFFFFFFFFFFFFFFFFFFF AND DUP6 PUSH1 0x2 ADD SLOAD PUSH1 0x40 MLOAD DUP4 PUSH4 0xFFFFFFFF AND PUSH1 0xE0 SHL DUP2 MSTORE PUSH1 0x4 ADD PUSH2 0x1D44 SWAP3 SWAP2 SWAP1 PUSH2 0x7108 JUMP JUMPDEST PUSH0 PUSH1 0x40 MLOAD DUP1 DUP4 SUB DUP2 PUSH0 DUP8 DUP1 EXTCODESIZE ISZERO DUP1 ISZERO PUSH2 0x1D5B JUMPI PUSH0 PUSH0 REVERT JUMPDEST POP GAS CALL ISZERO DUP1 ISZERO PUSH2 0x1D6D JUMPI RETURNDATASIZE PUSH0 PUSH0 RETURNDATACOPY RETURNDATASIZE PUSH0 REVERT JUMPDEST POP POP POP POP PUSH2 0x1FEC DUP4 PUSH1 0x40 MLOAD DUP1 PUSH2 0x140 ADD PUSH1 0x40 MSTORE SWAP1 DUP2 PUSH0 DUP3 ADD PUSH0 SWAP1 SLOAD SWAP1 PUSH2 0x100 EXP SWAP1 DIV PUSH20 0xFFFFFFFFFFFFFFFFFFFFFFFFFFFFFFFFFFFFFFFF AND PUSH20 0xFFFFFFFFFFFFFFFFFFFFFFFFFFFFFFFFFFFFFFFF AND PUSH20 0xFFFFFFFFFFFFFFFFFFFFFFFFFFFFFFFFFFFFFFFF AND DUP2 MSTORE PUSH1 0x20 ADD PUSH1 0x1 DUP3 ADD PUSH0 SWAP1 SLOAD SWAP1 PUSH2 0x100 EXP SWAP1 DIV PUSH20 0xFFFFFFFFFFFFFFFFFFFFFFFFFFFFFFFFFFFFFFFF AND PUSH20 0xFFFFFFFFFFFFFFFFFFFFFFFFFFFFFFFFFFFFFFFF AND PUSH20 0xFFFFFFFFFFFFFFFFFFFFFFFFFFFFFFFFFFFFFFFF AND DUP2 MSTORE PUSH1 0x20 ADD PUSH1 0x2 DUP3 ADD SLOAD DUP2 MSTORE PUSH1 0x20 ADD PUSH1 0x3 DUP3 ADD SLOAD DUP2 MSTORE PUSH1 0x20 ADD PUSH1 0x4 DUP3 ADD PUSH0 SWAP1 SLOAD SWAP1 PUSH2 0x100 EXP SWAP1 DIV PUSH1 0xFF AND PUSH1 0x3 DUP2 GT ISZERO PUSH2 0x1E62 JUMPI PUSH2 0x1E61 PUSH2 0x5F29 JUMP JUMPDEST JUMPDEST PUSH1 0x3 DUP2 GT ISZERO PUSH2 0x1E74 JUMPI PUSH2 0x1E73 PUSH2 0x5F29 JUMP JUMPDEST JUMPDEST DUP2 MSTORE PUSH1 0x20 ADD PUSH1 0x4 DUP3 ADD PUSH1 0x1 SWAP1 SLOAD SWAP1 PUSH2 0x100 EXP SWAP1 DIV PUSH1 0xFF AND PUSH1 0x3 DUP2 GT ISZERO PUSH2 0x1E9D JUMPI PUSH2 0x1E9C PUSH2 0x5F29 JUMP JUMPDEST JUMPDEST PUSH1 0x3 DUP2 GT ISZERO PUSH2 0x1EAF JUMPI PUSH2 0x1EAE PUSH2 0x5F29 JUMP JUMPDEST JUMPDEST DUP2 MSTORE PUSH1 0x20 ADD PUSH1 0x5 DUP3 ADD DUP1 SLOAD PUSH2 0x1EC3 SWAP1 PUSH2 0x71A3 JUMP JUMPDEST DUP1 PUSH1 0x1F ADD PUSH1 0x20 DUP1 SWAP2 DIV MUL PUSH1 0x20 ADD PUSH1 0x40 MLOAD SWAP1 DUP2 ADD PUSH1 0x40 MSTORE DUP1 SWAP3 SWAP2 SWAP1 DUP2 DUP2 MSTORE PUSH1 0x20 ADD DUP3 DUP1 SLOAD PUSH2 0x1EEF SWAP1 PUSH2 0x71A3 JUMP JUMPDEST DUP1 ISZERO PUSH2 0x1F3A JUMPI DUP1 PUSH1 0x1F LT PUSH2 0x1F11 JUMPI PUSH2 0x100 DUP1 DUP4 SLOAD DIV MUL DUP4 MSTORE SWAP2 PUSH1 0x20 ADD SWAP2 PUSH2 0x1F3A JUMP JUMPDEST DUP3 ADD SWAP2 SWAP1 PUSH0 MSTORE PUSH1 0x20 PUSH0 KECCAK256 SWAP1 JUMPDEST DUP2 SLOAD DUP2 MSTORE SWAP1 PUSH1 0x1 ADD SWAP1 PUSH1 0x20 ADD DUP1 DUP4 GT PUSH2 0x1F1D JUMPI DUP3 SWAP1 SUB PUSH1 0x1F AND DUP3 ADD SWAP2 JUMPDEST POP POP POP POP POP DUP2 MSTORE PUSH1 0x20 ADD PUSH1 0x6 DUP3 ADD SLOAD DUP2 MSTORE PUSH1 0x20 ADD PUSH1 0x7 DUP3 ADD SLOAD DUP2 MSTORE PUSH1 0x20 ADD PUSH1 0x8 DUP3 ADD DUP1 SLOAD PUSH2 0x1F67 SWAP1 PUSH2 0x71A3 JUMP JUMPDEST DUP1 PUSH1 0x1F ADD PUSH1 0x20 DUP1 SWAP2 DIV MUL PUSH1 0x20 ADD PUSH1 0x40 MLOAD SWAP1 DUP2 ADD PUSH1 0x40 MSTORE DUP1 SWAP3 SWAP2 SWAP1 DUP2 DUP2 MSTORE PUSH1 0x20 ADD DUP3 DUP1 SLOAD PUSH2 0x1F93 SWAP1 PUSH2 0x71A3 JUMP JUMPDEST DUP1 ISZERO PUSH2 0x1FDE JUMPI DUP1 PUSH1 0x1F LT PUSH2 0x1FB5 JUMPI PUSH2 0x100 DUP1 DUP4 SLOAD DIV MUL DUP4 MSTORE SWAP2 PUSH1 0x20 ADD SWAP2 PUSH2 0x1FDE JUMP JUMPDEST DUP3 ADD SWAP2 SWAP1 PUSH0 MSTORE PUSH1 0x20 PUSH0 KECCAK256 SWAP1 JUMPDEST DUP2 SLOAD DUP2 MSTORE SWAP1 PUSH1 0x1 ADD SWAP1 PUSH1 0x20 ADD DUP1 DUP4 GT PUSH2 0x1FC1 JUMPI DUP3 SWAP1 SUB PUSH1 0x1F AND DUP3 ADD SWAP2 JUMPDEST POP POP POP POP POP DUP2 MSTORE POP POP PUSH2 0x4C71 JUMP JUMPDEST DUP4 PUSH1 0x5 ADD SWAP1 DUP2 PUSH2 0x1FFC SWAP2 SWAP1 PUSH2 0x736A JUMP JUMPDEST POP PUSH1 0x8 PUSH0 DUP5 PUSH0 ADD PUSH0 SWAP1 SLOAD SWAP1 PUSH2 0x100 EXP SWAP1 DIV PUSH20 0xFFFFFFFFFFFFFFFFFFFFFFFFFFFFFFFFFFFFFFFF AND PUSH20 0xFFFFFFFFFFFFFFFFFFFFFFFFFFFFFFFFFFFFFFFF AND PUSH20 0xFFFFFFFFFFFFFFFFFFFFFFFFFFFFFFFFFFFFFFFF AND DUP2 MSTORE PUSH1 0x20 ADD SWAP1 DUP2 MSTORE PUSH1 0x20 ADD PUSH0 KECCAK256 PUSH0 DUP2 SLOAD DUP1 SWAP3 SWAP2 SWAP1 PUSH2 0x206C SWAP1 PUSH2 0x76F8 JUMP JUMPDEST SWAP2 SWAP1 POP SSTORE POP PUSH2 0x20EB JUMP JUMPDEST PUSH1 0x2 DUP4 PUSH1 0x4 ADD PUSH1 0x1 PUSH2 0x100 EXP DUP2 SLOAD DUP2 PUSH1 0xFF MUL NOT AND SWAP1 DUP4 PUSH1 0x3 DUP2 GT ISZERO PUSH2 0x209E JUMPI PUSH2 0x209D PUSH2 0x5F29 JUMP JUMPDEST JUMPDEST MUL OR SWAP1 SSTORE POP PUSH1 0x40 MLOAD DUP1 PUSH1 0x40 ADD PUSH1 0x40 MSTORE DUP1 PUSH1 0xC DUP2 MSTORE PUSH1 0x20 ADD PUSH32 0x5265747279206661696C65640000000000000000000000000000000000000000 DUP2 MSTORE POP DUP4 PUSH1 0x8 ADD SWAP1 DUP2 PUSH2 0x20E9 SWAP2 SWAP1 PUSH2 0x736A JUMP JUMPDEST POP JUMPDEST DUP3 PUSH0 ADD PUSH0 SWAP1 SLOAD SWAP1 PUSH2 0x100 EXP SWAP1 DIV PUSH20 0xFFFFFFFFFFFFFFFFFFFFFFFFFFFFFFFFFFFFFFFF AND PUSH20 0xFFFFFFFFFFFFFFFFFFFFFFFFFFFFFFFFFFFFFFFF AND PUSH32 0x6D9B44E30A0DC7BD26B9A325EBBE8752E37CDD4FCC0C45444189C16BA7DA52BC DUP6 DUP6 PUSH1 0x7 ADD SLOAD PUSH1 0x40 MLOAD PUSH2 0x2159 SWAP3 SWAP2 SWAP1 PUSH2 0x771F JUMP JUMPDEST PUSH1 0x40 MLOAD DUP1 SWAP2 SUB SWAP1 LOG2 PUSH2 0x23DC DUP4 PUSH1 0x40 MLOAD DUP1 PUSH2 0x140 ADD PUSH1 0x40 MSTORE SWAP1 DUP2 PUSH0 DUP3 ADD PUSH0 SWAP1 SLOAD SWAP1 PUSH2 0x100 EXP SWAP1 DIV PUSH20 0xFFFFFFFFFFFFFFFFFFFFFFFFFFFFFFFFFFFFFFFF AND PUSH20 0xFFFFFFFFFFFFFFFFFFFFFFFFFFFFFFFFFFFFFFFF AND PUSH20 0xFFFFFFFFFFFFFFFFFFFFFFFFFFFFFFFFFFFFFFFF AND DUP2 MSTORE PUSH1 0x20 ADD PUSH1 0x1 DUP3 ADD PUSH0 SWAP1 SLOAD SWAP1 PUSH2 0x100 EXP SWAP1 DIV PUSH20 0xFFFFFFFFFFFFFFFFFFFFFFFFFFFFFFFFFFFFFFFF AND PUSH20 0xFFFFFFFFFFFFFFFFFFFFFFFFFFFFFFFFFFFFFFFF AND PUSH20 0xFFFFFFFFFFFFFFFFFFFFFFFFFFFFFFFFFFFFFFFF AND DUP2 MSTORE PUSH1 0x20 ADD PUSH1 0x2 DUP3 ADD SLOAD DUP2 MSTORE PUSH1 0x20 ADD PUSH1 0x3 DUP3 ADD SLOAD DUP2 MSTORE PUSH1 0x20 ADD PUSH1 0x4 DUP3 ADD PUSH0 SWAP1 SLOAD SWAP1 PUSH2 0x100 EXP SWAP1 DIV PUSH1 0xFF AND PUSH1 0x3 DUP2 GT ISZERO PUSH2 0x2252 JUMPI PUSH2 0x2251 PUSH2 0x5F29 JUMP JUMPDEST JUMPDEST PUSH1 0x3 DUP2 GT ISZERO PUSH2 0x2264 JUMPI PUSH2 0x2263 PUSH2 0x5F29 JUMP JUMPDEST JUMPDEST DUP2 MSTORE PUSH1 0x20 ADD PUSH1 0x4 DUP3 ADD PUSH1 0x1 SWAP1 SLOAD SWAP1 PUSH2 0x100 EXP SWAP1 DIV PUSH1 0xFF AND PUSH1 0x3 DUP2 GT ISZERO PUSH2 0x228D JUMPI PUSH2 0x228C PUSH2 0x5F29 JUMP JUMPDEST JUMPDEST PUSH1 0x3 DUP2 GT ISZERO PUSH2 0x229F JUMPI PUSH2 0x229E PUSH2 0x5F29 JUMP JUMPDEST JUMPDEST DUP2 MSTORE PUSH1 0x20 ADD PUSH1 0x5 DUP3 ADD DUP1 SLOAD PUSH2 0x22B3 SWAP1 PUSH2 0x71A3 JUMP JUMPDEST DUP1 PUSH1 0x1F ADD PUSH1 0x20 DUP1 SWAP2 DIV MUL PUSH1 0x20 ADD PUSH1 0x40 MLOAD SWAP1 DUP2 ADD PUSH1 0x40 MSTORE DUP1 SWAP3 SWAP2 SWAP1 DUP2 DUP2 MSTORE PUSH1 0x20 ADD DUP3 DUP1 SLOAD PUSH2 0x22DF SWAP1 PUSH2 0x71A3 JUMP JUMPDEST DUP1 ISZERO PUSH2 0x232A JUMPI DUP1 PUSH1 0x1F LT PUSH2 0x2301 JUMPI PUSH2 0x100 DUP1 DUP4 SLOAD DIV MUL DUP4 MSTORE SWAP2 PUSH1 0x20 ADD SWAP2 PUSH2 0x232A JUMP JUMPDEST DUP3 ADD SWAP2 SWAP1 PUSH0 MSTORE PUSH1 0x20 PUSH0 KECCAK256 SWAP1 JUMPDEST DUP2 SLOAD DUP2 MSTORE SWAP1 PUSH1 0x1 ADD SWAP1 PUSH1 0x20 ADD DUP1 DUP4 GT PUSH2 0x230D JUMPI DUP3 SWAP1 SUB PUSH1 0x1F AND DUP3 ADD SWAP2 JUMPDEST POP POP POP POP POP DUP2 MSTORE PUSH1 0x20 ADD PUSH1 0x6 DUP3 ADD SLOAD DUP2 MSTORE PUSH1 0x20 ADD PUSH1 0x7 DUP3 ADD SLOAD DUP2 MSTORE PUSH1 0x20 ADD PUSH1 0x8 DUP3 ADD DUP1 SLOAD PUSH2 0x2357 SWAP1 PUSH2 0x71A3 JUMP JUMPDEST DUP1 PUSH1 0x1F ADD PUSH1 0x20 DUP1 SWAP2 DIV MUL PUSH1 0x20 ADD PUSH1 0x40 MLOAD SWAP1 DUP2 ADD PUSH1 0x40 MSTORE DUP1 SWAP3 SWAP2 SWAP1 DUP2 DUP2 MSTORE PUSH1 0x20 ADD DUP3 DUP1 SLOAD PUSH2 0x2383 SWAP1 PUSH2 0x71A3 JUMP JUMPDEST DUP1 ISZERO PUSH2 0x23CE JUMPI DUP1 PUSH1 0x1F LT PUSH2 0x23A5 JUMPI PUSH2 0x100 DUP1 DUP4 SLOAD DIV MUL DUP4 MSTORE SWAP2 PUSH1 0x20 ADD SWAP2 PUSH2 0x23CE JUMP JUMPDEST DUP3 ADD SWAP2 SWAP1 PUSH0 MSTORE PUSH1 0x20 PUSH0 KECCAK256 SWAP1 JUMPDEST DUP2 SLOAD DUP2 MSTORE SWAP1 PUSH1 0x1 ADD SWAP1 PUSH1 0x20 ADD DUP1 DUP4 GT PUSH2 0x23B1 JUMPI DUP3 SWAP1 SUB PUSH1 0x1F AND DUP3 ADD SWAP2 JUMPDEST POP POP POP POP POP DUP2 MSTORE POP POP PUSH2 0x4D64 JUMP JUMPDEST POP POP POP POP JUMP JUMPDEST PUSH1 0x2 PUSH0 SWAP1 SLOAD SWAP1 PUSH2 0x100 EXP SWAP1 DIV PUSH20 0xFFFFFFFFFFFFFFFFFFFFFFFFFFFFFFFFFFFFFFFF AND PUSH20 0xFFFFFFFFFFFFFFFFFFFFFFFFFFFFFFFFFFFFFFFF AND PUSH4 0x91D14854 PUSH32 0xA49807205CE4D355092EF5A8A18F56E8913CF4A201FBE287825B095693C21775 CALLER PUSH1 0x40 MLOAD DUP4 PUSH4 0xFFFFFFFF AND PUSH1 0xE0 SHL DUP2 MSTORE PUSH1 0x4 ADD PUSH2 0x245E SWAP3 SWAP2 SWAP1 PUSH2 0x6DA5 JUMP JUMPDEST PUSH1 0x20 PUSH1 0x40 MLOAD DUP1 DUP4 SUB DUP2 DUP7 GAS STATICCALL ISZERO DUP1 ISZERO PUSH2 0x2479 JUMPI RETURNDATASIZE PUSH0 PUSH0 RETURNDATACOPY RETURNDATASIZE PUSH0 REVERT JUMPDEST POP POP POP POP PUSH1 0x40 MLOAD RETURNDATASIZE PUSH1 0x1F NOT PUSH1 0x1F DUP3 ADD AND DUP3 ADD DUP1 PUSH1 0x40 MSTORE POP DUP2 ADD SWAP1 PUSH2 0x249D SWAP2 SWAP1 PUSH2 0x6DE0 JUMP JUMPDEST DUP1 PUSH2 0x255F JUMPI POP PUSH1 0x2 PUSH0 SWAP1 SLOAD SWAP1 PUSH2 0x100 EXP SWAP1 DIV PUSH20 0xFFFFFFFFFFFFFFFFFFFFFFFFFFFFFFFFFFFFFFFF AND PUSH20 0xFFFFFFFFFFFFFFFFFFFFFFFFFFFFFFFFFFFFFFFF AND PUSH4 0x91D14854 PUSH32 0x940D6B1946FF1D2B5A9F1909219C3C81A370804B5BA0F91EC0828C99A2E6A681 CALLER PUSH1 0x40 MLOAD DUP4 PUSH4 0xFFFFFFFF AND PUSH1 0xE0 SHL DUP2 MSTORE PUSH1 0x4 ADD PUSH2 0x251F SWAP3 SWAP2 SWAP1 PUSH2 0x6DA5 JUMP JUMPDEST PUSH1 0x20 PUSH1 0x40 MLOAD DUP1 DUP4 SUB DUP2 DUP7 GAS STATICCALL ISZERO DUP1 ISZERO PUSH2 0x253A JUMPI RETURNDATASIZE PUSH0 PUSH0 RETURNDATACOPY RETURNDATASIZE PUSH0 REVERT JUMPDEST POP POP POP POP PUSH1 0x40 MLOAD RETURNDATASIZE PUSH1 0x1F NOT PUSH1 0x1F DUP3 ADD AND DUP3 ADD DUP1 PUSH1 0x40 MSTORE POP DUP2 ADD SWAP1 PUSH2 0x255E SWAP2 SWAP1 PUSH2 0x6DE0 JUMP JUMPDEST JUMPDEST PUSH2 0x259E JUMPI PUSH1 0x40 MLOAD PUSH32 0x8C379A000000000000000000000000000000000000000000000000000000000 DUP2 MSTORE PUSH1 0x4 ADD PUSH2 0x2595 SWAP1 PUSH2 0x6E55 JUMP JUMPDEST PUSH1 0x40 MLOAD DUP1 SWAP2 SUB SWAP1 REVERT JUMPDEST DUP1 PUSH1 0xB DUP2 SWAP1 SSTORE POP POP JUMP JUMPDEST PUSH0 PUSH1 0x6 DUP1 SLOAD SWAP1 POP SWAP1 POP SWAP1 JUMP JUMPDEST PUSH32 0xA49807205CE4D355092EF5A8A18F56E8913CF4A201FBE287825B095693C21775 DUP2 JUMP JUMPDEST PUSH0 PUSH1 0x2 PUSH0 SWAP1 SLOAD SWAP1 PUSH2 0x100 EXP SWAP1 DIV PUSH20 0xFFFFFFFFFFFFFFFFFFFFFFFFFFFFFFFFFFFFFFFF AND PUSH20 0xFFFFFFFFFFFFFFFFFFFFFFFFFFFFFFFFFFFFFFFF AND PUSH4 0x91D14854 PUSH32 0xA49807205CE4D355092EF5A8A18F56E8913CF4A201FBE287825B095693C21775 CALLER PUSH1 0x40 MLOAD DUP4 PUSH4 0xFFFFFFFF AND PUSH1 0xE0 SHL DUP2 MSTORE PUSH1 0x4 ADD PUSH2 0x2655 SWAP3 SWAP2 SWAP1 PUSH2 0x6DA5 JUMP JUMPDEST PUSH1 0x20 PUSH1 0x40 MLOAD DUP1 DUP4 SUB DUP2 DUP7 GAS STATICCALL ISZERO DUP1 ISZERO PUSH2 0x2670 JUMPI RETURNDATASIZE PUSH0 PUSH0 RETURNDATACOPY RETURNDATASIZE PUSH0 REVERT JUMPDEST POP POP POP POP PUSH1 0x40 MLOAD RETURNDATASIZE PUSH1 0x1F NOT PUSH1 0x1F DUP3 ADD AND DUP3 ADD DUP1 PUSH1 0x40 MSTORE POP DUP2 ADD SWAP1 PUSH2 0x2694 SWAP2 SWAP1 PUSH2 0x6DE0 JUMP JUMPDEST DUP1 PUSH2 0x2756 JUMPI POP PUSH1 0x2 PUSH0 SWAP1 SLOAD SWAP1 PUSH2 0x100 EXP SWAP1 DIV PUSH20 0xFFFFFFFFFFFFFFFFFFFFFFFFFFFFFFFFFFFFFFFF AND PUSH20 0xFFFFFFFFFFFFFFFFFFFFFFFFFFFFFFFFFFFFFFFF AND PUSH4 0x91D14854 PUSH32 0x940D6B1946FF1D2B5A9F1909219C3C81A370804B5BA0F91EC0828C99A2E6A681 CALLER PUSH1 0x40 MLOAD DUP4 PUSH4 0xFFFFFFFF AND PUSH1 0xE0 SHL DUP2 MSTORE PUSH1 0x4 ADD PUSH2 0x2716 SWAP3 SWAP2 SWAP1 PUSH2 0x6DA5 JUMP JUMPDEST PUSH1 0x20 PUSH1 0x40 MLOAD DUP1 DUP4 SUB DUP2 DUP7 GAS STATICCALL ISZERO DUP1 ISZERO PUSH2 0x2731 JUMPI RETURNDATASIZE PUSH0 PUSH0 RETURNDATACOPY RETURNDATASIZE PUSH0 REVERT JUMPDEST POP POP POP POP PUSH1 0x40 MLOAD RETURNDATASIZE PUSH1 0x1F NOT PUSH1 0x1F DUP3 ADD AND DUP3 ADD DUP1 PUSH1 0x40 MSTORE POP DUP2 ADD SWAP1 PUSH2 0x2755 SWAP2 SWAP1 PUSH2 0x6DE0 JUMP JUMPDEST JUMPDEST PUSH2 0x2795 JUMPI PUSH1 0x40 MLOAD PUSH32 0x8C379A000000000000000000000000000000000000000000000000000000000 DUP2 MSTORE PUSH1 0x4 ADD PUSH2 0x278C SWAP1 PUSH2 0x6E55 JUMP JUMPDEST PUSH1 0x40 MLOAD DUP1 SWAP2 SUB SWAP1 REVERT JUMPDEST DUP3 MLOAD DUP6 MLOAD EQ PUSH2 0x27D9 JUMPI PUSH1 0x40 MLOAD PUSH32 0x8C379A000000000000000000000000000000000000000000000000000000000 DUP2 MSTORE PUSH1 0x4 ADD PUSH2 0x27D0 SWAP1 PUSH2 0x7790 JUMP JUMPDEST PUSH1 0x40 MLOAD DUP1 SWAP2 SUB SWAP1 REVERT JUMPDEST PUSH0 DUP6 MLOAD GT PUSH2 0x281C JUMPI PUSH1 0x40 MLOAD PUSH32 0x8C379A000000000000000000000000000000000000000000000000000000000 DUP2 MSTORE PUSH1 0x4 ADD PUSH2 0x2813 SWAP1 PUSH2 0x77F8 JUMP JUMPDEST PUSH1 0x40 MLOAD DUP1 SWAP2 SUB SWAP1 REVERT JUMPDEST PUSH0 PUSH1 0x40 MLOAD DUP1 PUSH2 0x100 ADD PUSH1 0x40 MSTORE DUP1 DUP8 DUP2 MSTORE PUSH1 0x20 ADD DUP7 PUSH20 0xFFFFFFFFFFFFFFFFFFFFFFFFFFFFFFFFFFFFFFFF AND DUP2 MSTORE PUSH1 0x20 ADD DUP6 DUP2 MSTORE PUSH1 0x20 ADD DUP5 PUSH1 0x3 DUP2 GT ISZERO PUSH2 0x2864 JUMPI PUSH2 0x2863 PUSH2 0x5F29 JUMP JUMPDEST JUMPDEST DUP2 MSTORE PUSH1 0x20 ADD PUSH1 0xD PUSH0 SWAP1 SLOAD SWAP1 PUSH2 0x100 EXP SWAP1 DIV PUSH1 0xFF AND ISZERO ISZERO DUP2 MSTORE PUSH1 0x20 ADD PUSH1 0xD PUSH0 SWAP1 SLOAD SWAP1 PUSH2 0x100 EXP SWAP1 DIV PUSH1 0xFF AND ISZERO ISZERO ISZERO DUP2 MSTORE PUSH1 0x20 ADD PUSH1 0xD PUSH0 SWAP1 SLOAD SWAP1 PUSH2 0x100 EXP SWAP1 DIV PUSH1 0xFF AND PUSH2 0x28AF JUMPI CALLER PUSH2 0x28B1 JUMP JUMPDEST PUSH0 JUMPDEST PUSH20 0xFFFFFFFFFFFFFFFFFFFFFFFFFFFFFFFFFFFFFFFF AND DUP2 MSTORE PUSH1 0x20 ADD TIMESTAMP DUP2 MSTORE POP SWAP1 POP PUSH1 0x9 DUP2 SWAP1 DUP1 PUSH1 0x1 DUP2 SLOAD ADD DUP1 DUP3 SSTORE DUP1 SWAP2 POP POP PUSH1 0x1 SWAP1 SUB SWAP1 PUSH0 MSTORE PUSH1 0x20 PUSH0 KECCAK256 SWAP1 PUSH1 0x5 MUL ADD PUSH0 SWAP1 SWAP2 SWAP1 SWAP2 SWAP1 SWAP2 POP PUSH0 DUP3 ADD MLOAD DUP2 PUSH0 ADD SWAP1 DUP1 MLOAD SWAP1 PUSH1 0x20 ADD SWAP1 PUSH2 0x2915 SWAP3 SWAP2 SWAP1 PUSH2 0x5BCC JUMP JUMPDEST POP PUSH1 0x20 DUP3 ADD MLOAD DUP2 PUSH1 0x1 ADD PUSH0 PUSH2 0x100 EXP DUP2 SLOAD DUP2 PUSH20 0xFFFFFFFFFFFFFFFFFFFFFFFFFFFFFFFFFFFFFFFF MUL NOT AND SWAP1 DUP4 PUSH20 0xFFFFFFFFFFFFFFFFFFFFFFFFFFFFFFFFFFFFFFFF AND MUL OR SWAP1 SSTORE POP PUSH1 0x40 DUP3 ADD MLOAD DUP2 PUSH1 0x2 ADD SWAP1 DUP1 MLOAD SWAP1 PUSH1 0x20 ADD SWAP1 PUSH2 0x2978 SWAP3 SWAP2 SWAP1 PUSH2 0x5C53 JUMP JUMPDEST POP PUSH1 0x60 DUP3 ADD MLOAD DUP2 PUSH1 0x3 ADD PUSH0 PUSH2 0x100 EXP DUP2 SLOAD DUP2 PUSH1 0xFF MUL NOT AND SWAP1 DUP4 PUSH1 0x3 DUP2 GT ISZERO PUSH2 0x29A3 JUMPI PUSH2 0x29A2 PUSH2 0x5F29 JUMP JUMPDEST JUMPDEST MUL OR SWAP1 SSTORE POP PUSH1 0x80 DUP3 ADD MLOAD DUP2 PUSH1 0x3 ADD PUSH1 0x1 PUSH2 0x100 EXP DUP2 SLOAD DUP2 PUSH1 0xFF MUL NOT AND SWAP1 DUP4 ISZERO ISZERO MUL OR SWAP1 SSTORE POP PUSH1 0xA0 DUP3 ADD MLOAD DUP2 PUSH1 0x3 ADD PUSH1 0x2 PUSH2 0x100 EXP DUP2 SLOAD DUP2 PUSH1 0xFF MUL NOT AND SWAP1 DUP4 ISZERO ISZERO MUL OR SWAP1 SSTORE POP PUSH1 0xC0 DUP3 ADD MLOAD DUP2 PUSH1 0x3 ADD PUSH1 0x3 PUSH2 0x100 EXP DUP2 SLOAD DUP2 PUSH20 0xFFFFFFFFFFFFFFFFFFFFFFFFFFFFFFFFFFFFFFFF MUL NOT AND SWAP1 DUP4 PUSH20 0xFFFFFFFFFFFFFFFFFFFFFFFFFFFFFFFFFFFFFFFF AND MUL OR SWAP1 SSTORE POP PUSH1 0xE0 DUP3 ADD MLOAD DUP2 PUSH1 0x4 ADD SSTORE POP POP PUSH1 0x1 PUSH1 0x9 DUP1 SLOAD SWAP1 POP PUSH2 0x2A4D SWAP2 SWAP1 PUSH2 0x70D5 JUMP JUMPDEST SWAP2 POP DUP2 PUSH32 0xA40B9ABC4125F71CDC69FCD4F0E85D101DBFC67713F9E57F769EEB4C009D0E58 DUP8 MLOAD DUP8 PUSH1 0x40 MLOAD PUSH2 0x2A82 SWAP3 SWAP2 SWAP1 PUSH2 0x7816 JUMP JUMPDEST PUSH1 0x40 MLOAD DUP1 SWAP2 SUB SWAP1 LOG2 POP SWAP5 SWAP4 POP POP POP POP JUMP JUMPDEST PUSH1 0x2 PUSH0 SWAP1 SLOAD SWAP1 PUSH2 0x100 EXP SWAP1 DIV PUSH20 0xFFFFFFFFFFFFFFFFFFFFFFFFFFFFFFFFFFFFFFFF AND PUSH20 0xFFFFFFFFFFFFFFFFFFFFFFFFFFFFFFFFFFFFFFFF AND CALLER PUSH20 0xFFFFFFFFFFFFFFFFFFFFFFFFFFFFFFFFFFFFFFFF AND EQ PUSH2 0x2B22 JUMPI PUSH1 0x40 MLOAD PUSH32 0x8C379A000000000000000000000000000000000000000000000000000000000 DUP2 MSTORE PUSH1 0x4 ADD PUSH2 0x2B19 SWAP1 PUSH2 0x74C6 JUMP JUMPDEST PUSH1 0x40 MLOAD DUP1 SWAP2 SUB SWAP1 REVERT JUMPDEST DUP1 PUSH1 0x4 PUSH0 PUSH2 0x100 EXP DUP2 SLOAD DUP2 PUSH20 0xFFFFFFFFFFFFFFFFFFFFFFFFFFFFFFFFFFFFFFFF MUL NOT AND SWAP1 DUP4 PUSH20 0xFFFFFFFFFFFFFFFFFFFFFFFFFFFFFFFFFFFFFFFF AND MUL OR SWAP1 SSTORE POP POP JUMP JUMPDEST PUSH1 0x60 PUSH1 0x7 PUSH0 DUP4 PUSH20 0xFFFFFFFFFFFFFFFFFFFFFFFFFFFFFFFFFFFFFFFF AND PUSH20 0xFFFFFFFFFFFFFFFFFFFFFFFFFFFFFFFFFFFFFFFF AND DUP2 MSTORE PUSH1 0x20 ADD SWAP1 DUP2 MSTORE PUSH1 0x20 ADD PUSH0 KECCAK256 DUP1 SLOAD DUP1 PUSH1 0x20 MUL PUSH1 0x20 ADD PUSH1 0x40 MLOAD SWAP1 DUP2 ADD PUSH1 0x40 MSTORE DUP1 SWAP3 SWAP2 SWAP1 DUP2 DUP2 MSTORE PUSH1 0x20 ADD PUSH0 SWAP1 JUMPDEST DUP3 DUP3 LT ISZERO PUSH2 0x2E5A JUMPI DUP4 DUP3 SWAP1 PUSH0 MSTORE PUSH1 0x20 PUSH0 KECCAK256 SWAP1 PUSH1 0x9 MUL ADD PUSH1 0x40 MLOAD DUP1 PUSH2 0x140 ADD PUSH1 0x40 MSTORE SWAP1 DUP2 PUSH0 DUP3 ADD PUSH0 SWAP1 SLOAD SWAP1 PUSH2 0x100 EXP SWAP1 DIV PUSH20 0xFFFFFFFFFFFFFFFFFFFFFFFFFFFFFFFFFFFFFFFF AND PUSH20 0xFFFFFFFFFFFFFFFFFFFFFFFFFFFFFFFFFFFFFFFF AND PUSH20 0xFFFFFFFFFFFFFFFFFFFFFFFFFFFFFFFFFFFFFFFF AND DUP2 MSTORE PUSH1 0x20 ADD PUSH1 0x1 DUP3 ADD PUSH0 SWAP1 SLOAD SWAP1 PUSH2 0x100 EXP SWAP1 DIV PUSH20 0xFFFFFFFFFFFFFFFFFFFFFFFFFFFFFFFFFFFFFFFF AND PUSH20 0xFFFFFFFFFFFFFFFFFFFFFFFFFFFFFFFFFFFFFFFF AND PUSH20 0xFFFFFFFFFFFFFFFFFFFFFFFFFFFFFFFFFFFFFFFF AND DUP2 MSTORE PUSH1 0x20 ADD PUSH1 0x2 DUP3 ADD SLOAD DUP2 MSTORE PUSH1 0x20 ADD PUSH1 0x3 DUP3 ADD SLOAD DUP2 MSTORE PUSH1 0x20 ADD PUSH1 0x4 DUP3 ADD PUSH0 SWAP1 SLOAD SWAP1 PUSH2 0x100 EXP SWAP1 DIV PUSH1 0xFF AND PUSH1 0x3 DUP2 GT ISZERO PUSH2 0x2CC6 JUMPI PUSH2 0x2CC5 PUSH2 0x5F29 JUMP JUMPDEST JUMPDEST PUSH1 0x3 DUP2 GT ISZERO PUSH2 0x2CD8 JUMPI PUSH2 0x2CD7 PUSH2 0x5F29 JUMP JUMPDEST JUMPDEST DUP2 MSTORE PUSH1 0x20 ADD PUSH1 0x4 DUP3 ADD PUSH1 0x1 SWAP1 SLOAD SWAP1 PUSH2 0x100 EXP SWAP1 DIV PUSH1 0xFF AND PUSH1 0x3 DUP2 GT ISZERO PUSH2 0x2D01 JUMPI PUSH2 0x2D00 PUSH2 0x5F29 JUMP JUMPDEST JUMPDEST PUSH1 0x3 DUP2 GT ISZERO PUSH2 0x2D13 JUMPI PUSH2 0x2D12 PUSH2 0x5F29 JUMP JUMPDEST JUMPDEST DUP2 MSTORE PUSH1 0x20 ADD PUSH1 0x5 DUP3 ADD DUP1 SLOAD PUSH2 0x2D27 SWAP1 PUSH2 0x71A3 JUMP JUMPDEST DUP1 PUSH1 0x1F ADD PUSH1 0x20 DUP1 SWAP2 DIV MUL PUSH1 0x20 ADD PUSH1 0x40 MLOAD SWAP1 DUP2 ADD PUSH1 0x40 MSTORE DUP1 SWAP3 SWAP2 SWAP1 DUP2 DUP2 MSTORE PUSH1 0x20 ADD DUP3 DUP1 SLOAD PUSH2 0x2D53 SWAP1 PUSH2 0x71A3 JUMP JUMPDEST DUP1 ISZERO PUSH2 0x2D9E JUMPI DUP1 PUSH1 0x1F LT PUSH2 0x2D75 JUMPI PUSH2 0x100 DUP1 DUP4 SLOAD DIV MUL DUP4 MSTORE SWAP2 PUSH1 0x20 ADD SWAP2 PUSH2 0x2D9E JUMP JUMPDEST DUP3 ADD SWAP2 SWAP1 PUSH0 MSTORE PUSH1 0x20 PUSH0 KECCAK256 SWAP1 JUMPDEST DUP2 SLOAD DUP2 MSTORE SWAP1 PUSH1 0x1 ADD SWAP1 PUSH1 0x20 ADD DUP1 DUP4 GT PUSH2 0x2D81 JUMPI DUP3 SWAP1 SUB PUSH1 0x1F AND DUP3 ADD SWAP2 JUMPDEST POP POP POP POP POP DUP2 MSTORE PUSH1 0x20 ADD PUSH1 0x6 DUP3 ADD SLOAD DUP2 MSTORE PUSH1 0x20 ADD PUSH1 0x7 DUP3 ADD SLOAD DUP2 MSTORE PUSH1 0x20 ADD PUSH1 0x8 DUP3 ADD DUP1 SLOAD PUSH2 0x2DCB SWAP1 PUSH2 0x71A3 JUMP JUMPDEST DUP1 PUSH1 0x1F ADD PUSH1 0x20 DUP1 SWAP2 DIV MUL PUSH1 0x20 ADD PUSH1 0x40 MLOAD SWAP1 DUP2 ADD PUSH1 0x40 MSTORE DUP1 SWAP3 SWAP2 SWAP1 DUP2 DUP2 MSTORE PUSH1 0x20 ADD DUP3 DUP1 SLOAD PUSH2 0x2DF7 SWAP1 PUSH2 0x71A3 JUMP JUMPDEST DUP1 ISZERO PUSH2 0x2E42 JUMPI DUP1 PUSH1 0x1F LT PUSH2 0x2E19 JUMPI PUSH2 0x100 DUP1 DUP4 SLOAD DIV MUL DUP4 MSTORE SWAP2 PUSH1 0x20 ADD SWAP2 PUSH2 0x2E42 JUMP JUMPDEST DUP3 ADD SWAP2 SWAP1 PUSH0 MSTORE PUSH1 0x20 PUSH0 KECCAK256 SWAP1 JUMPDEST DUP2 SLOAD DUP2 MSTORE SWAP1 PUSH1 0x1 ADD SWAP1 PUSH1 0x20 ADD DUP1 DUP4 GT PUSH2 0x2E25 JUMPI DUP3 SWAP1 SUB PUSH1 0x1F AND DUP3 ADD SWAP2 JUMPDEST POP POP POP POP POP DUP2 MSTORE POP POP DUP2 MSTORE PUSH1 0x20 ADD SWAP1 PUSH1 0x1 ADD SWAP1 PUSH2 0x2BC3 JUMP JUMPDEST POP POP POP POP SWAP1 POP SWAP2 SWAP1 POP JUMP JUMPDEST PUSH1 0x2 PUSH0 SWAP1 SLOAD SWAP1 PUSH2 0x100 EXP SWAP1 DIV PUSH20 0xFFFFFFFFFFFFFFFFFFFFFFFFFFFFFFFFFFFFFFFF AND PUSH20 0xFFFFFFFFFFFFFFFFFFFFFFFFFFFFFFFFFFFFFFFF AND PUSH4 0x91D14854 PUSH32 0xA49807205CE4D355092EF5A8A18F56E8913CF4A201FBE287825B095693C21775 CALLER PUSH1 0x40 MLOAD DUP4 PUSH4 0xFFFFFFFF AND PUSH1 0xE0 SHL DUP2 MSTORE PUSH1 0x4 ADD PUSH2 0x2EE1 SWAP3 SWAP2 SWAP1 PUSH2 0x6DA5 JUMP JUMPDEST PUSH1 0x20 PUSH1 0x40 MLOAD DUP1 DUP4 SUB DUP2 DUP7 GAS STATICCALL ISZERO DUP1 ISZERO PUSH2 0x2EFC JUMPI RETURNDATASIZE PUSH0 PUSH0 RETURNDATACOPY RETURNDATASIZE PUSH0 REVERT JUMPDEST POP POP POP POP PUSH1 0x40 MLOAD RETURNDATASIZE PUSH1 0x1F NOT PUSH1 0x1F DUP3 ADD AND DUP3 ADD DUP1 PUSH1 0x40 MSTORE POP DUP2 ADD SWAP1 PUSH2 0x2F20 SWAP2 SWAP1 PUSH2 0x6DE0 JUMP JUMPDEST DUP1 PUSH2 0x2FE2 JUMPI POP PUSH1 0x2 PUSH0 SWAP1 SLOAD SWAP1 PUSH2 0x100 EXP SWAP1 DIV PUSH20 0xFFFFFFFFFFFFFFFFFFFFFFFFFFFFFFFFFFFFFFFF AND PUSH20 0xFFFFFFFFFFFFFFFFFFFFFFFFFFFFFFFFFFFFFFFF AND PUSH4 0x91D14854 PUSH32 0x940D6B1946FF1D2B5A9F1909219C3C81A370804B5BA0F91EC0828C99A2E6A681 CALLER PUSH1 0x40 MLOAD DUP4 PUSH4 0xFFFFFFFF AND PUSH1 0xE0 SHL DUP2 MSTORE PUSH1 0x4 ADD PUSH2 0x2FA2 SWAP3 SWAP2 SWAP1 PUSH2 0x6DA5 JUMP JUMPDEST PUSH1 0x20 PUSH1 0x40 MLOAD DUP1 DUP4 SUB DUP2 DUP7 GAS STATICCALL ISZERO DUP1 ISZERO PUSH2 0x2FBD JUMPI RETURNDATASIZE PUSH0 PUSH0 RETURNDATACOPY RETURNDATASIZE PUSH0 REVERT JUMPDEST POP POP POP POP PUSH1 0x40 MLOAD RETURNDATASIZE PUSH1 0x1F NOT PUSH1 0x1F DUP3 ADD AND DUP3 ADD DUP1 PUSH1 0x40 MSTORE POP DUP2 ADD SWAP1 PUSH2 0x2FE1 SWAP2 SWAP1 PUSH2 0x6DE0 JUMP JUMPDEST JUMPDEST PUSH2 0x3021 JUMPI PUSH1 0x40 MLOAD PUSH32 0x8C379A000000000000000000000000000000000000000000000000000000000 DUP2 MSTORE PUSH1 0x4 ADD PUSH2 0x3018 SWAP1 PUSH2 0x6E55 JUMP JUMPDEST PUSH1 0x40 MLOAD DUP1 SWAP2 SUB SWAP1 REVERT JUMPDEST PUSH2 0x3029 PUSH2 0x4B71 JUMP JUMPDEST PUSH1 0x9 DUP1 SLOAD SWAP1 POP DUP2 LT PUSH2 0x3070 JUMPI PUSH1 0x40 MLOAD PUSH32 0x8C379A000000000000000000000000000000000000000000000000000000000 DUP2 MSTORE PUSH1 0x4 ADD PUSH2 0x3067 SWAP1 PUSH2 0x6D5A JUMP JUMPDEST PUSH1 0x40 MLOAD DUP1 SWAP2 SUB SWAP1 REVERT JUMPDEST PUSH1 0x9 DUP2 DUP2 SLOAD DUP2 LT PUSH2 0x3084 JUMPI PUSH2 0x3083 PUSH2 0x6D78 JUMP JUMPDEST JUMPDEST SWAP1 PUSH0 MSTORE PUSH1 0x20 PUSH0 KECCAK256 SWAP1 PUSH1 0x5 MUL ADD PUSH1 0x3 ADD PUSH1 0x2 SWAP1 SLOAD SWAP1 PUSH2 0x100 EXP SWAP1 DIV PUSH1 0xFF AND PUSH2 0x30E0 JUMPI PUSH1 0x40 MLOAD PUSH32 0x8C379A000000000000000000000000000000000000000000000000000000000 DUP2 MSTORE PUSH1 0x4 ADD PUSH2 0x30D7 SWAP1 PUSH2 0x7887 JUMP JUMPDEST PUSH1 0x40 MLOAD DUP1 SWAP2 SUB SWAP1 REVERT JUMPDEST PUSH1 0xA PUSH0 DUP3 DUP2 MSTORE PUSH1 0x20 ADD SWAP1 DUP2 MSTORE PUSH1 0x20 ADD PUSH0 KECCAK256 PUSH0 SWAP1 SLOAD SWAP1 PUSH2 0x100 EXP SWAP1 DIV PUSH1 0xFF AND ISZERO PUSH2 0x313E JUMPI PUSH1 0x40 MLOAD PUSH32 0x8C379A000000000000000000000000000000000000000000000000000000000 DUP2 MSTORE PUSH1 0x4 ADD PUSH2 0x3135 SWAP1 PUSH2 0x78EF JUMP JUMPDEST PUSH1 0x40 MLOAD DUP1 SWAP2 SUB SWAP1 REVERT JUMPDEST PUSH0 PUSH1 0x9 DUP3 DUP2 SLOAD DUP2 LT PUSH2 0x3153 JUMPI PUSH2 0x3152 PUSH2 0x6D78 JUMP JUMPDEST JUMPDEST SWAP1 PUSH0 MSTORE PUSH1 0x20 PUSH0 KECCAK256 SWAP1 PUSH1 0x5 MUL ADD PUSH1 0x40 MLOAD DUP1 PUSH2 0x100 ADD PUSH1 0x40 MSTORE SWAP1 DUP2 PUSH0 DUP3 ADD DUP1 SLOAD DUP1 PUSH1 0x20 MUL PUSH1 0x20 ADD PUSH1 0x40 MLOAD SWAP1 DUP2 ADD PUSH1 0x40 MSTORE DUP1 SWAP3 SWAP2 SWAP1 DUP2 DUP2 MSTORE PUSH1 0x20 ADD DUP3 DUP1 SLOAD DUP1 ISZERO PUSH2 0x31EC JUMPI PUSH1 0x20 MUL DUP3 ADD SWAP2 SWAP1 PUSH0 MSTORE PUSH1 0x20 PUSH0 KECCAK256 SWAP1 JUMPDEST DUP2 PUSH0 SWAP1 SLOAD SWAP1 PUSH2 0x100 EXP SWAP1 DIV PUSH20 0xFFFFFFFFFFFFFFFFFFFFFFFFFFFFFFFFFFFFFFFF AND PUSH20 0xFFFFFFFFFFFFFFFFFFFFFFFFFFFFFFFFFFFFFFFF AND DUP2 MSTORE PUSH1 0x20 ADD SWAP1 PUSH1 0x1 ADD SWAP1 DUP1 DUP4 GT PUSH2 0x31A3 JUMPI JUMPDEST POP POP POP POP POP DUP2 MSTORE PUSH1 0x20 ADD PUSH1 0x1 DUP3 ADD PUSH0 SWAP1 SLOAD SWAP1 PUSH2 0x100 EXP SWAP1 DIV PUSH20 0xFFFFFFFFFFFFFFFFFFFFFFFFFFFFFFFFFFFFFFFF AND PUSH20 0xFFFFFFFFFFFFFFFFFFFFFFFFFFFFFFFFFFFFFFFF AND PUSH20 0xFFFFFFFFFFFFFFFFFFFFFFFFFFFFFFFFFFFFFFFF AND DUP2 MSTORE PUSH1 0x20 ADD PUSH1 0x2 DUP3 ADD DUP1 SLOAD DUP1 PUSH1 0x20 MUL PUSH1 0x20 ADD PUSH1 0x40 MLOAD SWAP1 DUP2 ADD PUSH1 0x40 MSTORE DUP1 SWAP3 SWAP2 SWAP1 DUP2 DUP2 MSTORE PUSH1 0x20 ADD DUP3 DUP1 SLOAD DUP1 ISZERO PUSH2 0x3297 JUMPI PUSH1 0x20 MUL DUP3 ADD SWAP2 SWAP1 PUSH0 MSTORE PUSH1 0x20 PUSH0 KECCAK256 SWAP1 JUMPDEST DUP2 SLOAD DUP2 MSTORE PUSH1 0x20 ADD SWAP1 PUSH1 0x1 ADD SWAP1 DUP1 DUP4 GT PUSH2 0x3283 JUMPI JUMPDEST POP POP POP POP POP DUP2 MSTORE PUSH1 0x20 ADD PUSH1 0x3 DUP3 ADD PUSH0 SWAP1 SLOAD SWAP1 PUSH2 0x100 EXP SWAP1 DIV PUSH1 0xFF AND PUSH1 0x3 DUP2 GT ISZERO PUSH2 0x32C4 JUMPI PUSH2 0x32C3 PUSH2 0x5F29 JUMP JUMPDEST JUMPDEST PUSH1 0x3 DUP2 GT ISZERO PUSH2 0x32D6 JUMPI PUSH2 0x32D5 PUSH2 0x5F29 JUMP JUMPDEST JUMPDEST DUP2 MSTORE PUSH1 0x20 ADD PUSH1 0x3 DUP3 ADD PUSH1 0x1 SWAP1 SLOAD SWAP1 PUSH2 0x100 EXP SWAP1 DIV PUSH1 0xFF AND ISZERO ISZERO ISZERO ISZERO DUP2 MSTORE PUSH1 0x20 ADD PUSH1 0x3 DUP3 ADD PUSH1 0x2 SWAP1 SLOAD SWAP1 PUSH2 0x100 EXP SWAP1 DIV PUSH1 0xFF AND ISZERO ISZERO ISZERO ISZERO DUP2 MSTORE PUSH1 0x20 ADD PUSH1 0x3 DUP3 ADD PUSH1 0x3 SWAP1 SLOAD SWAP1 PUSH2 0x100 EXP SWAP1 DIV PUSH20 0xFFFFFFFFFFFFFFFFFFFFFFFFFFFFFFFFFFFFFFFF AND PUSH20 0xFFFFFFFFFFFFFFFFFFFFFFFFFFFFFFFFFFFFFFFF AND PUSH20 0xFFFFFFFFFFFFFFFFFFFFFFFFFFFFFFFFFFFFFFFF AND DUP2 MSTORE PUSH1 0x20 ADD PUSH1 0x4 DUP3 ADD SLOAD DUP2 MSTORE POP POP SWAP1 POP PUSH0 PUSH0 SWAP1 POP PUSH0 PUSH0 SWAP1 POP PUSH0 PUSH0 SWAP1 POP JUMPDEST DUP4 PUSH0 ADD MLOAD MLOAD DUP2 LT ISZERO PUSH2 0x3413 JUMPI PUSH0 PUSH2 0x33DB DUP6 PUSH0 ADD MLOAD DUP4 DUP2 MLOAD DUP2 LT PUSH2 0x33A5 JUMPI PUSH2 0x33A4 PUSH2 0x6D78 JUMP JUMPDEST JUMPDEST PUSH1 0x20 MUL PUSH1 0x20 ADD ADD MLOAD DUP7 PUSH1 0x20 ADD MLOAD DUP8 PUSH1 0x40 ADD MLOAD DUP6 DUP2 MLOAD DUP2 LT PUSH2 0x33C9 JUMPI PUSH2 0x33C8 PUSH2 0x6D78 JUMP JUMPDEST JUMPDEST PUSH1 0x20 MUL PUSH1 0x20 ADD ADD MLOAD DUP9 PUSH1 0x60 ADD MLOAD PUSH2 0x4F27 JUMP JUMPDEST SWAP1 POP DUP1 ISZERO PUSH2 0x33F6 JUMPI DUP4 DUP1 PUSH2 0x33EE SWAP1 PUSH2 0x712F JUMP JUMPDEST SWAP5 POP POP PUSH2 0x3405 JUMP JUMPDEST DUP3 DUP1 PUSH2 0x3401 SWAP1 PUSH2 0x712F JUMP JUMPDEST SWAP4 POP POP JUMPDEST POP DUP1 DUP1 PUSH1 0x1 ADD SWAP2 POP POP PUSH2 0x337F JUMP JUMPDEST POP PUSH1 0x1 PUSH1 0xA PUSH0 DUP7 DUP2 MSTORE PUSH1 0x20 ADD SWAP1 DUP2 MSTORE PUSH1 0x20 ADD PUSH0 KECCAK256 PUSH0 PUSH2 0x100 EXP DUP2 SLOAD DUP2 PUSH1 0xFF MUL NOT AND SWAP1 DUP4 ISZERO ISZERO MUL OR SWAP1 SSTORE POP DUP4 PUSH32 0x20EB9F3AEBB74816A1325A7477CFA6F6AB692B692CD5930DB98BD2D0343B70CA DUP4 DUP4 PUSH1 0x40 MLOAD PUSH2 0x346F SWAP3 SWAP2 SWAP1 PUSH2 0x771F JUMP JUMPDEST PUSH1 0x40 MLOAD DUP1 SWAP2 SUB SWAP1 LOG2 PUSH1 0x5 PUSH0 SWAP1 SLOAD SWAP1 PUSH2 0x100 EXP SWAP1 DIV PUSH20 0xFFFFFFFFFFFFFFFFFFFFFFFFFFFFFFFFFFFFFFFF AND PUSH20 0xFFFFFFFFFFFFFFFFFFFFFFFFFFFFFFFFFFFFFFFF AND PUSH4 0x44C83B97 CALLER DUP7 DUP6 DUP6 TIMESTAMP PUSH1 0x40 MLOAD PUSH1 0x20 ADD PUSH2 0x34CC SWAP5 SWAP4 SWAP3 SWAP2 SWAP1 PUSH2 0x790D JUMP JUMPDEST PUSH1 0x40 MLOAD PUSH1 0x20 DUP2 DUP4 SUB SUB DUP2 MSTORE SWAP1 PUSH1 0x40 MSTORE PUSH1 0x40 MLOAD DUP4 PUSH4 0xFFFFFFFF AND PUSH1 0xE0 SHL DUP2 MSTORE PUSH1 0x4 ADD PUSH2 0x34F8 SWAP3 SWAP2 SWAP1 PUSH2 0x79EC JUMP JUMPDEST PUSH0 PUSH1 0x40 MLOAD DUP1 DUP4 SUB DUP2 PUSH0 DUP8 DUP1 EXTCODESIZE ISZERO DUP1 ISZERO PUSH2 0x350F JUMPI PUSH0 PUSH0 REVERT JUMPDEST POP GAS CALL ISZERO DUP1 ISZERO PUSH2 0x3521 JUMPI RETURNDATASIZE PUSH0 PUSH0 RETURNDATACOPY RETURNDATASIZE PUSH0 REVERT JUMPDEST POP POP POP POP POP POP POP PUSH2 0x3530 PUSH2 0x4E2E JUMP JUMPDEST POP JUMP JUMPDEST PUSH0 PUSH1 0x9 DUP1 SLOAD SWAP1 POP SWAP1 POP SWAP1 JUMP JUMPDEST PUSH1 0x7 PUSH1 0x20 MSTORE DUP2 PUSH0 MSTORE PUSH1 0x40 PUSH0 KECCAK256 DUP2 DUP2 SLOAD DUP2 LT PUSH2 0x3558 JUMPI PUSH0 DUP1 REVERT JUMPDEST SWAP1 PUSH0 MSTORE PUSH1 0x20 PUSH0 KECCAK256 SWAP1 PUSH1 0x9 MUL ADD PUSH0 SWAP2 POP SWAP2 POP POP DUP1 PUSH0 ADD PUSH0 SWAP1 SLOAD SWAP1 PUSH2 0x100 EXP SWAP1 DIV PUSH20 0xFFFFFFFFFFFFFFFFFFFFFFFFFFFFFFFFFFFFFFFF AND SWAP1 DUP1 PUSH1 0x1 ADD PUSH0 SWAP1 SLOAD SWAP1 PUSH2 0x100 EXP SWAP1 DIV PUSH20 0xFFFFFFFFFFFFFFFFFFFFFFFFFFFFFFFFFFFFFFFF AND SWAP1 DUP1 PUSH1 0x2 ADD SLOAD SWAP1 DUP1 PUSH1 0x3 ADD SLOAD SWAP1 DUP1 PUSH1 0x4 ADD PUSH0 SWAP1 SLOAD SWAP1 PUSH2 0x100 EXP SWAP1 DIV PUSH1 0xFF AND SWAP1 DUP1 PUSH1 0x4 ADD PUSH1 0x1 SWAP1 SLOAD SWAP1 PUSH2 0x100 EXP SWAP1 DIV PUSH1 0xFF AND SWAP1 DUP1 PUSH1 0x5 ADD DUP1 SLOAD PUSH2 0x35F3 SWAP1 PUSH2 0x71A3 JUMP JUMPDEST DUP1 PUSH1 0x1F ADD PUSH1 0x20 DUP1 SWAP2 DIV MUL PUSH1 0x20 ADD PUSH1 0x40 MLOAD SWAP1 DUP2 ADD PUSH1 0x40 MSTORE DUP1 SWAP3 SWAP2 SWAP1 DUP2 DUP2 MSTORE PUSH1 0x20 ADD DUP3 DUP1 SLOAD PUSH2 0x361F SWAP1 PUSH2 0x71A3 JUMP JUMPDEST DUP1 ISZERO PUSH2 0x366A JUMPI DUP1 PUSH1 0x1F LT PUSH2 0x3641 JUMPI PUSH2 0x100 DUP1 DUP4 SLOAD DIV MUL DUP4 MSTORE SWAP2 PUSH1 0x20 ADD SWAP2 PUSH2 0x366A JUMP JUMPDEST DUP3 ADD SWAP2 SWAP1 PUSH0 MSTORE PUSH1 0x20 PUSH0 KECCAK256 SWAP1 JUMPDEST DUP2 SLOAD DUP2 MSTORE SWAP1 PUSH1 0x1 ADD SWAP1 PUSH1 0x20 ADD DUP1 DUP4 GT PUSH2 0x364D JUMPI DUP3 SWAP1 SUB PUSH1 0x1F AND DUP3 ADD SWAP2 JUMPDEST POP POP POP POP POP SWAP1 DUP1 PUSH1 0x6 ADD SLOAD SWAP1 DUP1 PUSH1 0x7 ADD SLOAD SWAP1 DUP1 PUSH1 0x8 ADD DUP1 SLOAD PUSH2 0x368B SWAP1 PUSH2 0x71A3 JUMP JUMPDEST DUP1 PUSH1 0x1F ADD PUSH1 0x20 DUP1 SWAP2 DIV MUL PUSH1 0x20 ADD PUSH1 0x40 MLOAD SWAP1 DUP2 ADD PUSH1 0x40 MSTORE DUP1 SWAP3 SWAP2 SWAP1 DUP2 DUP2 MSTORE PUSH1 0x20 ADD DUP3 DUP1 SLOAD PUSH2 0x36B7 SWAP1 PUSH2 0x71A3 JUMP JUMPDEST DUP1 ISZERO PUSH2 0x3702 JUMPI DUP1 PUSH1 0x1F LT PUSH2 0x36D9 JUMPI PUSH2 0x100 DUP1 DUP4 SLOAD DIV MUL DUP4 MSTORE SWAP2 PUSH1 0x20 ADD SWAP2 PUSH2 0x3702 JUMP JUMPDEST DUP3 ADD SWAP2 SWAP1 PUSH0 MSTORE PUSH1 0x20 PUSH0 KECCAK256 SWAP1 JUMPDEST DUP2 SLOAD DUP2 MSTORE SWAP1 PUSH1 0x1 ADD SWAP1 PUSH1 0x20 ADD DUP1 DUP4 GT PUSH2 0x36E5 JUMPI DUP3 SWAP1 SUB PUSH1 0x1F AND DUP3 ADD SWAP2 JUMPDEST POP POP POP POP POP SWAP1 POP DUP11 JUMP JUMPDEST PUSH1 0x2 PUSH0 SWAP1 SLOAD SWAP1 PUSH2 0x100 EXP SWAP1 DIV PUSH20 0xFFFFFFFFFFFFFFFFFFFFFFFFFFFFFFFFFFFFFFFF AND PUSH20 0xFFFFFFFFFFFFFFFFFFFFFFFFFFFFFFFFFFFFFFFF AND PUSH4 0x91D14854 PUSH32 0xA49807205CE4D355092EF5A8A18F56E8913CF4A201FBE287825B095693C21775 CALLER PUSH1 0x40 MLOAD DUP4 PUSH4 0xFFFFFFFF AND PUSH1 0xE0 SHL DUP2 MSTORE PUSH1 0x4 ADD PUSH2 0x3788 SWAP3 SWAP2 SWAP1 PUSH2 0x6DA5 JUMP JUMPDEST PUSH1 0x20 PUSH1 0x40 MLOAD DUP1 DUP4 SUB DUP2 DUP7 GAS STATICCALL ISZERO DUP1 ISZERO PUSH2 0x37A3 JUMPI RETURNDATASIZE PUSH0 PUSH0 RETURNDATACOPY RETURNDATASIZE PUSH0 REVERT JUMPDEST POP POP POP POP PUSH1 0x40 MLOAD RETURNDATASIZE PUSH1 0x1F NOT PUSH1 0x1F DUP3 ADD AND DUP3 ADD DUP1 PUSH1 0x40 MSTORE POP DUP2 ADD SWAP1 PUSH2 0x37C7 SWAP2 SWAP1 PUSH2 0x6DE0 JUMP JUMPDEST DUP1 PUSH2 0x3889 JUMPI POP PUSH1 0x2 PUSH0 SWAP1 SLOAD SWAP1 PUSH2 0x100 EXP SWAP1 DIV PUSH20 0xFFFFFFFFFFFFFFFFFFFFFFFFFFFFFFFFFFFFFFFF AND PUSH20 0xFFFFFFFFFFFFFFFFFFFFFFFFFFFFFFFFFFFFFFFF AND PUSH4 0x91D14854 PUSH32 0x940D6B1946FF1D2B5A9F1909219C3C81A370804B5BA0F91EC0828C99A2E6A681 CALLER PUSH1 0x40 MLOAD DUP4 PUSH4 0xFFFFFFFF AND PUSH1 0xE0 SHL DUP2 MSTORE PUSH1 0x4 ADD PUSH2 0x3849 SWAP3 SWAP2 SWAP1 PUSH2 0x6DA5 JUMP JUMPDEST PUSH1 0x20 PUSH1 0x40 MLOAD DUP1 DUP4 SUB DUP2 DUP7 GAS STATICCALL ISZERO DUP1 ISZERO PUSH2 0x3864 JUMPI RETURNDATASIZE PUSH0 PUSH0 RETURNDATACOPY RETURNDATASIZE PUSH0 REVERT JUMPDEST POP POP POP POP PUSH1 0x40 MLOAD RETURNDATASIZE PUSH1 0x1F NOT PUSH1 0x1F DUP3 ADD AND DUP3 ADD DUP1 PUSH1 0x40 MSTORE POP DUP2 ADD SWAP1 PUSH2 0x3888 SWAP2 SWAP1 PUSH2 0x6DE0 JUMP JUMPDEST JUMPDEST PUSH2 0x38C8 JUMPI PUSH1 0x40 MLOAD PUSH32 0x8C379A000000000000000000000000000000000000000000000000000000000 DUP2 MSTORE PUSH1 0x4 ADD PUSH2 0x38BF SWAP1 PUSH2 0x6E55 JUMP JUMPDEST PUSH1 0x40 MLOAD DUP1 SWAP2 SUB SWAP1 REVERT JUMPDEST DUP1 PUSH1 0xC DUP2 SWAP1 SSTORE POP POP JUMP JUMPDEST PUSH0 PUSH0 PUSH0 DUP5 DUP2 MSTORE PUSH1 0x20 ADD SWAP1 DUP2 MSTORE PUSH1 0x20 ADD PUSH0 KECCAK256 PUSH0 ADD PUSH0 DUP4 PUSH20 0xFFFFFFFFFFFFFFFFFFFFFFFFFFFFFFFFFFFFFFFF AND PUSH20 0xFFFFFFFFFFFFFFFFFFFFFFFFFFFFFFFFFFFFFFFF AND DUP2 MSTORE PUSH1 0x20 ADD SWAP1 DUP2 MSTORE PUSH1 0x20 ADD PUSH0 KECCAK256 PUSH0 SWAP1 SLOAD SWAP1 PUSH2 0x100 EXP SWAP1 DIV PUSH1 0xFF AND SWAP1 POP SWAP3 SWAP2 POP POP JUMP JUMPDEST PUSH0 PUSH1 0x8 PUSH0 DUP4 PUSH20 0xFFFFFFFFFFFFFFFFFFFFFFFFFFFFFFFFFFFFFFFF AND PUSH20 0xFFFFFFFFFFFFFFFFFFFFFFFFFFFFFFFFFFFFFFFF AND DUP2 MSTORE PUSH1 0x20 ADD SWAP1 DUP2 MSTORE PUSH1 0x20 ADD PUSH0 KECCAK256 SLOAD SWAP1 POP SWAP2 SWAP1 POP JUMP JUMPDEST PUSH1 0x2 PUSH0 SWAP1 SLOAD SWAP1 PUSH2 0x100 EXP SWAP1 DIV PUSH20 0xFFFFFFFFFFFFFFFFFFFFFFFFFFFFFFFFFFFFFFFF AND DUP2 JUMP JUMPDEST PUSH0 PUSH0 SHL DUP2 JUMP JUMPDEST PUSH1 0x6 DUP2 DUP2 SLOAD DUP2 LT PUSH2 0x39B5 JUMPI PUSH0 DUP1 REVERT JUMPDEST SWAP1 PUSH0 MSTORE PUSH1 0x20 PUSH0 KECCAK256 SWAP1 PUSH1 0x9 MUL ADD PUSH0 SWAP2 POP SWAP1 POP DUP1 PUSH0 ADD PUSH0 SWAP1 SLOAD SWAP1 PUSH2 0x100 EXP SWAP1 DIV PUSH20 0xFFFFFFFFFFFFFFFFFFFFFFFFFFFFFFFFFFFFFFFF AND SWAP1 DUP1 PUSH1 0x1 ADD PUSH0 SWAP1 SLOAD SWAP1 PUSH2 0x100 EXP SWAP1 DIV PUSH20 0xFFFFFFFFFFFFFFFFFFFFFFFFFFFFFFFFFFFFFFFF AND SWAP1 DUP1 PUSH1 0x2 ADD SLOAD SWAP1 DUP1 PUSH1 0x3 ADD SLOAD SWAP1 DUP1 PUSH1 0x4 ADD PUSH0 SWAP1 SLOAD SWAP1 PUSH2 0x100 EXP SWAP1 DIV PUSH1 0xFF AND SWAP1 DUP1 PUSH1 0x4 ADD PUSH1 0x1 SWAP1 SLOAD SWAP1 PUSH2 0x100 EXP SWAP1 DIV PUSH1 0xFF AND SWAP1 DUP1 PUSH1 0x5 ADD DUP1 SLOAD PUSH2 0x3A4F SWAP1 PUSH2 0x71A3 JUMP JUMPDEST DUP1 PUSH1 0x1F ADD PUSH1 0x20 DUP1 SWAP2 DIV MUL PUSH1 0x20 ADD PUSH1 0x40 MLOAD SWAP1 DUP2 ADD PUSH1 0x40 MSTORE DUP1 SWAP3 SWAP2 SWAP1 DUP2 DUP2 MSTORE PUSH1 0x20 ADD DUP3 DUP1 SLOAD PUSH2 0x3A7B SWAP1 PUSH2 0x71A3 JUMP JUMPDEST DUP1 ISZERO PUSH2 0x3AC6 JUMPI DUP1 PUSH1 0x1F LT PUSH2 0x3A9D JUMPI PUSH2 0x100 DUP1 DUP4 SLOAD DIV MUL DUP4 MSTORE SWAP2 PUSH1 0x20 ADD SWAP2 PUSH2 0x3AC6 JUMP JUMPDEST DUP3 ADD SWAP2 SWAP1 PUSH0 MSTORE PUSH1 0x20 PUSH0 KECCAK256 SWAP1 JUMPDEST DUP2 SLOAD DUP2 MSTORE SWAP1 PUSH1 0x1 ADD SWAP1 PUSH1 0x20 ADD DUP1 DUP4 GT PUSH2 0x3AA9 JUMPI DUP3 SWAP1 SUB PUSH1 0x1F AND DUP3 ADD SWAP2 JUMPDEST POP POP POP POP POP SWAP1 DUP1 PUSH1 0x6 ADD SLOAD SWAP1 DUP1 PUSH1 0x7 ADD SLOAD SWAP1 DUP1 PUSH1 0x8 ADD DUP1 SLOAD PUSH2 0x3AE7 SWAP1 PUSH2 0x71A3 JUMP JUMPDEST DUP1 PUSH1 0x1F ADD PUSH1 0x20 DUP1 SWAP2 DIV MUL PUSH1 0x20 ADD PUSH1 0x40 MLOAD SWAP1 DUP2 ADD PUSH1 0x40 MSTORE DUP1 SWAP3 SWAP2 SWAP1 DUP2 DUP2 MSTORE PUSH1 0x20 ADD DUP3 DUP1 SLOAD PUSH2 0x3B13 SWAP1 PUSH2 0x71A3 JUMP JUMPDEST DUP1 ISZERO PUSH2 0x3B5E JUMPI DUP1 PUSH1 0x1F LT PUSH2 0x3B35 JUMPI PUSH2 0x100 DUP1 DUP4 SLOAD DIV MUL DUP4 MSTORE SWAP2 PUSH1 0x20 ADD SWAP2 PUSH2 0x3B5E JUMP JUMPDEST DUP3 ADD SWAP2 SWAP1 PUSH0 MSTORE PUSH1 0x20 PUSH0 KECCAK256 SWAP1 JUMPDEST DUP2 SLOAD DUP2 MSTORE SWAP1 PUSH1 0x1 ADD SWAP1 PUSH1 0x20 ADD DUP1 DUP4 GT PUSH2 0x3B41 JUMPI DUP3 SWAP1 SUB PUSH1 0x1F AND DUP3 ADD SWAP2 JUMPDEST POP POP POP POP POP SWAP1 POP DUP11 JUMP JUMPDEST PUSH1 0x2 PUSH0 SWAP1 SLOAD SWAP1 PUSH2 0x100 EXP SWAP1 DIV PUSH20 0xFFFFFFFFFFFFFFFFFFFFFFFFFFFFFFFFFFFFFFFF AND PUSH20 0xFFFFFFFFFFFFFFFFFFFFFFFFFFFFFFFFFFFFFFFF AND CALLER PUSH20 0xFFFFFFFFFFFFFFFFFFFFFFFFFFFFFFFFFFFFFFFF AND EQ PUSH2 0x3BF7 JUMPI PUSH1 0x40 MLOAD PUSH32 0x8C379A000000000000000000000000000000000000000000000000000000000 DUP2 MSTORE PUSH1 0x4 ADD PUSH2 0x3BEE SWAP1 PUSH2 0x74C6 JUMP JUMPDEST PUSH1 0x40 MLOAD DUP1 SWAP2 SUB SWAP1 REVERT JUMPDEST PUSH2 0x3BFF PUSH2 0x4B71 JUMP JUMPDEST PUSH0 PUSH1 0x3 PUSH0 SWAP1 SLOAD SWAP1 PUSH2 0x100 EXP SWAP1 DIV PUSH20 0xFFFFFFFFFFFFFFFFFFFFFFFFFFFFFFFFFFFFFFFF AND PUSH20 0xFFFFFFFFFFFFFFFFFFFFFFFFFFFFFFFFFFFFFFFF AND PUSH4 0x5DD38BFA PUSH1 0x40 MLOAD DUP2 PUSH4 0xFFFFFFFF AND PUSH1 0xE0 SHL DUP2 MSTORE PUSH1 0x4 ADD PUSH0 PUSH1 0x40 MLOAD DUP1 DUP4 SUB DUP2 DUP7 GAS STATICCALL ISZERO DUP1 ISZERO PUSH2 0x3C69 JUMPI RETURNDATASIZE PUSH0 PUSH0 RETURNDATACOPY RETURNDATASIZE PUSH0 REVERT JUMPDEST POP POP POP POP PUSH1 0x40 MLOAD RETURNDATASIZE PUSH0 DUP3 RETURNDATACOPY RETURNDATASIZE PUSH1 0x1F NOT PUSH1 0x1F DUP3 ADD AND DUP3 ADD DUP1 PUSH1 0x40 MSTORE POP DUP2 ADD SWAP1 PUSH2 0x3C91 SWAP2 SWAP1 PUSH2 0x7AC2 JUMP JUMPDEST SWAP1 POP PUSH0 PUSH0 SWAP1 POP PUSH0 PUSH0 SWAP1 POP PUSH0 PUSH0 SWAP1 POP JUMPDEST DUP4 MLOAD DUP2 LT ISZERO PUSH2 0x3EEB JUMPI PUSH0 DUP5 DUP3 DUP2 MLOAD DUP2 LT PUSH2 0x3CBD JUMPI PUSH2 0x3CBC PUSH2 0x6D78 JUMP JUMPDEST JUMPDEST PUSH1 0x20 MUL PUSH1 0x20 ADD ADD MLOAD SWAP1 POP PUSH1 0x3 PUSH0 SWAP1 SLOAD SWAP1 PUSH2 0x100 EXP SWAP1 DIV PUSH20 0xFFFFFFFFFFFFFFFFFFFFFFFFFFFFFFFFFFFFFFFF AND PUSH20 0xFFFFFFFFFFFFFFFFFFFFFFFFFFFFFFFFFFFFFFFF AND PUSH4 0x97AD7E02 DUP3 PUSH1 0x40 MLOAD DUP3 PUSH4 0xFFFFFFFF AND PUSH1 0xE0 SHL DUP2 MSTORE PUSH1 0x4 ADD PUSH2 0x3D21 SWAP2 SWAP1 PUSH2 0x6B1B JUMP JUMPDEST PUSH1 0x20 PUSH1 0x40 MLOAD DUP1 DUP4 SUB DUP2 DUP7 GAS STATICCALL ISZERO DUP1 ISZERO PUSH2 0x3D3C JUMPI RETURNDATASIZE PUSH0 PUSH0 RETURNDATACOPY RETURNDATASIZE PUSH0 REVERT JUMPDEST POP POP POP POP PUSH1 0x40 MLOAD RETURNDATASIZE PUSH1 0x1F NOT PUSH1 0x1F DUP3 ADD AND DUP3 ADD DUP1 PUSH1 0x40 MSTORE POP DUP2 ADD SWAP1 PUSH2 0x3D60 SWAP2 SWAP1 PUSH2 0x6DE0 JUMP JUMPDEST ISZERO PUSH2 0x3EDD JUMPI PUSH0 PUSH1 0x3 PUSH0 SWAP1 SLOAD SWAP1 PUSH2 0x100 EXP SWAP1 DIV PUSH20 0xFFFFFFFFFFFFFFFFFFFFFFFFFFFFFFFFFFFFFFFF AND PUSH20 0xFFFFFFFFFFFFFFFFFFFFFFFFFFFFFFFFFFFFFFFF AND PUSH4 0x32648E09 DUP4 PUSH1 0x40 MLOAD DUP3 PUSH4 0xFFFFFFFF AND PUSH1 0xE0 SHL DUP2 MSTORE PUSH1 0x4 ADD PUSH2 0x3DC0 SWAP2 SWAP1 PUSH2 0x6B1B JUMP JUMPDEST PUSH2 0x180 PUSH1 0x40 MLOAD DUP1 DUP4 SUB DUP2 DUP7 GAS STATICCALL ISZERO DUP1 ISZERO PUSH2 0x3DDC JUMPI RETURNDATASIZE PUSH0 PUSH0 RETURNDATACOPY RETURNDATASIZE PUSH0 REVERT JUMPDEST POP POP POP POP PUSH1 0x40 MLOAD RETURNDATASIZE PUSH1 0x1F NOT PUSH1 0x1F DUP3 ADD AND DUP3 ADD DUP1 PUSH1 0x40 MSTORE POP DUP2 ADD SWAP1 PUSH2 0x3E00 SWAP2 SWAP1 PUSH2 0x7014 JUMP JUMPDEST SWAP1 POP PUSH0 PUSH1 0x3 PUSH0 SWAP1 SLOAD SWAP1 PUSH2 0x100 EXP SWAP1 DIV PUSH20 0xFFFFFFFFFFFFFFFFFFFFFFFFFFFFFFFFFFFFFFFF AND PUSH20 0xFFFFFFFFFFFFFFFFFFFFFFFFFFFFFFFFFFFFFFFF AND PUSH4 0x774B2535 DUP5 PUSH1 0x40 MLOAD DUP3 PUSH4 0xFFFFFFFF AND PUSH1 0xE0 SHL DUP2 MSTORE PUSH1 0x4 ADD PUSH2 0x3E5D SWAP2 SWAP1 PUSH2 0x6B1B JUMP JUMPDEST PUSH1 0x20 PUSH1 0x40 MLOAD DUP1 DUP4 SUB DUP2 DUP7 GAS STATICCALL ISZERO DUP1 ISZERO PUSH2 0x3E78 JUMPI RETURNDATASIZE PUSH0 PUSH0 RETURNDATACOPY RETURNDATASIZE PUSH0 REVERT JUMPDEST POP POP POP POP PUSH1 0x40 MLOAD RETURNDATASIZE PUSH1 0x1F NOT PUSH1 0x1F DUP3 ADD AND DUP3 ADD DUP1 PUSH1 0x40 MSTORE POP DUP2 ADD SWAP1 PUSH2 0x3E9C SWAP2 SWAP1 PUSH2 0x7B09 JUMP JUMPDEST SWAP1 POP PUSH0 PUSH2 0x3EAF DUP5 DUP5 PUSH1 0x60 ADD MLOAD DUP5 PUSH0 PUSH2 0x4F27 JUMP JUMPDEST SWAP1 POP DUP1 ISZERO PUSH2 0x3ECA JUMPI DUP7 DUP1 PUSH2 0x3EC2 SWAP1 PUSH2 0x712F JUMP JUMPDEST SWAP8 POP POP PUSH2 0x3ED9 JUMP JUMPDEST DUP6 DUP1 PUSH2 0x3ED5 SWAP1 PUSH2 0x712F JUMP JUMPDEST SWAP7 POP POP JUMPDEST POP POP POP JUMPDEST POP DUP1 DUP1 PUSH1 0x1 ADD SWAP2 POP POP PUSH2 0x3CA0 JUMP JUMPDEST POP PUSH1 0x5 PUSH0 SWAP1 SLOAD SWAP1 PUSH2 0x100 EXP SWAP1 DIV PUSH20 0xFFFFFFFFFFFFFFFFFFFFFFFFFFFFFFFFFFFFFFFF AND PUSH20 0xFFFFFFFFFFFFFFFFFFFFFFFFFFFFFFFFFFFFFFFF AND PUSH4 0x44C83B97 CALLER DUP5 DUP5 TIMESTAMP PUSH1 0x40 MLOAD PUSH1 0x20 ADD PUSH2 0x3F3F SWAP4 SWAP3 SWAP2 SWAP1 PUSH2 0x7B34 JUMP JUMPDEST PUSH1 0x40 MLOAD PUSH1 0x20 DUP2 DUP4 SUB SUB DUP2 MSTORE SWAP1 PUSH1 0x40 MSTORE PUSH1 0x40 MLOAD DUP4 PUSH4 0xFFFFFFFF AND PUSH1 0xE0 SHL DUP2 MSTORE PUSH1 0x4 ADD PUSH2 0x3F6B SWAP3 SWAP2 SWAP1 PUSH2 0x7BB3 JUMP JUMPDEST PUSH0 PUSH1 0x40 MLOAD DUP1 DUP4 SUB DUP2 PUSH0 DUP8 DUP1 EXTCODESIZE ISZERO DUP1 ISZERO PUSH2 0x3F82 JUMPI PUSH0 PUSH0 REVERT JUMPDEST POP GAS CALL ISZERO DUP1 ISZERO PUSH2 0x3F94 JUMPI RETURNDATASIZE PUSH0 PUSH0 RETURNDATACOPY RETURNDATASIZE PUSH0 REVERT JUMPDEST POP POP POP POP POP POP POP PUSH2 0x3FA3 PUSH2 0x4E2E JUMP JUMPDEST JUMP JUMPDEST PUSH1 0x2 PUSH0 SWAP1 SLOAD SWAP1 PUSH2 0x100 EXP SWAP1 DIV PUSH20 0xFFFFFFFFFFFFFFFFFFFFFFFFFFFFFFFFFFFFFFFF AND PUSH20 0xFFFFFFFFFFFFFFFFFFFFFFFFFFFFFFFFFFFFFFFF AND CALLER PUSH20 0xFFFFFFFFFFFFFFFFFFFFFFFFFFFFFFFFFFFFFFFF AND EQ PUSH2 0x4034 JUMPI PUSH1 0x40 MLOAD PUSH32 0x8C379A000000000000000000000000000000000000000000000000000000000 DUP2 MSTORE PUSH1 0x4 ADD PUSH2 0x402B SWAP1 PUSH2 0x74C6 JUMP JUMPDEST PUSH1 0x40 MLOAD DUP1 SWAP2 SUB SWAP1 REVERT JUMPDEST DUP1 PUSH1 0x5 PUSH0 PUSH2 0x100 EXP DUP2 SLOAD DUP2 PUSH20 0xFFFFFFFFFFFFFFFFFFFFFFFFFFFFFFFFFFFFFFFF MUL NOT AND SWAP1 DUP4 PUSH20 0xFFFFFFFFFFFFFFFFFFFFFFFFFFFFFFFFFFFFFFFF AND MUL OR SWAP1 SSTORE POP POP JUMP JUMPDEST PUSH1 0x2 PUSH0 SWAP1 SLOAD SWAP1 PUSH2 0x100 EXP SWAP1 DIV PUSH20 0xFFFFFFFFFFFFFFFFFFFFFFFFFFFFFFFFFFFFFFFF AND PUSH20 0xFFFFFFFFFFFFFFFFFFFFFFFFFFFFFFFFFFFFFFFF AND PUSH4 0x91D14854 PUSH32 0xA49807205CE4D355092EF5A8A18F56E8913CF4A201FBE287825B095693C21775 CALLER PUSH1 0x40 MLOAD DUP4 PUSH4 0xFFFFFFFF AND PUSH1 0xE0 SHL DUP2 MSTORE PUSH1 0x4 ADD PUSH2 0x40F3 SWAP3 SWAP2 SWAP1 PUSH2 0x6DA5 JUMP JUMPDEST PUSH1 0x20 PUSH1 0x40 MLOAD DUP1 DUP4 SUB DUP2 DUP7 GAS STATICCALL ISZERO DUP1 ISZERO PUSH2 0x410E JUMPI RETURNDATASIZE PUSH0 PUSH0 RETURNDATACOPY RETURNDATASIZE PUSH0 REVERT JUMPDEST POP POP POP POP PUSH1 0x40 MLOAD RETURNDATASIZE PUSH1 0x1F NOT PUSH1 0x1F DUP3 ADD AND DUP3 ADD DUP1 PUSH1 0x40 MSTORE POP DUP2 ADD SWAP1 PUSH2 0x4132 SWAP2 SWAP1 PUSH2 0x6DE0 JUMP JUMPDEST DUP1 PUSH2 0x41F4 JUMPI POP PUSH1 0x2 PUSH0 SWAP1 SLOAD SWAP1 PUSH2 0x100 EXP SWAP1 DIV PUSH20 0xFFFFFFFFFFFFFFFFFFFFFFFFFFFFFFFFFFFFFFFF AND PUSH20 0xFFFFFFFFFFFFFFFFFFFFFFFFFFFFFFFFFFFFFFFF AND PUSH4 0x91D14854 PUSH32 0x940D6B1946FF1D2B5A9F1909219C3C81A370804B5BA0F91EC0828C99A2E6A681 CALLER PUSH1 0x40 MLOAD DUP4 PUSH4 0xFFFFFFFF AND PUSH1 0xE0 SHL DUP2 MSTORE PUSH1 0x4 ADD PUSH2 0x41B4 SWAP3 SWAP2 SWAP1 PUSH2 0x6DA5 JUMP JUMPDEST PUSH1 0x20 PUSH1 0x40 MLOAD DUP1 DUP4 SUB DUP2 DUP7 GAS STATICCALL ISZERO DUP1 ISZERO PUSH2 0x41CF JUMPI RETURNDATASIZE PUSH0 PUSH0 RETURNDATACOPY RETURNDATASIZE PUSH0 REVERT JUMPDEST POP POP POP POP PUSH1 0x40 MLOAD RETURNDATASIZE PUSH1 0x1F NOT PUSH1 0x1F DUP3 ADD AND DUP3 ADD DUP1 PUSH1 0x40 MSTORE POP DUP2 ADD SWAP1 PUSH2 0x41F3 SWAP2 SWAP1 PUSH2 0x6DE0 JUMP JUMPDEST JUMPDEST PUSH2 0x4233 JUMPI PUSH1 0x40 MLOAD PUSH32 0x8C379A000000000000000000000000000000000000000000000000000000000 DUP2 MSTORE PUSH1 0x4 ADD PUSH2 0x422A SWAP1 PUSH2 0x6E55 JUMP JUMPDEST PUSH1 0x40 MLOAD DUP1 SWAP2 SUB SWAP1 REVERT JUMPDEST PUSH1 0x9 DUP1 SLOAD SWAP1 POP DUP2 LT PUSH2 0x427A JUMPI PUSH1 0x40 MLOAD PUSH32 0x8C379A000000000000000000000000000000000000000000000000000000000 DUP2 MSTORE PUSH1 0x4 ADD PUSH2 0x4271 SWAP1 PUSH2 0x6D5A JUMP JUMPDEST PUSH1 0x40 MLOAD DUP1 SWAP2 SUB SWAP1 REVERT JUMPDEST PUSH1 0x9 DUP2 DUP2 SLOAD DUP2 LT PUSH2 0x428E JUMPI PUSH2 0x428D PUSH2 0x6D78 JUMP JUMPDEST JUMPDEST SWAP1 PUSH0 MSTORE PUSH1 0x20 PUSH0 KECCAK256 SWAP1 PUSH1 0x5 MUL ADD PUSH1 0x3 ADD PUSH1 0x2 SWAP1 SLOAD SWAP1 PUSH2 0x100 EXP SWAP1 DIV PUSH1 0xFF AND ISZERO PUSH2 0x42EB JUMPI PUSH1 0x40 MLOAD PUSH32 0x8C379A000000000000000000000000000000000000000000000000000000000 DUP2 MSTORE PUSH1 0x4 ADD PUSH2 0x42E2 SWAP1 PUSH2 0x7C3E JUMP JUMPDEST PUSH1 0x40 MLOAD DUP1 SWAP2 SUB SWAP1 REVERT JUMPDEST PUSH1 0x9 DUP2 DUP2 SLOAD DUP2 LT PUSH2 0x42FF JUMPI PUSH2 0x42FE PUSH2 0x6D78 JUMP JUMPDEST JUMPDEST SWAP1 PUSH0 MSTORE PUSH1 0x20 PUSH0 KECCAK256 SWAP1 PUSH1 0x5 MUL ADD PUSH1 0x3 ADD PUSH1 0x1 SWAP1 SLOAD SWAP1 PUSH2 0x100 EXP SWAP1 DIV PUSH1 0xFF AND PUSH2 0x435B JUMPI PUSH1 0x40 MLOAD PUSH32 0x8C379A000000000000000000000000000000000000000000000000000000000 DUP2 MSTORE PUSH1 0x4 ADD PUSH2 0x4352 SWAP1 PUSH2 0x7CA6 JUMP JUMPDEST PUSH1 0x40 MLOAD DUP1 SWAP2 SUB SWAP1 REVERT JUMPDEST PUSH1 0x1 PUSH1 0x9 DUP3 DUP2 SLOAD DUP2 LT PUSH2 0x4371 JUMPI PUSH2 0x4370 PUSH2 0x6D78 JUMP JUMPDEST JUMPDEST SWAP1 PUSH0 MSTORE PUSH1 0x20 PUSH0 KECCAK256 SWAP1 PUSH1 0x5 MUL ADD PUSH1 0x3 ADD PUSH1 0x2 PUSH2 0x100 EXP DUP2 SLOAD DUP2 PUSH1 0xFF MUL NOT AND SWAP1 DUP4 ISZERO ISZERO MUL OR SWAP1 SSTORE POP CALLER PUSH1 0x9 DUP3 DUP2 SLOAD DUP2 LT PUSH2 0x43AC JUMPI PUSH2 0x43AB PUSH2 0x6D78 JUMP JUMPDEST JUMPDEST SWAP1 PUSH0 MSTORE PUSH1 0x20 PUSH0 KECCAK256 SWAP1 PUSH1 0x5 MUL ADD PUSH1 0x3 ADD PUSH1 0x3 PUSH2 0x100 EXP DUP2 SLOAD DUP2 PUSH20 0xFFFFFFFFFFFFFFFFFFFFFFFFFFFFFFFFFFFFFFFF MUL NOT AND SWAP1 DUP4 PUSH20 0xFFFFFFFFFFFFFFFFFFFFFFFFFFFFFFFFFFFFFFFF AND MUL OR SWAP1 SSTORE POP DUP1 PUSH32 0x3DBC34279EF7D20A65F8815E5677A41470C442ACB057F954B9DA359C05A7B884 CALLER PUSH1 0x40 MLOAD PUSH2 0x4429 SWAP2 SWAP1 PUSH2 0x6B1B JUMP JUMPDEST PUSH1 0x40 MLOAD DUP1 SWAP2 SUB SWAP1 LOG2 POP JUMP JUMPDEST PUSH1 0xB SLOAD DUP2 JUMP JUMPDEST PUSH2 0x4442 PUSH2 0x5C9E JUMP JUMPDEST PUSH1 0x6 DUP1 SLOAD SWAP1 POP DUP3 LT PUSH2 0x4489 JUMPI PUSH1 0x40 MLOAD PUSH32 0x8C379A000000000000000000000000000000000000000000000000000000000 DUP2 MSTORE PUSH1 0x4 ADD PUSH2 0x4480 SWAP1 PUSH2 0x752E JUMP JUMPDEST PUSH1 0x40 MLOAD DUP1 SWAP2 SUB SWAP1 REVERT JUMPDEST PUSH1 0x6 DUP3 DUP2 SLOAD DUP2 LT PUSH2 0x449D JUMPI PUSH2 0x449C PUSH2 0x6D78 JUMP JUMPDEST JUMPDEST SWAP1 PUSH0 MSTORE PUSH1 0x20 PUSH0 KECCAK256 SWAP1 PUSH1 0x9 MUL ADD PUSH1 0x40 MLOAD DUP1 PUSH2 0x140 ADD PUSH1 0x40 MSTORE SWAP1 DUP2 PUSH0 DUP3 ADD PUSH0 SWAP1 SLOAD SWAP1 PUSH2 0x100 EXP SWAP1 DIV PUSH20 0xFFFFFFFFFFFFFFFFFFFFFFFFFFFFFFFFFFFFFFFF AND PUSH20 0xFFFFFFFFFFFFFFFFFFFFFFFFFFFFFFFFFFFFFFFF AND PUSH20 0xFFFFFFFFFFFFFFFFFFFFFFFFFFFFFFFFFFFFFFFF AND DUP2 MSTORE PUSH1 0x20 ADD PUSH1 0x1 DUP3 ADD PUSH0 SWAP1 SLOAD SWAP1 PUSH2 0x100 EXP SWAP1 DIV PUSH20 0xFFFFFFFFFFFFFFFFFFFFFFFFFFFFFFFFFFFFFFFF AND PUSH20 0xFFFFFFFFFFFFFFFFFFFFFFFFFFFFFFFFFFFFFFFF AND PUSH20 0xFFFFFFFFFFFFFFFFFFFFFFFFFFFFFFFFFFFFFFFF AND DUP2 MSTORE PUSH1 0x20 ADD PUSH1 0x2 DUP3 ADD SLOAD DUP2 MSTORE PUSH1 0x20 ADD PUSH1 0x3 DUP3 ADD SLOAD DUP2 MSTORE PUSH1 0x20 ADD PUSH1 0x4 DUP3 ADD PUSH0 SWAP1 SLOAD SWAP1 PUSH2 0x100 EXP SWAP1 DIV PUSH1 0xFF AND PUSH1 0x3 DUP2 GT ISZERO PUSH2 0x4596 JUMPI PUSH2 0x4595 PUSH2 0x5F29 JUMP JUMPDEST JUMPDEST PUSH1 0x3 DUP2 GT ISZERO PUSH2 0x45A8 JUMPI PUSH2 0x45A7 PUSH2 0x5F29 JUMP JUMPDEST JUMPDEST DUP2 MSTORE PUSH1 0x20 ADD PUSH1 0x4 DUP3 ADD PUSH1 0x1 SWAP1 SLOAD SWAP1 PUSH2 0x100 EXP SWAP1 DIV PUSH1 0xFF AND PUSH1 0x3 DUP2 GT ISZERO PUSH2 0x45D1 JUMPI PUSH2 0x45D0 PUSH2 0x5F29 JUMP JUMPDEST JUMPDEST PUSH1 0x3 DUP2 GT ISZERO PUSH2 0x45E3 JUMPI PUSH2 0x45E2 PUSH2 0x5F29 JUMP JUMPDEST JUMPDEST DUP2 MSTORE PUSH1 0x20 ADD PUSH1 0x5 DUP3 ADD DUP1 SLOAD PUSH2 0x45F7 SWAP1 PUSH2 0x71A3 JUMP JUMPDEST DUP1 PUSH1 0x1F ADD PUSH1 0x20 DUP1 SWAP2 DIV MUL PUSH1 0x20 ADD PUSH1 0x40 MLOAD SWAP1 DUP2 ADD PUSH1 0x40 MSTORE DUP1 SWAP3 SWAP2 SWAP1 DUP2 DUP2 MSTORE PUSH1 0x20 ADD DUP3 DUP1 SLOAD PUSH2 0x4623 SWAP1 PUSH2 0x71A3 JUMP JUMPDEST DUP1 ISZERO PUSH2 0x466E JUMPI DUP1 PUSH1 0x1F LT PUSH2 0x4645 JUMPI PUSH2 0x100 DUP1 DUP4 SLOAD DIV MUL DUP4 MSTORE SWAP2 PUSH1 0x20 ADD SWAP2 PUSH2 0x466E JUMP JUMPDEST DUP3 ADD SWAP2 SWAP1 PUSH0 MSTORE PUSH1 0x20 PUSH0 KECCAK256 SWAP1 JUMPDEST DUP2 SLOAD DUP2 MSTORE SWAP1 PUSH1 0x1 ADD SWAP1 PUSH1 0x20 ADD DUP1 DUP4 GT PUSH2 0x4651 JUMPI DUP3 SWAP1 SUB PUSH1 0x1F AND DUP3 ADD SWAP2 JUMPDEST POP POP POP POP POP DUP2 MSTORE PUSH1 0x20 ADD PUSH1 0x6 DUP3 ADD SLOAD DUP2 MSTORE PUSH1 0x20 ADD PUSH1 0x7 DUP3 ADD SLOAD DUP2 MSTORE PUSH1 0x20 ADD PUSH1 0x8 DUP3 ADD DUP1 SLOAD PUSH2 0x469B SWAP1 PUSH2 0x71A3 JUMP JUMPDEST DUP1 PUSH1 0x1F ADD PUSH1 0x20 DUP1 SWAP2 DIV MUL PUSH1 0x20 ADD PUSH1 0x40 MLOAD SWAP1 DUP2 ADD PUSH1 0x40 MSTORE DUP1 SWAP3 SWAP2 SWAP1 DUP2 DUP2 MSTORE PUSH1 0x20 ADD DUP3 DUP1 SLOAD PUSH2 0x46C7 SWAP1 PUSH2 0x71A3 JUMP JUMPDEST DUP1 ISZERO PUSH2 0x4712 JUMPI DUP1 PUSH1 0x1F LT PUSH2 0x46E9 JUMPI PUSH2 0x100 DUP1 DUP4 SLOAD DIV MUL DUP4 MSTORE SWAP2 PUSH1 0x20 ADD SWAP2 PUSH2 0x4712 JUMP JUMPDEST DUP3 ADD SWAP2 SWAP1 PUSH0 MSTORE PUSH1 0x20 PUSH0 KECCAK256 SWAP1 JUMPDEST DUP2 SLOAD DUP2 MSTORE SWAP1 PUSH1 0x1 ADD SWAP1 PUSH1 0x20 ADD DUP1 DUP4 GT PUSH2 0x46F5 JUMPI DUP3 SWAP1 SUB PUSH1 0x1F AND DUP3 ADD SWAP2 JUMPDEST POP POP POP POP POP DUP2 MSTORE POP POP SWAP1 POP SWAP2 SWAP1 POP JUMP JUMPDEST PUSH0 PUSH1 0x4 PUSH0 SWAP1 SLOAD SWAP1 PUSH2 0x100 EXP SWAP1 DIV PUSH20 0xFFFFFFFFFFFFFFFFFFFFFFFFFFFFFFFFFFFFFFFF AND PUSH20 0xFFFFFFFFFFFFFFFFFFFFFFFFFFFFFFFFFFFFFFFF AND PUSH4 0x1CC0A1C3 DUP6 DUP6 DUP6 PUSH1 0x40 MLOAD DUP5 PUSH4 0xFFFFFFFF AND PUSH1 0xE0 SHL DUP2 MSTORE PUSH1 0x4 ADD PUSH2 0x4781 SWAP4 SWAP3 SWAP2 SWAP1 PUSH2 0x7CC4 JUMP JUMPDEST PUSH1 0x20 PUSH1 0x40 MLOAD DUP1 DUP4 SUB DUP2 DUP7 GAS STATICCALL ISZERO DUP1 ISZERO PUSH2 0x479C JUMPI RETURNDATASIZE PUSH0 PUSH0 RETURNDATACOPY RETURNDATASIZE PUSH0 REVERT JUMPDEST POP POP POP POP PUSH1 0x40 MLOAD RETURNDATASIZE PUSH1 0x1F NOT PUSH1 0x1F DUP3 ADD AND DUP3 ADD DUP1 PUSH1 0x40 MSTORE POP DUP2 ADD SWAP1 PUSH2 0x47C0 SWAP2 SWAP1 PUSH2 0x7B09 JUMP JUMPDEST SWAP1 POP SWAP4 SWAP3 POP POP POP JUMP JUMPDEST PUSH2 0x47D2 DUP3 PUSH2 0x965 JUMP JUMPDEST PUSH2 0x47DB DUP2 PUSH2 0x4A74 JUMP JUMPDEST PUSH2 0x47E5 DUP4 DUP4 PUSH2 0x4E3E JUMP JUMPDEST POP POP POP POP JUMP JUMPDEST PUSH1 0x2 PUSH0 SWAP1 SLOAD SWAP1 PUSH2 0x100 EXP SWAP1 DIV PUSH20 0xFFFFFFFFFFFFFFFFFFFFFFFFFFFFFFFFFFFFFFFF AND PUSH20 0xFFFFFFFFFFFFFFFFFFFFFFFFFFFFFFFFFFFFFFFF AND PUSH4 0x91D14854 PUSH32 0xA49807205CE4D355092EF5A8A18F56E8913CF4A201FBE287825B095693C21775 CALLER PUSH1 0x40 MLOAD DUP4 PUSH4 0xFFFFFFFF AND PUSH1 0xE0 SHL DUP2 MSTORE PUSH1 0x4 ADD PUSH2 0x4867 SWAP3 SWAP2 SWAP1 PUSH2 0x6DA5 JUMP JUMPDEST PUSH1 0x20 PUSH1 0x40 MLOAD DUP1 DUP4 SUB DUP2 DUP7 GAS STATICCALL ISZERO DUP1 ISZERO PUSH2 0x4882 JUMPI RETURNDATASIZE PUSH0 PUSH0 RETURNDATACOPY RETURNDATASIZE PUSH0 REVERT JUMPDEST POP POP POP POP PUSH1 0x40 MLOAD RETURNDATASIZE PUSH1 0x1F NOT PUSH1 0x1F DUP3 ADD AND DUP3 ADD DUP1 PUSH1 0x40 MSTORE POP DUP2 ADD SWAP1 PUSH2 0x48A6 SWAP2 SWAP1 PUSH2 0x6DE0 JUMP JUMPDEST DUP1 PUSH2 0x4968 JUMPI POP PUSH1 0x2 PUSH0 SWAP1 SLOAD SWAP1 PUSH2 0x100 EXP SWAP1 DIV PUSH20 0xFFFFFFFFFFFFFFFFFFFFFFFFFFFFFFFFFFFFFFFF AND PUSH20 0xFFFFFFFFFFFFFFFFFFFFFFFFFFFFFFFFFFFFFFFF AND PUSH4 0x91D14854 PUSH32 0x940D6B1946FF1D2B5A9F1909219C3C81A370804B5BA0F91EC0828C99A2E6A681 CALLER PUSH1 0x40 MLOAD DUP4 PUSH4 0xFFFFFFFF AND PUSH1 0xE0 SHL DUP2 MSTORE PUSH1 0x4 ADD PUSH2 0x4928 SWAP3 SWAP2 SWAP1 PUSH2 0x6DA5 JUMP JUMPDEST PUSH1 0x20 PUSH1 0x40 MLOAD DUP1 DUP4 SUB DUP2 DUP7 GAS STATICCALL ISZERO DUP1 ISZERO PUSH2 0x4943 JUMPI RETURNDATASIZE PUSH0 PUSH0 RETURNDATACOPY RETURNDATASIZE PUSH0 REVERT JUMPDEST POP POP POP POP PUSH1 0x40 MLOAD RETURNDATASIZE PUSH1 0x1F NOT PUSH1 0x1F DUP3 ADD AND DUP3 ADD DUP1 PUSH1 0x40 MSTORE POP DUP2 ADD SWAP1 PUSH2 0x4967 SWAP2 SWAP1 PUSH2 0x6DE0 JUMP JUMPDEST JUMPDEST PUSH2 0x49A7 JUMPI PUSH1 0x40 MLOAD PUSH32 0x8C379A000000000000000000000000000000000000000000000000000000000 DUP2 MSTORE PUSH1 0x4 ADD PUSH2 0x499E SWAP1 PUSH2 0x6E55 JUMP JUMPDEST PUSH1 0x40 MLOAD DUP1 SWAP2 SUB SWAP1 REVERT JUMPDEST DUP1 PUSH1 0xD PUSH0 PUSH2 0x100 EXP DUP2 SLOAD DUP2 PUSH1 0xFF MUL NOT AND SWAP1 DUP4 ISZERO ISZERO MUL OR SWAP1 SSTORE POP POP JUMP JUMPDEST PUSH1 0xA PUSH1 0x20 MSTORE DUP1 PUSH0 MSTORE PUSH1 0x40 PUSH0 KECCAK256 PUSH0 SWAP2 POP SLOAD SWAP1 PUSH2 0x100 EXP SWAP1 DIV PUSH1 0xFF AND DUP2 JUMP JUMPDEST PUSH1 0x3 PUSH0 SWAP1 SLOAD SWAP1 PUSH2 0x100 EXP SWAP1 DIV PUSH20 0xFFFFFFFFFFFFFFFFFFFFFFFFFFFFFFFFFFFFFFFF AND DUP2 JUMP JUMPDEST PUSH1 0xC SLOAD DUP2 JUMP JUMPDEST PUSH0 PUSH32 0x1FFC9A700000000000000000000000000000000000000000000000000000000 PUSH28 0xFFFFFFFFFFFFFFFFFFFFFFFFFFFFFFFFFFFFFFFFFFFFFFFFFFFFFFFF NOT AND DUP3 PUSH28 0xFFFFFFFFFFFFFFFFFFFFFFFFFFFFFFFFFFFFFFFFFFFFFFFFFFFFFFFF NOT AND EQ SWAP1 POP SWAP2 SWAP1 POP JUMP JUMPDEST PUSH2 0x4A85 DUP2 PUSH2 0x4A80 PUSH2 0x4E37 JUMP JUMPDEST PUSH2 0x550B JUMP JUMPDEST POP JUMP JUMPDEST PUSH0 PUSH2 0x4A93 DUP4 DUP4 PUSH2 0x38D2 JUMP JUMPDEST PUSH2 0x4B67 JUMPI PUSH1 0x1 PUSH0 PUSH0 DUP6 DUP2 MSTORE PUSH1 0x20 ADD SWAP1 DUP2 MSTORE PUSH1 0x20 ADD PUSH0 KECCAK256 PUSH0 ADD PUSH0 DUP5 PUSH20 0xFFFFFFFFFFFFFFFFFFFFFFFFFFFFFFFFFFFFFFFF AND PUSH20 0xFFFFFFFFFFFFFFFFFFFFFFFFFFFFFFFFFFFFFFFF AND DUP2 MSTORE PUSH1 0x20 ADD SWAP1 DUP2 MSTORE PUSH1 0x20 ADD PUSH0 KECCAK256 PUSH0 PUSH2 0x100 EXP DUP2 SLOAD DUP2 PUSH1 0xFF MUL NOT AND SWAP1 DUP4 ISZERO ISZERO MUL OR SWAP1 SSTORE POP PUSH2 0x4B04 PUSH2 0x4E37 JUMP JUMPDEST PUSH20 0xFFFFFFFFFFFFFFFFFFFFFFFFFFFFFFFFFFFFFFFF AND DUP3 PUSH20 0xFFFFFFFFFFFFFFFFFFFFFFFFFFFFFFFFFFFFFFFF AND DUP5 PUSH32 0x2F8788117E7EFF1D82E926EC794901D17C78024A50270940304540A733656F0D PUSH1 0x40 MLOAD PUSH1 0x40 MLOAD DUP1 SWAP2 SUB SWAP1 LOG4 PUSH1 0x1 SWAP1 POP PUSH2 0x4B6B JUMP JUMPDEST PUSH0 SWAP1 POP JUMPDEST SWAP3 SWAP2 POP POP JUMP JUMPDEST PUSH1 0x2 PUSH1 0x1 SLOAD SUB PUSH2 0x4BB6 JUMPI PUSH1 0x40 MLOAD PUSH32 0x8C379A000000000000000000000000000000000000000000000000000000000 DUP2 MSTORE PUSH1 0x4 ADD PUSH2 0x4BAD SWAP1 PUSH2 0x7D43 JUMP JUMPDEST PUSH1 0x40 MLOAD DUP1 SWAP2 SUB SWAP1 REVERT JUMPDEST PUSH1 0x2 PUSH1 0x1 DUP2 SWAP1 SSTORE POP JUMP JUMPDEST PUSH0 PUSH1 0x4 PUSH0 SWAP1 SLOAD SWAP1 PUSH2 0x100 EXP SWAP1 DIV PUSH20 0xFFFFFFFFFFFFFFFFFFFFFFFFFFFFFFFFFFFFFFFF AND PUSH20 0xFFFFFFFFFFFFFFFFFFFFFFFFFFFFFFFFFFFFFFFF AND PUSH4 0xD1A0CC5C DUP4 PUSH1 0x20 ADD MLOAD DUP5 PUSH0 ADD MLOAD DUP6 PUSH1 0x40 ADD MLOAD PUSH1 0x40 MLOAD DUP5 PUSH4 0xFFFFFFFF AND PUSH1 0xE0 SHL DUP2 MSTORE PUSH1 0x4 ADD PUSH2 0x4C2A SWAP4 SWAP3 SWAP2 SWAP1 PUSH2 0x7CC4 JUMP JUMPDEST PUSH1 0x20 PUSH1 0x40 MLOAD DUP1 DUP4 SUB DUP2 PUSH0 DUP8 GAS CALL ISZERO DUP1 ISZERO PUSH2 0x4C46 JUMPI RETURNDATASIZE PUSH0 PUSH0 RETURNDATACOPY RETURNDATASIZE PUSH0 REVERT JUMPDEST POP POP POP POP PUSH1 0x40 MLOAD RETURNDATASIZE PUSH1 0x1F NOT PUSH1 0x1F DUP3 ADD AND DUP3 ADD DUP1 PUSH1 0x40 MSTORE POP DUP2 ADD SWAP1 PUSH2 0x4C6A SWAP2 SWAP1 PUSH2 0x6DE0 JUMP JUMPDEST SWAP1 POP SWAP2 SWAP1 POP JUMP JUMPDEST PUSH1 0x60 PUSH0 PUSH2 0x4C80 DUP4 PUSH0 ADD MLOAD PUSH2 0x555C JUMP JUMPDEST PUSH2 0x4C8D DUP5 PUSH1 0x40 ADD MLOAD PUSH2 0x585A JUMP JUMPDEST PUSH2 0x4C9A DUP6 PUSH1 0x20 ADD MLOAD PUSH2 0x555C JUMP JUMPDEST PUSH2 0x4CA7 DUP7 PUSH1 0x60 ADD MLOAD PUSH2 0x585A JUMP JUMPDEST PUSH1 0x40 MLOAD PUSH1 0x20 ADD PUSH2 0x4CBA SWAP5 SWAP4 SWAP3 SWAP2 SWAP1 PUSH2 0x7EC3 JUMP JUMPDEST PUSH1 0x40 MLOAD PUSH1 0x20 DUP2 DUP4 SUB SUB DUP2 MSTORE SWAP1 PUSH1 0x40 MSTORE SWAP1 POP PUSH0 DUP2 PUSH1 0x40 MLOAD PUSH1 0x20 ADD PUSH2 0x4CDD SWAP2 SWAP1 PUSH2 0x7F2C JUMP JUMPDEST PUSH1 0x40 MLOAD PUSH1 0x20 DUP2 DUP4 SUB SUB DUP2 MSTORE SWAP1 PUSH1 0x40 MSTORE DUP1 MLOAD SWAP1 PUSH1 0x20 ADD KECCAK256 SWAP1 POP PUSH0 PUSH2 0x4CFF DUP3 PUSH2 0x59B3 JUMP JUMPDEST SWAP1 POP DUP5 PUSH0 ADD MLOAD PUSH20 0xFFFFFFFFFFFFFFFFFFFFFFFFFFFFFFFFFFFFFFFF AND PUSH32 0x59180834F899F4489FF46F8A483A5E8910BE42B5AB7E4EA95619FC2546851AAD PUSH1 0x6 DUP1 SLOAD SWAP1 POP DUP4 PUSH1 0x40 MLOAD PUSH2 0x4D51 SWAP3 SWAP2 SWAP1 PUSH2 0x7F42 JUMP JUMPDEST PUSH1 0x40 MLOAD DUP1 SWAP2 SUB SWAP1 LOG2 DUP1 SWAP4 POP POP POP POP SWAP2 SWAP1 POP JUMP JUMPDEST PUSH1 0x5 PUSH0 SWAP1 SLOAD SWAP1 PUSH2 0x100 EXP SWAP1 DIV PUSH20 0xFFFFFFFFFFFFFFFFFFFFFFFFFFFFFFFFFFFFFFFF AND PUSH20 0xFFFFFFFFFFFFFFFFFFFFFFFFFFFFFFFFFFFFFFFF AND PUSH4 0x44C83B97 DUP3 PUSH0 ADD MLOAD DUP4 PUSH1 0x20 ADD MLOAD DUP5 PUSH1 0x40 ADD MLOAD DUP6 PUSH1 0x80 ADD MLOAD DUP7 PUSH1 0xA0 ADD MLOAD DUP8 PUSH1 0x60 ADD MLOAD PUSH1 0x40 MLOAD PUSH1 0x20 ADD PUSH2 0x4DD2 SWAP6 SWAP5 SWAP4 SWAP3 SWAP2 SWAP1 PUSH2 0x7F70 JUMP JUMPDEST PUSH1 0x40 MLOAD PUSH1 0x20 DUP2 DUP4 SUB SUB DUP2 MSTORE SWAP1 PUSH1 0x40 MSTORE PUSH1 0x40 MLOAD DUP4 PUSH4 0xFFFFFFFF AND PUSH1 0xE0 SHL DUP2 MSTORE PUSH1 0x4 ADD PUSH2 0x4DFE SWAP3 SWAP2 SWAP1 PUSH2 0x800B JUMP JUMPDEST PUSH0 PUSH1 0x40 MLOAD DUP1 DUP4 SUB DUP2 PUSH0 DUP8 DUP1 EXTCODESIZE ISZERO DUP1 ISZERO PUSH2 0x4E15 JUMPI PUSH0 PUSH0 REVERT JUMPDEST POP GAS CALL ISZERO DUP1 ISZERO PUSH2 0x4E27 JUMPI RETURNDATASIZE PUSH0 PUSH0 RETURNDATACOPY RETURNDATASIZE PUSH0 REVERT JUMPDEST POP POP POP POP POP JUMP JUMPDEST PUSH1 0x1 DUP1 DUP2 SWAP1 SSTORE POP JUMP JUMPDEST PUSH0 CALLER SWAP1 POP SWAP1 JUMP JUMPDEST PUSH0 PUSH2 0x4E49 DUP4 DUP4 PUSH2 0x38D2 JUMP JUMPDEST ISZERO PUSH2 0x4F1D JUMPI PUSH0 PUSH0 PUSH0 DUP6 DUP2 MSTORE PUSH1 0x20 ADD SWAP1 DUP2 MSTORE PUSH1 0x20 ADD PUSH0 KECCAK256 PUSH0 ADD PUSH0 DUP5 PUSH20 0xFFFFFFFFFFFFFFFFFFFFFFFFFFFFFFFFFFFFFFFF AND PUSH20 0xFFFFFFFFFFFFFFFFFFFFFFFFFFFFFFFFFFFFFFFF AND DUP2 MSTORE PUSH1 0x20 ADD SWAP1 DUP2 MSTORE PUSH1 0x20 ADD PUSH0 KECCAK256 PUSH0 PUSH2 0x100 EXP DUP2 SLOAD DUP2 PUSH1 0xFF MUL NOT AND SWAP1 DUP4 ISZERO ISZERO MUL OR SWAP1 SSTORE POP PUSH2 0x4EBA PUSH2 0x4E37 JUMP JUMPDEST PUSH20 0xFFFFFFFFFFFFFFFFFFFFFFFFFFFFFFFFFFFFFFFF AND DUP3 PUSH20 0xFFFFFFFFFFFFFFFFFFFFFFFFFFFFFFFFFFFFFFFF AND DUP5 PUSH32 0xF6391F5C32D9C69D2A47EA670B442974B53935D1EDC7FD64EB21E047A839171B PUSH1 0x40 MLOAD PUSH1 0x40 MLOAD DUP1 SWAP2 SUB SWAP1 LOG4 PUSH1 0x1 SWAP1 POP PUSH2 0x4F21 JUMP JUMPDEST PUSH0 SWAP1 POP JUMPDEST SWAP3 SWAP2 POP POP JUMP JUMPDEST PUSH0 PUSH0 GAS SWAP1 POP PUSH0 PUSH1 0x40 MLOAD DUP1 PUSH2 0x140 ADD PUSH1 0x40 MSTORE DUP1 DUP9 PUSH20 0xFFFFFFFFFFFFFFFFFFFFFFFFFFFFFFFFFFFFFFFF AND DUP2 MSTORE PUSH1 0x20 ADD DUP8 PUSH20 0xFFFFFFFFFFFFFFFFFFFFFFFFFFFFFFFFFFFFFFFF AND DUP2 MSTORE PUSH1 0x20 ADD DUP7 DUP2 MSTORE PUSH1 0x20 ADD TIMESTAMP DUP2 MSTORE PUSH1 0x20 ADD DUP6 PUSH1 0x3 DUP2 GT ISZERO PUSH2 0x4F90 JUMPI PUSH2 0x4F8F PUSH2 0x5F29 JUMP JUMPDEST JUMPDEST DUP2 MSTORE PUSH1 0x20 ADD PUSH0 PUSH1 0x3 DUP2 GT ISZERO PUSH2 0x4FA8 JUMPI PUSH2 0x4FA7 PUSH2 0x5F29 JUMP JUMPDEST JUMPDEST DUP2 MSTORE PUSH1 0x20 ADD PUSH1 0x40 MLOAD DUP1 PUSH1 0x20 ADD PUSH1 0x40 MSTORE DUP1 PUSH0 DUP2 MSTORE POP DUP2 MSTORE PUSH1 0x20 ADD PUSH0 DUP2 MSTORE PUSH1 0x20 ADD PUSH0 DUP2 MSTORE PUSH1 0x20 ADD PUSH1 0x40 MLOAD DUP1 PUSH1 0x20 ADD PUSH1 0x40 MSTORE DUP1 PUSH0 DUP2 MSTORE POP DUP2 MSTORE POP SWAP1 POP PUSH2 0x4FEA DUP2 PUSH2 0x4BC0 JUMP JUMPDEST SWAP3 POP GAS DUP3 PUSH2 0x4FF8 SWAP2 SWAP1 PUSH2 0x70D5 JUMP JUMPDEST DUP2 PUSH1 0xE0 ADD DUP2 DUP2 MSTORE POP POP DUP3 PUSH2 0x500D JUMPI PUSH1 0x2 PUSH2 0x5010 JUMP JUMPDEST PUSH1 0x1 JUMPDEST DUP2 PUSH1 0xA0 ADD SWAP1 PUSH1 0x3 DUP2 GT ISZERO PUSH2 0x5027 JUMPI PUSH2 0x5026 PUSH2 0x5F29 JUMP JUMPDEST JUMPDEST SWAP1 DUP2 PUSH1 0x3 DUP2 GT ISZERO PUSH2 0x503B JUMPI PUSH2 0x503A PUSH2 0x5F29 JUMP JUMPDEST JUMPDEST DUP2 MSTORE POP POP DUP3 ISZERO PUSH2 0x50E4 JUMPI PUSH1 0x3 PUSH0 SWAP1 SLOAD SWAP1 PUSH2 0x100 EXP SWAP1 DIV PUSH20 0xFFFFFFFFFFFFFFFFFFFFFFFFFFFFFFFFFFFFFFFF AND PUSH20 0xFFFFFFFFFFFFFFFFFFFFFFFFFFFFFFFFFFFFFFFF AND PUSH4 0xC11D2D18 DUP9 DUP8 PUSH1 0x40 MLOAD DUP4 PUSH4 0xFFFFFFFF AND PUSH1 0xE0 SHL DUP2 MSTORE PUSH1 0x4 ADD PUSH2 0x50A1 SWAP3 SWAP2 SWAP1 PUSH2 0x7108 JUMP JUMPDEST PUSH0 PUSH1 0x40 MLOAD DUP1 DUP4 SUB DUP2 PUSH0 DUP8 DUP1 EXTCODESIZE ISZERO DUP1 ISZERO PUSH2 0x50B8 JUMPI PUSH0 PUSH0 REVERT JUMPDEST POP GAS CALL ISZERO DUP1 ISZERO PUSH2 0x50CA JUMPI RETURNDATASIZE PUSH0 PUSH0 RETURNDATACOPY RETURNDATASIZE PUSH0 REVERT JUMPDEST POP POP POP POP PUSH2 0x50D7 DUP2 PUSH2 0x4C71 JUMP JUMPDEST DUP2 PUSH1 0xC0 ADD DUP2 SWAP1 MSTORE POP PUSH2 0x5176 JUMP JUMPDEST PUSH1 0x40 MLOAD DUP1 PUSH1 0x40 ADD PUSH1 0x40 MSTORE DUP1 PUSH1 0x18 DUP2 MSTORE PUSH1 0x20 ADD PUSH32 0x5061796D656E7420657865637574696F6E206661696C65640000000000000000 DUP2 MSTORE POP DUP2 PUSH2 0x120 ADD DUP2 SWAP1 MSTORE POP PUSH1 0x8 PUSH0 DUP9 PUSH20 0xFFFFFFFFFFFFFFFFFFFFFFFFFFFFFFFFFFFFFFFF AND PUSH20 0xFFFFFFFFFFFFFFFFFFFFFFFFFFFFFFFFFFFFFFFF AND DUP2 MSTORE PUSH1 0x20 ADD SWAP1 DUP2 MSTORE PUSH1 0x20 ADD PUSH0 KECCAK256 PUSH0 DUP2 SLOAD DUP1 SWAP3 SWAP2 SWAP1 PUSH2 0x5170 SWAP1 PUSH2 0x712F JUMP JUMPDEST SWAP2 SWAP1 POP SSTORE POP JUMPDEST PUSH1 0x6 DUP2 SWAP1 DUP1 PUSH1 0x1 DUP2 SLOAD ADD DUP1 DUP3 SSTORE DUP1 SWAP2 POP POP PUSH1 0x1 SWAP1 SUB SWAP1 PUSH0 MSTORE PUSH1 0x20 PUSH0 KECCAK256 SWAP1 PUSH1 0x9 MUL ADD PUSH0 SWAP1 SWAP2 SWAP1 SWAP2 SWAP1 SWAP2 POP PUSH0 DUP3 ADD MLOAD DUP2 PUSH0 ADD PUSH0 PUSH2 0x100 EXP DUP2 SLOAD DUP2 PUSH20 0xFFFFFFFFFFFFFFFFFFFFFFFFFFFFFFFFFFFFFFFF MUL NOT AND SWAP1 DUP4 PUSH20 0xFFFFFFFFFFFFFFFFFFFFFFFFFFFFFFFFFFFFFFFF AND MUL OR SWAP1 SSTORE POP PUSH1 0x20 DUP3 ADD MLOAD DUP2 PUSH1 0x1 ADD PUSH0 PUSH2 0x100 EXP DUP2 SLOAD DUP2 PUSH20 0xFFFFFFFFFFFFFFFFFFFFFFFFFFFFFFFFFFFFFFFF MUL NOT AND SWAP1 DUP4 PUSH20 0xFFFFFFFFFFFFFFFFFFFFFFFFFFFFFFFFFFFFFFFF AND MUL OR SWAP1 SSTORE POP PUSH1 0x40 DUP3 ADD MLOAD DUP2 PUSH1 0x2 ADD SSTORE PUSH1 0x60 DUP3 ADD MLOAD DUP2 PUSH1 0x3 ADD SSTORE PUSH1 0x80 DUP3 ADD MLOAD DUP2 PUSH1 0x4 ADD PUSH0 PUSH2 0x100 EXP DUP2 SLOAD DUP2 PUSH1 0xFF MUL NOT AND SWAP1 DUP4 PUSH1 0x3 DUP2 GT ISZERO PUSH2 0x5267 JUMPI PUSH2 0x5266 PUSH2 0x5F29 JUMP JUMPDEST JUMPDEST MUL OR SWAP1 SSTORE POP PUSH1 0xA0 DUP3 ADD MLOAD DUP2 PUSH1 0x4 ADD PUSH1 0x1 PUSH2 0x100 EXP DUP2 SLOAD DUP2 PUSH1 0xFF MUL NOT AND SWAP1 DUP4 PUSH1 0x3 DUP2 GT ISZERO PUSH2 0x5297 JUMPI PUSH2 0x5296 PUSH2 0x5F29 JUMP JUMPDEST JUMPDEST MUL OR SWAP1 SSTORE POP PUSH1 0xC0 DUP3 ADD MLOAD DUP2 PUSH1 0x5 ADD SWAP1 DUP2 PUSH2 0x52B1 SWAP2 SWAP1 PUSH2 0x736A JUMP JUMPDEST POP PUSH1 0xE0 DUP3 ADD MLOAD DUP2 PUSH1 0x6 ADD SSTORE PUSH2 0x100 DUP3 ADD MLOAD DUP2 PUSH1 0x7 ADD SSTORE PUSH2 0x120 DUP3 ADD MLOAD DUP2 PUSH1 0x8 ADD SWAP1 DUP2 PUSH2 0x52DD SWAP2 SWAP1 PUSH2 0x736A JUMP JUMPDEST POP POP POP PUSH1 0x7 PUSH0 DUP9 PUSH20 0xFFFFFFFFFFFFFFFFFFFFFFFFFFFFFFFFFFFFFFFF AND PUSH20 0xFFFFFFFFFFFFFFFFFFFFFFFFFFFFFFFFFFFFFFFF AND DUP2 MSTORE PUSH1 0x20 ADD SWAP1 DUP2 MSTORE PUSH1 0x20 ADD PUSH0 KECCAK256 DUP2 SWAP1 DUP1 PUSH1 0x1 DUP2 SLOAD ADD DUP1 DUP3 SSTORE DUP1 SWAP2 POP POP PUSH1 0x1 SWAP1 SUB SWAP1 PUSH0 MSTORE PUSH1 0x20 PUSH0 KECCAK256 SWAP1 PUSH1 0x9 MUL ADD PUSH0 SWAP1 SWAP2 SWAP1 SWAP2 SWAP1 SWAP2 POP PUSH0 DUP3 ADD MLOAD DUP2 PUSH0 ADD PUSH0 PUSH2 0x100 EXP DUP2 SLOAD DUP2 PUSH20 0xFFFFFFFFFFFFFFFFFFFFFFFFFFFFFFFFFFFFFFFF MUL NOT AND SWAP1 DUP4 PUSH20 0xFFFFFFFFFFFFFFFFFFFFFFFFFFFFFFFFFFFFFFFF AND MUL OR SWAP1 SSTORE POP PUSH1 0x20 DUP3 ADD MLOAD DUP2 PUSH1 0x1 ADD PUSH0 PUSH2 0x100 EXP DUP2 SLOAD DUP2 PUSH20 0xFFFFFFFFFFFFFFFFFFFFFFFFFFFFFFFFFFFFFFFF MUL NOT AND SWAP1 DUP4 PUSH20 0xFFFFFFFFFFFFFFFFFFFFFFFFFFFFFFFFFFFFFFFF AND MUL OR SWAP1 SSTORE POP PUSH1 0x40 DUP3 ADD MLOAD DUP2 PUSH1 0x2 ADD SSTORE PUSH1 0x60 DUP3 ADD MLOAD DUP2 PUSH1 0x3 ADD SSTORE PUSH1 0x80 DUP3 ADD MLOAD DUP2 PUSH1 0x4 ADD PUSH0 PUSH2 0x100 EXP DUP2 SLOAD DUP2 PUSH1 0xFF MUL NOT AND SWAP1 DUP4 PUSH1 0x3 DUP2 GT ISZERO PUSH2 0x540C JUMPI PUSH2 0x540B PUSH2 0x5F29 JUMP JUMPDEST JUMPDEST MUL OR SWAP1 SSTORE POP PUSH1 0xA0 DUP3 ADD MLOAD DUP2 PUSH1 0x4 ADD PUSH1 0x1 PUSH2 0x100 EXP DUP2 SLOAD DUP2 PUSH1 0xFF MUL NOT AND SWAP1 DUP4 PUSH1 0x3 DUP2 GT ISZERO PUSH2 0x543C JUMPI PUSH2 0x543B PUSH2 0x5F29 JUMP JUMPDEST JUMPDEST MUL OR SWAP1 SSTORE POP PUSH1 0xC0 DUP3 ADD MLOAD DUP2 PUSH1 0x5 ADD SWAP1 DUP2 PUSH2 0x5456 SWAP2 SWAP1 PUSH2 0x736A JUMP JUMPDEST POP PUSH1 0xE0 DUP3 ADD MLOAD DUP2 PUSH1 0x6 ADD SSTORE PUSH2 0x100 DUP3 ADD MLOAD DUP2 PUSH1 0x7 ADD SSTORE PUSH2 0x120 DUP3 ADD MLOAD DUP2 PUSH1 0x8 ADD SWAP1 DUP2 PUSH2 0x5482 SWAP2 SWAP1 PUSH2 0x736A JUMP JUMPDEST POP POP POP PUSH2 0x548E DUP2 PUSH2 0x4D64 JUMP JUMPDEST DUP6 PUSH20 0xFFFFFFFFFFFFFFFFFFFFFFFFFFFFFFFFFFFFFFFF AND DUP8 PUSH20 0xFFFFFFFFFFFFFFFFFFFFFFFFFFFFFFFFFFFFFFFF AND PUSH32 0x5392E49AE81F9D730FAB8B9D95085C57CED2C8F481CA60E3D4DD2E7D626EBB5 DUP8 DUP8 DUP6 PUSH1 0xA0 ADD MLOAD DUP7 PUSH1 0xE0 ADD MLOAD PUSH1 0x40 MLOAD PUSH2 0x54F9 SWAP5 SWAP4 SWAP3 SWAP2 SWAP1 PUSH2 0x7439 JUMP JUMPDEST PUSH1 0x40 MLOAD DUP1 SWAP2 SUB SWAP1 LOG3 POP POP SWAP5 SWAP4 POP POP POP POP JUMP JUMPDEST PUSH2 0x5515 DUP3 DUP3 PUSH2 0x38D2 JUMP JUMPDEST PUSH2 0x5558 JUMPI DUP1 DUP3 PUSH1 0x40 MLOAD PUSH32 0xE2517D3F00000000000000000000000000000000000000000000000000000000 DUP2 MSTORE PUSH1 0x4 ADD PUSH2 0x554F SWAP3 SWAP2 SWAP1 PUSH2 0x804C JUMP JUMPDEST PUSH1 0x40 MLOAD DUP1 SWAP2 SUB SWAP1 REVERT JUMPDEST POP POP JUMP JUMPDEST PUSH1 0x60 PUSH0 DUP3 PUSH20 0xFFFFFFFFFFFFFFFFFFFFFFFFFFFFFFFFFFFFFFFF AND PUSH0 SHL SWAP1 POP PUSH0 PUSH1 0x40 MLOAD DUP1 PUSH1 0x40 ADD PUSH1 0x40 MSTORE DUP1 PUSH1 0x10 DUP2 MSTORE PUSH1 0x20 ADD PUSH32 0x3031323334353637383961626364656600000000000000000000000000000000 DUP2 MSTORE POP SWAP1 POP PUSH0 PUSH1 0x2A PUSH8 0xFFFFFFFFFFFFFFFF DUP2 GT ISZERO PUSH2 0x55CF JUMPI PUSH2 0x55CE PUSH2 0x6481 JUMP JUMPDEST JUMPDEST PUSH1 0x40 MLOAD SWAP1 DUP1 DUP3 MSTORE DUP1 PUSH1 0x1F ADD PUSH1 0x1F NOT AND PUSH1 0x20 ADD DUP3 ADD PUSH1 0x40 MSTORE DUP1 ISZERO PUSH2 0x5601 JUMPI DUP2 PUSH1 0x20 ADD PUSH1 0x1 DUP3 MUL DUP1 CALLDATASIZE DUP4 CALLDATACOPY DUP1 DUP3 ADD SWAP2 POP POP SWAP1 POP JUMPDEST POP SWAP1 POP PUSH32 0x3000000000000000000000000000000000000000000000000000000000000000 DUP2 PUSH0 DUP2 MLOAD DUP2 LT PUSH2 0x5638 JUMPI PUSH2 0x5637 PUSH2 0x6D78 JUMP JUMPDEST JUMPDEST PUSH1 0x20 ADD ADD SWAP1 PUSH31 0xFFFFFFFFFFFFFFFFFFFFFFFFFFFFFFFFFFFFFFFFFFFFFFFFFFFFFFFFFFFFFF NOT AND SWAP1 DUP2 PUSH0 BYTE SWAP1 MSTORE8 POP PUSH32 0x7800000000000000000000000000000000000000000000000000000000000000 DUP2 PUSH1 0x1 DUP2 MLOAD DUP2 LT PUSH2 0x569B JUMPI PUSH2 0x569A PUSH2 0x6D78 JUMP JUMPDEST JUMPDEST PUSH1 0x20 ADD ADD SWAP1 PUSH31 0xFFFFFFFFFFFFFFFFFFFFFFFFFFFFFFFFFFFFFFFFFFFFFFFFFFFFFFFFFFFFFF NOT AND SWAP1 DUP2 PUSH0 BYTE SWAP1 MSTORE8 POP PUSH0 PUSH0 SWAP1 POP JUMPDEST PUSH1 0x14 DUP2 LT ISZERO PUSH2 0x584E JUMPI DUP3 PUSH1 0x4 DUP6 PUSH1 0xC DUP5 PUSH2 0x56E8 SWAP2 SWAP1 PUSH2 0x761C JUMP JUMPDEST PUSH1 0x20 DUP2 LT PUSH2 0x56F9 JUMPI PUSH2 0x56F8 PUSH2 0x6D78 JUMP JUMPDEST JUMPDEST BYTE PUSH1 0xF8 SHL PUSH31 0xFFFFFFFFFFFFFFFFFFFFFFFFFFFFFFFFFFFFFFFFFFFFFFFFFFFFFFFFFFFFFF NOT AND SWAP1 SHR PUSH1 0xF8 SHR PUSH1 0xFF AND DUP2 MLOAD DUP2 LT PUSH2 0x5738 JUMPI PUSH2 0x5737 PUSH2 0x6D78 JUMP JUMPDEST JUMPDEST PUSH1 0x20 ADD ADD MLOAD PUSH1 0xF8 SHR PUSH1 0xF8 SHL DUP3 PUSH1 0x2 DUP4 PUSH2 0x5751 SWAP2 SWAP1 PUSH2 0x764F JUMP JUMPDEST PUSH1 0x2 PUSH2 0x575D SWAP2 SWAP1 PUSH2 0x761C JUMP JUMPDEST DUP2 MLOAD DUP2 LT PUSH2 0x576E JUMPI PUSH2 0x576D PUSH2 0x6D78 JUMP JUMPDEST JUMPDEST PUSH1 0x20 ADD ADD SWAP1 PUSH31 0xFFFFFFFFFFFFFFFFFFFFFFFFFFFFFFFFFFFFFFFFFFFFFFFFFFFFFFFFFFFFFF NOT AND SWAP1 DUP2 PUSH0 BYTE SWAP1 MSTORE8 POP DUP3 PUSH1 0xF PUSH1 0xF8 SHL DUP6 PUSH1 0xC DUP5 PUSH2 0x57B0 SWAP2 SWAP1 PUSH2 0x761C JUMP JUMPDEST PUSH1 0x20 DUP2 LT PUSH2 0x57C1 JUMPI PUSH2 0x57C0 PUSH2 0x6D78 JUMP JUMPDEST JUMPDEST BYTE PUSH1 0xF8 SHL AND PUSH1 0xF8 SHR PUSH1 0xFF AND DUP2 MLOAD DUP2 LT PUSH2 0x57DD JUMPI PUSH2 0x57DC PUSH2 0x6D78 JUMP JUMPDEST JUMPDEST PUSH1 0x20 ADD ADD MLOAD PUSH1 0xF8 SHR PUSH1 0xF8 SHL DUP3 PUSH1 0x2 DUP4 PUSH2 0x57F6 SWAP2 SWAP1 PUSH2 0x764F JUMP JUMPDEST PUSH1 0x3 PUSH2 0x5802 SWAP2 SWAP1 PUSH2 0x761C JUMP JUMPDEST DUP2 MLOAD DUP2 LT PUSH2 0x5813 JUMPI PUSH2 0x5812 PUSH2 0x6D78 JUMP JUMPDEST JUMPDEST PUSH1 0x20 ADD ADD SWAP1 PUSH31 0xFFFFFFFFFFFFFFFFFFFFFFFFFFFFFFFFFFFFFFFFFFFFFFFFFFFFFFFFFFFFFF NOT AND SWAP1 DUP2 PUSH0 BYTE SWAP1 MSTORE8 POP DUP1 DUP1 PUSH1 0x1 ADD SWAP2 POP POP PUSH2 0x56CE JUMP JUMPDEST POP DUP1 SWAP4 POP POP POP POP SWAP2 SWAP1 POP JUMP JUMPDEST PUSH1 0x60 PUSH0 DUP3 SUB PUSH2 0x58A0 JUMPI PUSH1 0x40 MLOAD DUP1 PUSH1 0x40 ADD PUSH1 0x40 MSTORE DUP1 PUSH1 0x1 DUP2 MSTORE PUSH1 0x20 ADD PUSH32 0x3000000000000000000000000000000000000000000000000000000000000000 DUP2 MSTORE POP SWAP1 POP PUSH2 0x59AE JUMP JUMPDEST PUSH0 DUP3 SWAP1 POP PUSH0 JUMPDEST PUSH0 DUP3 EQ PUSH2 0x58CF JUMPI DUP1 DUP1 PUSH2 0x58B8 SWAP1 PUSH2 0x712F JUMP JUMPDEST SWAP2 POP POP PUSH1 0xA DUP3 PUSH2 0x58C8 SWAP2 SWAP1 PUSH2 0x80A0 JUMP JUMPDEST SWAP2 POP PUSH2 0x58A6 JUMP JUMPDEST PUSH0 DUP2 PUSH8 0xFFFFFFFFFFFFFFFF DUP2 GT ISZERO PUSH2 0x58EA JUMPI PUSH2 0x58E9 PUSH2 0x6481 JUMP JUMPDEST JUMPDEST PUSH1 0x40 MLOAD SWAP1 DUP1 DUP3 MSTORE DUP1 PUSH1 0x1F ADD PUSH1 0x1F NOT AND PUSH1 0x20 ADD DUP3 ADD PUSH1 0x40 MSTORE DUP1 ISZERO PUSH2 0x591C JUMPI DUP2 PUSH1 0x20 ADD PUSH1 0x1 DUP3 MUL DUP1 CALLDATASIZE DUP4 CALLDATACOPY DUP1 DUP3 ADD SWAP2 POP POP SWAP1 POP JUMPDEST POP SWAP1 POP JUMPDEST PUSH0 DUP6 EQ PUSH2 0x59A7 JUMPI PUSH1 0x1 DUP3 PUSH2 0x5934 SWAP2 SWAP1 PUSH2 0x70D5 JUMP JUMPDEST SWAP2 POP PUSH1 0xA DUP6 PUSH2 0x5943 SWAP2 SWAP1 PUSH2 0x80D0 JUMP JUMPDEST PUSH1 0x30 PUSH2 0x594F SWAP2 SWAP1 PUSH2 0x761C JUMP JUMPDEST PUSH1 0xF8 SHL DUP2 DUP4 DUP2 MLOAD DUP2 LT PUSH2 0x5965 JUMPI PUSH2 0x5964 PUSH2 0x6D78 JUMP JUMPDEST JUMPDEST PUSH1 0x20 ADD ADD SWAP1 PUSH31 0xFFFFFFFFFFFFFFFFFFFFFFFFFFFFFFFFFFFFFFFFFFFFFFFFFFFFFFFFFFFFFF NOT AND SWAP1 DUP2 PUSH0 BYTE SWAP1 MSTORE8 POP PUSH1 0xA DUP6 PUSH2 0x59A0 SWAP2 SWAP1 PUSH2 0x80A0 JUMP JUMPDEST SWAP5 POP PUSH2 0x5920 JUMP JUMPDEST DUP1 SWAP4 POP POP POP POP JUMPDEST SWAP2 SWAP1 POP JUMP JUMPDEST PUSH1 0x60 PUSH0 PUSH0 SWAP1 POP JUMPDEST PUSH1 0x20 DUP2 PUSH1 0xFF AND LT DUP1 ISZERO PUSH2 0x5A0B JUMPI POP PUSH0 PUSH1 0xF8 SHL DUP4 DUP3 PUSH1 0xFF AND PUSH1 0x20 DUP2 LT PUSH2 0x59E2 JUMPI PUSH2 0x59E1 PUSH2 0x6D78 JUMP JUMPDEST JUMPDEST BYTE PUSH1 0xF8 SHL PUSH31 0xFFFFFFFFFFFFFFFFFFFFFFFFFFFFFFFFFFFFFFFFFFFFFFFFFFFFFFFFFFFFFF NOT AND EQ ISZERO JUMPDEST ISZERO PUSH2 0x5A23 JUMPI DUP1 DUP1 PUSH2 0x5A1B SWAP1 PUSH2 0x810C JUMP JUMPDEST SWAP2 POP POP PUSH2 0x59BA JUMP JUMPDEST PUSH0 DUP2 PUSH1 0xFF AND PUSH8 0xFFFFFFFFFFFFFFFF DUP2 GT ISZERO PUSH2 0x5A41 JUMPI PUSH2 0x5A40 PUSH2 0x6481 JUMP JUMPDEST JUMPDEST PUSH1 0x40 MLOAD SWAP1 DUP1 DUP3 MSTORE DUP1 PUSH1 0x1F ADD PUSH1 0x1F NOT AND PUSH1 0x20 ADD DUP3 ADD PUSH1 0x40 MSTORE DUP1 ISZERO PUSH2 0x5A73 JUMPI DUP2 PUSH1 0x20 ADD PUSH1 0x1 DUP3 MUL DUP1 CALLDATASIZE DUP4 CALLDATACOPY DUP1 DUP3 ADD SWAP2 POP POP SWAP1 POP JUMPDEST POP SWAP1 POP PUSH0 SWAP2 POP JUMPDEST PUSH1 0x20 DUP3 PUSH1 0xFF AND LT DUP1 ISZERO PUSH2 0x5ACB JUMPI POP PUSH0 PUSH1 0xF8 SHL DUP5 DUP4 PUSH1 0xFF AND PUSH1 0x20 DUP2 LT PUSH2 0x5AA2 JUMPI PUSH2 0x5AA1 PUSH2 0x6D78 JUMP JUMPDEST JUMPDEST BYTE PUSH1 0xF8 SHL PUSH31 0xFFFFFFFFFFFFFFFFFFFFFFFFFFFFFFFFFFFFFFFFFFFFFFFFFFFFFFFFFFFFFF NOT AND EQ ISZERO JUMPDEST ISZERO PUSH2 0x5B41 JUMPI DUP4 DUP3 PUSH1 0xFF AND PUSH1 0x20 DUP2 LT PUSH2 0x5AE6 JUMPI PUSH2 0x5AE5 PUSH2 0x6D78 JUMP JUMPDEST JUMPDEST BYTE PUSH1 0xF8 SHL DUP2 DUP4 PUSH1 0xFF AND DUP2 MLOAD DUP2 LT PUSH2 0x5B00 JUMPI PUSH2 0x5AFF PUSH2 0x6D78 JUMP JUMPDEST JUMPDEST PUSH1 0x20 ADD ADD SWAP1 PUSH31 0xFFFFFFFFFFFFFFFFFFFFFFFFFFFFFFFFFFFFFFFFFFFFFFFFFFFFFFFFFFFFFF NOT AND SWAP1 DUP2 PUSH0 BYTE SWAP1 MSTORE8 POP DUP2 DUP1 PUSH2 0x5B39 SWAP1 PUSH2 0x810C JUMP JUMPDEST SWAP3 POP POP PUSH2 0x5A7A JUMP JUMPDEST DUP1 SWAP3 POP POP POP SWAP2 SWAP1 POP JUMP JUMPDEST PUSH1 0x40 MLOAD DUP1 PUSH2 0x100 ADD PUSH1 0x40 MSTORE DUP1 PUSH1 0x60 DUP2 MSTORE PUSH1 0x20 ADD PUSH0 PUSH20 0xFFFFFFFFFFFFFFFFFFFFFFFFFFFFFFFFFFFFFFFF AND DUP2 MSTORE PUSH1 0x20 ADD PUSH1 0x60 DUP2 MSTORE PUSH1 0x20 ADD PUSH0 PUSH1 0x3 DUP2 GT ISZERO PUSH2 0x5B94 JUMPI PUSH2 0x5B93 PUSH2 0x5F29 JUMP JUMPDEST JUMPDEST DUP2 MSTORE PUSH1 0x20 ADD PUSH0 ISZERO ISZERO DUP2 MSTORE PUSH1 0x20 ADD PUSH0 ISZERO ISZERO DUP2 MSTORE PUSH1 0x20 ADD PUSH0 PUSH20 0xFFFFFFFFFFFFFFFFFFFFFFFFFFFFFFFFFFFFFFFF AND DUP2 MSTORE PUSH1 0x20 ADD PUSH0 DUP2 MSTORE POP SWAP1 JUMP JUMPDEST DUP3 DUP1 SLOAD DUP3 DUP3 SSTORE SWAP1 PUSH0 MSTORE PUSH1 0x20 PUSH0 KECCAK256 SWAP1 DUP2 ADD SWAP3 DUP3 ISZERO PUSH2 0x5C42 JUMPI SWAP2 PUSH1 0x20 MUL DUP3 ADD JUMPDEST DUP3 DUP2 GT ISZERO PUSH2 0x5C41 JUMPI DUP3 MLOAD DUP3 PUSH0 PUSH2 0x100 EXP DUP2 SLOAD DUP2 PUSH20 0xFFFFFFFFFFFFFFFFFFFFFFFFFFFFFFFFFFFFFFFF MUL NOT AND SWAP1 DUP4 PUSH20 0xFFFFFFFFFFFFFFFFFFFFFFFFFFFFFFFFFFFFFFFF AND MUL OR SWAP1 SSTORE POP SWAP2 PUSH1 0x20 ADD SWAP2 SWAP1 PUSH1 0x1 ADD SWAP1 PUSH2 0x5BEA JUMP JUMPDEST JUMPDEST POP SWAP1 POP PUSH2 0x5C4F SWAP2 SWAP1 PUSH2 0x5D39 JUMP JUMPDEST POP SWAP1 JUMP JUMPDEST DUP3 DUP1 SLOAD DUP3 DUP3 SSTORE SWAP1 PUSH0 MSTORE PUSH1 0x20 PUSH0 KECCAK256 SWAP1 DUP2 ADD SWAP3 DUP3 ISZERO PUSH2 0x5C8D JUMPI SWAP2 PUSH1 0x20 MUL DUP3 ADD JUMPDEST DUP3 DUP2 GT ISZERO PUSH2 0x5C8C JUMPI DUP3 MLOAD DUP3 SSTORE SWAP2 PUSH1 0x20 ADD SWAP2 SWAP1 PUSH1 0x1 ADD SWAP1 PUSH2 0x5C71 JUMP JUMPDEST JUMPDEST POP SWAP1 POP PUSH2 0x5C9A SWAP2 SWAP1 PUSH2 0x5D39 JUMP JUMPDEST POP SWAP1 JUMP JUMPDEST PUSH1 0x40 MLOAD DUP1 PUSH2 0x140 ADD PUSH1 0x40 MSTORE DUP1 PUSH0 PUSH20 0xFFFFFFFFFFFFFFFFFFFFFFFFFFFFFFFFFFFFFFFF AND DUP2 MSTORE PUSH1 0x20 ADD PUSH0 PUSH20 0xFFFFFFFFFFFFFFFFFFFFFFFFFFFFFFFFFFFFFFFF AND DUP2 MSTORE PUSH1 0x20 ADD PUSH0 DUP2 MSTORE PUSH1 0x20 ADD PUSH0 DUP2 MSTORE PUSH1 0x20 ADD PUSH0 PUSH1 0x3 DUP2 GT ISZERO PUSH2 0x5D01 JUMPI PUSH2 0x5D00 PUSH2 0x5F29 JUMP JUMPDEST JUMPDEST DUP2 MSTORE PUSH1 0x20 ADD PUSH0 PUSH1 0x3 DUP2 GT ISZERO PUSH2 0x5D19 JUMPI PUSH2 0x5D18 PUSH2 0x5F29 JUMP JUMPDEST JUMPDEST DUP2 MSTORE PUSH1 0x20 ADD PUSH1 0x60 DUP2 MSTORE PUSH1 0x20 ADD PUSH0 DUP2 MSTORE PUSH1 0x20 ADD PUSH0 DUP2 MSTORE PUSH1 0x20 ADD PUSH1 0x60 DUP2 MSTORE POP SWAP1 JUMP JUMPDEST JUMPDEST DUP1 DUP3 GT ISZERO PUSH2 0x5D50 JUMPI PUSH0 DUP2 PUSH0 SWAP1 SSTORE POP PUSH1 0x1 ADD PUSH2 0x5D3A JUMP JUMPDEST POP SWAP1 JUMP JUMPDEST PUSH0 PUSH1 0x40 MLOAD SWAP1 POP SWAP1 JUMP JUMPDEST PUSH0 PUSH0 REVERT JUMPDEST PUSH0 PUSH0 REVERT JUMPDEST PUSH0 PUSH32 0xFFFFFFFF00000000000000000000000000000000000000000000000000000000 DUP3 AND SWAP1 POP SWAP2 SWAP1 POP JUMP JUMPDEST PUSH2 0x5D99 DUP2 PUSH2 0x5D65 JUMP JUMPDEST DUP2 EQ PUSH2 0x5DA3 JUMPI PUSH0 PUSH0 REVERT JUMPDEST POP JUMP JUMPDEST PUSH0 DUP2 CALLDATALOAD SWAP1 POP PUSH2 0x5DB4 DUP2 PUSH2 0x5D90 JUMP JUMPDEST SWAP3 SWAP2 POP POP JUMP JUMPDEST PUSH0 PUSH1 0x20 DUP3 DUP5 SUB SLT ISZERO PUSH2 0x5DCF JUMPI PUSH2 0x5DCE PUSH2 0x5D5D JUMP JUMPDEST JUMPDEST PUSH0 PUSH2 0x5DDC DUP5 DUP3 DUP6 ADD PUSH2 0x5DA6 JUMP JUMPDEST SWAP2 POP POP SWAP3 SWAP2 POP POP JUMP JUMPDEST PUSH0 DUP2 ISZERO ISZERO SWAP1 POP SWAP2 SWAP1 POP JUMP JUMPDEST PUSH2 0x5DF9 DUP2 PUSH2 0x5DE5 JUMP JUMPDEST DUP3 MSTORE POP POP JUMP JUMPDEST PUSH0 PUSH1 0x20 DUP3 ADD SWAP1 POP PUSH2 0x5E12 PUSH0 DUP4 ADD DUP5 PUSH2 0x5DF0 JUMP JUMPDEST SWAP3 SWAP2 POP POP JUMP JUMPDEST PUSH0 PUSH20 0xFFFFFFFFFFFFFFFFFFFFFFFFFFFFFFFFFFFFFFFF DUP3 AND SWAP1 POP SWAP2 SWAP1 POP JUMP JUMPDEST PUSH0 DUP2 SWAP1 POP SWAP2 SWAP1 POP JUMP JUMPDEST PUSH0 PUSH2 0x5E5A PUSH2 0x5E55 PUSH2 0x5E50 DUP5 PUSH2 0x5E18 JUMP JUMPDEST PUSH2 0x5E37 JUMP JUMPDEST PUSH2 0x5E18 JUMP JUMPDEST SWAP1 POP SWAP2 SWAP1 POP JUMP JUMPDEST PUSH0 PUSH2 0x5E6B DUP3 PUSH2 0x5E40 JUMP JUMPDEST SWAP1 POP SWAP2 SWAP1 POP JUMP JUMPDEST PUSH0 PUSH2 0x5E7C DUP3 PUSH2 0x5E61 JUMP JUMPDEST SWAP1 POP SWAP2 SWAP1 POP JUMP JUMPDEST PUSH2 0x5E8C DUP2 PUSH2 0x5E72 JUMP JUMPDEST DUP3 MSTORE POP POP JUMP JUMPDEST PUSH0 PUSH1 0x20 DUP3 ADD SWAP1 POP PUSH2 0x5EA5 PUSH0 DUP4 ADD DUP5 PUSH2 0x5E83 JUMP JUMPDEST SWAP3 SWAP2 POP POP JUMP JUMPDEST PUSH0 DUP2 SWAP1 POP SWAP2 SWAP1 POP JUMP JUMPDEST PUSH2 0x5EBD DUP2 PUSH2 0x5EAB JUMP JUMPDEST DUP2 EQ PUSH2 0x5EC7 JUMPI PUSH0 PUSH0 REVERT JUMPDEST POP JUMP JUMPDEST PUSH0 DUP2 CALLDATALOAD SWAP1 POP PUSH2 0x5ED8 DUP2 PUSH2 0x5EB4 JUMP JUMPDEST SWAP3 SWAP2 POP POP JUMP JUMPDEST PUSH0 PUSH1 0x20 DUP3 DUP5 SUB SLT ISZERO PUSH2 0x5EF3 JUMPI PUSH2 0x5EF2 PUSH2 0x5D5D JUMP JUMPDEST JUMPDEST PUSH0 PUSH2 0x5F00 DUP5 DUP3 DUP6 ADD PUSH2 0x5ECA JUMP JUMPDEST SWAP2 POP POP SWAP3 SWAP2 POP POP JUMP JUMPDEST PUSH0 PUSH2 0x5F13 DUP3 PUSH2 0x5E18 JUMP JUMPDEST SWAP1 POP SWAP2 SWAP1 POP JUMP JUMPDEST PUSH2 0x5F23 DUP2 PUSH2 0x5F09 JUMP JUMPDEST DUP3 MSTORE POP POP JUMP JUMPDEST PUSH32 0x4E487B7100000000000000000000000000000000000000000000000000000000 PUSH0 MSTORE PUSH1 0x21 PUSH1 0x4 MSTORE PUSH1 0x24 PUSH0 REVERT JUMPDEST PUSH1 0x4 DUP2 LT PUSH2 0x5F67 JUMPI PUSH2 0x5F66 PUSH2 0x5F29 JUMP JUMPDEST JUMPDEST POP JUMP JUMPDEST PUSH0 DUP2 SWAP1 POP PUSH2 0x5F77 DUP3 PUSH2 0x5F56 JUMP JUMPDEST SWAP2 SWAP1 POP JUMP JUMPDEST PUSH0 PUSH2 0x5F86 DUP3 PUSH2 0x5F6A JUMP JUMPDEST SWAP1 POP SWAP2 SWAP1 POP JUMP JUMPDEST PUSH2 0x5F96 DUP2 PUSH2 0x5F7C JUMP JUMPDEST DUP3 MSTORE POP POP JUMP JUMPDEST PUSH2 0x5FA5 DUP2 PUSH2 0x5EAB JUMP JUMPDEST DUP3 MSTORE POP POP JUMP JUMPDEST PUSH0 PUSH1 0xC0 DUP3 ADD SWAP1 POP PUSH2 0x5FBE PUSH0 DUP4 ADD DUP10 PUSH2 0x5F1A JUMP JUMPDEST PUSH2 0x5FCB PUSH1 0x20 DUP4 ADD DUP9 PUSH2 0x5F8D JUMP JUMPDEST PUSH2 0x5FD8 PUSH1 0x40 DUP4 ADD DUP8 PUSH2 0x5DF0 JUMP JUMPDEST PUSH2 0x5FE5 PUSH1 0x60 DUP4 ADD DUP7 PUSH2 0x5DF0 JUMP JUMPDEST PUSH2 0x5FF2 PUSH1 0x80 DUP4 ADD DUP6 PUSH2 0x5F1A JUMP JUMPDEST PUSH2 0x5FFF PUSH1 0xA0 DUP4 ADD DUP5 PUSH2 0x5F9C JUMP JUMPDEST SWAP8 SWAP7 POP POP POP POP POP POP POP JUMP JUMPDEST PUSH2 0x6013 DUP2 PUSH2 0x5F09 JUMP JUMPDEST DUP2 EQ PUSH2 0x601D JUMPI PUSH0 PUSH0 REVERT JUMPDEST POP JUMP JUMPDEST PUSH0 DUP2 CALLDATALOAD SWAP1 POP PUSH2 0x602E DUP2 PUSH2 0x600A JUMP JUMPDEST SWAP3 SWAP2 POP POP JUMP JUMPDEST PUSH0 PUSH1 0x20 DUP3 DUP5 SUB SLT ISZERO PUSH2 0x6049 JUMPI PUSH2 0x6048 PUSH2 0x5D5D JUMP JUMPDEST JUMPDEST PUSH0 PUSH2 0x6056 DUP5 DUP3 DUP6 ADD PUSH2 0x6020 JUMP JUMPDEST SWAP2 POP POP SWAP3 SWAP2 POP POP JUMP JUMPDEST PUSH0 PUSH1 0x20 DUP3 ADD SWAP1 POP PUSH2 0x6072 PUSH0 DUP4 ADD DUP5 PUSH2 0x5F9C JUMP JUMPDEST SWAP3 SWAP2 POP POP JUMP JUMPDEST PUSH0 DUP2 SWAP1 POP SWAP2 SWAP1 POP JUMP JUMPDEST PUSH2 0x608A DUP2 PUSH2 0x6078 JUMP JUMPDEST DUP2 EQ PUSH2 0x6094 JUMPI PUSH0 PUSH0 REVERT JUMPDEST POP JUMP JUMPDEST PUSH0 DUP2 CALLDATALOAD SWAP1 POP PUSH2 0x60A5 DUP2 PUSH2 0x6081 JUMP JUMPDEST SWAP3 SWAP2 POP POP JUMP JUMPDEST PUSH0 PUSH1 0x20 DUP3 DUP5 SUB SLT ISZERO PUSH2 0x60C0 JUMPI PUSH2 0x60BF PUSH2 0x5D5D JUMP JUMPDEST JUMPDEST PUSH0 PUSH2 0x60CD DUP5 DUP3 DUP6 ADD PUSH2 0x6097 JUMP JUMPDEST SWAP2 POP POP SWAP3 SWAP2 POP POP JUMP JUMPDEST PUSH2 0x60DF DUP2 PUSH2 0x6078 JUMP JUMPDEST DUP3 MSTORE POP POP JUMP JUMPDEST PUSH0 PUSH1 0x20 DUP3 ADD SWAP1 POP PUSH2 0x60F8 PUSH0 DUP4 ADD DUP5 PUSH2 0x60D6 JUMP JUMPDEST SWAP3 SWAP2 POP POP JUMP JUMPDEST PUSH0 PUSH2 0x6108 DUP3 PUSH2 0x5E40 JUMP JUMPDEST SWAP1 POP SWAP2 SWAP1 POP JUMP JUMPDEST PUSH0 PUSH2 0x6119 DUP3 PUSH2 0x60FE JUMP JUMPDEST SWAP1 POP SWAP2 SWAP1 POP JUMP JUMPDEST PUSH2 0x6129 DUP2 PUSH2 0x610F JUMP JUMPDEST DUP3 MSTORE POP POP JUMP JUMPDEST PUSH0 PUSH1 0x20 DUP3 ADD SWAP1 POP PUSH2 0x6142 PUSH0 DUP4 ADD DUP5 PUSH2 0x6120 JUMP JUMPDEST SWAP3 SWAP2 POP POP JUMP JUMPDEST PUSH0 PUSH0 PUSH1 0x40 DUP4 DUP6 SUB SLT ISZERO PUSH2 0x615E JUMPI PUSH2 0x615D PUSH2 0x5D5D JUMP JUMPDEST JUMPDEST PUSH0 PUSH2 0x616B DUP6 DUP3 DUP7 ADD PUSH2 0x6097 JUMP JUMPDEST SWAP3 POP POP PUSH1 0x20 PUSH2 0x617C DUP6 DUP3 DUP7 ADD PUSH2 0x6020 JUMP JUMPDEST SWAP2 POP POP SWAP3 POP SWAP3 SWAP1 POP JUMP JUMPDEST PUSH0 DUP2 MLOAD SWAP1 POP SWAP2 SWAP1 POP JUMP JUMPDEST PUSH0 DUP3 DUP3 MSTORE PUSH1 0x20 DUP3 ADD SWAP1 POP SWAP3 SWAP2 POP POP JUMP JUMPDEST PUSH0 DUP2 SWAP1 POP PUSH1 0x20 DUP3 ADD SWAP1 POP SWAP2 SWAP1 POP JUMP JUMPDEST PUSH2 0x61B8 DUP2 PUSH2 0x5F09 JUMP JUMPDEST DUP3 MSTORE POP POP JUMP JUMPDEST PUSH0 PUSH2 0x61C9 DUP4 DUP4 PUSH2 0x61AF JUMP JUMPDEST PUSH1 0x20 DUP4 ADD SWAP1 POP SWAP3 SWAP2 POP POP JUMP JUMPDEST PUSH0 PUSH1 0x20 DUP3 ADD SWAP1 POP SWAP2 SWAP1 POP JUMP JUMPDEST PUSH0 PUSH2 0x61EB DUP3 PUSH2 0x6186 JUMP JUMPDEST PUSH2 0x61F5 DUP2 DUP6 PUSH2 0x6190 JUMP JUMPDEST SWAP4 POP PUSH2 0x6200 DUP4 PUSH2 0x61A0 JUMP JUMPDEST DUP1 PUSH0 JUMPDEST DUP4 DUP2 LT ISZERO PUSH2 0x6230 JUMPI DUP2 MLOAD PUSH2 0x6217 DUP9 DUP3 PUSH2 0x61BE JUMP JUMPDEST SWAP8 POP PUSH2 0x6222 DUP4 PUSH2 0x61D5 JUMP JUMPDEST SWAP3 POP POP PUSH1 0x1 DUP2 ADD SWAP1 POP PUSH2 0x6203 JUMP JUMPDEST POP DUP6 SWAP4 POP POP POP POP SWAP3 SWAP2 POP POP JUMP JUMPDEST PUSH0 DUP2 MLOAD SWAP1 POP SWAP2 SWAP1 POP JUMP JUMPDEST PUSH0 DUP3 DUP3 MSTORE PUSH1 0x20 DUP3 ADD SWAP1 POP SWAP3 SWAP2 POP POP JUMP JUMPDEST PUSH0 DUP2 SWAP1 POP PUSH1 0x20 DUP3 ADD SWAP1 POP SWAP2 SWAP1 POP JUMP JUMPDEST PUSH2 0x626F DUP2 PUSH2 0x5EAB JUMP JUMPDEST DUP3 MSTORE POP POP JUMP JUMPDEST PUSH0 PUSH2 0x6280 DUP4 DUP4 PUSH2 0x6266 JUMP JUMPDEST PUSH1 0x20 DUP4 ADD SWAP1 POP SWAP3 SWAP2 POP POP JUMP JUMPDEST PUSH0 PUSH1 0x20 DUP3 ADD SWAP1 POP SWAP2 SWAP1 POP JUMP JUMPDEST PUSH0 PUSH2 0x62A2 DUP3 PUSH2 0x623D JUMP JUMPDEST PUSH2 0x62AC DUP2 DUP6 PUSH2 0x6247 JUMP JUMPDEST SWAP4 POP PUSH2 0x62B7 DUP4 PUSH2 0x6257 JUMP JUMPDEST DUP1 PUSH0 JUMPDEST DUP4 DUP2 LT ISZERO PUSH2 0x62E7 JUMPI DUP2 MLOAD PUSH2 0x62CE DUP9 DUP3 PUSH2 0x6275 JUMP JUMPDEST SWAP8 POP PUSH2 0x62D9 DUP4 PUSH2 0x628C JUMP JUMPDEST SWAP3 POP POP PUSH1 0x1 DUP2 ADD SWAP1 POP PUSH2 0x62BA JUMP JUMPDEST POP DUP6 SWAP4 POP POP POP POP SWAP3 SWAP2 POP POP JUMP JUMPDEST PUSH2 0x62FD DUP2 PUSH2 0x5F7C JUMP JUMPDEST DUP3 MSTORE POP POP JUMP JUMPDEST PUSH2 0x630C DUP2 PUSH2 0x5DE5 JUMP JUMPDEST DUP3 MSTORE POP POP JUMP JUMPDEST PUSH0 PUSH2 0x100 DUP4 ADD PUSH0 DUP4 ADD MLOAD DUP5 DUP3 SUB PUSH0 DUP7 ADD MSTORE PUSH2 0x632D DUP3 DUP3 PUSH2 0x61E1 JUMP JUMPDEST SWAP2 POP POP PUSH1 0x20 DUP4 ADD MLOAD PUSH2 0x6342 PUSH1 0x20 DUP7 ADD DUP3 PUSH2 0x61AF JUMP JUMPDEST POP PUSH1 0x40 DUP4 ADD MLOAD DUP5 DUP3 SUB PUSH1 0x40 DUP7 ADD MSTORE PUSH2 0x635A DUP3 DUP3 PUSH2 0x6298 JUMP JUMPDEST SWAP2 POP POP PUSH1 0x60 DUP4 ADD MLOAD PUSH2 0x636F PUSH1 0x60 DUP7 ADD DUP3 PUSH2 0x62F4 JUMP JUMPDEST POP PUSH1 0x80 DUP4 ADD MLOAD PUSH2 0x6382 PUSH1 0x80 DUP7 ADD DUP3 PUSH2 0x6303 JUMP JUMPDEST POP PUSH1 0xA0 DUP4 ADD MLOAD PUSH2 0x6395 PUSH1 0xA0 DUP7 ADD DUP3 PUSH2 0x6303 JUMP JUMPDEST POP PUSH1 0xC0 DUP4 ADD MLOAD PUSH2 0x63A8 PUSH1 0xC0 DUP7 ADD DUP3 PUSH2 0x61AF JUMP JUMPDEST POP PUSH1 0xE0 DUP4 ADD MLOAD PUSH2 0x63BB PUSH1 0xE0 DUP7 ADD DUP3 PUSH2 0x6266 JUMP JUMPDEST POP DUP1 SWAP2 POP POP SWAP3 SWAP2 POP POP JUMP JUMPDEST PUSH0 PUSH1 0x20 DUP3 ADD SWAP1 POP DUP2 DUP2 SUB PUSH0 DUP4 ADD MSTORE PUSH2 0x63DE DUP2 DUP5 PUSH2 0x6312 JUMP JUMPDEST SWAP1 POP SWAP3 SWAP2 POP POP JUMP JUMPDEST PUSH1 0x4 DUP2 LT PUSH2 0x63F2 JUMPI PUSH0 PUSH0 REVERT JUMPDEST POP JUMP JUMPDEST PUSH0 DUP2 CALLDATALOAD SWAP1 POP PUSH2 0x6403 DUP2 PUSH2 0x63E6 JUMP JUMPDEST SWAP3 SWAP2 POP POP JUMP JUMPDEST PUSH0 PUSH0 PUSH0 PUSH0 PUSH1 0x80 DUP6 DUP8 SUB SLT ISZERO PUSH2 0x6421 JUMPI PUSH2 0x6420 PUSH2 0x5D5D JUMP JUMPDEST JUMPDEST PUSH0 PUSH2 0x642E DUP8 DUP3 DUP9 ADD PUSH2 0x6020 JUMP JUMPDEST SWAP5 POP POP PUSH1 0x20 PUSH2 0x643F DUP8 DUP3 DUP9 ADD PUSH2 0x6020 JUMP JUMPDEST SWAP4 POP POP PUSH1 0x40 PUSH2 0x6450 DUP8 DUP3 DUP9 ADD PUSH2 0x5ECA JUMP JUMPDEST SWAP3 POP POP PUSH1 0x60 PUSH2 0x6461 DUP8 DUP3 DUP9 ADD PUSH2 0x63F5 JUMP JUMPDEST SWAP2 POP POP SWAP3 SWAP6 SWAP2 SWAP5 POP SWAP3 POP JUMP JUMPDEST PUSH0 PUSH0 REVERT JUMPDEST PUSH0 PUSH1 0x1F NOT PUSH1 0x1F DUP4 ADD AND SWAP1 POP SWAP2 SWAP1 POP JUMP JUMPDEST PUSH32 0x4E487B7100000000000000000000000000000000000000000000000000000000 PUSH0 MSTORE PUSH1 0x41 PUSH1 0x4 MSTORE PUSH1 0x24 PUSH0 REVERT JUMPDEST PUSH2 0x64B7 DUP3 PUSH2 0x6471 JUMP JUMPDEST DUP2 ADD DUP2 DUP2 LT PUSH8 0xFFFFFFFFFFFFFFFF DUP3 GT OR ISZERO PUSH2 0x64D6 JUMPI PUSH2 0x64D5 PUSH2 0x6481 JUMP JUMPDEST JUMPDEST DUP1 PUSH1 0x40 MSTORE POP POP POP JUMP JUMPDEST PUSH0 PUSH2 0x64E8 PUSH2 0x5D54 JUMP JUMPDEST SWAP1 POP PUSH2 0x64F4 DUP3 DUP3 PUSH2 0x64AE JUMP JUMPDEST SWAP2 SWAP1 POP JUMP JUMPDEST PUSH0 PUSH8 0xFFFFFFFFFFFFFFFF DUP3 GT ISZERO PUSH2 0x6513 JUMPI PUSH2 0x6512 PUSH2 0x6481 JUMP JUMPDEST JUMPDEST PUSH1 0x20 DUP3 MUL SWAP1 POP PUSH1 0x20 DUP2 ADD SWAP1 POP SWAP2 SWAP1 POP JUMP JUMPDEST PUSH0 PUSH0 REVERT JUMPDEST PUSH0 PUSH2 0x653A PUSH2 0x6535 DUP5 PUSH2 0x64F9 JUMP JUMPDEST PUSH2 0x64DF JUMP JUMPDEST SWAP1 POP DUP1 DUP4 DUP3 MSTORE PUSH1 0x20 DUP3 ADD SWAP1 POP PUSH1 0x20 DUP5 MUL DUP4 ADD DUP6 DUP2 GT ISZERO PUSH2 0x655D JUMPI PUSH2 0x655C PUSH2 0x6524 JUMP JUMPDEST JUMPDEST DUP4 JUMPDEST DUP2 DUP2 LT ISZERO PUSH2 0x6586 JUMPI DUP1 PUSH2 0x6572 DUP9 DUP3 PUSH2 0x6020 JUMP JUMPDEST DUP5 MSTORE PUSH1 0x20 DUP5 ADD SWAP4 POP POP PUSH1 0x20 DUP2 ADD SWAP1 POP PUSH2 0x655F JUMP JUMPDEST POP POP POP SWAP4 SWAP3 POP POP POP JUMP JUMPDEST PUSH0 DUP3 PUSH1 0x1F DUP4 ADD SLT PUSH2 0x65A4 JUMPI PUSH2 0x65A3 PUSH2 0x646D JUMP JUMPDEST JUMPDEST DUP2 CALLDATALOAD PUSH2 0x65B4 DUP5 DUP3 PUSH1 0x20 DUP7 ADD PUSH2 0x6528 JUMP JUMPDEST SWAP2 POP POP SWAP3 SWAP2 POP POP JUMP JUMPDEST PUSH0 PUSH8 0xFFFFFFFFFFFFFFFF DUP3 GT ISZERO PUSH2 0x65D7 JUMPI PUSH2 0x65D6 PUSH2 0x6481 JUMP JUMPDEST JUMPDEST PUSH1 0x20 DUP3 MUL SWAP1 POP PUSH1 0x20 DUP2 ADD SWAP1 POP SWAP2 SWAP1 POP JUMP JUMPDEST PUSH0 PUSH2 0x65FA PUSH2 0x65F5 DUP5 PUSH2 0x65BD JUMP JUMPDEST PUSH2 0x64DF JUMP JUMPDEST SWAP1 POP DUP1 DUP4 DUP3 MSTORE PUSH1 0x20 DUP3 ADD SWAP1 POP PUSH1 0x20 DUP5 MUL DUP4 ADD DUP6 DUP2 GT ISZERO PUSH2 0x661D JUMPI PUSH2 0x661C PUSH2 0x6524 JUMP JUMPDEST JUMPDEST DUP4 JUMPDEST DUP2 DUP2 LT ISZERO PUSH2 0x6646 JUMPI DUP1 PUSH2 0x6632 DUP9 DUP3 PUSH2 0x5ECA JUMP JUMPDEST DUP5 MSTORE PUSH1 0x20 DUP5 ADD SWAP4 POP POP PUSH1 0x20 DUP2 ADD SWAP1 POP PUSH2 0x661F JUMP JUMPDEST POP POP POP SWAP4 SWAP3 POP POP POP JUMP JUMPDEST PUSH0 DUP3 PUSH1 0x1F DUP4 ADD SLT PUSH2 0x6664 JUMPI PUSH2 0x6663 PUSH2 0x646D JUMP JUMPDEST JUMPDEST DUP2 CALLDATALOAD PUSH2 0x6674 DUP5 DUP3 PUSH1 0x20 DUP7 ADD PUSH2 0x65E8 JUMP JUMPDEST SWAP2 POP POP SWAP3 SWAP2 POP POP JUMP JUMPDEST PUSH0 PUSH0 PUSH0 PUSH0 PUSH1 0x80 DUP6 DUP8 SUB SLT ISZERO PUSH2 0x6695 JUMPI PUSH2 0x6694 PUSH2 0x5D5D JUMP JUMPDEST JUMPDEST PUSH0 DUP6 ADD CALLDATALOAD PUSH8 0xFFFFFFFFFFFFFFFF DUP2 GT ISZERO PUSH2 0x66B2 JUMPI PUSH2 0x66B1 PUSH2 0x5D61 JUMP JUMPDEST JUMPDEST PUSH2 0x66BE DUP8 DUP3 DUP9 ADD PUSH2 0x6590 JUMP JUMPDEST SWAP5 POP POP PUSH1 0x20 PUSH2 0x66CF DUP8 DUP3 DUP9 ADD PUSH2 0x6020 JUMP JUMPDEST SWAP4 POP POP PUSH1 0x40 DUP6 ADD CALLDATALOAD PUSH8 0xFFFFFFFFFFFFFFFF DUP2 GT ISZERO PUSH2 0x66F0 JUMPI PUSH2 0x66EF PUSH2 0x5D61 JUMP JUMPDEST JUMPDEST PUSH2 0x66FC DUP8 DUP3 DUP9 ADD PUSH2 0x6650 JUMP JUMPDEST SWAP3 POP POP PUSH1 0x60 PUSH2 0x670D DUP8 DUP3 DUP9 ADD PUSH2 0x63F5 JUMP JUMPDEST SWAP2 POP POP SWAP3 SWAP6 SWAP2 SWAP5 POP SWAP3 POP JUMP JUMPDEST PUSH0 PUSH2 0x6723 DUP3 PUSH2 0x5E18 JUMP JUMPDEST SWAP1 POP SWAP2 SWAP1 POP JUMP JUMPDEST PUSH2 0x6733 DUP2 PUSH2 0x6719 JUMP JUMPDEST DUP2 EQ PUSH2 0x673D JUMPI PUSH0 PUSH0 REVERT JUMPDEST POP JUMP JUMPDEST PUSH0 DUP2 CALLDATALOAD SWAP1 POP PUSH2 0x674E DUP2 PUSH2 0x672A JUMP JUMPDEST SWAP3 SWAP2 POP POP JUMP JUMPDEST PUSH0 PUSH1 0x20 DUP3 DUP5 SUB SLT ISZERO PUSH2 0x6769 JUMPI PUSH2 0x6768 PUSH2 0x5D5D JUMP JUMPDEST JUMPDEST PUSH0 PUSH2 0x6776 DUP5 DUP3 DUP6 ADD PUSH2 0x6740 JUMP JUMPDEST SWAP2 POP POP SWAP3 SWAP2 POP POP JUMP JUMPDEST PUSH0 DUP2 MLOAD SWAP1 POP SWAP2 SWAP1 POP JUMP JUMPDEST PUSH0 DUP3 DUP3 MSTORE PUSH1 0x20 DUP3 ADD SWAP1 POP SWAP3 SWAP2 POP POP JUMP JUMPDEST PUSH0 DUP2 SWAP1 POP PUSH1 0x20 DUP3 ADD SWAP1 POP SWAP2 SWAP1 POP JUMP JUMPDEST PUSH1 0x4 DUP2 LT PUSH2 0x67B9 JUMPI PUSH2 0x67B8 PUSH2 0x5F29 JUMP JUMPDEST JUMPDEST POP JUMP JUMPDEST PUSH0 DUP2 SWAP1 POP PUSH2 0x67C9 DUP3 PUSH2 0x67A8 JUMP JUMPDEST SWAP2 SWAP1 POP JUMP JUMPDEST PUSH0 PUSH2 0x67D8 DUP3 PUSH2 0x67BC JUMP JUMPDEST SWAP1 POP SWAP2 SWAP1 POP JUMP JUMPDEST PUSH2 0x67E8 DUP2 PUSH2 0x67CE JUMP JUMPDEST DUP3 MSTORE POP POP JUMP JUMPDEST PUSH0 DUP2 MLOAD SWAP1 POP SWAP2 SWAP1 POP JUMP JUMPDEST PUSH0 DUP3 DUP3 MSTORE PUSH1 0x20 DUP3 ADD SWAP1 POP SWAP3 SWAP2 POP POP JUMP JUMPDEST DUP3 DUP2 DUP4 MCOPY PUSH0 DUP4 DUP4 ADD MSTORE POP POP POP JUMP JUMPDEST PUSH0 PUSH2 0x6820 DUP3 PUSH2 0x67EE JUMP JUMPDEST PUSH2 0x682A DUP2 DUP6 PUSH2 0x67F8 JUMP JUMPDEST SWAP4 POP PUSH2 0x683A DUP2 DUP6 PUSH1 0x20 DUP7 ADD PUSH2 0x6808 JUMP JUMPDEST PUSH2 0x6843 DUP2 PUSH2 0x6471 JUMP JUMPDEST DUP5 ADD SWAP2 POP POP SWAP3 SWAP2 POP POP JUMP JUMPDEST PUSH0 PUSH2 0x140 DUP4 ADD PUSH0 DUP4 ADD MLOAD PUSH2 0x6864 PUSH0 DUP7 ADD DUP3 PUSH2 0x61AF JUMP JUMPDEST POP PUSH1 0x20 DUP4 ADD MLOAD PUSH2 0x6877 PUSH1 0x20 DUP7 ADD DUP3 PUSH2 0x61AF JUMP JUMPDEST POP PUSH1 0x40 DUP4 ADD MLOAD PUSH2 0x688A PUSH1 0x40 DUP7 ADD DUP3 PUSH2 0x6266 JUMP JUMPDEST POP PUSH1 0x60 DUP4 ADD MLOAD PUSH2 0x689D PUSH1 0x60 DUP7 ADD DUP3 PUSH2 0x6266 JUMP JUMPDEST POP PUSH1 0x80 DUP4 ADD MLOAD PUSH2 0x68B0 PUSH1 0x80 DUP7 ADD DUP3 PUSH2 0x62F4 JUMP JUMPDEST POP PUSH1 0xA0 DUP4 ADD MLOAD PUSH2 0x68C3 PUSH1 0xA0 DUP7 ADD DUP3 PUSH2 0x67DF JUMP JUMPDEST POP PUSH1 0xC0 DUP4 ADD MLOAD DUP5 DUP3 SUB PUSH1 0xC0 DUP7 ADD MSTORE PUSH2 0x68DB DUP3 DUP3 PUSH2 0x6816 JUMP JUMPDEST SWAP2 POP POP PUSH1 0xE0 DUP4 ADD MLOAD PUSH2 0x68F0 PUSH1 0xE0 DUP7 ADD DUP3 PUSH2 0x6266 JUMP JUMPDEST POP PUSH2 0x100 DUP4 ADD MLOAD PUSH2 0x6905 PUSH2 0x100 DUP7 ADD DUP3 PUSH2 0x6266 JUMP JUMPDEST POP PUSH2 0x120 DUP4 ADD MLOAD DUP5 DUP3 SUB PUSH2 0x120 DUP7 ADD MSTORE PUSH2 0x691F DUP3 DUP3 PUSH2 0x6816 JUMP JUMPDEST SWAP2 POP POP DUP1 SWAP2 POP POP SWAP3 SWAP2 POP POP JUMP JUMPDEST PUSH0 PUSH2 0x6937 DUP4 DUP4 PUSH2 0x684E JUMP JUMPDEST SWAP1 POP SWAP3 SWAP2 POP POP JUMP JUMPDEST PUSH0 PUSH1 0x20 DUP3 ADD SWAP1 POP SWAP2 SWAP1 POP JUMP JUMPDEST PUSH0 PUSH2 0x6955 DUP3 PUSH2 0x677F JUMP JUMPDEST PUSH2 0x695F DUP2 DUP6 PUSH2 0x6789 JUMP JUMPDEST SWAP4 POP DUP4 PUSH1 0x20 DUP3 MUL DUP6 ADD PUSH2 0x6971 DUP6 PUSH2 0x6799 JUMP JUMPDEST DUP1 PUSH0 JUMPDEST DUP6 DUP2 LT ISZERO PUSH2 0x69AC JUMPI DUP5 DUP5 SUB DUP10 MSTORE DUP2 MLOAD PUSH2 0x698D DUP6 DUP3 PUSH2 0x692C JUMP JUMPDEST SWAP5 POP PUSH2 0x6998 DUP4 PUSH2 0x693F JUMP JUMPDEST SWAP3 POP PUSH1 0x20 DUP11 ADD SWAP10 POP POP PUSH1 0x1 DUP2 ADD SWAP1 POP PUSH2 0x6974 JUMP JUMPDEST POP DUP3 SWAP8 POP DUP8 SWAP6 POP POP POP POP POP POP SWAP3 SWAP2 POP POP JUMP JUMPDEST PUSH0 PUSH1 0x20 DUP3 ADD SWAP1 POP DUP2 DUP2 SUB PUSH0 DUP4 ADD MSTORE PUSH2 0x69D6 DUP2 DUP5 PUSH2 0x694B JUMP JUMPDEST SWAP1 POP SWAP3 SWAP2 POP POP JUMP JUMPDEST PUSH0 PUSH0 PUSH1 0x40 DUP4 DUP6 SUB SLT ISZERO PUSH2 0x69F4 JUMPI PUSH2 0x69F3 PUSH2 0x5D5D JUMP JUMPDEST JUMPDEST PUSH0 PUSH2 0x6A01 DUP6 DUP3 DUP7 ADD PUSH2 0x6020 JUMP JUMPDEST SWAP3 POP POP PUSH1 0x20 PUSH2 0x6A12 DUP6 DUP3 DUP7 ADD PUSH2 0x5ECA JUMP JUMPDEST SWAP2 POP POP SWAP3 POP SWAP3 SWAP1 POP JUMP JUMPDEST PUSH2 0x6A25 DUP2 PUSH2 0x67CE JUMP JUMPDEST DUP3 MSTORE POP POP JUMP JUMPDEST PUSH0 DUP3 DUP3 MSTORE PUSH1 0x20 DUP3 ADD SWAP1 POP SWAP3 SWAP2 POP POP JUMP JUMPDEST PUSH0 PUSH2 0x6A45 DUP3 PUSH2 0x67EE JUMP JUMPDEST PUSH2 0x6A4F DUP2 DUP6 PUSH2 0x6A2B JUMP JUMPDEST SWAP4 POP PUSH2 0x6A5F DUP2 DUP6 PUSH1 0x20 DUP7 ADD PUSH2 0x6808 JUMP JUMPDEST PUSH2 0x6A68 DUP2 PUSH2 0x6471 JUMP JUMPDEST DUP5 ADD SWAP2 POP POP SWAP3 SWAP2 POP POP JUMP JUMPDEST PUSH0 PUSH2 0x140 DUP3 ADD SWAP1 POP PUSH2 0x6A87 PUSH0 DUP4 ADD DUP14 PUSH2 0x5F1A JUMP JUMPDEST PUSH2 0x6A94 PUSH1 0x20 DUP4 ADD DUP13 PUSH2 0x5F1A JUMP JUMPDEST PUSH2 0x6AA1 PUSH1 0x40 DUP4 ADD DUP12 PUSH2 0x5F9C JUMP JUMPDEST PUSH2 0x6AAE PUSH1 0x60 DUP4 ADD DUP11 PUSH2 0x5F9C JUMP JUMPDEST PUSH2 0x6ABB PUSH1 0x80 DUP4 ADD DUP10 PUSH2 0x5F8D JUMP JUMPDEST PUSH2 0x6AC8 PUSH1 0xA0 DUP4 ADD DUP9 PUSH2 0x6A1C JUMP JUMPDEST DUP2 DUP2 SUB PUSH1 0xC0 DUP4 ADD MSTORE PUSH2 0x6ADA DUP2 DUP8 PUSH2 0x6A3B JUMP JUMPDEST SWAP1 POP PUSH2 0x6AE9 PUSH1 0xE0 DUP4 ADD DUP7 PUSH2 0x5F9C JUMP JUMPDEST PUSH2 0x6AF7 PUSH2 0x100 DUP4 ADD DUP6 PUSH2 0x5F9C JUMP JUMPDEST DUP2 DUP2 SUB PUSH2 0x120 DUP4 ADD MSTORE PUSH2 0x6B0A DUP2 DUP5 PUSH2 0x6A3B JUMP JUMPDEST SWAP1 POP SWAP12 SWAP11 POP POP POP POP POP POP POP POP POP POP POP JUMP JUMPDEST PUSH0 PUSH1 0x20 DUP3 ADD SWAP1 POP PUSH2 0x6B2E PUSH0 DUP4 ADD DUP5 PUSH2 0x5F1A JUMP JUMPDEST SWAP3 SWAP2 POP POP JUMP JUMPDEST PUSH0 PUSH2 0x140 DUP4 ADD PUSH0 DUP4 ADD MLOAD PUSH2 0x6B4A PUSH0 DUP7 ADD DUP3 PUSH2 0x61AF JUMP JUMPDEST POP PUSH1 0x20 DUP4 ADD MLOAD PUSH2 0x6B5D PUSH1 0x20 DUP7 ADD DUP3 PUSH2 0x61AF JUMP JUMPDEST POP PUSH1 0x40 DUP4 ADD MLOAD PUSH2 0x6B70 PUSH1 0x40 DUP7 ADD DUP3 PUSH2 0x6266 JUMP JUMPDEST POP PUSH1 0x60 DUP4 ADD MLOAD PUSH2 0x6B83 PUSH1 0x60 DUP7 ADD DUP3 PUSH2 0x6266 JUMP JUMPDEST POP PUSH1 0x80 DUP4 ADD MLOAD PUSH2 0x6B96 PUSH1 0x80 DUP7 ADD DUP3 PUSH2 0x62F4 JUMP JUMPDEST POP PUSH1 0xA0 DUP4 ADD MLOAD PUSH2 0x6BA9 PUSH1 0xA0 DUP7 ADD DUP3 PUSH2 0x67DF JUMP JUMPDEST POP PUSH1 0xC0 DUP4 ADD MLOAD DUP5 DUP3 SUB PUSH1 0xC0 DUP7 ADD MSTORE PUSH2 0x6BC1 DUP3 DUP3 PUSH2 0x6816 JUMP JUMPDEST SWAP2 POP POP PUSH1 0xE0 DUP4 ADD MLOAD PUSH2 0x6BD6 PUSH1 0xE0 DUP7 ADD DUP3 PUSH2 0x6266 JUMP JUMPDEST POP PUSH2 0x100 DUP4 ADD MLOAD PUSH2 0x6BEB PUSH2 0x100 DUP7 ADD DUP3 PUSH2 0x6266 JUMP JUMPDEST POP PUSH2 0x120 DUP4 ADD MLOAD DUP5 DUP3 SUB PUSH2 0x120 DUP7 ADD MSTORE PUSH2 0x6C05 DUP3 DUP3 PUSH2 0x6816 JUMP JUMPDEST SWAP2 POP POP DUP1 SWAP2 POP POP SWAP3 SWAP2 POP POP JUMP JUMPDEST PUSH0 PUSH1 0x20 DUP3 ADD SWAP1 POP DUP2 DUP2 SUB PUSH0 DUP4 ADD MSTORE PUSH2 0x6C2A DUP2 DUP5 PUSH2 0x6B34 JUMP JUMPDEST SWAP1 POP SWAP3 SWAP2 POP POP JUMP JUMPDEST PUSH0 PUSH0 PUSH0 PUSH1 0x60 DUP5 DUP7 SUB SLT ISZERO PUSH2 0x6C49 JUMPI PUSH2 0x6C48 PUSH2 0x5D5D JUMP JUMPDEST JUMPDEST PUSH0 PUSH2 0x6C56 DUP7 DUP3 DUP8 ADD PUSH2 0x6020 JUMP JUMPDEST SWAP4 POP POP PUSH1 0x20 PUSH2 0x6C67 DUP7 DUP3 DUP8 ADD PUSH2 0x6020 JUMP JUMPDEST SWAP3 POP POP PUSH1 0x40 PUSH2 0x6C78 DUP7 DUP3 DUP8 ADD PUSH2 0x5ECA JUMP JUMPDEST SWAP2 POP POP SWAP3 POP SWAP3 POP SWAP3 JUMP JUMPDEST PUSH2 0x6C8B DUP2 PUSH2 0x5DE5 JUMP JUMPDEST DUP2 EQ PUSH2 0x6C95 JUMPI PUSH0 PUSH0 REVERT JUMPDEST POP JUMP JUMPDEST PUSH0 DUP2 CALLDATALOAD SWAP1 POP PUSH2 0x6CA6 DUP2 PUSH2 0x6C82 JUMP JUMPDEST SWAP3 SWAP2 POP POP JUMP JUMPDEST PUSH0 PUSH1 0x20 DUP3 DUP5 SUB SLT ISZERO PUSH2 0x6CC1 JUMPI PUSH2 0x6CC0 PUSH2 0x5D5D JUMP JUMPDEST JUMPDEST PUSH0 PUSH2 0x6CCE DUP5 DUP3 DUP6 ADD PUSH2 0x6C98 JUMP JUMPDEST SWAP2 POP POP SWAP3 SWAP2 POP POP JUMP JUMPDEST PUSH0 PUSH2 0x6CE1 DUP3 PUSH2 0x5E61 JUMP JUMPDEST SWAP1 POP SWAP2 SWAP1 POP JUMP JUMPDEST PUSH2 0x6CF1 DUP2 PUSH2 0x6CD7 JUMP JUMPDEST DUP3 MSTORE POP POP JUMP JUMPDEST PUSH0 PUSH1 0x20 DUP3 ADD SWAP1 POP PUSH2 0x6D0A PUSH0 DUP4 ADD DUP5 PUSH2 0x6CE8 JUMP JUMPDEST SWAP3 SWAP2 POP POP JUMP JUMPDEST PUSH32 0x496E76616C696420626174636820494400000000000000000000000000000000 PUSH0 DUP3 ADD MSTORE POP JUMP JUMPDEST PUSH0 PUSH2 0x6D44 PUSH1 0x10 DUP4 PUSH2 0x6A2B JUMP JUMPDEST SWAP2 POP PUSH2 0x6D4F DUP3 PUSH2 0x6D10 JUMP JUMPDEST PUSH1 0x20 DUP3 ADD SWAP1 POP SWAP2 SWAP1 POP JUMP JUMPDEST PUSH0 PUSH1 0x20 DUP3 ADD SWAP1 POP DUP2 DUP2 SUB PUSH0 DUP4 ADD MSTORE PUSH2 0x6D71 DUP2 PUSH2 0x6D38 JUMP JUMPDEST SWAP1 POP SWAP2 SWAP1 POP JUMP JUMPDEST PUSH32 0x4E487B7100000000000000000000000000000000000000000000000000000000 PUSH0 MSTORE PUSH1 0x32 PUSH1 0x4 MSTORE PUSH1 0x24 PUSH0 REVERT JUMPDEST PUSH0 PUSH1 0x40 DUP3 ADD SWAP1 POP PUSH2 0x6DB8 PUSH0 DUP4 ADD DUP6 PUSH2 0x60D6 JUMP JUMPDEST PUSH2 0x6DC5 PUSH1 0x20 DUP4 ADD DUP5 PUSH2 0x5F1A JUMP JUMPDEST SWAP4 SWAP3 POP POP POP JUMP JUMPDEST PUSH0 DUP2 MLOAD SWAP1 POP PUSH2 0x6DDA DUP2 PUSH2 0x6C82 JUMP JUMPDEST SWAP3 SWAP2 POP POP JUMP JUMPDEST PUSH0 PUSH1 0x20 DUP3 DUP5 SUB SLT ISZERO PUSH2 0x6DF5 JUMPI PUSH2 0x6DF4 PUSH2 0x5D5D JUMP JUMPDEST JUMPDEST PUSH0 PUSH2 0x6E02 DUP5 DUP3 DUP6 ADD PUSH2 0x6DCC JUMP JUMPDEST SWAP2 POP POP SWAP3 SWAP2 POP POP JUMP JUMPDEST PUSH32 0x4E6F7420617574686F72697A6564000000000000000000000000000000000000 PUSH0 DUP3 ADD MSTORE POP JUMP JUMPDEST PUSH0 PUSH2 0x6E3F PUSH1 0xE DUP4 PUSH2 0x6A2B JUMP JUMPDEST SWAP2 POP PUSH2 0x6E4A DUP3 PUSH2 0x6E0B JUMP JUMPDEST PUSH1 0x20 DUP3 ADD SWAP1 POP SWAP2 SWAP1 POP JUMP JUMPDEST PUSH0 PUSH1 0x20 DUP3 ADD SWAP1 POP DUP2 DUP2 SUB PUSH0 DUP4 ADD MSTORE PUSH2 0x6E6C DUP2 PUSH2 0x6E33 JUMP JUMPDEST SWAP1 POP SWAP2 SWAP1 POP JUMP JUMPDEST PUSH0 PUSH0 REVERT JUMPDEST PUSH0 DUP2 MLOAD SWAP1 POP PUSH2 0x6E85 DUP2 PUSH2 0x600A JUMP JUMPDEST SWAP3 SWAP2 POP POP JUMP JUMPDEST PUSH0 DUP2 MLOAD SWAP1 POP PUSH2 0x6E99 DUP2 PUSH2 0x5EB4 JUMP JUMPDEST SWAP3 SWAP2 POP POP JUMP JUMPDEST PUSH1 0x3 DUP2 LT PUSH2 0x6EAB JUMPI PUSH0 PUSH0 REVERT JUMPDEST POP JUMP JUMPDEST PUSH0 DUP2 MLOAD SWAP1 POP PUSH2 0x6EBC DUP2 PUSH2 0x6E9F JUMP JUMPDEST SWAP3 SWAP2 POP POP JUMP JUMPDEST PUSH0 DUP2 SWAP1 POP SWAP2 SWAP1 POP JUMP JUMPDEST PUSH2 0x6ED4 DUP2 PUSH2 0x6EC2 JUMP JUMPDEST DUP2 EQ PUSH2 0x6EDE JUMPI PUSH0 PUSH0 REVERT JUMPDEST POP JUMP JUMPDEST PUSH0 DUP2 MLOAD SWAP1 POP PUSH2 0x6EEF DUP2 PUSH2 0x6ECB JUMP JUMPDEST SWAP3 SWAP2 POP POP JUMP JUMPDEST PUSH0 PUSH2 0x180 DUP3 DUP5 SUB SLT ISZERO PUSH2 0x6F0B JUMPI PUSH2 0x6F0A PUSH2 0x6E73 JUMP JUMPDEST JUMPDEST PUSH2 0x6F16 PUSH2 0x180 PUSH2 0x64DF JUMP JUMPDEST SWAP1 POP PUSH0 PUSH2 0x6F25 DUP5 DUP3 DUP6 ADD PUSH2 0x6E77 JUMP JUMPDEST PUSH0 DUP4 ADD MSTORE POP PUSH1 0x20 PUSH2 0x6F38 DUP5 DUP3 DUP6 ADD PUSH2 0x6E8B JUMP JUMPDEST PUSH1 0x20 DUP4 ADD MSTORE POP PUSH1 0x40 PUSH2 0x6F4C DUP5 DUP3 DUP6 ADD PUSH2 0x6EAE JUMP JUMPDEST PUSH1 0x40 DUP4 ADD MSTORE POP PUSH1 0x60 PUSH2 0x6F60 DUP5 DUP3 DUP6 ADD PUSH2 0x6E77 JUMP JUMPDEST PUSH1 0x60 DUP4 ADD MSTORE POP PUSH1 0x80 PUSH2 0x6F74 DUP5 DUP3 DUP6 ADD PUSH2 0x6DCC JUMP JUMPDEST PUSH1 0x80 DUP4 ADD MSTORE POP PUSH1 0xA0 PUSH2 0x6F88 DUP5 DUP3 DUP6 ADD PUSH2 0x6E8B JUMP JUMPDEST PUSH1 0xA0 DUP4 ADD MSTORE POP PUSH1 0xC0 PUSH2 0x6F9C DUP5 DUP3 DUP6 ADD PUSH2 0x6E8B JUMP JUMPDEST PUSH1 0xC0 DUP4 ADD MSTORE POP PUSH1 0xE0 PUSH2 0x6FB0 DUP5 DUP3 DUP6 ADD PUSH2 0x6E8B JUMP JUMPDEST PUSH1 0xE0 DUP4 ADD MSTORE POP PUSH2 0x100 PUSH2 0x6FC5 DUP5 DUP3 DUP6 ADD PUSH2 0x6EE1 JUMP JUMPDEST PUSH2 0x100 DUP4 ADD MSTORE POP PUSH2 0x120 PUSH2 0x6FDB DUP5 DUP3 DUP6 ADD PUSH2 0x6EE1 JUMP JUMPDEST PUSH2 0x120 DUP4 ADD MSTORE POP PUSH2 0x140 PUSH2 0x6FF1 DUP5 DUP3 DUP6 ADD PUSH2 0x6E8B JUMP JUMPDEST PUSH2 0x140 DUP4 ADD MSTORE POP PUSH2 0x160 PUSH2 0x7007 DUP5 DUP3 DUP6 ADD PUSH2 0x6DCC JUMP JUMPDEST PUSH2 0x160 DUP4 ADD MSTORE POP SWAP3 SWAP2 POP POP JUMP JUMPDEST PUSH0 PUSH2 0x180 DUP3 DUP5 SUB SLT ISZERO PUSH2 0x702A JUMPI PUSH2 0x7029 PUSH2 0x5D5D JUMP JUMPDEST JUMPDEST PUSH0 PUSH2 0x7037 DUP5 DUP3 DUP6 ADD PUSH2 0x6EF5 JUMP JUMPDEST SWAP2 POP POP SWAP3 SWAP2 POP POP JUMP JUMPDEST PUSH32 0x456D706C6F796565206E6F742061637469766500000000000000000000000000 PUSH0 DUP3 ADD MSTORE POP JUMP JUMPDEST PUSH0 PUSH2 0x7074 PUSH1 0x13 DUP4 PUSH2 0x6A2B JUMP JUMPDEST SWAP2 POP PUSH2 0x707F DUP3 PUSH2 0x7040 JUMP JUMPDEST PUSH1 0x20 DUP3 ADD SWAP1 POP SWAP2 SWAP1 POP JUMP JUMPDEST PUSH0 PUSH1 0x20 DUP3 ADD SWAP1 POP DUP2 DUP2 SUB PUSH0 DUP4 ADD MSTORE PUSH2 0x70A1 DUP2 PUSH2 0x7068 JUMP JUMPDEST SWAP1 POP SWAP2 SWAP1 POP JUMP JUMPDEST PUSH32 0x4E487B7100000000000000000000000000000000000000000000000000000000 PUSH0 MSTORE PUSH1 0x11 PUSH1 0x4 MSTORE PUSH1 0x24 PUSH0 REVERT JUMPDEST PUSH0 PUSH2 0x70DF DUP3 PUSH2 0x5EAB JUMP JUMPDEST SWAP2 POP PUSH2 0x70EA DUP4 PUSH2 0x5EAB JUMP JUMPDEST SWAP3 POP DUP3 DUP3 SUB SWAP1 POP DUP2 DUP2 GT ISZERO PUSH2 0x7102 JUMPI PUSH2 0x7101 PUSH2 0x70A8 JUMP JUMPDEST JUMPDEST SWAP3 SWAP2 POP POP JUMP JUMPDEST PUSH0 PUSH1 0x40 DUP3 ADD SWAP1 POP PUSH2 0x711B PUSH0 DUP4 ADD DUP6 PUSH2 0x5F1A JUMP JUMPDEST PUSH2 0x7128 PUSH1 0x20 DUP4 ADD DUP5 PUSH2 0x5F9C JUMP JUMPDEST SWAP4 SWAP3 POP POP POP JUMP JUMPDEST PUSH0 PUSH2 0x7139 DUP3 PUSH2 0x5EAB JUMP JUMPDEST SWAP2 POP PUSH32 0xFFFFFFFFFFFFFFFFFFFFFFFFFFFFFFFFFFFFFFFFFFFFFFFFFFFFFFFFFFFFFFFF DUP3 SUB PUSH2 0x716B JUMPI PUSH2 0x716A PUSH2 0x70A8 JUMP JUMPDEST JUMPDEST PUSH1 0x1 DUP3 ADD SWAP1 POP SWAP2 SWAP1 POP JUMP JUMPDEST PUSH32 0x4E487B7100000000000000000000000000000000000000000000000000000000 PUSH0 MSTORE PUSH1 0x22 PUSH1 0x4 MSTORE PUSH1 0x24 PUSH0 REVERT JUMPDEST PUSH0 PUSH1 0x2 DUP3 DIV SWAP1 POP PUSH1 0x1 DUP3 AND DUP1 PUSH2 0x71BA JUMPI PUSH1 0x7F DUP3 AND SWAP2 POP JUMPDEST PUSH1 0x20 DUP3 LT DUP2 SUB PUSH2 0x71CD JUMPI PUSH2 0x71CC PUSH2 0x7176 JUMP JUMPDEST JUMPDEST POP SWAP2 SWAP1 POP JUMP JUMPDEST PUSH0 DUP2 SWAP1 POP DUP2 PUSH0 MSTORE PUSH1 0x20 PUSH0 KECCAK256 SWAP1 POP SWAP2 SWAP1 POP JUMP JUMPDEST PUSH0 PUSH1 0x20 PUSH1 0x1F DUP4 ADD DIV SWAP1 POP SWAP2 SWAP1 POP JUMP JUMPDEST PUSH0 DUP3 DUP3 SHL SWAP1 POP SWAP3 SWAP2 POP POP JUMP JUMPDEST PUSH0 PUSH1 0x8 DUP4 MUL PUSH2 0x722F PUSH32 0xFFFFFFFFFFFFFFFFFFFFFFFFFFFFFFFFFFFFFFFFFFFFFFFFFFFFFFFFFFFFFFFF DUP3 PUSH2 0x71F4 JUMP JUMPDEST PUSH2 0x7239 DUP7 DUP4 PUSH2 0x71F4 JUMP JUMPDEST SWAP6 POP DUP1 NOT DUP5 AND SWAP4 POP DUP1 DUP7 AND DUP5 OR SWAP3 POP POP POP SWAP4 SWAP3 POP POP POP JUMP JUMPDEST PUSH0 PUSH2 0x726B PUSH2 0x7266 PUSH2 0x7261 DUP5 PUSH2 0x5EAB JUMP JUMPDEST PUSH2 0x5E37 JUMP JUMPDEST PUSH2 0x5EAB JUMP JUMPDEST SWAP1 POP SWAP2 SWAP1 POP JUMP JUMPDEST PUSH0 DUP2 SWAP1 POP SWAP2 SWAP1 POP JUMP JUMPDEST PUSH2 0x7284 DUP4 PUSH2 0x7251 JUMP JUMPDEST PUSH2 0x7298 PUSH2 0x7290 DUP3 PUSH2 0x7272 JUMP JUMPDEST DUP5 DUP5 SLOAD PUSH2 0x7200 JUMP JUMPDEST DUP3 SSTORE POP POP POP POP JUMP JUMPDEST PUSH0 PUSH0 SWAP1 POP SWAP1 JUMP JUMPDEST PUSH2 0x72AF PUSH2 0x72A0 JUMP JUMPDEST PUSH2 0x72BA DUP2 DUP5 DUP5 PUSH2 0x727B JUMP JUMPDEST POP POP POP JUMP JUMPDEST JUMPDEST DUP2 DUP2 LT ISZERO PUSH2 0x72DD JUMPI PUSH2 0x72D2 PUSH0 DUP3 PUSH2 0x72A7 JUMP JUMPDEST PUSH1 0x1 DUP2 ADD SWAP1 POP PUSH2 0x72C0 JUMP JUMPDEST POP POP JUMP JUMPDEST PUSH1 0x1F DUP3 GT ISZERO PUSH2 0x7322 JUMPI PUSH2 0x72F3 DUP2 PUSH2 0x71D3 JUMP JUMPDEST PUSH2 0x72FC DUP5 PUSH2 0x71E5 JUMP JUMPDEST DUP2 ADD PUSH1 0x20 DUP6 LT ISZERO PUSH2 0x730B JUMPI DUP2 SWAP1 POP JUMPDEST PUSH2 0x731F PUSH2 0x7317 DUP6 PUSH2 0x71E5 JUMP JUMPDEST DUP4 ADD DUP3 PUSH2 0x72BF JUMP JUMPDEST POP POP JUMPDEST POP POP POP JUMP JUMPDEST PUSH0 DUP3 DUP3 SHR SWAP1 POP SWAP3 SWAP2 POP POP JUMP JUMPDEST PUSH0 PUSH2 0x7342 PUSH0 NOT DUP5 PUSH1 0x8 MUL PUSH2 0x7327 JUMP JUMPDEST NOT DUP1 DUP4 AND SWAP2 POP POP SWAP3 SWAP2 POP POP JUMP JUMPDEST PUSH0 PUSH2 0x735A DUP4 DUP4 PUSH2 0x7333 JUMP JUMPDEST SWAP2 POP DUP3 PUSH1 0x2 MUL DUP3 OR SWAP1 POP SWAP3 SWAP2 POP POP JUMP JUMPDEST PUSH2 0x7373 DUP3 PUSH2 0x67EE JUMP JUMPDEST PUSH8 0xFFFFFFFFFFFFFFFF DUP2 GT ISZERO PUSH2 0x738C JUMPI PUSH2 0x738B PUSH2 0x6481 JUMP JUMPDEST JUMPDEST PUSH2 0x7396 DUP3 SLOAD PUSH2 0x71A3 JUMP JUMPDEST PUSH2 0x73A1 DUP3 DUP3 DUP6 PUSH2 0x72E1 JUMP JUMPDEST PUSH0 PUSH1 0x20 SWAP1 POP PUSH1 0x1F DUP4 GT PUSH1 0x1 DUP2 EQ PUSH2 0x73D2 JUMPI PUSH0 DUP5 ISZERO PUSH2 0x73C0 JUMPI DUP3 DUP8 ADD MLOAD SWAP1 POP JUMPDEST PUSH2 0x73CA DUP6 DUP3 PUSH2 0x734F JUMP JUMPDEST DUP7 SSTORE POP PUSH2 0x7431 JUMP JUMPDEST PUSH1 0x1F NOT DUP5 AND PUSH2 0x73E0 DUP7 PUSH2 0x71D3 JUMP JUMPDEST PUSH0 JUMPDEST DUP3 DUP2 LT ISZERO PUSH2 0x7407 JUMPI DUP5 DUP10 ADD MLOAD DUP3 SSTORE PUSH1 0x1 DUP3 ADD SWAP2 POP PUSH1 0x20 DUP6 ADD SWAP5 POP PUSH1 0x20 DUP2 ADD SWAP1 POP PUSH2 0x73E2 JUMP JUMPDEST DUP7 DUP4 LT ISZERO PUSH2 0x7424 JUMPI DUP5 DUP10 ADD MLOAD PUSH2 0x7420 PUSH1 0x1F DUP10 AND DUP3 PUSH2 0x7333 JUMP JUMPDEST DUP4 SSTORE POP JUMPDEST PUSH1 0x1 PUSH1 0x2 DUP9 MUL ADD DUP9 SSTORE POP POP POP JUMPDEST POP POP POP POP POP POP JUMP JUMPDEST PUSH0 PUSH1 0x80 DUP3 ADD SWAP1 POP PUSH2 0x744C PUSH0 DUP4 ADD DUP8 PUSH2 0x5F9C JUMP JUMPDEST PUSH2 0x7459 PUSH1 0x20 DUP4 ADD DUP7 PUSH2 0x5F8D JUMP JUMPDEST PUSH2 0x7466 PUSH1 0x40 DUP4 ADD DUP6 PUSH2 0x6A1C JUMP JUMPDEST PUSH2 0x7473 PUSH1 0x60 DUP4 ADD DUP5 PUSH2 0x5F9C JUMP JUMPDEST SWAP6 SWAP5 POP POP POP POP POP JUMP JUMPDEST PUSH32 0x4F6E6C7920706179726F6C6C20636F72652063616E2063616C6C000000000000 PUSH0 DUP3 ADD MSTORE POP JUMP JUMPDEST PUSH0 PUSH2 0x74B0 PUSH1 0x1A DUP4 PUSH2 0x6A2B JUMP JUMPDEST SWAP2 POP PUSH2 0x74BB DUP3 PUSH2 0x747C JUMP JUMPDEST PUSH1 0x20 DUP3 ADD SWAP1 POP SWAP2 SWAP1 POP JUMP JUMPDEST PUSH0 PUSH1 0x20 DUP3 ADD SWAP1 POP DUP2 DUP2 SUB PUSH0 DUP4 ADD MSTORE PUSH2 0x74DD DUP2 PUSH2 0x74A4 JUMP JUMPDEST SWAP1 POP SWAP2 SWAP1 POP JUMP JUMPDEST PUSH32 0x496E76616C6964207061796D656E742049440000000000000000000000000000 PUSH0 DUP3 ADD MSTORE POP JUMP JUMPDEST PUSH0 PUSH2 0x7518 PUSH1 0x12 DUP4 PUSH2 0x6A2B JUMP JUMPDEST SWAP2 POP PUSH2 0x7523 DUP3 PUSH2 0x74E4 JUMP JUMPDEST PUSH1 0x20 DUP3 ADD SWAP1 POP SWAP2 SWAP1 POP JUMP JUMPDEST PUSH0 PUSH1 0x20 DUP3 ADD SWAP1 POP DUP2 DUP2 SUB PUSH0 DUP4 ADD MSTORE PUSH2 0x7545 DUP2 PUSH2 0x750C JUMP JUMPDEST SWAP1 POP SWAP2 SWAP1 POP JUMP JUMPDEST PUSH32 0x5061796D656E74206E6F74206661696C65640000000000000000000000000000 PUSH0 DUP3 ADD MSTORE POP JUMP JUMPDEST PUSH0 PUSH2 0x7580 PUSH1 0x12 DUP4 PUSH2 0x6A2B JUMP JUMPDEST SWAP2 POP PUSH2 0x758B DUP3 PUSH2 0x754C JUMP JUMPDEST PUSH1 0x20 DUP3 ADD SWAP1 POP SWAP2 SWAP1 POP JUMP JUMPDEST PUSH0 PUSH1 0x20 DUP3 ADD SWAP1 POP DUP2 DUP2 SUB PUSH0 DUP4 ADD MSTORE PUSH2 0x75AD DUP2 PUSH2 0x7574 JUMP JUMPDEST SWAP1 POP SWAP2 SWAP1 POP JUMP JUMPDEST PUSH32 0x4D61782072657472696573206578636565646564000000000000000000000000 PUSH0 DUP3 ADD MSTORE POP JUMP JUMPDEST PUSH0 PUSH2 0x75E8 PUSH1 0x14 DUP4 PUSH2 0x6A2B JUMP JUMPDEST SWAP2 POP PUSH2 0x75F3 DUP3 PUSH2 0x75B4 JUMP JUMPDEST PUSH1 0x20 DUP3 ADD SWAP1 POP SWAP2 SWAP1 POP JUMP JUMPDEST PUSH0 PUSH1 0x20 DUP3 ADD SWAP1 POP DUP2 DUP2 SUB PUSH0 DUP4 ADD MSTORE PUSH2 0x7615 DUP2 PUSH2 0x75DC JUMP JUMPDEST SWAP1 POP SWAP2 SWAP1 POP JUMP JUMPDEST PUSH0 PUSH2 0x7626 DUP3 PUSH2 0x5EAB JUMP JUMPDEST SWAP2 POP PUSH2 0x7631 DUP4 PUSH2 0x5EAB JUMP JUMPDEST SWAP3 POP DUP3 DUP3 ADD SWAP1 POP DUP1 DUP3 GT ISZERO PUSH2 0x7649 JUMPI PUSH2 0x7648 PUSH2 0x70A8 JUMP JUMPDEST JUMPDEST SWAP3 SWAP2 POP POP JUMP JUMPDEST PUSH0 PUSH2 0x7659 DUP3 PUSH2 0x5EAB JUMP JUMPDEST SWAP2 POP PUSH2 0x7664 DUP4 PUSH2 0x5EAB JUMP JUMPDEST SWAP3 POP DUP3 DUP3 MUL PUSH2 0x7672 DUP2 PUSH2 0x5EAB JUMP JUMPDEST SWAP2 POP DUP3 DUP3 DIV DUP5 EQ DUP4 ISZERO OR PUSH2 0x7689 JUMPI PUSH2 0x7688 PUSH2 0x70A8 JUMP JUMPDEST JUMPDEST POP SWAP3 SWAP2 POP POP JUMP JUMPDEST PUSH32 0x52657472792064656C6179206E6F74206D657400000000000000000000000000 PUSH0 DUP3 ADD MSTORE POP JUMP JUMPDEST PUSH0 PUSH2 0x76C4 PUSH1 0x13 DUP4 PUSH2 0x6A2B JUMP JUMPDEST SWAP2 POP PUSH2 0x76CF DUP3 PUSH2 0x7690 JUMP JUMPDEST PUSH1 0x20 DUP3 ADD SWAP1 POP SWAP2 SWAP1 POP JUMP JUMPDEST PUSH0 PUSH1 0x20 DUP3 ADD SWAP1 POP DUP2 DUP2 SUB PUSH0 DUP4 ADD MSTORE PUSH2 0x76F1 DUP2 PUSH2 0x76B8 JUMP JUMPDEST SWAP1 POP SWAP2 SWAP1 POP JUMP JUMPDEST PUSH0 PUSH2 0x7702 DUP3 PUSH2 0x5EAB JUMP JUMPDEST SWAP2 POP PUSH0 DUP3 SUB PUSH2 0x7714 JUMPI PUSH2 0x7713 PUSH2 0x70A8 JUMP JUMPDEST JUMPDEST PUSH1 0x1 DUP3 SUB SWAP1 POP SWAP2 SWAP1 POP JUMP JUMPDEST PUSH0 PUSH1 0x40 DUP3 ADD SWAP1 POP PUSH2 0x7732 PUSH0 DUP4 ADD DUP6 PUSH2 0x5F9C JUMP JUMPDEST PUSH2 0x773F PUSH1 0x20 DUP4 ADD DUP5 PUSH2 0x5F9C JUMP JUMPDEST SWAP4 SWAP3 POP POP POP JUMP JUMPDEST PUSH32 0x4172726179206C656E677468206D69736D617463680000000000000000000000 PUSH0 DUP3 ADD MSTORE POP JUMP JUMPDEST PUSH0 PUSH2 0x777A PUSH1 0x15 DUP4 PUSH2 0x6A2B JUMP JUMPDEST SWAP2 POP PUSH2 0x7785 DUP3 PUSH2 0x7746 JUMP JUMPDEST PUSH1 0x20 DUP3 ADD SWAP1 POP SWAP2 SWAP1 POP JUMP JUMPDEST PUSH0 PUSH1 0x20 DUP3 ADD SWAP1 POP DUP2 DUP2 SUB PUSH0 DUP4 ADD MSTORE PUSH2 0x77A7 DUP2 PUSH2 0x776E JUMP JUMPDEST SWAP1 POP SWAP2 SWAP1 POP JUMP JUMPDEST PUSH32 0x4E6F20656D706C6F796565732073706563696669656400000000000000000000 PUSH0 DUP3 ADD MSTORE POP JUMP JUMPDEST PUSH0 PUSH2 0x77E2 PUSH1 0x16 DUP4 PUSH2 0x6A2B JUMP JUMPDEST SWAP2 POP PUSH2 0x77ED DUP3 PUSH2 0x77AE JUMP JUMPDEST PUSH1 0x20 DUP3 ADD SWAP1 POP SWAP2 SWAP1 POP JUMP JUMPDEST PUSH0 PUSH1 0x20 DUP3 ADD SWAP1 POP DUP2 DUP2 SUB PUSH0 DUP4 ADD MSTORE PUSH2 0x780F DUP2 PUSH2 0x77D6 JUMP JUMPDEST SWAP1 POP SWAP2 SWAP1 POP JUMP JUMPDEST PUSH0 PUSH1 0x40 DUP3 ADD SWAP1 POP PUSH2 0x7829 PUSH0 DUP4 ADD DUP6 PUSH2 0x5F9C JUMP JUMPDEST PUSH2 0x7836 PUSH1 0x20 DUP4 ADD DUP5 PUSH2 0x5F1A JUMP JUMPDEST SWAP4 SWAP3 POP POP POP JUMP JUMPDEST PUSH32 0x4261746368206E6F7420617070726F7665640000000000000000000000000000 PUSH0 DUP3 ADD MSTORE POP JUMP JUMPDEST PUSH0 PUSH2 0x7871 PUSH1 0x12 DUP4 PUSH2 0x6A2B JUMP JUMPDEST SWAP2 POP PUSH2 0x787C DUP3 PUSH2 0x783D JUMP JUMPDEST PUSH1 0x20 DUP3 ADD SWAP1 POP SWAP2 SWAP1 POP JUMP JUMPDEST PUSH0 PUSH1 0x20 DUP3 ADD SWAP1 POP DUP2 DUP2 SUB PUSH0 DUP4 ADD MSTORE PUSH2 0x789E DUP2 PUSH2 0x7865 JUMP JUMPDEST SWAP1 POP SWAP2 SWAP1 POP JUMP JUMPDEST PUSH32 0x426174636820616C72656164792070726F636573736564000000000000000000 PUSH0 DUP3 ADD MSTORE POP JUMP JUMPDEST PUSH0 PUSH2 0x78D9 PUSH1 0x17 DUP4 PUSH2 0x6A2B JUMP JUMPDEST SWAP2 POP PUSH2 0x78E4 DUP3 PUSH2 0x78A5 JUMP JUMPDEST PUSH1 0x20 DUP3 ADD SWAP1 POP SWAP2 SWAP1 POP JUMP JUMPDEST PUSH0 PUSH1 0x20 DUP3 ADD SWAP1 POP DUP2 DUP2 SUB PUSH0 DUP4 ADD MSTORE PUSH2 0x7906 DUP2 PUSH2 0x78CD JUMP JUMPDEST SWAP1 POP SWAP2 SWAP1 POP JUMP JUMPDEST PUSH0 PUSH1 0x80 DUP3 ADD SWAP1 POP PUSH2 0x7920 PUSH0 DUP4 ADD DUP8 PUSH2 0x5F9C JUMP JUMPDEST PUSH2 0x792D PUSH1 0x20 DUP4 ADD DUP7 PUSH2 0x5F9C JUMP JUMPDEST PUSH2 0x793A PUSH1 0x40 DUP4 ADD DUP6 PUSH2 0x5F9C JUMP JUMPDEST PUSH2 0x7947 PUSH1 0x60 DUP4 ADD DUP5 PUSH2 0x5F9C JUMP JUMPDEST SWAP6 SWAP5 POP POP POP POP POP JUMP JUMPDEST PUSH32 0x42415443485F5041594D454E545F50524F434553534544000000000000000000 PUSH0 DUP3 ADD MSTORE POP JUMP JUMPDEST PUSH0 PUSH2 0x7984 PUSH1 0x17 DUP4 PUSH2 0x6A2B JUMP JUMPDEST SWAP2 POP PUSH2 0x798F DUP3 PUSH2 0x7950 JUMP JUMPDEST PUSH1 0x20 DUP3 ADD SWAP1 POP SWAP2 SWAP1 POP JUMP JUMPDEST PUSH0 DUP2 MLOAD SWAP1 POP SWAP2 SWAP1 POP JUMP JUMPDEST PUSH0 DUP3 DUP3 MSTORE PUSH1 0x20 DUP3 ADD SWAP1 POP SWAP3 SWAP2 POP POP JUMP JUMPDEST PUSH0 PUSH2 0x79BE DUP3 PUSH2 0x799A JUMP JUMPDEST PUSH2 0x79C8 DUP2 DUP6 PUSH2 0x79A4 JUMP JUMPDEST SWAP4 POP PUSH2 0x79D8 DUP2 DUP6 PUSH1 0x20 DUP7 ADD PUSH2 0x6808 JUMP JUMPDEST PUSH2 0x79E1 DUP2 PUSH2 0x6471 JUMP JUMPDEST DUP5 ADD SWAP2 POP POP SWAP3 SWAP2 POP POP JUMP JUMPDEST PUSH0 PUSH1 0x60 DUP3 ADD SWAP1 POP PUSH2 0x79FF PUSH0 DUP4 ADD DUP6 PUSH2 0x5F1A JUMP JUMPDEST DUP2 DUP2 SUB PUSH1 0x20 DUP4 ADD MSTORE PUSH2 0x7A10 DUP2 PUSH2 0x7978 JUMP JUMPDEST SWAP1 POP DUP2 DUP2 SUB PUSH1 0x40 DUP4 ADD MSTORE PUSH2 0x7A24 DUP2 DUP5 PUSH2 0x79B4 JUMP JUMPDEST SWAP1 POP SWAP4 SWAP3 POP POP POP JUMP JUMPDEST PUSH0 PUSH2 0x7A3F PUSH2 0x7A3A DUP5 PUSH2 0x64F9 JUMP JUMPDEST PUSH2 0x64DF JUMP JUMPDEST SWAP1 POP DUP1 DUP4 DUP3 MSTORE PUSH1 0x20 DUP3 ADD SWAP1 POP PUSH1 0x20 DUP5 MUL DUP4 ADD DUP6 DUP2 GT ISZERO PUSH2 0x7A62 JUMPI PUSH2 0x7A61 PUSH2 0x6524 JUMP JUMPDEST JUMPDEST DUP4 JUMPDEST DUP2 DUP2 LT ISZERO PUSH2 0x7A8B JUMPI DUP1 PUSH2 0x7A77 DUP9 DUP3 PUSH2 0x6E77 JUMP JUMPDEST DUP5 MSTORE PUSH1 0x20 DUP5 ADD SWAP4 POP POP PUSH1 0x20 DUP2 ADD SWAP1 POP PUSH2 0x7A64 JUMP JUMPDEST POP POP POP SWAP4 SWAP3 POP POP POP JUMP JUMPDEST PUSH0 DUP3 PUSH1 0x1F DUP4 ADD SLT PUSH2 0x7AA9 JUMPI PUSH2 0x7AA8 PUSH2 0x646D JUMP JUMPDEST JUMPDEST DUP2 MLOAD PUSH2 0x7AB9 DUP5 DUP3 PUSH1 0x20 DUP7 ADD PUSH2 0x7A2D JUMP JUMPDEST SWAP2 POP POP SWAP3 SWAP2 POP POP JUMP JUMPDEST PUSH0 PUSH1 0x20 DUP3 DUP5 SUB SLT ISZERO PUSH2 0x7AD7 JUMPI PUSH2 0x7AD6 PUSH2 0x5D5D JUMP JUMPDEST JUMPDEST PUSH0 DUP3 ADD MLOAD PUSH8 0xFFFFFFFFFFFFFFFF DUP2 GT ISZERO PUSH2 0x7AF4 JUMPI PUSH2 0x7AF3 PUSH2 0x5D61 JUMP JUMPDEST JUMPDEST PUSH2 0x7B00 DUP5 DUP3 DUP6 ADD PUSH2 0x7A95 JUMP JUMPDEST SWAP2 POP POP SWAP3 SWAP2 POP POP JUMP JUMPDEST PUSH0 PUSH1 0x20 DUP3 DUP5 SUB SLT ISZERO PUSH2 0x7B1E JUMPI PUSH2 0x7B1D PUSH2 0x5D5D JUMP JUMPDEST JUMPDEST PUSH0 PUSH2 0x7B2B DUP5 DUP3 DUP6 ADD PUSH2 0x6E8B JUMP JUMPDEST SWAP2 POP POP SWAP3 SWAP2 POP POP JUMP JUMPDEST PUSH0 PUSH1 0x60 DUP3 ADD SWAP1 POP PUSH2 0x7B47 PUSH0 DUP4 ADD DUP7 PUSH2 0x5F9C JUMP JUMPDEST PUSH2 0x7B54 PUSH1 0x20 DUP4 ADD DUP6 PUSH2 0x5F9C JUMP JUMPDEST PUSH2 0x7B61 PUSH1 0x40 DUP4 ADD DUP5 PUSH2 0x5F9C JUMP JUMPDEST SWAP5 SWAP4 POP POP POP POP JUMP JUMPDEST PUSH32 0x5343484544554C45445F5041594D454E54535F50524F43455353454400000000 PUSH0 DUP3 ADD MSTORE POP JUMP JUMPDEST PUSH0 PUSH2 0x7B9D PUSH1 0x1C DUP4 PUSH2 0x6A2B JUMP JUMPDEST SWAP2 POP PUSH2 0x7BA8 DUP3 PUSH2 0x7B69 JUMP JUMPDEST PUSH1 0x20 DUP3 ADD SWAP1 POP SWAP2 SWAP1 POP JUMP JUMPDEST PUSH0 PUSH1 0x60 DUP3 ADD SWAP1 POP PUSH2 0x7BC6 PUSH0 DUP4 ADD DUP6 PUSH2 0x5F1A JUMP JUMPDEST DUP2 DUP2 SUB PUSH1 0x20 DUP4 ADD MSTORE PUSH2 0x7BD7 DUP2 PUSH2 0x7B91 JUMP JUMPDEST SWAP1 POP DUP2 DUP2 SUB PUSH1 0x40 DUP4 ADD MSTORE PUSH2 0x7BEB DUP2 DUP5 PUSH2 0x79B4 JUMP JUMPDEST SWAP1 POP SWAP4 SWAP3 POP POP POP JUMP JUMPDEST PUSH32 0x426174636820616C726561647920617070726F76656400000000000000000000 PUSH0 DUP3 ADD MSTORE POP JUMP JUMPDEST PUSH0 PUSH2 0x7C28 PUSH1 0x16 DUP4 PUSH2 0x6A2B JUMP JUMPDEST SWAP2 POP PUSH2 0x7C33 DUP3 PUSH2 0x7BF4 JUMP JUMPDEST PUSH1 0x20 DUP3 ADD SWAP1 POP SWAP2 SWAP1 POP JUMP JUMPDEST PUSH0 PUSH1 0x20 DUP3 ADD SWAP1 POP DUP2 DUP2 SUB PUSH0 DUP4 ADD MSTORE PUSH2 0x7C55 DUP2 PUSH2 0x7C1C JUMP JUMPDEST SWAP1 POP SWAP2 SWAP1 POP JUMP JUMPDEST PUSH32 0x426174636820646F65736E2774207265717569726520617070726F76616C0000 PUSH0 DUP3 ADD MSTORE POP JUMP JUMPDEST PUSH0 PUSH2 0x7C90 PUSH1 0x1E DUP4 PUSH2 0x6A2B JUMP JUMPDEST SWAP2 POP PUSH2 0x7C9B DUP3 PUSH2 0x7C5C JUMP JUMPDEST PUSH1 0x20 DUP3 ADD SWAP1 POP SWAP2 SWAP1 POP JUMP JUMPDEST PUSH0 PUSH1 0x20 DUP3 ADD SWAP1 POP DUP2 DUP2 SUB PUSH0 DUP4 ADD MSTORE PUSH2 0x7CBD DUP2 PUSH2 0x7C84 JUMP JUMPDEST SWAP1 POP SWAP2 SWAP1 POP JUMP JUMPDEST PUSH0 PUSH1 0x60 DUP3 ADD SWAP1 POP PUSH2 0x7CD7 PUSH0 DUP4 ADD DUP7 PUSH2 0x5F1A JUMP JUMPDEST PUSH2 0x7CE4 PUSH1 0x20 DUP4 ADD DUP6 PUSH2 0x5F1A JUMP JUMPDEST PUSH2 0x7CF1 PUSH1 0x40 DUP4 ADD DUP5 PUSH2 0x5F9C JUMP JUMPDEST SWAP5 SWAP4 POP POP POP POP JUMP JUMPDEST PUSH32 0x5265656E7472616E637947756172643A207265656E7472616E742063616C6C00 PUSH0 DUP3 ADD MSTORE POP JUMP JUMPDEST PUSH0 PUSH2 0x7D2D PUSH1 0x1F DUP4 PUSH2 0x6A2B JUMP JUMPDEST SWAP2 POP PUSH2 0x7D38 DUP3 PUSH2 0x7CF9 JUMP JUMPDEST PUSH1 0x20 DUP3 ADD SWAP1 POP SWAP2 SWAP1 POP JUMP JUMPDEST PUSH0 PUSH1 0x20 DUP3 ADD SWAP1 POP DUP2 DUP2 SUB PUSH0 DUP4 ADD MSTORE PUSH2 0x7D5A DUP2 PUSH2 0x7D21 JUMP JUMPDEST SWAP1 POP SWAP2 SWAP1 POP JUMP JUMPDEST PUSH0 DUP2 SWAP1 POP SWAP3 SWAP2 POP POP JUMP JUMPDEST PUSH32 0x456D706C6F7965653A2000000000000000000000000000000000000000000000 PUSH0 DUP3 ADD MSTORE POP JUMP JUMPDEST PUSH0 PUSH2 0x7D9F PUSH1 0xA DUP4 PUSH2 0x7D61 JUMP JUMPDEST SWAP2 POP PUSH2 0x7DAA DUP3 PUSH2 0x7D6B JUMP JUMPDEST PUSH1 0xA DUP3 ADD SWAP1 POP SWAP2 SWAP1 POP JUMP JUMPDEST PUSH0 PUSH2 0x7DBF DUP3 PUSH2 0x67EE JUMP JUMPDEST PUSH2 0x7DC9 DUP2 DUP6 PUSH2 0x7D61 JUMP JUMPDEST SWAP4 POP PUSH2 0x7DD9 DUP2 DUP6 PUSH1 0x20 DUP7 ADD PUSH2 0x6808 JUMP JUMPDEST DUP1 DUP5 ADD SWAP2 POP POP SWAP3 SWAP2 POP POP JUMP JUMPDEST PUSH32 0x20416D6F756E743A200000000000000000000000000000000000000000000000 PUSH0 DUP3 ADD MSTORE POP JUMP JUMPDEST PUSH0 PUSH2 0x7E19 PUSH1 0x9 DUP4 PUSH2 0x7D61 JUMP JUMPDEST SWAP2 POP PUSH2 0x7E24 DUP3 PUSH2 0x7DE5 JUMP JUMPDEST PUSH1 0x9 DUP3 ADD SWAP1 POP SWAP2 SWAP1 POP JUMP JUMPDEST PUSH32 0x20546F6B656E3A20000000000000000000000000000000000000000000000000 PUSH0 DUP3 ADD MSTORE POP JUMP JUMPDEST PUSH0 PUSH2 0x7E63 PUSH1 0x8 DUP4 PUSH2 0x7D61 JUMP JUMPDEST SWAP2 POP PUSH2 0x7E6E DUP3 PUSH2 0x7E2F JUMP JUMPDEST PUSH1 0x8 DUP3 ADD SWAP1 POP SWAP2 SWAP1 POP JUMP JUMPDEST PUSH32 0x2054696D657374616D703A200000000000000000000000000000000000000000 PUSH0 DUP3 ADD MSTORE POP JUMP JUMPDEST PUSH0 PUSH2 0x7EAD PUSH1 0xC DUP4 PUSH2 0x7D61 JUMP JUMPDEST SWAP2 POP PUSH2 0x7EB8 DUP3 PUSH2 0x7E79 JUMP JUMPDEST PUSH1 0xC DUP3 ADD SWAP1 POP SWAP2 SWAP1 POP JUMP JUMPDEST PUSH0 PUSH2 0x7ECD DUP3 PUSH2 0x7D93 JUMP JUMPDEST SWAP2 POP PUSH2 0x7ED9 DUP3 DUP8 PUSH2 0x7DB5 JUMP JUMPDEST SWAP2 POP PUSH2 0x7EE4 DUP3 PUSH2 0x7E0D JUMP JUMPDEST SWAP2 POP PUSH2 0x7EF0 DUP3 DUP7 PUSH2 0x7DB5 JUMP JUMPDEST SWAP2 POP PUSH2 0x7EFB DUP3 PUSH2 0x7E57 JUMP JUMPDEST SWAP2 POP PUSH2 0x7F07 DUP3 DUP6 PUSH2 0x7DB5 JUMP JUMPDEST SWAP2 POP PUSH2 0x7F12 DUP3 PUSH2 0x7EA1 JUMP JUMPDEST SWAP2 POP PUSH2 0x7F1E DUP3 DUP5 PUSH2 0x7DB5 JUMP JUMPDEST SWAP2 POP DUP2 SWAP1 POP SWAP6 SWAP5 POP POP POP POP POP JUMP JUMPDEST PUSH0 PUSH2 0x7F37 DUP3 DUP5 PUSH2 0x7DB5 JUMP JUMPDEST SWAP2 POP DUP2 SWAP1 POP SWAP3 SWAP2 POP POP JUMP JUMPDEST PUSH0 PUSH1 0x40 DUP3 ADD SWAP1 POP PUSH2 0x7F55 PUSH0 DUP4 ADD DUP6 PUSH2 0x5F9C JUMP JUMPDEST DUP2 DUP2 SUB PUSH1 0x20 DUP4 ADD MSTORE PUSH2 0x7F67 DUP2 DUP5 PUSH2 0x6A3B JUMP JUMPDEST SWAP1 POP SWAP4 SWAP3 POP POP POP JUMP JUMPDEST PUSH0 PUSH1 0xA0 DUP3 ADD SWAP1 POP PUSH2 0x7F83 PUSH0 DUP4 ADD DUP9 PUSH2 0x5F1A JUMP JUMPDEST PUSH2 0x7F90 PUSH1 0x20 DUP4 ADD DUP8 PUSH2 0x5F9C JUMP JUMPDEST PUSH2 0x7F9D PUSH1 0x40 DUP4 ADD DUP7 PUSH2 0x5F8D JUMP JUMPDEST PUSH2 0x7FAA PUSH1 0x60 DUP4 ADD DUP6 PUSH2 0x6A1C JUMP JUMPDEST PUSH2 0x7FB7 PUSH1 0x80 DUP4 ADD DUP5 PUSH2 0x5F9C JUMP JUMPDEST SWAP7 SWAP6 POP POP POP POP POP POP JUMP JUMPDEST PUSH32 0x5041594D454E545F50524F434553534544000000000000000000000000000000 PUSH0 DUP3 ADD MSTORE POP JUMP JUMPDEST PUSH0 PUSH2 0x7FF5 PUSH1 0x11 DUP4 PUSH2 0x6A2B JUMP JUMPDEST SWAP2 POP PUSH2 0x8000 DUP3 PUSH2 0x7FC1 JUMP JUMPDEST PUSH1 0x20 DUP3 ADD SWAP1 POP SWAP2 SWAP1 POP JUMP JUMPDEST PUSH0 PUSH1 0x60 DUP3 ADD SWAP1 POP PUSH2 0x801E PUSH0 DUP4 ADD DUP6 PUSH2 0x5F1A JUMP JUMPDEST DUP2 DUP2 SUB PUSH1 0x20 DUP4 ADD MSTORE PUSH2 0x802F DUP2 PUSH2 0x7FE9 JUMP JUMPDEST SWAP1 POP DUP2 DUP2 SUB PUSH1 0x40 DUP4 ADD MSTORE PUSH2 0x8043 DUP2 DUP5 PUSH2 0x79B4 JUMP JUMPDEST SWAP1 POP SWAP4 SWAP3 POP POP POP JUMP JUMPDEST PUSH0 PUSH1 0x40 DUP3 ADD SWAP1 POP PUSH2 0x805F PUSH0 DUP4 ADD DUP6 PUSH2 0x5F1A JUMP JUMPDEST PUSH2 0x806C PUSH1 0x20 DUP4 ADD DUP5 PUSH2 0x60D6 JUMP JUMPDEST SWAP4 SWAP3 POP POP POP JUMP JUMPDEST PUSH32 0x4E487B7100000000000000000000000000000000000000000000000000000000 PUSH0 MSTORE PUSH1 0x12 PUSH1 0x4 MSTORE PUSH1 0x24 PUSH0 REVERT JUMPDEST PUSH0 PUSH2 0x80AA DUP3 PUSH2 0x5EAB JUMP JUMPDEST SWAP2 POP PUSH2 0x80B5 DUP4 PUSH2 0x5EAB JUMP JUMPDEST SWAP3 POP DUP3 PUSH2 0x80C5 JUMPI PUSH2 0x80C4 PUSH2 0x8073 JUMP JUMPDEST JUMPDEST DUP3 DUP3 DIV SWAP1 POP SWAP3 SWAP2 POP POP JUMP JUMPDEST PUSH0 PUSH2 0x80DA DUP3 PUSH2 0x5EAB JUMP JUMPDEST SWAP2 POP PUSH2 0x80E5 DUP4 PUSH2 0x5EAB JUMP JUMPDEST SWAP3 POP DUP3 PUSH2 0x80F5 JUMPI PUSH2 0x80F4 PUSH2 0x8073 JUMP JUMPDEST JUMPDEST DUP3 DUP3 MOD SWAP1 POP SWAP3 SWAP2 POP POP JUMP JUMPDEST PUSH0 PUSH1 0xFF DUP3 AND SWAP1 POP SWAP2 SWAP1 POP JUMP JUMPDEST PUSH0 PUSH2 0x8116 DUP3 PUSH2 0x8100 JUMP JUMPDEST SWAP2 POP PUSH1 0xFF DUP3 SUB PUSH2 0x8129 JUMPI PUSH2 0x8128 PUSH2 0x70A8 JUMP JUMPDEST JUMPDEST PUSH1 0x1 DUP3 ADD SWAP1 POP SWAP2 SWAP1 POP JUMP INVALID LOG2 PUSH5 0x6970667358 0x22 SLT KECCAK256 PUSH27 0x4EB88452D66DF5D27749BB88FEE7CFD4437C79B80BC37A1A52DC15 0xA6 0x4E PUSH30 0x8E64736F6C634300081E0033000000000000000000000000000000000000 "
		},
		"gasEstimates": {
			"creation": {
				"codeDepositCost": "6626000",
				"executionCost": "infinite",
				"totalCost": "infinite"
			},
			"external": {
				"ADMIN_ROLE()": "392",
				"DEFAULT_ADMIN_ROLE()": "418",
				"FINANCE_ROLE()": "371",
				"approveBatchPayment(uint256)": "infinite",
				"auditLogger()": "infinite",
				"batchPayments(uint256)": "infinite",
				"batchProcessed(uint256)": "2873",
				"createBatchPayment(address[],address,uint256[],uint8)": "infinite",
				"employeeManager()": "infinite",
				"employeePaymentHistory(address,uint256)": "infinite",
				"estimatePaymentGas(address,address,uint256)": "infinite",
				"failedPaymentCount(address)": "2915",
				"getBatchPayment(uint256)": "infinite",
				"getFailedPaymentCount(address)": "2874",
				"getPaymentHistory(address)": "infinite",
				"getPaymentRecord(uint256)": "infinite",
				"getRoleAdmin(bytes32)": "infinite",
				"getTotalBatchPayments()": "2508",
				"getTotalPayments()": "2485",
				"grantRole(bytes32,address)": "infinite",
				"hasRole(bytes32,address)": "3254",
				"maxRetryAttempts()": "2514",
				"paymentHistory(uint256)": "infinite",
				"payrollCore()": "2575",
				"processBatchPayment(uint256)": "infinite",
				"processScheduledPayments()": "infinite",
				"processSinglePayment(address,address,uint256,uint8)": "infinite",
				"renounceRole(bytes32,address)": "infinite",
				"requireApprovalForPayments()": "2601",
				"retryDelay()": "2557",
				"retryFailedPayment(uint256)": "infinite",
				"revokeRole(bytes32,address)": "infinite",
				"setAuditLogger(address)": "26929",
				"setEmployeeManager(address)": "26974",
				"setMaxRetryAttempts(uint256)": "infinite",
				"setRequireApproval(bool)": "infinite",
				"setRetryDelay(uint256)": "infinite",
				"setTokenManager(address)": "26995",
				"supportsInterface(bytes4)": "764",
				"tokenManager()": "infinite"
			},
			"internal": {
				"_addressToString(address)": "infinite",
				"_bytes32ToString(bytes32)": "infinite",
				"_executePayment(struct PaymentProcessor.PaymentRecord memory)": "infinite",
				"_generateReceipt(struct PaymentProcessor.PaymentRecord memory)": "infinite",
				"_logPayment(struct PaymentProcessor.PaymentRecord memory)": "infinite",
				"_processSinglePaymentInternal(address,address,uint256,enum PaymentProcessor.PaymentType)": "infinite",
				"_uint256ToString(uint256)": "infinite"
			}
		},
		"methodIdentifiers": {
			"ADMIN_ROLE()": "75b238fc",
			"DEFAULT_ADMIN_ROLE()": "a217fddf",
			"FINANCE_ROLE()": "349b5954",
			"approveBatchPayment(uint256)": "b9ee6e55",
			"auditLogger()": "0921224b",
			"batchPayments(uint256)": "1457a872",
			"batchProcessed(uint256)": "e4dd015a",
			"createBatchPayment(address[],address,uint256[],uint8)": "7a08a7f9",
			"employeeManager()": "f649ec87",
			"employeePaymentHistory(address,uint256)": "8b5a3853",
			"estimatePaymentGas(address,address,uint256)": "c7d20e1b",
			"failedPaymentCount(address)": "153244e6",
			"getBatchPayment(uint256)": "2fcef5cc",
			"getFailedPaymentCount(address)": "9b101f9a",
			"getPaymentHistory(address)": "7da2ba7c",
			"getPaymentRecord(uint256)": "c1d446be",
			"getRoleAdmin(bytes32)": "248a9ca3",
			"getTotalBatchPayments()": "89e482ce",
			"getTotalPayments()": "708f29a6",
			"grantRole(bytes32,address)": "2f2ff15d",
			"hasRole(bytes32,address)": "91d14854",
			"maxRetryAttempts()": "bbd8acbe",
			"paymentHistory(uint256)": "a5e047b8",
			"payrollCore()": "a1c7c1a6",
			"processBatchPayment(uint256)": "80344c24",
			"processScheduledPayments()": "acefc3e7",
			"processSinglePayment(address,address,uint256,uint8)": "315873ff",
			"renounceRole(bytes32,address)": "36568abe",
			"requireApprovalForPayments()": "1acf39bf",
			"retryDelay()": "fb511477",
			"retryFailedPayment(uint256)": "526777e9",
			"revokeRole(bytes32,address)": "d547741f",
			"setAuditLogger(address)": "ade77ad3",
			"setEmployeeManager(address)": "460515a1",
			"setMaxRetryAttempts(uint256)": "59502d1f",
			"setRequireApproval(bool)": "d7e0e541",
			"setRetryDelay(uint256)": "8d7d2bd7",
			"setTokenManager(address)": "7cb2b79c",
			"supportsInterface(bytes4)": "01ffc9a7",
			"tokenManager()": "2a709b14"
		}
	},
	"abi": [
		{
			"inputs": [
				{
					"internalType": "address",
					"name": "_payrollCore",
					"type": "address"
				}
			],
			"stateMutability": "nonpayable",
			"type": "constructor"
		},
		{
			"inputs": [],
			"name": "AccessControlBadConfirmation",
			"type": "error"
		},
		{
			"inputs": [
				{
					"internalType": "address",
					"name": "account",
					"type": "address"
				},
				{
					"internalType": "bytes32",
					"name": "neededRole",
					"type": "bytes32"
				}
			],
			"name": "AccessControlUnauthorizedAccount",
			"type": "error"
		},
		{
			"anonymous": false,
			"inputs": [
				{
					"indexed": true,
					"internalType": "uint256",
					"name": "batchId",
					"type": "uint256"
				},
				{
					"indexed": false,
					"internalType": "address",
					"name": "approver",
					"type": "address"
				}
			],
			"name": "BatchPaymentApproved",
			"type": "event"
		},
		{
			"anonymous": false,
			"inputs": [
				{
					"indexed": true,
					"internalType": "uint256",
					"name": "batchId",
					"type": "uint256"
				},
				{
					"indexed": false,
					"internalType": "uint256",
					"name": "employeeCount",
					"type": "uint256"
				},
				{
					"indexed": false,
					"internalType": "address",
					"name": "token",
					"type": "address"
				}
			],
			"name": "BatchPaymentCreated",
			"type": "event"
		},
		{
			"anonymous": false,
			"inputs": [
				{
					"indexed": true,
					"internalType": "uint256",
					"name": "batchId",
					"type": "uint256"
				},
				{
					"indexed": false,
					"internalType": "uint256",
					"name": "successCount",
					"type": "uint256"
				},
				{
					"indexed": false,
					"internalType": "uint256",
					"name": "failureCount",
					"type": "uint256"
				}
			],
			"name": "BatchPaymentProcessed",
			"type": "event"
		},
		{
			"anonymous": false,
			"inputs": [
				{
					"indexed": true,
					"internalType": "address",
					"name": "employee",
					"type": "address"
				},
				{
					"indexed": true,
					"internalType": "address",
					"name": "token",
					"type": "address"
				},
				{
					"indexed": false,
					"internalType": "uint256",
					"name": "amount",
					"type": "uint256"
				},
				{
					"indexed": false,
					"internalType": "string",
					"name": "reason",
					"type": "string"
				},
				{
					"indexed": false,
					"internalType": "uint256",
					"name": "retryCount",
					"type": "uint256"
				}
			],
			"name": "PaymentFailed",
			"type": "event"
		},
		{
			"anonymous": false,
			"inputs": [
				{
					"indexed": true,
					"internalType": "address",
					"name": "employee",
					"type": "address"
				},
				{
					"indexed": true,
					"internalType": "address",
					"name": "token",
					"type": "address"
				},
				{
					"indexed": false,
					"internalType": "uint256",
					"name": "amount",
					"type": "uint256"
				},
				{
					"indexed": false,
					"internalType": "enum PaymentProcessor.PaymentType",
					"name": "paymentType",
					"type": "uint8"
				},
				{
					"indexed": false,
					"internalType": "enum PaymentProcessor.PaymentStatus",
					"name": "status",
					"type": "uint8"
				},
				{
					"indexed": false,
					"internalType": "uint256",
					"name": "gasUsed",
					"type": "uint256"
				}
			],
			"name": "PaymentProcessed",
			"type": "event"
		},
		{
			"anonymous": false,
			"inputs": [
				{
					"indexed": true,
					"internalType": "address",
					"name": "employee",
					"type": "address"
				},
				{
					"indexed": false,
					"internalType": "uint256",
					"name": "paymentId",
					"type": "uint256"
				},
				{
					"indexed": false,
					"internalType": "uint256",
					"name": "retryCount",
					"type": "uint256"
				}
			],
			"name": "PaymentRetried",
			"type": "event"
		},
		{
			"anonymous": false,
			"inputs": [
				{
					"indexed": true,
					"internalType": "address",
					"name": "employee",
					"type": "address"
				},
				{
					"indexed": false,
					"internalType": "uint256",
					"name": "paymentId",
					"type": "uint256"
				},
				{
					"indexed": false,
					"internalType": "string",
					"name": "ipfsHash",
					"type": "string"
				}
			],
			"name": "ReceiptGenerated",
			"type": "event"
		},
		{
			"anonymous": false,
			"inputs": [
				{
					"indexed": true,
					"internalType": "bytes32",
					"name": "role",
					"type": "bytes32"
				},
				{
					"indexed": true,
					"internalType": "bytes32",
					"name": "previousAdminRole",
					"type": "bytes32"
				},
				{
					"indexed": true,
					"internalType": "bytes32",
					"name": "newAdminRole",
					"type": "bytes32"
				}
			],
			"name": "RoleAdminChanged",
			"type": "event"
		},
		{
			"anonymous": false,
			"inputs": [
				{
					"indexed": true,
					"internalType": "bytes32",
					"name": "role",
					"type": "bytes32"
				},
				{
					"indexed": true,
					"internalType": "address",
					"name": "account",
					"type": "address"
				},
				{
					"indexed": true,
					"internalType": "address",
					"name": "sender",
					"type": "address"
				}
			],
			"name": "RoleGranted",
			"type": "event"
		},
		{
			"anonymous": false,
			"inputs": [
				{
					"indexed": true,
					"internalType": "bytes32",
					"name": "role",
					"type": "bytes32"
				},
				{
					"indexed": true,
					"internalType": "address",
					"name": "account",
					"type": "address"
				},
				{
					"indexed": true,
					"internalType": "address",
					"name": "sender",
					"type": "address"
				}
			],
			"name": "RoleRevoked",
			"type": "event"
		},
		{
			"inputs": [],
			"name": "ADMIN_ROLE",
			"outputs": [
				{
					"internalType": "bytes32",
					"name": "",
					"type": "bytes32"
				}
			],
			"stateMutability": "view",
			"type": "function"
		},
		{
			"inputs": [],
			"name": "DEFAULT_ADMIN_ROLE",
			"outputs": [
				{
					"internalType": "bytes32",
					"name": "",
					"type": "bytes32"
				}
			],
			"stateMutability": "view",
			"type": "function"
		},
		{
			"inputs": [],
			"name": "FINANCE_ROLE",
			"outputs": [
				{
					"internalType": "bytes32",
					"name": "",
					"type": "bytes32"
				}
			],
			"stateMutability": "view",
			"type": "function"
		},
		{
			"inputs": [
				{
					"internalType": "uint256",
					"name": "_batchId",
					"type": "uint256"
				}
			],
			"name": "approveBatchPayment",
			"outputs": [],
			"stateMutability": "nonpayable",
			"type": "function"
		},
		{
			"inputs": [],
			"name": "auditLogger",
			"outputs": [
				{
					"internalType": "contract AuditLogger",
					"name": "",
					"type": "address"
				}
			],
			"stateMutability": "view",
			"type": "function"
		},
		{
			"inputs": [
				{
					"internalType": "uint256",
					"name": "",
					"type": "uint256"
				}
			],
			"name": "batchPayments",
			"outputs": [
				{
					"internalType": "address",
					"name": "token",
					"type": "address"
				},
				{
					"internalType": "enum PaymentProcessor.PaymentType",
					"name": "paymentType",
					"type": "uint8"
				},
				{
					"internalType": "bool",
					"name": "requiresApproval",
					"type": "bool"
				},
				{
					"internalType": "bool",
					"name": "approved",
					"type": "bool"
				},
				{
					"internalType": "address",
					"name": "approver",
					"type": "address"
				},
				{
					"internalType": "uint256",
					"name": "timestamp",
					"type": "uint256"
				}
			],
			"stateMutability": "view",
			"type": "function"
		},
		{
			"inputs": [
				{
					"internalType": "uint256",
					"name": "",
					"type": "uint256"
				}
			],
			"name": "batchProcessed",
			"outputs": [
				{
					"internalType": "bool",
					"name": "",
					"type": "bool"
				}
			],
			"stateMutability": "view",
			"type": "function"
		},
		{
			"inputs": [
				{
					"internalType": "address[]",
					"name": "_employees",
					"type": "address[]"
				},
				{
					"internalType": "address",
					"name": "_token",
					"type": "address"
				},
				{
					"internalType": "uint256[]",
					"name": "_amounts",
					"type": "uint256[]"
				},
				{
					"internalType": "enum PaymentProcessor.PaymentType",
					"name": "_paymentType",
					"type": "uint8"
				}
			],
			"name": "createBatchPayment",
			"outputs": [
				{
					"internalType": "uint256",
					"name": "batchId",
					"type": "uint256"
				}
			],
			"stateMutability": "nonpayable",
			"type": "function"
		},
		{
			"inputs": [],
			"name": "employeeManager",
			"outputs": [
				{
					"internalType": "contract EmployeeManager",
					"name": "",
					"type": "address"
				}
			],
			"stateMutability": "view",
			"type": "function"
		},
		{
			"inputs": [
				{
					"internalType": "address",
					"name": "",
					"type": "address"
				},
				{
					"internalType": "uint256",
					"name": "",
					"type": "uint256"
				}
			],
			"name": "employeePaymentHistory",
			"outputs": [
				{
					"internalType": "address",
					"name": "employee",
					"type": "address"
				},
				{
					"internalType": "address",
					"name": "token",
					"type": "address"
				},
				{
					"internalType": "uint256",
					"name": "amount",
					"type": "uint256"
				},
				{
					"internalType": "uint256",
					"name": "timestamp",
					"type": "uint256"
				},
				{
					"internalType": "enum PaymentProcessor.PaymentType",
					"name": "paymentType",
					"type": "uint8"
				},
				{
					"internalType": "enum PaymentProcessor.PaymentStatus",
					"name": "status",
					"type": "uint8"
				},
				{
					"internalType": "string",
					"name": "receiptHash",
					"type": "string"
				},
				{
					"internalType": "uint256",
					"name": "gasUsed",
					"type": "uint256"
				},
				{
					"internalType": "uint256",
					"name": "retryCount",
					"type": "uint256"
				},
				{
					"internalType": "string",
					"name": "failureReason",
					"type": "string"
				}
			],
			"stateMutability": "view",
			"type": "function"
		},
		{
			"inputs": [
				{
					"internalType": "address",
					"name": "_token",
					"type": "address"
				},
				{
					"internalType": "address",
					"name": "_employee",
					"type": "address"
				},
				{
					"internalType": "uint256",
					"name": "_amount",
					"type": "uint256"
				}
			],
			"name": "estimatePaymentGas",
			"outputs": [
				{
					"internalType": "uint256",
					"name": "",
					"type": "uint256"
				}
			],
			"stateMutability": "view",
			"type": "function"
		},
		{
			"inputs": [
				{
					"internalType": "address",
					"name": "",
					"type": "address"
				}
			],
			"name": "failedPaymentCount",
			"outputs": [
				{
					"internalType": "uint256",
					"name": "",
					"type": "uint256"
				}
			],
			"stateMutability": "view",
			"type": "function"
		},
		{
			"inputs": [
				{
					"internalType": "uint256",
					"name": "_batchId",
					"type": "uint256"
				}
			],
			"name": "getBatchPayment",
			"outputs": [
				{
					"components": [
						{
							"internalType": "address[]",
							"name": "employees",
							"type": "address[]"
						},
						{
							"internalType": "address",
							"name": "token",
							"type": "address"
						},
						{
							"internalType": "uint256[]",
							"name": "amounts",
							"type": "uint256[]"
						},
						{
							"internalType": "enum PaymentProcessor.PaymentType",
							"name": "paymentType",
							"type": "uint8"
						},
						{
							"internalType": "bool",
							"name": "requiresApproval",
							"type": "bool"
						},
						{
							"internalType": "bool",
							"name": "approved",
							"type": "bool"
						},
						{
							"internalType": "address",
							"name": "approver",
							"type": "address"
						},
						{
							"internalType": "uint256",
							"name": "timestamp",
							"type": "uint256"
						}
					],
					"internalType": "struct PaymentProcessor.BatchPayment",
					"name": "",
					"type": "tuple"
				}
			],
			"stateMutability": "view",
			"type": "function"
		},
		{
			"inputs": [
				{
					"internalType": "address",
					"name": "_employee",
					"type": "address"
				}
			],
			"name": "getFailedPaymentCount",
			"outputs": [
				{
					"internalType": "uint256",
					"name": "",
					"type": "uint256"
				}
			],
			"stateMutability": "view",
			"type": "function"
		},
		{
			"inputs": [
				{
					"internalType": "address",
					"name": "_employee",
					"type": "address"
				}
			],
			"name": "getPaymentHistory",
			"outputs": [
				{
					"components": [
						{
							"internalType": "address",
							"name": "employee",
							"type": "address"
						},
						{
							"internalType": "address",
							"name": "token",
							"type": "address"
						},
						{
							"internalType": "uint256",
							"name": "amount",
							"type": "uint256"
						},
						{
							"internalType": "uint256",
							"name": "timestamp",
							"type": "uint256"
						},
						{
							"internalType": "enum PaymentProcessor.PaymentType",
							"name": "paymentType",
							"type": "uint8"
						},
						{
							"internalType": "enum PaymentProcessor.PaymentStatus",
							"name": "status",
							"type": "uint8"
						},
						{
							"internalType": "string",
							"name": "receiptHash",
							"type": "string"
						},
						{
							"internalType": "uint256",
							"name": "gasUsed",
							"type": "uint256"
						},
						{
							"internalType": "uint256",
							"name": "retryCount",
							"type": "uint256"
						},
						{
							"internalType": "string",
							"name": "failureReason",
							"type": "string"
						}
					],
					"internalType": "struct PaymentProcessor.PaymentRecord[]",
					"name": "",
					"type": "tuple[]"
				}
			],
			"stateMutability": "view",
			"type": "function"
		},
		{
			"inputs": [
				{
					"internalType": "uint256",
					"name": "_paymentId",
					"type": "uint256"
				}
			],
			"name": "getPaymentRecord",
			"outputs": [
				{
					"components": [
						{
							"internalType": "address",
							"name": "employee",
							"type": "address"
						},
						{
							"internalType": "address",
							"name": "token",
							"type": "address"
						},
						{
							"internalType": "uint256",
							"name": "amount",
							"type": "uint256"
						},
						{
							"internalType": "uint256",
							"name": "timestamp",
							"type": "uint256"
						},
						{
							"internalType": "enum PaymentProcessor.PaymentType",
							"name": "paymentType",
							"type": "uint8"
						},
						{
							"internalType": "enum PaymentProcessor.PaymentStatus",
							"name": "status",
							"type": "uint8"
						},
						{
							"internalType": "string",
							"name": "receiptHash",
							"type": "string"
						},
						{
							"internalType": "uint256",
							"name": "gasUsed",
							"type": "uint256"
						},
						{
							"internalType": "uint256",
							"name": "retryCount",
							"type": "uint256"
						},
						{
							"internalType": "string",
							"name": "failureReason",
							"type": "string"
						}
					],
					"internalType": "struct PaymentProcessor.PaymentRecord",
					"name": "",
					"type": "tuple"
				}
			],
			"stateMutability": "view",
			"type": "function"
		},
		{
			"inputs": [
				{
					"internalType": "bytes32",
					"name": "role",
					"type": "bytes32"
				}
			],
			"name": "getRoleAdmin",
			"outputs": [
				{
					"internalType": "bytes32",
					"name": "",
					"type": "bytes32"
				}
			],
			"stateMutability": "view",
			"type": "function"
		},
		{
			"inputs": [],
			"name": "getTotalBatchPayments",
			"outputs": [
				{
					"internalType": "uint256",
					"name": "",
					"type": "uint256"
				}
			],
			"stateMutability": "view",
			"type": "function"
		},
		{
			"inputs": [],
			"name": "getTotalPayments",
			"outputs": [
				{
					"internalType": "uint256",
					"name": "",
					"type": "uint256"
				}
			],
			"stateMutability": "view",
			"type": "function"
		},
		{
			"inputs": [
				{
					"internalType": "bytes32",
					"name": "role",
					"type": "bytes32"
				},
				{
					"internalType": "address",
					"name": "account",
					"type": "address"
				}
			],
			"name": "grantRole",
			"outputs": [],
			"stateMutability": "nonpayable",
			"type": "function"
		},
		{
			"inputs": [
				{
					"internalType": "bytes32",
					"name": "role",
					"type": "bytes32"
				},
				{
					"internalType": "address",
					"name": "account",
					"type": "address"
				}
			],
			"name": "hasRole",
			"outputs": [
				{
					"internalType": "bool",
					"name": "",
					"type": "bool"
				}
			],
			"stateMutability": "view",
			"type": "function"
		},
		{
			"inputs": [],
			"name": "maxRetryAttempts",
			"outputs": [
				{
					"internalType": "uint256",
					"name": "",
					"type": "uint256"
				}
			],
			"stateMutability": "view",
			"type": "function"
		},
		{
			"inputs": [
				{
					"internalType": "uint256",
					"name": "",
					"type": "uint256"
				}
			],
			"name": "paymentHistory",
			"outputs": [
				{
					"internalType": "address",
					"name": "employee",
					"type": "address"
				},
				{
					"internalType": "address",
					"name": "token",
					"type": "address"
				},
				{
					"internalType": "uint256",
					"name": "amount",
					"type": "uint256"
				},
				{
					"internalType": "uint256",
					"name": "timestamp",
					"type": "uint256"
				},
				{
					"internalType": "enum PaymentProcessor.PaymentType",
					"name": "paymentType",
					"type": "uint8"
				},
				{
					"internalType": "enum PaymentProcessor.PaymentStatus",
					"name": "status",
					"type": "uint8"
				},
				{
					"internalType": "string",
					"name": "receiptHash",
					"type": "string"
				},
				{
					"internalType": "uint256",
					"name": "gasUsed",
					"type": "uint256"
				},
				{
					"internalType": "uint256",
					"name": "retryCount",
					"type": "uint256"
				},
				{
					"internalType": "string",
					"name": "failureReason",
					"type": "string"
				}
			],
			"stateMutability": "view",
			"type": "function"
		},
		{
			"inputs": [],
			"name": "payrollCore",
			"outputs": [
				{
					"internalType": "address",
					"name": "",
					"type": "address"
				}
			],
			"stateMutability": "view",
			"type": "function"
		},
		{
			"inputs": [
				{
					"internalType": "uint256",
					"name": "_batchId",
					"type": "uint256"
				}
			],
			"name": "processBatchPayment",
			"outputs": [],
			"stateMutability": "nonpayable",
			"type": "function"
		},
		{
			"inputs": [],
			"name": "processScheduledPayments",
			"outputs": [],
			"stateMutability": "nonpayable",
			"type": "function"
		},
		{
			"inputs": [
				{
					"internalType": "address",
					"name": "_employee",
					"type": "address"
				},
				{
					"internalType": "address",
					"name": "_token",
					"type": "address"
				},
				{
					"internalType": "uint256",
					"name": "_amount",
					"type": "uint256"
				},
				{
					"internalType": "enum PaymentProcessor.PaymentType",
					"name": "_paymentType",
					"type": "uint8"
				}
			],
			"name": "processSinglePayment",
			"outputs": [
				{
					"internalType": "bool",
					"name": "success",
					"type": "bool"
				}
			],
			"stateMutability": "nonpayable",
			"type": "function"
		},
		{
			"inputs": [
				{
					"internalType": "bytes32",
					"name": "role",
					"type": "bytes32"
				},
				{
					"internalType": "address",
					"name": "callerConfirmation",
					"type": "address"
				}
			],
			"name": "renounceRole",
			"outputs": [],
			"stateMutability": "nonpayable",
			"type": "function"
		},
		{
			"inputs": [],
			"name": "requireApprovalForPayments",
			"outputs": [
				{
					"internalType": "bool",
					"name": "",
					"type": "bool"
				}
			],
			"stateMutability": "view",
			"type": "function"
		},
		{
			"inputs": [],
			"name": "retryDelay",
			"outputs": [
				{
					"internalType": "uint256",
					"name": "",
					"type": "uint256"
				}
			],
			"stateMutability": "view",
			"type": "function"
		},
		{
			"inputs": [
				{
					"internalType": "uint256",
					"name": "_paymentId",
					"type": "uint256"
				}
			],
			"name": "retryFailedPayment",
			"outputs": [],
			"stateMutability": "nonpayable",
			"type": "function"
		},
		{
			"inputs": [
				{
					"internalType": "bytes32",
					"name": "role",
					"type": "bytes32"
				},
				{
					"internalType": "address",
					"name": "account",
					"type": "address"
				}
			],
			"name": "revokeRole",
			"outputs": [],
			"stateMutability": "nonpayable",
			"type": "function"
		},
		{
			"inputs": [
				{
					"internalType": "address",
					"name": "_auditLogger",
					"type": "address"
				}
			],
			"name": "setAuditLogger",
			"outputs": [],
			"stateMutability": "nonpayable",
			"type": "function"
		},
		{
			"inputs": [
				{
					"internalType": "address",
					"name": "_employeeManager",
					"type": "address"
				}
			],
			"name": "setEmployeeManager",
			"outputs": [],
			"stateMutability": "nonpayable",
			"type": "function"
		},
		{
			"inputs": [
				{
					"internalType": "uint256",
					"name": "_maxRetries",
					"type": "uint256"
				}
			],
			"name": "setMaxRetryAttempts",
			"outputs": [],
			"stateMutability": "nonpayable",
			"type": "function"
		},
		{
			"inputs": [
				{
					"internalType": "bool",
					"name": "_requireApproval",
					"type": "bool"
				}
			],
			"name": "setRequireApproval",
			"outputs": [],
			"stateMutability": "nonpayable",
			"type": "function"
		},
		{
			"inputs": [
				{
					"internalType": "uint256",
					"name": "_delaySeconds",
					"type": "uint256"
				}
			],
			"name": "setRetryDelay",
			"outputs": [],
			"stateMutability": "nonpayable",
			"type": "function"
		},
		{
			"inputs": [
				{
					"internalType": "address payable",
					"name": "_tokenManager",
					"type": "address"
				}
			],
			"name": "setTokenManager",
			"outputs": [],
			"stateMutability": "nonpayable",
			"type": "function"
		},
		{
			"inputs": [
				{
					"internalType": "bytes4",
					"name": "interfaceId",
					"type": "bytes4"
				}
			],
			"name": "supportsInterface",
			"outputs": [
				{
					"internalType": "bool",
					"name": "",
					"type": "bool"
				}
			],
			"stateMutability": "view",
			"type": "function"
		},
		{
			"inputs": [],
			"name": "tokenManager",
			"outputs": [
				{
					"internalType": "contract TokenManager",
					"name": "",
					"type": "address"
				}
			],
			"stateMutability": "view",
			"type": "function"
		}
	]
}