{
	"data": {
		"bytecode": {
			"linkReferences": {},
			"object": "60a060405234801561000f575f5ffd5b506040516201b4bb3803806201b4bb83398181016040528101906100339190610958565b5f60015f6101000a81548160ff02191690831515021790555060016002819055505f845111610097576040517f08c379a000000000000000000000000000000000000000000000000000000000815260040161008e90610a6a565b60405180910390fd5b83600390816100a69190610c98565b5042608081815250506100c15f5f1b8461055660201b60201c565b506100f27fa49807205ce4d355092ef5a8a18f56e8913cf4a201fbe287825b095693c217758461055660201b60201c565b505f5f90505b82518110156101595761014b7fa49807205ce4d355092ef5a8a18f56e8913cf4a201fbe287825b095693c2177584838151811061013857610137610d67565b5b602002602001015161055660201b60201c565b5080806001019150506100f8565b5030604051610167906106b5565b6101719190610da3565b604051809103905ff08015801561018a573d5f5f3e3d5ffd5b5060045f6101000a81548173ffffffffffffffffffffffffffffffffffffffff021916908373ffffffffffffffffffffffffffffffffffffffff16021790555030816040516101d8906106c3565b6101e3929190610e73565b604051809103905ff0801580156101fc573d5f5f3e3d5ffd5b5060055f6101000a81548173ffffffffffffffffffffffffffffffffffffffff021916908373ffffffffffffffffffffffffffffffffffffffff16021790555030604051610249906106d1565b6102539190610da3565b604051809103905ff08015801561026c573d5f5f3e3d5ffd5b5060065f6101000a81548173ffffffffffffffffffffffffffffffffffffffff021916908373ffffffffffffffffffffffffffffffffffffffff160217905550306040516102b9906106df565b6102c39190610da3565b604051809103905ff0801580156102dc573d5f5f3e3d5ffd5b5060075f6101000a81548173ffffffffffffffffffffffffffffffffffffffff021916908373ffffffffffffffffffffffffffffffffffffffff16021790555060065f9054906101000a900473ffffffffffffffffffffffffffffffffffffffff1673ffffffffffffffffffffffffffffffffffffffff1663460515a160045f9054906101000a900473ffffffffffffffffffffffffffffffffffffffff166040518263ffffffff1660e01b81526004016103979190610da3565b5f604051808303815f87803b1580156103ae575f5ffd5b505af11580156103c0573d5f5f3e3d5ffd5b5050505060065f9054906101000a900473ffffffffffffffffffffffffffffffffffffffff1673ffffffffffffffffffffffffffffffffffffffff16637cb2b79c60055f9054906101000a900473ffffffffffffffffffffffffffffffffffffffff166040518263ffffffff1660e01b815260040161043f9190610ec1565b5f604051808303815f87803b158015610456575f5ffd5b505af1158015610468573d5f5f3e3d5ffd5b5050505060065f9054906101000a900473ffffffffffffffffffffffffffffffffffffffff1673ffffffffffffffffffffffffffffffffffffffff1663ade77ad360075f9054906101000a900473ffffffffffffffffffffffffffffffffffffffff166040518263ffffffff1660e01b81526004016104e79190610da3565b5f604051808303815f87803b1580156104fe575f5ffd5b505af1158015610510573d5f5f3e3d5ffd5b505050507fed75f6c1b543df3c0687e699f2a40d685a7850c67bf855ff72257b1344b173da8442604051610545929190610f21565b60405180910390a150505050610f4f565b5f610567838361064b60201b60201c565b6106415760015f5f8581526020019081526020015f205f015f8473ffffffffffffffffffffffffffffffffffffffff1673ffffffffffffffffffffffffffffffffffffffff1681526020019081526020015f205f6101000a81548160ff0219169083151502179055506105de6106ae60201b60201c565b73ffffffffffffffffffffffffffffffffffffffff168273ffffffffffffffffffffffffffffffffffffffff16847f2f8788117e7eff1d82e926ec794901d17c78024a50270940304540a733656f0d60405160405180910390a460019050610645565b5f90505b92915050565b5f5f5f8481526020019081526020015f205f015f8373ffffffffffffffffffffffffffffffffffffffff1673ffffffffffffffffffffffffffffffffffffffff1681526020019081526020015f205f9054906101000a900460ff16905092915050565b5f33905090565b6154c080620042df83390190565b615271806200979f83390190565b6182a3806200ea1083390190565b6148088062016cb383390190565b5f604051905090565b5f5ffd5b5f5ffd5b5f5ffd5b5f5ffd5b5f601f19601f8301169050919050565b7f4e487b71000000000000000000000000000000000000000000000000000000005f52604160045260245ffd5b61074c82610706565b810181811067ffffffffffffffff8211171561076b5761076a610716565b5b80604052505050565b5f61077d6106ed565b90506107898282610743565b919050565b5f67ffffffffffffffff8211156107a8576107a7610716565b5b6107b182610706565b9050602081019050919050565b8281835e5f83830152505050565b5f6107de6107d98461078e565b610774565b9050828152602081018484840111156107fa576107f9610702565b5b6108058482856107be565b509392505050565b5f82601f830112610821576108206106fe565b5b81516108318482602086016107cc565b91505092915050565b5f73ffffffffffffffffffffffffffffffffffffffff82169050919050565b5f6108638261083a565b9050919050565b61087381610859565b811461087d575f5ffd5b50565b5f8151905061088e8161086a565b92915050565b5f67ffffffffffffffff8211156108ae576108ad610716565b5b602082029050602081019050919050565b5f5ffd5b5f6108d56108d084610894565b610774565b905080838252602082019050602084028301858111156108f8576108f76108bf565b5b835b81811015610921578061090d8882610880565b8452602084019350506020810190506108fa565b5050509392505050565b5f82601f83011261093f5761093e6106fe565b5b815161094f8482602086016108c3565b91505092915050565b5f5f5f5f608085870312156109705761096f6106f6565b5b5f85015167ffffffffffffffff81111561098d5761098c6106fa565b5b6109998782880161080d565b94505060206109aa87828801610880565b935050604085015167ffffffffffffffff8111156109cb576109ca6106fa565b5b6109d78782880161092b565b925050606085015167ffffffffffffffff8111156109f8576109f76106fa565b5b610a048782880161092b565b91505092959194509250565b5f82825260208201905092915050565b7f436f6d70616e79206e616d6520726571756972656400000000000000000000005f82015250565b5f610a54601583610a10565b9150610a5f82610a20565b602082019050919050565b5f6020820190508181035f830152610a8181610a48565b9050919050565b5f81519050919050565b7f4e487b71000000000000000000000000000000000000000000000000000000005f52602260045260245ffd5b5f6002820490506001821680610ad657607f821691505b602082108103610ae957610ae8610a92565b5b50919050565b5f819050815f5260205f209050919050565b5f6020601f8301049050919050565b5f82821b905092915050565b5f60088302610b4b7fffffffffffffffffffffffffffffffffffffffffffffffffffffffffffffffff82610b10565b610b558683610b10565b95508019841693508086168417925050509392505050565b5f819050919050565b5f819050919050565b5f610b99610b94610b8f84610b6d565b610b76565b610b6d565b9050919050565b5f819050919050565b610bb283610b7f565b610bc6610bbe82610ba0565b848454610b1c565b825550505050565b5f5f905090565b610bdd610bce565b610be8818484610ba9565b505050565b5b81811015610c0b57610c005f82610bd5565b600181019050610bee565b5050565b601f821115610c5057610c2181610aef565b610c2a84610b01565b81016020851015610c39578190505b610c4d610c4585610b01565b830182610bed565b50505b505050565b5f82821c905092915050565b5f610c705f1984600802610c55565b1980831691505092915050565b5f610c888383610c61565b9150826002028217905092915050565b610ca182610a88565b67ffffffffffffffff811115610cba57610cb9610716565b5b610cc48254610abf565b610ccf828285610c0f565b5f60209050601f831160018114610d00575f8415610cee578287015190505b610cf88582610c7d565b865550610d5f565b601f198416610d0e86610aef565b5f5b82811015610d3557848901518255600182019150602085019450602081019050610d10565b86831015610d525784890151610d4e601f891682610c61565b8355505b6001600288020188555050505b505050505050565b7f4e487b71000000000000000000000000000000000000000000000000000000005f52603260045260245ffd5b610d9d81610859565b82525050565b5f602082019050610db65f830184610d94565b92915050565b5f81519050919050565b5f82825260208201905092915050565b5f819050602082019050919050565b610dee81610859565b82525050565b5f610dff8383610de5565b60208301905092915050565b5f602082019050919050565b5f610e2182610dbc565b610e2b8185610dc6565b9350610e3683610dd6565b805f5b83811015610e66578151610e4d8882610df4565b9750610e5883610e0b565b925050600181019050610e39565b5085935050505092915050565b5f604082019050610e865f830185610d94565b8181036020830152610e988184610e17565b90509392505050565b5f610eab8261083a565b9050919050565b610ebb81610ea1565b82525050565b5f602082019050610ed45f830184610eb2565b92915050565b5f610ee482610a88565b610eee8185610a10565b9350610efe8185602086016107be565b610f0781610706565b840191505092915050565b610f1b81610b6d565b82525050565b5f6040820190508181035f830152610f398185610eda565b9050610f486020830184610f12565b9392505050565b60805161337062000f6f5f395f8181610dcf015261185c01526133705ff3fe6080604052600436106101db575f3560e01c806391d1485411610101578063ecda10f511610094578063f3c6a19811610063578063f3c6a198146106b6578063f5ec2eed146106e0578063f60d1fb11461070a578063f649ec871461073257610268565b8063ecda10f514610612578063f1c6bdf81461063c578063f1ceff3314610666578063f3b3444b1461068e57610268565b8063bc4b3365116100d0578063bc4b33651461057e578063d547741f1461059a578063e2d82b45146105c2578063e63ea408146105ea57610268565b806391d14854146104da578063a217fddf14610516578063a4c1fd0814610540578063abfdf1991461055657610268565b8063349b59541161017957806350c1d19d1161014857806350c1d19d1461044257806351858e27146104705780635c975abb1461048657806375b238fc146104b057610268565b8063349b5954146103b257806336568abe146103dc57806341575bc3146104045780634a4e3bd51461042c57610268565b8063248a9ca3116101b5578063248a9ca3146102fa5780632a4cab90146103365780632a709b14146103605780632f2ff15d1461038a57610268565b806301ffc9a71461026c5780630921224b146102a857806318aaa219146102d257610268565b366102685760055f9054906101000a900473ffffffffffffffffffffffffffffffffffffffff1673ffffffffffffffffffffffffffffffffffffffff1663bc4b3365345f346040518463ffffffff1660e01b815260040161023d92919061227c565b5f604051808303818588803b158015610254575f5ffd5b505af1158015610266573d5f5f3e3d5ffd5b005b5f5ffd5b348015610277575f5ffd5b50610292600480360381019061028d91906122fc565b61075c565b60405161029f9190612341565b60405180910390f35b3480156102b3575f5ffd5b506102bc6107d5565b6040516102c991906123b5565b60405180910390f35b3480156102dd575f5ffd5b506102f860048036038101906102f391906123f8565b6107fa565b005b348015610305575f5ffd5b50610320600480360381019061031b9190612456565b6108fc565b60405161032d9190612490565b60405180910390f35b348015610341575f5ffd5b5061034a610918565b6040516103579190612490565b60405180910390f35b34801561036b575f5ffd5b5061037461093c565b60405161038191906124da565b60405180910390f35b348015610395575f5ffd5b506103b060048036038101906103ab91906124f3565b610961565b005b3480156103bd575f5ffd5b506103c6610983565b6040516103d39190612490565b60405180910390f35b3480156103e7575f5ffd5b5061040260048036038101906103fd91906124f3565b6109a7565b005b34801561040f575f5ffd5b5061042a6004803603810190610425919061256c565b610a22565b005b348015610437575f5ffd5b50610440610b76565b005b34801561044d575f5ffd5b50610456610ca1565b604051610467959493929190612607565b60405180910390f35b34801561047b575f5ffd5b50610484610e89565b005b348015610491575f5ffd5b5061049a610fb4565b6040516104a79190612341565b60405180910390f35b3480156104bb575f5ffd5b506104c4610fc9565b6040516104d19190612490565b60405180910390f35b3480156104e5575f5ffd5b5061050060048036038101906104fb91906124f3565b610fed565b60405161050d9190612341565b60405180910390f35b348015610521575f5ffd5b5061052a611050565b6040516105379190612490565b60405180910390f35b34801561054b575f5ffd5b50610554611056565b005b348015610561575f5ffd5b5061057c600480360381019061057791906123f8565b611186565b005b61059860048036038101906105939190612689565b6112da565b005b3480156105a5575f5ffd5b506105c060048036038101906105bb91906124f3565b61140b565b005b3480156105cd575f5ffd5b506105e860048036038101906105e391906126ea565b61142d565b005b3480156105f5575f5ffd5b50610610600480360381019061060b919061274e565b61161b565b005b34801561061d575f5ffd5b5061062661185a565b604051610633919061279e565b60405180910390f35b348015610647575f5ffd5b5061065061187e565b60405161065d91906127d7565b60405180910390f35b348015610671575f5ffd5b5061068c600480360381019061068791906123f8565b6118a3565b005b348015610699575f5ffd5b506106b460048036038101906106af91906123f8565b6119a5565b005b3480156106c1575f5ffd5b506106ca611b16565b6040516106d79190612490565b60405180910390f35b3480156106eb575f5ffd5b506106f4611b3a565b60405161070191906127f0565b60405180910390f35b348015610715575f5ffd5b50610730600480360381019061072b91906123f8565b611bc6565b005b34801561073d575f5ffd5b50610746611c93565b6040516107539190612830565b60405180910390f35b5f7f7965db0b000000000000000000000000000000000000000000000000000000007bffffffffffffffffffffffffffffffffffffffffffffffffffffffff1916827bffffffffffffffffffffffffffffffffffffffffffffffffffffffff191614806107ce57506107cd82611cb8565b5b9050919050565b60075f9054906101000a900473ffffffffffffffffffffffffffffffffffffffff1681565b7fa49807205ce4d355092ef5a8a18f56e8913cf4a201fbe287825b095693c2177561082481611d21565b61084e7ffd70517941c75212b0f9013e45c47a37d6d983c5304288c7af285f2ea40cbba783610961565b60075f9054906101000a900473ffffffffffffffffffffffffffffffffffffffff1673ffffffffffffffffffffffffffffffffffffffff166344c83b9733844260405160200161089f92919061227c565b6040516020818303038152906040526040518363ffffffff1660e01b81526004016108cb9291906128e5565b5f604051808303815f87803b1580156108e2575f5ffd5b505af11580156108f4573d5f5f3e3d5ffd5b505050505050565b5f5f5f8381526020019081526020015f20600101549050919050565b7f5a3425ea67e73c95853ecfc0c443062de292a303c186bc2aac1178ae1b86c62a81565b60055f9054906101000a900473ffffffffffffffffffffffffffffffffffffffff1681565b61096a826108fc565b61097381611d21565b61097d8383611d35565b50505050565b7f940d6b1946ff1d2b5a9f1909219c3c81a370804b5ba0f91ec0828c99a2e6a68181565b6109af611e1e565b73ffffffffffffffffffffffffffffffffffffffff168173ffffffffffffffffffffffffffffffffffffffff1614610a13576040517f6697b23200000000000000000000000000000000000000000000000000000000815260040160405180910390fd5b610a1d8282611e25565b505050565b7fa49807205ce4d355092ef5a8a18f56e8913cf4a201fbe287825b095693c21775610a4c81611d21565b5f60055f9054906101000a900473ffffffffffffffffffffffffffffffffffffffff1690508260055f6101000a81548173ffffffffffffffffffffffffffffffffffffffff021916908373ffffffffffffffffffffffffffffffffffffffff16021790555060065f9054906101000a900473ffffffffffffffffffffffffffffffffffffffff1673ffffffffffffffffffffffffffffffffffffffff16637cb2b79c846040518263ffffffff1660e01b8152600401610b0b9190612935565b5f604051808303815f87803b158015610b22575f5ffd5b505af1158015610b34573d5f5f3e3d5ffd5b505050507f2d8279ad7651b5dbb7aa22cc77609ced7f1ec004027c93ba5799dc5c39b1d7538184604051610b699291906129b8565b60405180910390a1505050565b7fa49807205ce4d355092ef5a8a18f56e8913cf4a201fbe287825b095693c21775610ba081611d21565b610ba8611f0e565b60075f9054906101000a900473ffffffffffffffffffffffffffffffffffffffff1673ffffffffffffffffffffffffffffffffffffffff166344c83b973342604051602001610bf7919061279e565b6040516020818303038152906040526040518363ffffffff1660e01b8152600401610c23929190612a3c565b5f604051808303815f87803b158015610c3a575f5ffd5b505af1158015610c4c573d5f5f3e3d5ffd5b505050503373ffffffffffffffffffffffffffffffffffffffff167fdacac23d353cc4fe05be85350ed1e8227ed9edf2323b7cb5aad3174e6a9ce1d642604051610c96919061279e565b60405180910390a250565b60605f5f5f5f6003610cb1610fb4565b60045f9054906101000a900473ffffffffffffffffffffffffffffffffffffffff1673ffffffffffffffffffffffffffffffffffffffff16635339c9956040518163ffffffff1660e01b8152600401602060405180830381865afa158015610d1b573d5f5f3e3d5ffd5b505050506040513d601f19601f82011682018060405250810190610d3f9190612a91565b60055f9054906101000a900473ffffffffffffffffffffffffffffffffffffffff1673ffffffffffffffffffffffffffffffffffffffff16631d1639236040518163ffffffff1660e01b8152600401602060405180830381865afa158015610da9573d5f5f3e3d5ffd5b505050506040513d601f19601f82011682018060405250810190610dcd9190612a91565b7f0000000000000000000000000000000000000000000000000000000000000000848054610dfa90612ae9565b80601f0160208091040260200160405190810160405280929190818152602001828054610e2690612ae9565b8015610e715780601f10610e4857610100808354040283529160200191610e71565b820191905f5260205f20905b815481529060010190602001808311610e5457829003601f168201915b50505050509450945094509450945094509091929394565b7fa49807205ce4d355092ef5a8a18f56e8913cf4a201fbe287825b095693c21775610eb381611d21565b610ebb611f6f565b60075f9054906101000a900473ffffffffffffffffffffffffffffffffffffffff1673ffffffffffffffffffffffffffffffffffffffff166344c83b973342604051602001610f0a919061279e565b6040516020818303038152906040526040518363ffffffff1660e01b8152600401610f36929190612b63565b5f604051808303815f87803b158015610f4d575f5ffd5b505af1158015610f5f573d5f5f3e3d5ffd5b505050503373ffffffffffffffffffffffffffffffffffffffff167f2e31b3b12b9bb0e82c32f27df5f234fabc95a374f54fd287a7132878d5dc9fc342604051610fa9919061279e565b60405180910390a250565b5f60015f9054906101000a900460ff16905090565b7fa49807205ce4d355092ef5a8a18f56e8913cf4a201fbe287825b095693c2177581565b5f5f5f8481526020019081526020015f205f015f8373ffffffffffffffffffffffffffffffffffffffff1673ffffffffffffffffffffffffffffffffffffffff1681526020019081526020015f205f9054906101000a900460ff16905092915050565b5f5f1b81565b6110807fa49807205ce4d355092ef5a8a18f56e8913cf4a201fbe287825b095693c2177533610fed565b806110b157506110b07f940d6b1946ff1d2b5a9f1909219c3c81a370804b5ba0f91ec0828c99a2e6a68133610fed565b5b6110f0576040517f08c379a00000000000000000000000000000000000000000000000000000000081526004016110e790612bee565b60405180910390fd5b6110f8611fd0565b61110061201a565b60065f9054906101000a900473ffffffffffffffffffffffffffffffffffffffff1673ffffffffffffffffffffffffffffffffffffffff1663acefc3e76040518163ffffffff1660e01b81526004015f604051808303815f87803b158015611166575f5ffd5b505af1158015611178573d5f5f3e3d5ffd5b50505050611184612067565b565b7fa49807205ce4d355092ef5a8a18f56e8913cf4a201fbe287825b095693c217756111b081611d21565b5f60045f9054906101000a900473ffffffffffffffffffffffffffffffffffffffff1690508260045f6101000a81548173ffffffffffffffffffffffffffffffffffffffff021916908373ffffffffffffffffffffffffffffffffffffffff16021790555060065f9054906101000a900473ffffffffffffffffffffffffffffffffffffffff1673ffffffffffffffffffffffffffffffffffffffff1663460515a1846040518263ffffffff1660e01b815260040161126f9190612c0c565b5f604051808303815f87803b158015611286575f5ffd5b505af1158015611298573d5f5f3e3d5ffd5b505050507f2d8279ad7651b5dbb7aa22cc77609ced7f1ec004027c93ba5799dc5c39b1d75381846040516112cd929190612c6f565b60405180910390a1505050565b6113047fa49807205ce4d355092ef5a8a18f56e8913cf4a201fbe287825b095693c2177533610fed565b8061133557506113347f940d6b1946ff1d2b5a9f1909219c3c81a370804b5ba0f91ec0828c99a2e6a68133610fed565b5b611374576040517f08c379a000000000000000000000000000000000000000000000000000000000815260040161136b90612bee565b60405180910390fd5b61137c611fd0565b60055f9054906101000a900473ffffffffffffffffffffffffffffffffffffffff1673ffffffffffffffffffffffffffffffffffffffff1663bc4b33653484846040518463ffffffff1660e01b81526004016113d992919061227c565b5f604051808303818588803b1580156113f0575f5ffd5b505af1158015611402573d5f5f3e3d5ffd5b50505050505050565b611414826108fc565b61141d81611d21565b6114278383611e25565b50505050565b6114577fa49807205ce4d355092ef5a8a18f56e8913cf4a201fbe287825b095693c2177533610fed565b8061148857506114877ffd70517941c75212b0f9013e45c47a37d6d983c5304288c7af285f2ea40cbba733610fed565b5b6114c7576040517f08c379a00000000000000000000000000000000000000000000000000000000081526004016114be90612cf3565b60405180910390fd5b6114cf611fd0565b60045f9054906101000a900473ffffffffffffffffffffffffffffffffffffffff1673ffffffffffffffffffffffffffffffffffffffff1663e2d82b45858585856040518563ffffffff1660e01b815260040161152f9493929190612d84565b5f604051808303815f87803b158015611546575f5ffd5b505af1158015611558573d5f5f3e3d5ffd5b50505050611565846119a5565b60075f9054906101000a900473ffffffffffffffffffffffffffffffffffffffff1673ffffffffffffffffffffffffffffffffffffffff166344c83b973386868686426040516020016115bc959493929190612dc7565b6040516020818303038152906040526040518363ffffffff1660e01b81526004016115e8929190612e62565b5f604051808303815f87803b1580156115ff575f5ffd5b505af1158015611611573d5f5f3e3d5ffd5b5050505050505050565b7fa49807205ce4d355092ef5a8a18f56e8913cf4a201fbe287825b095693c2177561164581611d21565b61164d612071565b5f73ffffffffffffffffffffffffffffffffffffffff168373ffffffffffffffffffffffffffffffffffffffff16036116bb576040517f08c379a00000000000000000000000000000000000000000000000000000000081526004016116b290612eed565b60405180910390fd5b5f73ffffffffffffffffffffffffffffffffffffffff168473ffffffffffffffffffffffffffffffffffffffff160361177a5781471015611731576040517f08c379a000000000000000000000000000000000000000000000000000000000815260040161172890612f55565b60405180910390fd5b8273ffffffffffffffffffffffffffffffffffffffff166108fc8390811502906040515f60405180830381858888f19350505050158015611774573d5f5f3e3d5ffd5b506117a6565b6117a583838673ffffffffffffffffffffffffffffffffffffffff166120ba9092919063ffffffff16565b5b60075f9054906101000a900473ffffffffffffffffffffffffffffffffffffffff1673ffffffffffffffffffffffffffffffffffffffff166344c83b9733868686426040516020016117fb9493929190612f73565b6040516020818303038152906040526040518363ffffffff1660e01b8152600401611827929190613000565b5f604051808303815f87803b15801561183e575f5ffd5b505af1158015611850573d5f5f3e3d5ffd5b5050505050505050565b7f000000000000000000000000000000000000000000000000000000000000000081565b60065f9054906101000a900473ffffffffffffffffffffffffffffffffffffffff1681565b7fa49807205ce4d355092ef5a8a18f56e8913cf4a201fbe287825b095693c217756118cd81611d21565b6118f77f940d6b1946ff1d2b5a9f1909219c3c81a370804b5ba0f91ec0828c99a2e6a68183610961565b60075f9054906101000a900473ffffffffffffffffffffffffffffffffffffffff1673ffffffffffffffffffffffffffffffffffffffff166344c83b9733844260405160200161194892919061227c565b6040516020818303038152906040526040518363ffffffff1660e01b815260040161197492919061308b565b5f604051808303815f87803b15801561198b575f5ffd5b505af115801561199d573d5f5f3e3d5ffd5b505050505050565b6119cf7fa49807205ce4d355092ef5a8a18f56e8913cf4a201fbe287825b095693c2177533610fed565b80611a0057506119ff7ffd70517941c75212b0f9013e45c47a37d6d983c5304288c7af285f2ea40cbba733610fed565b5b611a3f576040517f08c379a0000000000000000000000000000000000000000000000000000000008152600401611a3690612cf3565b60405180910390fd5b611a697f5a3425ea67e73c95853ecfc0c443062de292a303c186bc2aac1178ae1b86c62a82610961565b60075f9054906101000a900473ffffffffffffffffffffffffffffffffffffffff1673ffffffffffffffffffffffffffffffffffffffff166344c83b97338342604051602001611aba92919061227c565b6040516020818303038152906040526040518363ffffffff1660e01b8152600401611ae6929190613116565b5f604051808303815f87803b158015611afd575f5ffd5b505af1158015611b0f573d5f5f3e3d5ffd5b5050505050565b7ffd70517941c75212b0f9013e45c47a37d6d983c5304288c7af285f2ea40cbba781565b60038054611b4790612ae9565b80601f0160208091040260200160405190810160405280929190818152602001828054611b7390612ae9565b8015611bbe5780601f10611b9557610100808354040283529160200191611bbe565b820191905f5260205f20905b815481529060010190602001808311611ba157829003601f168201915b505050505081565b7fa49807205ce4d355092ef5a8a18f56e8913cf4a201fbe287825b095693c21775611bf081611d21565b5f60065f9054906101000a900473ffffffffffffffffffffffffffffffffffffffff1690508260065f6101000a81548173ffffffffffffffffffffffffffffffffffffffff021916908373ffffffffffffffffffffffffffffffffffffffff1602179055507f2d8279ad7651b5dbb7aa22cc77609ced7f1ec004027c93ba5799dc5c39b1d7538184604051611c869291906131a1565b60405180910390a1505050565b60045f9054906101000a900473ffffffffffffffffffffffffffffffffffffffff1681565b5f7f01ffc9a7000000000000000000000000000000000000000000000000000000007bffffffffffffffffffffffffffffffffffffffffffffffffffffffff1916827bffffffffffffffffffffffffffffffffffffffffffffffffffffffff1916149050919050565b611d3281611d2d611e1e565b612139565b50565b5f611d408383610fed565b611e145760015f5f8581526020019081526020015f205f015f8473ffffffffffffffffffffffffffffffffffffffff1673ffffffffffffffffffffffffffffffffffffffff1681526020019081526020015f205f6101000a81548160ff021916908315150217905550611db1611e1e565b73ffffffffffffffffffffffffffffffffffffffff168273ffffffffffffffffffffffffffffffffffffffff16847f2f8788117e7eff1d82e926ec794901d17c78024a50270940304540a733656f0d60405160405180910390a460019050611e18565b5f90505b92915050565b5f33905090565b5f611e308383610fed565b15611f04575f5f5f8581526020019081526020015f205f015f8473ffffffffffffffffffffffffffffffffffffffff1673ffffffffffffffffffffffffffffffffffffffff1681526020019081526020015f205f6101000a81548160ff021916908315150217905550611ea1611e1e565b73ffffffffffffffffffffffffffffffffffffffff168273ffffffffffffffffffffffffffffffffffffffff16847ff6391f5c32d9c69d2a47ea670b442974b53935d1edc7fd64eb21e047a839171b60405160405180910390a460019050611f08565b5f90505b92915050565b611f16612071565b5f60015f6101000a81548160ff0219169083151502179055507f5db9ee0a495bf2e6ff9c91a7834c1ba4fdd244a5e8aa4e537bd38aeae4b073aa611f58611e1e565b604051611f659190612c0c565b60405180910390a1565b611f77611fd0565b6001805f6101000a81548160ff0219169083151502179055507f62e78cea01bee320cd4e420270b5ea74000d11b0c9f74754ebdbfc544b05a258611fb9611e1e565b604051611fc69190612c0c565b60405180910390a1565b611fd8610fb4565b15612018576040517f08c379a000000000000000000000000000000000000000000000000000000000815260040161200f90613225565b60405180910390fd5b565b600280540361205e576040517f08c379a00000000000000000000000000000000000000000000000000000000081526004016120559061328d565b60405180910390fd5b60028081905550565b6001600281905550565b612079610fb4565b6120b8576040517f08c379a00000000000000000000000000000000000000000000000000000000081526004016120af906132f5565b60405180910390fd5b565b612134838473ffffffffffffffffffffffffffffffffffffffff1663a9059cbb85856040516024016120ed92919061227c565b604051602081830303815290604052915060e01b6020820180517bffffffffffffffffffffffffffffffffffffffffffffffffffffffff838183161783525050505061218a565b505050565b6121438282610fed565b6121865780826040517fe2517d3f00000000000000000000000000000000000000000000000000000000815260040161217d929190613313565b60405180910390fd5b5050565b5f5f60205f8451602086015f885af1806121a9576040513d5f823e3d81fd5b3d92505f519150505f82146121c25760018114156121dd565b5f8473ffffffffffffffffffffffffffffffffffffffff163b145b1561221f57836040517f5274afe70000000000000000000000000000000000000000000000000000000081526004016122169190612c0c565b60405180910390fd5b50505050565b5f73ffffffffffffffffffffffffffffffffffffffff82169050919050565b5f61224e82612225565b9050919050565b61225e81612244565b82525050565b5f819050919050565b61227681612264565b82525050565b5f60408201905061228f5f830185612255565b61229c602083018461226d565b9392505050565b5f5ffd5b5f7fffffffff0000000000000000000000000000000000000000000000000000000082169050919050565b6122db816122a7565b81146122e5575f5ffd5b50565b5f813590506122f6816122d2565b92915050565b5f60208284031215612311576123106122a3565b5b5f61231e848285016122e8565b91505092915050565b5f8115159050919050565b61233b81612327565b82525050565b5f6020820190506123545f830184612332565b92915050565b5f819050919050565b5f61237d61237861237384612225565b61235a565b612225565b9050919050565b5f61238e82612363565b9050919050565b5f61239f82612384565b9050919050565b6123af81612395565b82525050565b5f6020820190506123c85f8301846123a6565b92915050565b6123d781612244565b81146123e1575f5ffd5b50565b5f813590506123f2816123ce565b92915050565b5f6020828403121561240d5761240c6122a3565b5b5f61241a848285016123e4565b91505092915050565b5f819050919050565b61243581612423565b811461243f575f5ffd5b50565b5f813590506124508161242c565b92915050565b5f6020828403121561246b5761246a6122a3565b5b5f61247884828501612442565b91505092915050565b61248a81612423565b82525050565b5f6020820190506124a35f830184612481565b92915050565b5f6124b382612363565b9050919050565b5f6124c4826124a9565b9050919050565b6124d4816124ba565b82525050565b5f6020820190506124ed5f8301846124cb565b92915050565b5f5f60408385031215612509576125086122a3565b5b5f61251685828601612442565b9250506020612527858286016123e4565b9150509250929050565b5f61253b82612225565b9050919050565b61254b81612531565b8114612555575f5ffd5b50565b5f8135905061256681612542565b92915050565b5f60208284031215612581576125806122a3565b5b5f61258e84828501612558565b91505092915050565b5f81519050919050565b5f82825260208201905092915050565b8281835e5f83830152505050565b5f601f19601f8301169050919050565b5f6125d982612597565b6125e381856125a1565b93506125f38185602086016125b1565b6125fc816125bf565b840191505092915050565b5f60a0820190508181035f83015261261f81886125cf565b905061262e6020830187612332565b61263b604083018661226d565b612648606083018561226d565b612655608083018461226d565b9695505050505050565b61266881612264565b8114612672575f5ffd5b50565b5f813590506126838161265f565b92915050565b5f5f6040838503121561269f5761269e6122a3565b5b5f6126ac858286016123e4565b92505060206126bd85828601612675565b9150509250929050565b600381106126d3575f5ffd5b50565b5f813590506126e4816126c7565b92915050565b5f5f5f5f60808587031215612702576127016122a3565b5b5f61270f878288016123e4565b945050602061272087828801612675565b9350506040612731878288016126d6565b9250506060612742878288016123e4565b91505092959194509250565b5f5f5f60608486031215612765576127646122a3565b5b5f612772868287016123e4565b9350506020612783868287016123e4565b925050604061279486828701612675565b9150509250925092565b5f6020820190506127b15f83018461226d565b92915050565b5f6127c182612384565b9050919050565b6127d1816127b7565b82525050565b5f6020820190506127ea5f8301846127c8565b92915050565b5f6020820190508181035f83015261280881846125cf565b905092915050565b5f61281a82612384565b9050919050565b61282a81612810565b82525050565b5f6020820190506128435f830184612821565b92915050565b7f4752414e545f48525f524f4c45000000000000000000000000000000000000005f82015250565b5f61287d600d836125a1565b915061288882612849565b602082019050919050565b5f81519050919050565b5f82825260208201905092915050565b5f6128b782612893565b6128c1818561289d565b93506128d18185602086016125b1565b6128da816125bf565b840191505092915050565b5f6060820190506128f85f830185612255565b818103602083015261290981612871565b9050818103604083015261291d81846128ad565b90509392505050565b61292f81612531565b82525050565b5f6020820190506129485f830184612926565b92915050565b7f546f6b656e4d616e6167657200000000000000000000000000000000000000005f82015250565b5f612982600c836125a1565b915061298d8261294e565b602082019050919050565b5f6129a282612384565b9050919050565b6129b281612998565b82525050565b5f6060820190508181035f8301526129cf81612976565b90506129de6020830185612255565b6129eb60408301846129a9565b9392505050565b7f454d455247454e43595f554e50415553450000000000000000000000000000005f82015250565b5f612a266011836125a1565b9150612a31826129f2565b602082019050919050565b5f606082019050612a4f5f830185612255565b8181036020830152612a6081612a1a565b90508181036040830152612a7481846128ad565b90509392505050565b5f81519050612a8b8161265f565b92915050565b5f60208284031215612aa657612aa56122a3565b5b5f612ab384828501612a7d565b91505092915050565b7f4e487b71000000000000000000000000000000000000000000000000000000005f52602260045260245ffd5b5f6002820490506001821680612b0057607f821691505b602082108103612b1357612b12612abc565b5b50919050565b7f454d455247454e43595f504155534500000000000000000000000000000000005f82015250565b5f612b4d600f836125a1565b9150612b5882612b19565b602082019050919050565b5f606082019050612b765f830185612255565b8181036020830152612b8781612b41565b90508181036040830152612b9b81846128ad565b90509392505050565b7f52657175697265732061646d696e206f722066696e616e636520726f6c6500005f82015250565b5f612bd8601e836125a1565b9150612be382612ba4565b602082019050919050565b5f6020820190508181035f830152612c0581612bcc565b9050919050565b5f602082019050612c1f5f830184612255565b92915050565b7f456d706c6f7965654d616e6167657200000000000000000000000000000000005f82015250565b5f612c59600f836125a1565b9150612c6482612c25565b602082019050919050565b5f6060820190508181035f830152612c8681612c4d565b9050612c956020830185612255565b612ca26040830184612255565b9392505050565b7f52657175697265732061646d696e206f7220485220726f6c65000000000000005f82015250565b5f612cdd6019836125a1565b9150612ce882612ca9565b602082019050919050565b5f6020820190508181035f830152612d0a81612cd1565b9050919050565b7f4e487b71000000000000000000000000000000000000000000000000000000005f52602160045260245ffd5b60038110612d4f57612d4e612d11565b5b50565b5f819050612d5f82612d3e565b919050565b5f612d6e82612d52565b9050919050565b612d7e81612d64565b82525050565b5f608082019050612d975f830187612255565b612da4602083018661226d565b612db16040830185612d75565b612dbe6060830184612255565b95945050505050565b5f60a082019050612dda5f830188612255565b612de7602083018761226d565b612df46040830186612d75565b612e016060830185612255565b612e0e608083018461226d565b9695505050505050565b7f454d504c4f5945455f41444445440000000000000000000000000000000000005f82015250565b5f612e4c600e836125a1565b9150612e5782612e18565b602082019050919050565b5f606082019050612e755f830185612255565b8181036020830152612e8681612e40565b90508181036040830152612e9a81846128ad565b90509392505050565b7f496e76616c696420726563697069656e740000000000000000000000000000005f82015250565b5f612ed76011836125a1565b9150612ee282612ea3565b602082019050919050565b5f6020820190508181035f830152612f0481612ecb565b9050919050565b7f496e73756666696369656e74204554482062616c616e636500000000000000005f82015250565b5f612f3f6018836125a1565b9150612f4a82612f0b565b602082019050919050565b5f6020820190508181035f830152612f6c81612f33565b9050919050565b5f608082019050612f865f830187612255565b612f936020830186612255565b612fa0604083018561226d565b612fad606083018461226d565b95945050505050565b7f454d455247454e43595f574954484452415700000000000000000000000000005f82015250565b5f612fea6012836125a1565b9150612ff582612fb6565b602082019050919050565b5f6060820190506130135f830185612255565b818103602083015261302481612fde565b9050818103604083015261303881846128ad565b90509392505050565b7f4752414e545f46494e414e43455f524f4c4500000000000000000000000000005f82015250565b5f6130756012836125a1565b915061308082613041565b602082019050919050565b5f60608201905061309e5f830185612255565b81810360208301526130af81613069565b905081810360408301526130c381846128ad565b90509392505050565b7f4752414e545f454d504c4f5945455f524f4c45000000000000000000000000005f82015250565b5f6131006013836125a1565b915061310b826130cc565b602082019050919050565b5f6060820190506131295f830185612255565b818103602083015261313a816130f4565b9050818103604083015261314e81846128ad565b90509392505050565b7f5061796d656e7450726f636573736f72000000000000000000000000000000005f82015250565b5f61318b6010836125a1565b915061319682613157565b602082019050919050565b5f6060820190508181035f8301526131b88161317f565b90506131c76020830185612255565b6131d46040830184612255565b9392505050565b7f5061757361626c653a20706175736564000000000000000000000000000000005f82015250565b5f61320f6010836125a1565b915061321a826131db565b602082019050919050565b5f6020820190508181035f83015261323c81613203565b9050919050565b7f5265656e7472616e637947756172643a207265656e7472616e742063616c6c005f82015250565b5f613277601f836125a1565b915061328282613243565b602082019050919050565b5f6020820190508181035f8301526132a48161326b565b9050919050565b7f5061757361626c653a206e6f74207061757365640000000000000000000000005f82015250565b5f6132df6014836125a1565b91506132ea826132ab565b602082019050919050565b5f6020820190508181035f83015261330c816132d3565b9050919050565b5f6040820190506133265f830185612255565b6133336020830184612481565b939250505056fea26469706673582212202c1d289cbc439bad08787ba48a31b7fb62d03bc291a3ef34db85bcde2edfc1c264736f6c634300081e0033608060405234801561000f575f5ffd5b506040516154c03803806154c0833981810160405281019061003191906100dc565b600180819055508060025f6101000a81548173ffffffffffffffffffffffffffffffffffffffff021916908373ffffffffffffffffffffffffffffffffffffffff16021790555050610107565b5f5ffd5b5f73ffffffffffffffffffffffffffffffffffffffff82169050919050565b5f6100ab82610082565b9050919050565b6100bb816100a1565b81146100c5575f5ffd5b50565b5f815190506100d6816100b2565b92915050565b5f602082840312156100f1576100f061007e565b5b5f6100fe848285016100c8565b91505092915050565b6153ac806101145f395ff3fe608060405234801561000f575f5ffd5b50600436106101d8575f3560e01c8063798409d811610102578063c11d2d18116100a0578063e1fe76361161006f578063e1fe7636146105ab578063e2d82b45146105c7578063f2c7009c146105e3578063f3c6a19814610618576101d8565b8063c11d2d181461051c578063cefb8b9214610538578063d067894714610554578063d547741f1461058f576101d8565b8063a1c7c1a6116100dc578063a1c7c1a614610494578063a217fddf146104b2578063b1189ba6146104d0578063b503abe414610500576101d8565b8063798409d81461041857806391d148541461043457806397ad7e0214610464576101d8565b806348f477261161017a5780636ddbabfe116101495780636ddbabfe1461037e5780637521720b1461039a57806375b238fc146103ca578063774b2535146103e8576101d8565b806348f47726146102f65780635339c995146103265780635dd38bfa146103445780636a663e1814610362576101d8565b806332648e09116101b657806332648e0914610258578063349b59541461028857806336568abe146102a65780633ef9572b146102c2576101d8565b806301ffc9a7146101dc578063248a9ca31461020c5780632f2ff15d1461023c575b5f5ffd5b6101f660048036038101906101f19190613c4f565b610636565b6040516102039190613c94565b60405180910390f35b61022660048036038101906102219190613ce0565b6106af565b6040516102339190613d1a565b60405180910390f35b61025660048036038101906102519190613d8d565b6106cb565b005b610272600480360381019061026d9190613dcb565b6106ed565b60405161027f9190613fab565b60405180910390f35b6102906108a4565b60405161029d9190613d1a565b60405180910390f35b6102c060048036038101906102bb9190613d8d565b6108c8565b005b6102dc60048036038101906102d79190613fef565b610943565b6040516102ed9594939291906140ca565b60405180910390f35b610310600480360381019061030b9190613dcb565b610a41565b60405161031d9190614298565b60405180910390f35b61032e610bed565b60405161033b91906142b8565b60405180910390f35b61034c610cb6565b6040516103599190614379565b60405180910390f35b61037c60048036038101906103779190613dcb565b610f18565b005b61039860048036038101906103939190613fef565b61120a565b005b6103b460048036038101906103af9190614399565b61160a565b6040516103c191906143c4565b60405180910390f35b6103d2611645565b6040516103df9190613d1a565b60405180910390f35b61040260048036038101906103fd9190613dcb565b611669565b60405161040f91906142b8565b60405180910390f35b610432600480360381019061042d9190613fef565b611a69565b005b61044e60048036038101906104499190613d8d565b611fd1565b60405161045b9190613c94565b60405180910390f35b61047e60048036038101906104799190613dcb565b612034565b60405161048b9190613c94565b60405180910390f35b61049c612294565b6040516104a991906143c4565b60405180910390f35b6104ba6122b9565b6040516104c79190613d1a565b60405180910390f35b6104ea60048036038101906104e59190613dcb565b6122bf565b6040516104f7919061451e565b60405180910390f35b61051a60048036038101906105159190614694565b612475565b005b61053660048036038101906105319190613fef565b6128a0565b005b610552600480360381019061054d9190614723565b612b0d565b005b61056e60048036038101906105699190613dcb565b612ed5565b6040516105869c9b9a99989796959493929190614796565b60405180910390f35b6105a960048036038101906105a49190613d8d565b612f95565b005b6105c560048036038101906105c0919061484e565b612fb7565b005b6105e160048036038101906105dc9190614723565b6132e8565b005b6105fd60048036038101906105f89190613fef565b613783565b60405161060f969594939291906148a8565b60405180910390f35b610620613887565b60405161062d9190613d1a565b60405180910390f35b5f7f7965db0b000000000000000000000000000000000000000000000000000000007bffffffffffffffffffffffffffffffffffffffffffffffffffffffff1916827bffffffffffffffffffffffffffffffffffffffffffffffffffffffff191614806106a857506106a7826138ab565b5b9050919050565b5f5f5f8381526020019081526020015f20600101549050919050565b6106d4826106af565b6106dd81613914565b6106e78383613928565b50505050565b6106f5613b52565b60035f8373ffffffffffffffffffffffffffffffffffffffff1673ffffffffffffffffffffffffffffffffffffffff1681526020019081526020015f20604051806101800160405290815f82015f9054906101000a900473ffffffffffffffffffffffffffffffffffffffff1673ffffffffffffffffffffffffffffffffffffffff1673ffffffffffffffffffffffffffffffffffffffff16815260200160018201548152602001600282015f9054906101000a900460ff1660028111156107c0576107bf613e1d565b5b60028111156107d2576107d1613e1d565b5b81526020016002820160019054906101000a900473ffffffffffffffffffffffffffffffffffffffff1673ffffffffffffffffffffffffffffffffffffffff1673ffffffffffffffffffffffffffffffffffffffff1681526020016002820160159054906101000a900460ff16151515158152602001600382015481526020016004820154815260200160058201548152602001600682015481526020016007820154815260200160088201548152602001600982015f9054906101000a900460ff1615151515815250509050919050565b7f940d6b1946ff1d2b5a9f1909219c3c81a370804b5ba0f91ec0828c99a2e6a68181565b6108d0613a11565b73ffffffffffffffffffffffffffffffffffffffff168173ffffffffffffffffffffffffffffffffffffffff1614610934576040517f6697b23200000000000000000000000000000000000000000000000000000000815260040160405180910390fd5b61093e8282613a18565b505050565b6004602052815f5260405f20818154811061095c575f80fd5b905f5260205f2090600402015f9150915050805f0154908060010180546109829061493b565b80601f01602080910402602001604051908101604052809291908181526020018280546109ae9061493b565b80156109f95780601f106109d0576101008083540402835291602001916109f9565b820191905f5260205f20905b8154815290600101906020018083116109dc57829003601f168201915b505050505090806002015f9054906101000a900460ff16908060020160019054906101000a900473ffffffffffffffffffffffffffffffffffffffff16908060030154905085565b606060045f8373ffffffffffffffffffffffffffffffffffffffff1673ffffffffffffffffffffffffffffffffffffffff1681526020019081526020015f20805480602002602001604051908101604052809291908181526020015f905b82821015610be2578382905f5260205f2090600402016040518060a00160405290815f8201548152602001600182018054610ad99061493b565b80601f0160208091040260200160405190810160405280929190818152602001828054610b059061493b565b8015610b505780601f10610b2757610100808354040283529160200191610b50565b820191905f5260205f20905b815481529060010190602001808311610b3357829003601f168201915b50505050508152602001600282015f9054906101000a900460ff161515151581526020016002820160019054906101000a900473ffffffffffffffffffffffffffffffffffffffff1673ffffffffffffffffffffffffffffffffffffffff1673ffffffffffffffffffffffffffffffffffffffff16815260200160038201548152505081526020019060010190610a9f565b505050509050919050565b5f5f5f90505f5f90505b600680549050811015610cae5760035f60068381548110610c1b57610c1a61496b565b5b905f5260205f20015f9054906101000a900473ffffffffffffffffffffffffffffffffffffffff1673ffffffffffffffffffffffffffffffffffffffff1673ffffffffffffffffffffffffffffffffffffffff1681526020019081526020015f2060020160159054906101000a900460ff1615610ca1578180610c9d906149c5565b9250505b8080600101915050610bf7565b508091505090565b60605f5f90505f5f90505b600680549050811015610d785760035f60068381548110610ce557610ce461496b565b5b905f5260205f20015f9054906101000a900473ffffffffffffffffffffffffffffffffffffffff1673ffffffffffffffffffffffffffffffffffffffff1673ffffffffffffffffffffffffffffffffffffffff1681526020019081526020015f2060020160159054906101000a900460ff1615610d6b578180610d67906149c5565b9250505b8080600101915050610cc1565b505f8167ffffffffffffffff811115610d9457610d93614570565b5b604051908082528060200260200182016040528015610dc25781602001602082028036833780820191505090505b5090505f5f90505f5f90505b600680549050811015610f0e5760035f60068381548110610df257610df161496b565b5b905f5260205f20015f9054906101000a900473ffffffffffffffffffffffffffffffffffffffff1673ffffffffffffffffffffffffffffffffffffffff1673ffffffffffffffffffffffffffffffffffffffff1681526020019081526020015f2060020160159054906101000a900460ff1615610f015760068181548110610e7d57610e7c61496b565b5b905f5260205f20015f9054906101000a900473ffffffffffffffffffffffffffffffffffffffff16838381518110610eb857610eb761496b565b5b602002602001019073ffffffffffffffffffffffffffffffffffffffff16908173ffffffffffffffffffffffffffffffffffffffff16815250508180610efd906149c5565b9250505b8080600101915050610dce565b5081935050505090565b60025f9054906101000a900473ffffffffffffffffffffffffffffffffffffffff1673ffffffffffffffffffffffffffffffffffffffff166391d148547fa49807205ce4d355092ef5a8a18f56e8913cf4a201fbe287825b095693c21775336040518363ffffffff1660e01b8152600401610f94929190614a0c565b602060405180830381865afa158015610faf573d5f5f3e3d5ffd5b505050506040513d601f19601f82011682018060405250810190610fd39190614a5d565b80611095575060025f9054906101000a900473ffffffffffffffffffffffffffffffffffffffff1673ffffffffffffffffffffffffffffffffffffffff166391d148547ffd70517941c75212b0f9013e45c47a37d6d983c5304288c7af285f2ea40cbba7336040518363ffffffff1660e01b8152600401611055929190614a0c565b602060405180830381865afa158015611070573d5f5f3e3d5ffd5b505050506040513d601f19601f820116820180604052508101906110949190614a5d565b5b6110d4576040517f08c379a00000000000000000000000000000000000000000000000000000000081526004016110cb90614ad2565b60405180910390fd5b60035f8273ffffffffffffffffffffffffffffffffffffffff1673ffffffffffffffffffffffffffffffffffffffff1681526020019081526020015f2060020160159054906101000a900460ff16611161576040517f08c379a000000000000000000000000000000000000000000000000000000000815260040161115890614b3a565b60405180910390fd5b5f60035f8373ffffffffffffffffffffffffffffffffffffffff1673ffffffffffffffffffffffffffffffffffffffff1681526020019081526020015f2060020160156101000a81548160ff0219169083151502179055508073ffffffffffffffffffffffffffffffffffffffff167ffab1e92dfdb794e4d1cafcbe46c62e8043dae2bb9d7b99d1ecf78ee5e03755aa426040516111ff91906142b8565b60405180910390a250565b60025f9054906101000a900473ffffffffffffffffffffffffffffffffffffffff1673ffffffffffffffffffffffffffffffffffffffff166391d148547fa49807205ce4d355092ef5a8a18f56e8913cf4a201fbe287825b095693c21775336040518363ffffffff1660e01b8152600401611286929190614a0c565b602060405180830381865afa1580156112a1573d5f5f3e3d5ffd5b505050506040513d601f19601f820116820180604052508101906112c59190614a5d565b80611387575060025f9054906101000a900473ffffffffffffffffffffffffffffffffffffffff1673ffffffffffffffffffffffffffffffffffffffff166391d148547f940d6b1946ff1d2b5a9f1909219c3c81a370804b5ba0f91ec0828c99a2e6a681336040518363ffffffff1660e01b8152600401611347929190614a0c565b602060405180830381865afa158015611362573d5f5f3e3d5ffd5b505050506040513d601f19601f820116820180604052508101906113869190614a5d565b5b6113c6576040517f08c379a00000000000000000000000000000000000000000000000000000000081526004016113bd90614ba2565b60405180910390fd5b60045f8373ffffffffffffffffffffffffffffffffffffffff1673ffffffffffffffffffffffffffffffffffffffff1681526020019081526020015f20805490508110611448576040517f08c379a000000000000000000000000000000000000000000000000000000000815260040161143f90614c0a565b60405180910390fd5b60045f8373ffffffffffffffffffffffffffffffffffffffff1673ffffffffffffffffffffffffffffffffffffffff1681526020019081526020015f2081815481106114975761149661496b565b5b905f5260205f2090600402016002015f9054906101000a900460ff16156114f3576040517f08c379a00000000000000000000000000000000000000000000000000000000081526004016114ea90614c72565b60405180910390fd5b600160045f8473ffffffffffffffffffffffffffffffffffffffff1673ffffffffffffffffffffffffffffffffffffffff1681526020019081526020015f2082815481106115445761154361496b565b5b905f5260205f2090600402016002015f6101000a81548160ff0219169083151502179055503360045f8473ffffffffffffffffffffffffffffffffffffffff1673ffffffffffffffffffffffffffffffffffffffff1681526020019081526020015f2082815481106115b9576115b861496b565b5b905f5260205f20906004020160020160016101000a81548173ffffffffffffffffffffffffffffffffffffffff021916908373ffffffffffffffffffffffffffffffffffffffff1602179055505050565b60068181548110611619575f80fd5b905f5260205f20015f915054906101000a900473ffffffffffffffffffffffffffffffffffffffff1681565b7fa49807205ce4d355092ef5a8a18f56e8913cf4a201fbe287825b095693c2177581565b5f5f60035f8473ffffffffffffffffffffffffffffffffffffffff1673ffffffffffffffffffffffffffffffffffffffff1681526020019081526020015f20604051806101800160405290815f82015f9054906101000a900473ffffffffffffffffffffffffffffffffffffffff1673ffffffffffffffffffffffffffffffffffffffff1673ffffffffffffffffffffffffffffffffffffffff16815260200160018201548152602001600282015f9054906101000a900460ff16600281111561173657611735613e1d565b5b600281111561174857611747613e1d565b5b81526020016002820160019054906101000a900473ffffffffffffffffffffffffffffffffffffffff1673ffffffffffffffffffffffffffffffffffffffff1673ffffffffffffffffffffffffffffffffffffffff1681526020016002820160159054906101000a900460ff16151515158152602001600382015481526020016004820154815260200160058201548152602001600682015481526020016007820154815260200160088201548152602001600982015f9054906101000a900460ff16151515158152505090505f816020015190505f5f90505f60045f8773ffffffffffffffffffffffffffffffffffffffff1673ffffffffffffffffffffffffffffffffffffffff1681526020019081526020015f20805480602002602001604051908101604052809291908181526020015f905b828210156119c1578382905f5260205f2090600402016040518060a00160405290815f82015481526020016001820180546118b89061493b565b80601f01602080910402602001604051908101604052809291908181526020018280546118e49061493b565b801561192f5780601f106119065761010080835404028352916020019161192f565b820191905f5260205f20905b81548152906001019060200180831161191257829003601f168201915b50505050508152602001600282015f9054906101000a900460ff161515151581526020016002820160019054906101000a900473ffffffffffffffffffffffffffffffffffffffff1673ffffffffffffffffffffffffffffffffffffffff1673ffffffffffffffffffffffffffffffffffffffff1681526020016003820154815250508152602001906001019061187e565b5050505090505f5f90505b8151811015611a32578181815181106119e8576119e761496b565b5b60200260200101516040015115611a2557818181518110611a0c57611a0b61496b565b5b60200260200101515f015183611a229190614c90565b92505b80806001019150506119cc565b5083610160015115611a525783610140015183611a4f9190614cd1565b92505b8183611a5e9190614c90565b945050505050919050565b60025f9054906101000a900473ffffffffffffffffffffffffffffffffffffffff1673ffffffffffffffffffffffffffffffffffffffff166391d148547fa49807205ce4d355092ef5a8a18f56e8913cf4a201fbe287825b095693c21775336040518363ffffffff1660e01b8152600401611ae5929190614a0c565b602060405180830381865afa158015611b00573d5f5f3e3d5ffd5b505050506040513d601f19601f82011682018060405250810190611b249190614a5d565b80611be6575060025f9054906101000a900473ffffffffffffffffffffffffffffffffffffffff1673ffffffffffffffffffffffffffffffffffffffff166391d148547f940d6b1946ff1d2b5a9f1909219c3c81a370804b5ba0f91ec0828c99a2e6a681336040518363ffffffff1660e01b8152600401611ba6929190614a0c565b602060405180830381865afa158015611bc1573d5f5f3e3d5ffd5b505050506040513d601f19601f82011682018060405250810190611be59190614a5d565b5b611c25576040517f08c379a0000000000000000000000000000000000000000000000000000000008152600401611c1c90614ba2565b60405180910390fd5b60055f8373ffffffffffffffffffffffffffffffffffffffff1673ffffffffffffffffffffffffffffffffffffffff1681526020019081526020015f20805490508110611ca7576040517f08c379a0000000000000000000000000000000000000000000000000000000008152600401611c9e90614c0a565b60405180910390fd5b60055f8373ffffffffffffffffffffffffffffffffffffffff1673ffffffffffffffffffffffffffffffffffffffff1681526020019081526020015f208181548110611cf657611cf561496b565b5b905f5260205f2090600502016002015f9054906101000a900460ff1615611d52576040517f08c379a0000000000000000000000000000000000000000000000000000000008152600401611d4990614c72565b60405180910390fd5b600160055f8473ffffffffffffffffffffffffffffffffffffffff1673ffffffffffffffffffffffffffffffffffffffff1681526020019081526020015f208281548110611da357611da261496b565b5b905f5260205f2090600502016002015f6101000a81548160ff0219169083151502179055503360055f8473ffffffffffffffffffffffffffffffffffffffff1673ffffffffffffffffffffffffffffffffffffffff1681526020019081526020015f208281548110611e1857611e1761496b565b5b905f5260205f20906005020160020160016101000a81548173ffffffffffffffffffffffffffffffffffffffff021916908373ffffffffffffffffffffffffffffffffffffffff1602179055504260055f8473ffffffffffffffffffffffffffffffffffffffff1673ffffffffffffffffffffffffffffffffffffffff1681526020019081526020015f208281548110611eb557611eb461496b565b5b905f5260205f20906005020160040181905550600160035f8473ffffffffffffffffffffffffffffffffffffffff1673ffffffffffffffffffffffffffffffffffffffff1681526020019081526020015f206009015f6101000a81548160ff0219169083151502179055508173ffffffffffffffffffffffffffffffffffffffff167f4503a00d35eb9ee856fb8cc7489624fe44b7c438264f513d8baee9357ce5bdb060055f8573ffffffffffffffffffffffffffffffffffffffff1673ffffffffffffffffffffffffffffffffffffffff1681526020019081526020015f208381548110611fa757611fa661496b565b5b905f5260205f2090600502015f015433604051611fc5929190614d04565b60405180910390a25050565b5f5f5f8481526020019081526020015f205f015f8373ffffffffffffffffffffffffffffffffffffffff1673ffffffffffffffffffffffffffffffffffffffff1681526020019081526020015f205f9054906101000a900460ff16905092915050565b5f5f60035f8473ffffffffffffffffffffffffffffffffffffffff1673ffffffffffffffffffffffffffffffffffffffff1681526020019081526020015f20604051806101800160405290815f82015f9054906101000a900473ffffffffffffffffffffffffffffffffffffffff1673ffffffffffffffffffffffffffffffffffffffff1673ffffffffffffffffffffffffffffffffffffffff16815260200160018201548152602001600282015f9054906101000a900460ff16600281111561210157612100613e1d565b5b600281111561211357612112613e1d565b5b81526020016002820160019054906101000a900473ffffffffffffffffffffffffffffffffffffffff1673ffffffffffffffffffffffffffffffffffffffff1673ffffffffffffffffffffffffffffffffffffffff1681526020016002820160159054906101000a900460ff16151515158152602001600382015481526020016004820154815260200160058201548152602001600682015481526020016007820154815260200160088201548152602001600982015f9054906101000a900460ff161515151581525050905080608001516121f2575f91505061228f565b5f8160c00151426122039190614d2b565b90505f600281111561221857612217613e1d565b5b8260400151600281111561222f5761222e613e1d565b5b036122445762278d008110159250505061228f565b6001600281111561225857612257613e1d565b5b8260400151600281111561226f5761226e613e1d565b5b036122845762093a808110159250505061228f565b610e10811015925050505b919050565b60025f9054906101000a900473ffffffffffffffffffffffffffffffffffffffff1681565b5f5f1b81565b606060055f8373ffffffffffffffffffffffffffffffffffffffff1673ffffffffffffffffffffffffffffffffffffffff1681526020019081526020015f20805480602002602001604051908101604052809291908181526020015f905b8282101561246a578382905f5260205f2090600502016040518060c00160405290815f82015481526020016001820180546123579061493b565b80601f01602080910402602001604051908101604052809291908181526020018280546123839061493b565b80156123ce5780601f106123a5576101008083540402835291602001916123ce565b820191905f5260205f20905b8154815290600101906020018083116123b157829003601f168201915b50505050508152602001600282015f9054906101000a900460ff161515151581526020016002820160019054906101000a900473ffffffffffffffffffffffffffffffffffffffff1673ffffffffffffffffffffffffffffffffffffffff1673ffffffffffffffffffffffffffffffffffffffff168152602001600382015481526020016004820154815250508152602001906001019061231d565b505050509050919050565b60025f9054906101000a900473ffffffffffffffffffffffffffffffffffffffff1673ffffffffffffffffffffffffffffffffffffffff166391d148547fa49807205ce4d355092ef5a8a18f56e8913cf4a201fbe287825b095693c21775336040518363ffffffff1660e01b81526004016124f1929190614a0c565b602060405180830381865afa15801561250c573d5f5f3e3d5ffd5b505050506040513d601f19601f820116820180604052508101906125309190614a5d565b806125f2575060025f9054906101000a900473ffffffffffffffffffffffffffffffffffffffff1673ffffffffffffffffffffffffffffffffffffffff166391d148547ffd70517941c75212b0f9013e45c47a37d6d983c5304288c7af285f2ea40cbba7336040518363ffffffff1660e01b81526004016125b2929190614a0c565b602060405180830381865afa1580156125cd573d5f5f3e3d5ffd5b505050506040513d601f19601f820116820180604052508101906125f19190614a5d565b5b612631576040517f08c379a000000000000000000000000000000000000000000000000000000000815260040161262890614ad2565b60405180910390fd5b60035f8473ffffffffffffffffffffffffffffffffffffffff1673ffffffffffffffffffffffffffffffffffffffff1681526020019081526020015f2060020160159054906101000a900460ff166126be576040517f08c379a00000000000000000000000000000000000000000000000000000000081526004016126b590614da8565b60405180910390fd5b5f6040518060a001604052808481526020018381526020015f151581526020015f73ffffffffffffffffffffffffffffffffffffffff16815260200142815250905060045f8573ffffffffffffffffffffffffffffffffffffffff1673ffffffffffffffffffffffffffffffffffffffff1681526020019081526020015f2081908060018154018082558091505060019003905f5260205f2090600402015f909190919091505f820151815f015560208201518160010190816127819190614f66565b506040820151816002015f6101000a81548160ff02191690831515021790555060608201518160020160016101000a81548173ffffffffffffffffffffffffffffffffffffffff021916908373ffffffffffffffffffffffffffffffffffffffff1602179055506080820151816003015550508260035f8673ffffffffffffffffffffffffffffffffffffffff1673ffffffffffffffffffffffffffffffffffffffff1681526020019081526020015f206006015f8282546128439190614c90565b925050819055508373ffffffffffffffffffffffffffffffffffffffff167f144716541fa3a5361e9d8ebf0e89db1f925817bb25b745e0f982ff069bed576c8484604051612892929190615035565b60405180910390a250505050565b60025f9054906101000a900473ffffffffffffffffffffffffffffffffffffffff1673ffffffffffffffffffffffffffffffffffffffff163373ffffffffffffffffffffffffffffffffffffffff161461292f576040517f08c379a0000000000000000000000000000000000000000000000000000000008152600401612926906150ad565b60405180910390fd5b4260035f8473ffffffffffffffffffffffffffffffffffffffff1673ffffffffffffffffffffffffffffffffffffffff1681526020019081526020015f20600401819055508060035f8473ffffffffffffffffffffffffffffffffffffffff1673ffffffffffffffffffffffffffffffffffffffff1681526020019081526020015f206005015f8282546129c39190614cd1565b9250508190555060035f8373ffffffffffffffffffffffffffffffffffffffff1673ffffffffffffffffffffffffffffffffffffffff1681526020019081526020015f206009015f9054906101000a900460ff1615612ab9575f60035f8473ffffffffffffffffffffffffffffffffffffffff1673ffffffffffffffffffffffffffffffffffffffff1681526020019081526020015f20600801819055505f60035f8473ffffffffffffffffffffffffffffffffffffffff1673ffffffffffffffffffffffffffffffffffffffff1681526020019081526020015f206009015f6101000a81548160ff0219169083151502179055505b8173ffffffffffffffffffffffffffffffffffffffff167fc2031f9d5046cf95ac0999bee4c7ffa7d3f21c2182851082f80916894d25d0578242604051612b019291906150cb565b60405180910390a25050565b60025f9054906101000a900473ffffffffffffffffffffffffffffffffffffffff1673ffffffffffffffffffffffffffffffffffffffff166391d148547fa49807205ce4d355092ef5a8a18f56e8913cf4a201fbe287825b095693c21775336040518363ffffffff1660e01b8152600401612b89929190614a0c565b602060405180830381865afa158015612ba4573d5f5f3e3d5ffd5b505050506040513d601f19601f82011682018060405250810190612bc89190614a5d565b80612c8a575060025f9054906101000a900473ffffffffffffffffffffffffffffffffffffffff1673ffffffffffffffffffffffffffffffffffffffff166391d148547ffd70517941c75212b0f9013e45c47a37d6d983c5304288c7af285f2ea40cbba7336040518363ffffffff1660e01b8152600401612c4a929190614a0c565b602060405180830381865afa158015612c65573d5f5f3e3d5ffd5b505050506040513d601f19601f82011682018060405250810190612c899190614a5d565b5b612cc9576040517f08c379a0000000000000000000000000000000000000000000000000000000008152600401612cc090614ad2565b60405180910390fd5b60035f8573ffffffffffffffffffffffffffffffffffffffff1673ffffffffffffffffffffffffffffffffffffffff1681526020019081526020015f2060020160159054906101000a900460ff16612d56576040517f08c379a0000000000000000000000000000000000000000000000000000000008152600401612d4d90614da8565b60405180910390fd5b8260035f8673ffffffffffffffffffffffffffffffffffffffff1673ffffffffffffffffffffffffffffffffffffffff1681526020019081526020015f20600101819055508160035f8673ffffffffffffffffffffffffffffffffffffffff1673ffffffffffffffffffffffffffffffffffffffff1681526020019081526020015f206002015f6101000a81548160ff02191690836002811115612dfd57612dfc613e1d565b5b02179055508060035f8673ffffffffffffffffffffffffffffffffffffffff1673ffffffffffffffffffffffffffffffffffffffff1681526020019081526020015f2060020160016101000a81548173ffffffffffffffffffffffffffffffffffffffff021916908373ffffffffffffffffffffffffffffffffffffffff1602179055508373ffffffffffffffffffffffffffffffffffffffff167f1ee4ba310539bf61900eae83f6f369673ce6a17c2acae70119382e9ad727311084604051612ec791906142b8565b60405180910390a250505050565b6003602052805f5260405f205f91509050805f015f9054906101000a900473ffffffffffffffffffffffffffffffffffffffff1690806001015490806002015f9054906101000a900460ff16908060020160019054906101000a900473ffffffffffffffffffffffffffffffffffffffff16908060020160159054906101000a900460ff1690806003015490806004015490806005015490806006015490806007015490806008015490806009015f9054906101000a900460ff1690508c565b612f9e826106af565b612fa781613914565b612fb18383613a18565b50505050565b60035f3373ffffffffffffffffffffffffffffffffffffffff1673ffffffffffffffffffffffffffffffffffffffff1681526020019081526020015f2060020160159054906101000a900460ff16613044576040517f08c379a000000000000000000000000000000000000000000000000000000000815260040161303b90614da8565b60405180910390fd5b5f8211613086576040517f08c379a000000000000000000000000000000000000000000000000000000000815260040161307d9061513c565b60405180910390fd5b5f60035f3373ffffffffffffffffffffffffffffffffffffffff1673ffffffffffffffffffffffffffffffffffffffff1681526020019081526020015f206008015414613108576040517f08c379a00000000000000000000000000000000000000000000000000000000081526004016130ff906151a4565b60405180910390fd5b5f6040518060c001604052808481526020018381526020015f151581526020015f73ffffffffffffffffffffffffffffffffffffffff1681526020014281526020015f815250905060055f3373ffffffffffffffffffffffffffffffffffffffff1673ffffffffffffffffffffffffffffffffffffffff1681526020019081526020015f2081908060018154018082558091505060019003905f5260205f2090600502015f909190919091505f820151815f015560208201518160010190816131d19190614f66565b506040820151816002015f6101000a81548160ff02191690831515021790555060608201518160020160016101000a81548173ffffffffffffffffffffffffffffffffffffffff021916908373ffffffffffffffffffffffffffffffffffffffff1602179055506080820151816003015560a0820151816004015550508260035f3373ffffffffffffffffffffffffffffffffffffffff1673ffffffffffffffffffffffffffffffffffffffff1681526020019081526020015f20600801819055503373ffffffffffffffffffffffffffffffffffffffff167fbe3b24f293ddef3969df002b8138447991fa116158b16bfba98c7adedabc0a9184846040516132db9291906151c2565b60405180910390a2505050565b60025f9054906101000a900473ffffffffffffffffffffffffffffffffffffffff1673ffffffffffffffffffffffffffffffffffffffff163373ffffffffffffffffffffffffffffffffffffffff1614613377576040517f08c379a000000000000000000000000000000000000000000000000000000000815260040161336e906150ad565b60405180910390fd5b5f73ffffffffffffffffffffffffffffffffffffffff168473ffffffffffffffffffffffffffffffffffffffff16036133e5576040517f08c379a00000000000000000000000000000000000000000000000000000000081526004016133dc9061523a565b60405180910390fd5b5f8311613427576040517f08c379a000000000000000000000000000000000000000000000000000000000815260040161341e906152a2565b60405180910390fd5b60035f8573ffffffffffffffffffffffffffffffffffffffff1673ffffffffffffffffffffffffffffffffffffffff1681526020019081526020015f2060020160159054906101000a900460ff16156134b5576040517f08c379a00000000000000000000000000000000000000000000000000000000081526004016134ac9061530a565b60405180910390fd5b6040518061018001604052808573ffffffffffffffffffffffffffffffffffffffff1681526020018481526020018360028111156134f6576134f5613e1d565b5b81526020018273ffffffffffffffffffffffffffffffffffffffff1681526020016001151581526020014281526020015f81526020015f81526020015f81526020015f81526020015f81526020015f151581525060035f8673ffffffffffffffffffffffffffffffffffffffff1673ffffffffffffffffffffffffffffffffffffffff1681526020019081526020015f205f820151815f015f6101000a81548173ffffffffffffffffffffffffffffffffffffffff021916908373ffffffffffffffffffffffffffffffffffffffff160217905550602082015181600101556040820151816002015f6101000a81548160ff021916908360028111156135ff576135fe613e1d565b5b021790555060608201518160020160016101000a81548173ffffffffffffffffffffffffffffffffffffffff021916908373ffffffffffffffffffffffffffffffffffffffff16021790555060808201518160020160156101000a81548160ff02191690831515021790555060a0820151816003015560c0820151816004015560e08201518160050155610100820151816006015561012082015181600701556101408201518160080155610160820151816009015f6101000a81548160ff021916908315150217905550905050600684908060018154018082558091505060019003905f5260205f20015f9091909190916101000a81548173ffffffffffffffffffffffffffffffffffffffff021916908373ffffffffffffffffffffffffffffffffffffffff1602179055508373ffffffffffffffffffffffffffffffffffffffff167f853440635bf3363339238048354e555b89626d0aea550141628ffe6ee089eef78484604051613775929190615328565b60405180910390a250505050565b6005602052815f5260405f20818154811061379c575f80fd5b905f5260205f2090600502015f9150915050805f0154908060010180546137c29061493b565b80601f01602080910402602001604051908101604052809291908181526020018280546137ee9061493b565b80156138395780601f1061381057610100808354040283529160200191613839565b820191905f5260205f20905b81548152906001019060200180831161381c57829003601f168201915b505050505090806002015f9054906101000a900460ff16908060020160019054906101000a900473ffffffffffffffffffffffffffffffffffffffff16908060030154908060040154905086565b7ffd70517941c75212b0f9013e45c47a37d6d983c5304288c7af285f2ea40cbba781565b5f7f01ffc9a7000000000000000000000000000000000000000000000000000000007bffffffffffffffffffffffffffffffffffffffffffffffffffffffff1916827bffffffffffffffffffffffffffffffffffffffffffffffffffffffff1916149050919050565b61392581613920613a11565b613b01565b50565b5f6139338383611fd1565b613a075760015f5f8581526020019081526020015f205f015f8473ffffffffffffffffffffffffffffffffffffffff1673ffffffffffffffffffffffffffffffffffffffff1681526020019081526020015f205f6101000a81548160ff0219169083151502179055506139a4613a11565b73ffffffffffffffffffffffffffffffffffffffff168273ffffffffffffffffffffffffffffffffffffffff16847f2f8788117e7eff1d82e926ec794901d17c78024a50270940304540a733656f0d60405160405180910390a460019050613a0b565b5f90505b92915050565b5f33905090565b5f613a238383611fd1565b15613af7575f5f5f8581526020019081526020015f205f015f8473ffffffffffffffffffffffffffffffffffffffff1673ffffffffffffffffffffffffffffffffffffffff1681526020019081526020015f205f6101000a81548160ff021916908315150217905550613a94613a11565b73ffffffffffffffffffffffffffffffffffffffff168273ffffffffffffffffffffffffffffffffffffffff16847ff6391f5c32d9c69d2a47ea670b442974b53935d1edc7fd64eb21e047a839171b60405160405180910390a460019050613afb565b5f90505b92915050565b613b0b8282611fd1565b613b4e5780826040517fe2517d3f000000000000000000000000000000000000000000000000000000008152600401613b4592919061534f565b60405180910390fd5b5050565b6040518061018001604052805f73ffffffffffffffffffffffffffffffffffffffff1681526020015f81526020015f6002811115613b9357613b92613e1d565b5b81526020015f73ffffffffffffffffffffffffffffffffffffffff1681526020015f151581526020015f81526020015f81526020015f81526020015f81526020015f81526020015f81526020015f151581525090565b5f604051905090565b5f5ffd5b5f5ffd5b5f7fffffffff0000000000000000000000000000000000000000000000000000000082169050919050565b613c2e81613bfa565b8114613c38575f5ffd5b50565b5f81359050613c4981613c25565b92915050565b5f60208284031215613c6457613c63613bf2565b5b5f613c7184828501613c3b565b91505092915050565b5f8115159050919050565b613c8e81613c7a565b82525050565b5f602082019050613ca75f830184613c85565b92915050565b5f819050919050565b613cbf81613cad565b8114613cc9575f5ffd5b50565b5f81359050613cda81613cb6565b92915050565b5f60208284031215613cf557613cf4613bf2565b5b5f613d0284828501613ccc565b91505092915050565b613d1481613cad565b82525050565b5f602082019050613d2d5f830184613d0b565b92915050565b5f73ffffffffffffffffffffffffffffffffffffffff82169050919050565b5f613d5c82613d33565b9050919050565b613d6c81613d52565b8114613d76575f5ffd5b50565b5f81359050613d8781613d63565b92915050565b5f5f60408385031215613da357613da2613bf2565b5b5f613db085828601613ccc565b9250506020613dc185828601613d79565b9150509250929050565b5f60208284031215613de057613ddf613bf2565b5b5f613ded84828501613d79565b91505092915050565b613dff81613d52565b82525050565b5f819050919050565b613e1781613e05565b82525050565b7f4e487b71000000000000000000000000000000000000000000000000000000005f52602160045260245ffd5b60038110613e5b57613e5a613e1d565b5b50565b5f819050613e6b82613e4a565b919050565b5f613e7a82613e5e565b9050919050565b613e8a81613e70565b82525050565b613e9981613c7a565b82525050565b5f819050919050565b613eb181613e9f565b82525050565b61018082015f820151613ecc5f850182613df6565b506020820151613edf6020850182613e0e565b506040820151613ef26040850182613e81565b506060820151613f056060850182613df6565b506080820151613f186080850182613e90565b5060a0820151613f2b60a0850182613e0e565b5060c0820151613f3e60c0850182613e0e565b5060e0820151613f5160e0850182613e0e565b50610100820151613f66610100850182613ea8565b50610120820151613f7b610120850182613ea8565b50610140820151613f90610140850182613e0e565b50610160820151613fa5610160850182613e90565b50505050565b5f61018082019050613fbf5f830184613eb7565b92915050565b613fce81613e05565b8114613fd8575f5ffd5b50565b5f81359050613fe981613fc5565b92915050565b5f5f6040838503121561400557614004613bf2565b5b5f61401285828601613d79565b925050602061402385828601613fdb565b9150509250929050565b61403681613e9f565b82525050565b5f81519050919050565b5f82825260208201905092915050565b8281835e5f83830152505050565b5f601f19601f8301169050919050565b5f61407e8261403c565b6140888185614046565b9350614098818560208601614056565b6140a181614064565b840191505092915050565b6140b581613d52565b82525050565b6140c481613e05565b82525050565b5f60a0820190506140dd5f83018861402d565b81810360208301526140ef8187614074565b90506140fe6040830186613c85565b61410b60608301856140ac565b61411860808301846140bb565b9695505050505050565b5f81519050919050565b5f82825260208201905092915050565b5f819050602082019050919050565b5f82825260208201905092915050565b5f6141658261403c565b61416f818561414b565b935061417f818560208601614056565b61418881614064565b840191505092915050565b5f60a083015f8301516141a85f860182613ea8565b50602083015184820360208601526141c0828261415b565b91505060408301516141d56040860182613e90565b5060608301516141e86060860182613df6565b5060808301516141fb6080860182613e0e565b508091505092915050565b5f6142118383614193565b905092915050565b5f602082019050919050565b5f61422f82614122565b614239818561412c565b93508360208202850161424b8561413c565b805f5b8581101561428657848403895281516142678582614206565b945061427283614219565b925060208a0199505060018101905061424e565b50829750879550505050505092915050565b5f6020820190508181035f8301526142b08184614225565b905092915050565b5f6020820190506142cb5f8301846140bb565b92915050565b5f81519050919050565b5f82825260208201905092915050565b5f819050602082019050919050565b5f6143058383613df6565b60208301905092915050565b5f602082019050919050565b5f614327826142d1565b61433181856142db565b935061433c836142eb565b805f5b8381101561436c57815161435388826142fa565b975061435e83614311565b92505060018101905061433f565b5085935050505092915050565b5f6020820190508181035f830152614391818461431d565b905092915050565b5f602082840312156143ae576143ad613bf2565b5b5f6143bb84828501613fdb565b91505092915050565b5f6020820190506143d75f8301846140ac565b92915050565b5f81519050919050565b5f82825260208201905092915050565b5f819050602082019050919050565b5f60c083015f83015161441b5f860182613e0e565b5060208301518482036020860152614433828261415b565b91505060408301516144486040860182613e90565b50606083015161445b6060860182613df6565b50608083015161446e6080860182613e0e565b5060a083015161448160a0860182613e0e565b508091505092915050565b5f6144978383614406565b905092915050565b5f602082019050919050565b5f6144b5826143dd565b6144bf81856143e7565b9350836020820285016144d1856143f7565b805f5b8581101561450c57848403895281516144ed858261448c565b94506144f88361449f565b925060208a019950506001810190506144d4565b50829750879550505050505092915050565b5f6020820190508181035f83015261453681846144ab565b905092915050565b61454781613e9f565b8114614551575f5ffd5b50565b5f813590506145628161453e565b92915050565b5f5ffd5b5f5ffd5b7f4e487b71000000000000000000000000000000000000000000000000000000005f52604160045260245ffd5b6145a682614064565b810181811067ffffffffffffffff821117156145c5576145c4614570565b5b80604052505050565b5f6145d7613be9565b90506145e3828261459d565b919050565b5f67ffffffffffffffff82111561460257614601614570565b5b61460b82614064565b9050602081019050919050565b828183375f83830152505050565b5f614638614633846145e8565b6145ce565b9050828152602081018484840111156146545761465361456c565b5b61465f848285614618565b509392505050565b5f82601f83011261467b5761467a614568565b5b813561468b848260208601614626565b91505092915050565b5f5f5f606084860312156146ab576146aa613bf2565b5b5f6146b886828701613d79565b93505060206146c986828701614554565b925050604084013567ffffffffffffffff8111156146ea576146e9613bf6565b5b6146f686828701614667565b9150509250925092565b6003811061470c575f5ffd5b50565b5f8135905061471d81614700565b92915050565b5f5f5f5f6080858703121561473b5761473a613bf2565b5b5f61474887828801613d79565b945050602061475987828801613fdb565b935050604061476a8782880161470f565b925050606061477b87828801613d79565b91505092959194509250565b61479081613e70565b82525050565b5f610180820190506147aa5f83018f6140ac565b6147b7602083018e6140bb565b6147c4604083018d614787565b6147d1606083018c6140ac565b6147de608083018b613c85565b6147eb60a083018a6140bb565b6147f860c08301896140bb565b61480560e08301886140bb565b61481361010083018761402d565b61482161012083018661402d565b61482f6101408301856140bb565b61483d610160830184613c85565b9d9c50505050505050505050505050565b5f5f6040838503121561486457614863613bf2565b5b5f61487185828601613fdb565b925050602083013567ffffffffffffffff81111561489257614891613bf6565b5b61489e85828601614667565b9150509250929050565b5f60c0820190506148bb5f8301896140bb565b81810360208301526148cd8188614074565b90506148dc6040830187613c85565b6148e960608301866140ac565b6148f660808301856140bb565b61490360a08301846140bb565b979650505050505050565b7f4e487b71000000000000000000000000000000000000000000000000000000005f52602260045260245ffd5b5f600282049050600182168061495257607f821691505b6020821081036149655761496461490e565b5b50919050565b7f4e487b71000000000000000000000000000000000000000000000000000000005f52603260045260245ffd5b7f4e487b71000000000000000000000000000000000000000000000000000000005f52601160045260245ffd5b5f6149cf82613e05565b91507fffffffffffffffffffffffffffffffffffffffffffffffffffffffffffffffff8203614a0157614a00614998565b5b600182019050919050565b5f604082019050614a1f5f830185613d0b565b614a2c60208301846140ac565b9392505050565b614a3c81613c7a565b8114614a46575f5ffd5b50565b5f81519050614a5781614a33565b92915050565b5f60208284031215614a7257614a71613bf2565b5b5f614a7f84828501614a49565b91505092915050565b7f4e6f7420617574686f72697a65640000000000000000000000000000000000005f82015250565b5f614abc600e83614046565b9150614ac782614a88565b602082019050919050565b5f6020820190508181035f830152614ae981614ab0565b9050919050565b7f456d706c6f79656520616c726561647920696e616374697665000000000000005f82015250565b5f614b24601983614046565b9150614b2f82614af0565b602082019050919050565b5f6020820190508181035f830152614b5181614b18565b9050919050565b7f52657175697265732061646d696e206f722066696e616e636520726f6c6500005f82015250565b5f614b8c601e83614046565b9150614b9782614b58565b602082019050919050565b5f6020820190508181035f830152614bb981614b80565b9050919050565b7f496e76616c696420696e646578000000000000000000000000000000000000005f82015250565b5f614bf4600d83614046565b9150614bff82614bc0565b602082019050919050565b5f6020820190508181035f830152614c2181614be8565b9050919050565b7f416c726561647920617070726f766564000000000000000000000000000000005f82015250565b5f614c5c601083614046565b9150614c6782614c28565b602082019050919050565b5f6020820190508181035f830152614c8981614c50565b9050919050565b5f614c9a82613e9f565b9150614ca583613e9f565b92508282019050828112155f8312168382125f841215161715614ccb57614cca614998565b5b92915050565b5f614cdb82613e05565b9150614ce683613e05565b9250828201905080821115614cfe57614cfd614998565b5b92915050565b5f604082019050614d175f8301856140bb565b614d2460208301846140ac565b9392505050565b5f614d3582613e05565b9150614d4083613e05565b9250828203905081811115614d5857614d57614998565b5b92915050565b7f456d706c6f796565206e6f7420616374697665000000000000000000000000005f82015250565b5f614d92601383614046565b9150614d9d82614d5e565b602082019050919050565b5f6020820190508181035f830152614dbf81614d86565b9050919050565b5f819050815f5260205f209050919050565b5f6020601f8301049050919050565b5f82821b905092915050565b5f60088302614e227fffffffffffffffffffffffffffffffffffffffffffffffffffffffffffffffff82614de7565b614e2c8683614de7565b95508019841693508086168417925050509392505050565b5f819050919050565b5f614e67614e62614e5d84613e05565b614e44565b613e05565b9050919050565b5f819050919050565b614e8083614e4d565b614e94614e8c82614e6e565b848454614df3565b825550505050565b5f5f905090565b614eab614e9c565b614eb6818484614e77565b505050565b5b81811015614ed957614ece5f82614ea3565b600181019050614ebc565b5050565b601f821115614f1e57614eef81614dc6565b614ef884614dd8565b81016020851015614f07578190505b614f1b614f1385614dd8565b830182614ebb565b50505b505050565b5f82821c905092915050565b5f614f3e5f1984600802614f23565b1980831691505092915050565b5f614f568383614f2f565b9150826002028217905092915050565b614f6f8261403c565b67ffffffffffffffff811115614f8857614f87614570565b5b614f92825461493b565b614f9d828285614edd565b5f60209050601f831160018114614fce575f8415614fbc578287015190505b614fc68582614f4b565b86555061502d565b601f198416614fdc86614dc6565b5f5b8281101561500357848901518255600182019150602085019450602081019050614fde565b86831015615020578489015161501c601f891682614f2f565b8355505b6001600288020188555050505b505050505050565b5f6040820190506150485f83018561402d565b818103602083015261505a8184614074565b90509392505050565b7f4f6e6c7920706179726f6c6c20636f72652063616e2063616c6c0000000000005f82015250565b5f615097601a83614046565b91506150a282615063565b602082019050919050565b5f6020820190508181035f8301526150c48161508b565b9050919050565b5f6040820190506150de5f8301856140bb565b6150eb60208301846140bb565b9392505050565b7f416d6f756e74206d75737420626520706f7369746976650000000000000000005f82015250565b5f615126601783614046565b9150615131826150f2565b602082019050919050565b5f6020820190508181035f8301526151538161511a565b9050919050565b7f416476616e636520616c72656164792070656e64696e670000000000000000005f82015250565b5f61518e601783614046565b91506151998261515a565b602082019050919050565b5f6020820190508181035f8301526151bb81615182565b9050919050565b5f6040820190506151d55f8301856140bb565b81810360208301526151e78184614074565b90509392505050565b7f496e76616c69642077616c6c65742061646472657373000000000000000000005f82015250565b5f615224601683614046565b915061522f826151f0565b602082019050919050565b5f6020820190508181035f83015261525181615218565b9050919050565b7f4261736520616d6f756e74206d75737420626520706f736974697665000000005f82015250565b5f61528c601c83614046565b915061529782615258565b602082019050919050565b5f6020820190508181035f8301526152b981615280565b9050919050565b7f456d706c6f79656520616c7265616479206578697374730000000000000000005f82015250565b5f6152f4601783614046565b91506152ff826152c0565b602082019050919050565b5f6020820190508181035f830152615321816152e8565b9050919050565b5f60408201905061533b5f8301856140bb565b6153486020830184614787565b9392505050565b5f6040820190506153625f8301856140ac565b61536f6020830184613d0b565b939250505056fea2646970667358221220281d5fe199923a9706525fe4654d6c28c47feb599332a4d696c7c358928dd4c564736f6c634300081e00336080604052600a600655348015610014575f5ffd5b5060405161527138038061527183398181016040528101906100369190610695565b600180819055508160025f6101000a81548173ffffffffffffffffffffffffffffffffffffffff021916908373ffffffffffffffffffffffffffffffffffffffff1602179055506100c45f6040518060400160405280600381526020017f4554480000000000000000000000000000000000000000000000000000000000815250601261015e60201b60201c565b5f5f90505b8151811015610156575f73ffffffffffffffffffffffffffffffffffffffff168282815181106100fc576100fb6106ef565b5b602002602001015173ffffffffffffffffffffffffffffffffffffffff161461014957610148828281518110610135576101346106ef565b5b602002602001015161039f60201b60201c565b5b80806001019150506100c9565b505050610bd8565b6040518060c001604052808473ffffffffffffffffffffffffffffffffffffffff1681526020018381526020018260ff1681526020016001151581526020015f81526020015f81525060045f8573ffffffffffffffffffffffffffffffffffffffff1673ffffffffffffffffffffffffffffffffffffffff1681526020019081526020015f205f820151815f015f6101000a81548173ffffffffffffffffffffffffffffffffffffffff021916908373ffffffffffffffffffffffffffffffffffffffff160217905550602082015181600101908161023d919061092c565b506040820151816002015f6101000a81548160ff021916908360ff16021790555060608201518160020160016101000a81548160ff0219169083151502179055506080820151816003015560a08201518160040155905050600383908060018154018082558091505060019003905f5260205f20015f9091909190916101000a81548173ffffffffffffffffffffffffffffffffffffffff021916908373ffffffffffffffffffffffffffffffffffffffff160217905550600160055f8573ffffffffffffffffffffffffffffffffffffffff1673ffffffffffffffffffffffffffffffffffffffff1681526020019081526020015f205f6101000a81548160ff0219169083151502179055508273ffffffffffffffffffffffffffffffffffffffff167f3be0896d4cd1d645bdae8ade25a54bcdbb2c685ce55ac7e7bead95d0802b32de8383604051610392929190610a6c565b60405180910390a2505050565b5f6040518060400160405280600581526020017f544f4b454e00000000000000000000000000000000000000000000000000000081525090505f601290508273ffffffffffffffffffffffffffffffffffffffff1663313ce5676040518163ffffffff1660e01b8152600401602060405180830381865afa92505050801561044557506040513d601f19601f820116820180604052508101906104429190610ac4565b60015b1561044f57809150505b8273ffffffffffffffffffffffffffffffffffffffff166395d89b416040518163ffffffff1660e01b81526004015f60405180830381865afa9250505080156104ba57506040513d5f823e3d601f19601f820116820180604052508101906104b79190610b91565b60015b156104c457809250505b6104d583838361015e60201b60201c565b505050565b5f604051905090565b5f5ffd5b5f5ffd5b5f73ffffffffffffffffffffffffffffffffffffffff82169050919050565b5f610514826104eb565b9050919050565b6105248161050a565b811461052e575f5ffd5b50565b5f8151905061053f8161051b565b92915050565b5f5ffd5b5f601f19601f8301169050919050565b7f4e487b71000000000000000000000000000000000000000000000000000000005f52604160045260245ffd5b61058f82610549565b810181811067ffffffffffffffff821117156105ae576105ad610559565b5b80604052505050565b5f6105c06104da565b90506105cc8282610586565b919050565b5f67ffffffffffffffff8211156105eb576105ea610559565b5b602082029050602081019050919050565b5f5ffd5b5f61061261060d846105d1565b6105b7565b90508083825260208201905060208402830185811115610635576106346105fc565b5b835b8181101561065e578061064a8882610531565b845260208401935050602081019050610637565b5050509392505050565b5f82601f83011261067c5761067b610545565b5b815161068c848260208601610600565b91505092915050565b5f5f604083850312156106ab576106aa6104e3565b5b5f6106b885828601610531565b925050602083015167ffffffffffffffff8111156106d9576106d86104e7565b5b6106e585828601610668565b9150509250929050565b7f4e487b71000000000000000000000000000000000000000000000000000000005f52603260045260245ffd5b5f81519050919050565b7f4e487b71000000000000000000000000000000000000000000000000000000005f52602260045260245ffd5b5f600282049050600182168061076a57607f821691505b60208210810361077d5761077c610726565b5b50919050565b5f819050815f5260205f209050919050565b5f6020601f8301049050919050565b5f82821b905092915050565b5f600883026107df7fffffffffffffffffffffffffffffffffffffffffffffffffffffffffffffffff826107a4565b6107e986836107a4565b95508019841693508086168417925050509392505050565b5f819050919050565b5f819050919050565b5f61082d61082861082384610801565b61080a565b610801565b9050919050565b5f819050919050565b61084683610813565b61085a61085282610834565b8484546107b0565b825550505050565b5f5f905090565b610871610862565b61087c81848461083d565b505050565b5b8181101561089f576108945f82610869565b600181019050610882565b5050565b601f8211156108e4576108b581610783565b6108be84610795565b810160208510156108cd578190505b6108e16108d985610795565b830182610881565b50505b505050565b5f82821c905092915050565b5f6109045f19846008026108e9565b1980831691505092915050565b5f61091c83836108f5565b9150826002028217905092915050565b6109358261071c565b67ffffffffffffffff81111561094e5761094d610559565b5b6109588254610753565b6109638282856108a3565b5f60209050601f831160018114610994575f8415610982578287015190505b61098c8582610911565b8655506109f3565b601f1984166109a286610783565b5f5b828110156109c9578489015182556001820191506020850194506020810190506109a4565b868310156109e657848901516109e2601f8916826108f5565b8355505b6001600288020188555050505b505050505050565b5f82825260208201905092915050565b8281835e5f83830152505050565b5f610a238261071c565b610a2d81856109fb565b9350610a3d818560208601610a0b565b610a4681610549565b840191505092915050565b5f60ff82169050919050565b610a6681610a51565b82525050565b5f6040820190508181035f830152610a848185610a19565b9050610a936020830184610a5d565b9392505050565b610aa381610a51565b8114610aad575f5ffd5b50565b5f81519050610abe81610a9a565b92915050565b5f60208284031215610ad957610ad86104e3565b5b5f610ae684828501610ab0565b91505092915050565b5f5ffd5b5f67ffffffffffffffff821115610b0d57610b0c610559565b5b610b1682610549565b9050602081019050919050565b5f610b35610b3084610af3565b6105b7565b905082815260208101848484011115610b5157610b50610aef565b5b610b5c848285610a0b565b509392505050565b5f82601f830112610b7857610b77610545565b5b8151610b88848260208601610b23565b91505092915050565b5f60208284031215610ba657610ba56104e3565b5b5f82015167ffffffffffffffff811115610bc357610bc26104e7565b5b610bcf84828501610b64565b91505092915050565b61468c80610be55f395ff3fe6080604052600436106101c5575f3560e01c80636e82ad06116100f6578063a217fddf11610094578063d3c7c2c711610063578063d3c7c2c71461073f578063d547741f14610769578063f5dab71114610791578063f700c829146107d257610287565b8063a217fddf14610681578063bc4b3365146106ab578063c6255626146106c7578063d1a0cc5c1461070357610287565b806376319190116100d057806376319190146105c757806391d14854146105ef5780639304739d1461062b578063a1c7c1a61461065757610287565b80636e82ad061461053957806375151b631461056157806375b238fc1461059d57610287565b806328983ebd11610163578063349b59541161013d578063349b59541461048357806336568abe146104ad5780633aecd0e3146104d55780636d69fcaf1461051157610287565b806328983ebd146103f55780632f2ff15d1461043357806333a738c91461045b57610287565b80631cc0a1c31161019f5780631cc0a1c3146103175780631d163923146103535780631f69565f1461037d578063248a9ca3146103b957610287565b806301ffc9a71461028b5780631132454d146102c75780631c20fadd146102ef57610287565b36610287573460045f5f73ffffffffffffffffffffffffffffffffffffffff1673ffffffffffffffffffffffffffffffffffffffff1681526020019081526020015f206003015f8282546102199190613170565b925050819055503373ffffffffffffffffffffffffffffffffffffffff165f73ffffffffffffffffffffffffffffffffffffffff167f30f1cc05e02cab00b43711c7c16df2558139122d0feea37e4977a748e013a5aa3460405161027d91906131b2565b60405180910390a3005b5f5ffd5b348015610296575f5ffd5b506102b160048036038101906102ac9190613231565b6107fc565b6040516102be9190613276565b60405180910390f35b3480156102d2575f5ffd5b506102ed60048036038101906102e891906132b9565b610875565b005b3480156102fa575f5ffd5b506103156004803603810190610310919061333e565b610abf565b005b348015610322575f5ffd5b5061033d6004803603810190610338919061333e565b611017565b60405161034a91906131b2565b60405180910390f35b34801561035e575f5ffd5b50610367611062565b60405161037491906131b2565b60405180910390f35b348015610388575f5ffd5b506103a3600480360381019061039e919061338e565b61106e565b6040516103b091906134f7565b60405180910390f35b3480156103c4575f5ffd5b506103df60048036038101906103da919061354a565b6111f4565b6040516103ec9190613584565b60405180910390f35b348015610400575f5ffd5b5061041b6004803603810190610416919061359d565b611210565b60405161042a939291906135db565b60405180910390f35b34801561043e575f5ffd5b5061045960048036038101906104549190613610565b61127d565b005b348015610466575f5ffd5b50610481600480360381019061047c919061333e565b61129f565b005b34801561048e575f5ffd5b506104976113ba565b6040516104a49190613584565b60405180910390f35b3480156104b8575f5ffd5b506104d360048036038101906104ce9190613610565b6113de565b005b3480156104e0575f5ffd5b506104fb60048036038101906104f6919061338e565b611459565b60405161050891906131b2565b60405180910390f35b34801561051c575f5ffd5b506105376004803603810190610532919061338e565b6114a2565b005b348015610544575f5ffd5b5061055f600480360381019061055a919061359d565b611762565b005b34801561056c575f5ffd5b506105876004803603810190610582919061338e565b611804565b6040516105949190613276565b60405180910390f35b3480156105a8575f5ffd5b506105b1611821565b6040516105be9190613584565b60405180910390f35b3480156105d2575f5ffd5b506105ed60048036038101906105e8919061338e565b611845565b005b3480156105fa575f5ffd5b5061061560048036038101906106109190613610565b611de9565b6040516106229190613276565b60405180910390f35b348015610636575f5ffd5b5061063f611e4c565b60405161064e9392919061379e565b60405180910390f35b348015610662575f5ffd5b5061066b6120d3565b60405161067891906137f7565b60405180910390f35b34801561068c575f5ffd5b506106956120f8565b6040516106a29190613584565b60405180910390f35b6106c560048036038101906106c0919061359d565b6120fe565b005b3480156106d2575f5ffd5b506106ed60048036038101906106e891906132b9565b61248a565b6040516106fa91906137f7565b60405180910390f35b34801561070e575f5ffd5b506107296004803603810190610724919061333e565b6124c5565b6040516107369190613276565b60405180910390f35b34801561074a575f5ffd5b50610753612734565b6040516107609190613810565b60405180910390f35b348015610774575f5ffd5b5061078f600480360381019061078a9190613610565b6127bf565b005b34801561079c575f5ffd5b506107b760048036038101906107b2919061338e565b6127e1565b6040516107c996959493929190613887565b60405180910390f35b3480156107dd575f5ffd5b506107e66128d7565b6040516107f391906131b2565b60405180910390f35b5f7f7965db0b000000000000000000000000000000000000000000000000000000007bffffffffffffffffffffffffffffffffffffffffffffffffffffffff1916827bffffffffffffffffffffffffffffffffffffffffffffffffffffffff1916148061086e575061086d826128dd565b5b9050919050565b60025f9054906101000a900473ffffffffffffffffffffffffffffffffffffffff1673ffffffffffffffffffffffffffffffffffffffff166391d148547fa49807205ce4d355092ef5a8a18f56e8913cf4a201fbe287825b095693c21775336040518363ffffffff1660e01b81526004016108f19291906138ed565b602060405180830381865afa15801561090c573d5f5f3e3d5ffd5b505050506040513d601f19601f82011682018060405250810190610930919061393e565b806109f2575060025f9054906101000a900473ffffffffffffffffffffffffffffffffffffffff1673ffffffffffffffffffffffffffffffffffffffff166391d148547f940d6b1946ff1d2b5a9f1909219c3c81a370804b5ba0f91ec0828c99a2e6a681336040518363ffffffff1660e01b81526004016109b29291906138ed565b602060405180830381865afa1580156109cd573d5f5f3e3d5ffd5b505050506040513d601f19601f820116820180604052508101906109f1919061393e565b5b610a31576040517f08c379a0000000000000000000000000000000000000000000000000000000008152600401610a28906139b3565b60405180910390fd5b6032811115610a75576040517f08c379a0000000000000000000000000000000000000000000000000000000008152600401610a6c90613a1b565b60405180910390fd5b5f6006549050816006819055507f4ec795d4fbc11bd4b110942496b55a732f92e5cad5729df002860f4c0580d7d18183604051610ab3929190613a39565b60405180910390a15050565b60025f9054906101000a900473ffffffffffffffffffffffffffffffffffffffff1673ffffffffffffffffffffffffffffffffffffffff166391d148547fa49807205ce4d355092ef5a8a18f56e8913cf4a201fbe287825b095693c21775336040518363ffffffff1660e01b8152600401610b3b9291906138ed565b602060405180830381865afa158015610b56573d5f5f3e3d5ffd5b505050506040513d601f19601f82011682018060405250810190610b7a919061393e565b80610c3c575060025f9054906101000a900473ffffffffffffffffffffffffffffffffffffffff1673ffffffffffffffffffffffffffffffffffffffff166391d148547f940d6b1946ff1d2b5a9f1909219c3c81a370804b5ba0f91ec0828c99a2e6a681336040518363ffffffff1660e01b8152600401610bfc9291906138ed565b602060405180830381865afa158015610c17573d5f5f3e3d5ffd5b505050506040513d601f19601f82011682018060405250810190610c3b919061393e565b5b610c7b576040517f08c379a0000000000000000000000000000000000000000000000000000000008152600401610c72906139b3565b60405180910390fd5b610c83612946565b5f73ffffffffffffffffffffffffffffffffffffffff168273ffffffffffffffffffffffffffffffffffffffff1603610cf1576040517f08c379a0000000000000000000000000000000000000000000000000000000008152600401610ce890613aaa565b60405180910390fd5b5f8111610d33576040517f08c379a0000000000000000000000000000000000000000000000000000000008152600401610d2a90613b12565b60405180910390fd5b8060045f8573ffffffffffffffffffffffffffffffffffffffff1673ffffffffffffffffffffffffffffffffffffffff1681526020019081526020015f20600301541015610db6576040517f08c379a0000000000000000000000000000000000000000000000000000000008152600401610dad90613b7a565b60405180910390fd5b5f8160045f8673ffffffffffffffffffffffffffffffffffffffff1673ffffffffffffffffffffffffffffffffffffffff1681526020019081526020015f2060030154610e039190613b98565b90505f606460065460045f8873ffffffffffffffffffffffffffffffffffffffff1673ffffffffffffffffffffffffffffffffffffffff1681526020019081526020015f2060030154610e569190613bcb565b610e609190613c39565b905080821015610ea5576040517f08c379a0000000000000000000000000000000000000000000000000000000008152600401610e9c90613cd9565b60405180910390fd5b8260045f8773ffffffffffffffffffffffffffffffffffffffff1673ffffffffffffffffffffffffffffffffffffffff1681526020019081526020015f206003015f828254610ef49190613b98565b925050819055505f73ffffffffffffffffffffffffffffffffffffffff168573ffffffffffffffffffffffffffffffffffffffff1603610f77578373ffffffffffffffffffffffffffffffffffffffff166108fc8490811502906040515f60405180830381858888f19350505050158015610f71573d5f5f3e3d5ffd5b50610fa3565b610fa284848773ffffffffffffffffffffffffffffffffffffffff166129959092919063ffffffff16565b5b8373ffffffffffffffffffffffffffffffffffffffff168573ffffffffffffffffffffffffffffffffffffffff167fe9171aeff46c37ab955b8aff908e14ae9732bd06634fa131226cfe5c25bfd2fb8560405161100091906131b2565b60405180910390a35050611012612a14565b505050565b5f5f73ffffffffffffffffffffffffffffffffffffffff168473ffffffffffffffffffffffffffffffffffffffff160361105557615208905061105b565b61fde890505b9392505050565b5f600380549050905090565b6110766130ee565b60045f8373ffffffffffffffffffffffffffffffffffffffff1673ffffffffffffffffffffffffffffffffffffffff1681526020019081526020015f206040518060c00160405290815f82015f9054906101000a900473ffffffffffffffffffffffffffffffffffffffff1673ffffffffffffffffffffffffffffffffffffffff1673ffffffffffffffffffffffffffffffffffffffff16815260200160018201805461112290613d24565b80601f016020809104026020016040519081016040528092919081815260200182805461114e90613d24565b80156111995780601f1061117057610100808354040283529160200191611199565b820191905f5260205f20905b81548152906001019060200180831161117c57829003601f168201915b50505050508152602001600282015f9054906101000a900460ff1660ff1660ff1681526020016002820160019054906101000a900460ff16151515158152602001600382015481526020016004820154815250509050919050565b5f5f5f8381526020019081526020015f20600101549050919050565b5f5f5f60045f8673ffffffffffffffffffffffffffffffffffffffff1673ffffffffffffffffffffffffffffffffffffffff1681526020019081526020015f206003015491508382101592508261127257818461126d9190613b98565b611274565b5f5b90509250925092565b611286826111f4565b61128f81612a1d565b6112998383612a31565b50505050565b3073ffffffffffffffffffffffffffffffffffffffff163373ffffffffffffffffffffffffffffffffffffffff161461130d576040517f08c379a000000000000000000000000000000000000000000000000000000000815260040161130490613d9e565b60405180910390fd5b5f73ffffffffffffffffffffffffffffffffffffffff168373ffffffffffffffffffffffffffffffffffffffff1603611389578173ffffffffffffffffffffffffffffffffffffffff166108fc8290811502906040515f60405180830381858888f19350505050158015611383573d5f5f3e3d5ffd5b506113b5565b6113b482828573ffffffffffffffffffffffffffffffffffffffff166129959092919063ffffffff16565b5b505050565b7f940d6b1946ff1d2b5a9f1909219c3c81a370804b5ba0f91ec0828c99a2e6a68181565b6113e6612b1a565b73ffffffffffffffffffffffffffffffffffffffff168173ffffffffffffffffffffffffffffffffffffffff161461144a576040517f6697b23200000000000000000000000000000000000000000000000000000000815260040160405180910390fd5b6114548282612b21565b505050565b5f60045f8373ffffffffffffffffffffffffffffffffffffffff1673ffffffffffffffffffffffffffffffffffffffff1681526020019081526020015f20600301549050919050565b60025f9054906101000a900473ffffffffffffffffffffffffffffffffffffffff1673ffffffffffffffffffffffffffffffffffffffff166391d148547fa49807205ce4d355092ef5a8a18f56e8913cf4a201fbe287825b095693c21775336040518363ffffffff1660e01b815260040161151e9291906138ed565b602060405180830381865afa158015611539573d5f5f3e3d5ffd5b505050506040513d601f19601f8201168201806040525081019061155d919061393e565b8061161f575060025f9054906101000a900473ffffffffffffffffffffffffffffffffffffffff1673ffffffffffffffffffffffffffffffffffffffff166391d148547f940d6b1946ff1d2b5a9f1909219c3c81a370804b5ba0f91ec0828c99a2e6a681336040518363ffffffff1660e01b81526004016115df9291906138ed565b602060405180830381865afa1580156115fa573d5f5f3e3d5ffd5b505050506040513d601f19601f8201168201806040525081019061161e919061393e565b5b61165e576040517f08c379a0000000000000000000000000000000000000000000000000000000008152600401611655906139b3565b60405180910390fd5b5f73ffffffffffffffffffffffffffffffffffffffff168173ffffffffffffffffffffffffffffffffffffffff16036116cc576040517f08c379a00000000000000000000000000000000000000000000000000000000081526004016116c390613e06565b60405180910390fd5b60055f8273ffffffffffffffffffffffffffffffffffffffff1673ffffffffffffffffffffffffffffffffffffffff1681526020019081526020015f205f9054906101000a900460ff1615611756576040517f08c379a000000000000000000000000000000000000000000000000000000000815260040161174d90613e6e565b60405180910390fd5b61175f81612c0a565b50565b5f60045f8473ffffffffffffffffffffffffffffffffffffffff1673ffffffffffffffffffffffffffffffffffffffff1681526020019081526020015f20600301549050818110156117ff578273ffffffffffffffffffffffffffffffffffffffff167f6aad3d1975afe102cc763ebd9287d7f7c164d906ea5c8f0c505dbfa92995bb6d82846040516117f6929190613a39565b60405180910390a25b505050565b6005602052805f5260405f205f915054906101000a900460ff1681565b7fa49807205ce4d355092ef5a8a18f56e8913cf4a201fbe287825b095693c2177581565b60025f9054906101000a900473ffffffffffffffffffffffffffffffffffffffff1673ffffffffffffffffffffffffffffffffffffffff166391d148547fa49807205ce4d355092ef5a8a18f56e8913cf4a201fbe287825b095693c21775336040518363ffffffff1660e01b81526004016118c19291906138ed565b602060405180830381865afa1580156118dc573d5f5f3e3d5ffd5b505050506040513d601f19601f82011682018060405250810190611900919061393e565b806119c2575060025f9054906101000a900473ffffffffffffffffffffffffffffffffffffffff1673ffffffffffffffffffffffffffffffffffffffff166391d148547f940d6b1946ff1d2b5a9f1909219c3c81a370804b5ba0f91ec0828c99a2e6a681336040518363ffffffff1660e01b81526004016119829291906138ed565b602060405180830381865afa15801561199d573d5f5f3e3d5ffd5b505050506040513d601f19601f820116820180604052508101906119c1919061393e565b5b611a01576040517f08c379a00000000000000000000000000000000000000000000000000000000081526004016119f8906139b3565b60405180910390fd5b5f73ffffffffffffffffffffffffffffffffffffffff168173ffffffffffffffffffffffffffffffffffffffff1603611a6f576040517f08c379a0000000000000000000000000000000000000000000000000000000008152600401611a6690613ed6565b60405180910390fd5b60055f8273ffffffffffffffffffffffffffffffffffffffff1673ffffffffffffffffffffffffffffffffffffffff1681526020019081526020015f205f9054906101000a900460ff16611af8576040517f08c379a0000000000000000000000000000000000000000000000000000000008152600401611aef90613f3e565b60405180910390fd5b5f60045f8373ffffffffffffffffffffffffffffffffffffffff1673ffffffffffffffffffffffffffffffffffffffff1681526020019081526020015f206003015414611b7a576040517f08c379a0000000000000000000000000000000000000000000000000000000008152600401611b7190613fcc565b60405180910390fd5b5f60055f8373ffffffffffffffffffffffffffffffffffffffff1673ffffffffffffffffffffffffffffffffffffffff1681526020019081526020015f205f6101000a81548160ff0219169083151502179055505f60045f8373ffffffffffffffffffffffffffffffffffffffff1673ffffffffffffffffffffffffffffffffffffffff1681526020019081526020015f2060020160016101000a81548160ff0219169083151502179055505f5f90505b600380549050811015611da2578173ffffffffffffffffffffffffffffffffffffffff1660038281548110611c6357611c62613fea565b5b905f5260205f20015f9054906101000a900473ffffffffffffffffffffffffffffffffffffffff1673ffffffffffffffffffffffffffffffffffffffff1603611d955760036001600380549050611cba9190613b98565b81548110611ccb57611cca613fea565b5b905f5260205f20015f9054906101000a900473ffffffffffffffffffffffffffffffffffffffff1660038281548110611d0757611d06613fea565b5b905f5260205f20015f6101000a81548173ffffffffffffffffffffffffffffffffffffffff021916908373ffffffffffffffffffffffffffffffffffffffff1602179055506003805480611d5e57611d5d614017565b5b600190038181905f5260205f20015f6101000a81549073ffffffffffffffffffffffffffffffffffffffff02191690559055611da2565b8080600101915050611c2b565b508073ffffffffffffffffffffffffffffffffffffffff167f4c910b69fe65a61f7531b9c5042b2329ca7179c77290aa7e2eb3afa3c8511fd360405160405180910390a250565b5f5f5f8481526020019081526020015f205f015f8373ffffffffffffffffffffffffffffffffffffffff1673ffffffffffffffffffffffffffffffffffffffff1681526020019081526020015f205f9054906101000a900460ff16905092915050565b60608060605f60038054905090508067ffffffffffffffff811115611e7457611e73614044565b5b604051908082528060200260200182016040528015611ea25781602001602082028036833780820191505090505b5093508067ffffffffffffffff811115611ebf57611ebe614044565b5b604051908082528060200260200182016040528015611eed5781602001602082028036833780820191505090505b5092508067ffffffffffffffff811115611f0a57611f09614044565b5b604051908082528060200260200182016040528015611f385781602001602082028036833780820191505090505b5091505f5f90505b818110156120cc5760038181548110611f5c57611f5b613fea565b5b905f5260205f20015f9054906101000a900473ffffffffffffffffffffffffffffffffffffffff16858281518110611f9757611f96613fea565b5b602002602001019073ffffffffffffffffffffffffffffffffffffffff16908173ffffffffffffffffffffffffffffffffffffffff168152505060045f60038381548110611fe857611fe7613fea565b5b905f5260205f20015f9054906101000a900473ffffffffffffffffffffffffffffffffffffffff1673ffffffffffffffffffffffffffffffffffffffff1673ffffffffffffffffffffffffffffffffffffffff1681526020019081526020015f20600301548482815181106120605761205f613fea565b5b602002602001018181525050606460065485838151811061208457612083613fea565b5b60200260200101516120969190613bcb565b6120a09190613c39565b8382815181106120b3576120b2613fea565b5b6020026020010181815250508080600101915050611f40565b5050909192565b60025f9054906101000a900473ffffffffffffffffffffffffffffffffffffffff1681565b5f5f1b81565b60025f9054906101000a900473ffffffffffffffffffffffffffffffffffffffff1673ffffffffffffffffffffffffffffffffffffffff163373ffffffffffffffffffffffffffffffffffffffff161461218d576040517f08c379a0000000000000000000000000000000000000000000000000000000008152600401612184906140bb565b60405180910390fd5b612195612946565b5f73ffffffffffffffffffffffffffffffffffffffff168273ffffffffffffffffffffffffffffffffffffffff16036122ca575f341161220a576040517f08c379a000000000000000000000000000000000000000000000000000000000815260040161220190614123565b60405180910390fd5b3460045f5f73ffffffffffffffffffffffffffffffffffffffff1673ffffffffffffffffffffffffffffffffffffffff1681526020019081526020015f206003015f8282546122599190613170565b925050819055503273ffffffffffffffffffffffffffffffffffffffff165f73ffffffffffffffffffffffffffffffffffffffff167f30f1cc05e02cab00b43711c7c16df2558139122d0feea37e4977a748e013a5aa346040516122bd91906131b2565b60405180910390a361247e565b60055f8373ffffffffffffffffffffffffffffffffffffffff1673ffffffffffffffffffffffffffffffffffffffff1681526020019081526020015f205f9054906101000a900460ff16612353576040517f08c379a000000000000000000000000000000000000000000000000000000000815260040161234a90613f3e565b60405180910390fd5b5f8111612395576040517f08c379a000000000000000000000000000000000000000000000000000000000815260040161238c90613b12565b60405180910390fd5b6123c23230838573ffffffffffffffffffffffffffffffffffffffff16612d3f909392919063ffffffff16565b8060045f8473ffffffffffffffffffffffffffffffffffffffff1673ffffffffffffffffffffffffffffffffffffffff1681526020019081526020015f206003015f8282546124119190613170565b925050819055503273ffffffffffffffffffffffffffffffffffffffff168273ffffffffffffffffffffffffffffffffffffffff167f30f1cc05e02cab00b43711c7c16df2558139122d0feea37e4977a748e013a5aa8360405161247591906131b2565b60405180910390a35b612486612a14565b5050565b60038181548110612499575f80fd5b905f5260205f20015f915054906101000a900473ffffffffffffffffffffffffffffffffffffffff1681565b5f60025f9054906101000a900473ffffffffffffffffffffffffffffffffffffffff1673ffffffffffffffffffffffffffffffffffffffff163373ffffffffffffffffffffffffffffffffffffffff1614612555576040517f08c379a000000000000000000000000000000000000000000000000000000000815260040161254c906140bb565b60405180910390fd5b61255d612946565b60055f8573ffffffffffffffffffffffffffffffffffffffff1673ffffffffffffffffffffffffffffffffffffffff1681526020019081526020015f205f9054906101000a900460ff166125b3575f9050612725565b8160045f8673ffffffffffffffffffffffffffffffffffffffff1673ffffffffffffffffffffffffffffffffffffffff1681526020019081526020015f20600301541015612603575f9050612725565b8160045f8673ffffffffffffffffffffffffffffffffffffffff1673ffffffffffffffffffffffffffffffffffffffff1681526020019081526020015f206003015f8282546126529190613b98565b925050819055503073ffffffffffffffffffffffffffffffffffffffff166333a738c98585856040518463ffffffff1660e01b815260040161269693929190614141565b5f604051808303815f87803b1580156126ad575f5ffd5b505af19250505080156126be575060015b612720578160045f8673ffffffffffffffffffffffffffffffffffffffff1673ffffffffffffffffffffffffffffffffffffffff1681526020019081526020015f206003015f8282546127119190613170565b925050819055505f9050612725565b600190505b61272d612a14565b9392505050565b606060038054806020026020016040519081016040528092919081815260200182805480156127b557602002820191905f5260205f20905b815f9054906101000a900473ffffffffffffffffffffffffffffffffffffffff1673ffffffffffffffffffffffffffffffffffffffff168152602001906001019080831161276c575b5050505050905090565b6127c8826111f4565b6127d181612a1d565b6127db8383612b21565b50505050565b6004602052805f5260405f205f91509050805f015f9054906101000a900473ffffffffffffffffffffffffffffffffffffffff169080600101805461282590613d24565b80601f016020809104026020016040519081016040528092919081815260200182805461285190613d24565b801561289c5780601f106128735761010080835404028352916020019161289c565b820191905f5260205f20905b81548152906001019060200180831161287f57829003601f168201915b505050505090806002015f9054906101000a900460ff16908060020160019054906101000a900460ff16908060030154908060040154905086565b60065481565b5f7f01ffc9a7000000000000000000000000000000000000000000000000000000007bffffffffffffffffffffffffffffffffffffffffffffffffffffffff1916827bffffffffffffffffffffffffffffffffffffffffffffffffffffffff1916149050919050565b60026001540361298b576040517f08c379a0000000000000000000000000000000000000000000000000000000008152600401612982906141c0565b60405180910390fd5b6002600181905550565b612a0f838473ffffffffffffffffffffffffffffffffffffffff1663a9059cbb85856040516024016129c89291906141de565b604051602081830303815290604052915060e01b6020820180517bffffffffffffffffffffffffffffffffffffffffffffffffffffffff8381831617835250505050612dc1565b505050565b60018081905550565b612a2e81612a29612b1a565b612e5c565b50565b5f612a3c8383611de9565b612b105760015f5f8581526020019081526020015f205f015f8473ffffffffffffffffffffffffffffffffffffffff1673ffffffffffffffffffffffffffffffffffffffff1681526020019081526020015f205f6101000a81548160ff021916908315150217905550612aad612b1a565b73ffffffffffffffffffffffffffffffffffffffff168273ffffffffffffffffffffffffffffffffffffffff16847f2f8788117e7eff1d82e926ec794901d17c78024a50270940304540a733656f0d60405160405180910390a460019050612b14565b5f90505b92915050565b5f33905090565b5f612b2c8383611de9565b15612c00575f5f5f8581526020019081526020015f205f015f8473ffffffffffffffffffffffffffffffffffffffff1673ffffffffffffffffffffffffffffffffffffffff1681526020019081526020015f205f6101000a81548160ff021916908315150217905550612b9d612b1a565b73ffffffffffffffffffffffffffffffffffffffff168273ffffffffffffffffffffffffffffffffffffffff16847ff6391f5c32d9c69d2a47ea670b442974b53935d1edc7fd64eb21e047a839171b60405160405180910390a460019050612c04565b5f90505b92915050565b5f6040518060400160405280600581526020017f544f4b454e00000000000000000000000000000000000000000000000000000081525090505f601290508273ffffffffffffffffffffffffffffffffffffffff1663313ce5676040518163ffffffff1660e01b8152600401602060405180830381865afa925050508015612cb057506040513d601f19601f82011682018060405250810190612cad919061422f565b60015b15612cba57809150505b8273ffffffffffffffffffffffffffffffffffffffff166395d89b416040518163ffffffff1660e01b81526004015f60405180830381865afa925050508015612d2557506040513d5f823e3d601f19601f82011682018060405250810190612d22919061434b565b60015b15612d2f57809250505b612d3a838383612ead565b505050565b612dbb848573ffffffffffffffffffffffffffffffffffffffff166323b872dd868686604051602401612d7493929190614141565b604051602081830303815290604052915060e01b6020820180517bffffffffffffffffffffffffffffffffffffffffffffffffffffffff8381831617835250505050612dc1565b50505050565b5f5f60205f8451602086015f885af180612de0576040513d5f823e3d81fd5b3d92505f519150505f8214612df9576001811415612e14565b5f8473ffffffffffffffffffffffffffffffffffffffff163b145b15612e5657836040517f5274afe7000000000000000000000000000000000000000000000000000000008152600401612e4d91906137f7565b60405180910390fd5b50505050565b612e668282611de9565b612ea95780826040517fe2517d3f000000000000000000000000000000000000000000000000000000008152600401612ea0929190614392565b60405180910390fd5b5050565b6040518060c001604052808473ffffffffffffffffffffffffffffffffffffffff1681526020018381526020018260ff1681526020016001151581526020015f81526020015f81525060045f8573ffffffffffffffffffffffffffffffffffffffff1673ffffffffffffffffffffffffffffffffffffffff1681526020019081526020015f205f820151815f015f6101000a81548173ffffffffffffffffffffffffffffffffffffffff021916908373ffffffffffffffffffffffffffffffffffffffff1602179055506020820151816001019081612f8c9190614559565b506040820151816002015f6101000a81548160ff021916908360ff16021790555060608201518160020160016101000a81548160ff0219169083151502179055506080820151816003015560a08201518160040155905050600383908060018154018082558091505060019003905f5260205f20015f9091909190916101000a81548173ffffffffffffffffffffffffffffffffffffffff021916908373ffffffffffffffffffffffffffffffffffffffff160217905550600160055f8573ffffffffffffffffffffffffffffffffffffffff1673ffffffffffffffffffffffffffffffffffffffff1681526020019081526020015f205f6101000a81548160ff0219169083151502179055508273ffffffffffffffffffffffffffffffffffffffff167f3be0896d4cd1d645bdae8ade25a54bcdbb2c685ce55ac7e7bead95d0802b32de83836040516130e1929190614628565b60405180910390a2505050565b6040518060c001604052805f73ffffffffffffffffffffffffffffffffffffffff168152602001606081526020015f60ff1681526020015f151581526020015f81526020015f81525090565b5f819050919050565b7f4e487b71000000000000000000000000000000000000000000000000000000005f52601160045260245ffd5b5f61317a8261313a565b91506131858361313a565b925082820190508082111561319d5761319c613143565b5b92915050565b6131ac8161313a565b82525050565b5f6020820190506131c55f8301846131a3565b92915050565b5f604051905090565b5f5ffd5b5f5ffd5b5f7fffffffff0000000000000000000000000000000000000000000000000000000082169050919050565b613210816131dc565b811461321a575f5ffd5b50565b5f8135905061322b81613207565b92915050565b5f60208284031215613246576132456131d4565b5b5f6132538482850161321d565b91505092915050565b5f8115159050919050565b6132708161325c565b82525050565b5f6020820190506132895f830184613267565b92915050565b6132988161313a565b81146132a2575f5ffd5b50565b5f813590506132b38161328f565b92915050565b5f602082840312156132ce576132cd6131d4565b5b5f6132db848285016132a5565b91505092915050565b5f73ffffffffffffffffffffffffffffffffffffffff82169050919050565b5f61330d826132e4565b9050919050565b61331d81613303565b8114613327575f5ffd5b50565b5f8135905061333881613314565b92915050565b5f5f5f60608486031215613355576133546131d4565b5b5f6133628682870161332a565b93505060206133738682870161332a565b9250506040613384868287016132a5565b9150509250925092565b5f602082840312156133a3576133a26131d4565b5b5f6133b08482850161332a565b91505092915050565b6133c281613303565b82525050565b5f81519050919050565b5f82825260208201905092915050565b8281835e5f83830152505050565b5f601f19601f8301169050919050565b5f61340a826133c8565b61341481856133d2565b93506134248185602086016133e2565b61342d816133f0565b840191505092915050565b5f60ff82169050919050565b61344d81613438565b82525050565b61345c8161325c565b82525050565b61346b8161313a565b82525050565b5f60c083015f8301516134865f8601826133b9565b506020830151848203602086015261349e8282613400565b91505060408301516134b36040860182613444565b5060608301516134c66060860182613453565b5060808301516134d96080860182613462565b5060a08301516134ec60a0860182613462565b508091505092915050565b5f6020820190508181035f83015261350f8184613471565b905092915050565b5f819050919050565b61352981613517565b8114613533575f5ffd5b50565b5f8135905061354481613520565b92915050565b5f6020828403121561355f5761355e6131d4565b5b5f61356c84828501613536565b91505092915050565b61357e81613517565b82525050565b5f6020820190506135975f830184613575565b92915050565b5f5f604083850312156135b3576135b26131d4565b5b5f6135c08582860161332a565b92505060206135d1858286016132a5565b9150509250929050565b5f6060820190506135ee5f830186613267565b6135fb60208301856131a3565b61360860408301846131a3565b949350505050565b5f5f60408385031215613626576136256131d4565b5b5f61363385828601613536565b92505060206136448582860161332a565b9150509250929050565b5f81519050919050565b5f82825260208201905092915050565b5f819050602082019050919050565b5f61368283836133b9565b60208301905092915050565b5f602082019050919050565b5f6136a48261364e565b6136ae8185613658565b93506136b983613668565b805f5b838110156136e95781516136d08882613677565b97506136db8361368e565b9250506001810190506136bc565b5085935050505092915050565b5f81519050919050565b5f82825260208201905092915050565b5f819050602082019050919050565b5f61372a8383613462565b60208301905092915050565b5f602082019050919050565b5f61374c826136f6565b6137568185613700565b935061376183613710565b805f5b83811015613791578151613778888261371f565b975061378383613736565b925050600181019050613764565b5085935050505092915050565b5f6060820190508181035f8301526137b6818661369a565b905081810360208301526137ca8185613742565b905081810360408301526137de8184613742565b9050949350505050565b6137f181613303565b82525050565b5f60208201905061380a5f8301846137e8565b92915050565b5f6020820190508181035f830152613828818461369a565b905092915050565b5f82825260208201905092915050565b5f61384a826133c8565b6138548185613830565b93506138648185602086016133e2565b61386d816133f0565b840191505092915050565b61388181613438565b82525050565b5f60c08201905061389a5f8301896137e8565b81810360208301526138ac8188613840565b90506138bb6040830187613878565b6138c86060830186613267565b6138d560808301856131a3565b6138e260a08301846131a3565b979650505050505050565b5f6040820190506139005f830185613575565b61390d60208301846137e8565b9392505050565b61391d8161325c565b8114613927575f5ffd5b50565b5f8151905061393881613914565b92915050565b5f60208284031215613953576139526131d4565b5b5f6139608482850161392a565b91505092915050565b7f4e6f7420617574686f72697a65640000000000000000000000000000000000005f82015250565b5f61399d600e83613830565b91506139a882613969565b602082019050919050565b5f6020820190508181035f8301526139ca81613991565b9050919050565b7f526573657276652070657263656e7461676520746f6f206869676800000000005f82015250565b5f613a05601b83613830565b9150613a10826139d1565b602082019050919050565b5f6020820190508181035f830152613a32816139f9565b9050919050565b5f604082019050613a4c5f8301856131a3565b613a5960208301846131a3565b9392505050565b7f496e76616c696420726563697069656e740000000000000000000000000000005f82015250565b5f613a94601183613830565b9150613a9f82613a60565b602082019050919050565b5f6020820190508181035f830152613ac181613a88565b9050919050565b7f416d6f756e74206d75737420626520706f7369746976650000000000000000005f82015250565b5f613afc601783613830565b9150613b0782613ac8565b602082019050919050565b5f6020820190508181035f830152613b2981613af0565b9050919050565b7f496e73756666696369656e742062616c616e63650000000000000000000000005f82015250565b5f613b64601483613830565b9150613b6f82613b30565b602082019050919050565b5f6020820190508181035f830152613b9181613b58565b9050919050565b5f613ba28261313a565b9150613bad8361313a565b9250828203905081811115613bc557613bc4613143565b5b92915050565b5f613bd58261313a565b9150613be08361313a565b9250828202613bee8161313a565b91508282048414831517613c0557613c04613143565b5b5092915050565b7f4e487b71000000000000000000000000000000000000000000000000000000005f52601260045260245ffd5b5f613c438261313a565b9150613c4e8361313a565b925082613c5e57613c5d613c0c565b5b828204905092915050565b7f576f756c642076696f6c617465207265736572766520726571756972656d656e5f8201527f7400000000000000000000000000000000000000000000000000000000000000602082015250565b5f613cc3602183613830565b9150613cce82613c69565b604082019050919050565b5f6020820190508181035f830152613cf081613cb7565b9050919050565b7f4e487b71000000000000000000000000000000000000000000000000000000005f52602260045260245ffd5b5f6002820490506001821680613d3b57607f821691505b602082108103613d4e57613d4d613cf7565b5b50919050565b7f496e7465726e616c2066756e6374696f6e0000000000000000000000000000005f82015250565b5f613d88601183613830565b9150613d9382613d54565b602082019050919050565b5f6020820190508181035f830152613db581613d7c565b9050919050565b7f43616e6e6f74206164642045544820616761696e0000000000000000000000005f82015250565b5f613df0601483613830565b9150613dfb82613dbc565b602082019050919050565b5f6020820190508181035f830152613e1d81613de4565b9050919050565b7f546f6b656e20616c726561647920737570706f727465640000000000000000005f82015250565b5f613e58601783613830565b9150613e6382613e24565b602082019050919050565b5f6020820190508181035f830152613e8581613e4c565b9050919050565b7f43616e6e6f742072656d6f7665204554480000000000000000000000000000005f82015250565b5f613ec0601183613830565b9150613ecb82613e8c565b602082019050919050565b5f6020820190508181035f830152613eed81613eb4565b9050919050565b7f546f6b656e206e6f7420737570706f72746564000000000000000000000000005f82015250565b5f613f28601383613830565b9150613f3382613ef4565b602082019050919050565b5f6020820190508181035f830152613f5581613f1c565b9050919050565b7f546f6b656e206861732062616c616e63652c20776974686472617720666972735f8201527f7400000000000000000000000000000000000000000000000000000000000000602082015250565b5f613fb6602183613830565b9150613fc182613f5c565b604082019050919050565b5f6020820190508181035f830152613fe381613faa565b9050919050565b7f4e487b71000000000000000000000000000000000000000000000000000000005f52603260045260245ffd5b7f4e487b71000000000000000000000000000000000000000000000000000000005f52603160045260245ffd5b7f4e487b71000000000000000000000000000000000000000000000000000000005f52604160045260245ffd5b7f4f6e6c7920706179726f6c6c20636f72652063616e2063616c6c0000000000005f82015250565b5f6140a5601a83613830565b91506140b082614071565b602082019050919050565b5f6020820190508181035f8301526140d281614099565b9050919050565b7f4e6f204554482073656e740000000000000000000000000000000000000000005f82015250565b5f61410d600b83613830565b9150614118826140d9565b602082019050919050565b5f6020820190508181035f83015261413a81614101565b9050919050565b5f6060820190506141545f8301866137e8565b61416160208301856137e8565b61416e60408301846131a3565b949350505050565b7f5265656e7472616e637947756172643a207265656e7472616e742063616c6c005f82015250565b5f6141aa601f83613830565b91506141b582614176565b602082019050919050565b5f6020820190508181035f8301526141d78161419e565b9050919050565b5f6040820190506141f15f8301856137e8565b6141fe60208301846131a3565b9392505050565b61420e81613438565b8114614218575f5ffd5b50565b5f8151905061422981614205565b92915050565b5f60208284031215614244576142436131d4565b5b5f6142518482850161421b565b91505092915050565b5f5ffd5b5f5ffd5b61426b826133f0565b810181811067ffffffffffffffff8211171561428a57614289614044565b5b80604052505050565b5f61429c6131cb565b90506142a88282614262565b919050565b5f67ffffffffffffffff8211156142c7576142c6614044565b5b6142d0826133f0565b9050602081019050919050565b5f6142ef6142ea846142ad565b614293565b90508281526020810184848401111561430b5761430a61425e565b5b6143168482856133e2565b509392505050565b5f82601f8301126143325761433161425a565b5b81516143428482602086016142dd565b91505092915050565b5f602082840312156143605761435f6131d4565b5b5f82015167ffffffffffffffff81111561437d5761437c6131d8565b5b6143898482850161431e565b91505092915050565b5f6040820190506143a55f8301856137e8565b6143b26020830184613575565b9392505050565b5f819050815f5260205f209050919050565b5f6020601f8301049050919050565b5f82821b905092915050565b5f600883026144157fffffffffffffffffffffffffffffffffffffffffffffffffffffffffffffffff826143da565b61441f86836143da565b95508019841693508086168417925050509392505050565b5f819050919050565b5f61445a6144556144508461313a565b614437565b61313a565b9050919050565b5f819050919050565b61447383614440565b61448761447f82614461565b8484546143e6565b825550505050565b5f5f905090565b61449e61448f565b6144a981848461446a565b505050565b5b818110156144cc576144c15f82614496565b6001810190506144af565b5050565b601f821115614511576144e2816143b9565b6144eb846143cb565b810160208510156144fa578190505b61450e614506856143cb565b8301826144ae565b50505b505050565b5f82821c905092915050565b5f6145315f1984600802614516565b1980831691505092915050565b5f6145498383614522565b9150826002028217905092915050565b614562826133c8565b67ffffffffffffffff81111561457b5761457a614044565b5b6145858254613d24565b6145908282856144d0565b5f60209050601f8311600181146145c1575f84156145af578287015190505b6145b9858261453e565b865550614620565b601f1984166145cf866143b9565b5f5b828110156145f6578489015182556001820191506020850194506020810190506145d1565b86831015614613578489015161460f601f891682614522565b8355505b6001600288020188555050505b505050505050565b5f6040820190508181035f8301526146408185613840565b905061464f6020830184613878565b939250505056fea264697066735822122060758171040fd1bf69b6d21b5dd0336de986aece25208ea9b5d891cb67fdbc6664736f6c634300081e003360806040526003600b55610e10600c556001600d5f6101000a81548160ff021916908315150217905550348015610034575f5ffd5b506040516182a33803806182a383398181016040528101906100569190610101565b600180819055508060025f6101000a81548173ffffffffffffffffffffffffffffffffffffffff021916908373ffffffffffffffffffffffffffffffffffffffff1602179055505061012c565b5f5ffd5b5f73ffffffffffffffffffffffffffffffffffffffff82169050919050565b5f6100d0826100a7565b9050919050565b6100e0816100c6565b81146100ea575f5ffd5b50565b5f815190506100fb816100d7565b92915050565b5f60208284031215610116576101156100a3565b5b5f610123848285016100ed565b91505092915050565b61816a806101395f395ff3fe608060405234801561000f575f5ffd5b5060043610610246575f3560e01c806380344c2411610139578063ade77ad3116100b6578063d547741f1161007a578063d547741f1461074f578063d7e0e5411461076b578063e4dd015a14610787578063f649ec87146107b7578063fb511477146107d557610246565b8063ade77ad314610699578063b9ee6e55146106b5578063bbd8acbe146106d1578063c1d446be146106ef578063c7d20e1b1461071f57610246565b80639b101f9a116100fd5780639b101f9a146105ea578063a1c7c1a61461061a578063a217fddf14610638578063a5e047b814610656578063acefc3e71461068f57610246565b806380344c241461052b57806389e482ce146105475780638b5a3853146105655780638d7d2bd71461059e57806391d14854146105ba57610246565b8063349b5954116101c7578063708f29a61161018b578063708f29a61461047357806375b238fc146104915780637a08a7f9146104af5780637cb2b79c146104df5780637da2ba7c146104fb57610246565b8063349b5954146103e557806336568abe14610403578063460515a11461041f578063526777e91461043b57806359502d1f1461045757610246565b8063248a9ca31161020e578063248a9ca31461031b5780632a709b141461034b5780632f2ff15d146103695780632fcef5cc14610385578063315873ff146103b557610246565b806301ffc9a71461024a5780630921224b1461027a5780631457a87214610298578063153244e6146102cd5780631acf39bf146102fd575b5f5ffd5b610264600480360381019061025f9190615dba565b6107f3565b6040516102719190615dff565b60405180910390f35b61028261086c565b60405161028f9190615e92565b60405180910390f35b6102b260048036038101906102ad9190615ede565b610891565b6040516102c496959493929190615fab565b60405180910390f35b6102e760048036038101906102e29190616034565b61093e565b6040516102f4919061605f565b60405180910390f35b610305610953565b6040516103129190615dff565b60405180910390f35b610335600480360381019061033091906160ab565b610965565b60405161034291906160e5565b60405180910390f35b610353610981565b604051610360919061612f565b60405180910390f35b610383600480360381019061037e9190616148565b6109a6565b005b61039f600480360381019061039a9190615ede565b6109c8565b6040516103ac91906163c6565b60405180910390f35b6103cf60048036038101906103ca9190616409565b610c4f565b6040516103dc9190615dff565b60405180910390f35b6103ed6114dc565b6040516103fa91906160e5565b60405180910390f35b61041d60048036038101906104189190616148565b611500565b005b61043960048036038101906104349190616034565b61157b565b005b61045560048036038101906104509190615ede565b61164d565b005b610471600480360381019061046c9190615ede565b6123e2565b005b61047b6125a8565b604051610488919061605f565b60405180910390f35b6104996125b4565b6040516104a691906160e5565b60405180910390f35b6104c960048036038101906104c4919061667d565b6125d8565b6040516104d6919061605f565b60405180910390f35b6104f960048036038101906104f49190616754565b612a93565b005b61051560048036038101906105109190616034565b612b65565b60405161052291906169be565b60405180910390f35b61054560048036038101906105409190615ede565b612e65565b005b61054f613533565b60405161055c919061605f565b60405180910390f35b61057f600480360381019061057a91906169de565b61353f565b6040516105959a99989796959493929190616a73565b60405180910390f35b6105b860048036038101906105b39190615ede565b61370c565b005b6105d460048036038101906105cf9190616148565b6138d2565b6040516105e19190615dff565b60405180910390f35b61060460048036038101906105ff9190616034565b613935565b604051610611919061605f565b60405180910390f35b61062261397b565b60405161062f9190616b1b565b60405180910390f35b6106406139a0565b60405161064d91906160e5565b60405180910390f35b610670600480360381019061066b9190615ede565b6139a6565b6040516106869a99989796959493929190616a73565b60405180910390f35b610697613b68565b005b6106b360048036038101906106ae9190616034565b613fa5565b005b6106cf60048036038101906106ca9190615ede565b614077565b005b6106d9614434565b6040516106e6919061605f565b60405180910390f35b61070960048036038101906107049190615ede565b61443a565b6040516107169190616c12565b60405180910390f35b61073960048036038101906107349190616c32565b614722565b604051610746919061605f565b60405180910390f35b61076960048036038101906107649190616148565b6147c9565b005b61078560048036038101906107809190616cac565b6147eb565b005b6107a1600480360381019061079c9190615ede565b6149c3565b6040516107ae9190615dff565b60405180910390f35b6107bf6149e0565b6040516107cc9190616cf7565b60405180910390f35b6107dd614a05565b6040516107ea919061605f565b60405180910390f35b5f7f7965db0b000000000000000000000000000000000000000000000000000000007bffffffffffffffffffffffffffffffffffffffffffffffffffffffff1916827bffffffffffffffffffffffffffffffffffffffffffffffffffffffff19161480610865575061086482614a0b565b5b9050919050565b60055f9054906101000a900473ffffffffffffffffffffffffffffffffffffffff1681565b600981815481106108a0575f80fd5b905f5260205f2090600502015f91509050806001015f9054906101000a900473ffffffffffffffffffffffffffffffffffffffff1690806003015f9054906101000a900460ff16908060030160019054906101000a900460ff16908060030160029054906101000a900460ff16908060030160039054906101000a900473ffffffffffffffffffffffffffffffffffffffff16908060040154905086565b6008602052805f5260405f205f915090505481565b600d5f9054906101000a900460ff1681565b5f5f5f8381526020019081526020015f20600101549050919050565b60045f9054906101000a900473ffffffffffffffffffffffffffffffffffffffff1681565b6109af82610965565b6109b881614a74565b6109c28383614a88565b50505050565b6109d0615b4b565b6009805490508210610a17576040517f08c379a0000000000000000000000000000000000000000000000000000000008152600401610a0e90616d5a565b60405180910390fd5b60098281548110610a2b57610a2a616d78565b5b905f5260205f209060050201604051806101000160405290815f8201805480602002602001604051908101604052809291908181526020018280548015610ac457602002820191905f5260205f20905b815f9054906101000a900473ffffffffffffffffffffffffffffffffffffffff1673ffffffffffffffffffffffffffffffffffffffff1681526020019060010190808311610a7b575b50505050508152602001600182015f9054906101000a900473ffffffffffffffffffffffffffffffffffffffff1673ffffffffffffffffffffffffffffffffffffffff1673ffffffffffffffffffffffffffffffffffffffff16815260200160028201805480602002602001604051908101604052809291908181526020018280548015610b6f57602002820191905f5260205f20905b815481526020019060010190808311610b5b575b50505050508152602001600382015f9054906101000a900460ff166003811115610b9c57610b9b615f29565b5b6003811115610bae57610bad615f29565b5b81526020016003820160019054906101000a900460ff161515151581526020016003820160029054906101000a900460ff161515151581526020016003820160039054906101000a900473ffffffffffffffffffffffffffffffffffffffff1673ffffffffffffffffffffffffffffffffffffffff1673ffffffffffffffffffffffffffffffffffffffff1681526020016004820154815250509050919050565b5f60025f9054906101000a900473ffffffffffffffffffffffffffffffffffffffff1673ffffffffffffffffffffffffffffffffffffffff166391d148547fa49807205ce4d355092ef5a8a18f56e8913cf4a201fbe287825b095693c21775336040518363ffffffff1660e01b8152600401610ccc929190616da5565b602060405180830381865afa158015610ce7573d5f5f3e3d5ffd5b505050506040513d601f19601f82011682018060405250810190610d0b9190616de0565b80610dcd575060025f9054906101000a900473ffffffffffffffffffffffffffffffffffffffff1673ffffffffffffffffffffffffffffffffffffffff166391d148547f940d6b1946ff1d2b5a9f1909219c3c81a370804b5ba0f91ec0828c99a2e6a681336040518363ffffffff1660e01b8152600401610d8d929190616da5565b602060405180830381865afa158015610da8573d5f5f3e3d5ffd5b505050506040513d601f19601f82011682018060405250810190610dcc9190616de0565b5b610e0c576040517f08c379a0000000000000000000000000000000000000000000000000000000008152600401610e0390616e55565b60405180910390fd5b610e14614b71565b60035f9054906101000a900473ffffffffffffffffffffffffffffffffffffffff1673ffffffffffffffffffffffffffffffffffffffff166332648e09866040518263ffffffff1660e01b8152600401610e6e9190616b1b565b61018060405180830381865afa158015610e8a573d5f5f3e3d5ffd5b505050506040513d601f19601f82011682018060405250810190610eae9190617014565b60800151610ef1576040517f08c379a0000000000000000000000000000000000000000000000000000000008152600401610ee89061708a565b60405180910390fd5b5f5a90505f6040518061014001604052808873ffffffffffffffffffffffffffffffffffffffff1681526020018773ffffffffffffffffffffffffffffffffffffffff168152602001868152602001428152602001856003811115610f5957610f58615f29565b5b81526020015f6003811115610f7157610f70615f29565b5b815260200160405180602001604052805f81525081526020015f81526020015f815260200160405180602001604052805f8152508152509050610fb381614bc0565b92505a82610fc191906170d5565b8160e001818152505082610fd6576002610fd9565b60015b8160a001906003811115610ff057610fef615f29565b5b9081600381111561100457611003615f29565b5b8152505082156110ad5760035f9054906101000a900473ffffffffffffffffffffffffffffffffffffffff1673ffffffffffffffffffffffffffffffffffffffff1663c11d2d1888876040518363ffffffff1660e01b815260040161106a929190617108565b5f604051808303815f87803b158015611081575f5ffd5b505af1158015611093573d5f5f3e3d5ffd5b505050506110a081614c71565b8160c0018190525061113f565b6040518060400160405280601881526020017f5061796d656e7420657865637574696f6e206661696c6564000000000000000081525081610120018190525060085f8873ffffffffffffffffffffffffffffffffffffffff1673ffffffffffffffffffffffffffffffffffffffff1681526020019081526020015f205f8154809291906111399061712f565b91905055505b600681908060018154018082558091505060019003905f5260205f2090600902015f909190919091505f820151815f015f6101000a81548173ffffffffffffffffffffffffffffffffffffffff021916908373ffffffffffffffffffffffffffffffffffffffff1602179055506020820151816001015f6101000a81548173ffffffffffffffffffffffffffffffffffffffff021916908373ffffffffffffffffffffffffffffffffffffffff16021790555060408201518160020155606082015181600301556080820151816004015f6101000a81548160ff021916908360038111156112305761122f615f29565b5b021790555060a08201518160040160016101000a81548160ff021916908360038111156112605761125f615f29565b5b021790555060c082015181600501908161127a919061736a565b5060e0820151816006015561010082015181600701556101208201518160080190816112a6919061736a565b50505060075f8873ffffffffffffffffffffffffffffffffffffffff1673ffffffffffffffffffffffffffffffffffffffff1681526020019081526020015f2081908060018154018082558091505060019003905f5260205f2090600902015f909190919091505f820151815f015f6101000a81548173ffffffffffffffffffffffffffffffffffffffff021916908373ffffffffffffffffffffffffffffffffffffffff1602179055506020820151816001015f6101000a81548173ffffffffffffffffffffffffffffffffffffffff021916908373ffffffffffffffffffffffffffffffffffffffff16021790555060408201518160020155606082015181600301556080820151816004015f6101000a81548160ff021916908360038111156113d5576113d4615f29565b5b021790555060a08201518160040160016101000a81548160ff0219169083600381111561140557611404615f29565b5b021790555060c082015181600501908161141f919061736a565b5060e08201518160060155610100820151816007015561012082015181600801908161144b919061736a565b50505061145781614d64565b8573ffffffffffffffffffffffffffffffffffffffff168773ffffffffffffffffffffffffffffffffffffffff167f05392e49ae81f9d730fab8b9d95085c57ced2c8f481ca60e3d4dd2e7d626ebb587878560a001518660e001516040516114c29493929190617439565b60405180910390a350506114d4614e2e565b949350505050565b7f940d6b1946ff1d2b5a9f1909219c3c81a370804b5ba0f91ec0828c99a2e6a68181565b611508614e37565b73ffffffffffffffffffffffffffffffffffffffff168173ffffffffffffffffffffffffffffffffffffffff161461156c576040517f6697b23200000000000000000000000000000000000000000000000000000000815260040160405180910390fd5b6115768282614e3e565b505050565b60025f9054906101000a900473ffffffffffffffffffffffffffffffffffffffff1673ffffffffffffffffffffffffffffffffffffffff163373ffffffffffffffffffffffffffffffffffffffff161461160a576040517f08c379a0000000000000000000000000000000000000000000000000000000008152600401611601906174c6565b60405180910390fd5b8060035f6101000a81548173ffffffffffffffffffffffffffffffffffffffff021916908373ffffffffffffffffffffffffffffffffffffffff16021790555050565b60025f9054906101000a900473ffffffffffffffffffffffffffffffffffffffff1673ffffffffffffffffffffffffffffffffffffffff166391d148547fa49807205ce4d355092ef5a8a18f56e8913cf4a201fbe287825b095693c21775336040518363ffffffff1660e01b81526004016116c9929190616da5565b602060405180830381865afa1580156116e4573d5f5f3e3d5ffd5b505050506040513d601f19601f820116820180604052508101906117089190616de0565b806117ca575060025f9054906101000a900473ffffffffffffffffffffffffffffffffffffffff1673ffffffffffffffffffffffffffffffffffffffff166391d148547f940d6b1946ff1d2b5a9f1909219c3c81a370804b5ba0f91ec0828c99a2e6a681336040518363ffffffff1660e01b815260040161178a929190616da5565b602060405180830381865afa1580156117a5573d5f5f3e3d5ffd5b505050506040513d601f19601f820116820180604052508101906117c99190616de0565b5b611809576040517f08c379a000000000000000000000000000000000000000000000000000000000815260040161180090616e55565b60405180910390fd5b6006805490508110611850576040517f08c379a00000000000000000000000000000000000000000000000000000000081526004016118479061752e565b60405180910390fd5b5f6006828154811061186557611864616d78565b5b905f5260205f20906009020190506002600381111561188757611886615f29565b5b8160040160019054906101000a900460ff1660038111156118ab576118aa615f29565b5b146118eb576040517f08c379a00000000000000000000000000000000000000000000000000000000081526004016118e290617596565b60405180910390fd5b600b54816007015410611933576040517f08c379a000000000000000000000000000000000000000000000000000000000815260040161192a906175fe565b60405180910390fd5b60018160070154611944919061761c565b600c54611951919061764f565b8160030154611960919061761c565b4210156119a2576040517f08c379a0000000000000000000000000000000000000000000000000000000008152600401611999906176da565b60405180910390fd5b60038160040160016101000a81548160ff021916908360038111156119ca576119c9615f29565b5b0217905550806007015f8154809291906119e39061712f565b91905055505f5a90505f611c6883604051806101400160405290815f82015f9054906101000a900473ffffffffffffffffffffffffffffffffffffffff1673ffffffffffffffffffffffffffffffffffffffff1673ffffffffffffffffffffffffffffffffffffffff168152602001600182015f9054906101000a900473ffffffffffffffffffffffffffffffffffffffff1673ffffffffffffffffffffffffffffffffffffffff1673ffffffffffffffffffffffffffffffffffffffff1681526020016002820154815260200160038201548152602001600482015f9054906101000a900460ff166003811115611ade57611add615f29565b5b6003811115611af057611aef615f29565b5b81526020016004820160019054906101000a900460ff166003811115611b1957611b18615f29565b5b6003811115611b2b57611b2a615f29565b5b8152602001600582018054611b3f906171a3565b80601f0160208091040260200160405190810160405280929190818152602001828054611b6b906171a3565b8015611bb65780601f10611b8d57610100808354040283529160200191611bb6565b820191905f5260205f20905b815481529060010190602001808311611b9957829003601f168201915b505050505081526020016006820154815260200160078201548152602001600882018054611be3906171a3565b80601f0160208091040260200160405190810160405280929190818152602001828054611c0f906171a3565b8015611c5a5780601f10611c3157610100808354040283529160200191611c5a565b820191905f5260205f20905b815481529060010190602001808311611c3d57829003601f168201915b505050505081525050614bc0565b90505a82611c7691906170d5565b836006015f828254611c88919061761c565b9250508190555080156120765760018360040160016101000a81548160ff02191690836003811115611cbd57611cbc615f29565b5b021790555060035f9054906101000a900473ffffffffffffffffffffffffffffffffffffffff1673ffffffffffffffffffffffffffffffffffffffff1663c11d2d18845f015f9054906101000a900473ffffffffffffffffffffffffffffffffffffffff1685600201546040518363ffffffff1660e01b8152600401611d44929190617108565b5f604051808303815f87803b158015611d5b575f5ffd5b505af1158015611d6d573d5f5f3e3d5ffd5b50505050611fec83604051806101400160405290815f82015f9054906101000a900473ffffffffffffffffffffffffffffffffffffffff1673ffffffffffffffffffffffffffffffffffffffff1673ffffffffffffffffffffffffffffffffffffffff168152602001600182015f9054906101000a900473ffffffffffffffffffffffffffffffffffffffff1673ffffffffffffffffffffffffffffffffffffffff1673ffffffffffffffffffffffffffffffffffffffff1681526020016002820154815260200160038201548152602001600482015f9054906101000a900460ff166003811115611e6257611e61615f29565b5b6003811115611e7457611e73615f29565b5b81526020016004820160019054906101000a900460ff166003811115611e9d57611e9c615f29565b5b6003811115611eaf57611eae615f29565b5b8152602001600582018054611ec3906171a3565b80601f0160208091040260200160405190810160405280929190818152602001828054611eef906171a3565b8015611f3a5780601f10611f1157610100808354040283529160200191611f3a565b820191905f5260205f20905b815481529060010190602001808311611f1d57829003601f168201915b505050505081526020016006820154815260200160078201548152602001600882018054611f67906171a3565b80601f0160208091040260200160405190810160405280929190818152602001828054611f93906171a3565b8015611fde5780601f10611fb557610100808354040283529160200191611fde565b820191905f5260205f20905b815481529060010190602001808311611fc157829003601f168201915b505050505081525050614c71565b836005019081611ffc919061736a565b5060085f845f015f9054906101000a900473ffffffffffffffffffffffffffffffffffffffff1673ffffffffffffffffffffffffffffffffffffffff1673ffffffffffffffffffffffffffffffffffffffff1681526020019081526020015f205f81548092919061206c906176f8565b91905055506120eb565b60028360040160016101000a81548160ff0219169083600381111561209e5761209d615f29565b5b02179055506040518060400160405280600c81526020017f5265747279206661696c656400000000000000000000000000000000000000008152508360080190816120e9919061736a565b505b825f015f9054906101000a900473ffffffffffffffffffffffffffffffffffffffff1673ffffffffffffffffffffffffffffffffffffffff167f6d9b44e30a0dc7bd26b9a325ebbe8752e37cdd4fcc0c45444189c16ba7da52bc85856007015460405161215992919061771f565b60405180910390a26123dc83604051806101400160405290815f82015f9054906101000a900473ffffffffffffffffffffffffffffffffffffffff1673ffffffffffffffffffffffffffffffffffffffff1673ffffffffffffffffffffffffffffffffffffffff168152602001600182015f9054906101000a900473ffffffffffffffffffffffffffffffffffffffff1673ffffffffffffffffffffffffffffffffffffffff1673ffffffffffffffffffffffffffffffffffffffff1681526020016002820154815260200160038201548152602001600482015f9054906101000a900460ff16600381111561225257612251615f29565b5b600381111561226457612263615f29565b5b81526020016004820160019054906101000a900460ff16600381111561228d5761228c615f29565b5b600381111561229f5761229e615f29565b5b81526020016005820180546122b3906171a3565b80601f01602080910402602001604051908101604052809291908181526020018280546122df906171a3565b801561232a5780601f106123015761010080835404028352916020019161232a565b820191905f5260205f20905b81548152906001019060200180831161230d57829003601f168201915b505050505081526020016006820154815260200160078201548152602001600882018054612357906171a3565b80601f0160208091040260200160405190810160405280929190818152602001828054612383906171a3565b80156123ce5780601f106123a5576101008083540402835291602001916123ce565b820191905f5260205f20905b8154815290600101906020018083116123b157829003601f168201915b505050505081525050614d64565b50505050565b60025f9054906101000a900473ffffffffffffffffffffffffffffffffffffffff1673ffffffffffffffffffffffffffffffffffffffff166391d148547fa49807205ce4d355092ef5a8a18f56e8913cf4a201fbe287825b095693c21775336040518363ffffffff1660e01b815260040161245e929190616da5565b602060405180830381865afa158015612479573d5f5f3e3d5ffd5b505050506040513d601f19601f8201168201806040525081019061249d9190616de0565b8061255f575060025f9054906101000a900473ffffffffffffffffffffffffffffffffffffffff1673ffffffffffffffffffffffffffffffffffffffff166391d148547f940d6b1946ff1d2b5a9f1909219c3c81a370804b5ba0f91ec0828c99a2e6a681336040518363ffffffff1660e01b815260040161251f929190616da5565b602060405180830381865afa15801561253a573d5f5f3e3d5ffd5b505050506040513d601f19601f8201168201806040525081019061255e9190616de0565b5b61259e576040517f08c379a000000000000000000000000000000000000000000000000000000000815260040161259590616e55565b60405180910390fd5b80600b8190555050565b5f600680549050905090565b7fa49807205ce4d355092ef5a8a18f56e8913cf4a201fbe287825b095693c2177581565b5f60025f9054906101000a900473ffffffffffffffffffffffffffffffffffffffff1673ffffffffffffffffffffffffffffffffffffffff166391d148547fa49807205ce4d355092ef5a8a18f56e8913cf4a201fbe287825b095693c21775336040518363ffffffff1660e01b8152600401612655929190616da5565b602060405180830381865afa158015612670573d5f5f3e3d5ffd5b505050506040513d601f19601f820116820180604052508101906126949190616de0565b80612756575060025f9054906101000a900473ffffffffffffffffffffffffffffffffffffffff1673ffffffffffffffffffffffffffffffffffffffff166391d148547f940d6b1946ff1d2b5a9f1909219c3c81a370804b5ba0f91ec0828c99a2e6a681336040518363ffffffff1660e01b8152600401612716929190616da5565b602060405180830381865afa158015612731573d5f5f3e3d5ffd5b505050506040513d601f19601f820116820180604052508101906127559190616de0565b5b612795576040517f08c379a000000000000000000000000000000000000000000000000000000000815260040161278c90616e55565b60405180910390fd5b82518551146127d9576040517f08c379a00000000000000000000000000000000000000000000000000000000081526004016127d090617790565b60405180910390fd5b5f85511161281c576040517f08c379a0000000000000000000000000000000000000000000000000000000008152600401612813906177f8565b60405180910390fd5b5f6040518061010001604052808781526020018673ffffffffffffffffffffffffffffffffffffffff16815260200185815260200184600381111561286457612863615f29565b5b8152602001600d5f9054906101000a900460ff1615158152602001600d5f9054906101000a900460ff161515158152602001600d5f9054906101000a900460ff166128af57336128b1565b5f5b73ffffffffffffffffffffffffffffffffffffffff168152602001428152509050600981908060018154018082558091505060019003905f5260205f2090600502015f909190919091505f820151815f019080519060200190612915929190615bcc565b506020820151816001015f6101000a81548173ffffffffffffffffffffffffffffffffffffffff021916908373ffffffffffffffffffffffffffffffffffffffff1602179055506040820151816002019080519060200190612978929190615c53565b506060820151816003015f6101000a81548160ff021916908360038111156129a3576129a2615f29565b5b021790555060808201518160030160016101000a81548160ff02191690831515021790555060a08201518160030160026101000a81548160ff02191690831515021790555060c08201518160030160036101000a81548173ffffffffffffffffffffffffffffffffffffffff021916908373ffffffffffffffffffffffffffffffffffffffff16021790555060e0820151816004015550506001600980549050612a4d91906170d5565b9150817fa40b9abc4125f71cdc69fcd4f0e85d101dbfc67713f9e57f769eeb4c009d0e58875187604051612a82929190617816565b60405180910390a250949350505050565b60025f9054906101000a900473ffffffffffffffffffffffffffffffffffffffff1673ffffffffffffffffffffffffffffffffffffffff163373ffffffffffffffffffffffffffffffffffffffff1614612b22576040517f08c379a0000000000000000000000000000000000000000000000000000000008152600401612b19906174c6565b60405180910390fd5b8060045f6101000a81548173ffffffffffffffffffffffffffffffffffffffff021916908373ffffffffffffffffffffffffffffffffffffffff16021790555050565b606060075f8373ffffffffffffffffffffffffffffffffffffffff1673ffffffffffffffffffffffffffffffffffffffff1681526020019081526020015f20805480602002602001604051908101604052809291908181526020015f905b82821015612e5a578382905f5260205f209060090201604051806101400160405290815f82015f9054906101000a900473ffffffffffffffffffffffffffffffffffffffff1673ffffffffffffffffffffffffffffffffffffffff1673ffffffffffffffffffffffffffffffffffffffff168152602001600182015f9054906101000a900473ffffffffffffffffffffffffffffffffffffffff1673ffffffffffffffffffffffffffffffffffffffff1673ffffffffffffffffffffffffffffffffffffffff1681526020016002820154815260200160038201548152602001600482015f9054906101000a900460ff166003811115612cc657612cc5615f29565b5b6003811115612cd857612cd7615f29565b5b81526020016004820160019054906101000a900460ff166003811115612d0157612d00615f29565b5b6003811115612d1357612d12615f29565b5b8152602001600582018054612d27906171a3565b80601f0160208091040260200160405190810160405280929190818152602001828054612d53906171a3565b8015612d9e5780601f10612d7557610100808354040283529160200191612d9e565b820191905f5260205f20905b815481529060010190602001808311612d8157829003601f168201915b505050505081526020016006820154815260200160078201548152602001600882018054612dcb906171a3565b80601f0160208091040260200160405190810160405280929190818152602001828054612df7906171a3565b8015612e425780601f10612e1957610100808354040283529160200191612e42565b820191905f5260205f20905b815481529060010190602001808311612e2557829003601f168201915b50505050508152505081526020019060010190612bc3565b505050509050919050565b60025f9054906101000a900473ffffffffffffffffffffffffffffffffffffffff1673ffffffffffffffffffffffffffffffffffffffff166391d148547fa49807205ce4d355092ef5a8a18f56e8913cf4a201fbe287825b095693c21775336040518363ffffffff1660e01b8152600401612ee1929190616da5565b602060405180830381865afa158015612efc573d5f5f3e3d5ffd5b505050506040513d601f19601f82011682018060405250810190612f209190616de0565b80612fe2575060025f9054906101000a900473ffffffffffffffffffffffffffffffffffffffff1673ffffffffffffffffffffffffffffffffffffffff166391d148547f940d6b1946ff1d2b5a9f1909219c3c81a370804b5ba0f91ec0828c99a2e6a681336040518363ffffffff1660e01b8152600401612fa2929190616da5565b602060405180830381865afa158015612fbd573d5f5f3e3d5ffd5b505050506040513d601f19601f82011682018060405250810190612fe19190616de0565b5b613021576040517f08c379a000000000000000000000000000000000000000000000000000000000815260040161301890616e55565b60405180910390fd5b613029614b71565b6009805490508110613070576040517f08c379a000000000000000000000000000000000000000000000000000000000815260040161306790616d5a565b60405180910390fd5b6009818154811061308457613083616d78565b5b905f5260205f20906005020160030160029054906101000a900460ff166130e0576040517f08c379a00000000000000000000000000000000000000000000000000000000081526004016130d790617887565b60405180910390fd5b600a5f8281526020019081526020015f205f9054906101000a900460ff161561313e576040517f08c379a0000000000000000000000000000000000000000000000000000000008152600401613135906178ef565b60405180910390fd5b5f6009828154811061315357613152616d78565b5b905f5260205f209060050201604051806101000160405290815f82018054806020026020016040519081016040528092919081815260200182805480156131ec57602002820191905f5260205f20905b815f9054906101000a900473ffffffffffffffffffffffffffffffffffffffff1673ffffffffffffffffffffffffffffffffffffffff16815260200190600101908083116131a3575b50505050508152602001600182015f9054906101000a900473ffffffffffffffffffffffffffffffffffffffff1673ffffffffffffffffffffffffffffffffffffffff1673ffffffffffffffffffffffffffffffffffffffff1681526020016002820180548060200260200160405190810160405280929190818152602001828054801561329757602002820191905f5260205f20905b815481526020019060010190808311613283575b50505050508152602001600382015f9054906101000a900460ff1660038111156132c4576132c3615f29565b5b60038111156132d6576132d5615f29565b5b81526020016003820160019054906101000a900460ff161515151581526020016003820160029054906101000a900460ff161515151581526020016003820160039054906101000a900473ffffffffffffffffffffffffffffffffffffffff1673ffffffffffffffffffffffffffffffffffffffff1673ffffffffffffffffffffffffffffffffffffffff16815260200160048201548152505090505f5f90505f5f90505f5f90505b835f015151811015613413575f6133db855f015183815181106133a5576133a4616d78565b5b60200260200101518660200151876040015185815181106133c9576133c8616d78565b5b60200260200101518860600151614f27565b905080156133f65783806133ee9061712f565b945050613405565b82806134019061712f565b9350505b50808060010191505061337f565b506001600a5f8681526020019081526020015f205f6101000a81548160ff021916908315150217905550837f20eb9f3aebb74816a1325a7477cfa6f6ab692b692cd5930db98bd2d0343b70ca838360405161346f92919061771f565b60405180910390a260055f9054906101000a900473ffffffffffffffffffffffffffffffffffffffff1673ffffffffffffffffffffffffffffffffffffffff166344c83b9733868585426040516020016134cc949392919061790d565b6040516020818303038152906040526040518363ffffffff1660e01b81526004016134f89291906179ec565b5f604051808303815f87803b15801561350f575f5ffd5b505af1158015613521573d5f5f3e3d5ffd5b50505050505050613530614e2e565b50565b5f600980549050905090565b6007602052815f5260405f208181548110613558575f80fd5b905f5260205f2090600902015f9150915050805f015f9054906101000a900473ffffffffffffffffffffffffffffffffffffffff1690806001015f9054906101000a900473ffffffffffffffffffffffffffffffffffffffff1690806002015490806003015490806004015f9054906101000a900460ff16908060040160019054906101000a900460ff16908060050180546135f3906171a3565b80601f016020809104026020016040519081016040528092919081815260200182805461361f906171a3565b801561366a5780601f106136415761010080835404028352916020019161366a565b820191905f5260205f20905b81548152906001019060200180831161364d57829003601f168201915b50505050509080600601549080600701549080600801805461368b906171a3565b80601f01602080910402602001604051908101604052809291908181526020018280546136b7906171a3565b80156137025780601f106136d957610100808354040283529160200191613702565b820191905f5260205f20905b8154815290600101906020018083116136e557829003601f168201915b505050505090508a565b60025f9054906101000a900473ffffffffffffffffffffffffffffffffffffffff1673ffffffffffffffffffffffffffffffffffffffff166391d148547fa49807205ce4d355092ef5a8a18f56e8913cf4a201fbe287825b095693c21775336040518363ffffffff1660e01b8152600401613788929190616da5565b602060405180830381865afa1580156137a3573d5f5f3e3d5ffd5b505050506040513d601f19601f820116820180604052508101906137c79190616de0565b80613889575060025f9054906101000a900473ffffffffffffffffffffffffffffffffffffffff1673ffffffffffffffffffffffffffffffffffffffff166391d148547f940d6b1946ff1d2b5a9f1909219c3c81a370804b5ba0f91ec0828c99a2e6a681336040518363ffffffff1660e01b8152600401613849929190616da5565b602060405180830381865afa158015613864573d5f5f3e3d5ffd5b505050506040513d601f19601f820116820180604052508101906138889190616de0565b5b6138c8576040517f08c379a00000000000000000000000000000000000000000000000000000000081526004016138bf90616e55565b60405180910390fd5b80600c8190555050565b5f5f5f8481526020019081526020015f205f015f8373ffffffffffffffffffffffffffffffffffffffff1673ffffffffffffffffffffffffffffffffffffffff1681526020019081526020015f205f9054906101000a900460ff16905092915050565b5f60085f8373ffffffffffffffffffffffffffffffffffffffff1673ffffffffffffffffffffffffffffffffffffffff1681526020019081526020015f20549050919050565b60025f9054906101000a900473ffffffffffffffffffffffffffffffffffffffff1681565b5f5f1b81565b600681815481106139b5575f80fd5b905f5260205f2090600902015f91509050805f015f9054906101000a900473ffffffffffffffffffffffffffffffffffffffff1690806001015f9054906101000a900473ffffffffffffffffffffffffffffffffffffffff1690806002015490806003015490806004015f9054906101000a900460ff16908060040160019054906101000a900460ff1690806005018054613a4f906171a3565b80601f0160208091040260200160405190810160405280929190818152602001828054613a7b906171a3565b8015613ac65780601f10613a9d57610100808354040283529160200191613ac6565b820191905f5260205f20905b815481529060010190602001808311613aa957829003601f168201915b505050505090806006015490806007015490806008018054613ae7906171a3565b80601f0160208091040260200160405190810160405280929190818152602001828054613b13906171a3565b8015613b5e5780601f10613b3557610100808354040283529160200191613b5e565b820191905f5260205f20905b815481529060010190602001808311613b4157829003601f168201915b505050505090508a565b60025f9054906101000a900473ffffffffffffffffffffffffffffffffffffffff1673ffffffffffffffffffffffffffffffffffffffff163373ffffffffffffffffffffffffffffffffffffffff1614613bf7576040517f08c379a0000000000000000000000000000000000000000000000000000000008152600401613bee906174c6565b60405180910390fd5b613bff614b71565b5f60035f9054906101000a900473ffffffffffffffffffffffffffffffffffffffff1673ffffffffffffffffffffffffffffffffffffffff16635dd38bfa6040518163ffffffff1660e01b81526004015f60405180830381865afa158015613c69573d5f5f3e3d5ffd5b505050506040513d5f823e3d601f19601f82011682018060405250810190613c919190617ac2565b90505f5f90505f5f90505f5f90505b8351811015613eeb575f848281518110613cbd57613cbc616d78565b5b6020026020010151905060035f9054906101000a900473ffffffffffffffffffffffffffffffffffffffff1673ffffffffffffffffffffffffffffffffffffffff166397ad7e02826040518263ffffffff1660e01b8152600401613d219190616b1b565b602060405180830381865afa158015613d3c573d5f5f3e3d5ffd5b505050506040513d601f19601f82011682018060405250810190613d609190616de0565b15613edd575f60035f9054906101000a900473ffffffffffffffffffffffffffffffffffffffff1673ffffffffffffffffffffffffffffffffffffffff166332648e09836040518263ffffffff1660e01b8152600401613dc09190616b1b565b61018060405180830381865afa158015613ddc573d5f5f3e3d5ffd5b505050506040513d601f19601f82011682018060405250810190613e009190617014565b90505f60035f9054906101000a900473ffffffffffffffffffffffffffffffffffffffff1673ffffffffffffffffffffffffffffffffffffffff1663774b2535846040518263ffffffff1660e01b8152600401613e5d9190616b1b565b602060405180830381865afa158015613e78573d5f5f3e3d5ffd5b505050506040513d601f19601f82011682018060405250810190613e9c9190617b09565b90505f613eaf848460600151845f614f27565b90508015613eca578680613ec29061712f565b975050613ed9565b8580613ed59061712f565b9650505b5050505b508080600101915050613ca0565b5060055f9054906101000a900473ffffffffffffffffffffffffffffffffffffffff1673ffffffffffffffffffffffffffffffffffffffff166344c83b9733848442604051602001613f3f93929190617b34565b6040516020818303038152906040526040518363ffffffff1660e01b8152600401613f6b929190617bb3565b5f604051808303815f87803b158015613f82575f5ffd5b505af1158015613f94573d5f5f3e3d5ffd5b50505050505050613fa3614e2e565b565b60025f9054906101000a900473ffffffffffffffffffffffffffffffffffffffff1673ffffffffffffffffffffffffffffffffffffffff163373ffffffffffffffffffffffffffffffffffffffff1614614034576040517f08c379a000000000000000000000000000000000000000000000000000000000815260040161402b906174c6565b60405180910390fd5b8060055f6101000a81548173ffffffffffffffffffffffffffffffffffffffff021916908373ffffffffffffffffffffffffffffffffffffffff16021790555050565b60025f9054906101000a900473ffffffffffffffffffffffffffffffffffffffff1673ffffffffffffffffffffffffffffffffffffffff166391d148547fa49807205ce4d355092ef5a8a18f56e8913cf4a201fbe287825b095693c21775336040518363ffffffff1660e01b81526004016140f3929190616da5565b602060405180830381865afa15801561410e573d5f5f3e3d5ffd5b505050506040513d601f19601f820116820180604052508101906141329190616de0565b806141f4575060025f9054906101000a900473ffffffffffffffffffffffffffffffffffffffff1673ffffffffffffffffffffffffffffffffffffffff166391d148547f940d6b1946ff1d2b5a9f1909219c3c81a370804b5ba0f91ec0828c99a2e6a681336040518363ffffffff1660e01b81526004016141b4929190616da5565b602060405180830381865afa1580156141cf573d5f5f3e3d5ffd5b505050506040513d601f19601f820116820180604052508101906141f39190616de0565b5b614233576040517f08c379a000000000000000000000000000000000000000000000000000000000815260040161422a90616e55565b60405180910390fd5b600980549050811061427a576040517f08c379a000000000000000000000000000000000000000000000000000000000815260040161427190616d5a565b60405180910390fd5b6009818154811061428e5761428d616d78565b5b905f5260205f20906005020160030160029054906101000a900460ff16156142eb576040517f08c379a00000000000000000000000000000000000000000000000000000000081526004016142e290617c3e565b60405180910390fd5b600981815481106142ff576142fe616d78565b5b905f5260205f20906005020160030160019054906101000a900460ff1661435b576040517f08c379a000000000000000000000000000000000000000000000000000000000815260040161435290617ca6565b60405180910390fd5b60016009828154811061437157614370616d78565b5b905f5260205f20906005020160030160026101000a81548160ff02191690831515021790555033600982815481106143ac576143ab616d78565b5b905f5260205f20906005020160030160036101000a81548173ffffffffffffffffffffffffffffffffffffffff021916908373ffffffffffffffffffffffffffffffffffffffff160217905550807f3dbc34279ef7d20a65f8815e5677a41470c442acb057f954b9da359c05a7b884336040516144299190616b1b565b60405180910390a250565b600b5481565b614442615c9e565b6006805490508210614489576040517f08c379a00000000000000000000000000000000000000000000000000000000081526004016144809061752e565b60405180910390fd5b6006828154811061449d5761449c616d78565b5b905f5260205f209060090201604051806101400160405290815f82015f9054906101000a900473ffffffffffffffffffffffffffffffffffffffff1673ffffffffffffffffffffffffffffffffffffffff1673ffffffffffffffffffffffffffffffffffffffff168152602001600182015f9054906101000a900473ffffffffffffffffffffffffffffffffffffffff1673ffffffffffffffffffffffffffffffffffffffff1673ffffffffffffffffffffffffffffffffffffffff1681526020016002820154815260200160038201548152602001600482015f9054906101000a900460ff16600381111561459657614595615f29565b5b60038111156145a8576145a7615f29565b5b81526020016004820160019054906101000a900460ff1660038111156145d1576145d0615f29565b5b60038111156145e3576145e2615f29565b5b81526020016005820180546145f7906171a3565b80601f0160208091040260200160405190810160405280929190818152602001828054614623906171a3565b801561466e5780601f106146455761010080835404028352916020019161466e565b820191905f5260205f20905b81548152906001019060200180831161465157829003601f168201915b50505050508152602001600682015481526020016007820154815260200160088201805461469b906171a3565b80601f01602080910402602001604051908101604052809291908181526020018280546146c7906171a3565b80156147125780601f106146e957610100808354040283529160200191614712565b820191905f5260205f20905b8154815290600101906020018083116146f557829003601f168201915b5050505050815250509050919050565b5f60045f9054906101000a900473ffffffffffffffffffffffffffffffffffffffff1673ffffffffffffffffffffffffffffffffffffffff16631cc0a1c38585856040518463ffffffff1660e01b815260040161478193929190617cc4565b602060405180830381865afa15801561479c573d5f5f3e3d5ffd5b505050506040513d601f19601f820116820180604052508101906147c09190617b09565b90509392505050565b6147d282610965565b6147db81614a74565b6147e58383614e3e565b50505050565b60025f9054906101000a900473ffffffffffffffffffffffffffffffffffffffff1673ffffffffffffffffffffffffffffffffffffffff166391d148547fa49807205ce4d355092ef5a8a18f56e8913cf4a201fbe287825b095693c21775336040518363ffffffff1660e01b8152600401614867929190616da5565b602060405180830381865afa158015614882573d5f5f3e3d5ffd5b505050506040513d601f19601f820116820180604052508101906148a69190616de0565b80614968575060025f9054906101000a900473ffffffffffffffffffffffffffffffffffffffff1673ffffffffffffffffffffffffffffffffffffffff166391d148547f940d6b1946ff1d2b5a9f1909219c3c81a370804b5ba0f91ec0828c99a2e6a681336040518363ffffffff1660e01b8152600401614928929190616da5565b602060405180830381865afa158015614943573d5f5f3e3d5ffd5b505050506040513d601f19601f820116820180604052508101906149679190616de0565b5b6149a7576040517f08c379a000000000000000000000000000000000000000000000000000000000815260040161499e90616e55565b60405180910390fd5b80600d5f6101000a81548160ff02191690831515021790555050565b600a602052805f5260405f205f915054906101000a900460ff1681565b60035f9054906101000a900473ffffffffffffffffffffffffffffffffffffffff1681565b600c5481565b5f7f01ffc9a7000000000000000000000000000000000000000000000000000000007bffffffffffffffffffffffffffffffffffffffffffffffffffffffff1916827bffffffffffffffffffffffffffffffffffffffffffffffffffffffff1916149050919050565b614a8581614a80614e37565b61550b565b50565b5f614a9383836138d2565b614b675760015f5f8581526020019081526020015f205f015f8473ffffffffffffffffffffffffffffffffffffffff1673ffffffffffffffffffffffffffffffffffffffff1681526020019081526020015f205f6101000a81548160ff021916908315150217905550614b04614e37565b73ffffffffffffffffffffffffffffffffffffffff168273ffffffffffffffffffffffffffffffffffffffff16847f2f8788117e7eff1d82e926ec794901d17c78024a50270940304540a733656f0d60405160405180910390a460019050614b6b565b5f90505b92915050565b600260015403614bb6576040517f08c379a0000000000000000000000000000000000000000000000000000000008152600401614bad90617d43565b60405180910390fd5b6002600181905550565b5f60045f9054906101000a900473ffffffffffffffffffffffffffffffffffffffff1673ffffffffffffffffffffffffffffffffffffffff1663d1a0cc5c8360200151845f015185604001516040518463ffffffff1660e01b8152600401614c2a93929190617cc4565b6020604051808303815f875af1158015614c46573d5f5f3e3d5ffd5b505050506040513d601f19601f82011682018060405250810190614c6a9190616de0565b9050919050565b60605f614c80835f015161555c565b614c8d846040015161585a565b614c9a856020015161555c565b614ca7866060015161585a565b604051602001614cba9493929190617ec3565b60405160208183030381529060405290505f81604051602001614cdd9190617f2c565b6040516020818303038152906040528051906020012090505f614cff826159b3565b9050845f015173ffffffffffffffffffffffffffffffffffffffff167f59180834f899f4489ff46f8a483a5e8910be42b5ab7e4ea95619fc2546851aad60068054905083604051614d51929190617f42565b60405180910390a2809350505050919050565b60055f9054906101000a900473ffffffffffffffffffffffffffffffffffffffff1673ffffffffffffffffffffffffffffffffffffffff166344c83b97825f01518360200151846040015185608001518660a001518760600151604051602001614dd2959493929190617f70565b6040516020818303038152906040526040518363ffffffff1660e01b8152600401614dfe92919061800b565b5f604051808303815f87803b158015614e15575f5ffd5b505af1158015614e27573d5f5f3e3d5ffd5b5050505050565b60018081905550565b5f33905090565b5f614e4983836138d2565b15614f1d575f5f5f8581526020019081526020015f205f015f8473ffffffffffffffffffffffffffffffffffffffff1673ffffffffffffffffffffffffffffffffffffffff1681526020019081526020015f205f6101000a81548160ff021916908315150217905550614eba614e37565b73ffffffffffffffffffffffffffffffffffffffff168273ffffffffffffffffffffffffffffffffffffffff16847ff6391f5c32d9c69d2a47ea670b442974b53935d1edc7fd64eb21e047a839171b60405160405180910390a460019050614f21565b5f90505b92915050565b5f5f5a90505f6040518061014001604052808873ffffffffffffffffffffffffffffffffffffffff1681526020018773ffffffffffffffffffffffffffffffffffffffff168152602001868152602001428152602001856003811115614f9057614f8f615f29565b5b81526020015f6003811115614fa857614fa7615f29565b5b815260200160405180602001604052805f81525081526020015f81526020015f815260200160405180602001604052805f8152508152509050614fea81614bc0565b92505a82614ff891906170d5565b8160e00181815250508261500d576002615010565b60015b8160a00190600381111561502757615026615f29565b5b9081600381111561503b5761503a615f29565b5b8152505082156150e45760035f9054906101000a900473ffffffffffffffffffffffffffffffffffffffff1673ffffffffffffffffffffffffffffffffffffffff1663c11d2d1888876040518363ffffffff1660e01b81526004016150a1929190617108565b5f604051808303815f87803b1580156150b8575f5ffd5b505af11580156150ca573d5f5f3e3d5ffd5b505050506150d781614c71565b8160c00181905250615176565b6040518060400160405280601881526020017f5061796d656e7420657865637574696f6e206661696c6564000000000000000081525081610120018190525060085f8873ffffffffffffffffffffffffffffffffffffffff1673ffffffffffffffffffffffffffffffffffffffff1681526020019081526020015f205f8154809291906151709061712f565b91905055505b600681908060018154018082558091505060019003905f5260205f2090600902015f909190919091505f820151815f015f6101000a81548173ffffffffffffffffffffffffffffffffffffffff021916908373ffffffffffffffffffffffffffffffffffffffff1602179055506020820151816001015f6101000a81548173ffffffffffffffffffffffffffffffffffffffff021916908373ffffffffffffffffffffffffffffffffffffffff16021790555060408201518160020155606082015181600301556080820151816004015f6101000a81548160ff0219169083600381111561526757615266615f29565b5b021790555060a08201518160040160016101000a81548160ff0219169083600381111561529757615296615f29565b5b021790555060c08201518160050190816152b1919061736a565b5060e0820151816006015561010082015181600701556101208201518160080190816152dd919061736a565b50505060075f8873ffffffffffffffffffffffffffffffffffffffff1673ffffffffffffffffffffffffffffffffffffffff1681526020019081526020015f2081908060018154018082558091505060019003905f5260205f2090600902015f909190919091505f820151815f015f6101000a81548173ffffffffffffffffffffffffffffffffffffffff021916908373ffffffffffffffffffffffffffffffffffffffff1602179055506020820151816001015f6101000a81548173ffffffffffffffffffffffffffffffffffffffff021916908373ffffffffffffffffffffffffffffffffffffffff16021790555060408201518160020155606082015181600301556080820151816004015f6101000a81548160ff0219169083600381111561540c5761540b615f29565b5b021790555060a08201518160040160016101000a81548160ff0219169083600381111561543c5761543b615f29565b5b021790555060c0820151816005019081615456919061736a565b5060e082015181600601556101008201518160070155610120820151816008019081615482919061736a565b50505061548e81614d64565b8573ffffffffffffffffffffffffffffffffffffffff168773ffffffffffffffffffffffffffffffffffffffff167f05392e49ae81f9d730fab8b9d95085c57ced2c8f481ca60e3d4dd2e7d626ebb587878560a001518660e001516040516154f99493929190617439565b60405180910390a35050949350505050565b61551582826138d2565b6155585780826040517fe2517d3f00000000000000000000000000000000000000000000000000000000815260040161554f92919061804c565b60405180910390fd5b5050565b60605f8273ffffffffffffffffffffffffffffffffffffffff165f1b90505f6040518060400160405280601081526020017f303132333435363738396162636465660000000000000000000000000000000081525090505f602a67ffffffffffffffff8111156155cf576155ce616481565b5b6040519080825280601f01601f1916602001820160405280156156015781602001600182028036833780820191505090505b5090507f3000000000000000000000000000000000000000000000000000000000000000815f8151811061563857615637616d78565b5b60200101907effffffffffffffffffffffffffffffffffffffffffffffffffffffffffffff191690815f1a9053507f78000000000000000000000000000000000000000000000000000000000000008160018151811061569b5761569a616d78565b5b60200101907effffffffffffffffffffffffffffffffffffffffffffffffffffffffffffff191690815f1a9053505f5f90505b601481101561584e5782600485600c846156e8919061761c565b602081106156f9576156f8616d78565b5b1a60f81b7effffffffffffffffffffffffffffffffffffffffffffffffffffffffffffff1916901c60f81c60ff168151811061573857615737616d78565b5b602001015160f81c60f81b82600283615751919061764f565b600261575d919061761c565b8151811061576e5761576d616d78565b5b60200101907effffffffffffffffffffffffffffffffffffffffffffffffffffffffffffff191690815f1a90535082600f60f81b85600c846157b0919061761c565b602081106157c1576157c0616d78565b5b1a60f81b1660f81c60ff16815181106157dd576157dc616d78565b5b602001015160f81c60f81b826002836157f6919061764f565b6003615802919061761c565b8151811061581357615812616d78565b5b60200101907effffffffffffffffffffffffffffffffffffffffffffffffffffffffffffff191690815f1a90535080806001019150506156ce565b50809350505050919050565b60605f82036158a0576040518060400160405280600181526020017f300000000000000000000000000000000000000000000000000000000000000081525090506159ae565b5f8290505f5b5f82146158cf5780806158b89061712f565b915050600a826158c891906180a0565b91506158a6565b5f8167ffffffffffffffff8111156158ea576158e9616481565b5b6040519080825280601f01601f19166020018201604052801561591c5781602001600182028036833780820191505090505b5090505b5f85146159a75760018261593491906170d5565b9150600a8561594391906180d0565b603061594f919061761c565b60f81b81838151811061596557615964616d78565b5b60200101907effffffffffffffffffffffffffffffffffffffffffffffffffffffffffffff191690815f1a905350600a856159a091906180a0565b9450615920565b8093505050505b919050565b60605f5f90505b60208160ff16108015615a0b57505f60f81b838260ff16602081106159e2576159e1616d78565b5b1a60f81b7effffffffffffffffffffffffffffffffffffffffffffffffffffffffffffff191614155b15615a23578080615a1b9061810c565b9150506159ba565b5f8160ff1667ffffffffffffffff811115615a4157615a40616481565b5b6040519080825280601f01601f191660200182016040528015615a735781602001600182028036833780820191505090505b5090505f91505b60208260ff16108015615acb57505f60f81b848360ff1660208110615aa257615aa1616d78565b5b1a60f81b7effffffffffffffffffffffffffffffffffffffffffffffffffffffffffffff191614155b15615b4157838260ff1660208110615ae657615ae5616d78565b5b1a60f81b818360ff1681518110615b0057615aff616d78565b5b60200101907effffffffffffffffffffffffffffffffffffffffffffffffffffffffffffff191690815f1a9053508180615b399061810c565b925050615a7a565b8092505050919050565b604051806101000160405280606081526020015f73ffffffffffffffffffffffffffffffffffffffff168152602001606081526020015f6003811115615b9457615b93615f29565b5b81526020015f151581526020015f151581526020015f73ffffffffffffffffffffffffffffffffffffffff1681526020015f81525090565b828054828255905f5260205f20908101928215615c42579160200282015b82811115615c41578251825f6101000a81548173ffffffffffffffffffffffffffffffffffffffff021916908373ffffffffffffffffffffffffffffffffffffffff16021790555091602001919060010190615bea565b5b509050615c4f9190615d39565b5090565b828054828255905f5260205f20908101928215615c8d579160200282015b82811115615c8c578251825591602001919060010190615c71565b5b509050615c9a9190615d39565b5090565b6040518061014001604052805f73ffffffffffffffffffffffffffffffffffffffff1681526020015f73ffffffffffffffffffffffffffffffffffffffff1681526020015f81526020015f81526020015f6003811115615d0157615d00615f29565b5b81526020015f6003811115615d1957615d18615f29565b5b8152602001606081526020015f81526020015f8152602001606081525090565b5b80821115615d50575f815f905550600101615d3a565b5090565b5f604051905090565b5f5ffd5b5f5ffd5b5f7fffffffff0000000000000000000000000000000000000000000000000000000082169050919050565b615d9981615d65565b8114615da3575f5ffd5b50565b5f81359050615db481615d90565b92915050565b5f60208284031215615dcf57615dce615d5d565b5b5f615ddc84828501615da6565b91505092915050565b5f8115159050919050565b615df981615de5565b82525050565b5f602082019050615e125f830184615df0565b92915050565b5f73ffffffffffffffffffffffffffffffffffffffff82169050919050565b5f819050919050565b5f615e5a615e55615e5084615e18565b615e37565b615e18565b9050919050565b5f615e6b82615e40565b9050919050565b5f615e7c82615e61565b9050919050565b615e8c81615e72565b82525050565b5f602082019050615ea55f830184615e83565b92915050565b5f819050919050565b615ebd81615eab565b8114615ec7575f5ffd5b50565b5f81359050615ed881615eb4565b92915050565b5f60208284031215615ef357615ef2615d5d565b5b5f615f0084828501615eca565b91505092915050565b5f615f1382615e18565b9050919050565b615f2381615f09565b82525050565b7f4e487b71000000000000000000000000000000000000000000000000000000005f52602160045260245ffd5b60048110615f6757615f66615f29565b5b50565b5f819050615f7782615f56565b919050565b5f615f8682615f6a565b9050919050565b615f9681615f7c565b82525050565b615fa581615eab565b82525050565b5f60c082019050615fbe5f830189615f1a565b615fcb6020830188615f8d565b615fd86040830187615df0565b615fe56060830186615df0565b615ff26080830185615f1a565b615fff60a0830184615f9c565b979650505050505050565b61601381615f09565b811461601d575f5ffd5b50565b5f8135905061602e8161600a565b92915050565b5f6020828403121561604957616048615d5d565b5b5f61605684828501616020565b91505092915050565b5f6020820190506160725f830184615f9c565b92915050565b5f819050919050565b61608a81616078565b8114616094575f5ffd5b50565b5f813590506160a581616081565b92915050565b5f602082840312156160c0576160bf615d5d565b5b5f6160cd84828501616097565b91505092915050565b6160df81616078565b82525050565b5f6020820190506160f85f8301846160d6565b92915050565b5f61610882615e40565b9050919050565b5f616119826160fe565b9050919050565b6161298161610f565b82525050565b5f6020820190506161425f830184616120565b92915050565b5f5f6040838503121561615e5761615d615d5d565b5b5f61616b85828601616097565b925050602061617c85828601616020565b9150509250929050565b5f81519050919050565b5f82825260208201905092915050565b5f819050602082019050919050565b6161b881615f09565b82525050565b5f6161c983836161af565b60208301905092915050565b5f602082019050919050565b5f6161eb82616186565b6161f58185616190565b9350616200836161a0565b805f5b8381101561623057815161621788826161be565b9750616222836161d5565b925050600181019050616203565b5085935050505092915050565b5f81519050919050565b5f82825260208201905092915050565b5f819050602082019050919050565b61626f81615eab565b82525050565b5f6162808383616266565b60208301905092915050565b5f602082019050919050565b5f6162a28261623d565b6162ac8185616247565b93506162b783616257565b805f5b838110156162e75781516162ce8882616275565b97506162d98361628c565b9250506001810190506162ba565b5085935050505092915050565b6162fd81615f7c565b82525050565b61630c81615de5565b82525050565b5f61010083015f8301518482035f86015261632d82826161e1565b915050602083015161634260208601826161af565b506040830151848203604086015261635a8282616298565b915050606083015161636f60608601826162f4565b5060808301516163826080860182616303565b5060a083015161639560a0860182616303565b5060c08301516163a860c08601826161af565b5060e08301516163bb60e0860182616266565b508091505092915050565b5f6020820190508181035f8301526163de8184616312565b905092915050565b600481106163f2575f5ffd5b50565b5f81359050616403816163e6565b92915050565b5f5f5f5f6080858703121561642157616420615d5d565b5b5f61642e87828801616020565b945050602061643f87828801616020565b935050604061645087828801615eca565b9250506060616461878288016163f5565b91505092959194509250565b5f5ffd5b5f601f19601f8301169050919050565b7f4e487b71000000000000000000000000000000000000000000000000000000005f52604160045260245ffd5b6164b782616471565b810181811067ffffffffffffffff821117156164d6576164d5616481565b5b80604052505050565b5f6164e8615d54565b90506164f482826164ae565b919050565b5f67ffffffffffffffff82111561651357616512616481565b5b602082029050602081019050919050565b5f5ffd5b5f61653a616535846164f9565b6164df565b9050808382526020820190506020840283018581111561655d5761655c616524565b5b835b8181101561658657806165728882616020565b84526020840193505060208101905061655f565b5050509392505050565b5f82601f8301126165a4576165a361646d565b5b81356165b4848260208601616528565b91505092915050565b5f67ffffffffffffffff8211156165d7576165d6616481565b5b602082029050602081019050919050565b5f6165fa6165f5846165bd565b6164df565b9050808382526020820190506020840283018581111561661d5761661c616524565b5b835b8181101561664657806166328882615eca565b84526020840193505060208101905061661f565b5050509392505050565b5f82601f8301126166645761666361646d565b5b81356166748482602086016165e8565b91505092915050565b5f5f5f5f6080858703121561669557616694615d5d565b5b5f85013567ffffffffffffffff8111156166b2576166b1615d61565b5b6166be87828801616590565b94505060206166cf87828801616020565b935050604085013567ffffffffffffffff8111156166f0576166ef615d61565b5b6166fc87828801616650565b925050606061670d878288016163f5565b91505092959194509250565b5f61672382615e18565b9050919050565b61673381616719565b811461673d575f5ffd5b50565b5f8135905061674e8161672a565b92915050565b5f6020828403121561676957616768615d5d565b5b5f61677684828501616740565b91505092915050565b5f81519050919050565b5f82825260208201905092915050565b5f819050602082019050919050565b600481106167b9576167b8615f29565b5b50565b5f8190506167c9826167a8565b919050565b5f6167d8826167bc565b9050919050565b6167e8816167ce565b82525050565b5f81519050919050565b5f82825260208201905092915050565b8281835e5f83830152505050565b5f616820826167ee565b61682a81856167f8565b935061683a818560208601616808565b61684381616471565b840191505092915050565b5f61014083015f8301516168645f8601826161af565b50602083015161687760208601826161af565b50604083015161688a6040860182616266565b50606083015161689d6060860182616266565b5060808301516168b060808601826162f4565b5060a08301516168c360a08601826167df565b5060c083015184820360c08601526168db8282616816565b91505060e08301516168f060e0860182616266565b50610100830151616905610100860182616266565b5061012083015184820361012086015261691f8282616816565b9150508091505092915050565b5f616937838361684e565b905092915050565b5f602082019050919050565b5f6169558261677f565b61695f8185616789565b93508360208202850161697185616799565b805f5b858110156169ac578484038952815161698d858261692c565b94506169988361693f565b925060208a01995050600181019050616974565b50829750879550505050505092915050565b5f6020820190508181035f8301526169d6818461694b565b905092915050565b5f5f604083850312156169f4576169f3615d5d565b5b5f616a0185828601616020565b9250506020616a1285828601615eca565b9150509250929050565b616a25816167ce565b82525050565b5f82825260208201905092915050565b5f616a45826167ee565b616a4f8185616a2b565b9350616a5f818560208601616808565b616a6881616471565b840191505092915050565b5f61014082019050616a875f83018d615f1a565b616a94602083018c615f1a565b616aa1604083018b615f9c565b616aae606083018a615f9c565b616abb6080830189615f8d565b616ac860a0830188616a1c565b81810360c0830152616ada8187616a3b565b9050616ae960e0830186615f9c565b616af7610100830185615f9c565b818103610120830152616b0a8184616a3b565b90509b9a5050505050505050505050565b5f602082019050616b2e5f830184615f1a565b92915050565b5f61014083015f830151616b4a5f8601826161af565b506020830151616b5d60208601826161af565b506040830151616b706040860182616266565b506060830151616b836060860182616266565b506080830151616b9660808601826162f4565b5060a0830151616ba960a08601826167df565b5060c083015184820360c0860152616bc18282616816565b91505060e0830151616bd660e0860182616266565b50610100830151616beb610100860182616266565b50610120830151848203610120860152616c058282616816565b9150508091505092915050565b5f6020820190508181035f830152616c2a8184616b34565b905092915050565b5f5f5f60608486031215616c4957616c48615d5d565b5b5f616c5686828701616020565b9350506020616c6786828701616020565b9250506040616c7886828701615eca565b9150509250925092565b616c8b81615de5565b8114616c95575f5ffd5b50565b5f81359050616ca681616c82565b92915050565b5f60208284031215616cc157616cc0615d5d565b5b5f616cce84828501616c98565b91505092915050565b5f616ce182615e61565b9050919050565b616cf181616cd7565b82525050565b5f602082019050616d0a5f830184616ce8565b92915050565b7f496e76616c6964206261746368204944000000000000000000000000000000005f82015250565b5f616d44601083616a2b565b9150616d4f82616d10565b602082019050919050565b5f6020820190508181035f830152616d7181616d38565b9050919050565b7f4e487b71000000000000000000000000000000000000000000000000000000005f52603260045260245ffd5b5f604082019050616db85f8301856160d6565b616dc56020830184615f1a565b9392505050565b5f81519050616dda81616c82565b92915050565b5f60208284031215616df557616df4615d5d565b5b5f616e0284828501616dcc565b91505092915050565b7f4e6f7420617574686f72697a65640000000000000000000000000000000000005f82015250565b5f616e3f600e83616a2b565b9150616e4a82616e0b565b602082019050919050565b5f6020820190508181035f830152616e6c81616e33565b9050919050565b5f5ffd5b5f81519050616e858161600a565b92915050565b5f81519050616e9981615eb4565b92915050565b60038110616eab575f5ffd5b50565b5f81519050616ebc81616e9f565b92915050565b5f819050919050565b616ed481616ec2565b8114616ede575f5ffd5b50565b5f81519050616eef81616ecb565b92915050565b5f6101808284031215616f0b57616f0a616e73565b5b616f166101806164df565b90505f616f2584828501616e77565b5f830152506020616f3884828501616e8b565b6020830152506040616f4c84828501616eae565b6040830152506060616f6084828501616e77565b6060830152506080616f7484828501616dcc565b60808301525060a0616f8884828501616e8b565b60a08301525060c0616f9c84828501616e8b565b60c08301525060e0616fb084828501616e8b565b60e083015250610100616fc584828501616ee1565b61010083015250610120616fdb84828501616ee1565b61012083015250610140616ff184828501616e8b565b6101408301525061016061700784828501616dcc565b6101608301525092915050565b5f610180828403121561702a57617029615d5d565b5b5f61703784828501616ef5565b91505092915050565b7f456d706c6f796565206e6f7420616374697665000000000000000000000000005f82015250565b5f617074601383616a2b565b915061707f82617040565b602082019050919050565b5f6020820190508181035f8301526170a181617068565b9050919050565b7f4e487b71000000000000000000000000000000000000000000000000000000005f52601160045260245ffd5b5f6170df82615eab565b91506170ea83615eab565b9250828203905081811115617102576171016170a8565b5b92915050565b5f60408201905061711b5f830185615f1a565b6171286020830184615f9c565b9392505050565b5f61713982615eab565b91507fffffffffffffffffffffffffffffffffffffffffffffffffffffffffffffffff820361716b5761716a6170a8565b5b600182019050919050565b7f4e487b71000000000000000000000000000000000000000000000000000000005f52602260045260245ffd5b5f60028204905060018216806171ba57607f821691505b6020821081036171cd576171cc617176565b5b50919050565b5f819050815f5260205f209050919050565b5f6020601f8301049050919050565b5f82821b905092915050565b5f6008830261722f7fffffffffffffffffffffffffffffffffffffffffffffffffffffffffffffffff826171f4565b61723986836171f4565b95508019841693508086168417925050509392505050565b5f61726b61726661726184615eab565b615e37565b615eab565b9050919050565b5f819050919050565b61728483617251565b61729861729082617272565b848454617200565b825550505050565b5f5f905090565b6172af6172a0565b6172ba81848461727b565b505050565b5b818110156172dd576172d25f826172a7565b6001810190506172c0565b5050565b601f821115617322576172f3816171d3565b6172fc846171e5565b8101602085101561730b578190505b61731f617317856171e5565b8301826172bf565b50505b505050565b5f82821c905092915050565b5f6173425f1984600802617327565b1980831691505092915050565b5f61735a8383617333565b9150826002028217905092915050565b617373826167ee565b67ffffffffffffffff81111561738c5761738b616481565b5b61739682546171a3565b6173a18282856172e1565b5f60209050601f8311600181146173d2575f84156173c0578287015190505b6173ca858261734f565b865550617431565b601f1984166173e0866171d3565b5f5b82811015617407578489015182556001820191506020850194506020810190506173e2565b868310156174245784890151617420601f891682617333565b8355505b6001600288020188555050505b505050505050565b5f60808201905061744c5f830187615f9c565b6174596020830186615f8d565b6174666040830185616a1c565b6174736060830184615f9c565b95945050505050565b7f4f6e6c7920706179726f6c6c20636f72652063616e2063616c6c0000000000005f82015250565b5f6174b0601a83616a2b565b91506174bb8261747c565b602082019050919050565b5f6020820190508181035f8301526174dd816174a4565b9050919050565b7f496e76616c6964207061796d656e7420494400000000000000000000000000005f82015250565b5f617518601283616a2b565b9150617523826174e4565b602082019050919050565b5f6020820190508181035f8301526175458161750c565b9050919050565b7f5061796d656e74206e6f74206661696c656400000000000000000000000000005f82015250565b5f617580601283616a2b565b915061758b8261754c565b602082019050919050565b5f6020820190508181035f8301526175ad81617574565b9050919050565b7f4d617820726574726965732065786365656465640000000000000000000000005f82015250565b5f6175e8601483616a2b565b91506175f3826175b4565b602082019050919050565b5f6020820190508181035f830152617615816175dc565b9050919050565b5f61762682615eab565b915061763183615eab565b9250828201905080821115617649576176486170a8565b5b92915050565b5f61765982615eab565b915061766483615eab565b925082820261767281615eab565b91508282048414831517617689576176886170a8565b5b5092915050565b7f52657472792064656c6179206e6f74206d6574000000000000000000000000005f82015250565b5f6176c4601383616a2b565b91506176cf82617690565b602082019050919050565b5f6020820190508181035f8301526176f1816176b8565b9050919050565b5f61770282615eab565b91505f8203617714576177136170a8565b5b600182039050919050565b5f6040820190506177325f830185615f9c565b61773f6020830184615f9c565b9392505050565b7f4172726179206c656e677468206d69736d6174636800000000000000000000005f82015250565b5f61777a601583616a2b565b915061778582617746565b602082019050919050565b5f6020820190508181035f8301526177a78161776e565b9050919050565b7f4e6f20656d706c6f7965657320737065636966696564000000000000000000005f82015250565b5f6177e2601683616a2b565b91506177ed826177ae565b602082019050919050565b5f6020820190508181035f83015261780f816177d6565b9050919050565b5f6040820190506178295f830185615f9c565b6178366020830184615f1a565b9392505050565b7f4261746368206e6f7420617070726f76656400000000000000000000000000005f82015250565b5f617871601283616a2b565b915061787c8261783d565b602082019050919050565b5f6020820190508181035f83015261789e81617865565b9050919050565b7f426174636820616c72656164792070726f6365737365640000000000000000005f82015250565b5f6178d9601783616a2b565b91506178e4826178a5565b602082019050919050565b5f6020820190508181035f830152617906816178cd565b9050919050565b5f6080820190506179205f830187615f9c565b61792d6020830186615f9c565b61793a6040830185615f9c565b6179476060830184615f9c565b95945050505050565b7f42415443485f5041594d454e545f50524f4345535345440000000000000000005f82015250565b5f617984601783616a2b565b915061798f82617950565b602082019050919050565b5f81519050919050565b5f82825260208201905092915050565b5f6179be8261799a565b6179c881856179a4565b93506179d8818560208601616808565b6179e181616471565b840191505092915050565b5f6060820190506179ff5f830185615f1a565b8181036020830152617a1081617978565b90508181036040830152617a2481846179b4565b90509392505050565b5f617a3f617a3a846164f9565b6164df565b90508083825260208201905060208402830185811115617a6257617a61616524565b5b835b81811015617a8b5780617a778882616e77565b845260208401935050602081019050617a64565b5050509392505050565b5f82601f830112617aa957617aa861646d565b5b8151617ab9848260208601617a2d565b91505092915050565b5f60208284031215617ad757617ad6615d5d565b5b5f82015167ffffffffffffffff811115617af457617af3615d61565b5b617b0084828501617a95565b91505092915050565b5f60208284031215617b1e57617b1d615d5d565b5b5f617b2b84828501616e8b565b91505092915050565b5f606082019050617b475f830186615f9c565b617b546020830185615f9c565b617b616040830184615f9c565b949350505050565b7f5343484544554c45445f5041594d454e54535f50524f434553534544000000005f82015250565b5f617b9d601c83616a2b565b9150617ba882617b69565b602082019050919050565b5f606082019050617bc65f830185615f1a565b8181036020830152617bd781617b91565b90508181036040830152617beb81846179b4565b90509392505050565b7f426174636820616c726561647920617070726f766564000000000000000000005f82015250565b5f617c28601683616a2b565b9150617c3382617bf4565b602082019050919050565b5f6020820190508181035f830152617c5581617c1c565b9050919050565b7f426174636820646f65736e2774207265717569726520617070726f76616c00005f82015250565b5f617c90601e83616a2b565b9150617c9b82617c5c565b602082019050919050565b5f6020820190508181035f830152617cbd81617c84565b9050919050565b5f606082019050617cd75f830186615f1a565b617ce46020830185615f1a565b617cf16040830184615f9c565b949350505050565b7f5265656e7472616e637947756172643a207265656e7472616e742063616c6c005f82015250565b5f617d2d601f83616a2b565b9150617d3882617cf9565b602082019050919050565b5f6020820190508181035f830152617d5a81617d21565b9050919050565b5f81905092915050565b7f456d706c6f7965653a20000000000000000000000000000000000000000000005f82015250565b5f617d9f600a83617d61565b9150617daa82617d6b565b600a82019050919050565b5f617dbf826167ee565b617dc98185617d61565b9350617dd9818560208601616808565b80840191505092915050565b7f20416d6f756e743a2000000000000000000000000000000000000000000000005f82015250565b5f617e19600983617d61565b9150617e2482617de5565b600982019050919050565b7f20546f6b656e3a200000000000000000000000000000000000000000000000005f82015250565b5f617e63600883617d61565b9150617e6e82617e2f565b600882019050919050565b7f2054696d657374616d703a2000000000000000000000000000000000000000005f82015250565b5f617ead600c83617d61565b9150617eb882617e79565b600c82019050919050565b5f617ecd82617d93565b9150617ed98287617db5565b9150617ee482617e0d565b9150617ef08286617db5565b9150617efb82617e57565b9150617f078285617db5565b9150617f1282617ea1565b9150617f1e8284617db5565b915081905095945050505050565b5f617f378284617db5565b915081905092915050565b5f604082019050617f555f830185615f9c565b8181036020830152617f678184616a3b565b90509392505050565b5f60a082019050617f835f830188615f1a565b617f906020830187615f9c565b617f9d6040830186615f8d565b617faa6060830185616a1c565b617fb76080830184615f9c565b9695505050505050565b7f5041594d454e545f50524f4345535345440000000000000000000000000000005f82015250565b5f617ff5601183616a2b565b915061800082617fc1565b602082019050919050565b5f60608201905061801e5f830185615f1a565b818103602083015261802f81617fe9565b9050818103604083015261804381846179b4565b90509392505050565b5f60408201905061805f5f830185615f1a565b61806c60208301846160d6565b9392505050565b7f4e487b71000000000000000000000000000000000000000000000000000000005f52601260045260245ffd5b5f6180aa82615eab565b91506180b583615eab565b9250826180c5576180c4618073565b5b828204905092915050565b5f6180da82615eab565b91506180e583615eab565b9250826180f5576180f4618073565b5b828206905092915050565b5f60ff82169050919050565b5f61811682618100565b915060ff8203618129576181286170a8565b5b60018201905091905056fea26469706673582212207a4eb88452d66df5d27749bb88fee7cfd4437c79b80bc37a1a52dc15a64e7d8e64736f6c634300081e0033608060405234801561000f575f5ffd5b50604051614808380380614808833981810160405281019061003191906100d5565b8060015f6101000a81548173ffffffffffffffffffffffffffffffffffffffff021916908373ffffffffffffffffffffffffffffffffffffffff16021790555050610100565b5f5ffd5b5f73ffffffffffffffffffffffffffffffffffffffff82169050919050565b5f6100a48261007b565b9050919050565b6100b48161009a565b81146100be575f5ffd5b50565b5f815190506100cf816100ab565b92915050565b5f602082840312156100ea576100e9610077565b5b5f6100f7848285016100c1565b91505092915050565b6146fb8061010d5f395ff3fe608060405234801561000f575f5ffd5b50600436106101cd575f3560e01c806375b238fc11610102578063a9c85164116100a0578063ddaf09291161006f578063ddaf0929146105ee578063e887319a14610623578063ead2b30614610653578063f44006e114610683576101cd565b8063a9c8516414610554578063bd628d2614610584578063c9a9ba51146105a2578063d547741f146105d2576101cd565b8063a217fddf116100dc578063a217fddf146104a2578063a246e46f146104c0578063a2b08f25146104f0578063a393bb3e14610520576101cd565b806375b238fc1461043657806391d1485414610454578063a1c7c1a614610484576101cd565b80632f2ff15d1161016f5780633fbd2b52116101495780633fbd2b521461038a57806344c83b97146103ba57806361b13aa2146103d65780636a82b00b14610406576101cd565b80632f2ff15d1461032257806336568abe1461033e5780633947be521461035a576101cd565b80631c580e1f116101ab5780631c580e1f14610261578063248a9ca31461029157806325c31f04146102c15780632820b656146102f2576101cd565b806301ffc9a7146101d157806305ad65b014610201578063121254a814610231575b5f5ffd5b6101eb60048036038101906101e691906131f4565b6106b3565b6040516101f89190613239565b60405180910390f35b61021b6004803603810190610216919061341b565b61072c565b60405161022891906136cb565b60405180910390f35b61024b600480360381019061024691906136eb565b610d1d565b6040516102589190613754565b60405180910390f35b61027b600480360381019061027691906136eb565b610d60565b60405161028891906136cb565b60405180910390f35b6102ab60048036038101906102a69190613797565b611077565b6040516102b891906137d1565b60405180910390f35b6102db60048036038101906102d691906137ea565b611093565b6040516102e992919061384e565b60405180910390f35b61030c6004803603810190610307919061387c565b61149f565b604051610319919061396b565b60405180910390f35b61033c6004803603810190610337919061398b565b611513565b005b6103586004803603810190610353919061398b565b611535565b005b610374600480360381019061036f91906139c9565b6115b0565b6040516103819190613754565b60405180910390f35b6103a4600480360381019061039f91906139f4565b6115f9565b6040516103b19190613754565b60405180910390f35b6103d460048036038101906103cf9190613abd565b611616565b005b6103f060048036038101906103eb91906139c9565b6119d4565b6040516103fd919061396b565b60405180910390f35b610420600480360381019061041b919061387c565b611a67565b60405161042d9190613754565b60405180910390f35b61043e611a91565b60405161044b91906137d1565b60405180910390f35b61046e6004803603810190610469919061398b565b611ab5565b60405161047b9190613239565b60405180910390f35b61048c611b18565b6040516104999190613b54565b60405180910390f35b6104aa611b3d565b6040516104b791906137d1565b60405180910390f35b6104da60048036038101906104d59190613b6d565b611b43565b6040516104e79190613754565b60405180910390f35b61050a60048036038101906105059190613b6d565b611b6e565b60405161051791906136cb565b60405180910390f35b61053a60048036038101906105359190613b6d565b611f08565b60405161054b959493929190613bab565b60405180910390f35b61056e60048036038101906105699190613bfc565b61241f565b60405161057b9190613754565b60405180910390f35b61058c61244a565b6040516105999190613754565b60405180910390f35b6105bc60048036038101906105b79190613b6d565b612456565b6040516105c991906136cb565b60405180910390f35b6105ec60048036038101906105e7919061398b565b61275b565b005b610608600480360381019061060391906139f4565b61277d565b60405161061a96959493929190613cca565b60405180910390f35b61063d600480360381019061063891906139f4565b6128ef565b60405161064a9190613dc4565b60405180910390f35b61066d600480360381019061066891906139f4565b612b02565b60405161067a919061396b565b60405180910390f35b61069d60048036038101906106989190613bfc565b612b69565b6040516106aa91906136cb565b60405180910390f35b5f7f7965db0b000000000000000000000000000000000000000000000000000000007bffffffffffffffffffffffffffffffffffffffffffffffffffffffff1916827bffffffffffffffffffffffffffffffffffffffffffffffffffffffff19161480610725575061072482612e9f565b5b9050919050565b60605f5f90505f5f90505b6002805490508110156109e5575f6002828154811061075957610758613de4565b5b905f5260205f2090600602016040518060c00160405290815f82015f9054906101000a900473ffffffffffffffffffffffffffffffffffffffff1673ffffffffffffffffffffffffffffffffffffffff1673ffffffffffffffffffffffffffffffffffffffff1681526020016001820180546107d490613e3e565b80601f016020809104026020016040519081016040528092919081815260200182805461080090613e3e565b801561084b5780601f106108225761010080835404028352916020019161084b565b820191905f5260205f20905b81548152906001019060200180831161082e57829003601f168201915b5050505050815260200160028201805461086490613e3e565b80601f016020809104026020016040519081016040528092919081815260200182805461089090613e3e565b80156108db5780601f106108b2576101008083540402835291602001916108db565b820191905f5260205f20905b8154815290600101906020018083116108be57829003601f168201915b50505050508152602001600382015481526020016004820154815260200160058201548152505090505f5f73ffffffffffffffffffffffffffffffffffffffff168973ffffffffffffffffffffffffffffffffffffffff16148061096d57508873ffffffffffffffffffffffffffffffffffffffff16825f015173ffffffffffffffffffffffffffffffffffffffff16145b90505f5f8951148061099057508880519060200120836020015180519060200120145b90505f888460600151101580156109ab575087846060015111155b90508280156109b75750815b80156109c05750805b156109d45785806109d090613e9b565b9650505b505050508080600101915050610737565b508067ffffffffffffffff811115610a00576109ff6132c4565b5b604051908082528060200260200182016040528015610a3957816020015b610a26613146565b815260200190600190039081610a1e5790505b5091505f5f90505f5f90505b600280549050811015610d12575f60028281548110610a6757610a66613de4565b5b905f5260205f2090600602016040518060c00160405290815f82015f9054906101000a900473ffffffffffffffffffffffffffffffffffffffff1673ffffffffffffffffffffffffffffffffffffffff1673ffffffffffffffffffffffffffffffffffffffff168152602001600182018054610ae290613e3e565b80601f0160208091040260200160405190810160405280929190818152602001828054610b0e90613e3e565b8015610b595780601f10610b3057610100808354040283529160200191610b59565b820191905f5260205f20905b815481529060010190602001808311610b3c57829003601f168201915b50505050508152602001600282018054610b7290613e3e565b80601f0160208091040260200160405190810160405280929190818152602001828054610b9e90613e3e565b8015610be95780601f10610bc057610100808354040283529160200191610be9565b820191905f5260205f20905b815481529060010190602001808311610bcc57829003601f168201915b50505050508152602001600382015481526020016004820154815260200160058201548152505090505f5f73ffffffffffffffffffffffffffffffffffffffff168a73ffffffffffffffffffffffffffffffffffffffff161480610c7b57508973ffffffffffffffffffffffffffffffffffffffff16825f015173ffffffffffffffffffffffffffffffffffffffff16145b90505f5f8a511480610c9e57508980519060200120836020015180519060200120145b90505f89846060015110158015610cb9575088846060015111155b9050828015610cc55750815b8015610cce5750805b15610d015783888781518110610ce757610ce6613de4565b5b60200260200101819052508580610cfd90613e9b565b9650505b505050508080600101915050610a45565b505050949350505050565b6004828051602081018201805184825260208301602085012081835280955050505050508181548110610d4e575f80fd5b905f5260205f20015f91509150505481565b60605f600484604051610d739190613f1c565b9081526020016040518091039020805480602002602001604051908101604052809291908181526020018280548015610dc957602002820191905f5260205f20905b815481526020019060010190808311610db5575b505050505090505f815190505f84118015610de357508084105b15610dec578390505b8067ffffffffffffffff811115610e0657610e056132c4565b5b604051908082528060200260200182016040528015610e3f57816020015b610e2c613146565b815260200190600190039081610e245790505b5092505f5f90505b8181101561106e575f838260018651610e609190613f32565b610e6a9190613f32565b81518110610e7b57610e7a613de4565b5b6020026020010151905060028181548110610e9957610e98613de4565b5b905f5260205f2090600602016040518060c00160405290815f82015f9054906101000a900473ffffffffffffffffffffffffffffffffffffffff1673ffffffffffffffffffffffffffffffffffffffff1673ffffffffffffffffffffffffffffffffffffffff168152602001600182018054610f1490613e3e565b80601f0160208091040260200160405190810160405280929190818152602001828054610f4090613e3e565b8015610f8b5780601f10610f6257610100808354040283529160200191610f8b565b820191905f5260205f20905b815481529060010190602001808311610f6e57829003601f168201915b50505050508152602001600282018054610fa490613e3e565b80601f0160208091040260200160405190810160405280929190818152602001828054610fd090613e3e565b801561101b5780601f10610ff25761010080835404028352916020019161101b565b820191905f5260205f20905b815481529060010190602001808311610ffe57829003601f168201915b50505050508152602001600382015481526020016004820154815260200160058201548152505085838151811061105557611054613de4565b5b6020026020010181905250508080600101915050610e47565b50505092915050565b5f5f5f8381526020019081526020015f20600101549050919050565b60605f5f831180156110a6575060648311155b6110e5576040517f08c379a00000000000000000000000000000000000000000000000000000000081526004016110dc90613faf565b60405180910390fd5b5f5f90505f5f90505b6002805490508110156111725787600282815481106111105761110f613de4565b5b905f5260205f20906006020160030154101580156111515750866002828154811061113e5761113d613de4565b5b905f5260205f2090600602016003015411155b1561116557818061116190613e9b565b9250505b80806001019150506110ee565b505f858211611181575f61118e565b858261118d9190613f32565b5b90505f85821161119e57816111a0565b855b905085821193508067ffffffffffffffff8111156111c1576111c06132c4565b5b6040519080825280602002602001820160405280156111fa57816020015b6111e7613146565b8152602001906001900390816111df5790505b5094505f5f90505f5f90505f5f90505b6002805490508110801561121d57508382105b15611490578b6002828154811061123757611236613de4565b5b905f5260205f209060060201600301541015801561127857508a6002828154811061126557611264613de4565b5b905f5260205f2090600602016003015411155b1561147d5789831061146e576002818154811061129857611297613de4565b5b905f5260205f2090600602016040518060c00160405290815f82015f9054906101000a900473ffffffffffffffffffffffffffffffffffffffff1673ffffffffffffffffffffffffffffffffffffffff1673ffffffffffffffffffffffffffffffffffffffff16815260200160018201805461131390613e3e565b80601f016020809104026020016040519081016040528092919081815260200182805461133f90613e3e565b801561138a5780601f106113615761010080835404028352916020019161138a565b820191905f5260205f20905b81548152906001019060200180831161136d57829003601f168201915b505050505081526020016002820180546113a390613e3e565b80601f01602080910402602001604051908101604052809291908181526020018280546113cf90613e3e565b801561141a5780601f106113f15761010080835404028352916020019161141a565b820191905f5260205f20905b8154815290600101906020018083116113fd57829003601f168201915b50505050508152602001600382015481526020016004820154815260200160058201548152505088838151811061145457611453613de4565b5b6020026020010181905250818061146a90613e9b565b9250505b828061147990613e9b565b9350505b808061148890613e9b565b91505061120a565b50505050505094509492505050565b60606004826040516114b19190613f1c565b908152602001604051809103902080548060200260200160405190810160405280929190818152602001828054801561150757602002820191905f5260205f20905b8154815260200190600101908083116114f3575b50505050509050919050565b61151c82611077565b61152581612f08565b61152f8383612f1c565b50505050565b61153d613005565b73ffffffffffffffffffffffffffffffffffffffff168173ffffffffffffffffffffffffffffffffffffffff16146115a1576040517f6697b23200000000000000000000000000000000000000000000000000000000815260040160405180910390fd5b6115ab828261300c565b505050565b5f60035f8373ffffffffffffffffffffffffffffffffffffffff1673ffffffffffffffffffffffffffffffffffffffff1681526020019081526020015f20805490509050919050565b5f60055f8381526020019081526020015f20805490509050919050565b60015f9054906101000a900473ffffffffffffffffffffffffffffffffffffffff1673ffffffffffffffffffffffffffffffffffffffff163373ffffffffffffffffffffffffffffffffffffffff161480611728575060015f9054906101000a900473ffffffffffffffffffffffffffffffffffffffff1673ffffffffffffffffffffffffffffffffffffffff166391d148547fa49807205ce4d355092ef5a8a18f56e8913cf4a201fbe287825b095693c21775336040518363ffffffff1660e01b81526004016116e8929190613fcd565b602060405180830381865afa158015611703573d5f5f3e3d5ffd5b505050506040513d601f19601f82011682018060405250810190611727919061401e565b5b611767576040517f08c379a000000000000000000000000000000000000000000000000000000000815260040161175e90614093565b60405180910390fd5b5f60028054905090505f620151804261178091906140de565b90505f6040518060c001604052808773ffffffffffffffffffffffffffffffffffffffff1681526020018681526020018581526020014281526020014381526020016001436117cf9190613f32565b408152509050600281908060018154018082558091505060019003905f5260205f2090600602015f909190919091505f820151815f015f6101000a81548173ffffffffffffffffffffffffffffffffffffffff021916908373ffffffffffffffffffffffffffffffffffffffff160217905550602082015181600101908161185791906142ae565b50604082015181600201908161186d91906143d5565b50606082015181600301556080820151816004015560a08201518160050155505060035f8773ffffffffffffffffffffffffffffffffffffffff1673ffffffffffffffffffffffffffffffffffffffff1681526020019081526020015f2083908060018154018082558091505060019003905f5260205f20015f90919091909150556004856040516118ff9190613f1c565b908152602001604051809103902083908060018154018082558091505060019003905f5260205f20015f909190919091505560055f8381526020019081526020015f2083908060018154018082558091505060019003905f5260205f20015f9091909190915055846040516119749190613f1c565b60405180910390208673ffffffffffffffffffffffffffffffffffffffff167f2bd016dca1398209e4e532a5c95af48b682c5ed098c20eb0ec41e4b3ac42072442866040516119c49291906144a4565b60405180910390a3505050505050565b606060035f8373ffffffffffffffffffffffffffffffffffffffff1673ffffffffffffffffffffffffffffffffffffffff1681526020019081526020015f20805480602002602001604051908101604052809291908181526020018280548015611a5b57602002820191905f5260205f20905b815481526020019060010190808311611a47575b50505050509050919050565b5f600482604051611a789190613f1c565b9081526020016040518091039020805490509050919050565b7fa49807205ce4d355092ef5a8a18f56e8913cf4a201fbe287825b095693c2177581565b5f5f5f8481526020019081526020015f205f015f8373ffffffffffffffffffffffffffffffffffffffff1673ffffffffffffffffffffffffffffffffffffffff1681526020019081526020015f205f9054906101000a900460ff16905092915050565b60015f9054906101000a900473ffffffffffffffffffffffffffffffffffffffff1681565b5f5f1b81565b6005602052815f5260405f208181548110611b5c575f80fd5b905f5260205f20015f91509150505481565b606081831115611bb3576040517f08c379a0000000000000000000000000000000000000000000000000000000008152600401611baa90614515565b60405180910390fd5b5f5f90505f5f90505b600280549050811015611c40578460028281548110611bde57611bdd613de4565b5b905f5260205f2090600602016003015410158015611c1f57508360028281548110611c0c57611c0b613de4565b5b905f5260205f2090600602016003015411155b15611c33578180611c2f90613e9b565b9250505b8080600101915050611bbc565b508067ffffffffffffffff811115611c5b57611c5a6132c4565b5b604051908082528060200260200182016040528015611c9457816020015b611c81613146565b815260200190600190039081611c795790505b5091505f5f90505f5f90505b600280549050811015611eff578560028281548110611cc257611cc1613de4565b5b905f5260205f2090600602016003015410158015611d0357508460028281548110611cf057611cef613de4565b5b905f5260205f2090600602016003015411155b15611ef25760028181548110611d1c57611d1b613de4565b5b905f5260205f2090600602016040518060c00160405290815f82015f9054906101000a900473ffffffffffffffffffffffffffffffffffffffff1673ffffffffffffffffffffffffffffffffffffffff1673ffffffffffffffffffffffffffffffffffffffff168152602001600182018054611d9790613e3e565b80601f0160208091040260200160405190810160405280929190818152602001828054611dc390613e3e565b8015611e0e5780601f10611de557610100808354040283529160200191611e0e565b820191905f5260205f20905b815481529060010190602001808311611df157829003601f168201915b50505050508152602001600282018054611e2790613e3e565b80601f0160208091040260200160405190810160405280929190818152602001828054611e5390613e3e565b8015611e9e5780601f10611e7557610100808354040283529160200191611e9e565b820191905f5260205f20905b815481529060010190602001808311611e8157829003601f168201915b505050505081526020016003820154815260200160048201548152602001600582015481525050848381518110611ed857611ed7613de4565b5b60200260200101819052508180611eee90613e9b565b9250505b8080600101915050611ca0565b50505092915050565b5f5f5f5f5f5f94505f93505f92505f91505f90505f60028054905067ffffffffffffffff811115611f3c57611f3b6132c4565b5b604051908082528060200260200182016040528015611f6a5781602001602082028036833780820191505090505b5090505f5f90505b600280549050811015612413575f60028281548110611f9457611f93613de4565b5b905f5260205f2090600602016040518060c00160405290815f82015f9054906101000a900473ffffffffffffffffffffffffffffffffffffffff1673ffffffffffffffffffffffffffffffffffffffff1673ffffffffffffffffffffffffffffffffffffffff16815260200160018201805461200f90613e3e565b80601f016020809104026020016040519081016040528092919081815260200182805461203b90613e3e565b80156120865780601f1061205d57610100808354040283529160200191612086565b820191905f5260205f20905b81548152906001019060200180831161206957829003601f168201915b5050505050815260200160028201805461209f90613e3e565b80601f01602080910402602001604051908101604052809291908181526020018280546120cb90613e3e565b80156121165780601f106120ed57610100808354040283529160200191612116565b820191905f5260205f20905b8154815290600101906020018083116120f957829003601f168201915b505050505081526020016003820154815260200160048201548152602001600582015481525050905089816060015110158015612157575088816060015111155b1561240557878061216790613e9b565b9850505f81602001518051906020012090507f4383ec58706cdbe21052026f52771dbe49d31b19e829fd81c52ad7fcd456ce7a8114806121c657507fe7858b8fa3b724c568ec721412e5a66b76ee39ca1029412751e683777fcfcbfa81145b156121de5787806121d690613e9b565b985050612324565b7fefc077a6a603cf81594be6944a3cadc86d55ad6e8f133bf89cc554e537a9d8c381148061222b57507f04d8e17292f3c03de52c5edbceb346240949c93893fa3ef9e282001dadb0ab5a81145b8061225557507f6fe24903f2359fd645acabf4506a67ae45f81c788cb80c55c37699cf9a1a879781145b1561226d57868061226590613e9b565b975050612323565b7f545760910ef327b12d33293c5a0f4701c83dc633f698db52bcc975a12afff1908114806122ba57507f86190e9ba3e1a6f52f4c2cb149c10f5cbd68db5b96cb4cb53eda392c78f684e281145b806122e457507f19daf714879a8d7ce7cf1f321ee5d4641baddaf542cc56400b31137e85e7f60381145b8061230e57507f5297e68f3a27f04914f2c6db0ad63b5e5c8173cebcc1a5341df045cf6dad7adc81145b1561232257858061231e90613e9b565b9650505b5b5b5f600190505f5f90505b8681101561239b57835f015173ffffffffffffffffffffffffffffffffffffffff1686828151811061236357612362613de4565b5b602002602001015173ffffffffffffffffffffffffffffffffffffffff160361238e575f915061239b565b808060010191505061232e565b50801561240257825f01518587815181106123b9576123b8613de4565b5b602002602001019073ffffffffffffffffffffffffffffffffffffffff16908173ffffffffffffffffffffffffffffffffffffffff168152505085806123fe90613e9b565b9650505b50505b508080600101915050611f72565b50509295509295909350565b6003602052815f5260405f208181548110612438575f80fd5b905f5260205f20015f91509150505481565b5f600280549050905090565b60608183111561249b576040517f08c379a00000000000000000000000000000000000000000000000000000000081526004016124929061457d565b60405180910390fd5b60028054905082106124e2576040517f08c379a00000000000000000000000000000000000000000000000000000000081526004016124d9906145e5565b60405180910390fd5b5f600184846124f19190613f32565b6124fb9190614603565b90508067ffffffffffffffff811115612517576125166132c4565b5b60405190808252806020026020018201604052801561255057816020015b61253d613146565b8152602001906001900390816125355790505b5091505f5f90505b81811015612753576002818661256e9190614603565b8154811061257f5761257e613de4565b5b905f5260205f2090600602016040518060c00160405290815f82015f9054906101000a900473ffffffffffffffffffffffffffffffffffffffff1673ffffffffffffffffffffffffffffffffffffffff1673ffffffffffffffffffffffffffffffffffffffff1681526020016001820180546125fa90613e3e565b80601f016020809104026020016040519081016040528092919081815260200182805461262690613e3e565b80156126715780601f1061264857610100808354040283529160200191612671565b820191905f5260205f20905b81548152906001019060200180831161265457829003601f168201915b5050505050815260200160028201805461268a90613e3e565b80601f01602080910402602001604051908101604052809291908181526020018280546126b690613e3e565b80156127015780601f106126d857610100808354040283529160200191612701565b820191905f5260205f20905b8154815290600101906020018083116126e457829003601f168201915b50505050508152602001600382015481526020016004820154815260200160058201548152505083828151811061273b5761273a613de4565b5b60200260200101819052508080600101915050612558565b505092915050565b61276482611077565b61276d81612f08565b612777838361300c565b50505050565b6002818154811061278c575f80fd5b905f5260205f2090600602015f91509050805f015f9054906101000a900473ffffffffffffffffffffffffffffffffffffffff16908060010180546127d090613e3e565b80601f01602080910402602001604051908101604052809291908181526020018280546127fc90613e3e565b80156128475780601f1061281e57610100808354040283529160200191612847565b820191905f5260205f20905b81548152906001019060200180831161282a57829003601f168201915b50505050509080600201805461285c90613e3e565b80601f016020809104026020016040519081016040528092919081815260200182805461288890613e3e565b80156128d35780601f106128aa576101008083540402835291602001916128d3565b820191905f5260205f20905b8154815290600101906020018083116128b657829003601f168201915b5050505050908060030154908060040154908060050154905086565b6128f7613146565b600280549050821061293e576040517f08c379a000000000000000000000000000000000000000000000000000000000815260040161293590614680565b60405180910390fd5b6002828154811061295257612951613de4565b5b905f5260205f2090600602016040518060c00160405290815f82015f9054906101000a900473ffffffffffffffffffffffffffffffffffffffff1673ffffffffffffffffffffffffffffffffffffffff1673ffffffffffffffffffffffffffffffffffffffff1681526020016001820180546129cd90613e3e565b80601f01602080910402602001604051908101604052809291908181526020018280546129f990613e3e565b8015612a445780601f10612a1b57610100808354040283529160200191612a44565b820191905f5260205f20905b815481529060010190602001808311612a2757829003601f168201915b50505050508152602001600282018054612a5d90613e3e565b80601f0160208091040260200160405190810160405280929190818152602001828054612a8990613e3e565b8015612ad45780601f10612aab57610100808354040283529160200191612ad4565b820191905f5260205f20905b815481529060010190602001808311612ab757829003601f168201915b5050505050815260200160038201548152602001600482015481526020016005820154815250509050919050565b606060055f8381526020019081526020015f20805480602002602001604051908101604052809291908181526020018280548015612b5d57602002820191905f5260205f20905b815481526020019060010190808311612b49575b50505050509050919050565b60605f60035f8573ffffffffffffffffffffffffffffffffffffffff1673ffffffffffffffffffffffffffffffffffffffff1681526020019081526020015f20805480602002602001604051908101604052809291908181526020018280548015612bf157602002820191905f5260205f20905b815481526020019060010190808311612bdd575b505050505090505f815190505f84118015612c0b57508084105b15612c14578390505b8067ffffffffffffffff811115612c2e57612c2d6132c4565b5b604051908082528060200260200182016040528015612c6757816020015b612c54613146565b815260200190600190039081612c4c5790505b5092505f5f90505b81811015612e96575f838260018651612c889190613f32565b612c929190613f32565b81518110612ca357612ca2613de4565b5b6020026020010151905060028181548110612cc157612cc0613de4565b5b905f5260205f2090600602016040518060c00160405290815f82015f9054906101000a900473ffffffffffffffffffffffffffffffffffffffff1673ffffffffffffffffffffffffffffffffffffffff1673ffffffffffffffffffffffffffffffffffffffff168152602001600182018054612d3c90613e3e565b80601f0160208091040260200160405190810160405280929190818152602001828054612d6890613e3e565b8015612db35780601f10612d8a57610100808354040283529160200191612db3565b820191905f5260205f20905b815481529060010190602001808311612d9657829003601f168201915b50505050508152602001600282018054612dcc90613e3e565b80601f0160208091040260200160405190810160405280929190818152602001828054612df890613e3e565b8015612e435780601f10612e1a57610100808354040283529160200191612e43565b820191905f5260205f20905b815481529060010190602001808311612e2657829003601f168201915b505050505081526020016003820154815260200160048201548152602001600582015481525050858381518110612e7d57612e7c613de4565b5b6020026020010181905250508080600101915050612c6f565b50505092915050565b5f7f01ffc9a7000000000000000000000000000000000000000000000000000000007bffffffffffffffffffffffffffffffffffffffffffffffffffffffff1916827bffffffffffffffffffffffffffffffffffffffffffffffffffffffff1916149050919050565b612f1981612f14613005565b6130f5565b50565b5f612f278383611ab5565b612ffb5760015f5f8581526020019081526020015f205f015f8473ffffffffffffffffffffffffffffffffffffffff1673ffffffffffffffffffffffffffffffffffffffff1681526020019081526020015f205f6101000a81548160ff021916908315150217905550612f98613005565b73ffffffffffffffffffffffffffffffffffffffff168273ffffffffffffffffffffffffffffffffffffffff16847f2f8788117e7eff1d82e926ec794901d17c78024a50270940304540a733656f0d60405160405180910390a460019050612fff565b5f90505b92915050565b5f33905090565b5f6130178383611ab5565b156130eb575f5f5f8581526020019081526020015f205f015f8473ffffffffffffffffffffffffffffffffffffffff1673ffffffffffffffffffffffffffffffffffffffff1681526020019081526020015f205f6101000a81548160ff021916908315150217905550613088613005565b73ffffffffffffffffffffffffffffffffffffffff168273ffffffffffffffffffffffffffffffffffffffff16847ff6391f5c32d9c69d2a47ea670b442974b53935d1edc7fd64eb21e047a839171b60405160405180910390a4600190506130ef565b5f90505b92915050565b6130ff8282611ab5565b6131425780826040517fe2517d3f00000000000000000000000000000000000000000000000000000000815260040161313992919061469e565b60405180910390fd5b5050565b6040518060c001604052805f73ffffffffffffffffffffffffffffffffffffffff16815260200160608152602001606081526020015f81526020015f81526020015f81525090565b5f604051905090565b5f5ffd5b5f5ffd5b5f7fffffffff0000000000000000000000000000000000000000000000000000000082169050919050565b6131d38161319f565b81146131dd575f5ffd5b50565b5f813590506131ee816131ca565b92915050565b5f6020828403121561320957613208613197565b5b5f613216848285016131e0565b91505092915050565b5f8115159050919050565b6132338161321f565b82525050565b5f60208201905061324c5f83018461322a565b92915050565b5f73ffffffffffffffffffffffffffffffffffffffff82169050919050565b5f61327b82613252565b9050919050565b61328b81613271565b8114613295575f5ffd5b50565b5f813590506132a681613282565b92915050565b5f5ffd5b5f5ffd5b5f601f19601f8301169050919050565b7f4e487b71000000000000000000000000000000000000000000000000000000005f52604160045260245ffd5b6132fa826132b4565b810181811067ffffffffffffffff82111715613319576133186132c4565b5b80604052505050565b5f61332b61318e565b905061333782826132f1565b919050565b5f67ffffffffffffffff821115613356576133556132c4565b5b61335f826132b4565b9050602081019050919050565b828183375f83830152505050565b5f61338c6133878461333c565b613322565b9050828152602081018484840111156133a8576133a76132b0565b5b6133b384828561336c565b509392505050565b5f82601f8301126133cf576133ce6132ac565b5b81356133df84826020860161337a565b91505092915050565b5f819050919050565b6133fa816133e8565b8114613404575f5ffd5b50565b5f81359050613415816133f1565b92915050565b5f5f5f5f6080858703121561343357613432613197565b5b5f61344087828801613298565b945050602085013567ffffffffffffffff8111156134615761346061319b565b5b61346d878288016133bb565b935050604061347e87828801613407565b925050606061348f87828801613407565b91505092959194509250565b5f81519050919050565b5f82825260208201905092915050565b5f819050602082019050919050565b6134cd81613271565b82525050565b5f81519050919050565b5f82825260208201905092915050565b8281835e5f83830152505050565b5f613505826134d3565b61350f81856134dd565b935061351f8185602086016134ed565b613528816132b4565b840191505092915050565b5f81519050919050565b5f82825260208201905092915050565b5f61355782613533565b613561818561353d565b93506135718185602086016134ed565b61357a816132b4565b840191505092915050565b61358e816133e8565b82525050565b5f819050919050565b6135a681613594565b82525050565b5f60c083015f8301516135c15f8601826134c4565b50602083015184820360208601526135d982826134fb565b915050604083015184820360408601526135f3828261354d565b91505060608301516136086060860182613585565b50608083015161361b6080860182613585565b5060a083015161362e60a086018261359d565b508091505092915050565b5f61364483836135ac565b905092915050565b5f602082019050919050565b5f6136628261349b565b61366c81856134a5565b93508360208202850161367e856134b5565b805f5b858110156136b9578484038952815161369a8582613639565b94506136a58361364c565b925060208a01995050600181019050613681565b50829750879550505050505092915050565b5f6020820190508181035f8301526136e38184613658565b905092915050565b5f5f6040838503121561370157613700613197565b5b5f83013567ffffffffffffffff81111561371e5761371d61319b565b5b61372a858286016133bb565b925050602061373b85828601613407565b9150509250929050565b61374e816133e8565b82525050565b5f6020820190506137675f830184613745565b92915050565b61377681613594565b8114613780575f5ffd5b50565b5f813590506137918161376d565b92915050565b5f602082840312156137ac576137ab613197565b5b5f6137b984828501613783565b91505092915050565b6137cb81613594565b82525050565b5f6020820190506137e45f8301846137c2565b92915050565b5f5f5f5f6080858703121561380257613801613197565b5b5f61380f87828801613407565b945050602061382087828801613407565b935050604061383187828801613407565b925050606061384287828801613407565b91505092959194509250565b5f6040820190508181035f8301526138668185613658565b9050613875602083018461322a565b9392505050565b5f6020828403121561389157613890613197565b5b5f82013567ffffffffffffffff8111156138ae576138ad61319b565b5b6138ba848285016133bb565b91505092915050565b5f81519050919050565b5f82825260208201905092915050565b5f819050602082019050919050565b5f6138f78383613585565b60208301905092915050565b5f602082019050919050565b5f613919826138c3565b61392381856138cd565b935061392e836138dd565b805f5b8381101561395e57815161394588826138ec565b975061395083613903565b925050600181019050613931565b5085935050505092915050565b5f6020820190508181035f830152613983818461390f565b905092915050565b5f5f604083850312156139a1576139a0613197565b5b5f6139ae85828601613783565b92505060206139bf85828601613298565b9150509250929050565b5f602082840312156139de576139dd613197565b5b5f6139eb84828501613298565b91505092915050565b5f60208284031215613a0957613a08613197565b5b5f613a1684828501613407565b91505092915050565b5f67ffffffffffffffff821115613a3957613a386132c4565b5b613a42826132b4565b9050602081019050919050565b5f613a61613a5c84613a1f565b613322565b905082815260208101848484011115613a7d57613a7c6132b0565b5b613a8884828561336c565b509392505050565b5f82601f830112613aa457613aa36132ac565b5b8135613ab4848260208601613a4f565b91505092915050565b5f5f5f60608486031215613ad457613ad3613197565b5b5f613ae186828701613298565b935050602084013567ffffffffffffffff811115613b0257613b0161319b565b5b613b0e868287016133bb565b925050604084013567ffffffffffffffff811115613b2f57613b2e61319b565b5b613b3b86828701613a90565b9150509250925092565b613b4e81613271565b82525050565b5f602082019050613b675f830184613b45565b92915050565b5f5f60408385031215613b8357613b82613197565b5b5f613b9085828601613407565b9250506020613ba185828601613407565b9150509250929050565b5f60a082019050613bbe5f830188613745565b613bcb6020830187613745565b613bd86040830186613745565b613be56060830185613745565b613bf26080830184613745565b9695505050505050565b5f5f60408385031215613c1257613c11613197565b5b5f613c1f85828601613298565b9250506020613c3085828601613407565b9150509250929050565b5f82825260208201905092915050565b5f613c54826134d3565b613c5e8185613c3a565b9350613c6e8185602086016134ed565b613c77816132b4565b840191505092915050565b5f82825260208201905092915050565b5f613c9c82613533565b613ca68185613c82565b9350613cb68185602086016134ed565b613cbf816132b4565b840191505092915050565b5f60c082019050613cdd5f830189613b45565b8181036020830152613cef8188613c4a565b90508181036040830152613d038187613c92565b9050613d126060830186613745565b613d1f6080830185613745565b613d2c60a08301846137c2565b979650505050505050565b5f60c083015f830151613d4c5f8601826134c4565b5060208301518482036020860152613d6482826134fb565b91505060408301518482036040860152613d7e828261354d565b9150506060830151613d936060860182613585565b506080830151613da66080860182613585565b5060a0830151613db960a086018261359d565b508091505092915050565b5f6020820190508181035f830152613ddc8184613d37565b905092915050565b7f4e487b71000000000000000000000000000000000000000000000000000000005f52603260045260245ffd5b7f4e487b71000000000000000000000000000000000000000000000000000000005f52602260045260245ffd5b5f6002820490506001821680613e5557607f821691505b602082108103613e6857613e67613e11565b5b50919050565b7f4e487b71000000000000000000000000000000000000000000000000000000005f52601160045260245ffd5b5f613ea5826133e8565b91507fffffffffffffffffffffffffffffffffffffffffffffffffffffffffffffffff8203613ed757613ed6613e6e565b5b600182019050919050565b5f81905092915050565b5f613ef6826134d3565b613f008185613ee2565b9350613f108185602086016134ed565b80840191505092915050565b5f613f278284613eec565b915081905092915050565b5f613f3c826133e8565b9150613f47836133e8565b9250828203905081811115613f5f57613f5e613e6e565b5b92915050565b7f496e76616c6964206c696d69742028312d3130302900000000000000000000005f82015250565b5f613f99601583613c3a565b9150613fa482613f65565b602082019050919050565b5f6020820190508181035f830152613fc681613f8d565b9050919050565b5f604082019050613fe05f8301856137c2565b613fed6020830184613b45565b9392505050565b613ffd8161321f565b8114614007575f5ffd5b50565b5f8151905061401881613ff4565b92915050565b5f6020828403121561403357614032613197565b5b5f6140408482850161400a565b91505092915050565b7f4e6f7420617574686f72697a65640000000000000000000000000000000000005f82015250565b5f61407d600e83613c3a565b915061408882614049565b602082019050919050565b5f6020820190508181035f8301526140aa81614071565b9050919050565b7f4e487b71000000000000000000000000000000000000000000000000000000005f52601260045260245ffd5b5f6140e8826133e8565b91506140f3836133e8565b925082614103576141026140b1565b5b828204905092915050565b5f819050815f5260205f209050919050565b5f6020601f8301049050919050565b5f82821b905092915050565b5f6008830261416a7fffffffffffffffffffffffffffffffffffffffffffffffffffffffffffffffff8261412f565b614174868361412f565b95508019841693508086168417925050509392505050565b5f819050919050565b5f6141af6141aa6141a5846133e8565b61418c565b6133e8565b9050919050565b5f819050919050565b6141c883614195565b6141dc6141d4826141b6565b84845461413b565b825550505050565b5f5f905090565b6141f36141e4565b6141fe8184846141bf565b505050565b5b81811015614221576142165f826141eb565b600181019050614204565b5050565b601f821115614266576142378161410e565b61424084614120565b8101602085101561424f578190505b61426361425b85614120565b830182614203565b50505b505050565b5f82821c905092915050565b5f6142865f198460080261426b565b1980831691505092915050565b5f61429e8383614277565b9150826002028217905092915050565b6142b7826134d3565b67ffffffffffffffff8111156142d0576142cf6132c4565b5b6142da8254613e3e565b6142e5828285614225565b5f60209050601f831160018114614316575f8415614304578287015190505b61430e8582614293565b865550614375565b601f1984166143248661410e565b5f5b8281101561434b57848901518255600182019150602085019450602081019050614326565b868310156143685784890151614364601f891682614277565b8355505b6001600288020188555050505b505050505050565b5f819050815f5260205f209050919050565b601f8211156143d0576143a18161437d565b6143aa84614120565b810160208510156143b9578190505b6143cd6143c585614120565b830182614203565b50505b505050565b6143de82613533565b67ffffffffffffffff8111156143f7576143f66132c4565b5b6144018254613e3e565b61440c82828561438f565b5f60209050601f83116001811461443d575f841561442b578287015190505b6144358582614293565b86555061449c565b601f19841661444b8661437d565b5f5b828110156144725784890151825560018201915060208501945060208101905061444d565b8683101561448f578489015161448b601f891682614277565b8355505b6001600288020188555050505b505050505050565b5f6040820190506144b75f830185613745565b6144c46020830184613745565b9392505050565b7f496e76616c69642074696d652072616e676500000000000000000000000000005f82015250565b5f6144ff601283613c3a565b915061450a826144cb565b602082019050919050565b5f6020820190508181035f83015261452c816144f3565b9050919050565b7f496e76616c69642072616e6765000000000000000000000000000000000000005f82015250565b5f614567600d83613c3a565b915061457282614533565b602082019050919050565b5f6020820190508181035f8301526145948161455b565b9050919050565b7f456e6420696e646578206f7574206f6620626f756e64730000000000000000005f82015250565b5f6145cf601783613c3a565b91506145da8261459b565b602082019050919050565b5f6020820190508181035f8301526145fc816145c3565b9050919050565b5f61460d826133e8565b9150614618836133e8565b92508282019050808211156146305761462f613e6e565b5b92915050565b7f496e76616c6964206c6f6720696e6465780000000000000000000000000000005f82015250565b5f61466a601183613c3a565b915061467582614636565b602082019050919050565b5f6020820190508181035f8301526146978161465e565b9050919050565b5f6040820190506146b15f830185613b45565b6146be60208301846137c2565b939250505056fea26469706673582212205972a4c113e67cbbbf999d04db39ea658f162524a519642d595cfc68a0ed37a964736f6c634300081e0033",
			"opcodes": "PUSH1 0xA0 PUSH1 0x40 MSTORE CALLVALUE DUP1 ISZERO PUSH2 0xF JUMPI PUSH0 PUSH0 REVERT JUMPDEST POP PUSH1 0x40 MLOAD PUSH3 0x1B4BB CODESIZE SUB DUP1 PUSH3 0x1B4BB DUP4 CODECOPY DUP2 DUP2 ADD PUSH1 0x40 MSTORE DUP2 ADD SWAP1 PUSH2 0x33 SWAP2 SWAP1 PUSH2 0x958 JUMP JUMPDEST PUSH0 PUSH1 0x1 PUSH0 PUSH2 0x100 EXP DUP2 SLOAD DUP2 PUSH1 0xFF MUL NOT AND SWAP1 DUP4 ISZERO ISZERO MUL OR SWAP1 SSTORE POP PUSH1 0x1 PUSH1 0x2 DUP2 SWAP1 SSTORE POP PUSH0 DUP5 MLOAD GT PUSH2 0x97 JUMPI PUSH1 0x40 MLOAD PUSH32 0x8C379A000000000000000000000000000000000000000000000000000000000 DUP2 MSTORE PUSH1 0x4 ADD PUSH2 0x8E SWAP1 PUSH2 0xA6A JUMP JUMPDEST PUSH1 0x40 MLOAD DUP1 SWAP2 SUB SWAP1 REVERT JUMPDEST DUP4 PUSH1 0x3 SWAP1 DUP2 PUSH2 0xA6 SWAP2 SWAP1 PUSH2 0xC98 JUMP JUMPDEST POP TIMESTAMP PUSH1 0x80 DUP2 DUP2 MSTORE POP POP PUSH2 0xC1 PUSH0 PUSH0 SHL DUP5 PUSH2 0x556 PUSH1 0x20 SHL PUSH1 0x20 SHR JUMP JUMPDEST POP PUSH2 0xF2 PUSH32 0xA49807205CE4D355092EF5A8A18F56E8913CF4A201FBE287825B095693C21775 DUP5 PUSH2 0x556 PUSH1 0x20 SHL PUSH1 0x20 SHR JUMP JUMPDEST POP PUSH0 PUSH0 SWAP1 POP JUMPDEST DUP3 MLOAD DUP2 LT ISZERO PUSH2 0x159 JUMPI PUSH2 0x14B PUSH32 0xA49807205CE4D355092EF5A8A18F56E8913CF4A201FBE287825B095693C21775 DUP5 DUP4 DUP2 MLOAD DUP2 LT PUSH2 0x138 JUMPI PUSH2 0x137 PUSH2 0xD67 JUMP JUMPDEST JUMPDEST PUSH1 0x20 MUL PUSH1 0x20 ADD ADD MLOAD PUSH2 0x556 PUSH1 0x20 SHL PUSH1 0x20 SHR JUMP JUMPDEST POP DUP1 DUP1 PUSH1 0x1 ADD SWAP2 POP POP PUSH2 0xF8 JUMP JUMPDEST POP ADDRESS PUSH1 0x40 MLOAD PUSH2 0x167 SWAP1 PUSH2 0x6B5 JUMP JUMPDEST PUSH2 0x171 SWAP2 SWAP1 PUSH2 0xDA3 JUMP JUMPDEST PUSH1 0x40 MLOAD DUP1 SWAP2 SUB SWAP1 PUSH0 CREATE DUP1 ISZERO DUP1 ISZERO PUSH2 0x18A JUMPI RETURNDATASIZE PUSH0 PUSH0 RETURNDATACOPY RETURNDATASIZE PUSH0 REVERT JUMPDEST POP PUSH1 0x4 PUSH0 PUSH2 0x100 EXP DUP2 SLOAD DUP2 PUSH20 0xFFFFFFFFFFFFFFFFFFFFFFFFFFFFFFFFFFFFFFFF MUL NOT AND SWAP1 DUP4 PUSH20 0xFFFFFFFFFFFFFFFFFFFFFFFFFFFFFFFFFFFFFFFF AND MUL OR SWAP1 SSTORE POP ADDRESS DUP2 PUSH1 0x40 MLOAD PUSH2 0x1D8 SWAP1 PUSH2 0x6C3 JUMP JUMPDEST PUSH2 0x1E3 SWAP3 SWAP2 SWAP1 PUSH2 0xE73 JUMP JUMPDEST PUSH1 0x40 MLOAD DUP1 SWAP2 SUB SWAP1 PUSH0 CREATE DUP1 ISZERO DUP1 ISZERO PUSH2 0x1FC JUMPI RETURNDATASIZE PUSH0 PUSH0 RETURNDATACOPY RETURNDATASIZE PUSH0 REVERT JUMPDEST POP PUSH1 0x5 PUSH0 PUSH2 0x100 EXP DUP2 SLOAD DUP2 PUSH20 0xFFFFFFFFFFFFFFFFFFFFFFFFFFFFFFFFFFFFFFFF MUL NOT AND SWAP1 DUP4 PUSH20 0xFFFFFFFFFFFFFFFFFFFFFFFFFFFFFFFFFFFFFFFF AND MUL OR SWAP1 SSTORE POP ADDRESS PUSH1 0x40 MLOAD PUSH2 0x249 SWAP1 PUSH2 0x6D1 JUMP JUMPDEST PUSH2 0x253 SWAP2 SWAP1 PUSH2 0xDA3 JUMP JUMPDEST PUSH1 0x40 MLOAD DUP1 SWAP2 SUB SWAP1 PUSH0 CREATE DUP1 ISZERO DUP1 ISZERO PUSH2 0x26C JUMPI RETURNDATASIZE PUSH0 PUSH0 RETURNDATACOPY RETURNDATASIZE PUSH0 REVERT JUMPDEST POP PUSH1 0x6 PUSH0 PUSH2 0x100 EXP DUP2 SLOAD DUP2 PUSH20 0xFFFFFFFFFFFFFFFFFFFFFFFFFFFFFFFFFFFFFFFF MUL NOT AND SWAP1 DUP4 PUSH20 0xFFFFFFFFFFFFFFFFFFFFFFFFFFFFFFFFFFFFFFFF AND MUL OR SWAP1 SSTORE POP ADDRESS PUSH1 0x40 MLOAD PUSH2 0x2B9 SWAP1 PUSH2 0x6DF JUMP JUMPDEST PUSH2 0x2C3 SWAP2 SWAP1 PUSH2 0xDA3 JUMP JUMPDEST PUSH1 0x40 MLOAD DUP1 SWAP2 SUB SWAP1 PUSH0 CREATE DUP1 ISZERO DUP1 ISZERO PUSH2 0x2DC JUMPI RETURNDATASIZE PUSH0 PUSH0 RETURNDATACOPY RETURNDATASIZE PUSH0 REVERT JUMPDEST POP PUSH1 0x7 PUSH0 PUSH2 0x100 EXP DUP2 SLOAD DUP2 PUSH20 0xFFFFFFFFFFFFFFFFFFFFFFFFFFFFFFFFFFFFFFFF MUL NOT AND SWAP1 DUP4 PUSH20 0xFFFFFFFFFFFFFFFFFFFFFFFFFFFFFFFFFFFFFFFF AND MUL OR SWAP1 SSTORE POP PUSH1 0x6 PUSH0 SWAP1 SLOAD SWAP1 PUSH2 0x100 EXP SWAP1 DIV PUSH20 0xFFFFFFFFFFFFFFFFFFFFFFFFFFFFFFFFFFFFFFFF AND PUSH20 0xFFFFFFFFFFFFFFFFFFFFFFFFFFFFFFFFFFFFFFFF AND PUSH4 0x460515A1 PUSH1 0x4 PUSH0 SWAP1 SLOAD SWAP1 PUSH2 0x100 EXP SWAP1 DIV PUSH20 0xFFFFFFFFFFFFFFFFFFFFFFFFFFFFFFFFFFFFFFFF AND PUSH1 0x40 MLOAD DUP3 PUSH4 0xFFFFFFFF AND PUSH1 0xE0 SHL DUP2 MSTORE PUSH1 0x4 ADD PUSH2 0x397 SWAP2 SWAP1 PUSH2 0xDA3 JUMP JUMPDEST PUSH0 PUSH1 0x40 MLOAD DUP1 DUP4 SUB DUP2 PUSH0 DUP8 DUP1 EXTCODESIZE ISZERO DUP1 ISZERO PUSH2 0x3AE JUMPI PUSH0 PUSH0 REVERT JUMPDEST POP GAS CALL ISZERO DUP1 ISZERO PUSH2 0x3C0 JUMPI RETURNDATASIZE PUSH0 PUSH0 RETURNDATACOPY RETURNDATASIZE PUSH0 REVERT JUMPDEST POP POP POP POP PUSH1 0x6 PUSH0 SWAP1 SLOAD SWAP1 PUSH2 0x100 EXP SWAP1 DIV PUSH20 0xFFFFFFFFFFFFFFFFFFFFFFFFFFFFFFFFFFFFFFFF AND PUSH20 0xFFFFFFFFFFFFFFFFFFFFFFFFFFFFFFFFFFFFFFFF AND PUSH4 0x7CB2B79C PUSH1 0x5 PUSH0 SWAP1 SLOAD SWAP1 PUSH2 0x100 EXP SWAP1 DIV PUSH20 0xFFFFFFFFFFFFFFFFFFFFFFFFFFFFFFFFFFFFFFFF AND PUSH1 0x40 MLOAD DUP3 PUSH4 0xFFFFFFFF AND PUSH1 0xE0 SHL DUP2 MSTORE PUSH1 0x4 ADD PUSH2 0x43F SWAP2 SWAP1 PUSH2 0xEC1 JUMP JUMPDEST PUSH0 PUSH1 0x40 MLOAD DUP1 DUP4 SUB DUP2 PUSH0 DUP8 DUP1 EXTCODESIZE ISZERO DUP1 ISZERO PUSH2 0x456 JUMPI PUSH0 PUSH0 REVERT JUMPDEST POP GAS CALL ISZERO DUP1 ISZERO PUSH2 0x468 JUMPI RETURNDATASIZE PUSH0 PUSH0 RETURNDATACOPY RETURNDATASIZE PUSH0 REVERT JUMPDEST POP POP POP POP PUSH1 0x6 PUSH0 SWAP1 SLOAD SWAP1 PUSH2 0x100 EXP SWAP1 DIV PUSH20 0xFFFFFFFFFFFFFFFFFFFFFFFFFFFFFFFFFFFFFFFF AND PUSH20 0xFFFFFFFFFFFFFFFFFFFFFFFFFFFFFFFFFFFFFFFF AND PUSH4 0xADE77AD3 PUSH1 0x7 PUSH0 SWAP1 SLOAD SWAP1 PUSH2 0x100 EXP SWAP1 DIV PUSH20 0xFFFFFFFFFFFFFFFFFFFFFFFFFFFFFFFFFFFFFFFF AND PUSH1 0x40 MLOAD DUP3 PUSH4 0xFFFFFFFF AND PUSH1 0xE0 SHL DUP2 MSTORE PUSH1 0x4 ADD PUSH2 0x4E7 SWAP2 SWAP1 PUSH2 0xDA3 JUMP JUMPDEST PUSH0 PUSH1 0x40 MLOAD DUP1 DUP4 SUB DUP2 PUSH0 DUP8 DUP1 EXTCODESIZE ISZERO DUP1 ISZERO PUSH2 0x4FE JUMPI PUSH0 PUSH0 REVERT JUMPDEST POP GAS CALL ISZERO DUP1 ISZERO PUSH2 0x510 JUMPI RETURNDATASIZE PUSH0 PUSH0 RETURNDATACOPY RETURNDATASIZE PUSH0 REVERT JUMPDEST POP POP POP POP PUSH32 0xED75F6C1B543DF3C0687E699F2A40D685A7850C67BF855FF72257B1344B173DA DUP5 TIMESTAMP PUSH1 0x40 MLOAD PUSH2 0x545 SWAP3 SWAP2 SWAP1 PUSH2 0xF21 JUMP JUMPDEST PUSH1 0x40 MLOAD DUP1 SWAP2 SUB SWAP1 LOG1 POP POP POP POP PUSH2 0xF4F JUMP JUMPDEST PUSH0 PUSH2 0x567 DUP4 DUP4 PUSH2 0x64B PUSH1 0x20 SHL PUSH1 0x20 SHR JUMP JUMPDEST PUSH2 0x641 JUMPI PUSH1 0x1 PUSH0 PUSH0 DUP6 DUP2 MSTORE PUSH1 0x20 ADD SWAP1 DUP2 MSTORE PUSH1 0x20 ADD PUSH0 KECCAK256 PUSH0 ADD PUSH0 DUP5 PUSH20 0xFFFFFFFFFFFFFFFFFFFFFFFFFFFFFFFFFFFFFFFF AND PUSH20 0xFFFFFFFFFFFFFFFFFFFFFFFFFFFFFFFFFFFFFFFF AND DUP2 MSTORE PUSH1 0x20 ADD SWAP1 DUP2 MSTORE PUSH1 0x20 ADD PUSH0 KECCAK256 PUSH0 PUSH2 0x100 EXP DUP2 SLOAD DUP2 PUSH1 0xFF MUL NOT AND SWAP1 DUP4 ISZERO ISZERO MUL OR SWAP1 SSTORE POP PUSH2 0x5DE PUSH2 0x6AE PUSH1 0x20 SHL PUSH1 0x20 SHR JUMP JUMPDEST PUSH20 0xFFFFFFFFFFFFFFFFFFFFFFFFFFFFFFFFFFFFFFFF AND DUP3 PUSH20 0xFFFFFFFFFFFFFFFFFFFFFFFFFFFFFFFFFFFFFFFF AND DUP5 PUSH32 0x2F8788117E7EFF1D82E926EC794901D17C78024A50270940304540A733656F0D PUSH1 0x40 MLOAD PUSH1 0x40 MLOAD DUP1 SWAP2 SUB SWAP1 LOG4 PUSH1 0x1 SWAP1 POP PUSH2 0x645 JUMP JUMPDEST PUSH0 SWAP1 POP JUMPDEST SWAP3 SWAP2 POP POP JUMP JUMPDEST PUSH0 PUSH0 PUSH0 DUP5 DUP2 MSTORE PUSH1 0x20 ADD SWAP1 DUP2 MSTORE PUSH1 0x20 ADD PUSH0 KECCAK256 PUSH0 ADD PUSH0 DUP4 PUSH20 0xFFFFFFFFFFFFFFFFFFFFFFFFFFFFFFFFFFFFFFFF AND PUSH20 0xFFFFFFFFFFFFFFFFFFFFFFFFFFFFFFFFFFFFFFFF AND DUP2 MSTORE PUSH1 0x20 ADD SWAP1 DUP2 MSTORE PUSH1 0x20 ADD PUSH0 KECCAK256 PUSH0 SWAP1 SLOAD SWAP1 PUSH2 0x100 EXP SWAP1 DIV PUSH1 0xFF AND SWAP1 POP SWAP3 SWAP2 POP POP JUMP JUMPDEST PUSH0 CALLER SWAP1 POP SWAP1 JUMP JUMPDEST PUSH2 0x54C0 DUP1 PUSH3 0x42DF DUP4 CODECOPY ADD SWAP1 JUMP JUMPDEST PUSH2 0x5271 DUP1 PUSH3 0x979F DUP4 CODECOPY ADD SWAP1 JUMP JUMPDEST PUSH2 0x82A3 DUP1 PUSH3 0xEA10 DUP4 CODECOPY ADD SWAP1 JUMP JUMPDEST PUSH2 0x4808 DUP1 PUSH3 0x16CB3 DUP4 CODECOPY ADD SWAP1 JUMP JUMPDEST PUSH0 PUSH1 0x40 MLOAD SWAP1 POP SWAP1 JUMP JUMPDEST PUSH0 PUSH0 REVERT JUMPDEST PUSH0 PUSH0 REVERT JUMPDEST PUSH0 PUSH0 REVERT JUMPDEST PUSH0 PUSH0 REVERT JUMPDEST PUSH0 PUSH1 0x1F NOT PUSH1 0x1F DUP4 ADD AND SWAP1 POP SWAP2 SWAP1 POP JUMP JUMPDEST PUSH32 0x4E487B7100000000000000000000000000000000000000000000000000000000 PUSH0 MSTORE PUSH1 0x41 PUSH1 0x4 MSTORE PUSH1 0x24 PUSH0 REVERT JUMPDEST PUSH2 0x74C DUP3 PUSH2 0x706 JUMP JUMPDEST DUP2 ADD DUP2 DUP2 LT PUSH8 0xFFFFFFFFFFFFFFFF DUP3 GT OR ISZERO PUSH2 0x76B JUMPI PUSH2 0x76A PUSH2 0x716 JUMP JUMPDEST JUMPDEST DUP1 PUSH1 0x40 MSTORE POP POP POP JUMP JUMPDEST PUSH0 PUSH2 0x77D PUSH2 0x6ED JUMP JUMPDEST SWAP1 POP PUSH2 0x789 DUP3 DUP3 PUSH2 0x743 JUMP JUMPDEST SWAP2 SWAP1 POP JUMP JUMPDEST PUSH0 PUSH8 0xFFFFFFFFFFFFFFFF DUP3 GT ISZERO PUSH2 0x7A8 JUMPI PUSH2 0x7A7 PUSH2 0x716 JUMP JUMPDEST JUMPDEST PUSH2 0x7B1 DUP3 PUSH2 0x706 JUMP JUMPDEST SWAP1 POP PUSH1 0x20 DUP2 ADD SWAP1 POP SWAP2 SWAP1 POP JUMP JUMPDEST DUP3 DUP2 DUP4 MCOPY PUSH0 DUP4 DUP4 ADD MSTORE POP POP POP JUMP JUMPDEST PUSH0 PUSH2 0x7DE PUSH2 0x7D9 DUP5 PUSH2 0x78E JUMP JUMPDEST PUSH2 0x774 JUMP JUMPDEST SWAP1 POP DUP3 DUP2 MSTORE PUSH1 0x20 DUP2 ADD DUP5 DUP5 DUP5 ADD GT ISZERO PUSH2 0x7FA JUMPI PUSH2 0x7F9 PUSH2 0x702 JUMP JUMPDEST JUMPDEST PUSH2 0x805 DUP5 DUP3 DUP6 PUSH2 0x7BE JUMP JUMPDEST POP SWAP4 SWAP3 POP POP POP JUMP JUMPDEST PUSH0 DUP3 PUSH1 0x1F DUP4 ADD SLT PUSH2 0x821 JUMPI PUSH2 0x820 PUSH2 0x6FE JUMP JUMPDEST JUMPDEST DUP2 MLOAD PUSH2 0x831 DUP5 DUP3 PUSH1 0x20 DUP7 ADD PUSH2 0x7CC JUMP JUMPDEST SWAP2 POP POP SWAP3 SWAP2 POP POP JUMP JUMPDEST PUSH0 PUSH20 0xFFFFFFFFFFFFFFFFFFFFFFFFFFFFFFFFFFFFFFFF DUP3 AND SWAP1 POP SWAP2 SWAP1 POP JUMP JUMPDEST PUSH0 PUSH2 0x863 DUP3 PUSH2 0x83A JUMP JUMPDEST SWAP1 POP SWAP2 SWAP1 POP JUMP JUMPDEST PUSH2 0x873 DUP2 PUSH2 0x859 JUMP JUMPDEST DUP2 EQ PUSH2 0x87D JUMPI PUSH0 PUSH0 REVERT JUMPDEST POP JUMP JUMPDEST PUSH0 DUP2 MLOAD SWAP1 POP PUSH2 0x88E DUP2 PUSH2 0x86A JUMP JUMPDEST SWAP3 SWAP2 POP POP JUMP JUMPDEST PUSH0 PUSH8 0xFFFFFFFFFFFFFFFF DUP3 GT ISZERO PUSH2 0x8AE JUMPI PUSH2 0x8AD PUSH2 0x716 JUMP JUMPDEST JUMPDEST PUSH1 0x20 DUP3 MUL SWAP1 POP PUSH1 0x20 DUP2 ADD SWAP1 POP SWAP2 SWAP1 POP JUMP JUMPDEST PUSH0 PUSH0 REVERT JUMPDEST PUSH0 PUSH2 0x8D5 PUSH2 0x8D0 DUP5 PUSH2 0x894 JUMP JUMPDEST PUSH2 0x774 JUMP JUMPDEST SWAP1 POP DUP1 DUP4 DUP3 MSTORE PUSH1 0x20 DUP3 ADD SWAP1 POP PUSH1 0x20 DUP5 MUL DUP4 ADD DUP6 DUP2 GT ISZERO PUSH2 0x8F8 JUMPI PUSH2 0x8F7 PUSH2 0x8BF JUMP JUMPDEST JUMPDEST DUP4 JUMPDEST DUP2 DUP2 LT ISZERO PUSH2 0x921 JUMPI DUP1 PUSH2 0x90D DUP9 DUP3 PUSH2 0x880 JUMP JUMPDEST DUP5 MSTORE PUSH1 0x20 DUP5 ADD SWAP4 POP POP PUSH1 0x20 DUP2 ADD SWAP1 POP PUSH2 0x8FA JUMP JUMPDEST POP POP POP SWAP4 SWAP3 POP POP POP JUMP JUMPDEST PUSH0 DUP3 PUSH1 0x1F DUP4 ADD SLT PUSH2 0x93F JUMPI PUSH2 0x93E PUSH2 0x6FE JUMP JUMPDEST JUMPDEST DUP2 MLOAD PUSH2 0x94F DUP5 DUP3 PUSH1 0x20 DUP7 ADD PUSH2 0x8C3 JUMP JUMPDEST SWAP2 POP POP SWAP3 SWAP2 POP POP JUMP JUMPDEST PUSH0 PUSH0 PUSH0 PUSH0 PUSH1 0x80 DUP6 DUP8 SUB SLT ISZERO PUSH2 0x970 JUMPI PUSH2 0x96F PUSH2 0x6F6 JUMP JUMPDEST JUMPDEST PUSH0 DUP6 ADD MLOAD PUSH8 0xFFFFFFFFFFFFFFFF DUP2 GT ISZERO PUSH2 0x98D JUMPI PUSH2 0x98C PUSH2 0x6FA JUMP JUMPDEST JUMPDEST PUSH2 0x999 DUP8 DUP3 DUP9 ADD PUSH2 0x80D JUMP JUMPDEST SWAP5 POP POP PUSH1 0x20 PUSH2 0x9AA DUP8 DUP3 DUP9 ADD PUSH2 0x880 JUMP JUMPDEST SWAP4 POP POP PUSH1 0x40 DUP6 ADD MLOAD PUSH8 0xFFFFFFFFFFFFFFFF DUP2 GT ISZERO PUSH2 0x9CB JUMPI PUSH2 0x9CA PUSH2 0x6FA JUMP JUMPDEST JUMPDEST PUSH2 0x9D7 DUP8 DUP3 DUP9 ADD PUSH2 0x92B JUMP JUMPDEST SWAP3 POP POP PUSH1 0x60 DUP6 ADD MLOAD PUSH8 0xFFFFFFFFFFFFFFFF DUP2 GT ISZERO PUSH2 0x9F8 JUMPI PUSH2 0x9F7 PUSH2 0x6FA JUMP JUMPDEST JUMPDEST PUSH2 0xA04 DUP8 DUP3 DUP9 ADD PUSH2 0x92B JUMP JUMPDEST SWAP2 POP POP SWAP3 SWAP6 SWAP2 SWAP5 POP SWAP3 POP JUMP JUMPDEST PUSH0 DUP3 DUP3 MSTORE PUSH1 0x20 DUP3 ADD SWAP1 POP SWAP3 SWAP2 POP POP JUMP JUMPDEST PUSH32 0x436F6D70616E79206E616D652072657175697265640000000000000000000000 PUSH0 DUP3 ADD MSTORE POP JUMP JUMPDEST PUSH0 PUSH2 0xA54 PUSH1 0x15 DUP4 PUSH2 0xA10 JUMP JUMPDEST SWAP2 POP PUSH2 0xA5F DUP3 PUSH2 0xA20 JUMP JUMPDEST PUSH1 0x20 DUP3 ADD SWAP1 POP SWAP2 SWAP1 POP JUMP JUMPDEST PUSH0 PUSH1 0x20 DUP3 ADD SWAP1 POP DUP2 DUP2 SUB PUSH0 DUP4 ADD MSTORE PUSH2 0xA81 DUP2 PUSH2 0xA48 JUMP JUMPDEST SWAP1 POP SWAP2 SWAP1 POP JUMP JUMPDEST PUSH0 DUP2 MLOAD SWAP1 POP SWAP2 SWAP1 POP JUMP JUMPDEST PUSH32 0x4E487B7100000000000000000000000000000000000000000000000000000000 PUSH0 MSTORE PUSH1 0x22 PUSH1 0x4 MSTORE PUSH1 0x24 PUSH0 REVERT JUMPDEST PUSH0 PUSH1 0x2 DUP3 DIV SWAP1 POP PUSH1 0x1 DUP3 AND DUP1 PUSH2 0xAD6 JUMPI PUSH1 0x7F DUP3 AND SWAP2 POP JUMPDEST PUSH1 0x20 DUP3 LT DUP2 SUB PUSH2 0xAE9 JUMPI PUSH2 0xAE8 PUSH2 0xA92 JUMP JUMPDEST JUMPDEST POP SWAP2 SWAP1 POP JUMP JUMPDEST PUSH0 DUP2 SWAP1 POP DUP2 PUSH0 MSTORE PUSH1 0x20 PUSH0 KECCAK256 SWAP1 POP SWAP2 SWAP1 POP JUMP JUMPDEST PUSH0 PUSH1 0x20 PUSH1 0x1F DUP4 ADD DIV SWAP1 POP SWAP2 SWAP1 POP JUMP JUMPDEST PUSH0 DUP3 DUP3 SHL SWAP1 POP SWAP3 SWAP2 POP POP JUMP JUMPDEST PUSH0 PUSH1 0x8 DUP4 MUL PUSH2 0xB4B PUSH32 0xFFFFFFFFFFFFFFFFFFFFFFFFFFFFFFFFFFFFFFFFFFFFFFFFFFFFFFFFFFFFFFFF DUP3 PUSH2 0xB10 JUMP JUMPDEST PUSH2 0xB55 DUP7 DUP4 PUSH2 0xB10 JUMP JUMPDEST SWAP6 POP DUP1 NOT DUP5 AND SWAP4 POP DUP1 DUP7 AND DUP5 OR SWAP3 POP POP POP SWAP4 SWAP3 POP POP POP JUMP JUMPDEST PUSH0 DUP2 SWAP1 POP SWAP2 SWAP1 POP JUMP JUMPDEST PUSH0 DUP2 SWAP1 POP SWAP2 SWAP1 POP JUMP JUMPDEST PUSH0 PUSH2 0xB99 PUSH2 0xB94 PUSH2 0xB8F DUP5 PUSH2 0xB6D JUMP JUMPDEST PUSH2 0xB76 JUMP JUMPDEST PUSH2 0xB6D JUMP JUMPDEST SWAP1 POP SWAP2 SWAP1 POP JUMP JUMPDEST PUSH0 DUP2 SWAP1 POP SWAP2 SWAP1 POP JUMP JUMPDEST PUSH2 0xBB2 DUP4 PUSH2 0xB7F JUMP JUMPDEST PUSH2 0xBC6 PUSH2 0xBBE DUP3 PUSH2 0xBA0 JUMP JUMPDEST DUP5 DUP5 SLOAD PUSH2 0xB1C JUMP JUMPDEST DUP3 SSTORE POP POP POP POP JUMP JUMPDEST PUSH0 PUSH0 SWAP1 POP SWAP1 JUMP JUMPDEST PUSH2 0xBDD PUSH2 0xBCE JUMP JUMPDEST PUSH2 0xBE8 DUP2 DUP5 DUP5 PUSH2 0xBA9 JUMP JUMPDEST POP POP POP JUMP JUMPDEST JUMPDEST DUP2 DUP2 LT ISZERO PUSH2 0xC0B JUMPI PUSH2 0xC00 PUSH0 DUP3 PUSH2 0xBD5 JUMP JUMPDEST PUSH1 0x1 DUP2 ADD SWAP1 POP PUSH2 0xBEE JUMP JUMPDEST POP POP JUMP JUMPDEST PUSH1 0x1F DUP3 GT ISZERO PUSH2 0xC50 JUMPI PUSH2 0xC21 DUP2 PUSH2 0xAEF JUMP JUMPDEST PUSH2 0xC2A DUP5 PUSH2 0xB01 JUMP JUMPDEST DUP2 ADD PUSH1 0x20 DUP6 LT ISZERO PUSH2 0xC39 JUMPI DUP2 SWAP1 POP JUMPDEST PUSH2 0xC4D PUSH2 0xC45 DUP6 PUSH2 0xB01 JUMP JUMPDEST DUP4 ADD DUP3 PUSH2 0xBED JUMP JUMPDEST POP POP JUMPDEST POP POP POP JUMP JUMPDEST PUSH0 DUP3 DUP3 SHR SWAP1 POP SWAP3 SWAP2 POP POP JUMP JUMPDEST PUSH0 PUSH2 0xC70 PUSH0 NOT DUP5 PUSH1 0x8 MUL PUSH2 0xC55 JUMP JUMPDEST NOT DUP1 DUP4 AND SWAP2 POP POP SWAP3 SWAP2 POP POP JUMP JUMPDEST PUSH0 PUSH2 0xC88 DUP4 DUP4 PUSH2 0xC61 JUMP JUMPDEST SWAP2 POP DUP3 PUSH1 0x2 MUL DUP3 OR SWAP1 POP SWAP3 SWAP2 POP POP JUMP JUMPDEST PUSH2 0xCA1 DUP3 PUSH2 0xA88 JUMP JUMPDEST PUSH8 0xFFFFFFFFFFFFFFFF DUP2 GT ISZERO PUSH2 0xCBA JUMPI PUSH2 0xCB9 PUSH2 0x716 JUMP JUMPDEST JUMPDEST PUSH2 0xCC4 DUP3 SLOAD PUSH2 0xABF JUMP JUMPDEST PUSH2 0xCCF DUP3 DUP3 DUP6 PUSH2 0xC0F JUMP JUMPDEST PUSH0 PUSH1 0x20 SWAP1 POP PUSH1 0x1F DUP4 GT PUSH1 0x1 DUP2 EQ PUSH2 0xD00 JUMPI PUSH0 DUP5 ISZERO PUSH2 0xCEE JUMPI DUP3 DUP8 ADD MLOAD SWAP1 POP JUMPDEST PUSH2 0xCF8 DUP6 DUP3 PUSH2 0xC7D JUMP JUMPDEST DUP7 SSTORE POP PUSH2 0xD5F JUMP JUMPDEST PUSH1 0x1F NOT DUP5 AND PUSH2 0xD0E DUP7 PUSH2 0xAEF JUMP JUMPDEST PUSH0 JUMPDEST DUP3 DUP2 LT ISZERO PUSH2 0xD35 JUMPI DUP5 DUP10 ADD MLOAD DUP3 SSTORE PUSH1 0x1 DUP3 ADD SWAP2 POP PUSH1 0x20 DUP6 ADD SWAP5 POP PUSH1 0x20 DUP2 ADD SWAP1 POP PUSH2 0xD10 JUMP JUMPDEST DUP7 DUP4 LT ISZERO PUSH2 0xD52 JUMPI DUP5 DUP10 ADD MLOAD PUSH2 0xD4E PUSH1 0x1F DUP10 AND DUP3 PUSH2 0xC61 JUMP JUMPDEST DUP4 SSTORE POP JUMPDEST PUSH1 0x1 PUSH1 0x2 DUP9 MUL ADD DUP9 SSTORE POP POP POP JUMPDEST POP POP POP POP POP POP JUMP JUMPDEST PUSH32 0x4E487B7100000000000000000000000000000000000000000000000000000000 PUSH0 MSTORE PUSH1 0x32 PUSH1 0x4 MSTORE PUSH1 0x24 PUSH0 REVERT JUMPDEST PUSH2 0xD9D DUP2 PUSH2 0x859 JUMP JUMPDEST DUP3 MSTORE POP POP JUMP JUMPDEST PUSH0 PUSH1 0x20 DUP3 ADD SWAP1 POP PUSH2 0xDB6 PUSH0 DUP4 ADD DUP5 PUSH2 0xD94 JUMP JUMPDEST SWAP3 SWAP2 POP POP JUMP JUMPDEST PUSH0 DUP2 MLOAD SWAP1 POP SWAP2 SWAP1 POP JUMP JUMPDEST PUSH0 DUP3 DUP3 MSTORE PUSH1 0x20 DUP3 ADD SWAP1 POP SWAP3 SWAP2 POP POP JUMP JUMPDEST PUSH0 DUP2 SWAP1 POP PUSH1 0x20 DUP3 ADD SWAP1 POP SWAP2 SWAP1 POP JUMP JUMPDEST PUSH2 0xDEE DUP2 PUSH2 0x859 JUMP JUMPDEST DUP3 MSTORE POP POP JUMP JUMPDEST PUSH0 PUSH2 0xDFF DUP4 DUP4 PUSH2 0xDE5 JUMP JUMPDEST PUSH1 0x20 DUP4 ADD SWAP1 POP SWAP3 SWAP2 POP POP JUMP JUMPDEST PUSH0 PUSH1 0x20 DUP3 ADD SWAP1 POP SWAP2 SWAP1 POP JUMP JUMPDEST PUSH0 PUSH2 0xE21 DUP3 PUSH2 0xDBC JUMP JUMPDEST PUSH2 0xE2B DUP2 DUP6 PUSH2 0xDC6 JUMP JUMPDEST SWAP4 POP PUSH2 0xE36 DUP4 PUSH2 0xDD6 JUMP JUMPDEST DUP1 PUSH0 JUMPDEST DUP4 DUP2 LT ISZERO PUSH2 0xE66 JUMPI DUP2 MLOAD PUSH2 0xE4D DUP9 DUP3 PUSH2 0xDF4 JUMP JUMPDEST SWAP8 POP PUSH2 0xE58 DUP4 PUSH2 0xE0B JUMP JUMPDEST SWAP3 POP POP PUSH1 0x1 DUP2 ADD SWAP1 POP PUSH2 0xE39 JUMP JUMPDEST POP DUP6 SWAP4 POP POP POP POP SWAP3 SWAP2 POP POP JUMP JUMPDEST PUSH0 PUSH1 0x40 DUP3 ADD SWAP1 POP PUSH2 0xE86 PUSH0 DUP4 ADD DUP6 PUSH2 0xD94 JUMP JUMPDEST DUP2 DUP2 SUB PUSH1 0x20 DUP4 ADD MSTORE PUSH2 0xE98 DUP2 DUP5 PUSH2 0xE17 JUMP JUMPDEST SWAP1 POP SWAP4 SWAP3 POP POP POP JUMP JUMPDEST PUSH0 PUSH2 0xEAB DUP3 PUSH2 0x83A JUMP JUMPDEST SWAP1 POP SWAP2 SWAP1 POP JUMP JUMPDEST PUSH2 0xEBB DUP2 PUSH2 0xEA1 JUMP JUMPDEST DUP3 MSTORE POP POP JUMP JUMPDEST PUSH0 PUSH1 0x20 DUP3 ADD SWAP1 POP PUSH2 0xED4 PUSH0 DUP4 ADD DUP5 PUSH2 0xEB2 JUMP JUMPDEST SWAP3 SWAP2 POP POP JUMP JUMPDEST PUSH0 PUSH2 0xEE4 DUP3 PUSH2 0xA88 JUMP JUMPDEST PUSH2 0xEEE DUP2 DUP6 PUSH2 0xA10 JUMP JUMPDEST SWAP4 POP PUSH2 0xEFE DUP2 DUP6 PUSH1 0x20 DUP7 ADD PUSH2 0x7BE JUMP JUMPDEST PUSH2 0xF07 DUP2 PUSH2 0x706 JUMP JUMPDEST DUP5 ADD SWAP2 POP POP SWAP3 SWAP2 POP POP JUMP JUMPDEST PUSH2 0xF1B DUP2 PUSH2 0xB6D JUMP JUMPDEST DUP3 MSTORE POP POP JUMP JUMPDEST PUSH0 PUSH1 0x40 DUP3 ADD SWAP1 POP DUP2 DUP2 SUB PUSH0 DUP4 ADD MSTORE PUSH2 0xF39 DUP2 DUP6 PUSH2 0xEDA JUMP JUMPDEST SWAP1 POP PUSH2 0xF48 PUSH1 0x20 DUP4 ADD DUP5 PUSH2 0xF12 JUMP JUMPDEST SWAP4 SWAP3 POP POP POP JUMP JUMPDEST PUSH1 0x80 MLOAD PUSH2 0x3370 PUSH3 0xF6F PUSH0 CODECOPY PUSH0 DUP2 DUP2 PUSH2 0xDCF ADD MSTORE PUSH2 0x185C ADD MSTORE PUSH2 0x3370 PUSH0 RETURN INVALID PUSH1 0x80 PUSH1 0x40 MSTORE PUSH1 0x4 CALLDATASIZE LT PUSH2 0x1DB JUMPI PUSH0 CALLDATALOAD PUSH1 0xE0 SHR DUP1 PUSH4 0x91D14854 GT PUSH2 0x101 JUMPI DUP1 PUSH4 0xECDA10F5 GT PUSH2 0x94 JUMPI DUP1 PUSH4 0xF3C6A198 GT PUSH2 0x63 JUMPI DUP1 PUSH4 0xF3C6A198 EQ PUSH2 0x6B6 JUMPI DUP1 PUSH4 0xF5EC2EED EQ PUSH2 0x6E0 JUMPI DUP1 PUSH4 0xF60D1FB1 EQ PUSH2 0x70A JUMPI DUP1 PUSH4 0xF649EC87 EQ PUSH2 0x732 JUMPI PUSH2 0x268 JUMP JUMPDEST DUP1 PUSH4 0xECDA10F5 EQ PUSH2 0x612 JUMPI DUP1 PUSH4 0xF1C6BDF8 EQ PUSH2 0x63C JUMPI DUP1 PUSH4 0xF1CEFF33 EQ PUSH2 0x666 JUMPI DUP1 PUSH4 0xF3B3444B EQ PUSH2 0x68E JUMPI PUSH2 0x268 JUMP JUMPDEST DUP1 PUSH4 0xBC4B3365 GT PUSH2 0xD0 JUMPI DUP1 PUSH4 0xBC4B3365 EQ PUSH2 0x57E JUMPI DUP1 PUSH4 0xD547741F EQ PUSH2 0x59A JUMPI DUP1 PUSH4 0xE2D82B45 EQ PUSH2 0x5C2 JUMPI DUP1 PUSH4 0xE63EA408 EQ PUSH2 0x5EA JUMPI PUSH2 0x268 JUMP JUMPDEST DUP1 PUSH4 0x91D14854 EQ PUSH2 0x4DA JUMPI DUP1 PUSH4 0xA217FDDF EQ PUSH2 0x516 JUMPI DUP1 PUSH4 0xA4C1FD08 EQ PUSH2 0x540 JUMPI DUP1 PUSH4 0xABFDF199 EQ PUSH2 0x556 JUMPI PUSH2 0x268 JUMP JUMPDEST DUP1 PUSH4 0x349B5954 GT PUSH2 0x179 JUMPI DUP1 PUSH4 0x50C1D19D GT PUSH2 0x148 JUMPI DUP1 PUSH4 0x50C1D19D EQ PUSH2 0x442 JUMPI DUP1 PUSH4 0x51858E27 EQ PUSH2 0x470 JUMPI DUP1 PUSH4 0x5C975ABB EQ PUSH2 0x486 JUMPI DUP1 PUSH4 0x75B238FC EQ PUSH2 0x4B0 JUMPI PUSH2 0x268 JUMP JUMPDEST DUP1 PUSH4 0x349B5954 EQ PUSH2 0x3B2 JUMPI DUP1 PUSH4 0x36568ABE EQ PUSH2 0x3DC JUMPI DUP1 PUSH4 0x41575BC3 EQ PUSH2 0x404 JUMPI DUP1 PUSH4 0x4A4E3BD5 EQ PUSH2 0x42C JUMPI PUSH2 0x268 JUMP JUMPDEST DUP1 PUSH4 0x248A9CA3 GT PUSH2 0x1B5 JUMPI DUP1 PUSH4 0x248A9CA3 EQ PUSH2 0x2FA JUMPI DUP1 PUSH4 0x2A4CAB90 EQ PUSH2 0x336 JUMPI DUP1 PUSH4 0x2A709B14 EQ PUSH2 0x360 JUMPI DUP1 PUSH4 0x2F2FF15D EQ PUSH2 0x38A JUMPI PUSH2 0x268 JUMP JUMPDEST DUP1 PUSH4 0x1FFC9A7 EQ PUSH2 0x26C JUMPI DUP1 PUSH4 0x921224B EQ PUSH2 0x2A8 JUMPI DUP1 PUSH4 0x18AAA219 EQ PUSH2 0x2D2 JUMPI PUSH2 0x268 JUMP JUMPDEST CALLDATASIZE PUSH2 0x268 JUMPI PUSH1 0x5 PUSH0 SWAP1 SLOAD SWAP1 PUSH2 0x100 EXP SWAP1 DIV PUSH20 0xFFFFFFFFFFFFFFFFFFFFFFFFFFFFFFFFFFFFFFFF AND PUSH20 0xFFFFFFFFFFFFFFFFFFFFFFFFFFFFFFFFFFFFFFFF AND PUSH4 0xBC4B3365 CALLVALUE PUSH0 CALLVALUE PUSH1 0x40 MLOAD DUP5 PUSH4 0xFFFFFFFF AND PUSH1 0xE0 SHL DUP2 MSTORE PUSH1 0x4 ADD PUSH2 0x23D SWAP3 SWAP2 SWAP1 PUSH2 0x227C JUMP JUMPDEST PUSH0 PUSH1 0x40 MLOAD DUP1 DUP4 SUB DUP2 DUP6 DUP9 DUP1 EXTCODESIZE ISZERO DUP1 ISZERO PUSH2 0x254 JUMPI PUSH0 PUSH0 REVERT JUMPDEST POP GAS CALL ISZERO DUP1 ISZERO PUSH2 0x266 JUMPI RETURNDATASIZE PUSH0 PUSH0 RETURNDATACOPY RETURNDATASIZE PUSH0 REVERT JUMPDEST STOP JUMPDEST PUSH0 PUSH0 REVERT JUMPDEST CALLVALUE DUP1 ISZERO PUSH2 0x277 JUMPI PUSH0 PUSH0 REVERT JUMPDEST POP PUSH2 0x292 PUSH1 0x4 DUP1 CALLDATASIZE SUB DUP2 ADD SWAP1 PUSH2 0x28D SWAP2 SWAP1 PUSH2 0x22FC JUMP JUMPDEST PUSH2 0x75C JUMP JUMPDEST PUSH1 0x40 MLOAD PUSH2 0x29F SWAP2 SWAP1 PUSH2 0x2341 JUMP JUMPDEST PUSH1 0x40 MLOAD DUP1 SWAP2 SUB SWAP1 RETURN JUMPDEST CALLVALUE DUP1 ISZERO PUSH2 0x2B3 JUMPI PUSH0 PUSH0 REVERT JUMPDEST POP PUSH2 0x2BC PUSH2 0x7D5 JUMP JUMPDEST PUSH1 0x40 MLOAD PUSH2 0x2C9 SWAP2 SWAP1 PUSH2 0x23B5 JUMP JUMPDEST PUSH1 0x40 MLOAD DUP1 SWAP2 SUB SWAP1 RETURN JUMPDEST CALLVALUE DUP1 ISZERO PUSH2 0x2DD JUMPI PUSH0 PUSH0 REVERT JUMPDEST POP PUSH2 0x2F8 PUSH1 0x4 DUP1 CALLDATASIZE SUB DUP2 ADD SWAP1 PUSH2 0x2F3 SWAP2 SWAP1 PUSH2 0x23F8 JUMP JUMPDEST PUSH2 0x7FA JUMP JUMPDEST STOP JUMPDEST CALLVALUE DUP1 ISZERO PUSH2 0x305 JUMPI PUSH0 PUSH0 REVERT JUMPDEST POP PUSH2 0x320 PUSH1 0x4 DUP1 CALLDATASIZE SUB DUP2 ADD SWAP1 PUSH2 0x31B SWAP2 SWAP1 PUSH2 0x2456 JUMP JUMPDEST PUSH2 0x8FC JUMP JUMPDEST PUSH1 0x40 MLOAD PUSH2 0x32D SWAP2 SWAP1 PUSH2 0x2490 JUMP JUMPDEST PUSH1 0x40 MLOAD DUP1 SWAP2 SUB SWAP1 RETURN JUMPDEST CALLVALUE DUP1 ISZERO PUSH2 0x341 JUMPI PUSH0 PUSH0 REVERT JUMPDEST POP PUSH2 0x34A PUSH2 0x918 JUMP JUMPDEST PUSH1 0x40 MLOAD PUSH2 0x357 SWAP2 SWAP1 PUSH2 0x2490 JUMP JUMPDEST PUSH1 0x40 MLOAD DUP1 SWAP2 SUB SWAP1 RETURN JUMPDEST CALLVALUE DUP1 ISZERO PUSH2 0x36B JUMPI PUSH0 PUSH0 REVERT JUMPDEST POP PUSH2 0x374 PUSH2 0x93C JUMP JUMPDEST PUSH1 0x40 MLOAD PUSH2 0x381 SWAP2 SWAP1 PUSH2 0x24DA JUMP JUMPDEST PUSH1 0x40 MLOAD DUP1 SWAP2 SUB SWAP1 RETURN JUMPDEST CALLVALUE DUP1 ISZERO PUSH2 0x395 JUMPI PUSH0 PUSH0 REVERT JUMPDEST POP PUSH2 0x3B0 PUSH1 0x4 DUP1 CALLDATASIZE SUB DUP2 ADD SWAP1 PUSH2 0x3AB SWAP2 SWAP1 PUSH2 0x24F3 JUMP JUMPDEST PUSH2 0x961 JUMP JUMPDEST STOP JUMPDEST CALLVALUE DUP1 ISZERO PUSH2 0x3BD JUMPI PUSH0 PUSH0 REVERT JUMPDEST POP PUSH2 0x3C6 PUSH2 0x983 JUMP JUMPDEST PUSH1 0x40 MLOAD PUSH2 0x3D3 SWAP2 SWAP1 PUSH2 0x2490 JUMP JUMPDEST PUSH1 0x40 MLOAD DUP1 SWAP2 SUB SWAP1 RETURN JUMPDEST CALLVALUE DUP1 ISZERO PUSH2 0x3E7 JUMPI PUSH0 PUSH0 REVERT JUMPDEST POP PUSH2 0x402 PUSH1 0x4 DUP1 CALLDATASIZE SUB DUP2 ADD SWAP1 PUSH2 0x3FD SWAP2 SWAP1 PUSH2 0x24F3 JUMP JUMPDEST PUSH2 0x9A7 JUMP JUMPDEST STOP JUMPDEST CALLVALUE DUP1 ISZERO PUSH2 0x40F JUMPI PUSH0 PUSH0 REVERT JUMPDEST POP PUSH2 0x42A PUSH1 0x4 DUP1 CALLDATASIZE SUB DUP2 ADD SWAP1 PUSH2 0x425 SWAP2 SWAP1 PUSH2 0x256C JUMP JUMPDEST PUSH2 0xA22 JUMP JUMPDEST STOP JUMPDEST CALLVALUE DUP1 ISZERO PUSH2 0x437 JUMPI PUSH0 PUSH0 REVERT JUMPDEST POP PUSH2 0x440 PUSH2 0xB76 JUMP JUMPDEST STOP JUMPDEST CALLVALUE DUP1 ISZERO PUSH2 0x44D JUMPI PUSH0 PUSH0 REVERT JUMPDEST POP PUSH2 0x456 PUSH2 0xCA1 JUMP JUMPDEST PUSH1 0x40 MLOAD PUSH2 0x467 SWAP6 SWAP5 SWAP4 SWAP3 SWAP2 SWAP1 PUSH2 0x2607 JUMP JUMPDEST PUSH1 0x40 MLOAD DUP1 SWAP2 SUB SWAP1 RETURN JUMPDEST CALLVALUE DUP1 ISZERO PUSH2 0x47B JUMPI PUSH0 PUSH0 REVERT JUMPDEST POP PUSH2 0x484 PUSH2 0xE89 JUMP JUMPDEST STOP JUMPDEST CALLVALUE DUP1 ISZERO PUSH2 0x491 JUMPI PUSH0 PUSH0 REVERT JUMPDEST POP PUSH2 0x49A PUSH2 0xFB4 JUMP JUMPDEST PUSH1 0x40 MLOAD PUSH2 0x4A7 SWAP2 SWAP1 PUSH2 0x2341 JUMP JUMPDEST PUSH1 0x40 MLOAD DUP1 SWAP2 SUB SWAP1 RETURN JUMPDEST CALLVALUE DUP1 ISZERO PUSH2 0x4BB JUMPI PUSH0 PUSH0 REVERT JUMPDEST POP PUSH2 0x4C4 PUSH2 0xFC9 JUMP JUMPDEST PUSH1 0x40 MLOAD PUSH2 0x4D1 SWAP2 SWAP1 PUSH2 0x2490 JUMP JUMPDEST PUSH1 0x40 MLOAD DUP1 SWAP2 SUB SWAP1 RETURN JUMPDEST CALLVALUE DUP1 ISZERO PUSH2 0x4E5 JUMPI PUSH0 PUSH0 REVERT JUMPDEST POP PUSH2 0x500 PUSH1 0x4 DUP1 CALLDATASIZE SUB DUP2 ADD SWAP1 PUSH2 0x4FB SWAP2 SWAP1 PUSH2 0x24F3 JUMP JUMPDEST PUSH2 0xFED JUMP JUMPDEST PUSH1 0x40 MLOAD PUSH2 0x50D SWAP2 SWAP1 PUSH2 0x2341 JUMP JUMPDEST PUSH1 0x40 MLOAD DUP1 SWAP2 SUB SWAP1 RETURN JUMPDEST CALLVALUE DUP1 ISZERO PUSH2 0x521 JUMPI PUSH0 PUSH0 REVERT JUMPDEST POP PUSH2 0x52A PUSH2 0x1050 JUMP JUMPDEST PUSH1 0x40 MLOAD PUSH2 0x537 SWAP2 SWAP1 PUSH2 0x2490 JUMP JUMPDEST PUSH1 0x40 MLOAD DUP1 SWAP2 SUB SWAP1 RETURN JUMPDEST CALLVALUE DUP1 ISZERO PUSH2 0x54B JUMPI PUSH0 PUSH0 REVERT JUMPDEST POP PUSH2 0x554 PUSH2 0x1056 JUMP JUMPDEST STOP JUMPDEST CALLVALUE DUP1 ISZERO PUSH2 0x561 JUMPI PUSH0 PUSH0 REVERT JUMPDEST POP PUSH2 0x57C PUSH1 0x4 DUP1 CALLDATASIZE SUB DUP2 ADD SWAP1 PUSH2 0x577 SWAP2 SWAP1 PUSH2 0x23F8 JUMP JUMPDEST PUSH2 0x1186 JUMP JUMPDEST STOP JUMPDEST PUSH2 0x598 PUSH1 0x4 DUP1 CALLDATASIZE SUB DUP2 ADD SWAP1 PUSH2 0x593 SWAP2 SWAP1 PUSH2 0x2689 JUMP JUMPDEST PUSH2 0x12DA JUMP JUMPDEST STOP JUMPDEST CALLVALUE DUP1 ISZERO PUSH2 0x5A5 JUMPI PUSH0 PUSH0 REVERT JUMPDEST POP PUSH2 0x5C0 PUSH1 0x4 DUP1 CALLDATASIZE SUB DUP2 ADD SWAP1 PUSH2 0x5BB SWAP2 SWAP1 PUSH2 0x24F3 JUMP JUMPDEST PUSH2 0x140B JUMP JUMPDEST STOP JUMPDEST CALLVALUE DUP1 ISZERO PUSH2 0x5CD JUMPI PUSH0 PUSH0 REVERT JUMPDEST POP PUSH2 0x5E8 PUSH1 0x4 DUP1 CALLDATASIZE SUB DUP2 ADD SWAP1 PUSH2 0x5E3 SWAP2 SWAP1 PUSH2 0x26EA JUMP JUMPDEST PUSH2 0x142D JUMP JUMPDEST STOP JUMPDEST CALLVALUE DUP1 ISZERO PUSH2 0x5F5 JUMPI PUSH0 PUSH0 REVERT JUMPDEST POP PUSH2 0x610 PUSH1 0x4 DUP1 CALLDATASIZE SUB DUP2 ADD SWAP1 PUSH2 0x60B SWAP2 SWAP1 PUSH2 0x274E JUMP JUMPDEST PUSH2 0x161B JUMP JUMPDEST STOP JUMPDEST CALLVALUE DUP1 ISZERO PUSH2 0x61D JUMPI PUSH0 PUSH0 REVERT JUMPDEST POP PUSH2 0x626 PUSH2 0x185A JUMP JUMPDEST PUSH1 0x40 MLOAD PUSH2 0x633 SWAP2 SWAP1 PUSH2 0x279E JUMP JUMPDEST PUSH1 0x40 MLOAD DUP1 SWAP2 SUB SWAP1 RETURN JUMPDEST CALLVALUE DUP1 ISZERO PUSH2 0x647 JUMPI PUSH0 PUSH0 REVERT JUMPDEST POP PUSH2 0x650 PUSH2 0x187E JUMP JUMPDEST PUSH1 0x40 MLOAD PUSH2 0x65D SWAP2 SWAP1 PUSH2 0x27D7 JUMP JUMPDEST PUSH1 0x40 MLOAD DUP1 SWAP2 SUB SWAP1 RETURN JUMPDEST CALLVALUE DUP1 ISZERO PUSH2 0x671 JUMPI PUSH0 PUSH0 REVERT JUMPDEST POP PUSH2 0x68C PUSH1 0x4 DUP1 CALLDATASIZE SUB DUP2 ADD SWAP1 PUSH2 0x687 SWAP2 SWAP1 PUSH2 0x23F8 JUMP JUMPDEST PUSH2 0x18A3 JUMP JUMPDEST STOP JUMPDEST CALLVALUE DUP1 ISZERO PUSH2 0x699 JUMPI PUSH0 PUSH0 REVERT JUMPDEST POP PUSH2 0x6B4 PUSH1 0x4 DUP1 CALLDATASIZE SUB DUP2 ADD SWAP1 PUSH2 0x6AF SWAP2 SWAP1 PUSH2 0x23F8 JUMP JUMPDEST PUSH2 0x19A5 JUMP JUMPDEST STOP JUMPDEST CALLVALUE DUP1 ISZERO PUSH2 0x6C1 JUMPI PUSH0 PUSH0 REVERT JUMPDEST POP PUSH2 0x6CA PUSH2 0x1B16 JUMP JUMPDEST PUSH1 0x40 MLOAD PUSH2 0x6D7 SWAP2 SWAP1 PUSH2 0x2490 JUMP JUMPDEST PUSH1 0x40 MLOAD DUP1 SWAP2 SUB SWAP1 RETURN JUMPDEST CALLVALUE DUP1 ISZERO PUSH2 0x6EB JUMPI PUSH0 PUSH0 REVERT JUMPDEST POP PUSH2 0x6F4 PUSH2 0x1B3A JUMP JUMPDEST PUSH1 0x40 MLOAD PUSH2 0x701 SWAP2 SWAP1 PUSH2 0x27F0 JUMP JUMPDEST PUSH1 0x40 MLOAD DUP1 SWAP2 SUB SWAP1 RETURN JUMPDEST CALLVALUE DUP1 ISZERO PUSH2 0x715 JUMPI PUSH0 PUSH0 REVERT JUMPDEST POP PUSH2 0x730 PUSH1 0x4 DUP1 CALLDATASIZE SUB DUP2 ADD SWAP1 PUSH2 0x72B SWAP2 SWAP1 PUSH2 0x23F8 JUMP JUMPDEST PUSH2 0x1BC6 JUMP JUMPDEST STOP JUMPDEST CALLVALUE DUP1 ISZERO PUSH2 0x73D JUMPI PUSH0 PUSH0 REVERT JUMPDEST POP PUSH2 0x746 PUSH2 0x1C93 JUMP JUMPDEST PUSH1 0x40 MLOAD PUSH2 0x753 SWAP2 SWAP1 PUSH2 0x2830 JUMP JUMPDEST PUSH1 0x40 MLOAD DUP1 SWAP2 SUB SWAP1 RETURN JUMPDEST PUSH0 PUSH32 0x7965DB0B00000000000000000000000000000000000000000000000000000000 PUSH28 0xFFFFFFFFFFFFFFFFFFFFFFFFFFFFFFFFFFFFFFFFFFFFFFFFFFFFFFFF NOT AND DUP3 PUSH28 0xFFFFFFFFFFFFFFFFFFFFFFFFFFFFFFFFFFFFFFFFFFFFFFFFFFFFFFFF NOT AND EQ DUP1 PUSH2 0x7CE JUMPI POP PUSH2 0x7CD DUP3 PUSH2 0x1CB8 JUMP JUMPDEST JUMPDEST SWAP1 POP SWAP2 SWAP1 POP JUMP JUMPDEST PUSH1 0x7 PUSH0 SWAP1 SLOAD SWAP1 PUSH2 0x100 EXP SWAP1 DIV PUSH20 0xFFFFFFFFFFFFFFFFFFFFFFFFFFFFFFFFFFFFFFFF AND DUP2 JUMP JUMPDEST PUSH32 0xA49807205CE4D355092EF5A8A18F56E8913CF4A201FBE287825B095693C21775 PUSH2 0x824 DUP2 PUSH2 0x1D21 JUMP JUMPDEST PUSH2 0x84E PUSH32 0xFD70517941C75212B0F9013E45C47A37D6D983C5304288C7AF285F2EA40CBBA7 DUP4 PUSH2 0x961 JUMP JUMPDEST PUSH1 0x7 PUSH0 SWAP1 SLOAD SWAP1 PUSH2 0x100 EXP SWAP1 DIV PUSH20 0xFFFFFFFFFFFFFFFFFFFFFFFFFFFFFFFFFFFFFFFF AND PUSH20 0xFFFFFFFFFFFFFFFFFFFFFFFFFFFFFFFFFFFFFFFF AND PUSH4 0x44C83B97 CALLER DUP5 TIMESTAMP PUSH1 0x40 MLOAD PUSH1 0x20 ADD PUSH2 0x89F SWAP3 SWAP2 SWAP1 PUSH2 0x227C JUMP JUMPDEST PUSH1 0x40 MLOAD PUSH1 0x20 DUP2 DUP4 SUB SUB DUP2 MSTORE SWAP1 PUSH1 0x40 MSTORE PUSH1 0x40 MLOAD DUP4 PUSH4 0xFFFFFFFF AND PUSH1 0xE0 SHL DUP2 MSTORE PUSH1 0x4 ADD PUSH2 0x8CB SWAP3 SWAP2 SWAP1 PUSH2 0x28E5 JUMP JUMPDEST PUSH0 PUSH1 0x40 MLOAD DUP1 DUP4 SUB DUP2 PUSH0 DUP8 DUP1 EXTCODESIZE ISZERO DUP1 ISZERO PUSH2 0x8E2 JUMPI PUSH0 PUSH0 REVERT JUMPDEST POP GAS CALL ISZERO DUP1 ISZERO PUSH2 0x8F4 JUMPI RETURNDATASIZE PUSH0 PUSH0 RETURNDATACOPY RETURNDATASIZE PUSH0 REVERT JUMPDEST POP POP POP POP POP POP JUMP JUMPDEST PUSH0 PUSH0 PUSH0 DUP4 DUP2 MSTORE PUSH1 0x20 ADD SWAP1 DUP2 MSTORE PUSH1 0x20 ADD PUSH0 KECCAK256 PUSH1 0x1 ADD SLOAD SWAP1 POP SWAP2 SWAP1 POP JUMP JUMPDEST PUSH32 0x5A3425EA67E73C95853ECFC0C443062DE292A303C186BC2AAC1178AE1B86C62A DUP2 JUMP JUMPDEST PUSH1 0x5 PUSH0 SWAP1 SLOAD SWAP1 PUSH2 0x100 EXP SWAP1 DIV PUSH20 0xFFFFFFFFFFFFFFFFFFFFFFFFFFFFFFFFFFFFFFFF AND DUP2 JUMP JUMPDEST PUSH2 0x96A DUP3 PUSH2 0x8FC JUMP JUMPDEST PUSH2 0x973 DUP2 PUSH2 0x1D21 JUMP JUMPDEST PUSH2 0x97D DUP4 DUP4 PUSH2 0x1D35 JUMP JUMPDEST POP POP POP POP JUMP JUMPDEST PUSH32 0x940D6B1946FF1D2B5A9F1909219C3C81A370804B5BA0F91EC0828C99A2E6A681 DUP2 JUMP JUMPDEST PUSH2 0x9AF PUSH2 0x1E1E JUMP JUMPDEST PUSH20 0xFFFFFFFFFFFFFFFFFFFFFFFFFFFFFFFFFFFFFFFF AND DUP2 PUSH20 0xFFFFFFFFFFFFFFFFFFFFFFFFFFFFFFFFFFFFFFFF AND EQ PUSH2 0xA13 JUMPI PUSH1 0x40 MLOAD PUSH32 0x6697B23200000000000000000000000000000000000000000000000000000000 DUP2 MSTORE PUSH1 0x4 ADD PUSH1 0x40 MLOAD DUP1 SWAP2 SUB SWAP1 REVERT JUMPDEST PUSH2 0xA1D DUP3 DUP3 PUSH2 0x1E25 JUMP JUMPDEST POP POP POP JUMP JUMPDEST PUSH32 0xA49807205CE4D355092EF5A8A18F56E8913CF4A201FBE287825B095693C21775 PUSH2 0xA4C DUP2 PUSH2 0x1D21 JUMP JUMPDEST PUSH0 PUSH1 0x5 PUSH0 SWAP1 SLOAD SWAP1 PUSH2 0x100 EXP SWAP1 DIV PUSH20 0xFFFFFFFFFFFFFFFFFFFFFFFFFFFFFFFFFFFFFFFF AND SWAP1 POP DUP3 PUSH1 0x5 PUSH0 PUSH2 0x100 EXP DUP2 SLOAD DUP2 PUSH20 0xFFFFFFFFFFFFFFFFFFFFFFFFFFFFFFFFFFFFFFFF MUL NOT AND SWAP1 DUP4 PUSH20 0xFFFFFFFFFFFFFFFFFFFFFFFFFFFFFFFFFFFFFFFF AND MUL OR SWAP1 SSTORE POP PUSH1 0x6 PUSH0 SWAP1 SLOAD SWAP1 PUSH2 0x100 EXP SWAP1 DIV PUSH20 0xFFFFFFFFFFFFFFFFFFFFFFFFFFFFFFFFFFFFFFFF AND PUSH20 0xFFFFFFFFFFFFFFFFFFFFFFFFFFFFFFFFFFFFFFFF AND PUSH4 0x7CB2B79C DUP5 PUSH1 0x40 MLOAD DUP3 PUSH4 0xFFFFFFFF AND PUSH1 0xE0 SHL DUP2 MSTORE PUSH1 0x4 ADD PUSH2 0xB0B SWAP2 SWAP1 PUSH2 0x2935 JUMP JUMPDEST PUSH0 PUSH1 0x40 MLOAD DUP1 DUP4 SUB DUP2 PUSH0 DUP8 DUP1 EXTCODESIZE ISZERO DUP1 ISZERO PUSH2 0xB22 JUMPI PUSH0 PUSH0 REVERT JUMPDEST POP GAS CALL ISZERO DUP1 ISZERO PUSH2 0xB34 JUMPI RETURNDATASIZE PUSH0 PUSH0 RETURNDATACOPY RETURNDATASIZE PUSH0 REVERT JUMPDEST POP POP POP POP PUSH32 0x2D8279AD7651B5DBB7AA22CC77609CED7F1EC004027C93BA5799DC5C39B1D753 DUP2 DUP5 PUSH1 0x40 MLOAD PUSH2 0xB69 SWAP3 SWAP2 SWAP1 PUSH2 0x29B8 JUMP JUMPDEST PUSH1 0x40 MLOAD DUP1 SWAP2 SUB SWAP1 LOG1 POP POP POP JUMP JUMPDEST PUSH32 0xA49807205CE4D355092EF5A8A18F56E8913CF4A201FBE287825B095693C21775 PUSH2 0xBA0 DUP2 PUSH2 0x1D21 JUMP JUMPDEST PUSH2 0xBA8 PUSH2 0x1F0E JUMP JUMPDEST PUSH1 0x7 PUSH0 SWAP1 SLOAD SWAP1 PUSH2 0x100 EXP SWAP1 DIV PUSH20 0xFFFFFFFFFFFFFFFFFFFFFFFFFFFFFFFFFFFFFFFF AND PUSH20 0xFFFFFFFFFFFFFFFFFFFFFFFFFFFFFFFFFFFFFFFF AND PUSH4 0x44C83B97 CALLER TIMESTAMP PUSH1 0x40 MLOAD PUSH1 0x20 ADD PUSH2 0xBF7 SWAP2 SWAP1 PUSH2 0x279E JUMP JUMPDEST PUSH1 0x40 MLOAD PUSH1 0x20 DUP2 DUP4 SUB SUB DUP2 MSTORE SWAP1 PUSH1 0x40 MSTORE PUSH1 0x40 MLOAD DUP4 PUSH4 0xFFFFFFFF AND PUSH1 0xE0 SHL DUP2 MSTORE PUSH1 0x4 ADD PUSH2 0xC23 SWAP3 SWAP2 SWAP1 PUSH2 0x2A3C JUMP JUMPDEST PUSH0 PUSH1 0x40 MLOAD DUP1 DUP4 SUB DUP2 PUSH0 DUP8 DUP1 EXTCODESIZE ISZERO DUP1 ISZERO PUSH2 0xC3A JUMPI PUSH0 PUSH0 REVERT JUMPDEST POP GAS CALL ISZERO DUP1 ISZERO PUSH2 0xC4C JUMPI RETURNDATASIZE PUSH0 PUSH0 RETURNDATACOPY RETURNDATASIZE PUSH0 REVERT JUMPDEST POP POP POP POP CALLER PUSH20 0xFFFFFFFFFFFFFFFFFFFFFFFFFFFFFFFFFFFFFFFF AND PUSH32 0xDACAC23D353CC4FE05BE85350ED1E8227ED9EDF2323B7CB5AAD3174E6A9CE1D6 TIMESTAMP PUSH1 0x40 MLOAD PUSH2 0xC96 SWAP2 SWAP1 PUSH2 0x279E JUMP JUMPDEST PUSH1 0x40 MLOAD DUP1 SWAP2 SUB SWAP1 LOG2 POP JUMP JUMPDEST PUSH1 0x60 PUSH0 PUSH0 PUSH0 PUSH0 PUSH1 0x3 PUSH2 0xCB1 PUSH2 0xFB4 JUMP JUMPDEST PUSH1 0x4 PUSH0 SWAP1 SLOAD SWAP1 PUSH2 0x100 EXP SWAP1 DIV PUSH20 0xFFFFFFFFFFFFFFFFFFFFFFFFFFFFFFFFFFFFFFFF AND PUSH20 0xFFFFFFFFFFFFFFFFFFFFFFFFFFFFFFFFFFFFFFFF AND PUSH4 0x5339C995 PUSH1 0x40 MLOAD DUP2 PUSH4 0xFFFFFFFF AND PUSH1 0xE0 SHL DUP2 MSTORE PUSH1 0x4 ADD PUSH1 0x20 PUSH1 0x40 MLOAD DUP1 DUP4 SUB DUP2 DUP7 GAS STATICCALL ISZERO DUP1 ISZERO PUSH2 0xD1B JUMPI RETURNDATASIZE PUSH0 PUSH0 RETURNDATACOPY RETURNDATASIZE PUSH0 REVERT JUMPDEST POP POP POP POP PUSH1 0x40 MLOAD RETURNDATASIZE PUSH1 0x1F NOT PUSH1 0x1F DUP3 ADD AND DUP3 ADD DUP1 PUSH1 0x40 MSTORE POP DUP2 ADD SWAP1 PUSH2 0xD3F SWAP2 SWAP1 PUSH2 0x2A91 JUMP JUMPDEST PUSH1 0x5 PUSH0 SWAP1 SLOAD SWAP1 PUSH2 0x100 EXP SWAP1 DIV PUSH20 0xFFFFFFFFFFFFFFFFFFFFFFFFFFFFFFFFFFFFFFFF AND PUSH20 0xFFFFFFFFFFFFFFFFFFFFFFFFFFFFFFFFFFFFFFFF AND PUSH4 0x1D163923 PUSH1 0x40 MLOAD DUP2 PUSH4 0xFFFFFFFF AND PUSH1 0xE0 SHL DUP2 MSTORE PUSH1 0x4 ADD PUSH1 0x20 PUSH1 0x40 MLOAD DUP1 DUP4 SUB DUP2 DUP7 GAS STATICCALL ISZERO DUP1 ISZERO PUSH2 0xDA9 JUMPI RETURNDATASIZE PUSH0 PUSH0 RETURNDATACOPY RETURNDATASIZE PUSH0 REVERT JUMPDEST POP POP POP POP PUSH1 0x40 MLOAD RETURNDATASIZE PUSH1 0x1F NOT PUSH1 0x1F DUP3 ADD AND DUP3 ADD DUP1 PUSH1 0x40 MSTORE POP DUP2 ADD SWAP1 PUSH2 0xDCD SWAP2 SWAP1 PUSH2 0x2A91 JUMP JUMPDEST PUSH32 0x0 DUP5 DUP1 SLOAD PUSH2 0xDFA SWAP1 PUSH2 0x2AE9 JUMP JUMPDEST DUP1 PUSH1 0x1F ADD PUSH1 0x20 DUP1 SWAP2 DIV MUL PUSH1 0x20 ADD PUSH1 0x40 MLOAD SWAP1 DUP2 ADD PUSH1 0x40 MSTORE DUP1 SWAP3 SWAP2 SWAP1 DUP2 DUP2 MSTORE PUSH1 0x20 ADD DUP3 DUP1 SLOAD PUSH2 0xE26 SWAP1 PUSH2 0x2AE9 JUMP JUMPDEST DUP1 ISZERO PUSH2 0xE71 JUMPI DUP1 PUSH1 0x1F LT PUSH2 0xE48 JUMPI PUSH2 0x100 DUP1 DUP4 SLOAD DIV MUL DUP4 MSTORE SWAP2 PUSH1 0x20 ADD SWAP2 PUSH2 0xE71 JUMP JUMPDEST DUP3 ADD SWAP2 SWAP1 PUSH0 MSTORE PUSH1 0x20 PUSH0 KECCAK256 SWAP1 JUMPDEST DUP2 SLOAD DUP2 MSTORE SWAP1 PUSH1 0x1 ADD SWAP1 PUSH1 0x20 ADD DUP1 DUP4 GT PUSH2 0xE54 JUMPI DUP3 SWAP1 SUB PUSH1 0x1F AND DUP3 ADD SWAP2 JUMPDEST POP POP POP POP POP SWAP5 POP SWAP5 POP SWAP5 POP SWAP5 POP SWAP5 POP SWAP5 POP SWAP1 SWAP2 SWAP3 SWAP4 SWAP5 JUMP JUMPDEST PUSH32 0xA49807205CE4D355092EF5A8A18F56E8913CF4A201FBE287825B095693C21775 PUSH2 0xEB3 DUP2 PUSH2 0x1D21 JUMP JUMPDEST PUSH2 0xEBB PUSH2 0x1F6F JUMP JUMPDEST PUSH1 0x7 PUSH0 SWAP1 SLOAD SWAP1 PUSH2 0x100 EXP SWAP1 DIV PUSH20 0xFFFFFFFFFFFFFFFFFFFFFFFFFFFFFFFFFFFFFFFF AND PUSH20 0xFFFFFFFFFFFFFFFFFFFFFFFFFFFFFFFFFFFFFFFF AND PUSH4 0x44C83B97 CALLER TIMESTAMP PUSH1 0x40 MLOAD PUSH1 0x20 ADD PUSH2 0xF0A SWAP2 SWAP1 PUSH2 0x279E JUMP JUMPDEST PUSH1 0x40 MLOAD PUSH1 0x20 DUP2 DUP4 SUB SUB DUP2 MSTORE SWAP1 PUSH1 0x40 MSTORE PUSH1 0x40 MLOAD DUP4 PUSH4 0xFFFFFFFF AND PUSH1 0xE0 SHL DUP2 MSTORE PUSH1 0x4 ADD PUSH2 0xF36 SWAP3 SWAP2 SWAP1 PUSH2 0x2B63 JUMP JUMPDEST PUSH0 PUSH1 0x40 MLOAD DUP1 DUP4 SUB DUP2 PUSH0 DUP8 DUP1 EXTCODESIZE ISZERO DUP1 ISZERO PUSH2 0xF4D JUMPI PUSH0 PUSH0 REVERT JUMPDEST POP GAS CALL ISZERO DUP1 ISZERO PUSH2 0xF5F JUMPI RETURNDATASIZE PUSH0 PUSH0 RETURNDATACOPY RETURNDATASIZE PUSH0 REVERT JUMPDEST POP POP POP POP CALLER PUSH20 0xFFFFFFFFFFFFFFFFFFFFFFFFFFFFFFFFFFFFFFFF AND PUSH32 0x2E31B3B12B9BB0E82C32F27DF5F234FABC95A374F54FD287A7132878D5DC9FC3 TIMESTAMP PUSH1 0x40 MLOAD PUSH2 0xFA9 SWAP2 SWAP1 PUSH2 0x279E JUMP JUMPDEST PUSH1 0x40 MLOAD DUP1 SWAP2 SUB SWAP1 LOG2 POP JUMP JUMPDEST PUSH0 PUSH1 0x1 PUSH0 SWAP1 SLOAD SWAP1 PUSH2 0x100 EXP SWAP1 DIV PUSH1 0xFF AND SWAP1 POP SWAP1 JUMP JUMPDEST PUSH32 0xA49807205CE4D355092EF5A8A18F56E8913CF4A201FBE287825B095693C21775 DUP2 JUMP JUMPDEST PUSH0 PUSH0 PUSH0 DUP5 DUP2 MSTORE PUSH1 0x20 ADD SWAP1 DUP2 MSTORE PUSH1 0x20 ADD PUSH0 KECCAK256 PUSH0 ADD PUSH0 DUP4 PUSH20 0xFFFFFFFFFFFFFFFFFFFFFFFFFFFFFFFFFFFFFFFF AND PUSH20 0xFFFFFFFFFFFFFFFFFFFFFFFFFFFFFFFFFFFFFFFF AND DUP2 MSTORE PUSH1 0x20 ADD SWAP1 DUP2 MSTORE PUSH1 0x20 ADD PUSH0 KECCAK256 PUSH0 SWAP1 SLOAD SWAP1 PUSH2 0x100 EXP SWAP1 DIV PUSH1 0xFF AND SWAP1 POP SWAP3 SWAP2 POP POP JUMP JUMPDEST PUSH0 PUSH0 SHL DUP2 JUMP JUMPDEST PUSH2 0x1080 PUSH32 0xA49807205CE4D355092EF5A8A18F56E8913CF4A201FBE287825B095693C21775 CALLER PUSH2 0xFED JUMP JUMPDEST DUP1 PUSH2 0x10B1 JUMPI POP PUSH2 0x10B0 PUSH32 0x940D6B1946FF1D2B5A9F1909219C3C81A370804B5BA0F91EC0828C99A2E6A681 CALLER PUSH2 0xFED JUMP JUMPDEST JUMPDEST PUSH2 0x10F0 JUMPI PUSH1 0x40 MLOAD PUSH32 0x8C379A000000000000000000000000000000000000000000000000000000000 DUP2 MSTORE PUSH1 0x4 ADD PUSH2 0x10E7 SWAP1 PUSH2 0x2BEE JUMP JUMPDEST PUSH1 0x40 MLOAD DUP1 SWAP2 SUB SWAP1 REVERT JUMPDEST PUSH2 0x10F8 PUSH2 0x1FD0 JUMP JUMPDEST PUSH2 0x1100 PUSH2 0x201A JUMP JUMPDEST PUSH1 0x6 PUSH0 SWAP1 SLOAD SWAP1 PUSH2 0x100 EXP SWAP1 DIV PUSH20 0xFFFFFFFFFFFFFFFFFFFFFFFFFFFFFFFFFFFFFFFF AND PUSH20 0xFFFFFFFFFFFFFFFFFFFFFFFFFFFFFFFFFFFFFFFF AND PUSH4 0xACEFC3E7 PUSH1 0x40 MLOAD DUP2 PUSH4 0xFFFFFFFF AND PUSH1 0xE0 SHL DUP2 MSTORE PUSH1 0x4 ADD PUSH0 PUSH1 0x40 MLOAD DUP1 DUP4 SUB DUP2 PUSH0 DUP8 DUP1 EXTCODESIZE ISZERO DUP1 ISZERO PUSH2 0x1166 JUMPI PUSH0 PUSH0 REVERT JUMPDEST POP GAS CALL ISZERO DUP1 ISZERO PUSH2 0x1178 JUMPI RETURNDATASIZE PUSH0 PUSH0 RETURNDATACOPY RETURNDATASIZE PUSH0 REVERT JUMPDEST POP POP POP POP PUSH2 0x1184 PUSH2 0x2067 JUMP JUMPDEST JUMP JUMPDEST PUSH32 0xA49807205CE4D355092EF5A8A18F56E8913CF4A201FBE287825B095693C21775 PUSH2 0x11B0 DUP2 PUSH2 0x1D21 JUMP JUMPDEST PUSH0 PUSH1 0x4 PUSH0 SWAP1 SLOAD SWAP1 PUSH2 0x100 EXP SWAP1 DIV PUSH20 0xFFFFFFFFFFFFFFFFFFFFFFFFFFFFFFFFFFFFFFFF AND SWAP1 POP DUP3 PUSH1 0x4 PUSH0 PUSH2 0x100 EXP DUP2 SLOAD DUP2 PUSH20 0xFFFFFFFFFFFFFFFFFFFFFFFFFFFFFFFFFFFFFFFF MUL NOT AND SWAP1 DUP4 PUSH20 0xFFFFFFFFFFFFFFFFFFFFFFFFFFFFFFFFFFFFFFFF AND MUL OR SWAP1 SSTORE POP PUSH1 0x6 PUSH0 SWAP1 SLOAD SWAP1 PUSH2 0x100 EXP SWAP1 DIV PUSH20 0xFFFFFFFFFFFFFFFFFFFFFFFFFFFFFFFFFFFFFFFF AND PUSH20 0xFFFFFFFFFFFFFFFFFFFFFFFFFFFFFFFFFFFFFFFF AND PUSH4 0x460515A1 DUP5 PUSH1 0x40 MLOAD DUP3 PUSH4 0xFFFFFFFF AND PUSH1 0xE0 SHL DUP2 MSTORE PUSH1 0x4 ADD PUSH2 0x126F SWAP2 SWAP1 PUSH2 0x2C0C JUMP JUMPDEST PUSH0 PUSH1 0x40 MLOAD DUP1 DUP4 SUB DUP2 PUSH0 DUP8 DUP1 EXTCODESIZE ISZERO DUP1 ISZERO PUSH2 0x1286 JUMPI PUSH0 PUSH0 REVERT JUMPDEST POP GAS CALL ISZERO DUP1 ISZERO PUSH2 0x1298 JUMPI RETURNDATASIZE PUSH0 PUSH0 RETURNDATACOPY RETURNDATASIZE PUSH0 REVERT JUMPDEST POP POP POP POP PUSH32 0x2D8279AD7651B5DBB7AA22CC77609CED7F1EC004027C93BA5799DC5C39B1D753 DUP2 DUP5 PUSH1 0x40 MLOAD PUSH2 0x12CD SWAP3 SWAP2 SWAP1 PUSH2 0x2C6F JUMP JUMPDEST PUSH1 0x40 MLOAD DUP1 SWAP2 SUB SWAP1 LOG1 POP POP POP JUMP JUMPDEST PUSH2 0x1304 PUSH32 0xA49807205CE4D355092EF5A8A18F56E8913CF4A201FBE287825B095693C21775 CALLER PUSH2 0xFED JUMP JUMPDEST DUP1 PUSH2 0x1335 JUMPI POP PUSH2 0x1334 PUSH32 0x940D6B1946FF1D2B5A9F1909219C3C81A370804B5BA0F91EC0828C99A2E6A681 CALLER PUSH2 0xFED JUMP JUMPDEST JUMPDEST PUSH2 0x1374 JUMPI PUSH1 0x40 MLOAD PUSH32 0x8C379A000000000000000000000000000000000000000000000000000000000 DUP2 MSTORE PUSH1 0x4 ADD PUSH2 0x136B SWAP1 PUSH2 0x2BEE JUMP JUMPDEST PUSH1 0x40 MLOAD DUP1 SWAP2 SUB SWAP1 REVERT JUMPDEST PUSH2 0x137C PUSH2 0x1FD0 JUMP JUMPDEST PUSH1 0x5 PUSH0 SWAP1 SLOAD SWAP1 PUSH2 0x100 EXP SWAP1 DIV PUSH20 0xFFFFFFFFFFFFFFFFFFFFFFFFFFFFFFFFFFFFFFFF AND PUSH20 0xFFFFFFFFFFFFFFFFFFFFFFFFFFFFFFFFFFFFFFFF AND PUSH4 0xBC4B3365 CALLVALUE DUP5 DUP5 PUSH1 0x40 MLOAD DUP5 PUSH4 0xFFFFFFFF AND PUSH1 0xE0 SHL DUP2 MSTORE PUSH1 0x4 ADD PUSH2 0x13D9 SWAP3 SWAP2 SWAP1 PUSH2 0x227C JUMP JUMPDEST PUSH0 PUSH1 0x40 MLOAD DUP1 DUP4 SUB DUP2 DUP6 DUP9 DUP1 EXTCODESIZE ISZERO DUP1 ISZERO PUSH2 0x13F0 JUMPI PUSH0 PUSH0 REVERT JUMPDEST POP GAS CALL ISZERO DUP1 ISZERO PUSH2 0x1402 JUMPI RETURNDATASIZE PUSH0 PUSH0 RETURNDATACOPY RETURNDATASIZE PUSH0 REVERT JUMPDEST POP POP POP POP POP POP POP JUMP JUMPDEST PUSH2 0x1414 DUP3 PUSH2 0x8FC JUMP JUMPDEST PUSH2 0x141D DUP2 PUSH2 0x1D21 JUMP JUMPDEST PUSH2 0x1427 DUP4 DUP4 PUSH2 0x1E25 JUMP JUMPDEST POP POP POP POP JUMP JUMPDEST PUSH2 0x1457 PUSH32 0xA49807205CE4D355092EF5A8A18F56E8913CF4A201FBE287825B095693C21775 CALLER PUSH2 0xFED JUMP JUMPDEST DUP1 PUSH2 0x1488 JUMPI POP PUSH2 0x1487 PUSH32 0xFD70517941C75212B0F9013E45C47A37D6D983C5304288C7AF285F2EA40CBBA7 CALLER PUSH2 0xFED JUMP JUMPDEST JUMPDEST PUSH2 0x14C7 JUMPI PUSH1 0x40 MLOAD PUSH32 0x8C379A000000000000000000000000000000000000000000000000000000000 DUP2 MSTORE PUSH1 0x4 ADD PUSH2 0x14BE SWAP1 PUSH2 0x2CF3 JUMP JUMPDEST PUSH1 0x40 MLOAD DUP1 SWAP2 SUB SWAP1 REVERT JUMPDEST PUSH2 0x14CF PUSH2 0x1FD0 JUMP JUMPDEST PUSH1 0x4 PUSH0 SWAP1 SLOAD SWAP1 PUSH2 0x100 EXP SWAP1 DIV PUSH20 0xFFFFFFFFFFFFFFFFFFFFFFFFFFFFFFFFFFFFFFFF AND PUSH20 0xFFFFFFFFFFFFFFFFFFFFFFFFFFFFFFFFFFFFFFFF AND PUSH4 0xE2D82B45 DUP6 DUP6 DUP6 DUP6 PUSH1 0x40 MLOAD DUP6 PUSH4 0xFFFFFFFF AND PUSH1 0xE0 SHL DUP2 MSTORE PUSH1 0x4 ADD PUSH2 0x152F SWAP5 SWAP4 SWAP3 SWAP2 SWAP1 PUSH2 0x2D84 JUMP JUMPDEST PUSH0 PUSH1 0x40 MLOAD DUP1 DUP4 SUB DUP2 PUSH0 DUP8 DUP1 EXTCODESIZE ISZERO DUP1 ISZERO PUSH2 0x1546 JUMPI PUSH0 PUSH0 REVERT JUMPDEST POP GAS CALL ISZERO DUP1 ISZERO PUSH2 0x1558 JUMPI RETURNDATASIZE PUSH0 PUSH0 RETURNDATACOPY RETURNDATASIZE PUSH0 REVERT JUMPDEST POP POP POP POP PUSH2 0x1565 DUP5 PUSH2 0x19A5 JUMP JUMPDEST PUSH1 0x7 PUSH0 SWAP1 SLOAD SWAP1 PUSH2 0x100 EXP SWAP1 DIV PUSH20 0xFFFFFFFFFFFFFFFFFFFFFFFFFFFFFFFFFFFFFFFF AND PUSH20 0xFFFFFFFFFFFFFFFFFFFFFFFFFFFFFFFFFFFFFFFF AND PUSH4 0x44C83B97 CALLER DUP7 DUP7 DUP7 DUP7 TIMESTAMP PUSH1 0x40 MLOAD PUSH1 0x20 ADD PUSH2 0x15BC SWAP6 SWAP5 SWAP4 SWAP3 SWAP2 SWAP1 PUSH2 0x2DC7 JUMP JUMPDEST PUSH1 0x40 MLOAD PUSH1 0x20 DUP2 DUP4 SUB SUB DUP2 MSTORE SWAP1 PUSH1 0x40 MSTORE PUSH1 0x40 MLOAD DUP4 PUSH4 0xFFFFFFFF AND PUSH1 0xE0 SHL DUP2 MSTORE PUSH1 0x4 ADD PUSH2 0x15E8 SWAP3 SWAP2 SWAP1 PUSH2 0x2E62 JUMP JUMPDEST PUSH0 PUSH1 0x40 MLOAD DUP1 DUP4 SUB DUP2 PUSH0 DUP8 DUP1 EXTCODESIZE ISZERO DUP1 ISZERO PUSH2 0x15FF JUMPI PUSH0 PUSH0 REVERT JUMPDEST POP GAS CALL ISZERO DUP1 ISZERO PUSH2 0x1611 JUMPI RETURNDATASIZE PUSH0 PUSH0 RETURNDATACOPY RETURNDATASIZE PUSH0 REVERT JUMPDEST POP POP POP POP POP POP POP POP JUMP JUMPDEST PUSH32 0xA49807205CE4D355092EF5A8A18F56E8913CF4A201FBE287825B095693C21775 PUSH2 0x1645 DUP2 PUSH2 0x1D21 JUMP JUMPDEST PUSH2 0x164D PUSH2 0x2071 JUMP JUMPDEST PUSH0 PUSH20 0xFFFFFFFFFFFFFFFFFFFFFFFFFFFFFFFFFFFFFFFF AND DUP4 PUSH20 0xFFFFFFFFFFFFFFFFFFFFFFFFFFFFFFFFFFFFFFFF AND SUB PUSH2 0x16BB JUMPI PUSH1 0x40 MLOAD PUSH32 0x8C379A000000000000000000000000000000000000000000000000000000000 DUP2 MSTORE PUSH1 0x4 ADD PUSH2 0x16B2 SWAP1 PUSH2 0x2EED JUMP JUMPDEST PUSH1 0x40 MLOAD DUP1 SWAP2 SUB SWAP1 REVERT JUMPDEST PUSH0 PUSH20 0xFFFFFFFFFFFFFFFFFFFFFFFFFFFFFFFFFFFFFFFF AND DUP5 PUSH20 0xFFFFFFFFFFFFFFFFFFFFFFFFFFFFFFFFFFFFFFFF AND SUB PUSH2 0x177A JUMPI DUP2 SELFBALANCE LT ISZERO PUSH2 0x1731 JUMPI PUSH1 0x40 MLOAD PUSH32 0x8C379A000000000000000000000000000000000000000000000000000000000 DUP2 MSTORE PUSH1 0x4 ADD PUSH2 0x1728 SWAP1 PUSH2 0x2F55 JUMP JUMPDEST PUSH1 0x40 MLOAD DUP1 SWAP2 SUB SWAP1 REVERT JUMPDEST DUP3 PUSH20 0xFFFFFFFFFFFFFFFFFFFFFFFFFFFFFFFFFFFFFFFF AND PUSH2 0x8FC DUP4 SWAP1 DUP2 ISZERO MUL SWAP1 PUSH1 0x40 MLOAD PUSH0 PUSH1 0x40 MLOAD DUP1 DUP4 SUB DUP2 DUP6 DUP9 DUP9 CALL SWAP4 POP POP POP POP ISZERO DUP1 ISZERO PUSH2 0x1774 JUMPI RETURNDATASIZE PUSH0 PUSH0 RETURNDATACOPY RETURNDATASIZE PUSH0 REVERT JUMPDEST POP PUSH2 0x17A6 JUMP JUMPDEST PUSH2 0x17A5 DUP4 DUP4 DUP7 PUSH20 0xFFFFFFFFFFFFFFFFFFFFFFFFFFFFFFFFFFFFFFFF AND PUSH2 0x20BA SWAP1 SWAP3 SWAP2 SWAP1 PUSH4 0xFFFFFFFF AND JUMP JUMPDEST JUMPDEST PUSH1 0x7 PUSH0 SWAP1 SLOAD SWAP1 PUSH2 0x100 EXP SWAP1 DIV PUSH20 0xFFFFFFFFFFFFFFFFFFFFFFFFFFFFFFFFFFFFFFFF AND PUSH20 0xFFFFFFFFFFFFFFFFFFFFFFFFFFFFFFFFFFFFFFFF AND PUSH4 0x44C83B97 CALLER DUP7 DUP7 DUP7 TIMESTAMP PUSH1 0x40 MLOAD PUSH1 0x20 ADD PUSH2 0x17FB SWAP5 SWAP4 SWAP3 SWAP2 SWAP1 PUSH2 0x2F73 JUMP JUMPDEST PUSH1 0x40 MLOAD PUSH1 0x20 DUP2 DUP4 SUB SUB DUP2 MSTORE SWAP1 PUSH1 0x40 MSTORE PUSH1 0x40 MLOAD DUP4 PUSH4 0xFFFFFFFF AND PUSH1 0xE0 SHL DUP2 MSTORE PUSH1 0x4 ADD PUSH2 0x1827 SWAP3 SWAP2 SWAP1 PUSH2 0x3000 JUMP JUMPDEST PUSH0 PUSH1 0x40 MLOAD DUP1 DUP4 SUB DUP2 PUSH0 DUP8 DUP1 EXTCODESIZE ISZERO DUP1 ISZERO PUSH2 0x183E JUMPI PUSH0 PUSH0 REVERT JUMPDEST POP GAS CALL ISZERO DUP1 ISZERO PUSH2 0x1850 JUMPI RETURNDATASIZE PUSH0 PUSH0 RETURNDATACOPY RETURNDATASIZE PUSH0 REVERT JUMPDEST POP POP POP POP POP POP POP POP JUMP JUMPDEST PUSH32 0x0 DUP2 JUMP JUMPDEST PUSH1 0x6 PUSH0 SWAP1 SLOAD SWAP1 PUSH2 0x100 EXP SWAP1 DIV PUSH20 0xFFFFFFFFFFFFFFFFFFFFFFFFFFFFFFFFFFFFFFFF AND DUP2 JUMP JUMPDEST PUSH32 0xA49807205CE4D355092EF5A8A18F56E8913CF4A201FBE287825B095693C21775 PUSH2 0x18CD DUP2 PUSH2 0x1D21 JUMP JUMPDEST PUSH2 0x18F7 PUSH32 0x940D6B1946FF1D2B5A9F1909219C3C81A370804B5BA0F91EC0828C99A2E6A681 DUP4 PUSH2 0x961 JUMP JUMPDEST PUSH1 0x7 PUSH0 SWAP1 SLOAD SWAP1 PUSH2 0x100 EXP SWAP1 DIV PUSH20 0xFFFFFFFFFFFFFFFFFFFFFFFFFFFFFFFFFFFFFFFF AND PUSH20 0xFFFFFFFFFFFFFFFFFFFFFFFFFFFFFFFFFFFFFFFF AND PUSH4 0x44C83B97 CALLER DUP5 TIMESTAMP PUSH1 0x40 MLOAD PUSH1 0x20 ADD PUSH2 0x1948 SWAP3 SWAP2 SWAP1 PUSH2 0x227C JUMP JUMPDEST PUSH1 0x40 MLOAD PUSH1 0x20 DUP2 DUP4 SUB SUB DUP2 MSTORE SWAP1 PUSH1 0x40 MSTORE PUSH1 0x40 MLOAD DUP4 PUSH4 0xFFFFFFFF AND PUSH1 0xE0 SHL DUP2 MSTORE PUSH1 0x4 ADD PUSH2 0x1974 SWAP3 SWAP2 SWAP1 PUSH2 0x308B JUMP JUMPDEST PUSH0 PUSH1 0x40 MLOAD DUP1 DUP4 SUB DUP2 PUSH0 DUP8 DUP1 EXTCODESIZE ISZERO DUP1 ISZERO PUSH2 0x198B JUMPI PUSH0 PUSH0 REVERT JUMPDEST POP GAS CALL ISZERO DUP1 ISZERO PUSH2 0x199D JUMPI RETURNDATASIZE PUSH0 PUSH0 RETURNDATACOPY RETURNDATASIZE PUSH0 REVERT JUMPDEST POP POP POP POP POP POP JUMP JUMPDEST PUSH2 0x19CF PUSH32 0xA49807205CE4D355092EF5A8A18F56E8913CF4A201FBE287825B095693C21775 CALLER PUSH2 0xFED JUMP JUMPDEST DUP1 PUSH2 0x1A00 JUMPI POP PUSH2 0x19FF PUSH32 0xFD70517941C75212B0F9013E45C47A37D6D983C5304288C7AF285F2EA40CBBA7 CALLER PUSH2 0xFED JUMP JUMPDEST JUMPDEST PUSH2 0x1A3F JUMPI PUSH1 0x40 MLOAD PUSH32 0x8C379A000000000000000000000000000000000000000000000000000000000 DUP2 MSTORE PUSH1 0x4 ADD PUSH2 0x1A36 SWAP1 PUSH2 0x2CF3 JUMP JUMPDEST PUSH1 0x40 MLOAD DUP1 SWAP2 SUB SWAP1 REVERT JUMPDEST PUSH2 0x1A69 PUSH32 0x5A3425EA67E73C95853ECFC0C443062DE292A303C186BC2AAC1178AE1B86C62A DUP3 PUSH2 0x961 JUMP JUMPDEST PUSH1 0x7 PUSH0 SWAP1 SLOAD SWAP1 PUSH2 0x100 EXP SWAP1 DIV PUSH20 0xFFFFFFFFFFFFFFFFFFFFFFFFFFFFFFFFFFFFFFFF AND PUSH20 0xFFFFFFFFFFFFFFFFFFFFFFFFFFFFFFFFFFFFFFFF AND PUSH4 0x44C83B97 CALLER DUP4 TIMESTAMP PUSH1 0x40 MLOAD PUSH1 0x20 ADD PUSH2 0x1ABA SWAP3 SWAP2 SWAP1 PUSH2 0x227C JUMP JUMPDEST PUSH1 0x40 MLOAD PUSH1 0x20 DUP2 DUP4 SUB SUB DUP2 MSTORE SWAP1 PUSH1 0x40 MSTORE PUSH1 0x40 MLOAD DUP4 PUSH4 0xFFFFFFFF AND PUSH1 0xE0 SHL DUP2 MSTORE PUSH1 0x4 ADD PUSH2 0x1AE6 SWAP3 SWAP2 SWAP1 PUSH2 0x3116 JUMP JUMPDEST PUSH0 PUSH1 0x40 MLOAD DUP1 DUP4 SUB DUP2 PUSH0 DUP8 DUP1 EXTCODESIZE ISZERO DUP1 ISZERO PUSH2 0x1AFD JUMPI PUSH0 PUSH0 REVERT JUMPDEST POP GAS CALL ISZERO DUP1 ISZERO PUSH2 0x1B0F JUMPI RETURNDATASIZE PUSH0 PUSH0 RETURNDATACOPY RETURNDATASIZE PUSH0 REVERT JUMPDEST POP POP POP POP POP JUMP JUMPDEST PUSH32 0xFD70517941C75212B0F9013E45C47A37D6D983C5304288C7AF285F2EA40CBBA7 DUP2 JUMP JUMPDEST PUSH1 0x3 DUP1 SLOAD PUSH2 0x1B47 SWAP1 PUSH2 0x2AE9 JUMP JUMPDEST DUP1 PUSH1 0x1F ADD PUSH1 0x20 DUP1 SWAP2 DIV MUL PUSH1 0x20 ADD PUSH1 0x40 MLOAD SWAP1 DUP2 ADD PUSH1 0x40 MSTORE DUP1 SWAP3 SWAP2 SWAP1 DUP2 DUP2 MSTORE PUSH1 0x20 ADD DUP3 DUP1 SLOAD PUSH2 0x1B73 SWAP1 PUSH2 0x2AE9 JUMP JUMPDEST DUP1 ISZERO PUSH2 0x1BBE JUMPI DUP1 PUSH1 0x1F LT PUSH2 0x1B95 JUMPI PUSH2 0x100 DUP1 DUP4 SLOAD DIV MUL DUP4 MSTORE SWAP2 PUSH1 0x20 ADD SWAP2 PUSH2 0x1BBE JUMP JUMPDEST DUP3 ADD SWAP2 SWAP1 PUSH0 MSTORE PUSH1 0x20 PUSH0 KECCAK256 SWAP1 JUMPDEST DUP2 SLOAD DUP2 MSTORE SWAP1 PUSH1 0x1 ADD SWAP1 PUSH1 0x20 ADD DUP1 DUP4 GT PUSH2 0x1BA1 JUMPI DUP3 SWAP1 SUB PUSH1 0x1F AND DUP3 ADD SWAP2 JUMPDEST POP POP POP POP POP DUP2 JUMP JUMPDEST PUSH32 0xA49807205CE4D355092EF5A8A18F56E8913CF4A201FBE287825B095693C21775 PUSH2 0x1BF0 DUP2 PUSH2 0x1D21 JUMP JUMPDEST PUSH0 PUSH1 0x6 PUSH0 SWAP1 SLOAD SWAP1 PUSH2 0x100 EXP SWAP1 DIV PUSH20 0xFFFFFFFFFFFFFFFFFFFFFFFFFFFFFFFFFFFFFFFF AND SWAP1 POP DUP3 PUSH1 0x6 PUSH0 PUSH2 0x100 EXP DUP2 SLOAD DUP2 PUSH20 0xFFFFFFFFFFFFFFFFFFFFFFFFFFFFFFFFFFFFFFFF MUL NOT AND SWAP1 DUP4 PUSH20 0xFFFFFFFFFFFFFFFFFFFFFFFFFFFFFFFFFFFFFFFF AND MUL OR SWAP1 SSTORE POP PUSH32 0x2D8279AD7651B5DBB7AA22CC77609CED7F1EC004027C93BA5799DC5C39B1D753 DUP2 DUP5 PUSH1 0x40 MLOAD PUSH2 0x1C86 SWAP3 SWAP2 SWAP1 PUSH2 0x31A1 JUMP JUMPDEST PUSH1 0x40 MLOAD DUP1 SWAP2 SUB SWAP1 LOG1 POP POP POP JUMP JUMPDEST PUSH1 0x4 PUSH0 SWAP1 SLOAD SWAP1 PUSH2 0x100 EXP SWAP1 DIV PUSH20 0xFFFFFFFFFFFFFFFFFFFFFFFFFFFFFFFFFFFFFFFF AND DUP2 JUMP JUMPDEST PUSH0 PUSH32 0x1FFC9A700000000000000000000000000000000000000000000000000000000 PUSH28 0xFFFFFFFFFFFFFFFFFFFFFFFFFFFFFFFFFFFFFFFFFFFFFFFFFFFFFFFF NOT AND DUP3 PUSH28 0xFFFFFFFFFFFFFFFFFFFFFFFFFFFFFFFFFFFFFFFFFFFFFFFFFFFFFFFF NOT AND EQ SWAP1 POP SWAP2 SWAP1 POP JUMP JUMPDEST PUSH2 0x1D32 DUP2 PUSH2 0x1D2D PUSH2 0x1E1E JUMP JUMPDEST PUSH2 0x2139 JUMP JUMPDEST POP JUMP JUMPDEST PUSH0 PUSH2 0x1D40 DUP4 DUP4 PUSH2 0xFED JUMP JUMPDEST PUSH2 0x1E14 JUMPI PUSH1 0x1 PUSH0 PUSH0 DUP6 DUP2 MSTORE PUSH1 0x20 ADD SWAP1 DUP2 MSTORE PUSH1 0x20 ADD PUSH0 KECCAK256 PUSH0 ADD PUSH0 DUP5 PUSH20 0xFFFFFFFFFFFFFFFFFFFFFFFFFFFFFFFFFFFFFFFF AND PUSH20 0xFFFFFFFFFFFFFFFFFFFFFFFFFFFFFFFFFFFFFFFF AND DUP2 MSTORE PUSH1 0x20 ADD SWAP1 DUP2 MSTORE PUSH1 0x20 ADD PUSH0 KECCAK256 PUSH0 PUSH2 0x100 EXP DUP2 SLOAD DUP2 PUSH1 0xFF MUL NOT AND SWAP1 DUP4 ISZERO ISZERO MUL OR SWAP1 SSTORE POP PUSH2 0x1DB1 PUSH2 0x1E1E JUMP JUMPDEST PUSH20 0xFFFFFFFFFFFFFFFFFFFFFFFFFFFFFFFFFFFFFFFF AND DUP3 PUSH20 0xFFFFFFFFFFFFFFFFFFFFFFFFFFFFFFFFFFFFFFFF AND DUP5 PUSH32 0x2F8788117E7EFF1D82E926EC794901D17C78024A50270940304540A733656F0D PUSH1 0x40 MLOAD PUSH1 0x40 MLOAD DUP1 SWAP2 SUB SWAP1 LOG4 PUSH1 0x1 SWAP1 POP PUSH2 0x1E18 JUMP JUMPDEST PUSH0 SWAP1 POP JUMPDEST SWAP3 SWAP2 POP POP JUMP JUMPDEST PUSH0 CALLER SWAP1 POP SWAP1 JUMP JUMPDEST PUSH0 PUSH2 0x1E30 DUP4 DUP4 PUSH2 0xFED JUMP JUMPDEST ISZERO PUSH2 0x1F04 JUMPI PUSH0 PUSH0 PUSH0 DUP6 DUP2 MSTORE PUSH1 0x20 ADD SWAP1 DUP2 MSTORE PUSH1 0x20 ADD PUSH0 KECCAK256 PUSH0 ADD PUSH0 DUP5 PUSH20 0xFFFFFFFFFFFFFFFFFFFFFFFFFFFFFFFFFFFFFFFF AND PUSH20 0xFFFFFFFFFFFFFFFFFFFFFFFFFFFFFFFFFFFFFFFF AND DUP2 MSTORE PUSH1 0x20 ADD SWAP1 DUP2 MSTORE PUSH1 0x20 ADD PUSH0 KECCAK256 PUSH0 PUSH2 0x100 EXP DUP2 SLOAD DUP2 PUSH1 0xFF MUL NOT AND SWAP1 DUP4 ISZERO ISZERO MUL OR SWAP1 SSTORE POP PUSH2 0x1EA1 PUSH2 0x1E1E JUMP JUMPDEST PUSH20 0xFFFFFFFFFFFFFFFFFFFFFFFFFFFFFFFFFFFFFFFF AND DUP3 PUSH20 0xFFFFFFFFFFFFFFFFFFFFFFFFFFFFFFFFFFFFFFFF AND DUP5 PUSH32 0xF6391F5C32D9C69D2A47EA670B442974B53935D1EDC7FD64EB21E047A839171B PUSH1 0x40 MLOAD PUSH1 0x40 MLOAD DUP1 SWAP2 SUB SWAP1 LOG4 PUSH1 0x1 SWAP1 POP PUSH2 0x1F08 JUMP JUMPDEST PUSH0 SWAP1 POP JUMPDEST SWAP3 SWAP2 POP POP JUMP JUMPDEST PUSH2 0x1F16 PUSH2 0x2071 JUMP JUMPDEST PUSH0 PUSH1 0x1 PUSH0 PUSH2 0x100 EXP DUP2 SLOAD DUP2 PUSH1 0xFF MUL NOT AND SWAP1 DUP4 ISZERO ISZERO MUL OR SWAP1 SSTORE POP PUSH32 0x5DB9EE0A495BF2E6FF9C91A7834C1BA4FDD244A5E8AA4E537BD38AEAE4B073AA PUSH2 0x1F58 PUSH2 0x1E1E JUMP JUMPDEST PUSH1 0x40 MLOAD PUSH2 0x1F65 SWAP2 SWAP1 PUSH2 0x2C0C JUMP JUMPDEST PUSH1 0x40 MLOAD DUP1 SWAP2 SUB SWAP1 LOG1 JUMP JUMPDEST PUSH2 0x1F77 PUSH2 0x1FD0 JUMP JUMPDEST PUSH1 0x1 DUP1 PUSH0 PUSH2 0x100 EXP DUP2 SLOAD DUP2 PUSH1 0xFF MUL NOT AND SWAP1 DUP4 ISZERO ISZERO MUL OR SWAP1 SSTORE POP PUSH32 0x62E78CEA01BEE320CD4E420270B5EA74000D11B0C9F74754EBDBFC544B05A258 PUSH2 0x1FB9 PUSH2 0x1E1E JUMP JUMPDEST PUSH1 0x40 MLOAD PUSH2 0x1FC6 SWAP2 SWAP1 PUSH2 0x2C0C JUMP JUMPDEST PUSH1 0x40 MLOAD DUP1 SWAP2 SUB SWAP1 LOG1 JUMP JUMPDEST PUSH2 0x1FD8 PUSH2 0xFB4 JUMP JUMPDEST ISZERO PUSH2 0x2018 JUMPI PUSH1 0x40 MLOAD PUSH32 0x8C379A000000000000000000000000000000000000000000000000000000000 DUP2 MSTORE PUSH1 0x4 ADD PUSH2 0x200F SWAP1 PUSH2 0x3225 JUMP JUMPDEST PUSH1 0x40 MLOAD DUP1 SWAP2 SUB SWAP1 REVERT JUMPDEST JUMP JUMPDEST PUSH1 0x2 DUP1 SLOAD SUB PUSH2 0x205E JUMPI PUSH1 0x40 MLOAD PUSH32 0x8C379A000000000000000000000000000000000000000000000000000000000 DUP2 MSTORE PUSH1 0x4 ADD PUSH2 0x2055 SWAP1 PUSH2 0x328D JUMP JUMPDEST PUSH1 0x40 MLOAD DUP1 SWAP2 SUB SWAP1 REVERT JUMPDEST PUSH1 0x2 DUP1 DUP2 SWAP1 SSTORE POP JUMP JUMPDEST PUSH1 0x1 PUSH1 0x2 DUP2 SWAP1 SSTORE POP JUMP JUMPDEST PUSH2 0x2079 PUSH2 0xFB4 JUMP JUMPDEST PUSH2 0x20B8 JUMPI PUSH1 0x40 MLOAD PUSH32 0x8C379A000000000000000000000000000000000000000000000000000000000 DUP2 MSTORE PUSH1 0x4 ADD PUSH2 0x20AF SWAP1 PUSH2 0x32F5 JUMP JUMPDEST PUSH1 0x40 MLOAD DUP1 SWAP2 SUB SWAP1 REVERT JUMPDEST JUMP JUMPDEST PUSH2 0x2134 DUP4 DUP5 PUSH20 0xFFFFFFFFFFFFFFFFFFFFFFFFFFFFFFFFFFFFFFFF AND PUSH4 0xA9059CBB DUP6 DUP6 PUSH1 0x40 MLOAD PUSH1 0x24 ADD PUSH2 0x20ED SWAP3 SWAP2 SWAP1 PUSH2 0x227C JUMP JUMPDEST PUSH1 0x40 MLOAD PUSH1 0x20 DUP2 DUP4 SUB SUB DUP2 MSTORE SWAP1 PUSH1 0x40 MSTORE SWAP2 POP PUSH1 0xE0 SHL PUSH1 0x20 DUP3 ADD DUP1 MLOAD PUSH28 0xFFFFFFFFFFFFFFFFFFFFFFFFFFFFFFFFFFFFFFFFFFFFFFFFFFFFFFFF DUP4 DUP2 DUP4 AND OR DUP4 MSTORE POP POP POP POP PUSH2 0x218A JUMP JUMPDEST POP POP POP JUMP JUMPDEST PUSH2 0x2143 DUP3 DUP3 PUSH2 0xFED JUMP JUMPDEST PUSH2 0x2186 JUMPI DUP1 DUP3 PUSH1 0x40 MLOAD PUSH32 0xE2517D3F00000000000000000000000000000000000000000000000000000000 DUP2 MSTORE PUSH1 0x4 ADD PUSH2 0x217D SWAP3 SWAP2 SWAP1 PUSH2 0x3313 JUMP JUMPDEST PUSH1 0x40 MLOAD DUP1 SWAP2 SUB SWAP1 REVERT JUMPDEST POP POP JUMP JUMPDEST PUSH0 PUSH0 PUSH1 0x20 PUSH0 DUP5 MLOAD PUSH1 0x20 DUP7 ADD PUSH0 DUP9 GAS CALL DUP1 PUSH2 0x21A9 JUMPI PUSH1 0x40 MLOAD RETURNDATASIZE PUSH0 DUP3 RETURNDATACOPY RETURNDATASIZE DUP2 REVERT JUMPDEST RETURNDATASIZE SWAP3 POP PUSH0 MLOAD SWAP2 POP POP PUSH0 DUP3 EQ PUSH2 0x21C2 JUMPI PUSH1 0x1 DUP2 EQ ISZERO PUSH2 0x21DD JUMP JUMPDEST PUSH0 DUP5 PUSH20 0xFFFFFFFFFFFFFFFFFFFFFFFFFFFFFFFFFFFFFFFF AND EXTCODESIZE EQ JUMPDEST ISZERO PUSH2 0x221F JUMPI DUP4 PUSH1 0x40 MLOAD PUSH32 0x5274AFE700000000000000000000000000000000000000000000000000000000 DUP2 MSTORE PUSH1 0x4 ADD PUSH2 0x2216 SWAP2 SWAP1 PUSH2 0x2C0C JUMP JUMPDEST PUSH1 0x40 MLOAD DUP1 SWAP2 SUB SWAP1 REVERT JUMPDEST POP POP POP POP JUMP JUMPDEST PUSH0 PUSH20 0xFFFFFFFFFFFFFFFFFFFFFFFFFFFFFFFFFFFFFFFF DUP3 AND SWAP1 POP SWAP2 SWAP1 POP JUMP JUMPDEST PUSH0 PUSH2 0x224E DUP3 PUSH2 0x2225 JUMP JUMPDEST SWAP1 POP SWAP2 SWAP1 POP JUMP JUMPDEST PUSH2 0x225E DUP2 PUSH2 0x2244 JUMP JUMPDEST DUP3 MSTORE POP POP JUMP JUMPDEST PUSH0 DUP2 SWAP1 POP SWAP2 SWAP1 POP JUMP JUMPDEST PUSH2 0x2276 DUP2 PUSH2 0x2264 JUMP JUMPDEST DUP3 MSTORE POP POP JUMP JUMPDEST PUSH0 PUSH1 0x40 DUP3 ADD SWAP1 POP PUSH2 0x228F PUSH0 DUP4 ADD DUP6 PUSH2 0x2255 JUMP JUMPDEST PUSH2 0x229C PUSH1 0x20 DUP4 ADD DUP5 PUSH2 0x226D JUMP JUMPDEST SWAP4 SWAP3 POP POP POP JUMP JUMPDEST PUSH0 PUSH0 REVERT JUMPDEST PUSH0 PUSH32 0xFFFFFFFF00000000000000000000000000000000000000000000000000000000 DUP3 AND SWAP1 POP SWAP2 SWAP1 POP JUMP JUMPDEST PUSH2 0x22DB DUP2 PUSH2 0x22A7 JUMP JUMPDEST DUP2 EQ PUSH2 0x22E5 JUMPI PUSH0 PUSH0 REVERT JUMPDEST POP JUMP JUMPDEST PUSH0 DUP2 CALLDATALOAD SWAP1 POP PUSH2 0x22F6 DUP2 PUSH2 0x22D2 JUMP JUMPDEST SWAP3 SWAP2 POP POP JUMP JUMPDEST PUSH0 PUSH1 0x20 DUP3 DUP5 SUB SLT ISZERO PUSH2 0x2311 JUMPI PUSH2 0x2310 PUSH2 0x22A3 JUMP JUMPDEST JUMPDEST PUSH0 PUSH2 0x231E DUP5 DUP3 DUP6 ADD PUSH2 0x22E8 JUMP JUMPDEST SWAP2 POP POP SWAP3 SWAP2 POP POP JUMP JUMPDEST PUSH0 DUP2 ISZERO ISZERO SWAP1 POP SWAP2 SWAP1 POP JUMP JUMPDEST PUSH2 0x233B DUP2 PUSH2 0x2327 JUMP JUMPDEST DUP3 MSTORE POP POP JUMP JUMPDEST PUSH0 PUSH1 0x20 DUP3 ADD SWAP1 POP PUSH2 0x2354 PUSH0 DUP4 ADD DUP5 PUSH2 0x2332 JUMP JUMPDEST SWAP3 SWAP2 POP POP JUMP JUMPDEST PUSH0 DUP2 SWAP1 POP SWAP2 SWAP1 POP JUMP JUMPDEST PUSH0 PUSH2 0x237D PUSH2 0x2378 PUSH2 0x2373 DUP5 PUSH2 0x2225 JUMP JUMPDEST PUSH2 0x235A JUMP JUMPDEST PUSH2 0x2225 JUMP JUMPDEST SWAP1 POP SWAP2 SWAP1 POP JUMP JUMPDEST PUSH0 PUSH2 0x238E DUP3 PUSH2 0x2363 JUMP JUMPDEST SWAP1 POP SWAP2 SWAP1 POP JUMP JUMPDEST PUSH0 PUSH2 0x239F DUP3 PUSH2 0x2384 JUMP JUMPDEST SWAP1 POP SWAP2 SWAP1 POP JUMP JUMPDEST PUSH2 0x23AF DUP2 PUSH2 0x2395 JUMP JUMPDEST DUP3 MSTORE POP POP JUMP JUMPDEST PUSH0 PUSH1 0x20 DUP3 ADD SWAP1 POP PUSH2 0x23C8 PUSH0 DUP4 ADD DUP5 PUSH2 0x23A6 JUMP JUMPDEST SWAP3 SWAP2 POP POP JUMP JUMPDEST PUSH2 0x23D7 DUP2 PUSH2 0x2244 JUMP JUMPDEST DUP2 EQ PUSH2 0x23E1 JUMPI PUSH0 PUSH0 REVERT JUMPDEST POP JUMP JUMPDEST PUSH0 DUP2 CALLDATALOAD SWAP1 POP PUSH2 0x23F2 DUP2 PUSH2 0x23CE JUMP JUMPDEST SWAP3 SWAP2 POP POP JUMP JUMPDEST PUSH0 PUSH1 0x20 DUP3 DUP5 SUB SLT ISZERO PUSH2 0x240D JUMPI PUSH2 0x240C PUSH2 0x22A3 JUMP JUMPDEST JUMPDEST PUSH0 PUSH2 0x241A DUP5 DUP3 DUP6 ADD PUSH2 0x23E4 JUMP JUMPDEST SWAP2 POP POP SWAP3 SWAP2 POP POP JUMP JUMPDEST PUSH0 DUP2 SWAP1 POP SWAP2 SWAP1 POP JUMP JUMPDEST PUSH2 0x2435 DUP2 PUSH2 0x2423 JUMP JUMPDEST DUP2 EQ PUSH2 0x243F JUMPI PUSH0 PUSH0 REVERT JUMPDEST POP JUMP JUMPDEST PUSH0 DUP2 CALLDATALOAD SWAP1 POP PUSH2 0x2450 DUP2 PUSH2 0x242C JUMP JUMPDEST SWAP3 SWAP2 POP POP JUMP JUMPDEST PUSH0 PUSH1 0x20 DUP3 DUP5 SUB SLT ISZERO PUSH2 0x246B JUMPI PUSH2 0x246A PUSH2 0x22A3 JUMP JUMPDEST JUMPDEST PUSH0 PUSH2 0x2478 DUP5 DUP3 DUP6 ADD PUSH2 0x2442 JUMP JUMPDEST SWAP2 POP POP SWAP3 SWAP2 POP POP JUMP JUMPDEST PUSH2 0x248A DUP2 PUSH2 0x2423 JUMP JUMPDEST DUP3 MSTORE POP POP JUMP JUMPDEST PUSH0 PUSH1 0x20 DUP3 ADD SWAP1 POP PUSH2 0x24A3 PUSH0 DUP4 ADD DUP5 PUSH2 0x2481 JUMP JUMPDEST SWAP3 SWAP2 POP POP JUMP JUMPDEST PUSH0 PUSH2 0x24B3 DUP3 PUSH2 0x2363 JUMP JUMPDEST SWAP1 POP SWAP2 SWAP1 POP JUMP JUMPDEST PUSH0 PUSH2 0x24C4 DUP3 PUSH2 0x24A9 JUMP JUMPDEST SWAP1 POP SWAP2 SWAP1 POP JUMP JUMPDEST PUSH2 0x24D4 DUP2 PUSH2 0x24BA JUMP JUMPDEST DUP3 MSTORE POP POP JUMP JUMPDEST PUSH0 PUSH1 0x20 DUP3 ADD SWAP1 POP PUSH2 0x24ED PUSH0 DUP4 ADD DUP5 PUSH2 0x24CB JUMP JUMPDEST SWAP3 SWAP2 POP POP JUMP JUMPDEST PUSH0 PUSH0 PUSH1 0x40 DUP4 DUP6 SUB SLT ISZERO PUSH2 0x2509 JUMPI PUSH2 0x2508 PUSH2 0x22A3 JUMP JUMPDEST JUMPDEST PUSH0 PUSH2 0x2516 DUP6 DUP3 DUP7 ADD PUSH2 0x2442 JUMP JUMPDEST SWAP3 POP POP PUSH1 0x20 PUSH2 0x2527 DUP6 DUP3 DUP7 ADD PUSH2 0x23E4 JUMP JUMPDEST SWAP2 POP POP SWAP3 POP SWAP3 SWAP1 POP JUMP JUMPDEST PUSH0 PUSH2 0x253B DUP3 PUSH2 0x2225 JUMP JUMPDEST SWAP1 POP SWAP2 SWAP1 POP JUMP JUMPDEST PUSH2 0x254B DUP2 PUSH2 0x2531 JUMP JUMPDEST DUP2 EQ PUSH2 0x2555 JUMPI PUSH0 PUSH0 REVERT JUMPDEST POP JUMP JUMPDEST PUSH0 DUP2 CALLDATALOAD SWAP1 POP PUSH2 0x2566 DUP2 PUSH2 0x2542 JUMP JUMPDEST SWAP3 SWAP2 POP POP JUMP JUMPDEST PUSH0 PUSH1 0x20 DUP3 DUP5 SUB SLT ISZERO PUSH2 0x2581 JUMPI PUSH2 0x2580 PUSH2 0x22A3 JUMP JUMPDEST JUMPDEST PUSH0 PUSH2 0x258E DUP5 DUP3 DUP6 ADD PUSH2 0x2558 JUMP JUMPDEST SWAP2 POP POP SWAP3 SWAP2 POP POP JUMP JUMPDEST PUSH0 DUP2 MLOAD SWAP1 POP SWAP2 SWAP1 POP JUMP JUMPDEST PUSH0 DUP3 DUP3 MSTORE PUSH1 0x20 DUP3 ADD SWAP1 POP SWAP3 SWAP2 POP POP JUMP JUMPDEST DUP3 DUP2 DUP4 MCOPY PUSH0 DUP4 DUP4 ADD MSTORE POP POP POP JUMP JUMPDEST PUSH0 PUSH1 0x1F NOT PUSH1 0x1F DUP4 ADD AND SWAP1 POP SWAP2 SWAP1 POP JUMP JUMPDEST PUSH0 PUSH2 0x25D9 DUP3 PUSH2 0x2597 JUMP JUMPDEST PUSH2 0x25E3 DUP2 DUP6 PUSH2 0x25A1 JUMP JUMPDEST SWAP4 POP PUSH2 0x25F3 DUP2 DUP6 PUSH1 0x20 DUP7 ADD PUSH2 0x25B1 JUMP JUMPDEST PUSH2 0x25FC DUP2 PUSH2 0x25BF JUMP JUMPDEST DUP5 ADD SWAP2 POP POP SWAP3 SWAP2 POP POP JUMP JUMPDEST PUSH0 PUSH1 0xA0 DUP3 ADD SWAP1 POP DUP2 DUP2 SUB PUSH0 DUP4 ADD MSTORE PUSH2 0x261F DUP2 DUP9 PUSH2 0x25CF JUMP JUMPDEST SWAP1 POP PUSH2 0x262E PUSH1 0x20 DUP4 ADD DUP8 PUSH2 0x2332 JUMP JUMPDEST PUSH2 0x263B PUSH1 0x40 DUP4 ADD DUP7 PUSH2 0x226D JUMP JUMPDEST PUSH2 0x2648 PUSH1 0x60 DUP4 ADD DUP6 PUSH2 0x226D JUMP JUMPDEST PUSH2 0x2655 PUSH1 0x80 DUP4 ADD DUP5 PUSH2 0x226D JUMP JUMPDEST SWAP7 SWAP6 POP POP POP POP POP POP JUMP JUMPDEST PUSH2 0x2668 DUP2 PUSH2 0x2264 JUMP JUMPDEST DUP2 EQ PUSH2 0x2672 JUMPI PUSH0 PUSH0 REVERT JUMPDEST POP JUMP JUMPDEST PUSH0 DUP2 CALLDATALOAD SWAP1 POP PUSH2 0x2683 DUP2 PUSH2 0x265F JUMP JUMPDEST SWAP3 SWAP2 POP POP JUMP JUMPDEST PUSH0 PUSH0 PUSH1 0x40 DUP4 DUP6 SUB SLT ISZERO PUSH2 0x269F JUMPI PUSH2 0x269E PUSH2 0x22A3 JUMP JUMPDEST JUMPDEST PUSH0 PUSH2 0x26AC DUP6 DUP3 DUP7 ADD PUSH2 0x23E4 JUMP JUMPDEST SWAP3 POP POP PUSH1 0x20 PUSH2 0x26BD DUP6 DUP3 DUP7 ADD PUSH2 0x2675 JUMP JUMPDEST SWAP2 POP POP SWAP3 POP SWAP3 SWAP1 POP JUMP JUMPDEST PUSH1 0x3 DUP2 LT PUSH2 0x26D3 JUMPI PUSH0 PUSH0 REVERT JUMPDEST POP JUMP JUMPDEST PUSH0 DUP2 CALLDATALOAD SWAP1 POP PUSH2 0x26E4 DUP2 PUSH2 0x26C7 JUMP JUMPDEST SWAP3 SWAP2 POP POP JUMP JUMPDEST PUSH0 PUSH0 PUSH0 PUSH0 PUSH1 0x80 DUP6 DUP8 SUB SLT ISZERO PUSH2 0x2702 JUMPI PUSH2 0x2701 PUSH2 0x22A3 JUMP JUMPDEST JUMPDEST PUSH0 PUSH2 0x270F DUP8 DUP3 DUP9 ADD PUSH2 0x23E4 JUMP JUMPDEST SWAP5 POP POP PUSH1 0x20 PUSH2 0x2720 DUP8 DUP3 DUP9 ADD PUSH2 0x2675 JUMP JUMPDEST SWAP4 POP POP PUSH1 0x40 PUSH2 0x2731 DUP8 DUP3 DUP9 ADD PUSH2 0x26D6 JUMP JUMPDEST SWAP3 POP POP PUSH1 0x60 PUSH2 0x2742 DUP8 DUP3 DUP9 ADD PUSH2 0x23E4 JUMP JUMPDEST SWAP2 POP POP SWAP3 SWAP6 SWAP2 SWAP5 POP SWAP3 POP JUMP JUMPDEST PUSH0 PUSH0 PUSH0 PUSH1 0x60 DUP5 DUP7 SUB SLT ISZERO PUSH2 0x2765 JUMPI PUSH2 0x2764 PUSH2 0x22A3 JUMP JUMPDEST JUMPDEST PUSH0 PUSH2 0x2772 DUP7 DUP3 DUP8 ADD PUSH2 0x23E4 JUMP JUMPDEST SWAP4 POP POP PUSH1 0x20 PUSH2 0x2783 DUP7 DUP3 DUP8 ADD PUSH2 0x23E4 JUMP JUMPDEST SWAP3 POP POP PUSH1 0x40 PUSH2 0x2794 DUP7 DUP3 DUP8 ADD PUSH2 0x2675 JUMP JUMPDEST SWAP2 POP POP SWAP3 POP SWAP3 POP SWAP3 JUMP JUMPDEST PUSH0 PUSH1 0x20 DUP3 ADD SWAP1 POP PUSH2 0x27B1 PUSH0 DUP4 ADD DUP5 PUSH2 0x226D JUMP JUMPDEST SWAP3 SWAP2 POP POP JUMP JUMPDEST PUSH0 PUSH2 0x27C1 DUP3 PUSH2 0x2384 JUMP JUMPDEST SWAP1 POP SWAP2 SWAP1 POP JUMP JUMPDEST PUSH2 0x27D1 DUP2 PUSH2 0x27B7 JUMP JUMPDEST DUP3 MSTORE POP POP JUMP JUMPDEST PUSH0 PUSH1 0x20 DUP3 ADD SWAP1 POP PUSH2 0x27EA PUSH0 DUP4 ADD DUP5 PUSH2 0x27C8 JUMP JUMPDEST SWAP3 SWAP2 POP POP JUMP JUMPDEST PUSH0 PUSH1 0x20 DUP3 ADD SWAP1 POP DUP2 DUP2 SUB PUSH0 DUP4 ADD MSTORE PUSH2 0x2808 DUP2 DUP5 PUSH2 0x25CF JUMP JUMPDEST SWAP1 POP SWAP3 SWAP2 POP POP JUMP JUMPDEST PUSH0 PUSH2 0x281A DUP3 PUSH2 0x2384 JUMP JUMPDEST SWAP1 POP SWAP2 SWAP1 POP JUMP JUMPDEST PUSH2 0x282A DUP2 PUSH2 0x2810 JUMP JUMPDEST DUP3 MSTORE POP POP JUMP JUMPDEST PUSH0 PUSH1 0x20 DUP3 ADD SWAP1 POP PUSH2 0x2843 PUSH0 DUP4 ADD DUP5 PUSH2 0x2821 JUMP JUMPDEST SWAP3 SWAP2 POP POP JUMP JUMPDEST PUSH32 0x4752414E545F48525F524F4C4500000000000000000000000000000000000000 PUSH0 DUP3 ADD MSTORE POP JUMP JUMPDEST PUSH0 PUSH2 0x287D PUSH1 0xD DUP4 PUSH2 0x25A1 JUMP JUMPDEST SWAP2 POP PUSH2 0x2888 DUP3 PUSH2 0x2849 JUMP JUMPDEST PUSH1 0x20 DUP3 ADD SWAP1 POP SWAP2 SWAP1 POP JUMP JUMPDEST PUSH0 DUP2 MLOAD SWAP1 POP SWAP2 SWAP1 POP JUMP JUMPDEST PUSH0 DUP3 DUP3 MSTORE PUSH1 0x20 DUP3 ADD SWAP1 POP SWAP3 SWAP2 POP POP JUMP JUMPDEST PUSH0 PUSH2 0x28B7 DUP3 PUSH2 0x2893 JUMP JUMPDEST PUSH2 0x28C1 DUP2 DUP6 PUSH2 0x289D JUMP JUMPDEST SWAP4 POP PUSH2 0x28D1 DUP2 DUP6 PUSH1 0x20 DUP7 ADD PUSH2 0x25B1 JUMP JUMPDEST PUSH2 0x28DA DUP2 PUSH2 0x25BF JUMP JUMPDEST DUP5 ADD SWAP2 POP POP SWAP3 SWAP2 POP POP JUMP JUMPDEST PUSH0 PUSH1 0x60 DUP3 ADD SWAP1 POP PUSH2 0x28F8 PUSH0 DUP4 ADD DUP6 PUSH2 0x2255 JUMP JUMPDEST DUP2 DUP2 SUB PUSH1 0x20 DUP4 ADD MSTORE PUSH2 0x2909 DUP2 PUSH2 0x2871 JUMP JUMPDEST SWAP1 POP DUP2 DUP2 SUB PUSH1 0x40 DUP4 ADD MSTORE PUSH2 0x291D DUP2 DUP5 PUSH2 0x28AD JUMP JUMPDEST SWAP1 POP SWAP4 SWAP3 POP POP POP JUMP JUMPDEST PUSH2 0x292F DUP2 PUSH2 0x2531 JUMP JUMPDEST DUP3 MSTORE POP POP JUMP JUMPDEST PUSH0 PUSH1 0x20 DUP3 ADD SWAP1 POP PUSH2 0x2948 PUSH0 DUP4 ADD DUP5 PUSH2 0x2926 JUMP JUMPDEST SWAP3 SWAP2 POP POP JUMP JUMPDEST PUSH32 0x546F6B656E4D616E616765720000000000000000000000000000000000000000 PUSH0 DUP3 ADD MSTORE POP JUMP JUMPDEST PUSH0 PUSH2 0x2982 PUSH1 0xC DUP4 PUSH2 0x25A1 JUMP JUMPDEST SWAP2 POP PUSH2 0x298D DUP3 PUSH2 0x294E JUMP JUMPDEST PUSH1 0x20 DUP3 ADD SWAP1 POP SWAP2 SWAP1 POP JUMP JUMPDEST PUSH0 PUSH2 0x29A2 DUP3 PUSH2 0x2384 JUMP JUMPDEST SWAP1 POP SWAP2 SWAP1 POP JUMP JUMPDEST PUSH2 0x29B2 DUP2 PUSH2 0x2998 JUMP JUMPDEST DUP3 MSTORE POP POP JUMP JUMPDEST PUSH0 PUSH1 0x60 DUP3 ADD SWAP1 POP DUP2 DUP2 SUB PUSH0 DUP4 ADD MSTORE PUSH2 0x29CF DUP2 PUSH2 0x2976 JUMP JUMPDEST SWAP1 POP PUSH2 0x29DE PUSH1 0x20 DUP4 ADD DUP6 PUSH2 0x2255 JUMP JUMPDEST PUSH2 0x29EB PUSH1 0x40 DUP4 ADD DUP5 PUSH2 0x29A9 JUMP JUMPDEST SWAP4 SWAP3 POP POP POP JUMP JUMPDEST PUSH32 0x454D455247454E43595F554E5041555345000000000000000000000000000000 PUSH0 DUP3 ADD MSTORE POP JUMP JUMPDEST PUSH0 PUSH2 0x2A26 PUSH1 0x11 DUP4 PUSH2 0x25A1 JUMP JUMPDEST SWAP2 POP PUSH2 0x2A31 DUP3 PUSH2 0x29F2 JUMP JUMPDEST PUSH1 0x20 DUP3 ADD SWAP1 POP SWAP2 SWAP1 POP JUMP JUMPDEST PUSH0 PUSH1 0x60 DUP3 ADD SWAP1 POP PUSH2 0x2A4F PUSH0 DUP4 ADD DUP6 PUSH2 0x2255 JUMP JUMPDEST DUP2 DUP2 SUB PUSH1 0x20 DUP4 ADD MSTORE PUSH2 0x2A60 DUP2 PUSH2 0x2A1A JUMP JUMPDEST SWAP1 POP DUP2 DUP2 SUB PUSH1 0x40 DUP4 ADD MSTORE PUSH2 0x2A74 DUP2 DUP5 PUSH2 0x28AD JUMP JUMPDEST SWAP1 POP SWAP4 SWAP3 POP POP POP JUMP JUMPDEST PUSH0 DUP2 MLOAD SWAP1 POP PUSH2 0x2A8B DUP2 PUSH2 0x265F JUMP JUMPDEST SWAP3 SWAP2 POP POP JUMP JUMPDEST PUSH0 PUSH1 0x20 DUP3 DUP5 SUB SLT ISZERO PUSH2 0x2AA6 JUMPI PUSH2 0x2AA5 PUSH2 0x22A3 JUMP JUMPDEST JUMPDEST PUSH0 PUSH2 0x2AB3 DUP5 DUP3 DUP6 ADD PUSH2 0x2A7D JUMP JUMPDEST SWAP2 POP POP SWAP3 SWAP2 POP POP JUMP JUMPDEST PUSH32 0x4E487B7100000000000000000000000000000000000000000000000000000000 PUSH0 MSTORE PUSH1 0x22 PUSH1 0x4 MSTORE PUSH1 0x24 PUSH0 REVERT JUMPDEST PUSH0 PUSH1 0x2 DUP3 DIV SWAP1 POP PUSH1 0x1 DUP3 AND DUP1 PUSH2 0x2B00 JUMPI PUSH1 0x7F DUP3 AND SWAP2 POP JUMPDEST PUSH1 0x20 DUP3 LT DUP2 SUB PUSH2 0x2B13 JUMPI PUSH2 0x2B12 PUSH2 0x2ABC JUMP JUMPDEST JUMPDEST POP SWAP2 SWAP1 POP JUMP JUMPDEST PUSH32 0x454D455247454E43595F50415553450000000000000000000000000000000000 PUSH0 DUP3 ADD MSTORE POP JUMP JUMPDEST PUSH0 PUSH2 0x2B4D PUSH1 0xF DUP4 PUSH2 0x25A1 JUMP JUMPDEST SWAP2 POP PUSH2 0x2B58 DUP3 PUSH2 0x2B19 JUMP JUMPDEST PUSH1 0x20 DUP3 ADD SWAP1 POP SWAP2 SWAP1 POP JUMP JUMPDEST PUSH0 PUSH1 0x60 DUP3 ADD SWAP1 POP PUSH2 0x2B76 PUSH0 DUP4 ADD DUP6 PUSH2 0x2255 JUMP JUMPDEST DUP2 DUP2 SUB PUSH1 0x20 DUP4 ADD MSTORE PUSH2 0x2B87 DUP2 PUSH2 0x2B41 JUMP JUMPDEST SWAP1 POP DUP2 DUP2 SUB PUSH1 0x40 DUP4 ADD MSTORE PUSH2 0x2B9B DUP2 DUP5 PUSH2 0x28AD JUMP JUMPDEST SWAP1 POP SWAP4 SWAP3 POP POP POP JUMP JUMPDEST PUSH32 0x52657175697265732061646D696E206F722066696E616E636520726F6C650000 PUSH0 DUP3 ADD MSTORE POP JUMP JUMPDEST PUSH0 PUSH2 0x2BD8 PUSH1 0x1E DUP4 PUSH2 0x25A1 JUMP JUMPDEST SWAP2 POP PUSH2 0x2BE3 DUP3 PUSH2 0x2BA4 JUMP JUMPDEST PUSH1 0x20 DUP3 ADD SWAP1 POP SWAP2 SWAP1 POP JUMP JUMPDEST PUSH0 PUSH1 0x20 DUP3 ADD SWAP1 POP DUP2 DUP2 SUB PUSH0 DUP4 ADD MSTORE PUSH2 0x2C05 DUP2 PUSH2 0x2BCC JUMP JUMPDEST SWAP1 POP SWAP2 SWAP1 POP JUMP JUMPDEST PUSH0 PUSH1 0x20 DUP3 ADD SWAP1 POP PUSH2 0x2C1F PUSH0 DUP4 ADD DUP5 PUSH2 0x2255 JUMP JUMPDEST SWAP3 SWAP2 POP POP JUMP JUMPDEST PUSH32 0x456D706C6F7965654D616E616765720000000000000000000000000000000000 PUSH0 DUP3 ADD MSTORE POP JUMP JUMPDEST PUSH0 PUSH2 0x2C59 PUSH1 0xF DUP4 PUSH2 0x25A1 JUMP JUMPDEST SWAP2 POP PUSH2 0x2C64 DUP3 PUSH2 0x2C25 JUMP JUMPDEST PUSH1 0x20 DUP3 ADD SWAP1 POP SWAP2 SWAP1 POP JUMP JUMPDEST PUSH0 PUSH1 0x60 DUP3 ADD SWAP1 POP DUP2 DUP2 SUB PUSH0 DUP4 ADD MSTORE PUSH2 0x2C86 DUP2 PUSH2 0x2C4D JUMP JUMPDEST SWAP1 POP PUSH2 0x2C95 PUSH1 0x20 DUP4 ADD DUP6 PUSH2 0x2255 JUMP JUMPDEST PUSH2 0x2CA2 PUSH1 0x40 DUP4 ADD DUP5 PUSH2 0x2255 JUMP JUMPDEST SWAP4 SWAP3 POP POP POP JUMP JUMPDEST PUSH32 0x52657175697265732061646D696E206F7220485220726F6C6500000000000000 PUSH0 DUP3 ADD MSTORE POP JUMP JUMPDEST PUSH0 PUSH2 0x2CDD PUSH1 0x19 DUP4 PUSH2 0x25A1 JUMP JUMPDEST SWAP2 POP PUSH2 0x2CE8 DUP3 PUSH2 0x2CA9 JUMP JUMPDEST PUSH1 0x20 DUP3 ADD SWAP1 POP SWAP2 SWAP1 POP JUMP JUMPDEST PUSH0 PUSH1 0x20 DUP3 ADD SWAP1 POP DUP2 DUP2 SUB PUSH0 DUP4 ADD MSTORE PUSH2 0x2D0A DUP2 PUSH2 0x2CD1 JUMP JUMPDEST SWAP1 POP SWAP2 SWAP1 POP JUMP JUMPDEST PUSH32 0x4E487B7100000000000000000000000000000000000000000000000000000000 PUSH0 MSTORE PUSH1 0x21 PUSH1 0x4 MSTORE PUSH1 0x24 PUSH0 REVERT JUMPDEST PUSH1 0x3 DUP2 LT PUSH2 0x2D4F JUMPI PUSH2 0x2D4E PUSH2 0x2D11 JUMP JUMPDEST JUMPDEST POP JUMP JUMPDEST PUSH0 DUP2 SWAP1 POP PUSH2 0x2D5F DUP3 PUSH2 0x2D3E JUMP JUMPDEST SWAP2 SWAP1 POP JUMP JUMPDEST PUSH0 PUSH2 0x2D6E DUP3 PUSH2 0x2D52 JUMP JUMPDEST SWAP1 POP SWAP2 SWAP1 POP JUMP JUMPDEST PUSH2 0x2D7E DUP2 PUSH2 0x2D64 JUMP JUMPDEST DUP3 MSTORE POP POP JUMP JUMPDEST PUSH0 PUSH1 0x80 DUP3 ADD SWAP1 POP PUSH2 0x2D97 PUSH0 DUP4 ADD DUP8 PUSH2 0x2255 JUMP JUMPDEST PUSH2 0x2DA4 PUSH1 0x20 DUP4 ADD DUP7 PUSH2 0x226D JUMP JUMPDEST PUSH2 0x2DB1 PUSH1 0x40 DUP4 ADD DUP6 PUSH2 0x2D75 JUMP JUMPDEST PUSH2 0x2DBE PUSH1 0x60 DUP4 ADD DUP5 PUSH2 0x2255 JUMP JUMPDEST SWAP6 SWAP5 POP POP POP POP POP JUMP JUMPDEST PUSH0 PUSH1 0xA0 DUP3 ADD SWAP1 POP PUSH2 0x2DDA PUSH0 DUP4 ADD DUP9 PUSH2 0x2255 JUMP JUMPDEST PUSH2 0x2DE7 PUSH1 0x20 DUP4 ADD DUP8 PUSH2 0x226D JUMP JUMPDEST PUSH2 0x2DF4 PUSH1 0x40 DUP4 ADD DUP7 PUSH2 0x2D75 JUMP JUMPDEST PUSH2 0x2E01 PUSH1 0x60 DUP4 ADD DUP6 PUSH2 0x2255 JUMP JUMPDEST PUSH2 0x2E0E PUSH1 0x80 DUP4 ADD DUP5 PUSH2 0x226D JUMP JUMPDEST SWAP7 SWAP6 POP POP POP POP POP POP JUMP JUMPDEST PUSH32 0x454D504C4F5945455F4144444544000000000000000000000000000000000000 PUSH0 DUP3 ADD MSTORE POP JUMP JUMPDEST PUSH0 PUSH2 0x2E4C PUSH1 0xE DUP4 PUSH2 0x25A1 JUMP JUMPDEST SWAP2 POP PUSH2 0x2E57 DUP3 PUSH2 0x2E18 JUMP JUMPDEST PUSH1 0x20 DUP3 ADD SWAP1 POP SWAP2 SWAP1 POP JUMP JUMPDEST PUSH0 PUSH1 0x60 DUP3 ADD SWAP1 POP PUSH2 0x2E75 PUSH0 DUP4 ADD DUP6 PUSH2 0x2255 JUMP JUMPDEST DUP2 DUP2 SUB PUSH1 0x20 DUP4 ADD MSTORE PUSH2 0x2E86 DUP2 PUSH2 0x2E40 JUMP JUMPDEST SWAP1 POP DUP2 DUP2 SUB PUSH1 0x40 DUP4 ADD MSTORE PUSH2 0x2E9A DUP2 DUP5 PUSH2 0x28AD JUMP JUMPDEST SWAP1 POP SWAP4 SWAP3 POP POP POP JUMP JUMPDEST PUSH32 0x496E76616C696420726563697069656E74000000000000000000000000000000 PUSH0 DUP3 ADD MSTORE POP JUMP JUMPDEST PUSH0 PUSH2 0x2ED7 PUSH1 0x11 DUP4 PUSH2 0x25A1 JUMP JUMPDEST SWAP2 POP PUSH2 0x2EE2 DUP3 PUSH2 0x2EA3 JUMP JUMPDEST PUSH1 0x20 DUP3 ADD SWAP1 POP SWAP2 SWAP1 POP JUMP JUMPDEST PUSH0 PUSH1 0x20 DUP3 ADD SWAP1 POP DUP2 DUP2 SUB PUSH0 DUP4 ADD MSTORE PUSH2 0x2F04 DUP2 PUSH2 0x2ECB JUMP JUMPDEST SWAP1 POP SWAP2 SWAP1 POP JUMP JUMPDEST PUSH32 0x496E73756666696369656E74204554482062616C616E63650000000000000000 PUSH0 DUP3 ADD MSTORE POP JUMP JUMPDEST PUSH0 PUSH2 0x2F3F PUSH1 0x18 DUP4 PUSH2 0x25A1 JUMP JUMPDEST SWAP2 POP PUSH2 0x2F4A DUP3 PUSH2 0x2F0B JUMP JUMPDEST PUSH1 0x20 DUP3 ADD SWAP1 POP SWAP2 SWAP1 POP JUMP JUMPDEST PUSH0 PUSH1 0x20 DUP3 ADD SWAP1 POP DUP2 DUP2 SUB PUSH0 DUP4 ADD MSTORE PUSH2 0x2F6C DUP2 PUSH2 0x2F33 JUMP JUMPDEST SWAP1 POP SWAP2 SWAP1 POP JUMP JUMPDEST PUSH0 PUSH1 0x80 DUP3 ADD SWAP1 POP PUSH2 0x2F86 PUSH0 DUP4 ADD DUP8 PUSH2 0x2255 JUMP JUMPDEST PUSH2 0x2F93 PUSH1 0x20 DUP4 ADD DUP7 PUSH2 0x2255 JUMP JUMPDEST PUSH2 0x2FA0 PUSH1 0x40 DUP4 ADD DUP6 PUSH2 0x226D JUMP JUMPDEST PUSH2 0x2FAD PUSH1 0x60 DUP4 ADD DUP5 PUSH2 0x226D JUMP JUMPDEST SWAP6 SWAP5 POP POP POP POP POP JUMP JUMPDEST PUSH32 0x454D455247454E43595F57495448445241570000000000000000000000000000 PUSH0 DUP3 ADD MSTORE POP JUMP JUMPDEST PUSH0 PUSH2 0x2FEA PUSH1 0x12 DUP4 PUSH2 0x25A1 JUMP JUMPDEST SWAP2 POP PUSH2 0x2FF5 DUP3 PUSH2 0x2FB6 JUMP JUMPDEST PUSH1 0x20 DUP3 ADD SWAP1 POP SWAP2 SWAP1 POP JUMP JUMPDEST PUSH0 PUSH1 0x60 DUP3 ADD SWAP1 POP PUSH2 0x3013 PUSH0 DUP4 ADD DUP6 PUSH2 0x2255 JUMP JUMPDEST DUP2 DUP2 SUB PUSH1 0x20 DUP4 ADD MSTORE PUSH2 0x3024 DUP2 PUSH2 0x2FDE JUMP JUMPDEST SWAP1 POP DUP2 DUP2 SUB PUSH1 0x40 DUP4 ADD MSTORE PUSH2 0x3038 DUP2 DUP5 PUSH2 0x28AD JUMP JUMPDEST SWAP1 POP SWAP4 SWAP3 POP POP POP JUMP JUMPDEST PUSH32 0x4752414E545F46494E414E43455F524F4C450000000000000000000000000000 PUSH0 DUP3 ADD MSTORE POP JUMP JUMPDEST PUSH0 PUSH2 0x3075 PUSH1 0x12 DUP4 PUSH2 0x25A1 JUMP JUMPDEST SWAP2 POP PUSH2 0x3080 DUP3 PUSH2 0x3041 JUMP JUMPDEST PUSH1 0x20 DUP3 ADD SWAP1 POP SWAP2 SWAP1 POP JUMP JUMPDEST PUSH0 PUSH1 0x60 DUP3 ADD SWAP1 POP PUSH2 0x309E PUSH0 DUP4 ADD DUP6 PUSH2 0x2255 JUMP JUMPDEST DUP2 DUP2 SUB PUSH1 0x20 DUP4 ADD MSTORE PUSH2 0x30AF DUP2 PUSH2 0x3069 JUMP JUMPDEST SWAP1 POP DUP2 DUP2 SUB PUSH1 0x40 DUP4 ADD MSTORE PUSH2 0x30C3 DUP2 DUP5 PUSH2 0x28AD JUMP JUMPDEST SWAP1 POP SWAP4 SWAP3 POP POP POP JUMP JUMPDEST PUSH32 0x4752414E545F454D504C4F5945455F524F4C4500000000000000000000000000 PUSH0 DUP3 ADD MSTORE POP JUMP JUMPDEST PUSH0 PUSH2 0x3100 PUSH1 0x13 DUP4 PUSH2 0x25A1 JUMP JUMPDEST SWAP2 POP PUSH2 0x310B DUP3 PUSH2 0x30CC JUMP JUMPDEST PUSH1 0x20 DUP3 ADD SWAP1 POP SWAP2 SWAP1 POP JUMP JUMPDEST PUSH0 PUSH1 0x60 DUP3 ADD SWAP1 POP PUSH2 0x3129 PUSH0 DUP4 ADD DUP6 PUSH2 0x2255 JUMP JUMPDEST DUP2 DUP2 SUB PUSH1 0x20 DUP4 ADD MSTORE PUSH2 0x313A DUP2 PUSH2 0x30F4 JUMP JUMPDEST SWAP1 POP DUP2 DUP2 SUB PUSH1 0x40 DUP4 ADD MSTORE PUSH2 0x314E DUP2 DUP5 PUSH2 0x28AD JUMP JUMPDEST SWAP1 POP SWAP4 SWAP3 POP POP POP JUMP JUMPDEST PUSH32 0x5061796D656E7450726F636573736F7200000000000000000000000000000000 PUSH0 DUP3 ADD MSTORE POP JUMP JUMPDEST PUSH0 PUSH2 0x318B PUSH1 0x10 DUP4 PUSH2 0x25A1 JUMP JUMPDEST SWAP2 POP PUSH2 0x3196 DUP3 PUSH2 0x3157 JUMP JUMPDEST PUSH1 0x20 DUP3 ADD SWAP1 POP SWAP2 SWAP1 POP JUMP JUMPDEST PUSH0 PUSH1 0x60 DUP3 ADD SWAP1 POP DUP2 DUP2 SUB PUSH0 DUP4 ADD MSTORE PUSH2 0x31B8 DUP2 PUSH2 0x317F JUMP JUMPDEST SWAP1 POP PUSH2 0x31C7 PUSH1 0x20 DUP4 ADD DUP6 PUSH2 0x2255 JUMP JUMPDEST PUSH2 0x31D4 PUSH1 0x40 DUP4 ADD DUP5 PUSH2 0x2255 JUMP JUMPDEST SWAP4 SWAP3 POP POP POP JUMP JUMPDEST PUSH32 0x5061757361626C653A2070617573656400000000000000000000000000000000 PUSH0 DUP3 ADD MSTORE POP JUMP JUMPDEST PUSH0 PUSH2 0x320F PUSH1 0x10 DUP4 PUSH2 0x25A1 JUMP JUMPDEST SWAP2 POP PUSH2 0x321A DUP3 PUSH2 0x31DB JUMP JUMPDEST PUSH1 0x20 DUP3 ADD SWAP1 POP SWAP2 SWAP1 POP JUMP JUMPDEST PUSH0 PUSH1 0x20 DUP3 ADD SWAP1 POP DUP2 DUP2 SUB PUSH0 DUP4 ADD MSTORE PUSH2 0x323C DUP2 PUSH2 0x3203 JUMP JUMPDEST SWAP1 POP SWAP2 SWAP1 POP JUMP JUMPDEST PUSH32 0x5265656E7472616E637947756172643A207265656E7472616E742063616C6C00 PUSH0 DUP3 ADD MSTORE POP JUMP JUMPDEST PUSH0 PUSH2 0x3277 PUSH1 0x1F DUP4 PUSH2 0x25A1 JUMP JUMPDEST SWAP2 POP PUSH2 0x3282 DUP3 PUSH2 0x3243 JUMP JUMPDEST PUSH1 0x20 DUP3 ADD SWAP1 POP SWAP2 SWAP1 POP JUMP JUMPDEST PUSH0 PUSH1 0x20 DUP3 ADD SWAP1 POP DUP2 DUP2 SUB PUSH0 DUP4 ADD MSTORE PUSH2 0x32A4 DUP2 PUSH2 0x326B JUMP JUMPDEST SWAP1 POP SWAP2 SWAP1 POP JUMP JUMPDEST PUSH32 0x5061757361626C653A206E6F7420706175736564000000000000000000000000 PUSH0 DUP3 ADD MSTORE POP JUMP JUMPDEST PUSH0 PUSH2 0x32DF PUSH1 0x14 DUP4 PUSH2 0x25A1 JUMP JUMPDEST SWAP2 POP PUSH2 0x32EA DUP3 PUSH2 0x32AB JUMP JUMPDEST PUSH1 0x20 DUP3 ADD SWAP1 POP SWAP2 SWAP1 POP JUMP JUMPDEST PUSH0 PUSH1 0x20 DUP3 ADD SWAP1 POP DUP2 DUP2 SUB PUSH0 DUP4 ADD MSTORE PUSH2 0x330C DUP2 PUSH2 0x32D3 JUMP JUMPDEST SWAP1 POP SWAP2 SWAP1 POP JUMP JUMPDEST PUSH0 PUSH1 0x40 DUP3 ADD SWAP1 POP PUSH2 0x3326 PUSH0 DUP4 ADD DUP6 PUSH2 0x2255 JUMP JUMPDEST PUSH2 0x3333 PUSH1 0x20 DUP4 ADD DUP5 PUSH2 0x2481 JUMP JUMPDEST SWAP4 SWAP3 POP POP POP JUMP INVALID LOG2 PUSH5 0x6970667358 0x22 SLT KECCAK256 0x2C SAR 0x28 SWAP13 0xBC NUMBER SWAP12 0xAD ADDMOD PUSH25 0x7BA48A31B7FB62D03BC291A3EF34DB85BCDE2EDFC1C264736F PUSH13 0x634300081E0033608060405234 DUP1 ISZERO PUSH2 0xF JUMPI PUSH0 PUSH0 REVERT JUMPDEST POP PUSH1 0x40 MLOAD PUSH2 0x54C0 CODESIZE SUB DUP1 PUSH2 0x54C0 DUP4 CODECOPY DUP2 DUP2 ADD PUSH1 0x40 MSTORE DUP2 ADD SWAP1 PUSH2 0x31 SWAP2 SWAP1 PUSH2 0xDC JUMP JUMPDEST PUSH1 0x1 DUP1 DUP2 SWAP1 SSTORE POP DUP1 PUSH1 0x2 PUSH0 PUSH2 0x100 EXP DUP2 SLOAD DUP2 PUSH20 0xFFFFFFFFFFFFFFFFFFFFFFFFFFFFFFFFFFFFFFFF MUL NOT AND SWAP1 DUP4 PUSH20 0xFFFFFFFFFFFFFFFFFFFFFFFFFFFFFFFFFFFFFFFF AND MUL OR SWAP1 SSTORE POP POP PUSH2 0x107 JUMP JUMPDEST PUSH0 PUSH0 REVERT JUMPDEST PUSH0 PUSH20 0xFFFFFFFFFFFFFFFFFFFFFFFFFFFFFFFFFFFFFFFF DUP3 AND SWAP1 POP SWAP2 SWAP1 POP JUMP JUMPDEST PUSH0 PUSH2 0xAB DUP3 PUSH2 0x82 JUMP JUMPDEST SWAP1 POP SWAP2 SWAP1 POP JUMP JUMPDEST PUSH2 0xBB DUP2 PUSH2 0xA1 JUMP JUMPDEST DUP2 EQ PUSH2 0xC5 JUMPI PUSH0 PUSH0 REVERT JUMPDEST POP JUMP JUMPDEST PUSH0 DUP2 MLOAD SWAP1 POP PUSH2 0xD6 DUP2 PUSH2 0xB2 JUMP JUMPDEST SWAP3 SWAP2 POP POP JUMP JUMPDEST PUSH0 PUSH1 0x20 DUP3 DUP5 SUB SLT ISZERO PUSH2 0xF1 JUMPI PUSH2 0xF0 PUSH2 0x7E JUMP JUMPDEST JUMPDEST PUSH0 PUSH2 0xFE DUP5 DUP3 DUP6 ADD PUSH2 0xC8 JUMP JUMPDEST SWAP2 POP POP SWAP3 SWAP2 POP POP JUMP JUMPDEST PUSH2 0x53AC DUP1 PUSH2 0x114 PUSH0 CODECOPY PUSH0 RETURN INVALID PUSH1 0x80 PUSH1 0x40 MSTORE CALLVALUE DUP1 ISZERO PUSH2 0xF JUMPI PUSH0 PUSH0 REVERT JUMPDEST POP PUSH1 0x4 CALLDATASIZE LT PUSH2 0x1D8 JUMPI PUSH0 CALLDATALOAD PUSH1 0xE0 SHR DUP1 PUSH4 0x798409D8 GT PUSH2 0x102 JUMPI DUP1 PUSH4 0xC11D2D18 GT PUSH2 0xA0 JUMPI DUP1 PUSH4 0xE1FE7636 GT PUSH2 0x6F JUMPI DUP1 PUSH4 0xE1FE7636 EQ PUSH2 0x5AB JUMPI DUP1 PUSH4 0xE2D82B45 EQ PUSH2 0x5C7 JUMPI DUP1 PUSH4 0xF2C7009C EQ PUSH2 0x5E3 JUMPI DUP1 PUSH4 0xF3C6A198 EQ PUSH2 0x618 JUMPI PUSH2 0x1D8 JUMP JUMPDEST DUP1 PUSH4 0xC11D2D18 EQ PUSH2 0x51C JUMPI DUP1 PUSH4 0xCEFB8B92 EQ PUSH2 0x538 JUMPI DUP1 PUSH4 0xD0678947 EQ PUSH2 0x554 JUMPI DUP1 PUSH4 0xD547741F EQ PUSH2 0x58F JUMPI PUSH2 0x1D8 JUMP JUMPDEST DUP1 PUSH4 0xA1C7C1A6 GT PUSH2 0xDC JUMPI DUP1 PUSH4 0xA1C7C1A6 EQ PUSH2 0x494 JUMPI DUP1 PUSH4 0xA217FDDF EQ PUSH2 0x4B2 JUMPI DUP1 PUSH4 0xB1189BA6 EQ PUSH2 0x4D0 JUMPI DUP1 PUSH4 0xB503ABE4 EQ PUSH2 0x500 JUMPI PUSH2 0x1D8 JUMP JUMPDEST DUP1 PUSH4 0x798409D8 EQ PUSH2 0x418 JUMPI DUP1 PUSH4 0x91D14854 EQ PUSH2 0x434 JUMPI DUP1 PUSH4 0x97AD7E02 EQ PUSH2 0x464 JUMPI PUSH2 0x1D8 JUMP JUMPDEST DUP1 PUSH4 0x48F47726 GT PUSH2 0x17A JUMPI DUP1 PUSH4 0x6DDBABFE GT PUSH2 0x149 JUMPI DUP1 PUSH4 0x6DDBABFE EQ PUSH2 0x37E JUMPI DUP1 PUSH4 0x7521720B EQ PUSH2 0x39A JUMPI DUP1 PUSH4 0x75B238FC EQ PUSH2 0x3CA JUMPI DUP1 PUSH4 0x774B2535 EQ PUSH2 0x3E8 JUMPI PUSH2 0x1D8 JUMP JUMPDEST DUP1 PUSH4 0x48F47726 EQ PUSH2 0x2F6 JUMPI DUP1 PUSH4 0x5339C995 EQ PUSH2 0x326 JUMPI DUP1 PUSH4 0x5DD38BFA EQ PUSH2 0x344 JUMPI DUP1 PUSH4 0x6A663E18 EQ PUSH2 0x362 JUMPI PUSH2 0x1D8 JUMP JUMPDEST DUP1 PUSH4 0x32648E09 GT PUSH2 0x1B6 JUMPI DUP1 PUSH4 0x32648E09 EQ PUSH2 0x258 JUMPI DUP1 PUSH4 0x349B5954 EQ PUSH2 0x288 JUMPI DUP1 PUSH4 0x36568ABE EQ PUSH2 0x2A6 JUMPI DUP1 PUSH4 0x3EF9572B EQ PUSH2 0x2C2 JUMPI PUSH2 0x1D8 JUMP JUMPDEST DUP1 PUSH4 0x1FFC9A7 EQ PUSH2 0x1DC JUMPI DUP1 PUSH4 0x248A9CA3 EQ PUSH2 0x20C JUMPI DUP1 PUSH4 0x2F2FF15D EQ PUSH2 0x23C JUMPI JUMPDEST PUSH0 PUSH0 REVERT JUMPDEST PUSH2 0x1F6 PUSH1 0x4 DUP1 CALLDATASIZE SUB DUP2 ADD SWAP1 PUSH2 0x1F1 SWAP2 SWAP1 PUSH2 0x3C4F JUMP JUMPDEST PUSH2 0x636 JUMP JUMPDEST PUSH1 0x40 MLOAD PUSH2 0x203 SWAP2 SWAP1 PUSH2 0x3C94 JUMP JUMPDEST PUSH1 0x40 MLOAD DUP1 SWAP2 SUB SWAP1 RETURN JUMPDEST PUSH2 0x226 PUSH1 0x4 DUP1 CALLDATASIZE SUB DUP2 ADD SWAP1 PUSH2 0x221 SWAP2 SWAP1 PUSH2 0x3CE0 JUMP JUMPDEST PUSH2 0x6AF JUMP JUMPDEST PUSH1 0x40 MLOAD PUSH2 0x233 SWAP2 SWAP1 PUSH2 0x3D1A JUMP JUMPDEST PUSH1 0x40 MLOAD DUP1 SWAP2 SUB SWAP1 RETURN JUMPDEST PUSH2 0x256 PUSH1 0x4 DUP1 CALLDATASIZE SUB DUP2 ADD SWAP1 PUSH2 0x251 SWAP2 SWAP1 PUSH2 0x3D8D JUMP JUMPDEST PUSH2 0x6CB JUMP JUMPDEST STOP JUMPDEST PUSH2 0x272 PUSH1 0x4 DUP1 CALLDATASIZE SUB DUP2 ADD SWAP1 PUSH2 0x26D SWAP2 SWAP1 PUSH2 0x3DCB JUMP JUMPDEST PUSH2 0x6ED JUMP JUMPDEST PUSH1 0x40 MLOAD PUSH2 0x27F SWAP2 SWAP1 PUSH2 0x3FAB JUMP JUMPDEST PUSH1 0x40 MLOAD DUP1 SWAP2 SUB SWAP1 RETURN JUMPDEST PUSH2 0x290 PUSH2 0x8A4 JUMP JUMPDEST PUSH1 0x40 MLOAD PUSH2 0x29D SWAP2 SWAP1 PUSH2 0x3D1A JUMP JUMPDEST PUSH1 0x40 MLOAD DUP1 SWAP2 SUB SWAP1 RETURN JUMPDEST PUSH2 0x2C0 PUSH1 0x4 DUP1 CALLDATASIZE SUB DUP2 ADD SWAP1 PUSH2 0x2BB SWAP2 SWAP1 PUSH2 0x3D8D JUMP JUMPDEST PUSH2 0x8C8 JUMP JUMPDEST STOP JUMPDEST PUSH2 0x2DC PUSH1 0x4 DUP1 CALLDATASIZE SUB DUP2 ADD SWAP1 PUSH2 0x2D7 SWAP2 SWAP1 PUSH2 0x3FEF JUMP JUMPDEST PUSH2 0x943 JUMP JUMPDEST PUSH1 0x40 MLOAD PUSH2 0x2ED SWAP6 SWAP5 SWAP4 SWAP3 SWAP2 SWAP1 PUSH2 0x40CA JUMP JUMPDEST PUSH1 0x40 MLOAD DUP1 SWAP2 SUB SWAP1 RETURN JUMPDEST PUSH2 0x310 PUSH1 0x4 DUP1 CALLDATASIZE SUB DUP2 ADD SWAP1 PUSH2 0x30B SWAP2 SWAP1 PUSH2 0x3DCB JUMP JUMPDEST PUSH2 0xA41 JUMP JUMPDEST PUSH1 0x40 MLOAD PUSH2 0x31D SWAP2 SWAP1 PUSH2 0x4298 JUMP JUMPDEST PUSH1 0x40 MLOAD DUP1 SWAP2 SUB SWAP1 RETURN JUMPDEST PUSH2 0x32E PUSH2 0xBED JUMP JUMPDEST PUSH1 0x40 MLOAD PUSH2 0x33B SWAP2 SWAP1 PUSH2 0x42B8 JUMP JUMPDEST PUSH1 0x40 MLOAD DUP1 SWAP2 SUB SWAP1 RETURN JUMPDEST PUSH2 0x34C PUSH2 0xCB6 JUMP JUMPDEST PUSH1 0x40 MLOAD PUSH2 0x359 SWAP2 SWAP1 PUSH2 0x4379 JUMP JUMPDEST PUSH1 0x40 MLOAD DUP1 SWAP2 SUB SWAP1 RETURN JUMPDEST PUSH2 0x37C PUSH1 0x4 DUP1 CALLDATASIZE SUB DUP2 ADD SWAP1 PUSH2 0x377 SWAP2 SWAP1 PUSH2 0x3DCB JUMP JUMPDEST PUSH2 0xF18 JUMP JUMPDEST STOP JUMPDEST PUSH2 0x398 PUSH1 0x4 DUP1 CALLDATASIZE SUB DUP2 ADD SWAP1 PUSH2 0x393 SWAP2 SWAP1 PUSH2 0x3FEF JUMP JUMPDEST PUSH2 0x120A JUMP JUMPDEST STOP JUMPDEST PUSH2 0x3B4 PUSH1 0x4 DUP1 CALLDATASIZE SUB DUP2 ADD SWAP1 PUSH2 0x3AF SWAP2 SWAP1 PUSH2 0x4399 JUMP JUMPDEST PUSH2 0x160A JUMP JUMPDEST PUSH1 0x40 MLOAD PUSH2 0x3C1 SWAP2 SWAP1 PUSH2 0x43C4 JUMP JUMPDEST PUSH1 0x40 MLOAD DUP1 SWAP2 SUB SWAP1 RETURN JUMPDEST PUSH2 0x3D2 PUSH2 0x1645 JUMP JUMPDEST PUSH1 0x40 MLOAD PUSH2 0x3DF SWAP2 SWAP1 PUSH2 0x3D1A JUMP JUMPDEST PUSH1 0x40 MLOAD DUP1 SWAP2 SUB SWAP1 RETURN JUMPDEST PUSH2 0x402 PUSH1 0x4 DUP1 CALLDATASIZE SUB DUP2 ADD SWAP1 PUSH2 0x3FD SWAP2 SWAP1 PUSH2 0x3DCB JUMP JUMPDEST PUSH2 0x1669 JUMP JUMPDEST PUSH1 0x40 MLOAD PUSH2 0x40F SWAP2 SWAP1 PUSH2 0x42B8 JUMP JUMPDEST PUSH1 0x40 MLOAD DUP1 SWAP2 SUB SWAP1 RETURN JUMPDEST PUSH2 0x432 PUSH1 0x4 DUP1 CALLDATASIZE SUB DUP2 ADD SWAP1 PUSH2 0x42D SWAP2 SWAP1 PUSH2 0x3FEF JUMP JUMPDEST PUSH2 0x1A69 JUMP JUMPDEST STOP JUMPDEST PUSH2 0x44E PUSH1 0x4 DUP1 CALLDATASIZE SUB DUP2 ADD SWAP1 PUSH2 0x449 SWAP2 SWAP1 PUSH2 0x3D8D JUMP JUMPDEST PUSH2 0x1FD1 JUMP JUMPDEST PUSH1 0x40 MLOAD PUSH2 0x45B SWAP2 SWAP1 PUSH2 0x3C94 JUMP JUMPDEST PUSH1 0x40 MLOAD DUP1 SWAP2 SUB SWAP1 RETURN JUMPDEST PUSH2 0x47E PUSH1 0x4 DUP1 CALLDATASIZE SUB DUP2 ADD SWAP1 PUSH2 0x479 SWAP2 SWAP1 PUSH2 0x3DCB JUMP JUMPDEST PUSH2 0x2034 JUMP JUMPDEST PUSH1 0x40 MLOAD PUSH2 0x48B SWAP2 SWAP1 PUSH2 0x3C94 JUMP JUMPDEST PUSH1 0x40 MLOAD DUP1 SWAP2 SUB SWAP1 RETURN JUMPDEST PUSH2 0x49C PUSH2 0x2294 JUMP JUMPDEST PUSH1 0x40 MLOAD PUSH2 0x4A9 SWAP2 SWAP1 PUSH2 0x43C4 JUMP JUMPDEST PUSH1 0x40 MLOAD DUP1 SWAP2 SUB SWAP1 RETURN JUMPDEST PUSH2 0x4BA PUSH2 0x22B9 JUMP JUMPDEST PUSH1 0x40 MLOAD PUSH2 0x4C7 SWAP2 SWAP1 PUSH2 0x3D1A JUMP JUMPDEST PUSH1 0x40 MLOAD DUP1 SWAP2 SUB SWAP1 RETURN JUMPDEST PUSH2 0x4EA PUSH1 0x4 DUP1 CALLDATASIZE SUB DUP2 ADD SWAP1 PUSH2 0x4E5 SWAP2 SWAP1 PUSH2 0x3DCB JUMP JUMPDEST PUSH2 0x22BF JUMP JUMPDEST PUSH1 0x40 MLOAD PUSH2 0x4F7 SWAP2 SWAP1 PUSH2 0x451E JUMP JUMPDEST PUSH1 0x40 MLOAD DUP1 SWAP2 SUB SWAP1 RETURN JUMPDEST PUSH2 0x51A PUSH1 0x4 DUP1 CALLDATASIZE SUB DUP2 ADD SWAP1 PUSH2 0x515 SWAP2 SWAP1 PUSH2 0x4694 JUMP JUMPDEST PUSH2 0x2475 JUMP JUMPDEST STOP JUMPDEST PUSH2 0x536 PUSH1 0x4 DUP1 CALLDATASIZE SUB DUP2 ADD SWAP1 PUSH2 0x531 SWAP2 SWAP1 PUSH2 0x3FEF JUMP JUMPDEST PUSH2 0x28A0 JUMP JUMPDEST STOP JUMPDEST PUSH2 0x552 PUSH1 0x4 DUP1 CALLDATASIZE SUB DUP2 ADD SWAP1 PUSH2 0x54D SWAP2 SWAP1 PUSH2 0x4723 JUMP JUMPDEST PUSH2 0x2B0D JUMP JUMPDEST STOP JUMPDEST PUSH2 0x56E PUSH1 0x4 DUP1 CALLDATASIZE SUB DUP2 ADD SWAP1 PUSH2 0x569 SWAP2 SWAP1 PUSH2 0x3DCB JUMP JUMPDEST PUSH2 0x2ED5 JUMP JUMPDEST PUSH1 0x40 MLOAD PUSH2 0x586 SWAP13 SWAP12 SWAP11 SWAP10 SWAP9 SWAP8 SWAP7 SWAP6 SWAP5 SWAP4 SWAP3 SWAP2 SWAP1 PUSH2 0x4796 JUMP JUMPDEST PUSH1 0x40 MLOAD DUP1 SWAP2 SUB SWAP1 RETURN JUMPDEST PUSH2 0x5A9 PUSH1 0x4 DUP1 CALLDATASIZE SUB DUP2 ADD SWAP1 PUSH2 0x5A4 SWAP2 SWAP1 PUSH2 0x3D8D JUMP JUMPDEST PUSH2 0x2F95 JUMP JUMPDEST STOP JUMPDEST PUSH2 0x5C5 PUSH1 0x4 DUP1 CALLDATASIZE SUB DUP2 ADD SWAP1 PUSH2 0x5C0 SWAP2 SWAP1 PUSH2 0x484E JUMP JUMPDEST PUSH2 0x2FB7 JUMP JUMPDEST STOP JUMPDEST PUSH2 0x5E1 PUSH1 0x4 DUP1 CALLDATASIZE SUB DUP2 ADD SWAP1 PUSH2 0x5DC SWAP2 SWAP1 PUSH2 0x4723 JUMP JUMPDEST PUSH2 0x32E8 JUMP JUMPDEST STOP JUMPDEST PUSH2 0x5FD PUSH1 0x4 DUP1 CALLDATASIZE SUB DUP2 ADD SWAP1 PUSH2 0x5F8 SWAP2 SWAP1 PUSH2 0x3FEF JUMP JUMPDEST PUSH2 0x3783 JUMP JUMPDEST PUSH1 0x40 MLOAD PUSH2 0x60F SWAP7 SWAP6 SWAP5 SWAP4 SWAP3 SWAP2 SWAP1 PUSH2 0x48A8 JUMP JUMPDEST PUSH1 0x40 MLOAD DUP1 SWAP2 SUB SWAP1 RETURN JUMPDEST PUSH2 0x620 PUSH2 0x3887 JUMP JUMPDEST PUSH1 0x40 MLOAD PUSH2 0x62D SWAP2 SWAP1 PUSH2 0x3D1A JUMP JUMPDEST PUSH1 0x40 MLOAD DUP1 SWAP2 SUB SWAP1 RETURN JUMPDEST PUSH0 PUSH32 0x7965DB0B00000000000000000000000000000000000000000000000000000000 PUSH28 0xFFFFFFFFFFFFFFFFFFFFFFFFFFFFFFFFFFFFFFFFFFFFFFFFFFFFFFFF NOT AND DUP3 PUSH28 0xFFFFFFFFFFFFFFFFFFFFFFFFFFFFFFFFFFFFFFFFFFFFFFFFFFFFFFFF NOT AND EQ DUP1 PUSH2 0x6A8 JUMPI POP PUSH2 0x6A7 DUP3 PUSH2 0x38AB JUMP JUMPDEST JUMPDEST SWAP1 POP SWAP2 SWAP1 POP JUMP JUMPDEST PUSH0 PUSH0 PUSH0 DUP4 DUP2 MSTORE PUSH1 0x20 ADD SWAP1 DUP2 MSTORE PUSH1 0x20 ADD PUSH0 KECCAK256 PUSH1 0x1 ADD SLOAD SWAP1 POP SWAP2 SWAP1 POP JUMP JUMPDEST PUSH2 0x6D4 DUP3 PUSH2 0x6AF JUMP JUMPDEST PUSH2 0x6DD DUP2 PUSH2 0x3914 JUMP JUMPDEST PUSH2 0x6E7 DUP4 DUP4 PUSH2 0x3928 JUMP JUMPDEST POP POP POP POP JUMP JUMPDEST PUSH2 0x6F5 PUSH2 0x3B52 JUMP JUMPDEST PUSH1 0x3 PUSH0 DUP4 PUSH20 0xFFFFFFFFFFFFFFFFFFFFFFFFFFFFFFFFFFFFFFFF AND PUSH20 0xFFFFFFFFFFFFFFFFFFFFFFFFFFFFFFFFFFFFFFFF AND DUP2 MSTORE PUSH1 0x20 ADD SWAP1 DUP2 MSTORE PUSH1 0x20 ADD PUSH0 KECCAK256 PUSH1 0x40 MLOAD DUP1 PUSH2 0x180 ADD PUSH1 0x40 MSTORE SWAP1 DUP2 PUSH0 DUP3 ADD PUSH0 SWAP1 SLOAD SWAP1 PUSH2 0x100 EXP SWAP1 DIV PUSH20 0xFFFFFFFFFFFFFFFFFFFFFFFFFFFFFFFFFFFFFFFF AND PUSH20 0xFFFFFFFFFFFFFFFFFFFFFFFFFFFFFFFFFFFFFFFF AND PUSH20 0xFFFFFFFFFFFFFFFFFFFFFFFFFFFFFFFFFFFFFFFF AND DUP2 MSTORE PUSH1 0x20 ADD PUSH1 0x1 DUP3 ADD SLOAD DUP2 MSTORE PUSH1 0x20 ADD PUSH1 0x2 DUP3 ADD PUSH0 SWAP1 SLOAD SWAP1 PUSH2 0x100 EXP SWAP1 DIV PUSH1 0xFF AND PUSH1 0x2 DUP2 GT ISZERO PUSH2 0x7C0 JUMPI PUSH2 0x7BF PUSH2 0x3E1D JUMP JUMPDEST JUMPDEST PUSH1 0x2 DUP2 GT ISZERO PUSH2 0x7D2 JUMPI PUSH2 0x7D1 PUSH2 0x3E1D JUMP JUMPDEST JUMPDEST DUP2 MSTORE PUSH1 0x20 ADD PUSH1 0x2 DUP3 ADD PUSH1 0x1 SWAP1 SLOAD SWAP1 PUSH2 0x100 EXP SWAP1 DIV PUSH20 0xFFFFFFFFFFFFFFFFFFFFFFFFFFFFFFFFFFFFFFFF AND PUSH20 0xFFFFFFFFFFFFFFFFFFFFFFFFFFFFFFFFFFFFFFFF AND PUSH20 0xFFFFFFFFFFFFFFFFFFFFFFFFFFFFFFFFFFFFFFFF AND DUP2 MSTORE PUSH1 0x20 ADD PUSH1 0x2 DUP3 ADD PUSH1 0x15 SWAP1 SLOAD SWAP1 PUSH2 0x100 EXP SWAP1 DIV PUSH1 0xFF AND ISZERO ISZERO ISZERO ISZERO DUP2 MSTORE PUSH1 0x20 ADD PUSH1 0x3 DUP3 ADD SLOAD DUP2 MSTORE PUSH1 0x20 ADD PUSH1 0x4 DUP3 ADD SLOAD DUP2 MSTORE PUSH1 0x20 ADD PUSH1 0x5 DUP3 ADD SLOAD DUP2 MSTORE PUSH1 0x20 ADD PUSH1 0x6 DUP3 ADD SLOAD DUP2 MSTORE PUSH1 0x20 ADD PUSH1 0x7 DUP3 ADD SLOAD DUP2 MSTORE PUSH1 0x20 ADD PUSH1 0x8 DUP3 ADD SLOAD DUP2 MSTORE PUSH1 0x20 ADD PUSH1 0x9 DUP3 ADD PUSH0 SWAP1 SLOAD SWAP1 PUSH2 0x100 EXP SWAP1 DIV PUSH1 0xFF AND ISZERO ISZERO ISZERO ISZERO DUP2 MSTORE POP POP SWAP1 POP SWAP2 SWAP1 POP JUMP JUMPDEST PUSH32 0x940D6B1946FF1D2B5A9F1909219C3C81A370804B5BA0F91EC0828C99A2E6A681 DUP2 JUMP JUMPDEST PUSH2 0x8D0 PUSH2 0x3A11 JUMP JUMPDEST PUSH20 0xFFFFFFFFFFFFFFFFFFFFFFFFFFFFFFFFFFFFFFFF AND DUP2 PUSH20 0xFFFFFFFFFFFFFFFFFFFFFFFFFFFFFFFFFFFFFFFF AND EQ PUSH2 0x934 JUMPI PUSH1 0x40 MLOAD PUSH32 0x6697B23200000000000000000000000000000000000000000000000000000000 DUP2 MSTORE PUSH1 0x4 ADD PUSH1 0x40 MLOAD DUP1 SWAP2 SUB SWAP1 REVERT JUMPDEST PUSH2 0x93E DUP3 DUP3 PUSH2 0x3A18 JUMP JUMPDEST POP POP POP JUMP JUMPDEST PUSH1 0x4 PUSH1 0x20 MSTORE DUP2 PUSH0 MSTORE PUSH1 0x40 PUSH0 KECCAK256 DUP2 DUP2 SLOAD DUP2 LT PUSH2 0x95C JUMPI PUSH0 DUP1 REVERT JUMPDEST SWAP1 PUSH0 MSTORE PUSH1 0x20 PUSH0 KECCAK256 SWAP1 PUSH1 0x4 MUL ADD PUSH0 SWAP2 POP SWAP2 POP POP DUP1 PUSH0 ADD SLOAD SWAP1 DUP1 PUSH1 0x1 ADD DUP1 SLOAD PUSH2 0x982 SWAP1 PUSH2 0x493B JUMP JUMPDEST DUP1 PUSH1 0x1F ADD PUSH1 0x20 DUP1 SWAP2 DIV MUL PUSH1 0x20 ADD PUSH1 0x40 MLOAD SWAP1 DUP2 ADD PUSH1 0x40 MSTORE DUP1 SWAP3 SWAP2 SWAP1 DUP2 DUP2 MSTORE PUSH1 0x20 ADD DUP3 DUP1 SLOAD PUSH2 0x9AE SWAP1 PUSH2 0x493B JUMP JUMPDEST DUP1 ISZERO PUSH2 0x9F9 JUMPI DUP1 PUSH1 0x1F LT PUSH2 0x9D0 JUMPI PUSH2 0x100 DUP1 DUP4 SLOAD DIV MUL DUP4 MSTORE SWAP2 PUSH1 0x20 ADD SWAP2 PUSH2 0x9F9 JUMP JUMPDEST DUP3 ADD SWAP2 SWAP1 PUSH0 MSTORE PUSH1 0x20 PUSH0 KECCAK256 SWAP1 JUMPDEST DUP2 SLOAD DUP2 MSTORE SWAP1 PUSH1 0x1 ADD SWAP1 PUSH1 0x20 ADD DUP1 DUP4 GT PUSH2 0x9DC JUMPI DUP3 SWAP1 SUB PUSH1 0x1F AND DUP3 ADD SWAP2 JUMPDEST POP POP POP POP POP SWAP1 DUP1 PUSH1 0x2 ADD PUSH0 SWAP1 SLOAD SWAP1 PUSH2 0x100 EXP SWAP1 DIV PUSH1 0xFF AND SWAP1 DUP1 PUSH1 0x2 ADD PUSH1 0x1 SWAP1 SLOAD SWAP1 PUSH2 0x100 EXP SWAP1 DIV PUSH20 0xFFFFFFFFFFFFFFFFFFFFFFFFFFFFFFFFFFFFFFFF AND SWAP1 DUP1 PUSH1 0x3 ADD SLOAD SWAP1 POP DUP6 JUMP JUMPDEST PUSH1 0x60 PUSH1 0x4 PUSH0 DUP4 PUSH20 0xFFFFFFFFFFFFFFFFFFFFFFFFFFFFFFFFFFFFFFFF AND PUSH20 0xFFFFFFFFFFFFFFFFFFFFFFFFFFFFFFFFFFFFFFFF AND DUP2 MSTORE PUSH1 0x20 ADD SWAP1 DUP2 MSTORE PUSH1 0x20 ADD PUSH0 KECCAK256 DUP1 SLOAD DUP1 PUSH1 0x20 MUL PUSH1 0x20 ADD PUSH1 0x40 MLOAD SWAP1 DUP2 ADD PUSH1 0x40 MSTORE DUP1 SWAP3 SWAP2 SWAP1 DUP2 DUP2 MSTORE PUSH1 0x20 ADD PUSH0 SWAP1 JUMPDEST DUP3 DUP3 LT ISZERO PUSH2 0xBE2 JUMPI DUP4 DUP3 SWAP1 PUSH0 MSTORE PUSH1 0x20 PUSH0 KECCAK256 SWAP1 PUSH1 0x4 MUL ADD PUSH1 0x40 MLOAD DUP1 PUSH1 0xA0 ADD PUSH1 0x40 MSTORE SWAP1 DUP2 PUSH0 DUP3 ADD SLOAD DUP2 MSTORE PUSH1 0x20 ADD PUSH1 0x1 DUP3 ADD DUP1 SLOAD PUSH2 0xAD9 SWAP1 PUSH2 0x493B JUMP JUMPDEST DUP1 PUSH1 0x1F ADD PUSH1 0x20 DUP1 SWAP2 DIV MUL PUSH1 0x20 ADD PUSH1 0x40 MLOAD SWAP1 DUP2 ADD PUSH1 0x40 MSTORE DUP1 SWAP3 SWAP2 SWAP1 DUP2 DUP2 MSTORE PUSH1 0x20 ADD DUP3 DUP1 SLOAD PUSH2 0xB05 SWAP1 PUSH2 0x493B JUMP JUMPDEST DUP1 ISZERO PUSH2 0xB50 JUMPI DUP1 PUSH1 0x1F LT PUSH2 0xB27 JUMPI PUSH2 0x100 DUP1 DUP4 SLOAD DIV MUL DUP4 MSTORE SWAP2 PUSH1 0x20 ADD SWAP2 PUSH2 0xB50 JUMP JUMPDEST DUP3 ADD SWAP2 SWAP1 PUSH0 MSTORE PUSH1 0x20 PUSH0 KECCAK256 SWAP1 JUMPDEST DUP2 SLOAD DUP2 MSTORE SWAP1 PUSH1 0x1 ADD SWAP1 PUSH1 0x20 ADD DUP1 DUP4 GT PUSH2 0xB33 JUMPI DUP3 SWAP1 SUB PUSH1 0x1F AND DUP3 ADD SWAP2 JUMPDEST POP POP POP POP POP DUP2 MSTORE PUSH1 0x20 ADD PUSH1 0x2 DUP3 ADD PUSH0 SWAP1 SLOAD SWAP1 PUSH2 0x100 EXP SWAP1 DIV PUSH1 0xFF AND ISZERO ISZERO ISZERO ISZERO DUP2 MSTORE PUSH1 0x20 ADD PUSH1 0x2 DUP3 ADD PUSH1 0x1 SWAP1 SLOAD SWAP1 PUSH2 0x100 EXP SWAP1 DIV PUSH20 0xFFFFFFFFFFFFFFFFFFFFFFFFFFFFFFFFFFFFFFFF AND PUSH20 0xFFFFFFFFFFFFFFFFFFFFFFFFFFFFFFFFFFFFFFFF AND PUSH20 0xFFFFFFFFFFFFFFFFFFFFFFFFFFFFFFFFFFFFFFFF AND DUP2 MSTORE PUSH1 0x20 ADD PUSH1 0x3 DUP3 ADD SLOAD DUP2 MSTORE POP POP DUP2 MSTORE PUSH1 0x20 ADD SWAP1 PUSH1 0x1 ADD SWAP1 PUSH2 0xA9F JUMP JUMPDEST POP POP POP POP SWAP1 POP SWAP2 SWAP1 POP JUMP JUMPDEST PUSH0 PUSH0 PUSH0 SWAP1 POP PUSH0 PUSH0 SWAP1 POP JUMPDEST PUSH1 0x6 DUP1 SLOAD SWAP1 POP DUP2 LT ISZERO PUSH2 0xCAE JUMPI PUSH1 0x3 PUSH0 PUSH1 0x6 DUP4 DUP2 SLOAD DUP2 LT PUSH2 0xC1B JUMPI PUSH2 0xC1A PUSH2 0x496B JUMP JUMPDEST JUMPDEST SWAP1 PUSH0 MSTORE PUSH1 0x20 PUSH0 KECCAK256 ADD PUSH0 SWAP1 SLOAD SWAP1 PUSH2 0x100 EXP SWAP1 DIV PUSH20 0xFFFFFFFFFFFFFFFFFFFFFFFFFFFFFFFFFFFFFFFF AND PUSH20 0xFFFFFFFFFFFFFFFFFFFFFFFFFFFFFFFFFFFFFFFF AND PUSH20 0xFFFFFFFFFFFFFFFFFFFFFFFFFFFFFFFFFFFFFFFF AND DUP2 MSTORE PUSH1 0x20 ADD SWAP1 DUP2 MSTORE PUSH1 0x20 ADD PUSH0 KECCAK256 PUSH1 0x2 ADD PUSH1 0x15 SWAP1 SLOAD SWAP1 PUSH2 0x100 EXP SWAP1 DIV PUSH1 0xFF AND ISZERO PUSH2 0xCA1 JUMPI DUP2 DUP1 PUSH2 0xC9D SWAP1 PUSH2 0x49C5 JUMP JUMPDEST SWAP3 POP POP JUMPDEST DUP1 DUP1 PUSH1 0x1 ADD SWAP2 POP POP PUSH2 0xBF7 JUMP JUMPDEST POP DUP1 SWAP2 POP POP SWAP1 JUMP JUMPDEST PUSH1 0x60 PUSH0 PUSH0 SWAP1 POP PUSH0 PUSH0 SWAP1 POP JUMPDEST PUSH1 0x6 DUP1 SLOAD SWAP1 POP DUP2 LT ISZERO PUSH2 0xD78 JUMPI PUSH1 0x3 PUSH0 PUSH1 0x6 DUP4 DUP2 SLOAD DUP2 LT PUSH2 0xCE5 JUMPI PUSH2 0xCE4 PUSH2 0x496B JUMP JUMPDEST JUMPDEST SWAP1 PUSH0 MSTORE PUSH1 0x20 PUSH0 KECCAK256 ADD PUSH0 SWAP1 SLOAD SWAP1 PUSH2 0x100 EXP SWAP1 DIV PUSH20 0xFFFFFFFFFFFFFFFFFFFFFFFFFFFFFFFFFFFFFFFF AND PUSH20 0xFFFFFFFFFFFFFFFFFFFFFFFFFFFFFFFFFFFFFFFF AND PUSH20 0xFFFFFFFFFFFFFFFFFFFFFFFFFFFFFFFFFFFFFFFF AND DUP2 MSTORE PUSH1 0x20 ADD SWAP1 DUP2 MSTORE PUSH1 0x20 ADD PUSH0 KECCAK256 PUSH1 0x2 ADD PUSH1 0x15 SWAP1 SLOAD SWAP1 PUSH2 0x100 EXP SWAP1 DIV PUSH1 0xFF AND ISZERO PUSH2 0xD6B JUMPI DUP2 DUP1 PUSH2 0xD67 SWAP1 PUSH2 0x49C5 JUMP JUMPDEST SWAP3 POP POP JUMPDEST DUP1 DUP1 PUSH1 0x1 ADD SWAP2 POP POP PUSH2 0xCC1 JUMP JUMPDEST POP PUSH0 DUP2 PUSH8 0xFFFFFFFFFFFFFFFF DUP2 GT ISZERO PUSH2 0xD94 JUMPI PUSH2 0xD93 PUSH2 0x4570 JUMP JUMPDEST JUMPDEST PUSH1 0x40 MLOAD SWAP1 DUP1 DUP3 MSTORE DUP1 PUSH1 0x20 MUL PUSH1 0x20 ADD DUP3 ADD PUSH1 0x40 MSTORE DUP1 ISZERO PUSH2 0xDC2 JUMPI DUP2 PUSH1 0x20 ADD PUSH1 0x20 DUP3 MUL DUP1 CALLDATASIZE DUP4 CALLDATACOPY DUP1 DUP3 ADD SWAP2 POP POP SWAP1 POP JUMPDEST POP SWAP1 POP PUSH0 PUSH0 SWAP1 POP PUSH0 PUSH0 SWAP1 POP JUMPDEST PUSH1 0x6 DUP1 SLOAD SWAP1 POP DUP2 LT ISZERO PUSH2 0xF0E JUMPI PUSH1 0x3 PUSH0 PUSH1 0x6 DUP4 DUP2 SLOAD DUP2 LT PUSH2 0xDF2 JUMPI PUSH2 0xDF1 PUSH2 0x496B JUMP JUMPDEST JUMPDEST SWAP1 PUSH0 MSTORE PUSH1 0x20 PUSH0 KECCAK256 ADD PUSH0 SWAP1 SLOAD SWAP1 PUSH2 0x100 EXP SWAP1 DIV PUSH20 0xFFFFFFFFFFFFFFFFFFFFFFFFFFFFFFFFFFFFFFFF AND PUSH20 0xFFFFFFFFFFFFFFFFFFFFFFFFFFFFFFFFFFFFFFFF AND PUSH20 0xFFFFFFFFFFFFFFFFFFFFFFFFFFFFFFFFFFFFFFFF AND DUP2 MSTORE PUSH1 0x20 ADD SWAP1 DUP2 MSTORE PUSH1 0x20 ADD PUSH0 KECCAK256 PUSH1 0x2 ADD PUSH1 0x15 SWAP1 SLOAD SWAP1 PUSH2 0x100 EXP SWAP1 DIV PUSH1 0xFF AND ISZERO PUSH2 0xF01 JUMPI PUSH1 0x6 DUP2 DUP2 SLOAD DUP2 LT PUSH2 0xE7D JUMPI PUSH2 0xE7C PUSH2 0x496B JUMP JUMPDEST JUMPDEST SWAP1 PUSH0 MSTORE PUSH1 0x20 PUSH0 KECCAK256 ADD PUSH0 SWAP1 SLOAD SWAP1 PUSH2 0x100 EXP SWAP1 DIV PUSH20 0xFFFFFFFFFFFFFFFFFFFFFFFFFFFFFFFFFFFFFFFF AND DUP4 DUP4 DUP2 MLOAD DUP2 LT PUSH2 0xEB8 JUMPI PUSH2 0xEB7 PUSH2 0x496B JUMP JUMPDEST JUMPDEST PUSH1 0x20 MUL PUSH1 0x20 ADD ADD SWAP1 PUSH20 0xFFFFFFFFFFFFFFFFFFFFFFFFFFFFFFFFFFFFFFFF AND SWAP1 DUP2 PUSH20 0xFFFFFFFFFFFFFFFFFFFFFFFFFFFFFFFFFFFFFFFF AND DUP2 MSTORE POP POP DUP2 DUP1 PUSH2 0xEFD SWAP1 PUSH2 0x49C5 JUMP JUMPDEST SWAP3 POP POP JUMPDEST DUP1 DUP1 PUSH1 0x1 ADD SWAP2 POP POP PUSH2 0xDCE JUMP JUMPDEST POP DUP2 SWAP4 POP POP POP POP SWAP1 JUMP JUMPDEST PUSH1 0x2 PUSH0 SWAP1 SLOAD SWAP1 PUSH2 0x100 EXP SWAP1 DIV PUSH20 0xFFFFFFFFFFFFFFFFFFFFFFFFFFFFFFFFFFFFFFFF AND PUSH20 0xFFFFFFFFFFFFFFFFFFFFFFFFFFFFFFFFFFFFFFFF AND PUSH4 0x91D14854 PUSH32 0xA49807205CE4D355092EF5A8A18F56E8913CF4A201FBE287825B095693C21775 CALLER PUSH1 0x40 MLOAD DUP4 PUSH4 0xFFFFFFFF AND PUSH1 0xE0 SHL DUP2 MSTORE PUSH1 0x4 ADD PUSH2 0xF94 SWAP3 SWAP2 SWAP1 PUSH2 0x4A0C JUMP JUMPDEST PUSH1 0x20 PUSH1 0x40 MLOAD DUP1 DUP4 SUB DUP2 DUP7 GAS STATICCALL ISZERO DUP1 ISZERO PUSH2 0xFAF JUMPI RETURNDATASIZE PUSH0 PUSH0 RETURNDATACOPY RETURNDATASIZE PUSH0 REVERT JUMPDEST POP POP POP POP PUSH1 0x40 MLOAD RETURNDATASIZE PUSH1 0x1F NOT PUSH1 0x1F DUP3 ADD AND DUP3 ADD DUP1 PUSH1 0x40 MSTORE POP DUP2 ADD SWAP1 PUSH2 0xFD3 SWAP2 SWAP1 PUSH2 0x4A5D JUMP JUMPDEST DUP1 PUSH2 0x1095 JUMPI POP PUSH1 0x2 PUSH0 SWAP1 SLOAD SWAP1 PUSH2 0x100 EXP SWAP1 DIV PUSH20 0xFFFFFFFFFFFFFFFFFFFFFFFFFFFFFFFFFFFFFFFF AND PUSH20 0xFFFFFFFFFFFFFFFFFFFFFFFFFFFFFFFFFFFFFFFF AND PUSH4 0x91D14854 PUSH32 0xFD70517941C75212B0F9013E45C47A37D6D983C5304288C7AF285F2EA40CBBA7 CALLER PUSH1 0x40 MLOAD DUP4 PUSH4 0xFFFFFFFF AND PUSH1 0xE0 SHL DUP2 MSTORE PUSH1 0x4 ADD PUSH2 0x1055 SWAP3 SWAP2 SWAP1 PUSH2 0x4A0C JUMP JUMPDEST PUSH1 0x20 PUSH1 0x40 MLOAD DUP1 DUP4 SUB DUP2 DUP7 GAS STATICCALL ISZERO DUP1 ISZERO PUSH2 0x1070 JUMPI RETURNDATASIZE PUSH0 PUSH0 RETURNDATACOPY RETURNDATASIZE PUSH0 REVERT JUMPDEST POP POP POP POP PUSH1 0x40 MLOAD RETURNDATASIZE PUSH1 0x1F NOT PUSH1 0x1F DUP3 ADD AND DUP3 ADD DUP1 PUSH1 0x40 MSTORE POP DUP2 ADD SWAP1 PUSH2 0x1094 SWAP2 SWAP1 PUSH2 0x4A5D JUMP JUMPDEST JUMPDEST PUSH2 0x10D4 JUMPI PUSH1 0x40 MLOAD PUSH32 0x8C379A000000000000000000000000000000000000000000000000000000000 DUP2 MSTORE PUSH1 0x4 ADD PUSH2 0x10CB SWAP1 PUSH2 0x4AD2 JUMP JUMPDEST PUSH1 0x40 MLOAD DUP1 SWAP2 SUB SWAP1 REVERT JUMPDEST PUSH1 0x3 PUSH0 DUP3 PUSH20 0xFFFFFFFFFFFFFFFFFFFFFFFFFFFFFFFFFFFFFFFF AND PUSH20 0xFFFFFFFFFFFFFFFFFFFFFFFFFFFFFFFFFFFFFFFF AND DUP2 MSTORE PUSH1 0x20 ADD SWAP1 DUP2 MSTORE PUSH1 0x20 ADD PUSH0 KECCAK256 PUSH1 0x2 ADD PUSH1 0x15 SWAP1 SLOAD SWAP1 PUSH2 0x100 EXP SWAP1 DIV PUSH1 0xFF AND PUSH2 0x1161 JUMPI PUSH1 0x40 MLOAD PUSH32 0x8C379A000000000000000000000000000000000000000000000000000000000 DUP2 MSTORE PUSH1 0x4 ADD PUSH2 0x1158 SWAP1 PUSH2 0x4B3A JUMP JUMPDEST PUSH1 0x40 MLOAD DUP1 SWAP2 SUB SWAP1 REVERT JUMPDEST PUSH0 PUSH1 0x3 PUSH0 DUP4 PUSH20 0xFFFFFFFFFFFFFFFFFFFFFFFFFFFFFFFFFFFFFFFF AND PUSH20 0xFFFFFFFFFFFFFFFFFFFFFFFFFFFFFFFFFFFFFFFF AND DUP2 MSTORE PUSH1 0x20 ADD SWAP1 DUP2 MSTORE PUSH1 0x20 ADD PUSH0 KECCAK256 PUSH1 0x2 ADD PUSH1 0x15 PUSH2 0x100 EXP DUP2 SLOAD DUP2 PUSH1 0xFF MUL NOT AND SWAP1 DUP4 ISZERO ISZERO MUL OR SWAP1 SSTORE POP DUP1 PUSH20 0xFFFFFFFFFFFFFFFFFFFFFFFFFFFFFFFFFFFFFFFF AND PUSH32 0xFAB1E92DFDB794E4D1CAFCBE46C62E8043DAE2BB9D7B99D1ECF78EE5E03755AA TIMESTAMP PUSH1 0x40 MLOAD PUSH2 0x11FF SWAP2 SWAP1 PUSH2 0x42B8 JUMP JUMPDEST PUSH1 0x40 MLOAD DUP1 SWAP2 SUB SWAP1 LOG2 POP JUMP JUMPDEST PUSH1 0x2 PUSH0 SWAP1 SLOAD SWAP1 PUSH2 0x100 EXP SWAP1 DIV PUSH20 0xFFFFFFFFFFFFFFFFFFFFFFFFFFFFFFFFFFFFFFFF AND PUSH20 0xFFFFFFFFFFFFFFFFFFFFFFFFFFFFFFFFFFFFFFFF AND PUSH4 0x91D14854 PUSH32 0xA49807205CE4D355092EF5A8A18F56E8913CF4A201FBE287825B095693C21775 CALLER PUSH1 0x40 MLOAD DUP4 PUSH4 0xFFFFFFFF AND PUSH1 0xE0 SHL DUP2 MSTORE PUSH1 0x4 ADD PUSH2 0x1286 SWAP3 SWAP2 SWAP1 PUSH2 0x4A0C JUMP JUMPDEST PUSH1 0x20 PUSH1 0x40 MLOAD DUP1 DUP4 SUB DUP2 DUP7 GAS STATICCALL ISZERO DUP1 ISZERO PUSH2 0x12A1 JUMPI RETURNDATASIZE PUSH0 PUSH0 RETURNDATACOPY RETURNDATASIZE PUSH0 REVERT JUMPDEST POP POP POP POP PUSH1 0x40 MLOAD RETURNDATASIZE PUSH1 0x1F NOT PUSH1 0x1F DUP3 ADD AND DUP3 ADD DUP1 PUSH1 0x40 MSTORE POP DUP2 ADD SWAP1 PUSH2 0x12C5 SWAP2 SWAP1 PUSH2 0x4A5D JUMP JUMPDEST DUP1 PUSH2 0x1387 JUMPI POP PUSH1 0x2 PUSH0 SWAP1 SLOAD SWAP1 PUSH2 0x100 EXP SWAP1 DIV PUSH20 0xFFFFFFFFFFFFFFFFFFFFFFFFFFFFFFFFFFFFFFFF AND PUSH20 0xFFFFFFFFFFFFFFFFFFFFFFFFFFFFFFFFFFFFFFFF AND PUSH4 0x91D14854 PUSH32 0x940D6B1946FF1D2B5A9F1909219C3C81A370804B5BA0F91EC0828C99A2E6A681 CALLER PUSH1 0x40 MLOAD DUP4 PUSH4 0xFFFFFFFF AND PUSH1 0xE0 SHL DUP2 MSTORE PUSH1 0x4 ADD PUSH2 0x1347 SWAP3 SWAP2 SWAP1 PUSH2 0x4A0C JUMP JUMPDEST PUSH1 0x20 PUSH1 0x40 MLOAD DUP1 DUP4 SUB DUP2 DUP7 GAS STATICCALL ISZERO DUP1 ISZERO PUSH2 0x1362 JUMPI RETURNDATASIZE PUSH0 PUSH0 RETURNDATACOPY RETURNDATASIZE PUSH0 REVERT JUMPDEST POP POP POP POP PUSH1 0x40 MLOAD RETURNDATASIZE PUSH1 0x1F NOT PUSH1 0x1F DUP3 ADD AND DUP3 ADD DUP1 PUSH1 0x40 MSTORE POP DUP2 ADD SWAP1 PUSH2 0x1386 SWAP2 SWAP1 PUSH2 0x4A5D JUMP JUMPDEST JUMPDEST PUSH2 0x13C6 JUMPI PUSH1 0x40 MLOAD PUSH32 0x8C379A000000000000000000000000000000000000000000000000000000000 DUP2 MSTORE PUSH1 0x4 ADD PUSH2 0x13BD SWAP1 PUSH2 0x4BA2 JUMP JUMPDEST PUSH1 0x40 MLOAD DUP1 SWAP2 SUB SWAP1 REVERT JUMPDEST PUSH1 0x4 PUSH0 DUP4 PUSH20 0xFFFFFFFFFFFFFFFFFFFFFFFFFFFFFFFFFFFFFFFF AND PUSH20 0xFFFFFFFFFFFFFFFFFFFFFFFFFFFFFFFFFFFFFFFF AND DUP2 MSTORE PUSH1 0x20 ADD SWAP1 DUP2 MSTORE PUSH1 0x20 ADD PUSH0 KECCAK256 DUP1 SLOAD SWAP1 POP DUP2 LT PUSH2 0x1448 JUMPI PUSH1 0x40 MLOAD PUSH32 0x8C379A000000000000000000000000000000000000000000000000000000000 DUP2 MSTORE PUSH1 0x4 ADD PUSH2 0x143F SWAP1 PUSH2 0x4C0A JUMP JUMPDEST PUSH1 0x40 MLOAD DUP1 SWAP2 SUB SWAP1 REVERT JUMPDEST PUSH1 0x4 PUSH0 DUP4 PUSH20 0xFFFFFFFFFFFFFFFFFFFFFFFFFFFFFFFFFFFFFFFF AND PUSH20 0xFFFFFFFFFFFFFFFFFFFFFFFFFFFFFFFFFFFFFFFF AND DUP2 MSTORE PUSH1 0x20 ADD SWAP1 DUP2 MSTORE PUSH1 0x20 ADD PUSH0 KECCAK256 DUP2 DUP2 SLOAD DUP2 LT PUSH2 0x1497 JUMPI PUSH2 0x1496 PUSH2 0x496B JUMP JUMPDEST JUMPDEST SWAP1 PUSH0 MSTORE PUSH1 0x20 PUSH0 KECCAK256 SWAP1 PUSH1 0x4 MUL ADD PUSH1 0x2 ADD PUSH0 SWAP1 SLOAD SWAP1 PUSH2 0x100 EXP SWAP1 DIV PUSH1 0xFF AND ISZERO PUSH2 0x14F3 JUMPI PUSH1 0x40 MLOAD PUSH32 0x8C379A000000000000000000000000000000000000000000000000000000000 DUP2 MSTORE PUSH1 0x4 ADD PUSH2 0x14EA SWAP1 PUSH2 0x4C72 JUMP JUMPDEST PUSH1 0x40 MLOAD DUP1 SWAP2 SUB SWAP1 REVERT JUMPDEST PUSH1 0x1 PUSH1 0x4 PUSH0 DUP5 PUSH20 0xFFFFFFFFFFFFFFFFFFFFFFFFFFFFFFFFFFFFFFFF AND PUSH20 0xFFFFFFFFFFFFFFFFFFFFFFFFFFFFFFFFFFFFFFFF AND DUP2 MSTORE PUSH1 0x20 ADD SWAP1 DUP2 MSTORE PUSH1 0x20 ADD PUSH0 KECCAK256 DUP3 DUP2 SLOAD DUP2 LT PUSH2 0x1544 JUMPI PUSH2 0x1543 PUSH2 0x496B JUMP JUMPDEST JUMPDEST SWAP1 PUSH0 MSTORE PUSH1 0x20 PUSH0 KECCAK256 SWAP1 PUSH1 0x4 MUL ADD PUSH1 0x2 ADD PUSH0 PUSH2 0x100 EXP DUP2 SLOAD DUP2 PUSH1 0xFF MUL NOT AND SWAP1 DUP4 ISZERO ISZERO MUL OR SWAP1 SSTORE POP CALLER PUSH1 0x4 PUSH0 DUP5 PUSH20 0xFFFFFFFFFFFFFFFFFFFFFFFFFFFFFFFFFFFFFFFF AND PUSH20 0xFFFFFFFFFFFFFFFFFFFFFFFFFFFFFFFFFFFFFFFF AND DUP2 MSTORE PUSH1 0x20 ADD SWAP1 DUP2 MSTORE PUSH1 0x20 ADD PUSH0 KECCAK256 DUP3 DUP2 SLOAD DUP2 LT PUSH2 0x15B9 JUMPI PUSH2 0x15B8 PUSH2 0x496B JUMP JUMPDEST JUMPDEST SWAP1 PUSH0 MSTORE PUSH1 0x20 PUSH0 KECCAK256 SWAP1 PUSH1 0x4 MUL ADD PUSH1 0x2 ADD PUSH1 0x1 PUSH2 0x100 EXP DUP2 SLOAD DUP2 PUSH20 0xFFFFFFFFFFFFFFFFFFFFFFFFFFFFFFFFFFFFFFFF MUL NOT AND SWAP1 DUP4 PUSH20 0xFFFFFFFFFFFFFFFFFFFFFFFFFFFFFFFFFFFFFFFF AND MUL OR SWAP1 SSTORE POP POP POP JUMP JUMPDEST PUSH1 0x6 DUP2 DUP2 SLOAD DUP2 LT PUSH2 0x1619 JUMPI PUSH0 DUP1 REVERT JUMPDEST SWAP1 PUSH0 MSTORE PUSH1 0x20 PUSH0 KECCAK256 ADD PUSH0 SWAP2 POP SLOAD SWAP1 PUSH2 0x100 EXP SWAP1 DIV PUSH20 0xFFFFFFFFFFFFFFFFFFFFFFFFFFFFFFFFFFFFFFFF AND DUP2 JUMP JUMPDEST PUSH32 0xA49807205CE4D355092EF5A8A18F56E8913CF4A201FBE287825B095693C21775 DUP2 JUMP JUMPDEST PUSH0 PUSH0 PUSH1 0x3 PUSH0 DUP5 PUSH20 0xFFFFFFFFFFFFFFFFFFFFFFFFFFFFFFFFFFFFFFFF AND PUSH20 0xFFFFFFFFFFFFFFFFFFFFFFFFFFFFFFFFFFFFFFFF AND DUP2 MSTORE PUSH1 0x20 ADD SWAP1 DUP2 MSTORE PUSH1 0x20 ADD PUSH0 KECCAK256 PUSH1 0x40 MLOAD DUP1 PUSH2 0x180 ADD PUSH1 0x40 MSTORE SWAP1 DUP2 PUSH0 DUP3 ADD PUSH0 SWAP1 SLOAD SWAP1 PUSH2 0x100 EXP SWAP1 DIV PUSH20 0xFFFFFFFFFFFFFFFFFFFFFFFFFFFFFFFFFFFFFFFF AND PUSH20 0xFFFFFFFFFFFFFFFFFFFFFFFFFFFFFFFFFFFFFFFF AND PUSH20 0xFFFFFFFFFFFFFFFFFFFFFFFFFFFFFFFFFFFFFFFF AND DUP2 MSTORE PUSH1 0x20 ADD PUSH1 0x1 DUP3 ADD SLOAD DUP2 MSTORE PUSH1 0x20 ADD PUSH1 0x2 DUP3 ADD PUSH0 SWAP1 SLOAD SWAP1 PUSH2 0x100 EXP SWAP1 DIV PUSH1 0xFF AND PUSH1 0x2 DUP2 GT ISZERO PUSH2 0x1736 JUMPI PUSH2 0x1735 PUSH2 0x3E1D JUMP JUMPDEST JUMPDEST PUSH1 0x2 DUP2 GT ISZERO PUSH2 0x1748 JUMPI PUSH2 0x1747 PUSH2 0x3E1D JUMP JUMPDEST JUMPDEST DUP2 MSTORE PUSH1 0x20 ADD PUSH1 0x2 DUP3 ADD PUSH1 0x1 SWAP1 SLOAD SWAP1 PUSH2 0x100 EXP SWAP1 DIV PUSH20 0xFFFFFFFFFFFFFFFFFFFFFFFFFFFFFFFFFFFFFFFF AND PUSH20 0xFFFFFFFFFFFFFFFFFFFFFFFFFFFFFFFFFFFFFFFF AND PUSH20 0xFFFFFFFFFFFFFFFFFFFFFFFFFFFFFFFFFFFFFFFF AND DUP2 MSTORE PUSH1 0x20 ADD PUSH1 0x2 DUP3 ADD PUSH1 0x15 SWAP1 SLOAD SWAP1 PUSH2 0x100 EXP SWAP1 DIV PUSH1 0xFF AND ISZERO ISZERO ISZERO ISZERO DUP2 MSTORE PUSH1 0x20 ADD PUSH1 0x3 DUP3 ADD SLOAD DUP2 MSTORE PUSH1 0x20 ADD PUSH1 0x4 DUP3 ADD SLOAD DUP2 MSTORE PUSH1 0x20 ADD PUSH1 0x5 DUP3 ADD SLOAD DUP2 MSTORE PUSH1 0x20 ADD PUSH1 0x6 DUP3 ADD SLOAD DUP2 MSTORE PUSH1 0x20 ADD PUSH1 0x7 DUP3 ADD SLOAD DUP2 MSTORE PUSH1 0x20 ADD PUSH1 0x8 DUP3 ADD SLOAD DUP2 MSTORE PUSH1 0x20 ADD PUSH1 0x9 DUP3 ADD PUSH0 SWAP1 SLOAD SWAP1 PUSH2 0x100 EXP SWAP1 DIV PUSH1 0xFF AND ISZERO ISZERO ISZERO ISZERO DUP2 MSTORE POP POP SWAP1 POP PUSH0 DUP2 PUSH1 0x20 ADD MLOAD SWAP1 POP PUSH0 PUSH0 SWAP1 POP PUSH0 PUSH1 0x4 PUSH0 DUP8 PUSH20 0xFFFFFFFFFFFFFFFFFFFFFFFFFFFFFFFFFFFFFFFF AND PUSH20 0xFFFFFFFFFFFFFFFFFFFFFFFFFFFFFFFFFFFFFFFF AND DUP2 MSTORE PUSH1 0x20 ADD SWAP1 DUP2 MSTORE PUSH1 0x20 ADD PUSH0 KECCAK256 DUP1 SLOAD DUP1 PUSH1 0x20 MUL PUSH1 0x20 ADD PUSH1 0x40 MLOAD SWAP1 DUP2 ADD PUSH1 0x40 MSTORE DUP1 SWAP3 SWAP2 SWAP1 DUP2 DUP2 MSTORE PUSH1 0x20 ADD PUSH0 SWAP1 JUMPDEST DUP3 DUP3 LT ISZERO PUSH2 0x19C1 JUMPI DUP4 DUP3 SWAP1 PUSH0 MSTORE PUSH1 0x20 PUSH0 KECCAK256 SWAP1 PUSH1 0x4 MUL ADD PUSH1 0x40 MLOAD DUP1 PUSH1 0xA0 ADD PUSH1 0x40 MSTORE SWAP1 DUP2 PUSH0 DUP3 ADD SLOAD DUP2 MSTORE PUSH1 0x20 ADD PUSH1 0x1 DUP3 ADD DUP1 SLOAD PUSH2 0x18B8 SWAP1 PUSH2 0x493B JUMP JUMPDEST DUP1 PUSH1 0x1F ADD PUSH1 0x20 DUP1 SWAP2 DIV MUL PUSH1 0x20 ADD PUSH1 0x40 MLOAD SWAP1 DUP2 ADD PUSH1 0x40 MSTORE DUP1 SWAP3 SWAP2 SWAP1 DUP2 DUP2 MSTORE PUSH1 0x20 ADD DUP3 DUP1 SLOAD PUSH2 0x18E4 SWAP1 PUSH2 0x493B JUMP JUMPDEST DUP1 ISZERO PUSH2 0x192F JUMPI DUP1 PUSH1 0x1F LT PUSH2 0x1906 JUMPI PUSH2 0x100 DUP1 DUP4 SLOAD DIV MUL DUP4 MSTORE SWAP2 PUSH1 0x20 ADD SWAP2 PUSH2 0x192F JUMP JUMPDEST DUP3 ADD SWAP2 SWAP1 PUSH0 MSTORE PUSH1 0x20 PUSH0 KECCAK256 SWAP1 JUMPDEST DUP2 SLOAD DUP2 MSTORE SWAP1 PUSH1 0x1 ADD SWAP1 PUSH1 0x20 ADD DUP1 DUP4 GT PUSH2 0x1912 JUMPI DUP3 SWAP1 SUB PUSH1 0x1F AND DUP3 ADD SWAP2 JUMPDEST POP POP POP POP POP DUP2 MSTORE PUSH1 0x20 ADD PUSH1 0x2 DUP3 ADD PUSH0 SWAP1 SLOAD SWAP1 PUSH2 0x100 EXP SWAP1 DIV PUSH1 0xFF AND ISZERO ISZERO ISZERO ISZERO DUP2 MSTORE PUSH1 0x20 ADD PUSH1 0x2 DUP3 ADD PUSH1 0x1 SWAP1 SLOAD SWAP1 PUSH2 0x100 EXP SWAP1 DIV PUSH20 0xFFFFFFFFFFFFFFFFFFFFFFFFFFFFFFFFFFFFFFFF AND PUSH20 0xFFFFFFFFFFFFFFFFFFFFFFFFFFFFFFFFFFFFFFFF AND PUSH20 0xFFFFFFFFFFFFFFFFFFFFFFFFFFFFFFFFFFFFFFFF AND DUP2 MSTORE PUSH1 0x20 ADD PUSH1 0x3 DUP3 ADD SLOAD DUP2 MSTORE POP POP DUP2 MSTORE PUSH1 0x20 ADD SWAP1 PUSH1 0x1 ADD SWAP1 PUSH2 0x187E JUMP JUMPDEST POP POP POP POP SWAP1 POP PUSH0 PUSH0 SWAP1 POP JUMPDEST DUP2 MLOAD DUP2 LT ISZERO PUSH2 0x1A32 JUMPI DUP2 DUP2 DUP2 MLOAD DUP2 LT PUSH2 0x19E8 JUMPI PUSH2 0x19E7 PUSH2 0x496B JUMP JUMPDEST JUMPDEST PUSH1 0x20 MUL PUSH1 0x20 ADD ADD MLOAD PUSH1 0x40 ADD MLOAD ISZERO PUSH2 0x1A25 JUMPI DUP2 DUP2 DUP2 MLOAD DUP2 LT PUSH2 0x1A0C JUMPI PUSH2 0x1A0B PUSH2 0x496B JUMP JUMPDEST JUMPDEST PUSH1 0x20 MUL PUSH1 0x20 ADD ADD MLOAD PUSH0 ADD MLOAD DUP4 PUSH2 0x1A22 SWAP2 SWAP1 PUSH2 0x4C90 JUMP JUMPDEST SWAP3 POP JUMPDEST DUP1 DUP1 PUSH1 0x1 ADD SWAP2 POP POP PUSH2 0x19CC JUMP JUMPDEST POP DUP4 PUSH2 0x160 ADD MLOAD ISZERO PUSH2 0x1A52 JUMPI DUP4 PUSH2 0x140 ADD MLOAD DUP4 PUSH2 0x1A4F SWAP2 SWAP1 PUSH2 0x4CD1 JUMP JUMPDEST SWAP3 POP JUMPDEST DUP2 DUP4 PUSH2 0x1A5E SWAP2 SWAP1 PUSH2 0x4C90 JUMP JUMPDEST SWAP5 POP POP POP POP POP SWAP2 SWAP1 POP JUMP JUMPDEST PUSH1 0x2 PUSH0 SWAP1 SLOAD SWAP1 PUSH2 0x100 EXP SWAP1 DIV PUSH20 0xFFFFFFFFFFFFFFFFFFFFFFFFFFFFFFFFFFFFFFFF AND PUSH20 0xFFFFFFFFFFFFFFFFFFFFFFFFFFFFFFFFFFFFFFFF AND PUSH4 0x91D14854 PUSH32 0xA49807205CE4D355092EF5A8A18F56E8913CF4A201FBE287825B095693C21775 CALLER PUSH1 0x40 MLOAD DUP4 PUSH4 0xFFFFFFFF AND PUSH1 0xE0 SHL DUP2 MSTORE PUSH1 0x4 ADD PUSH2 0x1AE5 SWAP3 SWAP2 SWAP1 PUSH2 0x4A0C JUMP JUMPDEST PUSH1 0x20 PUSH1 0x40 MLOAD DUP1 DUP4 SUB DUP2 DUP7 GAS STATICCALL ISZERO DUP1 ISZERO PUSH2 0x1B00 JUMPI RETURNDATASIZE PUSH0 PUSH0 RETURNDATACOPY RETURNDATASIZE PUSH0 REVERT JUMPDEST POP POP POP POP PUSH1 0x40 MLOAD RETURNDATASIZE PUSH1 0x1F NOT PUSH1 0x1F DUP3 ADD AND DUP3 ADD DUP1 PUSH1 0x40 MSTORE POP DUP2 ADD SWAP1 PUSH2 0x1B24 SWAP2 SWAP1 PUSH2 0x4A5D JUMP JUMPDEST DUP1 PUSH2 0x1BE6 JUMPI POP PUSH1 0x2 PUSH0 SWAP1 SLOAD SWAP1 PUSH2 0x100 EXP SWAP1 DIV PUSH20 0xFFFFFFFFFFFFFFFFFFFFFFFFFFFFFFFFFFFFFFFF AND PUSH20 0xFFFFFFFFFFFFFFFFFFFFFFFFFFFFFFFFFFFFFFFF AND PUSH4 0x91D14854 PUSH32 0x940D6B1946FF1D2B5A9F1909219C3C81A370804B5BA0F91EC0828C99A2E6A681 CALLER PUSH1 0x40 MLOAD DUP4 PUSH4 0xFFFFFFFF AND PUSH1 0xE0 SHL DUP2 MSTORE PUSH1 0x4 ADD PUSH2 0x1BA6 SWAP3 SWAP2 SWAP1 PUSH2 0x4A0C JUMP JUMPDEST PUSH1 0x20 PUSH1 0x40 MLOAD DUP1 DUP4 SUB DUP2 DUP7 GAS STATICCALL ISZERO DUP1 ISZERO PUSH2 0x1BC1 JUMPI RETURNDATASIZE PUSH0 PUSH0 RETURNDATACOPY RETURNDATASIZE PUSH0 REVERT JUMPDEST POP POP POP POP PUSH1 0x40 MLOAD RETURNDATASIZE PUSH1 0x1F NOT PUSH1 0x1F DUP3 ADD AND DUP3 ADD DUP1 PUSH1 0x40 MSTORE POP DUP2 ADD SWAP1 PUSH2 0x1BE5 SWAP2 SWAP1 PUSH2 0x4A5D JUMP JUMPDEST JUMPDEST PUSH2 0x1C25 JUMPI PUSH1 0x40 MLOAD PUSH32 0x8C379A000000000000000000000000000000000000000000000000000000000 DUP2 MSTORE PUSH1 0x4 ADD PUSH2 0x1C1C SWAP1 PUSH2 0x4BA2 JUMP JUMPDEST PUSH1 0x40 MLOAD DUP1 SWAP2 SUB SWAP1 REVERT JUMPDEST PUSH1 0x5 PUSH0 DUP4 PUSH20 0xFFFFFFFFFFFFFFFFFFFFFFFFFFFFFFFFFFFFFFFF AND PUSH20 0xFFFFFFFFFFFFFFFFFFFFFFFFFFFFFFFFFFFFFFFF AND DUP2 MSTORE PUSH1 0x20 ADD SWAP1 DUP2 MSTORE PUSH1 0x20 ADD PUSH0 KECCAK256 DUP1 SLOAD SWAP1 POP DUP2 LT PUSH2 0x1CA7 JUMPI PUSH1 0x40 MLOAD PUSH32 0x8C379A000000000000000000000000000000000000000000000000000000000 DUP2 MSTORE PUSH1 0x4 ADD PUSH2 0x1C9E SWAP1 PUSH2 0x4C0A JUMP JUMPDEST PUSH1 0x40 MLOAD DUP1 SWAP2 SUB SWAP1 REVERT JUMPDEST PUSH1 0x5 PUSH0 DUP4 PUSH20 0xFFFFFFFFFFFFFFFFFFFFFFFFFFFFFFFFFFFFFFFF AND PUSH20 0xFFFFFFFFFFFFFFFFFFFFFFFFFFFFFFFFFFFFFFFF AND DUP2 MSTORE PUSH1 0x20 ADD SWAP1 DUP2 MSTORE PUSH1 0x20 ADD PUSH0 KECCAK256 DUP2 DUP2 SLOAD DUP2 LT PUSH2 0x1CF6 JUMPI PUSH2 0x1CF5 PUSH2 0x496B JUMP JUMPDEST JUMPDEST SWAP1 PUSH0 MSTORE PUSH1 0x20 PUSH0 KECCAK256 SWAP1 PUSH1 0x5 MUL ADD PUSH1 0x2 ADD PUSH0 SWAP1 SLOAD SWAP1 PUSH2 0x100 EXP SWAP1 DIV PUSH1 0xFF AND ISZERO PUSH2 0x1D52 JUMPI PUSH1 0x40 MLOAD PUSH32 0x8C379A000000000000000000000000000000000000000000000000000000000 DUP2 MSTORE PUSH1 0x4 ADD PUSH2 0x1D49 SWAP1 PUSH2 0x4C72 JUMP JUMPDEST PUSH1 0x40 MLOAD DUP1 SWAP2 SUB SWAP1 REVERT JUMPDEST PUSH1 0x1 PUSH1 0x5 PUSH0 DUP5 PUSH20 0xFFFFFFFFFFFFFFFFFFFFFFFFFFFFFFFFFFFFFFFF AND PUSH20 0xFFFFFFFFFFFFFFFFFFFFFFFFFFFFFFFFFFFFFFFF AND DUP2 MSTORE PUSH1 0x20 ADD SWAP1 DUP2 MSTORE PUSH1 0x20 ADD PUSH0 KECCAK256 DUP3 DUP2 SLOAD DUP2 LT PUSH2 0x1DA3 JUMPI PUSH2 0x1DA2 PUSH2 0x496B JUMP JUMPDEST JUMPDEST SWAP1 PUSH0 MSTORE PUSH1 0x20 PUSH0 KECCAK256 SWAP1 PUSH1 0x5 MUL ADD PUSH1 0x2 ADD PUSH0 PUSH2 0x100 EXP DUP2 SLOAD DUP2 PUSH1 0xFF MUL NOT AND SWAP1 DUP4 ISZERO ISZERO MUL OR SWAP1 SSTORE POP CALLER PUSH1 0x5 PUSH0 DUP5 PUSH20 0xFFFFFFFFFFFFFFFFFFFFFFFFFFFFFFFFFFFFFFFF AND PUSH20 0xFFFFFFFFFFFFFFFFFFFFFFFFFFFFFFFFFFFFFFFF AND DUP2 MSTORE PUSH1 0x20 ADD SWAP1 DUP2 MSTORE PUSH1 0x20 ADD PUSH0 KECCAK256 DUP3 DUP2 SLOAD DUP2 LT PUSH2 0x1E18 JUMPI PUSH2 0x1E17 PUSH2 0x496B JUMP JUMPDEST JUMPDEST SWAP1 PUSH0 MSTORE PUSH1 0x20 PUSH0 KECCAK256 SWAP1 PUSH1 0x5 MUL ADD PUSH1 0x2 ADD PUSH1 0x1 PUSH2 0x100 EXP DUP2 SLOAD DUP2 PUSH20 0xFFFFFFFFFFFFFFFFFFFFFFFFFFFFFFFFFFFFFFFF MUL NOT AND SWAP1 DUP4 PUSH20 0xFFFFFFFFFFFFFFFFFFFFFFFFFFFFFFFFFFFFFFFF AND MUL OR SWAP1 SSTORE POP TIMESTAMP PUSH1 0x5 PUSH0 DUP5 PUSH20 0xFFFFFFFFFFFFFFFFFFFFFFFFFFFFFFFFFFFFFFFF AND PUSH20 0xFFFFFFFFFFFFFFFFFFFFFFFFFFFFFFFFFFFFFFFF AND DUP2 MSTORE PUSH1 0x20 ADD SWAP1 DUP2 MSTORE PUSH1 0x20 ADD PUSH0 KECCAK256 DUP3 DUP2 SLOAD DUP2 LT PUSH2 0x1EB5 JUMPI PUSH2 0x1EB4 PUSH2 0x496B JUMP JUMPDEST JUMPDEST SWAP1 PUSH0 MSTORE PUSH1 0x20 PUSH0 KECCAK256 SWAP1 PUSH1 0x5 MUL ADD PUSH1 0x4 ADD DUP2 SWAP1 SSTORE POP PUSH1 0x1 PUSH1 0x3 PUSH0 DUP5 PUSH20 0xFFFFFFFFFFFFFFFFFFFFFFFFFFFFFFFFFFFFFFFF AND PUSH20 0xFFFFFFFFFFFFFFFFFFFFFFFFFFFFFFFFFFFFFFFF AND DUP2 MSTORE PUSH1 0x20 ADD SWAP1 DUP2 MSTORE PUSH1 0x20 ADD PUSH0 KECCAK256 PUSH1 0x9 ADD PUSH0 PUSH2 0x100 EXP DUP2 SLOAD DUP2 PUSH1 0xFF MUL NOT AND SWAP1 DUP4 ISZERO ISZERO MUL OR SWAP1 SSTORE POP DUP2 PUSH20 0xFFFFFFFFFFFFFFFFFFFFFFFFFFFFFFFFFFFFFFFF AND PUSH32 0x4503A00D35EB9EE856FB8CC7489624FE44B7C438264F513D8BAEE9357CE5BDB0 PUSH1 0x5 PUSH0 DUP6 PUSH20 0xFFFFFFFFFFFFFFFFFFFFFFFFFFFFFFFFFFFFFFFF AND PUSH20 0xFFFFFFFFFFFFFFFFFFFFFFFFFFFFFFFFFFFFFFFF AND DUP2 MSTORE PUSH1 0x20 ADD SWAP1 DUP2 MSTORE PUSH1 0x20 ADD PUSH0 KECCAK256 DUP4 DUP2 SLOAD DUP2 LT PUSH2 0x1FA7 JUMPI PUSH2 0x1FA6 PUSH2 0x496B JUMP JUMPDEST JUMPDEST SWAP1 PUSH0 MSTORE PUSH1 0x20 PUSH0 KECCAK256 SWAP1 PUSH1 0x5 MUL ADD PUSH0 ADD SLOAD CALLER PUSH1 0x40 MLOAD PUSH2 0x1FC5 SWAP3 SWAP2 SWAP1 PUSH2 0x4D04 JUMP JUMPDEST PUSH1 0x40 MLOAD DUP1 SWAP2 SUB SWAP1 LOG2 POP POP JUMP JUMPDEST PUSH0 PUSH0 PUSH0 DUP5 DUP2 MSTORE PUSH1 0x20 ADD SWAP1 DUP2 MSTORE PUSH1 0x20 ADD PUSH0 KECCAK256 PUSH0 ADD PUSH0 DUP4 PUSH20 0xFFFFFFFFFFFFFFFFFFFFFFFFFFFFFFFFFFFFFFFF AND PUSH20 0xFFFFFFFFFFFFFFFFFFFFFFFFFFFFFFFFFFFFFFFF AND DUP2 MSTORE PUSH1 0x20 ADD SWAP1 DUP2 MSTORE PUSH1 0x20 ADD PUSH0 KECCAK256 PUSH0 SWAP1 SLOAD SWAP1 PUSH2 0x100 EXP SWAP1 DIV PUSH1 0xFF AND SWAP1 POP SWAP3 SWAP2 POP POP JUMP JUMPDEST PUSH0 PUSH0 PUSH1 0x3 PUSH0 DUP5 PUSH20 0xFFFFFFFFFFFFFFFFFFFFFFFFFFFFFFFFFFFFFFFF AND PUSH20 0xFFFFFFFFFFFFFFFFFFFFFFFFFFFFFFFFFFFFFFFF AND DUP2 MSTORE PUSH1 0x20 ADD SWAP1 DUP2 MSTORE PUSH1 0x20 ADD PUSH0 KECCAK256 PUSH1 0x40 MLOAD DUP1 PUSH2 0x180 ADD PUSH1 0x40 MSTORE SWAP1 DUP2 PUSH0 DUP3 ADD PUSH0 SWAP1 SLOAD SWAP1 PUSH2 0x100 EXP SWAP1 DIV PUSH20 0xFFFFFFFFFFFFFFFFFFFFFFFFFFFFFFFFFFFFFFFF AND PUSH20 0xFFFFFFFFFFFFFFFFFFFFFFFFFFFFFFFFFFFFFFFF AND PUSH20 0xFFFFFFFFFFFFFFFFFFFFFFFFFFFFFFFFFFFFFFFF AND DUP2 MSTORE PUSH1 0x20 ADD PUSH1 0x1 DUP3 ADD SLOAD DUP2 MSTORE PUSH1 0x20 ADD PUSH1 0x2 DUP3 ADD PUSH0 SWAP1 SLOAD SWAP1 PUSH2 0x100 EXP SWAP1 DIV PUSH1 0xFF AND PUSH1 0x2 DUP2 GT ISZERO PUSH2 0x2101 JUMPI PUSH2 0x2100 PUSH2 0x3E1D JUMP JUMPDEST JUMPDEST PUSH1 0x2 DUP2 GT ISZERO PUSH2 0x2113 JUMPI PUSH2 0x2112 PUSH2 0x3E1D JUMP JUMPDEST JUMPDEST DUP2 MSTORE PUSH1 0x20 ADD PUSH1 0x2 DUP3 ADD PUSH1 0x1 SWAP1 SLOAD SWAP1 PUSH2 0x100 EXP SWAP1 DIV PUSH20 0xFFFFFFFFFFFFFFFFFFFFFFFFFFFFFFFFFFFFFFFF AND PUSH20 0xFFFFFFFFFFFFFFFFFFFFFFFFFFFFFFFFFFFFFFFF AND PUSH20 0xFFFFFFFFFFFFFFFFFFFFFFFFFFFFFFFFFFFFFFFF AND DUP2 MSTORE PUSH1 0x20 ADD PUSH1 0x2 DUP3 ADD PUSH1 0x15 SWAP1 SLOAD SWAP1 PUSH2 0x100 EXP SWAP1 DIV PUSH1 0xFF AND ISZERO ISZERO ISZERO ISZERO DUP2 MSTORE PUSH1 0x20 ADD PUSH1 0x3 DUP3 ADD SLOAD DUP2 MSTORE PUSH1 0x20 ADD PUSH1 0x4 DUP3 ADD SLOAD DUP2 MSTORE PUSH1 0x20 ADD PUSH1 0x5 DUP3 ADD SLOAD DUP2 MSTORE PUSH1 0x20 ADD PUSH1 0x6 DUP3 ADD SLOAD DUP2 MSTORE PUSH1 0x20 ADD PUSH1 0x7 DUP3 ADD SLOAD DUP2 MSTORE PUSH1 0x20 ADD PUSH1 0x8 DUP3 ADD SLOAD DUP2 MSTORE PUSH1 0x20 ADD PUSH1 0x9 DUP3 ADD PUSH0 SWAP1 SLOAD SWAP1 PUSH2 0x100 EXP SWAP1 DIV PUSH1 0xFF AND ISZERO ISZERO ISZERO ISZERO DUP2 MSTORE POP POP SWAP1 POP DUP1 PUSH1 0x80 ADD MLOAD PUSH2 0x21F2 JUMPI PUSH0 SWAP2 POP POP PUSH2 0x228F JUMP JUMPDEST PUSH0 DUP2 PUSH1 0xC0 ADD MLOAD TIMESTAMP PUSH2 0x2203 SWAP2 SWAP1 PUSH2 0x4D2B JUMP JUMPDEST SWAP1 POP PUSH0 PUSH1 0x2 DUP2 GT ISZERO PUSH2 0x2218 JUMPI PUSH2 0x2217 PUSH2 0x3E1D JUMP JUMPDEST JUMPDEST DUP3 PUSH1 0x40 ADD MLOAD PUSH1 0x2 DUP2 GT ISZERO PUSH2 0x222F JUMPI PUSH2 0x222E PUSH2 0x3E1D JUMP JUMPDEST JUMPDEST SUB PUSH2 0x2244 JUMPI PUSH3 0x278D00 DUP2 LT ISZERO SWAP3 POP POP POP PUSH2 0x228F JUMP JUMPDEST PUSH1 0x1 PUSH1 0x2 DUP2 GT ISZERO PUSH2 0x2258 JUMPI PUSH2 0x2257 PUSH2 0x3E1D JUMP JUMPDEST JUMPDEST DUP3 PUSH1 0x40 ADD MLOAD PUSH1 0x2 DUP2 GT ISZERO PUSH2 0x226F JUMPI PUSH2 0x226E PUSH2 0x3E1D JUMP JUMPDEST JUMPDEST SUB PUSH2 0x2284 JUMPI PUSH3 0x93A80 DUP2 LT ISZERO SWAP3 POP POP POP PUSH2 0x228F JUMP JUMPDEST PUSH2 0xE10 DUP2 LT ISZERO SWAP3 POP POP POP JUMPDEST SWAP2 SWAP1 POP JUMP JUMPDEST PUSH1 0x2 PUSH0 SWAP1 SLOAD SWAP1 PUSH2 0x100 EXP SWAP1 DIV PUSH20 0xFFFFFFFFFFFFFFFFFFFFFFFFFFFFFFFFFFFFFFFF AND DUP2 JUMP JUMPDEST PUSH0 PUSH0 SHL DUP2 JUMP JUMPDEST PUSH1 0x60 PUSH1 0x5 PUSH0 DUP4 PUSH20 0xFFFFFFFFFFFFFFFFFFFFFFFFFFFFFFFFFFFFFFFF AND PUSH20 0xFFFFFFFFFFFFFFFFFFFFFFFFFFFFFFFFFFFFFFFF AND DUP2 MSTORE PUSH1 0x20 ADD SWAP1 DUP2 MSTORE PUSH1 0x20 ADD PUSH0 KECCAK256 DUP1 SLOAD DUP1 PUSH1 0x20 MUL PUSH1 0x20 ADD PUSH1 0x40 MLOAD SWAP1 DUP2 ADD PUSH1 0x40 MSTORE DUP1 SWAP3 SWAP2 SWAP1 DUP2 DUP2 MSTORE PUSH1 0x20 ADD PUSH0 SWAP1 JUMPDEST DUP3 DUP3 LT ISZERO PUSH2 0x246A JUMPI DUP4 DUP3 SWAP1 PUSH0 MSTORE PUSH1 0x20 PUSH0 KECCAK256 SWAP1 PUSH1 0x5 MUL ADD PUSH1 0x40 MLOAD DUP1 PUSH1 0xC0 ADD PUSH1 0x40 MSTORE SWAP1 DUP2 PUSH0 DUP3 ADD SLOAD DUP2 MSTORE PUSH1 0x20 ADD PUSH1 0x1 DUP3 ADD DUP1 SLOAD PUSH2 0x2357 SWAP1 PUSH2 0x493B JUMP JUMPDEST DUP1 PUSH1 0x1F ADD PUSH1 0x20 DUP1 SWAP2 DIV MUL PUSH1 0x20 ADD PUSH1 0x40 MLOAD SWAP1 DUP2 ADD PUSH1 0x40 MSTORE DUP1 SWAP3 SWAP2 SWAP1 DUP2 DUP2 MSTORE PUSH1 0x20 ADD DUP3 DUP1 SLOAD PUSH2 0x2383 SWAP1 PUSH2 0x493B JUMP JUMPDEST DUP1 ISZERO PUSH2 0x23CE JUMPI DUP1 PUSH1 0x1F LT PUSH2 0x23A5 JUMPI PUSH2 0x100 DUP1 DUP4 SLOAD DIV MUL DUP4 MSTORE SWAP2 PUSH1 0x20 ADD SWAP2 PUSH2 0x23CE JUMP JUMPDEST DUP3 ADD SWAP2 SWAP1 PUSH0 MSTORE PUSH1 0x20 PUSH0 KECCAK256 SWAP1 JUMPDEST DUP2 SLOAD DUP2 MSTORE SWAP1 PUSH1 0x1 ADD SWAP1 PUSH1 0x20 ADD DUP1 DUP4 GT PUSH2 0x23B1 JUMPI DUP3 SWAP1 SUB PUSH1 0x1F AND DUP3 ADD SWAP2 JUMPDEST POP POP POP POP POP DUP2 MSTORE PUSH1 0x20 ADD PUSH1 0x2 DUP3 ADD PUSH0 SWAP1 SLOAD SWAP1 PUSH2 0x100 EXP SWAP1 DIV PUSH1 0xFF AND ISZERO ISZERO ISZERO ISZERO DUP2 MSTORE PUSH1 0x20 ADD PUSH1 0x2 DUP3 ADD PUSH1 0x1 SWAP1 SLOAD SWAP1 PUSH2 0x100 EXP SWAP1 DIV PUSH20 0xFFFFFFFFFFFFFFFFFFFFFFFFFFFFFFFFFFFFFFFF AND PUSH20 0xFFFFFFFFFFFFFFFFFFFFFFFFFFFFFFFFFFFFFFFF AND PUSH20 0xFFFFFFFFFFFFFFFFFFFFFFFFFFFFFFFFFFFFFFFF AND DUP2 MSTORE PUSH1 0x20 ADD PUSH1 0x3 DUP3 ADD SLOAD DUP2 MSTORE PUSH1 0x20 ADD PUSH1 0x4 DUP3 ADD SLOAD DUP2 MSTORE POP POP DUP2 MSTORE PUSH1 0x20 ADD SWAP1 PUSH1 0x1 ADD SWAP1 PUSH2 0x231D JUMP JUMPDEST POP POP POP POP SWAP1 POP SWAP2 SWAP1 POP JUMP JUMPDEST PUSH1 0x2 PUSH0 SWAP1 SLOAD SWAP1 PUSH2 0x100 EXP SWAP1 DIV PUSH20 0xFFFFFFFFFFFFFFFFFFFFFFFFFFFFFFFFFFFFFFFF AND PUSH20 0xFFFFFFFFFFFFFFFFFFFFFFFFFFFFFFFFFFFFFFFF AND PUSH4 0x91D14854 PUSH32 0xA49807205CE4D355092EF5A8A18F56E8913CF4A201FBE287825B095693C21775 CALLER PUSH1 0x40 MLOAD DUP4 PUSH4 0xFFFFFFFF AND PUSH1 0xE0 SHL DUP2 MSTORE PUSH1 0x4 ADD PUSH2 0x24F1 SWAP3 SWAP2 SWAP1 PUSH2 0x4A0C JUMP JUMPDEST PUSH1 0x20 PUSH1 0x40 MLOAD DUP1 DUP4 SUB DUP2 DUP7 GAS STATICCALL ISZERO DUP1 ISZERO PUSH2 0x250C JUMPI RETURNDATASIZE PUSH0 PUSH0 RETURNDATACOPY RETURNDATASIZE PUSH0 REVERT JUMPDEST POP POP POP POP PUSH1 0x40 MLOAD RETURNDATASIZE PUSH1 0x1F NOT PUSH1 0x1F DUP3 ADD AND DUP3 ADD DUP1 PUSH1 0x40 MSTORE POP DUP2 ADD SWAP1 PUSH2 0x2530 SWAP2 SWAP1 PUSH2 0x4A5D JUMP JUMPDEST DUP1 PUSH2 0x25F2 JUMPI POP PUSH1 0x2 PUSH0 SWAP1 SLOAD SWAP1 PUSH2 0x100 EXP SWAP1 DIV PUSH20 0xFFFFFFFFFFFFFFFFFFFFFFFFFFFFFFFFFFFFFFFF AND PUSH20 0xFFFFFFFFFFFFFFFFFFFFFFFFFFFFFFFFFFFFFFFF AND PUSH4 0x91D14854 PUSH32 0xFD70517941C75212B0F9013E45C47A37D6D983C5304288C7AF285F2EA40CBBA7 CALLER PUSH1 0x40 MLOAD DUP4 PUSH4 0xFFFFFFFF AND PUSH1 0xE0 SHL DUP2 MSTORE PUSH1 0x4 ADD PUSH2 0x25B2 SWAP3 SWAP2 SWAP1 PUSH2 0x4A0C JUMP JUMPDEST PUSH1 0x20 PUSH1 0x40 MLOAD DUP1 DUP4 SUB DUP2 DUP7 GAS STATICCALL ISZERO DUP1 ISZERO PUSH2 0x25CD JUMPI RETURNDATASIZE PUSH0 PUSH0 RETURNDATACOPY RETURNDATASIZE PUSH0 REVERT JUMPDEST POP POP POP POP PUSH1 0x40 MLOAD RETURNDATASIZE PUSH1 0x1F NOT PUSH1 0x1F DUP3 ADD AND DUP3 ADD DUP1 PUSH1 0x40 MSTORE POP DUP2 ADD SWAP1 PUSH2 0x25F1 SWAP2 SWAP1 PUSH2 0x4A5D JUMP JUMPDEST JUMPDEST PUSH2 0x2631 JUMPI PUSH1 0x40 MLOAD PUSH32 0x8C379A000000000000000000000000000000000000000000000000000000000 DUP2 MSTORE PUSH1 0x4 ADD PUSH2 0x2628 SWAP1 PUSH2 0x4AD2 JUMP JUMPDEST PUSH1 0x40 MLOAD DUP1 SWAP2 SUB SWAP1 REVERT JUMPDEST PUSH1 0x3 PUSH0 DUP5 PUSH20 0xFFFFFFFFFFFFFFFFFFFFFFFFFFFFFFFFFFFFFFFF AND PUSH20 0xFFFFFFFFFFFFFFFFFFFFFFFFFFFFFFFFFFFFFFFF AND DUP2 MSTORE PUSH1 0x20 ADD SWAP1 DUP2 MSTORE PUSH1 0x20 ADD PUSH0 KECCAK256 PUSH1 0x2 ADD PUSH1 0x15 SWAP1 SLOAD SWAP1 PUSH2 0x100 EXP SWAP1 DIV PUSH1 0xFF AND PUSH2 0x26BE JUMPI PUSH1 0x40 MLOAD PUSH32 0x8C379A000000000000000000000000000000000000000000000000000000000 DUP2 MSTORE PUSH1 0x4 ADD PUSH2 0x26B5 SWAP1 PUSH2 0x4DA8 JUMP JUMPDEST PUSH1 0x40 MLOAD DUP1 SWAP2 SUB SWAP1 REVERT JUMPDEST PUSH0 PUSH1 0x40 MLOAD DUP1 PUSH1 0xA0 ADD PUSH1 0x40 MSTORE DUP1 DUP5 DUP2 MSTORE PUSH1 0x20 ADD DUP4 DUP2 MSTORE PUSH1 0x20 ADD PUSH0 ISZERO ISZERO DUP2 MSTORE PUSH1 0x20 ADD PUSH0 PUSH20 0xFFFFFFFFFFFFFFFFFFFFFFFFFFFFFFFFFFFFFFFF AND DUP2 MSTORE PUSH1 0x20 ADD TIMESTAMP DUP2 MSTORE POP SWAP1 POP PUSH1 0x4 PUSH0 DUP6 PUSH20 0xFFFFFFFFFFFFFFFFFFFFFFFFFFFFFFFFFFFFFFFF AND PUSH20 0xFFFFFFFFFFFFFFFFFFFFFFFFFFFFFFFFFFFFFFFF AND DUP2 MSTORE PUSH1 0x20 ADD SWAP1 DUP2 MSTORE PUSH1 0x20 ADD PUSH0 KECCAK256 DUP2 SWAP1 DUP1 PUSH1 0x1 DUP2 SLOAD ADD DUP1 DUP3 SSTORE DUP1 SWAP2 POP POP PUSH1 0x1 SWAP1 SUB SWAP1 PUSH0 MSTORE PUSH1 0x20 PUSH0 KECCAK256 SWAP1 PUSH1 0x4 MUL ADD PUSH0 SWAP1 SWAP2 SWAP1 SWAP2 SWAP1 SWAP2 POP PUSH0 DUP3 ADD MLOAD DUP2 PUSH0 ADD SSTORE PUSH1 0x20 DUP3 ADD MLOAD DUP2 PUSH1 0x1 ADD SWAP1 DUP2 PUSH2 0x2781 SWAP2 SWAP1 PUSH2 0x4F66 JUMP JUMPDEST POP PUSH1 0x40 DUP3 ADD MLOAD DUP2 PUSH1 0x2 ADD PUSH0 PUSH2 0x100 EXP DUP2 SLOAD DUP2 PUSH1 0xFF MUL NOT AND SWAP1 DUP4 ISZERO ISZERO MUL OR SWAP1 SSTORE POP PUSH1 0x60 DUP3 ADD MLOAD DUP2 PUSH1 0x2 ADD PUSH1 0x1 PUSH2 0x100 EXP DUP2 SLOAD DUP2 PUSH20 0xFFFFFFFFFFFFFFFFFFFFFFFFFFFFFFFFFFFFFFFF MUL NOT AND SWAP1 DUP4 PUSH20 0xFFFFFFFFFFFFFFFFFFFFFFFFFFFFFFFFFFFFFFFF AND MUL OR SWAP1 SSTORE POP PUSH1 0x80 DUP3 ADD MLOAD DUP2 PUSH1 0x3 ADD SSTORE POP POP DUP3 PUSH1 0x3 PUSH0 DUP7 PUSH20 0xFFFFFFFFFFFFFFFFFFFFFFFFFFFFFFFFFFFFFFFF AND PUSH20 0xFFFFFFFFFFFFFFFFFFFFFFFFFFFFFFFFFFFFFFFF AND DUP2 MSTORE PUSH1 0x20 ADD SWAP1 DUP2 MSTORE PUSH1 0x20 ADD PUSH0 KECCAK256 PUSH1 0x6 ADD PUSH0 DUP3 DUP3 SLOAD PUSH2 0x2843 SWAP2 SWAP1 PUSH2 0x4C90 JUMP JUMPDEST SWAP3 POP POP DUP2 SWAP1 SSTORE POP DUP4 PUSH20 0xFFFFFFFFFFFFFFFFFFFFFFFFFFFFFFFFFFFFFFFF AND PUSH32 0x144716541FA3A5361E9D8EBF0E89DB1F925817BB25B745E0F982FF069BED576C DUP5 DUP5 PUSH1 0x40 MLOAD PUSH2 0x2892 SWAP3 SWAP2 SWAP1 PUSH2 0x5035 JUMP JUMPDEST PUSH1 0x40 MLOAD DUP1 SWAP2 SUB SWAP1 LOG2 POP POP POP POP JUMP JUMPDEST PUSH1 0x2 PUSH0 SWAP1 SLOAD SWAP1 PUSH2 0x100 EXP SWAP1 DIV PUSH20 0xFFFFFFFFFFFFFFFFFFFFFFFFFFFFFFFFFFFFFFFF AND PUSH20 0xFFFFFFFFFFFFFFFFFFFFFFFFFFFFFFFFFFFFFFFF AND CALLER PUSH20 0xFFFFFFFFFFFFFFFFFFFFFFFFFFFFFFFFFFFFFFFF AND EQ PUSH2 0x292F JUMPI PUSH1 0x40 MLOAD PUSH32 0x8C379A000000000000000000000000000000000000000000000000000000000 DUP2 MSTORE PUSH1 0x4 ADD PUSH2 0x2926 SWAP1 PUSH2 0x50AD JUMP JUMPDEST PUSH1 0x40 MLOAD DUP1 SWAP2 SUB SWAP1 REVERT JUMPDEST TIMESTAMP PUSH1 0x3 PUSH0 DUP5 PUSH20 0xFFFFFFFFFFFFFFFFFFFFFFFFFFFFFFFFFFFFFFFF AND PUSH20 0xFFFFFFFFFFFFFFFFFFFFFFFFFFFFFFFFFFFFFFFF AND DUP2 MSTORE PUSH1 0x20 ADD SWAP1 DUP2 MSTORE PUSH1 0x20 ADD PUSH0 KECCAK256 PUSH1 0x4 ADD DUP2 SWAP1 SSTORE POP DUP1 PUSH1 0x3 PUSH0 DUP5 PUSH20 0xFFFFFFFFFFFFFFFFFFFFFFFFFFFFFFFFFFFFFFFF AND PUSH20 0xFFFFFFFFFFFFFFFFFFFFFFFFFFFFFFFFFFFFFFFF AND DUP2 MSTORE PUSH1 0x20 ADD SWAP1 DUP2 MSTORE PUSH1 0x20 ADD PUSH0 KECCAK256 PUSH1 0x5 ADD PUSH0 DUP3 DUP3 SLOAD PUSH2 0x29C3 SWAP2 SWAP1 PUSH2 0x4CD1 JUMP JUMPDEST SWAP3 POP POP DUP2 SWAP1 SSTORE POP PUSH1 0x3 PUSH0 DUP4 PUSH20 0xFFFFFFFFFFFFFFFFFFFFFFFFFFFFFFFFFFFFFFFF AND PUSH20 0xFFFFFFFFFFFFFFFFFFFFFFFFFFFFFFFFFFFFFFFF AND DUP2 MSTORE PUSH1 0x20 ADD SWAP1 DUP2 MSTORE PUSH1 0x20 ADD PUSH0 KECCAK256 PUSH1 0x9 ADD PUSH0 SWAP1 SLOAD SWAP1 PUSH2 0x100 EXP SWAP1 DIV PUSH1 0xFF AND ISZERO PUSH2 0x2AB9 JUMPI PUSH0 PUSH1 0x3 PUSH0 DUP5 PUSH20 0xFFFFFFFFFFFFFFFFFFFFFFFFFFFFFFFFFFFFFFFF AND PUSH20 0xFFFFFFFFFFFFFFFFFFFFFFFFFFFFFFFFFFFFFFFF AND DUP2 MSTORE PUSH1 0x20 ADD SWAP1 DUP2 MSTORE PUSH1 0x20 ADD PUSH0 KECCAK256 PUSH1 0x8 ADD DUP2 SWAP1 SSTORE POP PUSH0 PUSH1 0x3 PUSH0 DUP5 PUSH20 0xFFFFFFFFFFFFFFFFFFFFFFFFFFFFFFFFFFFFFFFF AND PUSH20 0xFFFFFFFFFFFFFFFFFFFFFFFFFFFFFFFFFFFFFFFF AND DUP2 MSTORE PUSH1 0x20 ADD SWAP1 DUP2 MSTORE PUSH1 0x20 ADD PUSH0 KECCAK256 PUSH1 0x9 ADD PUSH0 PUSH2 0x100 EXP DUP2 SLOAD DUP2 PUSH1 0xFF MUL NOT AND SWAP1 DUP4 ISZERO ISZERO MUL OR SWAP1 SSTORE POP JUMPDEST DUP2 PUSH20 0xFFFFFFFFFFFFFFFFFFFFFFFFFFFFFFFFFFFFFFFF AND PUSH32 0xC2031F9D5046CF95AC0999BEE4C7FFA7D3F21C2182851082F80916894D25D057 DUP3 TIMESTAMP PUSH1 0x40 MLOAD PUSH2 0x2B01 SWAP3 SWAP2 SWAP1 PUSH2 0x50CB JUMP JUMPDEST PUSH1 0x40 MLOAD DUP1 SWAP2 SUB SWAP1 LOG2 POP POP JUMP JUMPDEST PUSH1 0x2 PUSH0 SWAP1 SLOAD SWAP1 PUSH2 0x100 EXP SWAP1 DIV PUSH20 0xFFFFFFFFFFFFFFFFFFFFFFFFFFFFFFFFFFFFFFFF AND PUSH20 0xFFFFFFFFFFFFFFFFFFFFFFFFFFFFFFFFFFFFFFFF AND PUSH4 0x91D14854 PUSH32 0xA49807205CE4D355092EF5A8A18F56E8913CF4A201FBE287825B095693C21775 CALLER PUSH1 0x40 MLOAD DUP4 PUSH4 0xFFFFFFFF AND PUSH1 0xE0 SHL DUP2 MSTORE PUSH1 0x4 ADD PUSH2 0x2B89 SWAP3 SWAP2 SWAP1 PUSH2 0x4A0C JUMP JUMPDEST PUSH1 0x20 PUSH1 0x40 MLOAD DUP1 DUP4 SUB DUP2 DUP7 GAS STATICCALL ISZERO DUP1 ISZERO PUSH2 0x2BA4 JUMPI RETURNDATASIZE PUSH0 PUSH0 RETURNDATACOPY RETURNDATASIZE PUSH0 REVERT JUMPDEST POP POP POP POP PUSH1 0x40 MLOAD RETURNDATASIZE PUSH1 0x1F NOT PUSH1 0x1F DUP3 ADD AND DUP3 ADD DUP1 PUSH1 0x40 MSTORE POP DUP2 ADD SWAP1 PUSH2 0x2BC8 SWAP2 SWAP1 PUSH2 0x4A5D JUMP JUMPDEST DUP1 PUSH2 0x2C8A JUMPI POP PUSH1 0x2 PUSH0 SWAP1 SLOAD SWAP1 PUSH2 0x100 EXP SWAP1 DIV PUSH20 0xFFFFFFFFFFFFFFFFFFFFFFFFFFFFFFFFFFFFFFFF AND PUSH20 0xFFFFFFFFFFFFFFFFFFFFFFFFFFFFFFFFFFFFFFFF AND PUSH4 0x91D14854 PUSH32 0xFD70517941C75212B0F9013E45C47A37D6D983C5304288C7AF285F2EA40CBBA7 CALLER PUSH1 0x40 MLOAD DUP4 PUSH4 0xFFFFFFFF AND PUSH1 0xE0 SHL DUP2 MSTORE PUSH1 0x4 ADD PUSH2 0x2C4A SWAP3 SWAP2 SWAP1 PUSH2 0x4A0C JUMP JUMPDEST PUSH1 0x20 PUSH1 0x40 MLOAD DUP1 DUP4 SUB DUP2 DUP7 GAS STATICCALL ISZERO DUP1 ISZERO PUSH2 0x2C65 JUMPI RETURNDATASIZE PUSH0 PUSH0 RETURNDATACOPY RETURNDATASIZE PUSH0 REVERT JUMPDEST POP POP POP POP PUSH1 0x40 MLOAD RETURNDATASIZE PUSH1 0x1F NOT PUSH1 0x1F DUP3 ADD AND DUP3 ADD DUP1 PUSH1 0x40 MSTORE POP DUP2 ADD SWAP1 PUSH2 0x2C89 SWAP2 SWAP1 PUSH2 0x4A5D JUMP JUMPDEST JUMPDEST PUSH2 0x2CC9 JUMPI PUSH1 0x40 MLOAD PUSH32 0x8C379A000000000000000000000000000000000000000000000000000000000 DUP2 MSTORE PUSH1 0x4 ADD PUSH2 0x2CC0 SWAP1 PUSH2 0x4AD2 JUMP JUMPDEST PUSH1 0x40 MLOAD DUP1 SWAP2 SUB SWAP1 REVERT JUMPDEST PUSH1 0x3 PUSH0 DUP6 PUSH20 0xFFFFFFFFFFFFFFFFFFFFFFFFFFFFFFFFFFFFFFFF AND PUSH20 0xFFFFFFFFFFFFFFFFFFFFFFFFFFFFFFFFFFFFFFFF AND DUP2 MSTORE PUSH1 0x20 ADD SWAP1 DUP2 MSTORE PUSH1 0x20 ADD PUSH0 KECCAK256 PUSH1 0x2 ADD PUSH1 0x15 SWAP1 SLOAD SWAP1 PUSH2 0x100 EXP SWAP1 DIV PUSH1 0xFF AND PUSH2 0x2D56 JUMPI PUSH1 0x40 MLOAD PUSH32 0x8C379A000000000000000000000000000000000000000000000000000000000 DUP2 MSTORE PUSH1 0x4 ADD PUSH2 0x2D4D SWAP1 PUSH2 0x4DA8 JUMP JUMPDEST PUSH1 0x40 MLOAD DUP1 SWAP2 SUB SWAP1 REVERT JUMPDEST DUP3 PUSH1 0x3 PUSH0 DUP7 PUSH20 0xFFFFFFFFFFFFFFFFFFFFFFFFFFFFFFFFFFFFFFFF AND PUSH20 0xFFFFFFFFFFFFFFFFFFFFFFFFFFFFFFFFFFFFFFFF AND DUP2 MSTORE PUSH1 0x20 ADD SWAP1 DUP2 MSTORE PUSH1 0x20 ADD PUSH0 KECCAK256 PUSH1 0x1 ADD DUP2 SWAP1 SSTORE POP DUP2 PUSH1 0x3 PUSH0 DUP7 PUSH20 0xFFFFFFFFFFFFFFFFFFFFFFFFFFFFFFFFFFFFFFFF AND PUSH20 0xFFFFFFFFFFFFFFFFFFFFFFFFFFFFFFFFFFFFFFFF AND DUP2 MSTORE PUSH1 0x20 ADD SWAP1 DUP2 MSTORE PUSH1 0x20 ADD PUSH0 KECCAK256 PUSH1 0x2 ADD PUSH0 PUSH2 0x100 EXP DUP2 SLOAD DUP2 PUSH1 0xFF MUL NOT AND SWAP1 DUP4 PUSH1 0x2 DUP2 GT ISZERO PUSH2 0x2DFD JUMPI PUSH2 0x2DFC PUSH2 0x3E1D JUMP JUMPDEST JUMPDEST MUL OR SWAP1 SSTORE POP DUP1 PUSH1 0x3 PUSH0 DUP7 PUSH20 0xFFFFFFFFFFFFFFFFFFFFFFFFFFFFFFFFFFFFFFFF AND PUSH20 0xFFFFFFFFFFFFFFFFFFFFFFFFFFFFFFFFFFFFFFFF AND DUP2 MSTORE PUSH1 0x20 ADD SWAP1 DUP2 MSTORE PUSH1 0x20 ADD PUSH0 KECCAK256 PUSH1 0x2 ADD PUSH1 0x1 PUSH2 0x100 EXP DUP2 SLOAD DUP2 PUSH20 0xFFFFFFFFFFFFFFFFFFFFFFFFFFFFFFFFFFFFFFFF MUL NOT AND SWAP1 DUP4 PUSH20 0xFFFFFFFFFFFFFFFFFFFFFFFFFFFFFFFFFFFFFFFF AND MUL OR SWAP1 SSTORE POP DUP4 PUSH20 0xFFFFFFFFFFFFFFFFFFFFFFFFFFFFFFFFFFFFFFFF AND PUSH32 0x1EE4BA310539BF61900EAE83F6F369673CE6A17C2ACAE70119382E9AD7273110 DUP5 PUSH1 0x40 MLOAD PUSH2 0x2EC7 SWAP2 SWAP1 PUSH2 0x42B8 JUMP JUMPDEST PUSH1 0x40 MLOAD DUP1 SWAP2 SUB SWAP1 LOG2 POP POP POP POP JUMP JUMPDEST PUSH1 0x3 PUSH1 0x20 MSTORE DUP1 PUSH0 MSTORE PUSH1 0x40 PUSH0 KECCAK256 PUSH0 SWAP2 POP SWAP1 POP DUP1 PUSH0 ADD PUSH0 SWAP1 SLOAD SWAP1 PUSH2 0x100 EXP SWAP1 DIV PUSH20 0xFFFFFFFFFFFFFFFFFFFFFFFFFFFFFFFFFFFFFFFF AND SWAP1 DUP1 PUSH1 0x1 ADD SLOAD SWAP1 DUP1 PUSH1 0x2 ADD PUSH0 SWAP1 SLOAD SWAP1 PUSH2 0x100 EXP SWAP1 DIV PUSH1 0xFF AND SWAP1 DUP1 PUSH1 0x2 ADD PUSH1 0x1 SWAP1 SLOAD SWAP1 PUSH2 0x100 EXP SWAP1 DIV PUSH20 0xFFFFFFFFFFFFFFFFFFFFFFFFFFFFFFFFFFFFFFFF AND SWAP1 DUP1 PUSH1 0x2 ADD PUSH1 0x15 SWAP1 SLOAD SWAP1 PUSH2 0x100 EXP SWAP1 DIV PUSH1 0xFF AND SWAP1 DUP1 PUSH1 0x3 ADD SLOAD SWAP1 DUP1 PUSH1 0x4 ADD SLOAD SWAP1 DUP1 PUSH1 0x5 ADD SLOAD SWAP1 DUP1 PUSH1 0x6 ADD SLOAD SWAP1 DUP1 PUSH1 0x7 ADD SLOAD SWAP1 DUP1 PUSH1 0x8 ADD SLOAD SWAP1 DUP1 PUSH1 0x9 ADD PUSH0 SWAP1 SLOAD SWAP1 PUSH2 0x100 EXP SWAP1 DIV PUSH1 0xFF AND SWAP1 POP DUP13 JUMP JUMPDEST PUSH2 0x2F9E DUP3 PUSH2 0x6AF JUMP JUMPDEST PUSH2 0x2FA7 DUP2 PUSH2 0x3914 JUMP JUMPDEST PUSH2 0x2FB1 DUP4 DUP4 PUSH2 0x3A18 JUMP JUMPDEST POP POP POP POP JUMP JUMPDEST PUSH1 0x3 PUSH0 CALLER PUSH20 0xFFFFFFFFFFFFFFFFFFFFFFFFFFFFFFFFFFFFFFFF AND PUSH20 0xFFFFFFFFFFFFFFFFFFFFFFFFFFFFFFFFFFFFFFFF AND DUP2 MSTORE PUSH1 0x20 ADD SWAP1 DUP2 MSTORE PUSH1 0x20 ADD PUSH0 KECCAK256 PUSH1 0x2 ADD PUSH1 0x15 SWAP1 SLOAD SWAP1 PUSH2 0x100 EXP SWAP1 DIV PUSH1 0xFF AND PUSH2 0x3044 JUMPI PUSH1 0x40 MLOAD PUSH32 0x8C379A000000000000000000000000000000000000000000000000000000000 DUP2 MSTORE PUSH1 0x4 ADD PUSH2 0x303B SWAP1 PUSH2 0x4DA8 JUMP JUMPDEST PUSH1 0x40 MLOAD DUP1 SWAP2 SUB SWAP1 REVERT JUMPDEST PUSH0 DUP3 GT PUSH2 0x3086 JUMPI PUSH1 0x40 MLOAD PUSH32 0x8C379A000000000000000000000000000000000000000000000000000000000 DUP2 MSTORE PUSH1 0x4 ADD PUSH2 0x307D SWAP1 PUSH2 0x513C JUMP JUMPDEST PUSH1 0x40 MLOAD DUP1 SWAP2 SUB SWAP1 REVERT JUMPDEST PUSH0 PUSH1 0x3 PUSH0 CALLER PUSH20 0xFFFFFFFFFFFFFFFFFFFFFFFFFFFFFFFFFFFFFFFF AND PUSH20 0xFFFFFFFFFFFFFFFFFFFFFFFFFFFFFFFFFFFFFFFF AND DUP2 MSTORE PUSH1 0x20 ADD SWAP1 DUP2 MSTORE PUSH1 0x20 ADD PUSH0 KECCAK256 PUSH1 0x8 ADD SLOAD EQ PUSH2 0x3108 JUMPI PUSH1 0x40 MLOAD PUSH32 0x8C379A000000000000000000000000000000000000000000000000000000000 DUP2 MSTORE PUSH1 0x4 ADD PUSH2 0x30FF SWAP1 PUSH2 0x51A4 JUMP JUMPDEST PUSH1 0x40 MLOAD DUP1 SWAP2 SUB SWAP1 REVERT JUMPDEST PUSH0 PUSH1 0x40 MLOAD DUP1 PUSH1 0xC0 ADD PUSH1 0x40 MSTORE DUP1 DUP5 DUP2 MSTORE PUSH1 0x20 ADD DUP4 DUP2 MSTORE PUSH1 0x20 ADD PUSH0 ISZERO ISZERO DUP2 MSTORE PUSH1 0x20 ADD PUSH0 PUSH20 0xFFFFFFFFFFFFFFFFFFFFFFFFFFFFFFFFFFFFFFFF AND DUP2 MSTORE PUSH1 0x20 ADD TIMESTAMP DUP2 MSTORE PUSH1 0x20 ADD PUSH0 DUP2 MSTORE POP SWAP1 POP PUSH1 0x5 PUSH0 CALLER PUSH20 0xFFFFFFFFFFFFFFFFFFFFFFFFFFFFFFFFFFFFFFFF AND PUSH20 0xFFFFFFFFFFFFFFFFFFFFFFFFFFFFFFFFFFFFFFFF AND DUP2 MSTORE PUSH1 0x20 ADD SWAP1 DUP2 MSTORE PUSH1 0x20 ADD PUSH0 KECCAK256 DUP2 SWAP1 DUP1 PUSH1 0x1 DUP2 SLOAD ADD DUP1 DUP3 SSTORE DUP1 SWAP2 POP POP PUSH1 0x1 SWAP1 SUB SWAP1 PUSH0 MSTORE PUSH1 0x20 PUSH0 KECCAK256 SWAP1 PUSH1 0x5 MUL ADD PUSH0 SWAP1 SWAP2 SWAP1 SWAP2 SWAP1 SWAP2 POP PUSH0 DUP3 ADD MLOAD DUP2 PUSH0 ADD SSTORE PUSH1 0x20 DUP3 ADD MLOAD DUP2 PUSH1 0x1 ADD SWAP1 DUP2 PUSH2 0x31D1 SWAP2 SWAP1 PUSH2 0x4F66 JUMP JUMPDEST POP PUSH1 0x40 DUP3 ADD MLOAD DUP2 PUSH1 0x2 ADD PUSH0 PUSH2 0x100 EXP DUP2 SLOAD DUP2 PUSH1 0xFF MUL NOT AND SWAP1 DUP4 ISZERO ISZERO MUL OR SWAP1 SSTORE POP PUSH1 0x60 DUP3 ADD MLOAD DUP2 PUSH1 0x2 ADD PUSH1 0x1 PUSH2 0x100 EXP DUP2 SLOAD DUP2 PUSH20 0xFFFFFFFFFFFFFFFFFFFFFFFFFFFFFFFFFFFFFFFF MUL NOT AND SWAP1 DUP4 PUSH20 0xFFFFFFFFFFFFFFFFFFFFFFFFFFFFFFFFFFFFFFFF AND MUL OR SWAP1 SSTORE POP PUSH1 0x80 DUP3 ADD MLOAD DUP2 PUSH1 0x3 ADD SSTORE PUSH1 0xA0 DUP3 ADD MLOAD DUP2 PUSH1 0x4 ADD SSTORE POP POP DUP3 PUSH1 0x3 PUSH0 CALLER PUSH20 0xFFFFFFFFFFFFFFFFFFFFFFFFFFFFFFFFFFFFFFFF AND PUSH20 0xFFFFFFFFFFFFFFFFFFFFFFFFFFFFFFFFFFFFFFFF AND DUP2 MSTORE PUSH1 0x20 ADD SWAP1 DUP2 MSTORE PUSH1 0x20 ADD PUSH0 KECCAK256 PUSH1 0x8 ADD DUP2 SWAP1 SSTORE POP CALLER PUSH20 0xFFFFFFFFFFFFFFFFFFFFFFFFFFFFFFFFFFFFFFFF AND PUSH32 0xBE3B24F293DDEF3969DF002B8138447991FA116158B16BFBA98C7ADEDABC0A91 DUP5 DUP5 PUSH1 0x40 MLOAD PUSH2 0x32DB SWAP3 SWAP2 SWAP1 PUSH2 0x51C2 JUMP JUMPDEST PUSH1 0x40 MLOAD DUP1 SWAP2 SUB SWAP1 LOG2 POP POP POP JUMP JUMPDEST PUSH1 0x2 PUSH0 SWAP1 SLOAD SWAP1 PUSH2 0x100 EXP SWAP1 DIV PUSH20 0xFFFFFFFFFFFFFFFFFFFFFFFFFFFFFFFFFFFFFFFF AND PUSH20 0xFFFFFFFFFFFFFFFFFFFFFFFFFFFFFFFFFFFFFFFF AND CALLER PUSH20 0xFFFFFFFFFFFFFFFFFFFFFFFFFFFFFFFFFFFFFFFF AND EQ PUSH2 0x3377 JUMPI PUSH1 0x40 MLOAD PUSH32 0x8C379A000000000000000000000000000000000000000000000000000000000 DUP2 MSTORE PUSH1 0x4 ADD PUSH2 0x336E SWAP1 PUSH2 0x50AD JUMP JUMPDEST PUSH1 0x40 MLOAD DUP1 SWAP2 SUB SWAP1 REVERT JUMPDEST PUSH0 PUSH20 0xFFFFFFFFFFFFFFFFFFFFFFFFFFFFFFFFFFFFFFFF AND DUP5 PUSH20 0xFFFFFFFFFFFFFFFFFFFFFFFFFFFFFFFFFFFFFFFF AND SUB PUSH2 0x33E5 JUMPI PUSH1 0x40 MLOAD PUSH32 0x8C379A000000000000000000000000000000000000000000000000000000000 DUP2 MSTORE PUSH1 0x4 ADD PUSH2 0x33DC SWAP1 PUSH2 0x523A JUMP JUMPDEST PUSH1 0x40 MLOAD DUP1 SWAP2 SUB SWAP1 REVERT JUMPDEST PUSH0 DUP4 GT PUSH2 0x3427 JUMPI PUSH1 0x40 MLOAD PUSH32 0x8C379A000000000000000000000000000000000000000000000000000000000 DUP2 MSTORE PUSH1 0x4 ADD PUSH2 0x341E SWAP1 PUSH2 0x52A2 JUMP JUMPDEST PUSH1 0x40 MLOAD DUP1 SWAP2 SUB SWAP1 REVERT JUMPDEST PUSH1 0x3 PUSH0 DUP6 PUSH20 0xFFFFFFFFFFFFFFFFFFFFFFFFFFFFFFFFFFFFFFFF AND PUSH20 0xFFFFFFFFFFFFFFFFFFFFFFFFFFFFFFFFFFFFFFFF AND DUP2 MSTORE PUSH1 0x20 ADD SWAP1 DUP2 MSTORE PUSH1 0x20 ADD PUSH0 KECCAK256 PUSH1 0x2 ADD PUSH1 0x15 SWAP1 SLOAD SWAP1 PUSH2 0x100 EXP SWAP1 DIV PUSH1 0xFF AND ISZERO PUSH2 0x34B5 JUMPI PUSH1 0x40 MLOAD PUSH32 0x8C379A000000000000000000000000000000000000000000000000000000000 DUP2 MSTORE PUSH1 0x4 ADD PUSH2 0x34AC SWAP1 PUSH2 0x530A JUMP JUMPDEST PUSH1 0x40 MLOAD DUP1 SWAP2 SUB SWAP1 REVERT JUMPDEST PUSH1 0x40 MLOAD DUP1 PUSH2 0x180 ADD PUSH1 0x40 MSTORE DUP1 DUP6 PUSH20 0xFFFFFFFFFFFFFFFFFFFFFFFFFFFFFFFFFFFFFFFF AND DUP2 MSTORE PUSH1 0x20 ADD DUP5 DUP2 MSTORE PUSH1 0x20 ADD DUP4 PUSH1 0x2 DUP2 GT ISZERO PUSH2 0x34F6 JUMPI PUSH2 0x34F5 PUSH2 0x3E1D JUMP JUMPDEST JUMPDEST DUP2 MSTORE PUSH1 0x20 ADD DUP3 PUSH20 0xFFFFFFFFFFFFFFFFFFFFFFFFFFFFFFFFFFFFFFFF AND DUP2 MSTORE PUSH1 0x20 ADD PUSH1 0x1 ISZERO ISZERO DUP2 MSTORE PUSH1 0x20 ADD TIMESTAMP DUP2 MSTORE PUSH1 0x20 ADD PUSH0 DUP2 MSTORE PUSH1 0x20 ADD PUSH0 DUP2 MSTORE PUSH1 0x20 ADD PUSH0 DUP2 MSTORE PUSH1 0x20 ADD PUSH0 DUP2 MSTORE PUSH1 0x20 ADD PUSH0 DUP2 MSTORE PUSH1 0x20 ADD PUSH0 ISZERO ISZERO DUP2 MSTORE POP PUSH1 0x3 PUSH0 DUP7 PUSH20 0xFFFFFFFFFFFFFFFFFFFFFFFFFFFFFFFFFFFFFFFF AND PUSH20 0xFFFFFFFFFFFFFFFFFFFFFFFFFFFFFFFFFFFFFFFF AND DUP2 MSTORE PUSH1 0x20 ADD SWAP1 DUP2 MSTORE PUSH1 0x20 ADD PUSH0 KECCAK256 PUSH0 DUP3 ADD MLOAD DUP2 PUSH0 ADD PUSH0 PUSH2 0x100 EXP DUP2 SLOAD DUP2 PUSH20 0xFFFFFFFFFFFFFFFFFFFFFFFFFFFFFFFFFFFFFFFF MUL NOT AND SWAP1 DUP4 PUSH20 0xFFFFFFFFFFFFFFFFFFFFFFFFFFFFFFFFFFFFFFFF AND MUL OR SWAP1 SSTORE POP PUSH1 0x20 DUP3 ADD MLOAD DUP2 PUSH1 0x1 ADD SSTORE PUSH1 0x40 DUP3 ADD MLOAD DUP2 PUSH1 0x2 ADD PUSH0 PUSH2 0x100 EXP DUP2 SLOAD DUP2 PUSH1 0xFF MUL NOT AND SWAP1 DUP4 PUSH1 0x2 DUP2 GT ISZERO PUSH2 0x35FF JUMPI PUSH2 0x35FE PUSH2 0x3E1D JUMP JUMPDEST JUMPDEST MUL OR SWAP1 SSTORE POP PUSH1 0x60 DUP3 ADD MLOAD DUP2 PUSH1 0x2 ADD PUSH1 0x1 PUSH2 0x100 EXP DUP2 SLOAD DUP2 PUSH20 0xFFFFFFFFFFFFFFFFFFFFFFFFFFFFFFFFFFFFFFFF MUL NOT AND SWAP1 DUP4 PUSH20 0xFFFFFFFFFFFFFFFFFFFFFFFFFFFFFFFFFFFFFFFF AND MUL OR SWAP1 SSTORE POP PUSH1 0x80 DUP3 ADD MLOAD DUP2 PUSH1 0x2 ADD PUSH1 0x15 PUSH2 0x100 EXP DUP2 SLOAD DUP2 PUSH1 0xFF MUL NOT AND SWAP1 DUP4 ISZERO ISZERO MUL OR SWAP1 SSTORE POP PUSH1 0xA0 DUP3 ADD MLOAD DUP2 PUSH1 0x3 ADD SSTORE PUSH1 0xC0 DUP3 ADD MLOAD DUP2 PUSH1 0x4 ADD SSTORE PUSH1 0xE0 DUP3 ADD MLOAD DUP2 PUSH1 0x5 ADD SSTORE PUSH2 0x100 DUP3 ADD MLOAD DUP2 PUSH1 0x6 ADD SSTORE PUSH2 0x120 DUP3 ADD MLOAD DUP2 PUSH1 0x7 ADD SSTORE PUSH2 0x140 DUP3 ADD MLOAD DUP2 PUSH1 0x8 ADD SSTORE PUSH2 0x160 DUP3 ADD MLOAD DUP2 PUSH1 0x9 ADD PUSH0 PUSH2 0x100 EXP DUP2 SLOAD DUP2 PUSH1 0xFF MUL NOT AND SWAP1 DUP4 ISZERO ISZERO MUL OR SWAP1 SSTORE POP SWAP1 POP POP PUSH1 0x6 DUP5 SWAP1 DUP1 PUSH1 0x1 DUP2 SLOAD ADD DUP1 DUP3 SSTORE DUP1 SWAP2 POP POP PUSH1 0x1 SWAP1 SUB SWAP1 PUSH0 MSTORE PUSH1 0x20 PUSH0 KECCAK256 ADD PUSH0 SWAP1 SWAP2 SWAP1 SWAP2 SWAP1 SWAP2 PUSH2 0x100 EXP DUP2 SLOAD DUP2 PUSH20 0xFFFFFFFFFFFFFFFFFFFFFFFFFFFFFFFFFFFFFFFF MUL NOT AND SWAP1 DUP4 PUSH20 0xFFFFFFFFFFFFFFFFFFFFFFFFFFFFFFFFFFFFFFFF AND MUL OR SWAP1 SSTORE POP DUP4 PUSH20 0xFFFFFFFFFFFFFFFFFFFFFFFFFFFFFFFFFFFFFFFF AND PUSH32 0x853440635BF3363339238048354E555B89626D0AEA550141628FFE6EE089EEF7 DUP5 DUP5 PUSH1 0x40 MLOAD PUSH2 0x3775 SWAP3 SWAP2 SWAP1 PUSH2 0x5328 JUMP JUMPDEST PUSH1 0x40 MLOAD DUP1 SWAP2 SUB SWAP1 LOG2 POP POP POP POP JUMP JUMPDEST PUSH1 0x5 PUSH1 0x20 MSTORE DUP2 PUSH0 MSTORE PUSH1 0x40 PUSH0 KECCAK256 DUP2 DUP2 SLOAD DUP2 LT PUSH2 0x379C JUMPI PUSH0 DUP1 REVERT JUMPDEST SWAP1 PUSH0 MSTORE PUSH1 0x20 PUSH0 KECCAK256 SWAP1 PUSH1 0x5 MUL ADD PUSH0 SWAP2 POP SWAP2 POP POP DUP1 PUSH0 ADD SLOAD SWAP1 DUP1 PUSH1 0x1 ADD DUP1 SLOAD PUSH2 0x37C2 SWAP1 PUSH2 0x493B JUMP JUMPDEST DUP1 PUSH1 0x1F ADD PUSH1 0x20 DUP1 SWAP2 DIV MUL PUSH1 0x20 ADD PUSH1 0x40 MLOAD SWAP1 DUP2 ADD PUSH1 0x40 MSTORE DUP1 SWAP3 SWAP2 SWAP1 DUP2 DUP2 MSTORE PUSH1 0x20 ADD DUP3 DUP1 SLOAD PUSH2 0x37EE SWAP1 PUSH2 0x493B JUMP JUMPDEST DUP1 ISZERO PUSH2 0x3839 JUMPI DUP1 PUSH1 0x1F LT PUSH2 0x3810 JUMPI PUSH2 0x100 DUP1 DUP4 SLOAD DIV MUL DUP4 MSTORE SWAP2 PUSH1 0x20 ADD SWAP2 PUSH2 0x3839 JUMP JUMPDEST DUP3 ADD SWAP2 SWAP1 PUSH0 MSTORE PUSH1 0x20 PUSH0 KECCAK256 SWAP1 JUMPDEST DUP2 SLOAD DUP2 MSTORE SWAP1 PUSH1 0x1 ADD SWAP1 PUSH1 0x20 ADD DUP1 DUP4 GT PUSH2 0x381C JUMPI DUP3 SWAP1 SUB PUSH1 0x1F AND DUP3 ADD SWAP2 JUMPDEST POP POP POP POP POP SWAP1 DUP1 PUSH1 0x2 ADD PUSH0 SWAP1 SLOAD SWAP1 PUSH2 0x100 EXP SWAP1 DIV PUSH1 0xFF AND SWAP1 DUP1 PUSH1 0x2 ADD PUSH1 0x1 SWAP1 SLOAD SWAP1 PUSH2 0x100 EXP SWAP1 DIV PUSH20 0xFFFFFFFFFFFFFFFFFFFFFFFFFFFFFFFFFFFFFFFF AND SWAP1 DUP1 PUSH1 0x3 ADD SLOAD SWAP1 DUP1 PUSH1 0x4 ADD SLOAD SWAP1 POP DUP7 JUMP JUMPDEST PUSH32 0xFD70517941C75212B0F9013E45C47A37D6D983C5304288C7AF285F2EA40CBBA7 DUP2 JUMP JUMPDEST PUSH0 PUSH32 0x1FFC9A700000000000000000000000000000000000000000000000000000000 PUSH28 0xFFFFFFFFFFFFFFFFFFFFFFFFFFFFFFFFFFFFFFFFFFFFFFFFFFFFFFFF NOT AND DUP3 PUSH28 0xFFFFFFFFFFFFFFFFFFFFFFFFFFFFFFFFFFFFFFFFFFFFFFFFFFFFFFFF NOT AND EQ SWAP1 POP SWAP2 SWAP1 POP JUMP JUMPDEST PUSH2 0x3925 DUP2 PUSH2 0x3920 PUSH2 0x3A11 JUMP JUMPDEST PUSH2 0x3B01 JUMP JUMPDEST POP JUMP JUMPDEST PUSH0 PUSH2 0x3933 DUP4 DUP4 PUSH2 0x1FD1 JUMP JUMPDEST PUSH2 0x3A07 JUMPI PUSH1 0x1 PUSH0 PUSH0 DUP6 DUP2 MSTORE PUSH1 0x20 ADD SWAP1 DUP2 MSTORE PUSH1 0x20 ADD PUSH0 KECCAK256 PUSH0 ADD PUSH0 DUP5 PUSH20 0xFFFFFFFFFFFFFFFFFFFFFFFFFFFFFFFFFFFFFFFF AND PUSH20 0xFFFFFFFFFFFFFFFFFFFFFFFFFFFFFFFFFFFFFFFF AND DUP2 MSTORE PUSH1 0x20 ADD SWAP1 DUP2 MSTORE PUSH1 0x20 ADD PUSH0 KECCAK256 PUSH0 PUSH2 0x100 EXP DUP2 SLOAD DUP2 PUSH1 0xFF MUL NOT AND SWAP1 DUP4 ISZERO ISZERO MUL OR SWAP1 SSTORE POP PUSH2 0x39A4 PUSH2 0x3A11 JUMP JUMPDEST PUSH20 0xFFFFFFFFFFFFFFFFFFFFFFFFFFFFFFFFFFFFFFFF AND DUP3 PUSH20 0xFFFFFFFFFFFFFFFFFFFFFFFFFFFFFFFFFFFFFFFF AND DUP5 PUSH32 0x2F8788117E7EFF1D82E926EC794901D17C78024A50270940304540A733656F0D PUSH1 0x40 MLOAD PUSH1 0x40 MLOAD DUP1 SWAP2 SUB SWAP1 LOG4 PUSH1 0x1 SWAP1 POP PUSH2 0x3A0B JUMP JUMPDEST PUSH0 SWAP1 POP JUMPDEST SWAP3 SWAP2 POP POP JUMP JUMPDEST PUSH0 CALLER SWAP1 POP SWAP1 JUMP JUMPDEST PUSH0 PUSH2 0x3A23 DUP4 DUP4 PUSH2 0x1FD1 JUMP JUMPDEST ISZERO PUSH2 0x3AF7 JUMPI PUSH0 PUSH0 PUSH0 DUP6 DUP2 MSTORE PUSH1 0x20 ADD SWAP1 DUP2 MSTORE PUSH1 0x20 ADD PUSH0 KECCAK256 PUSH0 ADD PUSH0 DUP5 PUSH20 0xFFFFFFFFFFFFFFFFFFFFFFFFFFFFFFFFFFFFFFFF AND PUSH20 0xFFFFFFFFFFFFFFFFFFFFFFFFFFFFFFFFFFFFFFFF AND DUP2 MSTORE PUSH1 0x20 ADD SWAP1 DUP2 MSTORE PUSH1 0x20 ADD PUSH0 KECCAK256 PUSH0 PUSH2 0x100 EXP DUP2 SLOAD DUP2 PUSH1 0xFF MUL NOT AND SWAP1 DUP4 ISZERO ISZERO MUL OR SWAP1 SSTORE POP PUSH2 0x3A94 PUSH2 0x3A11 JUMP JUMPDEST PUSH20 0xFFFFFFFFFFFFFFFFFFFFFFFFFFFFFFFFFFFFFFFF AND DUP3 PUSH20 0xFFFFFFFFFFFFFFFFFFFFFFFFFFFFFFFFFFFFFFFF AND DUP5 PUSH32 0xF6391F5C32D9C69D2A47EA670B442974B53935D1EDC7FD64EB21E047A839171B PUSH1 0x40 MLOAD PUSH1 0x40 MLOAD DUP1 SWAP2 SUB SWAP1 LOG4 PUSH1 0x1 SWAP1 POP PUSH2 0x3AFB JUMP JUMPDEST PUSH0 SWAP1 POP JUMPDEST SWAP3 SWAP2 POP POP JUMP JUMPDEST PUSH2 0x3B0B DUP3 DUP3 PUSH2 0x1FD1 JUMP JUMPDEST PUSH2 0x3B4E JUMPI DUP1 DUP3 PUSH1 0x40 MLOAD PUSH32 0xE2517D3F00000000000000000000000000000000000000000000000000000000 DUP2 MSTORE PUSH1 0x4 ADD PUSH2 0x3B45 SWAP3 SWAP2 SWAP1 PUSH2 0x534F JUMP JUMPDEST PUSH1 0x40 MLOAD DUP1 SWAP2 SUB SWAP1 REVERT JUMPDEST POP POP JUMP JUMPDEST PUSH1 0x40 MLOAD DUP1 PUSH2 0x180 ADD PUSH1 0x40 MSTORE DUP1 PUSH0 PUSH20 0xFFFFFFFFFFFFFFFFFFFFFFFFFFFFFFFFFFFFFFFF AND DUP2 MSTORE PUSH1 0x20 ADD PUSH0 DUP2 MSTORE PUSH1 0x20 ADD PUSH0 PUSH1 0x2 DUP2 GT ISZERO PUSH2 0x3B93 JUMPI PUSH2 0x3B92 PUSH2 0x3E1D JUMP JUMPDEST JUMPDEST DUP2 MSTORE PUSH1 0x20 ADD PUSH0 PUSH20 0xFFFFFFFFFFFFFFFFFFFFFFFFFFFFFFFFFFFFFFFF AND DUP2 MSTORE PUSH1 0x20 ADD PUSH0 ISZERO ISZERO DUP2 MSTORE PUSH1 0x20 ADD PUSH0 DUP2 MSTORE PUSH1 0x20 ADD PUSH0 DUP2 MSTORE PUSH1 0x20 ADD PUSH0 DUP2 MSTORE PUSH1 0x20 ADD PUSH0 DUP2 MSTORE PUSH1 0x20 ADD PUSH0 DUP2 MSTORE PUSH1 0x20 ADD PUSH0 DUP2 MSTORE PUSH1 0x20 ADD PUSH0 ISZERO ISZERO DUP2 MSTORE POP SWAP1 JUMP JUMPDEST PUSH0 PUSH1 0x40 MLOAD SWAP1 POP SWAP1 JUMP JUMPDEST PUSH0 PUSH0 REVERT JUMPDEST PUSH0 PUSH0 REVERT JUMPDEST PUSH0 PUSH32 0xFFFFFFFF00000000000000000000000000000000000000000000000000000000 DUP3 AND SWAP1 POP SWAP2 SWAP1 POP JUMP JUMPDEST PUSH2 0x3C2E DUP2 PUSH2 0x3BFA JUMP JUMPDEST DUP2 EQ PUSH2 0x3C38 JUMPI PUSH0 PUSH0 REVERT JUMPDEST POP JUMP JUMPDEST PUSH0 DUP2 CALLDATALOAD SWAP1 POP PUSH2 0x3C49 DUP2 PUSH2 0x3C25 JUMP JUMPDEST SWAP3 SWAP2 POP POP JUMP JUMPDEST PUSH0 PUSH1 0x20 DUP3 DUP5 SUB SLT ISZERO PUSH2 0x3C64 JUMPI PUSH2 0x3C63 PUSH2 0x3BF2 JUMP JUMPDEST JUMPDEST PUSH0 PUSH2 0x3C71 DUP5 DUP3 DUP6 ADD PUSH2 0x3C3B JUMP JUMPDEST SWAP2 POP POP SWAP3 SWAP2 POP POP JUMP JUMPDEST PUSH0 DUP2 ISZERO ISZERO SWAP1 POP SWAP2 SWAP1 POP JUMP JUMPDEST PUSH2 0x3C8E DUP2 PUSH2 0x3C7A JUMP JUMPDEST DUP3 MSTORE POP POP JUMP JUMPDEST PUSH0 PUSH1 0x20 DUP3 ADD SWAP1 POP PUSH2 0x3CA7 PUSH0 DUP4 ADD DUP5 PUSH2 0x3C85 JUMP JUMPDEST SWAP3 SWAP2 POP POP JUMP JUMPDEST PUSH0 DUP2 SWAP1 POP SWAP2 SWAP1 POP JUMP JUMPDEST PUSH2 0x3CBF DUP2 PUSH2 0x3CAD JUMP JUMPDEST DUP2 EQ PUSH2 0x3CC9 JUMPI PUSH0 PUSH0 REVERT JUMPDEST POP JUMP JUMPDEST PUSH0 DUP2 CALLDATALOAD SWAP1 POP PUSH2 0x3CDA DUP2 PUSH2 0x3CB6 JUMP JUMPDEST SWAP3 SWAP2 POP POP JUMP JUMPDEST PUSH0 PUSH1 0x20 DUP3 DUP5 SUB SLT ISZERO PUSH2 0x3CF5 JUMPI PUSH2 0x3CF4 PUSH2 0x3BF2 JUMP JUMPDEST JUMPDEST PUSH0 PUSH2 0x3D02 DUP5 DUP3 DUP6 ADD PUSH2 0x3CCC JUMP JUMPDEST SWAP2 POP POP SWAP3 SWAP2 POP POP JUMP JUMPDEST PUSH2 0x3D14 DUP2 PUSH2 0x3CAD JUMP JUMPDEST DUP3 MSTORE POP POP JUMP JUMPDEST PUSH0 PUSH1 0x20 DUP3 ADD SWAP1 POP PUSH2 0x3D2D PUSH0 DUP4 ADD DUP5 PUSH2 0x3D0B JUMP JUMPDEST SWAP3 SWAP2 POP POP JUMP JUMPDEST PUSH0 PUSH20 0xFFFFFFFFFFFFFFFFFFFFFFFFFFFFFFFFFFFFFFFF DUP3 AND SWAP1 POP SWAP2 SWAP1 POP JUMP JUMPDEST PUSH0 PUSH2 0x3D5C DUP3 PUSH2 0x3D33 JUMP JUMPDEST SWAP1 POP SWAP2 SWAP1 POP JUMP JUMPDEST PUSH2 0x3D6C DUP2 PUSH2 0x3D52 JUMP JUMPDEST DUP2 EQ PUSH2 0x3D76 JUMPI PUSH0 PUSH0 REVERT JUMPDEST POP JUMP JUMPDEST PUSH0 DUP2 CALLDATALOAD SWAP1 POP PUSH2 0x3D87 DUP2 PUSH2 0x3D63 JUMP JUMPDEST SWAP3 SWAP2 POP POP JUMP JUMPDEST PUSH0 PUSH0 PUSH1 0x40 DUP4 DUP6 SUB SLT ISZERO PUSH2 0x3DA3 JUMPI PUSH2 0x3DA2 PUSH2 0x3BF2 JUMP JUMPDEST JUMPDEST PUSH0 PUSH2 0x3DB0 DUP6 DUP3 DUP7 ADD PUSH2 0x3CCC JUMP JUMPDEST SWAP3 POP POP PUSH1 0x20 PUSH2 0x3DC1 DUP6 DUP3 DUP7 ADD PUSH2 0x3D79 JUMP JUMPDEST SWAP2 POP POP SWAP3 POP SWAP3 SWAP1 POP JUMP JUMPDEST PUSH0 PUSH1 0x20 DUP3 DUP5 SUB SLT ISZERO PUSH2 0x3DE0 JUMPI PUSH2 0x3DDF PUSH2 0x3BF2 JUMP JUMPDEST JUMPDEST PUSH0 PUSH2 0x3DED DUP5 DUP3 DUP6 ADD PUSH2 0x3D79 JUMP JUMPDEST SWAP2 POP POP SWAP3 SWAP2 POP POP JUMP JUMPDEST PUSH2 0x3DFF DUP2 PUSH2 0x3D52 JUMP JUMPDEST DUP3 MSTORE POP POP JUMP JUMPDEST PUSH0 DUP2 SWAP1 POP SWAP2 SWAP1 POP JUMP JUMPDEST PUSH2 0x3E17 DUP2 PUSH2 0x3E05 JUMP JUMPDEST DUP3 MSTORE POP POP JUMP JUMPDEST PUSH32 0x4E487B7100000000000000000000000000000000000000000000000000000000 PUSH0 MSTORE PUSH1 0x21 PUSH1 0x4 MSTORE PUSH1 0x24 PUSH0 REVERT JUMPDEST PUSH1 0x3 DUP2 LT PUSH2 0x3E5B JUMPI PUSH2 0x3E5A PUSH2 0x3E1D JUMP JUMPDEST JUMPDEST POP JUMP JUMPDEST PUSH0 DUP2 SWAP1 POP PUSH2 0x3E6B DUP3 PUSH2 0x3E4A JUMP JUMPDEST SWAP2 SWAP1 POP JUMP JUMPDEST PUSH0 PUSH2 0x3E7A DUP3 PUSH2 0x3E5E JUMP JUMPDEST SWAP1 POP SWAP2 SWAP1 POP JUMP JUMPDEST PUSH2 0x3E8A DUP2 PUSH2 0x3E70 JUMP JUMPDEST DUP3 MSTORE POP POP JUMP JUMPDEST PUSH2 0x3E99 DUP2 PUSH2 0x3C7A JUMP JUMPDEST DUP3 MSTORE POP POP JUMP JUMPDEST PUSH0 DUP2 SWAP1 POP SWAP2 SWAP1 POP JUMP JUMPDEST PUSH2 0x3EB1 DUP2 PUSH2 0x3E9F JUMP JUMPDEST DUP3 MSTORE POP POP JUMP JUMPDEST PUSH2 0x180 DUP3 ADD PUSH0 DUP3 ADD MLOAD PUSH2 0x3ECC PUSH0 DUP6 ADD DUP3 PUSH2 0x3DF6 JUMP JUMPDEST POP PUSH1 0x20 DUP3 ADD MLOAD PUSH2 0x3EDF PUSH1 0x20 DUP6 ADD DUP3 PUSH2 0x3E0E JUMP JUMPDEST POP PUSH1 0x40 DUP3 ADD MLOAD PUSH2 0x3EF2 PUSH1 0x40 DUP6 ADD DUP3 PUSH2 0x3E81 JUMP JUMPDEST POP PUSH1 0x60 DUP3 ADD MLOAD PUSH2 0x3F05 PUSH1 0x60 DUP6 ADD DUP3 PUSH2 0x3DF6 JUMP JUMPDEST POP PUSH1 0x80 DUP3 ADD MLOAD PUSH2 0x3F18 PUSH1 0x80 DUP6 ADD DUP3 PUSH2 0x3E90 JUMP JUMPDEST POP PUSH1 0xA0 DUP3 ADD MLOAD PUSH2 0x3F2B PUSH1 0xA0 DUP6 ADD DUP3 PUSH2 0x3E0E JUMP JUMPDEST POP PUSH1 0xC0 DUP3 ADD MLOAD PUSH2 0x3F3E PUSH1 0xC0 DUP6 ADD DUP3 PUSH2 0x3E0E JUMP JUMPDEST POP PUSH1 0xE0 DUP3 ADD MLOAD PUSH2 0x3F51 PUSH1 0xE0 DUP6 ADD DUP3 PUSH2 0x3E0E JUMP JUMPDEST POP PUSH2 0x100 DUP3 ADD MLOAD PUSH2 0x3F66 PUSH2 0x100 DUP6 ADD DUP3 PUSH2 0x3EA8 JUMP JUMPDEST POP PUSH2 0x120 DUP3 ADD MLOAD PUSH2 0x3F7B PUSH2 0x120 DUP6 ADD DUP3 PUSH2 0x3EA8 JUMP JUMPDEST POP PUSH2 0x140 DUP3 ADD MLOAD PUSH2 0x3F90 PUSH2 0x140 DUP6 ADD DUP3 PUSH2 0x3E0E JUMP JUMPDEST POP PUSH2 0x160 DUP3 ADD MLOAD PUSH2 0x3FA5 PUSH2 0x160 DUP6 ADD DUP3 PUSH2 0x3E90 JUMP JUMPDEST POP POP POP POP JUMP JUMPDEST PUSH0 PUSH2 0x180 DUP3 ADD SWAP1 POP PUSH2 0x3FBF PUSH0 DUP4 ADD DUP5 PUSH2 0x3EB7 JUMP JUMPDEST SWAP3 SWAP2 POP POP JUMP JUMPDEST PUSH2 0x3FCE DUP2 PUSH2 0x3E05 JUMP JUMPDEST DUP2 EQ PUSH2 0x3FD8 JUMPI PUSH0 PUSH0 REVERT JUMPDEST POP JUMP JUMPDEST PUSH0 DUP2 CALLDATALOAD SWAP1 POP PUSH2 0x3FE9 DUP2 PUSH2 0x3FC5 JUMP JUMPDEST SWAP3 SWAP2 POP POP JUMP JUMPDEST PUSH0 PUSH0 PUSH1 0x40 DUP4 DUP6 SUB SLT ISZERO PUSH2 0x4005 JUMPI PUSH2 0x4004 PUSH2 0x3BF2 JUMP JUMPDEST JUMPDEST PUSH0 PUSH2 0x4012 DUP6 DUP3 DUP7 ADD PUSH2 0x3D79 JUMP JUMPDEST SWAP3 POP POP PUSH1 0x20 PUSH2 0x4023 DUP6 DUP3 DUP7 ADD PUSH2 0x3FDB JUMP JUMPDEST SWAP2 POP POP SWAP3 POP SWAP3 SWAP1 POP JUMP JUMPDEST PUSH2 0x4036 DUP2 PUSH2 0x3E9F JUMP JUMPDEST DUP3 MSTORE POP POP JUMP JUMPDEST PUSH0 DUP2 MLOAD SWAP1 POP SWAP2 SWAP1 POP JUMP JUMPDEST PUSH0 DUP3 DUP3 MSTORE PUSH1 0x20 DUP3 ADD SWAP1 POP SWAP3 SWAP2 POP POP JUMP JUMPDEST DUP3 DUP2 DUP4 MCOPY PUSH0 DUP4 DUP4 ADD MSTORE POP POP POP JUMP JUMPDEST PUSH0 PUSH1 0x1F NOT PUSH1 0x1F DUP4 ADD AND SWAP1 POP SWAP2 SWAP1 POP JUMP JUMPDEST PUSH0 PUSH2 0x407E DUP3 PUSH2 0x403C JUMP JUMPDEST PUSH2 0x4088 DUP2 DUP6 PUSH2 0x4046 JUMP JUMPDEST SWAP4 POP PUSH2 0x4098 DUP2 DUP6 PUSH1 0x20 DUP7 ADD PUSH2 0x4056 JUMP JUMPDEST PUSH2 0x40A1 DUP2 PUSH2 0x4064 JUMP JUMPDEST DUP5 ADD SWAP2 POP POP SWAP3 SWAP2 POP POP JUMP JUMPDEST PUSH2 0x40B5 DUP2 PUSH2 0x3D52 JUMP JUMPDEST DUP3 MSTORE POP POP JUMP JUMPDEST PUSH2 0x40C4 DUP2 PUSH2 0x3E05 JUMP JUMPDEST DUP3 MSTORE POP POP JUMP JUMPDEST PUSH0 PUSH1 0xA0 DUP3 ADD SWAP1 POP PUSH2 0x40DD PUSH0 DUP4 ADD DUP9 PUSH2 0x402D JUMP JUMPDEST DUP2 DUP2 SUB PUSH1 0x20 DUP4 ADD MSTORE PUSH2 0x40EF DUP2 DUP8 PUSH2 0x4074 JUMP JUMPDEST SWAP1 POP PUSH2 0x40FE PUSH1 0x40 DUP4 ADD DUP7 PUSH2 0x3C85 JUMP JUMPDEST PUSH2 0x410B PUSH1 0x60 DUP4 ADD DUP6 PUSH2 0x40AC JUMP JUMPDEST PUSH2 0x4118 PUSH1 0x80 DUP4 ADD DUP5 PUSH2 0x40BB JUMP JUMPDEST SWAP7 SWAP6 POP POP POP POP POP POP JUMP JUMPDEST PUSH0 DUP2 MLOAD SWAP1 POP SWAP2 SWAP1 POP JUMP JUMPDEST PUSH0 DUP3 DUP3 MSTORE PUSH1 0x20 DUP3 ADD SWAP1 POP SWAP3 SWAP2 POP POP JUMP JUMPDEST PUSH0 DUP2 SWAP1 POP PUSH1 0x20 DUP3 ADD SWAP1 POP SWAP2 SWAP1 POP JUMP JUMPDEST PUSH0 DUP3 DUP3 MSTORE PUSH1 0x20 DUP3 ADD SWAP1 POP SWAP3 SWAP2 POP POP JUMP JUMPDEST PUSH0 PUSH2 0x4165 DUP3 PUSH2 0x403C JUMP JUMPDEST PUSH2 0x416F DUP2 DUP6 PUSH2 0x414B JUMP JUMPDEST SWAP4 POP PUSH2 0x417F DUP2 DUP6 PUSH1 0x20 DUP7 ADD PUSH2 0x4056 JUMP JUMPDEST PUSH2 0x4188 DUP2 PUSH2 0x4064 JUMP JUMPDEST DUP5 ADD SWAP2 POP POP SWAP3 SWAP2 POP POP JUMP JUMPDEST PUSH0 PUSH1 0xA0 DUP4 ADD PUSH0 DUP4 ADD MLOAD PUSH2 0x41A8 PUSH0 DUP7 ADD DUP3 PUSH2 0x3EA8 JUMP JUMPDEST POP PUSH1 0x20 DUP4 ADD MLOAD DUP5 DUP3 SUB PUSH1 0x20 DUP7 ADD MSTORE PUSH2 0x41C0 DUP3 DUP3 PUSH2 0x415B JUMP JUMPDEST SWAP2 POP POP PUSH1 0x40 DUP4 ADD MLOAD PUSH2 0x41D5 PUSH1 0x40 DUP7 ADD DUP3 PUSH2 0x3E90 JUMP JUMPDEST POP PUSH1 0x60 DUP4 ADD MLOAD PUSH2 0x41E8 PUSH1 0x60 DUP7 ADD DUP3 PUSH2 0x3DF6 JUMP JUMPDEST POP PUSH1 0x80 DUP4 ADD MLOAD PUSH2 0x41FB PUSH1 0x80 DUP7 ADD DUP3 PUSH2 0x3E0E JUMP JUMPDEST POP DUP1 SWAP2 POP POP SWAP3 SWAP2 POP POP JUMP JUMPDEST PUSH0 PUSH2 0x4211 DUP4 DUP4 PUSH2 0x4193 JUMP JUMPDEST SWAP1 POP SWAP3 SWAP2 POP POP JUMP JUMPDEST PUSH0 PUSH1 0x20 DUP3 ADD SWAP1 POP SWAP2 SWAP1 POP JUMP JUMPDEST PUSH0 PUSH2 0x422F DUP3 PUSH2 0x4122 JUMP JUMPDEST PUSH2 0x4239 DUP2 DUP6 PUSH2 0x412C JUMP JUMPDEST SWAP4 POP DUP4 PUSH1 0x20 DUP3 MUL DUP6 ADD PUSH2 0x424B DUP6 PUSH2 0x413C JUMP JUMPDEST DUP1 PUSH0 JUMPDEST DUP6 DUP2 LT ISZERO PUSH2 0x4286 JUMPI DUP5 DUP5 SUB DUP10 MSTORE DUP2 MLOAD PUSH2 0x4267 DUP6 DUP3 PUSH2 0x4206 JUMP JUMPDEST SWAP5 POP PUSH2 0x4272 DUP4 PUSH2 0x4219 JUMP JUMPDEST SWAP3 POP PUSH1 0x20 DUP11 ADD SWAP10 POP POP PUSH1 0x1 DUP2 ADD SWAP1 POP PUSH2 0x424E JUMP JUMPDEST POP DUP3 SWAP8 POP DUP8 SWAP6 POP POP POP POP POP POP SWAP3 SWAP2 POP POP JUMP JUMPDEST PUSH0 PUSH1 0x20 DUP3 ADD SWAP1 POP DUP2 DUP2 SUB PUSH0 DUP4 ADD MSTORE PUSH2 0x42B0 DUP2 DUP5 PUSH2 0x4225 JUMP JUMPDEST SWAP1 POP SWAP3 SWAP2 POP POP JUMP JUMPDEST PUSH0 PUSH1 0x20 DUP3 ADD SWAP1 POP PUSH2 0x42CB PUSH0 DUP4 ADD DUP5 PUSH2 0x40BB JUMP JUMPDEST SWAP3 SWAP2 POP POP JUMP JUMPDEST PUSH0 DUP2 MLOAD SWAP1 POP SWAP2 SWAP1 POP JUMP JUMPDEST PUSH0 DUP3 DUP3 MSTORE PUSH1 0x20 DUP3 ADD SWAP1 POP SWAP3 SWAP2 POP POP JUMP JUMPDEST PUSH0 DUP2 SWAP1 POP PUSH1 0x20 DUP3 ADD SWAP1 POP SWAP2 SWAP1 POP JUMP JUMPDEST PUSH0 PUSH2 0x4305 DUP4 DUP4 PUSH2 0x3DF6 JUMP JUMPDEST PUSH1 0x20 DUP4 ADD SWAP1 POP SWAP3 SWAP2 POP POP JUMP JUMPDEST PUSH0 PUSH1 0x20 DUP3 ADD SWAP1 POP SWAP2 SWAP1 POP JUMP JUMPDEST PUSH0 PUSH2 0x4327 DUP3 PUSH2 0x42D1 JUMP JUMPDEST PUSH2 0x4331 DUP2 DUP6 PUSH2 0x42DB JUMP JUMPDEST SWAP4 POP PUSH2 0x433C DUP4 PUSH2 0x42EB JUMP JUMPDEST DUP1 PUSH0 JUMPDEST DUP4 DUP2 LT ISZERO PUSH2 0x436C JUMPI DUP2 MLOAD PUSH2 0x4353 DUP9 DUP3 PUSH2 0x42FA JUMP JUMPDEST SWAP8 POP PUSH2 0x435E DUP4 PUSH2 0x4311 JUMP JUMPDEST SWAP3 POP POP PUSH1 0x1 DUP2 ADD SWAP1 POP PUSH2 0x433F JUMP JUMPDEST POP DUP6 SWAP4 POP POP POP POP SWAP3 SWAP2 POP POP JUMP JUMPDEST PUSH0 PUSH1 0x20 DUP3 ADD SWAP1 POP DUP2 DUP2 SUB PUSH0 DUP4 ADD MSTORE PUSH2 0x4391 DUP2 DUP5 PUSH2 0x431D JUMP JUMPDEST SWAP1 POP SWAP3 SWAP2 POP POP JUMP JUMPDEST PUSH0 PUSH1 0x20 DUP3 DUP5 SUB SLT ISZERO PUSH2 0x43AE JUMPI PUSH2 0x43AD PUSH2 0x3BF2 JUMP JUMPDEST JUMPDEST PUSH0 PUSH2 0x43BB DUP5 DUP3 DUP6 ADD PUSH2 0x3FDB JUMP JUMPDEST SWAP2 POP POP SWAP3 SWAP2 POP POP JUMP JUMPDEST PUSH0 PUSH1 0x20 DUP3 ADD SWAP1 POP PUSH2 0x43D7 PUSH0 DUP4 ADD DUP5 PUSH2 0x40AC JUMP JUMPDEST SWAP3 SWAP2 POP POP JUMP JUMPDEST PUSH0 DUP2 MLOAD SWAP1 POP SWAP2 SWAP1 POP JUMP JUMPDEST PUSH0 DUP3 DUP3 MSTORE PUSH1 0x20 DUP3 ADD SWAP1 POP SWAP3 SWAP2 POP POP JUMP JUMPDEST PUSH0 DUP2 SWAP1 POP PUSH1 0x20 DUP3 ADD SWAP1 POP SWAP2 SWAP1 POP JUMP JUMPDEST PUSH0 PUSH1 0xC0 DUP4 ADD PUSH0 DUP4 ADD MLOAD PUSH2 0x441B PUSH0 DUP7 ADD DUP3 PUSH2 0x3E0E JUMP JUMPDEST POP PUSH1 0x20 DUP4 ADD MLOAD DUP5 DUP3 SUB PUSH1 0x20 DUP7 ADD MSTORE PUSH2 0x4433 DUP3 DUP3 PUSH2 0x415B JUMP JUMPDEST SWAP2 POP POP PUSH1 0x40 DUP4 ADD MLOAD PUSH2 0x4448 PUSH1 0x40 DUP7 ADD DUP3 PUSH2 0x3E90 JUMP JUMPDEST POP PUSH1 0x60 DUP4 ADD MLOAD PUSH2 0x445B PUSH1 0x60 DUP7 ADD DUP3 PUSH2 0x3DF6 JUMP JUMPDEST POP PUSH1 0x80 DUP4 ADD MLOAD PUSH2 0x446E PUSH1 0x80 DUP7 ADD DUP3 PUSH2 0x3E0E JUMP JUMPDEST POP PUSH1 0xA0 DUP4 ADD MLOAD PUSH2 0x4481 PUSH1 0xA0 DUP7 ADD DUP3 PUSH2 0x3E0E JUMP JUMPDEST POP DUP1 SWAP2 POP POP SWAP3 SWAP2 POP POP JUMP JUMPDEST PUSH0 PUSH2 0x4497 DUP4 DUP4 PUSH2 0x4406 JUMP JUMPDEST SWAP1 POP SWAP3 SWAP2 POP POP JUMP JUMPDEST PUSH0 PUSH1 0x20 DUP3 ADD SWAP1 POP SWAP2 SWAP1 POP JUMP JUMPDEST PUSH0 PUSH2 0x44B5 DUP3 PUSH2 0x43DD JUMP JUMPDEST PUSH2 0x44BF DUP2 DUP6 PUSH2 0x43E7 JUMP JUMPDEST SWAP4 POP DUP4 PUSH1 0x20 DUP3 MUL DUP6 ADD PUSH2 0x44D1 DUP6 PUSH2 0x43F7 JUMP JUMPDEST DUP1 PUSH0 JUMPDEST DUP6 DUP2 LT ISZERO PUSH2 0x450C JUMPI DUP5 DUP5 SUB DUP10 MSTORE DUP2 MLOAD PUSH2 0x44ED DUP6 DUP3 PUSH2 0x448C JUMP JUMPDEST SWAP5 POP PUSH2 0x44F8 DUP4 PUSH2 0x449F JUMP JUMPDEST SWAP3 POP PUSH1 0x20 DUP11 ADD SWAP10 POP POP PUSH1 0x1 DUP2 ADD SWAP1 POP PUSH2 0x44D4 JUMP JUMPDEST POP DUP3 SWAP8 POP DUP8 SWAP6 POP POP POP POP POP POP SWAP3 SWAP2 POP POP JUMP JUMPDEST PUSH0 PUSH1 0x20 DUP3 ADD SWAP1 POP DUP2 DUP2 SUB PUSH0 DUP4 ADD MSTORE PUSH2 0x4536 DUP2 DUP5 PUSH2 0x44AB JUMP JUMPDEST SWAP1 POP SWAP3 SWAP2 POP POP JUMP JUMPDEST PUSH2 0x4547 DUP2 PUSH2 0x3E9F JUMP JUMPDEST DUP2 EQ PUSH2 0x4551 JUMPI PUSH0 PUSH0 REVERT JUMPDEST POP JUMP JUMPDEST PUSH0 DUP2 CALLDATALOAD SWAP1 POP PUSH2 0x4562 DUP2 PUSH2 0x453E JUMP JUMPDEST SWAP3 SWAP2 POP POP JUMP JUMPDEST PUSH0 PUSH0 REVERT JUMPDEST PUSH0 PUSH0 REVERT JUMPDEST PUSH32 0x4E487B7100000000000000000000000000000000000000000000000000000000 PUSH0 MSTORE PUSH1 0x41 PUSH1 0x4 MSTORE PUSH1 0x24 PUSH0 REVERT JUMPDEST PUSH2 0x45A6 DUP3 PUSH2 0x4064 JUMP JUMPDEST DUP2 ADD DUP2 DUP2 LT PUSH8 0xFFFFFFFFFFFFFFFF DUP3 GT OR ISZERO PUSH2 0x45C5 JUMPI PUSH2 0x45C4 PUSH2 0x4570 JUMP JUMPDEST JUMPDEST DUP1 PUSH1 0x40 MSTORE POP POP POP JUMP JUMPDEST PUSH0 PUSH2 0x45D7 PUSH2 0x3BE9 JUMP JUMPDEST SWAP1 POP PUSH2 0x45E3 DUP3 DUP3 PUSH2 0x459D JUMP JUMPDEST SWAP2 SWAP1 POP JUMP JUMPDEST PUSH0 PUSH8 0xFFFFFFFFFFFFFFFF DUP3 GT ISZERO PUSH2 0x4602 JUMPI PUSH2 0x4601 PUSH2 0x4570 JUMP JUMPDEST JUMPDEST PUSH2 0x460B DUP3 PUSH2 0x4064 JUMP JUMPDEST SWAP1 POP PUSH1 0x20 DUP2 ADD SWAP1 POP SWAP2 SWAP1 POP JUMP JUMPDEST DUP3 DUP2 DUP4 CALLDATACOPY PUSH0 DUP4 DUP4 ADD MSTORE POP POP POP JUMP JUMPDEST PUSH0 PUSH2 0x4638 PUSH2 0x4633 DUP5 PUSH2 0x45E8 JUMP JUMPDEST PUSH2 0x45CE JUMP JUMPDEST SWAP1 POP DUP3 DUP2 MSTORE PUSH1 0x20 DUP2 ADD DUP5 DUP5 DUP5 ADD GT ISZERO PUSH2 0x4654 JUMPI PUSH2 0x4653 PUSH2 0x456C JUMP JUMPDEST JUMPDEST PUSH2 0x465F DUP5 DUP3 DUP6 PUSH2 0x4618 JUMP JUMPDEST POP SWAP4 SWAP3 POP POP POP JUMP JUMPDEST PUSH0 DUP3 PUSH1 0x1F DUP4 ADD SLT PUSH2 0x467B JUMPI PUSH2 0x467A PUSH2 0x4568 JUMP JUMPDEST JUMPDEST DUP2 CALLDATALOAD PUSH2 0x468B DUP5 DUP3 PUSH1 0x20 DUP7 ADD PUSH2 0x4626 JUMP JUMPDEST SWAP2 POP POP SWAP3 SWAP2 POP POP JUMP JUMPDEST PUSH0 PUSH0 PUSH0 PUSH1 0x60 DUP5 DUP7 SUB SLT ISZERO PUSH2 0x46AB JUMPI PUSH2 0x46AA PUSH2 0x3BF2 JUMP JUMPDEST JUMPDEST PUSH0 PUSH2 0x46B8 DUP7 DUP3 DUP8 ADD PUSH2 0x3D79 JUMP JUMPDEST SWAP4 POP POP PUSH1 0x20 PUSH2 0x46C9 DUP7 DUP3 DUP8 ADD PUSH2 0x4554 JUMP JUMPDEST SWAP3 POP POP PUSH1 0x40 DUP5 ADD CALLDATALOAD PUSH8 0xFFFFFFFFFFFFFFFF DUP2 GT ISZERO PUSH2 0x46EA JUMPI PUSH2 0x46E9 PUSH2 0x3BF6 JUMP JUMPDEST JUMPDEST PUSH2 0x46F6 DUP7 DUP3 DUP8 ADD PUSH2 0x4667 JUMP JUMPDEST SWAP2 POP POP SWAP3 POP SWAP3 POP SWAP3 JUMP JUMPDEST PUSH1 0x3 DUP2 LT PUSH2 0x470C JUMPI PUSH0 PUSH0 REVERT JUMPDEST POP JUMP JUMPDEST PUSH0 DUP2 CALLDATALOAD SWAP1 POP PUSH2 0x471D DUP2 PUSH2 0x4700 JUMP JUMPDEST SWAP3 SWAP2 POP POP JUMP JUMPDEST PUSH0 PUSH0 PUSH0 PUSH0 PUSH1 0x80 DUP6 DUP8 SUB SLT ISZERO PUSH2 0x473B JUMPI PUSH2 0x473A PUSH2 0x3BF2 JUMP JUMPDEST JUMPDEST PUSH0 PUSH2 0x4748 DUP8 DUP3 DUP9 ADD PUSH2 0x3D79 JUMP JUMPDEST SWAP5 POP POP PUSH1 0x20 PUSH2 0x4759 DUP8 DUP3 DUP9 ADD PUSH2 0x3FDB JUMP JUMPDEST SWAP4 POP POP PUSH1 0x40 PUSH2 0x476A DUP8 DUP3 DUP9 ADD PUSH2 0x470F JUMP JUMPDEST SWAP3 POP POP PUSH1 0x60 PUSH2 0x477B DUP8 DUP3 DUP9 ADD PUSH2 0x3D79 JUMP JUMPDEST SWAP2 POP POP SWAP3 SWAP6 SWAP2 SWAP5 POP SWAP3 POP JUMP JUMPDEST PUSH2 0x4790 DUP2 PUSH2 0x3E70 JUMP JUMPDEST DUP3 MSTORE POP POP JUMP JUMPDEST PUSH0 PUSH2 0x180 DUP3 ADD SWAP1 POP PUSH2 0x47AA PUSH0 DUP4 ADD DUP16 PUSH2 0x40AC JUMP JUMPDEST PUSH2 0x47B7 PUSH1 0x20 DUP4 ADD DUP15 PUSH2 0x40BB JUMP JUMPDEST PUSH2 0x47C4 PUSH1 0x40 DUP4 ADD DUP14 PUSH2 0x4787 JUMP JUMPDEST PUSH2 0x47D1 PUSH1 0x60 DUP4 ADD DUP13 PUSH2 0x40AC JUMP JUMPDEST PUSH2 0x47DE PUSH1 0x80 DUP4 ADD DUP12 PUSH2 0x3C85 JUMP JUMPDEST PUSH2 0x47EB PUSH1 0xA0 DUP4 ADD DUP11 PUSH2 0x40BB JUMP JUMPDEST PUSH2 0x47F8 PUSH1 0xC0 DUP4 ADD DUP10 PUSH2 0x40BB JUMP JUMPDEST PUSH2 0x4805 PUSH1 0xE0 DUP4 ADD DUP9 PUSH2 0x40BB JUMP JUMPDEST PUSH2 0x4813 PUSH2 0x100 DUP4 ADD DUP8 PUSH2 0x402D JUMP JUMPDEST PUSH2 0x4821 PUSH2 0x120 DUP4 ADD DUP7 PUSH2 0x402D JUMP JUMPDEST PUSH2 0x482F PUSH2 0x140 DUP4 ADD DUP6 PUSH2 0x40BB JUMP JUMPDEST PUSH2 0x483D PUSH2 0x160 DUP4 ADD DUP5 PUSH2 0x3C85 JUMP JUMPDEST SWAP14 SWAP13 POP POP POP POP POP POP POP POP POP POP POP POP POP JUMP JUMPDEST PUSH0 PUSH0 PUSH1 0x40 DUP4 DUP6 SUB SLT ISZERO PUSH2 0x4864 JUMPI PUSH2 0x4863 PUSH2 0x3BF2 JUMP JUMPDEST JUMPDEST PUSH0 PUSH2 0x4871 DUP6 DUP3 DUP7 ADD PUSH2 0x3FDB JUMP JUMPDEST SWAP3 POP POP PUSH1 0x20 DUP4 ADD CALLDATALOAD PUSH8 0xFFFFFFFFFFFFFFFF DUP2 GT ISZERO PUSH2 0x4892 JUMPI PUSH2 0x4891 PUSH2 0x3BF6 JUMP JUMPDEST JUMPDEST PUSH2 0x489E DUP6 DUP3 DUP7 ADD PUSH2 0x4667 JUMP JUMPDEST SWAP2 POP POP SWAP3 POP SWAP3 SWAP1 POP JUMP JUMPDEST PUSH0 PUSH1 0xC0 DUP3 ADD SWAP1 POP PUSH2 0x48BB PUSH0 DUP4 ADD DUP10 PUSH2 0x40BB JUMP JUMPDEST DUP2 DUP2 SUB PUSH1 0x20 DUP4 ADD MSTORE PUSH2 0x48CD DUP2 DUP9 PUSH2 0x4074 JUMP JUMPDEST SWAP1 POP PUSH2 0x48DC PUSH1 0x40 DUP4 ADD DUP8 PUSH2 0x3C85 JUMP JUMPDEST PUSH2 0x48E9 PUSH1 0x60 DUP4 ADD DUP7 PUSH2 0x40AC JUMP JUMPDEST PUSH2 0x48F6 PUSH1 0x80 DUP4 ADD DUP6 PUSH2 0x40BB JUMP JUMPDEST PUSH2 0x4903 PUSH1 0xA0 DUP4 ADD DUP5 PUSH2 0x40BB JUMP JUMPDEST SWAP8 SWAP7 POP POP POP POP POP POP POP JUMP JUMPDEST PUSH32 0x4E487B7100000000000000000000000000000000000000000000000000000000 PUSH0 MSTORE PUSH1 0x22 PUSH1 0x4 MSTORE PUSH1 0x24 PUSH0 REVERT JUMPDEST PUSH0 PUSH1 0x2 DUP3 DIV SWAP1 POP PUSH1 0x1 DUP3 AND DUP1 PUSH2 0x4952 JUMPI PUSH1 0x7F DUP3 AND SWAP2 POP JUMPDEST PUSH1 0x20 DUP3 LT DUP2 SUB PUSH2 0x4965 JUMPI PUSH2 0x4964 PUSH2 0x490E JUMP JUMPDEST JUMPDEST POP SWAP2 SWAP1 POP JUMP JUMPDEST PUSH32 0x4E487B7100000000000000000000000000000000000000000000000000000000 PUSH0 MSTORE PUSH1 0x32 PUSH1 0x4 MSTORE PUSH1 0x24 PUSH0 REVERT JUMPDEST PUSH32 0x4E487B7100000000000000000000000000000000000000000000000000000000 PUSH0 MSTORE PUSH1 0x11 PUSH1 0x4 MSTORE PUSH1 0x24 PUSH0 REVERT JUMPDEST PUSH0 PUSH2 0x49CF DUP3 PUSH2 0x3E05 JUMP JUMPDEST SWAP2 POP PUSH32 0xFFFFFFFFFFFFFFFFFFFFFFFFFFFFFFFFFFFFFFFFFFFFFFFFFFFFFFFFFFFFFFFF DUP3 SUB PUSH2 0x4A01 JUMPI PUSH2 0x4A00 PUSH2 0x4998 JUMP JUMPDEST JUMPDEST PUSH1 0x1 DUP3 ADD SWAP1 POP SWAP2 SWAP1 POP JUMP JUMPDEST PUSH0 PUSH1 0x40 DUP3 ADD SWAP1 POP PUSH2 0x4A1F PUSH0 DUP4 ADD DUP6 PUSH2 0x3D0B JUMP JUMPDEST PUSH2 0x4A2C PUSH1 0x20 DUP4 ADD DUP5 PUSH2 0x40AC JUMP JUMPDEST SWAP4 SWAP3 POP POP POP JUMP JUMPDEST PUSH2 0x4A3C DUP2 PUSH2 0x3C7A JUMP JUMPDEST DUP2 EQ PUSH2 0x4A46 JUMPI PUSH0 PUSH0 REVERT JUMPDEST POP JUMP JUMPDEST PUSH0 DUP2 MLOAD SWAP1 POP PUSH2 0x4A57 DUP2 PUSH2 0x4A33 JUMP JUMPDEST SWAP3 SWAP2 POP POP JUMP JUMPDEST PUSH0 PUSH1 0x20 DUP3 DUP5 SUB SLT ISZERO PUSH2 0x4A72 JUMPI PUSH2 0x4A71 PUSH2 0x3BF2 JUMP JUMPDEST JUMPDEST PUSH0 PUSH2 0x4A7F DUP5 DUP3 DUP6 ADD PUSH2 0x4A49 JUMP JUMPDEST SWAP2 POP POP SWAP3 SWAP2 POP POP JUMP JUMPDEST PUSH32 0x4E6F7420617574686F72697A6564000000000000000000000000000000000000 PUSH0 DUP3 ADD MSTORE POP JUMP JUMPDEST PUSH0 PUSH2 0x4ABC PUSH1 0xE DUP4 PUSH2 0x4046 JUMP JUMPDEST SWAP2 POP PUSH2 0x4AC7 DUP3 PUSH2 0x4A88 JUMP JUMPDEST PUSH1 0x20 DUP3 ADD SWAP1 POP SWAP2 SWAP1 POP JUMP JUMPDEST PUSH0 PUSH1 0x20 DUP3 ADD SWAP1 POP DUP2 DUP2 SUB PUSH0 DUP4 ADD MSTORE PUSH2 0x4AE9 DUP2 PUSH2 0x4AB0 JUMP JUMPDEST SWAP1 POP SWAP2 SWAP1 POP JUMP JUMPDEST PUSH32 0x456D706C6F79656520616C726561647920696E61637469766500000000000000 PUSH0 DUP3 ADD MSTORE POP JUMP JUMPDEST PUSH0 PUSH2 0x4B24 PUSH1 0x19 DUP4 PUSH2 0x4046 JUMP JUMPDEST SWAP2 POP PUSH2 0x4B2F DUP3 PUSH2 0x4AF0 JUMP JUMPDEST PUSH1 0x20 DUP3 ADD SWAP1 POP SWAP2 SWAP1 POP JUMP JUMPDEST PUSH0 PUSH1 0x20 DUP3 ADD SWAP1 POP DUP2 DUP2 SUB PUSH0 DUP4 ADD MSTORE PUSH2 0x4B51 DUP2 PUSH2 0x4B18 JUMP JUMPDEST SWAP1 POP SWAP2 SWAP1 POP JUMP JUMPDEST PUSH32 0x52657175697265732061646D696E206F722066696E616E636520726F6C650000 PUSH0 DUP3 ADD MSTORE POP JUMP JUMPDEST PUSH0 PUSH2 0x4B8C PUSH1 0x1E DUP4 PUSH2 0x4046 JUMP JUMPDEST SWAP2 POP PUSH2 0x4B97 DUP3 PUSH2 0x4B58 JUMP JUMPDEST PUSH1 0x20 DUP3 ADD SWAP1 POP SWAP2 SWAP1 POP JUMP JUMPDEST PUSH0 PUSH1 0x20 DUP3 ADD SWAP1 POP DUP2 DUP2 SUB PUSH0 DUP4 ADD MSTORE PUSH2 0x4BB9 DUP2 PUSH2 0x4B80 JUMP JUMPDEST SWAP1 POP SWAP2 SWAP1 POP JUMP JUMPDEST PUSH32 0x496E76616C696420696E64657800000000000000000000000000000000000000 PUSH0 DUP3 ADD MSTORE POP JUMP JUMPDEST PUSH0 PUSH2 0x4BF4 PUSH1 0xD DUP4 PUSH2 0x4046 JUMP JUMPDEST SWAP2 POP PUSH2 0x4BFF DUP3 PUSH2 0x4BC0 JUMP JUMPDEST PUSH1 0x20 DUP3 ADD SWAP1 POP SWAP2 SWAP1 POP JUMP JUMPDEST PUSH0 PUSH1 0x20 DUP3 ADD SWAP1 POP DUP2 DUP2 SUB PUSH0 DUP4 ADD MSTORE PUSH2 0x4C21 DUP2 PUSH2 0x4BE8 JUMP JUMPDEST SWAP1 POP SWAP2 SWAP1 POP JUMP JUMPDEST PUSH32 0x416C726561647920617070726F76656400000000000000000000000000000000 PUSH0 DUP3 ADD MSTORE POP JUMP JUMPDEST PUSH0 PUSH2 0x4C5C PUSH1 0x10 DUP4 PUSH2 0x4046 JUMP JUMPDEST SWAP2 POP PUSH2 0x4C67 DUP3 PUSH2 0x4C28 JUMP JUMPDEST PUSH1 0x20 DUP3 ADD SWAP1 POP SWAP2 SWAP1 POP JUMP JUMPDEST PUSH0 PUSH1 0x20 DUP3 ADD SWAP1 POP DUP2 DUP2 SUB PUSH0 DUP4 ADD MSTORE PUSH2 0x4C89 DUP2 PUSH2 0x4C50 JUMP JUMPDEST SWAP1 POP SWAP2 SWAP1 POP JUMP JUMPDEST PUSH0 PUSH2 0x4C9A DUP3 PUSH2 0x3E9F JUMP JUMPDEST SWAP2 POP PUSH2 0x4CA5 DUP4 PUSH2 0x3E9F JUMP JUMPDEST SWAP3 POP DUP3 DUP3 ADD SWAP1 POP DUP3 DUP2 SLT ISZERO PUSH0 DUP4 SLT AND DUP4 DUP3 SLT PUSH0 DUP5 SLT ISZERO AND OR ISZERO PUSH2 0x4CCB JUMPI PUSH2 0x4CCA PUSH2 0x4998 JUMP JUMPDEST JUMPDEST SWAP3 SWAP2 POP POP JUMP JUMPDEST PUSH0 PUSH2 0x4CDB DUP3 PUSH2 0x3E05 JUMP JUMPDEST SWAP2 POP PUSH2 0x4CE6 DUP4 PUSH2 0x3E05 JUMP JUMPDEST SWAP3 POP DUP3 DUP3 ADD SWAP1 POP DUP1 DUP3 GT ISZERO PUSH2 0x4CFE JUMPI PUSH2 0x4CFD PUSH2 0x4998 JUMP JUMPDEST JUMPDEST SWAP3 SWAP2 POP POP JUMP JUMPDEST PUSH0 PUSH1 0x40 DUP3 ADD SWAP1 POP PUSH2 0x4D17 PUSH0 DUP4 ADD DUP6 PUSH2 0x40BB JUMP JUMPDEST PUSH2 0x4D24 PUSH1 0x20 DUP4 ADD DUP5 PUSH2 0x40AC JUMP JUMPDEST SWAP4 SWAP3 POP POP POP JUMP JUMPDEST PUSH0 PUSH2 0x4D35 DUP3 PUSH2 0x3E05 JUMP JUMPDEST SWAP2 POP PUSH2 0x4D40 DUP4 PUSH2 0x3E05 JUMP JUMPDEST SWAP3 POP DUP3 DUP3 SUB SWAP1 POP DUP2 DUP2 GT ISZERO PUSH2 0x4D58 JUMPI PUSH2 0x4D57 PUSH2 0x4998 JUMP JUMPDEST JUMPDEST SWAP3 SWAP2 POP POP JUMP JUMPDEST PUSH32 0x456D706C6F796565206E6F742061637469766500000000000000000000000000 PUSH0 DUP3 ADD MSTORE POP JUMP JUMPDEST PUSH0 PUSH2 0x4D92 PUSH1 0x13 DUP4 PUSH2 0x4046 JUMP JUMPDEST SWAP2 POP PUSH2 0x4D9D DUP3 PUSH2 0x4D5E JUMP JUMPDEST PUSH1 0x20 DUP3 ADD SWAP1 POP SWAP2 SWAP1 POP JUMP JUMPDEST PUSH0 PUSH1 0x20 DUP3 ADD SWAP1 POP DUP2 DUP2 SUB PUSH0 DUP4 ADD MSTORE PUSH2 0x4DBF DUP2 PUSH2 0x4D86 JUMP JUMPDEST SWAP1 POP SWAP2 SWAP1 POP JUMP JUMPDEST PUSH0 DUP2 SWAP1 POP DUP2 PUSH0 MSTORE PUSH1 0x20 PUSH0 KECCAK256 SWAP1 POP SWAP2 SWAP1 POP JUMP JUMPDEST PUSH0 PUSH1 0x20 PUSH1 0x1F DUP4 ADD DIV SWAP1 POP SWAP2 SWAP1 POP JUMP JUMPDEST PUSH0 DUP3 DUP3 SHL SWAP1 POP SWAP3 SWAP2 POP POP JUMP JUMPDEST PUSH0 PUSH1 0x8 DUP4 MUL PUSH2 0x4E22 PUSH32 0xFFFFFFFFFFFFFFFFFFFFFFFFFFFFFFFFFFFFFFFFFFFFFFFFFFFFFFFFFFFFFFFF DUP3 PUSH2 0x4DE7 JUMP JUMPDEST PUSH2 0x4E2C DUP7 DUP4 PUSH2 0x4DE7 JUMP JUMPDEST SWAP6 POP DUP1 NOT DUP5 AND SWAP4 POP DUP1 DUP7 AND DUP5 OR SWAP3 POP POP POP SWAP4 SWAP3 POP POP POP JUMP JUMPDEST PUSH0 DUP2 SWAP1 POP SWAP2 SWAP1 POP JUMP JUMPDEST PUSH0 PUSH2 0x4E67 PUSH2 0x4E62 PUSH2 0x4E5D DUP5 PUSH2 0x3E05 JUMP JUMPDEST PUSH2 0x4E44 JUMP JUMPDEST PUSH2 0x3E05 JUMP JUMPDEST SWAP1 POP SWAP2 SWAP1 POP JUMP JUMPDEST PUSH0 DUP2 SWAP1 POP SWAP2 SWAP1 POP JUMP JUMPDEST PUSH2 0x4E80 DUP4 PUSH2 0x4E4D JUMP JUMPDEST PUSH2 0x4E94 PUSH2 0x4E8C DUP3 PUSH2 0x4E6E JUMP JUMPDEST DUP5 DUP5 SLOAD PUSH2 0x4DF3 JUMP JUMPDEST DUP3 SSTORE POP POP POP POP JUMP JUMPDEST PUSH0 PUSH0 SWAP1 POP SWAP1 JUMP JUMPDEST PUSH2 0x4EAB PUSH2 0x4E9C JUMP JUMPDEST PUSH2 0x4EB6 DUP2 DUP5 DUP5 PUSH2 0x4E77 JUMP JUMPDEST POP POP POP JUMP JUMPDEST JUMPDEST DUP2 DUP2 LT ISZERO PUSH2 0x4ED9 JUMPI PUSH2 0x4ECE PUSH0 DUP3 PUSH2 0x4EA3 JUMP JUMPDEST PUSH1 0x1 DUP2 ADD SWAP1 POP PUSH2 0x4EBC JUMP JUMPDEST POP POP JUMP JUMPDEST PUSH1 0x1F DUP3 GT ISZERO PUSH2 0x4F1E JUMPI PUSH2 0x4EEF DUP2 PUSH2 0x4DC6 JUMP JUMPDEST PUSH2 0x4EF8 DUP5 PUSH2 0x4DD8 JUMP JUMPDEST DUP2 ADD PUSH1 0x20 DUP6 LT ISZERO PUSH2 0x4F07 JUMPI DUP2 SWAP1 POP JUMPDEST PUSH2 0x4F1B PUSH2 0x4F13 DUP6 PUSH2 0x4DD8 JUMP JUMPDEST DUP4 ADD DUP3 PUSH2 0x4EBB JUMP JUMPDEST POP POP JUMPDEST POP POP POP JUMP JUMPDEST PUSH0 DUP3 DUP3 SHR SWAP1 POP SWAP3 SWAP2 POP POP JUMP JUMPDEST PUSH0 PUSH2 0x4F3E PUSH0 NOT DUP5 PUSH1 0x8 MUL PUSH2 0x4F23 JUMP JUMPDEST NOT DUP1 DUP4 AND SWAP2 POP POP SWAP3 SWAP2 POP POP JUMP JUMPDEST PUSH0 PUSH2 0x4F56 DUP4 DUP4 PUSH2 0x4F2F JUMP JUMPDEST SWAP2 POP DUP3 PUSH1 0x2 MUL DUP3 OR SWAP1 POP SWAP3 SWAP2 POP POP JUMP JUMPDEST PUSH2 0x4F6F DUP3 PUSH2 0x403C JUMP JUMPDEST PUSH8 0xFFFFFFFFFFFFFFFF DUP2 GT ISZERO PUSH2 0x4F88 JUMPI PUSH2 0x4F87 PUSH2 0x4570 JUMP JUMPDEST JUMPDEST PUSH2 0x4F92 DUP3 SLOAD PUSH2 0x493B JUMP JUMPDEST PUSH2 0x4F9D DUP3 DUP3 DUP6 PUSH2 0x4EDD JUMP JUMPDEST PUSH0 PUSH1 0x20 SWAP1 POP PUSH1 0x1F DUP4 GT PUSH1 0x1 DUP2 EQ PUSH2 0x4FCE JUMPI PUSH0 DUP5 ISZERO PUSH2 0x4FBC JUMPI DUP3 DUP8 ADD MLOAD SWAP1 POP JUMPDEST PUSH2 0x4FC6 DUP6 DUP3 PUSH2 0x4F4B JUMP JUMPDEST DUP7 SSTORE POP PUSH2 0x502D JUMP JUMPDEST PUSH1 0x1F NOT DUP5 AND PUSH2 0x4FDC DUP7 PUSH2 0x4DC6 JUMP JUMPDEST PUSH0 JUMPDEST DUP3 DUP2 LT ISZERO PUSH2 0x5003 JUMPI DUP5 DUP10 ADD MLOAD DUP3 SSTORE PUSH1 0x1 DUP3 ADD SWAP2 POP PUSH1 0x20 DUP6 ADD SWAP5 POP PUSH1 0x20 DUP2 ADD SWAP1 POP PUSH2 0x4FDE JUMP JUMPDEST DUP7 DUP4 LT ISZERO PUSH2 0x5020 JUMPI DUP5 DUP10 ADD MLOAD PUSH2 0x501C PUSH1 0x1F DUP10 AND DUP3 PUSH2 0x4F2F JUMP JUMPDEST DUP4 SSTORE POP JUMPDEST PUSH1 0x1 PUSH1 0x2 DUP9 MUL ADD DUP9 SSTORE POP POP POP JUMPDEST POP POP POP POP POP POP JUMP JUMPDEST PUSH0 PUSH1 0x40 DUP3 ADD SWAP1 POP PUSH2 0x5048 PUSH0 DUP4 ADD DUP6 PUSH2 0x402D JUMP JUMPDEST DUP2 DUP2 SUB PUSH1 0x20 DUP4 ADD MSTORE PUSH2 0x505A DUP2 DUP5 PUSH2 0x4074 JUMP JUMPDEST SWAP1 POP SWAP4 SWAP3 POP POP POP JUMP JUMPDEST PUSH32 0x4F6E6C7920706179726F6C6C20636F72652063616E2063616C6C000000000000 PUSH0 DUP3 ADD MSTORE POP JUMP JUMPDEST PUSH0 PUSH2 0x5097 PUSH1 0x1A DUP4 PUSH2 0x4046 JUMP JUMPDEST SWAP2 POP PUSH2 0x50A2 DUP3 PUSH2 0x5063 JUMP JUMPDEST PUSH1 0x20 DUP3 ADD SWAP1 POP SWAP2 SWAP1 POP JUMP JUMPDEST PUSH0 PUSH1 0x20 DUP3 ADD SWAP1 POP DUP2 DUP2 SUB PUSH0 DUP4 ADD MSTORE PUSH2 0x50C4 DUP2 PUSH2 0x508B JUMP JUMPDEST SWAP1 POP SWAP2 SWAP1 POP JUMP JUMPDEST PUSH0 PUSH1 0x40 DUP3 ADD SWAP1 POP PUSH2 0x50DE PUSH0 DUP4 ADD DUP6 PUSH2 0x40BB JUMP JUMPDEST PUSH2 0x50EB PUSH1 0x20 DUP4 ADD DUP5 PUSH2 0x40BB JUMP JUMPDEST SWAP4 SWAP3 POP POP POP JUMP JUMPDEST PUSH32 0x416D6F756E74206D75737420626520706F736974697665000000000000000000 PUSH0 DUP3 ADD MSTORE POP JUMP JUMPDEST PUSH0 PUSH2 0x5126 PUSH1 0x17 DUP4 PUSH2 0x4046 JUMP JUMPDEST SWAP2 POP PUSH2 0x5131 DUP3 PUSH2 0x50F2 JUMP JUMPDEST PUSH1 0x20 DUP3 ADD SWAP1 POP SWAP2 SWAP1 POP JUMP JUMPDEST PUSH0 PUSH1 0x20 DUP3 ADD SWAP1 POP DUP2 DUP2 SUB PUSH0 DUP4 ADD MSTORE PUSH2 0x5153 DUP2 PUSH2 0x511A JUMP JUMPDEST SWAP1 POP SWAP2 SWAP1 POP JUMP JUMPDEST PUSH32 0x416476616E636520616C72656164792070656E64696E67000000000000000000 PUSH0 DUP3 ADD MSTORE POP JUMP JUMPDEST PUSH0 PUSH2 0x518E PUSH1 0x17 DUP4 PUSH2 0x4046 JUMP JUMPDEST SWAP2 POP PUSH2 0x5199 DUP3 PUSH2 0x515A JUMP JUMPDEST PUSH1 0x20 DUP3 ADD SWAP1 POP SWAP2 SWAP1 POP JUMP JUMPDEST PUSH0 PUSH1 0x20 DUP3 ADD SWAP1 POP DUP2 DUP2 SUB PUSH0 DUP4 ADD MSTORE PUSH2 0x51BB DUP2 PUSH2 0x5182 JUMP JUMPDEST SWAP1 POP SWAP2 SWAP1 POP JUMP JUMPDEST PUSH0 PUSH1 0x40 DUP3 ADD SWAP1 POP PUSH2 0x51D5 PUSH0 DUP4 ADD DUP6 PUSH2 0x40BB JUMP JUMPDEST DUP2 DUP2 SUB PUSH1 0x20 DUP4 ADD MSTORE PUSH2 0x51E7 DUP2 DUP5 PUSH2 0x4074 JUMP JUMPDEST SWAP1 POP SWAP4 SWAP3 POP POP POP JUMP JUMPDEST PUSH32 0x496E76616C69642077616C6C6574206164647265737300000000000000000000 PUSH0 DUP3 ADD MSTORE POP JUMP JUMPDEST PUSH0 PUSH2 0x5224 PUSH1 0x16 DUP4 PUSH2 0x4046 JUMP JUMPDEST SWAP2 POP PUSH2 0x522F DUP3 PUSH2 0x51F0 JUMP JUMPDEST PUSH1 0x20 DUP3 ADD SWAP1 POP SWAP2 SWAP1 POP JUMP JUMPDEST PUSH0 PUSH1 0x20 DUP3 ADD SWAP1 POP DUP2 DUP2 SUB PUSH0 DUP4 ADD MSTORE PUSH2 0x5251 DUP2 PUSH2 0x5218 JUMP JUMPDEST SWAP1 POP SWAP2 SWAP1 POP JUMP JUMPDEST PUSH32 0x4261736520616D6F756E74206D75737420626520706F73697469766500000000 PUSH0 DUP3 ADD MSTORE POP JUMP JUMPDEST PUSH0 PUSH2 0x528C PUSH1 0x1C DUP4 PUSH2 0x4046 JUMP JUMPDEST SWAP2 POP PUSH2 0x5297 DUP3 PUSH2 0x5258 JUMP JUMPDEST PUSH1 0x20 DUP3 ADD SWAP1 POP SWAP2 SWAP1 POP JUMP JUMPDEST PUSH0 PUSH1 0x20 DUP3 ADD SWAP1 POP DUP2 DUP2 SUB PUSH0 DUP4 ADD MSTORE PUSH2 0x52B9 DUP2 PUSH2 0x5280 JUMP JUMPDEST SWAP1 POP SWAP2 SWAP1 POP JUMP JUMPDEST PUSH32 0x456D706C6F79656520616C726561647920657869737473000000000000000000 PUSH0 DUP3 ADD MSTORE POP JUMP JUMPDEST PUSH0 PUSH2 0x52F4 PUSH1 0x17 DUP4 PUSH2 0x4046 JUMP JUMPDEST SWAP2 POP PUSH2 0x52FF DUP3 PUSH2 0x52C0 JUMP JUMPDEST PUSH1 0x20 DUP3 ADD SWAP1 POP SWAP2 SWAP1 POP JUMP JUMPDEST PUSH0 PUSH1 0x20 DUP3 ADD SWAP1 POP DUP2 DUP2 SUB PUSH0 DUP4 ADD MSTORE PUSH2 0x5321 DUP2 PUSH2 0x52E8 JUMP JUMPDEST SWAP1 POP SWAP2 SWAP1 POP JUMP JUMPDEST PUSH0 PUSH1 0x40 DUP3 ADD SWAP1 POP PUSH2 0x533B PUSH0 DUP4 ADD DUP6 PUSH2 0x40BB JUMP JUMPDEST PUSH2 0x5348 PUSH1 0x20 DUP4 ADD DUP5 PUSH2 0x4787 JUMP JUMPDEST SWAP4 SWAP3 POP POP POP JUMP JUMPDEST PUSH0 PUSH1 0x40 DUP3 ADD SWAP1 POP PUSH2 0x5362 PUSH0 DUP4 ADD DUP6 PUSH2 0x40AC JUMP JUMPDEST PUSH2 0x536F PUSH1 0x20 DUP4 ADD DUP5 PUSH2 0x3D0B JUMP JUMPDEST SWAP4 SWAP3 POP POP POP JUMP INVALID LOG2 PUSH5 0x6970667358 0x22 SLT KECCAK256 0x28 SAR PUSH0 RJUMPI 0x9992 GASPRICE SWAP8 MOD MSTORE PUSH0 RETF PUSH6 0x4D6C28C47FEB MSIZE SWAP4 ORIGIN LOG4 0xD6 SWAP7 0xC7 0xC3 PC SWAP3 DUP14 0xD4 0xC5 PUSH5 0x736F6C6343 STOP ADDMOD 0x1E STOP CALLER PUSH1 0x80 PUSH1 0x40 MSTORE PUSH1 0xA PUSH1 0x6 SSTORE CALLVALUE DUP1 ISZERO PUSH2 0x14 JUMPI PUSH0 PUSH0 REVERT JUMPDEST POP PUSH1 0x40 MLOAD PUSH2 0x5271 CODESIZE SUB DUP1 PUSH2 0x5271 DUP4 CODECOPY DUP2 DUP2 ADD PUSH1 0x40 MSTORE DUP2 ADD SWAP1 PUSH2 0x36 SWAP2 SWAP1 PUSH2 0x695 JUMP JUMPDEST PUSH1 0x1 DUP1 DUP2 SWAP1 SSTORE POP DUP2 PUSH1 0x2 PUSH0 PUSH2 0x100 EXP DUP2 SLOAD DUP2 PUSH20 0xFFFFFFFFFFFFFFFFFFFFFFFFFFFFFFFFFFFFFFFF MUL NOT AND SWAP1 DUP4 PUSH20 0xFFFFFFFFFFFFFFFFFFFFFFFFFFFFFFFFFFFFFFFF AND MUL OR SWAP1 SSTORE POP PUSH2 0xC4 PUSH0 PUSH1 0x40 MLOAD DUP1 PUSH1 0x40 ADD PUSH1 0x40 MSTORE DUP1 PUSH1 0x3 DUP2 MSTORE PUSH1 0x20 ADD PUSH32 0x4554480000000000000000000000000000000000000000000000000000000000 DUP2 MSTORE POP PUSH1 0x12 PUSH2 0x15E PUSH1 0x20 SHL PUSH1 0x20 SHR JUMP JUMPDEST PUSH0 PUSH0 SWAP1 POP JUMPDEST DUP2 MLOAD DUP2 LT ISZERO PUSH2 0x156 JUMPI PUSH0 PUSH20 0xFFFFFFFFFFFFFFFFFFFFFFFFFFFFFFFFFFFFFFFF AND DUP3 DUP3 DUP2 MLOAD DUP2 LT PUSH2 0xFC JUMPI PUSH2 0xFB PUSH2 0x6EF JUMP JUMPDEST JUMPDEST PUSH1 0x20 MUL PUSH1 0x20 ADD ADD MLOAD PUSH20 0xFFFFFFFFFFFFFFFFFFFFFFFFFFFFFFFFFFFFFFFF AND EQ PUSH2 0x149 JUMPI PUSH2 0x148 DUP3 DUP3 DUP2 MLOAD DUP2 LT PUSH2 0x135 JUMPI PUSH2 0x134 PUSH2 0x6EF JUMP JUMPDEST JUMPDEST PUSH1 0x20 MUL PUSH1 0x20 ADD ADD MLOAD PUSH2 0x39F PUSH1 0x20 SHL PUSH1 0x20 SHR JUMP JUMPDEST JUMPDEST DUP1 DUP1 PUSH1 0x1 ADD SWAP2 POP POP PUSH2 0xC9 JUMP JUMPDEST POP POP POP PUSH2 0xBD8 JUMP JUMPDEST PUSH1 0x40 MLOAD DUP1 PUSH1 0xC0 ADD PUSH1 0x40 MSTORE DUP1 DUP5 PUSH20 0xFFFFFFFFFFFFFFFFFFFFFFFFFFFFFFFFFFFFFFFF AND DUP2 MSTORE PUSH1 0x20 ADD DUP4 DUP2 MSTORE PUSH1 0x20 ADD DUP3 PUSH1 0xFF AND DUP2 MSTORE PUSH1 0x20 ADD PUSH1 0x1 ISZERO ISZERO DUP2 MSTORE PUSH1 0x20 ADD PUSH0 DUP2 MSTORE PUSH1 0x20 ADD PUSH0 DUP2 MSTORE POP PUSH1 0x4 PUSH0 DUP6 PUSH20 0xFFFFFFFFFFFFFFFFFFFFFFFFFFFFFFFFFFFFFFFF AND PUSH20 0xFFFFFFFFFFFFFFFFFFFFFFFFFFFFFFFFFFFFFFFF AND DUP2 MSTORE PUSH1 0x20 ADD SWAP1 DUP2 MSTORE PUSH1 0x20 ADD PUSH0 KECCAK256 PUSH0 DUP3 ADD MLOAD DUP2 PUSH0 ADD PUSH0 PUSH2 0x100 EXP DUP2 SLOAD DUP2 PUSH20 0xFFFFFFFFFFFFFFFFFFFFFFFFFFFFFFFFFFFFFFFF MUL NOT AND SWAP1 DUP4 PUSH20 0xFFFFFFFFFFFFFFFFFFFFFFFFFFFFFFFFFFFFFFFF AND MUL OR SWAP1 SSTORE POP PUSH1 0x20 DUP3 ADD MLOAD DUP2 PUSH1 0x1 ADD SWAP1 DUP2 PUSH2 0x23D SWAP2 SWAP1 PUSH2 0x92C JUMP JUMPDEST POP PUSH1 0x40 DUP3 ADD MLOAD DUP2 PUSH1 0x2 ADD PUSH0 PUSH2 0x100 EXP DUP2 SLOAD DUP2 PUSH1 0xFF MUL NOT AND SWAP1 DUP4 PUSH1 0xFF AND MUL OR SWAP1 SSTORE POP PUSH1 0x60 DUP3 ADD MLOAD DUP2 PUSH1 0x2 ADD PUSH1 0x1 PUSH2 0x100 EXP DUP2 SLOAD DUP2 PUSH1 0xFF MUL NOT AND SWAP1 DUP4 ISZERO ISZERO MUL OR SWAP1 SSTORE POP PUSH1 0x80 DUP3 ADD MLOAD DUP2 PUSH1 0x3 ADD SSTORE PUSH1 0xA0 DUP3 ADD MLOAD DUP2 PUSH1 0x4 ADD SSTORE SWAP1 POP POP PUSH1 0x3 DUP4 SWAP1 DUP1 PUSH1 0x1 DUP2 SLOAD ADD DUP1 DUP3 SSTORE DUP1 SWAP2 POP POP PUSH1 0x1 SWAP1 SUB SWAP1 PUSH0 MSTORE PUSH1 0x20 PUSH0 KECCAK256 ADD PUSH0 SWAP1 SWAP2 SWAP1 SWAP2 SWAP1 SWAP2 PUSH2 0x100 EXP DUP2 SLOAD DUP2 PUSH20 0xFFFFFFFFFFFFFFFFFFFFFFFFFFFFFFFFFFFFFFFF MUL NOT AND SWAP1 DUP4 PUSH20 0xFFFFFFFFFFFFFFFFFFFFFFFFFFFFFFFFFFFFFFFF AND MUL OR SWAP1 SSTORE POP PUSH1 0x1 PUSH1 0x5 PUSH0 DUP6 PUSH20 0xFFFFFFFFFFFFFFFFFFFFFFFFFFFFFFFFFFFFFFFF AND PUSH20 0xFFFFFFFFFFFFFFFFFFFFFFFFFFFFFFFFFFFFFFFF AND DUP2 MSTORE PUSH1 0x20 ADD SWAP1 DUP2 MSTORE PUSH1 0x20 ADD PUSH0 KECCAK256 PUSH0 PUSH2 0x100 EXP DUP2 SLOAD DUP2 PUSH1 0xFF MUL NOT AND SWAP1 DUP4 ISZERO ISZERO MUL OR SWAP1 SSTORE POP DUP3 PUSH20 0xFFFFFFFFFFFFFFFFFFFFFFFFFFFFFFFFFFFFFFFF AND PUSH32 0x3BE0896D4CD1D645BDAE8ADE25A54BCDBB2C685CE55AC7E7BEAD95D0802B32DE DUP4 DUP4 PUSH1 0x40 MLOAD PUSH2 0x392 SWAP3 SWAP2 SWAP1 PUSH2 0xA6C JUMP JUMPDEST PUSH1 0x40 MLOAD DUP1 SWAP2 SUB SWAP1 LOG2 POP POP POP JUMP JUMPDEST PUSH0 PUSH1 0x40 MLOAD DUP1 PUSH1 0x40 ADD PUSH1 0x40 MSTORE DUP1 PUSH1 0x5 DUP2 MSTORE PUSH1 0x20 ADD PUSH32 0x544F4B454E000000000000000000000000000000000000000000000000000000 DUP2 MSTORE POP SWAP1 POP PUSH0 PUSH1 0x12 SWAP1 POP DUP3 PUSH20 0xFFFFFFFFFFFFFFFFFFFFFFFFFFFFFFFFFFFFFFFF AND PUSH4 0x313CE567 PUSH1 0x40 MLOAD DUP2 PUSH4 0xFFFFFFFF AND PUSH1 0xE0 SHL DUP2 MSTORE PUSH1 0x4 ADD PUSH1 0x20 PUSH1 0x40 MLOAD DUP1 DUP4 SUB DUP2 DUP7 GAS STATICCALL SWAP3 POP POP POP DUP1 ISZERO PUSH2 0x445 JUMPI POP PUSH1 0x40 MLOAD RETURNDATASIZE PUSH1 0x1F NOT PUSH1 0x1F DUP3 ADD AND DUP3 ADD DUP1 PUSH1 0x40 MSTORE POP DUP2 ADD SWAP1 PUSH2 0x442 SWAP2 SWAP1 PUSH2 0xAC4 JUMP JUMPDEST PUSH1 0x1 JUMPDEST ISZERO PUSH2 0x44F JUMPI DUP1 SWAP2 POP POP JUMPDEST DUP3 PUSH20 0xFFFFFFFFFFFFFFFFFFFFFFFFFFFFFFFFFFFFFFFF AND PUSH4 0x95D89B41 PUSH1 0x40 MLOAD DUP2 PUSH4 0xFFFFFFFF AND PUSH1 0xE0 SHL DUP2 MSTORE PUSH1 0x4 ADD PUSH0 PUSH1 0x40 MLOAD DUP1 DUP4 SUB DUP2 DUP7 GAS STATICCALL SWAP3 POP POP POP DUP1 ISZERO PUSH2 0x4BA JUMPI POP PUSH1 0x40 MLOAD RETURNDATASIZE PUSH0 DUP3 RETURNDATACOPY RETURNDATASIZE PUSH1 0x1F NOT PUSH1 0x1F DUP3 ADD AND DUP3 ADD DUP1 PUSH1 0x40 MSTORE POP DUP2 ADD SWAP1 PUSH2 0x4B7 SWAP2 SWAP1 PUSH2 0xB91 JUMP JUMPDEST PUSH1 0x1 JUMPDEST ISZERO PUSH2 0x4C4 JUMPI DUP1 SWAP3 POP POP JUMPDEST PUSH2 0x4D5 DUP4 DUP4 DUP4 PUSH2 0x15E PUSH1 0x20 SHL PUSH1 0x20 SHR JUMP JUMPDEST POP POP POP JUMP JUMPDEST PUSH0 PUSH1 0x40 MLOAD SWAP1 POP SWAP1 JUMP JUMPDEST PUSH0 PUSH0 REVERT JUMPDEST PUSH0 PUSH0 REVERT JUMPDEST PUSH0 PUSH20 0xFFFFFFFFFFFFFFFFFFFFFFFFFFFFFFFFFFFFFFFF DUP3 AND SWAP1 POP SWAP2 SWAP1 POP JUMP JUMPDEST PUSH0 PUSH2 0x514 DUP3 PUSH2 0x4EB JUMP JUMPDEST SWAP1 POP SWAP2 SWAP1 POP JUMP JUMPDEST PUSH2 0x524 DUP2 PUSH2 0x50A JUMP JUMPDEST DUP2 EQ PUSH2 0x52E JUMPI PUSH0 PUSH0 REVERT JUMPDEST POP JUMP JUMPDEST PUSH0 DUP2 MLOAD SWAP1 POP PUSH2 0x53F DUP2 PUSH2 0x51B JUMP JUMPDEST SWAP3 SWAP2 POP POP JUMP JUMPDEST PUSH0 PUSH0 REVERT JUMPDEST PUSH0 PUSH1 0x1F NOT PUSH1 0x1F DUP4 ADD AND SWAP1 POP SWAP2 SWAP1 POP JUMP JUMPDEST PUSH32 0x4E487B7100000000000000000000000000000000000000000000000000000000 PUSH0 MSTORE PUSH1 0x41 PUSH1 0x4 MSTORE PUSH1 0x24 PUSH0 REVERT JUMPDEST PUSH2 0x58F DUP3 PUSH2 0x549 JUMP JUMPDEST DUP2 ADD DUP2 DUP2 LT PUSH8 0xFFFFFFFFFFFFFFFF DUP3 GT OR ISZERO PUSH2 0x5AE JUMPI PUSH2 0x5AD PUSH2 0x559 JUMP JUMPDEST JUMPDEST DUP1 PUSH1 0x40 MSTORE POP POP POP JUMP JUMPDEST PUSH0 PUSH2 0x5C0 PUSH2 0x4DA JUMP JUMPDEST SWAP1 POP PUSH2 0x5CC DUP3 DUP3 PUSH2 0x586 JUMP JUMPDEST SWAP2 SWAP1 POP JUMP JUMPDEST PUSH0 PUSH8 0xFFFFFFFFFFFFFFFF DUP3 GT ISZERO PUSH2 0x5EB JUMPI PUSH2 0x5EA PUSH2 0x559 JUMP JUMPDEST JUMPDEST PUSH1 0x20 DUP3 MUL SWAP1 POP PUSH1 0x20 DUP2 ADD SWAP1 POP SWAP2 SWAP1 POP JUMP JUMPDEST PUSH0 PUSH0 REVERT JUMPDEST PUSH0 PUSH2 0x612 PUSH2 0x60D DUP5 PUSH2 0x5D1 JUMP JUMPDEST PUSH2 0x5B7 JUMP JUMPDEST SWAP1 POP DUP1 DUP4 DUP3 MSTORE PUSH1 0x20 DUP3 ADD SWAP1 POP PUSH1 0x20 DUP5 MUL DUP4 ADD DUP6 DUP2 GT ISZERO PUSH2 0x635 JUMPI PUSH2 0x634 PUSH2 0x5FC JUMP JUMPDEST JUMPDEST DUP4 JUMPDEST DUP2 DUP2 LT ISZERO PUSH2 0x65E JUMPI DUP1 PUSH2 0x64A DUP9 DUP3 PUSH2 0x531 JUMP JUMPDEST DUP5 MSTORE PUSH1 0x20 DUP5 ADD SWAP4 POP POP PUSH1 0x20 DUP2 ADD SWAP1 POP PUSH2 0x637 JUMP JUMPDEST POP POP POP SWAP4 SWAP3 POP POP POP JUMP JUMPDEST PUSH0 DUP3 PUSH1 0x1F DUP4 ADD SLT PUSH2 0x67C JUMPI PUSH2 0x67B PUSH2 0x545 JUMP JUMPDEST JUMPDEST DUP2 MLOAD PUSH2 0x68C DUP5 DUP3 PUSH1 0x20 DUP7 ADD PUSH2 0x600 JUMP JUMPDEST SWAP2 POP POP SWAP3 SWAP2 POP POP JUMP JUMPDEST PUSH0 PUSH0 PUSH1 0x40 DUP4 DUP6 SUB SLT ISZERO PUSH2 0x6AB JUMPI PUSH2 0x6AA PUSH2 0x4E3 JUMP JUMPDEST JUMPDEST PUSH0 PUSH2 0x6B8 DUP6 DUP3 DUP7 ADD PUSH2 0x531 JUMP JUMPDEST SWAP3 POP POP PUSH1 0x20 DUP4 ADD MLOAD PUSH8 0xFFFFFFFFFFFFFFFF DUP2 GT ISZERO PUSH2 0x6D9 JUMPI PUSH2 0x6D8 PUSH2 0x4E7 JUMP JUMPDEST JUMPDEST PUSH2 0x6E5 DUP6 DUP3 DUP7 ADD PUSH2 0x668 JUMP JUMPDEST SWAP2 POP POP SWAP3 POP SWAP3 SWAP1 POP JUMP JUMPDEST PUSH32 0x4E487B7100000000000000000000000000000000000000000000000000000000 PUSH0 MSTORE PUSH1 0x32 PUSH1 0x4 MSTORE PUSH1 0x24 PUSH0 REVERT JUMPDEST PUSH0 DUP2 MLOAD SWAP1 POP SWAP2 SWAP1 POP JUMP JUMPDEST PUSH32 0x4E487B7100000000000000000000000000000000000000000000000000000000 PUSH0 MSTORE PUSH1 0x22 PUSH1 0x4 MSTORE PUSH1 0x24 PUSH0 REVERT JUMPDEST PUSH0 PUSH1 0x2 DUP3 DIV SWAP1 POP PUSH1 0x1 DUP3 AND DUP1 PUSH2 0x76A JUMPI PUSH1 0x7F DUP3 AND SWAP2 POP JUMPDEST PUSH1 0x20 DUP3 LT DUP2 SUB PUSH2 0x77D JUMPI PUSH2 0x77C PUSH2 0x726 JUMP JUMPDEST JUMPDEST POP SWAP2 SWAP1 POP JUMP JUMPDEST PUSH0 DUP2 SWAP1 POP DUP2 PUSH0 MSTORE PUSH1 0x20 PUSH0 KECCAK256 SWAP1 POP SWAP2 SWAP1 POP JUMP JUMPDEST PUSH0 PUSH1 0x20 PUSH1 0x1F DUP4 ADD DIV SWAP1 POP SWAP2 SWAP1 POP JUMP JUMPDEST PUSH0 DUP3 DUP3 SHL SWAP1 POP SWAP3 SWAP2 POP POP JUMP JUMPDEST PUSH0 PUSH1 0x8 DUP4 MUL PUSH2 0x7DF PUSH32 0xFFFFFFFFFFFFFFFFFFFFFFFFFFFFFFFFFFFFFFFFFFFFFFFFFFFFFFFFFFFFFFFF DUP3 PUSH2 0x7A4 JUMP JUMPDEST PUSH2 0x7E9 DUP7 DUP4 PUSH2 0x7A4 JUMP JUMPDEST SWAP6 POP DUP1 NOT DUP5 AND SWAP4 POP DUP1 DUP7 AND DUP5 OR SWAP3 POP POP POP SWAP4 SWAP3 POP POP POP JUMP JUMPDEST PUSH0 DUP2 SWAP1 POP SWAP2 SWAP1 POP JUMP JUMPDEST PUSH0 DUP2 SWAP1 POP SWAP2 SWAP1 POP JUMP JUMPDEST PUSH0 PUSH2 0x82D PUSH2 0x828 PUSH2 0x823 DUP5 PUSH2 0x801 JUMP JUMPDEST PUSH2 0x80A JUMP JUMPDEST PUSH2 0x801 JUMP JUMPDEST SWAP1 POP SWAP2 SWAP1 POP JUMP JUMPDEST PUSH0 DUP2 SWAP1 POP SWAP2 SWAP1 POP JUMP JUMPDEST PUSH2 0x846 DUP4 PUSH2 0x813 JUMP JUMPDEST PUSH2 0x85A PUSH2 0x852 DUP3 PUSH2 0x834 JUMP JUMPDEST DUP5 DUP5 SLOAD PUSH2 0x7B0 JUMP JUMPDEST DUP3 SSTORE POP POP POP POP JUMP JUMPDEST PUSH0 PUSH0 SWAP1 POP SWAP1 JUMP JUMPDEST PUSH2 0x871 PUSH2 0x862 JUMP JUMPDEST PUSH2 0x87C DUP2 DUP5 DUP5 PUSH2 0x83D JUMP JUMPDEST POP POP POP JUMP JUMPDEST JUMPDEST DUP2 DUP2 LT ISZERO PUSH2 0x89F JUMPI PUSH2 0x894 PUSH0 DUP3 PUSH2 0x869 JUMP JUMPDEST PUSH1 0x1 DUP2 ADD SWAP1 POP PUSH2 0x882 JUMP JUMPDEST POP POP JUMP JUMPDEST PUSH1 0x1F DUP3 GT ISZERO PUSH2 0x8E4 JUMPI PUSH2 0x8B5 DUP2 PUSH2 0x783 JUMP JUMPDEST PUSH2 0x8BE DUP5 PUSH2 0x795 JUMP JUMPDEST DUP2 ADD PUSH1 0x20 DUP6 LT ISZERO PUSH2 0x8CD JUMPI DUP2 SWAP1 POP JUMPDEST PUSH2 0x8E1 PUSH2 0x8D9 DUP6 PUSH2 0x795 JUMP JUMPDEST DUP4 ADD DUP3 PUSH2 0x881 JUMP JUMPDEST POP POP JUMPDEST POP POP POP JUMP JUMPDEST PUSH0 DUP3 DUP3 SHR SWAP1 POP SWAP3 SWAP2 POP POP JUMP JUMPDEST PUSH0 PUSH2 0x904 PUSH0 NOT DUP5 PUSH1 0x8 MUL PUSH2 0x8E9 JUMP JUMPDEST NOT DUP1 DUP4 AND SWAP2 POP POP SWAP3 SWAP2 POP POP JUMP JUMPDEST PUSH0 PUSH2 0x91C DUP4 DUP4 PUSH2 0x8F5 JUMP JUMPDEST SWAP2 POP DUP3 PUSH1 0x2 MUL DUP3 OR SWAP1 POP SWAP3 SWAP2 POP POP JUMP JUMPDEST PUSH2 0x935 DUP3 PUSH2 0x71C JUMP JUMPDEST PUSH8 0xFFFFFFFFFFFFFFFF DUP2 GT ISZERO PUSH2 0x94E JUMPI PUSH2 0x94D PUSH2 0x559 JUMP JUMPDEST JUMPDEST PUSH2 0x958 DUP3 SLOAD PUSH2 0x753 JUMP JUMPDEST PUSH2 0x963 DUP3 DUP3 DUP6 PUSH2 0x8A3 JUMP JUMPDEST PUSH0 PUSH1 0x20 SWAP1 POP PUSH1 0x1F DUP4 GT PUSH1 0x1 DUP2 EQ PUSH2 0x994 JUMPI PUSH0 DUP5 ISZERO PUSH2 0x982 JUMPI DUP3 DUP8 ADD MLOAD SWAP1 POP JUMPDEST PUSH2 0x98C DUP6 DUP3 PUSH2 0x911 JUMP JUMPDEST DUP7 SSTORE POP PUSH2 0x9F3 JUMP JUMPDEST PUSH1 0x1F NOT DUP5 AND PUSH2 0x9A2 DUP7 PUSH2 0x783 JUMP JUMPDEST PUSH0 JUMPDEST DUP3 DUP2 LT ISZERO PUSH2 0x9C9 JUMPI DUP5 DUP10 ADD MLOAD DUP3 SSTORE PUSH1 0x1 DUP3 ADD SWAP2 POP PUSH1 0x20 DUP6 ADD SWAP5 POP PUSH1 0x20 DUP2 ADD SWAP1 POP PUSH2 0x9A4 JUMP JUMPDEST DUP7 DUP4 LT ISZERO PUSH2 0x9E6 JUMPI DUP5 DUP10 ADD MLOAD PUSH2 0x9E2 PUSH1 0x1F DUP10 AND DUP3 PUSH2 0x8F5 JUMP JUMPDEST DUP4 SSTORE POP JUMPDEST PUSH1 0x1 PUSH1 0x2 DUP9 MUL ADD DUP9 SSTORE POP POP POP JUMPDEST POP POP POP POP POP POP JUMP JUMPDEST PUSH0 DUP3 DUP3 MSTORE PUSH1 0x20 DUP3 ADD SWAP1 POP SWAP3 SWAP2 POP POP JUMP JUMPDEST DUP3 DUP2 DUP4 MCOPY PUSH0 DUP4 DUP4 ADD MSTORE POP POP POP JUMP JUMPDEST PUSH0 PUSH2 0xA23 DUP3 PUSH2 0x71C JUMP JUMPDEST PUSH2 0xA2D DUP2 DUP6 PUSH2 0x9FB JUMP JUMPDEST SWAP4 POP PUSH2 0xA3D DUP2 DUP6 PUSH1 0x20 DUP7 ADD PUSH2 0xA0B JUMP JUMPDEST PUSH2 0xA46 DUP2 PUSH2 0x549 JUMP JUMPDEST DUP5 ADD SWAP2 POP POP SWAP3 SWAP2 POP POP JUMP JUMPDEST PUSH0 PUSH1 0xFF DUP3 AND SWAP1 POP SWAP2 SWAP1 POP JUMP JUMPDEST PUSH2 0xA66 DUP2 PUSH2 0xA51 JUMP JUMPDEST DUP3 MSTORE POP POP JUMP JUMPDEST PUSH0 PUSH1 0x40 DUP3 ADD SWAP1 POP DUP2 DUP2 SUB PUSH0 DUP4 ADD MSTORE PUSH2 0xA84 DUP2 DUP6 PUSH2 0xA19 JUMP JUMPDEST SWAP1 POP PUSH2 0xA93 PUSH1 0x20 DUP4 ADD DUP5 PUSH2 0xA5D JUMP JUMPDEST SWAP4 SWAP3 POP POP POP JUMP JUMPDEST PUSH2 0xAA3 DUP2 PUSH2 0xA51 JUMP JUMPDEST DUP2 EQ PUSH2 0xAAD JUMPI PUSH0 PUSH0 REVERT JUMPDEST POP JUMP JUMPDEST PUSH0 DUP2 MLOAD SWAP1 POP PUSH2 0xABE DUP2 PUSH2 0xA9A JUMP JUMPDEST SWAP3 SWAP2 POP POP JUMP JUMPDEST PUSH0 PUSH1 0x20 DUP3 DUP5 SUB SLT ISZERO PUSH2 0xAD9 JUMPI PUSH2 0xAD8 PUSH2 0x4E3 JUMP JUMPDEST JUMPDEST PUSH0 PUSH2 0xAE6 DUP5 DUP3 DUP6 ADD PUSH2 0xAB0 JUMP JUMPDEST SWAP2 POP POP SWAP3 SWAP2 POP POP JUMP JUMPDEST PUSH0 PUSH0 REVERT JUMPDEST PUSH0 PUSH8 0xFFFFFFFFFFFFFFFF DUP3 GT ISZERO PUSH2 0xB0D JUMPI PUSH2 0xB0C PUSH2 0x559 JUMP JUMPDEST JUMPDEST PUSH2 0xB16 DUP3 PUSH2 0x549 JUMP JUMPDEST SWAP1 POP PUSH1 0x20 DUP2 ADD SWAP1 POP SWAP2 SWAP1 POP JUMP JUMPDEST PUSH0 PUSH2 0xB35 PUSH2 0xB30 DUP5 PUSH2 0xAF3 JUMP JUMPDEST PUSH2 0x5B7 JUMP JUMPDEST SWAP1 POP DUP3 DUP2 MSTORE PUSH1 0x20 DUP2 ADD DUP5 DUP5 DUP5 ADD GT ISZERO PUSH2 0xB51 JUMPI PUSH2 0xB50 PUSH2 0xAEF JUMP JUMPDEST JUMPDEST PUSH2 0xB5C DUP5 DUP3 DUP6 PUSH2 0xA0B JUMP JUMPDEST POP SWAP4 SWAP3 POP POP POP JUMP JUMPDEST PUSH0 DUP3 PUSH1 0x1F DUP4 ADD SLT PUSH2 0xB78 JUMPI PUSH2 0xB77 PUSH2 0x545 JUMP JUMPDEST JUMPDEST DUP2 MLOAD PUSH2 0xB88 DUP5 DUP3 PUSH1 0x20 DUP7 ADD PUSH2 0xB23 JUMP JUMPDEST SWAP2 POP POP SWAP3 SWAP2 POP POP JUMP JUMPDEST PUSH0 PUSH1 0x20 DUP3 DUP5 SUB SLT ISZERO PUSH2 0xBA6 JUMPI PUSH2 0xBA5 PUSH2 0x4E3 JUMP JUMPDEST JUMPDEST PUSH0 DUP3 ADD MLOAD PUSH8 0xFFFFFFFFFFFFFFFF DUP2 GT ISZERO PUSH2 0xBC3 JUMPI PUSH2 0xBC2 PUSH2 0x4E7 JUMP JUMPDEST JUMPDEST PUSH2 0xBCF DUP5 DUP3 DUP6 ADD PUSH2 0xB64 JUMP JUMPDEST SWAP2 POP POP SWAP3 SWAP2 POP POP JUMP JUMPDEST PUSH2 0x468C DUP1 PUSH2 0xBE5 PUSH0 CODECOPY PUSH0 RETURN INVALID PUSH1 0x80 PUSH1 0x40 MSTORE PUSH1 0x4 CALLDATASIZE LT PUSH2 0x1C5 JUMPI PUSH0 CALLDATALOAD PUSH1 0xE0 SHR DUP1 PUSH4 0x6E82AD06 GT PUSH2 0xF6 JUMPI DUP1 PUSH4 0xA217FDDF GT PUSH2 0x94 JUMPI DUP1 PUSH4 0xD3C7C2C7 GT PUSH2 0x63 JUMPI DUP1 PUSH4 0xD3C7C2C7 EQ PUSH2 0x73F JUMPI DUP1 PUSH4 0xD547741F EQ PUSH2 0x769 JUMPI DUP1 PUSH4 0xF5DAB711 EQ PUSH2 0x791 JUMPI DUP1 PUSH4 0xF700C829 EQ PUSH2 0x7D2 JUMPI PUSH2 0x287 JUMP JUMPDEST DUP1 PUSH4 0xA217FDDF EQ PUSH2 0x681 JUMPI DUP1 PUSH4 0xBC4B3365 EQ PUSH2 0x6AB JUMPI DUP1 PUSH4 0xC6255626 EQ PUSH2 0x6C7 JUMPI DUP1 PUSH4 0xD1A0CC5C EQ PUSH2 0x703 JUMPI PUSH2 0x287 JUMP JUMPDEST DUP1 PUSH4 0x76319190 GT PUSH2 0xD0 JUMPI DUP1 PUSH4 0x76319190 EQ PUSH2 0x5C7 JUMPI DUP1 PUSH4 0x91D14854 EQ PUSH2 0x5EF JUMPI DUP1 PUSH4 0x9304739D EQ PUSH2 0x62B JUMPI DUP1 PUSH4 0xA1C7C1A6 EQ PUSH2 0x657 JUMPI PUSH2 0x287 JUMP JUMPDEST DUP1 PUSH4 0x6E82AD06 EQ PUSH2 0x539 JUMPI DUP1 PUSH4 0x75151B63 EQ PUSH2 0x561 JUMPI DUP1 PUSH4 0x75B238FC EQ PUSH2 0x59D JUMPI PUSH2 0x287 JUMP JUMPDEST DUP1 PUSH4 0x28983EBD GT PUSH2 0x163 JUMPI DUP1 PUSH4 0x349B5954 GT PUSH2 0x13D JUMPI DUP1 PUSH4 0x349B5954 EQ PUSH2 0x483 JUMPI DUP1 PUSH4 0x36568ABE EQ PUSH2 0x4AD JUMPI DUP1 PUSH4 0x3AECD0E3 EQ PUSH2 0x4D5 JUMPI DUP1 PUSH4 0x6D69FCAF EQ PUSH2 0x511 JUMPI PUSH2 0x287 JUMP JUMPDEST DUP1 PUSH4 0x28983EBD EQ PUSH2 0x3F5 JUMPI DUP1 PUSH4 0x2F2FF15D EQ PUSH2 0x433 JUMPI DUP1 PUSH4 0x33A738C9 EQ PUSH2 0x45B JUMPI PUSH2 0x287 JUMP JUMPDEST DUP1 PUSH4 0x1CC0A1C3 GT PUSH2 0x19F JUMPI DUP1 PUSH4 0x1CC0A1C3 EQ PUSH2 0x317 JUMPI DUP1 PUSH4 0x1D163923 EQ PUSH2 0x353 JUMPI DUP1 PUSH4 0x1F69565F EQ PUSH2 0x37D JUMPI DUP1 PUSH4 0x248A9CA3 EQ PUSH2 0x3B9 JUMPI PUSH2 0x287 JUMP JUMPDEST DUP1 PUSH4 0x1FFC9A7 EQ PUSH2 0x28B JUMPI DUP1 PUSH4 0x1132454D EQ PUSH2 0x2C7 JUMPI DUP1 PUSH4 0x1C20FADD EQ PUSH2 0x2EF JUMPI PUSH2 0x287 JUMP JUMPDEST CALLDATASIZE PUSH2 0x287 JUMPI CALLVALUE PUSH1 0x4 PUSH0 PUSH0 PUSH20 0xFFFFFFFFFFFFFFFFFFFFFFFFFFFFFFFFFFFFFFFF AND PUSH20 0xFFFFFFFFFFFFFFFFFFFFFFFFFFFFFFFFFFFFFFFF AND DUP2 MSTORE PUSH1 0x20 ADD SWAP1 DUP2 MSTORE PUSH1 0x20 ADD PUSH0 KECCAK256 PUSH1 0x3 ADD PUSH0 DUP3 DUP3 SLOAD PUSH2 0x219 SWAP2 SWAP1 PUSH2 0x3170 JUMP JUMPDEST SWAP3 POP POP DUP2 SWAP1 SSTORE POP CALLER PUSH20 0xFFFFFFFFFFFFFFFFFFFFFFFFFFFFFFFFFFFFFFFF AND PUSH0 PUSH20 0xFFFFFFFFFFFFFFFFFFFFFFFFFFFFFFFFFFFFFFFF AND PUSH32 0x30F1CC05E02CAB00B43711C7C16DF2558139122D0FEEA37E4977A748E013A5AA CALLVALUE PUSH1 0x40 MLOAD PUSH2 0x27D SWAP2 SWAP1 PUSH2 0x31B2 JUMP JUMPDEST PUSH1 0x40 MLOAD DUP1 SWAP2 SUB SWAP1 LOG3 STOP JUMPDEST PUSH0 PUSH0 REVERT JUMPDEST CALLVALUE DUP1 ISZERO PUSH2 0x296 JUMPI PUSH0 PUSH0 REVERT JUMPDEST POP PUSH2 0x2B1 PUSH1 0x4 DUP1 CALLDATASIZE SUB DUP2 ADD SWAP1 PUSH2 0x2AC SWAP2 SWAP1 PUSH2 0x3231 JUMP JUMPDEST PUSH2 0x7FC JUMP JUMPDEST PUSH1 0x40 MLOAD PUSH2 0x2BE SWAP2 SWAP1 PUSH2 0x3276 JUMP JUMPDEST PUSH1 0x40 MLOAD DUP1 SWAP2 SUB SWAP1 RETURN JUMPDEST CALLVALUE DUP1 ISZERO PUSH2 0x2D2 JUMPI PUSH0 PUSH0 REVERT JUMPDEST POP PUSH2 0x2ED PUSH1 0x4 DUP1 CALLDATASIZE SUB DUP2 ADD SWAP1 PUSH2 0x2E8 SWAP2 SWAP1 PUSH2 0x32B9 JUMP JUMPDEST PUSH2 0x875 JUMP JUMPDEST STOP JUMPDEST CALLVALUE DUP1 ISZERO PUSH2 0x2FA JUMPI PUSH0 PUSH0 REVERT JUMPDEST POP PUSH2 0x315 PUSH1 0x4 DUP1 CALLDATASIZE SUB DUP2 ADD SWAP1 PUSH2 0x310 SWAP2 SWAP1 PUSH2 0x333E JUMP JUMPDEST PUSH2 0xABF JUMP JUMPDEST STOP JUMPDEST CALLVALUE DUP1 ISZERO PUSH2 0x322 JUMPI PUSH0 PUSH0 REVERT JUMPDEST POP PUSH2 0x33D PUSH1 0x4 DUP1 CALLDATASIZE SUB DUP2 ADD SWAP1 PUSH2 0x338 SWAP2 SWAP1 PUSH2 0x333E JUMP JUMPDEST PUSH2 0x1017 JUMP JUMPDEST PUSH1 0x40 MLOAD PUSH2 0x34A SWAP2 SWAP1 PUSH2 0x31B2 JUMP JUMPDEST PUSH1 0x40 MLOAD DUP1 SWAP2 SUB SWAP1 RETURN JUMPDEST CALLVALUE DUP1 ISZERO PUSH2 0x35E JUMPI PUSH0 PUSH0 REVERT JUMPDEST POP PUSH2 0x367 PUSH2 0x1062 JUMP JUMPDEST PUSH1 0x40 MLOAD PUSH2 0x374 SWAP2 SWAP1 PUSH2 0x31B2 JUMP JUMPDEST PUSH1 0x40 MLOAD DUP1 SWAP2 SUB SWAP1 RETURN JUMPDEST CALLVALUE DUP1 ISZERO PUSH2 0x388 JUMPI PUSH0 PUSH0 REVERT JUMPDEST POP PUSH2 0x3A3 PUSH1 0x4 DUP1 CALLDATASIZE SUB DUP2 ADD SWAP1 PUSH2 0x39E SWAP2 SWAP1 PUSH2 0x338E JUMP JUMPDEST PUSH2 0x106E JUMP JUMPDEST PUSH1 0x40 MLOAD PUSH2 0x3B0 SWAP2 SWAP1 PUSH2 0x34F7 JUMP JUMPDEST PUSH1 0x40 MLOAD DUP1 SWAP2 SUB SWAP1 RETURN JUMPDEST CALLVALUE DUP1 ISZERO PUSH2 0x3C4 JUMPI PUSH0 PUSH0 REVERT JUMPDEST POP PUSH2 0x3DF PUSH1 0x4 DUP1 CALLDATASIZE SUB DUP2 ADD SWAP1 PUSH2 0x3DA SWAP2 SWAP1 PUSH2 0x354A JUMP JUMPDEST PUSH2 0x11F4 JUMP JUMPDEST PUSH1 0x40 MLOAD PUSH2 0x3EC SWAP2 SWAP1 PUSH2 0x3584 JUMP JUMPDEST PUSH1 0x40 MLOAD DUP1 SWAP2 SUB SWAP1 RETURN JUMPDEST CALLVALUE DUP1 ISZERO PUSH2 0x400 JUMPI PUSH0 PUSH0 REVERT JUMPDEST POP PUSH2 0x41B PUSH1 0x4 DUP1 CALLDATASIZE SUB DUP2 ADD SWAP1 PUSH2 0x416 SWAP2 SWAP1 PUSH2 0x359D JUMP JUMPDEST PUSH2 0x1210 JUMP JUMPDEST PUSH1 0x40 MLOAD PUSH2 0x42A SWAP4 SWAP3 SWAP2 SWAP1 PUSH2 0x35DB JUMP JUMPDEST PUSH1 0x40 MLOAD DUP1 SWAP2 SUB SWAP1 RETURN JUMPDEST CALLVALUE DUP1 ISZERO PUSH2 0x43E JUMPI PUSH0 PUSH0 REVERT JUMPDEST POP PUSH2 0x459 PUSH1 0x4 DUP1 CALLDATASIZE SUB DUP2 ADD SWAP1 PUSH2 0x454 SWAP2 SWAP1 PUSH2 0x3610 JUMP JUMPDEST PUSH2 0x127D JUMP JUMPDEST STOP JUMPDEST CALLVALUE DUP1 ISZERO PUSH2 0x466 JUMPI PUSH0 PUSH0 REVERT JUMPDEST POP PUSH2 0x481 PUSH1 0x4 DUP1 CALLDATASIZE SUB DUP2 ADD SWAP1 PUSH2 0x47C SWAP2 SWAP1 PUSH2 0x333E JUMP JUMPDEST PUSH2 0x129F JUMP JUMPDEST STOP JUMPDEST CALLVALUE DUP1 ISZERO PUSH2 0x48E JUMPI PUSH0 PUSH0 REVERT JUMPDEST POP PUSH2 0x497 PUSH2 0x13BA JUMP JUMPDEST PUSH1 0x40 MLOAD PUSH2 0x4A4 SWAP2 SWAP1 PUSH2 0x3584 JUMP JUMPDEST PUSH1 0x40 MLOAD DUP1 SWAP2 SUB SWAP1 RETURN JUMPDEST CALLVALUE DUP1 ISZERO PUSH2 0x4B8 JUMPI PUSH0 PUSH0 REVERT JUMPDEST POP PUSH2 0x4D3 PUSH1 0x4 DUP1 CALLDATASIZE SUB DUP2 ADD SWAP1 PUSH2 0x4CE SWAP2 SWAP1 PUSH2 0x3610 JUMP JUMPDEST PUSH2 0x13DE JUMP JUMPDEST STOP JUMPDEST CALLVALUE DUP1 ISZERO PUSH2 0x4E0 JUMPI PUSH0 PUSH0 REVERT JUMPDEST POP PUSH2 0x4FB PUSH1 0x4 DUP1 CALLDATASIZE SUB DUP2 ADD SWAP1 PUSH2 0x4F6 SWAP2 SWAP1 PUSH2 0x338E JUMP JUMPDEST PUSH2 0x1459 JUMP JUMPDEST PUSH1 0x40 MLOAD PUSH2 0x508 SWAP2 SWAP1 PUSH2 0x31B2 JUMP JUMPDEST PUSH1 0x40 MLOAD DUP1 SWAP2 SUB SWAP1 RETURN JUMPDEST CALLVALUE DUP1 ISZERO PUSH2 0x51C JUMPI PUSH0 PUSH0 REVERT JUMPDEST POP PUSH2 0x537 PUSH1 0x4 DUP1 CALLDATASIZE SUB DUP2 ADD SWAP1 PUSH2 0x532 SWAP2 SWAP1 PUSH2 0x338E JUMP JUMPDEST PUSH2 0x14A2 JUMP JUMPDEST STOP JUMPDEST CALLVALUE DUP1 ISZERO PUSH2 0x544 JUMPI PUSH0 PUSH0 REVERT JUMPDEST POP PUSH2 0x55F PUSH1 0x4 DUP1 CALLDATASIZE SUB DUP2 ADD SWAP1 PUSH2 0x55A SWAP2 SWAP1 PUSH2 0x359D JUMP JUMPDEST PUSH2 0x1762 JUMP JUMPDEST STOP JUMPDEST CALLVALUE DUP1 ISZERO PUSH2 0x56C JUMPI PUSH0 PUSH0 REVERT JUMPDEST POP PUSH2 0x587 PUSH1 0x4 DUP1 CALLDATASIZE SUB DUP2 ADD SWAP1 PUSH2 0x582 SWAP2 SWAP1 PUSH2 0x338E JUMP JUMPDEST PUSH2 0x1804 JUMP JUMPDEST PUSH1 0x40 MLOAD PUSH2 0x594 SWAP2 SWAP1 PUSH2 0x3276 JUMP JUMPDEST PUSH1 0x40 MLOAD DUP1 SWAP2 SUB SWAP1 RETURN JUMPDEST CALLVALUE DUP1 ISZERO PUSH2 0x5A8 JUMPI PUSH0 PUSH0 REVERT JUMPDEST POP PUSH2 0x5B1 PUSH2 0x1821 JUMP JUMPDEST PUSH1 0x40 MLOAD PUSH2 0x5BE SWAP2 SWAP1 PUSH2 0x3584 JUMP JUMPDEST PUSH1 0x40 MLOAD DUP1 SWAP2 SUB SWAP1 RETURN JUMPDEST CALLVALUE DUP1 ISZERO PUSH2 0x5D2 JUMPI PUSH0 PUSH0 REVERT JUMPDEST POP PUSH2 0x5ED PUSH1 0x4 DUP1 CALLDATASIZE SUB DUP2 ADD SWAP1 PUSH2 0x5E8 SWAP2 SWAP1 PUSH2 0x338E JUMP JUMPDEST PUSH2 0x1845 JUMP JUMPDEST STOP JUMPDEST CALLVALUE DUP1 ISZERO PUSH2 0x5FA JUMPI PUSH0 PUSH0 REVERT JUMPDEST POP PUSH2 0x615 PUSH1 0x4 DUP1 CALLDATASIZE SUB DUP2 ADD SWAP1 PUSH2 0x610 SWAP2 SWAP1 PUSH2 0x3610 JUMP JUMPDEST PUSH2 0x1DE9 JUMP JUMPDEST PUSH1 0x40 MLOAD PUSH2 0x622 SWAP2 SWAP1 PUSH2 0x3276 JUMP JUMPDEST PUSH1 0x40 MLOAD DUP1 SWAP2 SUB SWAP1 RETURN JUMPDEST CALLVALUE DUP1 ISZERO PUSH2 0x636 JUMPI PUSH0 PUSH0 REVERT JUMPDEST POP PUSH2 0x63F PUSH2 0x1E4C JUMP JUMPDEST PUSH1 0x40 MLOAD PUSH2 0x64E SWAP4 SWAP3 SWAP2 SWAP1 PUSH2 0x379E JUMP JUMPDEST PUSH1 0x40 MLOAD DUP1 SWAP2 SUB SWAP1 RETURN JUMPDEST CALLVALUE DUP1 ISZERO PUSH2 0x662 JUMPI PUSH0 PUSH0 REVERT JUMPDEST POP PUSH2 0x66B PUSH2 0x20D3 JUMP JUMPDEST PUSH1 0x40 MLOAD PUSH2 0x678 SWAP2 SWAP1 PUSH2 0x37F7 JUMP JUMPDEST PUSH1 0x40 MLOAD DUP1 SWAP2 SUB SWAP1 RETURN JUMPDEST CALLVALUE DUP1 ISZERO PUSH2 0x68C JUMPI PUSH0 PUSH0 REVERT JUMPDEST POP PUSH2 0x695 PUSH2 0x20F8 JUMP JUMPDEST PUSH1 0x40 MLOAD PUSH2 0x6A2 SWAP2 SWAP1 PUSH2 0x3584 JUMP JUMPDEST PUSH1 0x40 MLOAD DUP1 SWAP2 SUB SWAP1 RETURN JUMPDEST PUSH2 0x6C5 PUSH1 0x4 DUP1 CALLDATASIZE SUB DUP2 ADD SWAP1 PUSH2 0x6C0 SWAP2 SWAP1 PUSH2 0x359D JUMP JUMPDEST PUSH2 0x20FE JUMP JUMPDEST STOP JUMPDEST CALLVALUE DUP1 ISZERO PUSH2 0x6D2 JUMPI PUSH0 PUSH0 REVERT JUMPDEST POP PUSH2 0x6ED PUSH1 0x4 DUP1 CALLDATASIZE SUB DUP2 ADD SWAP1 PUSH2 0x6E8 SWAP2 SWAP1 PUSH2 0x32B9 JUMP JUMPDEST PUSH2 0x248A JUMP JUMPDEST PUSH1 0x40 MLOAD PUSH2 0x6FA SWAP2 SWAP1 PUSH2 0x37F7 JUMP JUMPDEST PUSH1 0x40 MLOAD DUP1 SWAP2 SUB SWAP1 RETURN JUMPDEST CALLVALUE DUP1 ISZERO PUSH2 0x70E JUMPI PUSH0 PUSH0 REVERT JUMPDEST POP PUSH2 0x729 PUSH1 0x4 DUP1 CALLDATASIZE SUB DUP2 ADD SWAP1 PUSH2 0x724 SWAP2 SWAP1 PUSH2 0x333E JUMP JUMPDEST PUSH2 0x24C5 JUMP JUMPDEST PUSH1 0x40 MLOAD PUSH2 0x736 SWAP2 SWAP1 PUSH2 0x3276 JUMP JUMPDEST PUSH1 0x40 MLOAD DUP1 SWAP2 SUB SWAP1 RETURN JUMPDEST CALLVALUE DUP1 ISZERO PUSH2 0x74A JUMPI PUSH0 PUSH0 REVERT JUMPDEST POP PUSH2 0x753 PUSH2 0x2734 JUMP JUMPDEST PUSH1 0x40 MLOAD PUSH2 0x760 SWAP2 SWAP1 PUSH2 0x3810 JUMP JUMPDEST PUSH1 0x40 MLOAD DUP1 SWAP2 SUB SWAP1 RETURN JUMPDEST CALLVALUE DUP1 ISZERO PUSH2 0x774 JUMPI PUSH0 PUSH0 REVERT JUMPDEST POP PUSH2 0x78F PUSH1 0x4 DUP1 CALLDATASIZE SUB DUP2 ADD SWAP1 PUSH2 0x78A SWAP2 SWAP1 PUSH2 0x3610 JUMP JUMPDEST PUSH2 0x27BF JUMP JUMPDEST STOP JUMPDEST CALLVALUE DUP1 ISZERO PUSH2 0x79C JUMPI PUSH0 PUSH0 REVERT JUMPDEST POP PUSH2 0x7B7 PUSH1 0x4 DUP1 CALLDATASIZE SUB DUP2 ADD SWAP1 PUSH2 0x7B2 SWAP2 SWAP1 PUSH2 0x338E JUMP JUMPDEST PUSH2 0x27E1 JUMP JUMPDEST PUSH1 0x40 MLOAD PUSH2 0x7C9 SWAP7 SWAP6 SWAP5 SWAP4 SWAP3 SWAP2 SWAP1 PUSH2 0x3887 JUMP JUMPDEST PUSH1 0x40 MLOAD DUP1 SWAP2 SUB SWAP1 RETURN JUMPDEST CALLVALUE DUP1 ISZERO PUSH2 0x7DD JUMPI PUSH0 PUSH0 REVERT JUMPDEST POP PUSH2 0x7E6 PUSH2 0x28D7 JUMP JUMPDEST PUSH1 0x40 MLOAD PUSH2 0x7F3 SWAP2 SWAP1 PUSH2 0x31B2 JUMP JUMPDEST PUSH1 0x40 MLOAD DUP1 SWAP2 SUB SWAP1 RETURN JUMPDEST PUSH0 PUSH32 0x7965DB0B00000000000000000000000000000000000000000000000000000000 PUSH28 0xFFFFFFFFFFFFFFFFFFFFFFFFFFFFFFFFFFFFFFFFFFFFFFFFFFFFFFFF NOT AND DUP3 PUSH28 0xFFFFFFFFFFFFFFFFFFFFFFFFFFFFFFFFFFFFFFFFFFFFFFFFFFFFFFFF NOT AND EQ DUP1 PUSH2 0x86E JUMPI POP PUSH2 0x86D DUP3 PUSH2 0x28DD JUMP JUMPDEST JUMPDEST SWAP1 POP SWAP2 SWAP1 POP JUMP JUMPDEST PUSH1 0x2 PUSH0 SWAP1 SLOAD SWAP1 PUSH2 0x100 EXP SWAP1 DIV PUSH20 0xFFFFFFFFFFFFFFFFFFFFFFFFFFFFFFFFFFFFFFFF AND PUSH20 0xFFFFFFFFFFFFFFFFFFFFFFFFFFFFFFFFFFFFFFFF AND PUSH4 0x91D14854 PUSH32 0xA49807205CE4D355092EF5A8A18F56E8913CF4A201FBE287825B095693C21775 CALLER PUSH1 0x40 MLOAD DUP4 PUSH4 0xFFFFFFFF AND PUSH1 0xE0 SHL DUP2 MSTORE PUSH1 0x4 ADD PUSH2 0x8F1 SWAP3 SWAP2 SWAP1 PUSH2 0x38ED JUMP JUMPDEST PUSH1 0x20 PUSH1 0x40 MLOAD DUP1 DUP4 SUB DUP2 DUP7 GAS STATICCALL ISZERO DUP1 ISZERO PUSH2 0x90C JUMPI RETURNDATASIZE PUSH0 PUSH0 RETURNDATACOPY RETURNDATASIZE PUSH0 REVERT JUMPDEST POP POP POP POP PUSH1 0x40 MLOAD RETURNDATASIZE PUSH1 0x1F NOT PUSH1 0x1F DUP3 ADD AND DUP3 ADD DUP1 PUSH1 0x40 MSTORE POP DUP2 ADD SWAP1 PUSH2 0x930 SWAP2 SWAP1 PUSH2 0x393E JUMP JUMPDEST DUP1 PUSH2 0x9F2 JUMPI POP PUSH1 0x2 PUSH0 SWAP1 SLOAD SWAP1 PUSH2 0x100 EXP SWAP1 DIV PUSH20 0xFFFFFFFFFFFFFFFFFFFFFFFFFFFFFFFFFFFFFFFF AND PUSH20 0xFFFFFFFFFFFFFFFFFFFFFFFFFFFFFFFFFFFFFFFF AND PUSH4 0x91D14854 PUSH32 0x940D6B1946FF1D2B5A9F1909219C3C81A370804B5BA0F91EC0828C99A2E6A681 CALLER PUSH1 0x40 MLOAD DUP4 PUSH4 0xFFFFFFFF AND PUSH1 0xE0 SHL DUP2 MSTORE PUSH1 0x4 ADD PUSH2 0x9B2 SWAP3 SWAP2 SWAP1 PUSH2 0x38ED JUMP JUMPDEST PUSH1 0x20 PUSH1 0x40 MLOAD DUP1 DUP4 SUB DUP2 DUP7 GAS STATICCALL ISZERO DUP1 ISZERO PUSH2 0x9CD JUMPI RETURNDATASIZE PUSH0 PUSH0 RETURNDATACOPY RETURNDATASIZE PUSH0 REVERT JUMPDEST POP POP POP POP PUSH1 0x40 MLOAD RETURNDATASIZE PUSH1 0x1F NOT PUSH1 0x1F DUP3 ADD AND DUP3 ADD DUP1 PUSH1 0x40 MSTORE POP DUP2 ADD SWAP1 PUSH2 0x9F1 SWAP2 SWAP1 PUSH2 0x393E JUMP JUMPDEST JUMPDEST PUSH2 0xA31 JUMPI PUSH1 0x40 MLOAD PUSH32 0x8C379A000000000000000000000000000000000000000000000000000000000 DUP2 MSTORE PUSH1 0x4 ADD PUSH2 0xA28 SWAP1 PUSH2 0x39B3 JUMP JUMPDEST PUSH1 0x40 MLOAD DUP1 SWAP2 SUB SWAP1 REVERT JUMPDEST PUSH1 0x32 DUP2 GT ISZERO PUSH2 0xA75 JUMPI PUSH1 0x40 MLOAD PUSH32 0x8C379A000000000000000000000000000000000000000000000000000000000 DUP2 MSTORE PUSH1 0x4 ADD PUSH2 0xA6C SWAP1 PUSH2 0x3A1B JUMP JUMPDEST PUSH1 0x40 MLOAD DUP1 SWAP2 SUB SWAP1 REVERT JUMPDEST PUSH0 PUSH1 0x6 SLOAD SWAP1 POP DUP2 PUSH1 0x6 DUP2 SWAP1 SSTORE POP PUSH32 0x4EC795D4FBC11BD4B110942496B55A732F92E5CAD5729DF002860F4C0580D7D1 DUP2 DUP4 PUSH1 0x40 MLOAD PUSH2 0xAB3 SWAP3 SWAP2 SWAP1 PUSH2 0x3A39 JUMP JUMPDEST PUSH1 0x40 MLOAD DUP1 SWAP2 SUB SWAP1 LOG1 POP POP JUMP JUMPDEST PUSH1 0x2 PUSH0 SWAP1 SLOAD SWAP1 PUSH2 0x100 EXP SWAP1 DIV PUSH20 0xFFFFFFFFFFFFFFFFFFFFFFFFFFFFFFFFFFFFFFFF AND PUSH20 0xFFFFFFFFFFFFFFFFFFFFFFFFFFFFFFFFFFFFFFFF AND PUSH4 0x91D14854 PUSH32 0xA49807205CE4D355092EF5A8A18F56E8913CF4A201FBE287825B095693C21775 CALLER PUSH1 0x40 MLOAD DUP4 PUSH4 0xFFFFFFFF AND PUSH1 0xE0 SHL DUP2 MSTORE PUSH1 0x4 ADD PUSH2 0xB3B SWAP3 SWAP2 SWAP1 PUSH2 0x38ED JUMP JUMPDEST PUSH1 0x20 PUSH1 0x40 MLOAD DUP1 DUP4 SUB DUP2 DUP7 GAS STATICCALL ISZERO DUP1 ISZERO PUSH2 0xB56 JUMPI RETURNDATASIZE PUSH0 PUSH0 RETURNDATACOPY RETURNDATASIZE PUSH0 REVERT JUMPDEST POP POP POP POP PUSH1 0x40 MLOAD RETURNDATASIZE PUSH1 0x1F NOT PUSH1 0x1F DUP3 ADD AND DUP3 ADD DUP1 PUSH1 0x40 MSTORE POP DUP2 ADD SWAP1 PUSH2 0xB7A SWAP2 SWAP1 PUSH2 0x393E JUMP JUMPDEST DUP1 PUSH2 0xC3C JUMPI POP PUSH1 0x2 PUSH0 SWAP1 SLOAD SWAP1 PUSH2 0x100 EXP SWAP1 DIV PUSH20 0xFFFFFFFFFFFFFFFFFFFFFFFFFFFFFFFFFFFFFFFF AND PUSH20 0xFFFFFFFFFFFFFFFFFFFFFFFFFFFFFFFFFFFFFFFF AND PUSH4 0x91D14854 PUSH32 0x940D6B1946FF1D2B5A9F1909219C3C81A370804B5BA0F91EC0828C99A2E6A681 CALLER PUSH1 0x40 MLOAD DUP4 PUSH4 0xFFFFFFFF AND PUSH1 0xE0 SHL DUP2 MSTORE PUSH1 0x4 ADD PUSH2 0xBFC SWAP3 SWAP2 SWAP1 PUSH2 0x38ED JUMP JUMPDEST PUSH1 0x20 PUSH1 0x40 MLOAD DUP1 DUP4 SUB DUP2 DUP7 GAS STATICCALL ISZERO DUP1 ISZERO PUSH2 0xC17 JUMPI RETURNDATASIZE PUSH0 PUSH0 RETURNDATACOPY RETURNDATASIZE PUSH0 REVERT JUMPDEST POP POP POP POP PUSH1 0x40 MLOAD RETURNDATASIZE PUSH1 0x1F NOT PUSH1 0x1F DUP3 ADD AND DUP3 ADD DUP1 PUSH1 0x40 MSTORE POP DUP2 ADD SWAP1 PUSH2 0xC3B SWAP2 SWAP1 PUSH2 0x393E JUMP JUMPDEST JUMPDEST PUSH2 0xC7B JUMPI PUSH1 0x40 MLOAD PUSH32 0x8C379A000000000000000000000000000000000000000000000000000000000 DUP2 MSTORE PUSH1 0x4 ADD PUSH2 0xC72 SWAP1 PUSH2 0x39B3 JUMP JUMPDEST PUSH1 0x40 MLOAD DUP1 SWAP2 SUB SWAP1 REVERT JUMPDEST PUSH2 0xC83 PUSH2 0x2946 JUMP JUMPDEST PUSH0 PUSH20 0xFFFFFFFFFFFFFFFFFFFFFFFFFFFFFFFFFFFFFFFF AND DUP3 PUSH20 0xFFFFFFFFFFFFFFFFFFFFFFFFFFFFFFFFFFFFFFFF AND SUB PUSH2 0xCF1 JUMPI PUSH1 0x40 MLOAD PUSH32 0x8C379A000000000000000000000000000000000000000000000000000000000 DUP2 MSTORE PUSH1 0x4 ADD PUSH2 0xCE8 SWAP1 PUSH2 0x3AAA JUMP JUMPDEST PUSH1 0x40 MLOAD DUP1 SWAP2 SUB SWAP1 REVERT JUMPDEST PUSH0 DUP2 GT PUSH2 0xD33 JUMPI PUSH1 0x40 MLOAD PUSH32 0x8C379A000000000000000000000000000000000000000000000000000000000 DUP2 MSTORE PUSH1 0x4 ADD PUSH2 0xD2A SWAP1 PUSH2 0x3B12 JUMP JUMPDEST PUSH1 0x40 MLOAD DUP1 SWAP2 SUB SWAP1 REVERT JUMPDEST DUP1 PUSH1 0x4 PUSH0 DUP6 PUSH20 0xFFFFFFFFFFFFFFFFFFFFFFFFFFFFFFFFFFFFFFFF AND PUSH20 0xFFFFFFFFFFFFFFFFFFFFFFFFFFFFFFFFFFFFFFFF AND DUP2 MSTORE PUSH1 0x20 ADD SWAP1 DUP2 MSTORE PUSH1 0x20 ADD PUSH0 KECCAK256 PUSH1 0x3 ADD SLOAD LT ISZERO PUSH2 0xDB6 JUMPI PUSH1 0x40 MLOAD PUSH32 0x8C379A000000000000000000000000000000000000000000000000000000000 DUP2 MSTORE PUSH1 0x4 ADD PUSH2 0xDAD SWAP1 PUSH2 0x3B7A JUMP JUMPDEST PUSH1 0x40 MLOAD DUP1 SWAP2 SUB SWAP1 REVERT JUMPDEST PUSH0 DUP2 PUSH1 0x4 PUSH0 DUP7 PUSH20 0xFFFFFFFFFFFFFFFFFFFFFFFFFFFFFFFFFFFFFFFF AND PUSH20 0xFFFFFFFFFFFFFFFFFFFFFFFFFFFFFFFFFFFFFFFF AND DUP2 MSTORE PUSH1 0x20 ADD SWAP1 DUP2 MSTORE PUSH1 0x20 ADD PUSH0 KECCAK256 PUSH1 0x3 ADD SLOAD PUSH2 0xE03 SWAP2 SWAP1 PUSH2 0x3B98 JUMP JUMPDEST SWAP1 POP PUSH0 PUSH1 0x64 PUSH1 0x6 SLOAD PUSH1 0x4 PUSH0 DUP9 PUSH20 0xFFFFFFFFFFFFFFFFFFFFFFFFFFFFFFFFFFFFFFFF AND PUSH20 0xFFFFFFFFFFFFFFFFFFFFFFFFFFFFFFFFFFFFFFFF AND DUP2 MSTORE PUSH1 0x20 ADD SWAP1 DUP2 MSTORE PUSH1 0x20 ADD PUSH0 KECCAK256 PUSH1 0x3 ADD SLOAD PUSH2 0xE56 SWAP2 SWAP1 PUSH2 0x3BCB JUMP JUMPDEST PUSH2 0xE60 SWAP2 SWAP1 PUSH2 0x3C39 JUMP JUMPDEST SWAP1 POP DUP1 DUP3 LT ISZERO PUSH2 0xEA5 JUMPI PUSH1 0x40 MLOAD PUSH32 0x8C379A000000000000000000000000000000000000000000000000000000000 DUP2 MSTORE PUSH1 0x4 ADD PUSH2 0xE9C SWAP1 PUSH2 0x3CD9 JUMP JUMPDEST PUSH1 0x40 MLOAD DUP1 SWAP2 SUB SWAP1 REVERT JUMPDEST DUP3 PUSH1 0x4 PUSH0 DUP8 PUSH20 0xFFFFFFFFFFFFFFFFFFFFFFFFFFFFFFFFFFFFFFFF AND PUSH20 0xFFFFFFFFFFFFFFFFFFFFFFFFFFFFFFFFFFFFFFFF AND DUP2 MSTORE PUSH1 0x20 ADD SWAP1 DUP2 MSTORE PUSH1 0x20 ADD PUSH0 KECCAK256 PUSH1 0x3 ADD PUSH0 DUP3 DUP3 SLOAD PUSH2 0xEF4 SWAP2 SWAP1 PUSH2 0x3B98 JUMP JUMPDEST SWAP3 POP POP DUP2 SWAP1 SSTORE POP PUSH0 PUSH20 0xFFFFFFFFFFFFFFFFFFFFFFFFFFFFFFFFFFFFFFFF AND DUP6 PUSH20 0xFFFFFFFFFFFFFFFFFFFFFFFFFFFFFFFFFFFFFFFF AND SUB PUSH2 0xF77 JUMPI DUP4 PUSH20 0xFFFFFFFFFFFFFFFFFFFFFFFFFFFFFFFFFFFFFFFF AND PUSH2 0x8FC DUP5 SWAP1 DUP2 ISZERO MUL SWAP1 PUSH1 0x40 MLOAD PUSH0 PUSH1 0x40 MLOAD DUP1 DUP4 SUB DUP2 DUP6 DUP9 DUP9 CALL SWAP4 POP POP POP POP ISZERO DUP1 ISZERO PUSH2 0xF71 JUMPI RETURNDATASIZE PUSH0 PUSH0 RETURNDATACOPY RETURNDATASIZE PUSH0 REVERT JUMPDEST POP PUSH2 0xFA3 JUMP JUMPDEST PUSH2 0xFA2 DUP5 DUP5 DUP8 PUSH20 0xFFFFFFFFFFFFFFFFFFFFFFFFFFFFFFFFFFFFFFFF AND PUSH2 0x2995 SWAP1 SWAP3 SWAP2 SWAP1 PUSH4 0xFFFFFFFF AND JUMP JUMPDEST JUMPDEST DUP4 PUSH20 0xFFFFFFFFFFFFFFFFFFFFFFFFFFFFFFFFFFFFFFFF AND DUP6 PUSH20 0xFFFFFFFFFFFFFFFFFFFFFFFFFFFFFFFFFFFFFFFF AND PUSH32 0xE9171AEFF46C37AB955B8AFF908E14AE9732BD06634FA131226CFE5C25BFD2FB DUP6 PUSH1 0x40 MLOAD PUSH2 0x1000 SWAP2 SWAP1 PUSH2 0x31B2 JUMP JUMPDEST PUSH1 0x40 MLOAD DUP1 SWAP2 SUB SWAP1 LOG3 POP POP PUSH2 0x1012 PUSH2 0x2A14 JUMP JUMPDEST POP POP POP JUMP JUMPDEST PUSH0 PUSH0 PUSH20 0xFFFFFFFFFFFFFFFFFFFFFFFFFFFFFFFFFFFFFFFF AND DUP5 PUSH20 0xFFFFFFFFFFFFFFFFFFFFFFFFFFFFFFFFFFFFFFFF AND SUB PUSH2 0x1055 JUMPI PUSH2 0x5208 SWAP1 POP PUSH2 0x105B JUMP JUMPDEST PUSH2 0xFDE8 SWAP1 POP JUMPDEST SWAP4 SWAP3 POP POP POP JUMP JUMPDEST PUSH0 PUSH1 0x3 DUP1 SLOAD SWAP1 POP SWAP1 POP SWAP1 JUMP JUMPDEST PUSH2 0x1076 PUSH2 0x30EE JUMP JUMPDEST PUSH1 0x4 PUSH0 DUP4 PUSH20 0xFFFFFFFFFFFFFFFFFFFFFFFFFFFFFFFFFFFFFFFF AND PUSH20 0xFFFFFFFFFFFFFFFFFFFFFFFFFFFFFFFFFFFFFFFF AND DUP2 MSTORE PUSH1 0x20 ADD SWAP1 DUP2 MSTORE PUSH1 0x20 ADD PUSH0 KECCAK256 PUSH1 0x40 MLOAD DUP1 PUSH1 0xC0 ADD PUSH1 0x40 MSTORE SWAP1 DUP2 PUSH0 DUP3 ADD PUSH0 SWAP1 SLOAD SWAP1 PUSH2 0x100 EXP SWAP1 DIV PUSH20 0xFFFFFFFFFFFFFFFFFFFFFFFFFFFFFFFFFFFFFFFF AND PUSH20 0xFFFFFFFFFFFFFFFFFFFFFFFFFFFFFFFFFFFFFFFF AND PUSH20 0xFFFFFFFFFFFFFFFFFFFFFFFFFFFFFFFFFFFFFFFF AND DUP2 MSTORE PUSH1 0x20 ADD PUSH1 0x1 DUP3 ADD DUP1 SLOAD PUSH2 0x1122 SWAP1 PUSH2 0x3D24 JUMP JUMPDEST DUP1 PUSH1 0x1F ADD PUSH1 0x20 DUP1 SWAP2 DIV MUL PUSH1 0x20 ADD PUSH1 0x40 MLOAD SWAP1 DUP2 ADD PUSH1 0x40 MSTORE DUP1 SWAP3 SWAP2 SWAP1 DUP2 DUP2 MSTORE PUSH1 0x20 ADD DUP3 DUP1 SLOAD PUSH2 0x114E SWAP1 PUSH2 0x3D24 JUMP JUMPDEST DUP1 ISZERO PUSH2 0x1199 JUMPI DUP1 PUSH1 0x1F LT PUSH2 0x1170 JUMPI PUSH2 0x100 DUP1 DUP4 SLOAD DIV MUL DUP4 MSTORE SWAP2 PUSH1 0x20 ADD SWAP2 PUSH2 0x1199 JUMP JUMPDEST DUP3 ADD SWAP2 SWAP1 PUSH0 MSTORE PUSH1 0x20 PUSH0 KECCAK256 SWAP1 JUMPDEST DUP2 SLOAD DUP2 MSTORE SWAP1 PUSH1 0x1 ADD SWAP1 PUSH1 0x20 ADD DUP1 DUP4 GT PUSH2 0x117C JUMPI DUP3 SWAP1 SUB PUSH1 0x1F AND DUP3 ADD SWAP2 JUMPDEST POP POP POP POP POP DUP2 MSTORE PUSH1 0x20 ADD PUSH1 0x2 DUP3 ADD PUSH0 SWAP1 SLOAD SWAP1 PUSH2 0x100 EXP SWAP1 DIV PUSH1 0xFF AND PUSH1 0xFF AND PUSH1 0xFF AND DUP2 MSTORE PUSH1 0x20 ADD PUSH1 0x2 DUP3 ADD PUSH1 0x1 SWAP1 SLOAD SWAP1 PUSH2 0x100 EXP SWAP1 DIV PUSH1 0xFF AND ISZERO ISZERO ISZERO ISZERO DUP2 MSTORE PUSH1 0x20 ADD PUSH1 0x3 DUP3 ADD SLOAD DUP2 MSTORE PUSH1 0x20 ADD PUSH1 0x4 DUP3 ADD SLOAD DUP2 MSTORE POP POP SWAP1 POP SWAP2 SWAP1 POP JUMP JUMPDEST PUSH0 PUSH0 PUSH0 DUP4 DUP2 MSTORE PUSH1 0x20 ADD SWAP1 DUP2 MSTORE PUSH1 0x20 ADD PUSH0 KECCAK256 PUSH1 0x1 ADD SLOAD SWAP1 POP SWAP2 SWAP1 POP JUMP JUMPDEST PUSH0 PUSH0 PUSH0 PUSH1 0x4 PUSH0 DUP7 PUSH20 0xFFFFFFFFFFFFFFFFFFFFFFFFFFFFFFFFFFFFFFFF AND PUSH20 0xFFFFFFFFFFFFFFFFFFFFFFFFFFFFFFFFFFFFFFFF AND DUP2 MSTORE PUSH1 0x20 ADD SWAP1 DUP2 MSTORE PUSH1 0x20 ADD PUSH0 KECCAK256 PUSH1 0x3 ADD SLOAD SWAP2 POP DUP4 DUP3 LT ISZERO SWAP3 POP DUP3 PUSH2 0x1272 JUMPI DUP2 DUP5 PUSH2 0x126D SWAP2 SWAP1 PUSH2 0x3B98 JUMP JUMPDEST PUSH2 0x1274 JUMP JUMPDEST PUSH0 JUMPDEST SWAP1 POP SWAP3 POP SWAP3 POP SWAP3 JUMP JUMPDEST PUSH2 0x1286 DUP3 PUSH2 0x11F4 JUMP JUMPDEST PUSH2 0x128F DUP2 PUSH2 0x2A1D JUMP JUMPDEST PUSH2 0x1299 DUP4 DUP4 PUSH2 0x2A31 JUMP JUMPDEST POP POP POP POP JUMP JUMPDEST ADDRESS PUSH20 0xFFFFFFFFFFFFFFFFFFFFFFFFFFFFFFFFFFFFFFFF AND CALLER PUSH20 0xFFFFFFFFFFFFFFFFFFFFFFFFFFFFFFFFFFFFFFFF AND EQ PUSH2 0x130D JUMPI PUSH1 0x40 MLOAD PUSH32 0x8C379A000000000000000000000000000000000000000000000000000000000 DUP2 MSTORE PUSH1 0x4 ADD PUSH2 0x1304 SWAP1 PUSH2 0x3D9E JUMP JUMPDEST PUSH1 0x40 MLOAD DUP1 SWAP2 SUB SWAP1 REVERT JUMPDEST PUSH0 PUSH20 0xFFFFFFFFFFFFFFFFFFFFFFFFFFFFFFFFFFFFFFFF AND DUP4 PUSH20 0xFFFFFFFFFFFFFFFFFFFFFFFFFFFFFFFFFFFFFFFF AND SUB PUSH2 0x1389 JUMPI DUP2 PUSH20 0xFFFFFFFFFFFFFFFFFFFFFFFFFFFFFFFFFFFFFFFF AND PUSH2 0x8FC DUP3 SWAP1 DUP2 ISZERO MUL SWAP1 PUSH1 0x40 MLOAD PUSH0 PUSH1 0x40 MLOAD DUP1 DUP4 SUB DUP2 DUP6 DUP9 DUP9 CALL SWAP4 POP POP POP POP ISZERO DUP1 ISZERO PUSH2 0x1383 JUMPI RETURNDATASIZE PUSH0 PUSH0 RETURNDATACOPY RETURNDATASIZE PUSH0 REVERT JUMPDEST POP PUSH2 0x13B5 JUMP JUMPDEST PUSH2 0x13B4 DUP3 DUP3 DUP6 PUSH20 0xFFFFFFFFFFFFFFFFFFFFFFFFFFFFFFFFFFFFFFFF AND PUSH2 0x2995 SWAP1 SWAP3 SWAP2 SWAP1 PUSH4 0xFFFFFFFF AND JUMP JUMPDEST JUMPDEST POP POP POP JUMP JUMPDEST PUSH32 0x940D6B1946FF1D2B5A9F1909219C3C81A370804B5BA0F91EC0828C99A2E6A681 DUP2 JUMP JUMPDEST PUSH2 0x13E6 PUSH2 0x2B1A JUMP JUMPDEST PUSH20 0xFFFFFFFFFFFFFFFFFFFFFFFFFFFFFFFFFFFFFFFF AND DUP2 PUSH20 0xFFFFFFFFFFFFFFFFFFFFFFFFFFFFFFFFFFFFFFFF AND EQ PUSH2 0x144A JUMPI PUSH1 0x40 MLOAD PUSH32 0x6697B23200000000000000000000000000000000000000000000000000000000 DUP2 MSTORE PUSH1 0x4 ADD PUSH1 0x40 MLOAD DUP1 SWAP2 SUB SWAP1 REVERT JUMPDEST PUSH2 0x1454 DUP3 DUP3 PUSH2 0x2B21 JUMP JUMPDEST POP POP POP JUMP JUMPDEST PUSH0 PUSH1 0x4 PUSH0 DUP4 PUSH20 0xFFFFFFFFFFFFFFFFFFFFFFFFFFFFFFFFFFFFFFFF AND PUSH20 0xFFFFFFFFFFFFFFFFFFFFFFFFFFFFFFFFFFFFFFFF AND DUP2 MSTORE PUSH1 0x20 ADD SWAP1 DUP2 MSTORE PUSH1 0x20 ADD PUSH0 KECCAK256 PUSH1 0x3 ADD SLOAD SWAP1 POP SWAP2 SWAP1 POP JUMP JUMPDEST PUSH1 0x2 PUSH0 SWAP1 SLOAD SWAP1 PUSH2 0x100 EXP SWAP1 DIV PUSH20 0xFFFFFFFFFFFFFFFFFFFFFFFFFFFFFFFFFFFFFFFF AND PUSH20 0xFFFFFFFFFFFFFFFFFFFFFFFFFFFFFFFFFFFFFFFF AND PUSH4 0x91D14854 PUSH32 0xA49807205CE4D355092EF5A8A18F56E8913CF4A201FBE287825B095693C21775 CALLER PUSH1 0x40 MLOAD DUP4 PUSH4 0xFFFFFFFF AND PUSH1 0xE0 SHL DUP2 MSTORE PUSH1 0x4 ADD PUSH2 0x151E SWAP3 SWAP2 SWAP1 PUSH2 0x38ED JUMP JUMPDEST PUSH1 0x20 PUSH1 0x40 MLOAD DUP1 DUP4 SUB DUP2 DUP7 GAS STATICCALL ISZERO DUP1 ISZERO PUSH2 0x1539 JUMPI RETURNDATASIZE PUSH0 PUSH0 RETURNDATACOPY RETURNDATASIZE PUSH0 REVERT JUMPDEST POP POP POP POP PUSH1 0x40 MLOAD RETURNDATASIZE PUSH1 0x1F NOT PUSH1 0x1F DUP3 ADD AND DUP3 ADD DUP1 PUSH1 0x40 MSTORE POP DUP2 ADD SWAP1 PUSH2 0x155D SWAP2 SWAP1 PUSH2 0x393E JUMP JUMPDEST DUP1 PUSH2 0x161F JUMPI POP PUSH1 0x2 PUSH0 SWAP1 SLOAD SWAP1 PUSH2 0x100 EXP SWAP1 DIV PUSH20 0xFFFFFFFFFFFFFFFFFFFFFFFFFFFFFFFFFFFFFFFF AND PUSH20 0xFFFFFFFFFFFFFFFFFFFFFFFFFFFFFFFFFFFFFFFF AND PUSH4 0x91D14854 PUSH32 0x940D6B1946FF1D2B5A9F1909219C3C81A370804B5BA0F91EC0828C99A2E6A681 CALLER PUSH1 0x40 MLOAD DUP4 PUSH4 0xFFFFFFFF AND PUSH1 0xE0 SHL DUP2 MSTORE PUSH1 0x4 ADD PUSH2 0x15DF SWAP3 SWAP2 SWAP1 PUSH2 0x38ED JUMP JUMPDEST PUSH1 0x20 PUSH1 0x40 MLOAD DUP1 DUP4 SUB DUP2 DUP7 GAS STATICCALL ISZERO DUP1 ISZERO PUSH2 0x15FA JUMPI RETURNDATASIZE PUSH0 PUSH0 RETURNDATACOPY RETURNDATASIZE PUSH0 REVERT JUMPDEST POP POP POP POP PUSH1 0x40 MLOAD RETURNDATASIZE PUSH1 0x1F NOT PUSH1 0x1F DUP3 ADD AND DUP3 ADD DUP1 PUSH1 0x40 MSTORE POP DUP2 ADD SWAP1 PUSH2 0x161E SWAP2 SWAP1 PUSH2 0x393E JUMP JUMPDEST JUMPDEST PUSH2 0x165E JUMPI PUSH1 0x40 MLOAD PUSH32 0x8C379A000000000000000000000000000000000000000000000000000000000 DUP2 MSTORE PUSH1 0x4 ADD PUSH2 0x1655 SWAP1 PUSH2 0x39B3 JUMP JUMPDEST PUSH1 0x40 MLOAD DUP1 SWAP2 SUB SWAP1 REVERT JUMPDEST PUSH0 PUSH20 0xFFFFFFFFFFFFFFFFFFFFFFFFFFFFFFFFFFFFFFFF AND DUP2 PUSH20 0xFFFFFFFFFFFFFFFFFFFFFFFFFFFFFFFFFFFFFFFF AND SUB PUSH2 0x16CC JUMPI PUSH1 0x40 MLOAD PUSH32 0x8C379A000000000000000000000000000000000000000000000000000000000 DUP2 MSTORE PUSH1 0x4 ADD PUSH2 0x16C3 SWAP1 PUSH2 0x3E06 JUMP JUMPDEST PUSH1 0x40 MLOAD DUP1 SWAP2 SUB SWAP1 REVERT JUMPDEST PUSH1 0x5 PUSH0 DUP3 PUSH20 0xFFFFFFFFFFFFFFFFFFFFFFFFFFFFFFFFFFFFFFFF AND PUSH20 0xFFFFFFFFFFFFFFFFFFFFFFFFFFFFFFFFFFFFFFFF AND DUP2 MSTORE PUSH1 0x20 ADD SWAP1 DUP2 MSTORE PUSH1 0x20 ADD PUSH0 KECCAK256 PUSH0 SWAP1 SLOAD SWAP1 PUSH2 0x100 EXP SWAP1 DIV PUSH1 0xFF AND ISZERO PUSH2 0x1756 JUMPI PUSH1 0x40 MLOAD PUSH32 0x8C379A000000000000000000000000000000000000000000000000000000000 DUP2 MSTORE PUSH1 0x4 ADD PUSH2 0x174D SWAP1 PUSH2 0x3E6E JUMP JUMPDEST PUSH1 0x40 MLOAD DUP1 SWAP2 SUB SWAP1 REVERT JUMPDEST PUSH2 0x175F DUP2 PUSH2 0x2C0A JUMP JUMPDEST POP JUMP JUMPDEST PUSH0 PUSH1 0x4 PUSH0 DUP5 PUSH20 0xFFFFFFFFFFFFFFFFFFFFFFFFFFFFFFFFFFFFFFFF AND PUSH20 0xFFFFFFFFFFFFFFFFFFFFFFFFFFFFFFFFFFFFFFFF AND DUP2 MSTORE PUSH1 0x20 ADD SWAP1 DUP2 MSTORE PUSH1 0x20 ADD PUSH0 KECCAK256 PUSH1 0x3 ADD SLOAD SWAP1 POP DUP2 DUP2 LT ISZERO PUSH2 0x17FF JUMPI DUP3 PUSH20 0xFFFFFFFFFFFFFFFFFFFFFFFFFFFFFFFFFFFFFFFF AND PUSH32 0x6AAD3D1975AFE102CC763EBD9287D7F7C164D906EA5C8F0C505DBFA92995BB6D DUP3 DUP5 PUSH1 0x40 MLOAD PUSH2 0x17F6 SWAP3 SWAP2 SWAP1 PUSH2 0x3A39 JUMP JUMPDEST PUSH1 0x40 MLOAD DUP1 SWAP2 SUB SWAP1 LOG2 JUMPDEST POP POP POP JUMP JUMPDEST PUSH1 0x5 PUSH1 0x20 MSTORE DUP1 PUSH0 MSTORE PUSH1 0x40 PUSH0 KECCAK256 PUSH0 SWAP2 POP SLOAD SWAP1 PUSH2 0x100 EXP SWAP1 DIV PUSH1 0xFF AND DUP2 JUMP JUMPDEST PUSH32 0xA49807205CE4D355092EF5A8A18F56E8913CF4A201FBE287825B095693C21775 DUP2 JUMP JUMPDEST PUSH1 0x2 PUSH0 SWAP1 SLOAD SWAP1 PUSH2 0x100 EXP SWAP1 DIV PUSH20 0xFFFFFFFFFFFFFFFFFFFFFFFFFFFFFFFFFFFFFFFF AND PUSH20 0xFFFFFFFFFFFFFFFFFFFFFFFFFFFFFFFFFFFFFFFF AND PUSH4 0x91D14854 PUSH32 0xA49807205CE4D355092EF5A8A18F56E8913CF4A201FBE287825B095693C21775 CALLER PUSH1 0x40 MLOAD DUP4 PUSH4 0xFFFFFFFF AND PUSH1 0xE0 SHL DUP2 MSTORE PUSH1 0x4 ADD PUSH2 0x18C1 SWAP3 SWAP2 SWAP1 PUSH2 0x38ED JUMP JUMPDEST PUSH1 0x20 PUSH1 0x40 MLOAD DUP1 DUP4 SUB DUP2 DUP7 GAS STATICCALL ISZERO DUP1 ISZERO PUSH2 0x18DC JUMPI RETURNDATASIZE PUSH0 PUSH0 RETURNDATACOPY RETURNDATASIZE PUSH0 REVERT JUMPDEST POP POP POP POP PUSH1 0x40 MLOAD RETURNDATASIZE PUSH1 0x1F NOT PUSH1 0x1F DUP3 ADD AND DUP3 ADD DUP1 PUSH1 0x40 MSTORE POP DUP2 ADD SWAP1 PUSH2 0x1900 SWAP2 SWAP1 PUSH2 0x393E JUMP JUMPDEST DUP1 PUSH2 0x19C2 JUMPI POP PUSH1 0x2 PUSH0 SWAP1 SLOAD SWAP1 PUSH2 0x100 EXP SWAP1 DIV PUSH20 0xFFFFFFFFFFFFFFFFFFFFFFFFFFFFFFFFFFFFFFFF AND PUSH20 0xFFFFFFFFFFFFFFFFFFFFFFFFFFFFFFFFFFFFFFFF AND PUSH4 0x91D14854 PUSH32 0x940D6B1946FF1D2B5A9F1909219C3C81A370804B5BA0F91EC0828C99A2E6A681 CALLER PUSH1 0x40 MLOAD DUP4 PUSH4 0xFFFFFFFF AND PUSH1 0xE0 SHL DUP2 MSTORE PUSH1 0x4 ADD PUSH2 0x1982 SWAP3 SWAP2 SWAP1 PUSH2 0x38ED JUMP JUMPDEST PUSH1 0x20 PUSH1 0x40 MLOAD DUP1 DUP4 SUB DUP2 DUP7 GAS STATICCALL ISZERO DUP1 ISZERO PUSH2 0x199D JUMPI RETURNDATASIZE PUSH0 PUSH0 RETURNDATACOPY RETURNDATASIZE PUSH0 REVERT JUMPDEST POP POP POP POP PUSH1 0x40 MLOAD RETURNDATASIZE PUSH1 0x1F NOT PUSH1 0x1F DUP3 ADD AND DUP3 ADD DUP1 PUSH1 0x40 MSTORE POP DUP2 ADD SWAP1 PUSH2 0x19C1 SWAP2 SWAP1 PUSH2 0x393E JUMP JUMPDEST JUMPDEST PUSH2 0x1A01 JUMPI PUSH1 0x40 MLOAD PUSH32 0x8C379A000000000000000000000000000000000000000000000000000000000 DUP2 MSTORE PUSH1 0x4 ADD PUSH2 0x19F8 SWAP1 PUSH2 0x39B3 JUMP JUMPDEST PUSH1 0x40 MLOAD DUP1 SWAP2 SUB SWAP1 REVERT JUMPDEST PUSH0 PUSH20 0xFFFFFFFFFFFFFFFFFFFFFFFFFFFFFFFFFFFFFFFF AND DUP2 PUSH20 0xFFFFFFFFFFFFFFFFFFFFFFFFFFFFFFFFFFFFFFFF AND SUB PUSH2 0x1A6F JUMPI PUSH1 0x40 MLOAD PUSH32 0x8C379A000000000000000000000000000000000000000000000000000000000 DUP2 MSTORE PUSH1 0x4 ADD PUSH2 0x1A66 SWAP1 PUSH2 0x3ED6 JUMP JUMPDEST PUSH1 0x40 MLOAD DUP1 SWAP2 SUB SWAP1 REVERT JUMPDEST PUSH1 0x5 PUSH0 DUP3 PUSH20 0xFFFFFFFFFFFFFFFFFFFFFFFFFFFFFFFFFFFFFFFF AND PUSH20 0xFFFFFFFFFFFFFFFFFFFFFFFFFFFFFFFFFFFFFFFF AND DUP2 MSTORE PUSH1 0x20 ADD SWAP1 DUP2 MSTORE PUSH1 0x20 ADD PUSH0 KECCAK256 PUSH0 SWAP1 SLOAD SWAP1 PUSH2 0x100 EXP SWAP1 DIV PUSH1 0xFF AND PUSH2 0x1AF8 JUMPI PUSH1 0x40 MLOAD PUSH32 0x8C379A000000000000000000000000000000000000000000000000000000000 DUP2 MSTORE PUSH1 0x4 ADD PUSH2 0x1AEF SWAP1 PUSH2 0x3F3E JUMP JUMPDEST PUSH1 0x40 MLOAD DUP1 SWAP2 SUB SWAP1 REVERT JUMPDEST PUSH0 PUSH1 0x4 PUSH0 DUP4 PUSH20 0xFFFFFFFFFFFFFFFFFFFFFFFFFFFFFFFFFFFFFFFF AND PUSH20 0xFFFFFFFFFFFFFFFFFFFFFFFFFFFFFFFFFFFFFFFF AND DUP2 MSTORE PUSH1 0x20 ADD SWAP1 DUP2 MSTORE PUSH1 0x20 ADD PUSH0 KECCAK256 PUSH1 0x3 ADD SLOAD EQ PUSH2 0x1B7A JUMPI PUSH1 0x40 MLOAD PUSH32 0x8C379A000000000000000000000000000000000000000000000000000000000 DUP2 MSTORE PUSH1 0x4 ADD PUSH2 0x1B71 SWAP1 PUSH2 0x3FCC JUMP JUMPDEST PUSH1 0x40 MLOAD DUP1 SWAP2 SUB SWAP1 REVERT JUMPDEST PUSH0 PUSH1 0x5 PUSH0 DUP4 PUSH20 0xFFFFFFFFFFFFFFFFFFFFFFFFFFFFFFFFFFFFFFFF AND PUSH20 0xFFFFFFFFFFFFFFFFFFFFFFFFFFFFFFFFFFFFFFFF AND DUP2 MSTORE PUSH1 0x20 ADD SWAP1 DUP2 MSTORE PUSH1 0x20 ADD PUSH0 KECCAK256 PUSH0 PUSH2 0x100 EXP DUP2 SLOAD DUP2 PUSH1 0xFF MUL NOT AND SWAP1 DUP4 ISZERO ISZERO MUL OR SWAP1 SSTORE POP PUSH0 PUSH1 0x4 PUSH0 DUP4 PUSH20 0xFFFFFFFFFFFFFFFFFFFFFFFFFFFFFFFFFFFFFFFF AND PUSH20 0xFFFFFFFFFFFFFFFFFFFFFFFFFFFFFFFFFFFFFFFF AND DUP2 MSTORE PUSH1 0x20 ADD SWAP1 DUP2 MSTORE PUSH1 0x20 ADD PUSH0 KECCAK256 PUSH1 0x2 ADD PUSH1 0x1 PUSH2 0x100 EXP DUP2 SLOAD DUP2 PUSH1 0xFF MUL NOT AND SWAP1 DUP4 ISZERO ISZERO MUL OR SWAP1 SSTORE POP PUSH0 PUSH0 SWAP1 POP JUMPDEST PUSH1 0x3 DUP1 SLOAD SWAP1 POP DUP2 LT ISZERO PUSH2 0x1DA2 JUMPI DUP2 PUSH20 0xFFFFFFFFFFFFFFFFFFFFFFFFFFFFFFFFFFFFFFFF AND PUSH1 0x3 DUP3 DUP2 SLOAD DUP2 LT PUSH2 0x1C63 JUMPI PUSH2 0x1C62 PUSH2 0x3FEA JUMP JUMPDEST JUMPDEST SWAP1 PUSH0 MSTORE PUSH1 0x20 PUSH0 KECCAK256 ADD PUSH0 SWAP1 SLOAD SWAP1 PUSH2 0x100 EXP SWAP1 DIV PUSH20 0xFFFFFFFFFFFFFFFFFFFFFFFFFFFFFFFFFFFFFFFF AND PUSH20 0xFFFFFFFFFFFFFFFFFFFFFFFFFFFFFFFFFFFFFFFF AND SUB PUSH2 0x1D95 JUMPI PUSH1 0x3 PUSH1 0x1 PUSH1 0x3 DUP1 SLOAD SWAP1 POP PUSH2 0x1CBA SWAP2 SWAP1 PUSH2 0x3B98 JUMP JUMPDEST DUP2 SLOAD DUP2 LT PUSH2 0x1CCB JUMPI PUSH2 0x1CCA PUSH2 0x3FEA JUMP JUMPDEST JUMPDEST SWAP1 PUSH0 MSTORE PUSH1 0x20 PUSH0 KECCAK256 ADD PUSH0 SWAP1 SLOAD SWAP1 PUSH2 0x100 EXP SWAP1 DIV PUSH20 0xFFFFFFFFFFFFFFFFFFFFFFFFFFFFFFFFFFFFFFFF AND PUSH1 0x3 DUP3 DUP2 SLOAD DUP2 LT PUSH2 0x1D07 JUMPI PUSH2 0x1D06 PUSH2 0x3FEA JUMP JUMPDEST JUMPDEST SWAP1 PUSH0 MSTORE PUSH1 0x20 PUSH0 KECCAK256 ADD PUSH0 PUSH2 0x100 EXP DUP2 SLOAD DUP2 PUSH20 0xFFFFFFFFFFFFFFFFFFFFFFFFFFFFFFFFFFFFFFFF MUL NOT AND SWAP1 DUP4 PUSH20 0xFFFFFFFFFFFFFFFFFFFFFFFFFFFFFFFFFFFFFFFF AND MUL OR SWAP1 SSTORE POP PUSH1 0x3 DUP1 SLOAD DUP1 PUSH2 0x1D5E JUMPI PUSH2 0x1D5D PUSH2 0x4017 JUMP JUMPDEST JUMPDEST PUSH1 0x1 SWAP1 SUB DUP2 DUP2 SWAP1 PUSH0 MSTORE PUSH1 0x20 PUSH0 KECCAK256 ADD PUSH0 PUSH2 0x100 EXP DUP2 SLOAD SWAP1 PUSH20 0xFFFFFFFFFFFFFFFFFFFFFFFFFFFFFFFFFFFFFFFF MUL NOT AND SWAP1 SSTORE SWAP1 SSTORE PUSH2 0x1DA2 JUMP JUMPDEST DUP1 DUP1 PUSH1 0x1 ADD SWAP2 POP POP PUSH2 0x1C2B JUMP JUMPDEST POP DUP1 PUSH20 0xFFFFFFFFFFFFFFFFFFFFFFFFFFFFFFFFFFFFFFFF AND PUSH32 0x4C910B69FE65A61F7531B9C5042B2329CA7179C77290AA7E2EB3AFA3C8511FD3 PUSH1 0x40 MLOAD PUSH1 0x40 MLOAD DUP1 SWAP2 SUB SWAP1 LOG2 POP JUMP JUMPDEST PUSH0 PUSH0 PUSH0 DUP5 DUP2 MSTORE PUSH1 0x20 ADD SWAP1 DUP2 MSTORE PUSH1 0x20 ADD PUSH0 KECCAK256 PUSH0 ADD PUSH0 DUP4 PUSH20 0xFFFFFFFFFFFFFFFFFFFFFFFFFFFFFFFFFFFFFFFF AND PUSH20 0xFFFFFFFFFFFFFFFFFFFFFFFFFFFFFFFFFFFFFFFF AND DUP2 MSTORE PUSH1 0x20 ADD SWAP1 DUP2 MSTORE PUSH1 0x20 ADD PUSH0 KECCAK256 PUSH0 SWAP1 SLOAD SWAP1 PUSH2 0x100 EXP SWAP1 DIV PUSH1 0xFF AND SWAP1 POP SWAP3 SWAP2 POP POP JUMP JUMPDEST PUSH1 0x60 DUP1 PUSH1 0x60 PUSH0 PUSH1 0x3 DUP1 SLOAD SWAP1 POP SWAP1 POP DUP1 PUSH8 0xFFFFFFFFFFFFFFFF DUP2 GT ISZERO PUSH2 0x1E74 JUMPI PUSH2 0x1E73 PUSH2 0x4044 JUMP JUMPDEST JUMPDEST PUSH1 0x40 MLOAD SWAP1 DUP1 DUP3 MSTORE DUP1 PUSH1 0x20 MUL PUSH1 0x20 ADD DUP3 ADD PUSH1 0x40 MSTORE DUP1 ISZERO PUSH2 0x1EA2 JUMPI DUP2 PUSH1 0x20 ADD PUSH1 0x20 DUP3 MUL DUP1 CALLDATASIZE DUP4 CALLDATACOPY DUP1 DUP3 ADD SWAP2 POP POP SWAP1 POP JUMPDEST POP SWAP4 POP DUP1 PUSH8 0xFFFFFFFFFFFFFFFF DUP2 GT ISZERO PUSH2 0x1EBF JUMPI PUSH2 0x1EBE PUSH2 0x4044 JUMP JUMPDEST JUMPDEST PUSH1 0x40 MLOAD SWAP1 DUP1 DUP3 MSTORE DUP1 PUSH1 0x20 MUL PUSH1 0x20 ADD DUP3 ADD PUSH1 0x40 MSTORE DUP1 ISZERO PUSH2 0x1EED JUMPI DUP2 PUSH1 0x20 ADD PUSH1 0x20 DUP3 MUL DUP1 CALLDATASIZE DUP4 CALLDATACOPY DUP1 DUP3 ADD SWAP2 POP POP SWAP1 POP JUMPDEST POP SWAP3 POP DUP1 PUSH8 0xFFFFFFFFFFFFFFFF DUP2 GT ISZERO PUSH2 0x1F0A JUMPI PUSH2 0x1F09 PUSH2 0x4044 JUMP JUMPDEST JUMPDEST PUSH1 0x40 MLOAD SWAP1 DUP1 DUP3 MSTORE DUP1 PUSH1 0x20 MUL PUSH1 0x20 ADD DUP3 ADD PUSH1 0x40 MSTORE DUP1 ISZERO PUSH2 0x1F38 JUMPI DUP2 PUSH1 0x20 ADD PUSH1 0x20 DUP3 MUL DUP1 CALLDATASIZE DUP4 CALLDATACOPY DUP1 DUP3 ADD SWAP2 POP POP SWAP1 POP JUMPDEST POP SWAP2 POP PUSH0 PUSH0 SWAP1 POP JUMPDEST DUP2 DUP2 LT ISZERO PUSH2 0x20CC JUMPI PUSH1 0x3 DUP2 DUP2 SLOAD DUP2 LT PUSH2 0x1F5C JUMPI PUSH2 0x1F5B PUSH2 0x3FEA JUMP JUMPDEST JUMPDEST SWAP1 PUSH0 MSTORE PUSH1 0x20 PUSH0 KECCAK256 ADD PUSH0 SWAP1 SLOAD SWAP1 PUSH2 0x100 EXP SWAP1 DIV PUSH20 0xFFFFFFFFFFFFFFFFFFFFFFFFFFFFFFFFFFFFFFFF AND DUP6 DUP3 DUP2 MLOAD DUP2 LT PUSH2 0x1F97 JUMPI PUSH2 0x1F96 PUSH2 0x3FEA JUMP JUMPDEST JUMPDEST PUSH1 0x20 MUL PUSH1 0x20 ADD ADD SWAP1 PUSH20 0xFFFFFFFFFFFFFFFFFFFFFFFFFFFFFFFFFFFFFFFF AND SWAP1 DUP2 PUSH20 0xFFFFFFFFFFFFFFFFFFFFFFFFFFFFFFFFFFFFFFFF AND DUP2 MSTORE POP POP PUSH1 0x4 PUSH0 PUSH1 0x3 DUP4 DUP2 SLOAD DUP2 LT PUSH2 0x1FE8 JUMPI PUSH2 0x1FE7 PUSH2 0x3FEA JUMP JUMPDEST JUMPDEST SWAP1 PUSH0 MSTORE PUSH1 0x20 PUSH0 KECCAK256 ADD PUSH0 SWAP1 SLOAD SWAP1 PUSH2 0x100 EXP SWAP1 DIV PUSH20 0xFFFFFFFFFFFFFFFFFFFFFFFFFFFFFFFFFFFFFFFF AND PUSH20 0xFFFFFFFFFFFFFFFFFFFFFFFFFFFFFFFFFFFFFFFF AND PUSH20 0xFFFFFFFFFFFFFFFFFFFFFFFFFFFFFFFFFFFFFFFF AND DUP2 MSTORE PUSH1 0x20 ADD SWAP1 DUP2 MSTORE PUSH1 0x20 ADD PUSH0 KECCAK256 PUSH1 0x3 ADD SLOAD DUP5 DUP3 DUP2 MLOAD DUP2 LT PUSH2 0x2060 JUMPI PUSH2 0x205F PUSH2 0x3FEA JUMP JUMPDEST JUMPDEST PUSH1 0x20 MUL PUSH1 0x20 ADD ADD DUP2 DUP2 MSTORE POP POP PUSH1 0x64 PUSH1 0x6 SLOAD DUP6 DUP4 DUP2 MLOAD DUP2 LT PUSH2 0x2084 JUMPI PUSH2 0x2083 PUSH2 0x3FEA JUMP JUMPDEST JUMPDEST PUSH1 0x20 MUL PUSH1 0x20 ADD ADD MLOAD PUSH2 0x2096 SWAP2 SWAP1 PUSH2 0x3BCB JUMP JUMPDEST PUSH2 0x20A0 SWAP2 SWAP1 PUSH2 0x3C39 JUMP JUMPDEST DUP4 DUP3 DUP2 MLOAD DUP2 LT PUSH2 0x20B3 JUMPI PUSH2 0x20B2 PUSH2 0x3FEA JUMP JUMPDEST JUMPDEST PUSH1 0x20 MUL PUSH1 0x20 ADD ADD DUP2 DUP2 MSTORE POP POP DUP1 DUP1 PUSH1 0x1 ADD SWAP2 POP POP PUSH2 0x1F40 JUMP JUMPDEST POP POP SWAP1 SWAP2 SWAP3 JUMP JUMPDEST PUSH1 0x2 PUSH0 SWAP1 SLOAD SWAP1 PUSH2 0x100 EXP SWAP1 DIV PUSH20 0xFFFFFFFFFFFFFFFFFFFFFFFFFFFFFFFFFFFFFFFF AND DUP2 JUMP JUMPDEST PUSH0 PUSH0 SHL DUP2 JUMP JUMPDEST PUSH1 0x2 PUSH0 SWAP1 SLOAD SWAP1 PUSH2 0x100 EXP SWAP1 DIV PUSH20 0xFFFFFFFFFFFFFFFFFFFFFFFFFFFFFFFFFFFFFFFF AND PUSH20 0xFFFFFFFFFFFFFFFFFFFFFFFFFFFFFFFFFFFFFFFF AND CALLER PUSH20 0xFFFFFFFFFFFFFFFFFFFFFFFFFFFFFFFFFFFFFFFF AND EQ PUSH2 0x218D JUMPI PUSH1 0x40 MLOAD PUSH32 0x8C379A000000000000000000000000000000000000000000000000000000000 DUP2 MSTORE PUSH1 0x4 ADD PUSH2 0x2184 SWAP1 PUSH2 0x40BB JUMP JUMPDEST PUSH1 0x40 MLOAD DUP1 SWAP2 SUB SWAP1 REVERT JUMPDEST PUSH2 0x2195 PUSH2 0x2946 JUMP JUMPDEST PUSH0 PUSH20 0xFFFFFFFFFFFFFFFFFFFFFFFFFFFFFFFFFFFFFFFF AND DUP3 PUSH20 0xFFFFFFFFFFFFFFFFFFFFFFFFFFFFFFFFFFFFFFFF AND SUB PUSH2 0x22CA JUMPI PUSH0 CALLVALUE GT PUSH2 0x220A JUMPI PUSH1 0x40 MLOAD PUSH32 0x8C379A000000000000000000000000000000000000000000000000000000000 DUP2 MSTORE PUSH1 0x4 ADD PUSH2 0x2201 SWAP1 PUSH2 0x4123 JUMP JUMPDEST PUSH1 0x40 MLOAD DUP1 SWAP2 SUB SWAP1 REVERT JUMPDEST CALLVALUE PUSH1 0x4 PUSH0 PUSH0 PUSH20 0xFFFFFFFFFFFFFFFFFFFFFFFFFFFFFFFFFFFFFFFF AND PUSH20 0xFFFFFFFFFFFFFFFFFFFFFFFFFFFFFFFFFFFFFFFF AND DUP2 MSTORE PUSH1 0x20 ADD SWAP1 DUP2 MSTORE PUSH1 0x20 ADD PUSH0 KECCAK256 PUSH1 0x3 ADD PUSH0 DUP3 DUP3 SLOAD PUSH2 0x2259 SWAP2 SWAP1 PUSH2 0x3170 JUMP JUMPDEST SWAP3 POP POP DUP2 SWAP1 SSTORE POP ORIGIN PUSH20 0xFFFFFFFFFFFFFFFFFFFFFFFFFFFFFFFFFFFFFFFF AND PUSH0 PUSH20 0xFFFFFFFFFFFFFFFFFFFFFFFFFFFFFFFFFFFFFFFF AND PUSH32 0x30F1CC05E02CAB00B43711C7C16DF2558139122D0FEEA37E4977A748E013A5AA CALLVALUE PUSH1 0x40 MLOAD PUSH2 0x22BD SWAP2 SWAP1 PUSH2 0x31B2 JUMP JUMPDEST PUSH1 0x40 MLOAD DUP1 SWAP2 SUB SWAP1 LOG3 PUSH2 0x247E JUMP JUMPDEST PUSH1 0x5 PUSH0 DUP4 PUSH20 0xFFFFFFFFFFFFFFFFFFFFFFFFFFFFFFFFFFFFFFFF AND PUSH20 0xFFFFFFFFFFFFFFFFFFFFFFFFFFFFFFFFFFFFFFFF AND DUP2 MSTORE PUSH1 0x20 ADD SWAP1 DUP2 MSTORE PUSH1 0x20 ADD PUSH0 KECCAK256 PUSH0 SWAP1 SLOAD SWAP1 PUSH2 0x100 EXP SWAP1 DIV PUSH1 0xFF AND PUSH2 0x2353 JUMPI PUSH1 0x40 MLOAD PUSH32 0x8C379A000000000000000000000000000000000000000000000000000000000 DUP2 MSTORE PUSH1 0x4 ADD PUSH2 0x234A SWAP1 PUSH2 0x3F3E JUMP JUMPDEST PUSH1 0x40 MLOAD DUP1 SWAP2 SUB SWAP1 REVERT JUMPDEST PUSH0 DUP2 GT PUSH2 0x2395 JUMPI PUSH1 0x40 MLOAD PUSH32 0x8C379A000000000000000000000000000000000000000000000000000000000 DUP2 MSTORE PUSH1 0x4 ADD PUSH2 0x238C SWAP1 PUSH2 0x3B12 JUMP JUMPDEST PUSH1 0x40 MLOAD DUP1 SWAP2 SUB SWAP1 REVERT JUMPDEST PUSH2 0x23C2 ORIGIN ADDRESS DUP4 DUP6 PUSH20 0xFFFFFFFFFFFFFFFFFFFFFFFFFFFFFFFFFFFFFFFF AND PUSH2 0x2D3F SWAP1 SWAP4 SWAP3 SWAP2 SWAP1 PUSH4 0xFFFFFFFF AND JUMP JUMPDEST DUP1 PUSH1 0x4 PUSH0 DUP5 PUSH20 0xFFFFFFFFFFFFFFFFFFFFFFFFFFFFFFFFFFFFFFFF AND PUSH20 0xFFFFFFFFFFFFFFFFFFFFFFFFFFFFFFFFFFFFFFFF AND DUP2 MSTORE PUSH1 0x20 ADD SWAP1 DUP2 MSTORE PUSH1 0x20 ADD PUSH0 KECCAK256 PUSH1 0x3 ADD PUSH0 DUP3 DUP3 SLOAD PUSH2 0x2411 SWAP2 SWAP1 PUSH2 0x3170 JUMP JUMPDEST SWAP3 POP POP DUP2 SWAP1 SSTORE POP ORIGIN PUSH20 0xFFFFFFFFFFFFFFFFFFFFFFFFFFFFFFFFFFFFFFFF AND DUP3 PUSH20 0xFFFFFFFFFFFFFFFFFFFFFFFFFFFFFFFFFFFFFFFF AND PUSH32 0x30F1CC05E02CAB00B43711C7C16DF2558139122D0FEEA37E4977A748E013A5AA DUP4 PUSH1 0x40 MLOAD PUSH2 0x2475 SWAP2 SWAP1 PUSH2 0x31B2 JUMP JUMPDEST PUSH1 0x40 MLOAD DUP1 SWAP2 SUB SWAP1 LOG3 JUMPDEST PUSH2 0x2486 PUSH2 0x2A14 JUMP JUMPDEST POP POP JUMP JUMPDEST PUSH1 0x3 DUP2 DUP2 SLOAD DUP2 LT PUSH2 0x2499 JUMPI PUSH0 DUP1 REVERT JUMPDEST SWAP1 PUSH0 MSTORE PUSH1 0x20 PUSH0 KECCAK256 ADD PUSH0 SWAP2 POP SLOAD SWAP1 PUSH2 0x100 EXP SWAP1 DIV PUSH20 0xFFFFFFFFFFFFFFFFFFFFFFFFFFFFFFFFFFFFFFFF AND DUP2 JUMP JUMPDEST PUSH0 PUSH1 0x2 PUSH0 SWAP1 SLOAD SWAP1 PUSH2 0x100 EXP SWAP1 DIV PUSH20 0xFFFFFFFFFFFFFFFFFFFFFFFFFFFFFFFFFFFFFFFF AND PUSH20 0xFFFFFFFFFFFFFFFFFFFFFFFFFFFFFFFFFFFFFFFF AND CALLER PUSH20 0xFFFFFFFFFFFFFFFFFFFFFFFFFFFFFFFFFFFFFFFF AND EQ PUSH2 0x2555 JUMPI PUSH1 0x40 MLOAD PUSH32 0x8C379A000000000000000000000000000000000000000000000000000000000 DUP2 MSTORE PUSH1 0x4 ADD PUSH2 0x254C SWAP1 PUSH2 0x40BB JUMP JUMPDEST PUSH1 0x40 MLOAD DUP1 SWAP2 SUB SWAP1 REVERT JUMPDEST PUSH2 0x255D PUSH2 0x2946 JUMP JUMPDEST PUSH1 0x5 PUSH0 DUP6 PUSH20 0xFFFFFFFFFFFFFFFFFFFFFFFFFFFFFFFFFFFFFFFF AND PUSH20 0xFFFFFFFFFFFFFFFFFFFFFFFFFFFFFFFFFFFFFFFF AND DUP2 MSTORE PUSH1 0x20 ADD SWAP1 DUP2 MSTORE PUSH1 0x20 ADD PUSH0 KECCAK256 PUSH0 SWAP1 SLOAD SWAP1 PUSH2 0x100 EXP SWAP1 DIV PUSH1 0xFF AND PUSH2 0x25B3 JUMPI PUSH0 SWAP1 POP PUSH2 0x2725 JUMP JUMPDEST DUP2 PUSH1 0x4 PUSH0 DUP7 PUSH20 0xFFFFFFFFFFFFFFFFFFFFFFFFFFFFFFFFFFFFFFFF AND PUSH20 0xFFFFFFFFFFFFFFFFFFFFFFFFFFFFFFFFFFFFFFFF AND DUP2 MSTORE PUSH1 0x20 ADD SWAP1 DUP2 MSTORE PUSH1 0x20 ADD PUSH0 KECCAK256 PUSH1 0x3 ADD SLOAD LT ISZERO PUSH2 0x2603 JUMPI PUSH0 SWAP1 POP PUSH2 0x2725 JUMP JUMPDEST DUP2 PUSH1 0x4 PUSH0 DUP7 PUSH20 0xFFFFFFFFFFFFFFFFFFFFFFFFFFFFFFFFFFFFFFFF AND PUSH20 0xFFFFFFFFFFFFFFFFFFFFFFFFFFFFFFFFFFFFFFFF AND DUP2 MSTORE PUSH1 0x20 ADD SWAP1 DUP2 MSTORE PUSH1 0x20 ADD PUSH0 KECCAK256 PUSH1 0x3 ADD PUSH0 DUP3 DUP3 SLOAD PUSH2 0x2652 SWAP2 SWAP1 PUSH2 0x3B98 JUMP JUMPDEST SWAP3 POP POP DUP2 SWAP1 SSTORE POP ADDRESS PUSH20 0xFFFFFFFFFFFFFFFFFFFFFFFFFFFFFFFFFFFFFFFF AND PUSH4 0x33A738C9 DUP6 DUP6 DUP6 PUSH1 0x40 MLOAD DUP5 PUSH4 0xFFFFFFFF AND PUSH1 0xE0 SHL DUP2 MSTORE PUSH1 0x4 ADD PUSH2 0x2696 SWAP4 SWAP3 SWAP2 SWAP1 PUSH2 0x4141 JUMP JUMPDEST PUSH0 PUSH1 0x40 MLOAD DUP1 DUP4 SUB DUP2 PUSH0 DUP8 DUP1 EXTCODESIZE ISZERO DUP1 ISZERO PUSH2 0x26AD JUMPI PUSH0 PUSH0 REVERT JUMPDEST POP GAS CALL SWAP3 POP POP POP DUP1 ISZERO PUSH2 0x26BE JUMPI POP PUSH1 0x1 JUMPDEST PUSH2 0x2720 JUMPI DUP2 PUSH1 0x4 PUSH0 DUP7 PUSH20 0xFFFFFFFFFFFFFFFFFFFFFFFFFFFFFFFFFFFFFFFF AND PUSH20 0xFFFFFFFFFFFFFFFFFFFFFFFFFFFFFFFFFFFFFFFF AND DUP2 MSTORE PUSH1 0x20 ADD SWAP1 DUP2 MSTORE PUSH1 0x20 ADD PUSH0 KECCAK256 PUSH1 0x3 ADD PUSH0 DUP3 DUP3 SLOAD PUSH2 0x2711 SWAP2 SWAP1 PUSH2 0x3170 JUMP JUMPDEST SWAP3 POP POP DUP2 SWAP1 SSTORE POP PUSH0 SWAP1 POP PUSH2 0x2725 JUMP JUMPDEST PUSH1 0x1 SWAP1 POP JUMPDEST PUSH2 0x272D PUSH2 0x2A14 JUMP JUMPDEST SWAP4 SWAP3 POP POP POP JUMP JUMPDEST PUSH1 0x60 PUSH1 0x3 DUP1 SLOAD DUP1 PUSH1 0x20 MUL PUSH1 0x20 ADD PUSH1 0x40 MLOAD SWAP1 DUP2 ADD PUSH1 0x40 MSTORE DUP1 SWAP3 SWAP2 SWAP1 DUP2 DUP2 MSTORE PUSH1 0x20 ADD DUP3 DUP1 SLOAD DUP1 ISZERO PUSH2 0x27B5 JUMPI PUSH1 0x20 MUL DUP3 ADD SWAP2 SWAP1 PUSH0 MSTORE PUSH1 0x20 PUSH0 KECCAK256 SWAP1 JUMPDEST DUP2 PUSH0 SWAP1 SLOAD SWAP1 PUSH2 0x100 EXP SWAP1 DIV PUSH20 0xFFFFFFFFFFFFFFFFFFFFFFFFFFFFFFFFFFFFFFFF AND PUSH20 0xFFFFFFFFFFFFFFFFFFFFFFFFFFFFFFFFFFFFFFFF AND DUP2 MSTORE PUSH1 0x20 ADD SWAP1 PUSH1 0x1 ADD SWAP1 DUP1 DUP4 GT PUSH2 0x276C JUMPI JUMPDEST POP POP POP POP POP SWAP1 POP SWAP1 JUMP JUMPDEST PUSH2 0x27C8 DUP3 PUSH2 0x11F4 JUMP JUMPDEST PUSH2 0x27D1 DUP2 PUSH2 0x2A1D JUMP JUMPDEST PUSH2 0x27DB DUP4 DUP4 PUSH2 0x2B21 JUMP JUMPDEST POP POP POP POP JUMP JUMPDEST PUSH1 0x4 PUSH1 0x20 MSTORE DUP1 PUSH0 MSTORE PUSH1 0x40 PUSH0 KECCAK256 PUSH0 SWAP2 POP SWAP1 POP DUP1 PUSH0 ADD PUSH0 SWAP1 SLOAD SWAP1 PUSH2 0x100 EXP SWAP1 DIV PUSH20 0xFFFFFFFFFFFFFFFFFFFFFFFFFFFFFFFFFFFFFFFF AND SWAP1 DUP1 PUSH1 0x1 ADD DUP1 SLOAD PUSH2 0x2825 SWAP1 PUSH2 0x3D24 JUMP JUMPDEST DUP1 PUSH1 0x1F ADD PUSH1 0x20 DUP1 SWAP2 DIV MUL PUSH1 0x20 ADD PUSH1 0x40 MLOAD SWAP1 DUP2 ADD PUSH1 0x40 MSTORE DUP1 SWAP3 SWAP2 SWAP1 DUP2 DUP2 MSTORE PUSH1 0x20 ADD DUP3 DUP1 SLOAD PUSH2 0x2851 SWAP1 PUSH2 0x3D24 JUMP JUMPDEST DUP1 ISZERO PUSH2 0x289C JUMPI DUP1 PUSH1 0x1F LT PUSH2 0x2873 JUMPI PUSH2 0x100 DUP1 DUP4 SLOAD DIV MUL DUP4 MSTORE SWAP2 PUSH1 0x20 ADD SWAP2 PUSH2 0x289C JUMP JUMPDEST DUP3 ADD SWAP2 SWAP1 PUSH0 MSTORE PUSH1 0x20 PUSH0 KECCAK256 SWAP1 JUMPDEST DUP2 SLOAD DUP2 MSTORE SWAP1 PUSH1 0x1 ADD SWAP1 PUSH1 0x20 ADD DUP1 DUP4 GT PUSH2 0x287F JUMPI DUP3 SWAP1 SUB PUSH1 0x1F AND DUP3 ADD SWAP2 JUMPDEST POP POP POP POP POP SWAP1 DUP1 PUSH1 0x2 ADD PUSH0 SWAP1 SLOAD SWAP1 PUSH2 0x100 EXP SWAP1 DIV PUSH1 0xFF AND SWAP1 DUP1 PUSH1 0x2 ADD PUSH1 0x1 SWAP1 SLOAD SWAP1 PUSH2 0x100 EXP SWAP1 DIV PUSH1 0xFF AND SWAP1 DUP1 PUSH1 0x3 ADD SLOAD SWAP1 DUP1 PUSH1 0x4 ADD SLOAD SWAP1 POP DUP7 JUMP JUMPDEST PUSH1 0x6 SLOAD DUP2 JUMP JUMPDEST PUSH0 PUSH32 0x1FFC9A700000000000000000000000000000000000000000000000000000000 PUSH28 0xFFFFFFFFFFFFFFFFFFFFFFFFFFFFFFFFFFFFFFFFFFFFFFFFFFFFFFFF NOT AND DUP3 PUSH28 0xFFFFFFFFFFFFFFFFFFFFFFFFFFFFFFFFFFFFFFFFFFFFFFFFFFFFFFFF NOT AND EQ SWAP1 POP SWAP2 SWAP1 POP JUMP JUMPDEST PUSH1 0x2 PUSH1 0x1 SLOAD SUB PUSH2 0x298B JUMPI PUSH1 0x40 MLOAD PUSH32 0x8C379A000000000000000000000000000000000000000000000000000000000 DUP2 MSTORE PUSH1 0x4 ADD PUSH2 0x2982 SWAP1 PUSH2 0x41C0 JUMP JUMPDEST PUSH1 0x40 MLOAD DUP1 SWAP2 SUB SWAP1 REVERT JUMPDEST PUSH1 0x2 PUSH1 0x1 DUP2 SWAP1 SSTORE POP JUMP JUMPDEST PUSH2 0x2A0F DUP4 DUP5 PUSH20 0xFFFFFFFFFFFFFFFFFFFFFFFFFFFFFFFFFFFFFFFF AND PUSH4 0xA9059CBB DUP6 DUP6 PUSH1 0x40 MLOAD PUSH1 0x24 ADD PUSH2 0x29C8 SWAP3 SWAP2 SWAP1 PUSH2 0x41DE JUMP JUMPDEST PUSH1 0x40 MLOAD PUSH1 0x20 DUP2 DUP4 SUB SUB DUP2 MSTORE SWAP1 PUSH1 0x40 MSTORE SWAP2 POP PUSH1 0xE0 SHL PUSH1 0x20 DUP3 ADD DUP1 MLOAD PUSH28 0xFFFFFFFFFFFFFFFFFFFFFFFFFFFFFFFFFFFFFFFFFFFFFFFFFFFFFFFF DUP4 DUP2 DUP4 AND OR DUP4 MSTORE POP POP POP POP PUSH2 0x2DC1 JUMP JUMPDEST POP POP POP JUMP JUMPDEST PUSH1 0x1 DUP1 DUP2 SWAP1 SSTORE POP JUMP JUMPDEST PUSH2 0x2A2E DUP2 PUSH2 0x2A29 PUSH2 0x2B1A JUMP JUMPDEST PUSH2 0x2E5C JUMP JUMPDEST POP JUMP JUMPDEST PUSH0 PUSH2 0x2A3C DUP4 DUP4 PUSH2 0x1DE9 JUMP JUMPDEST PUSH2 0x2B10 JUMPI PUSH1 0x1 PUSH0 PUSH0 DUP6 DUP2 MSTORE PUSH1 0x20 ADD SWAP1 DUP2 MSTORE PUSH1 0x20 ADD PUSH0 KECCAK256 PUSH0 ADD PUSH0 DUP5 PUSH20 0xFFFFFFFFFFFFFFFFFFFFFFFFFFFFFFFFFFFFFFFF AND PUSH20 0xFFFFFFFFFFFFFFFFFFFFFFFFFFFFFFFFFFFFFFFF AND DUP2 MSTORE PUSH1 0x20 ADD SWAP1 DUP2 MSTORE PUSH1 0x20 ADD PUSH0 KECCAK256 PUSH0 PUSH2 0x100 EXP DUP2 SLOAD DUP2 PUSH1 0xFF MUL NOT AND SWAP1 DUP4 ISZERO ISZERO MUL OR SWAP1 SSTORE POP PUSH2 0x2AAD PUSH2 0x2B1A JUMP JUMPDEST PUSH20 0xFFFFFFFFFFFFFFFFFFFFFFFFFFFFFFFFFFFFFFFF AND DUP3 PUSH20 0xFFFFFFFFFFFFFFFFFFFFFFFFFFFFFFFFFFFFFFFF AND DUP5 PUSH32 0x2F8788117E7EFF1D82E926EC794901D17C78024A50270940304540A733656F0D PUSH1 0x40 MLOAD PUSH1 0x40 MLOAD DUP1 SWAP2 SUB SWAP1 LOG4 PUSH1 0x1 SWAP1 POP PUSH2 0x2B14 JUMP JUMPDEST PUSH0 SWAP1 POP JUMPDEST SWAP3 SWAP2 POP POP JUMP JUMPDEST PUSH0 CALLER SWAP1 POP SWAP1 JUMP JUMPDEST PUSH0 PUSH2 0x2B2C DUP4 DUP4 PUSH2 0x1DE9 JUMP JUMPDEST ISZERO PUSH2 0x2C00 JUMPI PUSH0 PUSH0 PUSH0 DUP6 DUP2 MSTORE PUSH1 0x20 ADD SWAP1 DUP2 MSTORE PUSH1 0x20 ADD PUSH0 KECCAK256 PUSH0 ADD PUSH0 DUP5 PUSH20 0xFFFFFFFFFFFFFFFFFFFFFFFFFFFFFFFFFFFFFFFF AND PUSH20 0xFFFFFFFFFFFFFFFFFFFFFFFFFFFFFFFFFFFFFFFF AND DUP2 MSTORE PUSH1 0x20 ADD SWAP1 DUP2 MSTORE PUSH1 0x20 ADD PUSH0 KECCAK256 PUSH0 PUSH2 0x100 EXP DUP2 SLOAD DUP2 PUSH1 0xFF MUL NOT AND SWAP1 DUP4 ISZERO ISZERO MUL OR SWAP1 SSTORE POP PUSH2 0x2B9D PUSH2 0x2B1A JUMP JUMPDEST PUSH20 0xFFFFFFFFFFFFFFFFFFFFFFFFFFFFFFFFFFFFFFFF AND DUP3 PUSH20 0xFFFFFFFFFFFFFFFFFFFFFFFFFFFFFFFFFFFFFFFF AND DUP5 PUSH32 0xF6391F5C32D9C69D2A47EA670B442974B53935D1EDC7FD64EB21E047A839171B PUSH1 0x40 MLOAD PUSH1 0x40 MLOAD DUP1 SWAP2 SUB SWAP1 LOG4 PUSH1 0x1 SWAP1 POP PUSH2 0x2C04 JUMP JUMPDEST PUSH0 SWAP1 POP JUMPDEST SWAP3 SWAP2 POP POP JUMP JUMPDEST PUSH0 PUSH1 0x40 MLOAD DUP1 PUSH1 0x40 ADD PUSH1 0x40 MSTORE DUP1 PUSH1 0x5 DUP2 MSTORE PUSH1 0x20 ADD PUSH32 0x544F4B454E000000000000000000000000000000000000000000000000000000 DUP2 MSTORE POP SWAP1 POP PUSH0 PUSH1 0x12 SWAP1 POP DUP3 PUSH20 0xFFFFFFFFFFFFFFFFFFFFFFFFFFFFFFFFFFFFFFFF AND PUSH4 0x313CE567 PUSH1 0x40 MLOAD DUP2 PUSH4 0xFFFFFFFF AND PUSH1 0xE0 SHL DUP2 MSTORE PUSH1 0x4 ADD PUSH1 0x20 PUSH1 0x40 MLOAD DUP1 DUP4 SUB DUP2 DUP7 GAS STATICCALL SWAP3 POP POP POP DUP1 ISZERO PUSH2 0x2CB0 JUMPI POP PUSH1 0x40 MLOAD RETURNDATASIZE PUSH1 0x1F NOT PUSH1 0x1F DUP3 ADD AND DUP3 ADD DUP1 PUSH1 0x40 MSTORE POP DUP2 ADD SWAP1 PUSH2 0x2CAD SWAP2 SWAP1 PUSH2 0x422F JUMP JUMPDEST PUSH1 0x1 JUMPDEST ISZERO PUSH2 0x2CBA JUMPI DUP1 SWAP2 POP POP JUMPDEST DUP3 PUSH20 0xFFFFFFFFFFFFFFFFFFFFFFFFFFFFFFFFFFFFFFFF AND PUSH4 0x95D89B41 PUSH1 0x40 MLOAD DUP2 PUSH4 0xFFFFFFFF AND PUSH1 0xE0 SHL DUP2 MSTORE PUSH1 0x4 ADD PUSH0 PUSH1 0x40 MLOAD DUP1 DUP4 SUB DUP2 DUP7 GAS STATICCALL SWAP3 POP POP POP DUP1 ISZERO PUSH2 0x2D25 JUMPI POP PUSH1 0x40 MLOAD RETURNDATASIZE PUSH0 DUP3 RETURNDATACOPY RETURNDATASIZE PUSH1 0x1F NOT PUSH1 0x1F DUP3 ADD AND DUP3 ADD DUP1 PUSH1 0x40 MSTORE POP DUP2 ADD SWAP1 PUSH2 0x2D22 SWAP2 SWAP1 PUSH2 0x434B JUMP JUMPDEST PUSH1 0x1 JUMPDEST ISZERO PUSH2 0x2D2F JUMPI DUP1 SWAP3 POP POP JUMPDEST PUSH2 0x2D3A DUP4 DUP4 DUP4 PUSH2 0x2EAD JUMP JUMPDEST POP POP POP JUMP JUMPDEST PUSH2 0x2DBB DUP5 DUP6 PUSH20 0xFFFFFFFFFFFFFFFFFFFFFFFFFFFFFFFFFFFFFFFF AND PUSH4 0x23B872DD DUP7 DUP7 DUP7 PUSH1 0x40 MLOAD PUSH1 0x24 ADD PUSH2 0x2D74 SWAP4 SWAP3 SWAP2 SWAP1 PUSH2 0x4141 JUMP JUMPDEST PUSH1 0x40 MLOAD PUSH1 0x20 DUP2 DUP4 SUB SUB DUP2 MSTORE SWAP1 PUSH1 0x40 MSTORE SWAP2 POP PUSH1 0xE0 SHL PUSH1 0x20 DUP3 ADD DUP1 MLOAD PUSH28 0xFFFFFFFFFFFFFFFFFFFFFFFFFFFFFFFFFFFFFFFFFFFFFFFFFFFFFFFF DUP4 DUP2 DUP4 AND OR DUP4 MSTORE POP POP POP POP PUSH2 0x2DC1 JUMP JUMPDEST POP POP POP POP JUMP JUMPDEST PUSH0 PUSH0 PUSH1 0x20 PUSH0 DUP5 MLOAD PUSH1 0x20 DUP7 ADD PUSH0 DUP9 GAS CALL DUP1 PUSH2 0x2DE0 JUMPI PUSH1 0x40 MLOAD RETURNDATASIZE PUSH0 DUP3 RETURNDATACOPY RETURNDATASIZE DUP2 REVERT JUMPDEST RETURNDATASIZE SWAP3 POP PUSH0 MLOAD SWAP2 POP POP PUSH0 DUP3 EQ PUSH2 0x2DF9 JUMPI PUSH1 0x1 DUP2 EQ ISZERO PUSH2 0x2E14 JUMP JUMPDEST PUSH0 DUP5 PUSH20 0xFFFFFFFFFFFFFFFFFFFFFFFFFFFFFFFFFFFFFFFF AND EXTCODESIZE EQ JUMPDEST ISZERO PUSH2 0x2E56 JUMPI DUP4 PUSH1 0x40 MLOAD PUSH32 0x5274AFE700000000000000000000000000000000000000000000000000000000 DUP2 MSTORE PUSH1 0x4 ADD PUSH2 0x2E4D SWAP2 SWAP1 PUSH2 0x37F7 JUMP JUMPDEST PUSH1 0x40 MLOAD DUP1 SWAP2 SUB SWAP1 REVERT JUMPDEST POP POP POP POP JUMP JUMPDEST PUSH2 0x2E66 DUP3 DUP3 PUSH2 0x1DE9 JUMP JUMPDEST PUSH2 0x2EA9 JUMPI DUP1 DUP3 PUSH1 0x40 MLOAD PUSH32 0xE2517D3F00000000000000000000000000000000000000000000000000000000 DUP2 MSTORE PUSH1 0x4 ADD PUSH2 0x2EA0 SWAP3 SWAP2 SWAP1 PUSH2 0x4392 JUMP JUMPDEST PUSH1 0x40 MLOAD DUP1 SWAP2 SUB SWAP1 REVERT JUMPDEST POP POP JUMP JUMPDEST PUSH1 0x40 MLOAD DUP1 PUSH1 0xC0 ADD PUSH1 0x40 MSTORE DUP1 DUP5 PUSH20 0xFFFFFFFFFFFFFFFFFFFFFFFFFFFFFFFFFFFFFFFF AND DUP2 MSTORE PUSH1 0x20 ADD DUP4 DUP2 MSTORE PUSH1 0x20 ADD DUP3 PUSH1 0xFF AND DUP2 MSTORE PUSH1 0x20 ADD PUSH1 0x1 ISZERO ISZERO DUP2 MSTORE PUSH1 0x20 ADD PUSH0 DUP2 MSTORE PUSH1 0x20 ADD PUSH0 DUP2 MSTORE POP PUSH1 0x4 PUSH0 DUP6 PUSH20 0xFFFFFFFFFFFFFFFFFFFFFFFFFFFFFFFFFFFFFFFF AND PUSH20 0xFFFFFFFFFFFFFFFFFFFFFFFFFFFFFFFFFFFFFFFF AND DUP2 MSTORE PUSH1 0x20 ADD SWAP1 DUP2 MSTORE PUSH1 0x20 ADD PUSH0 KECCAK256 PUSH0 DUP3 ADD MLOAD DUP2 PUSH0 ADD PUSH0 PUSH2 0x100 EXP DUP2 SLOAD DUP2 PUSH20 0xFFFFFFFFFFFFFFFFFFFFFFFFFFFFFFFFFFFFFFFF MUL NOT AND SWAP1 DUP4 PUSH20 0xFFFFFFFFFFFFFFFFFFFFFFFFFFFFFFFFFFFFFFFF AND MUL OR SWAP1 SSTORE POP PUSH1 0x20 DUP3 ADD MLOAD DUP2 PUSH1 0x1 ADD SWAP1 DUP2 PUSH2 0x2F8C SWAP2 SWAP1 PUSH2 0x4559 JUMP JUMPDEST POP PUSH1 0x40 DUP3 ADD MLOAD DUP2 PUSH1 0x2 ADD PUSH0 PUSH2 0x100 EXP DUP2 SLOAD DUP2 PUSH1 0xFF MUL NOT AND SWAP1 DUP4 PUSH1 0xFF AND MUL OR SWAP1 SSTORE POP PUSH1 0x60 DUP3 ADD MLOAD DUP2 PUSH1 0x2 ADD PUSH1 0x1 PUSH2 0x100 EXP DUP2 SLOAD DUP2 PUSH1 0xFF MUL NOT AND SWAP1 DUP4 ISZERO ISZERO MUL OR SWAP1 SSTORE POP PUSH1 0x80 DUP3 ADD MLOAD DUP2 PUSH1 0x3 ADD SSTORE PUSH1 0xA0 DUP3 ADD MLOAD DUP2 PUSH1 0x4 ADD SSTORE SWAP1 POP POP PUSH1 0x3 DUP4 SWAP1 DUP1 PUSH1 0x1 DUP2 SLOAD ADD DUP1 DUP3 SSTORE DUP1 SWAP2 POP POP PUSH1 0x1 SWAP1 SUB SWAP1 PUSH0 MSTORE PUSH1 0x20 PUSH0 KECCAK256 ADD PUSH0 SWAP1 SWAP2 SWAP1 SWAP2 SWAP1 SWAP2 PUSH2 0x100 EXP DUP2 SLOAD DUP2 PUSH20 0xFFFFFFFFFFFFFFFFFFFFFFFFFFFFFFFFFFFFFFFF MUL NOT AND SWAP1 DUP4 PUSH20 0xFFFFFFFFFFFFFFFFFFFFFFFFFFFFFFFFFFFFFFFF AND MUL OR SWAP1 SSTORE POP PUSH1 0x1 PUSH1 0x5 PUSH0 DUP6 PUSH20 0xFFFFFFFFFFFFFFFFFFFFFFFFFFFFFFFFFFFFFFFF AND PUSH20 0xFFFFFFFFFFFFFFFFFFFFFFFFFFFFFFFFFFFFFFFF AND DUP2 MSTORE PUSH1 0x20 ADD SWAP1 DUP2 MSTORE PUSH1 0x20 ADD PUSH0 KECCAK256 PUSH0 PUSH2 0x100 EXP DUP2 SLOAD DUP2 PUSH1 0xFF MUL NOT AND SWAP1 DUP4 ISZERO ISZERO MUL OR SWAP1 SSTORE POP DUP3 PUSH20 0xFFFFFFFFFFFFFFFFFFFFFFFFFFFFFFFFFFFFFFFF AND PUSH32 0x3BE0896D4CD1D645BDAE8ADE25A54BCDBB2C685CE55AC7E7BEAD95D0802B32DE DUP4 DUP4 PUSH1 0x40 MLOAD PUSH2 0x30E1 SWAP3 SWAP2 SWAP1 PUSH2 0x4628 JUMP JUMPDEST PUSH1 0x40 MLOAD DUP1 SWAP2 SUB SWAP1 LOG2 POP POP POP JUMP JUMPDEST PUSH1 0x40 MLOAD DUP1 PUSH1 0xC0 ADD PUSH1 0x40 MSTORE DUP1 PUSH0 PUSH20 0xFFFFFFFFFFFFFFFFFFFFFFFFFFFFFFFFFFFFFFFF AND DUP2 MSTORE PUSH1 0x20 ADD PUSH1 0x60 DUP2 MSTORE PUSH1 0x20 ADD PUSH0 PUSH1 0xFF AND DUP2 MSTORE PUSH1 0x20 ADD PUSH0 ISZERO ISZERO DUP2 MSTORE PUSH1 0x20 ADD PUSH0 DUP2 MSTORE PUSH1 0x20 ADD PUSH0 DUP2 MSTORE POP SWAP1 JUMP JUMPDEST PUSH0 DUP2 SWAP1 POP SWAP2 SWAP1 POP JUMP JUMPDEST PUSH32 0x4E487B7100000000000000000000000000000000000000000000000000000000 PUSH0 MSTORE PUSH1 0x11 PUSH1 0x4 MSTORE PUSH1 0x24 PUSH0 REVERT JUMPDEST PUSH0 PUSH2 0x317A DUP3 PUSH2 0x313A JUMP JUMPDEST SWAP2 POP PUSH2 0x3185 DUP4 PUSH2 0x313A JUMP JUMPDEST SWAP3 POP DUP3 DUP3 ADD SWAP1 POP DUP1 DUP3 GT ISZERO PUSH2 0x319D JUMPI PUSH2 0x319C PUSH2 0x3143 JUMP JUMPDEST JUMPDEST SWAP3 SWAP2 POP POP JUMP JUMPDEST PUSH2 0x31AC DUP2 PUSH2 0x313A JUMP JUMPDEST DUP3 MSTORE POP POP JUMP JUMPDEST PUSH0 PUSH1 0x20 DUP3 ADD SWAP1 POP PUSH2 0x31C5 PUSH0 DUP4 ADD DUP5 PUSH2 0x31A3 JUMP JUMPDEST SWAP3 SWAP2 POP POP JUMP JUMPDEST PUSH0 PUSH1 0x40 MLOAD SWAP1 POP SWAP1 JUMP JUMPDEST PUSH0 PUSH0 REVERT JUMPDEST PUSH0 PUSH0 REVERT JUMPDEST PUSH0 PUSH32 0xFFFFFFFF00000000000000000000000000000000000000000000000000000000 DUP3 AND SWAP1 POP SWAP2 SWAP1 POP JUMP JUMPDEST PUSH2 0x3210 DUP2 PUSH2 0x31DC JUMP JUMPDEST DUP2 EQ PUSH2 0x321A JUMPI PUSH0 PUSH0 REVERT JUMPDEST POP JUMP JUMPDEST PUSH0 DUP2 CALLDATALOAD SWAP1 POP PUSH2 0x322B DUP2 PUSH2 0x3207 JUMP JUMPDEST SWAP3 SWAP2 POP POP JUMP JUMPDEST PUSH0 PUSH1 0x20 DUP3 DUP5 SUB SLT ISZERO PUSH2 0x3246 JUMPI PUSH2 0x3245 PUSH2 0x31D4 JUMP JUMPDEST JUMPDEST PUSH0 PUSH2 0x3253 DUP5 DUP3 DUP6 ADD PUSH2 0x321D JUMP JUMPDEST SWAP2 POP POP SWAP3 SWAP2 POP POP JUMP JUMPDEST PUSH0 DUP2 ISZERO ISZERO SWAP1 POP SWAP2 SWAP1 POP JUMP JUMPDEST PUSH2 0x3270 DUP2 PUSH2 0x325C JUMP JUMPDEST DUP3 MSTORE POP POP JUMP JUMPDEST PUSH0 PUSH1 0x20 DUP3 ADD SWAP1 POP PUSH2 0x3289 PUSH0 DUP4 ADD DUP5 PUSH2 0x3267 JUMP JUMPDEST SWAP3 SWAP2 POP POP JUMP JUMPDEST PUSH2 0x3298 DUP2 PUSH2 0x313A JUMP JUMPDEST DUP2 EQ PUSH2 0x32A2 JUMPI PUSH0 PUSH0 REVERT JUMPDEST POP JUMP JUMPDEST PUSH0 DUP2 CALLDATALOAD SWAP1 POP PUSH2 0x32B3 DUP2 PUSH2 0x328F JUMP JUMPDEST SWAP3 SWAP2 POP POP JUMP JUMPDEST PUSH0 PUSH1 0x20 DUP3 DUP5 SUB SLT ISZERO PUSH2 0x32CE JUMPI PUSH2 0x32CD PUSH2 0x31D4 JUMP JUMPDEST JUMPDEST PUSH0 PUSH2 0x32DB DUP5 DUP3 DUP6 ADD PUSH2 0x32A5 JUMP JUMPDEST SWAP2 POP POP SWAP3 SWAP2 POP POP JUMP JUMPDEST PUSH0 PUSH20 0xFFFFFFFFFFFFFFFFFFFFFFFFFFFFFFFFFFFFFFFF DUP3 AND SWAP1 POP SWAP2 SWAP1 POP JUMP JUMPDEST PUSH0 PUSH2 0x330D DUP3 PUSH2 0x32E4 JUMP JUMPDEST SWAP1 POP SWAP2 SWAP1 POP JUMP JUMPDEST PUSH2 0x331D DUP2 PUSH2 0x3303 JUMP JUMPDEST DUP2 EQ PUSH2 0x3327 JUMPI PUSH0 PUSH0 REVERT JUMPDEST POP JUMP JUMPDEST PUSH0 DUP2 CALLDATALOAD SWAP1 POP PUSH2 0x3338 DUP2 PUSH2 0x3314 JUMP JUMPDEST SWAP3 SWAP2 POP POP JUMP JUMPDEST PUSH0 PUSH0 PUSH0 PUSH1 0x60 DUP5 DUP7 SUB SLT ISZERO PUSH2 0x3355 JUMPI PUSH2 0x3354 PUSH2 0x31D4 JUMP JUMPDEST JUMPDEST PUSH0 PUSH2 0x3362 DUP7 DUP3 DUP8 ADD PUSH2 0x332A JUMP JUMPDEST SWAP4 POP POP PUSH1 0x20 PUSH2 0x3373 DUP7 DUP3 DUP8 ADD PUSH2 0x332A JUMP JUMPDEST SWAP3 POP POP PUSH1 0x40 PUSH2 0x3384 DUP7 DUP3 DUP8 ADD PUSH2 0x32A5 JUMP JUMPDEST SWAP2 POP POP SWAP3 POP SWAP3 POP SWAP3 JUMP JUMPDEST PUSH0 PUSH1 0x20 DUP3 DUP5 SUB SLT ISZERO PUSH2 0x33A3 JUMPI PUSH2 0x33A2 PUSH2 0x31D4 JUMP JUMPDEST JUMPDEST PUSH0 PUSH2 0x33B0 DUP5 DUP3 DUP6 ADD PUSH2 0x332A JUMP JUMPDEST SWAP2 POP POP SWAP3 SWAP2 POP POP JUMP JUMPDEST PUSH2 0x33C2 DUP2 PUSH2 0x3303 JUMP JUMPDEST DUP3 MSTORE POP POP JUMP JUMPDEST PUSH0 DUP2 MLOAD SWAP1 POP SWAP2 SWAP1 POP JUMP JUMPDEST PUSH0 DUP3 DUP3 MSTORE PUSH1 0x20 DUP3 ADD SWAP1 POP SWAP3 SWAP2 POP POP JUMP JUMPDEST DUP3 DUP2 DUP4 MCOPY PUSH0 DUP4 DUP4 ADD MSTORE POP POP POP JUMP JUMPDEST PUSH0 PUSH1 0x1F NOT PUSH1 0x1F DUP4 ADD AND SWAP1 POP SWAP2 SWAP1 POP JUMP JUMPDEST PUSH0 PUSH2 0x340A DUP3 PUSH2 0x33C8 JUMP JUMPDEST PUSH2 0x3414 DUP2 DUP6 PUSH2 0x33D2 JUMP JUMPDEST SWAP4 POP PUSH2 0x3424 DUP2 DUP6 PUSH1 0x20 DUP7 ADD PUSH2 0x33E2 JUMP JUMPDEST PUSH2 0x342D DUP2 PUSH2 0x33F0 JUMP JUMPDEST DUP5 ADD SWAP2 POP POP SWAP3 SWAP2 POP POP JUMP JUMPDEST PUSH0 PUSH1 0xFF DUP3 AND SWAP1 POP SWAP2 SWAP1 POP JUMP JUMPDEST PUSH2 0x344D DUP2 PUSH2 0x3438 JUMP JUMPDEST DUP3 MSTORE POP POP JUMP JUMPDEST PUSH2 0x345C DUP2 PUSH2 0x325C JUMP JUMPDEST DUP3 MSTORE POP POP JUMP JUMPDEST PUSH2 0x346B DUP2 PUSH2 0x313A JUMP JUMPDEST DUP3 MSTORE POP POP JUMP JUMPDEST PUSH0 PUSH1 0xC0 DUP4 ADD PUSH0 DUP4 ADD MLOAD PUSH2 0x3486 PUSH0 DUP7 ADD DUP3 PUSH2 0x33B9 JUMP JUMPDEST POP PUSH1 0x20 DUP4 ADD MLOAD DUP5 DUP3 SUB PUSH1 0x20 DUP7 ADD MSTORE PUSH2 0x349E DUP3 DUP3 PUSH2 0x3400 JUMP JUMPDEST SWAP2 POP POP PUSH1 0x40 DUP4 ADD MLOAD PUSH2 0x34B3 PUSH1 0x40 DUP7 ADD DUP3 PUSH2 0x3444 JUMP JUMPDEST POP PUSH1 0x60 DUP4 ADD MLOAD PUSH2 0x34C6 PUSH1 0x60 DUP7 ADD DUP3 PUSH2 0x3453 JUMP JUMPDEST POP PUSH1 0x80 DUP4 ADD MLOAD PUSH2 0x34D9 PUSH1 0x80 DUP7 ADD DUP3 PUSH2 0x3462 JUMP JUMPDEST POP PUSH1 0xA0 DUP4 ADD MLOAD PUSH2 0x34EC PUSH1 0xA0 DUP7 ADD DUP3 PUSH2 0x3462 JUMP JUMPDEST POP DUP1 SWAP2 POP POP SWAP3 SWAP2 POP POP JUMP JUMPDEST PUSH0 PUSH1 0x20 DUP3 ADD SWAP1 POP DUP2 DUP2 SUB PUSH0 DUP4 ADD MSTORE PUSH2 0x350F DUP2 DUP5 PUSH2 0x3471 JUMP JUMPDEST SWAP1 POP SWAP3 SWAP2 POP POP JUMP JUMPDEST PUSH0 DUP2 SWAP1 POP SWAP2 SWAP1 POP JUMP JUMPDEST PUSH2 0x3529 DUP2 PUSH2 0x3517 JUMP JUMPDEST DUP2 EQ PUSH2 0x3533 JUMPI PUSH0 PUSH0 REVERT JUMPDEST POP JUMP JUMPDEST PUSH0 DUP2 CALLDATALOAD SWAP1 POP PUSH2 0x3544 DUP2 PUSH2 0x3520 JUMP JUMPDEST SWAP3 SWAP2 POP POP JUMP JUMPDEST PUSH0 PUSH1 0x20 DUP3 DUP5 SUB SLT ISZERO PUSH2 0x355F JUMPI PUSH2 0x355E PUSH2 0x31D4 JUMP JUMPDEST JUMPDEST PUSH0 PUSH2 0x356C DUP5 DUP3 DUP6 ADD PUSH2 0x3536 JUMP JUMPDEST SWAP2 POP POP SWAP3 SWAP2 POP POP JUMP JUMPDEST PUSH2 0x357E DUP2 PUSH2 0x3517 JUMP JUMPDEST DUP3 MSTORE POP POP JUMP JUMPDEST PUSH0 PUSH1 0x20 DUP3 ADD SWAP1 POP PUSH2 0x3597 PUSH0 DUP4 ADD DUP5 PUSH2 0x3575 JUMP JUMPDEST SWAP3 SWAP2 POP POP JUMP JUMPDEST PUSH0 PUSH0 PUSH1 0x40 DUP4 DUP6 SUB SLT ISZERO PUSH2 0x35B3 JUMPI PUSH2 0x35B2 PUSH2 0x31D4 JUMP JUMPDEST JUMPDEST PUSH0 PUSH2 0x35C0 DUP6 DUP3 DUP7 ADD PUSH2 0x332A JUMP JUMPDEST SWAP3 POP POP PUSH1 0x20 PUSH2 0x35D1 DUP6 DUP3 DUP7 ADD PUSH2 0x32A5 JUMP JUMPDEST SWAP2 POP POP SWAP3 POP SWAP3 SWAP1 POP JUMP JUMPDEST PUSH0 PUSH1 0x60 DUP3 ADD SWAP1 POP PUSH2 0x35EE PUSH0 DUP4 ADD DUP7 PUSH2 0x3267 JUMP JUMPDEST PUSH2 0x35FB PUSH1 0x20 DUP4 ADD DUP6 PUSH2 0x31A3 JUMP JUMPDEST PUSH2 0x3608 PUSH1 0x40 DUP4 ADD DUP5 PUSH2 0x31A3 JUMP JUMPDEST SWAP5 SWAP4 POP POP POP POP JUMP JUMPDEST PUSH0 PUSH0 PUSH1 0x40 DUP4 DUP6 SUB SLT ISZERO PUSH2 0x3626 JUMPI PUSH2 0x3625 PUSH2 0x31D4 JUMP JUMPDEST JUMPDEST PUSH0 PUSH2 0x3633 DUP6 DUP3 DUP7 ADD PUSH2 0x3536 JUMP JUMPDEST SWAP3 POP POP PUSH1 0x20 PUSH2 0x3644 DUP6 DUP3 DUP7 ADD PUSH2 0x332A JUMP JUMPDEST SWAP2 POP POP SWAP3 POP SWAP3 SWAP1 POP JUMP JUMPDEST PUSH0 DUP2 MLOAD SWAP1 POP SWAP2 SWAP1 POP JUMP JUMPDEST PUSH0 DUP3 DUP3 MSTORE PUSH1 0x20 DUP3 ADD SWAP1 POP SWAP3 SWAP2 POP POP JUMP JUMPDEST PUSH0 DUP2 SWAP1 POP PUSH1 0x20 DUP3 ADD SWAP1 POP SWAP2 SWAP1 POP JUMP JUMPDEST PUSH0 PUSH2 0x3682 DUP4 DUP4 PUSH2 0x33B9 JUMP JUMPDEST PUSH1 0x20 DUP4 ADD SWAP1 POP SWAP3 SWAP2 POP POP JUMP JUMPDEST PUSH0 PUSH1 0x20 DUP3 ADD SWAP1 POP SWAP2 SWAP1 POP JUMP JUMPDEST PUSH0 PUSH2 0x36A4 DUP3 PUSH2 0x364E JUMP JUMPDEST PUSH2 0x36AE DUP2 DUP6 PUSH2 0x3658 JUMP JUMPDEST SWAP4 POP PUSH2 0x36B9 DUP4 PUSH2 0x3668 JUMP JUMPDEST DUP1 PUSH0 JUMPDEST DUP4 DUP2 LT ISZERO PUSH2 0x36E9 JUMPI DUP2 MLOAD PUSH2 0x36D0 DUP9 DUP3 PUSH2 0x3677 JUMP JUMPDEST SWAP8 POP PUSH2 0x36DB DUP4 PUSH2 0x368E JUMP JUMPDEST SWAP3 POP POP PUSH1 0x1 DUP2 ADD SWAP1 POP PUSH2 0x36BC JUMP JUMPDEST POP DUP6 SWAP4 POP POP POP POP SWAP3 SWAP2 POP POP JUMP JUMPDEST PUSH0 DUP2 MLOAD SWAP1 POP SWAP2 SWAP1 POP JUMP JUMPDEST PUSH0 DUP3 DUP3 MSTORE PUSH1 0x20 DUP3 ADD SWAP1 POP SWAP3 SWAP2 POP POP JUMP JUMPDEST PUSH0 DUP2 SWAP1 POP PUSH1 0x20 DUP3 ADD SWAP1 POP SWAP2 SWAP1 POP JUMP JUMPDEST PUSH0 PUSH2 0x372A DUP4 DUP4 PUSH2 0x3462 JUMP JUMPDEST PUSH1 0x20 DUP4 ADD SWAP1 POP SWAP3 SWAP2 POP POP JUMP JUMPDEST PUSH0 PUSH1 0x20 DUP3 ADD SWAP1 POP SWAP2 SWAP1 POP JUMP JUMPDEST PUSH0 PUSH2 0x374C DUP3 PUSH2 0x36F6 JUMP JUMPDEST PUSH2 0x3756 DUP2 DUP6 PUSH2 0x3700 JUMP JUMPDEST SWAP4 POP PUSH2 0x3761 DUP4 PUSH2 0x3710 JUMP JUMPDEST DUP1 PUSH0 JUMPDEST DUP4 DUP2 LT ISZERO PUSH2 0x3791 JUMPI DUP2 MLOAD PUSH2 0x3778 DUP9 DUP3 PUSH2 0x371F JUMP JUMPDEST SWAP8 POP PUSH2 0x3783 DUP4 PUSH2 0x3736 JUMP JUMPDEST SWAP3 POP POP PUSH1 0x1 DUP2 ADD SWAP1 POP PUSH2 0x3764 JUMP JUMPDEST POP DUP6 SWAP4 POP POP POP POP SWAP3 SWAP2 POP POP JUMP JUMPDEST PUSH0 PUSH1 0x60 DUP3 ADD SWAP1 POP DUP2 DUP2 SUB PUSH0 DUP4 ADD MSTORE PUSH2 0x37B6 DUP2 DUP7 PUSH2 0x369A JUMP JUMPDEST SWAP1 POP DUP2 DUP2 SUB PUSH1 0x20 DUP4 ADD MSTORE PUSH2 0x37CA DUP2 DUP6 PUSH2 0x3742 JUMP JUMPDEST SWAP1 POP DUP2 DUP2 SUB PUSH1 0x40 DUP4 ADD MSTORE PUSH2 0x37DE DUP2 DUP5 PUSH2 0x3742 JUMP JUMPDEST SWAP1 POP SWAP5 SWAP4 POP POP POP POP JUMP JUMPDEST PUSH2 0x37F1 DUP2 PUSH2 0x3303 JUMP JUMPDEST DUP3 MSTORE POP POP JUMP JUMPDEST PUSH0 PUSH1 0x20 DUP3 ADD SWAP1 POP PUSH2 0x380A PUSH0 DUP4 ADD DUP5 PUSH2 0x37E8 JUMP JUMPDEST SWAP3 SWAP2 POP POP JUMP JUMPDEST PUSH0 PUSH1 0x20 DUP3 ADD SWAP1 POP DUP2 DUP2 SUB PUSH0 DUP4 ADD MSTORE PUSH2 0x3828 DUP2 DUP5 PUSH2 0x369A JUMP JUMPDEST SWAP1 POP SWAP3 SWAP2 POP POP JUMP JUMPDEST PUSH0 DUP3 DUP3 MSTORE PUSH1 0x20 DUP3 ADD SWAP1 POP SWAP3 SWAP2 POP POP JUMP JUMPDEST PUSH0 PUSH2 0x384A DUP3 PUSH2 0x33C8 JUMP JUMPDEST PUSH2 0x3854 DUP2 DUP6 PUSH2 0x3830 JUMP JUMPDEST SWAP4 POP PUSH2 0x3864 DUP2 DUP6 PUSH1 0x20 DUP7 ADD PUSH2 0x33E2 JUMP JUMPDEST PUSH2 0x386D DUP2 PUSH2 0x33F0 JUMP JUMPDEST DUP5 ADD SWAP2 POP POP SWAP3 SWAP2 POP POP JUMP JUMPDEST PUSH2 0x3881 DUP2 PUSH2 0x3438 JUMP JUMPDEST DUP3 MSTORE POP POP JUMP JUMPDEST PUSH0 PUSH1 0xC0 DUP3 ADD SWAP1 POP PUSH2 0x389A PUSH0 DUP4 ADD DUP10 PUSH2 0x37E8 JUMP JUMPDEST DUP2 DUP2 SUB PUSH1 0x20 DUP4 ADD MSTORE PUSH2 0x38AC DUP2 DUP9 PUSH2 0x3840 JUMP JUMPDEST SWAP1 POP PUSH2 0x38BB PUSH1 0x40 DUP4 ADD DUP8 PUSH2 0x3878 JUMP JUMPDEST PUSH2 0x38C8 PUSH1 0x60 DUP4 ADD DUP7 PUSH2 0x3267 JUMP JUMPDEST PUSH2 0x38D5 PUSH1 0x80 DUP4 ADD DUP6 PUSH2 0x31A3 JUMP JUMPDEST PUSH2 0x38E2 PUSH1 0xA0 DUP4 ADD DUP5 PUSH2 0x31A3 JUMP JUMPDEST SWAP8 SWAP7 POP POP POP POP POP POP POP JUMP JUMPDEST PUSH0 PUSH1 0x40 DUP3 ADD SWAP1 POP PUSH2 0x3900 PUSH0 DUP4 ADD DUP6 PUSH2 0x3575 JUMP JUMPDEST PUSH2 0x390D PUSH1 0x20 DUP4 ADD DUP5 PUSH2 0x37E8 JUMP JUMPDEST SWAP4 SWAP3 POP POP POP JUMP JUMPDEST PUSH2 0x391D DUP2 PUSH2 0x325C JUMP JUMPDEST DUP2 EQ PUSH2 0x3927 JUMPI PUSH0 PUSH0 REVERT JUMPDEST POP JUMP JUMPDEST PUSH0 DUP2 MLOAD SWAP1 POP PUSH2 0x3938 DUP2 PUSH2 0x3914 JUMP JUMPDEST SWAP3 SWAP2 POP POP JUMP JUMPDEST PUSH0 PUSH1 0x20 DUP3 DUP5 SUB SLT ISZERO PUSH2 0x3953 JUMPI PUSH2 0x3952 PUSH2 0x31D4 JUMP JUMPDEST JUMPDEST PUSH0 PUSH2 0x3960 DUP5 DUP3 DUP6 ADD PUSH2 0x392A JUMP JUMPDEST SWAP2 POP POP SWAP3 SWAP2 POP POP JUMP JUMPDEST PUSH32 0x4E6F7420617574686F72697A6564000000000000000000000000000000000000 PUSH0 DUP3 ADD MSTORE POP JUMP JUMPDEST PUSH0 PUSH2 0x399D PUSH1 0xE DUP4 PUSH2 0x3830 JUMP JUMPDEST SWAP2 POP PUSH2 0x39A8 DUP3 PUSH2 0x3969 JUMP JUMPDEST PUSH1 0x20 DUP3 ADD SWAP1 POP SWAP2 SWAP1 POP JUMP JUMPDEST PUSH0 PUSH1 0x20 DUP3 ADD SWAP1 POP DUP2 DUP2 SUB PUSH0 DUP4 ADD MSTORE PUSH2 0x39CA DUP2 PUSH2 0x3991 JUMP JUMPDEST SWAP1 POP SWAP2 SWAP1 POP JUMP JUMPDEST PUSH32 0x526573657276652070657263656E7461676520746F6F20686967680000000000 PUSH0 DUP3 ADD MSTORE POP JUMP JUMPDEST PUSH0 PUSH2 0x3A05 PUSH1 0x1B DUP4 PUSH2 0x3830 JUMP JUMPDEST SWAP2 POP PUSH2 0x3A10 DUP3 PUSH2 0x39D1 JUMP JUMPDEST PUSH1 0x20 DUP3 ADD SWAP1 POP SWAP2 SWAP1 POP JUMP JUMPDEST PUSH0 PUSH1 0x20 DUP3 ADD SWAP1 POP DUP2 DUP2 SUB PUSH0 DUP4 ADD MSTORE PUSH2 0x3A32 DUP2 PUSH2 0x39F9 JUMP JUMPDEST SWAP1 POP SWAP2 SWAP1 POP JUMP JUMPDEST PUSH0 PUSH1 0x40 DUP3 ADD SWAP1 POP PUSH2 0x3A4C PUSH0 DUP4 ADD DUP6 PUSH2 0x31A3 JUMP JUMPDEST PUSH2 0x3A59 PUSH1 0x20 DUP4 ADD DUP5 PUSH2 0x31A3 JUMP JUMPDEST SWAP4 SWAP3 POP POP POP JUMP JUMPDEST PUSH32 0x496E76616C696420726563697069656E74000000000000000000000000000000 PUSH0 DUP3 ADD MSTORE POP JUMP JUMPDEST PUSH0 PUSH2 0x3A94 PUSH1 0x11 DUP4 PUSH2 0x3830 JUMP JUMPDEST SWAP2 POP PUSH2 0x3A9F DUP3 PUSH2 0x3A60 JUMP JUMPDEST PUSH1 0x20 DUP3 ADD SWAP1 POP SWAP2 SWAP1 POP JUMP JUMPDEST PUSH0 PUSH1 0x20 DUP3 ADD SWAP1 POP DUP2 DUP2 SUB PUSH0 DUP4 ADD MSTORE PUSH2 0x3AC1 DUP2 PUSH2 0x3A88 JUMP JUMPDEST SWAP1 POP SWAP2 SWAP1 POP JUMP JUMPDEST PUSH32 0x416D6F756E74206D75737420626520706F736974697665000000000000000000 PUSH0 DUP3 ADD MSTORE POP JUMP JUMPDEST PUSH0 PUSH2 0x3AFC PUSH1 0x17 DUP4 PUSH2 0x3830 JUMP JUMPDEST SWAP2 POP PUSH2 0x3B07 DUP3 PUSH2 0x3AC8 JUMP JUMPDEST PUSH1 0x20 DUP3 ADD SWAP1 POP SWAP2 SWAP1 POP JUMP JUMPDEST PUSH0 PUSH1 0x20 DUP3 ADD SWAP1 POP DUP2 DUP2 SUB PUSH0 DUP4 ADD MSTORE PUSH2 0x3B29 DUP2 PUSH2 0x3AF0 JUMP JUMPDEST SWAP1 POP SWAP2 SWAP1 POP JUMP JUMPDEST PUSH32 0x496E73756666696369656E742062616C616E6365000000000000000000000000 PUSH0 DUP3 ADD MSTORE POP JUMP JUMPDEST PUSH0 PUSH2 0x3B64 PUSH1 0x14 DUP4 PUSH2 0x3830 JUMP JUMPDEST SWAP2 POP PUSH2 0x3B6F DUP3 PUSH2 0x3B30 JUMP JUMPDEST PUSH1 0x20 DUP3 ADD SWAP1 POP SWAP2 SWAP1 POP JUMP JUMPDEST PUSH0 PUSH1 0x20 DUP3 ADD SWAP1 POP DUP2 DUP2 SUB PUSH0 DUP4 ADD MSTORE PUSH2 0x3B91 DUP2 PUSH2 0x3B58 JUMP JUMPDEST SWAP1 POP SWAP2 SWAP1 POP JUMP JUMPDEST PUSH0 PUSH2 0x3BA2 DUP3 PUSH2 0x313A JUMP JUMPDEST SWAP2 POP PUSH2 0x3BAD DUP4 PUSH2 0x313A JUMP JUMPDEST SWAP3 POP DUP3 DUP3 SUB SWAP1 POP DUP2 DUP2 GT ISZERO PUSH2 0x3BC5 JUMPI PUSH2 0x3BC4 PUSH2 0x3143 JUMP JUMPDEST JUMPDEST SWAP3 SWAP2 POP POP JUMP JUMPDEST PUSH0 PUSH2 0x3BD5 DUP3 PUSH2 0x313A JUMP JUMPDEST SWAP2 POP PUSH2 0x3BE0 DUP4 PUSH2 0x313A JUMP JUMPDEST SWAP3 POP DUP3 DUP3 MUL PUSH2 0x3BEE DUP2 PUSH2 0x313A JUMP JUMPDEST SWAP2 POP DUP3 DUP3 DIV DUP5 EQ DUP4 ISZERO OR PUSH2 0x3C05 JUMPI PUSH2 0x3C04 PUSH2 0x3143 JUMP JUMPDEST JUMPDEST POP SWAP3 SWAP2 POP POP JUMP JUMPDEST PUSH32 0x4E487B7100000000000000000000000000000000000000000000000000000000 PUSH0 MSTORE PUSH1 0x12 PUSH1 0x4 MSTORE PUSH1 0x24 PUSH0 REVERT JUMPDEST PUSH0 PUSH2 0x3C43 DUP3 PUSH2 0x313A JUMP JUMPDEST SWAP2 POP PUSH2 0x3C4E DUP4 PUSH2 0x313A JUMP JUMPDEST SWAP3 POP DUP3 PUSH2 0x3C5E JUMPI PUSH2 0x3C5D PUSH2 0x3C0C JUMP JUMPDEST JUMPDEST DUP3 DUP3 DIV SWAP1 POP SWAP3 SWAP2 POP POP JUMP JUMPDEST PUSH32 0x576F756C642076696F6C617465207265736572766520726571756972656D656E PUSH0 DUP3 ADD MSTORE PUSH32 0x7400000000000000000000000000000000000000000000000000000000000000 PUSH1 0x20 DUP3 ADD MSTORE POP JUMP JUMPDEST PUSH0 PUSH2 0x3CC3 PUSH1 0x21 DUP4 PUSH2 0x3830 JUMP JUMPDEST SWAP2 POP PUSH2 0x3CCE DUP3 PUSH2 0x3C69 JUMP JUMPDEST PUSH1 0x40 DUP3 ADD SWAP1 POP SWAP2 SWAP1 POP JUMP JUMPDEST PUSH0 PUSH1 0x20 DUP3 ADD SWAP1 POP DUP2 DUP2 SUB PUSH0 DUP4 ADD MSTORE PUSH2 0x3CF0 DUP2 PUSH2 0x3CB7 JUMP JUMPDEST SWAP1 POP SWAP2 SWAP1 POP JUMP JUMPDEST PUSH32 0x4E487B7100000000000000000000000000000000000000000000000000000000 PUSH0 MSTORE PUSH1 0x22 PUSH1 0x4 MSTORE PUSH1 0x24 PUSH0 REVERT JUMPDEST PUSH0 PUSH1 0x2 DUP3 DIV SWAP1 POP PUSH1 0x1 DUP3 AND DUP1 PUSH2 0x3D3B JUMPI PUSH1 0x7F DUP3 AND SWAP2 POP JUMPDEST PUSH1 0x20 DUP3 LT DUP2 SUB PUSH2 0x3D4E JUMPI PUSH2 0x3D4D PUSH2 0x3CF7 JUMP JUMPDEST JUMPDEST POP SWAP2 SWAP1 POP JUMP JUMPDEST PUSH32 0x496E7465726E616C2066756E6374696F6E000000000000000000000000000000 PUSH0 DUP3 ADD MSTORE POP JUMP JUMPDEST PUSH0 PUSH2 0x3D88 PUSH1 0x11 DUP4 PUSH2 0x3830 JUMP JUMPDEST SWAP2 POP PUSH2 0x3D93 DUP3 PUSH2 0x3D54 JUMP JUMPDEST PUSH1 0x20 DUP3 ADD SWAP1 POP SWAP2 SWAP1 POP JUMP JUMPDEST PUSH0 PUSH1 0x20 DUP3 ADD SWAP1 POP DUP2 DUP2 SUB PUSH0 DUP4 ADD MSTORE PUSH2 0x3DB5 DUP2 PUSH2 0x3D7C JUMP JUMPDEST SWAP1 POP SWAP2 SWAP1 POP JUMP JUMPDEST PUSH32 0x43616E6E6F74206164642045544820616761696E000000000000000000000000 PUSH0 DUP3 ADD MSTORE POP JUMP JUMPDEST PUSH0 PUSH2 0x3DF0 PUSH1 0x14 DUP4 PUSH2 0x3830 JUMP JUMPDEST SWAP2 POP PUSH2 0x3DFB DUP3 PUSH2 0x3DBC JUMP JUMPDEST PUSH1 0x20 DUP3 ADD SWAP1 POP SWAP2 SWAP1 POP JUMP JUMPDEST PUSH0 PUSH1 0x20 DUP3 ADD SWAP1 POP DUP2 DUP2 SUB PUSH0 DUP4 ADD MSTORE PUSH2 0x3E1D DUP2 PUSH2 0x3DE4 JUMP JUMPDEST SWAP1 POP SWAP2 SWAP1 POP JUMP JUMPDEST PUSH32 0x546F6B656E20616C726561647920737570706F72746564000000000000000000 PUSH0 DUP3 ADD MSTORE POP JUMP JUMPDEST PUSH0 PUSH2 0x3E58 PUSH1 0x17 DUP4 PUSH2 0x3830 JUMP JUMPDEST SWAP2 POP PUSH2 0x3E63 DUP3 PUSH2 0x3E24 JUMP JUMPDEST PUSH1 0x20 DUP3 ADD SWAP1 POP SWAP2 SWAP1 POP JUMP JUMPDEST PUSH0 PUSH1 0x20 DUP3 ADD SWAP1 POP DUP2 DUP2 SUB PUSH0 DUP4 ADD MSTORE PUSH2 0x3E85 DUP2 PUSH2 0x3E4C JUMP JUMPDEST SWAP1 POP SWAP2 SWAP1 POP JUMP JUMPDEST PUSH32 0x43616E6E6F742072656D6F766520455448000000000000000000000000000000 PUSH0 DUP3 ADD MSTORE POP JUMP JUMPDEST PUSH0 PUSH2 0x3EC0 PUSH1 0x11 DUP4 PUSH2 0x3830 JUMP JUMPDEST SWAP2 POP PUSH2 0x3ECB DUP3 PUSH2 0x3E8C JUMP JUMPDEST PUSH1 0x20 DUP3 ADD SWAP1 POP SWAP2 SWAP1 POP JUMP JUMPDEST PUSH0 PUSH1 0x20 DUP3 ADD SWAP1 POP DUP2 DUP2 SUB PUSH0 DUP4 ADD MSTORE PUSH2 0x3EED DUP2 PUSH2 0x3EB4 JUMP JUMPDEST SWAP1 POP SWAP2 SWAP1 POP JUMP JUMPDEST PUSH32 0x546F6B656E206E6F7420737570706F7274656400000000000000000000000000 PUSH0 DUP3 ADD MSTORE POP JUMP JUMPDEST PUSH0 PUSH2 0x3F28 PUSH1 0x13 DUP4 PUSH2 0x3830 JUMP JUMPDEST SWAP2 POP PUSH2 0x3F33 DUP3 PUSH2 0x3EF4 JUMP JUMPDEST PUSH1 0x20 DUP3 ADD SWAP1 POP SWAP2 SWAP1 POP JUMP JUMPDEST PUSH0 PUSH1 0x20 DUP3 ADD SWAP1 POP DUP2 DUP2 SUB PUSH0 DUP4 ADD MSTORE PUSH2 0x3F55 DUP2 PUSH2 0x3F1C JUMP JUMPDEST SWAP1 POP SWAP2 SWAP1 POP JUMP JUMPDEST PUSH32 0x546F6B656E206861732062616C616E63652C2077697468647261772066697273 PUSH0 DUP3 ADD MSTORE PUSH32 0x7400000000000000000000000000000000000000000000000000000000000000 PUSH1 0x20 DUP3 ADD MSTORE POP JUMP JUMPDEST PUSH0 PUSH2 0x3FB6 PUSH1 0x21 DUP4 PUSH2 0x3830 JUMP JUMPDEST SWAP2 POP PUSH2 0x3FC1 DUP3 PUSH2 0x3F5C JUMP JUMPDEST PUSH1 0x40 DUP3 ADD SWAP1 POP SWAP2 SWAP1 POP JUMP JUMPDEST PUSH0 PUSH1 0x20 DUP3 ADD SWAP1 POP DUP2 DUP2 SUB PUSH0 DUP4 ADD MSTORE PUSH2 0x3FE3 DUP2 PUSH2 0x3FAA JUMP JUMPDEST SWAP1 POP SWAP2 SWAP1 POP JUMP JUMPDEST PUSH32 0x4E487B7100000000000000000000000000000000000000000000000000000000 PUSH0 MSTORE PUSH1 0x32 PUSH1 0x4 MSTORE PUSH1 0x24 PUSH0 REVERT JUMPDEST PUSH32 0x4E487B7100000000000000000000000000000000000000000000000000000000 PUSH0 MSTORE PUSH1 0x31 PUSH1 0x4 MSTORE PUSH1 0x24 PUSH0 REVERT JUMPDEST PUSH32 0x4E487B7100000000000000000000000000000000000000000000000000000000 PUSH0 MSTORE PUSH1 0x41 PUSH1 0x4 MSTORE PUSH1 0x24 PUSH0 REVERT JUMPDEST PUSH32 0x4F6E6C7920706179726F6C6C20636F72652063616E2063616C6C000000000000 PUSH0 DUP3 ADD MSTORE POP JUMP JUMPDEST PUSH0 PUSH2 0x40A5 PUSH1 0x1A DUP4 PUSH2 0x3830 JUMP JUMPDEST SWAP2 POP PUSH2 0x40B0 DUP3 PUSH2 0x4071 JUMP JUMPDEST PUSH1 0x20 DUP3 ADD SWAP1 POP SWAP2 SWAP1 POP JUMP JUMPDEST PUSH0 PUSH1 0x20 DUP3 ADD SWAP1 POP DUP2 DUP2 SUB PUSH0 DUP4 ADD MSTORE PUSH2 0x40D2 DUP2 PUSH2 0x4099 JUMP JUMPDEST SWAP1 POP SWAP2 SWAP1 POP JUMP JUMPDEST PUSH32 0x4E6F204554482073656E74000000000000000000000000000000000000000000 PUSH0 DUP3 ADD MSTORE POP JUMP JUMPDEST PUSH0 PUSH2 0x410D PUSH1 0xB DUP4 PUSH2 0x3830 JUMP JUMPDEST SWAP2 POP PUSH2 0x4118 DUP3 PUSH2 0x40D9 JUMP JUMPDEST PUSH1 0x20 DUP3 ADD SWAP1 POP SWAP2 SWAP1 POP JUMP JUMPDEST PUSH0 PUSH1 0x20 DUP3 ADD SWAP1 POP DUP2 DUP2 SUB PUSH0 DUP4 ADD MSTORE PUSH2 0x413A DUP2 PUSH2 0x4101 JUMP JUMPDEST SWAP1 POP SWAP2 SWAP1 POP JUMP JUMPDEST PUSH0 PUSH1 0x60 DUP3 ADD SWAP1 POP PUSH2 0x4154 PUSH0 DUP4 ADD DUP7 PUSH2 0x37E8 JUMP JUMPDEST PUSH2 0x4161 PUSH1 0x20 DUP4 ADD DUP6 PUSH2 0x37E8 JUMP JUMPDEST PUSH2 0x416E PUSH1 0x40 DUP4 ADD DUP5 PUSH2 0x31A3 JUMP JUMPDEST SWAP5 SWAP4 POP POP POP POP JUMP JUMPDEST PUSH32 0x5265656E7472616E637947756172643A207265656E7472616E742063616C6C00 PUSH0 DUP3 ADD MSTORE POP JUMP JUMPDEST PUSH0 PUSH2 0x41AA PUSH1 0x1F DUP4 PUSH2 0x3830 JUMP JUMPDEST SWAP2 POP PUSH2 0x41B5 DUP3 PUSH2 0x4176 JUMP JUMPDEST PUSH1 0x20 DUP3 ADD SWAP1 POP SWAP2 SWAP1 POP JUMP JUMPDEST PUSH0 PUSH1 0x20 DUP3 ADD SWAP1 POP DUP2 DUP2 SUB PUSH0 DUP4 ADD MSTORE PUSH2 0x41D7 DUP2 PUSH2 0x419E JUMP JUMPDEST SWAP1 POP SWAP2 SWAP1 POP JUMP JUMPDEST PUSH0 PUSH1 0x40 DUP3 ADD SWAP1 POP PUSH2 0x41F1 PUSH0 DUP4 ADD DUP6 PUSH2 0x37E8 JUMP JUMPDEST PUSH2 0x41FE PUSH1 0x20 DUP4 ADD DUP5 PUSH2 0x31A3 JUMP JUMPDEST SWAP4 SWAP3 POP POP POP JUMP JUMPDEST PUSH2 0x420E DUP2 PUSH2 0x3438 JUMP JUMPDEST DUP2 EQ PUSH2 0x4218 JUMPI PUSH0 PUSH0 REVERT JUMPDEST POP JUMP JUMPDEST PUSH0 DUP2 MLOAD SWAP1 POP PUSH2 0x4229 DUP2 PUSH2 0x4205 JUMP JUMPDEST SWAP3 SWAP2 POP POP JUMP JUMPDEST PUSH0 PUSH1 0x20 DUP3 DUP5 SUB SLT ISZERO PUSH2 0x4244 JUMPI PUSH2 0x4243 PUSH2 0x31D4 JUMP JUMPDEST JUMPDEST PUSH0 PUSH2 0x4251 DUP5 DUP3 DUP6 ADD PUSH2 0x421B JUMP JUMPDEST SWAP2 POP POP SWAP3 SWAP2 POP POP JUMP JUMPDEST PUSH0 PUSH0 REVERT JUMPDEST PUSH0 PUSH0 REVERT JUMPDEST PUSH2 0x426B DUP3 PUSH2 0x33F0 JUMP JUMPDEST DUP2 ADD DUP2 DUP2 LT PUSH8 0xFFFFFFFFFFFFFFFF DUP3 GT OR ISZERO PUSH2 0x428A JUMPI PUSH2 0x4289 PUSH2 0x4044 JUMP JUMPDEST JUMPDEST DUP1 PUSH1 0x40 MSTORE POP POP POP JUMP JUMPDEST PUSH0 PUSH2 0x429C PUSH2 0x31CB JUMP JUMPDEST SWAP1 POP PUSH2 0x42A8 DUP3 DUP3 PUSH2 0x4262 JUMP JUMPDEST SWAP2 SWAP1 POP JUMP JUMPDEST PUSH0 PUSH8 0xFFFFFFFFFFFFFFFF DUP3 GT ISZERO PUSH2 0x42C7 JUMPI PUSH2 0x42C6 PUSH2 0x4044 JUMP JUMPDEST JUMPDEST PUSH2 0x42D0 DUP3 PUSH2 0x33F0 JUMP JUMPDEST SWAP1 POP PUSH1 0x20 DUP2 ADD SWAP1 POP SWAP2 SWAP1 POP JUMP JUMPDEST PUSH0 PUSH2 0x42EF PUSH2 0x42EA DUP5 PUSH2 0x42AD JUMP JUMPDEST PUSH2 0x4293 JUMP JUMPDEST SWAP1 POP DUP3 DUP2 MSTORE PUSH1 0x20 DUP2 ADD DUP5 DUP5 DUP5 ADD GT ISZERO PUSH2 0x430B JUMPI PUSH2 0x430A PUSH2 0x425E JUMP JUMPDEST JUMPDEST PUSH2 0x4316 DUP5 DUP3 DUP6 PUSH2 0x33E2 JUMP JUMPDEST POP SWAP4 SWAP3 POP POP POP JUMP JUMPDEST PUSH0 DUP3 PUSH1 0x1F DUP4 ADD SLT PUSH2 0x4332 JUMPI PUSH2 0x4331 PUSH2 0x425A JUMP JUMPDEST JUMPDEST DUP2 MLOAD PUSH2 0x4342 DUP5 DUP3 PUSH1 0x20 DUP7 ADD PUSH2 0x42DD JUMP JUMPDEST SWAP2 POP POP SWAP3 SWAP2 POP POP JUMP JUMPDEST PUSH0 PUSH1 0x20 DUP3 DUP5 SUB SLT ISZERO PUSH2 0x4360 JUMPI PUSH2 0x435F PUSH2 0x31D4 JUMP JUMPDEST JUMPDEST PUSH0 DUP3 ADD MLOAD PUSH8 0xFFFFFFFFFFFFFFFF DUP2 GT ISZERO PUSH2 0x437D JUMPI PUSH2 0x437C PUSH2 0x31D8 JUMP JUMPDEST JUMPDEST PUSH2 0x4389 DUP5 DUP3 DUP6 ADD PUSH2 0x431E JUMP JUMPDEST SWAP2 POP POP SWAP3 SWAP2 POP POP JUMP JUMPDEST PUSH0 PUSH1 0x40 DUP3 ADD SWAP1 POP PUSH2 0x43A5 PUSH0 DUP4 ADD DUP6 PUSH2 0x37E8 JUMP JUMPDEST PUSH2 0x43B2 PUSH1 0x20 DUP4 ADD DUP5 PUSH2 0x3575 JUMP JUMPDEST SWAP4 SWAP3 POP POP POP JUMP JUMPDEST PUSH0 DUP2 SWAP1 POP DUP2 PUSH0 MSTORE PUSH1 0x20 PUSH0 KECCAK256 SWAP1 POP SWAP2 SWAP1 POP JUMP JUMPDEST PUSH0 PUSH1 0x20 PUSH1 0x1F DUP4 ADD DIV SWAP1 POP SWAP2 SWAP1 POP JUMP JUMPDEST PUSH0 DUP3 DUP3 SHL SWAP1 POP SWAP3 SWAP2 POP POP JUMP JUMPDEST PUSH0 PUSH1 0x8 DUP4 MUL PUSH2 0x4415 PUSH32 0xFFFFFFFFFFFFFFFFFFFFFFFFFFFFFFFFFFFFFFFFFFFFFFFFFFFFFFFFFFFFFFFF DUP3 PUSH2 0x43DA JUMP JUMPDEST PUSH2 0x441F DUP7 DUP4 PUSH2 0x43DA JUMP JUMPDEST SWAP6 POP DUP1 NOT DUP5 AND SWAP4 POP DUP1 DUP7 AND DUP5 OR SWAP3 POP POP POP SWAP4 SWAP3 POP POP POP JUMP JUMPDEST PUSH0 DUP2 SWAP1 POP SWAP2 SWAP1 POP JUMP JUMPDEST PUSH0 PUSH2 0x445A PUSH2 0x4455 PUSH2 0x4450 DUP5 PUSH2 0x313A JUMP JUMPDEST PUSH2 0x4437 JUMP JUMPDEST PUSH2 0x313A JUMP JUMPDEST SWAP1 POP SWAP2 SWAP1 POP JUMP JUMPDEST PUSH0 DUP2 SWAP1 POP SWAP2 SWAP1 POP JUMP JUMPDEST PUSH2 0x4473 DUP4 PUSH2 0x4440 JUMP JUMPDEST PUSH2 0x4487 PUSH2 0x447F DUP3 PUSH2 0x4461 JUMP JUMPDEST DUP5 DUP5 SLOAD PUSH2 0x43E6 JUMP JUMPDEST DUP3 SSTORE POP POP POP POP JUMP JUMPDEST PUSH0 PUSH0 SWAP1 POP SWAP1 JUMP JUMPDEST PUSH2 0x449E PUSH2 0x448F JUMP JUMPDEST PUSH2 0x44A9 DUP2 DUP5 DUP5 PUSH2 0x446A JUMP JUMPDEST POP POP POP JUMP JUMPDEST JUMPDEST DUP2 DUP2 LT ISZERO PUSH2 0x44CC JUMPI PUSH2 0x44C1 PUSH0 DUP3 PUSH2 0x4496 JUMP JUMPDEST PUSH1 0x1 DUP2 ADD SWAP1 POP PUSH2 0x44AF JUMP JUMPDEST POP POP JUMP JUMPDEST PUSH1 0x1F DUP3 GT ISZERO PUSH2 0x4511 JUMPI PUSH2 0x44E2 DUP2 PUSH2 0x43B9 JUMP JUMPDEST PUSH2 0x44EB DUP5 PUSH2 0x43CB JUMP JUMPDEST DUP2 ADD PUSH1 0x20 DUP6 LT ISZERO PUSH2 0x44FA JUMPI DUP2 SWAP1 POP JUMPDEST PUSH2 0x450E PUSH2 0x4506 DUP6 PUSH2 0x43CB JUMP JUMPDEST DUP4 ADD DUP3 PUSH2 0x44AE JUMP JUMPDEST POP POP JUMPDEST POP POP POP JUMP JUMPDEST PUSH0 DUP3 DUP3 SHR SWAP1 POP SWAP3 SWAP2 POP POP JUMP JUMPDEST PUSH0 PUSH2 0x4531 PUSH0 NOT DUP5 PUSH1 0x8 MUL PUSH2 0x4516 JUMP JUMPDEST NOT DUP1 DUP4 AND SWAP2 POP POP SWAP3 SWAP2 POP POP JUMP JUMPDEST PUSH0 PUSH2 0x4549 DUP4 DUP4 PUSH2 0x4522 JUMP JUMPDEST SWAP2 POP DUP3 PUSH1 0x2 MUL DUP3 OR SWAP1 POP SWAP3 SWAP2 POP POP JUMP JUMPDEST PUSH2 0x4562 DUP3 PUSH2 0x33C8 JUMP JUMPDEST PUSH8 0xFFFFFFFFFFFFFFFF DUP2 GT ISZERO PUSH2 0x457B JUMPI PUSH2 0x457A PUSH2 0x4044 JUMP JUMPDEST JUMPDEST PUSH2 0x4585 DUP3 SLOAD PUSH2 0x3D24 JUMP JUMPDEST PUSH2 0x4590 DUP3 DUP3 DUP6 PUSH2 0x44D0 JUMP JUMPDEST PUSH0 PUSH1 0x20 SWAP1 POP PUSH1 0x1F DUP4 GT PUSH1 0x1 DUP2 EQ PUSH2 0x45C1 JUMPI PUSH0 DUP5 ISZERO PUSH2 0x45AF JUMPI DUP3 DUP8 ADD MLOAD SWAP1 POP JUMPDEST PUSH2 0x45B9 DUP6 DUP3 PUSH2 0x453E JUMP JUMPDEST DUP7 SSTORE POP PUSH2 0x4620 JUMP JUMPDEST PUSH1 0x1F NOT DUP5 AND PUSH2 0x45CF DUP7 PUSH2 0x43B9 JUMP JUMPDEST PUSH0 JUMPDEST DUP3 DUP2 LT ISZERO PUSH2 0x45F6 JUMPI DUP5 DUP10 ADD MLOAD DUP3 SSTORE PUSH1 0x1 DUP3 ADD SWAP2 POP PUSH1 0x20 DUP6 ADD SWAP5 POP PUSH1 0x20 DUP2 ADD SWAP1 POP PUSH2 0x45D1 JUMP JUMPDEST DUP7 DUP4 LT ISZERO PUSH2 0x4613 JUMPI DUP5 DUP10 ADD MLOAD PUSH2 0x460F PUSH1 0x1F DUP10 AND DUP3 PUSH2 0x4522 JUMP JUMPDEST DUP4 SSTORE POP JUMPDEST PUSH1 0x1 PUSH1 0x2 DUP9 MUL ADD DUP9 SSTORE POP POP POP JUMPDEST POP POP POP POP POP POP JUMP JUMPDEST PUSH0 PUSH1 0x40 DUP3 ADD SWAP1 POP DUP2 DUP2 SUB PUSH0 DUP4 ADD MSTORE PUSH2 0x4640 DUP2 DUP6 PUSH2 0x3840 JUMP JUMPDEST SWAP1 POP PUSH2 0x464F PUSH1 0x20 DUP4 ADD DUP5 PUSH2 0x3878 JUMP JUMPDEST SWAP4 SWAP3 POP POP POP JUMP INVALID LOG2 PUSH5 0x6970667358 0x22 SLT KECCAK256 PUSH1 0x75 DUP2 PUSH18 0x40FD1BF69B6D21B5DD0336DE986AECE2520 DUP15 0xA9 0xB5 0xD8 SWAP2 0xCB PUSH8 0xFDBC6664736F6C63 NUMBER STOP ADDMOD 0x1E STOP CALLER PUSH1 0x80 PUSH1 0x40 MSTORE PUSH1 0x3 PUSH1 0xB SSTORE PUSH2 0xE10 PUSH1 0xC SSTORE PUSH1 0x1 PUSH1 0xD PUSH0 PUSH2 0x100 EXP DUP2 SLOAD DUP2 PUSH1 0xFF MUL NOT AND SWAP1 DUP4 ISZERO ISZERO MUL OR SWAP1 SSTORE POP CALLVALUE DUP1 ISZERO PUSH2 0x34 JUMPI PUSH0 PUSH0 REVERT JUMPDEST POP PUSH1 0x40 MLOAD PUSH2 0x82A3 CODESIZE SUB DUP1 PUSH2 0x82A3 DUP4 CODECOPY DUP2 DUP2 ADD PUSH1 0x40 MSTORE DUP2 ADD SWAP1 PUSH2 0x56 SWAP2 SWAP1 PUSH2 0x101 JUMP JUMPDEST PUSH1 0x1 DUP1 DUP2 SWAP1 SSTORE POP DUP1 PUSH1 0x2 PUSH0 PUSH2 0x100 EXP DUP2 SLOAD DUP2 PUSH20 0xFFFFFFFFFFFFFFFFFFFFFFFFFFFFFFFFFFFFFFFF MUL NOT AND SWAP1 DUP4 PUSH20 0xFFFFFFFFFFFFFFFFFFFFFFFFFFFFFFFFFFFFFFFF AND MUL OR SWAP1 SSTORE POP POP PUSH2 0x12C JUMP JUMPDEST PUSH0 PUSH0 REVERT JUMPDEST PUSH0 PUSH20 0xFFFFFFFFFFFFFFFFFFFFFFFFFFFFFFFFFFFFFFFF DUP3 AND SWAP1 POP SWAP2 SWAP1 POP JUMP JUMPDEST PUSH0 PUSH2 0xD0 DUP3 PUSH2 0xA7 JUMP JUMPDEST SWAP1 POP SWAP2 SWAP1 POP JUMP JUMPDEST PUSH2 0xE0 DUP2 PUSH2 0xC6 JUMP JUMPDEST DUP2 EQ PUSH2 0xEA JUMPI PUSH0 PUSH0 REVERT JUMPDEST POP JUMP JUMPDEST PUSH0 DUP2 MLOAD SWAP1 POP PUSH2 0xFB DUP2 PUSH2 0xD7 JUMP JUMPDEST SWAP3 SWAP2 POP POP JUMP JUMPDEST PUSH0 PUSH1 0x20 DUP3 DUP5 SUB SLT ISZERO PUSH2 0x116 JUMPI PUSH2 0x115 PUSH2 0xA3 JUMP JUMPDEST JUMPDEST PUSH0 PUSH2 0x123 DUP5 DUP3 DUP6 ADD PUSH2 0xED JUMP JUMPDEST SWAP2 POP POP SWAP3 SWAP2 POP POP JUMP JUMPDEST PUSH2 0x816A DUP1 PUSH2 0x139 PUSH0 CODECOPY PUSH0 RETURN INVALID PUSH1 0x80 PUSH1 0x40 MSTORE CALLVALUE DUP1 ISZERO PUSH2 0xF JUMPI PUSH0 PUSH0 REVERT JUMPDEST POP PUSH1 0x4 CALLDATASIZE LT PUSH2 0x246 JUMPI PUSH0 CALLDATALOAD PUSH1 0xE0 SHR DUP1 PUSH4 0x80344C24 GT PUSH2 0x139 JUMPI DUP1 PUSH4 0xADE77AD3 GT PUSH2 0xB6 JUMPI DUP1 PUSH4 0xD547741F GT PUSH2 0x7A JUMPI DUP1 PUSH4 0xD547741F EQ PUSH2 0x74F JUMPI DUP1 PUSH4 0xD7E0E541 EQ PUSH2 0x76B JUMPI DUP1 PUSH4 0xE4DD015A EQ PUSH2 0x787 JUMPI DUP1 PUSH4 0xF649EC87 EQ PUSH2 0x7B7 JUMPI DUP1 PUSH4 0xFB511477 EQ PUSH2 0x7D5 JUMPI PUSH2 0x246 JUMP JUMPDEST DUP1 PUSH4 0xADE77AD3 EQ PUSH2 0x699 JUMPI DUP1 PUSH4 0xB9EE6E55 EQ PUSH2 0x6B5 JUMPI DUP1 PUSH4 0xBBD8ACBE EQ PUSH2 0x6D1 JUMPI DUP1 PUSH4 0xC1D446BE EQ PUSH2 0x6EF JUMPI DUP1 PUSH4 0xC7D20E1B EQ PUSH2 0x71F JUMPI PUSH2 0x246 JUMP JUMPDEST DUP1 PUSH4 0x9B101F9A GT PUSH2 0xFD JUMPI DUP1 PUSH4 0x9B101F9A EQ PUSH2 0x5EA JUMPI DUP1 PUSH4 0xA1C7C1A6 EQ PUSH2 0x61A JUMPI DUP1 PUSH4 0xA217FDDF EQ PUSH2 0x638 JUMPI DUP1 PUSH4 0xA5E047B8 EQ PUSH2 0x656 JUMPI DUP1 PUSH4 0xACEFC3E7 EQ PUSH2 0x68F JUMPI PUSH2 0x246 JUMP JUMPDEST DUP1 PUSH4 0x80344C24 EQ PUSH2 0x52B JUMPI DUP1 PUSH4 0x89E482CE EQ PUSH2 0x547 JUMPI DUP1 PUSH4 0x8B5A3853 EQ PUSH2 0x565 JUMPI DUP1 PUSH4 0x8D7D2BD7 EQ PUSH2 0x59E JUMPI DUP1 PUSH4 0x91D14854 EQ PUSH2 0x5BA JUMPI PUSH2 0x246 JUMP JUMPDEST DUP1 PUSH4 0x349B5954 GT PUSH2 0x1C7 JUMPI DUP1 PUSH4 0x708F29A6 GT PUSH2 0x18B JUMPI DUP1 PUSH4 0x708F29A6 EQ PUSH2 0x473 JUMPI DUP1 PUSH4 0x75B238FC EQ PUSH2 0x491 JUMPI DUP1 PUSH4 0x7A08A7F9 EQ PUSH2 0x4AF JUMPI DUP1 PUSH4 0x7CB2B79C EQ PUSH2 0x4DF JUMPI DUP1 PUSH4 0x7DA2BA7C EQ PUSH2 0x4FB JUMPI PUSH2 0x246 JUMP JUMPDEST DUP1 PUSH4 0x349B5954 EQ PUSH2 0x3E5 JUMPI DUP1 PUSH4 0x36568ABE EQ PUSH2 0x403 JUMPI DUP1 PUSH4 0x460515A1 EQ PUSH2 0x41F JUMPI DUP1 PUSH4 0x526777E9 EQ PUSH2 0x43B JUMPI DUP1 PUSH4 0x59502D1F EQ PUSH2 0x457 JUMPI PUSH2 0x246 JUMP JUMPDEST DUP1 PUSH4 0x248A9CA3 GT PUSH2 0x20E JUMPI DUP1 PUSH4 0x248A9CA3 EQ PUSH2 0x31B JUMPI DUP1 PUSH4 0x2A709B14 EQ PUSH2 0x34B JUMPI DUP1 PUSH4 0x2F2FF15D EQ PUSH2 0x369 JUMPI DUP1 PUSH4 0x2FCEF5CC EQ PUSH2 0x385 JUMPI DUP1 PUSH4 0x315873FF EQ PUSH2 0x3B5 JUMPI PUSH2 0x246 JUMP JUMPDEST DUP1 PUSH4 0x1FFC9A7 EQ PUSH2 0x24A JUMPI DUP1 PUSH4 0x921224B EQ PUSH2 0x27A JUMPI DUP1 PUSH4 0x1457A872 EQ PUSH2 0x298 JUMPI DUP1 PUSH4 0x153244E6 EQ PUSH2 0x2CD JUMPI DUP1 PUSH4 0x1ACF39BF EQ PUSH2 0x2FD JUMPI JUMPDEST PUSH0 PUSH0 REVERT JUMPDEST PUSH2 0x264 PUSH1 0x4 DUP1 CALLDATASIZE SUB DUP2 ADD SWAP1 PUSH2 0x25F SWAP2 SWAP1 PUSH2 0x5DBA JUMP JUMPDEST PUSH2 0x7F3 JUMP JUMPDEST PUSH1 0x40 MLOAD PUSH2 0x271 SWAP2 SWAP1 PUSH2 0x5DFF JUMP JUMPDEST PUSH1 0x40 MLOAD DUP1 SWAP2 SUB SWAP1 RETURN JUMPDEST PUSH2 0x282 PUSH2 0x86C JUMP JUMPDEST PUSH1 0x40 MLOAD PUSH2 0x28F SWAP2 SWAP1 PUSH2 0x5E92 JUMP JUMPDEST PUSH1 0x40 MLOAD DUP1 SWAP2 SUB SWAP1 RETURN JUMPDEST PUSH2 0x2B2 PUSH1 0x4 DUP1 CALLDATASIZE SUB DUP2 ADD SWAP1 PUSH2 0x2AD SWAP2 SWAP1 PUSH2 0x5EDE JUMP JUMPDEST PUSH2 0x891 JUMP JUMPDEST PUSH1 0x40 MLOAD PUSH2 0x2C4 SWAP7 SWAP6 SWAP5 SWAP4 SWAP3 SWAP2 SWAP1 PUSH2 0x5FAB JUMP JUMPDEST PUSH1 0x40 MLOAD DUP1 SWAP2 SUB SWAP1 RETURN JUMPDEST PUSH2 0x2E7 PUSH1 0x4 DUP1 CALLDATASIZE SUB DUP2 ADD SWAP1 PUSH2 0x2E2 SWAP2 SWAP1 PUSH2 0x6034 JUMP JUMPDEST PUSH2 0x93E JUMP JUMPDEST PUSH1 0x40 MLOAD PUSH2 0x2F4 SWAP2 SWAP1 PUSH2 0x605F JUMP JUMPDEST PUSH1 0x40 MLOAD DUP1 SWAP2 SUB SWAP1 RETURN JUMPDEST PUSH2 0x305 PUSH2 0x953 JUMP JUMPDEST PUSH1 0x40 MLOAD PUSH2 0x312 SWAP2 SWAP1 PUSH2 0x5DFF JUMP JUMPDEST PUSH1 0x40 MLOAD DUP1 SWAP2 SUB SWAP1 RETURN JUMPDEST PUSH2 0x335 PUSH1 0x4 DUP1 CALLDATASIZE SUB DUP2 ADD SWAP1 PUSH2 0x330 SWAP2 SWAP1 PUSH2 0x60AB JUMP JUMPDEST PUSH2 0x965 JUMP JUMPDEST PUSH1 0x40 MLOAD PUSH2 0x342 SWAP2 SWAP1 PUSH2 0x60E5 JUMP JUMPDEST PUSH1 0x40 MLOAD DUP1 SWAP2 SUB SWAP1 RETURN JUMPDEST PUSH2 0x353 PUSH2 0x981 JUMP JUMPDEST PUSH1 0x40 MLOAD PUSH2 0x360 SWAP2 SWAP1 PUSH2 0x612F JUMP JUMPDEST PUSH1 0x40 MLOAD DUP1 SWAP2 SUB SWAP1 RETURN JUMPDEST PUSH2 0x383 PUSH1 0x4 DUP1 CALLDATASIZE SUB DUP2 ADD SWAP1 PUSH2 0x37E SWAP2 SWAP1 PUSH2 0x6148 JUMP JUMPDEST PUSH2 0x9A6 JUMP JUMPDEST STOP JUMPDEST PUSH2 0x39F PUSH1 0x4 DUP1 CALLDATASIZE SUB DUP2 ADD SWAP1 PUSH2 0x39A SWAP2 SWAP1 PUSH2 0x5EDE JUMP JUMPDEST PUSH2 0x9C8 JUMP JUMPDEST PUSH1 0x40 MLOAD PUSH2 0x3AC SWAP2 SWAP1 PUSH2 0x63C6 JUMP JUMPDEST PUSH1 0x40 MLOAD DUP1 SWAP2 SUB SWAP1 RETURN JUMPDEST PUSH2 0x3CF PUSH1 0x4 DUP1 CALLDATASIZE SUB DUP2 ADD SWAP1 PUSH2 0x3CA SWAP2 SWAP1 PUSH2 0x6409 JUMP JUMPDEST PUSH2 0xC4F JUMP JUMPDEST PUSH1 0x40 MLOAD PUSH2 0x3DC SWAP2 SWAP1 PUSH2 0x5DFF JUMP JUMPDEST PUSH1 0x40 MLOAD DUP1 SWAP2 SUB SWAP1 RETURN JUMPDEST PUSH2 0x3ED PUSH2 0x14DC JUMP JUMPDEST PUSH1 0x40 MLOAD PUSH2 0x3FA SWAP2 SWAP1 PUSH2 0x60E5 JUMP JUMPDEST PUSH1 0x40 MLOAD DUP1 SWAP2 SUB SWAP1 RETURN JUMPDEST PUSH2 0x41D PUSH1 0x4 DUP1 CALLDATASIZE SUB DUP2 ADD SWAP1 PUSH2 0x418 SWAP2 SWAP1 PUSH2 0x6148 JUMP JUMPDEST PUSH2 0x1500 JUMP JUMPDEST STOP JUMPDEST PUSH2 0x439 PUSH1 0x4 DUP1 CALLDATASIZE SUB DUP2 ADD SWAP1 PUSH2 0x434 SWAP2 SWAP1 PUSH2 0x6034 JUMP JUMPDEST PUSH2 0x157B JUMP JUMPDEST STOP JUMPDEST PUSH2 0x455 PUSH1 0x4 DUP1 CALLDATASIZE SUB DUP2 ADD SWAP1 PUSH2 0x450 SWAP2 SWAP1 PUSH2 0x5EDE JUMP JUMPDEST PUSH2 0x164D JUMP JUMPDEST STOP JUMPDEST PUSH2 0x471 PUSH1 0x4 DUP1 CALLDATASIZE SUB DUP2 ADD SWAP1 PUSH2 0x46C SWAP2 SWAP1 PUSH2 0x5EDE JUMP JUMPDEST PUSH2 0x23E2 JUMP JUMPDEST STOP JUMPDEST PUSH2 0x47B PUSH2 0x25A8 JUMP JUMPDEST PUSH1 0x40 MLOAD PUSH2 0x488 SWAP2 SWAP1 PUSH2 0x605F JUMP JUMPDEST PUSH1 0x40 MLOAD DUP1 SWAP2 SUB SWAP1 RETURN JUMPDEST PUSH2 0x499 PUSH2 0x25B4 JUMP JUMPDEST PUSH1 0x40 MLOAD PUSH2 0x4A6 SWAP2 SWAP1 PUSH2 0x60E5 JUMP JUMPDEST PUSH1 0x40 MLOAD DUP1 SWAP2 SUB SWAP1 RETURN JUMPDEST PUSH2 0x4C9 PUSH1 0x4 DUP1 CALLDATASIZE SUB DUP2 ADD SWAP1 PUSH2 0x4C4 SWAP2 SWAP1 PUSH2 0x667D JUMP JUMPDEST PUSH2 0x25D8 JUMP JUMPDEST PUSH1 0x40 MLOAD PUSH2 0x4D6 SWAP2 SWAP1 PUSH2 0x605F JUMP JUMPDEST PUSH1 0x40 MLOAD DUP1 SWAP2 SUB SWAP1 RETURN JUMPDEST PUSH2 0x4F9 PUSH1 0x4 DUP1 CALLDATASIZE SUB DUP2 ADD SWAP1 PUSH2 0x4F4 SWAP2 SWAP1 PUSH2 0x6754 JUMP JUMPDEST PUSH2 0x2A93 JUMP JUMPDEST STOP JUMPDEST PUSH2 0x515 PUSH1 0x4 DUP1 CALLDATASIZE SUB DUP2 ADD SWAP1 PUSH2 0x510 SWAP2 SWAP1 PUSH2 0x6034 JUMP JUMPDEST PUSH2 0x2B65 JUMP JUMPDEST PUSH1 0x40 MLOAD PUSH2 0x522 SWAP2 SWAP1 PUSH2 0x69BE JUMP JUMPDEST PUSH1 0x40 MLOAD DUP1 SWAP2 SUB SWAP1 RETURN JUMPDEST PUSH2 0x545 PUSH1 0x4 DUP1 CALLDATASIZE SUB DUP2 ADD SWAP1 PUSH2 0x540 SWAP2 SWAP1 PUSH2 0x5EDE JUMP JUMPDEST PUSH2 0x2E65 JUMP JUMPDEST STOP JUMPDEST PUSH2 0x54F PUSH2 0x3533 JUMP JUMPDEST PUSH1 0x40 MLOAD PUSH2 0x55C SWAP2 SWAP1 PUSH2 0x605F JUMP JUMPDEST PUSH1 0x40 MLOAD DUP1 SWAP2 SUB SWAP1 RETURN JUMPDEST PUSH2 0x57F PUSH1 0x4 DUP1 CALLDATASIZE SUB DUP2 ADD SWAP1 PUSH2 0x57A SWAP2 SWAP1 PUSH2 0x69DE JUMP JUMPDEST PUSH2 0x353F JUMP JUMPDEST PUSH1 0x40 MLOAD PUSH2 0x595 SWAP11 SWAP10 SWAP9 SWAP8 SWAP7 SWAP6 SWAP5 SWAP4 SWAP3 SWAP2 SWAP1 PUSH2 0x6A73 JUMP JUMPDEST PUSH1 0x40 MLOAD DUP1 SWAP2 SUB SWAP1 RETURN JUMPDEST PUSH2 0x5B8 PUSH1 0x4 DUP1 CALLDATASIZE SUB DUP2 ADD SWAP1 PUSH2 0x5B3 SWAP2 SWAP1 PUSH2 0x5EDE JUMP JUMPDEST PUSH2 0x370C JUMP JUMPDEST STOP JUMPDEST PUSH2 0x5D4 PUSH1 0x4 DUP1 CALLDATASIZE SUB DUP2 ADD SWAP1 PUSH2 0x5CF SWAP2 SWAP1 PUSH2 0x6148 JUMP JUMPDEST PUSH2 0x38D2 JUMP JUMPDEST PUSH1 0x40 MLOAD PUSH2 0x5E1 SWAP2 SWAP1 PUSH2 0x5DFF JUMP JUMPDEST PUSH1 0x40 MLOAD DUP1 SWAP2 SUB SWAP1 RETURN JUMPDEST PUSH2 0x604 PUSH1 0x4 DUP1 CALLDATASIZE SUB DUP2 ADD SWAP1 PUSH2 0x5FF SWAP2 SWAP1 PUSH2 0x6034 JUMP JUMPDEST PUSH2 0x3935 JUMP JUMPDEST PUSH1 0x40 MLOAD PUSH2 0x611 SWAP2 SWAP1 PUSH2 0x605F JUMP JUMPDEST PUSH1 0x40 MLOAD DUP1 SWAP2 SUB SWAP1 RETURN JUMPDEST PUSH2 0x622 PUSH2 0x397B JUMP JUMPDEST PUSH1 0x40 MLOAD PUSH2 0x62F SWAP2 SWAP1 PUSH2 0x6B1B JUMP JUMPDEST PUSH1 0x40 MLOAD DUP1 SWAP2 SUB SWAP1 RETURN JUMPDEST PUSH2 0x640 PUSH2 0x39A0 JUMP JUMPDEST PUSH1 0x40 MLOAD PUSH2 0x64D SWAP2 SWAP1 PUSH2 0x60E5 JUMP JUMPDEST PUSH1 0x40 MLOAD DUP1 SWAP2 SUB SWAP1 RETURN JUMPDEST PUSH2 0x670 PUSH1 0x4 DUP1 CALLDATASIZE SUB DUP2 ADD SWAP1 PUSH2 0x66B SWAP2 SWAP1 PUSH2 0x5EDE JUMP JUMPDEST PUSH2 0x39A6 JUMP JUMPDEST PUSH1 0x40 MLOAD PUSH2 0x686 SWAP11 SWAP10 SWAP9 SWAP8 SWAP7 SWAP6 SWAP5 SWAP4 SWAP3 SWAP2 SWAP1 PUSH2 0x6A73 JUMP JUMPDEST PUSH1 0x40 MLOAD DUP1 SWAP2 SUB SWAP1 RETURN JUMPDEST PUSH2 0x697 PUSH2 0x3B68 JUMP JUMPDEST STOP JUMPDEST PUSH2 0x6B3 PUSH1 0x4 DUP1 CALLDATASIZE SUB DUP2 ADD SWAP1 PUSH2 0x6AE SWAP2 SWAP1 PUSH2 0x6034 JUMP JUMPDEST PUSH2 0x3FA5 JUMP JUMPDEST STOP JUMPDEST PUSH2 0x6CF PUSH1 0x4 DUP1 CALLDATASIZE SUB DUP2 ADD SWAP1 PUSH2 0x6CA SWAP2 SWAP1 PUSH2 0x5EDE JUMP JUMPDEST PUSH2 0x4077 JUMP JUMPDEST STOP JUMPDEST PUSH2 0x6D9 PUSH2 0x4434 JUMP JUMPDEST PUSH1 0x40 MLOAD PUSH2 0x6E6 SWAP2 SWAP1 PUSH2 0x605F JUMP JUMPDEST PUSH1 0x40 MLOAD DUP1 SWAP2 SUB SWAP1 RETURN JUMPDEST PUSH2 0x709 PUSH1 0x4 DUP1 CALLDATASIZE SUB DUP2 ADD SWAP1 PUSH2 0x704 SWAP2 SWAP1 PUSH2 0x5EDE JUMP JUMPDEST PUSH2 0x443A JUMP JUMPDEST PUSH1 0x40 MLOAD PUSH2 0x716 SWAP2 SWAP1 PUSH2 0x6C12 JUMP JUMPDEST PUSH1 0x40 MLOAD DUP1 SWAP2 SUB SWAP1 RETURN JUMPDEST PUSH2 0x739 PUSH1 0x4 DUP1 CALLDATASIZE SUB DUP2 ADD SWAP1 PUSH2 0x734 SWAP2 SWAP1 PUSH2 0x6C32 JUMP JUMPDEST PUSH2 0x4722 JUMP JUMPDEST PUSH1 0x40 MLOAD PUSH2 0x746 SWAP2 SWAP1 PUSH2 0x605F JUMP JUMPDEST PUSH1 0x40 MLOAD DUP1 SWAP2 SUB SWAP1 RETURN JUMPDEST PUSH2 0x769 PUSH1 0x4 DUP1 CALLDATASIZE SUB DUP2 ADD SWAP1 PUSH2 0x764 SWAP2 SWAP1 PUSH2 0x6148 JUMP JUMPDEST PUSH2 0x47C9 JUMP JUMPDEST STOP JUMPDEST PUSH2 0x785 PUSH1 0x4 DUP1 CALLDATASIZE SUB DUP2 ADD SWAP1 PUSH2 0x780 SWAP2 SWAP1 PUSH2 0x6CAC JUMP JUMPDEST PUSH2 0x47EB JUMP JUMPDEST STOP JUMPDEST PUSH2 0x7A1 PUSH1 0x4 DUP1 CALLDATASIZE SUB DUP2 ADD SWAP1 PUSH2 0x79C SWAP2 SWAP1 PUSH2 0x5EDE JUMP JUMPDEST PUSH2 0x49C3 JUMP JUMPDEST PUSH1 0x40 MLOAD PUSH2 0x7AE SWAP2 SWAP1 PUSH2 0x5DFF JUMP JUMPDEST PUSH1 0x40 MLOAD DUP1 SWAP2 SUB SWAP1 RETURN JUMPDEST PUSH2 0x7BF PUSH2 0x49E0 JUMP JUMPDEST PUSH1 0x40 MLOAD PUSH2 0x7CC SWAP2 SWAP1 PUSH2 0x6CF7 JUMP JUMPDEST PUSH1 0x40 MLOAD DUP1 SWAP2 SUB SWAP1 RETURN JUMPDEST PUSH2 0x7DD PUSH2 0x4A05 JUMP JUMPDEST PUSH1 0x40 MLOAD PUSH2 0x7EA SWAP2 SWAP1 PUSH2 0x605F JUMP JUMPDEST PUSH1 0x40 MLOAD DUP1 SWAP2 SUB SWAP1 RETURN JUMPDEST PUSH0 PUSH32 0x7965DB0B00000000000000000000000000000000000000000000000000000000 PUSH28 0xFFFFFFFFFFFFFFFFFFFFFFFFFFFFFFFFFFFFFFFFFFFFFFFFFFFFFFFF NOT AND DUP3 PUSH28 0xFFFFFFFFFFFFFFFFFFFFFFFFFFFFFFFFFFFFFFFFFFFFFFFFFFFFFFFF NOT AND EQ DUP1 PUSH2 0x865 JUMPI POP PUSH2 0x864 DUP3 PUSH2 0x4A0B JUMP JUMPDEST JUMPDEST SWAP1 POP SWAP2 SWAP1 POP JUMP JUMPDEST PUSH1 0x5 PUSH0 SWAP1 SLOAD SWAP1 PUSH2 0x100 EXP SWAP1 DIV PUSH20 0xFFFFFFFFFFFFFFFFFFFFFFFFFFFFFFFFFFFFFFFF AND DUP2 JUMP JUMPDEST PUSH1 0x9 DUP2 DUP2 SLOAD DUP2 LT PUSH2 0x8A0 JUMPI PUSH0 DUP1 REVERT JUMPDEST SWAP1 PUSH0 MSTORE PUSH1 0x20 PUSH0 KECCAK256 SWAP1 PUSH1 0x5 MUL ADD PUSH0 SWAP2 POP SWAP1 POP DUP1 PUSH1 0x1 ADD PUSH0 SWAP1 SLOAD SWAP1 PUSH2 0x100 EXP SWAP1 DIV PUSH20 0xFFFFFFFFFFFFFFFFFFFFFFFFFFFFFFFFFFFFFFFF AND SWAP1 DUP1 PUSH1 0x3 ADD PUSH0 SWAP1 SLOAD SWAP1 PUSH2 0x100 EXP SWAP1 DIV PUSH1 0xFF AND SWAP1 DUP1 PUSH1 0x3 ADD PUSH1 0x1 SWAP1 SLOAD SWAP1 PUSH2 0x100 EXP SWAP1 DIV PUSH1 0xFF AND SWAP1 DUP1 PUSH1 0x3 ADD PUSH1 0x2 SWAP1 SLOAD SWAP1 PUSH2 0x100 EXP SWAP1 DIV PUSH1 0xFF AND SWAP1 DUP1 PUSH1 0x3 ADD PUSH1 0x3 SWAP1 SLOAD SWAP1 PUSH2 0x100 EXP SWAP1 DIV PUSH20 0xFFFFFFFFFFFFFFFFFFFFFFFFFFFFFFFFFFFFFFFF AND SWAP1 DUP1 PUSH1 0x4 ADD SLOAD SWAP1 POP DUP7 JUMP JUMPDEST PUSH1 0x8 PUSH1 0x20 MSTORE DUP1 PUSH0 MSTORE PUSH1 0x40 PUSH0 KECCAK256 PUSH0 SWAP2 POP SWAP1 POP SLOAD DUP2 JUMP JUMPDEST PUSH1 0xD PUSH0 SWAP1 SLOAD SWAP1 PUSH2 0x100 EXP SWAP1 DIV PUSH1 0xFF AND DUP2 JUMP JUMPDEST PUSH0 PUSH0 PUSH0 DUP4 DUP2 MSTORE PUSH1 0x20 ADD SWAP1 DUP2 MSTORE PUSH1 0x20 ADD PUSH0 KECCAK256 PUSH1 0x1 ADD SLOAD SWAP1 POP SWAP2 SWAP1 POP JUMP JUMPDEST PUSH1 0x4 PUSH0 SWAP1 SLOAD SWAP1 PUSH2 0x100 EXP SWAP1 DIV PUSH20 0xFFFFFFFFFFFFFFFFFFFFFFFFFFFFFFFFFFFFFFFF AND DUP2 JUMP JUMPDEST PUSH2 0x9AF DUP3 PUSH2 0x965 JUMP JUMPDEST PUSH2 0x9B8 DUP2 PUSH2 0x4A74 JUMP JUMPDEST PUSH2 0x9C2 DUP4 DUP4 PUSH2 0x4A88 JUMP JUMPDEST POP POP POP POP JUMP JUMPDEST PUSH2 0x9D0 PUSH2 0x5B4B JUMP JUMPDEST PUSH1 0x9 DUP1 SLOAD SWAP1 POP DUP3 LT PUSH2 0xA17 JUMPI PUSH1 0x40 MLOAD PUSH32 0x8C379A000000000000000000000000000000000000000000000000000000000 DUP2 MSTORE PUSH1 0x4 ADD PUSH2 0xA0E SWAP1 PUSH2 0x6D5A JUMP JUMPDEST PUSH1 0x40 MLOAD DUP1 SWAP2 SUB SWAP1 REVERT JUMPDEST PUSH1 0x9 DUP3 DUP2 SLOAD DUP2 LT PUSH2 0xA2B JUMPI PUSH2 0xA2A PUSH2 0x6D78 JUMP JUMPDEST JUMPDEST SWAP1 PUSH0 MSTORE PUSH1 0x20 PUSH0 KECCAK256 SWAP1 PUSH1 0x5 MUL ADD PUSH1 0x40 MLOAD DUP1 PUSH2 0x100 ADD PUSH1 0x40 MSTORE SWAP1 DUP2 PUSH0 DUP3 ADD DUP1 SLOAD DUP1 PUSH1 0x20 MUL PUSH1 0x20 ADD PUSH1 0x40 MLOAD SWAP1 DUP2 ADD PUSH1 0x40 MSTORE DUP1 SWAP3 SWAP2 SWAP1 DUP2 DUP2 MSTORE PUSH1 0x20 ADD DUP3 DUP1 SLOAD DUP1 ISZERO PUSH2 0xAC4 JUMPI PUSH1 0x20 MUL DUP3 ADD SWAP2 SWAP1 PUSH0 MSTORE PUSH1 0x20 PUSH0 KECCAK256 SWAP1 JUMPDEST DUP2 PUSH0 SWAP1 SLOAD SWAP1 PUSH2 0x100 EXP SWAP1 DIV PUSH20 0xFFFFFFFFFFFFFFFFFFFFFFFFFFFFFFFFFFFFFFFF AND PUSH20 0xFFFFFFFFFFFFFFFFFFFFFFFFFFFFFFFFFFFFFFFF AND DUP2 MSTORE PUSH1 0x20 ADD SWAP1 PUSH1 0x1 ADD SWAP1 DUP1 DUP4 GT PUSH2 0xA7B JUMPI JUMPDEST POP POP POP POP POP DUP2 MSTORE PUSH1 0x20 ADD PUSH1 0x1 DUP3 ADD PUSH0 SWAP1 SLOAD SWAP1 PUSH2 0x100 EXP SWAP1 DIV PUSH20 0xFFFFFFFFFFFFFFFFFFFFFFFFFFFFFFFFFFFFFFFF AND PUSH20 0xFFFFFFFFFFFFFFFFFFFFFFFFFFFFFFFFFFFFFFFF AND PUSH20 0xFFFFFFFFFFFFFFFFFFFFFFFFFFFFFFFFFFFFFFFF AND DUP2 MSTORE PUSH1 0x20 ADD PUSH1 0x2 DUP3 ADD DUP1 SLOAD DUP1 PUSH1 0x20 MUL PUSH1 0x20 ADD PUSH1 0x40 MLOAD SWAP1 DUP2 ADD PUSH1 0x40 MSTORE DUP1 SWAP3 SWAP2 SWAP1 DUP2 DUP2 MSTORE PUSH1 0x20 ADD DUP3 DUP1 SLOAD DUP1 ISZERO PUSH2 0xB6F JUMPI PUSH1 0x20 MUL DUP3 ADD SWAP2 SWAP1 PUSH0 MSTORE PUSH1 0x20 PUSH0 KECCAK256 SWAP1 JUMPDEST DUP2 SLOAD DUP2 MSTORE PUSH1 0x20 ADD SWAP1 PUSH1 0x1 ADD SWAP1 DUP1 DUP4 GT PUSH2 0xB5B JUMPI JUMPDEST POP POP POP POP POP DUP2 MSTORE PUSH1 0x20 ADD PUSH1 0x3 DUP3 ADD PUSH0 SWAP1 SLOAD SWAP1 PUSH2 0x100 EXP SWAP1 DIV PUSH1 0xFF AND PUSH1 0x3 DUP2 GT ISZERO PUSH2 0xB9C JUMPI PUSH2 0xB9B PUSH2 0x5F29 JUMP JUMPDEST JUMPDEST PUSH1 0x3 DUP2 GT ISZERO PUSH2 0xBAE JUMPI PUSH2 0xBAD PUSH2 0x5F29 JUMP JUMPDEST JUMPDEST DUP2 MSTORE PUSH1 0x20 ADD PUSH1 0x3 DUP3 ADD PUSH1 0x1 SWAP1 SLOAD SWAP1 PUSH2 0x100 EXP SWAP1 DIV PUSH1 0xFF AND ISZERO ISZERO ISZERO ISZERO DUP2 MSTORE PUSH1 0x20 ADD PUSH1 0x3 DUP3 ADD PUSH1 0x2 SWAP1 SLOAD SWAP1 PUSH2 0x100 EXP SWAP1 DIV PUSH1 0xFF AND ISZERO ISZERO ISZERO ISZERO DUP2 MSTORE PUSH1 0x20 ADD PUSH1 0x3 DUP3 ADD PUSH1 0x3 SWAP1 SLOAD SWAP1 PUSH2 0x100 EXP SWAP1 DIV PUSH20 0xFFFFFFFFFFFFFFFFFFFFFFFFFFFFFFFFFFFFFFFF AND PUSH20 0xFFFFFFFFFFFFFFFFFFFFFFFFFFFFFFFFFFFFFFFF AND PUSH20 0xFFFFFFFFFFFFFFFFFFFFFFFFFFFFFFFFFFFFFFFF AND DUP2 MSTORE PUSH1 0x20 ADD PUSH1 0x4 DUP3 ADD SLOAD DUP2 MSTORE POP POP SWAP1 POP SWAP2 SWAP1 POP JUMP JUMPDEST PUSH0 PUSH1 0x2 PUSH0 SWAP1 SLOAD SWAP1 PUSH2 0x100 EXP SWAP1 DIV PUSH20 0xFFFFFFFFFFFFFFFFFFFFFFFFFFFFFFFFFFFFFFFF AND PUSH20 0xFFFFFFFFFFFFFFFFFFFFFFFFFFFFFFFFFFFFFFFF AND PUSH4 0x91D14854 PUSH32 0xA49807205CE4D355092EF5A8A18F56E8913CF4A201FBE287825B095693C21775 CALLER PUSH1 0x40 MLOAD DUP4 PUSH4 0xFFFFFFFF AND PUSH1 0xE0 SHL DUP2 MSTORE PUSH1 0x4 ADD PUSH2 0xCCC SWAP3 SWAP2 SWAP1 PUSH2 0x6DA5 JUMP JUMPDEST PUSH1 0x20 PUSH1 0x40 MLOAD DUP1 DUP4 SUB DUP2 DUP7 GAS STATICCALL ISZERO DUP1 ISZERO PUSH2 0xCE7 JUMPI RETURNDATASIZE PUSH0 PUSH0 RETURNDATACOPY RETURNDATASIZE PUSH0 REVERT JUMPDEST POP POP POP POP PUSH1 0x40 MLOAD RETURNDATASIZE PUSH1 0x1F NOT PUSH1 0x1F DUP3 ADD AND DUP3 ADD DUP1 PUSH1 0x40 MSTORE POP DUP2 ADD SWAP1 PUSH2 0xD0B SWAP2 SWAP1 PUSH2 0x6DE0 JUMP JUMPDEST DUP1 PUSH2 0xDCD JUMPI POP PUSH1 0x2 PUSH0 SWAP1 SLOAD SWAP1 PUSH2 0x100 EXP SWAP1 DIV PUSH20 0xFFFFFFFFFFFFFFFFFFFFFFFFFFFFFFFFFFFFFFFF AND PUSH20 0xFFFFFFFFFFFFFFFFFFFFFFFFFFFFFFFFFFFFFFFF AND PUSH4 0x91D14854 PUSH32 0x940D6B1946FF1D2B5A9F1909219C3C81A370804B5BA0F91EC0828C99A2E6A681 CALLER PUSH1 0x40 MLOAD DUP4 PUSH4 0xFFFFFFFF AND PUSH1 0xE0 SHL DUP2 MSTORE PUSH1 0x4 ADD PUSH2 0xD8D SWAP3 SWAP2 SWAP1 PUSH2 0x6DA5 JUMP JUMPDEST PUSH1 0x20 PUSH1 0x40 MLOAD DUP1 DUP4 SUB DUP2 DUP7 GAS STATICCALL ISZERO DUP1 ISZERO PUSH2 0xDA8 JUMPI RETURNDATASIZE PUSH0 PUSH0 RETURNDATACOPY RETURNDATASIZE PUSH0 REVERT JUMPDEST POP POP POP POP PUSH1 0x40 MLOAD RETURNDATASIZE PUSH1 0x1F NOT PUSH1 0x1F DUP3 ADD AND DUP3 ADD DUP1 PUSH1 0x40 MSTORE POP DUP2 ADD SWAP1 PUSH2 0xDCC SWAP2 SWAP1 PUSH2 0x6DE0 JUMP JUMPDEST JUMPDEST PUSH2 0xE0C JUMPI PUSH1 0x40 MLOAD PUSH32 0x8C379A000000000000000000000000000000000000000000000000000000000 DUP2 MSTORE PUSH1 0x4 ADD PUSH2 0xE03 SWAP1 PUSH2 0x6E55 JUMP JUMPDEST PUSH1 0x40 MLOAD DUP1 SWAP2 SUB SWAP1 REVERT JUMPDEST PUSH2 0xE14 PUSH2 0x4B71 JUMP JUMPDEST PUSH1 0x3 PUSH0 SWAP1 SLOAD SWAP1 PUSH2 0x100 EXP SWAP1 DIV PUSH20 0xFFFFFFFFFFFFFFFFFFFFFFFFFFFFFFFFFFFFFFFF AND PUSH20 0xFFFFFFFFFFFFFFFFFFFFFFFFFFFFFFFFFFFFFFFF AND PUSH4 0x32648E09 DUP7 PUSH1 0x40 MLOAD DUP3 PUSH4 0xFFFFFFFF AND PUSH1 0xE0 SHL DUP2 MSTORE PUSH1 0x4 ADD PUSH2 0xE6E SWAP2 SWAP1 PUSH2 0x6B1B JUMP JUMPDEST PUSH2 0x180 PUSH1 0x40 MLOAD DUP1 DUP4 SUB DUP2 DUP7 GAS STATICCALL ISZERO DUP1 ISZERO PUSH2 0xE8A JUMPI RETURNDATASIZE PUSH0 PUSH0 RETURNDATACOPY RETURNDATASIZE PUSH0 REVERT JUMPDEST POP POP POP POP PUSH1 0x40 MLOAD RETURNDATASIZE PUSH1 0x1F NOT PUSH1 0x1F DUP3 ADD AND DUP3 ADD DUP1 PUSH1 0x40 MSTORE POP DUP2 ADD SWAP1 PUSH2 0xEAE SWAP2 SWAP1 PUSH2 0x7014 JUMP JUMPDEST PUSH1 0x80 ADD MLOAD PUSH2 0xEF1 JUMPI PUSH1 0x40 MLOAD PUSH32 0x8C379A000000000000000000000000000000000000000000000000000000000 DUP2 MSTORE PUSH1 0x4 ADD PUSH2 0xEE8 SWAP1 PUSH2 0x708A JUMP JUMPDEST PUSH1 0x40 MLOAD DUP1 SWAP2 SUB SWAP1 REVERT JUMPDEST PUSH0 GAS SWAP1 POP PUSH0 PUSH1 0x40 MLOAD DUP1 PUSH2 0x140 ADD PUSH1 0x40 MSTORE DUP1 DUP9 PUSH20 0xFFFFFFFFFFFFFFFFFFFFFFFFFFFFFFFFFFFFFFFF AND DUP2 MSTORE PUSH1 0x20 ADD DUP8 PUSH20 0xFFFFFFFFFFFFFFFFFFFFFFFFFFFFFFFFFFFFFFFF AND DUP2 MSTORE PUSH1 0x20 ADD DUP7 DUP2 MSTORE PUSH1 0x20 ADD TIMESTAMP DUP2 MSTORE PUSH1 0x20 ADD DUP6 PUSH1 0x3 DUP2 GT ISZERO PUSH2 0xF59 JUMPI PUSH2 0xF58 PUSH2 0x5F29 JUMP JUMPDEST JUMPDEST DUP2 MSTORE PUSH1 0x20 ADD PUSH0 PUSH1 0x3 DUP2 GT ISZERO PUSH2 0xF71 JUMPI PUSH2 0xF70 PUSH2 0x5F29 JUMP JUMPDEST JUMPDEST DUP2 MSTORE PUSH1 0x20 ADD PUSH1 0x40 MLOAD DUP1 PUSH1 0x20 ADD PUSH1 0x40 MSTORE DUP1 PUSH0 DUP2 MSTORE POP DUP2 MSTORE PUSH1 0x20 ADD PUSH0 DUP2 MSTORE PUSH1 0x20 ADD PUSH0 DUP2 MSTORE PUSH1 0x20 ADD PUSH1 0x40 MLOAD DUP1 PUSH1 0x20 ADD PUSH1 0x40 MSTORE DUP1 PUSH0 DUP2 MSTORE POP DUP2 MSTORE POP SWAP1 POP PUSH2 0xFB3 DUP2 PUSH2 0x4BC0 JUMP JUMPDEST SWAP3 POP GAS DUP3 PUSH2 0xFC1 SWAP2 SWAP1 PUSH2 0x70D5 JUMP JUMPDEST DUP2 PUSH1 0xE0 ADD DUP2 DUP2 MSTORE POP POP DUP3 PUSH2 0xFD6 JUMPI PUSH1 0x2 PUSH2 0xFD9 JUMP JUMPDEST PUSH1 0x1 JUMPDEST DUP2 PUSH1 0xA0 ADD SWAP1 PUSH1 0x3 DUP2 GT ISZERO PUSH2 0xFF0 JUMPI PUSH2 0xFEF PUSH2 0x5F29 JUMP JUMPDEST JUMPDEST SWAP1 DUP2 PUSH1 0x3 DUP2 GT ISZERO PUSH2 0x1004 JUMPI PUSH2 0x1003 PUSH2 0x5F29 JUMP JUMPDEST JUMPDEST DUP2 MSTORE POP POP DUP3 ISZERO PUSH2 0x10AD JUMPI PUSH1 0x3 PUSH0 SWAP1 SLOAD SWAP1 PUSH2 0x100 EXP SWAP1 DIV PUSH20 0xFFFFFFFFFFFFFFFFFFFFFFFFFFFFFFFFFFFFFFFF AND PUSH20 0xFFFFFFFFFFFFFFFFFFFFFFFFFFFFFFFFFFFFFFFF AND PUSH4 0xC11D2D18 DUP9 DUP8 PUSH1 0x40 MLOAD DUP4 PUSH4 0xFFFFFFFF AND PUSH1 0xE0 SHL DUP2 MSTORE PUSH1 0x4 ADD PUSH2 0x106A SWAP3 SWAP2 SWAP1 PUSH2 0x7108 JUMP JUMPDEST PUSH0 PUSH1 0x40 MLOAD DUP1 DUP4 SUB DUP2 PUSH0 DUP8 DUP1 EXTCODESIZE ISZERO DUP1 ISZERO PUSH2 0x1081 JUMPI PUSH0 PUSH0 REVERT JUMPDEST POP GAS CALL ISZERO DUP1 ISZERO PUSH2 0x1093 JUMPI RETURNDATASIZE PUSH0 PUSH0 RETURNDATACOPY RETURNDATASIZE PUSH0 REVERT JUMPDEST POP POP POP POP PUSH2 0x10A0 DUP2 PUSH2 0x4C71 JUMP JUMPDEST DUP2 PUSH1 0xC0 ADD DUP2 SWAP1 MSTORE POP PUSH2 0x113F JUMP JUMPDEST PUSH1 0x40 MLOAD DUP1 PUSH1 0x40 ADD PUSH1 0x40 MSTORE DUP1 PUSH1 0x18 DUP2 MSTORE PUSH1 0x20 ADD PUSH32 0x5061796D656E7420657865637574696F6E206661696C65640000000000000000 DUP2 MSTORE POP DUP2 PUSH2 0x120 ADD DUP2 SWAP1 MSTORE POP PUSH1 0x8 PUSH0 DUP9 PUSH20 0xFFFFFFFFFFFFFFFFFFFFFFFFFFFFFFFFFFFFFFFF AND PUSH20 0xFFFFFFFFFFFFFFFFFFFFFFFFFFFFFFFFFFFFFFFF AND DUP2 MSTORE PUSH1 0x20 ADD SWAP1 DUP2 MSTORE PUSH1 0x20 ADD PUSH0 KECCAK256 PUSH0 DUP2 SLOAD DUP1 SWAP3 SWAP2 SWAP1 PUSH2 0x1139 SWAP1 PUSH2 0x712F JUMP JUMPDEST SWAP2 SWAP1 POP SSTORE POP JUMPDEST PUSH1 0x6 DUP2 SWAP1 DUP1 PUSH1 0x1 DUP2 SLOAD ADD DUP1 DUP3 SSTORE DUP1 SWAP2 POP POP PUSH1 0x1 SWAP1 SUB SWAP1 PUSH0 MSTORE PUSH1 0x20 PUSH0 KECCAK256 SWAP1 PUSH1 0x9 MUL ADD PUSH0 SWAP1 SWAP2 SWAP1 SWAP2 SWAP1 SWAP2 POP PUSH0 DUP3 ADD MLOAD DUP2 PUSH0 ADD PUSH0 PUSH2 0x100 EXP DUP2 SLOAD DUP2 PUSH20 0xFFFFFFFFFFFFFFFFFFFFFFFFFFFFFFFFFFFFFFFF MUL NOT AND SWAP1 DUP4 PUSH20 0xFFFFFFFFFFFFFFFFFFFFFFFFFFFFFFFFFFFFFFFF AND MUL OR SWAP1 SSTORE POP PUSH1 0x20 DUP3 ADD MLOAD DUP2 PUSH1 0x1 ADD PUSH0 PUSH2 0x100 EXP DUP2 SLOAD DUP2 PUSH20 0xFFFFFFFFFFFFFFFFFFFFFFFFFFFFFFFFFFFFFFFF MUL NOT AND SWAP1 DUP4 PUSH20 0xFFFFFFFFFFFFFFFFFFFFFFFFFFFFFFFFFFFFFFFF AND MUL OR SWAP1 SSTORE POP PUSH1 0x40 DUP3 ADD MLOAD DUP2 PUSH1 0x2 ADD SSTORE PUSH1 0x60 DUP3 ADD MLOAD DUP2 PUSH1 0x3 ADD SSTORE PUSH1 0x80 DUP3 ADD MLOAD DUP2 PUSH1 0x4 ADD PUSH0 PUSH2 0x100 EXP DUP2 SLOAD DUP2 PUSH1 0xFF MUL NOT AND SWAP1 DUP4 PUSH1 0x3 DUP2 GT ISZERO PUSH2 0x1230 JUMPI PUSH2 0x122F PUSH2 0x5F29 JUMP JUMPDEST JUMPDEST MUL OR SWAP1 SSTORE POP PUSH1 0xA0 DUP3 ADD MLOAD DUP2 PUSH1 0x4 ADD PUSH1 0x1 PUSH2 0x100 EXP DUP2 SLOAD DUP2 PUSH1 0xFF MUL NOT AND SWAP1 DUP4 PUSH1 0x3 DUP2 GT ISZERO PUSH2 0x1260 JUMPI PUSH2 0x125F PUSH2 0x5F29 JUMP JUMPDEST JUMPDEST MUL OR SWAP1 SSTORE POP PUSH1 0xC0 DUP3 ADD MLOAD DUP2 PUSH1 0x5 ADD SWAP1 DUP2 PUSH2 0x127A SWAP2 SWAP1 PUSH2 0x736A JUMP JUMPDEST POP PUSH1 0xE0 DUP3 ADD MLOAD DUP2 PUSH1 0x6 ADD SSTORE PUSH2 0x100 DUP3 ADD MLOAD DUP2 PUSH1 0x7 ADD SSTORE PUSH2 0x120 DUP3 ADD MLOAD DUP2 PUSH1 0x8 ADD SWAP1 DUP2 PUSH2 0x12A6 SWAP2 SWAP1 PUSH2 0x736A JUMP JUMPDEST POP POP POP PUSH1 0x7 PUSH0 DUP9 PUSH20 0xFFFFFFFFFFFFFFFFFFFFFFFFFFFFFFFFFFFFFFFF AND PUSH20 0xFFFFFFFFFFFFFFFFFFFFFFFFFFFFFFFFFFFFFFFF AND DUP2 MSTORE PUSH1 0x20 ADD SWAP1 DUP2 MSTORE PUSH1 0x20 ADD PUSH0 KECCAK256 DUP2 SWAP1 DUP1 PUSH1 0x1 DUP2 SLOAD ADD DUP1 DUP3 SSTORE DUP1 SWAP2 POP POP PUSH1 0x1 SWAP1 SUB SWAP1 PUSH0 MSTORE PUSH1 0x20 PUSH0 KECCAK256 SWAP1 PUSH1 0x9 MUL ADD PUSH0 SWAP1 SWAP2 SWAP1 SWAP2 SWAP1 SWAP2 POP PUSH0 DUP3 ADD MLOAD DUP2 PUSH0 ADD PUSH0 PUSH2 0x100 EXP DUP2 SLOAD DUP2 PUSH20 0xFFFFFFFFFFFFFFFFFFFFFFFFFFFFFFFFFFFFFFFF MUL NOT AND SWAP1 DUP4 PUSH20 0xFFFFFFFFFFFFFFFFFFFFFFFFFFFFFFFFFFFFFFFF AND MUL OR SWAP1 SSTORE POP PUSH1 0x20 DUP3 ADD MLOAD DUP2 PUSH1 0x1 ADD PUSH0 PUSH2 0x100 EXP DUP2 SLOAD DUP2 PUSH20 0xFFFFFFFFFFFFFFFFFFFFFFFFFFFFFFFFFFFFFFFF MUL NOT AND SWAP1 DUP4 PUSH20 0xFFFFFFFFFFFFFFFFFFFFFFFFFFFFFFFFFFFFFFFF AND MUL OR SWAP1 SSTORE POP PUSH1 0x40 DUP3 ADD MLOAD DUP2 PUSH1 0x2 ADD SSTORE PUSH1 0x60 DUP3 ADD MLOAD DUP2 PUSH1 0x3 ADD SSTORE PUSH1 0x80 DUP3 ADD MLOAD DUP2 PUSH1 0x4 ADD PUSH0 PUSH2 0x100 EXP DUP2 SLOAD DUP2 PUSH1 0xFF MUL NOT AND SWAP1 DUP4 PUSH1 0x3 DUP2 GT ISZERO PUSH2 0x13D5 JUMPI PUSH2 0x13D4 PUSH2 0x5F29 JUMP JUMPDEST JUMPDEST MUL OR SWAP1 SSTORE POP PUSH1 0xA0 DUP3 ADD MLOAD DUP2 PUSH1 0x4 ADD PUSH1 0x1 PUSH2 0x100 EXP DUP2 SLOAD DUP2 PUSH1 0xFF MUL NOT AND SWAP1 DUP4 PUSH1 0x3 DUP2 GT ISZERO PUSH2 0x1405 JUMPI PUSH2 0x1404 PUSH2 0x5F29 JUMP JUMPDEST JUMPDEST MUL OR SWAP1 SSTORE POP PUSH1 0xC0 DUP3 ADD MLOAD DUP2 PUSH1 0x5 ADD SWAP1 DUP2 PUSH2 0x141F SWAP2 SWAP1 PUSH2 0x736A JUMP JUMPDEST POP PUSH1 0xE0 DUP3 ADD MLOAD DUP2 PUSH1 0x6 ADD SSTORE PUSH2 0x100 DUP3 ADD MLOAD DUP2 PUSH1 0x7 ADD SSTORE PUSH2 0x120 DUP3 ADD MLOAD DUP2 PUSH1 0x8 ADD SWAP1 DUP2 PUSH2 0x144B SWAP2 SWAP1 PUSH2 0x736A JUMP JUMPDEST POP POP POP PUSH2 0x1457 DUP2 PUSH2 0x4D64 JUMP JUMPDEST DUP6 PUSH20 0xFFFFFFFFFFFFFFFFFFFFFFFFFFFFFFFFFFFFFFFF AND DUP8 PUSH20 0xFFFFFFFFFFFFFFFFFFFFFFFFFFFFFFFFFFFFFFFF AND PUSH32 0x5392E49AE81F9D730FAB8B9D95085C57CED2C8F481CA60E3D4DD2E7D626EBB5 DUP8 DUP8 DUP6 PUSH1 0xA0 ADD MLOAD DUP7 PUSH1 0xE0 ADD MLOAD PUSH1 0x40 MLOAD PUSH2 0x14C2 SWAP5 SWAP4 SWAP3 SWAP2 SWAP1 PUSH2 0x7439 JUMP JUMPDEST PUSH1 0x40 MLOAD DUP1 SWAP2 SUB SWAP1 LOG3 POP POP PUSH2 0x14D4 PUSH2 0x4E2E JUMP JUMPDEST SWAP5 SWAP4 POP POP POP POP JUMP JUMPDEST PUSH32 0x940D6B1946FF1D2B5A9F1909219C3C81A370804B5BA0F91EC0828C99A2E6A681 DUP2 JUMP JUMPDEST PUSH2 0x1508 PUSH2 0x4E37 JUMP JUMPDEST PUSH20 0xFFFFFFFFFFFFFFFFFFFFFFFFFFFFFFFFFFFFFFFF AND DUP2 PUSH20 0xFFFFFFFFFFFFFFFFFFFFFFFFFFFFFFFFFFFFFFFF AND EQ PUSH2 0x156C JUMPI PUSH1 0x40 MLOAD PUSH32 0x6697B23200000000000000000000000000000000000000000000000000000000 DUP2 MSTORE PUSH1 0x4 ADD PUSH1 0x40 MLOAD DUP1 SWAP2 SUB SWAP1 REVERT JUMPDEST PUSH2 0x1576 DUP3 DUP3 PUSH2 0x4E3E JUMP JUMPDEST POP POP POP JUMP JUMPDEST PUSH1 0x2 PUSH0 SWAP1 SLOAD SWAP1 PUSH2 0x100 EXP SWAP1 DIV PUSH20 0xFFFFFFFFFFFFFFFFFFFFFFFFFFFFFFFFFFFFFFFF AND PUSH20 0xFFFFFFFFFFFFFFFFFFFFFFFFFFFFFFFFFFFFFFFF AND CALLER PUSH20 0xFFFFFFFFFFFFFFFFFFFFFFFFFFFFFFFFFFFFFFFF AND EQ PUSH2 0x160A JUMPI PUSH1 0x40 MLOAD PUSH32 0x8C379A000000000000000000000000000000000000000000000000000000000 DUP2 MSTORE PUSH1 0x4 ADD PUSH2 0x1601 SWAP1 PUSH2 0x74C6 JUMP JUMPDEST PUSH1 0x40 MLOAD DUP1 SWAP2 SUB SWAP1 REVERT JUMPDEST DUP1 PUSH1 0x3 PUSH0 PUSH2 0x100 EXP DUP2 SLOAD DUP2 PUSH20 0xFFFFFFFFFFFFFFFFFFFFFFFFFFFFFFFFFFFFFFFF MUL NOT AND SWAP1 DUP4 PUSH20 0xFFFFFFFFFFFFFFFFFFFFFFFFFFFFFFFFFFFFFFFF AND MUL OR SWAP1 SSTORE POP POP JUMP JUMPDEST PUSH1 0x2 PUSH0 SWAP1 SLOAD SWAP1 PUSH2 0x100 EXP SWAP1 DIV PUSH20 0xFFFFFFFFFFFFFFFFFFFFFFFFFFFFFFFFFFFFFFFF AND PUSH20 0xFFFFFFFFFFFFFFFFFFFFFFFFFFFFFFFFFFFFFFFF AND PUSH4 0x91D14854 PUSH32 0xA49807205CE4D355092EF5A8A18F56E8913CF4A201FBE287825B095693C21775 CALLER PUSH1 0x40 MLOAD DUP4 PUSH4 0xFFFFFFFF AND PUSH1 0xE0 SHL DUP2 MSTORE PUSH1 0x4 ADD PUSH2 0x16C9 SWAP3 SWAP2 SWAP1 PUSH2 0x6DA5 JUMP JUMPDEST PUSH1 0x20 PUSH1 0x40 MLOAD DUP1 DUP4 SUB DUP2 DUP7 GAS STATICCALL ISZERO DUP1 ISZERO PUSH2 0x16E4 JUMPI RETURNDATASIZE PUSH0 PUSH0 RETURNDATACOPY RETURNDATASIZE PUSH0 REVERT JUMPDEST POP POP POP POP PUSH1 0x40 MLOAD RETURNDATASIZE PUSH1 0x1F NOT PUSH1 0x1F DUP3 ADD AND DUP3 ADD DUP1 PUSH1 0x40 MSTORE POP DUP2 ADD SWAP1 PUSH2 0x1708 SWAP2 SWAP1 PUSH2 0x6DE0 JUMP JUMPDEST DUP1 PUSH2 0x17CA JUMPI POP PUSH1 0x2 PUSH0 SWAP1 SLOAD SWAP1 PUSH2 0x100 EXP SWAP1 DIV PUSH20 0xFFFFFFFFFFFFFFFFFFFFFFFFFFFFFFFFFFFFFFFF AND PUSH20 0xFFFFFFFFFFFFFFFFFFFFFFFFFFFFFFFFFFFFFFFF AND PUSH4 0x91D14854 PUSH32 0x940D6B1946FF1D2B5A9F1909219C3C81A370804B5BA0F91EC0828C99A2E6A681 CALLER PUSH1 0x40 MLOAD DUP4 PUSH4 0xFFFFFFFF AND PUSH1 0xE0 SHL DUP2 MSTORE PUSH1 0x4 ADD PUSH2 0x178A SWAP3 SWAP2 SWAP1 PUSH2 0x6DA5 JUMP JUMPDEST PUSH1 0x20 PUSH1 0x40 MLOAD DUP1 DUP4 SUB DUP2 DUP7 GAS STATICCALL ISZERO DUP1 ISZERO PUSH2 0x17A5 JUMPI RETURNDATASIZE PUSH0 PUSH0 RETURNDATACOPY RETURNDATASIZE PUSH0 REVERT JUMPDEST POP POP POP POP PUSH1 0x40 MLOAD RETURNDATASIZE PUSH1 0x1F NOT PUSH1 0x1F DUP3 ADD AND DUP3 ADD DUP1 PUSH1 0x40 MSTORE POP DUP2 ADD SWAP1 PUSH2 0x17C9 SWAP2 SWAP1 PUSH2 0x6DE0 JUMP JUMPDEST JUMPDEST PUSH2 0x1809 JUMPI PUSH1 0x40 MLOAD PUSH32 0x8C379A000000000000000000000000000000000000000000000000000000000 DUP2 MSTORE PUSH1 0x4 ADD PUSH2 0x1800 SWAP1 PUSH2 0x6E55 JUMP JUMPDEST PUSH1 0x40 MLOAD DUP1 SWAP2 SUB SWAP1 REVERT JUMPDEST PUSH1 0x6 DUP1 SLOAD SWAP1 POP DUP2 LT PUSH2 0x1850 JUMPI PUSH1 0x40 MLOAD PUSH32 0x8C379A000000000000000000000000000000000000000000000000000000000 DUP2 MSTORE PUSH1 0x4 ADD PUSH2 0x1847 SWAP1 PUSH2 0x752E JUMP JUMPDEST PUSH1 0x40 MLOAD DUP1 SWAP2 SUB SWAP1 REVERT JUMPDEST PUSH0 PUSH1 0x6 DUP3 DUP2 SLOAD DUP2 LT PUSH2 0x1865 JUMPI PUSH2 0x1864 PUSH2 0x6D78 JUMP JUMPDEST JUMPDEST SWAP1 PUSH0 MSTORE PUSH1 0x20 PUSH0 KECCAK256 SWAP1 PUSH1 0x9 MUL ADD SWAP1 POP PUSH1 0x2 PUSH1 0x3 DUP2 GT ISZERO PUSH2 0x1887 JUMPI PUSH2 0x1886 PUSH2 0x5F29 JUMP JUMPDEST JUMPDEST DUP2 PUSH1 0x4 ADD PUSH1 0x1 SWAP1 SLOAD SWAP1 PUSH2 0x100 EXP SWAP1 DIV PUSH1 0xFF AND PUSH1 0x3 DUP2 GT ISZERO PUSH2 0x18AB JUMPI PUSH2 0x18AA PUSH2 0x5F29 JUMP JUMPDEST JUMPDEST EQ PUSH2 0x18EB JUMPI PUSH1 0x40 MLOAD PUSH32 0x8C379A000000000000000000000000000000000000000000000000000000000 DUP2 MSTORE PUSH1 0x4 ADD PUSH2 0x18E2 SWAP1 PUSH2 0x7596 JUMP JUMPDEST PUSH1 0x40 MLOAD DUP1 SWAP2 SUB SWAP1 REVERT JUMPDEST PUSH1 0xB SLOAD DUP2 PUSH1 0x7 ADD SLOAD LT PUSH2 0x1933 JUMPI PUSH1 0x40 MLOAD PUSH32 0x8C379A000000000000000000000000000000000000000000000000000000000 DUP2 MSTORE PUSH1 0x4 ADD PUSH2 0x192A SWAP1 PUSH2 0x75FE JUMP JUMPDEST PUSH1 0x40 MLOAD DUP1 SWAP2 SUB SWAP1 REVERT JUMPDEST PUSH1 0x1 DUP2 PUSH1 0x7 ADD SLOAD PUSH2 0x1944 SWAP2 SWAP1 PUSH2 0x761C JUMP JUMPDEST PUSH1 0xC SLOAD PUSH2 0x1951 SWAP2 SWAP1 PUSH2 0x764F JUMP JUMPDEST DUP2 PUSH1 0x3 ADD SLOAD PUSH2 0x1960 SWAP2 SWAP1 PUSH2 0x761C JUMP JUMPDEST TIMESTAMP LT ISZERO PUSH2 0x19A2 JUMPI PUSH1 0x40 MLOAD PUSH32 0x8C379A000000000000000000000000000000000000000000000000000000000 DUP2 MSTORE PUSH1 0x4 ADD PUSH2 0x1999 SWAP1 PUSH2 0x76DA JUMP JUMPDEST PUSH1 0x40 MLOAD DUP1 SWAP2 SUB SWAP1 REVERT JUMPDEST PUSH1 0x3 DUP2 PUSH1 0x4 ADD PUSH1 0x1 PUSH2 0x100 EXP DUP2 SLOAD DUP2 PUSH1 0xFF MUL NOT AND SWAP1 DUP4 PUSH1 0x3 DUP2 GT ISZERO PUSH2 0x19CA JUMPI PUSH2 0x19C9 PUSH2 0x5F29 JUMP JUMPDEST JUMPDEST MUL OR SWAP1 SSTORE POP DUP1 PUSH1 0x7 ADD PUSH0 DUP2 SLOAD DUP1 SWAP3 SWAP2 SWAP1 PUSH2 0x19E3 SWAP1 PUSH2 0x712F JUMP JUMPDEST SWAP2 SWAP1 POP SSTORE POP PUSH0 GAS SWAP1 POP PUSH0 PUSH2 0x1C68 DUP4 PUSH1 0x40 MLOAD DUP1 PUSH2 0x140 ADD PUSH1 0x40 MSTORE SWAP1 DUP2 PUSH0 DUP3 ADD PUSH0 SWAP1 SLOAD SWAP1 PUSH2 0x100 EXP SWAP1 DIV PUSH20 0xFFFFFFFFFFFFFFFFFFFFFFFFFFFFFFFFFFFFFFFF AND PUSH20 0xFFFFFFFFFFFFFFFFFFFFFFFFFFFFFFFFFFFFFFFF AND PUSH20 0xFFFFFFFFFFFFFFFFFFFFFFFFFFFFFFFFFFFFFFFF AND DUP2 MSTORE PUSH1 0x20 ADD PUSH1 0x1 DUP3 ADD PUSH0 SWAP1 SLOAD SWAP1 PUSH2 0x100 EXP SWAP1 DIV PUSH20 0xFFFFFFFFFFFFFFFFFFFFFFFFFFFFFFFFFFFFFFFF AND PUSH20 0xFFFFFFFFFFFFFFFFFFFFFFFFFFFFFFFFFFFFFFFF AND PUSH20 0xFFFFFFFFFFFFFFFFFFFFFFFFFFFFFFFFFFFFFFFF AND DUP2 MSTORE PUSH1 0x20 ADD PUSH1 0x2 DUP3 ADD SLOAD DUP2 MSTORE PUSH1 0x20 ADD PUSH1 0x3 DUP3 ADD SLOAD DUP2 MSTORE PUSH1 0x20 ADD PUSH1 0x4 DUP3 ADD PUSH0 SWAP1 SLOAD SWAP1 PUSH2 0x100 EXP SWAP1 DIV PUSH1 0xFF AND PUSH1 0x3 DUP2 GT ISZERO PUSH2 0x1ADE JUMPI PUSH2 0x1ADD PUSH2 0x5F29 JUMP JUMPDEST JUMPDEST PUSH1 0x3 DUP2 GT ISZERO PUSH2 0x1AF0 JUMPI PUSH2 0x1AEF PUSH2 0x5F29 JUMP JUMPDEST JUMPDEST DUP2 MSTORE PUSH1 0x20 ADD PUSH1 0x4 DUP3 ADD PUSH1 0x1 SWAP1 SLOAD SWAP1 PUSH2 0x100 EXP SWAP1 DIV PUSH1 0xFF AND PUSH1 0x3 DUP2 GT ISZERO PUSH2 0x1B19 JUMPI PUSH2 0x1B18 PUSH2 0x5F29 JUMP JUMPDEST JUMPDEST PUSH1 0x3 DUP2 GT ISZERO PUSH2 0x1B2B JUMPI PUSH2 0x1B2A PUSH2 0x5F29 JUMP JUMPDEST JUMPDEST DUP2 MSTORE PUSH1 0x20 ADD PUSH1 0x5 DUP3 ADD DUP1 SLOAD PUSH2 0x1B3F SWAP1 PUSH2 0x71A3 JUMP JUMPDEST DUP1 PUSH1 0x1F ADD PUSH1 0x20 DUP1 SWAP2 DIV MUL PUSH1 0x20 ADD PUSH1 0x40 MLOAD SWAP1 DUP2 ADD PUSH1 0x40 MSTORE DUP1 SWAP3 SWAP2 SWAP1 DUP2 DUP2 MSTORE PUSH1 0x20 ADD DUP3 DUP1 SLOAD PUSH2 0x1B6B SWAP1 PUSH2 0x71A3 JUMP JUMPDEST DUP1 ISZERO PUSH2 0x1BB6 JUMPI DUP1 PUSH1 0x1F LT PUSH2 0x1B8D JUMPI PUSH2 0x100 DUP1 DUP4 SLOAD DIV MUL DUP4 MSTORE SWAP2 PUSH1 0x20 ADD SWAP2 PUSH2 0x1BB6 JUMP JUMPDEST DUP3 ADD SWAP2 SWAP1 PUSH0 MSTORE PUSH1 0x20 PUSH0 KECCAK256 SWAP1 JUMPDEST DUP2 SLOAD DUP2 MSTORE SWAP1 PUSH1 0x1 ADD SWAP1 PUSH1 0x20 ADD DUP1 DUP4 GT PUSH2 0x1B99 JUMPI DUP3 SWAP1 SUB PUSH1 0x1F AND DUP3 ADD SWAP2 JUMPDEST POP POP POP POP POP DUP2 MSTORE PUSH1 0x20 ADD PUSH1 0x6 DUP3 ADD SLOAD DUP2 MSTORE PUSH1 0x20 ADD PUSH1 0x7 DUP3 ADD SLOAD DUP2 MSTORE PUSH1 0x20 ADD PUSH1 0x8 DUP3 ADD DUP1 SLOAD PUSH2 0x1BE3 SWAP1 PUSH2 0x71A3 JUMP JUMPDEST DUP1 PUSH1 0x1F ADD PUSH1 0x20 DUP1 SWAP2 DIV MUL PUSH1 0x20 ADD PUSH1 0x40 MLOAD SWAP1 DUP2 ADD PUSH1 0x40 MSTORE DUP1 SWAP3 SWAP2 SWAP1 DUP2 DUP2 MSTORE PUSH1 0x20 ADD DUP3 DUP1 SLOAD PUSH2 0x1C0F SWAP1 PUSH2 0x71A3 JUMP JUMPDEST DUP1 ISZERO PUSH2 0x1C5A JUMPI DUP1 PUSH1 0x1F LT PUSH2 0x1C31 JUMPI PUSH2 0x100 DUP1 DUP4 SLOAD DIV MUL DUP4 MSTORE SWAP2 PUSH1 0x20 ADD SWAP2 PUSH2 0x1C5A JUMP JUMPDEST DUP3 ADD SWAP2 SWAP1 PUSH0 MSTORE PUSH1 0x20 PUSH0 KECCAK256 SWAP1 JUMPDEST DUP2 SLOAD DUP2 MSTORE SWAP1 PUSH1 0x1 ADD SWAP1 PUSH1 0x20 ADD DUP1 DUP4 GT PUSH2 0x1C3D JUMPI DUP3 SWAP1 SUB PUSH1 0x1F AND DUP3 ADD SWAP2 JUMPDEST POP POP POP POP POP DUP2 MSTORE POP POP PUSH2 0x4BC0 JUMP JUMPDEST SWAP1 POP GAS DUP3 PUSH2 0x1C76 SWAP2 SWAP1 PUSH2 0x70D5 JUMP JUMPDEST DUP4 PUSH1 0x6 ADD PUSH0 DUP3 DUP3 SLOAD PUSH2 0x1C88 SWAP2 SWAP1 PUSH2 0x761C JUMP JUMPDEST SWAP3 POP POP DUP2 SWAP1 SSTORE POP DUP1 ISZERO PUSH2 0x2076 JUMPI PUSH1 0x1 DUP4 PUSH1 0x4 ADD PUSH1 0x1 PUSH2 0x100 EXP DUP2 SLOAD DUP2 PUSH1 0xFF MUL NOT AND SWAP1 DUP4 PUSH1 0x3 DUP2 GT ISZERO PUSH2 0x1CBD JUMPI PUSH2 0x1CBC PUSH2 0x5F29 JUMP JUMPDEST JUMPDEST MUL OR SWAP1 SSTORE POP PUSH1 0x3 PUSH0 SWAP1 SLOAD SWAP1 PUSH2 0x100 EXP SWAP1 DIV PUSH20 0xFFFFFFFFFFFFFFFFFFFFFFFFFFFFFFFFFFFFFFFF AND PUSH20 0xFFFFFFFFFFFFFFFFFFFFFFFFFFFFFFFFFFFFFFFF AND PUSH4 0xC11D2D18 DUP5 PUSH0 ADD PUSH0 SWAP1 SLOAD SWAP1 PUSH2 0x100 EXP SWAP1 DIV PUSH20 0xFFFFFFFFFFFFFFFFFFFFFFFFFFFFFFFFFFFFFFFF AND DUP6 PUSH1 0x2 ADD SLOAD PUSH1 0x40 MLOAD DUP4 PUSH4 0xFFFFFFFF AND PUSH1 0xE0 SHL DUP2 MSTORE PUSH1 0x4 ADD PUSH2 0x1D44 SWAP3 SWAP2 SWAP1 PUSH2 0x7108 JUMP JUMPDEST PUSH0 PUSH1 0x40 MLOAD DUP1 DUP4 SUB DUP2 PUSH0 DUP8 DUP1 EXTCODESIZE ISZERO DUP1 ISZERO PUSH2 0x1D5B JUMPI PUSH0 PUSH0 REVERT JUMPDEST POP GAS CALL ISZERO DUP1 ISZERO PUSH2 0x1D6D JUMPI RETURNDATASIZE PUSH0 PUSH0 RETURNDATACOPY RETURNDATASIZE PUSH0 REVERT JUMPDEST POP POP POP POP PUSH2 0x1FEC DUP4 PUSH1 0x40 MLOAD DUP1 PUSH2 0x140 ADD PUSH1 0x40 MSTORE SWAP1 DUP2 PUSH0 DUP3 ADD PUSH0 SWAP1 SLOAD SWAP1 PUSH2 0x100 EXP SWAP1 DIV PUSH20 0xFFFFFFFFFFFFFFFFFFFFFFFFFFFFFFFFFFFFFFFF AND PUSH20 0xFFFFFFFFFFFFFFFFFFFFFFFFFFFFFFFFFFFFFFFF AND PUSH20 0xFFFFFFFFFFFFFFFFFFFFFFFFFFFFFFFFFFFFFFFF AND DUP2 MSTORE PUSH1 0x20 ADD PUSH1 0x1 DUP3 ADD PUSH0 SWAP1 SLOAD SWAP1 PUSH2 0x100 EXP SWAP1 DIV PUSH20 0xFFFFFFFFFFFFFFFFFFFFFFFFFFFFFFFFFFFFFFFF AND PUSH20 0xFFFFFFFFFFFFFFFFFFFFFFFFFFFFFFFFFFFFFFFF AND PUSH20 0xFFFFFFFFFFFFFFFFFFFFFFFFFFFFFFFFFFFFFFFF AND DUP2 MSTORE PUSH1 0x20 ADD PUSH1 0x2 DUP3 ADD SLOAD DUP2 MSTORE PUSH1 0x20 ADD PUSH1 0x3 DUP3 ADD SLOAD DUP2 MSTORE PUSH1 0x20 ADD PUSH1 0x4 DUP3 ADD PUSH0 SWAP1 SLOAD SWAP1 PUSH2 0x100 EXP SWAP1 DIV PUSH1 0xFF AND PUSH1 0x3 DUP2 GT ISZERO PUSH2 0x1E62 JUMPI PUSH2 0x1E61 PUSH2 0x5F29 JUMP JUMPDEST JUMPDEST PUSH1 0x3 DUP2 GT ISZERO PUSH2 0x1E74 JUMPI PUSH2 0x1E73 PUSH2 0x5F29 JUMP JUMPDEST JUMPDEST DUP2 MSTORE PUSH1 0x20 ADD PUSH1 0x4 DUP3 ADD PUSH1 0x1 SWAP1 SLOAD SWAP1 PUSH2 0x100 EXP SWAP1 DIV PUSH1 0xFF AND PUSH1 0x3 DUP2 GT ISZERO PUSH2 0x1E9D JUMPI PUSH2 0x1E9C PUSH2 0x5F29 JUMP JUMPDEST JUMPDEST PUSH1 0x3 DUP2 GT ISZERO PUSH2 0x1EAF JUMPI PUSH2 0x1EAE PUSH2 0x5F29 JUMP JUMPDEST JUMPDEST DUP2 MSTORE PUSH1 0x20 ADD PUSH1 0x5 DUP3 ADD DUP1 SLOAD PUSH2 0x1EC3 SWAP1 PUSH2 0x71A3 JUMP JUMPDEST DUP1 PUSH1 0x1F ADD PUSH1 0x20 DUP1 SWAP2 DIV MUL PUSH1 0x20 ADD PUSH1 0x40 MLOAD SWAP1 DUP2 ADD PUSH1 0x40 MSTORE DUP1 SWAP3 SWAP2 SWAP1 DUP2 DUP2 MSTORE PUSH1 0x20 ADD DUP3 DUP1 SLOAD PUSH2 0x1EEF SWAP1 PUSH2 0x71A3 JUMP JUMPDEST DUP1 ISZERO PUSH2 0x1F3A JUMPI DUP1 PUSH1 0x1F LT PUSH2 0x1F11 JUMPI PUSH2 0x100 DUP1 DUP4 SLOAD DIV MUL DUP4 MSTORE SWAP2 PUSH1 0x20 ADD SWAP2 PUSH2 0x1F3A JUMP JUMPDEST DUP3 ADD SWAP2 SWAP1 PUSH0 MSTORE PUSH1 0x20 PUSH0 KECCAK256 SWAP1 JUMPDEST DUP2 SLOAD DUP2 MSTORE SWAP1 PUSH1 0x1 ADD SWAP1 PUSH1 0x20 ADD DUP1 DUP4 GT PUSH2 0x1F1D JUMPI DUP3 SWAP1 SUB PUSH1 0x1F AND DUP3 ADD SWAP2 JUMPDEST POP POP POP POP POP DUP2 MSTORE PUSH1 0x20 ADD PUSH1 0x6 DUP3 ADD SLOAD DUP2 MSTORE PUSH1 0x20 ADD PUSH1 0x7 DUP3 ADD SLOAD DUP2 MSTORE PUSH1 0x20 ADD PUSH1 0x8 DUP3 ADD DUP1 SLOAD PUSH2 0x1F67 SWAP1 PUSH2 0x71A3 JUMP JUMPDEST DUP1 PUSH1 0x1F ADD PUSH1 0x20 DUP1 SWAP2 DIV MUL PUSH1 0x20 ADD PUSH1 0x40 MLOAD SWAP1 DUP2 ADD PUSH1 0x40 MSTORE DUP1 SWAP3 SWAP2 SWAP1 DUP2 DUP2 MSTORE PUSH1 0x20 ADD DUP3 DUP1 SLOAD PUSH2 0x1F93 SWAP1 PUSH2 0x71A3 JUMP JUMPDEST DUP1 ISZERO PUSH2 0x1FDE JUMPI DUP1 PUSH1 0x1F LT PUSH2 0x1FB5 JUMPI PUSH2 0x100 DUP1 DUP4 SLOAD DIV MUL DUP4 MSTORE SWAP2 PUSH1 0x20 ADD SWAP2 PUSH2 0x1FDE JUMP JUMPDEST DUP3 ADD SWAP2 SWAP1 PUSH0 MSTORE PUSH1 0x20 PUSH0 KECCAK256 SWAP1 JUMPDEST DUP2 SLOAD DUP2 MSTORE SWAP1 PUSH1 0x1 ADD SWAP1 PUSH1 0x20 ADD DUP1 DUP4 GT PUSH2 0x1FC1 JUMPI DUP3 SWAP1 SUB PUSH1 0x1F AND DUP3 ADD SWAP2 JUMPDEST POP POP POP POP POP DUP2 MSTORE POP POP PUSH2 0x4C71 JUMP JUMPDEST DUP4 PUSH1 0x5 ADD SWAP1 DUP2 PUSH2 0x1FFC SWAP2 SWAP1 PUSH2 0x736A JUMP JUMPDEST POP PUSH1 0x8 PUSH0 DUP5 PUSH0 ADD PUSH0 SWAP1 SLOAD SWAP1 PUSH2 0x100 EXP SWAP1 DIV PUSH20 0xFFFFFFFFFFFFFFFFFFFFFFFFFFFFFFFFFFFFFFFF AND PUSH20 0xFFFFFFFFFFFFFFFFFFFFFFFFFFFFFFFFFFFFFFFF AND PUSH20 0xFFFFFFFFFFFFFFFFFFFFFFFFFFFFFFFFFFFFFFFF AND DUP2 MSTORE PUSH1 0x20 ADD SWAP1 DUP2 MSTORE PUSH1 0x20 ADD PUSH0 KECCAK256 PUSH0 DUP2 SLOAD DUP1 SWAP3 SWAP2 SWAP1 PUSH2 0x206C SWAP1 PUSH2 0x76F8 JUMP JUMPDEST SWAP2 SWAP1 POP SSTORE POP PUSH2 0x20EB JUMP JUMPDEST PUSH1 0x2 DUP4 PUSH1 0x4 ADD PUSH1 0x1 PUSH2 0x100 EXP DUP2 SLOAD DUP2 PUSH1 0xFF MUL NOT AND SWAP1 DUP4 PUSH1 0x3 DUP2 GT ISZERO PUSH2 0x209E JUMPI PUSH2 0x209D PUSH2 0x5F29 JUMP JUMPDEST JUMPDEST MUL OR SWAP1 SSTORE POP PUSH1 0x40 MLOAD DUP1 PUSH1 0x40 ADD PUSH1 0x40 MSTORE DUP1 PUSH1 0xC DUP2 MSTORE PUSH1 0x20 ADD PUSH32 0x5265747279206661696C65640000000000000000000000000000000000000000 DUP2 MSTORE POP DUP4 PUSH1 0x8 ADD SWAP1 DUP2 PUSH2 0x20E9 SWAP2 SWAP1 PUSH2 0x736A JUMP JUMPDEST POP JUMPDEST DUP3 PUSH0 ADD PUSH0 SWAP1 SLOAD SWAP1 PUSH2 0x100 EXP SWAP1 DIV PUSH20 0xFFFFFFFFFFFFFFFFFFFFFFFFFFFFFFFFFFFFFFFF AND PUSH20 0xFFFFFFFFFFFFFFFFFFFFFFFFFFFFFFFFFFFFFFFF AND PUSH32 0x6D9B44E30A0DC7BD26B9A325EBBE8752E37CDD4FCC0C45444189C16BA7DA52BC DUP6 DUP6 PUSH1 0x7 ADD SLOAD PUSH1 0x40 MLOAD PUSH2 0x2159 SWAP3 SWAP2 SWAP1 PUSH2 0x771F JUMP JUMPDEST PUSH1 0x40 MLOAD DUP1 SWAP2 SUB SWAP1 LOG2 PUSH2 0x23DC DUP4 PUSH1 0x40 MLOAD DUP1 PUSH2 0x140 ADD PUSH1 0x40 MSTORE SWAP1 DUP2 PUSH0 DUP3 ADD PUSH0 SWAP1 SLOAD SWAP1 PUSH2 0x100 EXP SWAP1 DIV PUSH20 0xFFFFFFFFFFFFFFFFFFFFFFFFFFFFFFFFFFFFFFFF AND PUSH20 0xFFFFFFFFFFFFFFFFFFFFFFFFFFFFFFFFFFFFFFFF AND PUSH20 0xFFFFFFFFFFFFFFFFFFFFFFFFFFFFFFFFFFFFFFFF AND DUP2 MSTORE PUSH1 0x20 ADD PUSH1 0x1 DUP3 ADD PUSH0 SWAP1 SLOAD SWAP1 PUSH2 0x100 EXP SWAP1 DIV PUSH20 0xFFFFFFFFFFFFFFFFFFFFFFFFFFFFFFFFFFFFFFFF AND PUSH20 0xFFFFFFFFFFFFFFFFFFFFFFFFFFFFFFFFFFFFFFFF AND PUSH20 0xFFFFFFFFFFFFFFFFFFFFFFFFFFFFFFFFFFFFFFFF AND DUP2 MSTORE PUSH1 0x20 ADD PUSH1 0x2 DUP3 ADD SLOAD DUP2 MSTORE PUSH1 0x20 ADD PUSH1 0x3 DUP3 ADD SLOAD DUP2 MSTORE PUSH1 0x20 ADD PUSH1 0x4 DUP3 ADD PUSH0 SWAP1 SLOAD SWAP1 PUSH2 0x100 EXP SWAP1 DIV PUSH1 0xFF AND PUSH1 0x3 DUP2 GT ISZERO PUSH2 0x2252 JUMPI PUSH2 0x2251 PUSH2 0x5F29 JUMP JUMPDEST JUMPDEST PUSH1 0x3 DUP2 GT ISZERO PUSH2 0x2264 JUMPI PUSH2 0x2263 PUSH2 0x5F29 JUMP JUMPDEST JUMPDEST DUP2 MSTORE PUSH1 0x20 ADD PUSH1 0x4 DUP3 ADD PUSH1 0x1 SWAP1 SLOAD SWAP1 PUSH2 0x100 EXP SWAP1 DIV PUSH1 0xFF AND PUSH1 0x3 DUP2 GT ISZERO PUSH2 0x228D JUMPI PUSH2 0x228C PUSH2 0x5F29 JUMP JUMPDEST JUMPDEST PUSH1 0x3 DUP2 GT ISZERO PUSH2 0x229F JUMPI PUSH2 0x229E PUSH2 0x5F29 JUMP JUMPDEST JUMPDEST DUP2 MSTORE PUSH1 0x20 ADD PUSH1 0x5 DUP3 ADD DUP1 SLOAD PUSH2 0x22B3 SWAP1 PUSH2 0x71A3 JUMP JUMPDEST DUP1 PUSH1 0x1F ADD PUSH1 0x20 DUP1 SWAP2 DIV MUL PUSH1 0x20 ADD PUSH1 0x40 MLOAD SWAP1 DUP2 ADD PUSH1 0x40 MSTORE DUP1 SWAP3 SWAP2 SWAP1 DUP2 DUP2 MSTORE PUSH1 0x20 ADD DUP3 DUP1 SLOAD PUSH2 0x22DF SWAP1 PUSH2 0x71A3 JUMP JUMPDEST DUP1 ISZERO PUSH2 0x232A JUMPI DUP1 PUSH1 0x1F LT PUSH2 0x2301 JUMPI PUSH2 0x100 DUP1 DUP4 SLOAD DIV MUL DUP4 MSTORE SWAP2 PUSH1 0x20 ADD SWAP2 PUSH2 0x232A JUMP JUMPDEST DUP3 ADD SWAP2 SWAP1 PUSH0 MSTORE PUSH1 0x20 PUSH0 KECCAK256 SWAP1 JUMPDEST DUP2 SLOAD DUP2 MSTORE SWAP1 PUSH1 0x1 ADD SWAP1 PUSH1 0x20 ADD DUP1 DUP4 GT PUSH2 0x230D JUMPI DUP3 SWAP1 SUB PUSH1 0x1F AND DUP3 ADD SWAP2 JUMPDEST POP POP POP POP POP DUP2 MSTORE PUSH1 0x20 ADD PUSH1 0x6 DUP3 ADD SLOAD DUP2 MSTORE PUSH1 0x20 ADD PUSH1 0x7 DUP3 ADD SLOAD DUP2 MSTORE PUSH1 0x20 ADD PUSH1 0x8 DUP3 ADD DUP1 SLOAD PUSH2 0x2357 SWAP1 PUSH2 0x71A3 JUMP JUMPDEST DUP1 PUSH1 0x1F ADD PUSH1 0x20 DUP1 SWAP2 DIV MUL PUSH1 0x20 ADD PUSH1 0x40 MLOAD SWAP1 DUP2 ADD PUSH1 0x40 MSTORE DUP1 SWAP3 SWAP2 SWAP1 DUP2 DUP2 MSTORE PUSH1 0x20 ADD DUP3 DUP1 SLOAD PUSH2 0x2383 SWAP1 PUSH2 0x71A3 JUMP JUMPDEST DUP1 ISZERO PUSH2 0x23CE JUMPI DUP1 PUSH1 0x1F LT PUSH2 0x23A5 JUMPI PUSH2 0x100 DUP1 DUP4 SLOAD DIV MUL DUP4 MSTORE SWAP2 PUSH1 0x20 ADD SWAP2 PUSH2 0x23CE JUMP JUMPDEST DUP3 ADD SWAP2 SWAP1 PUSH0 MSTORE PUSH1 0x20 PUSH0 KECCAK256 SWAP1 JUMPDEST DUP2 SLOAD DUP2 MSTORE SWAP1 PUSH1 0x1 ADD SWAP1 PUSH1 0x20 ADD DUP1 DUP4 GT PUSH2 0x23B1 JUMPI DUP3 SWAP1 SUB PUSH1 0x1F AND DUP3 ADD SWAP2 JUMPDEST POP POP POP POP POP DUP2 MSTORE POP POP PUSH2 0x4D64 JUMP JUMPDEST POP POP POP POP JUMP JUMPDEST PUSH1 0x2 PUSH0 SWAP1 SLOAD SWAP1 PUSH2 0x100 EXP SWAP1 DIV PUSH20 0xFFFFFFFFFFFFFFFFFFFFFFFFFFFFFFFFFFFFFFFF AND PUSH20 0xFFFFFFFFFFFFFFFFFFFFFFFFFFFFFFFFFFFFFFFF AND PUSH4 0x91D14854 PUSH32 0xA49807205CE4D355092EF5A8A18F56E8913CF4A201FBE287825B095693C21775 CALLER PUSH1 0x40 MLOAD DUP4 PUSH4 0xFFFFFFFF AND PUSH1 0xE0 SHL DUP2 MSTORE PUSH1 0x4 ADD PUSH2 0x245E SWAP3 SWAP2 SWAP1 PUSH2 0x6DA5 JUMP JUMPDEST PUSH1 0x20 PUSH1 0x40 MLOAD DUP1 DUP4 SUB DUP2 DUP7 GAS STATICCALL ISZERO DUP1 ISZERO PUSH2 0x2479 JUMPI RETURNDATASIZE PUSH0 PUSH0 RETURNDATACOPY RETURNDATASIZE PUSH0 REVERT JUMPDEST POP POP POP POP PUSH1 0x40 MLOAD RETURNDATASIZE PUSH1 0x1F NOT PUSH1 0x1F DUP3 ADD AND DUP3 ADD DUP1 PUSH1 0x40 MSTORE POP DUP2 ADD SWAP1 PUSH2 0x249D SWAP2 SWAP1 PUSH2 0x6DE0 JUMP JUMPDEST DUP1 PUSH2 0x255F JUMPI POP PUSH1 0x2 PUSH0 SWAP1 SLOAD SWAP1 PUSH2 0x100 EXP SWAP1 DIV PUSH20 0xFFFFFFFFFFFFFFFFFFFFFFFFFFFFFFFFFFFFFFFF AND PUSH20 0xFFFFFFFFFFFFFFFFFFFFFFFFFFFFFFFFFFFFFFFF AND PUSH4 0x91D14854 PUSH32 0x940D6B1946FF1D2B5A9F1909219C3C81A370804B5BA0F91EC0828C99A2E6A681 CALLER PUSH1 0x40 MLOAD DUP4 PUSH4 0xFFFFFFFF AND PUSH1 0xE0 SHL DUP2 MSTORE PUSH1 0x4 ADD PUSH2 0x251F SWAP3 SWAP2 SWAP1 PUSH2 0x6DA5 JUMP JUMPDEST PUSH1 0x20 PUSH1 0x40 MLOAD DUP1 DUP4 SUB DUP2 DUP7 GAS STATICCALL ISZERO DUP1 ISZERO PUSH2 0x253A JUMPI RETURNDATASIZE PUSH0 PUSH0 RETURNDATACOPY RETURNDATASIZE PUSH0 REVERT JUMPDEST POP POP POP POP PUSH1 0x40 MLOAD RETURNDATASIZE PUSH1 0x1F NOT PUSH1 0x1F DUP3 ADD AND DUP3 ADD DUP1 PUSH1 0x40 MSTORE POP DUP2 ADD SWAP1 PUSH2 0x255E SWAP2 SWAP1 PUSH2 0x6DE0 JUMP JUMPDEST JUMPDEST PUSH2 0x259E JUMPI PUSH1 0x40 MLOAD PUSH32 0x8C379A000000000000000000000000000000000000000000000000000000000 DUP2 MSTORE PUSH1 0x4 ADD PUSH2 0x2595 SWAP1 PUSH2 0x6E55 JUMP JUMPDEST PUSH1 0x40 MLOAD DUP1 SWAP2 SUB SWAP1 REVERT JUMPDEST DUP1 PUSH1 0xB DUP2 SWAP1 SSTORE POP POP JUMP JUMPDEST PUSH0 PUSH1 0x6 DUP1 SLOAD SWAP1 POP SWAP1 POP SWAP1 JUMP JUMPDEST PUSH32 0xA49807205CE4D355092EF5A8A18F56E8913CF4A201FBE287825B095693C21775 DUP2 JUMP JUMPDEST PUSH0 PUSH1 0x2 PUSH0 SWAP1 SLOAD SWAP1 PUSH2 0x100 EXP SWAP1 DIV PUSH20 0xFFFFFFFFFFFFFFFFFFFFFFFFFFFFFFFFFFFFFFFF AND PUSH20 0xFFFFFFFFFFFFFFFFFFFFFFFFFFFFFFFFFFFFFFFF AND PUSH4 0x91D14854 PUSH32 0xA49807205CE4D355092EF5A8A18F56E8913CF4A201FBE287825B095693C21775 CALLER PUSH1 0x40 MLOAD DUP4 PUSH4 0xFFFFFFFF AND PUSH1 0xE0 SHL DUP2 MSTORE PUSH1 0x4 ADD PUSH2 0x2655 SWAP3 SWAP2 SWAP1 PUSH2 0x6DA5 JUMP JUMPDEST PUSH1 0x20 PUSH1 0x40 MLOAD DUP1 DUP4 SUB DUP2 DUP7 GAS STATICCALL ISZERO DUP1 ISZERO PUSH2 0x2670 JUMPI RETURNDATASIZE PUSH0 PUSH0 RETURNDATACOPY RETURNDATASIZE PUSH0 REVERT JUMPDEST POP POP POP POP PUSH1 0x40 MLOAD RETURNDATASIZE PUSH1 0x1F NOT PUSH1 0x1F DUP3 ADD AND DUP3 ADD DUP1 PUSH1 0x40 MSTORE POP DUP2 ADD SWAP1 PUSH2 0x2694 SWAP2 SWAP1 PUSH2 0x6DE0 JUMP JUMPDEST DUP1 PUSH2 0x2756 JUMPI POP PUSH1 0x2 PUSH0 SWAP1 SLOAD SWAP1 PUSH2 0x100 EXP SWAP1 DIV PUSH20 0xFFFFFFFFFFFFFFFFFFFFFFFFFFFFFFFFFFFFFFFF AND PUSH20 0xFFFFFFFFFFFFFFFFFFFFFFFFFFFFFFFFFFFFFFFF AND PUSH4 0x91D14854 PUSH32 0x940D6B1946FF1D2B5A9F1909219C3C81A370804B5BA0F91EC0828C99A2E6A681 CALLER PUSH1 0x40 MLOAD DUP4 PUSH4 0xFFFFFFFF AND PUSH1 0xE0 SHL DUP2 MSTORE PUSH1 0x4 ADD PUSH2 0x2716 SWAP3 SWAP2 SWAP1 PUSH2 0x6DA5 JUMP JUMPDEST PUSH1 0x20 PUSH1 0x40 MLOAD DUP1 DUP4 SUB DUP2 DUP7 GAS STATICCALL ISZERO DUP1 ISZERO PUSH2 0x2731 JUMPI RETURNDATASIZE PUSH0 PUSH0 RETURNDATACOPY RETURNDATASIZE PUSH0 REVERT JUMPDEST POP POP POP POP PUSH1 0x40 MLOAD RETURNDATASIZE PUSH1 0x1F NOT PUSH1 0x1F DUP3 ADD AND DUP3 ADD DUP1 PUSH1 0x40 MSTORE POP DUP2 ADD SWAP1 PUSH2 0x2755 SWAP2 SWAP1 PUSH2 0x6DE0 JUMP JUMPDEST JUMPDEST PUSH2 0x2795 JUMPI PUSH1 0x40 MLOAD PUSH32 0x8C379A000000000000000000000000000000000000000000000000000000000 DUP2 MSTORE PUSH1 0x4 ADD PUSH2 0x278C SWAP1 PUSH2 0x6E55 JUMP JUMPDEST PUSH1 0x40 MLOAD DUP1 SWAP2 SUB SWAP1 REVERT JUMPDEST DUP3 MLOAD DUP6 MLOAD EQ PUSH2 0x27D9 JUMPI PUSH1 0x40 MLOAD PUSH32 0x8C379A000000000000000000000000000000000000000000000000000000000 DUP2 MSTORE PUSH1 0x4 ADD PUSH2 0x27D0 SWAP1 PUSH2 0x7790 JUMP JUMPDEST PUSH1 0x40 MLOAD DUP1 SWAP2 SUB SWAP1 REVERT JUMPDEST PUSH0 DUP6 MLOAD GT PUSH2 0x281C JUMPI PUSH1 0x40 MLOAD PUSH32 0x8C379A000000000000000000000000000000000000000000000000000000000 DUP2 MSTORE PUSH1 0x4 ADD PUSH2 0x2813 SWAP1 PUSH2 0x77F8 JUMP JUMPDEST PUSH1 0x40 MLOAD DUP1 SWAP2 SUB SWAP1 REVERT JUMPDEST PUSH0 PUSH1 0x40 MLOAD DUP1 PUSH2 0x100 ADD PUSH1 0x40 MSTORE DUP1 DUP8 DUP2 MSTORE PUSH1 0x20 ADD DUP7 PUSH20 0xFFFFFFFFFFFFFFFFFFFFFFFFFFFFFFFFFFFFFFFF AND DUP2 MSTORE PUSH1 0x20 ADD DUP6 DUP2 MSTORE PUSH1 0x20 ADD DUP5 PUSH1 0x3 DUP2 GT ISZERO PUSH2 0x2864 JUMPI PUSH2 0x2863 PUSH2 0x5F29 JUMP JUMPDEST JUMPDEST DUP2 MSTORE PUSH1 0x20 ADD PUSH1 0xD PUSH0 SWAP1 SLOAD SWAP1 PUSH2 0x100 EXP SWAP1 DIV PUSH1 0xFF AND ISZERO ISZERO DUP2 MSTORE PUSH1 0x20 ADD PUSH1 0xD PUSH0 SWAP1 SLOAD SWAP1 PUSH2 0x100 EXP SWAP1 DIV PUSH1 0xFF AND ISZERO ISZERO ISZERO DUP2 MSTORE PUSH1 0x20 ADD PUSH1 0xD PUSH0 SWAP1 SLOAD SWAP1 PUSH2 0x100 EXP SWAP1 DIV PUSH1 0xFF AND PUSH2 0x28AF JUMPI CALLER PUSH2 0x28B1 JUMP JUMPDEST PUSH0 JUMPDEST PUSH20 0xFFFFFFFFFFFFFFFFFFFFFFFFFFFFFFFFFFFFFFFF AND DUP2 MSTORE PUSH1 0x20 ADD TIMESTAMP DUP2 MSTORE POP SWAP1 POP PUSH1 0x9 DUP2 SWAP1 DUP1 PUSH1 0x1 DUP2 SLOAD ADD DUP1 DUP3 SSTORE DUP1 SWAP2 POP POP PUSH1 0x1 SWAP1 SUB SWAP1 PUSH0 MSTORE PUSH1 0x20 PUSH0 KECCAK256 SWAP1 PUSH1 0x5 MUL ADD PUSH0 SWAP1 SWAP2 SWAP1 SWAP2 SWAP1 SWAP2 POP PUSH0 DUP3 ADD MLOAD DUP2 PUSH0 ADD SWAP1 DUP1 MLOAD SWAP1 PUSH1 0x20 ADD SWAP1 PUSH2 0x2915 SWAP3 SWAP2 SWAP1 PUSH2 0x5BCC JUMP JUMPDEST POP PUSH1 0x20 DUP3 ADD MLOAD DUP2 PUSH1 0x1 ADD PUSH0 PUSH2 0x100 EXP DUP2 SLOAD DUP2 PUSH20 0xFFFFFFFFFFFFFFFFFFFFFFFFFFFFFFFFFFFFFFFF MUL NOT AND SWAP1 DUP4 PUSH20 0xFFFFFFFFFFFFFFFFFFFFFFFFFFFFFFFFFFFFFFFF AND MUL OR SWAP1 SSTORE POP PUSH1 0x40 DUP3 ADD MLOAD DUP2 PUSH1 0x2 ADD SWAP1 DUP1 MLOAD SWAP1 PUSH1 0x20 ADD SWAP1 PUSH2 0x2978 SWAP3 SWAP2 SWAP1 PUSH2 0x5C53 JUMP JUMPDEST POP PUSH1 0x60 DUP3 ADD MLOAD DUP2 PUSH1 0x3 ADD PUSH0 PUSH2 0x100 EXP DUP2 SLOAD DUP2 PUSH1 0xFF MUL NOT AND SWAP1 DUP4 PUSH1 0x3 DUP2 GT ISZERO PUSH2 0x29A3 JUMPI PUSH2 0x29A2 PUSH2 0x5F29 JUMP JUMPDEST JUMPDEST MUL OR SWAP1 SSTORE POP PUSH1 0x80 DUP3 ADD MLOAD DUP2 PUSH1 0x3 ADD PUSH1 0x1 PUSH2 0x100 EXP DUP2 SLOAD DUP2 PUSH1 0xFF MUL NOT AND SWAP1 DUP4 ISZERO ISZERO MUL OR SWAP1 SSTORE POP PUSH1 0xA0 DUP3 ADD MLOAD DUP2 PUSH1 0x3 ADD PUSH1 0x2 PUSH2 0x100 EXP DUP2 SLOAD DUP2 PUSH1 0xFF MUL NOT AND SWAP1 DUP4 ISZERO ISZERO MUL OR SWAP1 SSTORE POP PUSH1 0xC0 DUP3 ADD MLOAD DUP2 PUSH1 0x3 ADD PUSH1 0x3 PUSH2 0x100 EXP DUP2 SLOAD DUP2 PUSH20 0xFFFFFFFFFFFFFFFFFFFFFFFFFFFFFFFFFFFFFFFF MUL NOT AND SWAP1 DUP4 PUSH20 0xFFFFFFFFFFFFFFFFFFFFFFFFFFFFFFFFFFFFFFFF AND MUL OR SWAP1 SSTORE POP PUSH1 0xE0 DUP3 ADD MLOAD DUP2 PUSH1 0x4 ADD SSTORE POP POP PUSH1 0x1 PUSH1 0x9 DUP1 SLOAD SWAP1 POP PUSH2 0x2A4D SWAP2 SWAP1 PUSH2 0x70D5 JUMP JUMPDEST SWAP2 POP DUP2 PUSH32 0xA40B9ABC4125F71CDC69FCD4F0E85D101DBFC67713F9E57F769EEB4C009D0E58 DUP8 MLOAD DUP8 PUSH1 0x40 MLOAD PUSH2 0x2A82 SWAP3 SWAP2 SWAP1 PUSH2 0x7816 JUMP JUMPDEST PUSH1 0x40 MLOAD DUP1 SWAP2 SUB SWAP1 LOG2 POP SWAP5 SWAP4 POP POP POP POP JUMP JUMPDEST PUSH1 0x2 PUSH0 SWAP1 SLOAD SWAP1 PUSH2 0x100 EXP SWAP1 DIV PUSH20 0xFFFFFFFFFFFFFFFFFFFFFFFFFFFFFFFFFFFFFFFF AND PUSH20 0xFFFFFFFFFFFFFFFFFFFFFFFFFFFFFFFFFFFFFFFF AND CALLER PUSH20 0xFFFFFFFFFFFFFFFFFFFFFFFFFFFFFFFFFFFFFFFF AND EQ PUSH2 0x2B22 JUMPI PUSH1 0x40 MLOAD PUSH32 0x8C379A000000000000000000000000000000000000000000000000000000000 DUP2 MSTORE PUSH1 0x4 ADD PUSH2 0x2B19 SWAP1 PUSH2 0x74C6 JUMP JUMPDEST PUSH1 0x40 MLOAD DUP1 SWAP2 SUB SWAP1 REVERT JUMPDEST DUP1 PUSH1 0x4 PUSH0 PUSH2 0x100 EXP DUP2 SLOAD DUP2 PUSH20 0xFFFFFFFFFFFFFFFFFFFFFFFFFFFFFFFFFFFFFFFF MUL NOT AND SWAP1 DUP4 PUSH20 0xFFFFFFFFFFFFFFFFFFFFFFFFFFFFFFFFFFFFFFFF AND MUL OR SWAP1 SSTORE POP POP JUMP JUMPDEST PUSH1 0x60 PUSH1 0x7 PUSH0 DUP4 PUSH20 0xFFFFFFFFFFFFFFFFFFFFFFFFFFFFFFFFFFFFFFFF AND PUSH20 0xFFFFFFFFFFFFFFFFFFFFFFFFFFFFFFFFFFFFFFFF AND DUP2 MSTORE PUSH1 0x20 ADD SWAP1 DUP2 MSTORE PUSH1 0x20 ADD PUSH0 KECCAK256 DUP1 SLOAD DUP1 PUSH1 0x20 MUL PUSH1 0x20 ADD PUSH1 0x40 MLOAD SWAP1 DUP2 ADD PUSH1 0x40 MSTORE DUP1 SWAP3 SWAP2 SWAP1 DUP2 DUP2 MSTORE PUSH1 0x20 ADD PUSH0 SWAP1 JUMPDEST DUP3 DUP3 LT ISZERO PUSH2 0x2E5A JUMPI DUP4 DUP3 SWAP1 PUSH0 MSTORE PUSH1 0x20 PUSH0 KECCAK256 SWAP1 PUSH1 0x9 MUL ADD PUSH1 0x40 MLOAD DUP1 PUSH2 0x140 ADD PUSH1 0x40 MSTORE SWAP1 DUP2 PUSH0 DUP3 ADD PUSH0 SWAP1 SLOAD SWAP1 PUSH2 0x100 EXP SWAP1 DIV PUSH20 0xFFFFFFFFFFFFFFFFFFFFFFFFFFFFFFFFFFFFFFFF AND PUSH20 0xFFFFFFFFFFFFFFFFFFFFFFFFFFFFFFFFFFFFFFFF AND PUSH20 0xFFFFFFFFFFFFFFFFFFFFFFFFFFFFFFFFFFFFFFFF AND DUP2 MSTORE PUSH1 0x20 ADD PUSH1 0x1 DUP3 ADD PUSH0 SWAP1 SLOAD SWAP1 PUSH2 0x100 EXP SWAP1 DIV PUSH20 0xFFFFFFFFFFFFFFFFFFFFFFFFFFFFFFFFFFFFFFFF AND PUSH20 0xFFFFFFFFFFFFFFFFFFFFFFFFFFFFFFFFFFFFFFFF AND PUSH20 0xFFFFFFFFFFFFFFFFFFFFFFFFFFFFFFFFFFFFFFFF AND DUP2 MSTORE PUSH1 0x20 ADD PUSH1 0x2 DUP3 ADD SLOAD DUP2 MSTORE PUSH1 0x20 ADD PUSH1 0x3 DUP3 ADD SLOAD DUP2 MSTORE PUSH1 0x20 ADD PUSH1 0x4 DUP3 ADD PUSH0 SWAP1 SLOAD SWAP1 PUSH2 0x100 EXP SWAP1 DIV PUSH1 0xFF AND PUSH1 0x3 DUP2 GT ISZERO PUSH2 0x2CC6 JUMPI PUSH2 0x2CC5 PUSH2 0x5F29 JUMP JUMPDEST JUMPDEST PUSH1 0x3 DUP2 GT ISZERO PUSH2 0x2CD8 JUMPI PUSH2 0x2CD7 PUSH2 0x5F29 JUMP JUMPDEST JUMPDEST DUP2 MSTORE PUSH1 0x20 ADD PUSH1 0x4 DUP3 ADD PUSH1 0x1 SWAP1 SLOAD SWAP1 PUSH2 0x100 EXP SWAP1 DIV PUSH1 0xFF AND PUSH1 0x3 DUP2 GT ISZERO PUSH2 0x2D01 JUMPI PUSH2 0x2D00 PUSH2 0x5F29 JUMP JUMPDEST JUMPDEST PUSH1 0x3 DUP2 GT ISZERO PUSH2 0x2D13 JUMPI PUSH2 0x2D12 PUSH2 0x5F29 JUMP JUMPDEST JUMPDEST DUP2 MSTORE PUSH1 0x20 ADD PUSH1 0x5 DUP3 ADD DUP1 SLOAD PUSH2 0x2D27 SWAP1 PUSH2 0x71A3 JUMP JUMPDEST DUP1 PUSH1 0x1F ADD PUSH1 0x20 DUP1 SWAP2 DIV MUL PUSH1 0x20 ADD PUSH1 0x40 MLOAD SWAP1 DUP2 ADD PUSH1 0x40 MSTORE DUP1 SWAP3 SWAP2 SWAP1 DUP2 DUP2 MSTORE PUSH1 0x20 ADD DUP3 DUP1 SLOAD PUSH2 0x2D53 SWAP1 PUSH2 0x71A3 JUMP JUMPDEST DUP1 ISZERO PUSH2 0x2D9E JUMPI DUP1 PUSH1 0x1F LT PUSH2 0x2D75 JUMPI PUSH2 0x100 DUP1 DUP4 SLOAD DIV MUL DUP4 MSTORE SWAP2 PUSH1 0x20 ADD SWAP2 PUSH2 0x2D9E JUMP JUMPDEST DUP3 ADD SWAP2 SWAP1 PUSH0 MSTORE PUSH1 0x20 PUSH0 KECCAK256 SWAP1 JUMPDEST DUP2 SLOAD DUP2 MSTORE SWAP1 PUSH1 0x1 ADD SWAP1 PUSH1 0x20 ADD DUP1 DUP4 GT PUSH2 0x2D81 JUMPI DUP3 SWAP1 SUB PUSH1 0x1F AND DUP3 ADD SWAP2 JUMPDEST POP POP POP POP POP DUP2 MSTORE PUSH1 0x20 ADD PUSH1 0x6 DUP3 ADD SLOAD DUP2 MSTORE PUSH1 0x20 ADD PUSH1 0x7 DUP3 ADD SLOAD DUP2 MSTORE PUSH1 0x20 ADD PUSH1 0x8 DUP3 ADD DUP1 SLOAD PUSH2 0x2DCB SWAP1 PUSH2 0x71A3 JUMP JUMPDEST DUP1 PUSH1 0x1F ADD PUSH1 0x20 DUP1 SWAP2 DIV MUL PUSH1 0x20 ADD PUSH1 0x40 MLOAD SWAP1 DUP2 ADD PUSH1 0x40 MSTORE DUP1 SWAP3 SWAP2 SWAP1 DUP2 DUP2 MSTORE PUSH1 0x20 ADD DUP3 DUP1 SLOAD PUSH2 0x2DF7 SWAP1 PUSH2 0x71A3 JUMP JUMPDEST DUP1 ISZERO PUSH2 0x2E42 JUMPI DUP1 PUSH1 0x1F LT PUSH2 0x2E19 JUMPI PUSH2 0x100 DUP1 DUP4 SLOAD DIV MUL DUP4 MSTORE SWAP2 PUSH1 0x20 ADD SWAP2 PUSH2 0x2E42 JUMP JUMPDEST DUP3 ADD SWAP2 SWAP1 PUSH0 MSTORE PUSH1 0x20 PUSH0 KECCAK256 SWAP1 JUMPDEST DUP2 SLOAD DUP2 MSTORE SWAP1 PUSH1 0x1 ADD SWAP1 PUSH1 0x20 ADD DUP1 DUP4 GT PUSH2 0x2E25 JUMPI DUP3 SWAP1 SUB PUSH1 0x1F AND DUP3 ADD SWAP2 JUMPDEST POP POP POP POP POP DUP2 MSTORE POP POP DUP2 MSTORE PUSH1 0x20 ADD SWAP1 PUSH1 0x1 ADD SWAP1 PUSH2 0x2BC3 JUMP JUMPDEST POP POP POP POP SWAP1 POP SWAP2 SWAP1 POP JUMP JUMPDEST PUSH1 0x2 PUSH0 SWAP1 SLOAD SWAP1 PUSH2 0x100 EXP SWAP1 DIV PUSH20 0xFFFFFFFFFFFFFFFFFFFFFFFFFFFFFFFFFFFFFFFF AND PUSH20 0xFFFFFFFFFFFFFFFFFFFFFFFFFFFFFFFFFFFFFFFF AND PUSH4 0x91D14854 PUSH32 0xA49807205CE4D355092EF5A8A18F56E8913CF4A201FBE287825B095693C21775 CALLER PUSH1 0x40 MLOAD DUP4 PUSH4 0xFFFFFFFF AND PUSH1 0xE0 SHL DUP2 MSTORE PUSH1 0x4 ADD PUSH2 0x2EE1 SWAP3 SWAP2 SWAP1 PUSH2 0x6DA5 JUMP JUMPDEST PUSH1 0x20 PUSH1 0x40 MLOAD DUP1 DUP4 SUB DUP2 DUP7 GAS STATICCALL ISZERO DUP1 ISZERO PUSH2 0x2EFC JUMPI RETURNDATASIZE PUSH0 PUSH0 RETURNDATACOPY RETURNDATASIZE PUSH0 REVERT JUMPDEST POP POP POP POP PUSH1 0x40 MLOAD RETURNDATASIZE PUSH1 0x1F NOT PUSH1 0x1F DUP3 ADD AND DUP3 ADD DUP1 PUSH1 0x40 MSTORE POP DUP2 ADD SWAP1 PUSH2 0x2F20 SWAP2 SWAP1 PUSH2 0x6DE0 JUMP JUMPDEST DUP1 PUSH2 0x2FE2 JUMPI POP PUSH1 0x2 PUSH0 SWAP1 SLOAD SWAP1 PUSH2 0x100 EXP SWAP1 DIV PUSH20 0xFFFFFFFFFFFFFFFFFFFFFFFFFFFFFFFFFFFFFFFF AND PUSH20 0xFFFFFFFFFFFFFFFFFFFFFFFFFFFFFFFFFFFFFFFF AND PUSH4 0x91D14854 PUSH32 0x940D6B1946FF1D2B5A9F1909219C3C81A370804B5BA0F91EC0828C99A2E6A681 CALLER PUSH1 0x40 MLOAD DUP4 PUSH4 0xFFFFFFFF AND PUSH1 0xE0 SHL DUP2 MSTORE PUSH1 0x4 ADD PUSH2 0x2FA2 SWAP3 SWAP2 SWAP1 PUSH2 0x6DA5 JUMP JUMPDEST PUSH1 0x20 PUSH1 0x40 MLOAD DUP1 DUP4 SUB DUP2 DUP7 GAS STATICCALL ISZERO DUP1 ISZERO PUSH2 0x2FBD JUMPI RETURNDATASIZE PUSH0 PUSH0 RETURNDATACOPY RETURNDATASIZE PUSH0 REVERT JUMPDEST POP POP POP POP PUSH1 0x40 MLOAD RETURNDATASIZE PUSH1 0x1F NOT PUSH1 0x1F DUP3 ADD AND DUP3 ADD DUP1 PUSH1 0x40 MSTORE POP DUP2 ADD SWAP1 PUSH2 0x2FE1 SWAP2 SWAP1 PUSH2 0x6DE0 JUMP JUMPDEST JUMPDEST PUSH2 0x3021 JUMPI PUSH1 0x40 MLOAD PUSH32 0x8C379A000000000000000000000000000000000000000000000000000000000 DUP2 MSTORE PUSH1 0x4 ADD PUSH2 0x3018 SWAP1 PUSH2 0x6E55 JUMP JUMPDEST PUSH1 0x40 MLOAD DUP1 SWAP2 SUB SWAP1 REVERT JUMPDEST PUSH2 0x3029 PUSH2 0x4B71 JUMP JUMPDEST PUSH1 0x9 DUP1 SLOAD SWAP1 POP DUP2 LT PUSH2 0x3070 JUMPI PUSH1 0x40 MLOAD PUSH32 0x8C379A000000000000000000000000000000000000000000000000000000000 DUP2 MSTORE PUSH1 0x4 ADD PUSH2 0x3067 SWAP1 PUSH2 0x6D5A JUMP JUMPDEST PUSH1 0x40 MLOAD DUP1 SWAP2 SUB SWAP1 REVERT JUMPDEST PUSH1 0x9 DUP2 DUP2 SLOAD DUP2 LT PUSH2 0x3084 JUMPI PUSH2 0x3083 PUSH2 0x6D78 JUMP JUMPDEST JUMPDEST SWAP1 PUSH0 MSTORE PUSH1 0x20 PUSH0 KECCAK256 SWAP1 PUSH1 0x5 MUL ADD PUSH1 0x3 ADD PUSH1 0x2 SWAP1 SLOAD SWAP1 PUSH2 0x100 EXP SWAP1 DIV PUSH1 0xFF AND PUSH2 0x30E0 JUMPI PUSH1 0x40 MLOAD PUSH32 0x8C379A000000000000000000000000000000000000000000000000000000000 DUP2 MSTORE PUSH1 0x4 ADD PUSH2 0x30D7 SWAP1 PUSH2 0x7887 JUMP JUMPDEST PUSH1 0x40 MLOAD DUP1 SWAP2 SUB SWAP1 REVERT JUMPDEST PUSH1 0xA PUSH0 DUP3 DUP2 MSTORE PUSH1 0x20 ADD SWAP1 DUP2 MSTORE PUSH1 0x20 ADD PUSH0 KECCAK256 PUSH0 SWAP1 SLOAD SWAP1 PUSH2 0x100 EXP SWAP1 DIV PUSH1 0xFF AND ISZERO PUSH2 0x313E JUMPI PUSH1 0x40 MLOAD PUSH32 0x8C379A000000000000000000000000000000000000000000000000000000000 DUP2 MSTORE PUSH1 0x4 ADD PUSH2 0x3135 SWAP1 PUSH2 0x78EF JUMP JUMPDEST PUSH1 0x40 MLOAD DUP1 SWAP2 SUB SWAP1 REVERT JUMPDEST PUSH0 PUSH1 0x9 DUP3 DUP2 SLOAD DUP2 LT PUSH2 0x3153 JUMPI PUSH2 0x3152 PUSH2 0x6D78 JUMP JUMPDEST JUMPDEST SWAP1 PUSH0 MSTORE PUSH1 0x20 PUSH0 KECCAK256 SWAP1 PUSH1 0x5 MUL ADD PUSH1 0x40 MLOAD DUP1 PUSH2 0x100 ADD PUSH1 0x40 MSTORE SWAP1 DUP2 PUSH0 DUP3 ADD DUP1 SLOAD DUP1 PUSH1 0x20 MUL PUSH1 0x20 ADD PUSH1 0x40 MLOAD SWAP1 DUP2 ADD PUSH1 0x40 MSTORE DUP1 SWAP3 SWAP2 SWAP1 DUP2 DUP2 MSTORE PUSH1 0x20 ADD DUP3 DUP1 SLOAD DUP1 ISZERO PUSH2 0x31EC JUMPI PUSH1 0x20 MUL DUP3 ADD SWAP2 SWAP1 PUSH0 MSTORE PUSH1 0x20 PUSH0 KECCAK256 SWAP1 JUMPDEST DUP2 PUSH0 SWAP1 SLOAD SWAP1 PUSH2 0x100 EXP SWAP1 DIV PUSH20 0xFFFFFFFFFFFFFFFFFFFFFFFFFFFFFFFFFFFFFFFF AND PUSH20 0xFFFFFFFFFFFFFFFFFFFFFFFFFFFFFFFFFFFFFFFF AND DUP2 MSTORE PUSH1 0x20 ADD SWAP1 PUSH1 0x1 ADD SWAP1 DUP1 DUP4 GT PUSH2 0x31A3 JUMPI JUMPDEST POP POP POP POP POP DUP2 MSTORE PUSH1 0x20 ADD PUSH1 0x1 DUP3 ADD PUSH0 SWAP1 SLOAD SWAP1 PUSH2 0x100 EXP SWAP1 DIV PUSH20 0xFFFFFFFFFFFFFFFFFFFFFFFFFFFFFFFFFFFFFFFF AND PUSH20 0xFFFFFFFFFFFFFFFFFFFFFFFFFFFFFFFFFFFFFFFF AND PUSH20 0xFFFFFFFFFFFFFFFFFFFFFFFFFFFFFFFFFFFFFFFF AND DUP2 MSTORE PUSH1 0x20 ADD PUSH1 0x2 DUP3 ADD DUP1 SLOAD DUP1 PUSH1 0x20 MUL PUSH1 0x20 ADD PUSH1 0x40 MLOAD SWAP1 DUP2 ADD PUSH1 0x40 MSTORE DUP1 SWAP3 SWAP2 SWAP1 DUP2 DUP2 MSTORE PUSH1 0x20 ADD DUP3 DUP1 SLOAD DUP1 ISZERO PUSH2 0x3297 JUMPI PUSH1 0x20 MUL DUP3 ADD SWAP2 SWAP1 PUSH0 MSTORE PUSH1 0x20 PUSH0 KECCAK256 SWAP1 JUMPDEST DUP2 SLOAD DUP2 MSTORE PUSH1 0x20 ADD SWAP1 PUSH1 0x1 ADD SWAP1 DUP1 DUP4 GT PUSH2 0x3283 JUMPI JUMPDEST POP POP POP POP POP DUP2 MSTORE PUSH1 0x20 ADD PUSH1 0x3 DUP3 ADD PUSH0 SWAP1 SLOAD SWAP1 PUSH2 0x100 EXP SWAP1 DIV PUSH1 0xFF AND PUSH1 0x3 DUP2 GT ISZERO PUSH2 0x32C4 JUMPI PUSH2 0x32C3 PUSH2 0x5F29 JUMP JUMPDEST JUMPDEST PUSH1 0x3 DUP2 GT ISZERO PUSH2 0x32D6 JUMPI PUSH2 0x32D5 PUSH2 0x5F29 JUMP JUMPDEST JUMPDEST DUP2 MSTORE PUSH1 0x20 ADD PUSH1 0x3 DUP3 ADD PUSH1 0x1 SWAP1 SLOAD SWAP1 PUSH2 0x100 EXP SWAP1 DIV PUSH1 0xFF AND ISZERO ISZERO ISZERO ISZERO DUP2 MSTORE PUSH1 0x20 ADD PUSH1 0x3 DUP3 ADD PUSH1 0x2 SWAP1 SLOAD SWAP1 PUSH2 0x100 EXP SWAP1 DIV PUSH1 0xFF AND ISZERO ISZERO ISZERO ISZERO DUP2 MSTORE PUSH1 0x20 ADD PUSH1 0x3 DUP3 ADD PUSH1 0x3 SWAP1 SLOAD SWAP1 PUSH2 0x100 EXP SWAP1 DIV PUSH20 0xFFFFFFFFFFFFFFFFFFFFFFFFFFFFFFFFFFFFFFFF AND PUSH20 0xFFFFFFFFFFFFFFFFFFFFFFFFFFFFFFFFFFFFFFFF AND PUSH20 0xFFFFFFFFFFFFFFFFFFFFFFFFFFFFFFFFFFFFFFFF AND DUP2 MSTORE PUSH1 0x20 ADD PUSH1 0x4 DUP3 ADD SLOAD DUP2 MSTORE POP POP SWAP1 POP PUSH0 PUSH0 SWAP1 POP PUSH0 PUSH0 SWAP1 POP PUSH0 PUSH0 SWAP1 POP JUMPDEST DUP4 PUSH0 ADD MLOAD MLOAD DUP2 LT ISZERO PUSH2 0x3413 JUMPI PUSH0 PUSH2 0x33DB DUP6 PUSH0 ADD MLOAD DUP4 DUP2 MLOAD DUP2 LT PUSH2 0x33A5 JUMPI PUSH2 0x33A4 PUSH2 0x6D78 JUMP JUMPDEST JUMPDEST PUSH1 0x20 MUL PUSH1 0x20 ADD ADD MLOAD DUP7 PUSH1 0x20 ADD MLOAD DUP8 PUSH1 0x40 ADD MLOAD DUP6 DUP2 MLOAD DUP2 LT PUSH2 0x33C9 JUMPI PUSH2 0x33C8 PUSH2 0x6D78 JUMP JUMPDEST JUMPDEST PUSH1 0x20 MUL PUSH1 0x20 ADD ADD MLOAD DUP9 PUSH1 0x60 ADD MLOAD PUSH2 0x4F27 JUMP JUMPDEST SWAP1 POP DUP1 ISZERO PUSH2 0x33F6 JUMPI DUP4 DUP1 PUSH2 0x33EE SWAP1 PUSH2 0x712F JUMP JUMPDEST SWAP5 POP POP PUSH2 0x3405 JUMP JUMPDEST DUP3 DUP1 PUSH2 0x3401 SWAP1 PUSH2 0x712F JUMP JUMPDEST SWAP4 POP POP JUMPDEST POP DUP1 DUP1 PUSH1 0x1 ADD SWAP2 POP POP PUSH2 0x337F JUMP JUMPDEST POP PUSH1 0x1 PUSH1 0xA PUSH0 DUP7 DUP2 MSTORE PUSH1 0x20 ADD SWAP1 DUP2 MSTORE PUSH1 0x20 ADD PUSH0 KECCAK256 PUSH0 PUSH2 0x100 EXP DUP2 SLOAD DUP2 PUSH1 0xFF MUL NOT AND SWAP1 DUP4 ISZERO ISZERO MUL OR SWAP1 SSTORE POP DUP4 PUSH32 0x20EB9F3AEBB74816A1325A7477CFA6F6AB692B692CD5930DB98BD2D0343B70CA DUP4 DUP4 PUSH1 0x40 MLOAD PUSH2 0x346F SWAP3 SWAP2 SWAP1 PUSH2 0x771F JUMP JUMPDEST PUSH1 0x40 MLOAD DUP1 SWAP2 SUB SWAP1 LOG2 PUSH1 0x5 PUSH0 SWAP1 SLOAD SWAP1 PUSH2 0x100 EXP SWAP1 DIV PUSH20 0xFFFFFFFFFFFFFFFFFFFFFFFFFFFFFFFFFFFFFFFF AND PUSH20 0xFFFFFFFFFFFFFFFFFFFFFFFFFFFFFFFFFFFFFFFF AND PUSH4 0x44C83B97 CALLER DUP7 DUP6 DUP6 TIMESTAMP PUSH1 0x40 MLOAD PUSH1 0x20 ADD PUSH2 0x34CC SWAP5 SWAP4 SWAP3 SWAP2 SWAP1 PUSH2 0x790D JUMP JUMPDEST PUSH1 0x40 MLOAD PUSH1 0x20 DUP2 DUP4 SUB SUB DUP2 MSTORE SWAP1 PUSH1 0x40 MSTORE PUSH1 0x40 MLOAD DUP4 PUSH4 0xFFFFFFFF AND PUSH1 0xE0 SHL DUP2 MSTORE PUSH1 0x4 ADD PUSH2 0x34F8 SWAP3 SWAP2 SWAP1 PUSH2 0x79EC JUMP JUMPDEST PUSH0 PUSH1 0x40 MLOAD DUP1 DUP4 SUB DUP2 PUSH0 DUP8 DUP1 EXTCODESIZE ISZERO DUP1 ISZERO PUSH2 0x350F JUMPI PUSH0 PUSH0 REVERT JUMPDEST POP GAS CALL ISZERO DUP1 ISZERO PUSH2 0x3521 JUMPI RETURNDATASIZE PUSH0 PUSH0 RETURNDATACOPY RETURNDATASIZE PUSH0 REVERT JUMPDEST POP POP POP POP POP POP POP PUSH2 0x3530 PUSH2 0x4E2E JUMP JUMPDEST POP JUMP JUMPDEST PUSH0 PUSH1 0x9 DUP1 SLOAD SWAP1 POP SWAP1 POP SWAP1 JUMP JUMPDEST PUSH1 0x7 PUSH1 0x20 MSTORE DUP2 PUSH0 MSTORE PUSH1 0x40 PUSH0 KECCAK256 DUP2 DUP2 SLOAD DUP2 LT PUSH2 0x3558 JUMPI PUSH0 DUP1 REVERT JUMPDEST SWAP1 PUSH0 MSTORE PUSH1 0x20 PUSH0 KECCAK256 SWAP1 PUSH1 0x9 MUL ADD PUSH0 SWAP2 POP SWAP2 POP POP DUP1 PUSH0 ADD PUSH0 SWAP1 SLOAD SWAP1 PUSH2 0x100 EXP SWAP1 DIV PUSH20 0xFFFFFFFFFFFFFFFFFFFFFFFFFFFFFFFFFFFFFFFF AND SWAP1 DUP1 PUSH1 0x1 ADD PUSH0 SWAP1 SLOAD SWAP1 PUSH2 0x100 EXP SWAP1 DIV PUSH20 0xFFFFFFFFFFFFFFFFFFFFFFFFFFFFFFFFFFFFFFFF AND SWAP1 DUP1 PUSH1 0x2 ADD SLOAD SWAP1 DUP1 PUSH1 0x3 ADD SLOAD SWAP1 DUP1 PUSH1 0x4 ADD PUSH0 SWAP1 SLOAD SWAP1 PUSH2 0x100 EXP SWAP1 DIV PUSH1 0xFF AND SWAP1 DUP1 PUSH1 0x4 ADD PUSH1 0x1 SWAP1 SLOAD SWAP1 PUSH2 0x100 EXP SWAP1 DIV PUSH1 0xFF AND SWAP1 DUP1 PUSH1 0x5 ADD DUP1 SLOAD PUSH2 0x35F3 SWAP1 PUSH2 0x71A3 JUMP JUMPDEST DUP1 PUSH1 0x1F ADD PUSH1 0x20 DUP1 SWAP2 DIV MUL PUSH1 0x20 ADD PUSH1 0x40 MLOAD SWAP1 DUP2 ADD PUSH1 0x40 MSTORE DUP1 SWAP3 SWAP2 SWAP1 DUP2 DUP2 MSTORE PUSH1 0x20 ADD DUP3 DUP1 SLOAD PUSH2 0x361F SWAP1 PUSH2 0x71A3 JUMP JUMPDEST DUP1 ISZERO PUSH2 0x366A JUMPI DUP1 PUSH1 0x1F LT PUSH2 0x3641 JUMPI PUSH2 0x100 DUP1 DUP4 SLOAD DIV MUL DUP4 MSTORE SWAP2 PUSH1 0x20 ADD SWAP2 PUSH2 0x366A JUMP JUMPDEST DUP3 ADD SWAP2 SWAP1 PUSH0 MSTORE PUSH1 0x20 PUSH0 KECCAK256 SWAP1 JUMPDEST DUP2 SLOAD DUP2 MSTORE SWAP1 PUSH1 0x1 ADD SWAP1 PUSH1 0x20 ADD DUP1 DUP4 GT PUSH2 0x364D JUMPI DUP3 SWAP1 SUB PUSH1 0x1F AND DUP3 ADD SWAP2 JUMPDEST POP POP POP POP POP SWAP1 DUP1 PUSH1 0x6 ADD SLOAD SWAP1 DUP1 PUSH1 0x7 ADD SLOAD SWAP1 DUP1 PUSH1 0x8 ADD DUP1 SLOAD PUSH2 0x368B SWAP1 PUSH2 0x71A3 JUMP JUMPDEST DUP1 PUSH1 0x1F ADD PUSH1 0x20 DUP1 SWAP2 DIV MUL PUSH1 0x20 ADD PUSH1 0x40 MLOAD SWAP1 DUP2 ADD PUSH1 0x40 MSTORE DUP1 SWAP3 SWAP2 SWAP1 DUP2 DUP2 MSTORE PUSH1 0x20 ADD DUP3 DUP1 SLOAD PUSH2 0x36B7 SWAP1 PUSH2 0x71A3 JUMP JUMPDEST DUP1 ISZERO PUSH2 0x3702 JUMPI DUP1 PUSH1 0x1F LT PUSH2 0x36D9 JUMPI PUSH2 0x100 DUP1 DUP4 SLOAD DIV MUL DUP4 MSTORE SWAP2 PUSH1 0x20 ADD SWAP2 PUSH2 0x3702 JUMP JUMPDEST DUP3 ADD SWAP2 SWAP1 PUSH0 MSTORE PUSH1 0x20 PUSH0 KECCAK256 SWAP1 JUMPDEST DUP2 SLOAD DUP2 MSTORE SWAP1 PUSH1 0x1 ADD SWAP1 PUSH1 0x20 ADD DUP1 DUP4 GT PUSH2 0x36E5 JUMPI DUP3 SWAP1 SUB PUSH1 0x1F AND DUP3 ADD SWAP2 JUMPDEST POP POP POP POP POP SWAP1 POP DUP11 JUMP JUMPDEST PUSH1 0x2 PUSH0 SWAP1 SLOAD SWAP1 PUSH2 0x100 EXP SWAP1 DIV PUSH20 0xFFFFFFFFFFFFFFFFFFFFFFFFFFFFFFFFFFFFFFFF AND PUSH20 0xFFFFFFFFFFFFFFFFFFFFFFFFFFFFFFFFFFFFFFFF AND PUSH4 0x91D14854 PUSH32 0xA49807205CE4D355092EF5A8A18F56E8913CF4A201FBE287825B095693C21775 CALLER PUSH1 0x40 MLOAD DUP4 PUSH4 0xFFFFFFFF AND PUSH1 0xE0 SHL DUP2 MSTORE PUSH1 0x4 ADD PUSH2 0x3788 SWAP3 SWAP2 SWAP1 PUSH2 0x6DA5 JUMP JUMPDEST PUSH1 0x20 PUSH1 0x40 MLOAD DUP1 DUP4 SUB DUP2 DUP7 GAS STATICCALL ISZERO DUP1 ISZERO PUSH2 0x37A3 JUMPI RETURNDATASIZE PUSH0 PUSH0 RETURNDATACOPY RETURNDATASIZE PUSH0 REVERT JUMPDEST POP POP POP POP PUSH1 0x40 MLOAD RETURNDATASIZE PUSH1 0x1F NOT PUSH1 0x1F DUP3 ADD AND DUP3 ADD DUP1 PUSH1 0x40 MSTORE POP DUP2 ADD SWAP1 PUSH2 0x37C7 SWAP2 SWAP1 PUSH2 0x6DE0 JUMP JUMPDEST DUP1 PUSH2 0x3889 JUMPI POP PUSH1 0x2 PUSH0 SWAP1 SLOAD SWAP1 PUSH2 0x100 EXP SWAP1 DIV PUSH20 0xFFFFFFFFFFFFFFFFFFFFFFFFFFFFFFFFFFFFFFFF AND PUSH20 0xFFFFFFFFFFFFFFFFFFFFFFFFFFFFFFFFFFFFFFFF AND PUSH4 0x91D14854 PUSH32 0x940D6B1946FF1D2B5A9F1909219C3C81A370804B5BA0F91EC0828C99A2E6A681 CALLER PUSH1 0x40 MLOAD DUP4 PUSH4 0xFFFFFFFF AND PUSH1 0xE0 SHL DUP2 MSTORE PUSH1 0x4 ADD PUSH2 0x3849 SWAP3 SWAP2 SWAP1 PUSH2 0x6DA5 JUMP JUMPDEST PUSH1 0x20 PUSH1 0x40 MLOAD DUP1 DUP4 SUB DUP2 DUP7 GAS STATICCALL ISZERO DUP1 ISZERO PUSH2 0x3864 JUMPI RETURNDATASIZE PUSH0 PUSH0 RETURNDATACOPY RETURNDATASIZE PUSH0 REVERT JUMPDEST POP POP POP POP PUSH1 0x40 MLOAD RETURNDATASIZE PUSH1 0x1F NOT PUSH1 0x1F DUP3 ADD AND DUP3 ADD DUP1 PUSH1 0x40 MSTORE POP DUP2 ADD SWAP1 PUSH2 0x3888 SWAP2 SWAP1 PUSH2 0x6DE0 JUMP JUMPDEST JUMPDEST PUSH2 0x38C8 JUMPI PUSH1 0x40 MLOAD PUSH32 0x8C379A000000000000000000000000000000000000000000000000000000000 DUP2 MSTORE PUSH1 0x4 ADD PUSH2 0x38BF SWAP1 PUSH2 0x6E55 JUMP JUMPDEST PUSH1 0x40 MLOAD DUP1 SWAP2 SUB SWAP1 REVERT JUMPDEST DUP1 PUSH1 0xC DUP2 SWAP1 SSTORE POP POP JUMP JUMPDEST PUSH0 PUSH0 PUSH0 DUP5 DUP2 MSTORE PUSH1 0x20 ADD SWAP1 DUP2 MSTORE PUSH1 0x20 ADD PUSH0 KECCAK256 PUSH0 ADD PUSH0 DUP4 PUSH20 0xFFFFFFFFFFFFFFFFFFFFFFFFFFFFFFFFFFFFFFFF AND PUSH20 0xFFFFFFFFFFFFFFFFFFFFFFFFFFFFFFFFFFFFFFFF AND DUP2 MSTORE PUSH1 0x20 ADD SWAP1 DUP2 MSTORE PUSH1 0x20 ADD PUSH0 KECCAK256 PUSH0 SWAP1 SLOAD SWAP1 PUSH2 0x100 EXP SWAP1 DIV PUSH1 0xFF AND SWAP1 POP SWAP3 SWAP2 POP POP JUMP JUMPDEST PUSH0 PUSH1 0x8 PUSH0 DUP4 PUSH20 0xFFFFFFFFFFFFFFFFFFFFFFFFFFFFFFFFFFFFFFFF AND PUSH20 0xFFFFFFFFFFFFFFFFFFFFFFFFFFFFFFFFFFFFFFFF AND DUP2 MSTORE PUSH1 0x20 ADD SWAP1 DUP2 MSTORE PUSH1 0x20 ADD PUSH0 KECCAK256 SLOAD SWAP1 POP SWAP2 SWAP1 POP JUMP JUMPDEST PUSH1 0x2 PUSH0 SWAP1 SLOAD SWAP1 PUSH2 0x100 EXP SWAP1 DIV PUSH20 0xFFFFFFFFFFFFFFFFFFFFFFFFFFFFFFFFFFFFFFFF AND DUP2 JUMP JUMPDEST PUSH0 PUSH0 SHL DUP2 JUMP JUMPDEST PUSH1 0x6 DUP2 DUP2 SLOAD DUP2 LT PUSH2 0x39B5 JUMPI PUSH0 DUP1 REVERT JUMPDEST SWAP1 PUSH0 MSTORE PUSH1 0x20 PUSH0 KECCAK256 SWAP1 PUSH1 0x9 MUL ADD PUSH0 SWAP2 POP SWAP1 POP DUP1 PUSH0 ADD PUSH0 SWAP1 SLOAD SWAP1 PUSH2 0x100 EXP SWAP1 DIV PUSH20 0xFFFFFFFFFFFFFFFFFFFFFFFFFFFFFFFFFFFFFFFF AND SWAP1 DUP1 PUSH1 0x1 ADD PUSH0 SWAP1 SLOAD SWAP1 PUSH2 0x100 EXP SWAP1 DIV PUSH20 0xFFFFFFFFFFFFFFFFFFFFFFFFFFFFFFFFFFFFFFFF AND SWAP1 DUP1 PUSH1 0x2 ADD SLOAD SWAP1 DUP1 PUSH1 0x3 ADD SLOAD SWAP1 DUP1 PUSH1 0x4 ADD PUSH0 SWAP1 SLOAD SWAP1 PUSH2 0x100 EXP SWAP1 DIV PUSH1 0xFF AND SWAP1 DUP1 PUSH1 0x4 ADD PUSH1 0x1 SWAP1 SLOAD SWAP1 PUSH2 0x100 EXP SWAP1 DIV PUSH1 0xFF AND SWAP1 DUP1 PUSH1 0x5 ADD DUP1 SLOAD PUSH2 0x3A4F SWAP1 PUSH2 0x71A3 JUMP JUMPDEST DUP1 PUSH1 0x1F ADD PUSH1 0x20 DUP1 SWAP2 DIV MUL PUSH1 0x20 ADD PUSH1 0x40 MLOAD SWAP1 DUP2 ADD PUSH1 0x40 MSTORE DUP1 SWAP3 SWAP2 SWAP1 DUP2 DUP2 MSTORE PUSH1 0x20 ADD DUP3 DUP1 SLOAD PUSH2 0x3A7B SWAP1 PUSH2 0x71A3 JUMP JUMPDEST DUP1 ISZERO PUSH2 0x3AC6 JUMPI DUP1 PUSH1 0x1F LT PUSH2 0x3A9D JUMPI PUSH2 0x100 DUP1 DUP4 SLOAD DIV MUL DUP4 MSTORE SWAP2 PUSH1 0x20 ADD SWAP2 PUSH2 0x3AC6 JUMP JUMPDEST DUP3 ADD SWAP2 SWAP1 PUSH0 MSTORE PUSH1 0x20 PUSH0 KECCAK256 SWAP1 JUMPDEST DUP2 SLOAD DUP2 MSTORE SWAP1 PUSH1 0x1 ADD SWAP1 PUSH1 0x20 ADD DUP1 DUP4 GT PUSH2 0x3AA9 JUMPI DUP3 SWAP1 SUB PUSH1 0x1F AND DUP3 ADD SWAP2 JUMPDEST POP POP POP POP POP SWAP1 DUP1 PUSH1 0x6 ADD SLOAD SWAP1 DUP1 PUSH1 0x7 ADD SLOAD SWAP1 DUP1 PUSH1 0x8 ADD DUP1 SLOAD PUSH2 0x3AE7 SWAP1 PUSH2 0x71A3 JUMP JUMPDEST DUP1 PUSH1 0x1F ADD PUSH1 0x20 DUP1 SWAP2 DIV MUL PUSH1 0x20 ADD PUSH1 0x40 MLOAD SWAP1 DUP2 ADD PUSH1 0x40 MSTORE DUP1 SWAP3 SWAP2 SWAP1 DUP2 DUP2 MSTORE PUSH1 0x20 ADD DUP3 DUP1 SLOAD PUSH2 0x3B13 SWAP1 PUSH2 0x71A3 JUMP JUMPDEST DUP1 ISZERO PUSH2 0x3B5E JUMPI DUP1 PUSH1 0x1F LT PUSH2 0x3B35 JUMPI PUSH2 0x100 DUP1 DUP4 SLOAD DIV MUL DUP4 MSTORE SWAP2 PUSH1 0x20 ADD SWAP2 PUSH2 0x3B5E JUMP JUMPDEST DUP3 ADD SWAP2 SWAP1 PUSH0 MSTORE PUSH1 0x20 PUSH0 KECCAK256 SWAP1 JUMPDEST DUP2 SLOAD DUP2 MSTORE SWAP1 PUSH1 0x1 ADD SWAP1 PUSH1 0x20 ADD DUP1 DUP4 GT PUSH2 0x3B41 JUMPI DUP3 SWAP1 SUB PUSH1 0x1F AND DUP3 ADD SWAP2 JUMPDEST POP POP POP POP POP SWAP1 POP DUP11 JUMP JUMPDEST PUSH1 0x2 PUSH0 SWAP1 SLOAD SWAP1 PUSH2 0x100 EXP SWAP1 DIV PUSH20 0xFFFFFFFFFFFFFFFFFFFFFFFFFFFFFFFFFFFFFFFF AND PUSH20 0xFFFFFFFFFFFFFFFFFFFFFFFFFFFFFFFFFFFFFFFF AND CALLER PUSH20 0xFFFFFFFFFFFFFFFFFFFFFFFFFFFFFFFFFFFFFFFF AND EQ PUSH2 0x3BF7 JUMPI PUSH1 0x40 MLOAD PUSH32 0x8C379A000000000000000000000000000000000000000000000000000000000 DUP2 MSTORE PUSH1 0x4 ADD PUSH2 0x3BEE SWAP1 PUSH2 0x74C6 JUMP JUMPDEST PUSH1 0x40 MLOAD DUP1 SWAP2 SUB SWAP1 REVERT JUMPDEST PUSH2 0x3BFF PUSH2 0x4B71 JUMP JUMPDEST PUSH0 PUSH1 0x3 PUSH0 SWAP1 SLOAD SWAP1 PUSH2 0x100 EXP SWAP1 DIV PUSH20 0xFFFFFFFFFFFFFFFFFFFFFFFFFFFFFFFFFFFFFFFF AND PUSH20 0xFFFFFFFFFFFFFFFFFFFFFFFFFFFFFFFFFFFFFFFF AND PUSH4 0x5DD38BFA PUSH1 0x40 MLOAD DUP2 PUSH4 0xFFFFFFFF AND PUSH1 0xE0 SHL DUP2 MSTORE PUSH1 0x4 ADD PUSH0 PUSH1 0x40 MLOAD DUP1 DUP4 SUB DUP2 DUP7 GAS STATICCALL ISZERO DUP1 ISZERO PUSH2 0x3C69 JUMPI RETURNDATASIZE PUSH0 PUSH0 RETURNDATACOPY RETURNDATASIZE PUSH0 REVERT JUMPDEST POP POP POP POP PUSH1 0x40 MLOAD RETURNDATASIZE PUSH0 DUP3 RETURNDATACOPY RETURNDATASIZE PUSH1 0x1F NOT PUSH1 0x1F DUP3 ADD AND DUP3 ADD DUP1 PUSH1 0x40 MSTORE POP DUP2 ADD SWAP1 PUSH2 0x3C91 SWAP2 SWAP1 PUSH2 0x7AC2 JUMP JUMPDEST SWAP1 POP PUSH0 PUSH0 SWAP1 POP PUSH0 PUSH0 SWAP1 POP PUSH0 PUSH0 SWAP1 POP JUMPDEST DUP4 MLOAD DUP2 LT ISZERO PUSH2 0x3EEB JUMPI PUSH0 DUP5 DUP3 DUP2 MLOAD DUP2 LT PUSH2 0x3CBD JUMPI PUSH2 0x3CBC PUSH2 0x6D78 JUMP JUMPDEST JUMPDEST PUSH1 0x20 MUL PUSH1 0x20 ADD ADD MLOAD SWAP1 POP PUSH1 0x3 PUSH0 SWAP1 SLOAD SWAP1 PUSH2 0x100 EXP SWAP1 DIV PUSH20 0xFFFFFFFFFFFFFFFFFFFFFFFFFFFFFFFFFFFFFFFF AND PUSH20 0xFFFFFFFFFFFFFFFFFFFFFFFFFFFFFFFFFFFFFFFF AND PUSH4 0x97AD7E02 DUP3 PUSH1 0x40 MLOAD DUP3 PUSH4 0xFFFFFFFF AND PUSH1 0xE0 SHL DUP2 MSTORE PUSH1 0x4 ADD PUSH2 0x3D21 SWAP2 SWAP1 PUSH2 0x6B1B JUMP JUMPDEST PUSH1 0x20 PUSH1 0x40 MLOAD DUP1 DUP4 SUB DUP2 DUP7 GAS STATICCALL ISZERO DUP1 ISZERO PUSH2 0x3D3C JUMPI RETURNDATASIZE PUSH0 PUSH0 RETURNDATACOPY RETURNDATASIZE PUSH0 REVERT JUMPDEST POP POP POP POP PUSH1 0x40 MLOAD RETURNDATASIZE PUSH1 0x1F NOT PUSH1 0x1F DUP3 ADD AND DUP3 ADD DUP1 PUSH1 0x40 MSTORE POP DUP2 ADD SWAP1 PUSH2 0x3D60 SWAP2 SWAP1 PUSH2 0x6DE0 JUMP JUMPDEST ISZERO PUSH2 0x3EDD JUMPI PUSH0 PUSH1 0x3 PUSH0 SWAP1 SLOAD SWAP1 PUSH2 0x100 EXP SWAP1 DIV PUSH20 0xFFFFFFFFFFFFFFFFFFFFFFFFFFFFFFFFFFFFFFFF AND PUSH20 0xFFFFFFFFFFFFFFFFFFFFFFFFFFFFFFFFFFFFFFFF AND PUSH4 0x32648E09 DUP4 PUSH1 0x40 MLOAD DUP3 PUSH4 0xFFFFFFFF AND PUSH1 0xE0 SHL DUP2 MSTORE PUSH1 0x4 ADD PUSH2 0x3DC0 SWAP2 SWAP1 PUSH2 0x6B1B JUMP JUMPDEST PUSH2 0x180 PUSH1 0x40 MLOAD DUP1 DUP4 SUB DUP2 DUP7 GAS STATICCALL ISZERO DUP1 ISZERO PUSH2 0x3DDC JUMPI RETURNDATASIZE PUSH0 PUSH0 RETURNDATACOPY RETURNDATASIZE PUSH0 REVERT JUMPDEST POP POP POP POP PUSH1 0x40 MLOAD RETURNDATASIZE PUSH1 0x1F NOT PUSH1 0x1F DUP3 ADD AND DUP3 ADD DUP1 PUSH1 0x40 MSTORE POP DUP2 ADD SWAP1 PUSH2 0x3E00 SWAP2 SWAP1 PUSH2 0x7014 JUMP JUMPDEST SWAP1 POP PUSH0 PUSH1 0x3 PUSH0 SWAP1 SLOAD SWAP1 PUSH2 0x100 EXP SWAP1 DIV PUSH20 0xFFFFFFFFFFFFFFFFFFFFFFFFFFFFFFFFFFFFFFFF AND PUSH20 0xFFFFFFFFFFFFFFFFFFFFFFFFFFFFFFFFFFFFFFFF AND PUSH4 0x774B2535 DUP5 PUSH1 0x40 MLOAD DUP3 PUSH4 0xFFFFFFFF AND PUSH1 0xE0 SHL DUP2 MSTORE PUSH1 0x4 ADD PUSH2 0x3E5D SWAP2 SWAP1 PUSH2 0x6B1B JUMP JUMPDEST PUSH1 0x20 PUSH1 0x40 MLOAD DUP1 DUP4 SUB DUP2 DUP7 GAS STATICCALL ISZERO DUP1 ISZERO PUSH2 0x3E78 JUMPI RETURNDATASIZE PUSH0 PUSH0 RETURNDATACOPY RETURNDATASIZE PUSH0 REVERT JUMPDEST POP POP POP POP PUSH1 0x40 MLOAD RETURNDATASIZE PUSH1 0x1F NOT PUSH1 0x1F DUP3 ADD AND DUP3 ADD DUP1 PUSH1 0x40 MSTORE POP DUP2 ADD SWAP1 PUSH2 0x3E9C SWAP2 SWAP1 PUSH2 0x7B09 JUMP JUMPDEST SWAP1 POP PUSH0 PUSH2 0x3EAF DUP5 DUP5 PUSH1 0x60 ADD MLOAD DUP5 PUSH0 PUSH2 0x4F27 JUMP JUMPDEST SWAP1 POP DUP1 ISZERO PUSH2 0x3ECA JUMPI DUP7 DUP1 PUSH2 0x3EC2 SWAP1 PUSH2 0x712F JUMP JUMPDEST SWAP8 POP POP PUSH2 0x3ED9 JUMP JUMPDEST DUP6 DUP1 PUSH2 0x3ED5 SWAP1 PUSH2 0x712F JUMP JUMPDEST SWAP7 POP POP JUMPDEST POP POP POP JUMPDEST POP DUP1 DUP1 PUSH1 0x1 ADD SWAP2 POP POP PUSH2 0x3CA0 JUMP JUMPDEST POP PUSH1 0x5 PUSH0 SWAP1 SLOAD SWAP1 PUSH2 0x100 EXP SWAP1 DIV PUSH20 0xFFFFFFFFFFFFFFFFFFFFFFFFFFFFFFFFFFFFFFFF AND PUSH20 0xFFFFFFFFFFFFFFFFFFFFFFFFFFFFFFFFFFFFFFFF AND PUSH4 0x44C83B97 CALLER DUP5 DUP5 TIMESTAMP PUSH1 0x40 MLOAD PUSH1 0x20 ADD PUSH2 0x3F3F SWAP4 SWAP3 SWAP2 SWAP1 PUSH2 0x7B34 JUMP JUMPDEST PUSH1 0x40 MLOAD PUSH1 0x20 DUP2 DUP4 SUB SUB DUP2 MSTORE SWAP1 PUSH1 0x40 MSTORE PUSH1 0x40 MLOAD DUP4 PUSH4 0xFFFFFFFF AND PUSH1 0xE0 SHL DUP2 MSTORE PUSH1 0x4 ADD PUSH2 0x3F6B SWAP3 SWAP2 SWAP1 PUSH2 0x7BB3 JUMP JUMPDEST PUSH0 PUSH1 0x40 MLOAD DUP1 DUP4 SUB DUP2 PUSH0 DUP8 DUP1 EXTCODESIZE ISZERO DUP1 ISZERO PUSH2 0x3F82 JUMPI PUSH0 PUSH0 REVERT JUMPDEST POP GAS CALL ISZERO DUP1 ISZERO PUSH2 0x3F94 JUMPI RETURNDATASIZE PUSH0 PUSH0 RETURNDATACOPY RETURNDATASIZE PUSH0 REVERT JUMPDEST POP POP POP POP POP POP POP PUSH2 0x3FA3 PUSH2 0x4E2E JUMP JUMPDEST JUMP JUMPDEST PUSH1 0x2 PUSH0 SWAP1 SLOAD SWAP1 PUSH2 0x100 EXP SWAP1 DIV PUSH20 0xFFFFFFFFFFFFFFFFFFFFFFFFFFFFFFFFFFFFFFFF AND PUSH20 0xFFFFFFFFFFFFFFFFFFFFFFFFFFFFFFFFFFFFFFFF AND CALLER PUSH20 0xFFFFFFFFFFFFFFFFFFFFFFFFFFFFFFFFFFFFFFFF AND EQ PUSH2 0x4034 JUMPI PUSH1 0x40 MLOAD PUSH32 0x8C379A000000000000000000000000000000000000000000000000000000000 DUP2 MSTORE PUSH1 0x4 ADD PUSH2 0x402B SWAP1 PUSH2 0x74C6 JUMP JUMPDEST PUSH1 0x40 MLOAD DUP1 SWAP2 SUB SWAP1 REVERT JUMPDEST DUP1 PUSH1 0x5 PUSH0 PUSH2 0x100 EXP DUP2 SLOAD DUP2 PUSH20 0xFFFFFFFFFFFFFFFFFFFFFFFFFFFFFFFFFFFFFFFF MUL NOT AND SWAP1 DUP4 PUSH20 0xFFFFFFFFFFFFFFFFFFFFFFFFFFFFFFFFFFFFFFFF AND MUL OR SWAP1 SSTORE POP POP JUMP JUMPDEST PUSH1 0x2 PUSH0 SWAP1 SLOAD SWAP1 PUSH2 0x100 EXP SWAP1 DIV PUSH20 0xFFFFFFFFFFFFFFFFFFFFFFFFFFFFFFFFFFFFFFFF AND PUSH20 0xFFFFFFFFFFFFFFFFFFFFFFFFFFFFFFFFFFFFFFFF AND PUSH4 0x91D14854 PUSH32 0xA49807205CE4D355092EF5A8A18F56E8913CF4A201FBE287825B095693C21775 CALLER PUSH1 0x40 MLOAD DUP4 PUSH4 0xFFFFFFFF AND PUSH1 0xE0 SHL DUP2 MSTORE PUSH1 0x4 ADD PUSH2 0x40F3 SWAP3 SWAP2 SWAP1 PUSH2 0x6DA5 JUMP JUMPDEST PUSH1 0x20 PUSH1 0x40 MLOAD DUP1 DUP4 SUB DUP2 DUP7 GAS STATICCALL ISZERO DUP1 ISZERO PUSH2 0x410E JUMPI RETURNDATASIZE PUSH0 PUSH0 RETURNDATACOPY RETURNDATASIZE PUSH0 REVERT JUMPDEST POP POP POP POP PUSH1 0x40 MLOAD RETURNDATASIZE PUSH1 0x1F NOT PUSH1 0x1F DUP3 ADD AND DUP3 ADD DUP1 PUSH1 0x40 MSTORE POP DUP2 ADD SWAP1 PUSH2 0x4132 SWAP2 SWAP1 PUSH2 0x6DE0 JUMP JUMPDEST DUP1 PUSH2 0x41F4 JUMPI POP PUSH1 0x2 PUSH0 SWAP1 SLOAD SWAP1 PUSH2 0x100 EXP SWAP1 DIV PUSH20 0xFFFFFFFFFFFFFFFFFFFFFFFFFFFFFFFFFFFFFFFF AND PUSH20 0xFFFFFFFFFFFFFFFFFFFFFFFFFFFFFFFFFFFFFFFF AND PUSH4 0x91D14854 PUSH32 0x940D6B1946FF1D2B5A9F1909219C3C81A370804B5BA0F91EC0828C99A2E6A681 CALLER PUSH1 0x40 MLOAD DUP4 PUSH4 0xFFFFFFFF AND PUSH1 0xE0 SHL DUP2 MSTORE PUSH1 0x4 ADD PUSH2 0x41B4 SWAP3 SWAP2 SWAP1 PUSH2 0x6DA5 JUMP JUMPDEST PUSH1 0x20 PUSH1 0x40 MLOAD DUP1 DUP4 SUB DUP2 DUP7 GAS STATICCALL ISZERO DUP1 ISZERO PUSH2 0x41CF JUMPI RETURNDATASIZE PUSH0 PUSH0 RETURNDATACOPY RETURNDATASIZE PUSH0 REVERT JUMPDEST POP POP POP POP PUSH1 0x40 MLOAD RETURNDATASIZE PUSH1 0x1F NOT PUSH1 0x1F DUP3 ADD AND DUP3 ADD DUP1 PUSH1 0x40 MSTORE POP DUP2 ADD SWAP1 PUSH2 0x41F3 SWAP2 SWAP1 PUSH2 0x6DE0 JUMP JUMPDEST JUMPDEST PUSH2 0x4233 JUMPI PUSH1 0x40 MLOAD PUSH32 0x8C379A000000000000000000000000000000000000000000000000000000000 DUP2 MSTORE PUSH1 0x4 ADD PUSH2 0x422A SWAP1 PUSH2 0x6E55 JUMP JUMPDEST PUSH1 0x40 MLOAD DUP1 SWAP2 SUB SWAP1 REVERT JUMPDEST PUSH1 0x9 DUP1 SLOAD SWAP1 POP DUP2 LT PUSH2 0x427A JUMPI PUSH1 0x40 MLOAD PUSH32 0x8C379A000000000000000000000000000000000000000000000000000000000 DUP2 MSTORE PUSH1 0x4 ADD PUSH2 0x4271 SWAP1 PUSH2 0x6D5A JUMP JUMPDEST PUSH1 0x40 MLOAD DUP1 SWAP2 SUB SWAP1 REVERT JUMPDEST PUSH1 0x9 DUP2 DUP2 SLOAD DUP2 LT PUSH2 0x428E JUMPI PUSH2 0x428D PUSH2 0x6D78 JUMP JUMPDEST JUMPDEST SWAP1 PUSH0 MSTORE PUSH1 0x20 PUSH0 KECCAK256 SWAP1 PUSH1 0x5 MUL ADD PUSH1 0x3 ADD PUSH1 0x2 SWAP1 SLOAD SWAP1 PUSH2 0x100 EXP SWAP1 DIV PUSH1 0xFF AND ISZERO PUSH2 0x42EB JUMPI PUSH1 0x40 MLOAD PUSH32 0x8C379A000000000000000000000000000000000000000000000000000000000 DUP2 MSTORE PUSH1 0x4 ADD PUSH2 0x42E2 SWAP1 PUSH2 0x7C3E JUMP JUMPDEST PUSH1 0x40 MLOAD DUP1 SWAP2 SUB SWAP1 REVERT JUMPDEST PUSH1 0x9 DUP2 DUP2 SLOAD DUP2 LT PUSH2 0x42FF JUMPI PUSH2 0x42FE PUSH2 0x6D78 JUMP JUMPDEST JUMPDEST SWAP1 PUSH0 MSTORE PUSH1 0x20 PUSH0 KECCAK256 SWAP1 PUSH1 0x5 MUL ADD PUSH1 0x3 ADD PUSH1 0x1 SWAP1 SLOAD SWAP1 PUSH2 0x100 EXP SWAP1 DIV PUSH1 0xFF AND PUSH2 0x435B JUMPI PUSH1 0x40 MLOAD PUSH32 0x8C379A000000000000000000000000000000000000000000000000000000000 DUP2 MSTORE PUSH1 0x4 ADD PUSH2 0x4352 SWAP1 PUSH2 0x7CA6 JUMP JUMPDEST PUSH1 0x40 MLOAD DUP1 SWAP2 SUB SWAP1 REVERT JUMPDEST PUSH1 0x1 PUSH1 0x9 DUP3 DUP2 SLOAD DUP2 LT PUSH2 0x4371 JUMPI PUSH2 0x4370 PUSH2 0x6D78 JUMP JUMPDEST JUMPDEST SWAP1 PUSH0 MSTORE PUSH1 0x20 PUSH0 KECCAK256 SWAP1 PUSH1 0x5 MUL ADD PUSH1 0x3 ADD PUSH1 0x2 PUSH2 0x100 EXP DUP2 SLOAD DUP2 PUSH1 0xFF MUL NOT AND SWAP1 DUP4 ISZERO ISZERO MUL OR SWAP1 SSTORE POP CALLER PUSH1 0x9 DUP3 DUP2 SLOAD DUP2 LT PUSH2 0x43AC JUMPI PUSH2 0x43AB PUSH2 0x6D78 JUMP JUMPDEST JUMPDEST SWAP1 PUSH0 MSTORE PUSH1 0x20 PUSH0 KECCAK256 SWAP1 PUSH1 0x5 MUL ADD PUSH1 0x3 ADD PUSH1 0x3 PUSH2 0x100 EXP DUP2 SLOAD DUP2 PUSH20 0xFFFFFFFFFFFFFFFFFFFFFFFFFFFFFFFFFFFFFFFF MUL NOT AND SWAP1 DUP4 PUSH20 0xFFFFFFFFFFFFFFFFFFFFFFFFFFFFFFFFFFFFFFFF AND MUL OR SWAP1 SSTORE POP DUP1 PUSH32 0x3DBC34279EF7D20A65F8815E5677A41470C442ACB057F954B9DA359C05A7B884 CALLER PUSH1 0x40 MLOAD PUSH2 0x4429 SWAP2 SWAP1 PUSH2 0x6B1B JUMP JUMPDEST PUSH1 0x40 MLOAD DUP1 SWAP2 SUB SWAP1 LOG2 POP JUMP JUMPDEST PUSH1 0xB SLOAD DUP2 JUMP JUMPDEST PUSH2 0x4442 PUSH2 0x5C9E JUMP JUMPDEST PUSH1 0x6 DUP1 SLOAD SWAP1 POP DUP3 LT PUSH2 0x4489 JUMPI PUSH1 0x40 MLOAD PUSH32 0x8C379A000000000000000000000000000000000000000000000000000000000 DUP2 MSTORE PUSH1 0x4 ADD PUSH2 0x4480 SWAP1 PUSH2 0x752E JUMP JUMPDEST PUSH1 0x40 MLOAD DUP1 SWAP2 SUB SWAP1 REVERT JUMPDEST PUSH1 0x6 DUP3 DUP2 SLOAD DUP2 LT PUSH2 0x449D JUMPI PUSH2 0x449C PUSH2 0x6D78 JUMP JUMPDEST JUMPDEST SWAP1 PUSH0 MSTORE PUSH1 0x20 PUSH0 KECCAK256 SWAP1 PUSH1 0x9 MUL ADD PUSH1 0x40 MLOAD DUP1 PUSH2 0x140 ADD PUSH1 0x40 MSTORE SWAP1 DUP2 PUSH0 DUP3 ADD PUSH0 SWAP1 SLOAD SWAP1 PUSH2 0x100 EXP SWAP1 DIV PUSH20 0xFFFFFFFFFFFFFFFFFFFFFFFFFFFFFFFFFFFFFFFF AND PUSH20 0xFFFFFFFFFFFFFFFFFFFFFFFFFFFFFFFFFFFFFFFF AND PUSH20 0xFFFFFFFFFFFFFFFFFFFFFFFFFFFFFFFFFFFFFFFF AND DUP2 MSTORE PUSH1 0x20 ADD PUSH1 0x1 DUP3 ADD PUSH0 SWAP1 SLOAD SWAP1 PUSH2 0x100 EXP SWAP1 DIV PUSH20 0xFFFFFFFFFFFFFFFFFFFFFFFFFFFFFFFFFFFFFFFF AND PUSH20 0xFFFFFFFFFFFFFFFFFFFFFFFFFFFFFFFFFFFFFFFF AND PUSH20 0xFFFFFFFFFFFFFFFFFFFFFFFFFFFFFFFFFFFFFFFF AND DUP2 MSTORE PUSH1 0x20 ADD PUSH1 0x2 DUP3 ADD SLOAD DUP2 MSTORE PUSH1 0x20 ADD PUSH1 0x3 DUP3 ADD SLOAD DUP2 MSTORE PUSH1 0x20 ADD PUSH1 0x4 DUP3 ADD PUSH0 SWAP1 SLOAD SWAP1 PUSH2 0x100 EXP SWAP1 DIV PUSH1 0xFF AND PUSH1 0x3 DUP2 GT ISZERO PUSH2 0x4596 JUMPI PUSH2 0x4595 PUSH2 0x5F29 JUMP JUMPDEST JUMPDEST PUSH1 0x3 DUP2 GT ISZERO PUSH2 0x45A8 JUMPI PUSH2 0x45A7 PUSH2 0x5F29 JUMP JUMPDEST JUMPDEST DUP2 MSTORE PUSH1 0x20 ADD PUSH1 0x4 DUP3 ADD PUSH1 0x1 SWAP1 SLOAD SWAP1 PUSH2 0x100 EXP SWAP1 DIV PUSH1 0xFF AND PUSH1 0x3 DUP2 GT ISZERO PUSH2 0x45D1 JUMPI PUSH2 0x45D0 PUSH2 0x5F29 JUMP JUMPDEST JUMPDEST PUSH1 0x3 DUP2 GT ISZERO PUSH2 0x45E3 JUMPI PUSH2 0x45E2 PUSH2 0x5F29 JUMP JUMPDEST JUMPDEST DUP2 MSTORE PUSH1 0x20 ADD PUSH1 0x5 DUP3 ADD DUP1 SLOAD PUSH2 0x45F7 SWAP1 PUSH2 0x71A3 JUMP JUMPDEST DUP1 PUSH1 0x1F ADD PUSH1 0x20 DUP1 SWAP2 DIV MUL PUSH1 0x20 ADD PUSH1 0x40 MLOAD SWAP1 DUP2 ADD PUSH1 0x40 MSTORE DUP1 SWAP3 SWAP2 SWAP1 DUP2 DUP2 MSTORE PUSH1 0x20 ADD DUP3 DUP1 SLOAD PUSH2 0x4623 SWAP1 PUSH2 0x71A3 JUMP JUMPDEST DUP1 ISZERO PUSH2 0x466E JUMPI DUP1 PUSH1 0x1F LT PUSH2 0x4645 JUMPI PUSH2 0x100 DUP1 DUP4 SLOAD DIV MUL DUP4 MSTORE SWAP2 PUSH1 0x20 ADD SWAP2 PUSH2 0x466E JUMP JUMPDEST DUP3 ADD SWAP2 SWAP1 PUSH0 MSTORE PUSH1 0x20 PUSH0 KECCAK256 SWAP1 JUMPDEST DUP2 SLOAD DUP2 MSTORE SWAP1 PUSH1 0x1 ADD SWAP1 PUSH1 0x20 ADD DUP1 DUP4 GT PUSH2 0x4651 JUMPI DUP3 SWAP1 SUB PUSH1 0x1F AND DUP3 ADD SWAP2 JUMPDEST POP POP POP POP POP DUP2 MSTORE PUSH1 0x20 ADD PUSH1 0x6 DUP3 ADD SLOAD DUP2 MSTORE PUSH1 0x20 ADD PUSH1 0x7 DUP3 ADD SLOAD DUP2 MSTORE PUSH1 0x20 ADD PUSH1 0x8 DUP3 ADD DUP1 SLOAD PUSH2 0x469B SWAP1 PUSH2 0x71A3 JUMP JUMPDEST DUP1 PUSH1 0x1F ADD PUSH1 0x20 DUP1 SWAP2 DIV MUL PUSH1 0x20 ADD PUSH1 0x40 MLOAD SWAP1 DUP2 ADD PUSH1 0x40 MSTORE DUP1 SWAP3 SWAP2 SWAP1 DUP2 DUP2 MSTORE PUSH1 0x20 ADD DUP3 DUP1 SLOAD PUSH2 0x46C7 SWAP1 PUSH2 0x71A3 JUMP JUMPDEST DUP1 ISZERO PUSH2 0x4712 JUMPI DUP1 PUSH1 0x1F LT PUSH2 0x46E9 JUMPI PUSH2 0x100 DUP1 DUP4 SLOAD DIV MUL DUP4 MSTORE SWAP2 PUSH1 0x20 ADD SWAP2 PUSH2 0x4712 JUMP JUMPDEST DUP3 ADD SWAP2 SWAP1 PUSH0 MSTORE PUSH1 0x20 PUSH0 KECCAK256 SWAP1 JUMPDEST DUP2 SLOAD DUP2 MSTORE SWAP1 PUSH1 0x1 ADD SWAP1 PUSH1 0x20 ADD DUP1 DUP4 GT PUSH2 0x46F5 JUMPI DUP3 SWAP1 SUB PUSH1 0x1F AND DUP3 ADD SWAP2 JUMPDEST POP POP POP POP POP DUP2 MSTORE POP POP SWAP1 POP SWAP2 SWAP1 POP JUMP JUMPDEST PUSH0 PUSH1 0x4 PUSH0 SWAP1 SLOAD SWAP1 PUSH2 0x100 EXP SWAP1 DIV PUSH20 0xFFFFFFFFFFFFFFFFFFFFFFFFFFFFFFFFFFFFFFFF AND PUSH20 0xFFFFFFFFFFFFFFFFFFFFFFFFFFFFFFFFFFFFFFFF AND PUSH4 0x1CC0A1C3 DUP6 DUP6 DUP6 PUSH1 0x40 MLOAD DUP5 PUSH4 0xFFFFFFFF AND PUSH1 0xE0 SHL DUP2 MSTORE PUSH1 0x4 ADD PUSH2 0x4781 SWAP4 SWAP3 SWAP2 SWAP1 PUSH2 0x7CC4 JUMP JUMPDEST PUSH1 0x20 PUSH1 0x40 MLOAD DUP1 DUP4 SUB DUP2 DUP7 GAS STATICCALL ISZERO DUP1 ISZERO PUSH2 0x479C JUMPI RETURNDATASIZE PUSH0 PUSH0 RETURNDATACOPY RETURNDATASIZE PUSH0 REVERT JUMPDEST POP POP POP POP PUSH1 0x40 MLOAD RETURNDATASIZE PUSH1 0x1F NOT PUSH1 0x1F DUP3 ADD AND DUP3 ADD DUP1 PUSH1 0x40 MSTORE POP DUP2 ADD SWAP1 PUSH2 0x47C0 SWAP2 SWAP1 PUSH2 0x7B09 JUMP JUMPDEST SWAP1 POP SWAP4 SWAP3 POP POP POP JUMP JUMPDEST PUSH2 0x47D2 DUP3 PUSH2 0x965 JUMP JUMPDEST PUSH2 0x47DB DUP2 PUSH2 0x4A74 JUMP JUMPDEST PUSH2 0x47E5 DUP4 DUP4 PUSH2 0x4E3E JUMP JUMPDEST POP POP POP POP JUMP JUMPDEST PUSH1 0x2 PUSH0 SWAP1 SLOAD SWAP1 PUSH2 0x100 EXP SWAP1 DIV PUSH20 0xFFFFFFFFFFFFFFFFFFFFFFFFFFFFFFFFFFFFFFFF AND PUSH20 0xFFFFFFFFFFFFFFFFFFFFFFFFFFFFFFFFFFFFFFFF AND PUSH4 0x91D14854 PUSH32 0xA49807205CE4D355092EF5A8A18F56E8913CF4A201FBE287825B095693C21775 CALLER PUSH1 0x40 MLOAD DUP4 PUSH4 0xFFFFFFFF AND PUSH1 0xE0 SHL DUP2 MSTORE PUSH1 0x4 ADD PUSH2 0x4867 SWAP3 SWAP2 SWAP1 PUSH2 0x6DA5 JUMP JUMPDEST PUSH1 0x20 PUSH1 0x40 MLOAD DUP1 DUP4 SUB DUP2 DUP7 GAS STATICCALL ISZERO DUP1 ISZERO PUSH2 0x4882 JUMPI RETURNDATASIZE PUSH0 PUSH0 RETURNDATACOPY RETURNDATASIZE PUSH0 REVERT JUMPDEST POP POP POP POP PUSH1 0x40 MLOAD RETURNDATASIZE PUSH1 0x1F NOT PUSH1 0x1F DUP3 ADD AND DUP3 ADD DUP1 PUSH1 0x40 MSTORE POP DUP2 ADD SWAP1 PUSH2 0x48A6 SWAP2 SWAP1 PUSH2 0x6DE0 JUMP JUMPDEST DUP1 PUSH2 0x4968 JUMPI POP PUSH1 0x2 PUSH0 SWAP1 SLOAD SWAP1 PUSH2 0x100 EXP SWAP1 DIV PUSH20 0xFFFFFFFFFFFFFFFFFFFFFFFFFFFFFFFFFFFFFFFF AND PUSH20 0xFFFFFFFFFFFFFFFFFFFFFFFFFFFFFFFFFFFFFFFF AND PUSH4 0x91D14854 PUSH32 0x940D6B1946FF1D2B5A9F1909219C3C81A370804B5BA0F91EC0828C99A2E6A681 CALLER PUSH1 0x40 MLOAD DUP4 PUSH4 0xFFFFFFFF AND PUSH1 0xE0 SHL DUP2 MSTORE PUSH1 0x4 ADD PUSH2 0x4928 SWAP3 SWAP2 SWAP1 PUSH2 0x6DA5 JUMP JUMPDEST PUSH1 0x20 PUSH1 0x40 MLOAD DUP1 DUP4 SUB DUP2 DUP7 GAS STATICCALL ISZERO DUP1 ISZERO PUSH2 0x4943 JUMPI RETURNDATASIZE PUSH0 PUSH0 RETURNDATACOPY RETURNDATASIZE PUSH0 REVERT JUMPDEST POP POP POP POP PUSH1 0x40 MLOAD RETURNDATASIZE PUSH1 0x1F NOT PUSH1 0x1F DUP3 ADD AND DUP3 ADD DUP1 PUSH1 0x40 MSTORE POP DUP2 ADD SWAP1 PUSH2 0x4967 SWAP2 SWAP1 PUSH2 0x6DE0 JUMP JUMPDEST JUMPDEST PUSH2 0x49A7 JUMPI PUSH1 0x40 MLOAD PUSH32 0x8C379A000000000000000000000000000000000000000000000000000000000 DUP2 MSTORE PUSH1 0x4 ADD PUSH2 0x499E SWAP1 PUSH2 0x6E55 JUMP JUMPDEST PUSH1 0x40 MLOAD DUP1 SWAP2 SUB SWAP1 REVERT JUMPDEST DUP1 PUSH1 0xD PUSH0 PUSH2 0x100 EXP DUP2 SLOAD DUP2 PUSH1 0xFF MUL NOT AND SWAP1 DUP4 ISZERO ISZERO MUL OR SWAP1 SSTORE POP POP JUMP JUMPDEST PUSH1 0xA PUSH1 0x20 MSTORE DUP1 PUSH0 MSTORE PUSH1 0x40 PUSH0 KECCAK256 PUSH0 SWAP2 POP SLOAD SWAP1 PUSH2 0x100 EXP SWAP1 DIV PUSH1 0xFF AND DUP2 JUMP JUMPDEST PUSH1 0x3 PUSH0 SWAP1 SLOAD SWAP1 PUSH2 0x100 EXP SWAP1 DIV PUSH20 0xFFFFFFFFFFFFFFFFFFFFFFFFFFFFFFFFFFFFFFFF AND DUP2 JUMP JUMPDEST PUSH1 0xC SLOAD DUP2 JUMP JUMPDEST PUSH0 PUSH32 0x1FFC9A700000000000000000000000000000000000000000000000000000000 PUSH28 0xFFFFFFFFFFFFFFFFFFFFFFFFFFFFFFFFFFFFFFFFFFFFFFFFFFFFFFFF NOT AND DUP3 PUSH28 0xFFFFFFFFFFFFFFFFFFFFFFFFFFFFFFFFFFFFFFFFFFFFFFFFFFFFFFFF NOT AND EQ SWAP1 POP SWAP2 SWAP1 POP JUMP JUMPDEST PUSH2 0x4A85 DUP2 PUSH2 0x4A80 PUSH2 0x4E37 JUMP JUMPDEST PUSH2 0x550B JUMP JUMPDEST POP JUMP JUMPDEST PUSH0 PUSH2 0x4A93 DUP4 DUP4 PUSH2 0x38D2 JUMP JUMPDEST PUSH2 0x4B67 JUMPI PUSH1 0x1 PUSH0 PUSH0 DUP6 DUP2 MSTORE PUSH1 0x20 ADD SWAP1 DUP2 MSTORE PUSH1 0x20 ADD PUSH0 KECCAK256 PUSH0 ADD PUSH0 DUP5 PUSH20 0xFFFFFFFFFFFFFFFFFFFFFFFFFFFFFFFFFFFFFFFF AND PUSH20 0xFFFFFFFFFFFFFFFFFFFFFFFFFFFFFFFFFFFFFFFF AND DUP2 MSTORE PUSH1 0x20 ADD SWAP1 DUP2 MSTORE PUSH1 0x20 ADD PUSH0 KECCAK256 PUSH0 PUSH2 0x100 EXP DUP2 SLOAD DUP2 PUSH1 0xFF MUL NOT AND SWAP1 DUP4 ISZERO ISZERO MUL OR SWAP1 SSTORE POP PUSH2 0x4B04 PUSH2 0x4E37 JUMP JUMPDEST PUSH20 0xFFFFFFFFFFFFFFFFFFFFFFFFFFFFFFFFFFFFFFFF AND DUP3 PUSH20 0xFFFFFFFFFFFFFFFFFFFFFFFFFFFFFFFFFFFFFFFF AND DUP5 PUSH32 0x2F8788117E7EFF1D82E926EC794901D17C78024A50270940304540A733656F0D PUSH1 0x40 MLOAD PUSH1 0x40 MLOAD DUP1 SWAP2 SUB SWAP1 LOG4 PUSH1 0x1 SWAP1 POP PUSH2 0x4B6B JUMP JUMPDEST PUSH0 SWAP1 POP JUMPDEST SWAP3 SWAP2 POP POP JUMP JUMPDEST PUSH1 0x2 PUSH1 0x1 SLOAD SUB PUSH2 0x4BB6 JUMPI PUSH1 0x40 MLOAD PUSH32 0x8C379A000000000000000000000000000000000000000000000000000000000 DUP2 MSTORE PUSH1 0x4 ADD PUSH2 0x4BAD SWAP1 PUSH2 0x7D43 JUMP JUMPDEST PUSH1 0x40 MLOAD DUP1 SWAP2 SUB SWAP1 REVERT JUMPDEST PUSH1 0x2 PUSH1 0x1 DUP2 SWAP1 SSTORE POP JUMP JUMPDEST PUSH0 PUSH1 0x4 PUSH0 SWAP1 SLOAD SWAP1 PUSH2 0x100 EXP SWAP1 DIV PUSH20 0xFFFFFFFFFFFFFFFFFFFFFFFFFFFFFFFFFFFFFFFF AND PUSH20 0xFFFFFFFFFFFFFFFFFFFFFFFFFFFFFFFFFFFFFFFF AND PUSH4 0xD1A0CC5C DUP4 PUSH1 0x20 ADD MLOAD DUP5 PUSH0 ADD MLOAD DUP6 PUSH1 0x40 ADD MLOAD PUSH1 0x40 MLOAD DUP5 PUSH4 0xFFFFFFFF AND PUSH1 0xE0 SHL DUP2 MSTORE PUSH1 0x4 ADD PUSH2 0x4C2A SWAP4 SWAP3 SWAP2 SWAP1 PUSH2 0x7CC4 JUMP JUMPDEST PUSH1 0x20 PUSH1 0x40 MLOAD DUP1 DUP4 SUB DUP2 PUSH0 DUP8 GAS CALL ISZERO DUP1 ISZERO PUSH2 0x4C46 JUMPI RETURNDATASIZE PUSH0 PUSH0 RETURNDATACOPY RETURNDATASIZE PUSH0 REVERT JUMPDEST POP POP POP POP PUSH1 0x40 MLOAD RETURNDATASIZE PUSH1 0x1F NOT PUSH1 0x1F DUP3 ADD AND DUP3 ADD DUP1 PUSH1 0x40 MSTORE POP DUP2 ADD SWAP1 PUSH2 0x4C6A SWAP2 SWAP1 PUSH2 0x6DE0 JUMP JUMPDEST SWAP1 POP SWAP2 SWAP1 POP JUMP JUMPDEST PUSH1 0x60 PUSH0 PUSH2 0x4C80 DUP4 PUSH0 ADD MLOAD PUSH2 0x555C JUMP JUMPDEST PUSH2 0x4C8D DUP5 PUSH1 0x40 ADD MLOAD PUSH2 0x585A JUMP JUMPDEST PUSH2 0x4C9A DUP6 PUSH1 0x20 ADD MLOAD PUSH2 0x555C JUMP JUMPDEST PUSH2 0x4CA7 DUP7 PUSH1 0x60 ADD MLOAD PUSH2 0x585A JUMP JUMPDEST PUSH1 0x40 MLOAD PUSH1 0x20 ADD PUSH2 0x4CBA SWAP5 SWAP4 SWAP3 SWAP2 SWAP1 PUSH2 0x7EC3 JUMP JUMPDEST PUSH1 0x40 MLOAD PUSH1 0x20 DUP2 DUP4 SUB SUB DUP2 MSTORE SWAP1 PUSH1 0x40 MSTORE SWAP1 POP PUSH0 DUP2 PUSH1 0x40 MLOAD PUSH1 0x20 ADD PUSH2 0x4CDD SWAP2 SWAP1 PUSH2 0x7F2C JUMP JUMPDEST PUSH1 0x40 MLOAD PUSH1 0x20 DUP2 DUP4 SUB SUB DUP2 MSTORE SWAP1 PUSH1 0x40 MSTORE DUP1 MLOAD SWAP1 PUSH1 0x20 ADD KECCAK256 SWAP1 POP PUSH0 PUSH2 0x4CFF DUP3 PUSH2 0x59B3 JUMP JUMPDEST SWAP1 POP DUP5 PUSH0 ADD MLOAD PUSH20 0xFFFFFFFFFFFFFFFFFFFFFFFFFFFFFFFFFFFFFFFF AND PUSH32 0x59180834F899F4489FF46F8A483A5E8910BE42B5AB7E4EA95619FC2546851AAD PUSH1 0x6 DUP1 SLOAD SWAP1 POP DUP4 PUSH1 0x40 MLOAD PUSH2 0x4D51 SWAP3 SWAP2 SWAP1 PUSH2 0x7F42 JUMP JUMPDEST PUSH1 0x40 MLOAD DUP1 SWAP2 SUB SWAP1 LOG2 DUP1 SWAP4 POP POP POP POP SWAP2 SWAP1 POP JUMP JUMPDEST PUSH1 0x5 PUSH0 SWAP1 SLOAD SWAP1 PUSH2 0x100 EXP SWAP1 DIV PUSH20 0xFFFFFFFFFFFFFFFFFFFFFFFFFFFFFFFFFFFFFFFF AND PUSH20 0xFFFFFFFFFFFFFFFFFFFFFFFFFFFFFFFFFFFFFFFF AND PUSH4 0x44C83B97 DUP3 PUSH0 ADD MLOAD DUP4 PUSH1 0x20 ADD MLOAD DUP5 PUSH1 0x40 ADD MLOAD DUP6 PUSH1 0x80 ADD MLOAD DUP7 PUSH1 0xA0 ADD MLOAD DUP8 PUSH1 0x60 ADD MLOAD PUSH1 0x40 MLOAD PUSH1 0x20 ADD PUSH2 0x4DD2 SWAP6 SWAP5 SWAP4 SWAP3 SWAP2 SWAP1 PUSH2 0x7F70 JUMP JUMPDEST PUSH1 0x40 MLOAD PUSH1 0x20 DUP2 DUP4 SUB SUB DUP2 MSTORE SWAP1 PUSH1 0x40 MSTORE PUSH1 0x40 MLOAD DUP4 PUSH4 0xFFFFFFFF AND PUSH1 0xE0 SHL DUP2 MSTORE PUSH1 0x4 ADD PUSH2 0x4DFE SWAP3 SWAP2 SWAP1 PUSH2 0x800B JUMP JUMPDEST PUSH0 PUSH1 0x40 MLOAD DUP1 DUP4 SUB DUP2 PUSH0 DUP8 DUP1 EXTCODESIZE ISZERO DUP1 ISZERO PUSH2 0x4E15 JUMPI PUSH0 PUSH0 REVERT JUMPDEST POP GAS CALL ISZERO DUP1 ISZERO PUSH2 0x4E27 JUMPI RETURNDATASIZE PUSH0 PUSH0 RETURNDATACOPY RETURNDATASIZE PUSH0 REVERT JUMPDEST POP POP POP POP POP JUMP JUMPDEST PUSH1 0x1 DUP1 DUP2 SWAP1 SSTORE POP JUMP JUMPDEST PUSH0 CALLER SWAP1 POP SWAP1 JUMP JUMPDEST PUSH0 PUSH2 0x4E49 DUP4 DUP4 PUSH2 0x38D2 JUMP JUMPDEST ISZERO PUSH2 0x4F1D JUMPI PUSH0 PUSH0 PUSH0 DUP6 DUP2 MSTORE PUSH1 0x20 ADD SWAP1 DUP2 MSTORE PUSH1 0x20 ADD PUSH0 KECCAK256 PUSH0 ADD PUSH0 DUP5 PUSH20 0xFFFFFFFFFFFFFFFFFFFFFFFFFFFFFFFFFFFFFFFF AND PUSH20 0xFFFFFFFFFFFFFFFFFFFFFFFFFFFFFFFFFFFFFFFF AND DUP2 MSTORE PUSH1 0x20 ADD SWAP1 DUP2 MSTORE PUSH1 0x20 ADD PUSH0 KECCAK256 PUSH0 PUSH2 0x100 EXP DUP2 SLOAD DUP2 PUSH1 0xFF MUL NOT AND SWAP1 DUP4 ISZERO ISZERO MUL OR SWAP1 SSTORE POP PUSH2 0x4EBA PUSH2 0x4E37 JUMP JUMPDEST PUSH20 0xFFFFFFFFFFFFFFFFFFFFFFFFFFFFFFFFFFFFFFFF AND DUP3 PUSH20 0xFFFFFFFFFFFFFFFFFFFFFFFFFFFFFFFFFFFFFFFF AND DUP5 PUSH32 0xF6391F5C32D9C69D2A47EA670B442974B53935D1EDC7FD64EB21E047A839171B PUSH1 0x40 MLOAD PUSH1 0x40 MLOAD DUP1 SWAP2 SUB SWAP1 LOG4 PUSH1 0x1 SWAP1 POP PUSH2 0x4F21 JUMP JUMPDEST PUSH0 SWAP1 POP JUMPDEST SWAP3 SWAP2 POP POP JUMP JUMPDEST PUSH0 PUSH0 GAS SWAP1 POP PUSH0 PUSH1 0x40 MLOAD DUP1 PUSH2 0x140 ADD PUSH1 0x40 MSTORE DUP1 DUP9 PUSH20 0xFFFFFFFFFFFFFFFFFFFFFFFFFFFFFFFFFFFFFFFF AND DUP2 MSTORE PUSH1 0x20 ADD DUP8 PUSH20 0xFFFFFFFFFFFFFFFFFFFFFFFFFFFFFFFFFFFFFFFF AND DUP2 MSTORE PUSH1 0x20 ADD DUP7 DUP2 MSTORE PUSH1 0x20 ADD TIMESTAMP DUP2 MSTORE PUSH1 0x20 ADD DUP6 PUSH1 0x3 DUP2 GT ISZERO PUSH2 0x4F90 JUMPI PUSH2 0x4F8F PUSH2 0x5F29 JUMP JUMPDEST JUMPDEST DUP2 MSTORE PUSH1 0x20 ADD PUSH0 PUSH1 0x3 DUP2 GT ISZERO PUSH2 0x4FA8 JUMPI PUSH2 0x4FA7 PUSH2 0x5F29 JUMP JUMPDEST JUMPDEST DUP2 MSTORE PUSH1 0x20 ADD PUSH1 0x40 MLOAD DUP1 PUSH1 0x20 ADD PUSH1 0x40 MSTORE DUP1 PUSH0 DUP2 MSTORE POP DUP2 MSTORE PUSH1 0x20 ADD PUSH0 DUP2 MSTORE PUSH1 0x20 ADD PUSH0 DUP2 MSTORE PUSH1 0x20 ADD PUSH1 0x40 MLOAD DUP1 PUSH1 0x20 ADD PUSH1 0x40 MSTORE DUP1 PUSH0 DUP2 MSTORE POP DUP2 MSTORE POP SWAP1 POP PUSH2 0x4FEA DUP2 PUSH2 0x4BC0 JUMP JUMPDEST SWAP3 POP GAS DUP3 PUSH2 0x4FF8 SWAP2 SWAP1 PUSH2 0x70D5 JUMP JUMPDEST DUP2 PUSH1 0xE0 ADD DUP2 DUP2 MSTORE POP POP DUP3 PUSH2 0x500D JUMPI PUSH1 0x2 PUSH2 0x5010 JUMP JUMPDEST PUSH1 0x1 JUMPDEST DUP2 PUSH1 0xA0 ADD SWAP1 PUSH1 0x3 DUP2 GT ISZERO PUSH2 0x5027 JUMPI PUSH2 0x5026 PUSH2 0x5F29 JUMP JUMPDEST JUMPDEST SWAP1 DUP2 PUSH1 0x3 DUP2 GT ISZERO PUSH2 0x503B JUMPI PUSH2 0x503A PUSH2 0x5F29 JUMP JUMPDEST JUMPDEST DUP2 MSTORE POP POP DUP3 ISZERO PUSH2 0x50E4 JUMPI PUSH1 0x3 PUSH0 SWAP1 SLOAD SWAP1 PUSH2 0x100 EXP SWAP1 DIV PUSH20 0xFFFFFFFFFFFFFFFFFFFFFFFFFFFFFFFFFFFFFFFF AND PUSH20 0xFFFFFFFFFFFFFFFFFFFFFFFFFFFFFFFFFFFFFFFF AND PUSH4 0xC11D2D18 DUP9 DUP8 PUSH1 0x40 MLOAD DUP4 PUSH4 0xFFFFFFFF AND PUSH1 0xE0 SHL DUP2 MSTORE PUSH1 0x4 ADD PUSH2 0x50A1 SWAP3 SWAP2 SWAP1 PUSH2 0x7108 JUMP JUMPDEST PUSH0 PUSH1 0x40 MLOAD DUP1 DUP4 SUB DUP2 PUSH0 DUP8 DUP1 EXTCODESIZE ISZERO DUP1 ISZERO PUSH2 0x50B8 JUMPI PUSH0 PUSH0 REVERT JUMPDEST POP GAS CALL ISZERO DUP1 ISZERO PUSH2 0x50CA JUMPI RETURNDATASIZE PUSH0 PUSH0 RETURNDATACOPY RETURNDATASIZE PUSH0 REVERT JUMPDEST POP POP POP POP PUSH2 0x50D7 DUP2 PUSH2 0x4C71 JUMP JUMPDEST DUP2 PUSH1 0xC0 ADD DUP2 SWAP1 MSTORE POP PUSH2 0x5176 JUMP JUMPDEST PUSH1 0x40 MLOAD DUP1 PUSH1 0x40 ADD PUSH1 0x40 MSTORE DUP1 PUSH1 0x18 DUP2 MSTORE PUSH1 0x20 ADD PUSH32 0x5061796D656E7420657865637574696F6E206661696C65640000000000000000 DUP2 MSTORE POP DUP2 PUSH2 0x120 ADD DUP2 SWAP1 MSTORE POP PUSH1 0x8 PUSH0 DUP9 PUSH20 0xFFFFFFFFFFFFFFFFFFFFFFFFFFFFFFFFFFFFFFFF AND PUSH20 0xFFFFFFFFFFFFFFFFFFFFFFFFFFFFFFFFFFFFFFFF AND DUP2 MSTORE PUSH1 0x20 ADD SWAP1 DUP2 MSTORE PUSH1 0x20 ADD PUSH0 KECCAK256 PUSH0 DUP2 SLOAD DUP1 SWAP3 SWAP2 SWAP1 PUSH2 0x5170 SWAP1 PUSH2 0x712F JUMP JUMPDEST SWAP2 SWAP1 POP SSTORE POP JUMPDEST PUSH1 0x6 DUP2 SWAP1 DUP1 PUSH1 0x1 DUP2 SLOAD ADD DUP1 DUP3 SSTORE DUP1 SWAP2 POP POP PUSH1 0x1 SWAP1 SUB SWAP1 PUSH0 MSTORE PUSH1 0x20 PUSH0 KECCAK256 SWAP1 PUSH1 0x9 MUL ADD PUSH0 SWAP1 SWAP2 SWAP1 SWAP2 SWAP1 SWAP2 POP PUSH0 DUP3 ADD MLOAD DUP2 PUSH0 ADD PUSH0 PUSH2 0x100 EXP DUP2 SLOAD DUP2 PUSH20 0xFFFFFFFFFFFFFFFFFFFFFFFFFFFFFFFFFFFFFFFF MUL NOT AND SWAP1 DUP4 PUSH20 0xFFFFFFFFFFFFFFFFFFFFFFFFFFFFFFFFFFFFFFFF AND MUL OR SWAP1 SSTORE POP PUSH1 0x20 DUP3 ADD MLOAD DUP2 PUSH1 0x1 ADD PUSH0 PUSH2 0x100 EXP DUP2 SLOAD DUP2 PUSH20 0xFFFFFFFFFFFFFFFFFFFFFFFFFFFFFFFFFFFFFFFF MUL NOT AND SWAP1 DUP4 PUSH20 0xFFFFFFFFFFFFFFFFFFFFFFFFFFFFFFFFFFFFFFFF AND MUL OR SWAP1 SSTORE POP PUSH1 0x40 DUP3 ADD MLOAD DUP2 PUSH1 0x2 ADD SSTORE PUSH1 0x60 DUP3 ADD MLOAD DUP2 PUSH1 0x3 ADD SSTORE PUSH1 0x80 DUP3 ADD MLOAD DUP2 PUSH1 0x4 ADD PUSH0 PUSH2 0x100 EXP DUP2 SLOAD DUP2 PUSH1 0xFF MUL NOT AND SWAP1 DUP4 PUSH1 0x3 DUP2 GT ISZERO PUSH2 0x5267 JUMPI PUSH2 0x5266 PUSH2 0x5F29 JUMP JUMPDEST JUMPDEST MUL OR SWAP1 SSTORE POP PUSH1 0xA0 DUP3 ADD MLOAD DUP2 PUSH1 0x4 ADD PUSH1 0x1 PUSH2 0x100 EXP DUP2 SLOAD DUP2 PUSH1 0xFF MUL NOT AND SWAP1 DUP4 PUSH1 0x3 DUP2 GT ISZERO PUSH2 0x5297 JUMPI PUSH2 0x5296 PUSH2 0x5F29 JUMP JUMPDEST JUMPDEST MUL OR SWAP1 SSTORE POP PUSH1 0xC0 DUP3 ADD MLOAD DUP2 PUSH1 0x5 ADD SWAP1 DUP2 PUSH2 0x52B1 SWAP2 SWAP1 PUSH2 0x736A JUMP JUMPDEST POP PUSH1 0xE0 DUP3 ADD MLOAD DUP2 PUSH1 0x6 ADD SSTORE PUSH2 0x100 DUP3 ADD MLOAD DUP2 PUSH1 0x7 ADD SSTORE PUSH2 0x120 DUP3 ADD MLOAD DUP2 PUSH1 0x8 ADD SWAP1 DUP2 PUSH2 0x52DD SWAP2 SWAP1 PUSH2 0x736A JUMP JUMPDEST POP POP POP PUSH1 0x7 PUSH0 DUP9 PUSH20 0xFFFFFFFFFFFFFFFFFFFFFFFFFFFFFFFFFFFFFFFF AND PUSH20 0xFFFFFFFFFFFFFFFFFFFFFFFFFFFFFFFFFFFFFFFF AND DUP2 MSTORE PUSH1 0x20 ADD SWAP1 DUP2 MSTORE PUSH1 0x20 ADD PUSH0 KECCAK256 DUP2 SWAP1 DUP1 PUSH1 0x1 DUP2 SLOAD ADD DUP1 DUP3 SSTORE DUP1 SWAP2 POP POP PUSH1 0x1 SWAP1 SUB SWAP1 PUSH0 MSTORE PUSH1 0x20 PUSH0 KECCAK256 SWAP1 PUSH1 0x9 MUL ADD PUSH0 SWAP1 SWAP2 SWAP1 SWAP2 SWAP1 SWAP2 POP PUSH0 DUP3 ADD MLOAD DUP2 PUSH0 ADD PUSH0 PUSH2 0x100 EXP DUP2 SLOAD DUP2 PUSH20 0xFFFFFFFFFFFFFFFFFFFFFFFFFFFFFFFFFFFFFFFF MUL NOT AND SWAP1 DUP4 PUSH20 0xFFFFFFFFFFFFFFFFFFFFFFFFFFFFFFFFFFFFFFFF AND MUL OR SWAP1 SSTORE POP PUSH1 0x20 DUP3 ADD MLOAD DUP2 PUSH1 0x1 ADD PUSH0 PUSH2 0x100 EXP DUP2 SLOAD DUP2 PUSH20 0xFFFFFFFFFFFFFFFFFFFFFFFFFFFFFFFFFFFFFFFF MUL NOT AND SWAP1 DUP4 PUSH20 0xFFFFFFFFFFFFFFFFFFFFFFFFFFFFFFFFFFFFFFFF AND MUL OR SWAP1 SSTORE POP PUSH1 0x40 DUP3 ADD MLOAD DUP2 PUSH1 0x2 ADD SSTORE PUSH1 0x60 DUP3 ADD MLOAD DUP2 PUSH1 0x3 ADD SSTORE PUSH1 0x80 DUP3 ADD MLOAD DUP2 PUSH1 0x4 ADD PUSH0 PUSH2 0x100 EXP DUP2 SLOAD DUP2 PUSH1 0xFF MUL NOT AND SWAP1 DUP4 PUSH1 0x3 DUP2 GT ISZERO PUSH2 0x540C JUMPI PUSH2 0x540B PUSH2 0x5F29 JUMP JUMPDEST JUMPDEST MUL OR SWAP1 SSTORE POP PUSH1 0xA0 DUP3 ADD MLOAD DUP2 PUSH1 0x4 ADD PUSH1 0x1 PUSH2 0x100 EXP DUP2 SLOAD DUP2 PUSH1 0xFF MUL NOT AND SWAP1 DUP4 PUSH1 0x3 DUP2 GT ISZERO PUSH2 0x543C JUMPI PUSH2 0x543B PUSH2 0x5F29 JUMP JUMPDEST JUMPDEST MUL OR SWAP1 SSTORE POP PUSH1 0xC0 DUP3 ADD MLOAD DUP2 PUSH1 0x5 ADD SWAP1 DUP2 PUSH2 0x5456 SWAP2 SWAP1 PUSH2 0x736A JUMP JUMPDEST POP PUSH1 0xE0 DUP3 ADD MLOAD DUP2 PUSH1 0x6 ADD SSTORE PUSH2 0x100 DUP3 ADD MLOAD DUP2 PUSH1 0x7 ADD SSTORE PUSH2 0x120 DUP3 ADD MLOAD DUP2 PUSH1 0x8 ADD SWAP1 DUP2 PUSH2 0x5482 SWAP2 SWAP1 PUSH2 0x736A JUMP JUMPDEST POP POP POP PUSH2 0x548E DUP2 PUSH2 0x4D64 JUMP JUMPDEST DUP6 PUSH20 0xFFFFFFFFFFFFFFFFFFFFFFFFFFFFFFFFFFFFFFFF AND DUP8 PUSH20 0xFFFFFFFFFFFFFFFFFFFFFFFFFFFFFFFFFFFFFFFF AND PUSH32 0x5392E49AE81F9D730FAB8B9D95085C57CED2C8F481CA60E3D4DD2E7D626EBB5 DUP8 DUP8 DUP6 PUSH1 0xA0 ADD MLOAD DUP7 PUSH1 0xE0 ADD MLOAD PUSH1 0x40 MLOAD PUSH2 0x54F9 SWAP5 SWAP4 SWAP3 SWAP2 SWAP1 PUSH2 0x7439 JUMP JUMPDEST PUSH1 0x40 MLOAD DUP1 SWAP2 SUB SWAP1 LOG3 POP POP SWAP5 SWAP4 POP POP POP POP JUMP JUMPDEST PUSH2 0x5515 DUP3 DUP3 PUSH2 0x38D2 JUMP JUMPDEST PUSH2 0x5558 JUMPI DUP1 DUP3 PUSH1 0x40 MLOAD PUSH32 0xE2517D3F00000000000000000000000000000000000000000000000000000000 DUP2 MSTORE PUSH1 0x4 ADD PUSH2 0x554F SWAP3 SWAP2 SWAP1 PUSH2 0x804C JUMP JUMPDEST PUSH1 0x40 MLOAD DUP1 SWAP2 SUB SWAP1 REVERT JUMPDEST POP POP JUMP JUMPDEST PUSH1 0x60 PUSH0 DUP3 PUSH20 0xFFFFFFFFFFFFFFFFFFFFFFFFFFFFFFFFFFFFFFFF AND PUSH0 SHL SWAP1 POP PUSH0 PUSH1 0x40 MLOAD DUP1 PUSH1 0x40 ADD PUSH1 0x40 MSTORE DUP1 PUSH1 0x10 DUP2 MSTORE PUSH1 0x20 ADD PUSH32 0x3031323334353637383961626364656600000000000000000000000000000000 DUP2 MSTORE POP SWAP1 POP PUSH0 PUSH1 0x2A PUSH8 0xFFFFFFFFFFFFFFFF DUP2 GT ISZERO PUSH2 0x55CF JUMPI PUSH2 0x55CE PUSH2 0x6481 JUMP JUMPDEST JUMPDEST PUSH1 0x40 MLOAD SWAP1 DUP1 DUP3 MSTORE DUP1 PUSH1 0x1F ADD PUSH1 0x1F NOT AND PUSH1 0x20 ADD DUP3 ADD PUSH1 0x40 MSTORE DUP1 ISZERO PUSH2 0x5601 JUMPI DUP2 PUSH1 0x20 ADD PUSH1 0x1 DUP3 MUL DUP1 CALLDATASIZE DUP4 CALLDATACOPY DUP1 DUP3 ADD SWAP2 POP POP SWAP1 POP JUMPDEST POP SWAP1 POP PUSH32 0x3000000000000000000000000000000000000000000000000000000000000000 DUP2 PUSH0 DUP2 MLOAD DUP2 LT PUSH2 0x5638 JUMPI PUSH2 0x5637 PUSH2 0x6D78 JUMP JUMPDEST JUMPDEST PUSH1 0x20 ADD ADD SWAP1 PUSH31 0xFFFFFFFFFFFFFFFFFFFFFFFFFFFFFFFFFFFFFFFFFFFFFFFFFFFFFFFFFFFFFF NOT AND SWAP1 DUP2 PUSH0 BYTE SWAP1 MSTORE8 POP PUSH32 0x7800000000000000000000000000000000000000000000000000000000000000 DUP2 PUSH1 0x1 DUP2 MLOAD DUP2 LT PUSH2 0x569B JUMPI PUSH2 0x569A PUSH2 0x6D78 JUMP JUMPDEST JUMPDEST PUSH1 0x20 ADD ADD SWAP1 PUSH31 0xFFFFFFFFFFFFFFFFFFFFFFFFFFFFFFFFFFFFFFFFFFFFFFFFFFFFFFFFFFFFFF NOT AND SWAP1 DUP2 PUSH0 BYTE SWAP1 MSTORE8 POP PUSH0 PUSH0 SWAP1 POP JUMPDEST PUSH1 0x14 DUP2 LT ISZERO PUSH2 0x584E JUMPI DUP3 PUSH1 0x4 DUP6 PUSH1 0xC DUP5 PUSH2 0x56E8 SWAP2 SWAP1 PUSH2 0x761C JUMP JUMPDEST PUSH1 0x20 DUP2 LT PUSH2 0x56F9 JUMPI PUSH2 0x56F8 PUSH2 0x6D78 JUMP JUMPDEST JUMPDEST BYTE PUSH1 0xF8 SHL PUSH31 0xFFFFFFFFFFFFFFFFFFFFFFFFFFFFFFFFFFFFFFFFFFFFFFFFFFFFFFFFFFFFFF NOT AND SWAP1 SHR PUSH1 0xF8 SHR PUSH1 0xFF AND DUP2 MLOAD DUP2 LT PUSH2 0x5738 JUMPI PUSH2 0x5737 PUSH2 0x6D78 JUMP JUMPDEST JUMPDEST PUSH1 0x20 ADD ADD MLOAD PUSH1 0xF8 SHR PUSH1 0xF8 SHL DUP3 PUSH1 0x2 DUP4 PUSH2 0x5751 SWAP2 SWAP1 PUSH2 0x764F JUMP JUMPDEST PUSH1 0x2 PUSH2 0x575D SWAP2 SWAP1 PUSH2 0x761C JUMP JUMPDEST DUP2 MLOAD DUP2 LT PUSH2 0x576E JUMPI PUSH2 0x576D PUSH2 0x6D78 JUMP JUMPDEST JUMPDEST PUSH1 0x20 ADD ADD SWAP1 PUSH31 0xFFFFFFFFFFFFFFFFFFFFFFFFFFFFFFFFFFFFFFFFFFFFFFFFFFFFFFFFFFFFFF NOT AND SWAP1 DUP2 PUSH0 BYTE SWAP1 MSTORE8 POP DUP3 PUSH1 0xF PUSH1 0xF8 SHL DUP6 PUSH1 0xC DUP5 PUSH2 0x57B0 SWAP2 SWAP1 PUSH2 0x761C JUMP JUMPDEST PUSH1 0x20 DUP2 LT PUSH2 0x57C1 JUMPI PUSH2 0x57C0 PUSH2 0x6D78 JUMP JUMPDEST JUMPDEST BYTE PUSH1 0xF8 SHL AND PUSH1 0xF8 SHR PUSH1 0xFF AND DUP2 MLOAD DUP2 LT PUSH2 0x57DD JUMPI PUSH2 0x57DC PUSH2 0x6D78 JUMP JUMPDEST JUMPDEST PUSH1 0x20 ADD ADD MLOAD PUSH1 0xF8 SHR PUSH1 0xF8 SHL DUP3 PUSH1 0x2 DUP4 PUSH2 0x57F6 SWAP2 SWAP1 PUSH2 0x764F JUMP JUMPDEST PUSH1 0x3 PUSH2 0x5802 SWAP2 SWAP1 PUSH2 0x761C JUMP JUMPDEST DUP2 MLOAD DUP2 LT PUSH2 0x5813 JUMPI PUSH2 0x5812 PUSH2 0x6D78 JUMP JUMPDEST JUMPDEST PUSH1 0x20 ADD ADD SWAP1 PUSH31 0xFFFFFFFFFFFFFFFFFFFFFFFFFFFFFFFFFFFFFFFFFFFFFFFFFFFFFFFFFFFFFF NOT AND SWAP1 DUP2 PUSH0 BYTE SWAP1 MSTORE8 POP DUP1 DUP1 PUSH1 0x1 ADD SWAP2 POP POP PUSH2 0x56CE JUMP JUMPDEST POP DUP1 SWAP4 POP POP POP POP SWAP2 SWAP1 POP JUMP JUMPDEST PUSH1 0x60 PUSH0 DUP3 SUB PUSH2 0x58A0 JUMPI PUSH1 0x40 MLOAD DUP1 PUSH1 0x40 ADD PUSH1 0x40 MSTORE DUP1 PUSH1 0x1 DUP2 MSTORE PUSH1 0x20 ADD PUSH32 0x3000000000000000000000000000000000000000000000000000000000000000 DUP2 MSTORE POP SWAP1 POP PUSH2 0x59AE JUMP JUMPDEST PUSH0 DUP3 SWAP1 POP PUSH0 JUMPDEST PUSH0 DUP3 EQ PUSH2 0x58CF JUMPI DUP1 DUP1 PUSH2 0x58B8 SWAP1 PUSH2 0x712F JUMP JUMPDEST SWAP2 POP POP PUSH1 0xA DUP3 PUSH2 0x58C8 SWAP2 SWAP1 PUSH2 0x80A0 JUMP JUMPDEST SWAP2 POP PUSH2 0x58A6 JUMP JUMPDEST PUSH0 DUP2 PUSH8 0xFFFFFFFFFFFFFFFF DUP2 GT ISZERO PUSH2 0x58EA JUMPI PUSH2 0x58E9 PUSH2 0x6481 JUMP JUMPDEST JUMPDEST PUSH1 0x40 MLOAD SWAP1 DUP1 DUP3 MSTORE DUP1 PUSH1 0x1F ADD PUSH1 0x1F NOT AND PUSH1 0x20 ADD DUP3 ADD PUSH1 0x40 MSTORE DUP1 ISZERO PUSH2 0x591C JUMPI DUP2 PUSH1 0x20 ADD PUSH1 0x1 DUP3 MUL DUP1 CALLDATASIZE DUP4 CALLDATACOPY DUP1 DUP3 ADD SWAP2 POP POP SWAP1 POP JUMPDEST POP SWAP1 POP JUMPDEST PUSH0 DUP6 EQ PUSH2 0x59A7 JUMPI PUSH1 0x1 DUP3 PUSH2 0x5934 SWAP2 SWAP1 PUSH2 0x70D5 JUMP JUMPDEST SWAP2 POP PUSH1 0xA DUP6 PUSH2 0x5943 SWAP2 SWAP1 PUSH2 0x80D0 JUMP JUMPDEST PUSH1 0x30 PUSH2 0x594F SWAP2 SWAP1 PUSH2 0x761C JUMP JUMPDEST PUSH1 0xF8 SHL DUP2 DUP4 DUP2 MLOAD DUP2 LT PUSH2 0x5965 JUMPI PUSH2 0x5964 PUSH2 0x6D78 JUMP JUMPDEST JUMPDEST PUSH1 0x20 ADD ADD SWAP1 PUSH31 0xFFFFFFFFFFFFFFFFFFFFFFFFFFFFFFFFFFFFFFFFFFFFFFFFFFFFFFFFFFFFFF NOT AND SWAP1 DUP2 PUSH0 BYTE SWAP1 MSTORE8 POP PUSH1 0xA DUP6 PUSH2 0x59A0 SWAP2 SWAP1 PUSH2 0x80A0 JUMP JUMPDEST SWAP5 POP PUSH2 0x5920 JUMP JUMPDEST DUP1 SWAP4 POP POP POP POP JUMPDEST SWAP2 SWAP1 POP JUMP JUMPDEST PUSH1 0x60 PUSH0 PUSH0 SWAP1 POP JUMPDEST PUSH1 0x20 DUP2 PUSH1 0xFF AND LT DUP1 ISZERO PUSH2 0x5A0B JUMPI POP PUSH0 PUSH1 0xF8 SHL DUP4 DUP3 PUSH1 0xFF AND PUSH1 0x20 DUP2 LT PUSH2 0x59E2 JUMPI PUSH2 0x59E1 PUSH2 0x6D78 JUMP JUMPDEST JUMPDEST BYTE PUSH1 0xF8 SHL PUSH31 0xFFFFFFFFFFFFFFFFFFFFFFFFFFFFFFFFFFFFFFFFFFFFFFFFFFFFFFFFFFFFFF NOT AND EQ ISZERO JUMPDEST ISZERO PUSH2 0x5A23 JUMPI DUP1 DUP1 PUSH2 0x5A1B SWAP1 PUSH2 0x810C JUMP JUMPDEST SWAP2 POP POP PUSH2 0x59BA JUMP JUMPDEST PUSH0 DUP2 PUSH1 0xFF AND PUSH8 0xFFFFFFFFFFFFFFFF DUP2 GT ISZERO PUSH2 0x5A41 JUMPI PUSH2 0x5A40 PUSH2 0x6481 JUMP JUMPDEST JUMPDEST PUSH1 0x40 MLOAD SWAP1 DUP1 DUP3 MSTORE DUP1 PUSH1 0x1F ADD PUSH1 0x1F NOT AND PUSH1 0x20 ADD DUP3 ADD PUSH1 0x40 MSTORE DUP1 ISZERO PUSH2 0x5A73 JUMPI DUP2 PUSH1 0x20 ADD PUSH1 0x1 DUP3 MUL DUP1 CALLDATASIZE DUP4 CALLDATACOPY DUP1 DUP3 ADD SWAP2 POP POP SWAP1 POP JUMPDEST POP SWAP1 POP PUSH0 SWAP2 POP JUMPDEST PUSH1 0x20 DUP3 PUSH1 0xFF AND LT DUP1 ISZERO PUSH2 0x5ACB JUMPI POP PUSH0 PUSH1 0xF8 SHL DUP5 DUP4 PUSH1 0xFF AND PUSH1 0x20 DUP2 LT PUSH2 0x5AA2 JUMPI PUSH2 0x5AA1 PUSH2 0x6D78 JUMP JUMPDEST JUMPDEST BYTE PUSH1 0xF8 SHL PUSH31 0xFFFFFFFFFFFFFFFFFFFFFFFFFFFFFFFFFFFFFFFFFFFFFFFFFFFFFFFFFFFFFF NOT AND EQ ISZERO JUMPDEST ISZERO PUSH2 0x5B41 JUMPI DUP4 DUP3 PUSH1 0xFF AND PUSH1 0x20 DUP2 LT PUSH2 0x5AE6 JUMPI PUSH2 0x5AE5 PUSH2 0x6D78 JUMP JUMPDEST JUMPDEST BYTE PUSH1 0xF8 SHL DUP2 DUP4 PUSH1 0xFF AND DUP2 MLOAD DUP2 LT PUSH2 0x5B00 JUMPI PUSH2 0x5AFF PUSH2 0x6D78 JUMP JUMPDEST JUMPDEST PUSH1 0x20 ADD ADD SWAP1 PUSH31 0xFFFFFFFFFFFFFFFFFFFFFFFFFFFFFFFFFFFFFFFFFFFFFFFFFFFFFFFFFFFFFF NOT AND SWAP1 DUP2 PUSH0 BYTE SWAP1 MSTORE8 POP DUP2 DUP1 PUSH2 0x5B39 SWAP1 PUSH2 0x810C JUMP JUMPDEST SWAP3 POP POP PUSH2 0x5A7A JUMP JUMPDEST DUP1 SWAP3 POP POP POP SWAP2 SWAP1 POP JUMP JUMPDEST PUSH1 0x40 MLOAD DUP1 PUSH2 0x100 ADD PUSH1 0x40 MSTORE DUP1 PUSH1 0x60 DUP2 MSTORE PUSH1 0x20 ADD PUSH0 PUSH20 0xFFFFFFFFFFFFFFFFFFFFFFFFFFFFFFFFFFFFFFFF AND DUP2 MSTORE PUSH1 0x20 ADD PUSH1 0x60 DUP2 MSTORE PUSH1 0x20 ADD PUSH0 PUSH1 0x3 DUP2 GT ISZERO PUSH2 0x5B94 JUMPI PUSH2 0x5B93 PUSH2 0x5F29 JUMP JUMPDEST JUMPDEST DUP2 MSTORE PUSH1 0x20 ADD PUSH0 ISZERO ISZERO DUP2 MSTORE PUSH1 0x20 ADD PUSH0 ISZERO ISZERO DUP2 MSTORE PUSH1 0x20 ADD PUSH0 PUSH20 0xFFFFFFFFFFFFFFFFFFFFFFFFFFFFFFFFFFFFFFFF AND DUP2 MSTORE PUSH1 0x20 ADD PUSH0 DUP2 MSTORE POP SWAP1 JUMP JUMPDEST DUP3 DUP1 SLOAD DUP3 DUP3 SSTORE SWAP1 PUSH0 MSTORE PUSH1 0x20 PUSH0 KECCAK256 SWAP1 DUP2 ADD SWAP3 DUP3 ISZERO PUSH2 0x5C42 JUMPI SWAP2 PUSH1 0x20 MUL DUP3 ADD JUMPDEST DUP3 DUP2 GT ISZERO PUSH2 0x5C41 JUMPI DUP3 MLOAD DUP3 PUSH0 PUSH2 0x100 EXP DUP2 SLOAD DUP2 PUSH20 0xFFFFFFFFFFFFFFFFFFFFFFFFFFFFFFFFFFFFFFFF MUL NOT AND SWAP1 DUP4 PUSH20 0xFFFFFFFFFFFFFFFFFFFFFFFFFFFFFFFFFFFFFFFF AND MUL OR SWAP1 SSTORE POP SWAP2 PUSH1 0x20 ADD SWAP2 SWAP1 PUSH1 0x1 ADD SWAP1 PUSH2 0x5BEA JUMP JUMPDEST JUMPDEST POP SWAP1 POP PUSH2 0x5C4F SWAP2 SWAP1 PUSH2 0x5D39 JUMP JUMPDEST POP SWAP1 JUMP JUMPDEST DUP3 DUP1 SLOAD DUP3 DUP3 SSTORE SWAP1 PUSH0 MSTORE PUSH1 0x20 PUSH0 KECCAK256 SWAP1 DUP2 ADD SWAP3 DUP3 ISZERO PUSH2 0x5C8D JUMPI SWAP2 PUSH1 0x20 MUL DUP3 ADD JUMPDEST DUP3 DUP2 GT ISZERO PUSH2 0x5C8C JUMPI DUP3 MLOAD DUP3 SSTORE SWAP2 PUSH1 0x20 ADD SWAP2 SWAP1 PUSH1 0x1 ADD SWAP1 PUSH2 0x5C71 JUMP JUMPDEST JUMPDEST POP SWAP1 POP PUSH2 0x5C9A SWAP2 SWAP1 PUSH2 0x5D39 JUMP JUMPDEST POP SWAP1 JUMP JUMPDEST PUSH1 0x40 MLOAD DUP1 PUSH2 0x140 ADD PUSH1 0x40 MSTORE DUP1 PUSH0 PUSH20 0xFFFFFFFFFFFFFFFFFFFFFFFFFFFFFFFFFFFFFFFF AND DUP2 MSTORE PUSH1 0x20 ADD PUSH0 PUSH20 0xFFFFFFFFFFFFFFFFFFFFFFFFFFFFFFFFFFFFFFFF AND DUP2 MSTORE PUSH1 0x20 ADD PUSH0 DUP2 MSTORE PUSH1 0x20 ADD PUSH0 DUP2 MSTORE PUSH1 0x20 ADD PUSH0 PUSH1 0x3 DUP2 GT ISZERO PUSH2 0x5D01 JUMPI PUSH2 0x5D00 PUSH2 0x5F29 JUMP JUMPDEST JUMPDEST DUP2 MSTORE PUSH1 0x20 ADD PUSH0 PUSH1 0x3 DUP2 GT ISZERO PUSH2 0x5D19 JUMPI PUSH2 0x5D18 PUSH2 0x5F29 JUMP JUMPDEST JUMPDEST DUP2 MSTORE PUSH1 0x20 ADD PUSH1 0x60 DUP2 MSTORE PUSH1 0x20 ADD PUSH0 DUP2 MSTORE PUSH1 0x20 ADD PUSH0 DUP2 MSTORE PUSH1 0x20 ADD PUSH1 0x60 DUP2 MSTORE POP SWAP1 JUMP JUMPDEST JUMPDEST DUP1 DUP3 GT ISZERO PUSH2 0x5D50 JUMPI PUSH0 DUP2 PUSH0 SWAP1 SSTORE POP PUSH1 0x1 ADD PUSH2 0x5D3A JUMP JUMPDEST POP SWAP1 JUMP JUMPDEST PUSH0 PUSH1 0x40 MLOAD SWAP1 POP SWAP1 JUMP JUMPDEST PUSH0 PUSH0 REVERT JUMPDEST PUSH0 PUSH0 REVERT JUMPDEST PUSH0 PUSH32 0xFFFFFFFF00000000000000000000000000000000000000000000000000000000 DUP3 AND SWAP1 POP SWAP2 SWAP1 POP JUMP JUMPDEST PUSH2 0x5D99 DUP2 PUSH2 0x5D65 JUMP JUMPDEST DUP2 EQ PUSH2 0x5DA3 JUMPI PUSH0 PUSH0 REVERT JUMPDEST POP JUMP JUMPDEST PUSH0 DUP2 CALLDATALOAD SWAP1 POP PUSH2 0x5DB4 DUP2 PUSH2 0x5D90 JUMP JUMPDEST SWAP3 SWAP2 POP POP JUMP JUMPDEST PUSH0 PUSH1 0x20 DUP3 DUP5 SUB SLT ISZERO PUSH2 0x5DCF JUMPI PUSH2 0x5DCE PUSH2 0x5D5D JUMP JUMPDEST JUMPDEST PUSH0 PUSH2 0x5DDC DUP5 DUP3 DUP6 ADD PUSH2 0x5DA6 JUMP JUMPDEST SWAP2 POP POP SWAP3 SWAP2 POP POP JUMP JUMPDEST PUSH0 DUP2 ISZERO ISZERO SWAP1 POP SWAP2 SWAP1 POP JUMP JUMPDEST PUSH2 0x5DF9 DUP2 PUSH2 0x5DE5 JUMP JUMPDEST DUP3 MSTORE POP POP JUMP JUMPDEST PUSH0 PUSH1 0x20 DUP3 ADD SWAP1 POP PUSH2 0x5E12 PUSH0 DUP4 ADD DUP5 PUSH2 0x5DF0 JUMP JUMPDEST SWAP3 SWAP2 POP POP JUMP JUMPDEST PUSH0 PUSH20 0xFFFFFFFFFFFFFFFFFFFFFFFFFFFFFFFFFFFFFFFF DUP3 AND SWAP1 POP SWAP2 SWAP1 POP JUMP JUMPDEST PUSH0 DUP2 SWAP1 POP SWAP2 SWAP1 POP JUMP JUMPDEST PUSH0 PUSH2 0x5E5A PUSH2 0x5E55 PUSH2 0x5E50 DUP5 PUSH2 0x5E18 JUMP JUMPDEST PUSH2 0x5E37 JUMP JUMPDEST PUSH2 0x5E18 JUMP JUMPDEST SWAP1 POP SWAP2 SWAP1 POP JUMP JUMPDEST PUSH0 PUSH2 0x5E6B DUP3 PUSH2 0x5E40 JUMP JUMPDEST SWAP1 POP SWAP2 SWAP1 POP JUMP JUMPDEST PUSH0 PUSH2 0x5E7C DUP3 PUSH2 0x5E61 JUMP JUMPDEST SWAP1 POP SWAP2 SWAP1 POP JUMP JUMPDEST PUSH2 0x5E8C DUP2 PUSH2 0x5E72 JUMP JUMPDEST DUP3 MSTORE POP POP JUMP JUMPDEST PUSH0 PUSH1 0x20 DUP3 ADD SWAP1 POP PUSH2 0x5EA5 PUSH0 DUP4 ADD DUP5 PUSH2 0x5E83 JUMP JUMPDEST SWAP3 SWAP2 POP POP JUMP JUMPDEST PUSH0 DUP2 SWAP1 POP SWAP2 SWAP1 POP JUMP JUMPDEST PUSH2 0x5EBD DUP2 PUSH2 0x5EAB JUMP JUMPDEST DUP2 EQ PUSH2 0x5EC7 JUMPI PUSH0 PUSH0 REVERT JUMPDEST POP JUMP JUMPDEST PUSH0 DUP2 CALLDATALOAD SWAP1 POP PUSH2 0x5ED8 DUP2 PUSH2 0x5EB4 JUMP JUMPDEST SWAP3 SWAP2 POP POP JUMP JUMPDEST PUSH0 PUSH1 0x20 DUP3 DUP5 SUB SLT ISZERO PUSH2 0x5EF3 JUMPI PUSH2 0x5EF2 PUSH2 0x5D5D JUMP JUMPDEST JUMPDEST PUSH0 PUSH2 0x5F00 DUP5 DUP3 DUP6 ADD PUSH2 0x5ECA JUMP JUMPDEST SWAP2 POP POP SWAP3 SWAP2 POP POP JUMP JUMPDEST PUSH0 PUSH2 0x5F13 DUP3 PUSH2 0x5E18 JUMP JUMPDEST SWAP1 POP SWAP2 SWAP1 POP JUMP JUMPDEST PUSH2 0x5F23 DUP2 PUSH2 0x5F09 JUMP JUMPDEST DUP3 MSTORE POP POP JUMP JUMPDEST PUSH32 0x4E487B7100000000000000000000000000000000000000000000000000000000 PUSH0 MSTORE PUSH1 0x21 PUSH1 0x4 MSTORE PUSH1 0x24 PUSH0 REVERT JUMPDEST PUSH1 0x4 DUP2 LT PUSH2 0x5F67 JUMPI PUSH2 0x5F66 PUSH2 0x5F29 JUMP JUMPDEST JUMPDEST POP JUMP JUMPDEST PUSH0 DUP2 SWAP1 POP PUSH2 0x5F77 DUP3 PUSH2 0x5F56 JUMP JUMPDEST SWAP2 SWAP1 POP JUMP JUMPDEST PUSH0 PUSH2 0x5F86 DUP3 PUSH2 0x5F6A JUMP JUMPDEST SWAP1 POP SWAP2 SWAP1 POP JUMP JUMPDEST PUSH2 0x5F96 DUP2 PUSH2 0x5F7C JUMP JUMPDEST DUP3 MSTORE POP POP JUMP JUMPDEST PUSH2 0x5FA5 DUP2 PUSH2 0x5EAB JUMP JUMPDEST DUP3 MSTORE POP POP JUMP JUMPDEST PUSH0 PUSH1 0xC0 DUP3 ADD SWAP1 POP PUSH2 0x5FBE PUSH0 DUP4 ADD DUP10 PUSH2 0x5F1A JUMP JUMPDEST PUSH2 0x5FCB PUSH1 0x20 DUP4 ADD DUP9 PUSH2 0x5F8D JUMP JUMPDEST PUSH2 0x5FD8 PUSH1 0x40 DUP4 ADD DUP8 PUSH2 0x5DF0 JUMP JUMPDEST PUSH2 0x5FE5 PUSH1 0x60 DUP4 ADD DUP7 PUSH2 0x5DF0 JUMP JUMPDEST PUSH2 0x5FF2 PUSH1 0x80 DUP4 ADD DUP6 PUSH2 0x5F1A JUMP JUMPDEST PUSH2 0x5FFF PUSH1 0xA0 DUP4 ADD DUP5 PUSH2 0x5F9C JUMP JUMPDEST SWAP8 SWAP7 POP POP POP POP POP POP POP JUMP JUMPDEST PUSH2 0x6013 DUP2 PUSH2 0x5F09 JUMP JUMPDEST DUP2 EQ PUSH2 0x601D JUMPI PUSH0 PUSH0 REVERT JUMPDEST POP JUMP JUMPDEST PUSH0 DUP2 CALLDATALOAD SWAP1 POP PUSH2 0x602E DUP2 PUSH2 0x600A JUMP JUMPDEST SWAP3 SWAP2 POP POP JUMP JUMPDEST PUSH0 PUSH1 0x20 DUP3 DUP5 SUB SLT ISZERO PUSH2 0x6049 JUMPI PUSH2 0x6048 PUSH2 0x5D5D JUMP JUMPDEST JUMPDEST PUSH0 PUSH2 0x6056 DUP5 DUP3 DUP6 ADD PUSH2 0x6020 JUMP JUMPDEST SWAP2 POP POP SWAP3 SWAP2 POP POP JUMP JUMPDEST PUSH0 PUSH1 0x20 DUP3 ADD SWAP1 POP PUSH2 0x6072 PUSH0 DUP4 ADD DUP5 PUSH2 0x5F9C JUMP JUMPDEST SWAP3 SWAP2 POP POP JUMP JUMPDEST PUSH0 DUP2 SWAP1 POP SWAP2 SWAP1 POP JUMP JUMPDEST PUSH2 0x608A DUP2 PUSH2 0x6078 JUMP JUMPDEST DUP2 EQ PUSH2 0x6094 JUMPI PUSH0 PUSH0 REVERT JUMPDEST POP JUMP JUMPDEST PUSH0 DUP2 CALLDATALOAD SWAP1 POP PUSH2 0x60A5 DUP2 PUSH2 0x6081 JUMP JUMPDEST SWAP3 SWAP2 POP POP JUMP JUMPDEST PUSH0 PUSH1 0x20 DUP3 DUP5 SUB SLT ISZERO PUSH2 0x60C0 JUMPI PUSH2 0x60BF PUSH2 0x5D5D JUMP JUMPDEST JUMPDEST PUSH0 PUSH2 0x60CD DUP5 DUP3 DUP6 ADD PUSH2 0x6097 JUMP JUMPDEST SWAP2 POP POP SWAP3 SWAP2 POP POP JUMP JUMPDEST PUSH2 0x60DF DUP2 PUSH2 0x6078 JUMP JUMPDEST DUP3 MSTORE POP POP JUMP JUMPDEST PUSH0 PUSH1 0x20 DUP3 ADD SWAP1 POP PUSH2 0x60F8 PUSH0 DUP4 ADD DUP5 PUSH2 0x60D6 JUMP JUMPDEST SWAP3 SWAP2 POP POP JUMP JUMPDEST PUSH0 PUSH2 0x6108 DUP3 PUSH2 0x5E40 JUMP JUMPDEST SWAP1 POP SWAP2 SWAP1 POP JUMP JUMPDEST PUSH0 PUSH2 0x6119 DUP3 PUSH2 0x60FE JUMP JUMPDEST SWAP1 POP SWAP2 SWAP1 POP JUMP JUMPDEST PUSH2 0x6129 DUP2 PUSH2 0x610F JUMP JUMPDEST DUP3 MSTORE POP POP JUMP JUMPDEST PUSH0 PUSH1 0x20 DUP3 ADD SWAP1 POP PUSH2 0x6142 PUSH0 DUP4 ADD DUP5 PUSH2 0x6120 JUMP JUMPDEST SWAP3 SWAP2 POP POP JUMP JUMPDEST PUSH0 PUSH0 PUSH1 0x40 DUP4 DUP6 SUB SLT ISZERO PUSH2 0x615E JUMPI PUSH2 0x615D PUSH2 0x5D5D JUMP JUMPDEST JUMPDEST PUSH0 PUSH2 0x616B DUP6 DUP3 DUP7 ADD PUSH2 0x6097 JUMP JUMPDEST SWAP3 POP POP PUSH1 0x20 PUSH2 0x617C DUP6 DUP3 DUP7 ADD PUSH2 0x6020 JUMP JUMPDEST SWAP2 POP POP SWAP3 POP SWAP3 SWAP1 POP JUMP JUMPDEST PUSH0 DUP2 MLOAD SWAP1 POP SWAP2 SWAP1 POP JUMP JUMPDEST PUSH0 DUP3 DUP3 MSTORE PUSH1 0x20 DUP3 ADD SWAP1 POP SWAP3 SWAP2 POP POP JUMP JUMPDEST PUSH0 DUP2 SWAP1 POP PUSH1 0x20 DUP3 ADD SWAP1 POP SWAP2 SWAP1 POP JUMP JUMPDEST PUSH2 0x61B8 DUP2 PUSH2 0x5F09 JUMP JUMPDEST DUP3 MSTORE POP POP JUMP JUMPDEST PUSH0 PUSH2 0x61C9 DUP4 DUP4 PUSH2 0x61AF JUMP JUMPDEST PUSH1 0x20 DUP4 ADD SWAP1 POP SWAP3 SWAP2 POP POP JUMP JUMPDEST PUSH0 PUSH1 0x20 DUP3 ADD SWAP1 POP SWAP2 SWAP1 POP JUMP JUMPDEST PUSH0 PUSH2 0x61EB DUP3 PUSH2 0x6186 JUMP JUMPDEST PUSH2 0x61F5 DUP2 DUP6 PUSH2 0x6190 JUMP JUMPDEST SWAP4 POP PUSH2 0x6200 DUP4 PUSH2 0x61A0 JUMP JUMPDEST DUP1 PUSH0 JUMPDEST DUP4 DUP2 LT ISZERO PUSH2 0x6230 JUMPI DUP2 MLOAD PUSH2 0x6217 DUP9 DUP3 PUSH2 0x61BE JUMP JUMPDEST SWAP8 POP PUSH2 0x6222 DUP4 PUSH2 0x61D5 JUMP JUMPDEST SWAP3 POP POP PUSH1 0x1 DUP2 ADD SWAP1 POP PUSH2 0x6203 JUMP JUMPDEST POP DUP6 SWAP4 POP POP POP POP SWAP3 SWAP2 POP POP JUMP JUMPDEST PUSH0 DUP2 MLOAD SWAP1 POP SWAP2 SWAP1 POP JUMP JUMPDEST PUSH0 DUP3 DUP3 MSTORE PUSH1 0x20 DUP3 ADD SWAP1 POP SWAP3 SWAP2 POP POP JUMP JUMPDEST PUSH0 DUP2 SWAP1 POP PUSH1 0x20 DUP3 ADD SWAP1 POP SWAP2 SWAP1 POP JUMP JUMPDEST PUSH2 0x626F DUP2 PUSH2 0x5EAB JUMP JUMPDEST DUP3 MSTORE POP POP JUMP JUMPDEST PUSH0 PUSH2 0x6280 DUP4 DUP4 PUSH2 0x6266 JUMP JUMPDEST PUSH1 0x20 DUP4 ADD SWAP1 POP SWAP3 SWAP2 POP POP JUMP JUMPDEST PUSH0 PUSH1 0x20 DUP3 ADD SWAP1 POP SWAP2 SWAP1 POP JUMP JUMPDEST PUSH0 PUSH2 0x62A2 DUP3 PUSH2 0x623D JUMP JUMPDEST PUSH2 0x62AC DUP2 DUP6 PUSH2 0x6247 JUMP JUMPDEST SWAP4 POP PUSH2 0x62B7 DUP4 PUSH2 0x6257 JUMP JUMPDEST DUP1 PUSH0 JUMPDEST DUP4 DUP2 LT ISZERO PUSH2 0x62E7 JUMPI DUP2 MLOAD PUSH2 0x62CE DUP9 DUP3 PUSH2 0x6275 JUMP JUMPDEST SWAP8 POP PUSH2 0x62D9 DUP4 PUSH2 0x628C JUMP JUMPDEST SWAP3 POP POP PUSH1 0x1 DUP2 ADD SWAP1 POP PUSH2 0x62BA JUMP JUMPDEST POP DUP6 SWAP4 POP POP POP POP SWAP3 SWAP2 POP POP JUMP JUMPDEST PUSH2 0x62FD DUP2 PUSH2 0x5F7C JUMP JUMPDEST DUP3 MSTORE POP POP JUMP JUMPDEST PUSH2 0x630C DUP2 PUSH2 0x5DE5 JUMP JUMPDEST DUP3 MSTORE POP POP JUMP JUMPDEST PUSH0 PUSH2 0x100 DUP4 ADD PUSH0 DUP4 ADD MLOAD DUP5 DUP3 SUB PUSH0 DUP7 ADD MSTORE PUSH2 0x632D DUP3 DUP3 PUSH2 0x61E1 JUMP JUMPDEST SWAP2 POP POP PUSH1 0x20 DUP4 ADD MLOAD PUSH2 0x6342 PUSH1 0x20 DUP7 ADD DUP3 PUSH2 0x61AF JUMP JUMPDEST POP PUSH1 0x40 DUP4 ADD MLOAD DUP5 DUP3 SUB PUSH1 0x40 DUP7 ADD MSTORE PUSH2 0x635A DUP3 DUP3 PUSH2 0x6298 JUMP JUMPDEST SWAP2 POP POP PUSH1 0x60 DUP4 ADD MLOAD PUSH2 0x636F PUSH1 0x60 DUP7 ADD DUP3 PUSH2 0x62F4 JUMP JUMPDEST POP PUSH1 0x80 DUP4 ADD MLOAD PUSH2 0x6382 PUSH1 0x80 DUP7 ADD DUP3 PUSH2 0x6303 JUMP JUMPDEST POP PUSH1 0xA0 DUP4 ADD MLOAD PUSH2 0x6395 PUSH1 0xA0 DUP7 ADD DUP3 PUSH2 0x6303 JUMP JUMPDEST POP PUSH1 0xC0 DUP4 ADD MLOAD PUSH2 0x63A8 PUSH1 0xC0 DUP7 ADD DUP3 PUSH2 0x61AF JUMP JUMPDEST POP PUSH1 0xE0 DUP4 ADD MLOAD PUSH2 0x63BB PUSH1 0xE0 DUP7 ADD DUP3 PUSH2 0x6266 JUMP JUMPDEST POP DUP1 SWAP2 POP POP SWAP3 SWAP2 POP POP JUMP JUMPDEST PUSH0 PUSH1 0x20 DUP3 ADD SWAP1 POP DUP2 DUP2 SUB PUSH0 DUP4 ADD MSTORE PUSH2 0x63DE DUP2 DUP5 PUSH2 0x6312 JUMP JUMPDEST SWAP1 POP SWAP3 SWAP2 POP POP JUMP JUMPDEST PUSH1 0x4 DUP2 LT PUSH2 0x63F2 JUMPI PUSH0 PUSH0 REVERT JUMPDEST POP JUMP JUMPDEST PUSH0 DUP2 CALLDATALOAD SWAP1 POP PUSH2 0x6403 DUP2 PUSH2 0x63E6 JUMP JUMPDEST SWAP3 SWAP2 POP POP JUMP JUMPDEST PUSH0 PUSH0 PUSH0 PUSH0 PUSH1 0x80 DUP6 DUP8 SUB SLT ISZERO PUSH2 0x6421 JUMPI PUSH2 0x6420 PUSH2 0x5D5D JUMP JUMPDEST JUMPDEST PUSH0 PUSH2 0x642E DUP8 DUP3 DUP9 ADD PUSH2 0x6020 JUMP JUMPDEST SWAP5 POP POP PUSH1 0x20 PUSH2 0x643F DUP8 DUP3 DUP9 ADD PUSH2 0x6020 JUMP JUMPDEST SWAP4 POP POP PUSH1 0x40 PUSH2 0x6450 DUP8 DUP3 DUP9 ADD PUSH2 0x5ECA JUMP JUMPDEST SWAP3 POP POP PUSH1 0x60 PUSH2 0x6461 DUP8 DUP3 DUP9 ADD PUSH2 0x63F5 JUMP JUMPDEST SWAP2 POP POP SWAP3 SWAP6 SWAP2 SWAP5 POP SWAP3 POP JUMP JUMPDEST PUSH0 PUSH0 REVERT JUMPDEST PUSH0 PUSH1 0x1F NOT PUSH1 0x1F DUP4 ADD AND SWAP1 POP SWAP2 SWAP1 POP JUMP JUMPDEST PUSH32 0x4E487B7100000000000000000000000000000000000000000000000000000000 PUSH0 MSTORE PUSH1 0x41 PUSH1 0x4 MSTORE PUSH1 0x24 PUSH0 REVERT JUMPDEST PUSH2 0x64B7 DUP3 PUSH2 0x6471 JUMP JUMPDEST DUP2 ADD DUP2 DUP2 LT PUSH8 0xFFFFFFFFFFFFFFFF DUP3 GT OR ISZERO PUSH2 0x64D6 JUMPI PUSH2 0x64D5 PUSH2 0x6481 JUMP JUMPDEST JUMPDEST DUP1 PUSH1 0x40 MSTORE POP POP POP JUMP JUMPDEST PUSH0 PUSH2 0x64E8 PUSH2 0x5D54 JUMP JUMPDEST SWAP1 POP PUSH2 0x64F4 DUP3 DUP3 PUSH2 0x64AE JUMP JUMPDEST SWAP2 SWAP1 POP JUMP JUMPDEST PUSH0 PUSH8 0xFFFFFFFFFFFFFFFF DUP3 GT ISZERO PUSH2 0x6513 JUMPI PUSH2 0x6512 PUSH2 0x6481 JUMP JUMPDEST JUMPDEST PUSH1 0x20 DUP3 MUL SWAP1 POP PUSH1 0x20 DUP2 ADD SWAP1 POP SWAP2 SWAP1 POP JUMP JUMPDEST PUSH0 PUSH0 REVERT JUMPDEST PUSH0 PUSH2 0x653A PUSH2 0x6535 DUP5 PUSH2 0x64F9 JUMP JUMPDEST PUSH2 0x64DF JUMP JUMPDEST SWAP1 POP DUP1 DUP4 DUP3 MSTORE PUSH1 0x20 DUP3 ADD SWAP1 POP PUSH1 0x20 DUP5 MUL DUP4 ADD DUP6 DUP2 GT ISZERO PUSH2 0x655D JUMPI PUSH2 0x655C PUSH2 0x6524 JUMP JUMPDEST JUMPDEST DUP4 JUMPDEST DUP2 DUP2 LT ISZERO PUSH2 0x6586 JUMPI DUP1 PUSH2 0x6572 DUP9 DUP3 PUSH2 0x6020 JUMP JUMPDEST DUP5 MSTORE PUSH1 0x20 DUP5 ADD SWAP4 POP POP PUSH1 0x20 DUP2 ADD SWAP1 POP PUSH2 0x655F JUMP JUMPDEST POP POP POP SWAP4 SWAP3 POP POP POP JUMP JUMPDEST PUSH0 DUP3 PUSH1 0x1F DUP4 ADD SLT PUSH2 0x65A4 JUMPI PUSH2 0x65A3 PUSH2 0x646D JUMP JUMPDEST JUMPDEST DUP2 CALLDATALOAD PUSH2 0x65B4 DUP5 DUP3 PUSH1 0x20 DUP7 ADD PUSH2 0x6528 JUMP JUMPDEST SWAP2 POP POP SWAP3 SWAP2 POP POP JUMP JUMPDEST PUSH0 PUSH8 0xFFFFFFFFFFFFFFFF DUP3 GT ISZERO PUSH2 0x65D7 JUMPI PUSH2 0x65D6 PUSH2 0x6481 JUMP JUMPDEST JUMPDEST PUSH1 0x20 DUP3 MUL SWAP1 POP PUSH1 0x20 DUP2 ADD SWAP1 POP SWAP2 SWAP1 POP JUMP JUMPDEST PUSH0 PUSH2 0x65FA PUSH2 0x65F5 DUP5 PUSH2 0x65BD JUMP JUMPDEST PUSH2 0x64DF JUMP JUMPDEST SWAP1 POP DUP1 DUP4 DUP3 MSTORE PUSH1 0x20 DUP3 ADD SWAP1 POP PUSH1 0x20 DUP5 MUL DUP4 ADD DUP6 DUP2 GT ISZERO PUSH2 0x661D JUMPI PUSH2 0x661C PUSH2 0x6524 JUMP JUMPDEST JUMPDEST DUP4 JUMPDEST DUP2 DUP2 LT ISZERO PUSH2 0x6646 JUMPI DUP1 PUSH2 0x6632 DUP9 DUP3 PUSH2 0x5ECA JUMP JUMPDEST DUP5 MSTORE PUSH1 0x20 DUP5 ADD SWAP4 POP POP PUSH1 0x20 DUP2 ADD SWAP1 POP PUSH2 0x661F JUMP JUMPDEST POP POP POP SWAP4 SWAP3 POP POP POP JUMP JUMPDEST PUSH0 DUP3 PUSH1 0x1F DUP4 ADD SLT PUSH2 0x6664 JUMPI PUSH2 0x6663 PUSH2 0x646D JUMP JUMPDEST JUMPDEST DUP2 CALLDATALOAD PUSH2 0x6674 DUP5 DUP3 PUSH1 0x20 DUP7 ADD PUSH2 0x65E8 JUMP JUMPDEST SWAP2 POP POP SWAP3 SWAP2 POP POP JUMP JUMPDEST PUSH0 PUSH0 PUSH0 PUSH0 PUSH1 0x80 DUP6 DUP8 SUB SLT ISZERO PUSH2 0x6695 JUMPI PUSH2 0x6694 PUSH2 0x5D5D JUMP JUMPDEST JUMPDEST PUSH0 DUP6 ADD CALLDATALOAD PUSH8 0xFFFFFFFFFFFFFFFF DUP2 GT ISZERO PUSH2 0x66B2 JUMPI PUSH2 0x66B1 PUSH2 0x5D61 JUMP JUMPDEST JUMPDEST PUSH2 0x66BE DUP8 DUP3 DUP9 ADD PUSH2 0x6590 JUMP JUMPDEST SWAP5 POP POP PUSH1 0x20 PUSH2 0x66CF DUP8 DUP3 DUP9 ADD PUSH2 0x6020 JUMP JUMPDEST SWAP4 POP POP PUSH1 0x40 DUP6 ADD CALLDATALOAD PUSH8 0xFFFFFFFFFFFFFFFF DUP2 GT ISZERO PUSH2 0x66F0 JUMPI PUSH2 0x66EF PUSH2 0x5D61 JUMP JUMPDEST JUMPDEST PUSH2 0x66FC DUP8 DUP3 DUP9 ADD PUSH2 0x6650 JUMP JUMPDEST SWAP3 POP POP PUSH1 0x60 PUSH2 0x670D DUP8 DUP3 DUP9 ADD PUSH2 0x63F5 JUMP JUMPDEST SWAP2 POP POP SWAP3 SWAP6 SWAP2 SWAP5 POP SWAP3 POP JUMP JUMPDEST PUSH0 PUSH2 0x6723 DUP3 PUSH2 0x5E18 JUMP JUMPDEST SWAP1 POP SWAP2 SWAP1 POP JUMP JUMPDEST PUSH2 0x6733 DUP2 PUSH2 0x6719 JUMP JUMPDEST DUP2 EQ PUSH2 0x673D JUMPI PUSH0 PUSH0 REVERT JUMPDEST POP JUMP JUMPDEST PUSH0 DUP2 CALLDATALOAD SWAP1 POP PUSH2 0x674E DUP2 PUSH2 0x672A JUMP JUMPDEST SWAP3 SWAP2 POP POP JUMP JUMPDEST PUSH0 PUSH1 0x20 DUP3 DUP5 SUB SLT ISZERO PUSH2 0x6769 JUMPI PUSH2 0x6768 PUSH2 0x5D5D JUMP JUMPDEST JUMPDEST PUSH0 PUSH2 0x6776 DUP5 DUP3 DUP6 ADD PUSH2 0x6740 JUMP JUMPDEST SWAP2 POP POP SWAP3 SWAP2 POP POP JUMP JUMPDEST PUSH0 DUP2 MLOAD SWAP1 POP SWAP2 SWAP1 POP JUMP JUMPDEST PUSH0 DUP3 DUP3 MSTORE PUSH1 0x20 DUP3 ADD SWAP1 POP SWAP3 SWAP2 POP POP JUMP JUMPDEST PUSH0 DUP2 SWAP1 POP PUSH1 0x20 DUP3 ADD SWAP1 POP SWAP2 SWAP1 POP JUMP JUMPDEST PUSH1 0x4 DUP2 LT PUSH2 0x67B9 JUMPI PUSH2 0x67B8 PUSH2 0x5F29 JUMP JUMPDEST JUMPDEST POP JUMP JUMPDEST PUSH0 DUP2 SWAP1 POP PUSH2 0x67C9 DUP3 PUSH2 0x67A8 JUMP JUMPDEST SWAP2 SWAP1 POP JUMP JUMPDEST PUSH0 PUSH2 0x67D8 DUP3 PUSH2 0x67BC JUMP JUMPDEST SWAP1 POP SWAP2 SWAP1 POP JUMP JUMPDEST PUSH2 0x67E8 DUP2 PUSH2 0x67CE JUMP JUMPDEST DUP3 MSTORE POP POP JUMP JUMPDEST PUSH0 DUP2 MLOAD SWAP1 POP SWAP2 SWAP1 POP JUMP JUMPDEST PUSH0 DUP3 DUP3 MSTORE PUSH1 0x20 DUP3 ADD SWAP1 POP SWAP3 SWAP2 POP POP JUMP JUMPDEST DUP3 DUP2 DUP4 MCOPY PUSH0 DUP4 DUP4 ADD MSTORE POP POP POP JUMP JUMPDEST PUSH0 PUSH2 0x6820 DUP3 PUSH2 0x67EE JUMP JUMPDEST PUSH2 0x682A DUP2 DUP6 PUSH2 0x67F8 JUMP JUMPDEST SWAP4 POP PUSH2 0x683A DUP2 DUP6 PUSH1 0x20 DUP7 ADD PUSH2 0x6808 JUMP JUMPDEST PUSH2 0x6843 DUP2 PUSH2 0x6471 JUMP JUMPDEST DUP5 ADD SWAP2 POP POP SWAP3 SWAP2 POP POP JUMP JUMPDEST PUSH0 PUSH2 0x140 DUP4 ADD PUSH0 DUP4 ADD MLOAD PUSH2 0x6864 PUSH0 DUP7 ADD DUP3 PUSH2 0x61AF JUMP JUMPDEST POP PUSH1 0x20 DUP4 ADD MLOAD PUSH2 0x6877 PUSH1 0x20 DUP7 ADD DUP3 PUSH2 0x61AF JUMP JUMPDEST POP PUSH1 0x40 DUP4 ADD MLOAD PUSH2 0x688A PUSH1 0x40 DUP7 ADD DUP3 PUSH2 0x6266 JUMP JUMPDEST POP PUSH1 0x60 DUP4 ADD MLOAD PUSH2 0x689D PUSH1 0x60 DUP7 ADD DUP3 PUSH2 0x6266 JUMP JUMPDEST POP PUSH1 0x80 DUP4 ADD MLOAD PUSH2 0x68B0 PUSH1 0x80 DUP7 ADD DUP3 PUSH2 0x62F4 JUMP JUMPDEST POP PUSH1 0xA0 DUP4 ADD MLOAD PUSH2 0x68C3 PUSH1 0xA0 DUP7 ADD DUP3 PUSH2 0x67DF JUMP JUMPDEST POP PUSH1 0xC0 DUP4 ADD MLOAD DUP5 DUP3 SUB PUSH1 0xC0 DUP7 ADD MSTORE PUSH2 0x68DB DUP3 DUP3 PUSH2 0x6816 JUMP JUMPDEST SWAP2 POP POP PUSH1 0xE0 DUP4 ADD MLOAD PUSH2 0x68F0 PUSH1 0xE0 DUP7 ADD DUP3 PUSH2 0x6266 JUMP JUMPDEST POP PUSH2 0x100 DUP4 ADD MLOAD PUSH2 0x6905 PUSH2 0x100 DUP7 ADD DUP3 PUSH2 0x6266 JUMP JUMPDEST POP PUSH2 0x120 DUP4 ADD MLOAD DUP5 DUP3 SUB PUSH2 0x120 DUP7 ADD MSTORE PUSH2 0x691F DUP3 DUP3 PUSH2 0x6816 JUMP JUMPDEST SWAP2 POP POP DUP1 SWAP2 POP POP SWAP3 SWAP2 POP POP JUMP JUMPDEST PUSH0 PUSH2 0x6937 DUP4 DUP4 PUSH2 0x684E JUMP JUMPDEST SWAP1 POP SWAP3 SWAP2 POP POP JUMP JUMPDEST PUSH0 PUSH1 0x20 DUP3 ADD SWAP1 POP SWAP2 SWAP1 POP JUMP JUMPDEST PUSH0 PUSH2 0x6955 DUP3 PUSH2 0x677F JUMP JUMPDEST PUSH2 0x695F DUP2 DUP6 PUSH2 0x6789 JUMP JUMPDEST SWAP4 POP DUP4 PUSH1 0x20 DUP3 MUL DUP6 ADD PUSH2 0x6971 DUP6 PUSH2 0x6799 JUMP JUMPDEST DUP1 PUSH0 JUMPDEST DUP6 DUP2 LT ISZERO PUSH2 0x69AC JUMPI DUP5 DUP5 SUB DUP10 MSTORE DUP2 MLOAD PUSH2 0x698D DUP6 DUP3 PUSH2 0x692C JUMP JUMPDEST SWAP5 POP PUSH2 0x6998 DUP4 PUSH2 0x693F JUMP JUMPDEST SWAP3 POP PUSH1 0x20 DUP11 ADD SWAP10 POP POP PUSH1 0x1 DUP2 ADD SWAP1 POP PUSH2 0x6974 JUMP JUMPDEST POP DUP3 SWAP8 POP DUP8 SWAP6 POP POP POP POP POP POP SWAP3 SWAP2 POP POP JUMP JUMPDEST PUSH0 PUSH1 0x20 DUP3 ADD SWAP1 POP DUP2 DUP2 SUB PUSH0 DUP4 ADD MSTORE PUSH2 0x69D6 DUP2 DUP5 PUSH2 0x694B JUMP JUMPDEST SWAP1 POP SWAP3 SWAP2 POP POP JUMP JUMPDEST PUSH0 PUSH0 PUSH1 0x40 DUP4 DUP6 SUB SLT ISZERO PUSH2 0x69F4 JUMPI PUSH2 0x69F3 PUSH2 0x5D5D JUMP JUMPDEST JUMPDEST PUSH0 PUSH2 0x6A01 DUP6 DUP3 DUP7 ADD PUSH2 0x6020 JUMP JUMPDEST SWAP3 POP POP PUSH1 0x20 PUSH2 0x6A12 DUP6 DUP3 DUP7 ADD PUSH2 0x5ECA JUMP JUMPDEST SWAP2 POP POP SWAP3 POP SWAP3 SWAP1 POP JUMP JUMPDEST PUSH2 0x6A25 DUP2 PUSH2 0x67CE JUMP JUMPDEST DUP3 MSTORE POP POP JUMP JUMPDEST PUSH0 DUP3 DUP3 MSTORE PUSH1 0x20 DUP3 ADD SWAP1 POP SWAP3 SWAP2 POP POP JUMP JUMPDEST PUSH0 PUSH2 0x6A45 DUP3 PUSH2 0x67EE JUMP JUMPDEST PUSH2 0x6A4F DUP2 DUP6 PUSH2 0x6A2B JUMP JUMPDEST SWAP4 POP PUSH2 0x6A5F DUP2 DUP6 PUSH1 0x20 DUP7 ADD PUSH2 0x6808 JUMP JUMPDEST PUSH2 0x6A68 DUP2 PUSH2 0x6471 JUMP JUMPDEST DUP5 ADD SWAP2 POP POP SWAP3 SWAP2 POP POP JUMP JUMPDEST PUSH0 PUSH2 0x140 DUP3 ADD SWAP1 POP PUSH2 0x6A87 PUSH0 DUP4 ADD DUP14 PUSH2 0x5F1A JUMP JUMPDEST PUSH2 0x6A94 PUSH1 0x20 DUP4 ADD DUP13 PUSH2 0x5F1A JUMP JUMPDEST PUSH2 0x6AA1 PUSH1 0x40 DUP4 ADD DUP12 PUSH2 0x5F9C JUMP JUMPDEST PUSH2 0x6AAE PUSH1 0x60 DUP4 ADD DUP11 PUSH2 0x5F9C JUMP JUMPDEST PUSH2 0x6ABB PUSH1 0x80 DUP4 ADD DUP10 PUSH2 0x5F8D JUMP JUMPDEST PUSH2 0x6AC8 PUSH1 0xA0 DUP4 ADD DUP9 PUSH2 0x6A1C JUMP JUMPDEST DUP2 DUP2 SUB PUSH1 0xC0 DUP4 ADD MSTORE PUSH2 0x6ADA DUP2 DUP8 PUSH2 0x6A3B JUMP JUMPDEST SWAP1 POP PUSH2 0x6AE9 PUSH1 0xE0 DUP4 ADD DUP7 PUSH2 0x5F9C JUMP JUMPDEST PUSH2 0x6AF7 PUSH2 0x100 DUP4 ADD DUP6 PUSH2 0x5F9C JUMP JUMPDEST DUP2 DUP2 SUB PUSH2 0x120 DUP4 ADD MSTORE PUSH2 0x6B0A DUP2 DUP5 PUSH2 0x6A3B JUMP JUMPDEST SWAP1 POP SWAP12 SWAP11 POP POP POP POP POP POP POP POP POP POP POP JUMP JUMPDEST PUSH0 PUSH1 0x20 DUP3 ADD SWAP1 POP PUSH2 0x6B2E PUSH0 DUP4 ADD DUP5 PUSH2 0x5F1A JUMP JUMPDEST SWAP3 SWAP2 POP POP JUMP JUMPDEST PUSH0 PUSH2 0x140 DUP4 ADD PUSH0 DUP4 ADD MLOAD PUSH2 0x6B4A PUSH0 DUP7 ADD DUP3 PUSH2 0x61AF JUMP JUMPDEST POP PUSH1 0x20 DUP4 ADD MLOAD PUSH2 0x6B5D PUSH1 0x20 DUP7 ADD DUP3 PUSH2 0x61AF JUMP JUMPDEST POP PUSH1 0x40 DUP4 ADD MLOAD PUSH2 0x6B70 PUSH1 0x40 DUP7 ADD DUP3 PUSH2 0x6266 JUMP JUMPDEST POP PUSH1 0x60 DUP4 ADD MLOAD PUSH2 0x6B83 PUSH1 0x60 DUP7 ADD DUP3 PUSH2 0x6266 JUMP JUMPDEST POP PUSH1 0x80 DUP4 ADD MLOAD PUSH2 0x6B96 PUSH1 0x80 DUP7 ADD DUP3 PUSH2 0x62F4 JUMP JUMPDEST POP PUSH1 0xA0 DUP4 ADD MLOAD PUSH2 0x6BA9 PUSH1 0xA0 DUP7 ADD DUP3 PUSH2 0x67DF JUMP JUMPDEST POP PUSH1 0xC0 DUP4 ADD MLOAD DUP5 DUP3 SUB PUSH1 0xC0 DUP7 ADD MSTORE PUSH2 0x6BC1 DUP3 DUP3 PUSH2 0x6816 JUMP JUMPDEST SWAP2 POP POP PUSH1 0xE0 DUP4 ADD MLOAD PUSH2 0x6BD6 PUSH1 0xE0 DUP7 ADD DUP3 PUSH2 0x6266 JUMP JUMPDEST POP PUSH2 0x100 DUP4 ADD MLOAD PUSH2 0x6BEB PUSH2 0x100 DUP7 ADD DUP3 PUSH2 0x6266 JUMP JUMPDEST POP PUSH2 0x120 DUP4 ADD MLOAD DUP5 DUP3 SUB PUSH2 0x120 DUP7 ADD MSTORE PUSH2 0x6C05 DUP3 DUP3 PUSH2 0x6816 JUMP JUMPDEST SWAP2 POP POP DUP1 SWAP2 POP POP SWAP3 SWAP2 POP POP JUMP JUMPDEST PUSH0 PUSH1 0x20 DUP3 ADD SWAP1 POP DUP2 DUP2 SUB PUSH0 DUP4 ADD MSTORE PUSH2 0x6C2A DUP2 DUP5 PUSH2 0x6B34 JUMP JUMPDEST SWAP1 POP SWAP3 SWAP2 POP POP JUMP JUMPDEST PUSH0 PUSH0 PUSH0 PUSH1 0x60 DUP5 DUP7 SUB SLT ISZERO PUSH2 0x6C49 JUMPI PUSH2 0x6C48 PUSH2 0x5D5D JUMP JUMPDEST JUMPDEST PUSH0 PUSH2 0x6C56 DUP7 DUP3 DUP8 ADD PUSH2 0x6020 JUMP JUMPDEST SWAP4 POP POP PUSH1 0x20 PUSH2 0x6C67 DUP7 DUP3 DUP8 ADD PUSH2 0x6020 JUMP JUMPDEST SWAP3 POP POP PUSH1 0x40 PUSH2 0x6C78 DUP7 DUP3 DUP8 ADD PUSH2 0x5ECA JUMP JUMPDEST SWAP2 POP POP SWAP3 POP SWAP3 POP SWAP3 JUMP JUMPDEST PUSH2 0x6C8B DUP2 PUSH2 0x5DE5 JUMP JUMPDEST DUP2 EQ PUSH2 0x6C95 JUMPI PUSH0 PUSH0 REVERT JUMPDEST POP JUMP JUMPDEST PUSH0 DUP2 CALLDATALOAD SWAP1 POP PUSH2 0x6CA6 DUP2 PUSH2 0x6C82 JUMP JUMPDEST SWAP3 SWAP2 POP POP JUMP JUMPDEST PUSH0 PUSH1 0x20 DUP3 DUP5 SUB SLT ISZERO PUSH2 0x6CC1 JUMPI PUSH2 0x6CC0 PUSH2 0x5D5D JUMP JUMPDEST JUMPDEST PUSH0 PUSH2 0x6CCE DUP5 DUP3 DUP6 ADD PUSH2 0x6C98 JUMP JUMPDEST SWAP2 POP POP SWAP3 SWAP2 POP POP JUMP JUMPDEST PUSH0 PUSH2 0x6CE1 DUP3 PUSH2 0x5E61 JUMP JUMPDEST SWAP1 POP SWAP2 SWAP1 POP JUMP JUMPDEST PUSH2 0x6CF1 DUP2 PUSH2 0x6CD7 JUMP JUMPDEST DUP3 MSTORE POP POP JUMP JUMPDEST PUSH0 PUSH1 0x20 DUP3 ADD SWAP1 POP PUSH2 0x6D0A PUSH0 DUP4 ADD DUP5 PUSH2 0x6CE8 JUMP JUMPDEST SWAP3 SWAP2 POP POP JUMP JUMPDEST PUSH32 0x496E76616C696420626174636820494400000000000000000000000000000000 PUSH0 DUP3 ADD MSTORE POP JUMP JUMPDEST PUSH0 PUSH2 0x6D44 PUSH1 0x10 DUP4 PUSH2 0x6A2B JUMP JUMPDEST SWAP2 POP PUSH2 0x6D4F DUP3 PUSH2 0x6D10 JUMP JUMPDEST PUSH1 0x20 DUP3 ADD SWAP1 POP SWAP2 SWAP1 POP JUMP JUMPDEST PUSH0 PUSH1 0x20 DUP3 ADD SWAP1 POP DUP2 DUP2 SUB PUSH0 DUP4 ADD MSTORE PUSH2 0x6D71 DUP2 PUSH2 0x6D38 JUMP JUMPDEST SWAP1 POP SWAP2 SWAP1 POP JUMP JUMPDEST PUSH32 0x4E487B7100000000000000000000000000000000000000000000000000000000 PUSH0 MSTORE PUSH1 0x32 PUSH1 0x4 MSTORE PUSH1 0x24 PUSH0 REVERT JUMPDEST PUSH0 PUSH1 0x40 DUP3 ADD SWAP1 POP PUSH2 0x6DB8 PUSH0 DUP4 ADD DUP6 PUSH2 0x60D6 JUMP JUMPDEST PUSH2 0x6DC5 PUSH1 0x20 DUP4 ADD DUP5 PUSH2 0x5F1A JUMP JUMPDEST SWAP4 SWAP3 POP POP POP JUMP JUMPDEST PUSH0 DUP2 MLOAD SWAP1 POP PUSH2 0x6DDA DUP2 PUSH2 0x6C82 JUMP JUMPDEST SWAP3 SWAP2 POP POP JUMP JUMPDEST PUSH0 PUSH1 0x20 DUP3 DUP5 SUB SLT ISZERO PUSH2 0x6DF5 JUMPI PUSH2 0x6DF4 PUSH2 0x5D5D JUMP JUMPDEST JUMPDEST PUSH0 PUSH2 0x6E02 DUP5 DUP3 DUP6 ADD PUSH2 0x6DCC JUMP JUMPDEST SWAP2 POP POP SWAP3 SWAP2 POP POP JUMP JUMPDEST PUSH32 0x4E6F7420617574686F72697A6564000000000000000000000000000000000000 PUSH0 DUP3 ADD MSTORE POP JUMP JUMPDEST PUSH0 PUSH2 0x6E3F PUSH1 0xE DUP4 PUSH2 0x6A2B JUMP JUMPDEST SWAP2 POP PUSH2 0x6E4A DUP3 PUSH2 0x6E0B JUMP JUMPDEST PUSH1 0x20 DUP3 ADD SWAP1 POP SWAP2 SWAP1 POP JUMP JUMPDEST PUSH0 PUSH1 0x20 DUP3 ADD SWAP1 POP DUP2 DUP2 SUB PUSH0 DUP4 ADD MSTORE PUSH2 0x6E6C DUP2 PUSH2 0x6E33 JUMP JUMPDEST SWAP1 POP SWAP2 SWAP1 POP JUMP JUMPDEST PUSH0 PUSH0 REVERT JUMPDEST PUSH0 DUP2 MLOAD SWAP1 POP PUSH2 0x6E85 DUP2 PUSH2 0x600A JUMP JUMPDEST SWAP3 SWAP2 POP POP JUMP JUMPDEST PUSH0 DUP2 MLOAD SWAP1 POP PUSH2 0x6E99 DUP2 PUSH2 0x5EB4 JUMP JUMPDEST SWAP3 SWAP2 POP POP JUMP JUMPDEST PUSH1 0x3 DUP2 LT PUSH2 0x6EAB JUMPI PUSH0 PUSH0 REVERT JUMPDEST POP JUMP JUMPDEST PUSH0 DUP2 MLOAD SWAP1 POP PUSH2 0x6EBC DUP2 PUSH2 0x6E9F JUMP JUMPDEST SWAP3 SWAP2 POP POP JUMP JUMPDEST PUSH0 DUP2 SWAP1 POP SWAP2 SWAP1 POP JUMP JUMPDEST PUSH2 0x6ED4 DUP2 PUSH2 0x6EC2 JUMP JUMPDEST DUP2 EQ PUSH2 0x6EDE JUMPI PUSH0 PUSH0 REVERT JUMPDEST POP JUMP JUMPDEST PUSH0 DUP2 MLOAD SWAP1 POP PUSH2 0x6EEF DUP2 PUSH2 0x6ECB JUMP JUMPDEST SWAP3 SWAP2 POP POP JUMP JUMPDEST PUSH0 PUSH2 0x180 DUP3 DUP5 SUB SLT ISZERO PUSH2 0x6F0B JUMPI PUSH2 0x6F0A PUSH2 0x6E73 JUMP JUMPDEST JUMPDEST PUSH2 0x6F16 PUSH2 0x180 PUSH2 0x64DF JUMP JUMPDEST SWAP1 POP PUSH0 PUSH2 0x6F25 DUP5 DUP3 DUP6 ADD PUSH2 0x6E77 JUMP JUMPDEST PUSH0 DUP4 ADD MSTORE POP PUSH1 0x20 PUSH2 0x6F38 DUP5 DUP3 DUP6 ADD PUSH2 0x6E8B JUMP JUMPDEST PUSH1 0x20 DUP4 ADD MSTORE POP PUSH1 0x40 PUSH2 0x6F4C DUP5 DUP3 DUP6 ADD PUSH2 0x6EAE JUMP JUMPDEST PUSH1 0x40 DUP4 ADD MSTORE POP PUSH1 0x60 PUSH2 0x6F60 DUP5 DUP3 DUP6 ADD PUSH2 0x6E77 JUMP JUMPDEST PUSH1 0x60 DUP4 ADD MSTORE POP PUSH1 0x80 PUSH2 0x6F74 DUP5 DUP3 DUP6 ADD PUSH2 0x6DCC JUMP JUMPDEST PUSH1 0x80 DUP4 ADD MSTORE POP PUSH1 0xA0 PUSH2 0x6F88 DUP5 DUP3 DUP6 ADD PUSH2 0x6E8B JUMP JUMPDEST PUSH1 0xA0 DUP4 ADD MSTORE POP PUSH1 0xC0 PUSH2 0x6F9C DUP5 DUP3 DUP6 ADD PUSH2 0x6E8B JUMP JUMPDEST PUSH1 0xC0 DUP4 ADD MSTORE POP PUSH1 0xE0 PUSH2 0x6FB0 DUP5 DUP3 DUP6 ADD PUSH2 0x6E8B JUMP JUMPDEST PUSH1 0xE0 DUP4 ADD MSTORE POP PUSH2 0x100 PUSH2 0x6FC5 DUP5 DUP3 DUP6 ADD PUSH2 0x6EE1 JUMP JUMPDEST PUSH2 0x100 DUP4 ADD MSTORE POP PUSH2 0x120 PUSH2 0x6FDB DUP5 DUP3 DUP6 ADD PUSH2 0x6EE1 JUMP JUMPDEST PUSH2 0x120 DUP4 ADD MSTORE POP PUSH2 0x140 PUSH2 0x6FF1 DUP5 DUP3 DUP6 ADD PUSH2 0x6E8B JUMP JUMPDEST PUSH2 0x140 DUP4 ADD MSTORE POP PUSH2 0x160 PUSH2 0x7007 DUP5 DUP3 DUP6 ADD PUSH2 0x6DCC JUMP JUMPDEST PUSH2 0x160 DUP4 ADD MSTORE POP SWAP3 SWAP2 POP POP JUMP JUMPDEST PUSH0 PUSH2 0x180 DUP3 DUP5 SUB SLT ISZERO PUSH2 0x702A JUMPI PUSH2 0x7029 PUSH2 0x5D5D JUMP JUMPDEST JUMPDEST PUSH0 PUSH2 0x7037 DUP5 DUP3 DUP6 ADD PUSH2 0x6EF5 JUMP JUMPDEST SWAP2 POP POP SWAP3 SWAP2 POP POP JUMP JUMPDEST PUSH32 0x456D706C6F796565206E6F742061637469766500000000000000000000000000 PUSH0 DUP3 ADD MSTORE POP JUMP JUMPDEST PUSH0 PUSH2 0x7074 PUSH1 0x13 DUP4 PUSH2 0x6A2B JUMP JUMPDEST SWAP2 POP PUSH2 0x707F DUP3 PUSH2 0x7040 JUMP JUMPDEST PUSH1 0x20 DUP3 ADD SWAP1 POP SWAP2 SWAP1 POP JUMP JUMPDEST PUSH0 PUSH1 0x20 DUP3 ADD SWAP1 POP DUP2 DUP2 SUB PUSH0 DUP4 ADD MSTORE PUSH2 0x70A1 DUP2 PUSH2 0x7068 JUMP JUMPDEST SWAP1 POP SWAP2 SWAP1 POP JUMP JUMPDEST PUSH32 0x4E487B7100000000000000000000000000000000000000000000000000000000 PUSH0 MSTORE PUSH1 0x11 PUSH1 0x4 MSTORE PUSH1 0x24 PUSH0 REVERT JUMPDEST PUSH0 PUSH2 0x70DF DUP3 PUSH2 0x5EAB JUMP JUMPDEST SWAP2 POP PUSH2 0x70EA DUP4 PUSH2 0x5EAB JUMP JUMPDEST SWAP3 POP DUP3 DUP3 SUB SWAP1 POP DUP2 DUP2 GT ISZERO PUSH2 0x7102 JUMPI PUSH2 0x7101 PUSH2 0x70A8 JUMP JUMPDEST JUMPDEST SWAP3 SWAP2 POP POP JUMP JUMPDEST PUSH0 PUSH1 0x40 DUP3 ADD SWAP1 POP PUSH2 0x711B PUSH0 DUP4 ADD DUP6 PUSH2 0x5F1A JUMP JUMPDEST PUSH2 0x7128 PUSH1 0x20 DUP4 ADD DUP5 PUSH2 0x5F9C JUMP JUMPDEST SWAP4 SWAP3 POP POP POP JUMP JUMPDEST PUSH0 PUSH2 0x7139 DUP3 PUSH2 0x5EAB JUMP JUMPDEST SWAP2 POP PUSH32 0xFFFFFFFFFFFFFFFFFFFFFFFFFFFFFFFFFFFFFFFFFFFFFFFFFFFFFFFFFFFFFFFF DUP3 SUB PUSH2 0x716B JUMPI PUSH2 0x716A PUSH2 0x70A8 JUMP JUMPDEST JUMPDEST PUSH1 0x1 DUP3 ADD SWAP1 POP SWAP2 SWAP1 POP JUMP JUMPDEST PUSH32 0x4E487B7100000000000000000000000000000000000000000000000000000000 PUSH0 MSTORE PUSH1 0x22 PUSH1 0x4 MSTORE PUSH1 0x24 PUSH0 REVERT JUMPDEST PUSH0 PUSH1 0x2 DUP3 DIV SWAP1 POP PUSH1 0x1 DUP3 AND DUP1 PUSH2 0x71BA JUMPI PUSH1 0x7F DUP3 AND SWAP2 POP JUMPDEST PUSH1 0x20 DUP3 LT DUP2 SUB PUSH2 0x71CD JUMPI PUSH2 0x71CC PUSH2 0x7176 JUMP JUMPDEST JUMPDEST POP SWAP2 SWAP1 POP JUMP JUMPDEST PUSH0 DUP2 SWAP1 POP DUP2 PUSH0 MSTORE PUSH1 0x20 PUSH0 KECCAK256 SWAP1 POP SWAP2 SWAP1 POP JUMP JUMPDEST PUSH0 PUSH1 0x20 PUSH1 0x1F DUP4 ADD DIV SWAP1 POP SWAP2 SWAP1 POP JUMP JUMPDEST PUSH0 DUP3 DUP3 SHL SWAP1 POP SWAP3 SWAP2 POP POP JUMP JUMPDEST PUSH0 PUSH1 0x8 DUP4 MUL PUSH2 0x722F PUSH32 0xFFFFFFFFFFFFFFFFFFFFFFFFFFFFFFFFFFFFFFFFFFFFFFFFFFFFFFFFFFFFFFFF DUP3 PUSH2 0x71F4 JUMP JUMPDEST PUSH2 0x7239 DUP7 DUP4 PUSH2 0x71F4 JUMP JUMPDEST SWAP6 POP DUP1 NOT DUP5 AND SWAP4 POP DUP1 DUP7 AND DUP5 OR SWAP3 POP POP POP SWAP4 SWAP3 POP POP POP JUMP JUMPDEST PUSH0 PUSH2 0x726B PUSH2 0x7266 PUSH2 0x7261 DUP5 PUSH2 0x5EAB JUMP JUMPDEST PUSH2 0x5E37 JUMP JUMPDEST PUSH2 0x5EAB JUMP JUMPDEST SWAP1 POP SWAP2 SWAP1 POP JUMP JUMPDEST PUSH0 DUP2 SWAP1 POP SWAP2 SWAP1 POP JUMP JUMPDEST PUSH2 0x7284 DUP4 PUSH2 0x7251 JUMP JUMPDEST PUSH2 0x7298 PUSH2 0x7290 DUP3 PUSH2 0x7272 JUMP JUMPDEST DUP5 DUP5 SLOAD PUSH2 0x7200 JUMP JUMPDEST DUP3 SSTORE POP POP POP POP JUMP JUMPDEST PUSH0 PUSH0 SWAP1 POP SWAP1 JUMP JUMPDEST PUSH2 0x72AF PUSH2 0x72A0 JUMP JUMPDEST PUSH2 0x72BA DUP2 DUP5 DUP5 PUSH2 0x727B JUMP JUMPDEST POP POP POP JUMP JUMPDEST JUMPDEST DUP2 DUP2 LT ISZERO PUSH2 0x72DD JUMPI PUSH2 0x72D2 PUSH0 DUP3 PUSH2 0x72A7 JUMP JUMPDEST PUSH1 0x1 DUP2 ADD SWAP1 POP PUSH2 0x72C0 JUMP JUMPDEST POP POP JUMP JUMPDEST PUSH1 0x1F DUP3 GT ISZERO PUSH2 0x7322 JUMPI PUSH2 0x72F3 DUP2 PUSH2 0x71D3 JUMP JUMPDEST PUSH2 0x72FC DUP5 PUSH2 0x71E5 JUMP JUMPDEST DUP2 ADD PUSH1 0x20 DUP6 LT ISZERO PUSH2 0x730B JUMPI DUP2 SWAP1 POP JUMPDEST PUSH2 0x731F PUSH2 0x7317 DUP6 PUSH2 0x71E5 JUMP JUMPDEST DUP4 ADD DUP3 PUSH2 0x72BF JUMP JUMPDEST POP POP JUMPDEST POP POP POP JUMP JUMPDEST PUSH0 DUP3 DUP3 SHR SWAP1 POP SWAP3 SWAP2 POP POP JUMP JUMPDEST PUSH0 PUSH2 0x7342 PUSH0 NOT DUP5 PUSH1 0x8 MUL PUSH2 0x7327 JUMP JUMPDEST NOT DUP1 DUP4 AND SWAP2 POP POP SWAP3 SWAP2 POP POP JUMP JUMPDEST PUSH0 PUSH2 0x735A DUP4 DUP4 PUSH2 0x7333 JUMP JUMPDEST SWAP2 POP DUP3 PUSH1 0x2 MUL DUP3 OR SWAP1 POP SWAP3 SWAP2 POP POP JUMP JUMPDEST PUSH2 0x7373 DUP3 PUSH2 0x67EE JUMP JUMPDEST PUSH8 0xFFFFFFFFFFFFFFFF DUP2 GT ISZERO PUSH2 0x738C JUMPI PUSH2 0x738B PUSH2 0x6481 JUMP JUMPDEST JUMPDEST PUSH2 0x7396 DUP3 SLOAD PUSH2 0x71A3 JUMP JUMPDEST PUSH2 0x73A1 DUP3 DUP3 DUP6 PUSH2 0x72E1 JUMP JUMPDEST PUSH0 PUSH1 0x20 SWAP1 POP PUSH1 0x1F DUP4 GT PUSH1 0x1 DUP2 EQ PUSH2 0x73D2 JUMPI PUSH0 DUP5 ISZERO PUSH2 0x73C0 JUMPI DUP3 DUP8 ADD MLOAD SWAP1 POP JUMPDEST PUSH2 0x73CA DUP6 DUP3 PUSH2 0x734F JUMP JUMPDEST DUP7 SSTORE POP PUSH2 0x7431 JUMP JUMPDEST PUSH1 0x1F NOT DUP5 AND PUSH2 0x73E0 DUP7 PUSH2 0x71D3 JUMP JUMPDEST PUSH0 JUMPDEST DUP3 DUP2 LT ISZERO PUSH2 0x7407 JUMPI DUP5 DUP10 ADD MLOAD DUP3 SSTORE PUSH1 0x1 DUP3 ADD SWAP2 POP PUSH1 0x20 DUP6 ADD SWAP5 POP PUSH1 0x20 DUP2 ADD SWAP1 POP PUSH2 0x73E2 JUMP JUMPDEST DUP7 DUP4 LT ISZERO PUSH2 0x7424 JUMPI DUP5 DUP10 ADD MLOAD PUSH2 0x7420 PUSH1 0x1F DUP10 AND DUP3 PUSH2 0x7333 JUMP JUMPDEST DUP4 SSTORE POP JUMPDEST PUSH1 0x1 PUSH1 0x2 DUP9 MUL ADD DUP9 SSTORE POP POP POP JUMPDEST POP POP POP POP POP POP JUMP JUMPDEST PUSH0 PUSH1 0x80 DUP3 ADD SWAP1 POP PUSH2 0x744C PUSH0 DUP4 ADD DUP8 PUSH2 0x5F9C JUMP JUMPDEST PUSH2 0x7459 PUSH1 0x20 DUP4 ADD DUP7 PUSH2 0x5F8D JUMP JUMPDEST PUSH2 0x7466 PUSH1 0x40 DUP4 ADD DUP6 PUSH2 0x6A1C JUMP JUMPDEST PUSH2 0x7473 PUSH1 0x60 DUP4 ADD DUP5 PUSH2 0x5F9C JUMP JUMPDEST SWAP6 SWAP5 POP POP POP POP POP JUMP JUMPDEST PUSH32 0x4F6E6C7920706179726F6C6C20636F72652063616E2063616C6C000000000000 PUSH0 DUP3 ADD MSTORE POP JUMP JUMPDEST PUSH0 PUSH2 0x74B0 PUSH1 0x1A DUP4 PUSH2 0x6A2B JUMP JUMPDEST SWAP2 POP PUSH2 0x74BB DUP3 PUSH2 0x747C JUMP JUMPDEST PUSH1 0x20 DUP3 ADD SWAP1 POP SWAP2 SWAP1 POP JUMP JUMPDEST PUSH0 PUSH1 0x20 DUP3 ADD SWAP1 POP DUP2 DUP2 SUB PUSH0 DUP4 ADD MSTORE PUSH2 0x74DD DUP2 PUSH2 0x74A4 JUMP JUMPDEST SWAP1 POP SWAP2 SWAP1 POP JUMP JUMPDEST PUSH32 0x496E76616C6964207061796D656E742049440000000000000000000000000000 PUSH0 DUP3 ADD MSTORE POP JUMP JUMPDEST PUSH0 PUSH2 0x7518 PUSH1 0x12 DUP4 PUSH2 0x6A2B JUMP JUMPDEST SWAP2 POP PUSH2 0x7523 DUP3 PUSH2 0x74E4 JUMP JUMPDEST PUSH1 0x20 DUP3 ADD SWAP1 POP SWAP2 SWAP1 POP JUMP JUMPDEST PUSH0 PUSH1 0x20 DUP3 ADD SWAP1 POP DUP2 DUP2 SUB PUSH0 DUP4 ADD MSTORE PUSH2 0x7545 DUP2 PUSH2 0x750C JUMP JUMPDEST SWAP1 POP SWAP2 SWAP1 POP JUMP JUMPDEST PUSH32 0x5061796D656E74206E6F74206661696C65640000000000000000000000000000 PUSH0 DUP3 ADD MSTORE POP JUMP JUMPDEST PUSH0 PUSH2 0x7580 PUSH1 0x12 DUP4 PUSH2 0x6A2B JUMP JUMPDEST SWAP2 POP PUSH2 0x758B DUP3 PUSH2 0x754C JUMP JUMPDEST PUSH1 0x20 DUP3 ADD SWAP1 POP SWAP2 SWAP1 POP JUMP JUMPDEST PUSH0 PUSH1 0x20 DUP3 ADD SWAP1 POP DUP2 DUP2 SUB PUSH0 DUP4 ADD MSTORE PUSH2 0x75AD DUP2 PUSH2 0x7574 JUMP JUMPDEST SWAP1 POP SWAP2 SWAP1 POP JUMP JUMPDEST PUSH32 0x4D61782072657472696573206578636565646564000000000000000000000000 PUSH0 DUP3 ADD MSTORE POP JUMP JUMPDEST PUSH0 PUSH2 0x75E8 PUSH1 0x14 DUP4 PUSH2 0x6A2B JUMP JUMPDEST SWAP2 POP PUSH2 0x75F3 DUP3 PUSH2 0x75B4 JUMP JUMPDEST PUSH1 0x20 DUP3 ADD SWAP1 POP SWAP2 SWAP1 POP JUMP JUMPDEST PUSH0 PUSH1 0x20 DUP3 ADD SWAP1 POP DUP2 DUP2 SUB PUSH0 DUP4 ADD MSTORE PUSH2 0x7615 DUP2 PUSH2 0x75DC JUMP JUMPDEST SWAP1 POP SWAP2 SWAP1 POP JUMP JUMPDEST PUSH0 PUSH2 0x7626 DUP3 PUSH2 0x5EAB JUMP JUMPDEST SWAP2 POP PUSH2 0x7631 DUP4 PUSH2 0x5EAB JUMP JUMPDEST SWAP3 POP DUP3 DUP3 ADD SWAP1 POP DUP1 DUP3 GT ISZERO PUSH2 0x7649 JUMPI PUSH2 0x7648 PUSH2 0x70A8 JUMP JUMPDEST JUMPDEST SWAP3 SWAP2 POP POP JUMP JUMPDEST PUSH0 PUSH2 0x7659 DUP3 PUSH2 0x5EAB JUMP JUMPDEST SWAP2 POP PUSH2 0x7664 DUP4 PUSH2 0x5EAB JUMP JUMPDEST SWAP3 POP DUP3 DUP3 MUL PUSH2 0x7672 DUP2 PUSH2 0x5EAB JUMP JUMPDEST SWAP2 POP DUP3 DUP3 DIV DUP5 EQ DUP4 ISZERO OR PUSH2 0x7689 JUMPI PUSH2 0x7688 PUSH2 0x70A8 JUMP JUMPDEST JUMPDEST POP SWAP3 SWAP2 POP POP JUMP JUMPDEST PUSH32 0x52657472792064656C6179206E6F74206D657400000000000000000000000000 PUSH0 DUP3 ADD MSTORE POP JUMP JUMPDEST PUSH0 PUSH2 0x76C4 PUSH1 0x13 DUP4 PUSH2 0x6A2B JUMP JUMPDEST SWAP2 POP PUSH2 0x76CF DUP3 PUSH2 0x7690 JUMP JUMPDEST PUSH1 0x20 DUP3 ADD SWAP1 POP SWAP2 SWAP1 POP JUMP JUMPDEST PUSH0 PUSH1 0x20 DUP3 ADD SWAP1 POP DUP2 DUP2 SUB PUSH0 DUP4 ADD MSTORE PUSH2 0x76F1 DUP2 PUSH2 0x76B8 JUMP JUMPDEST SWAP1 POP SWAP2 SWAP1 POP JUMP JUMPDEST PUSH0 PUSH2 0x7702 DUP3 PUSH2 0x5EAB JUMP JUMPDEST SWAP2 POP PUSH0 DUP3 SUB PUSH2 0x7714 JUMPI PUSH2 0x7713 PUSH2 0x70A8 JUMP JUMPDEST JUMPDEST PUSH1 0x1 DUP3 SUB SWAP1 POP SWAP2 SWAP1 POP JUMP JUMPDEST PUSH0 PUSH1 0x40 DUP3 ADD SWAP1 POP PUSH2 0x7732 PUSH0 DUP4 ADD DUP6 PUSH2 0x5F9C JUMP JUMPDEST PUSH2 0x773F PUSH1 0x20 DUP4 ADD DUP5 PUSH2 0x5F9C JUMP JUMPDEST SWAP4 SWAP3 POP POP POP JUMP JUMPDEST PUSH32 0x4172726179206C656E677468206D69736D617463680000000000000000000000 PUSH0 DUP3 ADD MSTORE POP JUMP JUMPDEST PUSH0 PUSH2 0x777A PUSH1 0x15 DUP4 PUSH2 0x6A2B JUMP JUMPDEST SWAP2 POP PUSH2 0x7785 DUP3 PUSH2 0x7746 JUMP JUMPDEST PUSH1 0x20 DUP3 ADD SWAP1 POP SWAP2 SWAP1 POP JUMP JUMPDEST PUSH0 PUSH1 0x20 DUP3 ADD SWAP1 POP DUP2 DUP2 SUB PUSH0 DUP4 ADD MSTORE PUSH2 0x77A7 DUP2 PUSH2 0x776E JUMP JUMPDEST SWAP1 POP SWAP2 SWAP1 POP JUMP JUMPDEST PUSH32 0x4E6F20656D706C6F796565732073706563696669656400000000000000000000 PUSH0 DUP3 ADD MSTORE POP JUMP JUMPDEST PUSH0 PUSH2 0x77E2 PUSH1 0x16 DUP4 PUSH2 0x6A2B JUMP JUMPDEST SWAP2 POP PUSH2 0x77ED DUP3 PUSH2 0x77AE JUMP JUMPDEST PUSH1 0x20 DUP3 ADD SWAP1 POP SWAP2 SWAP1 POP JUMP JUMPDEST PUSH0 PUSH1 0x20 DUP3 ADD SWAP1 POP DUP2 DUP2 SUB PUSH0 DUP4 ADD MSTORE PUSH2 0x780F DUP2 PUSH2 0x77D6 JUMP JUMPDEST SWAP1 POP SWAP2 SWAP1 POP JUMP JUMPDEST PUSH0 PUSH1 0x40 DUP3 ADD SWAP1 POP PUSH2 0x7829 PUSH0 DUP4 ADD DUP6 PUSH2 0x5F9C JUMP JUMPDEST PUSH2 0x7836 PUSH1 0x20 DUP4 ADD DUP5 PUSH2 0x5F1A JUMP JUMPDEST SWAP4 SWAP3 POP POP POP JUMP JUMPDEST PUSH32 0x4261746368206E6F7420617070726F7665640000000000000000000000000000 PUSH0 DUP3 ADD MSTORE POP JUMP JUMPDEST PUSH0 PUSH2 0x7871 PUSH1 0x12 DUP4 PUSH2 0x6A2B JUMP JUMPDEST SWAP2 POP PUSH2 0x787C DUP3 PUSH2 0x783D JUMP JUMPDEST PUSH1 0x20 DUP3 ADD SWAP1 POP SWAP2 SWAP1 POP JUMP JUMPDEST PUSH0 PUSH1 0x20 DUP3 ADD SWAP1 POP DUP2 DUP2 SUB PUSH0 DUP4 ADD MSTORE PUSH2 0x789E DUP2 PUSH2 0x7865 JUMP JUMPDEST SWAP1 POP SWAP2 SWAP1 POP JUMP JUMPDEST PUSH32 0x426174636820616C72656164792070726F636573736564000000000000000000 PUSH0 DUP3 ADD MSTORE POP JUMP JUMPDEST PUSH0 PUSH2 0x78D9 PUSH1 0x17 DUP4 PUSH2 0x6A2B JUMP JUMPDEST SWAP2 POP PUSH2 0x78E4 DUP3 PUSH2 0x78A5 JUMP JUMPDEST PUSH1 0x20 DUP3 ADD SWAP1 POP SWAP2 SWAP1 POP JUMP JUMPDEST PUSH0 PUSH1 0x20 DUP3 ADD SWAP1 POP DUP2 DUP2 SUB PUSH0 DUP4 ADD MSTORE PUSH2 0x7906 DUP2 PUSH2 0x78CD JUMP JUMPDEST SWAP1 POP SWAP2 SWAP1 POP JUMP JUMPDEST PUSH0 PUSH1 0x80 DUP3 ADD SWAP1 POP PUSH2 0x7920 PUSH0 DUP4 ADD DUP8 PUSH2 0x5F9C JUMP JUMPDEST PUSH2 0x792D PUSH1 0x20 DUP4 ADD DUP7 PUSH2 0x5F9C JUMP JUMPDEST PUSH2 0x793A PUSH1 0x40 DUP4 ADD DUP6 PUSH2 0x5F9C JUMP JUMPDEST PUSH2 0x7947 PUSH1 0x60 DUP4 ADD DUP5 PUSH2 0x5F9C JUMP JUMPDEST SWAP6 SWAP5 POP POP POP POP POP JUMP JUMPDEST PUSH32 0x42415443485F5041594D454E545F50524F434553534544000000000000000000 PUSH0 DUP3 ADD MSTORE POP JUMP JUMPDEST PUSH0 PUSH2 0x7984 PUSH1 0x17 DUP4 PUSH2 0x6A2B JUMP JUMPDEST SWAP2 POP PUSH2 0x798F DUP3 PUSH2 0x7950 JUMP JUMPDEST PUSH1 0x20 DUP3 ADD SWAP1 POP SWAP2 SWAP1 POP JUMP JUMPDEST PUSH0 DUP2 MLOAD SWAP1 POP SWAP2 SWAP1 POP JUMP JUMPDEST PUSH0 DUP3 DUP3 MSTORE PUSH1 0x20 DUP3 ADD SWAP1 POP SWAP3 SWAP2 POP POP JUMP JUMPDEST PUSH0 PUSH2 0x79BE DUP3 PUSH2 0x799A JUMP JUMPDEST PUSH2 0x79C8 DUP2 DUP6 PUSH2 0x79A4 JUMP JUMPDEST SWAP4 POP PUSH2 0x79D8 DUP2 DUP6 PUSH1 0x20 DUP7 ADD PUSH2 0x6808 JUMP JUMPDEST PUSH2 0x79E1 DUP2 PUSH2 0x6471 JUMP JUMPDEST DUP5 ADD SWAP2 POP POP SWAP3 SWAP2 POP POP JUMP JUMPDEST PUSH0 PUSH1 0x60 DUP3 ADD SWAP1 POP PUSH2 0x79FF PUSH0 DUP4 ADD DUP6 PUSH2 0x5F1A JUMP JUMPDEST DUP2 DUP2 SUB PUSH1 0x20 DUP4 ADD MSTORE PUSH2 0x7A10 DUP2 PUSH2 0x7978 JUMP JUMPDEST SWAP1 POP DUP2 DUP2 SUB PUSH1 0x40 DUP4 ADD MSTORE PUSH2 0x7A24 DUP2 DUP5 PUSH2 0x79B4 JUMP JUMPDEST SWAP1 POP SWAP4 SWAP3 POP POP POP JUMP JUMPDEST PUSH0 PUSH2 0x7A3F PUSH2 0x7A3A DUP5 PUSH2 0x64F9 JUMP JUMPDEST PUSH2 0x64DF JUMP JUMPDEST SWAP1 POP DUP1 DUP4 DUP3 MSTORE PUSH1 0x20 DUP3 ADD SWAP1 POP PUSH1 0x20 DUP5 MUL DUP4 ADD DUP6 DUP2 GT ISZERO PUSH2 0x7A62 JUMPI PUSH2 0x7A61 PUSH2 0x6524 JUMP JUMPDEST JUMPDEST DUP4 JUMPDEST DUP2 DUP2 LT ISZERO PUSH2 0x7A8B JUMPI DUP1 PUSH2 0x7A77 DUP9 DUP3 PUSH2 0x6E77 JUMP JUMPDEST DUP5 MSTORE PUSH1 0x20 DUP5 ADD SWAP4 POP POP PUSH1 0x20 DUP2 ADD SWAP1 POP PUSH2 0x7A64 JUMP JUMPDEST POP POP POP SWAP4 SWAP3 POP POP POP JUMP JUMPDEST PUSH0 DUP3 PUSH1 0x1F DUP4 ADD SLT PUSH2 0x7AA9 JUMPI PUSH2 0x7AA8 PUSH2 0x646D JUMP JUMPDEST JUMPDEST DUP2 MLOAD PUSH2 0x7AB9 DUP5 DUP3 PUSH1 0x20 DUP7 ADD PUSH2 0x7A2D JUMP JUMPDEST SWAP2 POP POP SWAP3 SWAP2 POP POP JUMP JUMPDEST PUSH0 PUSH1 0x20 DUP3 DUP5 SUB SLT ISZERO PUSH2 0x7AD7 JUMPI PUSH2 0x7AD6 PUSH2 0x5D5D JUMP JUMPDEST JUMPDEST PUSH0 DUP3 ADD MLOAD PUSH8 0xFFFFFFFFFFFFFFFF DUP2 GT ISZERO PUSH2 0x7AF4 JUMPI PUSH2 0x7AF3 PUSH2 0x5D61 JUMP JUMPDEST JUMPDEST PUSH2 0x7B00 DUP5 DUP3 DUP6 ADD PUSH2 0x7A95 JUMP JUMPDEST SWAP2 POP POP SWAP3 SWAP2 POP POP JUMP JUMPDEST PUSH0 PUSH1 0x20 DUP3 DUP5 SUB SLT ISZERO PUSH2 0x7B1E JUMPI PUSH2 0x7B1D PUSH2 0x5D5D JUMP JUMPDEST JUMPDEST PUSH0 PUSH2 0x7B2B DUP5 DUP3 DUP6 ADD PUSH2 0x6E8B JUMP JUMPDEST SWAP2 POP POP SWAP3 SWAP2 POP POP JUMP JUMPDEST PUSH0 PUSH1 0x60 DUP3 ADD SWAP1 POP PUSH2 0x7B47 PUSH0 DUP4 ADD DUP7 PUSH2 0x5F9C JUMP JUMPDEST PUSH2 0x7B54 PUSH1 0x20 DUP4 ADD DUP6 PUSH2 0x5F9C JUMP JUMPDEST PUSH2 0x7B61 PUSH1 0x40 DUP4 ADD DUP5 PUSH2 0x5F9C JUMP JUMPDEST SWAP5 SWAP4 POP POP POP POP JUMP JUMPDEST PUSH32 0x5343484544554C45445F5041594D454E54535F50524F43455353454400000000 PUSH0 DUP3 ADD MSTORE POP JUMP JUMPDEST PUSH0 PUSH2 0x7B9D PUSH1 0x1C DUP4 PUSH2 0x6A2B JUMP JUMPDEST SWAP2 POP PUSH2 0x7BA8 DUP3 PUSH2 0x7B69 JUMP JUMPDEST PUSH1 0x20 DUP3 ADD SWAP1 POP SWAP2 SWAP1 POP JUMP JUMPDEST PUSH0 PUSH1 0x60 DUP3 ADD SWAP1 POP PUSH2 0x7BC6 PUSH0 DUP4 ADD DUP6 PUSH2 0x5F1A JUMP JUMPDEST DUP2 DUP2 SUB PUSH1 0x20 DUP4 ADD MSTORE PUSH2 0x7BD7 DUP2 PUSH2 0x7B91 JUMP JUMPDEST SWAP1 POP DUP2 DUP2 SUB PUSH1 0x40 DUP4 ADD MSTORE PUSH2 0x7BEB DUP2 DUP5 PUSH2 0x79B4 JUMP JUMPDEST SWAP1 POP SWAP4 SWAP3 POP POP POP JUMP JUMPDEST PUSH32 0x426174636820616C726561647920617070726F76656400000000000000000000 PUSH0 DUP3 ADD MSTORE POP JUMP JUMPDEST PUSH0 PUSH2 0x7C28 PUSH1 0x16 DUP4 PUSH2 0x6A2B JUMP JUMPDEST SWAP2 POP PUSH2 0x7C33 DUP3 PUSH2 0x7BF4 JUMP JUMPDEST PUSH1 0x20 DUP3 ADD SWAP1 POP SWAP2 SWAP1 POP JUMP JUMPDEST PUSH0 PUSH1 0x20 DUP3 ADD SWAP1 POP DUP2 DUP2 SUB PUSH0 DUP4 ADD MSTORE PUSH2 0x7C55 DUP2 PUSH2 0x7C1C JUMP JUMPDEST SWAP1 POP SWAP2 SWAP1 POP JUMP JUMPDEST PUSH32 0x426174636820646F65736E2774207265717569726520617070726F76616C0000 PUSH0 DUP3 ADD MSTORE POP JUMP JUMPDEST PUSH0 PUSH2 0x7C90 PUSH1 0x1E DUP4 PUSH2 0x6A2B JUMP JUMPDEST SWAP2 POP PUSH2 0x7C9B DUP3 PUSH2 0x7C5C JUMP JUMPDEST PUSH1 0x20 DUP3 ADD SWAP1 POP SWAP2 SWAP1 POP JUMP JUMPDEST PUSH0 PUSH1 0x20 DUP3 ADD SWAP1 POP DUP2 DUP2 SUB PUSH0 DUP4 ADD MSTORE PUSH2 0x7CBD DUP2 PUSH2 0x7C84 JUMP JUMPDEST SWAP1 POP SWAP2 SWAP1 POP JUMP JUMPDEST PUSH0 PUSH1 0x60 DUP3 ADD SWAP1 POP PUSH2 0x7CD7 PUSH0 DUP4 ADD DUP7 PUSH2 0x5F1A JUMP JUMPDEST PUSH2 0x7CE4 PUSH1 0x20 DUP4 ADD DUP6 PUSH2 0x5F1A JUMP JUMPDEST PUSH2 0x7CF1 PUSH1 0x40 DUP4 ADD DUP5 PUSH2 0x5F9C JUMP JUMPDEST SWAP5 SWAP4 POP POP POP POP JUMP JUMPDEST PUSH32 0x5265656E7472616E637947756172643A207265656E7472616E742063616C6C00 PUSH0 DUP3 ADD MSTORE POP JUMP JUMPDEST PUSH0 PUSH2 0x7D2D PUSH1 0x1F DUP4 PUSH2 0x6A2B JUMP JUMPDEST SWAP2 POP PUSH2 0x7D38 DUP3 PUSH2 0x7CF9 JUMP JUMPDEST PUSH1 0x20 DUP3 ADD SWAP1 POP SWAP2 SWAP1 POP JUMP JUMPDEST PUSH0 PUSH1 0x20 DUP3 ADD SWAP1 POP DUP2 DUP2 SUB PUSH0 DUP4 ADD MSTORE PUSH2 0x7D5A DUP2 PUSH2 0x7D21 JUMP JUMPDEST SWAP1 POP SWAP2 SWAP1 POP JUMP JUMPDEST PUSH0 DUP2 SWAP1 POP SWAP3 SWAP2 POP POP JUMP JUMPDEST PUSH32 0x456D706C6F7965653A2000000000000000000000000000000000000000000000 PUSH0 DUP3 ADD MSTORE POP JUMP JUMPDEST PUSH0 PUSH2 0x7D9F PUSH1 0xA DUP4 PUSH2 0x7D61 JUMP JUMPDEST SWAP2 POP PUSH2 0x7DAA DUP3 PUSH2 0x7D6B JUMP JUMPDEST PUSH1 0xA DUP3 ADD SWAP1 POP SWAP2 SWAP1 POP JUMP JUMPDEST PUSH0 PUSH2 0x7DBF DUP3 PUSH2 0x67EE JUMP JUMPDEST PUSH2 0x7DC9 DUP2 DUP6 PUSH2 0x7D61 JUMP JUMPDEST SWAP4 POP PUSH2 0x7DD9 DUP2 DUP6 PUSH1 0x20 DUP7 ADD PUSH2 0x6808 JUMP JUMPDEST DUP1 DUP5 ADD SWAP2 POP POP SWAP3 SWAP2 POP POP JUMP JUMPDEST PUSH32 0x20416D6F756E743A200000000000000000000000000000000000000000000000 PUSH0 DUP3 ADD MSTORE POP JUMP JUMPDEST PUSH0 PUSH2 0x7E19 PUSH1 0x9 DUP4 PUSH2 0x7D61 JUMP JUMPDEST SWAP2 POP PUSH2 0x7E24 DUP3 PUSH2 0x7DE5 JUMP JUMPDEST PUSH1 0x9 DUP3 ADD SWAP1 POP SWAP2 SWAP1 POP JUMP JUMPDEST PUSH32 0x20546F6B656E3A20000000000000000000000000000000000000000000000000 PUSH0 DUP3 ADD MSTORE POP JUMP JUMPDEST PUSH0 PUSH2 0x7E63 PUSH1 0x8 DUP4 PUSH2 0x7D61 JUMP JUMPDEST SWAP2 POP PUSH2 0x7E6E DUP3 PUSH2 0x7E2F JUMP JUMPDEST PUSH1 0x8 DUP3 ADD SWAP1 POP SWAP2 SWAP1 POP JUMP JUMPDEST PUSH32 0x2054696D657374616D703A200000000000000000000000000000000000000000 PUSH0 DUP3 ADD MSTORE POP JUMP JUMPDEST PUSH0 PUSH2 0x7EAD PUSH1 0xC DUP4 PUSH2 0x7D61 JUMP JUMPDEST SWAP2 POP PUSH2 0x7EB8 DUP3 PUSH2 0x7E79 JUMP JUMPDEST PUSH1 0xC DUP3 ADD SWAP1 POP SWAP2 SWAP1 POP JUMP JUMPDEST PUSH0 PUSH2 0x7ECD DUP3 PUSH2 0x7D93 JUMP JUMPDEST SWAP2 POP PUSH2 0x7ED9 DUP3 DUP8 PUSH2 0x7DB5 JUMP JUMPDEST SWAP2 POP PUSH2 0x7EE4 DUP3 PUSH2 0x7E0D JUMP JUMPDEST SWAP2 POP PUSH2 0x7EF0 DUP3 DUP7 PUSH2 0x7DB5 JUMP JUMPDEST SWAP2 POP PUSH2 0x7EFB DUP3 PUSH2 0x7E57 JUMP JUMPDEST SWAP2 POP PUSH2 0x7F07 DUP3 DUP6 PUSH2 0x7DB5 JUMP JUMPDEST SWAP2 POP PUSH2 0x7F12 DUP3 PUSH2 0x7EA1 JUMP JUMPDEST SWAP2 POP PUSH2 0x7F1E DUP3 DUP5 PUSH2 0x7DB5 JUMP JUMPDEST SWAP2 POP DUP2 SWAP1 POP SWAP6 SWAP5 POP POP POP POP POP JUMP JUMPDEST PUSH0 PUSH2 0x7F37 DUP3 DUP5 PUSH2 0x7DB5 JUMP JUMPDEST SWAP2 POP DUP2 SWAP1 POP SWAP3 SWAP2 POP POP JUMP JUMPDEST PUSH0 PUSH1 0x40 DUP3 ADD SWAP1 POP PUSH2 0x7F55 PUSH0 DUP4 ADD DUP6 PUSH2 0x5F9C JUMP JUMPDEST DUP2 DUP2 SUB PUSH1 0x20 DUP4 ADD MSTORE PUSH2 0x7F67 DUP2 DUP5 PUSH2 0x6A3B JUMP JUMPDEST SWAP1 POP SWAP4 SWAP3 POP POP POP JUMP JUMPDEST PUSH0 PUSH1 0xA0 DUP3 ADD SWAP1 POP PUSH2 0x7F83 PUSH0 DUP4 ADD DUP9 PUSH2 0x5F1A JUMP JUMPDEST PUSH2 0x7F90 PUSH1 0x20 DUP4 ADD DUP8 PUSH2 0x5F9C JUMP JUMPDEST PUSH2 0x7F9D PUSH1 0x40 DUP4 ADD DUP7 PUSH2 0x5F8D JUMP JUMPDEST PUSH2 0x7FAA PUSH1 0x60 DUP4 ADD DUP6 PUSH2 0x6A1C JUMP JUMPDEST PUSH2 0x7FB7 PUSH1 0x80 DUP4 ADD DUP5 PUSH2 0x5F9C JUMP JUMPDEST SWAP7 SWAP6 POP POP POP POP POP POP JUMP JUMPDEST PUSH32 0x5041594D454E545F50524F434553534544000000000000000000000000000000 PUSH0 DUP3 ADD MSTORE POP JUMP JUMPDEST PUSH0 PUSH2 0x7FF5 PUSH1 0x11 DUP4 PUSH2 0x6A2B JUMP JUMPDEST SWAP2 POP PUSH2 0x8000 DUP3 PUSH2 0x7FC1 JUMP JUMPDEST PUSH1 0x20 DUP3 ADD SWAP1 POP SWAP2 SWAP1 POP JUMP JUMPDEST PUSH0 PUSH1 0x60 DUP3 ADD SWAP1 POP PUSH2 0x801E PUSH0 DUP4 ADD DUP6 PUSH2 0x5F1A JUMP JUMPDEST DUP2 DUP2 SUB PUSH1 0x20 DUP4 ADD MSTORE PUSH2 0x802F DUP2 PUSH2 0x7FE9 JUMP JUMPDEST SWAP1 POP DUP2 DUP2 SUB PUSH1 0x40 DUP4 ADD MSTORE PUSH2 0x8043 DUP2 DUP5 PUSH2 0x79B4 JUMP JUMPDEST SWAP1 POP SWAP4 SWAP3 POP POP POP JUMP JUMPDEST PUSH0 PUSH1 0x40 DUP3 ADD SWAP1 POP PUSH2 0x805F PUSH0 DUP4 ADD DUP6 PUSH2 0x5F1A JUMP JUMPDEST PUSH2 0x806C PUSH1 0x20 DUP4 ADD DUP5 PUSH2 0x60D6 JUMP JUMPDEST SWAP4 SWAP3 POP POP POP JUMP JUMPDEST PUSH32 0x4E487B7100000000000000000000000000000000000000000000000000000000 PUSH0 MSTORE PUSH1 0x12 PUSH1 0x4 MSTORE PUSH1 0x24 PUSH0 REVERT JUMPDEST PUSH0 PUSH2 0x80AA DUP3 PUSH2 0x5EAB JUMP JUMPDEST SWAP2 POP PUSH2 0x80B5 DUP4 PUSH2 0x5EAB JUMP JUMPDEST SWAP3 POP DUP3 PUSH2 0x80C5 JUMPI PUSH2 0x80C4 PUSH2 0x8073 JUMP JUMPDEST JUMPDEST DUP3 DUP3 DIV SWAP1 POP SWAP3 SWAP2 POP POP JUMP JUMPDEST PUSH0 PUSH2 0x80DA DUP3 PUSH2 0x5EAB JUMP JUMPDEST SWAP2 POP PUSH2 0x80E5 DUP4 PUSH2 0x5EAB JUMP JUMPDEST SWAP3 POP DUP3 PUSH2 0x80F5 JUMPI PUSH2 0x80F4 PUSH2 0x8073 JUMP JUMPDEST JUMPDEST DUP3 DUP3 MOD SWAP1 POP SWAP3 SWAP2 POP POP JUMP JUMPDEST PUSH0 PUSH1 0xFF DUP3 AND SWAP1 POP SWAP2 SWAP1 POP JUMP JUMPDEST PUSH0 PUSH2 0x8116 DUP3 PUSH2 0x8100 JUMP JUMPDEST SWAP2 POP PUSH1 0xFF DUP3 SUB PUSH2 0x8129 JUMPI PUSH2 0x8128 PUSH2 0x70A8 JUMP JUMPDEST JUMPDEST PUSH1 0x1 DUP3 ADD SWAP1 POP SWAP2 SWAP1 POP JUMP INVALID LOG2 PUSH5 0x6970667358 0x22 SLT KECCAK256 PUSH27 0x4EB88452D66DF5D27749BB88FEE7CFD4437C79B80BC37A1A52DC15 0xA6 0x4E PUSH30 0x8E64736F6C634300081E0033608060405234801561000F575F5FFD5B5060 BLOCKHASH MLOAD PUSH2 0x4808 CODESIZE SUB DUP1 PUSH2 0x4808 DUP4 CODECOPY DUP2 DUP2 ADD PUSH1 0x40 MSTORE DUP2 ADD SWAP1 PUSH2 0x31 SWAP2 SWAP1 PUSH2 0xD5 JUMP JUMPDEST DUP1 PUSH1 0x1 PUSH0 PUSH2 0x100 EXP DUP2 SLOAD DUP2 PUSH20 0xFFFFFFFFFFFFFFFFFFFFFFFFFFFFFFFFFFFFFFFF MUL NOT AND SWAP1 DUP4 PUSH20 0xFFFFFFFFFFFFFFFFFFFFFFFFFFFFFFFFFFFFFFFF AND MUL OR SWAP1 SSTORE POP POP PUSH2 0x100 JUMP JUMPDEST PUSH0 PUSH0 REVERT JUMPDEST PUSH0 PUSH20 0xFFFFFFFFFFFFFFFFFFFFFFFFFFFFFFFFFFFFFFFF DUP3 AND SWAP1 POP SWAP2 SWAP1 POP JUMP JUMPDEST PUSH0 PUSH2 0xA4 DUP3 PUSH2 0x7B JUMP JUMPDEST SWAP1 POP SWAP2 SWAP1 POP JUMP JUMPDEST PUSH2 0xB4 DUP2 PUSH2 0x9A JUMP JUMPDEST DUP2 EQ PUSH2 0xBE JUMPI PUSH0 PUSH0 REVERT JUMPDEST POP JUMP JUMPDEST PUSH0 DUP2 MLOAD SWAP1 POP PUSH2 0xCF DUP2 PUSH2 0xAB JUMP JUMPDEST SWAP3 SWAP2 POP POP JUMP JUMPDEST PUSH0 PUSH1 0x20 DUP3 DUP5 SUB SLT ISZERO PUSH2 0xEA JUMPI PUSH2 0xE9 PUSH2 0x77 JUMP JUMPDEST JUMPDEST PUSH0 PUSH2 0xF7 DUP5 DUP3 DUP6 ADD PUSH2 0xC1 JUMP JUMPDEST SWAP2 POP POP SWAP3 SWAP2 POP POP JUMP JUMPDEST PUSH2 0x46FB DUP1 PUSH2 0x10D PUSH0 CODECOPY PUSH0 RETURN INVALID PUSH1 0x80 PUSH1 0x40 MSTORE CALLVALUE DUP1 ISZERO PUSH2 0xF JUMPI PUSH0 PUSH0 REVERT JUMPDEST POP PUSH1 0x4 CALLDATASIZE LT PUSH2 0x1CD JUMPI PUSH0 CALLDATALOAD PUSH1 0xE0 SHR DUP1 PUSH4 0x75B238FC GT PUSH2 0x102 JUMPI DUP1 PUSH4 0xA9C85164 GT PUSH2 0xA0 JUMPI DUP1 PUSH4 0xDDAF0929 GT PUSH2 0x6F JUMPI DUP1 PUSH4 0xDDAF0929 EQ PUSH2 0x5EE JUMPI DUP1 PUSH4 0xE887319A EQ PUSH2 0x623 JUMPI DUP1 PUSH4 0xEAD2B306 EQ PUSH2 0x653 JUMPI DUP1 PUSH4 0xF44006E1 EQ PUSH2 0x683 JUMPI PUSH2 0x1CD JUMP JUMPDEST DUP1 PUSH4 0xA9C85164 EQ PUSH2 0x554 JUMPI DUP1 PUSH4 0xBD628D26 EQ PUSH2 0x584 JUMPI DUP1 PUSH4 0xC9A9BA51 EQ PUSH2 0x5A2 JUMPI DUP1 PUSH4 0xD547741F EQ PUSH2 0x5D2 JUMPI PUSH2 0x1CD JUMP JUMPDEST DUP1 PUSH4 0xA217FDDF GT PUSH2 0xDC JUMPI DUP1 PUSH4 0xA217FDDF EQ PUSH2 0x4A2 JUMPI DUP1 PUSH4 0xA246E46F EQ PUSH2 0x4C0 JUMPI DUP1 PUSH4 0xA2B08F25 EQ PUSH2 0x4F0 JUMPI DUP1 PUSH4 0xA393BB3E EQ PUSH2 0x520 JUMPI PUSH2 0x1CD JUMP JUMPDEST DUP1 PUSH4 0x75B238FC EQ PUSH2 0x436 JUMPI DUP1 PUSH4 0x91D14854 EQ PUSH2 0x454 JUMPI DUP1 PUSH4 0xA1C7C1A6 EQ PUSH2 0x484 JUMPI PUSH2 0x1CD JUMP JUMPDEST DUP1 PUSH4 0x2F2FF15D GT PUSH2 0x16F JUMPI DUP1 PUSH4 0x3FBD2B52 GT PUSH2 0x149 JUMPI DUP1 PUSH4 0x3FBD2B52 EQ PUSH2 0x38A JUMPI DUP1 PUSH4 0x44C83B97 EQ PUSH2 0x3BA JUMPI DUP1 PUSH4 0x61B13AA2 EQ PUSH2 0x3D6 JUMPI DUP1 PUSH4 0x6A82B00B EQ PUSH2 0x406 JUMPI PUSH2 0x1CD JUMP JUMPDEST DUP1 PUSH4 0x2F2FF15D EQ PUSH2 0x322 JUMPI DUP1 PUSH4 0x36568ABE EQ PUSH2 0x33E JUMPI DUP1 PUSH4 0x3947BE52 EQ PUSH2 0x35A JUMPI PUSH2 0x1CD JUMP JUMPDEST DUP1 PUSH4 0x1C580E1F GT PUSH2 0x1AB JUMPI DUP1 PUSH4 0x1C580E1F EQ PUSH2 0x261 JUMPI DUP1 PUSH4 0x248A9CA3 EQ PUSH2 0x291 JUMPI DUP1 PUSH4 0x25C31F04 EQ PUSH2 0x2C1 JUMPI DUP1 PUSH4 0x2820B656 EQ PUSH2 0x2F2 JUMPI PUSH2 0x1CD JUMP JUMPDEST DUP1 PUSH4 0x1FFC9A7 EQ PUSH2 0x1D1 JUMPI DUP1 PUSH4 0x5AD65B0 EQ PUSH2 0x201 JUMPI DUP1 PUSH4 0x121254A8 EQ PUSH2 0x231 JUMPI JUMPDEST PUSH0 PUSH0 REVERT JUMPDEST PUSH2 0x1EB PUSH1 0x4 DUP1 CALLDATASIZE SUB DUP2 ADD SWAP1 PUSH2 0x1E6 SWAP2 SWAP1 PUSH2 0x31F4 JUMP JUMPDEST PUSH2 0x6B3 JUMP JUMPDEST PUSH1 0x40 MLOAD PUSH2 0x1F8 SWAP2 SWAP1 PUSH2 0x3239 JUMP JUMPDEST PUSH1 0x40 MLOAD DUP1 SWAP2 SUB SWAP1 RETURN JUMPDEST PUSH2 0x21B PUSH1 0x4 DUP1 CALLDATASIZE SUB DUP2 ADD SWAP1 PUSH2 0x216 SWAP2 SWAP1 PUSH2 0x341B JUMP JUMPDEST PUSH2 0x72C JUMP JUMPDEST PUSH1 0x40 MLOAD PUSH2 0x228 SWAP2 SWAP1 PUSH2 0x36CB JUMP JUMPDEST PUSH1 0x40 MLOAD DUP1 SWAP2 SUB SWAP1 RETURN JUMPDEST PUSH2 0x24B PUSH1 0x4 DUP1 CALLDATASIZE SUB DUP2 ADD SWAP1 PUSH2 0x246 SWAP2 SWAP1 PUSH2 0x36EB JUMP JUMPDEST PUSH2 0xD1D JUMP JUMPDEST PUSH1 0x40 MLOAD PUSH2 0x258 SWAP2 SWAP1 PUSH2 0x3754 JUMP JUMPDEST PUSH1 0x40 MLOAD DUP1 SWAP2 SUB SWAP1 RETURN JUMPDEST PUSH2 0x27B PUSH1 0x4 DUP1 CALLDATASIZE SUB DUP2 ADD SWAP1 PUSH2 0x276 SWAP2 SWAP1 PUSH2 0x36EB JUMP JUMPDEST PUSH2 0xD60 JUMP JUMPDEST PUSH1 0x40 MLOAD PUSH2 0x288 SWAP2 SWAP1 PUSH2 0x36CB JUMP JUMPDEST PUSH1 0x40 MLOAD DUP1 SWAP2 SUB SWAP1 RETURN JUMPDEST PUSH2 0x2AB PUSH1 0x4 DUP1 CALLDATASIZE SUB DUP2 ADD SWAP1 PUSH2 0x2A6 SWAP2 SWAP1 PUSH2 0x3797 JUMP JUMPDEST PUSH2 0x1077 JUMP JUMPDEST PUSH1 0x40 MLOAD PUSH2 0x2B8 SWAP2 SWAP1 PUSH2 0x37D1 JUMP JUMPDEST PUSH1 0x40 MLOAD DUP1 SWAP2 SUB SWAP1 RETURN JUMPDEST PUSH2 0x2DB PUSH1 0x4 DUP1 CALLDATASIZE SUB DUP2 ADD SWAP1 PUSH2 0x2D6 SWAP2 SWAP1 PUSH2 0x37EA JUMP JUMPDEST PUSH2 0x1093 JUMP JUMPDEST PUSH1 0x40 MLOAD PUSH2 0x2E9 SWAP3 SWAP2 SWAP1 PUSH2 0x384E JUMP JUMPDEST PUSH1 0x40 MLOAD DUP1 SWAP2 SUB SWAP1 RETURN JUMPDEST PUSH2 0x30C PUSH1 0x4 DUP1 CALLDATASIZE SUB DUP2 ADD SWAP1 PUSH2 0x307 SWAP2 SWAP1 PUSH2 0x387C JUMP JUMPDEST PUSH2 0x149F JUMP JUMPDEST PUSH1 0x40 MLOAD PUSH2 0x319 SWAP2 SWAP1 PUSH2 0x396B JUMP JUMPDEST PUSH1 0x40 MLOAD DUP1 SWAP2 SUB SWAP1 RETURN JUMPDEST PUSH2 0x33C PUSH1 0x4 DUP1 CALLDATASIZE SUB DUP2 ADD SWAP1 PUSH2 0x337 SWAP2 SWAP1 PUSH2 0x398B JUMP JUMPDEST PUSH2 0x1513 JUMP JUMPDEST STOP JUMPDEST PUSH2 0x358 PUSH1 0x4 DUP1 CALLDATASIZE SUB DUP2 ADD SWAP1 PUSH2 0x353 SWAP2 SWAP1 PUSH2 0x398B JUMP JUMPDEST PUSH2 0x1535 JUMP JUMPDEST STOP JUMPDEST PUSH2 0x374 PUSH1 0x4 DUP1 CALLDATASIZE SUB DUP2 ADD SWAP1 PUSH2 0x36F SWAP2 SWAP1 PUSH2 0x39C9 JUMP JUMPDEST PUSH2 0x15B0 JUMP JUMPDEST PUSH1 0x40 MLOAD PUSH2 0x381 SWAP2 SWAP1 PUSH2 0x3754 JUMP JUMPDEST PUSH1 0x40 MLOAD DUP1 SWAP2 SUB SWAP1 RETURN JUMPDEST PUSH2 0x3A4 PUSH1 0x4 DUP1 CALLDATASIZE SUB DUP2 ADD SWAP1 PUSH2 0x39F SWAP2 SWAP1 PUSH2 0x39F4 JUMP JUMPDEST PUSH2 0x15F9 JUMP JUMPDEST PUSH1 0x40 MLOAD PUSH2 0x3B1 SWAP2 SWAP1 PUSH2 0x3754 JUMP JUMPDEST PUSH1 0x40 MLOAD DUP1 SWAP2 SUB SWAP1 RETURN JUMPDEST PUSH2 0x3D4 PUSH1 0x4 DUP1 CALLDATASIZE SUB DUP2 ADD SWAP1 PUSH2 0x3CF SWAP2 SWAP1 PUSH2 0x3ABD JUMP JUMPDEST PUSH2 0x1616 JUMP JUMPDEST STOP JUMPDEST PUSH2 0x3F0 PUSH1 0x4 DUP1 CALLDATASIZE SUB DUP2 ADD SWAP1 PUSH2 0x3EB SWAP2 SWAP1 PUSH2 0x39C9 JUMP JUMPDEST PUSH2 0x19D4 JUMP JUMPDEST PUSH1 0x40 MLOAD PUSH2 0x3FD SWAP2 SWAP1 PUSH2 0x396B JUMP JUMPDEST PUSH1 0x40 MLOAD DUP1 SWAP2 SUB SWAP1 RETURN JUMPDEST PUSH2 0x420 PUSH1 0x4 DUP1 CALLDATASIZE SUB DUP2 ADD SWAP1 PUSH2 0x41B SWAP2 SWAP1 PUSH2 0x387C JUMP JUMPDEST PUSH2 0x1A67 JUMP JUMPDEST PUSH1 0x40 MLOAD PUSH2 0x42D SWAP2 SWAP1 PUSH2 0x3754 JUMP JUMPDEST PUSH1 0x40 MLOAD DUP1 SWAP2 SUB SWAP1 RETURN JUMPDEST PUSH2 0x43E PUSH2 0x1A91 JUMP JUMPDEST PUSH1 0x40 MLOAD PUSH2 0x44B SWAP2 SWAP1 PUSH2 0x37D1 JUMP JUMPDEST PUSH1 0x40 MLOAD DUP1 SWAP2 SUB SWAP1 RETURN JUMPDEST PUSH2 0x46E PUSH1 0x4 DUP1 CALLDATASIZE SUB DUP2 ADD SWAP1 PUSH2 0x469 SWAP2 SWAP1 PUSH2 0x398B JUMP JUMPDEST PUSH2 0x1AB5 JUMP JUMPDEST PUSH1 0x40 MLOAD PUSH2 0x47B SWAP2 SWAP1 PUSH2 0x3239 JUMP JUMPDEST PUSH1 0x40 MLOAD DUP1 SWAP2 SUB SWAP1 RETURN JUMPDEST PUSH2 0x48C PUSH2 0x1B18 JUMP JUMPDEST PUSH1 0x40 MLOAD PUSH2 0x499 SWAP2 SWAP1 PUSH2 0x3B54 JUMP JUMPDEST PUSH1 0x40 MLOAD DUP1 SWAP2 SUB SWAP1 RETURN JUMPDEST PUSH2 0x4AA PUSH2 0x1B3D JUMP JUMPDEST PUSH1 0x40 MLOAD PUSH2 0x4B7 SWAP2 SWAP1 PUSH2 0x37D1 JUMP JUMPDEST PUSH1 0x40 MLOAD DUP1 SWAP2 SUB SWAP1 RETURN JUMPDEST PUSH2 0x4DA PUSH1 0x4 DUP1 CALLDATASIZE SUB DUP2 ADD SWAP1 PUSH2 0x4D5 SWAP2 SWAP1 PUSH2 0x3B6D JUMP JUMPDEST PUSH2 0x1B43 JUMP JUMPDEST PUSH1 0x40 MLOAD PUSH2 0x4E7 SWAP2 SWAP1 PUSH2 0x3754 JUMP JUMPDEST PUSH1 0x40 MLOAD DUP1 SWAP2 SUB SWAP1 RETURN JUMPDEST PUSH2 0x50A PUSH1 0x4 DUP1 CALLDATASIZE SUB DUP2 ADD SWAP1 PUSH2 0x505 SWAP2 SWAP1 PUSH2 0x3B6D JUMP JUMPDEST PUSH2 0x1B6E JUMP JUMPDEST PUSH1 0x40 MLOAD PUSH2 0x517 SWAP2 SWAP1 PUSH2 0x36CB JUMP JUMPDEST PUSH1 0x40 MLOAD DUP1 SWAP2 SUB SWAP1 RETURN JUMPDEST PUSH2 0x53A PUSH1 0x4 DUP1 CALLDATASIZE SUB DUP2 ADD SWAP1 PUSH2 0x535 SWAP2 SWAP1 PUSH2 0x3B6D JUMP JUMPDEST PUSH2 0x1F08 JUMP JUMPDEST PUSH1 0x40 MLOAD PUSH2 0x54B SWAP6 SWAP5 SWAP4 SWAP3 SWAP2 SWAP1 PUSH2 0x3BAB JUMP JUMPDEST PUSH1 0x40 MLOAD DUP1 SWAP2 SUB SWAP1 RETURN JUMPDEST PUSH2 0x56E PUSH1 0x4 DUP1 CALLDATASIZE SUB DUP2 ADD SWAP1 PUSH2 0x569 SWAP2 SWAP1 PUSH2 0x3BFC JUMP JUMPDEST PUSH2 0x241F JUMP JUMPDEST PUSH1 0x40 MLOAD PUSH2 0x57B SWAP2 SWAP1 PUSH2 0x3754 JUMP JUMPDEST PUSH1 0x40 MLOAD DUP1 SWAP2 SUB SWAP1 RETURN JUMPDEST PUSH2 0x58C PUSH2 0x244A JUMP JUMPDEST PUSH1 0x40 MLOAD PUSH2 0x599 SWAP2 SWAP1 PUSH2 0x3754 JUMP JUMPDEST PUSH1 0x40 MLOAD DUP1 SWAP2 SUB SWAP1 RETURN JUMPDEST PUSH2 0x5BC PUSH1 0x4 DUP1 CALLDATASIZE SUB DUP2 ADD SWAP1 PUSH2 0x5B7 SWAP2 SWAP1 PUSH2 0x3B6D JUMP JUMPDEST PUSH2 0x2456 JUMP JUMPDEST PUSH1 0x40 MLOAD PUSH2 0x5C9 SWAP2 SWAP1 PUSH2 0x36CB JUMP JUMPDEST PUSH1 0x40 MLOAD DUP1 SWAP2 SUB SWAP1 RETURN JUMPDEST PUSH2 0x5EC PUSH1 0x4 DUP1 CALLDATASIZE SUB DUP2 ADD SWAP1 PUSH2 0x5E7 SWAP2 SWAP1 PUSH2 0x398B JUMP JUMPDEST PUSH2 0x275B JUMP JUMPDEST STOP JUMPDEST PUSH2 0x608 PUSH1 0x4 DUP1 CALLDATASIZE SUB DUP2 ADD SWAP1 PUSH2 0x603 SWAP2 SWAP1 PUSH2 0x39F4 JUMP JUMPDEST PUSH2 0x277D JUMP JUMPDEST PUSH1 0x40 MLOAD PUSH2 0x61A SWAP7 SWAP6 SWAP5 SWAP4 SWAP3 SWAP2 SWAP1 PUSH2 0x3CCA JUMP JUMPDEST PUSH1 0x40 MLOAD DUP1 SWAP2 SUB SWAP1 RETURN JUMPDEST PUSH2 0x63D PUSH1 0x4 DUP1 CALLDATASIZE SUB DUP2 ADD SWAP1 PUSH2 0x638 SWAP2 SWAP1 PUSH2 0x39F4 JUMP JUMPDEST PUSH2 0x28EF JUMP JUMPDEST PUSH1 0x40 MLOAD PUSH2 0x64A SWAP2 SWAP1 PUSH2 0x3DC4 JUMP JUMPDEST PUSH1 0x40 MLOAD DUP1 SWAP2 SUB SWAP1 RETURN JUMPDEST PUSH2 0x66D PUSH1 0x4 DUP1 CALLDATASIZE SUB DUP2 ADD SWAP1 PUSH2 0x668 SWAP2 SWAP1 PUSH2 0x39F4 JUMP JUMPDEST PUSH2 0x2B02 JUMP JUMPDEST PUSH1 0x40 MLOAD PUSH2 0x67A SWAP2 SWAP1 PUSH2 0x396B JUMP JUMPDEST PUSH1 0x40 MLOAD DUP1 SWAP2 SUB SWAP1 RETURN JUMPDEST PUSH2 0x69D PUSH1 0x4 DUP1 CALLDATASIZE SUB DUP2 ADD SWAP1 PUSH2 0x698 SWAP2 SWAP1 PUSH2 0x3BFC JUMP JUMPDEST PUSH2 0x2B69 JUMP JUMPDEST PUSH1 0x40 MLOAD PUSH2 0x6AA SWAP2 SWAP1 PUSH2 0x36CB JUMP JUMPDEST PUSH1 0x40 MLOAD DUP1 SWAP2 SUB SWAP1 RETURN JUMPDEST PUSH0 PUSH32 0x7965DB0B00000000000000000000000000000000000000000000000000000000 PUSH28 0xFFFFFFFFFFFFFFFFFFFFFFFFFFFFFFFFFFFFFFFFFFFFFFFFFFFFFFFF NOT AND DUP3 PUSH28 0xFFFFFFFFFFFFFFFFFFFFFFFFFFFFFFFFFFFFFFFFFFFFFFFFFFFFFFFF NOT AND EQ DUP1 PUSH2 0x725 JUMPI POP PUSH2 0x724 DUP3 PUSH2 0x2E9F JUMP JUMPDEST JUMPDEST SWAP1 POP SWAP2 SWAP1 POP JUMP JUMPDEST PUSH1 0x60 PUSH0 PUSH0 SWAP1 POP PUSH0 PUSH0 SWAP1 POP JUMPDEST PUSH1 0x2 DUP1 SLOAD SWAP1 POP DUP2 LT ISZERO PUSH2 0x9E5 JUMPI PUSH0 PUSH1 0x2 DUP3 DUP2 SLOAD DUP2 LT PUSH2 0x759 JUMPI PUSH2 0x758 PUSH2 0x3DE4 JUMP JUMPDEST JUMPDEST SWAP1 PUSH0 MSTORE PUSH1 0x20 PUSH0 KECCAK256 SWAP1 PUSH1 0x6 MUL ADD PUSH1 0x40 MLOAD DUP1 PUSH1 0xC0 ADD PUSH1 0x40 MSTORE SWAP1 DUP2 PUSH0 DUP3 ADD PUSH0 SWAP1 SLOAD SWAP1 PUSH2 0x100 EXP SWAP1 DIV PUSH20 0xFFFFFFFFFFFFFFFFFFFFFFFFFFFFFFFFFFFFFFFF AND PUSH20 0xFFFFFFFFFFFFFFFFFFFFFFFFFFFFFFFFFFFFFFFF AND PUSH20 0xFFFFFFFFFFFFFFFFFFFFFFFFFFFFFFFFFFFFFFFF AND DUP2 MSTORE PUSH1 0x20 ADD PUSH1 0x1 DUP3 ADD DUP1 SLOAD PUSH2 0x7D4 SWAP1 PUSH2 0x3E3E JUMP JUMPDEST DUP1 PUSH1 0x1F ADD PUSH1 0x20 DUP1 SWAP2 DIV MUL PUSH1 0x20 ADD PUSH1 0x40 MLOAD SWAP1 DUP2 ADD PUSH1 0x40 MSTORE DUP1 SWAP3 SWAP2 SWAP1 DUP2 DUP2 MSTORE PUSH1 0x20 ADD DUP3 DUP1 SLOAD PUSH2 0x800 SWAP1 PUSH2 0x3E3E JUMP JUMPDEST DUP1 ISZERO PUSH2 0x84B JUMPI DUP1 PUSH1 0x1F LT PUSH2 0x822 JUMPI PUSH2 0x100 DUP1 DUP4 SLOAD DIV MUL DUP4 MSTORE SWAP2 PUSH1 0x20 ADD SWAP2 PUSH2 0x84B JUMP JUMPDEST DUP3 ADD SWAP2 SWAP1 PUSH0 MSTORE PUSH1 0x20 PUSH0 KECCAK256 SWAP1 JUMPDEST DUP2 SLOAD DUP2 MSTORE SWAP1 PUSH1 0x1 ADD SWAP1 PUSH1 0x20 ADD DUP1 DUP4 GT PUSH2 0x82E JUMPI DUP3 SWAP1 SUB PUSH1 0x1F AND DUP3 ADD SWAP2 JUMPDEST POP POP POP POP POP DUP2 MSTORE PUSH1 0x20 ADD PUSH1 0x2 DUP3 ADD DUP1 SLOAD PUSH2 0x864 SWAP1 PUSH2 0x3E3E JUMP JUMPDEST DUP1 PUSH1 0x1F ADD PUSH1 0x20 DUP1 SWAP2 DIV MUL PUSH1 0x20 ADD PUSH1 0x40 MLOAD SWAP1 DUP2 ADD PUSH1 0x40 MSTORE DUP1 SWAP3 SWAP2 SWAP1 DUP2 DUP2 MSTORE PUSH1 0x20 ADD DUP3 DUP1 SLOAD PUSH2 0x890 SWAP1 PUSH2 0x3E3E JUMP JUMPDEST DUP1 ISZERO PUSH2 0x8DB JUMPI DUP1 PUSH1 0x1F LT PUSH2 0x8B2 JUMPI PUSH2 0x100 DUP1 DUP4 SLOAD DIV MUL DUP4 MSTORE SWAP2 PUSH1 0x20 ADD SWAP2 PUSH2 0x8DB JUMP JUMPDEST DUP3 ADD SWAP2 SWAP1 PUSH0 MSTORE PUSH1 0x20 PUSH0 KECCAK256 SWAP1 JUMPDEST DUP2 SLOAD DUP2 MSTORE SWAP1 PUSH1 0x1 ADD SWAP1 PUSH1 0x20 ADD DUP1 DUP4 GT PUSH2 0x8BE JUMPI DUP3 SWAP1 SUB PUSH1 0x1F AND DUP3 ADD SWAP2 JUMPDEST POP POP POP POP POP DUP2 MSTORE PUSH1 0x20 ADD PUSH1 0x3 DUP3 ADD SLOAD DUP2 MSTORE PUSH1 0x20 ADD PUSH1 0x4 DUP3 ADD SLOAD DUP2 MSTORE PUSH1 0x20 ADD PUSH1 0x5 DUP3 ADD SLOAD DUP2 MSTORE POP POP SWAP1 POP PUSH0 PUSH0 PUSH20 0xFFFFFFFFFFFFFFFFFFFFFFFFFFFFFFFFFFFFFFFF AND DUP10 PUSH20 0xFFFFFFFFFFFFFFFFFFFFFFFFFFFFFFFFFFFFFFFF AND EQ DUP1 PUSH2 0x96D JUMPI POP DUP9 PUSH20 0xFFFFFFFFFFFFFFFFFFFFFFFFFFFFFFFFFFFFFFFF AND DUP3 PUSH0 ADD MLOAD PUSH20 0xFFFFFFFFFFFFFFFFFFFFFFFFFFFFFFFFFFFFFFFF AND EQ JUMPDEST SWAP1 POP PUSH0 PUSH0 DUP10 MLOAD EQ DUP1 PUSH2 0x990 JUMPI POP DUP9 DUP1 MLOAD SWAP1 PUSH1 0x20 ADD KECCAK256 DUP4 PUSH1 0x20 ADD MLOAD DUP1 MLOAD SWAP1 PUSH1 0x20 ADD KECCAK256 EQ JUMPDEST SWAP1 POP PUSH0 DUP9 DUP5 PUSH1 0x60 ADD MLOAD LT ISZERO DUP1 ISZERO PUSH2 0x9AB JUMPI POP DUP8 DUP5 PUSH1 0x60 ADD MLOAD GT ISZERO JUMPDEST SWAP1 POP DUP3 DUP1 ISZERO PUSH2 0x9B7 JUMPI POP DUP2 JUMPDEST DUP1 ISZERO PUSH2 0x9C0 JUMPI POP DUP1 JUMPDEST ISZERO PUSH2 0x9D4 JUMPI DUP6 DUP1 PUSH2 0x9D0 SWAP1 PUSH2 0x3E9B JUMP JUMPDEST SWAP7 POP POP JUMPDEST POP POP POP POP DUP1 DUP1 PUSH1 0x1 ADD SWAP2 POP POP PUSH2 0x737 JUMP JUMPDEST POP DUP1 PUSH8 0xFFFFFFFFFFFFFFFF DUP2 GT ISZERO PUSH2 0xA00 JUMPI PUSH2 0x9FF PUSH2 0x32C4 JUMP JUMPDEST JUMPDEST PUSH1 0x40 MLOAD SWAP1 DUP1 DUP3 MSTORE DUP1 PUSH1 0x20 MUL PUSH1 0x20 ADD DUP3 ADD PUSH1 0x40 MSTORE DUP1 ISZERO PUSH2 0xA39 JUMPI DUP2 PUSH1 0x20 ADD JUMPDEST PUSH2 0xA26 PUSH2 0x3146 JUMP JUMPDEST DUP2 MSTORE PUSH1 0x20 ADD SWAP1 PUSH1 0x1 SWAP1 SUB SWAP1 DUP2 PUSH2 0xA1E JUMPI SWAP1 POP JUMPDEST POP SWAP2 POP PUSH0 PUSH0 SWAP1 POP PUSH0 PUSH0 SWAP1 POP JUMPDEST PUSH1 0x2 DUP1 SLOAD SWAP1 POP DUP2 LT ISZERO PUSH2 0xD12 JUMPI PUSH0 PUSH1 0x2 DUP3 DUP2 SLOAD DUP2 LT PUSH2 0xA67 JUMPI PUSH2 0xA66 PUSH2 0x3DE4 JUMP JUMPDEST JUMPDEST SWAP1 PUSH0 MSTORE PUSH1 0x20 PUSH0 KECCAK256 SWAP1 PUSH1 0x6 MUL ADD PUSH1 0x40 MLOAD DUP1 PUSH1 0xC0 ADD PUSH1 0x40 MSTORE SWAP1 DUP2 PUSH0 DUP3 ADD PUSH0 SWAP1 SLOAD SWAP1 PUSH2 0x100 EXP SWAP1 DIV PUSH20 0xFFFFFFFFFFFFFFFFFFFFFFFFFFFFFFFFFFFFFFFF AND PUSH20 0xFFFFFFFFFFFFFFFFFFFFFFFFFFFFFFFFFFFFFFFF AND PUSH20 0xFFFFFFFFFFFFFFFFFFFFFFFFFFFFFFFFFFFFFFFF AND DUP2 MSTORE PUSH1 0x20 ADD PUSH1 0x1 DUP3 ADD DUP1 SLOAD PUSH2 0xAE2 SWAP1 PUSH2 0x3E3E JUMP JUMPDEST DUP1 PUSH1 0x1F ADD PUSH1 0x20 DUP1 SWAP2 DIV MUL PUSH1 0x20 ADD PUSH1 0x40 MLOAD SWAP1 DUP2 ADD PUSH1 0x40 MSTORE DUP1 SWAP3 SWAP2 SWAP1 DUP2 DUP2 MSTORE PUSH1 0x20 ADD DUP3 DUP1 SLOAD PUSH2 0xB0E SWAP1 PUSH2 0x3E3E JUMP JUMPDEST DUP1 ISZERO PUSH2 0xB59 JUMPI DUP1 PUSH1 0x1F LT PUSH2 0xB30 JUMPI PUSH2 0x100 DUP1 DUP4 SLOAD DIV MUL DUP4 MSTORE SWAP2 PUSH1 0x20 ADD SWAP2 PUSH2 0xB59 JUMP JUMPDEST DUP3 ADD SWAP2 SWAP1 PUSH0 MSTORE PUSH1 0x20 PUSH0 KECCAK256 SWAP1 JUMPDEST DUP2 SLOAD DUP2 MSTORE SWAP1 PUSH1 0x1 ADD SWAP1 PUSH1 0x20 ADD DUP1 DUP4 GT PUSH2 0xB3C JUMPI DUP3 SWAP1 SUB PUSH1 0x1F AND DUP3 ADD SWAP2 JUMPDEST POP POP POP POP POP DUP2 MSTORE PUSH1 0x20 ADD PUSH1 0x2 DUP3 ADD DUP1 SLOAD PUSH2 0xB72 SWAP1 PUSH2 0x3E3E JUMP JUMPDEST DUP1 PUSH1 0x1F ADD PUSH1 0x20 DUP1 SWAP2 DIV MUL PUSH1 0x20 ADD PUSH1 0x40 MLOAD SWAP1 DUP2 ADD PUSH1 0x40 MSTORE DUP1 SWAP3 SWAP2 SWAP1 DUP2 DUP2 MSTORE PUSH1 0x20 ADD DUP3 DUP1 SLOAD PUSH2 0xB9E SWAP1 PUSH2 0x3E3E JUMP JUMPDEST DUP1 ISZERO PUSH2 0xBE9 JUMPI DUP1 PUSH1 0x1F LT PUSH2 0xBC0 JUMPI PUSH2 0x100 DUP1 DUP4 SLOAD DIV MUL DUP4 MSTORE SWAP2 PUSH1 0x20 ADD SWAP2 PUSH2 0xBE9 JUMP JUMPDEST DUP3 ADD SWAP2 SWAP1 PUSH0 MSTORE PUSH1 0x20 PUSH0 KECCAK256 SWAP1 JUMPDEST DUP2 SLOAD DUP2 MSTORE SWAP1 PUSH1 0x1 ADD SWAP1 PUSH1 0x20 ADD DUP1 DUP4 GT PUSH2 0xBCC JUMPI DUP3 SWAP1 SUB PUSH1 0x1F AND DUP3 ADD SWAP2 JUMPDEST POP POP POP POP POP DUP2 MSTORE PUSH1 0x20 ADD PUSH1 0x3 DUP3 ADD SLOAD DUP2 MSTORE PUSH1 0x20 ADD PUSH1 0x4 DUP3 ADD SLOAD DUP2 MSTORE PUSH1 0x20 ADD PUSH1 0x5 DUP3 ADD SLOAD DUP2 MSTORE POP POP SWAP1 POP PUSH0 PUSH0 PUSH20 0xFFFFFFFFFFFFFFFFFFFFFFFFFFFFFFFFFFFFFFFF AND DUP11 PUSH20 0xFFFFFFFFFFFFFFFFFFFFFFFFFFFFFFFFFFFFFFFF AND EQ DUP1 PUSH2 0xC7B JUMPI POP DUP10 PUSH20 0xFFFFFFFFFFFFFFFFFFFFFFFFFFFFFFFFFFFFFFFF AND DUP3 PUSH0 ADD MLOAD PUSH20 0xFFFFFFFFFFFFFFFFFFFFFFFFFFFFFFFFFFFFFFFF AND EQ JUMPDEST SWAP1 POP PUSH0 PUSH0 DUP11 MLOAD EQ DUP1 PUSH2 0xC9E JUMPI POP DUP10 DUP1 MLOAD SWAP1 PUSH1 0x20 ADD KECCAK256 DUP4 PUSH1 0x20 ADD MLOAD DUP1 MLOAD SWAP1 PUSH1 0x20 ADD KECCAK256 EQ JUMPDEST SWAP1 POP PUSH0 DUP10 DUP5 PUSH1 0x60 ADD MLOAD LT ISZERO DUP1 ISZERO PUSH2 0xCB9 JUMPI POP DUP9 DUP5 PUSH1 0x60 ADD MLOAD GT ISZERO JUMPDEST SWAP1 POP DUP3 DUP1 ISZERO PUSH2 0xCC5 JUMPI POP DUP2 JUMPDEST DUP1 ISZERO PUSH2 0xCCE JUMPI POP DUP1 JUMPDEST ISZERO PUSH2 0xD01 JUMPI DUP4 DUP9 DUP8 DUP2 MLOAD DUP2 LT PUSH2 0xCE7 JUMPI PUSH2 0xCE6 PUSH2 0x3DE4 JUMP JUMPDEST JUMPDEST PUSH1 0x20 MUL PUSH1 0x20 ADD ADD DUP2 SWAP1 MSTORE POP DUP6 DUP1 PUSH2 0xCFD SWAP1 PUSH2 0x3E9B JUMP JUMPDEST SWAP7 POP POP JUMPDEST POP POP POP POP DUP1 DUP1 PUSH1 0x1 ADD SWAP2 POP POP PUSH2 0xA45 JUMP JUMPDEST POP POP POP SWAP5 SWAP4 POP POP POP POP JUMP JUMPDEST PUSH1 0x4 DUP3 DUP1 MLOAD PUSH1 0x20 DUP2 ADD DUP3 ADD DUP1 MLOAD DUP5 DUP3 MSTORE PUSH1 0x20 DUP4 ADD PUSH1 0x20 DUP6 ADD KECCAK256 DUP2 DUP4 MSTORE DUP1 SWAP6 POP POP POP POP POP POP DUP2 DUP2 SLOAD DUP2 LT PUSH2 0xD4E JUMPI PUSH0 DUP1 REVERT JUMPDEST SWAP1 PUSH0 MSTORE PUSH1 0x20 PUSH0 KECCAK256 ADD PUSH0 SWAP2 POP SWAP2 POP POP SLOAD DUP2 JUMP JUMPDEST PUSH1 0x60 PUSH0 PUSH1 0x4 DUP5 PUSH1 0x40 MLOAD PUSH2 0xD73 SWAP2 SWAP1 PUSH2 0x3F1C JUMP JUMPDEST SWAP1 DUP2 MSTORE PUSH1 0x20 ADD PUSH1 0x40 MLOAD DUP1 SWAP2 SUB SWAP1 KECCAK256 DUP1 SLOAD DUP1 PUSH1 0x20 MUL PUSH1 0x20 ADD PUSH1 0x40 MLOAD SWAP1 DUP2 ADD PUSH1 0x40 MSTORE DUP1 SWAP3 SWAP2 SWAP1 DUP2 DUP2 MSTORE PUSH1 0x20 ADD DUP3 DUP1 SLOAD DUP1 ISZERO PUSH2 0xDC9 JUMPI PUSH1 0x20 MUL DUP3 ADD SWAP2 SWAP1 PUSH0 MSTORE PUSH1 0x20 PUSH0 KECCAK256 SWAP1 JUMPDEST DUP2 SLOAD DUP2 MSTORE PUSH1 0x20 ADD SWAP1 PUSH1 0x1 ADD SWAP1 DUP1 DUP4 GT PUSH2 0xDB5 JUMPI JUMPDEST POP POP POP POP POP SWAP1 POP PUSH0 DUP2 MLOAD SWAP1 POP PUSH0 DUP5 GT DUP1 ISZERO PUSH2 0xDE3 JUMPI POP DUP1 DUP5 LT JUMPDEST ISZERO PUSH2 0xDEC JUMPI DUP4 SWAP1 POP JUMPDEST DUP1 PUSH8 0xFFFFFFFFFFFFFFFF DUP2 GT ISZERO PUSH2 0xE06 JUMPI PUSH2 0xE05 PUSH2 0x32C4 JUMP JUMPDEST JUMPDEST PUSH1 0x40 MLOAD SWAP1 DUP1 DUP3 MSTORE DUP1 PUSH1 0x20 MUL PUSH1 0x20 ADD DUP3 ADD PUSH1 0x40 MSTORE DUP1 ISZERO PUSH2 0xE3F JUMPI DUP2 PUSH1 0x20 ADD JUMPDEST PUSH2 0xE2C PUSH2 0x3146 JUMP JUMPDEST DUP2 MSTORE PUSH1 0x20 ADD SWAP1 PUSH1 0x1 SWAP1 SUB SWAP1 DUP2 PUSH2 0xE24 JUMPI SWAP1 POP JUMPDEST POP SWAP3 POP PUSH0 PUSH0 SWAP1 POP JUMPDEST DUP2 DUP2 LT ISZERO PUSH2 0x106E JUMPI PUSH0 DUP4 DUP3 PUSH1 0x1 DUP7 MLOAD PUSH2 0xE60 SWAP2 SWAP1 PUSH2 0x3F32 JUMP JUMPDEST PUSH2 0xE6A SWAP2 SWAP1 PUSH2 0x3F32 JUMP JUMPDEST DUP2 MLOAD DUP2 LT PUSH2 0xE7B JUMPI PUSH2 0xE7A PUSH2 0x3DE4 JUMP JUMPDEST JUMPDEST PUSH1 0x20 MUL PUSH1 0x20 ADD ADD MLOAD SWAP1 POP PUSH1 0x2 DUP2 DUP2 SLOAD DUP2 LT PUSH2 0xE99 JUMPI PUSH2 0xE98 PUSH2 0x3DE4 JUMP JUMPDEST JUMPDEST SWAP1 PUSH0 MSTORE PUSH1 0x20 PUSH0 KECCAK256 SWAP1 PUSH1 0x6 MUL ADD PUSH1 0x40 MLOAD DUP1 PUSH1 0xC0 ADD PUSH1 0x40 MSTORE SWAP1 DUP2 PUSH0 DUP3 ADD PUSH0 SWAP1 SLOAD SWAP1 PUSH2 0x100 EXP SWAP1 DIV PUSH20 0xFFFFFFFFFFFFFFFFFFFFFFFFFFFFFFFFFFFFFFFF AND PUSH20 0xFFFFFFFFFFFFFFFFFFFFFFFFFFFFFFFFFFFFFFFF AND PUSH20 0xFFFFFFFFFFFFFFFFFFFFFFFFFFFFFFFFFFFFFFFF AND DUP2 MSTORE PUSH1 0x20 ADD PUSH1 0x1 DUP3 ADD DUP1 SLOAD PUSH2 0xF14 SWAP1 PUSH2 0x3E3E JUMP JUMPDEST DUP1 PUSH1 0x1F ADD PUSH1 0x20 DUP1 SWAP2 DIV MUL PUSH1 0x20 ADD PUSH1 0x40 MLOAD SWAP1 DUP2 ADD PUSH1 0x40 MSTORE DUP1 SWAP3 SWAP2 SWAP1 DUP2 DUP2 MSTORE PUSH1 0x20 ADD DUP3 DUP1 SLOAD PUSH2 0xF40 SWAP1 PUSH2 0x3E3E JUMP JUMPDEST DUP1 ISZERO PUSH2 0xF8B JUMPI DUP1 PUSH1 0x1F LT PUSH2 0xF62 JUMPI PUSH2 0x100 DUP1 DUP4 SLOAD DIV MUL DUP4 MSTORE SWAP2 PUSH1 0x20 ADD SWAP2 PUSH2 0xF8B JUMP JUMPDEST DUP3 ADD SWAP2 SWAP1 PUSH0 MSTORE PUSH1 0x20 PUSH0 KECCAK256 SWAP1 JUMPDEST DUP2 SLOAD DUP2 MSTORE SWAP1 PUSH1 0x1 ADD SWAP1 PUSH1 0x20 ADD DUP1 DUP4 GT PUSH2 0xF6E JUMPI DUP3 SWAP1 SUB PUSH1 0x1F AND DUP3 ADD SWAP2 JUMPDEST POP POP POP POP POP DUP2 MSTORE PUSH1 0x20 ADD PUSH1 0x2 DUP3 ADD DUP1 SLOAD PUSH2 0xFA4 SWAP1 PUSH2 0x3E3E JUMP JUMPDEST DUP1 PUSH1 0x1F ADD PUSH1 0x20 DUP1 SWAP2 DIV MUL PUSH1 0x20 ADD PUSH1 0x40 MLOAD SWAP1 DUP2 ADD PUSH1 0x40 MSTORE DUP1 SWAP3 SWAP2 SWAP1 DUP2 DUP2 MSTORE PUSH1 0x20 ADD DUP3 DUP1 SLOAD PUSH2 0xFD0 SWAP1 PUSH2 0x3E3E JUMP JUMPDEST DUP1 ISZERO PUSH2 0x101B JUMPI DUP1 PUSH1 0x1F LT PUSH2 0xFF2 JUMPI PUSH2 0x100 DUP1 DUP4 SLOAD DIV MUL DUP4 MSTORE SWAP2 PUSH1 0x20 ADD SWAP2 PUSH2 0x101B JUMP JUMPDEST DUP3 ADD SWAP2 SWAP1 PUSH0 MSTORE PUSH1 0x20 PUSH0 KECCAK256 SWAP1 JUMPDEST DUP2 SLOAD DUP2 MSTORE SWAP1 PUSH1 0x1 ADD SWAP1 PUSH1 0x20 ADD DUP1 DUP4 GT PUSH2 0xFFE JUMPI DUP3 SWAP1 SUB PUSH1 0x1F AND DUP3 ADD SWAP2 JUMPDEST POP POP POP POP POP DUP2 MSTORE PUSH1 0x20 ADD PUSH1 0x3 DUP3 ADD SLOAD DUP2 MSTORE PUSH1 0x20 ADD PUSH1 0x4 DUP3 ADD SLOAD DUP2 MSTORE PUSH1 0x20 ADD PUSH1 0x5 DUP3 ADD SLOAD DUP2 MSTORE POP POP DUP6 DUP4 DUP2 MLOAD DUP2 LT PUSH2 0x1055 JUMPI PUSH2 0x1054 PUSH2 0x3DE4 JUMP JUMPDEST JUMPDEST PUSH1 0x20 MUL PUSH1 0x20 ADD ADD DUP2 SWAP1 MSTORE POP POP DUP1 DUP1 PUSH1 0x1 ADD SWAP2 POP POP PUSH2 0xE47 JUMP JUMPDEST POP POP POP SWAP3 SWAP2 POP POP JUMP JUMPDEST PUSH0 PUSH0 PUSH0 DUP4 DUP2 MSTORE PUSH1 0x20 ADD SWAP1 DUP2 MSTORE PUSH1 0x20 ADD PUSH0 KECCAK256 PUSH1 0x1 ADD SLOAD SWAP1 POP SWAP2 SWAP1 POP JUMP JUMPDEST PUSH1 0x60 PUSH0 PUSH0 DUP4 GT DUP1 ISZERO PUSH2 0x10A6 JUMPI POP PUSH1 0x64 DUP4 GT ISZERO JUMPDEST PUSH2 0x10E5 JUMPI PUSH1 0x40 MLOAD PUSH32 0x8C379A000000000000000000000000000000000000000000000000000000000 DUP2 MSTORE PUSH1 0x4 ADD PUSH2 0x10DC SWAP1 PUSH2 0x3FAF JUMP JUMPDEST PUSH1 0x40 MLOAD DUP1 SWAP2 SUB SWAP1 REVERT JUMPDEST PUSH0 PUSH0 SWAP1 POP PUSH0 PUSH0 SWAP1 POP JUMPDEST PUSH1 0x2 DUP1 SLOAD SWAP1 POP DUP2 LT ISZERO PUSH2 0x1172 JUMPI DUP8 PUSH1 0x2 DUP3 DUP2 SLOAD DUP2 LT PUSH2 0x1110 JUMPI PUSH2 0x110F PUSH2 0x3DE4 JUMP JUMPDEST JUMPDEST SWAP1 PUSH0 MSTORE PUSH1 0x20 PUSH0 KECCAK256 SWAP1 PUSH1 0x6 MUL ADD PUSH1 0x3 ADD SLOAD LT ISZERO DUP1 ISZERO PUSH2 0x1151 JUMPI POP DUP7 PUSH1 0x2 DUP3 DUP2 SLOAD DUP2 LT PUSH2 0x113E JUMPI PUSH2 0x113D PUSH2 0x3DE4 JUMP JUMPDEST JUMPDEST SWAP1 PUSH0 MSTORE PUSH1 0x20 PUSH0 KECCAK256 SWAP1 PUSH1 0x6 MUL ADD PUSH1 0x3 ADD SLOAD GT ISZERO JUMPDEST ISZERO PUSH2 0x1165 JUMPI DUP2 DUP1 PUSH2 0x1161 SWAP1 PUSH2 0x3E9B JUMP JUMPDEST SWAP3 POP POP JUMPDEST DUP1 DUP1 PUSH1 0x1 ADD SWAP2 POP POP PUSH2 0x10EE JUMP JUMPDEST POP PUSH0 DUP6 DUP3 GT PUSH2 0x1181 JUMPI PUSH0 PUSH2 0x118E JUMP JUMPDEST DUP6 DUP3 PUSH2 0x118D SWAP2 SWAP1 PUSH2 0x3F32 JUMP JUMPDEST JUMPDEST SWAP1 POP PUSH0 DUP6 DUP3 GT PUSH2 0x119E JUMPI DUP2 PUSH2 0x11A0 JUMP JUMPDEST DUP6 JUMPDEST SWAP1 POP DUP6 DUP3 GT SWAP4 POP DUP1 PUSH8 0xFFFFFFFFFFFFFFFF DUP2 GT ISZERO PUSH2 0x11C1 JUMPI PUSH2 0x11C0 PUSH2 0x32C4 JUMP JUMPDEST JUMPDEST PUSH1 0x40 MLOAD SWAP1 DUP1 DUP3 MSTORE DUP1 PUSH1 0x20 MUL PUSH1 0x20 ADD DUP3 ADD PUSH1 0x40 MSTORE DUP1 ISZERO PUSH2 0x11FA JUMPI DUP2 PUSH1 0x20 ADD JUMPDEST PUSH2 0x11E7 PUSH2 0x3146 JUMP JUMPDEST DUP2 MSTORE PUSH1 0x20 ADD SWAP1 PUSH1 0x1 SWAP1 SUB SWAP1 DUP2 PUSH2 0x11DF JUMPI SWAP1 POP JUMPDEST POP SWAP5 POP PUSH0 PUSH0 SWAP1 POP PUSH0 PUSH0 SWAP1 POP PUSH0 PUSH0 SWAP1 POP JUMPDEST PUSH1 0x2 DUP1 SLOAD SWAP1 POP DUP2 LT DUP1 ISZERO PUSH2 0x121D JUMPI POP DUP4 DUP3 LT JUMPDEST ISZERO PUSH2 0x1490 JUMPI DUP12 PUSH1 0x2 DUP3 DUP2 SLOAD DUP2 LT PUSH2 0x1237 JUMPI PUSH2 0x1236 PUSH2 0x3DE4 JUMP JUMPDEST JUMPDEST SWAP1 PUSH0 MSTORE PUSH1 0x20 PUSH0 KECCAK256 SWAP1 PUSH1 0x6 MUL ADD PUSH1 0x3 ADD SLOAD LT ISZERO DUP1 ISZERO PUSH2 0x1278 JUMPI POP DUP11 PUSH1 0x2 DUP3 DUP2 SLOAD DUP2 LT PUSH2 0x1265 JUMPI PUSH2 0x1264 PUSH2 0x3DE4 JUMP JUMPDEST JUMPDEST SWAP1 PUSH0 MSTORE PUSH1 0x20 PUSH0 KECCAK256 SWAP1 PUSH1 0x6 MUL ADD PUSH1 0x3 ADD SLOAD GT ISZERO JUMPDEST ISZERO PUSH2 0x147D JUMPI DUP10 DUP4 LT PUSH2 0x146E JUMPI PUSH1 0x2 DUP2 DUP2 SLOAD DUP2 LT PUSH2 0x1298 JUMPI PUSH2 0x1297 PUSH2 0x3DE4 JUMP JUMPDEST JUMPDEST SWAP1 PUSH0 MSTORE PUSH1 0x20 PUSH0 KECCAK256 SWAP1 PUSH1 0x6 MUL ADD PUSH1 0x40 MLOAD DUP1 PUSH1 0xC0 ADD PUSH1 0x40 MSTORE SWAP1 DUP2 PUSH0 DUP3 ADD PUSH0 SWAP1 SLOAD SWAP1 PUSH2 0x100 EXP SWAP1 DIV PUSH20 0xFFFFFFFFFFFFFFFFFFFFFFFFFFFFFFFFFFFFFFFF AND PUSH20 0xFFFFFFFFFFFFFFFFFFFFFFFFFFFFFFFFFFFFFFFF AND PUSH20 0xFFFFFFFFFFFFFFFFFFFFFFFFFFFFFFFFFFFFFFFF AND DUP2 MSTORE PUSH1 0x20 ADD PUSH1 0x1 DUP3 ADD DUP1 SLOAD PUSH2 0x1313 SWAP1 PUSH2 0x3E3E JUMP JUMPDEST DUP1 PUSH1 0x1F ADD PUSH1 0x20 DUP1 SWAP2 DIV MUL PUSH1 0x20 ADD PUSH1 0x40 MLOAD SWAP1 DUP2 ADD PUSH1 0x40 MSTORE DUP1 SWAP3 SWAP2 SWAP1 DUP2 DUP2 MSTORE PUSH1 0x20 ADD DUP3 DUP1 SLOAD PUSH2 0x133F SWAP1 PUSH2 0x3E3E JUMP JUMPDEST DUP1 ISZERO PUSH2 0x138A JUMPI DUP1 PUSH1 0x1F LT PUSH2 0x1361 JUMPI PUSH2 0x100 DUP1 DUP4 SLOAD DIV MUL DUP4 MSTORE SWAP2 PUSH1 0x20 ADD SWAP2 PUSH2 0x138A JUMP JUMPDEST DUP3 ADD SWAP2 SWAP1 PUSH0 MSTORE PUSH1 0x20 PUSH0 KECCAK256 SWAP1 JUMPDEST DUP2 SLOAD DUP2 MSTORE SWAP1 PUSH1 0x1 ADD SWAP1 PUSH1 0x20 ADD DUP1 DUP4 GT PUSH2 0x136D JUMPI DUP3 SWAP1 SUB PUSH1 0x1F AND DUP3 ADD SWAP2 JUMPDEST POP POP POP POP POP DUP2 MSTORE PUSH1 0x20 ADD PUSH1 0x2 DUP3 ADD DUP1 SLOAD PUSH2 0x13A3 SWAP1 PUSH2 0x3E3E JUMP JUMPDEST DUP1 PUSH1 0x1F ADD PUSH1 0x20 DUP1 SWAP2 DIV MUL PUSH1 0x20 ADD PUSH1 0x40 MLOAD SWAP1 DUP2 ADD PUSH1 0x40 MSTORE DUP1 SWAP3 SWAP2 SWAP1 DUP2 DUP2 MSTORE PUSH1 0x20 ADD DUP3 DUP1 SLOAD PUSH2 0x13CF SWAP1 PUSH2 0x3E3E JUMP JUMPDEST DUP1 ISZERO PUSH2 0x141A JUMPI DUP1 PUSH1 0x1F LT PUSH2 0x13F1 JUMPI PUSH2 0x100 DUP1 DUP4 SLOAD DIV MUL DUP4 MSTORE SWAP2 PUSH1 0x20 ADD SWAP2 PUSH2 0x141A JUMP JUMPDEST DUP3 ADD SWAP2 SWAP1 PUSH0 MSTORE PUSH1 0x20 PUSH0 KECCAK256 SWAP1 JUMPDEST DUP2 SLOAD DUP2 MSTORE SWAP1 PUSH1 0x1 ADD SWAP1 PUSH1 0x20 ADD DUP1 DUP4 GT PUSH2 0x13FD JUMPI DUP3 SWAP1 SUB PUSH1 0x1F AND DUP3 ADD SWAP2 JUMPDEST POP POP POP POP POP DUP2 MSTORE PUSH1 0x20 ADD PUSH1 0x3 DUP3 ADD SLOAD DUP2 MSTORE PUSH1 0x20 ADD PUSH1 0x4 DUP3 ADD SLOAD DUP2 MSTORE PUSH1 0x20 ADD PUSH1 0x5 DUP3 ADD SLOAD DUP2 MSTORE POP POP DUP9 DUP4 DUP2 MLOAD DUP2 LT PUSH2 0x1454 JUMPI PUSH2 0x1453 PUSH2 0x3DE4 JUMP JUMPDEST JUMPDEST PUSH1 0x20 MUL PUSH1 0x20 ADD ADD DUP2 SWAP1 MSTORE POP DUP2 DUP1 PUSH2 0x146A SWAP1 PUSH2 0x3E9B JUMP JUMPDEST SWAP3 POP POP JUMPDEST DUP3 DUP1 PUSH2 0x1479 SWAP1 PUSH2 0x3E9B JUMP JUMPDEST SWAP4 POP POP JUMPDEST DUP1 DUP1 PUSH2 0x1488 SWAP1 PUSH2 0x3E9B JUMP JUMPDEST SWAP2 POP POP PUSH2 0x120A JUMP JUMPDEST POP POP POP POP POP POP SWAP5 POP SWAP5 SWAP3 POP POP POP JUMP JUMPDEST PUSH1 0x60 PUSH1 0x4 DUP3 PUSH1 0x40 MLOAD PUSH2 0x14B1 SWAP2 SWAP1 PUSH2 0x3F1C JUMP JUMPDEST SWAP1 DUP2 MSTORE PUSH1 0x20 ADD PUSH1 0x40 MLOAD DUP1 SWAP2 SUB SWAP1 KECCAK256 DUP1 SLOAD DUP1 PUSH1 0x20 MUL PUSH1 0x20 ADD PUSH1 0x40 MLOAD SWAP1 DUP2 ADD PUSH1 0x40 MSTORE DUP1 SWAP3 SWAP2 SWAP1 DUP2 DUP2 MSTORE PUSH1 0x20 ADD DUP3 DUP1 SLOAD DUP1 ISZERO PUSH2 0x1507 JUMPI PUSH1 0x20 MUL DUP3 ADD SWAP2 SWAP1 PUSH0 MSTORE PUSH1 0x20 PUSH0 KECCAK256 SWAP1 JUMPDEST DUP2 SLOAD DUP2 MSTORE PUSH1 0x20 ADD SWAP1 PUSH1 0x1 ADD SWAP1 DUP1 DUP4 GT PUSH2 0x14F3 JUMPI JUMPDEST POP POP POP POP POP SWAP1 POP SWAP2 SWAP1 POP JUMP JUMPDEST PUSH2 0x151C DUP3 PUSH2 0x1077 JUMP JUMPDEST PUSH2 0x1525 DUP2 PUSH2 0x2F08 JUMP JUMPDEST PUSH2 0x152F DUP4 DUP4 PUSH2 0x2F1C JUMP JUMPDEST POP POP POP POP JUMP JUMPDEST PUSH2 0x153D PUSH2 0x3005 JUMP JUMPDEST PUSH20 0xFFFFFFFFFFFFFFFFFFFFFFFFFFFFFFFFFFFFFFFF AND DUP2 PUSH20 0xFFFFFFFFFFFFFFFFFFFFFFFFFFFFFFFFFFFFFFFF AND EQ PUSH2 0x15A1 JUMPI PUSH1 0x40 MLOAD PUSH32 0x6697B23200000000000000000000000000000000000000000000000000000000 DUP2 MSTORE PUSH1 0x4 ADD PUSH1 0x40 MLOAD DUP1 SWAP2 SUB SWAP1 REVERT JUMPDEST PUSH2 0x15AB DUP3 DUP3 PUSH2 0x300C JUMP JUMPDEST POP POP POP JUMP JUMPDEST PUSH0 PUSH1 0x3 PUSH0 DUP4 PUSH20 0xFFFFFFFFFFFFFFFFFFFFFFFFFFFFFFFFFFFFFFFF AND PUSH20 0xFFFFFFFFFFFFFFFFFFFFFFFFFFFFFFFFFFFFFFFF AND DUP2 MSTORE PUSH1 0x20 ADD SWAP1 DUP2 MSTORE PUSH1 0x20 ADD PUSH0 KECCAK256 DUP1 SLOAD SWAP1 POP SWAP1 POP SWAP2 SWAP1 POP JUMP JUMPDEST PUSH0 PUSH1 0x5 PUSH0 DUP4 DUP2 MSTORE PUSH1 0x20 ADD SWAP1 DUP2 MSTORE PUSH1 0x20 ADD PUSH0 KECCAK256 DUP1 SLOAD SWAP1 POP SWAP1 POP SWAP2 SWAP1 POP JUMP JUMPDEST PUSH1 0x1 PUSH0 SWAP1 SLOAD SWAP1 PUSH2 0x100 EXP SWAP1 DIV PUSH20 0xFFFFFFFFFFFFFFFFFFFFFFFFFFFFFFFFFFFFFFFF AND PUSH20 0xFFFFFFFFFFFFFFFFFFFFFFFFFFFFFFFFFFFFFFFF AND CALLER PUSH20 0xFFFFFFFFFFFFFFFFFFFFFFFFFFFFFFFFFFFFFFFF AND EQ DUP1 PUSH2 0x1728 JUMPI POP PUSH1 0x1 PUSH0 SWAP1 SLOAD SWAP1 PUSH2 0x100 EXP SWAP1 DIV PUSH20 0xFFFFFFFFFFFFFFFFFFFFFFFFFFFFFFFFFFFFFFFF AND PUSH20 0xFFFFFFFFFFFFFFFFFFFFFFFFFFFFFFFFFFFFFFFF AND PUSH4 0x91D14854 PUSH32 0xA49807205CE4D355092EF5A8A18F56E8913CF4A201FBE287825B095693C21775 CALLER PUSH1 0x40 MLOAD DUP4 PUSH4 0xFFFFFFFF AND PUSH1 0xE0 SHL DUP2 MSTORE PUSH1 0x4 ADD PUSH2 0x16E8 SWAP3 SWAP2 SWAP1 PUSH2 0x3FCD JUMP JUMPDEST PUSH1 0x20 PUSH1 0x40 MLOAD DUP1 DUP4 SUB DUP2 DUP7 GAS STATICCALL ISZERO DUP1 ISZERO PUSH2 0x1703 JUMPI RETURNDATASIZE PUSH0 PUSH0 RETURNDATACOPY RETURNDATASIZE PUSH0 REVERT JUMPDEST POP POP POP POP PUSH1 0x40 MLOAD RETURNDATASIZE PUSH1 0x1F NOT PUSH1 0x1F DUP3 ADD AND DUP3 ADD DUP1 PUSH1 0x40 MSTORE POP DUP2 ADD SWAP1 PUSH2 0x1727 SWAP2 SWAP1 PUSH2 0x401E JUMP JUMPDEST JUMPDEST PUSH2 0x1767 JUMPI PUSH1 0x40 MLOAD PUSH32 0x8C379A000000000000000000000000000000000000000000000000000000000 DUP2 MSTORE PUSH1 0x4 ADD PUSH2 0x175E SWAP1 PUSH2 0x4093 JUMP JUMPDEST PUSH1 0x40 MLOAD DUP1 SWAP2 SUB SWAP1 REVERT JUMPDEST PUSH0 PUSH1 0x2 DUP1 SLOAD SWAP1 POP SWAP1 POP PUSH0 PUSH3 0x15180 TIMESTAMP PUSH2 0x1780 SWAP2 SWAP1 PUSH2 0x40DE JUMP JUMPDEST SWAP1 POP PUSH0 PUSH1 0x40 MLOAD DUP1 PUSH1 0xC0 ADD PUSH1 0x40 MSTORE DUP1 DUP8 PUSH20 0xFFFFFFFFFFFFFFFFFFFFFFFFFFFFFFFFFFFFFFFF AND DUP2 MSTORE PUSH1 0x20 ADD DUP7 DUP2 MSTORE PUSH1 0x20 ADD DUP6 DUP2 MSTORE PUSH1 0x20 ADD TIMESTAMP DUP2 MSTORE PUSH1 0x20 ADD NUMBER DUP2 MSTORE PUSH1 0x20 ADD PUSH1 0x1 NUMBER PUSH2 0x17CF SWAP2 SWAP1 PUSH2 0x3F32 JUMP JUMPDEST BLOCKHASH DUP2 MSTORE POP SWAP1 POP PUSH1 0x2 DUP2 SWAP1 DUP1 PUSH1 0x1 DUP2 SLOAD ADD DUP1 DUP3 SSTORE DUP1 SWAP2 POP POP PUSH1 0x1 SWAP1 SUB SWAP1 PUSH0 MSTORE PUSH1 0x20 PUSH0 KECCAK256 SWAP1 PUSH1 0x6 MUL ADD PUSH0 SWAP1 SWAP2 SWAP1 SWAP2 SWAP1 SWAP2 POP PUSH0 DUP3 ADD MLOAD DUP2 PUSH0 ADD PUSH0 PUSH2 0x100 EXP DUP2 SLOAD DUP2 PUSH20 0xFFFFFFFFFFFFFFFFFFFFFFFFFFFFFFFFFFFFFFFF MUL NOT AND SWAP1 DUP4 PUSH20 0xFFFFFFFFFFFFFFFFFFFFFFFFFFFFFFFFFFFFFFFF AND MUL OR SWAP1 SSTORE POP PUSH1 0x20 DUP3 ADD MLOAD DUP2 PUSH1 0x1 ADD SWAP1 DUP2 PUSH2 0x1857 SWAP2 SWAP1 PUSH2 0x42AE JUMP JUMPDEST POP PUSH1 0x40 DUP3 ADD MLOAD DUP2 PUSH1 0x2 ADD SWAP1 DUP2 PUSH2 0x186D SWAP2 SWAP1 PUSH2 0x43D5 JUMP JUMPDEST POP PUSH1 0x60 DUP3 ADD MLOAD DUP2 PUSH1 0x3 ADD SSTORE PUSH1 0x80 DUP3 ADD MLOAD DUP2 PUSH1 0x4 ADD SSTORE PUSH1 0xA0 DUP3 ADD MLOAD DUP2 PUSH1 0x5 ADD SSTORE POP POP PUSH1 0x3 PUSH0 DUP8 PUSH20 0xFFFFFFFFFFFFFFFFFFFFFFFFFFFFFFFFFFFFFFFF AND PUSH20 0xFFFFFFFFFFFFFFFFFFFFFFFFFFFFFFFFFFFFFFFF AND DUP2 MSTORE PUSH1 0x20 ADD SWAP1 DUP2 MSTORE PUSH1 0x20 ADD PUSH0 KECCAK256 DUP4 SWAP1 DUP1 PUSH1 0x1 DUP2 SLOAD ADD DUP1 DUP3 SSTORE DUP1 SWAP2 POP POP PUSH1 0x1 SWAP1 SUB SWAP1 PUSH0 MSTORE PUSH1 0x20 PUSH0 KECCAK256 ADD PUSH0 SWAP1 SWAP2 SWAP1 SWAP2 SWAP1 SWAP2 POP SSTORE PUSH1 0x4 DUP6 PUSH1 0x40 MLOAD PUSH2 0x18FF SWAP2 SWAP1 PUSH2 0x3F1C JUMP JUMPDEST SWAP1 DUP2 MSTORE PUSH1 0x20 ADD PUSH1 0x40 MLOAD DUP1 SWAP2 SUB SWAP1 KECCAK256 DUP4 SWAP1 DUP1 PUSH1 0x1 DUP2 SLOAD ADD DUP1 DUP3 SSTORE DUP1 SWAP2 POP POP PUSH1 0x1 SWAP1 SUB SWAP1 PUSH0 MSTORE PUSH1 0x20 PUSH0 KECCAK256 ADD PUSH0 SWAP1 SWAP2 SWAP1 SWAP2 SWAP1 SWAP2 POP SSTORE PUSH1 0x5 PUSH0 DUP4 DUP2 MSTORE PUSH1 0x20 ADD SWAP1 DUP2 MSTORE PUSH1 0x20 ADD PUSH0 KECCAK256 DUP4 SWAP1 DUP1 PUSH1 0x1 DUP2 SLOAD ADD DUP1 DUP3 SSTORE DUP1 SWAP2 POP POP PUSH1 0x1 SWAP1 SUB SWAP1 PUSH0 MSTORE PUSH1 0x20 PUSH0 KECCAK256 ADD PUSH0 SWAP1 SWAP2 SWAP1 SWAP2 SWAP1 SWAP2 POP SSTORE DUP5 PUSH1 0x40 MLOAD PUSH2 0x1974 SWAP2 SWAP1 PUSH2 0x3F1C JUMP JUMPDEST PUSH1 0x40 MLOAD DUP1 SWAP2 SUB SWAP1 KECCAK256 DUP7 PUSH20 0xFFFFFFFFFFFFFFFFFFFFFFFFFFFFFFFFFFFFFFFF AND PUSH32 0x2BD016DCA1398209E4E532A5C95AF48B682C5ED098C20EB0EC41E4B3AC420724 TIMESTAMP DUP7 PUSH1 0x40 MLOAD PUSH2 0x19C4 SWAP3 SWAP2 SWAP1 PUSH2 0x44A4 JUMP JUMPDEST PUSH1 0x40 MLOAD DUP1 SWAP2 SUB SWAP1 LOG3 POP POP POP POP POP POP JUMP JUMPDEST PUSH1 0x60 PUSH1 0x3 PUSH0 DUP4 PUSH20 0xFFFFFFFFFFFFFFFFFFFFFFFFFFFFFFFFFFFFFFFF AND PUSH20 0xFFFFFFFFFFFFFFFFFFFFFFFFFFFFFFFFFFFFFFFF AND DUP2 MSTORE PUSH1 0x20 ADD SWAP1 DUP2 MSTORE PUSH1 0x20 ADD PUSH0 KECCAK256 DUP1 SLOAD DUP1 PUSH1 0x20 MUL PUSH1 0x20 ADD PUSH1 0x40 MLOAD SWAP1 DUP2 ADD PUSH1 0x40 MSTORE DUP1 SWAP3 SWAP2 SWAP1 DUP2 DUP2 MSTORE PUSH1 0x20 ADD DUP3 DUP1 SLOAD DUP1 ISZERO PUSH2 0x1A5B JUMPI PUSH1 0x20 MUL DUP3 ADD SWAP2 SWAP1 PUSH0 MSTORE PUSH1 0x20 PUSH0 KECCAK256 SWAP1 JUMPDEST DUP2 SLOAD DUP2 MSTORE PUSH1 0x20 ADD SWAP1 PUSH1 0x1 ADD SWAP1 DUP1 DUP4 GT PUSH2 0x1A47 JUMPI JUMPDEST POP POP POP POP POP SWAP1 POP SWAP2 SWAP1 POP JUMP JUMPDEST PUSH0 PUSH1 0x4 DUP3 PUSH1 0x40 MLOAD PUSH2 0x1A78 SWAP2 SWAP1 PUSH2 0x3F1C JUMP JUMPDEST SWAP1 DUP2 MSTORE PUSH1 0x20 ADD PUSH1 0x40 MLOAD DUP1 SWAP2 SUB SWAP1 KECCAK256 DUP1 SLOAD SWAP1 POP SWAP1 POP SWAP2 SWAP1 POP JUMP JUMPDEST PUSH32 0xA49807205CE4D355092EF5A8A18F56E8913CF4A201FBE287825B095693C21775 DUP2 JUMP JUMPDEST PUSH0 PUSH0 PUSH0 DUP5 DUP2 MSTORE PUSH1 0x20 ADD SWAP1 DUP2 MSTORE PUSH1 0x20 ADD PUSH0 KECCAK256 PUSH0 ADD PUSH0 DUP4 PUSH20 0xFFFFFFFFFFFFFFFFFFFFFFFFFFFFFFFFFFFFFFFF AND PUSH20 0xFFFFFFFFFFFFFFFFFFFFFFFFFFFFFFFFFFFFFFFF AND DUP2 MSTORE PUSH1 0x20 ADD SWAP1 DUP2 MSTORE PUSH1 0x20 ADD PUSH0 KECCAK256 PUSH0 SWAP1 SLOAD SWAP1 PUSH2 0x100 EXP SWAP1 DIV PUSH1 0xFF AND SWAP1 POP SWAP3 SWAP2 POP POP JUMP JUMPDEST PUSH1 0x1 PUSH0 SWAP1 SLOAD SWAP1 PUSH2 0x100 EXP SWAP1 DIV PUSH20 0xFFFFFFFFFFFFFFFFFFFFFFFFFFFFFFFFFFFFFFFF AND DUP2 JUMP JUMPDEST PUSH0 PUSH0 SHL DUP2 JUMP JUMPDEST PUSH1 0x5 PUSH1 0x20 MSTORE DUP2 PUSH0 MSTORE PUSH1 0x40 PUSH0 KECCAK256 DUP2 DUP2 SLOAD DUP2 LT PUSH2 0x1B5C JUMPI PUSH0 DUP1 REVERT JUMPDEST SWAP1 PUSH0 MSTORE PUSH1 0x20 PUSH0 KECCAK256 ADD PUSH0 SWAP2 POP SWAP2 POP POP SLOAD DUP2 JUMP JUMPDEST PUSH1 0x60 DUP2 DUP4 GT ISZERO PUSH2 0x1BB3 JUMPI PUSH1 0x40 MLOAD PUSH32 0x8C379A000000000000000000000000000000000000000000000000000000000 DUP2 MSTORE PUSH1 0x4 ADD PUSH2 0x1BAA SWAP1 PUSH2 0x4515 JUMP JUMPDEST PUSH1 0x40 MLOAD DUP1 SWAP2 SUB SWAP1 REVERT JUMPDEST PUSH0 PUSH0 SWAP1 POP PUSH0 PUSH0 SWAP1 POP JUMPDEST PUSH1 0x2 DUP1 SLOAD SWAP1 POP DUP2 LT ISZERO PUSH2 0x1C40 JUMPI DUP5 PUSH1 0x2 DUP3 DUP2 SLOAD DUP2 LT PUSH2 0x1BDE JUMPI PUSH2 0x1BDD PUSH2 0x3DE4 JUMP JUMPDEST JUMPDEST SWAP1 PUSH0 MSTORE PUSH1 0x20 PUSH0 KECCAK256 SWAP1 PUSH1 0x6 MUL ADD PUSH1 0x3 ADD SLOAD LT ISZERO DUP1 ISZERO PUSH2 0x1C1F JUMPI POP DUP4 PUSH1 0x2 DUP3 DUP2 SLOAD DUP2 LT PUSH2 0x1C0C JUMPI PUSH2 0x1C0B PUSH2 0x3DE4 JUMP JUMPDEST JUMPDEST SWAP1 PUSH0 MSTORE PUSH1 0x20 PUSH0 KECCAK256 SWAP1 PUSH1 0x6 MUL ADD PUSH1 0x3 ADD SLOAD GT ISZERO JUMPDEST ISZERO PUSH2 0x1C33 JUMPI DUP2 DUP1 PUSH2 0x1C2F SWAP1 PUSH2 0x3E9B JUMP JUMPDEST SWAP3 POP POP JUMPDEST DUP1 DUP1 PUSH1 0x1 ADD SWAP2 POP POP PUSH2 0x1BBC JUMP JUMPDEST POP DUP1 PUSH8 0xFFFFFFFFFFFFFFFF DUP2 GT ISZERO PUSH2 0x1C5B JUMPI PUSH2 0x1C5A PUSH2 0x32C4 JUMP JUMPDEST JUMPDEST PUSH1 0x40 MLOAD SWAP1 DUP1 DUP3 MSTORE DUP1 PUSH1 0x20 MUL PUSH1 0x20 ADD DUP3 ADD PUSH1 0x40 MSTORE DUP1 ISZERO PUSH2 0x1C94 JUMPI DUP2 PUSH1 0x20 ADD JUMPDEST PUSH2 0x1C81 PUSH2 0x3146 JUMP JUMPDEST DUP2 MSTORE PUSH1 0x20 ADD SWAP1 PUSH1 0x1 SWAP1 SUB SWAP1 DUP2 PUSH2 0x1C79 JUMPI SWAP1 POP JUMPDEST POP SWAP2 POP PUSH0 PUSH0 SWAP1 POP PUSH0 PUSH0 SWAP1 POP JUMPDEST PUSH1 0x2 DUP1 SLOAD SWAP1 POP DUP2 LT ISZERO PUSH2 0x1EFF JUMPI DUP6 PUSH1 0x2 DUP3 DUP2 SLOAD DUP2 LT PUSH2 0x1CC2 JUMPI PUSH2 0x1CC1 PUSH2 0x3DE4 JUMP JUMPDEST JUMPDEST SWAP1 PUSH0 MSTORE PUSH1 0x20 PUSH0 KECCAK256 SWAP1 PUSH1 0x6 MUL ADD PUSH1 0x3 ADD SLOAD LT ISZERO DUP1 ISZERO PUSH2 0x1D03 JUMPI POP DUP5 PUSH1 0x2 DUP3 DUP2 SLOAD DUP2 LT PUSH2 0x1CF0 JUMPI PUSH2 0x1CEF PUSH2 0x3DE4 JUMP JUMPDEST JUMPDEST SWAP1 PUSH0 MSTORE PUSH1 0x20 PUSH0 KECCAK256 SWAP1 PUSH1 0x6 MUL ADD PUSH1 0x3 ADD SLOAD GT ISZERO JUMPDEST ISZERO PUSH2 0x1EF2 JUMPI PUSH1 0x2 DUP2 DUP2 SLOAD DUP2 LT PUSH2 0x1D1C JUMPI PUSH2 0x1D1B PUSH2 0x3DE4 JUMP JUMPDEST JUMPDEST SWAP1 PUSH0 MSTORE PUSH1 0x20 PUSH0 KECCAK256 SWAP1 PUSH1 0x6 MUL ADD PUSH1 0x40 MLOAD DUP1 PUSH1 0xC0 ADD PUSH1 0x40 MSTORE SWAP1 DUP2 PUSH0 DUP3 ADD PUSH0 SWAP1 SLOAD SWAP1 PUSH2 0x100 EXP SWAP1 DIV PUSH20 0xFFFFFFFFFFFFFFFFFFFFFFFFFFFFFFFFFFFFFFFF AND PUSH20 0xFFFFFFFFFFFFFFFFFFFFFFFFFFFFFFFFFFFFFFFF AND PUSH20 0xFFFFFFFFFFFFFFFFFFFFFFFFFFFFFFFFFFFFFFFF AND DUP2 MSTORE PUSH1 0x20 ADD PUSH1 0x1 DUP3 ADD DUP1 SLOAD PUSH2 0x1D97 SWAP1 PUSH2 0x3E3E JUMP JUMPDEST DUP1 PUSH1 0x1F ADD PUSH1 0x20 DUP1 SWAP2 DIV MUL PUSH1 0x20 ADD PUSH1 0x40 MLOAD SWAP1 DUP2 ADD PUSH1 0x40 MSTORE DUP1 SWAP3 SWAP2 SWAP1 DUP2 DUP2 MSTORE PUSH1 0x20 ADD DUP3 DUP1 SLOAD PUSH2 0x1DC3 SWAP1 PUSH2 0x3E3E JUMP JUMPDEST DUP1 ISZERO PUSH2 0x1E0E JUMPI DUP1 PUSH1 0x1F LT PUSH2 0x1DE5 JUMPI PUSH2 0x100 DUP1 DUP4 SLOAD DIV MUL DUP4 MSTORE SWAP2 PUSH1 0x20 ADD SWAP2 PUSH2 0x1E0E JUMP JUMPDEST DUP3 ADD SWAP2 SWAP1 PUSH0 MSTORE PUSH1 0x20 PUSH0 KECCAK256 SWAP1 JUMPDEST DUP2 SLOAD DUP2 MSTORE SWAP1 PUSH1 0x1 ADD SWAP1 PUSH1 0x20 ADD DUP1 DUP4 GT PUSH2 0x1DF1 JUMPI DUP3 SWAP1 SUB PUSH1 0x1F AND DUP3 ADD SWAP2 JUMPDEST POP POP POP POP POP DUP2 MSTORE PUSH1 0x20 ADD PUSH1 0x2 DUP3 ADD DUP1 SLOAD PUSH2 0x1E27 SWAP1 PUSH2 0x3E3E JUMP JUMPDEST DUP1 PUSH1 0x1F ADD PUSH1 0x20 DUP1 SWAP2 DIV MUL PUSH1 0x20 ADD PUSH1 0x40 MLOAD SWAP1 DUP2 ADD PUSH1 0x40 MSTORE DUP1 SWAP3 SWAP2 SWAP1 DUP2 DUP2 MSTORE PUSH1 0x20 ADD DUP3 DUP1 SLOAD PUSH2 0x1E53 SWAP1 PUSH2 0x3E3E JUMP JUMPDEST DUP1 ISZERO PUSH2 0x1E9E JUMPI DUP1 PUSH1 0x1F LT PUSH2 0x1E75 JUMPI PUSH2 0x100 DUP1 DUP4 SLOAD DIV MUL DUP4 MSTORE SWAP2 PUSH1 0x20 ADD SWAP2 PUSH2 0x1E9E JUMP JUMPDEST DUP3 ADD SWAP2 SWAP1 PUSH0 MSTORE PUSH1 0x20 PUSH0 KECCAK256 SWAP1 JUMPDEST DUP2 SLOAD DUP2 MSTORE SWAP1 PUSH1 0x1 ADD SWAP1 PUSH1 0x20 ADD DUP1 DUP4 GT PUSH2 0x1E81 JUMPI DUP3 SWAP1 SUB PUSH1 0x1F AND DUP3 ADD SWAP2 JUMPDEST POP POP POP POP POP DUP2 MSTORE PUSH1 0x20 ADD PUSH1 0x3 DUP3 ADD SLOAD DUP2 MSTORE PUSH1 0x20 ADD PUSH1 0x4 DUP3 ADD SLOAD DUP2 MSTORE PUSH1 0x20 ADD PUSH1 0x5 DUP3 ADD SLOAD DUP2 MSTORE POP POP DUP5 DUP4 DUP2 MLOAD DUP2 LT PUSH2 0x1ED8 JUMPI PUSH2 0x1ED7 PUSH2 0x3DE4 JUMP JUMPDEST JUMPDEST PUSH1 0x20 MUL PUSH1 0x20 ADD ADD DUP2 SWAP1 MSTORE POP DUP2 DUP1 PUSH2 0x1EEE SWAP1 PUSH2 0x3E9B JUMP JUMPDEST SWAP3 POP POP JUMPDEST DUP1 DUP1 PUSH1 0x1 ADD SWAP2 POP POP PUSH2 0x1CA0 JUMP JUMPDEST POP POP POP SWAP3 SWAP2 POP POP JUMP JUMPDEST PUSH0 PUSH0 PUSH0 PUSH0 PUSH0 PUSH0 SWAP5 POP PUSH0 SWAP4 POP PUSH0 SWAP3 POP PUSH0 SWAP2 POP PUSH0 SWAP1 POP PUSH0 PUSH1 0x2 DUP1 SLOAD SWAP1 POP PUSH8 0xFFFFFFFFFFFFFFFF DUP2 GT ISZERO PUSH2 0x1F3C JUMPI PUSH2 0x1F3B PUSH2 0x32C4 JUMP JUMPDEST JUMPDEST PUSH1 0x40 MLOAD SWAP1 DUP1 DUP3 MSTORE DUP1 PUSH1 0x20 MUL PUSH1 0x20 ADD DUP3 ADD PUSH1 0x40 MSTORE DUP1 ISZERO PUSH2 0x1F6A JUMPI DUP2 PUSH1 0x20 ADD PUSH1 0x20 DUP3 MUL DUP1 CALLDATASIZE DUP4 CALLDATACOPY DUP1 DUP3 ADD SWAP2 POP POP SWAP1 POP JUMPDEST POP SWAP1 POP PUSH0 PUSH0 SWAP1 POP JUMPDEST PUSH1 0x2 DUP1 SLOAD SWAP1 POP DUP2 LT ISZERO PUSH2 0x2413 JUMPI PUSH0 PUSH1 0x2 DUP3 DUP2 SLOAD DUP2 LT PUSH2 0x1F94 JUMPI PUSH2 0x1F93 PUSH2 0x3DE4 JUMP JUMPDEST JUMPDEST SWAP1 PUSH0 MSTORE PUSH1 0x20 PUSH0 KECCAK256 SWAP1 PUSH1 0x6 MUL ADD PUSH1 0x40 MLOAD DUP1 PUSH1 0xC0 ADD PUSH1 0x40 MSTORE SWAP1 DUP2 PUSH0 DUP3 ADD PUSH0 SWAP1 SLOAD SWAP1 PUSH2 0x100 EXP SWAP1 DIV PUSH20 0xFFFFFFFFFFFFFFFFFFFFFFFFFFFFFFFFFFFFFFFF AND PUSH20 0xFFFFFFFFFFFFFFFFFFFFFFFFFFFFFFFFFFFFFFFF AND PUSH20 0xFFFFFFFFFFFFFFFFFFFFFFFFFFFFFFFFFFFFFFFF AND DUP2 MSTORE PUSH1 0x20 ADD PUSH1 0x1 DUP3 ADD DUP1 SLOAD PUSH2 0x200F SWAP1 PUSH2 0x3E3E JUMP JUMPDEST DUP1 PUSH1 0x1F ADD PUSH1 0x20 DUP1 SWAP2 DIV MUL PUSH1 0x20 ADD PUSH1 0x40 MLOAD SWAP1 DUP2 ADD PUSH1 0x40 MSTORE DUP1 SWAP3 SWAP2 SWAP1 DUP2 DUP2 MSTORE PUSH1 0x20 ADD DUP3 DUP1 SLOAD PUSH2 0x203B SWAP1 PUSH2 0x3E3E JUMP JUMPDEST DUP1 ISZERO PUSH2 0x2086 JUMPI DUP1 PUSH1 0x1F LT PUSH2 0x205D JUMPI PUSH2 0x100 DUP1 DUP4 SLOAD DIV MUL DUP4 MSTORE SWAP2 PUSH1 0x20 ADD SWAP2 PUSH2 0x2086 JUMP JUMPDEST DUP3 ADD SWAP2 SWAP1 PUSH0 MSTORE PUSH1 0x20 PUSH0 KECCAK256 SWAP1 JUMPDEST DUP2 SLOAD DUP2 MSTORE SWAP1 PUSH1 0x1 ADD SWAP1 PUSH1 0x20 ADD DUP1 DUP4 GT PUSH2 0x2069 JUMPI DUP3 SWAP1 SUB PUSH1 0x1F AND DUP3 ADD SWAP2 JUMPDEST POP POP POP POP POP DUP2 MSTORE PUSH1 0x20 ADD PUSH1 0x2 DUP3 ADD DUP1 SLOAD PUSH2 0x209F SWAP1 PUSH2 0x3E3E JUMP JUMPDEST DUP1 PUSH1 0x1F ADD PUSH1 0x20 DUP1 SWAP2 DIV MUL PUSH1 0x20 ADD PUSH1 0x40 MLOAD SWAP1 DUP2 ADD PUSH1 0x40 MSTORE DUP1 SWAP3 SWAP2 SWAP1 DUP2 DUP2 MSTORE PUSH1 0x20 ADD DUP3 DUP1 SLOAD PUSH2 0x20CB SWAP1 PUSH2 0x3E3E JUMP JUMPDEST DUP1 ISZERO PUSH2 0x2116 JUMPI DUP1 PUSH1 0x1F LT PUSH2 0x20ED JUMPI PUSH2 0x100 DUP1 DUP4 SLOAD DIV MUL DUP4 MSTORE SWAP2 PUSH1 0x20 ADD SWAP2 PUSH2 0x2116 JUMP JUMPDEST DUP3 ADD SWAP2 SWAP1 PUSH0 MSTORE PUSH1 0x20 PUSH0 KECCAK256 SWAP1 JUMPDEST DUP2 SLOAD DUP2 MSTORE SWAP1 PUSH1 0x1 ADD SWAP1 PUSH1 0x20 ADD DUP1 DUP4 GT PUSH2 0x20F9 JUMPI DUP3 SWAP1 SUB PUSH1 0x1F AND DUP3 ADD SWAP2 JUMPDEST POP POP POP POP POP DUP2 MSTORE PUSH1 0x20 ADD PUSH1 0x3 DUP3 ADD SLOAD DUP2 MSTORE PUSH1 0x20 ADD PUSH1 0x4 DUP3 ADD SLOAD DUP2 MSTORE PUSH1 0x20 ADD PUSH1 0x5 DUP3 ADD SLOAD DUP2 MSTORE POP POP SWAP1 POP DUP10 DUP2 PUSH1 0x60 ADD MLOAD LT ISZERO DUP1 ISZERO PUSH2 0x2157 JUMPI POP DUP9 DUP2 PUSH1 0x60 ADD MLOAD GT ISZERO JUMPDEST ISZERO PUSH2 0x2405 JUMPI DUP8 DUP1 PUSH2 0x2167 SWAP1 PUSH2 0x3E9B JUMP JUMPDEST SWAP9 POP POP PUSH0 DUP2 PUSH1 0x20 ADD MLOAD DUP1 MLOAD SWAP1 PUSH1 0x20 ADD KECCAK256 SWAP1 POP PUSH32 0x4383EC58706CDBE21052026F52771DBE49D31B19E829FD81C52AD7FCD456CE7A DUP2 EQ DUP1 PUSH2 0x21C6 JUMPI POP PUSH32 0xE7858B8FA3B724C568EC721412E5A66B76EE39CA1029412751E683777FCFCBFA DUP2 EQ JUMPDEST ISZERO PUSH2 0x21DE JUMPI DUP8 DUP1 PUSH2 0x21D6 SWAP1 PUSH2 0x3E9B JUMP JUMPDEST SWAP9 POP POP PUSH2 0x2324 JUMP JUMPDEST PUSH32 0xEFC077A6A603CF81594BE6944A3CADC86D55AD6E8F133BF89CC554E537A9D8C3 DUP2 EQ DUP1 PUSH2 0x222B JUMPI POP PUSH32 0x4D8E17292F3C03DE52C5EDBCEB346240949C93893FA3EF9E282001DADB0AB5A DUP2 EQ JUMPDEST DUP1 PUSH2 0x2255 JUMPI POP PUSH32 0x6FE24903F2359FD645ACABF4506A67AE45F81C788CB80C55C37699CF9A1A8797 DUP2 EQ JUMPDEST ISZERO PUSH2 0x226D JUMPI DUP7 DUP1 PUSH2 0x2265 SWAP1 PUSH2 0x3E9B JUMP JUMPDEST SWAP8 POP POP PUSH2 0x2323 JUMP JUMPDEST PUSH32 0x545760910EF327B12D33293C5A0F4701C83DC633F698DB52BCC975A12AFFF190 DUP2 EQ DUP1 PUSH2 0x22BA JUMPI POP PUSH32 0x86190E9BA3E1A6F52F4C2CB149C10F5CBD68DB5B96CB4CB53EDA392C78F684E2 DUP2 EQ JUMPDEST DUP1 PUSH2 0x22E4 JUMPI POP PUSH32 0x19DAF714879A8D7CE7CF1F321EE5D4641BADDAF542CC56400B31137E85E7F603 DUP2 EQ JUMPDEST DUP1 PUSH2 0x230E JUMPI POP PUSH32 0x5297E68F3A27F04914F2C6DB0AD63B5E5C8173CEBCC1A5341DF045CF6DAD7ADC DUP2 EQ JUMPDEST ISZERO PUSH2 0x2322 JUMPI DUP6 DUP1 PUSH2 0x231E SWAP1 PUSH2 0x3E9B JUMP JUMPDEST SWAP7 POP POP JUMPDEST JUMPDEST JUMPDEST PUSH0 PUSH1 0x1 SWAP1 POP PUSH0 PUSH0 SWAP1 POP JUMPDEST DUP7 DUP2 LT ISZERO PUSH2 0x239B JUMPI DUP4 PUSH0 ADD MLOAD PUSH20 0xFFFFFFFFFFFFFFFFFFFFFFFFFFFFFFFFFFFFFFFF AND DUP7 DUP3 DUP2 MLOAD DUP2 LT PUSH2 0x2363 JUMPI PUSH2 0x2362 PUSH2 0x3DE4 JUMP JUMPDEST JUMPDEST PUSH1 0x20 MUL PUSH1 0x20 ADD ADD MLOAD PUSH20 0xFFFFFFFFFFFFFFFFFFFFFFFFFFFFFFFFFFFFFFFF AND SUB PUSH2 0x238E JUMPI PUSH0 SWAP2 POP PUSH2 0x239B JUMP JUMPDEST DUP1 DUP1 PUSH1 0x1 ADD SWAP2 POP POP PUSH2 0x232E JUMP JUMPDEST POP DUP1 ISZERO PUSH2 0x2402 JUMPI DUP3 PUSH0 ADD MLOAD DUP6 DUP8 DUP2 MLOAD DUP2 LT PUSH2 0x23B9 JUMPI PUSH2 0x23B8 PUSH2 0x3DE4 JUMP JUMPDEST JUMPDEST PUSH1 0x20 MUL PUSH1 0x20 ADD ADD SWAP1 PUSH20 0xFFFFFFFFFFFFFFFFFFFFFFFFFFFFFFFFFFFFFFFF AND SWAP1 DUP2 PUSH20 0xFFFFFFFFFFFFFFFFFFFFFFFFFFFFFFFFFFFFFFFF AND DUP2 MSTORE POP POP DUP6 DUP1 PUSH2 0x23FE SWAP1 PUSH2 0x3E9B JUMP JUMPDEST SWAP7 POP POP JUMPDEST POP POP JUMPDEST POP DUP1 DUP1 PUSH1 0x1 ADD SWAP2 POP POP PUSH2 0x1F72 JUMP JUMPDEST POP POP SWAP3 SWAP6 POP SWAP3 SWAP6 SWAP1 SWAP4 POP JUMP JUMPDEST PUSH1 0x3 PUSH1 0x20 MSTORE DUP2 PUSH0 MSTORE PUSH1 0x40 PUSH0 KECCAK256 DUP2 DUP2 SLOAD DUP2 LT PUSH2 0x2438 JUMPI PUSH0 DUP1 REVERT JUMPDEST SWAP1 PUSH0 MSTORE PUSH1 0x20 PUSH0 KECCAK256 ADD PUSH0 SWAP2 POP SWAP2 POP POP SLOAD DUP2 JUMP JUMPDEST PUSH0 PUSH1 0x2 DUP1 SLOAD SWAP1 POP SWAP1 POP SWAP1 JUMP JUMPDEST PUSH1 0x60 DUP2 DUP4 GT ISZERO PUSH2 0x249B JUMPI PUSH1 0x40 MLOAD PUSH32 0x8C379A000000000000000000000000000000000000000000000000000000000 DUP2 MSTORE PUSH1 0x4 ADD PUSH2 0x2492 SWAP1 PUSH2 0x457D JUMP JUMPDEST PUSH1 0x40 MLOAD DUP1 SWAP2 SUB SWAP1 REVERT JUMPDEST PUSH1 0x2 DUP1 SLOAD SWAP1 POP DUP3 LT PUSH2 0x24E2 JUMPI PUSH1 0x40 MLOAD PUSH32 0x8C379A000000000000000000000000000000000000000000000000000000000 DUP2 MSTORE PUSH1 0x4 ADD PUSH2 0x24D9 SWAP1 PUSH2 0x45E5 JUMP JUMPDEST PUSH1 0x40 MLOAD DUP1 SWAP2 SUB SWAP1 REVERT JUMPDEST PUSH0 PUSH1 0x1 DUP5 DUP5 PUSH2 0x24F1 SWAP2 SWAP1 PUSH2 0x3F32 JUMP JUMPDEST PUSH2 0x24FB SWAP2 SWAP1 PUSH2 0x4603 JUMP JUMPDEST SWAP1 POP DUP1 PUSH8 0xFFFFFFFFFFFFFFFF DUP2 GT ISZERO PUSH2 0x2517 JUMPI PUSH2 0x2516 PUSH2 0x32C4 JUMP JUMPDEST JUMPDEST PUSH1 0x40 MLOAD SWAP1 DUP1 DUP3 MSTORE DUP1 PUSH1 0x20 MUL PUSH1 0x20 ADD DUP3 ADD PUSH1 0x40 MSTORE DUP1 ISZERO PUSH2 0x2550 JUMPI DUP2 PUSH1 0x20 ADD JUMPDEST PUSH2 0x253D PUSH2 0x3146 JUMP JUMPDEST DUP2 MSTORE PUSH1 0x20 ADD SWAP1 PUSH1 0x1 SWAP1 SUB SWAP1 DUP2 PUSH2 0x2535 JUMPI SWAP1 POP JUMPDEST POP SWAP2 POP PUSH0 PUSH0 SWAP1 POP JUMPDEST DUP2 DUP2 LT ISZERO PUSH2 0x2753 JUMPI PUSH1 0x2 DUP2 DUP7 PUSH2 0x256E SWAP2 SWAP1 PUSH2 0x4603 JUMP JUMPDEST DUP2 SLOAD DUP2 LT PUSH2 0x257F JUMPI PUSH2 0x257E PUSH2 0x3DE4 JUMP JUMPDEST JUMPDEST SWAP1 PUSH0 MSTORE PUSH1 0x20 PUSH0 KECCAK256 SWAP1 PUSH1 0x6 MUL ADD PUSH1 0x40 MLOAD DUP1 PUSH1 0xC0 ADD PUSH1 0x40 MSTORE SWAP1 DUP2 PUSH0 DUP3 ADD PUSH0 SWAP1 SLOAD SWAP1 PUSH2 0x100 EXP SWAP1 DIV PUSH20 0xFFFFFFFFFFFFFFFFFFFFFFFFFFFFFFFFFFFFFFFF AND PUSH20 0xFFFFFFFFFFFFFFFFFFFFFFFFFFFFFFFFFFFFFFFF AND PUSH20 0xFFFFFFFFFFFFFFFFFFFFFFFFFFFFFFFFFFFFFFFF AND DUP2 MSTORE PUSH1 0x20 ADD PUSH1 0x1 DUP3 ADD DUP1 SLOAD PUSH2 0x25FA SWAP1 PUSH2 0x3E3E JUMP JUMPDEST DUP1 PUSH1 0x1F ADD PUSH1 0x20 DUP1 SWAP2 DIV MUL PUSH1 0x20 ADD PUSH1 0x40 MLOAD SWAP1 DUP2 ADD PUSH1 0x40 MSTORE DUP1 SWAP3 SWAP2 SWAP1 DUP2 DUP2 MSTORE PUSH1 0x20 ADD DUP3 DUP1 SLOAD PUSH2 0x2626 SWAP1 PUSH2 0x3E3E JUMP JUMPDEST DUP1 ISZERO PUSH2 0x2671 JUMPI DUP1 PUSH1 0x1F LT PUSH2 0x2648 JUMPI PUSH2 0x100 DUP1 DUP4 SLOAD DIV MUL DUP4 MSTORE SWAP2 PUSH1 0x20 ADD SWAP2 PUSH2 0x2671 JUMP JUMPDEST DUP3 ADD SWAP2 SWAP1 PUSH0 MSTORE PUSH1 0x20 PUSH0 KECCAK256 SWAP1 JUMPDEST DUP2 SLOAD DUP2 MSTORE SWAP1 PUSH1 0x1 ADD SWAP1 PUSH1 0x20 ADD DUP1 DUP4 GT PUSH2 0x2654 JUMPI DUP3 SWAP1 SUB PUSH1 0x1F AND DUP3 ADD SWAP2 JUMPDEST POP POP POP POP POP DUP2 MSTORE PUSH1 0x20 ADD PUSH1 0x2 DUP3 ADD DUP1 SLOAD PUSH2 0x268A SWAP1 PUSH2 0x3E3E JUMP JUMPDEST DUP1 PUSH1 0x1F ADD PUSH1 0x20 DUP1 SWAP2 DIV MUL PUSH1 0x20 ADD PUSH1 0x40 MLOAD SWAP1 DUP2 ADD PUSH1 0x40 MSTORE DUP1 SWAP3 SWAP2 SWAP1 DUP2 DUP2 MSTORE PUSH1 0x20 ADD DUP3 DUP1 SLOAD PUSH2 0x26B6 SWAP1 PUSH2 0x3E3E JUMP JUMPDEST DUP1 ISZERO PUSH2 0x2701 JUMPI DUP1 PUSH1 0x1F LT PUSH2 0x26D8 JUMPI PUSH2 0x100 DUP1 DUP4 SLOAD DIV MUL DUP4 MSTORE SWAP2 PUSH1 0x20 ADD SWAP2 PUSH2 0x2701 JUMP JUMPDEST DUP3 ADD SWAP2 SWAP1 PUSH0 MSTORE PUSH1 0x20 PUSH0 KECCAK256 SWAP1 JUMPDEST DUP2 SLOAD DUP2 MSTORE SWAP1 PUSH1 0x1 ADD SWAP1 PUSH1 0x20 ADD DUP1 DUP4 GT PUSH2 0x26E4 JUMPI DUP3 SWAP1 SUB PUSH1 0x1F AND DUP3 ADD SWAP2 JUMPDEST POP POP POP POP POP DUP2 MSTORE PUSH1 0x20 ADD PUSH1 0x3 DUP3 ADD SLOAD DUP2 MSTORE PUSH1 0x20 ADD PUSH1 0x4 DUP3 ADD SLOAD DUP2 MSTORE PUSH1 0x20 ADD PUSH1 0x5 DUP3 ADD SLOAD DUP2 MSTORE POP POP DUP4 DUP3 DUP2 MLOAD DUP2 LT PUSH2 0x273B JUMPI PUSH2 0x273A PUSH2 0x3DE4 JUMP JUMPDEST JUMPDEST PUSH1 0x20 MUL PUSH1 0x20 ADD ADD DUP2 SWAP1 MSTORE POP DUP1 DUP1 PUSH1 0x1 ADD SWAP2 POP POP PUSH2 0x2558 JUMP JUMPDEST POP POP SWAP3 SWAP2 POP POP JUMP JUMPDEST PUSH2 0x2764 DUP3 PUSH2 0x1077 JUMP JUMPDEST PUSH2 0x276D DUP2 PUSH2 0x2F08 JUMP JUMPDEST PUSH2 0x2777 DUP4 DUP4 PUSH2 0x300C JUMP JUMPDEST POP POP POP POP JUMP JUMPDEST PUSH1 0x2 DUP2 DUP2 SLOAD DUP2 LT PUSH2 0x278C JUMPI PUSH0 DUP1 REVERT JUMPDEST SWAP1 PUSH0 MSTORE PUSH1 0x20 PUSH0 KECCAK256 SWAP1 PUSH1 0x6 MUL ADD PUSH0 SWAP2 POP SWAP1 POP DUP1 PUSH0 ADD PUSH0 SWAP1 SLOAD SWAP1 PUSH2 0x100 EXP SWAP1 DIV PUSH20 0xFFFFFFFFFFFFFFFFFFFFFFFFFFFFFFFFFFFFFFFF AND SWAP1 DUP1 PUSH1 0x1 ADD DUP1 SLOAD PUSH2 0x27D0 SWAP1 PUSH2 0x3E3E JUMP JUMPDEST DUP1 PUSH1 0x1F ADD PUSH1 0x20 DUP1 SWAP2 DIV MUL PUSH1 0x20 ADD PUSH1 0x40 MLOAD SWAP1 DUP2 ADD PUSH1 0x40 MSTORE DUP1 SWAP3 SWAP2 SWAP1 DUP2 DUP2 MSTORE PUSH1 0x20 ADD DUP3 DUP1 SLOAD PUSH2 0x27FC SWAP1 PUSH2 0x3E3E JUMP JUMPDEST DUP1 ISZERO PUSH2 0x2847 JUMPI DUP1 PUSH1 0x1F LT PUSH2 0x281E JUMPI PUSH2 0x100 DUP1 DUP4 SLOAD DIV MUL DUP4 MSTORE SWAP2 PUSH1 0x20 ADD SWAP2 PUSH2 0x2847 JUMP JUMPDEST DUP3 ADD SWAP2 SWAP1 PUSH0 MSTORE PUSH1 0x20 PUSH0 KECCAK256 SWAP1 JUMPDEST DUP2 SLOAD DUP2 MSTORE SWAP1 PUSH1 0x1 ADD SWAP1 PUSH1 0x20 ADD DUP1 DUP4 GT PUSH2 0x282A JUMPI DUP3 SWAP1 SUB PUSH1 0x1F AND DUP3 ADD SWAP2 JUMPDEST POP POP POP POP POP SWAP1 DUP1 PUSH1 0x2 ADD DUP1 SLOAD PUSH2 0x285C SWAP1 PUSH2 0x3E3E JUMP JUMPDEST DUP1 PUSH1 0x1F ADD PUSH1 0x20 DUP1 SWAP2 DIV MUL PUSH1 0x20 ADD PUSH1 0x40 MLOAD SWAP1 DUP2 ADD PUSH1 0x40 MSTORE DUP1 SWAP3 SWAP2 SWAP1 DUP2 DUP2 MSTORE PUSH1 0x20 ADD DUP3 DUP1 SLOAD PUSH2 0x2888 SWAP1 PUSH2 0x3E3E JUMP JUMPDEST DUP1 ISZERO PUSH2 0x28D3 JUMPI DUP1 PUSH1 0x1F LT PUSH2 0x28AA JUMPI PUSH2 0x100 DUP1 DUP4 SLOAD DIV MUL DUP4 MSTORE SWAP2 PUSH1 0x20 ADD SWAP2 PUSH2 0x28D3 JUMP JUMPDEST DUP3 ADD SWAP2 SWAP1 PUSH0 MSTORE PUSH1 0x20 PUSH0 KECCAK256 SWAP1 JUMPDEST DUP2 SLOAD DUP2 MSTORE SWAP1 PUSH1 0x1 ADD SWAP1 PUSH1 0x20 ADD DUP1 DUP4 GT PUSH2 0x28B6 JUMPI DUP3 SWAP1 SUB PUSH1 0x1F AND DUP3 ADD SWAP2 JUMPDEST POP POP POP POP POP SWAP1 DUP1 PUSH1 0x3 ADD SLOAD SWAP1 DUP1 PUSH1 0x4 ADD SLOAD SWAP1 DUP1 PUSH1 0x5 ADD SLOAD SWAP1 POP DUP7 JUMP JUMPDEST PUSH2 0x28F7 PUSH2 0x3146 JUMP JUMPDEST PUSH1 0x2 DUP1 SLOAD SWAP1 POP DUP3 LT PUSH2 0x293E JUMPI PUSH1 0x40 MLOAD PUSH32 0x8C379A000000000000000000000000000000000000000000000000000000000 DUP2 MSTORE PUSH1 0x4 ADD PUSH2 0x2935 SWAP1 PUSH2 0x4680 JUMP JUMPDEST PUSH1 0x40 MLOAD DUP1 SWAP2 SUB SWAP1 REVERT JUMPDEST PUSH1 0x2 DUP3 DUP2 SLOAD DUP2 LT PUSH2 0x2952 JUMPI PUSH2 0x2951 PUSH2 0x3DE4 JUMP JUMPDEST JUMPDEST SWAP1 PUSH0 MSTORE PUSH1 0x20 PUSH0 KECCAK256 SWAP1 PUSH1 0x6 MUL ADD PUSH1 0x40 MLOAD DUP1 PUSH1 0xC0 ADD PUSH1 0x40 MSTORE SWAP1 DUP2 PUSH0 DUP3 ADD PUSH0 SWAP1 SLOAD SWAP1 PUSH2 0x100 EXP SWAP1 DIV PUSH20 0xFFFFFFFFFFFFFFFFFFFFFFFFFFFFFFFFFFFFFFFF AND PUSH20 0xFFFFFFFFFFFFFFFFFFFFFFFFFFFFFFFFFFFFFFFF AND PUSH20 0xFFFFFFFFFFFFFFFFFFFFFFFFFFFFFFFFFFFFFFFF AND DUP2 MSTORE PUSH1 0x20 ADD PUSH1 0x1 DUP3 ADD DUP1 SLOAD PUSH2 0x29CD SWAP1 PUSH2 0x3E3E JUMP JUMPDEST DUP1 PUSH1 0x1F ADD PUSH1 0x20 DUP1 SWAP2 DIV MUL PUSH1 0x20 ADD PUSH1 0x40 MLOAD SWAP1 DUP2 ADD PUSH1 0x40 MSTORE DUP1 SWAP3 SWAP2 SWAP1 DUP2 DUP2 MSTORE PUSH1 0x20 ADD DUP3 DUP1 SLOAD PUSH2 0x29F9 SWAP1 PUSH2 0x3E3E JUMP JUMPDEST DUP1 ISZERO PUSH2 0x2A44 JUMPI DUP1 PUSH1 0x1F LT PUSH2 0x2A1B JUMPI PUSH2 0x100 DUP1 DUP4 SLOAD DIV MUL DUP4 MSTORE SWAP2 PUSH1 0x20 ADD SWAP2 PUSH2 0x2A44 JUMP JUMPDEST DUP3 ADD SWAP2 SWAP1 PUSH0 MSTORE PUSH1 0x20 PUSH0 KECCAK256 SWAP1 JUMPDEST DUP2 SLOAD DUP2 MSTORE SWAP1 PUSH1 0x1 ADD SWAP1 PUSH1 0x20 ADD DUP1 DUP4 GT PUSH2 0x2A27 JUMPI DUP3 SWAP1 SUB PUSH1 0x1F AND DUP3 ADD SWAP2 JUMPDEST POP POP POP POP POP DUP2 MSTORE PUSH1 0x20 ADD PUSH1 0x2 DUP3 ADD DUP1 SLOAD PUSH2 0x2A5D SWAP1 PUSH2 0x3E3E JUMP JUMPDEST DUP1 PUSH1 0x1F ADD PUSH1 0x20 DUP1 SWAP2 DIV MUL PUSH1 0x20 ADD PUSH1 0x40 MLOAD SWAP1 DUP2 ADD PUSH1 0x40 MSTORE DUP1 SWAP3 SWAP2 SWAP1 DUP2 DUP2 MSTORE PUSH1 0x20 ADD DUP3 DUP1 SLOAD PUSH2 0x2A89 SWAP1 PUSH2 0x3E3E JUMP JUMPDEST DUP1 ISZERO PUSH2 0x2AD4 JUMPI DUP1 PUSH1 0x1F LT PUSH2 0x2AAB JUMPI PUSH2 0x100 DUP1 DUP4 SLOAD DIV MUL DUP4 MSTORE SWAP2 PUSH1 0x20 ADD SWAP2 PUSH2 0x2AD4 JUMP JUMPDEST DUP3 ADD SWAP2 SWAP1 PUSH0 MSTORE PUSH1 0x20 PUSH0 KECCAK256 SWAP1 JUMPDEST DUP2 SLOAD DUP2 MSTORE SWAP1 PUSH1 0x1 ADD SWAP1 PUSH1 0x20 ADD DUP1 DUP4 GT PUSH2 0x2AB7 JUMPI DUP3 SWAP1 SUB PUSH1 0x1F AND DUP3 ADD SWAP2 JUMPDEST POP POP POP POP POP DUP2 MSTORE PUSH1 0x20 ADD PUSH1 0x3 DUP3 ADD SLOAD DUP2 MSTORE PUSH1 0x20 ADD PUSH1 0x4 DUP3 ADD SLOAD DUP2 MSTORE PUSH1 0x20 ADD PUSH1 0x5 DUP3 ADD SLOAD DUP2 MSTORE POP POP SWAP1 POP SWAP2 SWAP1 POP JUMP JUMPDEST PUSH1 0x60 PUSH1 0x5 PUSH0 DUP4 DUP2 MSTORE PUSH1 0x20 ADD SWAP1 DUP2 MSTORE PUSH1 0x20 ADD PUSH0 KECCAK256 DUP1 SLOAD DUP1 PUSH1 0x20 MUL PUSH1 0x20 ADD PUSH1 0x40 MLOAD SWAP1 DUP2 ADD PUSH1 0x40 MSTORE DUP1 SWAP3 SWAP2 SWAP1 DUP2 DUP2 MSTORE PUSH1 0x20 ADD DUP3 DUP1 SLOAD DUP1 ISZERO PUSH2 0x2B5D JUMPI PUSH1 0x20 MUL DUP3 ADD SWAP2 SWAP1 PUSH0 MSTORE PUSH1 0x20 PUSH0 KECCAK256 SWAP1 JUMPDEST DUP2 SLOAD DUP2 MSTORE PUSH1 0x20 ADD SWAP1 PUSH1 0x1 ADD SWAP1 DUP1 DUP4 GT PUSH2 0x2B49 JUMPI JUMPDEST POP POP POP POP POP SWAP1 POP SWAP2 SWAP1 POP JUMP JUMPDEST PUSH1 0x60 PUSH0 PUSH1 0x3 PUSH0 DUP6 PUSH20 0xFFFFFFFFFFFFFFFFFFFFFFFFFFFFFFFFFFFFFFFF AND PUSH20 0xFFFFFFFFFFFFFFFFFFFFFFFFFFFFFFFFFFFFFFFF AND DUP2 MSTORE PUSH1 0x20 ADD SWAP1 DUP2 MSTORE PUSH1 0x20 ADD PUSH0 KECCAK256 DUP1 SLOAD DUP1 PUSH1 0x20 MUL PUSH1 0x20 ADD PUSH1 0x40 MLOAD SWAP1 DUP2 ADD PUSH1 0x40 MSTORE DUP1 SWAP3 SWAP2 SWAP1 DUP2 DUP2 MSTORE PUSH1 0x20 ADD DUP3 DUP1 SLOAD DUP1 ISZERO PUSH2 0x2BF1 JUMPI PUSH1 0x20 MUL DUP3 ADD SWAP2 SWAP1 PUSH0 MSTORE PUSH1 0x20 PUSH0 KECCAK256 SWAP1 JUMPDEST DUP2 SLOAD DUP2 MSTORE PUSH1 0x20 ADD SWAP1 PUSH1 0x1 ADD SWAP1 DUP1 DUP4 GT PUSH2 0x2BDD JUMPI JUMPDEST POP POP POP POP POP SWAP1 POP PUSH0 DUP2 MLOAD SWAP1 POP PUSH0 DUP5 GT DUP1 ISZERO PUSH2 0x2C0B JUMPI POP DUP1 DUP5 LT JUMPDEST ISZERO PUSH2 0x2C14 JUMPI DUP4 SWAP1 POP JUMPDEST DUP1 PUSH8 0xFFFFFFFFFFFFFFFF DUP2 GT ISZERO PUSH2 0x2C2E JUMPI PUSH2 0x2C2D PUSH2 0x32C4 JUMP JUMPDEST JUMPDEST PUSH1 0x40 MLOAD SWAP1 DUP1 DUP3 MSTORE DUP1 PUSH1 0x20 MUL PUSH1 0x20 ADD DUP3 ADD PUSH1 0x40 MSTORE DUP1 ISZERO PUSH2 0x2C67 JUMPI DUP2 PUSH1 0x20 ADD JUMPDEST PUSH2 0x2C54 PUSH2 0x3146 JUMP JUMPDEST DUP2 MSTORE PUSH1 0x20 ADD SWAP1 PUSH1 0x1 SWAP1 SUB SWAP1 DUP2 PUSH2 0x2C4C JUMPI SWAP1 POP JUMPDEST POP SWAP3 POP PUSH0 PUSH0 SWAP1 POP JUMPDEST DUP2 DUP2 LT ISZERO PUSH2 0x2E96 JUMPI PUSH0 DUP4 DUP3 PUSH1 0x1 DUP7 MLOAD PUSH2 0x2C88 SWAP2 SWAP1 PUSH2 0x3F32 JUMP JUMPDEST PUSH2 0x2C92 SWAP2 SWAP1 PUSH2 0x3F32 JUMP JUMPDEST DUP2 MLOAD DUP2 LT PUSH2 0x2CA3 JUMPI PUSH2 0x2CA2 PUSH2 0x3DE4 JUMP JUMPDEST JUMPDEST PUSH1 0x20 MUL PUSH1 0x20 ADD ADD MLOAD SWAP1 POP PUSH1 0x2 DUP2 DUP2 SLOAD DUP2 LT PUSH2 0x2CC1 JUMPI PUSH2 0x2CC0 PUSH2 0x3DE4 JUMP JUMPDEST JUMPDEST SWAP1 PUSH0 MSTORE PUSH1 0x20 PUSH0 KECCAK256 SWAP1 PUSH1 0x6 MUL ADD PUSH1 0x40 MLOAD DUP1 PUSH1 0xC0 ADD PUSH1 0x40 MSTORE SWAP1 DUP2 PUSH0 DUP3 ADD PUSH0 SWAP1 SLOAD SWAP1 PUSH2 0x100 EXP SWAP1 DIV PUSH20 0xFFFFFFFFFFFFFFFFFFFFFFFFFFFFFFFFFFFFFFFF AND PUSH20 0xFFFFFFFFFFFFFFFFFFFFFFFFFFFFFFFFFFFFFFFF AND PUSH20 0xFFFFFFFFFFFFFFFFFFFFFFFFFFFFFFFFFFFFFFFF AND DUP2 MSTORE PUSH1 0x20 ADD PUSH1 0x1 DUP3 ADD DUP1 SLOAD PUSH2 0x2D3C SWAP1 PUSH2 0x3E3E JUMP JUMPDEST DUP1 PUSH1 0x1F ADD PUSH1 0x20 DUP1 SWAP2 DIV MUL PUSH1 0x20 ADD PUSH1 0x40 MLOAD SWAP1 DUP2 ADD PUSH1 0x40 MSTORE DUP1 SWAP3 SWAP2 SWAP1 DUP2 DUP2 MSTORE PUSH1 0x20 ADD DUP3 DUP1 SLOAD PUSH2 0x2D68 SWAP1 PUSH2 0x3E3E JUMP JUMPDEST DUP1 ISZERO PUSH2 0x2DB3 JUMPI DUP1 PUSH1 0x1F LT PUSH2 0x2D8A JUMPI PUSH2 0x100 DUP1 DUP4 SLOAD DIV MUL DUP4 MSTORE SWAP2 PUSH1 0x20 ADD SWAP2 PUSH2 0x2DB3 JUMP JUMPDEST DUP3 ADD SWAP2 SWAP1 PUSH0 MSTORE PUSH1 0x20 PUSH0 KECCAK256 SWAP1 JUMPDEST DUP2 SLOAD DUP2 MSTORE SWAP1 PUSH1 0x1 ADD SWAP1 PUSH1 0x20 ADD DUP1 DUP4 GT PUSH2 0x2D96 JUMPI DUP3 SWAP1 SUB PUSH1 0x1F AND DUP3 ADD SWAP2 JUMPDEST POP POP POP POP POP DUP2 MSTORE PUSH1 0x20 ADD PUSH1 0x2 DUP3 ADD DUP1 SLOAD PUSH2 0x2DCC SWAP1 PUSH2 0x3E3E JUMP JUMPDEST DUP1 PUSH1 0x1F ADD PUSH1 0x20 DUP1 SWAP2 DIV MUL PUSH1 0x20 ADD PUSH1 0x40 MLOAD SWAP1 DUP2 ADD PUSH1 0x40 MSTORE DUP1 SWAP3 SWAP2 SWAP1 DUP2 DUP2 MSTORE PUSH1 0x20 ADD DUP3 DUP1 SLOAD PUSH2 0x2DF8 SWAP1 PUSH2 0x3E3E JUMP JUMPDEST DUP1 ISZERO PUSH2 0x2E43 JUMPI DUP1 PUSH1 0x1F LT PUSH2 0x2E1A JUMPI PUSH2 0x100 DUP1 DUP4 SLOAD DIV MUL DUP4 MSTORE SWAP2 PUSH1 0x20 ADD SWAP2 PUSH2 0x2E43 JUMP JUMPDEST DUP3 ADD SWAP2 SWAP1 PUSH0 MSTORE PUSH1 0x20 PUSH0 KECCAK256 SWAP1 JUMPDEST DUP2 SLOAD DUP2 MSTORE SWAP1 PUSH1 0x1 ADD SWAP1 PUSH1 0x20 ADD DUP1 DUP4 GT PUSH2 0x2E26 JUMPI DUP3 SWAP1 SUB PUSH1 0x1F AND DUP3 ADD SWAP2 JUMPDEST POP POP POP POP POP DUP2 MSTORE PUSH1 0x20 ADD PUSH1 0x3 DUP3 ADD SLOAD DUP2 MSTORE PUSH1 0x20 ADD PUSH1 0x4 DUP3 ADD SLOAD DUP2 MSTORE PUSH1 0x20 ADD PUSH1 0x5 DUP3 ADD SLOAD DUP2 MSTORE POP POP DUP6 DUP4 DUP2 MLOAD DUP2 LT PUSH2 0x2E7D JUMPI PUSH2 0x2E7C PUSH2 0x3DE4 JUMP JUMPDEST JUMPDEST PUSH1 0x20 MUL PUSH1 0x20 ADD ADD DUP2 SWAP1 MSTORE POP POP DUP1 DUP1 PUSH1 0x1 ADD SWAP2 POP POP PUSH2 0x2C6F JUMP JUMPDEST POP POP POP SWAP3 SWAP2 POP POP JUMP JUMPDEST PUSH0 PUSH32 0x1FFC9A700000000000000000000000000000000000000000000000000000000 PUSH28 0xFFFFFFFFFFFFFFFFFFFFFFFFFFFFFFFFFFFFFFFFFFFFFFFFFFFFFFFF NOT AND DUP3 PUSH28 0xFFFFFFFFFFFFFFFFFFFFFFFFFFFFFFFFFFFFFFFFFFFFFFFFFFFFFFFF NOT AND EQ SWAP1 POP SWAP2 SWAP1 POP JUMP JUMPDEST PUSH2 0x2F19 DUP2 PUSH2 0x2F14 PUSH2 0x3005 JUMP JUMPDEST PUSH2 0x30F5 JUMP JUMPDEST POP JUMP JUMPDEST PUSH0 PUSH2 0x2F27 DUP4 DUP4 PUSH2 0x1AB5 JUMP JUMPDEST PUSH2 0x2FFB JUMPI PUSH1 0x1 PUSH0 PUSH0 DUP6 DUP2 MSTORE PUSH1 0x20 ADD SWAP1 DUP2 MSTORE PUSH1 0x20 ADD PUSH0 KECCAK256 PUSH0 ADD PUSH0 DUP5 PUSH20 0xFFFFFFFFFFFFFFFFFFFFFFFFFFFFFFFFFFFFFFFF AND PUSH20 0xFFFFFFFFFFFFFFFFFFFFFFFFFFFFFFFFFFFFFFFF AND DUP2 MSTORE PUSH1 0x20 ADD SWAP1 DUP2 MSTORE PUSH1 0x20 ADD PUSH0 KECCAK256 PUSH0 PUSH2 0x100 EXP DUP2 SLOAD DUP2 PUSH1 0xFF MUL NOT AND SWAP1 DUP4 ISZERO ISZERO MUL OR SWAP1 SSTORE POP PUSH2 0x2F98 PUSH2 0x3005 JUMP JUMPDEST PUSH20 0xFFFFFFFFFFFFFFFFFFFFFFFFFFFFFFFFFFFFFFFF AND DUP3 PUSH20 0xFFFFFFFFFFFFFFFFFFFFFFFFFFFFFFFFFFFFFFFF AND DUP5 PUSH32 0x2F8788117E7EFF1D82E926EC794901D17C78024A50270940304540A733656F0D PUSH1 0x40 MLOAD PUSH1 0x40 MLOAD DUP1 SWAP2 SUB SWAP1 LOG4 PUSH1 0x1 SWAP1 POP PUSH2 0x2FFF JUMP JUMPDEST PUSH0 SWAP1 POP JUMPDEST SWAP3 SWAP2 POP POP JUMP JUMPDEST PUSH0 CALLER SWAP1 POP SWAP1 JUMP JUMPDEST PUSH0 PUSH2 0x3017 DUP4 DUP4 PUSH2 0x1AB5 JUMP JUMPDEST ISZERO PUSH2 0x30EB JUMPI PUSH0 PUSH0 PUSH0 DUP6 DUP2 MSTORE PUSH1 0x20 ADD SWAP1 DUP2 MSTORE PUSH1 0x20 ADD PUSH0 KECCAK256 PUSH0 ADD PUSH0 DUP5 PUSH20 0xFFFFFFFFFFFFFFFFFFFFFFFFFFFFFFFFFFFFFFFF AND PUSH20 0xFFFFFFFFFFFFFFFFFFFFFFFFFFFFFFFFFFFFFFFF AND DUP2 MSTORE PUSH1 0x20 ADD SWAP1 DUP2 MSTORE PUSH1 0x20 ADD PUSH0 KECCAK256 PUSH0 PUSH2 0x100 EXP DUP2 SLOAD DUP2 PUSH1 0xFF MUL NOT AND SWAP1 DUP4 ISZERO ISZERO MUL OR SWAP1 SSTORE POP PUSH2 0x3088 PUSH2 0x3005 JUMP JUMPDEST PUSH20 0xFFFFFFFFFFFFFFFFFFFFFFFFFFFFFFFFFFFFFFFF AND DUP3 PUSH20 0xFFFFFFFFFFFFFFFFFFFFFFFFFFFFFFFFFFFFFFFF AND DUP5 PUSH32 0xF6391F5C32D9C69D2A47EA670B442974B53935D1EDC7FD64EB21E047A839171B PUSH1 0x40 MLOAD PUSH1 0x40 MLOAD DUP1 SWAP2 SUB SWAP1 LOG4 PUSH1 0x1 SWAP1 POP PUSH2 0x30EF JUMP JUMPDEST PUSH0 SWAP1 POP JUMPDEST SWAP3 SWAP2 POP POP JUMP JUMPDEST PUSH2 0x30FF DUP3 DUP3 PUSH2 0x1AB5 JUMP JUMPDEST PUSH2 0x3142 JUMPI DUP1 DUP3 PUSH1 0x40 MLOAD PUSH32 0xE2517D3F00000000000000000000000000000000000000000000000000000000 DUP2 MSTORE PUSH1 0x4 ADD PUSH2 0x3139 SWAP3 SWAP2 SWAP1 PUSH2 0x469E JUMP JUMPDEST PUSH1 0x40 MLOAD DUP1 SWAP2 SUB SWAP1 REVERT JUMPDEST POP POP JUMP JUMPDEST PUSH1 0x40 MLOAD DUP1 PUSH1 0xC0 ADD PUSH1 0x40 MSTORE DUP1 PUSH0 PUSH20 0xFFFFFFFFFFFFFFFFFFFFFFFFFFFFFFFFFFFFFFFF AND DUP2 MSTORE PUSH1 0x20 ADD PUSH1 0x60 DUP2 MSTORE PUSH1 0x20 ADD PUSH1 0x60 DUP2 MSTORE PUSH1 0x20 ADD PUSH0 DUP2 MSTORE PUSH1 0x20 ADD PUSH0 DUP2 MSTORE PUSH1 0x20 ADD PUSH0 DUP2 MSTORE POP SWAP1 JUMP JUMPDEST PUSH0 PUSH1 0x40 MLOAD SWAP1 POP SWAP1 JUMP JUMPDEST PUSH0 PUSH0 REVERT JUMPDEST PUSH0 PUSH0 REVERT JUMPDEST PUSH0 PUSH32 0xFFFFFFFF00000000000000000000000000000000000000000000000000000000 DUP3 AND SWAP1 POP SWAP2 SWAP1 POP JUMP JUMPDEST PUSH2 0x31D3 DUP2 PUSH2 0x319F JUMP JUMPDEST DUP2 EQ PUSH2 0x31DD JUMPI PUSH0 PUSH0 REVERT JUMPDEST POP JUMP JUMPDEST PUSH0 DUP2 CALLDATALOAD SWAP1 POP PUSH2 0x31EE DUP2 PUSH2 0x31CA JUMP JUMPDEST SWAP3 SWAP2 POP POP JUMP JUMPDEST PUSH0 PUSH1 0x20 DUP3 DUP5 SUB SLT ISZERO PUSH2 0x3209 JUMPI PUSH2 0x3208 PUSH2 0x3197 JUMP JUMPDEST JUMPDEST PUSH0 PUSH2 0x3216 DUP5 DUP3 DUP6 ADD PUSH2 0x31E0 JUMP JUMPDEST SWAP2 POP POP SWAP3 SWAP2 POP POP JUMP JUMPDEST PUSH0 DUP2 ISZERO ISZERO SWAP1 POP SWAP2 SWAP1 POP JUMP JUMPDEST PUSH2 0x3233 DUP2 PUSH2 0x321F JUMP JUMPDEST DUP3 MSTORE POP POP JUMP JUMPDEST PUSH0 PUSH1 0x20 DUP3 ADD SWAP1 POP PUSH2 0x324C PUSH0 DUP4 ADD DUP5 PUSH2 0x322A JUMP JUMPDEST SWAP3 SWAP2 POP POP JUMP JUMPDEST PUSH0 PUSH20 0xFFFFFFFFFFFFFFFFFFFFFFFFFFFFFFFFFFFFFFFF DUP3 AND SWAP1 POP SWAP2 SWAP1 POP JUMP JUMPDEST PUSH0 PUSH2 0x327B DUP3 PUSH2 0x3252 JUMP JUMPDEST SWAP1 POP SWAP2 SWAP1 POP JUMP JUMPDEST PUSH2 0x328B DUP2 PUSH2 0x3271 JUMP JUMPDEST DUP2 EQ PUSH2 0x3295 JUMPI PUSH0 PUSH0 REVERT JUMPDEST POP JUMP JUMPDEST PUSH0 DUP2 CALLDATALOAD SWAP1 POP PUSH2 0x32A6 DUP2 PUSH2 0x3282 JUMP JUMPDEST SWAP3 SWAP2 POP POP JUMP JUMPDEST PUSH0 PUSH0 REVERT JUMPDEST PUSH0 PUSH0 REVERT JUMPDEST PUSH0 PUSH1 0x1F NOT PUSH1 0x1F DUP4 ADD AND SWAP1 POP SWAP2 SWAP1 POP JUMP JUMPDEST PUSH32 0x4E487B7100000000000000000000000000000000000000000000000000000000 PUSH0 MSTORE PUSH1 0x41 PUSH1 0x4 MSTORE PUSH1 0x24 PUSH0 REVERT JUMPDEST PUSH2 0x32FA DUP3 PUSH2 0x32B4 JUMP JUMPDEST DUP2 ADD DUP2 DUP2 LT PUSH8 0xFFFFFFFFFFFFFFFF DUP3 GT OR ISZERO PUSH2 0x3319 JUMPI PUSH2 0x3318 PUSH2 0x32C4 JUMP JUMPDEST JUMPDEST DUP1 PUSH1 0x40 MSTORE POP POP POP JUMP JUMPDEST PUSH0 PUSH2 0x332B PUSH2 0x318E JUMP JUMPDEST SWAP1 POP PUSH2 0x3337 DUP3 DUP3 PUSH2 0x32F1 JUMP JUMPDEST SWAP2 SWAP1 POP JUMP JUMPDEST PUSH0 PUSH8 0xFFFFFFFFFFFFFFFF DUP3 GT ISZERO PUSH2 0x3356 JUMPI PUSH2 0x3355 PUSH2 0x32C4 JUMP JUMPDEST JUMPDEST PUSH2 0x335F DUP3 PUSH2 0x32B4 JUMP JUMPDEST SWAP1 POP PUSH1 0x20 DUP2 ADD SWAP1 POP SWAP2 SWAP1 POP JUMP JUMPDEST DUP3 DUP2 DUP4 CALLDATACOPY PUSH0 DUP4 DUP4 ADD MSTORE POP POP POP JUMP JUMPDEST PUSH0 PUSH2 0x338C PUSH2 0x3387 DUP5 PUSH2 0x333C JUMP JUMPDEST PUSH2 0x3322 JUMP JUMPDEST SWAP1 POP DUP3 DUP2 MSTORE PUSH1 0x20 DUP2 ADD DUP5 DUP5 DUP5 ADD GT ISZERO PUSH2 0x33A8 JUMPI PUSH2 0x33A7 PUSH2 0x32B0 JUMP JUMPDEST JUMPDEST PUSH2 0x33B3 DUP5 DUP3 DUP6 PUSH2 0x336C JUMP JUMPDEST POP SWAP4 SWAP3 POP POP POP JUMP JUMPDEST PUSH0 DUP3 PUSH1 0x1F DUP4 ADD SLT PUSH2 0x33CF JUMPI PUSH2 0x33CE PUSH2 0x32AC JUMP JUMPDEST JUMPDEST DUP2 CALLDATALOAD PUSH2 0x33DF DUP5 DUP3 PUSH1 0x20 DUP7 ADD PUSH2 0x337A JUMP JUMPDEST SWAP2 POP POP SWAP3 SWAP2 POP POP JUMP JUMPDEST PUSH0 DUP2 SWAP1 POP SWAP2 SWAP1 POP JUMP JUMPDEST PUSH2 0x33FA DUP2 PUSH2 0x33E8 JUMP JUMPDEST DUP2 EQ PUSH2 0x3404 JUMPI PUSH0 PUSH0 REVERT JUMPDEST POP JUMP JUMPDEST PUSH0 DUP2 CALLDATALOAD SWAP1 POP PUSH2 0x3415 DUP2 PUSH2 0x33F1 JUMP JUMPDEST SWAP3 SWAP2 POP POP JUMP JUMPDEST PUSH0 PUSH0 PUSH0 PUSH0 PUSH1 0x80 DUP6 DUP8 SUB SLT ISZERO PUSH2 0x3433 JUMPI PUSH2 0x3432 PUSH2 0x3197 JUMP JUMPDEST JUMPDEST PUSH0 PUSH2 0x3440 DUP8 DUP3 DUP9 ADD PUSH2 0x3298 JUMP JUMPDEST SWAP5 POP POP PUSH1 0x20 DUP6 ADD CALLDATALOAD PUSH8 0xFFFFFFFFFFFFFFFF DUP2 GT ISZERO PUSH2 0x3461 JUMPI PUSH2 0x3460 PUSH2 0x319B JUMP JUMPDEST JUMPDEST PUSH2 0x346D DUP8 DUP3 DUP9 ADD PUSH2 0x33BB JUMP JUMPDEST SWAP4 POP POP PUSH1 0x40 PUSH2 0x347E DUP8 DUP3 DUP9 ADD PUSH2 0x3407 JUMP JUMPDEST SWAP3 POP POP PUSH1 0x60 PUSH2 0x348F DUP8 DUP3 DUP9 ADD PUSH2 0x3407 JUMP JUMPDEST SWAP2 POP POP SWAP3 SWAP6 SWAP2 SWAP5 POP SWAP3 POP JUMP JUMPDEST PUSH0 DUP2 MLOAD SWAP1 POP SWAP2 SWAP1 POP JUMP JUMPDEST PUSH0 DUP3 DUP3 MSTORE PUSH1 0x20 DUP3 ADD SWAP1 POP SWAP3 SWAP2 POP POP JUMP JUMPDEST PUSH0 DUP2 SWAP1 POP PUSH1 0x20 DUP3 ADD SWAP1 POP SWAP2 SWAP1 POP JUMP JUMPDEST PUSH2 0x34CD DUP2 PUSH2 0x3271 JUMP JUMPDEST DUP3 MSTORE POP POP JUMP JUMPDEST PUSH0 DUP2 MLOAD SWAP1 POP SWAP2 SWAP1 POP JUMP JUMPDEST PUSH0 DUP3 DUP3 MSTORE PUSH1 0x20 DUP3 ADD SWAP1 POP SWAP3 SWAP2 POP POP JUMP JUMPDEST DUP3 DUP2 DUP4 MCOPY PUSH0 DUP4 DUP4 ADD MSTORE POP POP POP JUMP JUMPDEST PUSH0 PUSH2 0x3505 DUP3 PUSH2 0x34D3 JUMP JUMPDEST PUSH2 0x350F DUP2 DUP6 PUSH2 0x34DD JUMP JUMPDEST SWAP4 POP PUSH2 0x351F DUP2 DUP6 PUSH1 0x20 DUP7 ADD PUSH2 0x34ED JUMP JUMPDEST PUSH2 0x3528 DUP2 PUSH2 0x32B4 JUMP JUMPDEST DUP5 ADD SWAP2 POP POP SWAP3 SWAP2 POP POP JUMP JUMPDEST PUSH0 DUP2 MLOAD SWAP1 POP SWAP2 SWAP1 POP JUMP JUMPDEST PUSH0 DUP3 DUP3 MSTORE PUSH1 0x20 DUP3 ADD SWAP1 POP SWAP3 SWAP2 POP POP JUMP JUMPDEST PUSH0 PUSH2 0x3557 DUP3 PUSH2 0x3533 JUMP JUMPDEST PUSH2 0x3561 DUP2 DUP6 PUSH2 0x353D JUMP JUMPDEST SWAP4 POP PUSH2 0x3571 DUP2 DUP6 PUSH1 0x20 DUP7 ADD PUSH2 0x34ED JUMP JUMPDEST PUSH2 0x357A DUP2 PUSH2 0x32B4 JUMP JUMPDEST DUP5 ADD SWAP2 POP POP SWAP3 SWAP2 POP POP JUMP JUMPDEST PUSH2 0x358E DUP2 PUSH2 0x33E8 JUMP JUMPDEST DUP3 MSTORE POP POP JUMP JUMPDEST PUSH0 DUP2 SWAP1 POP SWAP2 SWAP1 POP JUMP JUMPDEST PUSH2 0x35A6 DUP2 PUSH2 0x3594 JUMP JUMPDEST DUP3 MSTORE POP POP JUMP JUMPDEST PUSH0 PUSH1 0xC0 DUP4 ADD PUSH0 DUP4 ADD MLOAD PUSH2 0x35C1 PUSH0 DUP7 ADD DUP3 PUSH2 0x34C4 JUMP JUMPDEST POP PUSH1 0x20 DUP4 ADD MLOAD DUP5 DUP3 SUB PUSH1 0x20 DUP7 ADD MSTORE PUSH2 0x35D9 DUP3 DUP3 PUSH2 0x34FB JUMP JUMPDEST SWAP2 POP POP PUSH1 0x40 DUP4 ADD MLOAD DUP5 DUP3 SUB PUSH1 0x40 DUP7 ADD MSTORE PUSH2 0x35F3 DUP3 DUP3 PUSH2 0x354D JUMP JUMPDEST SWAP2 POP POP PUSH1 0x60 DUP4 ADD MLOAD PUSH2 0x3608 PUSH1 0x60 DUP7 ADD DUP3 PUSH2 0x3585 JUMP JUMPDEST POP PUSH1 0x80 DUP4 ADD MLOAD PUSH2 0x361B PUSH1 0x80 DUP7 ADD DUP3 PUSH2 0x3585 JUMP JUMPDEST POP PUSH1 0xA0 DUP4 ADD MLOAD PUSH2 0x362E PUSH1 0xA0 DUP7 ADD DUP3 PUSH2 0x359D JUMP JUMPDEST POP DUP1 SWAP2 POP POP SWAP3 SWAP2 POP POP JUMP JUMPDEST PUSH0 PUSH2 0x3644 DUP4 DUP4 PUSH2 0x35AC JUMP JUMPDEST SWAP1 POP SWAP3 SWAP2 POP POP JUMP JUMPDEST PUSH0 PUSH1 0x20 DUP3 ADD SWAP1 POP SWAP2 SWAP1 POP JUMP JUMPDEST PUSH0 PUSH2 0x3662 DUP3 PUSH2 0x349B JUMP JUMPDEST PUSH2 0x366C DUP2 DUP6 PUSH2 0x34A5 JUMP JUMPDEST SWAP4 POP DUP4 PUSH1 0x20 DUP3 MUL DUP6 ADD PUSH2 0x367E DUP6 PUSH2 0x34B5 JUMP JUMPDEST DUP1 PUSH0 JUMPDEST DUP6 DUP2 LT ISZERO PUSH2 0x36B9 JUMPI DUP5 DUP5 SUB DUP10 MSTORE DUP2 MLOAD PUSH2 0x369A DUP6 DUP3 PUSH2 0x3639 JUMP JUMPDEST SWAP5 POP PUSH2 0x36A5 DUP4 PUSH2 0x364C JUMP JUMPDEST SWAP3 POP PUSH1 0x20 DUP11 ADD SWAP10 POP POP PUSH1 0x1 DUP2 ADD SWAP1 POP PUSH2 0x3681 JUMP JUMPDEST POP DUP3 SWAP8 POP DUP8 SWAP6 POP POP POP POP POP POP SWAP3 SWAP2 POP POP JUMP JUMPDEST PUSH0 PUSH1 0x20 DUP3 ADD SWAP1 POP DUP2 DUP2 SUB PUSH0 DUP4 ADD MSTORE PUSH2 0x36E3 DUP2 DUP5 PUSH2 0x3658 JUMP JUMPDEST SWAP1 POP SWAP3 SWAP2 POP POP JUMP JUMPDEST PUSH0 PUSH0 PUSH1 0x40 DUP4 DUP6 SUB SLT ISZERO PUSH2 0x3701 JUMPI PUSH2 0x3700 PUSH2 0x3197 JUMP JUMPDEST JUMPDEST PUSH0 DUP4 ADD CALLDATALOAD PUSH8 0xFFFFFFFFFFFFFFFF DUP2 GT ISZERO PUSH2 0x371E JUMPI PUSH2 0x371D PUSH2 0x319B JUMP JUMPDEST JUMPDEST PUSH2 0x372A DUP6 DUP3 DUP7 ADD PUSH2 0x33BB JUMP JUMPDEST SWAP3 POP POP PUSH1 0x20 PUSH2 0x373B DUP6 DUP3 DUP7 ADD PUSH2 0x3407 JUMP JUMPDEST SWAP2 POP POP SWAP3 POP SWAP3 SWAP1 POP JUMP JUMPDEST PUSH2 0x374E DUP2 PUSH2 0x33E8 JUMP JUMPDEST DUP3 MSTORE POP POP JUMP JUMPDEST PUSH0 PUSH1 0x20 DUP3 ADD SWAP1 POP PUSH2 0x3767 PUSH0 DUP4 ADD DUP5 PUSH2 0x3745 JUMP JUMPDEST SWAP3 SWAP2 POP POP JUMP JUMPDEST PUSH2 0x3776 DUP2 PUSH2 0x3594 JUMP JUMPDEST DUP2 EQ PUSH2 0x3780 JUMPI PUSH0 PUSH0 REVERT JUMPDEST POP JUMP JUMPDEST PUSH0 DUP2 CALLDATALOAD SWAP1 POP PUSH2 0x3791 DUP2 PUSH2 0x376D JUMP JUMPDEST SWAP3 SWAP2 POP POP JUMP JUMPDEST PUSH0 PUSH1 0x20 DUP3 DUP5 SUB SLT ISZERO PUSH2 0x37AC JUMPI PUSH2 0x37AB PUSH2 0x3197 JUMP JUMPDEST JUMPDEST PUSH0 PUSH2 0x37B9 DUP5 DUP3 DUP6 ADD PUSH2 0x3783 JUMP JUMPDEST SWAP2 POP POP SWAP3 SWAP2 POP POP JUMP JUMPDEST PUSH2 0x37CB DUP2 PUSH2 0x3594 JUMP JUMPDEST DUP3 MSTORE POP POP JUMP JUMPDEST PUSH0 PUSH1 0x20 DUP3 ADD SWAP1 POP PUSH2 0x37E4 PUSH0 DUP4 ADD DUP5 PUSH2 0x37C2 JUMP JUMPDEST SWAP3 SWAP2 POP POP JUMP JUMPDEST PUSH0 PUSH0 PUSH0 PUSH0 PUSH1 0x80 DUP6 DUP8 SUB SLT ISZERO PUSH2 0x3802 JUMPI PUSH2 0x3801 PUSH2 0x3197 JUMP JUMPDEST JUMPDEST PUSH0 PUSH2 0x380F DUP8 DUP3 DUP9 ADD PUSH2 0x3407 JUMP JUMPDEST SWAP5 POP POP PUSH1 0x20 PUSH2 0x3820 DUP8 DUP3 DUP9 ADD PUSH2 0x3407 JUMP JUMPDEST SWAP4 POP POP PUSH1 0x40 PUSH2 0x3831 DUP8 DUP3 DUP9 ADD PUSH2 0x3407 JUMP JUMPDEST SWAP3 POP POP PUSH1 0x60 PUSH2 0x3842 DUP8 DUP3 DUP9 ADD PUSH2 0x3407 JUMP JUMPDEST SWAP2 POP POP SWAP3 SWAP6 SWAP2 SWAP5 POP SWAP3 POP JUMP JUMPDEST PUSH0 PUSH1 0x40 DUP3 ADD SWAP1 POP DUP2 DUP2 SUB PUSH0 DUP4 ADD MSTORE PUSH2 0x3866 DUP2 DUP6 PUSH2 0x3658 JUMP JUMPDEST SWAP1 POP PUSH2 0x3875 PUSH1 0x20 DUP4 ADD DUP5 PUSH2 0x322A JUMP JUMPDEST SWAP4 SWAP3 POP POP POP JUMP JUMPDEST PUSH0 PUSH1 0x20 DUP3 DUP5 SUB SLT ISZERO PUSH2 0x3891 JUMPI PUSH2 0x3890 PUSH2 0x3197 JUMP JUMPDEST JUMPDEST PUSH0 DUP3 ADD CALLDATALOAD PUSH8 0xFFFFFFFFFFFFFFFF DUP2 GT ISZERO PUSH2 0x38AE JUMPI PUSH2 0x38AD PUSH2 0x319B JUMP JUMPDEST JUMPDEST PUSH2 0x38BA DUP5 DUP3 DUP6 ADD PUSH2 0x33BB JUMP JUMPDEST SWAP2 POP POP SWAP3 SWAP2 POP POP JUMP JUMPDEST PUSH0 DUP2 MLOAD SWAP1 POP SWAP2 SWAP1 POP JUMP JUMPDEST PUSH0 DUP3 DUP3 MSTORE PUSH1 0x20 DUP3 ADD SWAP1 POP SWAP3 SWAP2 POP POP JUMP JUMPDEST PUSH0 DUP2 SWAP1 POP PUSH1 0x20 DUP3 ADD SWAP1 POP SWAP2 SWAP1 POP JUMP JUMPDEST PUSH0 PUSH2 0x38F7 DUP4 DUP4 PUSH2 0x3585 JUMP JUMPDEST PUSH1 0x20 DUP4 ADD SWAP1 POP SWAP3 SWAP2 POP POP JUMP JUMPDEST PUSH0 PUSH1 0x20 DUP3 ADD SWAP1 POP SWAP2 SWAP1 POP JUMP JUMPDEST PUSH0 PUSH2 0x3919 DUP3 PUSH2 0x38C3 JUMP JUMPDEST PUSH2 0x3923 DUP2 DUP6 PUSH2 0x38CD JUMP JUMPDEST SWAP4 POP PUSH2 0x392E DUP4 PUSH2 0x38DD JUMP JUMPDEST DUP1 PUSH0 JUMPDEST DUP4 DUP2 LT ISZERO PUSH2 0x395E JUMPI DUP2 MLOAD PUSH2 0x3945 DUP9 DUP3 PUSH2 0x38EC JUMP JUMPDEST SWAP8 POP PUSH2 0x3950 DUP4 PUSH2 0x3903 JUMP JUMPDEST SWAP3 POP POP PUSH1 0x1 DUP2 ADD SWAP1 POP PUSH2 0x3931 JUMP JUMPDEST POP DUP6 SWAP4 POP POP POP POP SWAP3 SWAP2 POP POP JUMP JUMPDEST PUSH0 PUSH1 0x20 DUP3 ADD SWAP1 POP DUP2 DUP2 SUB PUSH0 DUP4 ADD MSTORE PUSH2 0x3983 DUP2 DUP5 PUSH2 0x390F JUMP JUMPDEST SWAP1 POP SWAP3 SWAP2 POP POP JUMP JUMPDEST PUSH0 PUSH0 PUSH1 0x40 DUP4 DUP6 SUB SLT ISZERO PUSH2 0x39A1 JUMPI PUSH2 0x39A0 PUSH2 0x3197 JUMP JUMPDEST JUMPDEST PUSH0 PUSH2 0x39AE DUP6 DUP3 DUP7 ADD PUSH2 0x3783 JUMP JUMPDEST SWAP3 POP POP PUSH1 0x20 PUSH2 0x39BF DUP6 DUP3 DUP7 ADD PUSH2 0x3298 JUMP JUMPDEST SWAP2 POP POP SWAP3 POP SWAP3 SWAP1 POP JUMP JUMPDEST PUSH0 PUSH1 0x20 DUP3 DUP5 SUB SLT ISZERO PUSH2 0x39DE JUMPI PUSH2 0x39DD PUSH2 0x3197 JUMP JUMPDEST JUMPDEST PUSH0 PUSH2 0x39EB DUP5 DUP3 DUP6 ADD PUSH2 0x3298 JUMP JUMPDEST SWAP2 POP POP SWAP3 SWAP2 POP POP JUMP JUMPDEST PUSH0 PUSH1 0x20 DUP3 DUP5 SUB SLT ISZERO PUSH2 0x3A09 JUMPI PUSH2 0x3A08 PUSH2 0x3197 JUMP JUMPDEST JUMPDEST PUSH0 PUSH2 0x3A16 DUP5 DUP3 DUP6 ADD PUSH2 0x3407 JUMP JUMPDEST SWAP2 POP POP SWAP3 SWAP2 POP POP JUMP JUMPDEST PUSH0 PUSH8 0xFFFFFFFFFFFFFFFF DUP3 GT ISZERO PUSH2 0x3A39 JUMPI PUSH2 0x3A38 PUSH2 0x32C4 JUMP JUMPDEST JUMPDEST PUSH2 0x3A42 DUP3 PUSH2 0x32B4 JUMP JUMPDEST SWAP1 POP PUSH1 0x20 DUP2 ADD SWAP1 POP SWAP2 SWAP1 POP JUMP JUMPDEST PUSH0 PUSH2 0x3A61 PUSH2 0x3A5C DUP5 PUSH2 0x3A1F JUMP JUMPDEST PUSH2 0x3322 JUMP JUMPDEST SWAP1 POP DUP3 DUP2 MSTORE PUSH1 0x20 DUP2 ADD DUP5 DUP5 DUP5 ADD GT ISZERO PUSH2 0x3A7D JUMPI PUSH2 0x3A7C PUSH2 0x32B0 JUMP JUMPDEST JUMPDEST PUSH2 0x3A88 DUP5 DUP3 DUP6 PUSH2 0x336C JUMP JUMPDEST POP SWAP4 SWAP3 POP POP POP JUMP JUMPDEST PUSH0 DUP3 PUSH1 0x1F DUP4 ADD SLT PUSH2 0x3AA4 JUMPI PUSH2 0x3AA3 PUSH2 0x32AC JUMP JUMPDEST JUMPDEST DUP2 CALLDATALOAD PUSH2 0x3AB4 DUP5 DUP3 PUSH1 0x20 DUP7 ADD PUSH2 0x3A4F JUMP JUMPDEST SWAP2 POP POP SWAP3 SWAP2 POP POP JUMP JUMPDEST PUSH0 PUSH0 PUSH0 PUSH1 0x60 DUP5 DUP7 SUB SLT ISZERO PUSH2 0x3AD4 JUMPI PUSH2 0x3AD3 PUSH2 0x3197 JUMP JUMPDEST JUMPDEST PUSH0 PUSH2 0x3AE1 DUP7 DUP3 DUP8 ADD PUSH2 0x3298 JUMP JUMPDEST SWAP4 POP POP PUSH1 0x20 DUP5 ADD CALLDATALOAD PUSH8 0xFFFFFFFFFFFFFFFF DUP2 GT ISZERO PUSH2 0x3B02 JUMPI PUSH2 0x3B01 PUSH2 0x319B JUMP JUMPDEST JUMPDEST PUSH2 0x3B0E DUP7 DUP3 DUP8 ADD PUSH2 0x33BB JUMP JUMPDEST SWAP3 POP POP PUSH1 0x40 DUP5 ADD CALLDATALOAD PUSH8 0xFFFFFFFFFFFFFFFF DUP2 GT ISZERO PUSH2 0x3B2F JUMPI PUSH2 0x3B2E PUSH2 0x319B JUMP JUMPDEST JUMPDEST PUSH2 0x3B3B DUP7 DUP3 DUP8 ADD PUSH2 0x3A90 JUMP JUMPDEST SWAP2 POP POP SWAP3 POP SWAP3 POP SWAP3 JUMP JUMPDEST PUSH2 0x3B4E DUP2 PUSH2 0x3271 JUMP JUMPDEST DUP3 MSTORE POP POP JUMP JUMPDEST PUSH0 PUSH1 0x20 DUP3 ADD SWAP1 POP PUSH2 0x3B67 PUSH0 DUP4 ADD DUP5 PUSH2 0x3B45 JUMP JUMPDEST SWAP3 SWAP2 POP POP JUMP JUMPDEST PUSH0 PUSH0 PUSH1 0x40 DUP4 DUP6 SUB SLT ISZERO PUSH2 0x3B83 JUMPI PUSH2 0x3B82 PUSH2 0x3197 JUMP JUMPDEST JUMPDEST PUSH0 PUSH2 0x3B90 DUP6 DUP3 DUP7 ADD PUSH2 0x3407 JUMP JUMPDEST SWAP3 POP POP PUSH1 0x20 PUSH2 0x3BA1 DUP6 DUP3 DUP7 ADD PUSH2 0x3407 JUMP JUMPDEST SWAP2 POP POP SWAP3 POP SWAP3 SWAP1 POP JUMP JUMPDEST PUSH0 PUSH1 0xA0 DUP3 ADD SWAP1 POP PUSH2 0x3BBE PUSH0 DUP4 ADD DUP9 PUSH2 0x3745 JUMP JUMPDEST PUSH2 0x3BCB PUSH1 0x20 DUP4 ADD DUP8 PUSH2 0x3745 JUMP JUMPDEST PUSH2 0x3BD8 PUSH1 0x40 DUP4 ADD DUP7 PUSH2 0x3745 JUMP JUMPDEST PUSH2 0x3BE5 PUSH1 0x60 DUP4 ADD DUP6 PUSH2 0x3745 JUMP JUMPDEST PUSH2 0x3BF2 PUSH1 0x80 DUP4 ADD DUP5 PUSH2 0x3745 JUMP JUMPDEST SWAP7 SWAP6 POP POP POP POP POP POP JUMP JUMPDEST PUSH0 PUSH0 PUSH1 0x40 DUP4 DUP6 SUB SLT ISZERO PUSH2 0x3C12 JUMPI PUSH2 0x3C11 PUSH2 0x3197 JUMP JUMPDEST JUMPDEST PUSH0 PUSH2 0x3C1F DUP6 DUP3 DUP7 ADD PUSH2 0x3298 JUMP JUMPDEST SWAP3 POP POP PUSH1 0x20 PUSH2 0x3C30 DUP6 DUP3 DUP7 ADD PUSH2 0x3407 JUMP JUMPDEST SWAP2 POP POP SWAP3 POP SWAP3 SWAP1 POP JUMP JUMPDEST PUSH0 DUP3 DUP3 MSTORE PUSH1 0x20 DUP3 ADD SWAP1 POP SWAP3 SWAP2 POP POP JUMP JUMPDEST PUSH0 PUSH2 0x3C54 DUP3 PUSH2 0x34D3 JUMP JUMPDEST PUSH2 0x3C5E DUP2 DUP6 PUSH2 0x3C3A JUMP JUMPDEST SWAP4 POP PUSH2 0x3C6E DUP2 DUP6 PUSH1 0x20 DUP7 ADD PUSH2 0x34ED JUMP JUMPDEST PUSH2 0x3C77 DUP2 PUSH2 0x32B4 JUMP JUMPDEST DUP5 ADD SWAP2 POP POP SWAP3 SWAP2 POP POP JUMP JUMPDEST PUSH0 DUP3 DUP3 MSTORE PUSH1 0x20 DUP3 ADD SWAP1 POP SWAP3 SWAP2 POP POP JUMP JUMPDEST PUSH0 PUSH2 0x3C9C DUP3 PUSH2 0x3533 JUMP JUMPDEST PUSH2 0x3CA6 DUP2 DUP6 PUSH2 0x3C82 JUMP JUMPDEST SWAP4 POP PUSH2 0x3CB6 DUP2 DUP6 PUSH1 0x20 DUP7 ADD PUSH2 0x34ED JUMP JUMPDEST PUSH2 0x3CBF DUP2 PUSH2 0x32B4 JUMP JUMPDEST DUP5 ADD SWAP2 POP POP SWAP3 SWAP2 POP POP JUMP JUMPDEST PUSH0 PUSH1 0xC0 DUP3 ADD SWAP1 POP PUSH2 0x3CDD PUSH0 DUP4 ADD DUP10 PUSH2 0x3B45 JUMP JUMPDEST DUP2 DUP2 SUB PUSH1 0x20 DUP4 ADD MSTORE PUSH2 0x3CEF DUP2 DUP9 PUSH2 0x3C4A JUMP JUMPDEST SWAP1 POP DUP2 DUP2 SUB PUSH1 0x40 DUP4 ADD MSTORE PUSH2 0x3D03 DUP2 DUP8 PUSH2 0x3C92 JUMP JUMPDEST SWAP1 POP PUSH2 0x3D12 PUSH1 0x60 DUP4 ADD DUP7 PUSH2 0x3745 JUMP JUMPDEST PUSH2 0x3D1F PUSH1 0x80 DUP4 ADD DUP6 PUSH2 0x3745 JUMP JUMPDEST PUSH2 0x3D2C PUSH1 0xA0 DUP4 ADD DUP5 PUSH2 0x37C2 JUMP JUMPDEST SWAP8 SWAP7 POP POP POP POP POP POP POP JUMP JUMPDEST PUSH0 PUSH1 0xC0 DUP4 ADD PUSH0 DUP4 ADD MLOAD PUSH2 0x3D4C PUSH0 DUP7 ADD DUP3 PUSH2 0x34C4 JUMP JUMPDEST POP PUSH1 0x20 DUP4 ADD MLOAD DUP5 DUP3 SUB PUSH1 0x20 DUP7 ADD MSTORE PUSH2 0x3D64 DUP3 DUP3 PUSH2 0x34FB JUMP JUMPDEST SWAP2 POP POP PUSH1 0x40 DUP4 ADD MLOAD DUP5 DUP3 SUB PUSH1 0x40 DUP7 ADD MSTORE PUSH2 0x3D7E DUP3 DUP3 PUSH2 0x354D JUMP JUMPDEST SWAP2 POP POP PUSH1 0x60 DUP4 ADD MLOAD PUSH2 0x3D93 PUSH1 0x60 DUP7 ADD DUP3 PUSH2 0x3585 JUMP JUMPDEST POP PUSH1 0x80 DUP4 ADD MLOAD PUSH2 0x3DA6 PUSH1 0x80 DUP7 ADD DUP3 PUSH2 0x3585 JUMP JUMPDEST POP PUSH1 0xA0 DUP4 ADD MLOAD PUSH2 0x3DB9 PUSH1 0xA0 DUP7 ADD DUP3 PUSH2 0x359D JUMP JUMPDEST POP DUP1 SWAP2 POP POP SWAP3 SWAP2 POP POP JUMP JUMPDEST PUSH0 PUSH1 0x20 DUP3 ADD SWAP1 POP DUP2 DUP2 SUB PUSH0 DUP4 ADD MSTORE PUSH2 0x3DDC DUP2 DUP5 PUSH2 0x3D37 JUMP JUMPDEST SWAP1 POP SWAP3 SWAP2 POP POP JUMP JUMPDEST PUSH32 0x4E487B7100000000000000000000000000000000000000000000000000000000 PUSH0 MSTORE PUSH1 0x32 PUSH1 0x4 MSTORE PUSH1 0x24 PUSH0 REVERT JUMPDEST PUSH32 0x4E487B7100000000000000000000000000000000000000000000000000000000 PUSH0 MSTORE PUSH1 0x22 PUSH1 0x4 MSTORE PUSH1 0x24 PUSH0 REVERT JUMPDEST PUSH0 PUSH1 0x2 DUP3 DIV SWAP1 POP PUSH1 0x1 DUP3 AND DUP1 PUSH2 0x3E55 JUMPI PUSH1 0x7F DUP3 AND SWAP2 POP JUMPDEST PUSH1 0x20 DUP3 LT DUP2 SUB PUSH2 0x3E68 JUMPI PUSH2 0x3E67 PUSH2 0x3E11 JUMP JUMPDEST JUMPDEST POP SWAP2 SWAP1 POP JUMP JUMPDEST PUSH32 0x4E487B7100000000000000000000000000000000000000000000000000000000 PUSH0 MSTORE PUSH1 0x11 PUSH1 0x4 MSTORE PUSH1 0x24 PUSH0 REVERT JUMPDEST PUSH0 PUSH2 0x3EA5 DUP3 PUSH2 0x33E8 JUMP JUMPDEST SWAP2 POP PUSH32 0xFFFFFFFFFFFFFFFFFFFFFFFFFFFFFFFFFFFFFFFFFFFFFFFFFFFFFFFFFFFFFFFF DUP3 SUB PUSH2 0x3ED7 JUMPI PUSH2 0x3ED6 PUSH2 0x3E6E JUMP JUMPDEST JUMPDEST PUSH1 0x1 DUP3 ADD SWAP1 POP SWAP2 SWAP1 POP JUMP JUMPDEST PUSH0 DUP2 SWAP1 POP SWAP3 SWAP2 POP POP JUMP JUMPDEST PUSH0 PUSH2 0x3EF6 DUP3 PUSH2 0x34D3 JUMP JUMPDEST PUSH2 0x3F00 DUP2 DUP6 PUSH2 0x3EE2 JUMP JUMPDEST SWAP4 POP PUSH2 0x3F10 DUP2 DUP6 PUSH1 0x20 DUP7 ADD PUSH2 0x34ED JUMP JUMPDEST DUP1 DUP5 ADD SWAP2 POP POP SWAP3 SWAP2 POP POP JUMP JUMPDEST PUSH0 PUSH2 0x3F27 DUP3 DUP5 PUSH2 0x3EEC JUMP JUMPDEST SWAP2 POP DUP2 SWAP1 POP SWAP3 SWAP2 POP POP JUMP JUMPDEST PUSH0 PUSH2 0x3F3C DUP3 PUSH2 0x33E8 JUMP JUMPDEST SWAP2 POP PUSH2 0x3F47 DUP4 PUSH2 0x33E8 JUMP JUMPDEST SWAP3 POP DUP3 DUP3 SUB SWAP1 POP DUP2 DUP2 GT ISZERO PUSH2 0x3F5F JUMPI PUSH2 0x3F5E PUSH2 0x3E6E JUMP JUMPDEST JUMPDEST SWAP3 SWAP2 POP POP JUMP JUMPDEST PUSH32 0x496E76616C6964206C696D69742028312D313030290000000000000000000000 PUSH0 DUP3 ADD MSTORE POP JUMP JUMPDEST PUSH0 PUSH2 0x3F99 PUSH1 0x15 DUP4 PUSH2 0x3C3A JUMP JUMPDEST SWAP2 POP PUSH2 0x3FA4 DUP3 PUSH2 0x3F65 JUMP JUMPDEST PUSH1 0x20 DUP3 ADD SWAP1 POP SWAP2 SWAP1 POP JUMP JUMPDEST PUSH0 PUSH1 0x20 DUP3 ADD SWAP1 POP DUP2 DUP2 SUB PUSH0 DUP4 ADD MSTORE PUSH2 0x3FC6 DUP2 PUSH2 0x3F8D JUMP JUMPDEST SWAP1 POP SWAP2 SWAP1 POP JUMP JUMPDEST PUSH0 PUSH1 0x40 DUP3 ADD SWAP1 POP PUSH2 0x3FE0 PUSH0 DUP4 ADD DUP6 PUSH2 0x37C2 JUMP JUMPDEST PUSH2 0x3FED PUSH1 0x20 DUP4 ADD DUP5 PUSH2 0x3B45 JUMP JUMPDEST SWAP4 SWAP3 POP POP POP JUMP JUMPDEST PUSH2 0x3FFD DUP2 PUSH2 0x321F JUMP JUMPDEST DUP2 EQ PUSH2 0x4007 JUMPI PUSH0 PUSH0 REVERT JUMPDEST POP JUMP JUMPDEST PUSH0 DUP2 MLOAD SWAP1 POP PUSH2 0x4018 DUP2 PUSH2 0x3FF4 JUMP JUMPDEST SWAP3 SWAP2 POP POP JUMP JUMPDEST PUSH0 PUSH1 0x20 DUP3 DUP5 SUB SLT ISZERO PUSH2 0x4033 JUMPI PUSH2 0x4032 PUSH2 0x3197 JUMP JUMPDEST JUMPDEST PUSH0 PUSH2 0x4040 DUP5 DUP3 DUP6 ADD PUSH2 0x400A JUMP JUMPDEST SWAP2 POP POP SWAP3 SWAP2 POP POP JUMP JUMPDEST PUSH32 0x4E6F7420617574686F72697A6564000000000000000000000000000000000000 PUSH0 DUP3 ADD MSTORE POP JUMP JUMPDEST PUSH0 PUSH2 0x407D PUSH1 0xE DUP4 PUSH2 0x3C3A JUMP JUMPDEST SWAP2 POP PUSH2 0x4088 DUP3 PUSH2 0x4049 JUMP JUMPDEST PUSH1 0x20 DUP3 ADD SWAP1 POP SWAP2 SWAP1 POP JUMP JUMPDEST PUSH0 PUSH1 0x20 DUP3 ADD SWAP1 POP DUP2 DUP2 SUB PUSH0 DUP4 ADD MSTORE PUSH2 0x40AA DUP2 PUSH2 0x4071 JUMP JUMPDEST SWAP1 POP SWAP2 SWAP1 POP JUMP JUMPDEST PUSH32 0x4E487B7100000000000000000000000000000000000000000000000000000000 PUSH0 MSTORE PUSH1 0x12 PUSH1 0x4 MSTORE PUSH1 0x24 PUSH0 REVERT JUMPDEST PUSH0 PUSH2 0x40E8 DUP3 PUSH2 0x33E8 JUMP JUMPDEST SWAP2 POP PUSH2 0x40F3 DUP4 PUSH2 0x33E8 JUMP JUMPDEST SWAP3 POP DUP3 PUSH2 0x4103 JUMPI PUSH2 0x4102 PUSH2 0x40B1 JUMP JUMPDEST JUMPDEST DUP3 DUP3 DIV SWAP1 POP SWAP3 SWAP2 POP POP JUMP JUMPDEST PUSH0 DUP2 SWAP1 POP DUP2 PUSH0 MSTORE PUSH1 0x20 PUSH0 KECCAK256 SWAP1 POP SWAP2 SWAP1 POP JUMP JUMPDEST PUSH0 PUSH1 0x20 PUSH1 0x1F DUP4 ADD DIV SWAP1 POP SWAP2 SWAP1 POP JUMP JUMPDEST PUSH0 DUP3 DUP3 SHL SWAP1 POP SWAP3 SWAP2 POP POP JUMP JUMPDEST PUSH0 PUSH1 0x8 DUP4 MUL PUSH2 0x416A PUSH32 0xFFFFFFFFFFFFFFFFFFFFFFFFFFFFFFFFFFFFFFFFFFFFFFFFFFFFFFFFFFFFFFFF DUP3 PUSH2 0x412F JUMP JUMPDEST PUSH2 0x4174 DUP7 DUP4 PUSH2 0x412F JUMP JUMPDEST SWAP6 POP DUP1 NOT DUP5 AND SWAP4 POP DUP1 DUP7 AND DUP5 OR SWAP3 POP POP POP SWAP4 SWAP3 POP POP POP JUMP JUMPDEST PUSH0 DUP2 SWAP1 POP SWAP2 SWAP1 POP JUMP JUMPDEST PUSH0 PUSH2 0x41AF PUSH2 0x41AA PUSH2 0x41A5 DUP5 PUSH2 0x33E8 JUMP JUMPDEST PUSH2 0x418C JUMP JUMPDEST PUSH2 0x33E8 JUMP JUMPDEST SWAP1 POP SWAP2 SWAP1 POP JUMP JUMPDEST PUSH0 DUP2 SWAP1 POP SWAP2 SWAP1 POP JUMP JUMPDEST PUSH2 0x41C8 DUP4 PUSH2 0x4195 JUMP JUMPDEST PUSH2 0x41DC PUSH2 0x41D4 DUP3 PUSH2 0x41B6 JUMP JUMPDEST DUP5 DUP5 SLOAD PUSH2 0x413B JUMP JUMPDEST DUP3 SSTORE POP POP POP POP JUMP JUMPDEST PUSH0 PUSH0 SWAP1 POP SWAP1 JUMP JUMPDEST PUSH2 0x41F3 PUSH2 0x41E4 JUMP JUMPDEST PUSH2 0x41FE DUP2 DUP5 DUP5 PUSH2 0x41BF JUMP JUMPDEST POP POP POP JUMP JUMPDEST JUMPDEST DUP2 DUP2 LT ISZERO PUSH2 0x4221 JUMPI PUSH2 0x4216 PUSH0 DUP3 PUSH2 0x41EB JUMP JUMPDEST PUSH1 0x1 DUP2 ADD SWAP1 POP PUSH2 0x4204 JUMP JUMPDEST POP POP JUMP JUMPDEST PUSH1 0x1F DUP3 GT ISZERO PUSH2 0x4266 JUMPI PUSH2 0x4237 DUP2 PUSH2 0x410E JUMP JUMPDEST PUSH2 0x4240 DUP5 PUSH2 0x4120 JUMP JUMPDEST DUP2 ADD PUSH1 0x20 DUP6 LT ISZERO PUSH2 0x424F JUMPI DUP2 SWAP1 POP JUMPDEST PUSH2 0x4263 PUSH2 0x425B DUP6 PUSH2 0x4120 JUMP JUMPDEST DUP4 ADD DUP3 PUSH2 0x4203 JUMP JUMPDEST POP POP JUMPDEST POP POP POP JUMP JUMPDEST PUSH0 DUP3 DUP3 SHR SWAP1 POP SWAP3 SWAP2 POP POP JUMP JUMPDEST PUSH0 PUSH2 0x4286 PUSH0 NOT DUP5 PUSH1 0x8 MUL PUSH2 0x426B JUMP JUMPDEST NOT DUP1 DUP4 AND SWAP2 POP POP SWAP3 SWAP2 POP POP JUMP JUMPDEST PUSH0 PUSH2 0x429E DUP4 DUP4 PUSH2 0x4277 JUMP JUMPDEST SWAP2 POP DUP3 PUSH1 0x2 MUL DUP3 OR SWAP1 POP SWAP3 SWAP2 POP POP JUMP JUMPDEST PUSH2 0x42B7 DUP3 PUSH2 0x34D3 JUMP JUMPDEST PUSH8 0xFFFFFFFFFFFFFFFF DUP2 GT ISZERO PUSH2 0x42D0 JUMPI PUSH2 0x42CF PUSH2 0x32C4 JUMP JUMPDEST JUMPDEST PUSH2 0x42DA DUP3 SLOAD PUSH2 0x3E3E JUMP JUMPDEST PUSH2 0x42E5 DUP3 DUP3 DUP6 PUSH2 0x4225 JUMP JUMPDEST PUSH0 PUSH1 0x20 SWAP1 POP PUSH1 0x1F DUP4 GT PUSH1 0x1 DUP2 EQ PUSH2 0x4316 JUMPI PUSH0 DUP5 ISZERO PUSH2 0x4304 JUMPI DUP3 DUP8 ADD MLOAD SWAP1 POP JUMPDEST PUSH2 0x430E DUP6 DUP3 PUSH2 0x4293 JUMP JUMPDEST DUP7 SSTORE POP PUSH2 0x4375 JUMP JUMPDEST PUSH1 0x1F NOT DUP5 AND PUSH2 0x4324 DUP7 PUSH2 0x410E JUMP JUMPDEST PUSH0 JUMPDEST DUP3 DUP2 LT ISZERO PUSH2 0x434B JUMPI DUP5 DUP10 ADD MLOAD DUP3 SSTORE PUSH1 0x1 DUP3 ADD SWAP2 POP PUSH1 0x20 DUP6 ADD SWAP5 POP PUSH1 0x20 DUP2 ADD SWAP1 POP PUSH2 0x4326 JUMP JUMPDEST DUP7 DUP4 LT ISZERO PUSH2 0x4368 JUMPI DUP5 DUP10 ADD MLOAD PUSH2 0x4364 PUSH1 0x1F DUP10 AND DUP3 PUSH2 0x4277 JUMP JUMPDEST DUP4 SSTORE POP JUMPDEST PUSH1 0x1 PUSH1 0x2 DUP9 MUL ADD DUP9 SSTORE POP POP POP JUMPDEST POP POP POP POP POP POP JUMP JUMPDEST PUSH0 DUP2 SWAP1 POP DUP2 PUSH0 MSTORE PUSH1 0x20 PUSH0 KECCAK256 SWAP1 POP SWAP2 SWAP1 POP JUMP JUMPDEST PUSH1 0x1F DUP3 GT ISZERO PUSH2 0x43D0 JUMPI PUSH2 0x43A1 DUP2 PUSH2 0x437D JUMP JUMPDEST PUSH2 0x43AA DUP5 PUSH2 0x4120 JUMP JUMPDEST DUP2 ADD PUSH1 0x20 DUP6 LT ISZERO PUSH2 0x43B9 JUMPI DUP2 SWAP1 POP JUMPDEST PUSH2 0x43CD PUSH2 0x43C5 DUP6 PUSH2 0x4120 JUMP JUMPDEST DUP4 ADD DUP3 PUSH2 0x4203 JUMP JUMPDEST POP POP JUMPDEST POP POP POP JUMP JUMPDEST PUSH2 0x43DE DUP3 PUSH2 0x3533 JUMP JUMPDEST PUSH8 0xFFFFFFFFFFFFFFFF DUP2 GT ISZERO PUSH2 0x43F7 JUMPI PUSH2 0x43F6 PUSH2 0x32C4 JUMP JUMPDEST JUMPDEST PUSH2 0x4401 DUP3 SLOAD PUSH2 0x3E3E JUMP JUMPDEST PUSH2 0x440C DUP3 DUP3 DUP6 PUSH2 0x438F JUMP JUMPDEST PUSH0 PUSH1 0x20 SWAP1 POP PUSH1 0x1F DUP4 GT PUSH1 0x1 DUP2 EQ PUSH2 0x443D JUMPI PUSH0 DUP5 ISZERO PUSH2 0x442B JUMPI DUP3 DUP8 ADD MLOAD SWAP1 POP JUMPDEST PUSH2 0x4435 DUP6 DUP3 PUSH2 0x4293 JUMP JUMPDEST DUP7 SSTORE POP PUSH2 0x449C JUMP JUMPDEST PUSH1 0x1F NOT DUP5 AND PUSH2 0x444B DUP7 PUSH2 0x437D JUMP JUMPDEST PUSH0 JUMPDEST DUP3 DUP2 LT ISZERO PUSH2 0x4472 JUMPI DUP5 DUP10 ADD MLOAD DUP3 SSTORE PUSH1 0x1 DUP3 ADD SWAP2 POP PUSH1 0x20 DUP6 ADD SWAP5 POP PUSH1 0x20 DUP2 ADD SWAP1 POP PUSH2 0x444D JUMP JUMPDEST DUP7 DUP4 LT ISZERO PUSH2 0x448F JUMPI DUP5 DUP10 ADD MLOAD PUSH2 0x448B PUSH1 0x1F DUP10 AND DUP3 PUSH2 0x4277 JUMP JUMPDEST DUP4 SSTORE POP JUMPDEST PUSH1 0x1 PUSH1 0x2 DUP9 MUL ADD DUP9 SSTORE POP POP POP JUMPDEST POP POP POP POP POP POP JUMP JUMPDEST PUSH0 PUSH1 0x40 DUP3 ADD SWAP1 POP PUSH2 0x44B7 PUSH0 DUP4 ADD DUP6 PUSH2 0x3745 JUMP JUMPDEST PUSH2 0x44C4 PUSH1 0x20 DUP4 ADD DUP5 PUSH2 0x3745 JUMP JUMPDEST SWAP4 SWAP3 POP POP POP JUMP JUMPDEST PUSH32 0x496E76616C69642074696D652072616E67650000000000000000000000000000 PUSH0 DUP3 ADD MSTORE POP JUMP JUMPDEST PUSH0 PUSH2 0x44FF PUSH1 0x12 DUP4 PUSH2 0x3C3A JUMP JUMPDEST SWAP2 POP PUSH2 0x450A DUP3 PUSH2 0x44CB JUMP JUMPDEST PUSH1 0x20 DUP3 ADD SWAP1 POP SWAP2 SWAP1 POP JUMP JUMPDEST PUSH0 PUSH1 0x20 DUP3 ADD SWAP1 POP DUP2 DUP2 SUB PUSH0 DUP4 ADD MSTORE PUSH2 0x452C DUP2 PUSH2 0x44F3 JUMP JUMPDEST SWAP1 POP SWAP2 SWAP1 POP JUMP JUMPDEST PUSH32 0x496E76616C69642072616E676500000000000000000000000000000000000000 PUSH0 DUP3 ADD MSTORE POP JUMP JUMPDEST PUSH0 PUSH2 0x4567 PUSH1 0xD DUP4 PUSH2 0x3C3A JUMP JUMPDEST SWAP2 POP PUSH2 0x4572 DUP3 PUSH2 0x4533 JUMP JUMPDEST PUSH1 0x20 DUP3 ADD SWAP1 POP SWAP2 SWAP1 POP JUMP JUMPDEST PUSH0 PUSH1 0x20 DUP3 ADD SWAP1 POP DUP2 DUP2 SUB PUSH0 DUP4 ADD MSTORE PUSH2 0x4594 DUP2 PUSH2 0x455B JUMP JUMPDEST SWAP1 POP SWAP2 SWAP1 POP JUMP JUMPDEST PUSH32 0x456E6420696E646578206F7574206F6620626F756E6473000000000000000000 PUSH0 DUP3 ADD MSTORE POP JUMP JUMPDEST PUSH0 PUSH2 0x45CF PUSH1 0x17 DUP4 PUSH2 0x3C3A JUMP JUMPDEST SWAP2 POP PUSH2 0x45DA DUP3 PUSH2 0x459B JUMP JUMPDEST PUSH1 0x20 DUP3 ADD SWAP1 POP SWAP2 SWAP1 POP JUMP JUMPDEST PUSH0 PUSH1 0x20 DUP3 ADD SWAP1 POP DUP2 DUP2 SUB PUSH0 DUP4 ADD MSTORE PUSH2 0x45FC DUP2 PUSH2 0x45C3 JUMP JUMPDEST SWAP1 POP SWAP2 SWAP1 POP JUMP JUMPDEST PUSH0 PUSH2 0x460D DUP3 PUSH2 0x33E8 JUMP JUMPDEST SWAP2 POP PUSH2 0x4618 DUP4 PUSH2 0x33E8 JUMP JUMPDEST SWAP3 POP DUP3 DUP3 ADD SWAP1 POP DUP1 DUP3 GT ISZERO PUSH2 0x4630 JUMPI PUSH2 0x462F PUSH2 0x3E6E JUMP JUMPDEST JUMPDEST SWAP3 SWAP2 POP POP JUMP JUMPDEST PUSH32 0x496E76616C6964206C6F6720696E646578000000000000000000000000000000 PUSH0 DUP3 ADD MSTORE POP JUMP JUMPDEST PUSH0 PUSH2 0x466A PUSH1 0x11 DUP4 PUSH2 0x3C3A JUMP JUMPDEST SWAP2 POP PUSH2 0x4675 DUP3 PUSH2 0x4636 JUMP JUMPDEST PUSH1 0x20 DUP3 ADD SWAP1 POP SWAP2 SWAP1 POP JUMP JUMPDEST PUSH0 PUSH1 0x20 DUP3 ADD SWAP1 POP DUP2 DUP2 SUB PUSH0 DUP4 ADD MSTORE PUSH2 0x4697 DUP2 PUSH2 0x465E JUMP JUMPDEST SWAP1 POP SWAP2 SWAP1 POP JUMP JUMPDEST PUSH0 PUSH1 0x40 DUP3 ADD SWAP1 POP PUSH2 0x46B1 PUSH0 DUP4 ADD DUP6 PUSH2 0x3B45 JUMP JUMPDEST PUSH2 0x46BE PUSH1 0x20 DUP4 ADD DUP5 PUSH2 0x37C2 JUMP JUMPDEST SWAP4 SWAP3 POP POP POP JUMP INVALID LOG2 PUSH5 0x6970667358 0x22 SLT KECCAK256 MSIZE PUSH19 0xA4C113E67CBBBF999D04DB39EA658F162524A5 NOT PUSH5 0x2D595CFC68 LOG0 0xED CALLDATACOPY 0xA9 PUSH5 0x736F6C6343 STOP ADDMOD 0x1E STOP CALLER "
		},
		"gasEstimates": {
			"creation": {
				"codeDepositCost": "2633600",
				"executionCost": "infinite",
				"totalCost": "infinite"
			},
			"external": {
				"ADMIN_ROLE()": "436",
				"DEFAULT_ADMIN_ROLE()": "397",
				"EMPLOYEE_ROLE()": "393",
				"FINANCE_ROLE()": "371",
				"HR_ROLE()": "369",
				"addEmployee(address,uint256,uint8,address)": "infinite",
				"addFunds(address,uint256)": "infinite",
				"auditLogger()": "infinite",
				"companyName()": "infinite",
				"deploymentTime()": "infinite",
				"emergencyPause()": "infinite",
				"emergencyUnpause()": "infinite",
				"emergencyWithdraw(address,address,uint256)": "infinite",
				"employeeManager()": "infinite",
				"getRoleAdmin(bytes32)": "infinite",
				"getSystemStatus()": "infinite",
				"grantEmployeeRole(address)": "infinite",
				"grantFinanceRole(address)": "infinite",
				"grantHRRole(address)": "infinite",
				"grantRole(bytes32,address)": "infinite",
				"hasRole(bytes32,address)": "3166",
				"paused()": "2562",
				"paymentProcessor()": "infinite",
				"processPayroll()": "infinite",
				"renounceRole(bytes32,address)": "infinite",
				"revokeRole(bytes32,address)": "infinite",
				"supportsInterface(bytes4)": "764",
				"tokenManager()": "infinite",
				"upgradeEmployeeManager(address)": "infinite",
				"upgradePaymentProcessor(address)": "infinite",
				"upgradeTokenManager(address)": "infinite"
			}
		},
		"methodIdentifiers": {
			"ADMIN_ROLE()": "75b238fc",
			"DEFAULT_ADMIN_ROLE()": "a217fddf",
			"EMPLOYEE_ROLE()": "2a4cab90",
			"FINANCE_ROLE()": "349b5954",
			"HR_ROLE()": "f3c6a198",
			"addEmployee(address,uint256,uint8,address)": "e2d82b45",
			"addFunds(address,uint256)": "bc4b3365",
			"auditLogger()": "0921224b",
			"companyName()": "f5ec2eed",
			"deploymentTime()": "ecda10f5",
			"emergencyPause()": "51858e27",
			"emergencyUnpause()": "4a4e3bd5",
			"emergencyWithdraw(address,address,uint256)": "e63ea408",
			"employeeManager()": "f649ec87",
			"getRoleAdmin(bytes32)": "248a9ca3",
			"getSystemStatus()": "50c1d19d",
			"grantEmployeeRole(address)": "f3b3444b",
			"grantFinanceRole(address)": "f1ceff33",
			"grantHRRole(address)": "18aaa219",
			"grantRole(bytes32,address)": "2f2ff15d",
			"hasRole(bytes32,address)": "91d14854",
			"paused()": "5c975abb",
			"paymentProcessor()": "f1c6bdf8",
			"processPayroll()": "a4c1fd08",
			"renounceRole(bytes32,address)": "36568abe",
			"revokeRole(bytes32,address)": "d547741f",
			"supportsInterface(bytes4)": "01ffc9a7",
			"tokenManager()": "2a709b14",
			"upgradeEmployeeManager(address)": "abfdf199",
			"upgradePaymentProcessor(address)": "f60d1fb1",
			"upgradeTokenManager(address)": "41575bc3"
		}
	},
	"abi": [
		{
			"inputs": [
				{
					"internalType": "string",
					"name": "_companyName",
					"type": "string"
				},
				{
					"internalType": "address",
					"name": "_deployer",
					"type": "address"
				},
				{
					"internalType": "address[]",
					"name": "_initialAdmins",
					"type": "address[]"
				},
				{
					"internalType": "address[]",
					"name": "_supportedTokens",
					"type": "address[]"
				}
			],
			"stateMutability": "nonpayable",
			"type": "constructor"
		},
		{
			"inputs": [],
			"name": "AccessControlBadConfirmation",
			"type": "error"
		},
		{
			"inputs": [
				{
					"internalType": "address",
					"name": "account",
					"type": "address"
				},
				{
					"internalType": "bytes32",
					"name": "neededRole",
					"type": "bytes32"
				}
			],
			"name": "AccessControlUnauthorizedAccount",
			"type": "error"
		},
		{
			"inputs": [
				{
					"internalType": "address",
					"name": "token",
					"type": "address"
				}
			],
			"name": "SafeERC20FailedOperation",
			"type": "error"
		},
		{
			"anonymous": false,
			"inputs": [
				{
					"indexed": false,
					"internalType": "string",
					"name": "component",
					"type": "string"
				},
				{
					"indexed": false,
					"internalType": "address",
					"name": "oldAddress",
					"type": "address"
				},
				{
					"indexed": false,
					"internalType": "address",
					"name": "newAddress",
					"type": "address"
				}
			],
			"name": "ComponentUpgraded",
			"type": "event"
		},
		{
			"anonymous": false,
			"inputs": [
				{
					"indexed": true,
					"internalType": "address",
					"name": "admin",
					"type": "address"
				},
				{
					"indexed": false,
					"internalType": "uint256",
					"name": "timestamp",
					"type": "uint256"
				}
			],
			"name": "EmergencyPaused",
			"type": "event"
		},
		{
			"anonymous": false,
			"inputs": [
				{
					"indexed": true,
					"internalType": "address",
					"name": "admin",
					"type": "address"
				},
				{
					"indexed": false,
					"internalType": "uint256",
					"name": "timestamp",
					"type": "uint256"
				}
			],
			"name": "EmergencyUnpaused",
			"type": "event"
		},
		{
			"anonymous": false,
			"inputs": [
				{
					"indexed": false,
					"internalType": "address",
					"name": "account",
					"type": "address"
				}
			],
			"name": "Paused",
			"type": "event"
		},
		{
			"anonymous": false,
			"inputs": [
				{
					"indexed": false,
					"internalType": "string",
					"name": "companyName",
					"type": "string"
				},
				{
					"indexed": false,
					"internalType": "uint256",
					"name": "timestamp",
					"type": "uint256"
				}
			],
			"name": "PayrollSystemInitialized",
			"type": "event"
		},
		{
			"anonymous": false,
			"inputs": [
				{
					"indexed": true,
					"internalType": "bytes32",
					"name": "role",
					"type": "bytes32"
				},
				{
					"indexed": true,
					"internalType": "bytes32",
					"name": "previousAdminRole",
					"type": "bytes32"
				},
				{
					"indexed": true,
					"internalType": "bytes32",
					"name": "newAdminRole",
					"type": "bytes32"
				}
			],
			"name": "RoleAdminChanged",
			"type": "event"
		},
		{
			"anonymous": false,
			"inputs": [
				{
					"indexed": true,
					"internalType": "bytes32",
					"name": "role",
					"type": "bytes32"
				},
				{
					"indexed": true,
					"internalType": "address",
					"name": "account",
					"type": "address"
				},
				{
					"indexed": true,
					"internalType": "address",
					"name": "sender",
					"type": "address"
				}
			],
			"name": "RoleGranted",
			"type": "event"
		},
		{
			"anonymous": false,
			"inputs": [
				{
					"indexed": true,
					"internalType": "bytes32",
					"name": "role",
					"type": "bytes32"
				},
				{
					"indexed": true,
					"internalType": "address",
					"name": "account",
					"type": "address"
				},
				{
					"indexed": true,
					"internalType": "address",
					"name": "sender",
					"type": "address"
				}
			],
			"name": "RoleRevoked",
			"type": "event"
		},
		{
			"anonymous": false,
			"inputs": [
				{
					"indexed": false,
					"internalType": "address",
					"name": "account",
					"type": "address"
				}
			],
			"name": "Unpaused",
			"type": "event"
		},
		{
			"inputs": [],
			"name": "ADMIN_ROLE",
			"outputs": [
				{
					"internalType": "bytes32",
					"name": "",
					"type": "bytes32"
				}
			],
			"stateMutability": "view",
			"type": "function"
		},
		{
			"inputs": [],
			"name": "DEFAULT_ADMIN_ROLE",
			"outputs": [
				{
					"internalType": "bytes32",
					"name": "",
					"type": "bytes32"
				}
			],
			"stateMutability": "view",
			"type": "function"
		},
		{
			"inputs": [],
			"name": "EMPLOYEE_ROLE",
			"outputs": [
				{
					"internalType": "bytes32",
					"name": "",
					"type": "bytes32"
				}
			],
			"stateMutability": "view",
			"type": "function"
		},
		{
			"inputs": [],
			"name": "FINANCE_ROLE",
			"outputs": [
				{
					"internalType": "bytes32",
					"name": "",
					"type": "bytes32"
				}
			],
			"stateMutability": "view",
			"type": "function"
		},
		{
			"inputs": [],
			"name": "HR_ROLE",
			"outputs": [
				{
					"internalType": "bytes32",
					"name": "",
					"type": "bytes32"
				}
			],
			"stateMutability": "view",
			"type": "function"
		},
		{
			"inputs": [
				{
					"internalType": "address",
					"name": "_wallet",
					"type": "address"
				},
				{
					"internalType": "uint256",
					"name": "_baseAmount",
					"type": "uint256"
				},
				{
					"internalType": "enum EmployeeManager.PaymentSchedule",
					"name": "_schedule",
					"type": "uint8"
				},
				{
					"internalType": "address",
					"name": "_preferredToken",
					"type": "address"
				}
			],
			"name": "addEmployee",
			"outputs": [],
			"stateMutability": "nonpayable",
			"type": "function"
		},
		{
			"inputs": [
				{
					"internalType": "address",
					"name": "_token",
					"type": "address"
				},
				{
					"internalType": "uint256",
					"name": "_amount",
					"type": "uint256"
				}
			],
			"name": "addFunds",
			"outputs": [],
			"stateMutability": "payable",
			"type": "function"
		},
		{
			"inputs": [],
			"name": "auditLogger",
			"outputs": [
				{
					"internalType": "contract AuditLogger",
					"name": "",
					"type": "address"
				}
			],
			"stateMutability": "view",
			"type": "function"
		},
		{
			"inputs": [],
			"name": "companyName",
			"outputs": [
				{
					"internalType": "string",
					"name": "",
					"type": "string"
				}
			],
			"stateMutability": "view",
			"type": "function"
		},
		{
			"inputs": [],
			"name": "deploymentTime",
			"outputs": [
				{
					"internalType": "uint256",
					"name": "",
					"type": "uint256"
				}
			],
			"stateMutability": "view",
			"type": "function"
		},
		{
			"inputs": [],
			"name": "emergencyPause",
			"outputs": [],
			"stateMutability": "nonpayable",
			"type": "function"
		},
		{
			"inputs": [],
			"name": "emergencyUnpause",
			"outputs": [],
			"stateMutability": "nonpayable",
			"type": "function"
		},
		{
			"inputs": [
				{
					"internalType": "address",
					"name": "_token",
					"type": "address"
				},
				{
					"internalType": "address",
					"name": "_to",
					"type": "address"
				},
				{
					"internalType": "uint256",
					"name": "_amount",
					"type": "uint256"
				}
			],
			"name": "emergencyWithdraw",
			"outputs": [],
			"stateMutability": "nonpayable",
			"type": "function"
		},
		{
			"inputs": [],
			"name": "employeeManager",
			"outputs": [
				{
					"internalType": "contract EmployeeManager",
					"name": "",
					"type": "address"
				}
			],
			"stateMutability": "view",
			"type": "function"
		},
		{
			"inputs": [
				{
					"internalType": "bytes32",
					"name": "role",
					"type": "bytes32"
				}
			],
			"name": "getRoleAdmin",
			"outputs": [
				{
					"internalType": "bytes32",
					"name": "",
					"type": "bytes32"
				}
			],
			"stateMutability": "view",
			"type": "function"
		},
		{
			"inputs": [],
			"name": "getSystemStatus",
			"outputs": [
				{
					"internalType": "string",
					"name": "_companyName",
					"type": "string"
				},
				{
					"internalType": "bool",
					"name": "_isPaused",
					"type": "bool"
				},
				{
					"internalType": "uint256",
					"name": "_totalEmployees",
					"type": "uint256"
				},
				{
					"internalType": "uint256",
					"name": "_supportedTokensCount",
					"type": "uint256"
				},
				{
					"internalType": "uint256",
					"name": "_deploymentTime",
					"type": "uint256"
				}
			],
			"stateMutability": "view",
			"type": "function"
		},
		{
			"inputs": [
				{
					"internalType": "address",
					"name": "_account",
					"type": "address"
				}
			],
			"name": "grantEmployeeRole",
			"outputs": [],
			"stateMutability": "nonpayable",
			"type": "function"
		},
		{
			"inputs": [
				{
					"internalType": "address",
					"name": "_account",
					"type": "address"
				}
			],
			"name": "grantFinanceRole",
			"outputs": [],
			"stateMutability": "nonpayable",
			"type": "function"
		},
		{
			"inputs": [
				{
					"internalType": "address",
					"name": "_account",
					"type": "address"
				}
			],
			"name": "grantHRRole",
			"outputs": [],
			"stateMutability": "nonpayable",
			"type": "function"
		},
		{
			"inputs": [
				{
					"internalType": "bytes32",
					"name": "role",
					"type": "bytes32"
				},
				{
					"internalType": "address",
					"name": "account",
					"type": "address"
				}
			],
			"name": "grantRole",
			"outputs": [],
			"stateMutability": "nonpayable",
			"type": "function"
		},
		{
			"inputs": [
				{
					"internalType": "bytes32",
					"name": "role",
					"type": "bytes32"
				},
				{
					"internalType": "address",
					"name": "account",
					"type": "address"
				}
			],
			"name": "hasRole",
			"outputs": [
				{
					"internalType": "bool",
					"name": "",
					"type": "bool"
				}
			],
			"stateMutability": "view",
			"type": "function"
		},
		{
			"inputs": [],
			"name": "paused",
			"outputs": [
				{
					"internalType": "bool",
					"name": "",
					"type": "bool"
				}
			],
			"stateMutability": "view",
			"type": "function"
		},
		{
			"inputs": [],
			"name": "paymentProcessor",
			"outputs": [
				{
					"internalType": "contract PaymentProcessor",
					"name": "",
					"type": "address"
				}
			],
			"stateMutability": "view",
			"type": "function"
		},
		{
			"inputs": [],
			"name": "processPayroll",
			"outputs": [],
			"stateMutability": "nonpayable",
			"type": "function"
		},
		{
			"inputs": [
				{
					"internalType": "bytes32",
					"name": "role",
					"type": "bytes32"
				},
				{
					"internalType": "address",
					"name": "callerConfirmation",
					"type": "address"
				}
			],
			"name": "renounceRole",
			"outputs": [],
			"stateMutability": "nonpayable",
			"type": "function"
		},
		{
			"inputs": [
				{
					"internalType": "bytes32",
					"name": "role",
					"type": "bytes32"
				},
				{
					"internalType": "address",
					"name": "account",
					"type": "address"
				}
			],
			"name": "revokeRole",
			"outputs": [],
			"stateMutability": "nonpayable",
			"type": "function"
		},
		{
			"inputs": [
				{
					"internalType": "bytes4",
					"name": "interfaceId",
					"type": "bytes4"
				}
			],
			"name": "supportsInterface",
			"outputs": [
				{
					"internalType": "bool",
					"name": "",
					"type": "bool"
				}
			],
			"stateMutability": "view",
			"type": "function"
		},
		{
			"inputs": [],
			"name": "tokenManager",
			"outputs": [
				{
					"internalType": "contract TokenManager",
					"name": "",
					"type": "address"
				}
			],
			"stateMutability": "view",
			"type": "function"
		},
		{
			"inputs": [
				{
					"internalType": "address",
					"name": "_newManager",
					"type": "address"
				}
			],
			"name": "upgradeEmployeeManager",
			"outputs": [],
			"stateMutability": "nonpayable",
			"type": "function"
		},
		{
			"inputs": [
				{
					"internalType": "address",
					"name": "_newProcessor",
					"type": "address"
				}
			],
			"name": "upgradePaymentProcessor",
			"outputs": [],
			"stateMutability": "nonpayable",
			"type": "function"
		},
		{
			"inputs": [
				{
					"internalType": "address payable",
					"name": "_newManager",
					"type": "address"
				}
			],
			"name": "upgradeTokenManager",
			"outputs": [],
			"stateMutability": "nonpayable",
			"type": "function"
		},
		{
			"stateMutability": "payable",
			"type": "receive"
		}
	]
}