{
	"data": {
		"bytecode": {
			"linkReferences": {},
			"object": "6080604052600a600655348015610014575f5ffd5b5060405161527138038061527183398181016040528101906100369190610695565b600180819055508160025f6101000a81548173ffffffffffffffffffffffffffffffffffffffff021916908373ffffffffffffffffffffffffffffffffffffffff1602179055506100c45f6040518060400160405280600381526020017f4554480000000000000000000000000000000000000000000000000000000000815250601261015e60201b60201c565b5f5f90505b8151811015610156575f73ffffffffffffffffffffffffffffffffffffffff168282815181106100fc576100fb6106ef565b5b602002602001015173ffffffffffffffffffffffffffffffffffffffff161461014957610148828281518110610135576101346106ef565b5b602002602001015161039f60201b60201c565b5b80806001019150506100c9565b505050610bd8565b6040518060c001604052808473ffffffffffffffffffffffffffffffffffffffff1681526020018381526020018260ff1681526020016001151581526020015f81526020015f81525060045f8573ffffffffffffffffffffffffffffffffffffffff1673ffffffffffffffffffffffffffffffffffffffff1681526020019081526020015f205f820151815f015f6101000a81548173ffffffffffffffffffffffffffffffffffffffff021916908373ffffffffffffffffffffffffffffffffffffffff160217905550602082015181600101908161023d919061092c565b506040820151816002015f6101000a81548160ff021916908360ff16021790555060608201518160020160016101000a81548160ff0219169083151502179055506080820151816003015560a08201518160040155905050600383908060018154018082558091505060019003905f5260205f20015f9091909190916101000a81548173ffffffffffffffffffffffffffffffffffffffff021916908373ffffffffffffffffffffffffffffffffffffffff160217905550600160055f8573ffffffffffffffffffffffffffffffffffffffff1673ffffffffffffffffffffffffffffffffffffffff1681526020019081526020015f205f6101000a81548160ff0219169083151502179055508273ffffffffffffffffffffffffffffffffffffffff167f3be0896d4cd1d645bdae8ade25a54bcdbb2c685ce55ac7e7bead95d0802b32de8383604051610392929190610a6c565b60405180910390a2505050565b5f6040518060400160405280600581526020017f544f4b454e00000000000000000000000000000000000000000000000000000081525090505f601290508273ffffffffffffffffffffffffffffffffffffffff1663313ce5676040518163ffffffff1660e01b8152600401602060405180830381865afa92505050801561044557506040513d601f19601f820116820180604052508101906104429190610ac4565b60015b1561044f57809150505b8273ffffffffffffffffffffffffffffffffffffffff166395d89b416040518163ffffffff1660e01b81526004015f60405180830381865afa9250505080156104ba57506040513d5f823e3d601f19601f820116820180604052508101906104b79190610b91565b60015b156104c457809250505b6104d583838361015e60201b60201c565b505050565b5f604051905090565b5f5ffd5b5f5ffd5b5f73ffffffffffffffffffffffffffffffffffffffff82169050919050565b5f610514826104eb565b9050919050565b6105248161050a565b811461052e575f5ffd5b50565b5f8151905061053f8161051b565b92915050565b5f5ffd5b5f601f19601f8301169050919050565b7f4e487b71000000000000000000000000000000000000000000000000000000005f52604160045260245ffd5b61058f82610549565b810181811067ffffffffffffffff821117156105ae576105ad610559565b5b80604052505050565b5f6105c06104da565b90506105cc8282610586565b919050565b5f67ffffffffffffffff8211156105eb576105ea610559565b5b602082029050602081019050919050565b5f5ffd5b5f61061261060d846105d1565b6105b7565b90508083825260208201905060208402830185811115610635576106346105fc565b5b835b8181101561065e578061064a8882610531565b845260208401935050602081019050610637565b5050509392505050565b5f82601f83011261067c5761067b610545565b5b815161068c848260208601610600565b91505092915050565b5f5f604083850312156106ab576106aa6104e3565b5b5f6106b885828601610531565b925050602083015167ffffffffffffffff8111156106d9576106d86104e7565b5b6106e585828601610668565b9150509250929050565b7f4e487b71000000000000000000000000000000000000000000000000000000005f52603260045260245ffd5b5f81519050919050565b7f4e487b71000000000000000000000000000000000000000000000000000000005f52602260045260245ffd5b5f600282049050600182168061076a57607f821691505b60208210810361077d5761077c610726565b5b50919050565b5f819050815f5260205f209050919050565b5f6020601f8301049050919050565b5f82821b905092915050565b5f600883026107df7fffffffffffffffffffffffffffffffffffffffffffffffffffffffffffffffff826107a4565b6107e986836107a4565b95508019841693508086168417925050509392505050565b5f819050919050565b5f819050919050565b5f61082d61082861082384610801565b61080a565b610801565b9050919050565b5f819050919050565b61084683610813565b61085a61085282610834565b8484546107b0565b825550505050565b5f5f905090565b610871610862565b61087c81848461083d565b505050565b5b8181101561089f576108945f82610869565b600181019050610882565b5050565b601f8211156108e4576108b581610783565b6108be84610795565b810160208510156108cd578190505b6108e16108d985610795565b830182610881565b50505b505050565b5f82821c905092915050565b5f6109045f19846008026108e9565b1980831691505092915050565b5f61091c83836108f5565b9150826002028217905092915050565b6109358261071c565b67ffffffffffffffff81111561094e5761094d610559565b5b6109588254610753565b6109638282856108a3565b5f60209050601f831160018114610994575f8415610982578287015190505b61098c8582610911565b8655506109f3565b601f1984166109a286610783565b5f5b828110156109c9578489015182556001820191506020850194506020810190506109a4565b868310156109e657848901516109e2601f8916826108f5565b8355505b6001600288020188555050505b505050505050565b5f82825260208201905092915050565b8281835e5f83830152505050565b5f610a238261071c565b610a2d81856109fb565b9350610a3d818560208601610a0b565b610a4681610549565b840191505092915050565b5f60ff82169050919050565b610a6681610a51565b82525050565b5f6040820190508181035f830152610a848185610a19565b9050610a936020830184610a5d565b9392505050565b610aa381610a51565b8114610aad575f5ffd5b50565b5f81519050610abe81610a9a565b92915050565b5f60208284031215610ad957610ad86104e3565b5b5f610ae684828501610ab0565b91505092915050565b5f5ffd5b5f67ffffffffffffffff821115610b0d57610b0c610559565b5b610b1682610549565b9050602081019050919050565b5f610b35610b3084610af3565b6105b7565b905082815260208101848484011115610b5157610b50610aef565b5b610b5c848285610a0b565b509392505050565b5f82601f830112610b7857610b77610545565b5b8151610b88848260208601610b23565b91505092915050565b5f60208284031215610ba657610ba56104e3565b5b5f82015167ffffffffffffffff811115610bc357610bc26104e7565b5b610bcf84828501610b64565b91505092915050565b61468c80610be55f395ff3fe6080604052600436106101c5575f3560e01c80636e82ad06116100f6578063a217fddf11610094578063d3c7c2c711610063578063d3c7c2c71461073f578063d547741f14610769578063f5dab71114610791578063f700c829146107d257610287565b8063a217fddf14610681578063bc4b3365146106ab578063c6255626146106c7578063d1a0cc5c1461070357610287565b806376319190116100d057806376319190146105c757806391d14854146105ef5780639304739d1461062b578063a1c7c1a61461065757610287565b80636e82ad061461053957806375151b631461056157806375b238fc1461059d57610287565b806328983ebd11610163578063349b59541161013d578063349b59541461048357806336568abe146104ad5780633aecd0e3146104d55780636d69fcaf1461051157610287565b806328983ebd146103f55780632f2ff15d1461043357806333a738c91461045b57610287565b80631cc0a1c31161019f5780631cc0a1c3146103175780631d163923146103535780631f69565f1461037d578063248a9ca3146103b957610287565b806301ffc9a71461028b5780631132454d146102c75780631c20fadd146102ef57610287565b36610287573460045f5f73ffffffffffffffffffffffffffffffffffffffff1673ffffffffffffffffffffffffffffffffffffffff1681526020019081526020015f206003015f8282546102199190613170565b925050819055503373ffffffffffffffffffffffffffffffffffffffff165f73ffffffffffffffffffffffffffffffffffffffff167f30f1cc05e02cab00b43711c7c16df2558139122d0feea37e4977a748e013a5aa3460405161027d91906131b2565b60405180910390a3005b5f5ffd5b348015610296575f5ffd5b506102b160048036038101906102ac9190613231565b6107fc565b6040516102be9190613276565b60405180910390f35b3480156102d2575f5ffd5b506102ed60048036038101906102e891906132b9565b610875565b005b3480156102fa575f5ffd5b506103156004803603810190610310919061333e565b610abf565b005b348015610322575f5ffd5b5061033d6004803603810190610338919061333e565b611017565b60405161034a91906131b2565b60405180910390f35b34801561035e575f5ffd5b50610367611062565b60405161037491906131b2565b60405180910390f35b348015610388575f5ffd5b506103a3600480360381019061039e919061338e565b61106e565b6040516103b091906134f7565b60405180910390f35b3480156103c4575f5ffd5b506103df60048036038101906103da919061354a565b6111f4565b6040516103ec9190613584565b60405180910390f35b348015610400575f5ffd5b5061041b6004803603810190610416919061359d565b611210565b60405161042a939291906135db565b60405180910390f35b34801561043e575f5ffd5b5061045960048036038101906104549190613610565b61127d565b005b348015610466575f5ffd5b50610481600480360381019061047c919061333e565b61129f565b005b34801561048e575f5ffd5b506104976113ba565b6040516104a49190613584565b60405180910390f35b3480156104b8575f5ffd5b506104d360048036038101906104ce9190613610565b6113de565b005b3480156104e0575f5ffd5b506104fb60048036038101906104f6919061338e565b611459565b60405161050891906131b2565b60405180910390f35b34801561051c575f5ffd5b506105376004803603810190610532919061338e565b6114a2565b005b348015610544575f5ffd5b5061055f600480360381019061055a919061359d565b611762565b005b34801561056c575f5ffd5b506105876004803603810190610582919061338e565b611804565b6040516105949190613276565b60405180910390f35b3480156105a8575f5ffd5b506105b1611821565b6040516105be9190613584565b60405180910390f35b3480156105d2575f5ffd5b506105ed60048036038101906105e8919061338e565b611845565b005b3480156105fa575f5ffd5b5061061560048036038101906106109190613610565b611de9565b6040516106229190613276565b60405180910390f35b348015610636575f5ffd5b5061063f611e4c565b60405161064e9392919061379e565b60405180910390f35b348015610662575f5ffd5b5061066b6120d3565b60405161067891906137f7565b60405180910390f35b34801561068c575f5ffd5b506106956120f8565b6040516106a29190613584565b60405180910390f35b6106c560048036038101906106c0919061359d565b6120fe565b005b3480156106d2575f5ffd5b506106ed60048036038101906106e891906132b9565b61248a565b6040516106fa91906137f7565b60405180910390f35b34801561070e575f5ffd5b506107296004803603810190610724919061333e565b6124c5565b6040516107369190613276565b60405180910390f35b34801561074a575f5ffd5b50610753612734565b6040516107609190613810565b60405180910390f35b348015610774575f5ffd5b5061078f600480360381019061078a9190613610565b6127bf565b005b34801561079c575f5ffd5b506107b760048036038101906107b2919061338e565b6127e1565b6040516107c996959493929190613887565b60405180910390f35b3480156107dd575f5ffd5b506107e66128d7565b6040516107f391906131b2565b60405180910390f35b5f7f7965db0b000000000000000000000000000000000000000000000000000000007bffffffffffffffffffffffffffffffffffffffffffffffffffffffff1916827bffffffffffffffffffffffffffffffffffffffffffffffffffffffff1916148061086e575061086d826128dd565b5b9050919050565b60025f9054906101000a900473ffffffffffffffffffffffffffffffffffffffff1673ffffffffffffffffffffffffffffffffffffffff166391d148547fa49807205ce4d355092ef5a8a18f56e8913cf4a201fbe287825b095693c21775336040518363ffffffff1660e01b81526004016108f19291906138ed565b602060405180830381865afa15801561090c573d5f5f3e3d5ffd5b505050506040513d601f19601f82011682018060405250810190610930919061393e565b806109f2575060025f9054906101000a900473ffffffffffffffffffffffffffffffffffffffff1673ffffffffffffffffffffffffffffffffffffffff166391d148547f940d6b1946ff1d2b5a9f1909219c3c81a370804b5ba0f91ec0828c99a2e6a681336040518363ffffffff1660e01b81526004016109b29291906138ed565b602060405180830381865afa1580156109cd573d5f5f3e3d5ffd5b505050506040513d601f19601f820116820180604052508101906109f1919061393e565b5b610a31576040517f08c379a0000000000000000000000000000000000000000000000000000000008152600401610a28906139b3565b60405180910390fd5b6032811115610a75576040517f08c379a0000000000000000000000000000000000000000000000000000000008152600401610a6c90613a1b565b60405180910390fd5b5f6006549050816006819055507f4ec795d4fbc11bd4b110942496b55a732f92e5cad5729df002860f4c0580d7d18183604051610ab3929190613a39565b60405180910390a15050565b60025f9054906101000a900473ffffffffffffffffffffffffffffffffffffffff1673ffffffffffffffffffffffffffffffffffffffff166391d148547fa49807205ce4d355092ef5a8a18f56e8913cf4a201fbe287825b095693c21775336040518363ffffffff1660e01b8152600401610b3b9291906138ed565b602060405180830381865afa158015610b56573d5f5f3e3d5ffd5b505050506040513d601f19601f82011682018060405250810190610b7a919061393e565b80610c3c575060025f9054906101000a900473ffffffffffffffffffffffffffffffffffffffff1673ffffffffffffffffffffffffffffffffffffffff166391d148547f940d6b1946ff1d2b5a9f1909219c3c81a370804b5ba0f91ec0828c99a2e6a681336040518363ffffffff1660e01b8152600401610bfc9291906138ed565b602060405180830381865afa158015610c17573d5f5f3e3d5ffd5b505050506040513d601f19601f82011682018060405250810190610c3b919061393e565b5b610c7b576040517f08c379a0000000000000000000000000000000000000000000000000000000008152600401610c72906139b3565b60405180910390fd5b610c83612946565b5f73ffffffffffffffffffffffffffffffffffffffff168273ffffffffffffffffffffffffffffffffffffffff1603610cf1576040517f08c379a0000000000000000000000000000000000000000000000000000000008152600401610ce890613aaa565b60405180910390fd5b5f8111610d33576040517f08c379a0000000000000000000000000000000000000000000000000000000008152600401610d2a90613b12565b60405180910390fd5b8060045f8573ffffffffffffffffffffffffffffffffffffffff1673ffffffffffffffffffffffffffffffffffffffff1681526020019081526020015f20600301541015610db6576040517f08c379a0000000000000000000000000000000000000000000000000000000008152600401610dad90613b7a565b60405180910390fd5b5f8160045f8673ffffffffffffffffffffffffffffffffffffffff1673ffffffffffffffffffffffffffffffffffffffff1681526020019081526020015f2060030154610e039190613b98565b90505f606460065460045f8873ffffffffffffffffffffffffffffffffffffffff1673ffffffffffffffffffffffffffffffffffffffff1681526020019081526020015f2060030154610e569190613bcb565b610e609190613c39565b905080821015610ea5576040517f08c379a0000000000000000000000000000000000000000000000000000000008152600401610e9c90613cd9565b60405180910390fd5b8260045f8773ffffffffffffffffffffffffffffffffffffffff1673ffffffffffffffffffffffffffffffffffffffff1681526020019081526020015f206003015f828254610ef49190613b98565b925050819055505f73ffffffffffffffffffffffffffffffffffffffff168573ffffffffffffffffffffffffffffffffffffffff1603610f77578373ffffffffffffffffffffffffffffffffffffffff166108fc8490811502906040515f60405180830381858888f19350505050158015610f71573d5f5f3e3d5ffd5b50610fa3565b610fa284848773ffffffffffffffffffffffffffffffffffffffff166129959092919063ffffffff16565b5b8373ffffffffffffffffffffffffffffffffffffffff168573ffffffffffffffffffffffffffffffffffffffff167fe9171aeff46c37ab955b8aff908e14ae9732bd06634fa131226cfe5c25bfd2fb8560405161100091906131b2565b60405180910390a35050611012612a14565b505050565b5f5f73ffffffffffffffffffffffffffffffffffffffff168473ffffffffffffffffffffffffffffffffffffffff160361105557615208905061105b565b61fde890505b9392505050565b5f600380549050905090565b6110766130ee565b60045f8373ffffffffffffffffffffffffffffffffffffffff1673ffffffffffffffffffffffffffffffffffffffff1681526020019081526020015f206040518060c00160405290815f82015f9054906101000a900473ffffffffffffffffffffffffffffffffffffffff1673ffffffffffffffffffffffffffffffffffffffff1673ffffffffffffffffffffffffffffffffffffffff16815260200160018201805461112290613d24565b80601f016020809104026020016040519081016040528092919081815260200182805461114e90613d24565b80156111995780601f1061117057610100808354040283529160200191611199565b820191905f5260205f20905b81548152906001019060200180831161117c57829003601f168201915b50505050508152602001600282015f9054906101000a900460ff1660ff1660ff1681526020016002820160019054906101000a900460ff16151515158152602001600382015481526020016004820154815250509050919050565b5f5f5f8381526020019081526020015f20600101549050919050565b5f5f5f60045f8673ffffffffffffffffffffffffffffffffffffffff1673ffffffffffffffffffffffffffffffffffffffff1681526020019081526020015f206003015491508382101592508261127257818461126d9190613b98565b611274565b5f5b90509250925092565b611286826111f4565b61128f81612a1d565b6112998383612a31565b50505050565b3073ffffffffffffffffffffffffffffffffffffffff163373ffffffffffffffffffffffffffffffffffffffff161461130d576040517f08c379a000000000000000000000000000000000000000000000000000000000815260040161130490613d9e565b60405180910390fd5b5f73ffffffffffffffffffffffffffffffffffffffff168373ffffffffffffffffffffffffffffffffffffffff1603611389578173ffffffffffffffffffffffffffffffffffffffff166108fc8290811502906040515f60405180830381858888f19350505050158015611383573d5f5f3e3d5ffd5b506113b5565b6113b482828573ffffffffffffffffffffffffffffffffffffffff166129959092919063ffffffff16565b5b505050565b7f940d6b1946ff1d2b5a9f1909219c3c81a370804b5ba0f91ec0828c99a2e6a68181565b6113e6612b1a565b73ffffffffffffffffffffffffffffffffffffffff168173ffffffffffffffffffffffffffffffffffffffff161461144a576040517f6697b23200000000000000000000000000000000000000000000000000000000815260040160405180910390fd5b6114548282612b21565b505050565b5f60045f8373ffffffffffffffffffffffffffffffffffffffff1673ffffffffffffffffffffffffffffffffffffffff1681526020019081526020015f20600301549050919050565b60025f9054906101000a900473ffffffffffffffffffffffffffffffffffffffff1673ffffffffffffffffffffffffffffffffffffffff166391d148547fa49807205ce4d355092ef5a8a18f56e8913cf4a201fbe287825b095693c21775336040518363ffffffff1660e01b815260040161151e9291906138ed565b602060405180830381865afa158015611539573d5f5f3e3d5ffd5b505050506040513d601f19601f8201168201806040525081019061155d919061393e565b8061161f575060025f9054906101000a900473ffffffffffffffffffffffffffffffffffffffff1673ffffffffffffffffffffffffffffffffffffffff166391d148547f940d6b1946ff1d2b5a9f1909219c3c81a370804b5ba0f91ec0828c99a2e6a681336040518363ffffffff1660e01b81526004016115df9291906138ed565b602060405180830381865afa1580156115fa573d5f5f3e3d5ffd5b505050506040513d601f19601f8201168201806040525081019061161e919061393e565b5b61165e576040517f08c379a0000000000000000000000000000000000000000000000000000000008152600401611655906139b3565b60405180910390fd5b5f73ffffffffffffffffffffffffffffffffffffffff168173ffffffffffffffffffffffffffffffffffffffff16036116cc576040517f08c379a00000000000000000000000000000000000000000000000000000000081526004016116c390613e06565b60405180910390fd5b60055f8273ffffffffffffffffffffffffffffffffffffffff1673ffffffffffffffffffffffffffffffffffffffff1681526020019081526020015f205f9054906101000a900460ff1615611756576040517f08c379a000000000000000000000000000000000000000000000000000000000815260040161174d90613e6e565b60405180910390fd5b61175f81612c0a565b50565b5f60045f8473ffffffffffffffffffffffffffffffffffffffff1673ffffffffffffffffffffffffffffffffffffffff1681526020019081526020015f20600301549050818110156117ff578273ffffffffffffffffffffffffffffffffffffffff167f6aad3d1975afe102cc763ebd9287d7f7c164d906ea5c8f0c505dbfa92995bb6d82846040516117f6929190613a39565b60405180910390a25b505050565b6005602052805f5260405f205f915054906101000a900460ff1681565b7fa49807205ce4d355092ef5a8a18f56e8913cf4a201fbe287825b095693c2177581565b60025f9054906101000a900473ffffffffffffffffffffffffffffffffffffffff1673ffffffffffffffffffffffffffffffffffffffff166391d148547fa49807205ce4d355092ef5a8a18f56e8913cf4a201fbe287825b095693c21775336040518363ffffffff1660e01b81526004016118c19291906138ed565b602060405180830381865afa1580156118dc573d5f5f3e3d5ffd5b505050506040513d601f19601f82011682018060405250810190611900919061393e565b806119c2575060025f9054906101000a900473ffffffffffffffffffffffffffffffffffffffff1673ffffffffffffffffffffffffffffffffffffffff166391d148547f940d6b1946ff1d2b5a9f1909219c3c81a370804b5ba0f91ec0828c99a2e6a681336040518363ffffffff1660e01b81526004016119829291906138ed565b602060405180830381865afa15801561199d573d5f5f3e3d5ffd5b505050506040513d601f19601f820116820180604052508101906119c1919061393e565b5b611a01576040517f08c379a00000000000000000000000000000000000000000000000000000000081526004016119f8906139b3565b60405180910390fd5b5f73ffffffffffffffffffffffffffffffffffffffff168173ffffffffffffffffffffffffffffffffffffffff1603611a6f576040517f08c379a0000000000000000000000000000000000000000000000000000000008152600401611a6690613ed6565b60405180910390fd5b60055f8273ffffffffffffffffffffffffffffffffffffffff1673ffffffffffffffffffffffffffffffffffffffff1681526020019081526020015f205f9054906101000a900460ff16611af8576040517f08c379a0000000000000000000000000000000000000000000000000000000008152600401611aef90613f3e565b60405180910390fd5b5f60045f8373ffffffffffffffffffffffffffffffffffffffff1673ffffffffffffffffffffffffffffffffffffffff1681526020019081526020015f206003015414611b7a576040517f08c379a0000000000000000000000000000000000000000000000000000000008152600401611b7190613fcc565b60405180910390fd5b5f60055f8373ffffffffffffffffffffffffffffffffffffffff1673ffffffffffffffffffffffffffffffffffffffff1681526020019081526020015f205f6101000a81548160ff0219169083151502179055505f60045f8373ffffffffffffffffffffffffffffffffffffffff1673ffffffffffffffffffffffffffffffffffffffff1681526020019081526020015f2060020160016101000a81548160ff0219169083151502179055505f5f90505b600380549050811015611da2578173ffffffffffffffffffffffffffffffffffffffff1660038281548110611c6357611c62613fea565b5b905f5260205f20015f9054906101000a900473ffffffffffffffffffffffffffffffffffffffff1673ffffffffffffffffffffffffffffffffffffffff1603611d955760036001600380549050611cba9190613b98565b81548110611ccb57611cca613fea565b5b905f5260205f20015f9054906101000a900473ffffffffffffffffffffffffffffffffffffffff1660038281548110611d0757611d06613fea565b5b905f5260205f20015f6101000a81548173ffffffffffffffffffffffffffffffffffffffff021916908373ffffffffffffffffffffffffffffffffffffffff1602179055506003805480611d5e57611d5d614017565b5b600190038181905f5260205f20015f6101000a81549073ffffffffffffffffffffffffffffffffffffffff02191690559055611da2565b8080600101915050611c2b565b508073ffffffffffffffffffffffffffffffffffffffff167f4c910b69fe65a61f7531b9c5042b2329ca7179c77290aa7e2eb3afa3c8511fd360405160405180910390a250565b5f5f5f8481526020019081526020015f205f015f8373ffffffffffffffffffffffffffffffffffffffff1673ffffffffffffffffffffffffffffffffffffffff1681526020019081526020015f205f9054906101000a900460ff16905092915050565b60608060605f60038054905090508067ffffffffffffffff811115611e7457611e73614044565b5b604051908082528060200260200182016040528015611ea25781602001602082028036833780820191505090505b5093508067ffffffffffffffff811115611ebf57611ebe614044565b5b604051908082528060200260200182016040528015611eed5781602001602082028036833780820191505090505b5092508067ffffffffffffffff811115611f0a57611f09614044565b5b604051908082528060200260200182016040528015611f385781602001602082028036833780820191505090505b5091505f5f90505b818110156120cc5760038181548110611f5c57611f5b613fea565b5b905f5260205f20015f9054906101000a900473ffffffffffffffffffffffffffffffffffffffff16858281518110611f9757611f96613fea565b5b602002602001019073ffffffffffffffffffffffffffffffffffffffff16908173ffffffffffffffffffffffffffffffffffffffff168152505060045f60038381548110611fe857611fe7613fea565b5b905f5260205f20015f9054906101000a900473ffffffffffffffffffffffffffffffffffffffff1673ffffffffffffffffffffffffffffffffffffffff1673ffffffffffffffffffffffffffffffffffffffff1681526020019081526020015f20600301548482815181106120605761205f613fea565b5b602002602001018181525050606460065485838151811061208457612083613fea565b5b60200260200101516120969190613bcb565b6120a09190613c39565b8382815181106120b3576120b2613fea565b5b6020026020010181815250508080600101915050611f40565b5050909192565b60025f9054906101000a900473ffffffffffffffffffffffffffffffffffffffff1681565b5f5f1b81565b60025f9054906101000a900473ffffffffffffffffffffffffffffffffffffffff1673ffffffffffffffffffffffffffffffffffffffff163373ffffffffffffffffffffffffffffffffffffffff161461218d576040517f08c379a0000000000000000000000000000000000000000000000000000000008152600401612184906140bb565b60405180910390fd5b612195612946565b5f73ffffffffffffffffffffffffffffffffffffffff168273ffffffffffffffffffffffffffffffffffffffff16036122ca575f341161220a576040517f08c379a000000000000000000000000000000000000000000000000000000000815260040161220190614123565b60405180910390fd5b3460045f5f73ffffffffffffffffffffffffffffffffffffffff1673ffffffffffffffffffffffffffffffffffffffff1681526020019081526020015f206003015f8282546122599190613170565b925050819055503273ffffffffffffffffffffffffffffffffffffffff165f73ffffffffffffffffffffffffffffffffffffffff167f30f1cc05e02cab00b43711c7c16df2558139122d0feea37e4977a748e013a5aa346040516122bd91906131b2565b60405180910390a361247e565b60055f8373ffffffffffffffffffffffffffffffffffffffff1673ffffffffffffffffffffffffffffffffffffffff1681526020019081526020015f205f9054906101000a900460ff16612353576040517f08c379a000000000000000000000000000000000000000000000000000000000815260040161234a90613f3e565b60405180910390fd5b5f8111612395576040517f08c379a000000000000000000000000000000000000000000000000000000000815260040161238c90613b12565b60405180910390fd5b6123c23230838573ffffffffffffffffffffffffffffffffffffffff16612d3f909392919063ffffffff16565b8060045f8473ffffffffffffffffffffffffffffffffffffffff1673ffffffffffffffffffffffffffffffffffffffff1681526020019081526020015f206003015f8282546124119190613170565b925050819055503273ffffffffffffffffffffffffffffffffffffffff168273ffffffffffffffffffffffffffffffffffffffff167f30f1cc05e02cab00b43711c7c16df2558139122d0feea37e4977a748e013a5aa8360405161247591906131b2565b60405180910390a35b612486612a14565b5050565b60038181548110612499575f80fd5b905f5260205f20015f915054906101000a900473ffffffffffffffffffffffffffffffffffffffff1681565b5f60025f9054906101000a900473ffffffffffffffffffffffffffffffffffffffff1673ffffffffffffffffffffffffffffffffffffffff163373ffffffffffffffffffffffffffffffffffffffff1614612555576040517f08c379a000000000000000000000000000000000000000000000000000000000815260040161254c906140bb565b60405180910390fd5b61255d612946565b60055f8573ffffffffffffffffffffffffffffffffffffffff1673ffffffffffffffffffffffffffffffffffffffff1681526020019081526020015f205f9054906101000a900460ff166125b3575f9050612725565b8160045f8673ffffffffffffffffffffffffffffffffffffffff1673ffffffffffffffffffffffffffffffffffffffff1681526020019081526020015f20600301541015612603575f9050612725565b8160045f8673ffffffffffffffffffffffffffffffffffffffff1673ffffffffffffffffffffffffffffffffffffffff1681526020019081526020015f206003015f8282546126529190613b98565b925050819055503073ffffffffffffffffffffffffffffffffffffffff166333a738c98585856040518463ffffffff1660e01b815260040161269693929190614141565b5f604051808303815f87803b1580156126ad575f5ffd5b505af19250505080156126be575060015b612720578160045f8673ffffffffffffffffffffffffffffffffffffffff1673ffffffffffffffffffffffffffffffffffffffff1681526020019081526020015f206003015f8282546127119190613170565b925050819055505f9050612725565b600190505b61272d612a14565b9392505050565b606060038054806020026020016040519081016040528092919081815260200182805480156127b557602002820191905f5260205f20905b815f9054906101000a900473ffffffffffffffffffffffffffffffffffffffff1673ffffffffffffffffffffffffffffffffffffffff168152602001906001019080831161276c575b5050505050905090565b6127c8826111f4565b6127d181612a1d565b6127db8383612b21565b50505050565b6004602052805f5260405f205f91509050805f015f9054906101000a900473ffffffffffffffffffffffffffffffffffffffff169080600101805461282590613d24565b80601f016020809104026020016040519081016040528092919081815260200182805461285190613d24565b801561289c5780601f106128735761010080835404028352916020019161289c565b820191905f5260205f20905b81548152906001019060200180831161287f57829003601f168201915b505050505090806002015f9054906101000a900460ff16908060020160019054906101000a900460ff16908060030154908060040154905086565b60065481565b5f7f01ffc9a7000000000000000000000000000000000000000000000000000000007bffffffffffffffffffffffffffffffffffffffffffffffffffffffff1916827bffffffffffffffffffffffffffffffffffffffffffffffffffffffff1916149050919050565b60026001540361298b576040517f08c379a0000000000000000000000000000000000000000000000000000000008152600401612982906141c0565b60405180910390fd5b6002600181905550565b612a0f838473ffffffffffffffffffffffffffffffffffffffff1663a9059cbb85856040516024016129c89291906141de565b604051602081830303815290604052915060e01b6020820180517bffffffffffffffffffffffffffffffffffffffffffffffffffffffff8381831617835250505050612dc1565b505050565b60018081905550565b612a2e81612a29612b1a565b612e5c565b50565b5f612a3c8383611de9565b612b105760015f5f8581526020019081526020015f205f015f8473ffffffffffffffffffffffffffffffffffffffff1673ffffffffffffffffffffffffffffffffffffffff1681526020019081526020015f205f6101000a81548160ff021916908315150217905550612aad612b1a565b73ffffffffffffffffffffffffffffffffffffffff168273ffffffffffffffffffffffffffffffffffffffff16847f2f8788117e7eff1d82e926ec794901d17c78024a50270940304540a733656f0d60405160405180910390a460019050612b14565b5f90505b92915050565b5f33905090565b5f612b2c8383611de9565b15612c00575f5f5f8581526020019081526020015f205f015f8473ffffffffffffffffffffffffffffffffffffffff1673ffffffffffffffffffffffffffffffffffffffff1681526020019081526020015f205f6101000a81548160ff021916908315150217905550612b9d612b1a565b73ffffffffffffffffffffffffffffffffffffffff168273ffffffffffffffffffffffffffffffffffffffff16847ff6391f5c32d9c69d2a47ea670b442974b53935d1edc7fd64eb21e047a839171b60405160405180910390a460019050612c04565b5f90505b92915050565b5f6040518060400160405280600581526020017f544f4b454e00000000000000000000000000000000000000000000000000000081525090505f601290508273ffffffffffffffffffffffffffffffffffffffff1663313ce5676040518163ffffffff1660e01b8152600401602060405180830381865afa925050508015612cb057506040513d601f19601f82011682018060405250810190612cad919061422f565b60015b15612cba57809150505b8273ffffffffffffffffffffffffffffffffffffffff166395d89b416040518163ffffffff1660e01b81526004015f60405180830381865afa925050508015612d2557506040513d5f823e3d601f19601f82011682018060405250810190612d22919061434b565b60015b15612d2f57809250505b612d3a838383612ead565b505050565b612dbb848573ffffffffffffffffffffffffffffffffffffffff166323b872dd868686604051602401612d7493929190614141565b604051602081830303815290604052915060e01b6020820180517bffffffffffffffffffffffffffffffffffffffffffffffffffffffff8381831617835250505050612dc1565b50505050565b5f5f60205f8451602086015f885af180612de0576040513d5f823e3d81fd5b3d92505f519150505f8214612df9576001811415612e14565b5f8473ffffffffffffffffffffffffffffffffffffffff163b145b15612e5657836040517f5274afe7000000000000000000000000000000000000000000000000000000008152600401612e4d91906137f7565b60405180910390fd5b50505050565b612e668282611de9565b612ea95780826040517fe2517d3f000000000000000000000000000000000000000000000000000000008152600401612ea0929190614392565b60405180910390fd5b5050565b6040518060c001604052808473ffffffffffffffffffffffffffffffffffffffff1681526020018381526020018260ff1681526020016001151581526020015f81526020015f81525060045f8573ffffffffffffffffffffffffffffffffffffffff1673ffffffffffffffffffffffffffffffffffffffff1681526020019081526020015f205f820151815f015f6101000a81548173ffffffffffffffffffffffffffffffffffffffff021916908373ffffffffffffffffffffffffffffffffffffffff1602179055506020820151816001019081612f8c9190614559565b506040820151816002015f6101000a81548160ff021916908360ff16021790555060608201518160020160016101000a81548160ff0219169083151502179055506080820151816003015560a08201518160040155905050600383908060018154018082558091505060019003905f5260205f20015f9091909190916101000a81548173ffffffffffffffffffffffffffffffffffffffff021916908373ffffffffffffffffffffffffffffffffffffffff160217905550600160055f8573ffffffffffffffffffffffffffffffffffffffff1673ffffffffffffffffffffffffffffffffffffffff1681526020019081526020015f205f6101000a81548160ff0219169083151502179055508273ffffffffffffffffffffffffffffffffffffffff167f3be0896d4cd1d645bdae8ade25a54bcdbb2c685ce55ac7e7bead95d0802b32de83836040516130e1929190614628565b60405180910390a2505050565b6040518060c001604052805f73ffffffffffffffffffffffffffffffffffffffff168152602001606081526020015f60ff1681526020015f151581526020015f81526020015f81525090565b5f819050919050565b7f4e487b71000000000000000000000000000000000000000000000000000000005f52601160045260245ffd5b5f61317a8261313a565b91506131858361313a565b925082820190508082111561319d5761319c613143565b5b92915050565b6131ac8161313a565b82525050565b5f6020820190506131c55f8301846131a3565b92915050565b5f604051905090565b5f5ffd5b5f5ffd5b5f7fffffffff0000000000000000000000000000000000000000000000000000000082169050919050565b613210816131dc565b811461321a575f5ffd5b50565b5f8135905061322b81613207565b92915050565b5f60208284031215613246576132456131d4565b5b5f6132538482850161321d565b91505092915050565b5f8115159050919050565b6132708161325c565b82525050565b5f6020820190506132895f830184613267565b92915050565b6132988161313a565b81146132a2575f5ffd5b50565b5f813590506132b38161328f565b92915050565b5f602082840312156132ce576132cd6131d4565b5b5f6132db848285016132a5565b91505092915050565b5f73ffffffffffffffffffffffffffffffffffffffff82169050919050565b5f61330d826132e4565b9050919050565b61331d81613303565b8114613327575f5ffd5b50565b5f8135905061333881613314565b92915050565b5f5f5f60608486031215613355576133546131d4565b5b5f6133628682870161332a565b93505060206133738682870161332a565b9250506040613384868287016132a5565b9150509250925092565b5f602082840312156133a3576133a26131d4565b5b5f6133b08482850161332a565b91505092915050565b6133c281613303565b82525050565b5f81519050919050565b5f82825260208201905092915050565b8281835e5f83830152505050565b5f601f19601f8301169050919050565b5f61340a826133c8565b61341481856133d2565b93506134248185602086016133e2565b61342d816133f0565b840191505092915050565b5f60ff82169050919050565b61344d81613438565b82525050565b61345c8161325c565b82525050565b61346b8161313a565b82525050565b5f60c083015f8301516134865f8601826133b9565b506020830151848203602086015261349e8282613400565b91505060408301516134b36040860182613444565b5060608301516134c66060860182613453565b5060808301516134d96080860182613462565b5060a08301516134ec60a0860182613462565b508091505092915050565b5f6020820190508181035f83015261350f8184613471565b905092915050565b5f819050919050565b61352981613517565b8114613533575f5ffd5b50565b5f8135905061354481613520565b92915050565b5f6020828403121561355f5761355e6131d4565b5b5f61356c84828501613536565b91505092915050565b61357e81613517565b82525050565b5f6020820190506135975f830184613575565b92915050565b5f5f604083850312156135b3576135b26131d4565b5b5f6135c08582860161332a565b92505060206135d1858286016132a5565b9150509250929050565b5f6060820190506135ee5f830186613267565b6135fb60208301856131a3565b61360860408301846131a3565b949350505050565b5f5f60408385031215613626576136256131d4565b5b5f61363385828601613536565b92505060206136448582860161332a565b9150509250929050565b5f81519050919050565b5f82825260208201905092915050565b5f819050602082019050919050565b5f61368283836133b9565b60208301905092915050565b5f602082019050919050565b5f6136a48261364e565b6136ae8185613658565b93506136b983613668565b805f5b838110156136e95781516136d08882613677565b97506136db8361368e565b9250506001810190506136bc565b5085935050505092915050565b5f81519050919050565b5f82825260208201905092915050565b5f819050602082019050919050565b5f61372a8383613462565b60208301905092915050565b5f602082019050919050565b5f61374c826136f6565b6137568185613700565b935061376183613710565b805f5b83811015613791578151613778888261371f565b975061378383613736565b925050600181019050613764565b5085935050505092915050565b5f6060820190508181035f8301526137b6818661369a565b905081810360208301526137ca8185613742565b905081810360408301526137de8184613742565b9050949350505050565b6137f181613303565b82525050565b5f60208201905061380a5f8301846137e8565b92915050565b5f6020820190508181035f830152613828818461369a565b905092915050565b5f82825260208201905092915050565b5f61384a826133c8565b6138548185613830565b93506138648185602086016133e2565b61386d816133f0565b840191505092915050565b61388181613438565b82525050565b5f60c08201905061389a5f8301896137e8565b81810360208301526138ac8188613840565b90506138bb6040830187613878565b6138c86060830186613267565b6138d560808301856131a3565b6138e260a08301846131a3565b979650505050505050565b5f6040820190506139005f830185613575565b61390d60208301846137e8565b9392505050565b61391d8161325c565b8114613927575f5ffd5b50565b5f8151905061393881613914565b92915050565b5f60208284031215613953576139526131d4565b5b5f6139608482850161392a565b91505092915050565b7f4e6f7420617574686f72697a65640000000000000000000000000000000000005f82015250565b5f61399d600e83613830565b91506139a882613969565b602082019050919050565b5f6020820190508181035f8301526139ca81613991565b9050919050565b7f526573657276652070657263656e7461676520746f6f206869676800000000005f82015250565b5f613a05601b83613830565b9150613a10826139d1565b602082019050919050565b5f6020820190508181035f830152613a32816139f9565b9050919050565b5f604082019050613a4c5f8301856131a3565b613a5960208301846131a3565b9392505050565b7f496e76616c696420726563697069656e740000000000000000000000000000005f82015250565b5f613a94601183613830565b9150613a9f82613a60565b602082019050919050565b5f6020820190508181035f830152613ac181613a88565b9050919050565b7f416d6f756e74206d75737420626520706f7369746976650000000000000000005f82015250565b5f613afc601783613830565b9150613b0782613ac8565b602082019050919050565b5f6020820190508181035f830152613b2981613af0565b9050919050565b7f496e73756666696369656e742062616c616e63650000000000000000000000005f82015250565b5f613b64601483613830565b9150613b6f82613b30565b602082019050919050565b5f6020820190508181035f830152613b9181613b58565b9050919050565b5f613ba28261313a565b9150613bad8361313a565b9250828203905081811115613bc557613bc4613143565b5b92915050565b5f613bd58261313a565b9150613be08361313a565b9250828202613bee8161313a565b91508282048414831517613c0557613c04613143565b5b5092915050565b7f4e487b71000000000000000000000000000000000000000000000000000000005f52601260045260245ffd5b5f613c438261313a565b9150613c4e8361313a565b925082613c5e57613c5d613c0c565b5b828204905092915050565b7f576f756c642076696f6c617465207265736572766520726571756972656d656e5f8201527f7400000000000000000000000000000000000000000000000000000000000000602082015250565b5f613cc3602183613830565b9150613cce82613c69565b604082019050919050565b5f6020820190508181035f830152613cf081613cb7565b9050919050565b7f4e487b71000000000000000000000000000000000000000000000000000000005f52602260045260245ffd5b5f6002820490506001821680613d3b57607f821691505b602082108103613d4e57613d4d613cf7565b5b50919050565b7f496e7465726e616c2066756e6374696f6e0000000000000000000000000000005f82015250565b5f613d88601183613830565b9150613d9382613d54565b602082019050919050565b5f6020820190508181035f830152613db581613d7c565b9050919050565b7f43616e6e6f74206164642045544820616761696e0000000000000000000000005f82015250565b5f613df0601483613830565b9150613dfb82613dbc565b602082019050919050565b5f6020820190508181035f830152613e1d81613de4565b9050919050565b7f546f6b656e20616c726561647920737570706f727465640000000000000000005f82015250565b5f613e58601783613830565b9150613e6382613e24565b602082019050919050565b5f6020820190508181035f830152613e8581613e4c565b9050919050565b7f43616e6e6f742072656d6f7665204554480000000000000000000000000000005f82015250565b5f613ec0601183613830565b9150613ecb82613e8c565b602082019050919050565b5f6020820190508181035f830152613eed81613eb4565b9050919050565b7f546f6b656e206e6f7420737570706f72746564000000000000000000000000005f82015250565b5f613f28601383613830565b9150613f3382613ef4565b602082019050919050565b5f6020820190508181035f830152613f5581613f1c565b9050919050565b7f546f6b656e206861732062616c616e63652c20776974686472617720666972735f8201527f7400000000000000000000000000000000000000000000000000000000000000602082015250565b5f613fb6602183613830565b9150613fc182613f5c565b604082019050919050565b5f6020820190508181035f830152613fe381613faa565b9050919050565b7f4e487b71000000000000000000000000000000000000000000000000000000005f52603260045260245ffd5b7f4e487b71000000000000000000000000000000000000000000000000000000005f52603160045260245ffd5b7f4e487b71000000000000000000000000000000000000000000000000000000005f52604160045260245ffd5b7f4f6e6c7920706179726f6c6c20636f72652063616e2063616c6c0000000000005f82015250565b5f6140a5601a83613830565b91506140b082614071565b602082019050919050565b5f6020820190508181035f8301526140d281614099565b9050919050565b7f4e6f204554482073656e740000000000000000000000000000000000000000005f82015250565b5f61410d600b83613830565b9150614118826140d9565b602082019050919050565b5f6020820190508181035f83015261413a81614101565b9050919050565b5f6060820190506141545f8301866137e8565b61416160208301856137e8565b61416e60408301846131a3565b949350505050565b7f5265656e7472616e637947756172643a207265656e7472616e742063616c6c005f82015250565b5f6141aa601f83613830565b91506141b582614176565b602082019050919050565b5f6020820190508181035f8301526141d78161419e565b9050919050565b5f6040820190506141f15f8301856137e8565b6141fe60208301846131a3565b9392505050565b61420e81613438565b8114614218575f5ffd5b50565b5f8151905061422981614205565b92915050565b5f60208284031215614244576142436131d4565b5b5f6142518482850161421b565b91505092915050565b5f5ffd5b5f5ffd5b61426b826133f0565b810181811067ffffffffffffffff8211171561428a57614289614044565b5b80604052505050565b5f61429c6131cb565b90506142a88282614262565b919050565b5f67ffffffffffffffff8211156142c7576142c6614044565b5b6142d0826133f0565b9050602081019050919050565b5f6142ef6142ea846142ad565b614293565b90508281526020810184848401111561430b5761430a61425e565b5b6143168482856133e2565b509392505050565b5f82601f8301126143325761433161425a565b5b81516143428482602086016142dd565b91505092915050565b5f602082840312156143605761435f6131d4565b5b5f82015167ffffffffffffffff81111561437d5761437c6131d8565b5b6143898482850161431e565b91505092915050565b5f6040820190506143a55f8301856137e8565b6143b26020830184613575565b9392505050565b5f819050815f5260205f209050919050565b5f6020601f8301049050919050565b5f82821b905092915050565b5f600883026144157fffffffffffffffffffffffffffffffffffffffffffffffffffffffffffffffff826143da565b61441f86836143da565b95508019841693508086168417925050509392505050565b5f819050919050565b5f61445a6144556144508461313a565b614437565b61313a565b9050919050565b5f819050919050565b61447383614440565b61448761447f82614461565b8484546143e6565b825550505050565b5f5f905090565b61449e61448f565b6144a981848461446a565b505050565b5b818110156144cc576144c15f82614496565b6001810190506144af565b5050565b601f821115614511576144e2816143b9565b6144eb846143cb565b810160208510156144fa578190505b61450e614506856143cb565b8301826144ae565b50505b505050565b5f82821c905092915050565b5f6145315f1984600802614516565b1980831691505092915050565b5f6145498383614522565b9150826002028217905092915050565b614562826133c8565b67ffffffffffffffff81111561457b5761457a614044565b5b6145858254613d24565b6145908282856144d0565b5f60209050601f8311600181146145c1575f84156145af578287015190505b6145b9858261453e565b865550614620565b601f1984166145cf866143b9565b5f5b828110156145f6578489015182556001820191506020850194506020810190506145d1565b86831015614613578489015161460f601f891682614522565b8355505b6001600288020188555050505b505050505050565b5f6040820190508181035f8301526146408185613840565b905061464f6020830184613878565b939250505056fea264697066735822122060758171040fd1bf69b6d21b5dd0336de986aece25208ea9b5d891cb67fdbc6664736f6c634300081e0033",
			"opcodes": "PUSH1 0x80 PUSH1 0x40 MSTORE PUSH1 0xA PUSH1 0x6 SSTORE CALLVALUE DUP1 ISZERO PUSH2 0x14 JUMPI PUSH0 PUSH0 REVERT JUMPDEST POP PUSH1 0x40 MLOAD PUSH2 0x5271 CODESIZE SUB DUP1 PUSH2 0x5271 DUP4 CODECOPY DUP2 DUP2 ADD PUSH1 0x40 MSTORE DUP2 ADD SWAP1 PUSH2 0x36 SWAP2 SWAP1 PUSH2 0x695 JUMP JUMPDEST PUSH1 0x1 DUP1 DUP2 SWAP1 SSTORE POP DUP2 PUSH1 0x2 PUSH0 PUSH2 0x100 EXP DUP2 SLOAD DUP2 PUSH20 0xFFFFFFFFFFFFFFFFFFFFFFFFFFFFFFFFFFFFFFFF MUL NOT AND SWAP1 DUP4 PUSH20 0xFFFFFFFFFFFFFFFFFFFFFFFFFFFFFFFFFFFFFFFF AND MUL OR SWAP1 SSTORE POP PUSH2 0xC4 PUSH0 PUSH1 0x40 MLOAD DUP1 PUSH1 0x40 ADD PUSH1 0x40 MSTORE DUP1 PUSH1 0x3 DUP2 MSTORE PUSH1 0x20 ADD PUSH32 0x4554480000000000000000000000000000000000000000000000000000000000 DUP2 MSTORE POP PUSH1 0x12 PUSH2 0x15E PUSH1 0x20 SHL PUSH1 0x20 SHR JUMP JUMPDEST PUSH0 PUSH0 SWAP1 POP JUMPDEST DUP2 MLOAD DUP2 LT ISZERO PUSH2 0x156 JUMPI PUSH0 PUSH20 0xFFFFFFFFFFFFFFFFFFFFFFFFFFFFFFFFFFFFFFFF AND DUP3 DUP3 DUP2 MLOAD DUP2 LT PUSH2 0xFC JUMPI PUSH2 0xFB PUSH2 0x6EF JUMP JUMPDEST JUMPDEST PUSH1 0x20 MUL PUSH1 0x20 ADD ADD MLOAD PUSH20 0xFFFFFFFFFFFFFFFFFFFFFFFFFFFFFFFFFFFFFFFF AND EQ PUSH2 0x149 JUMPI PUSH2 0x148 DUP3 DUP3 DUP2 MLOAD DUP2 LT PUSH2 0x135 JUMPI PUSH2 0x134 PUSH2 0x6EF JUMP JUMPDEST JUMPDEST PUSH1 0x20 MUL PUSH1 0x20 ADD ADD MLOAD PUSH2 0x39F PUSH1 0x20 SHL PUSH1 0x20 SHR JUMP JUMPDEST JUMPDEST DUP1 DUP1 PUSH1 0x1 ADD SWAP2 POP POP PUSH2 0xC9 JUMP JUMPDEST POP POP POP PUSH2 0xBD8 JUMP JUMPDEST PUSH1 0x40 MLOAD DUP1 PUSH1 0xC0 ADD PUSH1 0x40 MSTORE DUP1 DUP5 PUSH20 0xFFFFFFFFFFFFFFFFFFFFFFFFFFFFFFFFFFFFFFFF AND DUP2 MSTORE PUSH1 0x20 ADD DUP4 DUP2 MSTORE PUSH1 0x20 ADD DUP3 PUSH1 0xFF AND DUP2 MSTORE PUSH1 0x20 ADD PUSH1 0x1 ISZERO ISZERO DUP2 MSTORE PUSH1 0x20 ADD PUSH0 DUP2 MSTORE PUSH1 0x20 ADD PUSH0 DUP2 MSTORE POP PUSH1 0x4 PUSH0 DUP6 PUSH20 0xFFFFFFFFFFFFFFFFFFFFFFFFFFFFFFFFFFFFFFFF AND PUSH20 0xFFFFFFFFFFFFFFFFFFFFFFFFFFFFFFFFFFFFFFFF AND DUP2 MSTORE PUSH1 0x20 ADD SWAP1 DUP2 MSTORE PUSH1 0x20 ADD PUSH0 KECCAK256 PUSH0 DUP3 ADD MLOAD DUP2 PUSH0 ADD PUSH0 PUSH2 0x100 EXP DUP2 SLOAD DUP2 PUSH20 0xFFFFFFFFFFFFFFFFFFFFFFFFFFFFFFFFFFFFFFFF MUL NOT AND SWAP1 DUP4 PUSH20 0xFFFFFFFFFFFFFFFFFFFFFFFFFFFFFFFFFFFFFFFF AND MUL OR SWAP1 SSTORE POP PUSH1 0x20 DUP3 ADD MLOAD DUP2 PUSH1 0x1 ADD SWAP1 DUP2 PUSH2 0x23D SWAP2 SWAP1 PUSH2 0x92C JUMP JUMPDEST POP PUSH1 0x40 DUP3 ADD MLOAD DUP2 PUSH1 0x2 ADD PUSH0 PUSH2 0x100 EXP DUP2 SLOAD DUP2 PUSH1 0xFF MUL NOT AND SWAP1 DUP4 PUSH1 0xFF AND MUL OR SWAP1 SSTORE POP PUSH1 0x60 DUP3 ADD MLOAD DUP2 PUSH1 0x2 ADD PUSH1 0x1 PUSH2 0x100 EXP DUP2 SLOAD DUP2 PUSH1 0xFF MUL NOT AND SWAP1 DUP4 ISZERO ISZERO MUL OR SWAP1 SSTORE POP PUSH1 0x80 DUP3 ADD MLOAD DUP2 PUSH1 0x3 ADD SSTORE PUSH1 0xA0 DUP3 ADD MLOAD DUP2 PUSH1 0x4 ADD SSTORE SWAP1 POP POP PUSH1 0x3 DUP4 SWAP1 DUP1 PUSH1 0x1 DUP2 SLOAD ADD DUP1 DUP3 SSTORE DUP1 SWAP2 POP POP PUSH1 0x1 SWAP1 SUB SWAP1 PUSH0 MSTORE PUSH1 0x20 PUSH0 KECCAK256 ADD PUSH0 SWAP1 SWAP2 SWAP1 SWAP2 SWAP1 SWAP2 PUSH2 0x100 EXP DUP2 SLOAD DUP2 PUSH20 0xFFFFFFFFFFFFFFFFFFFFFFFFFFFFFFFFFFFFFFFF MUL NOT AND SWAP1 DUP4 PUSH20 0xFFFFFFFFFFFFFFFFFFFFFFFFFFFFFFFFFFFFFFFF AND MUL OR SWAP1 SSTORE POP PUSH1 0x1 PUSH1 0x5 PUSH0 DUP6 PUSH20 0xFFFFFFFFFFFFFFFFFFFFFFFFFFFFFFFFFFFFFFFF AND PUSH20 0xFFFFFFFFFFFFFFFFFFFFFFFFFFFFFFFFFFFFFFFF AND DUP2 MSTORE PUSH1 0x20 ADD SWAP1 DUP2 MSTORE PUSH1 0x20 ADD PUSH0 KECCAK256 PUSH0 PUSH2 0x100 EXP DUP2 SLOAD DUP2 PUSH1 0xFF MUL NOT AND SWAP1 DUP4 ISZERO ISZERO MUL OR SWAP1 SSTORE POP DUP3 PUSH20 0xFFFFFFFFFFFFFFFFFFFFFFFFFFFFFFFFFFFFFFFF AND PUSH32 0x3BE0896D4CD1D645BDAE8ADE25A54BCDBB2C685CE55AC7E7BEAD95D0802B32DE DUP4 DUP4 PUSH1 0x40 MLOAD PUSH2 0x392 SWAP3 SWAP2 SWAP1 PUSH2 0xA6C JUMP JUMPDEST PUSH1 0x40 MLOAD DUP1 SWAP2 SUB SWAP1 LOG2 POP POP POP JUMP JUMPDEST PUSH0 PUSH1 0x40 MLOAD DUP1 PUSH1 0x40 ADD PUSH1 0x40 MSTORE DUP1 PUSH1 0x5 DUP2 MSTORE PUSH1 0x20 ADD PUSH32 0x544F4B454E000000000000000000000000000000000000000000000000000000 DUP2 MSTORE POP SWAP1 POP PUSH0 PUSH1 0x12 SWAP1 POP DUP3 PUSH20 0xFFFFFFFFFFFFFFFFFFFFFFFFFFFFFFFFFFFFFFFF AND PUSH4 0x313CE567 PUSH1 0x40 MLOAD DUP2 PUSH4 0xFFFFFFFF AND PUSH1 0xE0 SHL DUP2 MSTORE PUSH1 0x4 ADD PUSH1 0x20 PUSH1 0x40 MLOAD DUP1 DUP4 SUB DUP2 DUP7 GAS STATICCALL SWAP3 POP POP POP DUP1 ISZERO PUSH2 0x445 JUMPI POP PUSH1 0x40 MLOAD RETURNDATASIZE PUSH1 0x1F NOT PUSH1 0x1F DUP3 ADD AND DUP3 ADD DUP1 PUSH1 0x40 MSTORE POP DUP2 ADD SWAP1 PUSH2 0x442 SWAP2 SWAP1 PUSH2 0xAC4 JUMP JUMPDEST PUSH1 0x1 JUMPDEST ISZERO PUSH2 0x44F JUMPI DUP1 SWAP2 POP POP JUMPDEST DUP3 PUSH20 0xFFFFFFFFFFFFFFFFFFFFFFFFFFFFFFFFFFFFFFFF AND PUSH4 0x95D89B41 PUSH1 0x40 MLOAD DUP2 PUSH4 0xFFFFFFFF AND PUSH1 0xE0 SHL DUP2 MSTORE PUSH1 0x4 ADD PUSH0 PUSH1 0x40 MLOAD DUP1 DUP4 SUB DUP2 DUP7 GAS STATICCALL SWAP3 POP POP POP DUP1 ISZERO PUSH2 0x4BA JUMPI POP PUSH1 0x40 MLOAD RETURNDATASIZE PUSH0 DUP3 RETURNDATACOPY RETURNDATASIZE PUSH1 0x1F NOT PUSH1 0x1F DUP3 ADD AND DUP3 ADD DUP1 PUSH1 0x40 MSTORE POP DUP2 ADD SWAP1 PUSH2 0x4B7 SWAP2 SWAP1 PUSH2 0xB91 JUMP JUMPDEST PUSH1 0x1 JUMPDEST ISZERO PUSH2 0x4C4 JUMPI DUP1 SWAP3 POP POP JUMPDEST PUSH2 0x4D5 DUP4 DUP4 DUP4 PUSH2 0x15E PUSH1 0x20 SHL PUSH1 0x20 SHR JUMP JUMPDEST POP POP POP JUMP JUMPDEST PUSH0 PUSH1 0x40 MLOAD SWAP1 POP SWAP1 JUMP JUMPDEST PUSH0 PUSH0 REVERT JUMPDEST PUSH0 PUSH0 REVERT JUMPDEST PUSH0 PUSH20 0xFFFFFFFFFFFFFFFFFFFFFFFFFFFFFFFFFFFFFFFF DUP3 AND SWAP1 POP SWAP2 SWAP1 POP JUMP JUMPDEST PUSH0 PUSH2 0x514 DUP3 PUSH2 0x4EB JUMP JUMPDEST SWAP1 POP SWAP2 SWAP1 POP JUMP JUMPDEST PUSH2 0x524 DUP2 PUSH2 0x50A JUMP JUMPDEST DUP2 EQ PUSH2 0x52E JUMPI PUSH0 PUSH0 REVERT JUMPDEST POP JUMP JUMPDEST PUSH0 DUP2 MLOAD SWAP1 POP PUSH2 0x53F DUP2 PUSH2 0x51B JUMP JUMPDEST SWAP3 SWAP2 POP POP JUMP JUMPDEST PUSH0 PUSH0 REVERT JUMPDEST PUSH0 PUSH1 0x1F NOT PUSH1 0x1F DUP4 ADD AND SWAP1 POP SWAP2 SWAP1 POP JUMP JUMPDEST PUSH32 0x4E487B7100000000000000000000000000000000000000000000000000000000 PUSH0 MSTORE PUSH1 0x41 PUSH1 0x4 MSTORE PUSH1 0x24 PUSH0 REVERT JUMPDEST PUSH2 0x58F DUP3 PUSH2 0x549 JUMP JUMPDEST DUP2 ADD DUP2 DUP2 LT PUSH8 0xFFFFFFFFFFFFFFFF DUP3 GT OR ISZERO PUSH2 0x5AE JUMPI PUSH2 0x5AD PUSH2 0x559 JUMP JUMPDEST JUMPDEST DUP1 PUSH1 0x40 MSTORE POP POP POP JUMP JUMPDEST PUSH0 PUSH2 0x5C0 PUSH2 0x4DA JUMP JUMPDEST SWAP1 POP PUSH2 0x5CC DUP3 DUP3 PUSH2 0x586 JUMP JUMPDEST SWAP2 SWAP1 POP JUMP JUMPDEST PUSH0 PUSH8 0xFFFFFFFFFFFFFFFF DUP3 GT ISZERO PUSH2 0x5EB JUMPI PUSH2 0x5EA PUSH2 0x559 JUMP JUMPDEST JUMPDEST PUSH1 0x20 DUP3 MUL SWAP1 POP PUSH1 0x20 DUP2 ADD SWAP1 POP SWAP2 SWAP1 POP JUMP JUMPDEST PUSH0 PUSH0 REVERT JUMPDEST PUSH0 PUSH2 0x612 PUSH2 0x60D DUP5 PUSH2 0x5D1 JUMP JUMPDEST PUSH2 0x5B7 JUMP JUMPDEST SWAP1 POP DUP1 DUP4 DUP3 MSTORE PUSH1 0x20 DUP3 ADD SWAP1 POP PUSH1 0x20 DUP5 MUL DUP4 ADD DUP6 DUP2 GT ISZERO PUSH2 0x635 JUMPI PUSH2 0x634 PUSH2 0x5FC JUMP JUMPDEST JUMPDEST DUP4 JUMPDEST DUP2 DUP2 LT ISZERO PUSH2 0x65E JUMPI DUP1 PUSH2 0x64A DUP9 DUP3 PUSH2 0x531 JUMP JUMPDEST DUP5 MSTORE PUSH1 0x20 DUP5 ADD SWAP4 POP POP PUSH1 0x20 DUP2 ADD SWAP1 POP PUSH2 0x637 JUMP JUMPDEST POP POP POP SWAP4 SWAP3 POP POP POP JUMP JUMPDEST PUSH0 DUP3 PUSH1 0x1F DUP4 ADD SLT PUSH2 0x67C JUMPI PUSH2 0x67B PUSH2 0x545 JUMP JUMPDEST JUMPDEST DUP2 MLOAD PUSH2 0x68C DUP5 DUP3 PUSH1 0x20 DUP7 ADD PUSH2 0x600 JUMP JUMPDEST SWAP2 POP POP SWAP3 SWAP2 POP POP JUMP JUMPDEST PUSH0 PUSH0 PUSH1 0x40 DUP4 DUP6 SUB SLT ISZERO PUSH2 0x6AB JUMPI PUSH2 0x6AA PUSH2 0x4E3 JUMP JUMPDEST JUMPDEST PUSH0 PUSH2 0x6B8 DUP6 DUP3 DUP7 ADD PUSH2 0x531 JUMP JUMPDEST SWAP3 POP POP PUSH1 0x20 DUP4 ADD MLOAD PUSH8 0xFFFFFFFFFFFFFFFF DUP2 GT ISZERO PUSH2 0x6D9 JUMPI PUSH2 0x6D8 PUSH2 0x4E7 JUMP JUMPDEST JUMPDEST PUSH2 0x6E5 DUP6 DUP3 DUP7 ADD PUSH2 0x668 JUMP JUMPDEST SWAP2 POP POP SWAP3 POP SWAP3 SWAP1 POP JUMP JUMPDEST PUSH32 0x4E487B7100000000000000000000000000000000000000000000000000000000 PUSH0 MSTORE PUSH1 0x32 PUSH1 0x4 MSTORE PUSH1 0x24 PUSH0 REVERT JUMPDEST PUSH0 DUP2 MLOAD SWAP1 POP SWAP2 SWAP1 POP JUMP JUMPDEST PUSH32 0x4E487B7100000000000000000000000000000000000000000000000000000000 PUSH0 MSTORE PUSH1 0x22 PUSH1 0x4 MSTORE PUSH1 0x24 PUSH0 REVERT JUMPDEST PUSH0 PUSH1 0x2 DUP3 DIV SWAP1 POP PUSH1 0x1 DUP3 AND DUP1 PUSH2 0x76A JUMPI PUSH1 0x7F DUP3 AND SWAP2 POP JUMPDEST PUSH1 0x20 DUP3 LT DUP2 SUB PUSH2 0x77D JUMPI PUSH2 0x77C PUSH2 0x726 JUMP JUMPDEST JUMPDEST POP SWAP2 SWAP1 POP JUMP JUMPDEST PUSH0 DUP2 SWAP1 POP DUP2 PUSH0 MSTORE PUSH1 0x20 PUSH0 KECCAK256 SWAP1 POP SWAP2 SWAP1 POP JUMP JUMPDEST PUSH0 PUSH1 0x20 PUSH1 0x1F DUP4 ADD DIV SWAP1 POP SWAP2 SWAP1 POP JUMP JUMPDEST PUSH0 DUP3 DUP3 SHL SWAP1 POP SWAP3 SWAP2 POP POP JUMP JUMPDEST PUSH0 PUSH1 0x8 DUP4 MUL PUSH2 0x7DF PUSH32 0xFFFFFFFFFFFFFFFFFFFFFFFFFFFFFFFFFFFFFFFFFFFFFFFFFFFFFFFFFFFFFFFF DUP3 PUSH2 0x7A4 JUMP JUMPDEST PUSH2 0x7E9 DUP7 DUP4 PUSH2 0x7A4 JUMP JUMPDEST SWAP6 POP DUP1 NOT DUP5 AND SWAP4 POP DUP1 DUP7 AND DUP5 OR SWAP3 POP POP POP SWAP4 SWAP3 POP POP POP JUMP JUMPDEST PUSH0 DUP2 SWAP1 POP SWAP2 SWAP1 POP JUMP JUMPDEST PUSH0 DUP2 SWAP1 POP SWAP2 SWAP1 POP JUMP JUMPDEST PUSH0 PUSH2 0x82D PUSH2 0x828 PUSH2 0x823 DUP5 PUSH2 0x801 JUMP JUMPDEST PUSH2 0x80A JUMP JUMPDEST PUSH2 0x801 JUMP JUMPDEST SWAP1 POP SWAP2 SWAP1 POP JUMP JUMPDEST PUSH0 DUP2 SWAP1 POP SWAP2 SWAP1 POP JUMP JUMPDEST PUSH2 0x846 DUP4 PUSH2 0x813 JUMP JUMPDEST PUSH2 0x85A PUSH2 0x852 DUP3 PUSH2 0x834 JUMP JUMPDEST DUP5 DUP5 SLOAD PUSH2 0x7B0 JUMP JUMPDEST DUP3 SSTORE POP POP POP POP JUMP JUMPDEST PUSH0 PUSH0 SWAP1 POP SWAP1 JUMP JUMPDEST PUSH2 0x871 PUSH2 0x862 JUMP JUMPDEST PUSH2 0x87C DUP2 DUP5 DUP5 PUSH2 0x83D JUMP JUMPDEST POP POP POP JUMP JUMPDEST JUMPDEST DUP2 DUP2 LT ISZERO PUSH2 0x89F JUMPI PUSH2 0x894 PUSH0 DUP3 PUSH2 0x869 JUMP JUMPDEST PUSH1 0x1 DUP2 ADD SWAP1 POP PUSH2 0x882 JUMP JUMPDEST POP POP JUMP JUMPDEST PUSH1 0x1F DUP3 GT ISZERO PUSH2 0x8E4 JUMPI PUSH2 0x8B5 DUP2 PUSH2 0x783 JUMP JUMPDEST PUSH2 0x8BE DUP5 PUSH2 0x795 JUMP JUMPDEST DUP2 ADD PUSH1 0x20 DUP6 LT ISZERO PUSH2 0x8CD JUMPI DUP2 SWAP1 POP JUMPDEST PUSH2 0x8E1 PUSH2 0x8D9 DUP6 PUSH2 0x795 JUMP JUMPDEST DUP4 ADD DUP3 PUSH2 0x881 JUMP JUMPDEST POP POP JUMPDEST POP POP POP JUMP JUMPDEST PUSH0 DUP3 DUP3 SHR SWAP1 POP SWAP3 SWAP2 POP POP JUMP JUMPDEST PUSH0 PUSH2 0x904 PUSH0 NOT DUP5 PUSH1 0x8 MUL PUSH2 0x8E9 JUMP JUMPDEST NOT DUP1 DUP4 AND SWAP2 POP POP SWAP3 SWAP2 POP POP JUMP JUMPDEST PUSH0 PUSH2 0x91C DUP4 DUP4 PUSH2 0x8F5 JUMP JUMPDEST SWAP2 POP DUP3 PUSH1 0x2 MUL DUP3 OR SWAP1 POP SWAP3 SWAP2 POP POP JUMP JUMPDEST PUSH2 0x935 DUP3 PUSH2 0x71C JUMP JUMPDEST PUSH8 0xFFFFFFFFFFFFFFFF DUP2 GT ISZERO PUSH2 0x94E JUMPI PUSH2 0x94D PUSH2 0x559 JUMP JUMPDEST JUMPDEST PUSH2 0x958 DUP3 SLOAD PUSH2 0x753 JUMP JUMPDEST PUSH2 0x963 DUP3 DUP3 DUP6 PUSH2 0x8A3 JUMP JUMPDEST PUSH0 PUSH1 0x20 SWAP1 POP PUSH1 0x1F DUP4 GT PUSH1 0x1 DUP2 EQ PUSH2 0x994 JUMPI PUSH0 DUP5 ISZERO PUSH2 0x982 JUMPI DUP3 DUP8 ADD MLOAD SWAP1 POP JUMPDEST PUSH2 0x98C DUP6 DUP3 PUSH2 0x911 JUMP JUMPDEST DUP7 SSTORE POP PUSH2 0x9F3 JUMP JUMPDEST PUSH1 0x1F NOT DUP5 AND PUSH2 0x9A2 DUP7 PUSH2 0x783 JUMP JUMPDEST PUSH0 JUMPDEST DUP3 DUP2 LT ISZERO PUSH2 0x9C9 JUMPI DUP5 DUP10 ADD MLOAD DUP3 SSTORE PUSH1 0x1 DUP3 ADD SWAP2 POP PUSH1 0x20 DUP6 ADD SWAP5 POP PUSH1 0x20 DUP2 ADD SWAP1 POP PUSH2 0x9A4 JUMP JUMPDEST DUP7 DUP4 LT ISZERO PUSH2 0x9E6 JUMPI DUP5 DUP10 ADD MLOAD PUSH2 0x9E2 PUSH1 0x1F DUP10 AND DUP3 PUSH2 0x8F5 JUMP JUMPDEST DUP4 SSTORE POP JUMPDEST PUSH1 0x1 PUSH1 0x2 DUP9 MUL ADD DUP9 SSTORE POP POP POP JUMPDEST POP POP POP POP POP POP JUMP JUMPDEST PUSH0 DUP3 DUP3 MSTORE PUSH1 0x20 DUP3 ADD SWAP1 POP SWAP3 SWAP2 POP POP JUMP JUMPDEST DUP3 DUP2 DUP4 MCOPY PUSH0 DUP4 DUP4 ADD MSTORE POP POP POP JUMP JUMPDEST PUSH0 PUSH2 0xA23 DUP3 PUSH2 0x71C JUMP JUMPDEST PUSH2 0xA2D DUP2 DUP6 PUSH2 0x9FB JUMP JUMPDEST SWAP4 POP PUSH2 0xA3D DUP2 DUP6 PUSH1 0x20 DUP7 ADD PUSH2 0xA0B JUMP JUMPDEST PUSH2 0xA46 DUP2 PUSH2 0x549 JUMP JUMPDEST DUP5 ADD SWAP2 POP POP SWAP3 SWAP2 POP POP JUMP JUMPDEST PUSH0 PUSH1 0xFF DUP3 AND SWAP1 POP SWAP2 SWAP1 POP JUMP JUMPDEST PUSH2 0xA66 DUP2 PUSH2 0xA51 JUMP JUMPDEST DUP3 MSTORE POP POP JUMP JUMPDEST PUSH0 PUSH1 0x40 DUP3 ADD SWAP1 POP DUP2 DUP2 SUB PUSH0 DUP4 ADD MSTORE PUSH2 0xA84 DUP2 DUP6 PUSH2 0xA19 JUMP JUMPDEST SWAP1 POP PUSH2 0xA93 PUSH1 0x20 DUP4 ADD DUP5 PUSH2 0xA5D JUMP JUMPDEST SWAP4 SWAP3 POP POP POP JUMP JUMPDEST PUSH2 0xAA3 DUP2 PUSH2 0xA51 JUMP JUMPDEST DUP2 EQ PUSH2 0xAAD JUMPI PUSH0 PUSH0 REVERT JUMPDEST POP JUMP JUMPDEST PUSH0 DUP2 MLOAD SWAP1 POP PUSH2 0xABE DUP2 PUSH2 0xA9A JUMP JUMPDEST SWAP3 SWAP2 POP POP JUMP JUMPDEST PUSH0 PUSH1 0x20 DUP3 DUP5 SUB SLT ISZERO PUSH2 0xAD9 JUMPI PUSH2 0xAD8 PUSH2 0x4E3 JUMP JUMPDEST JUMPDEST PUSH0 PUSH2 0xAE6 DUP5 DUP3 DUP6 ADD PUSH2 0xAB0 JUMP JUMPDEST SWAP2 POP POP SWAP3 SWAP2 POP POP JUMP JUMPDEST PUSH0 PUSH0 REVERT JUMPDEST PUSH0 PUSH8 0xFFFFFFFFFFFFFFFF DUP3 GT ISZERO PUSH2 0xB0D JUMPI PUSH2 0xB0C PUSH2 0x559 JUMP JUMPDEST JUMPDEST PUSH2 0xB16 DUP3 PUSH2 0x549 JUMP JUMPDEST SWAP1 POP PUSH1 0x20 DUP2 ADD SWAP1 POP SWAP2 SWAP1 POP JUMP JUMPDEST PUSH0 PUSH2 0xB35 PUSH2 0xB30 DUP5 PUSH2 0xAF3 JUMP JUMPDEST PUSH2 0x5B7 JUMP JUMPDEST SWAP1 POP DUP3 DUP2 MSTORE PUSH1 0x20 DUP2 ADD DUP5 DUP5 DUP5 ADD GT ISZERO PUSH2 0xB51 JUMPI PUSH2 0xB50 PUSH2 0xAEF JUMP JUMPDEST JUMPDEST PUSH2 0xB5C DUP5 DUP3 DUP6 PUSH2 0xA0B JUMP JUMPDEST POP SWAP4 SWAP3 POP POP POP JUMP JUMPDEST PUSH0 DUP3 PUSH1 0x1F DUP4 ADD SLT PUSH2 0xB78 JUMPI PUSH2 0xB77 PUSH2 0x545 JUMP JUMPDEST JUMPDEST DUP2 MLOAD PUSH2 0xB88 DUP5 DUP3 PUSH1 0x20 DUP7 ADD PUSH2 0xB23 JUMP JUMPDEST SWAP2 POP POP SWAP3 SWAP2 POP POP JUMP JUMPDEST PUSH0 PUSH1 0x20 DUP3 DUP5 SUB SLT ISZERO PUSH2 0xBA6 JUMPI PUSH2 0xBA5 PUSH2 0x4E3 JUMP JUMPDEST JUMPDEST PUSH0 DUP3 ADD MLOAD PUSH8 0xFFFFFFFFFFFFFFFF DUP2 GT ISZERO PUSH2 0xBC3 JUMPI PUSH2 0xBC2 PUSH2 0x4E7 JUMP JUMPDEST JUMPDEST PUSH2 0xBCF DUP5 DUP3 DUP6 ADD PUSH2 0xB64 JUMP JUMPDEST SWAP2 POP POP SWAP3 SWAP2 POP POP JUMP JUMPDEST PUSH2 0x468C DUP1 PUSH2 0xBE5 PUSH0 CODECOPY PUSH0 RETURN INVALID PUSH1 0x80 PUSH1 0x40 MSTORE PUSH1 0x4 CALLDATASIZE LT PUSH2 0x1C5 JUMPI PUSH0 CALLDATALOAD PUSH1 0xE0 SHR DUP1 PUSH4 0x6E82AD06 GT PUSH2 0xF6 JUMPI DUP1 PUSH4 0xA217FDDF GT PUSH2 0x94 JUMPI DUP1 PUSH4 0xD3C7C2C7 GT PUSH2 0x63 JUMPI DUP1 PUSH4 0xD3C7C2C7 EQ PUSH2 0x73F JUMPI DUP1 PUSH4 0xD547741F EQ PUSH2 0x769 JUMPI DUP1 PUSH4 0xF5DAB711 EQ PUSH2 0x791 JUMPI DUP1 PUSH4 0xF700C829 EQ PUSH2 0x7D2 JUMPI PUSH2 0x287 JUMP JUMPDEST DUP1 PUSH4 0xA217FDDF EQ PUSH2 0x681 JUMPI DUP1 PUSH4 0xBC4B3365 EQ PUSH2 0x6AB JUMPI DUP1 PUSH4 0xC6255626 EQ PUSH2 0x6C7 JUMPI DUP1 PUSH4 0xD1A0CC5C EQ PUSH2 0x703 JUMPI PUSH2 0x287 JUMP JUMPDEST DUP1 PUSH4 0x76319190 GT PUSH2 0xD0 JUMPI DUP1 PUSH4 0x76319190 EQ PUSH2 0x5C7 JUMPI DUP1 PUSH4 0x91D14854 EQ PUSH2 0x5EF JUMPI DUP1 PUSH4 0x9304739D EQ PUSH2 0x62B JUMPI DUP1 PUSH4 0xA1C7C1A6 EQ PUSH2 0x657 JUMPI PUSH2 0x287 JUMP JUMPDEST DUP1 PUSH4 0x6E82AD06 EQ PUSH2 0x539 JUMPI DUP1 PUSH4 0x75151B63 EQ PUSH2 0x561 JUMPI DUP1 PUSH4 0x75B238FC EQ PUSH2 0x59D JUMPI PUSH2 0x287 JUMP JUMPDEST DUP1 PUSH4 0x28983EBD GT PUSH2 0x163 JUMPI DUP1 PUSH4 0x349B5954 GT PUSH2 0x13D JUMPI DUP1 PUSH4 0x349B5954 EQ PUSH2 0x483 JUMPI DUP1 PUSH4 0x36568ABE EQ PUSH2 0x4AD JUMPI DUP1 PUSH4 0x3AECD0E3 EQ PUSH2 0x4D5 JUMPI DUP1 PUSH4 0x6D69FCAF EQ PUSH2 0x511 JUMPI PUSH2 0x287 JUMP JUMPDEST DUP1 PUSH4 0x28983EBD EQ PUSH2 0x3F5 JUMPI DUP1 PUSH4 0x2F2FF15D EQ PUSH2 0x433 JUMPI DUP1 PUSH4 0x33A738C9 EQ PUSH2 0x45B JUMPI PUSH2 0x287 JUMP JUMPDEST DUP1 PUSH4 0x1CC0A1C3 GT PUSH2 0x19F JUMPI DUP1 PUSH4 0x1CC0A1C3 EQ PUSH2 0x317 JUMPI DUP1 PUSH4 0x1D163923 EQ PUSH2 0x353 JUMPI DUP1 PUSH4 0x1F69565F EQ PUSH2 0x37D JUMPI DUP1 PUSH4 0x248A9CA3 EQ PUSH2 0x3B9 JUMPI PUSH2 0x287 JUMP JUMPDEST DUP1 PUSH4 0x1FFC9A7 EQ PUSH2 0x28B JUMPI DUP1 PUSH4 0x1132454D EQ PUSH2 0x2C7 JUMPI DUP1 PUSH4 0x1C20FADD EQ PUSH2 0x2EF JUMPI PUSH2 0x287 JUMP JUMPDEST CALLDATASIZE PUSH2 0x287 JUMPI CALLVALUE PUSH1 0x4 PUSH0 PUSH0 PUSH20 0xFFFFFFFFFFFFFFFFFFFFFFFFFFFFFFFFFFFFFFFF AND PUSH20 0xFFFFFFFFFFFFFFFFFFFFFFFFFFFFFFFFFFFFFFFF AND DUP2 MSTORE PUSH1 0x20 ADD SWAP1 DUP2 MSTORE PUSH1 0x20 ADD PUSH0 KECCAK256 PUSH1 0x3 ADD PUSH0 DUP3 DUP3 SLOAD PUSH2 0x219 SWAP2 SWAP1 PUSH2 0x3170 JUMP JUMPDEST SWAP3 POP POP DUP2 SWAP1 SSTORE POP CALLER PUSH20 0xFFFFFFFFFFFFFFFFFFFFFFFFFFFFFFFFFFFFFFFF AND PUSH0 PUSH20 0xFFFFFFFFFFFFFFFFFFFFFFFFFFFFFFFFFFFFFFFF AND PUSH32 0x30F1CC05E02CAB00B43711C7C16DF2558139122D0FEEA37E4977A748E013A5AA CALLVALUE PUSH1 0x40 MLOAD PUSH2 0x27D SWAP2 SWAP1 PUSH2 0x31B2 JUMP JUMPDEST PUSH1 0x40 MLOAD DUP1 SWAP2 SUB SWAP1 LOG3 STOP JUMPDEST PUSH0 PUSH0 REVERT JUMPDEST CALLVALUE DUP1 ISZERO PUSH2 0x296 JUMPI PUSH0 PUSH0 REVERT JUMPDEST POP PUSH2 0x2B1 PUSH1 0x4 DUP1 CALLDATASIZE SUB DUP2 ADD SWAP1 PUSH2 0x2AC SWAP2 SWAP1 PUSH2 0x3231 JUMP JUMPDEST PUSH2 0x7FC JUMP JUMPDEST PUSH1 0x40 MLOAD PUSH2 0x2BE SWAP2 SWAP1 PUSH2 0x3276 JUMP JUMPDEST PUSH1 0x40 MLOAD DUP1 SWAP2 SUB SWAP1 RETURN JUMPDEST CALLVALUE DUP1 ISZERO PUSH2 0x2D2 JUMPI PUSH0 PUSH0 REVERT JUMPDEST POP PUSH2 0x2ED PUSH1 0x4 DUP1 CALLDATASIZE SUB DUP2 ADD SWAP1 PUSH2 0x2E8 SWAP2 SWAP1 PUSH2 0x32B9 JUMP JUMPDEST PUSH2 0x875 JUMP JUMPDEST STOP JUMPDEST CALLVALUE DUP1 ISZERO PUSH2 0x2FA JUMPI PUSH0 PUSH0 REVERT JUMPDEST POP PUSH2 0x315 PUSH1 0x4 DUP1 CALLDATASIZE SUB DUP2 ADD SWAP1 PUSH2 0x310 SWAP2 SWAP1 PUSH2 0x333E JUMP JUMPDEST PUSH2 0xABF JUMP JUMPDEST STOP JUMPDEST CALLVALUE DUP1 ISZERO PUSH2 0x322 JUMPI PUSH0 PUSH0 REVERT JUMPDEST POP PUSH2 0x33D PUSH1 0x4 DUP1 CALLDATASIZE SUB DUP2 ADD SWAP1 PUSH2 0x338 SWAP2 SWAP1 PUSH2 0x333E JUMP JUMPDEST PUSH2 0x1017 JUMP JUMPDEST PUSH1 0x40 MLOAD PUSH2 0x34A SWAP2 SWAP1 PUSH2 0x31B2 JUMP JUMPDEST PUSH1 0x40 MLOAD DUP1 SWAP2 SUB SWAP1 RETURN JUMPDEST CALLVALUE DUP1 ISZERO PUSH2 0x35E JUMPI PUSH0 PUSH0 REVERT JUMPDEST POP PUSH2 0x367 PUSH2 0x1062 JUMP JUMPDEST PUSH1 0x40 MLOAD PUSH2 0x374 SWAP2 SWAP1 PUSH2 0x31B2 JUMP JUMPDEST PUSH1 0x40 MLOAD DUP1 SWAP2 SUB SWAP1 RETURN JUMPDEST CALLVALUE DUP1 ISZERO PUSH2 0x388 JUMPI PUSH0 PUSH0 REVERT JUMPDEST POP PUSH2 0x3A3 PUSH1 0x4 DUP1 CALLDATASIZE SUB DUP2 ADD SWAP1 PUSH2 0x39E SWAP2 SWAP1 PUSH2 0x338E JUMP JUMPDEST PUSH2 0x106E JUMP JUMPDEST PUSH1 0x40 MLOAD PUSH2 0x3B0 SWAP2 SWAP1 PUSH2 0x34F7 JUMP JUMPDEST PUSH1 0x40 MLOAD DUP1 SWAP2 SUB SWAP1 RETURN JUMPDEST CALLVALUE DUP1 ISZERO PUSH2 0x3C4 JUMPI PUSH0 PUSH0 REVERT JUMPDEST POP PUSH2 0x3DF PUSH1 0x4 DUP1 CALLDATASIZE SUB DUP2 ADD SWAP1 PUSH2 0x3DA SWAP2 SWAP1 PUSH2 0x354A JUMP JUMPDEST PUSH2 0x11F4 JUMP JUMPDEST PUSH1 0x40 MLOAD PUSH2 0x3EC SWAP2 SWAP1 PUSH2 0x3584 JUMP JUMPDEST PUSH1 0x40 MLOAD DUP1 SWAP2 SUB SWAP1 RETURN JUMPDEST CALLVALUE DUP1 ISZERO PUSH2 0x400 JUMPI PUSH0 PUSH0 REVERT JUMPDEST POP PUSH2 0x41B PUSH1 0x4 DUP1 CALLDATASIZE SUB DUP2 ADD SWAP1 PUSH2 0x416 SWAP2 SWAP1 PUSH2 0x359D JUMP JUMPDEST PUSH2 0x1210 JUMP JUMPDEST PUSH1 0x40 MLOAD PUSH2 0x42A SWAP4 SWAP3 SWAP2 SWAP1 PUSH2 0x35DB JUMP JUMPDEST PUSH1 0x40 MLOAD DUP1 SWAP2 SUB SWAP1 RETURN JUMPDEST CALLVALUE DUP1 ISZERO PUSH2 0x43E JUMPI PUSH0 PUSH0 REVERT JUMPDEST POP PUSH2 0x459 PUSH1 0x4 DUP1 CALLDATASIZE SUB DUP2 ADD SWAP1 PUSH2 0x454 SWAP2 SWAP1 PUSH2 0x3610 JUMP JUMPDEST PUSH2 0x127D JUMP JUMPDEST STOP JUMPDEST CALLVALUE DUP1 ISZERO PUSH2 0x466 JUMPI PUSH0 PUSH0 REVERT JUMPDEST POP PUSH2 0x481 PUSH1 0x4 DUP1 CALLDATASIZE SUB DUP2 ADD SWAP1 PUSH2 0x47C SWAP2 SWAP1 PUSH2 0x333E JUMP JUMPDEST PUSH2 0x129F JUMP JUMPDEST STOP JUMPDEST CALLVALUE DUP1 ISZERO PUSH2 0x48E JUMPI PUSH0 PUSH0 REVERT JUMPDEST POP PUSH2 0x497 PUSH2 0x13BA JUMP JUMPDEST PUSH1 0x40 MLOAD PUSH2 0x4A4 SWAP2 SWAP1 PUSH2 0x3584 JUMP JUMPDEST PUSH1 0x40 MLOAD DUP1 SWAP2 SUB SWAP1 RETURN JUMPDEST CALLVALUE DUP1 ISZERO PUSH2 0x4B8 JUMPI PUSH0 PUSH0 REVERT JUMPDEST POP PUSH2 0x4D3 PUSH1 0x4 DUP1 CALLDATASIZE SUB DUP2 ADD SWAP1 PUSH2 0x4CE SWAP2 SWAP1 PUSH2 0x3610 JUMP JUMPDEST PUSH2 0x13DE JUMP JUMPDEST STOP JUMPDEST CALLVALUE DUP1 ISZERO PUSH2 0x4E0 JUMPI PUSH0 PUSH0 REVERT JUMPDEST POP PUSH2 0x4FB PUSH1 0x4 DUP1 CALLDATASIZE SUB DUP2 ADD SWAP1 PUSH2 0x4F6 SWAP2 SWAP1 PUSH2 0x338E JUMP JUMPDEST PUSH2 0x1459 JUMP JUMPDEST PUSH1 0x40 MLOAD PUSH2 0x508 SWAP2 SWAP1 PUSH2 0x31B2 JUMP JUMPDEST PUSH1 0x40 MLOAD DUP1 SWAP2 SUB SWAP1 RETURN JUMPDEST CALLVALUE DUP1 ISZERO PUSH2 0x51C JUMPI PUSH0 PUSH0 REVERT JUMPDEST POP PUSH2 0x537 PUSH1 0x4 DUP1 CALLDATASIZE SUB DUP2 ADD SWAP1 PUSH2 0x532 SWAP2 SWAP1 PUSH2 0x338E JUMP JUMPDEST PUSH2 0x14A2 JUMP JUMPDEST STOP JUMPDEST CALLVALUE DUP1 ISZERO PUSH2 0x544 JUMPI PUSH0 PUSH0 REVERT JUMPDEST POP PUSH2 0x55F PUSH1 0x4 DUP1 CALLDATASIZE SUB DUP2 ADD SWAP1 PUSH2 0x55A SWAP2 SWAP1 PUSH2 0x359D JUMP JUMPDEST PUSH2 0x1762 JUMP JUMPDEST STOP JUMPDEST CALLVALUE DUP1 ISZERO PUSH2 0x56C JUMPI PUSH0 PUSH0 REVERT JUMPDEST POP PUSH2 0x587 PUSH1 0x4 DUP1 CALLDATASIZE SUB DUP2 ADD SWAP1 PUSH2 0x582 SWAP2 SWAP1 PUSH2 0x338E JUMP JUMPDEST PUSH2 0x1804 JUMP JUMPDEST PUSH1 0x40 MLOAD PUSH2 0x594 SWAP2 SWAP1 PUSH2 0x3276 JUMP JUMPDEST PUSH1 0x40 MLOAD DUP1 SWAP2 SUB SWAP1 RETURN JUMPDEST CALLVALUE DUP1 ISZERO PUSH2 0x5A8 JUMPI PUSH0 PUSH0 REVERT JUMPDEST POP PUSH2 0x5B1 PUSH2 0x1821 JUMP JUMPDEST PUSH1 0x40 MLOAD PUSH2 0x5BE SWAP2 SWAP1 PUSH2 0x3584 JUMP JUMPDEST PUSH1 0x40 MLOAD DUP1 SWAP2 SUB SWAP1 RETURN JUMPDEST CALLVALUE DUP1 ISZERO PUSH2 0x5D2 JUMPI PUSH0 PUSH0 REVERT JUMPDEST POP PUSH2 0x5ED PUSH1 0x4 DUP1 CALLDATASIZE SUB DUP2 ADD SWAP1 PUSH2 0x5E8 SWAP2 SWAP1 PUSH2 0x338E JUMP JUMPDEST PUSH2 0x1845 JUMP JUMPDEST STOP JUMPDEST CALLVALUE DUP1 ISZERO PUSH2 0x5FA JUMPI PUSH0 PUSH0 REVERT JUMPDEST POP PUSH2 0x615 PUSH1 0x4 DUP1 CALLDATASIZE SUB DUP2 ADD SWAP1 PUSH2 0x610 SWAP2 SWAP1 PUSH2 0x3610 JUMP JUMPDEST PUSH2 0x1DE9 JUMP JUMPDEST PUSH1 0x40 MLOAD PUSH2 0x622 SWAP2 SWAP1 PUSH2 0x3276 JUMP JUMPDEST PUSH1 0x40 MLOAD DUP1 SWAP2 SUB SWAP1 RETURN JUMPDEST CALLVALUE DUP1 ISZERO PUSH2 0x636 JUMPI PUSH0 PUSH0 REVERT JUMPDEST POP PUSH2 0x63F PUSH2 0x1E4C JUMP JUMPDEST PUSH1 0x40 MLOAD PUSH2 0x64E SWAP4 SWAP3 SWAP2 SWAP1 PUSH2 0x379E JUMP JUMPDEST PUSH1 0x40 MLOAD DUP1 SWAP2 SUB SWAP1 RETURN JUMPDEST CALLVALUE DUP1 ISZERO PUSH2 0x662 JUMPI PUSH0 PUSH0 REVERT JUMPDEST POP PUSH2 0x66B PUSH2 0x20D3 JUMP JUMPDEST PUSH1 0x40 MLOAD PUSH2 0x678 SWAP2 SWAP1 PUSH2 0x37F7 JUMP JUMPDEST PUSH1 0x40 MLOAD DUP1 SWAP2 SUB SWAP1 RETURN JUMPDEST CALLVALUE DUP1 ISZERO PUSH2 0x68C JUMPI PUSH0 PUSH0 REVERT JUMPDEST POP PUSH2 0x695 PUSH2 0x20F8 JUMP JUMPDEST PUSH1 0x40 MLOAD PUSH2 0x6A2 SWAP2 SWAP1 PUSH2 0x3584 JUMP JUMPDEST PUSH1 0x40 MLOAD DUP1 SWAP2 SUB SWAP1 RETURN JUMPDEST PUSH2 0x6C5 PUSH1 0x4 DUP1 CALLDATASIZE SUB DUP2 ADD SWAP1 PUSH2 0x6C0 SWAP2 SWAP1 PUSH2 0x359D JUMP JUMPDEST PUSH2 0x20FE JUMP JUMPDEST STOP JUMPDEST CALLVALUE DUP1 ISZERO PUSH2 0x6D2 JUMPI PUSH0 PUSH0 REVERT JUMPDEST POP PUSH2 0x6ED PUSH1 0x4 DUP1 CALLDATASIZE SUB DUP2 ADD SWAP1 PUSH2 0x6E8 SWAP2 SWAP1 PUSH2 0x32B9 JUMP JUMPDEST PUSH2 0x248A JUMP JUMPDEST PUSH1 0x40 MLOAD PUSH2 0x6FA SWAP2 SWAP1 PUSH2 0x37F7 JUMP JUMPDEST PUSH1 0x40 MLOAD DUP1 SWAP2 SUB SWAP1 RETURN JUMPDEST CALLVALUE DUP1 ISZERO PUSH2 0x70E JUMPI PUSH0 PUSH0 REVERT JUMPDEST POP PUSH2 0x729 PUSH1 0x4 DUP1 CALLDATASIZE SUB DUP2 ADD SWAP1 PUSH2 0x724 SWAP2 SWAP1 PUSH2 0x333E JUMP JUMPDEST PUSH2 0x24C5 JUMP JUMPDEST PUSH1 0x40 MLOAD PUSH2 0x736 SWAP2 SWAP1 PUSH2 0x3276 JUMP JUMPDEST PUSH1 0x40 MLOAD DUP1 SWAP2 SUB SWAP1 RETURN JUMPDEST CALLVALUE DUP1 ISZERO PUSH2 0x74A JUMPI PUSH0 PUSH0 REVERT JUMPDEST POP PUSH2 0x753 PUSH2 0x2734 JUMP JUMPDEST PUSH1 0x40 MLOAD PUSH2 0x760 SWAP2 SWAP1 PUSH2 0x3810 JUMP JUMPDEST PUSH1 0x40 MLOAD DUP1 SWAP2 SUB SWAP1 RETURN JUMPDEST CALLVALUE DUP1 ISZERO PUSH2 0x774 JUMPI PUSH0 PUSH0 REVERT JUMPDEST POP PUSH2 0x78F PUSH1 0x4 DUP1 CALLDATASIZE SUB DUP2 ADD SWAP1 PUSH2 0x78A SWAP2 SWAP1 PUSH2 0x3610 JUMP JUMPDEST PUSH2 0x27BF JUMP JUMPDEST STOP JUMPDEST CALLVALUE DUP1 ISZERO PUSH2 0x79C JUMPI PUSH0 PUSH0 REVERT JUMPDEST POP PUSH2 0x7B7 PUSH1 0x4 DUP1 CALLDATASIZE SUB DUP2 ADD SWAP1 PUSH2 0x7B2 SWAP2 SWAP1 PUSH2 0x338E JUMP JUMPDEST PUSH2 0x27E1 JUMP JUMPDEST PUSH1 0x40 MLOAD PUSH2 0x7C9 SWAP7 SWAP6 SWAP5 SWAP4 SWAP3 SWAP2 SWAP1 PUSH2 0x3887 JUMP JUMPDEST PUSH1 0x40 MLOAD DUP1 SWAP2 SUB SWAP1 RETURN JUMPDEST CALLVALUE DUP1 ISZERO PUSH2 0x7DD JUMPI PUSH0 PUSH0 REVERT JUMPDEST POP PUSH2 0x7E6 PUSH2 0x28D7 JUMP JUMPDEST PUSH1 0x40 MLOAD PUSH2 0x7F3 SWAP2 SWAP1 PUSH2 0x31B2 JUMP JUMPDEST PUSH1 0x40 MLOAD DUP1 SWAP2 SUB SWAP1 RETURN JUMPDEST PUSH0 PUSH32 0x7965DB0B00000000000000000000000000000000000000000000000000000000 PUSH28 0xFFFFFFFFFFFFFFFFFFFFFFFFFFFFFFFFFFFFFFFFFFFFFFFFFFFFFFFF NOT AND DUP3 PUSH28 0xFFFFFFFFFFFFFFFFFFFFFFFFFFFFFFFFFFFFFFFFFFFFFFFFFFFFFFFF NOT AND EQ DUP1 PUSH2 0x86E JUMPI POP PUSH2 0x86D DUP3 PUSH2 0x28DD JUMP JUMPDEST JUMPDEST SWAP1 POP SWAP2 SWAP1 POP JUMP JUMPDEST PUSH1 0x2 PUSH0 SWAP1 SLOAD SWAP1 PUSH2 0x100 EXP SWAP1 DIV PUSH20 0xFFFFFFFFFFFFFFFFFFFFFFFFFFFFFFFFFFFFFFFF AND PUSH20 0xFFFFFFFFFFFFFFFFFFFFFFFFFFFFFFFFFFFFFFFF AND PUSH4 0x91D14854 PUSH32 0xA49807205CE4D355092EF5A8A18F56E8913CF4A201FBE287825B095693C21775 CALLER PUSH1 0x40 MLOAD DUP4 PUSH4 0xFFFFFFFF AND PUSH1 0xE0 SHL DUP2 MSTORE PUSH1 0x4 ADD PUSH2 0x8F1 SWAP3 SWAP2 SWAP1 PUSH2 0x38ED JUMP JUMPDEST PUSH1 0x20 PUSH1 0x40 MLOAD DUP1 DUP4 SUB DUP2 DUP7 GAS STATICCALL ISZERO DUP1 ISZERO PUSH2 0x90C JUMPI RETURNDATASIZE PUSH0 PUSH0 RETURNDATACOPY RETURNDATASIZE PUSH0 REVERT JUMPDEST POP POP POP POP PUSH1 0x40 MLOAD RETURNDATASIZE PUSH1 0x1F NOT PUSH1 0x1F DUP3 ADD AND DUP3 ADD DUP1 PUSH1 0x40 MSTORE POP DUP2 ADD SWAP1 PUSH2 0x930 SWAP2 SWAP1 PUSH2 0x393E JUMP JUMPDEST DUP1 PUSH2 0x9F2 JUMPI POP PUSH1 0x2 PUSH0 SWAP1 SLOAD SWAP1 PUSH2 0x100 EXP SWAP1 DIV PUSH20 0xFFFFFFFFFFFFFFFFFFFFFFFFFFFFFFFFFFFFFFFF AND PUSH20 0xFFFFFFFFFFFFFFFFFFFFFFFFFFFFFFFFFFFFFFFF AND PUSH4 0x91D14854 PUSH32 0x940D6B1946FF1D2B5A9F1909219C3C81A370804B5BA0F91EC0828C99A2E6A681 CALLER PUSH1 0x40 MLOAD DUP4 PUSH4 0xFFFFFFFF AND PUSH1 0xE0 SHL DUP2 MSTORE PUSH1 0x4 ADD PUSH2 0x9B2 SWAP3 SWAP2 SWAP1 PUSH2 0x38ED JUMP JUMPDEST PUSH1 0x20 PUSH1 0x40 MLOAD DUP1 DUP4 SUB DUP2 DUP7 GAS STATICCALL ISZERO DUP1 ISZERO PUSH2 0x9CD JUMPI RETURNDATASIZE PUSH0 PUSH0 RETURNDATACOPY RETURNDATASIZE PUSH0 REVERT JUMPDEST POP POP POP POP PUSH1 0x40 MLOAD RETURNDATASIZE PUSH1 0x1F NOT PUSH1 0x1F DUP3 ADD AND DUP3 ADD DUP1 PUSH1 0x40 MSTORE POP DUP2 ADD SWAP1 PUSH2 0x9F1 SWAP2 SWAP1 PUSH2 0x393E JUMP JUMPDEST JUMPDEST PUSH2 0xA31 JUMPI PUSH1 0x40 MLOAD PUSH32 0x8C379A000000000000000000000000000000000000000000000000000000000 DUP2 MSTORE PUSH1 0x4 ADD PUSH2 0xA28 SWAP1 PUSH2 0x39B3 JUMP JUMPDEST PUSH1 0x40 MLOAD DUP1 SWAP2 SUB SWAP1 REVERT JUMPDEST PUSH1 0x32 DUP2 GT ISZERO PUSH2 0xA75 JUMPI PUSH1 0x40 MLOAD PUSH32 0x8C379A000000000000000000000000000000000000000000000000000000000 DUP2 MSTORE PUSH1 0x4 ADD PUSH2 0xA6C SWAP1 PUSH2 0x3A1B JUMP JUMPDEST PUSH1 0x40 MLOAD DUP1 SWAP2 SUB SWAP1 REVERT JUMPDEST PUSH0 PUSH1 0x6 SLOAD SWAP1 POP DUP2 PUSH1 0x6 DUP2 SWAP1 SSTORE POP PUSH32 0x4EC795D4FBC11BD4B110942496B55A732F92E5CAD5729DF002860F4C0580D7D1 DUP2 DUP4 PUSH1 0x40 MLOAD PUSH2 0xAB3 SWAP3 SWAP2 SWAP1 PUSH2 0x3A39 JUMP JUMPDEST PUSH1 0x40 MLOAD DUP1 SWAP2 SUB SWAP1 LOG1 POP POP JUMP JUMPDEST PUSH1 0x2 PUSH0 SWAP1 SLOAD SWAP1 PUSH2 0x100 EXP SWAP1 DIV PUSH20 0xFFFFFFFFFFFFFFFFFFFFFFFFFFFFFFFFFFFFFFFF AND PUSH20 0xFFFFFFFFFFFFFFFFFFFFFFFFFFFFFFFFFFFFFFFF AND PUSH4 0x91D14854 PUSH32 0xA49807205CE4D355092EF5A8A18F56E8913CF4A201FBE287825B095693C21775 CALLER PUSH1 0x40 MLOAD DUP4 PUSH4 0xFFFFFFFF AND PUSH1 0xE0 SHL DUP2 MSTORE PUSH1 0x4 ADD PUSH2 0xB3B SWAP3 SWAP2 SWAP1 PUSH2 0x38ED JUMP JUMPDEST PUSH1 0x20 PUSH1 0x40 MLOAD DUP1 DUP4 SUB DUP2 DUP7 GAS STATICCALL ISZERO DUP1 ISZERO PUSH2 0xB56 JUMPI RETURNDATASIZE PUSH0 PUSH0 RETURNDATACOPY RETURNDATASIZE PUSH0 REVERT JUMPDEST POP POP POP POP PUSH1 0x40 MLOAD RETURNDATASIZE PUSH1 0x1F NOT PUSH1 0x1F DUP3 ADD AND DUP3 ADD DUP1 PUSH1 0x40 MSTORE POP DUP2 ADD SWAP1 PUSH2 0xB7A SWAP2 SWAP1 PUSH2 0x393E JUMP JUMPDEST DUP1 PUSH2 0xC3C JUMPI POP PUSH1 0x2 PUSH0 SWAP1 SLOAD SWAP1 PUSH2 0x100 EXP SWAP1 DIV PUSH20 0xFFFFFFFFFFFFFFFFFFFFFFFFFFFFFFFFFFFFFFFF AND PUSH20 0xFFFFFFFFFFFFFFFFFFFFFFFFFFFFFFFFFFFFFFFF AND PUSH4 0x91D14854 PUSH32 0x940D6B1946FF1D2B5A9F1909219C3C81A370804B5BA0F91EC0828C99A2E6A681 CALLER PUSH1 0x40 MLOAD DUP4 PUSH4 0xFFFFFFFF AND PUSH1 0xE0 SHL DUP2 MSTORE PUSH1 0x4 ADD PUSH2 0xBFC SWAP3 SWAP2 SWAP1 PUSH2 0x38ED JUMP JUMPDEST PUSH1 0x20 PUSH1 0x40 MLOAD DUP1 DUP4 SUB DUP2 DUP7 GAS STATICCALL ISZERO DUP1 ISZERO PUSH2 0xC17 JUMPI RETURNDATASIZE PUSH0 PUSH0 RETURNDATACOPY RETURNDATASIZE PUSH0 REVERT JUMPDEST POP POP POP POP PUSH1 0x40 MLOAD RETURNDATASIZE PUSH1 0x1F NOT PUSH1 0x1F DUP3 ADD AND DUP3 ADD DUP1 PUSH1 0x40 MSTORE POP DUP2 ADD SWAP1 PUSH2 0xC3B SWAP2 SWAP1 PUSH2 0x393E JUMP JUMPDEST JUMPDEST PUSH2 0xC7B JUMPI PUSH1 0x40 MLOAD PUSH32 0x8C379A000000000000000000000000000000000000000000000000000000000 DUP2 MSTORE PUSH1 0x4 ADD PUSH2 0xC72 SWAP1 PUSH2 0x39B3 JUMP JUMPDEST PUSH1 0x40 MLOAD DUP1 SWAP2 SUB SWAP1 REVERT JUMPDEST PUSH2 0xC83 PUSH2 0x2946 JUMP JUMPDEST PUSH0 PUSH20 0xFFFFFFFFFFFFFFFFFFFFFFFFFFFFFFFFFFFFFFFF AND DUP3 PUSH20 0xFFFFFFFFFFFFFFFFFFFFFFFFFFFFFFFFFFFFFFFF AND SUB PUSH2 0xCF1 JUMPI PUSH1 0x40 MLOAD PUSH32 0x8C379A000000000000000000000000000000000000000000000000000000000 DUP2 MSTORE PUSH1 0x4 ADD PUSH2 0xCE8 SWAP1 PUSH2 0x3AAA JUMP JUMPDEST PUSH1 0x40 MLOAD DUP1 SWAP2 SUB SWAP1 REVERT JUMPDEST PUSH0 DUP2 GT PUSH2 0xD33 JUMPI PUSH1 0x40 MLOAD PUSH32 0x8C379A000000000000000000000000000000000000000000000000000000000 DUP2 MSTORE PUSH1 0x4 ADD PUSH2 0xD2A SWAP1 PUSH2 0x3B12 JUMP JUMPDEST PUSH1 0x40 MLOAD DUP1 SWAP2 SUB SWAP1 REVERT JUMPDEST DUP1 PUSH1 0x4 PUSH0 DUP6 PUSH20 0xFFFFFFFFFFFFFFFFFFFFFFFFFFFFFFFFFFFFFFFF AND PUSH20 0xFFFFFFFFFFFFFFFFFFFFFFFFFFFFFFFFFFFFFFFF AND DUP2 MSTORE PUSH1 0x20 ADD SWAP1 DUP2 MSTORE PUSH1 0x20 ADD PUSH0 KECCAK256 PUSH1 0x3 ADD SLOAD LT ISZERO PUSH2 0xDB6 JUMPI PUSH1 0x40 MLOAD PUSH32 0x8C379A000000000000000000000000000000000000000000000000000000000 DUP2 MSTORE PUSH1 0x4 ADD PUSH2 0xDAD SWAP1 PUSH2 0x3B7A JUMP JUMPDEST PUSH1 0x40 MLOAD DUP1 SWAP2 SUB SWAP1 REVERT JUMPDEST PUSH0 DUP2 PUSH1 0x4 PUSH0 DUP7 PUSH20 0xFFFFFFFFFFFFFFFFFFFFFFFFFFFFFFFFFFFFFFFF AND PUSH20 0xFFFFFFFFFFFFFFFFFFFFFFFFFFFFFFFFFFFFFFFF AND DUP2 MSTORE PUSH1 0x20 ADD SWAP1 DUP2 MSTORE PUSH1 0x20 ADD PUSH0 KECCAK256 PUSH1 0x3 ADD SLOAD PUSH2 0xE03 SWAP2 SWAP1 PUSH2 0x3B98 JUMP JUMPDEST SWAP1 POP PUSH0 PUSH1 0x64 PUSH1 0x6 SLOAD PUSH1 0x4 PUSH0 DUP9 PUSH20 0xFFFFFFFFFFFFFFFFFFFFFFFFFFFFFFFFFFFFFFFF AND PUSH20 0xFFFFFFFFFFFFFFFFFFFFFFFFFFFFFFFFFFFFFFFF AND DUP2 MSTORE PUSH1 0x20 ADD SWAP1 DUP2 MSTORE PUSH1 0x20 ADD PUSH0 KECCAK256 PUSH1 0x3 ADD SLOAD PUSH2 0xE56 SWAP2 SWAP1 PUSH2 0x3BCB JUMP JUMPDEST PUSH2 0xE60 SWAP2 SWAP1 PUSH2 0x3C39 JUMP JUMPDEST SWAP1 POP DUP1 DUP3 LT ISZERO PUSH2 0xEA5 JUMPI PUSH1 0x40 MLOAD PUSH32 0x8C379A000000000000000000000000000000000000000000000000000000000 DUP2 MSTORE PUSH1 0x4 ADD PUSH2 0xE9C SWAP1 PUSH2 0x3CD9 JUMP JUMPDEST PUSH1 0x40 MLOAD DUP1 SWAP2 SUB SWAP1 REVERT JUMPDEST DUP3 PUSH1 0x4 PUSH0 DUP8 PUSH20 0xFFFFFFFFFFFFFFFFFFFFFFFFFFFFFFFFFFFFFFFF AND PUSH20 0xFFFFFFFFFFFFFFFFFFFFFFFFFFFFFFFFFFFFFFFF AND DUP2 MSTORE PUSH1 0x20 ADD SWAP1 DUP2 MSTORE PUSH1 0x20 ADD PUSH0 KECCAK256 PUSH1 0x3 ADD PUSH0 DUP3 DUP3 SLOAD PUSH2 0xEF4 SWAP2 SWAP1 PUSH2 0x3B98 JUMP JUMPDEST SWAP3 POP POP DUP2 SWAP1 SSTORE POP PUSH0 PUSH20 0xFFFFFFFFFFFFFFFFFFFFFFFFFFFFFFFFFFFFFFFF AND DUP6 PUSH20 0xFFFFFFFFFFFFFFFFFFFFFFFFFFFFFFFFFFFFFFFF AND SUB PUSH2 0xF77 JUMPI DUP4 PUSH20 0xFFFFFFFFFFFFFFFFFFFFFFFFFFFFFFFFFFFFFFFF AND PUSH2 0x8FC DUP5 SWAP1 DUP2 ISZERO MUL SWAP1 PUSH1 0x40 MLOAD PUSH0 PUSH1 0x40 MLOAD DUP1 DUP4 SUB DUP2 DUP6 DUP9 DUP9 CALL SWAP4 POP POP POP POP ISZERO DUP1 ISZERO PUSH2 0xF71 JUMPI RETURNDATASIZE PUSH0 PUSH0 RETURNDATACOPY RETURNDATASIZE PUSH0 REVERT JUMPDEST POP PUSH2 0xFA3 JUMP JUMPDEST PUSH2 0xFA2 DUP5 DUP5 DUP8 PUSH20 0xFFFFFFFFFFFFFFFFFFFFFFFFFFFFFFFFFFFFFFFF AND PUSH2 0x2995 SWAP1 SWAP3 SWAP2 SWAP1 PUSH4 0xFFFFFFFF AND JUMP JUMPDEST JUMPDEST DUP4 PUSH20 0xFFFFFFFFFFFFFFFFFFFFFFFFFFFFFFFFFFFFFFFF AND DUP6 PUSH20 0xFFFFFFFFFFFFFFFFFFFFFFFFFFFFFFFFFFFFFFFF AND PUSH32 0xE9171AEFF46C37AB955B8AFF908E14AE9732BD06634FA131226CFE5C25BFD2FB DUP6 PUSH1 0x40 MLOAD PUSH2 0x1000 SWAP2 SWAP1 PUSH2 0x31B2 JUMP JUMPDEST PUSH1 0x40 MLOAD DUP1 SWAP2 SUB SWAP1 LOG3 POP POP PUSH2 0x1012 PUSH2 0x2A14 JUMP JUMPDEST POP POP POP JUMP JUMPDEST PUSH0 PUSH0 PUSH20 0xFFFFFFFFFFFFFFFFFFFFFFFFFFFFFFFFFFFFFFFF AND DUP5 PUSH20 0xFFFFFFFFFFFFFFFFFFFFFFFFFFFFFFFFFFFFFFFF AND SUB PUSH2 0x1055 JUMPI PUSH2 0x5208 SWAP1 POP PUSH2 0x105B JUMP JUMPDEST PUSH2 0xFDE8 SWAP1 POP JUMPDEST SWAP4 SWAP3 POP POP POP JUMP JUMPDEST PUSH0 PUSH1 0x3 DUP1 SLOAD SWAP1 POP SWAP1 POP SWAP1 JUMP JUMPDEST PUSH2 0x1076 PUSH2 0x30EE JUMP JUMPDEST PUSH1 0x4 PUSH0 DUP4 PUSH20 0xFFFFFFFFFFFFFFFFFFFFFFFFFFFFFFFFFFFFFFFF AND PUSH20 0xFFFFFFFFFFFFFFFFFFFFFFFFFFFFFFFFFFFFFFFF AND DUP2 MSTORE PUSH1 0x20 ADD SWAP1 DUP2 MSTORE PUSH1 0x20 ADD PUSH0 KECCAK256 PUSH1 0x40 MLOAD DUP1 PUSH1 0xC0 ADD PUSH1 0x40 MSTORE SWAP1 DUP2 PUSH0 DUP3 ADD PUSH0 SWAP1 SLOAD SWAP1 PUSH2 0x100 EXP SWAP1 DIV PUSH20 0xFFFFFFFFFFFFFFFFFFFFFFFFFFFFFFFFFFFFFFFF AND PUSH20 0xFFFFFFFFFFFFFFFFFFFFFFFFFFFFFFFFFFFFFFFF AND PUSH20 0xFFFFFFFFFFFFFFFFFFFFFFFFFFFFFFFFFFFFFFFF AND DUP2 MSTORE PUSH1 0x20 ADD PUSH1 0x1 DUP3 ADD DUP1 SLOAD PUSH2 0x1122 SWAP1 PUSH2 0x3D24 JUMP JUMPDEST DUP1 PUSH1 0x1F ADD PUSH1 0x20 DUP1 SWAP2 DIV MUL PUSH1 0x20 ADD PUSH1 0x40 MLOAD SWAP1 DUP2 ADD PUSH1 0x40 MSTORE DUP1 SWAP3 SWAP2 SWAP1 DUP2 DUP2 MSTORE PUSH1 0x20 ADD DUP3 DUP1 SLOAD PUSH2 0x114E SWAP1 PUSH2 0x3D24 JUMP JUMPDEST DUP1 ISZERO PUSH2 0x1199 JUMPI DUP1 PUSH1 0x1F LT PUSH2 0x1170 JUMPI PUSH2 0x100 DUP1 DUP4 SLOAD DIV MUL DUP4 MSTORE SWAP2 PUSH1 0x20 ADD SWAP2 PUSH2 0x1199 JUMP JUMPDEST DUP3 ADD SWAP2 SWAP1 PUSH0 MSTORE PUSH1 0x20 PUSH0 KECCAK256 SWAP1 JUMPDEST DUP2 SLOAD DUP2 MSTORE SWAP1 PUSH1 0x1 ADD SWAP1 PUSH1 0x20 ADD DUP1 DUP4 GT PUSH2 0x117C JUMPI DUP3 SWAP1 SUB PUSH1 0x1F AND DUP3 ADD SWAP2 JUMPDEST POP POP POP POP POP DUP2 MSTORE PUSH1 0x20 ADD PUSH1 0x2 DUP3 ADD PUSH0 SWAP1 SLOAD SWAP1 PUSH2 0x100 EXP SWAP1 DIV PUSH1 0xFF AND PUSH1 0xFF AND PUSH1 0xFF AND DUP2 MSTORE PUSH1 0x20 ADD PUSH1 0x2 DUP3 ADD PUSH1 0x1 SWAP1 SLOAD SWAP1 PUSH2 0x100 EXP SWAP1 DIV PUSH1 0xFF AND ISZERO ISZERO ISZERO ISZERO DUP2 MSTORE PUSH1 0x20 ADD PUSH1 0x3 DUP3 ADD SLOAD DUP2 MSTORE PUSH1 0x20 ADD PUSH1 0x4 DUP3 ADD SLOAD DUP2 MSTORE POP POP SWAP1 POP SWAP2 SWAP1 POP JUMP JUMPDEST PUSH0 PUSH0 PUSH0 DUP4 DUP2 MSTORE PUSH1 0x20 ADD SWAP1 DUP2 MSTORE PUSH1 0x20 ADD PUSH0 KECCAK256 PUSH1 0x1 ADD SLOAD SWAP1 POP SWAP2 SWAP1 POP JUMP JUMPDEST PUSH0 PUSH0 PUSH0 PUSH1 0x4 PUSH0 DUP7 PUSH20 0xFFFFFFFFFFFFFFFFFFFFFFFFFFFFFFFFFFFFFFFF AND PUSH20 0xFFFFFFFFFFFFFFFFFFFFFFFFFFFFFFFFFFFFFFFF AND DUP2 MSTORE PUSH1 0x20 ADD SWAP1 DUP2 MSTORE PUSH1 0x20 ADD PUSH0 KECCAK256 PUSH1 0x3 ADD SLOAD SWAP2 POP DUP4 DUP3 LT ISZERO SWAP3 POP DUP3 PUSH2 0x1272 JUMPI DUP2 DUP5 PUSH2 0x126D SWAP2 SWAP1 PUSH2 0x3B98 JUMP JUMPDEST PUSH2 0x1274 JUMP JUMPDEST PUSH0 JUMPDEST SWAP1 POP SWAP3 POP SWAP3 POP SWAP3 JUMP JUMPDEST PUSH2 0x1286 DUP3 PUSH2 0x11F4 JUMP JUMPDEST PUSH2 0x128F DUP2 PUSH2 0x2A1D JUMP JUMPDEST PUSH2 0x1299 DUP4 DUP4 PUSH2 0x2A31 JUMP JUMPDEST POP POP POP POP JUMP JUMPDEST ADDRESS PUSH20 0xFFFFFFFFFFFFFFFFFFFFFFFFFFFFFFFFFFFFFFFF AND CALLER PUSH20 0xFFFFFFFFFFFFFFFFFFFFFFFFFFFFFFFFFFFFFFFF AND EQ PUSH2 0x130D JUMPI PUSH1 0x40 MLOAD PUSH32 0x8C379A000000000000000000000000000000000000000000000000000000000 DUP2 MSTORE PUSH1 0x4 ADD PUSH2 0x1304 SWAP1 PUSH2 0x3D9E JUMP JUMPDEST PUSH1 0x40 MLOAD DUP1 SWAP2 SUB SWAP1 REVERT JUMPDEST PUSH0 PUSH20 0xFFFFFFFFFFFFFFFFFFFFFFFFFFFFFFFFFFFFFFFF AND DUP4 PUSH20 0xFFFFFFFFFFFFFFFFFFFFFFFFFFFFFFFFFFFFFFFF AND SUB PUSH2 0x1389 JUMPI DUP2 PUSH20 0xFFFFFFFFFFFFFFFFFFFFFFFFFFFFFFFFFFFFFFFF AND PUSH2 0x8FC DUP3 SWAP1 DUP2 ISZERO MUL SWAP1 PUSH1 0x40 MLOAD PUSH0 PUSH1 0x40 MLOAD DUP1 DUP4 SUB DUP2 DUP6 DUP9 DUP9 CALL SWAP4 POP POP POP POP ISZERO DUP1 ISZERO PUSH2 0x1383 JUMPI RETURNDATASIZE PUSH0 PUSH0 RETURNDATACOPY RETURNDATASIZE PUSH0 REVERT JUMPDEST POP PUSH2 0x13B5 JUMP JUMPDEST PUSH2 0x13B4 DUP3 DUP3 DUP6 PUSH20 0xFFFFFFFFFFFFFFFFFFFFFFFFFFFFFFFFFFFFFFFF AND PUSH2 0x2995 SWAP1 SWAP3 SWAP2 SWAP1 PUSH4 0xFFFFFFFF AND JUMP JUMPDEST JUMPDEST POP POP POP JUMP JUMPDEST PUSH32 0x940D6B1946FF1D2B5A9F1909219C3C81A370804B5BA0F91EC0828C99A2E6A681 DUP2 JUMP JUMPDEST PUSH2 0x13E6 PUSH2 0x2B1A JUMP JUMPDEST PUSH20 0xFFFFFFFFFFFFFFFFFFFFFFFFFFFFFFFFFFFFFFFF AND DUP2 PUSH20 0xFFFFFFFFFFFFFFFFFFFFFFFFFFFFFFFFFFFFFFFF AND EQ PUSH2 0x144A JUMPI PUSH1 0x40 MLOAD PUSH32 0x6697B23200000000000000000000000000000000000000000000000000000000 DUP2 MSTORE PUSH1 0x4 ADD PUSH1 0x40 MLOAD DUP1 SWAP2 SUB SWAP1 REVERT JUMPDEST PUSH2 0x1454 DUP3 DUP3 PUSH2 0x2B21 JUMP JUMPDEST POP POP POP JUMP JUMPDEST PUSH0 PUSH1 0x4 PUSH0 DUP4 PUSH20 0xFFFFFFFFFFFFFFFFFFFFFFFFFFFFFFFFFFFFFFFF AND PUSH20 0xFFFFFFFFFFFFFFFFFFFFFFFFFFFFFFFFFFFFFFFF AND DUP2 MSTORE PUSH1 0x20 ADD SWAP1 DUP2 MSTORE PUSH1 0x20 ADD PUSH0 KECCAK256 PUSH1 0x3 ADD SLOAD SWAP1 POP SWAP2 SWAP1 POP JUMP JUMPDEST PUSH1 0x2 PUSH0 SWAP1 SLOAD SWAP1 PUSH2 0x100 EXP SWAP1 DIV PUSH20 0xFFFFFFFFFFFFFFFFFFFFFFFFFFFFFFFFFFFFFFFF AND PUSH20 0xFFFFFFFFFFFFFFFFFFFFFFFFFFFFFFFFFFFFFFFF AND PUSH4 0x91D14854 PUSH32 0xA49807205CE4D355092EF5A8A18F56E8913CF4A201FBE287825B095693C21775 CALLER PUSH1 0x40 MLOAD DUP4 PUSH4 0xFFFFFFFF AND PUSH1 0xE0 SHL DUP2 MSTORE PUSH1 0x4 ADD PUSH2 0x151E SWAP3 SWAP2 SWAP1 PUSH2 0x38ED JUMP JUMPDEST PUSH1 0x20 PUSH1 0x40 MLOAD DUP1 DUP4 SUB DUP2 DUP7 GAS STATICCALL ISZERO DUP1 ISZERO PUSH2 0x1539 JUMPI RETURNDATASIZE PUSH0 PUSH0 RETURNDATACOPY RETURNDATASIZE PUSH0 REVERT JUMPDEST POP POP POP POP PUSH1 0x40 MLOAD RETURNDATASIZE PUSH1 0x1F NOT PUSH1 0x1F DUP3 ADD AND DUP3 ADD DUP1 PUSH1 0x40 MSTORE POP DUP2 ADD SWAP1 PUSH2 0x155D SWAP2 SWAP1 PUSH2 0x393E JUMP JUMPDEST DUP1 PUSH2 0x161F JUMPI POP PUSH1 0x2 PUSH0 SWAP1 SLOAD SWAP1 PUSH2 0x100 EXP SWAP1 DIV PUSH20 0xFFFFFFFFFFFFFFFFFFFFFFFFFFFFFFFFFFFFFFFF AND PUSH20 0xFFFFFFFFFFFFFFFFFFFFFFFFFFFFFFFFFFFFFFFF AND PUSH4 0x91D14854 PUSH32 0x940D6B1946FF1D2B5A9F1909219C3C81A370804B5BA0F91EC0828C99A2E6A681 CALLER PUSH1 0x40 MLOAD DUP4 PUSH4 0xFFFFFFFF AND PUSH1 0xE0 SHL DUP2 MSTORE PUSH1 0x4 ADD PUSH2 0x15DF SWAP3 SWAP2 SWAP1 PUSH2 0x38ED JUMP JUMPDEST PUSH1 0x20 PUSH1 0x40 MLOAD DUP1 DUP4 SUB DUP2 DUP7 GAS STATICCALL ISZERO DUP1 ISZERO PUSH2 0x15FA JUMPI RETURNDATASIZE PUSH0 PUSH0 RETURNDATACOPY RETURNDATASIZE PUSH0 REVERT JUMPDEST POP POP POP POP PUSH1 0x40 MLOAD RETURNDATASIZE PUSH1 0x1F NOT PUSH1 0x1F DUP3 ADD AND DUP3 ADD DUP1 PUSH1 0x40 MSTORE POP DUP2 ADD SWAP1 PUSH2 0x161E SWAP2 SWAP1 PUSH2 0x393E JUMP JUMPDEST JUMPDEST PUSH2 0x165E JUMPI PUSH1 0x40 MLOAD PUSH32 0x8C379A000000000000000000000000000000000000000000000000000000000 DUP2 MSTORE PUSH1 0x4 ADD PUSH2 0x1655 SWAP1 PUSH2 0x39B3 JUMP JUMPDEST PUSH1 0x40 MLOAD DUP1 SWAP2 SUB SWAP1 REVERT JUMPDEST PUSH0 PUSH20 0xFFFFFFFFFFFFFFFFFFFFFFFFFFFFFFFFFFFFFFFF AND DUP2 PUSH20 0xFFFFFFFFFFFFFFFFFFFFFFFFFFFFFFFFFFFFFFFF AND SUB PUSH2 0x16CC JUMPI PUSH1 0x40 MLOAD PUSH32 0x8C379A000000000000000000000000000000000000000000000000000000000 DUP2 MSTORE PUSH1 0x4 ADD PUSH2 0x16C3 SWAP1 PUSH2 0x3E06 JUMP JUMPDEST PUSH1 0x40 MLOAD DUP1 SWAP2 SUB SWAP1 REVERT JUMPDEST PUSH1 0x5 PUSH0 DUP3 PUSH20 0xFFFFFFFFFFFFFFFFFFFFFFFFFFFFFFFFFFFFFFFF AND PUSH20 0xFFFFFFFFFFFFFFFFFFFFFFFFFFFFFFFFFFFFFFFF AND DUP2 MSTORE PUSH1 0x20 ADD SWAP1 DUP2 MSTORE PUSH1 0x20 ADD PUSH0 KECCAK256 PUSH0 SWAP1 SLOAD SWAP1 PUSH2 0x100 EXP SWAP1 DIV PUSH1 0xFF AND ISZERO PUSH2 0x1756 JUMPI PUSH1 0x40 MLOAD PUSH32 0x8C379A000000000000000000000000000000000000000000000000000000000 DUP2 MSTORE PUSH1 0x4 ADD PUSH2 0x174D SWAP1 PUSH2 0x3E6E JUMP JUMPDEST PUSH1 0x40 MLOAD DUP1 SWAP2 SUB SWAP1 REVERT JUMPDEST PUSH2 0x175F DUP2 PUSH2 0x2C0A JUMP JUMPDEST POP JUMP JUMPDEST PUSH0 PUSH1 0x4 PUSH0 DUP5 PUSH20 0xFFFFFFFFFFFFFFFFFFFFFFFFFFFFFFFFFFFFFFFF AND PUSH20 0xFFFFFFFFFFFFFFFFFFFFFFFFFFFFFFFFFFFFFFFF AND DUP2 MSTORE PUSH1 0x20 ADD SWAP1 DUP2 MSTORE PUSH1 0x20 ADD PUSH0 KECCAK256 PUSH1 0x3 ADD SLOAD SWAP1 POP DUP2 DUP2 LT ISZERO PUSH2 0x17FF JUMPI DUP3 PUSH20 0xFFFFFFFFFFFFFFFFFFFFFFFFFFFFFFFFFFFFFFFF AND PUSH32 0x6AAD3D1975AFE102CC763EBD9287D7F7C164D906EA5C8F0C505DBFA92995BB6D DUP3 DUP5 PUSH1 0x40 MLOAD PUSH2 0x17F6 SWAP3 SWAP2 SWAP1 PUSH2 0x3A39 JUMP JUMPDEST PUSH1 0x40 MLOAD DUP1 SWAP2 SUB SWAP1 LOG2 JUMPDEST POP POP POP JUMP JUMPDEST PUSH1 0x5 PUSH1 0x20 MSTORE DUP1 PUSH0 MSTORE PUSH1 0x40 PUSH0 KECCAK256 PUSH0 SWAP2 POP SLOAD SWAP1 PUSH2 0x100 EXP SWAP1 DIV PUSH1 0xFF AND DUP2 JUMP JUMPDEST PUSH32 0xA49807205CE4D355092EF5A8A18F56E8913CF4A201FBE287825B095693C21775 DUP2 JUMP JUMPDEST PUSH1 0x2 PUSH0 SWAP1 SLOAD SWAP1 PUSH2 0x100 EXP SWAP1 DIV PUSH20 0xFFFFFFFFFFFFFFFFFFFFFFFFFFFFFFFFFFFFFFFF AND PUSH20 0xFFFFFFFFFFFFFFFFFFFFFFFFFFFFFFFFFFFFFFFF AND PUSH4 0x91D14854 PUSH32 0xA49807205CE4D355092EF5A8A18F56E8913CF4A201FBE287825B095693C21775 CALLER PUSH1 0x40 MLOAD DUP4 PUSH4 0xFFFFFFFF AND PUSH1 0xE0 SHL DUP2 MSTORE PUSH1 0x4 ADD PUSH2 0x18C1 SWAP3 SWAP2 SWAP1 PUSH2 0x38ED JUMP JUMPDEST PUSH1 0x20 PUSH1 0x40 MLOAD DUP1 DUP4 SUB DUP2 DUP7 GAS STATICCALL ISZERO DUP1 ISZERO PUSH2 0x18DC JUMPI RETURNDATASIZE PUSH0 PUSH0 RETURNDATACOPY RETURNDATASIZE PUSH0 REVERT JUMPDEST POP POP POP POP PUSH1 0x40 MLOAD RETURNDATASIZE PUSH1 0x1F NOT PUSH1 0x1F DUP3 ADD AND DUP3 ADD DUP1 PUSH1 0x40 MSTORE POP DUP2 ADD SWAP1 PUSH2 0x1900 SWAP2 SWAP1 PUSH2 0x393E JUMP JUMPDEST DUP1 PUSH2 0x19C2 JUMPI POP PUSH1 0x2 PUSH0 SWAP1 SLOAD SWAP1 PUSH2 0x100 EXP SWAP1 DIV PUSH20 0xFFFFFFFFFFFFFFFFFFFFFFFFFFFFFFFFFFFFFFFF AND PUSH20 0xFFFFFFFFFFFFFFFFFFFFFFFFFFFFFFFFFFFFFFFF AND PUSH4 0x91D14854 PUSH32 0x940D6B1946FF1D2B5A9F1909219C3C81A370804B5BA0F91EC0828C99A2E6A681 CALLER PUSH1 0x40 MLOAD DUP4 PUSH4 0xFFFFFFFF AND PUSH1 0xE0 SHL DUP2 MSTORE PUSH1 0x4 ADD PUSH2 0x1982 SWAP3 SWAP2 SWAP1 PUSH2 0x38ED JUMP JUMPDEST PUSH1 0x20 PUSH1 0x40 MLOAD DUP1 DUP4 SUB DUP2 DUP7 GAS STATICCALL ISZERO DUP1 ISZERO PUSH2 0x199D JUMPI RETURNDATASIZE PUSH0 PUSH0 RETURNDATACOPY RETURNDATASIZE PUSH0 REVERT JUMPDEST POP POP POP POP PUSH1 0x40 MLOAD RETURNDATASIZE PUSH1 0x1F NOT PUSH1 0x1F DUP3 ADD AND DUP3 ADD DUP1 PUSH1 0x40 MSTORE POP DUP2 ADD SWAP1 PUSH2 0x19C1 SWAP2 SWAP1 PUSH2 0x393E JUMP JUMPDEST JUMPDEST PUSH2 0x1A01 JUMPI PUSH1 0x40 MLOAD PUSH32 0x8C379A000000000000000000000000000000000000000000000000000000000 DUP2 MSTORE PUSH1 0x4 ADD PUSH2 0x19F8 SWAP1 PUSH2 0x39B3 JUMP JUMPDEST PUSH1 0x40 MLOAD DUP1 SWAP2 SUB SWAP1 REVERT JUMPDEST PUSH0 PUSH20 0xFFFFFFFFFFFFFFFFFFFFFFFFFFFFFFFFFFFFFFFF AND DUP2 PUSH20 0xFFFFFFFFFFFFFFFFFFFFFFFFFFFFFFFFFFFFFFFF AND SUB PUSH2 0x1A6F JUMPI PUSH1 0x40 MLOAD PUSH32 0x8C379A000000000000000000000000000000000000000000000000000000000 DUP2 MSTORE PUSH1 0x4 ADD PUSH2 0x1A66 SWAP1 PUSH2 0x3ED6 JUMP JUMPDEST PUSH1 0x40 MLOAD DUP1 SWAP2 SUB SWAP1 REVERT JUMPDEST PUSH1 0x5 PUSH0 DUP3 PUSH20 0xFFFFFFFFFFFFFFFFFFFFFFFFFFFFFFFFFFFFFFFF AND PUSH20 0xFFFFFFFFFFFFFFFFFFFFFFFFFFFFFFFFFFFFFFFF AND DUP2 MSTORE PUSH1 0x20 ADD SWAP1 DUP2 MSTORE PUSH1 0x20 ADD PUSH0 KECCAK256 PUSH0 SWAP1 SLOAD SWAP1 PUSH2 0x100 EXP SWAP1 DIV PUSH1 0xFF AND PUSH2 0x1AF8 JUMPI PUSH1 0x40 MLOAD PUSH32 0x8C379A000000000000000000000000000000000000000000000000000000000 DUP2 MSTORE PUSH1 0x4 ADD PUSH2 0x1AEF SWAP1 PUSH2 0x3F3E JUMP JUMPDEST PUSH1 0x40 MLOAD DUP1 SWAP2 SUB SWAP1 REVERT JUMPDEST PUSH0 PUSH1 0x4 PUSH0 DUP4 PUSH20 0xFFFFFFFFFFFFFFFFFFFFFFFFFFFFFFFFFFFFFFFF AND PUSH20 0xFFFFFFFFFFFFFFFFFFFFFFFFFFFFFFFFFFFFFFFF AND DUP2 MSTORE PUSH1 0x20 ADD SWAP1 DUP2 MSTORE PUSH1 0x20 ADD PUSH0 KECCAK256 PUSH1 0x3 ADD SLOAD EQ PUSH2 0x1B7A JUMPI PUSH1 0x40 MLOAD PUSH32 0x8C379A000000000000000000000000000000000000000000000000000000000 DUP2 MSTORE PUSH1 0x4 ADD PUSH2 0x1B71 SWAP1 PUSH2 0x3FCC JUMP JUMPDEST PUSH1 0x40 MLOAD DUP1 SWAP2 SUB SWAP1 REVERT JUMPDEST PUSH0 PUSH1 0x5 PUSH0 DUP4 PUSH20 0xFFFFFFFFFFFFFFFFFFFFFFFFFFFFFFFFFFFFFFFF AND PUSH20 0xFFFFFFFFFFFFFFFFFFFFFFFFFFFFFFFFFFFFFFFF AND DUP2 MSTORE PUSH1 0x20 ADD SWAP1 DUP2 MSTORE PUSH1 0x20 ADD PUSH0 KECCAK256 PUSH0 PUSH2 0x100 EXP DUP2 SLOAD DUP2 PUSH1 0xFF MUL NOT AND SWAP1 DUP4 ISZERO ISZERO MUL OR SWAP1 SSTORE POP PUSH0 PUSH1 0x4 PUSH0 DUP4 PUSH20 0xFFFFFFFFFFFFFFFFFFFFFFFFFFFFFFFFFFFFFFFF AND PUSH20 0xFFFFFFFFFFFFFFFFFFFFFFFFFFFFFFFFFFFFFFFF AND DUP2 MSTORE PUSH1 0x20 ADD SWAP1 DUP2 MSTORE PUSH1 0x20 ADD PUSH0 KECCAK256 PUSH1 0x2 ADD PUSH1 0x1 PUSH2 0x100 EXP DUP2 SLOAD DUP2 PUSH1 0xFF MUL NOT AND SWAP1 DUP4 ISZERO ISZERO MUL OR SWAP1 SSTORE POP PUSH0 PUSH0 SWAP1 POP JUMPDEST PUSH1 0x3 DUP1 SLOAD SWAP1 POP DUP2 LT ISZERO PUSH2 0x1DA2 JUMPI DUP2 PUSH20 0xFFFFFFFFFFFFFFFFFFFFFFFFFFFFFFFFFFFFFFFF AND PUSH1 0x3 DUP3 DUP2 SLOAD DUP2 LT PUSH2 0x1C63 JUMPI PUSH2 0x1C62 PUSH2 0x3FEA JUMP JUMPDEST JUMPDEST SWAP1 PUSH0 MSTORE PUSH1 0x20 PUSH0 KECCAK256 ADD PUSH0 SWAP1 SLOAD SWAP1 PUSH2 0x100 EXP SWAP1 DIV PUSH20 0xFFFFFFFFFFFFFFFFFFFFFFFFFFFFFFFFFFFFFFFF AND PUSH20 0xFFFFFFFFFFFFFFFFFFFFFFFFFFFFFFFFFFFFFFFF AND SUB PUSH2 0x1D95 JUMPI PUSH1 0x3 PUSH1 0x1 PUSH1 0x3 DUP1 SLOAD SWAP1 POP PUSH2 0x1CBA SWAP2 SWAP1 PUSH2 0x3B98 JUMP JUMPDEST DUP2 SLOAD DUP2 LT PUSH2 0x1CCB JUMPI PUSH2 0x1CCA PUSH2 0x3FEA JUMP JUMPDEST JUMPDEST SWAP1 PUSH0 MSTORE PUSH1 0x20 PUSH0 KECCAK256 ADD PUSH0 SWAP1 SLOAD SWAP1 PUSH2 0x100 EXP SWAP1 DIV PUSH20 0xFFFFFFFFFFFFFFFFFFFFFFFFFFFFFFFFFFFFFFFF AND PUSH1 0x3 DUP3 DUP2 SLOAD DUP2 LT PUSH2 0x1D07 JUMPI PUSH2 0x1D06 PUSH2 0x3FEA JUMP JUMPDEST JUMPDEST SWAP1 PUSH0 MSTORE PUSH1 0x20 PUSH0 KECCAK256 ADD PUSH0 PUSH2 0x100 EXP DUP2 SLOAD DUP2 PUSH20 0xFFFFFFFFFFFFFFFFFFFFFFFFFFFFFFFFFFFFFFFF MUL NOT AND SWAP1 DUP4 PUSH20 0xFFFFFFFFFFFFFFFFFFFFFFFFFFFFFFFFFFFFFFFF AND MUL OR SWAP1 SSTORE POP PUSH1 0x3 DUP1 SLOAD DUP1 PUSH2 0x1D5E JUMPI PUSH2 0x1D5D PUSH2 0x4017 JUMP JUMPDEST JUMPDEST PUSH1 0x1 SWAP1 SUB DUP2 DUP2 SWAP1 PUSH0 MSTORE PUSH1 0x20 PUSH0 KECCAK256 ADD PUSH0 PUSH2 0x100 EXP DUP2 SLOAD SWAP1 PUSH20 0xFFFFFFFFFFFFFFFFFFFFFFFFFFFFFFFFFFFFFFFF MUL NOT AND SWAP1 SSTORE SWAP1 SSTORE PUSH2 0x1DA2 JUMP JUMPDEST DUP1 DUP1 PUSH1 0x1 ADD SWAP2 POP POP PUSH2 0x1C2B JUMP JUMPDEST POP DUP1 PUSH20 0xFFFFFFFFFFFFFFFFFFFFFFFFFFFFFFFFFFFFFFFF AND PUSH32 0x4C910B69FE65A61F7531B9C5042B2329CA7179C77290AA7E2EB3AFA3C8511FD3 PUSH1 0x40 MLOAD PUSH1 0x40 MLOAD DUP1 SWAP2 SUB SWAP1 LOG2 POP JUMP JUMPDEST PUSH0 PUSH0 PUSH0 DUP5 DUP2 MSTORE PUSH1 0x20 ADD SWAP1 DUP2 MSTORE PUSH1 0x20 ADD PUSH0 KECCAK256 PUSH0 ADD PUSH0 DUP4 PUSH20 0xFFFFFFFFFFFFFFFFFFFFFFFFFFFFFFFFFFFFFFFF AND PUSH20 0xFFFFFFFFFFFFFFFFFFFFFFFFFFFFFFFFFFFFFFFF AND DUP2 MSTORE PUSH1 0x20 ADD SWAP1 DUP2 MSTORE PUSH1 0x20 ADD PUSH0 KECCAK256 PUSH0 SWAP1 SLOAD SWAP1 PUSH2 0x100 EXP SWAP1 DIV PUSH1 0xFF AND SWAP1 POP SWAP3 SWAP2 POP POP JUMP JUMPDEST PUSH1 0x60 DUP1 PUSH1 0x60 PUSH0 PUSH1 0x3 DUP1 SLOAD SWAP1 POP SWAP1 POP DUP1 PUSH8 0xFFFFFFFFFFFFFFFF DUP2 GT ISZERO PUSH2 0x1E74 JUMPI PUSH2 0x1E73 PUSH2 0x4044 JUMP JUMPDEST JUMPDEST PUSH1 0x40 MLOAD SWAP1 DUP1 DUP3 MSTORE DUP1 PUSH1 0x20 MUL PUSH1 0x20 ADD DUP3 ADD PUSH1 0x40 MSTORE DUP1 ISZERO PUSH2 0x1EA2 JUMPI DUP2 PUSH1 0x20 ADD PUSH1 0x20 DUP3 MUL DUP1 CALLDATASIZE DUP4 CALLDATACOPY DUP1 DUP3 ADD SWAP2 POP POP SWAP1 POP JUMPDEST POP SWAP4 POP DUP1 PUSH8 0xFFFFFFFFFFFFFFFF DUP2 GT ISZERO PUSH2 0x1EBF JUMPI PUSH2 0x1EBE PUSH2 0x4044 JUMP JUMPDEST JUMPDEST PUSH1 0x40 MLOAD SWAP1 DUP1 DUP3 MSTORE DUP1 PUSH1 0x20 MUL PUSH1 0x20 ADD DUP3 ADD PUSH1 0x40 MSTORE DUP1 ISZERO PUSH2 0x1EED JUMPI DUP2 PUSH1 0x20 ADD PUSH1 0x20 DUP3 MUL DUP1 CALLDATASIZE DUP4 CALLDATACOPY DUP1 DUP3 ADD SWAP2 POP POP SWAP1 POP JUMPDEST POP SWAP3 POP DUP1 PUSH8 0xFFFFFFFFFFFFFFFF DUP2 GT ISZERO PUSH2 0x1F0A JUMPI PUSH2 0x1F09 PUSH2 0x4044 JUMP JUMPDEST JUMPDEST PUSH1 0x40 MLOAD SWAP1 DUP1 DUP3 MSTORE DUP1 PUSH1 0x20 MUL PUSH1 0x20 ADD DUP3 ADD PUSH1 0x40 MSTORE DUP1 ISZERO PUSH2 0x1F38 JUMPI DUP2 PUSH1 0x20 ADD PUSH1 0x20 DUP3 MUL DUP1 CALLDATASIZE DUP4 CALLDATACOPY DUP1 DUP3 ADD SWAP2 POP POP SWAP1 POP JUMPDEST POP SWAP2 POP PUSH0 PUSH0 SWAP1 POP JUMPDEST DUP2 DUP2 LT ISZERO PUSH2 0x20CC JUMPI PUSH1 0x3 DUP2 DUP2 SLOAD DUP2 LT PUSH2 0x1F5C JUMPI PUSH2 0x1F5B PUSH2 0x3FEA JUMP JUMPDEST JUMPDEST SWAP1 PUSH0 MSTORE PUSH1 0x20 PUSH0 KECCAK256 ADD PUSH0 SWAP1 SLOAD SWAP1 PUSH2 0x100 EXP SWAP1 DIV PUSH20 0xFFFFFFFFFFFFFFFFFFFFFFFFFFFFFFFFFFFFFFFF AND DUP6 DUP3 DUP2 MLOAD DUP2 LT PUSH2 0x1F97 JUMPI PUSH2 0x1F96 PUSH2 0x3FEA JUMP JUMPDEST JUMPDEST PUSH1 0x20 MUL PUSH1 0x20 ADD ADD SWAP1 PUSH20 0xFFFFFFFFFFFFFFFFFFFFFFFFFFFFFFFFFFFFFFFF AND SWAP1 DUP2 PUSH20 0xFFFFFFFFFFFFFFFFFFFFFFFFFFFFFFFFFFFFFFFF AND DUP2 MSTORE POP POP PUSH1 0x4 PUSH0 PUSH1 0x3 DUP4 DUP2 SLOAD DUP2 LT PUSH2 0x1FE8 JUMPI PUSH2 0x1FE7 PUSH2 0x3FEA JUMP JUMPDEST JUMPDEST SWAP1 PUSH0 MSTORE PUSH1 0x20 PUSH0 KECCAK256 ADD PUSH0 SWAP1 SLOAD SWAP1 PUSH2 0x100 EXP SWAP1 DIV PUSH20 0xFFFFFFFFFFFFFFFFFFFFFFFFFFFFFFFFFFFFFFFF AND PUSH20 0xFFFFFFFFFFFFFFFFFFFFFFFFFFFFFFFFFFFFFFFF AND PUSH20 0xFFFFFFFFFFFFFFFFFFFFFFFFFFFFFFFFFFFFFFFF AND DUP2 MSTORE PUSH1 0x20 ADD SWAP1 DUP2 MSTORE PUSH1 0x20 ADD PUSH0 KECCAK256 PUSH1 0x3 ADD SLOAD DUP5 DUP3 DUP2 MLOAD DUP2 LT PUSH2 0x2060 JUMPI PUSH2 0x205F PUSH2 0x3FEA JUMP JUMPDEST JUMPDEST PUSH1 0x20 MUL PUSH1 0x20 ADD ADD DUP2 DUP2 MSTORE POP POP PUSH1 0x64 PUSH1 0x6 SLOAD DUP6 DUP4 DUP2 MLOAD DUP2 LT PUSH2 0x2084 JUMPI PUSH2 0x2083 PUSH2 0x3FEA JUMP JUMPDEST JUMPDEST PUSH1 0x20 MUL PUSH1 0x20 ADD ADD MLOAD PUSH2 0x2096 SWAP2 SWAP1 PUSH2 0x3BCB JUMP JUMPDEST PUSH2 0x20A0 SWAP2 SWAP1 PUSH2 0x3C39 JUMP JUMPDEST DUP4 DUP3 DUP2 MLOAD DUP2 LT PUSH2 0x20B3 JUMPI PUSH2 0x20B2 PUSH2 0x3FEA JUMP JUMPDEST JUMPDEST PUSH1 0x20 MUL PUSH1 0x20 ADD ADD DUP2 DUP2 MSTORE POP POP DUP1 DUP1 PUSH1 0x1 ADD SWAP2 POP POP PUSH2 0x1F40 JUMP JUMPDEST POP POP SWAP1 SWAP2 SWAP3 JUMP JUMPDEST PUSH1 0x2 PUSH0 SWAP1 SLOAD SWAP1 PUSH2 0x100 EXP SWAP1 DIV PUSH20 0xFFFFFFFFFFFFFFFFFFFFFFFFFFFFFFFFFFFFFFFF AND DUP2 JUMP JUMPDEST PUSH0 PUSH0 SHL DUP2 JUMP JUMPDEST PUSH1 0x2 PUSH0 SWAP1 SLOAD SWAP1 PUSH2 0x100 EXP SWAP1 DIV PUSH20 0xFFFFFFFFFFFFFFFFFFFFFFFFFFFFFFFFFFFFFFFF AND PUSH20 0xFFFFFFFFFFFFFFFFFFFFFFFFFFFFFFFFFFFFFFFF AND CALLER PUSH20 0xFFFFFFFFFFFFFFFFFFFFFFFFFFFFFFFFFFFFFFFF AND EQ PUSH2 0x218D JUMPI PUSH1 0x40 MLOAD PUSH32 0x8C379A000000000000000000000000000000000000000000000000000000000 DUP2 MSTORE PUSH1 0x4 ADD PUSH2 0x2184 SWAP1 PUSH2 0x40BB JUMP JUMPDEST PUSH1 0x40 MLOAD DUP1 SWAP2 SUB SWAP1 REVERT JUMPDEST PUSH2 0x2195 PUSH2 0x2946 JUMP JUMPDEST PUSH0 PUSH20 0xFFFFFFFFFFFFFFFFFFFFFFFFFFFFFFFFFFFFFFFF AND DUP3 PUSH20 0xFFFFFFFFFFFFFFFFFFFFFFFFFFFFFFFFFFFFFFFF AND SUB PUSH2 0x22CA JUMPI PUSH0 CALLVALUE GT PUSH2 0x220A JUMPI PUSH1 0x40 MLOAD PUSH32 0x8C379A000000000000000000000000000000000000000000000000000000000 DUP2 MSTORE PUSH1 0x4 ADD PUSH2 0x2201 SWAP1 PUSH2 0x4123 JUMP JUMPDEST PUSH1 0x40 MLOAD DUP1 SWAP2 SUB SWAP1 REVERT JUMPDEST CALLVALUE PUSH1 0x4 PUSH0 PUSH0 PUSH20 0xFFFFFFFFFFFFFFFFFFFFFFFFFFFFFFFFFFFFFFFF AND PUSH20 0xFFFFFFFFFFFFFFFFFFFFFFFFFFFFFFFFFFFFFFFF AND DUP2 MSTORE PUSH1 0x20 ADD SWAP1 DUP2 MSTORE PUSH1 0x20 ADD PUSH0 KECCAK256 PUSH1 0x3 ADD PUSH0 DUP3 DUP3 SLOAD PUSH2 0x2259 SWAP2 SWAP1 PUSH2 0x3170 JUMP JUMPDEST SWAP3 POP POP DUP2 SWAP1 SSTORE POP ORIGIN PUSH20 0xFFFFFFFFFFFFFFFFFFFFFFFFFFFFFFFFFFFFFFFF AND PUSH0 PUSH20 0xFFFFFFFFFFFFFFFFFFFFFFFFFFFFFFFFFFFFFFFF AND PUSH32 0x30F1CC05E02CAB00B43711C7C16DF2558139122D0FEEA37E4977A748E013A5AA CALLVALUE PUSH1 0x40 MLOAD PUSH2 0x22BD SWAP2 SWAP1 PUSH2 0x31B2 JUMP JUMPDEST PUSH1 0x40 MLOAD DUP1 SWAP2 SUB SWAP1 LOG3 PUSH2 0x247E JUMP JUMPDEST PUSH1 0x5 PUSH0 DUP4 PUSH20 0xFFFFFFFFFFFFFFFFFFFFFFFFFFFFFFFFFFFFFFFF AND PUSH20 0xFFFFFFFFFFFFFFFFFFFFFFFFFFFFFFFFFFFFFFFF AND DUP2 MSTORE PUSH1 0x20 ADD SWAP1 DUP2 MSTORE PUSH1 0x20 ADD PUSH0 KECCAK256 PUSH0 SWAP1 SLOAD SWAP1 PUSH2 0x100 EXP SWAP1 DIV PUSH1 0xFF AND PUSH2 0x2353 JUMPI PUSH1 0x40 MLOAD PUSH32 0x8C379A000000000000000000000000000000000000000000000000000000000 DUP2 MSTORE PUSH1 0x4 ADD PUSH2 0x234A SWAP1 PUSH2 0x3F3E JUMP JUMPDEST PUSH1 0x40 MLOAD DUP1 SWAP2 SUB SWAP1 REVERT JUMPDEST PUSH0 DUP2 GT PUSH2 0x2395 JUMPI PUSH1 0x40 MLOAD PUSH32 0x8C379A000000000000000000000000000000000000000000000000000000000 DUP2 MSTORE PUSH1 0x4 ADD PUSH2 0x238C SWAP1 PUSH2 0x3B12 JUMP JUMPDEST PUSH1 0x40 MLOAD DUP1 SWAP2 SUB SWAP1 REVERT JUMPDEST PUSH2 0x23C2 ORIGIN ADDRESS DUP4 DUP6 PUSH20 0xFFFFFFFFFFFFFFFFFFFFFFFFFFFFFFFFFFFFFFFF AND PUSH2 0x2D3F SWAP1 SWAP4 SWAP3 SWAP2 SWAP1 PUSH4 0xFFFFFFFF AND JUMP JUMPDEST DUP1 PUSH1 0x4 PUSH0 DUP5 PUSH20 0xFFFFFFFFFFFFFFFFFFFFFFFFFFFFFFFFFFFFFFFF AND PUSH20 0xFFFFFFFFFFFFFFFFFFFFFFFFFFFFFFFFFFFFFFFF AND DUP2 MSTORE PUSH1 0x20 ADD SWAP1 DUP2 MSTORE PUSH1 0x20 ADD PUSH0 KECCAK256 PUSH1 0x3 ADD PUSH0 DUP3 DUP3 SLOAD PUSH2 0x2411 SWAP2 SWAP1 PUSH2 0x3170 JUMP JUMPDEST SWAP3 POP POP DUP2 SWAP1 SSTORE POP ORIGIN PUSH20 0xFFFFFFFFFFFFFFFFFFFFFFFFFFFFFFFFFFFFFFFF AND DUP3 PUSH20 0xFFFFFFFFFFFFFFFFFFFFFFFFFFFFFFFFFFFFFFFF AND PUSH32 0x30F1CC05E02CAB00B43711C7C16DF2558139122D0FEEA37E4977A748E013A5AA DUP4 PUSH1 0x40 MLOAD PUSH2 0x2475 SWAP2 SWAP1 PUSH2 0x31B2 JUMP JUMPDEST PUSH1 0x40 MLOAD DUP1 SWAP2 SUB SWAP1 LOG3 JUMPDEST PUSH2 0x2486 PUSH2 0x2A14 JUMP JUMPDEST POP POP JUMP JUMPDEST PUSH1 0x3 DUP2 DUP2 SLOAD DUP2 LT PUSH2 0x2499 JUMPI PUSH0 DUP1 REVERT JUMPDEST SWAP1 PUSH0 MSTORE PUSH1 0x20 PUSH0 KECCAK256 ADD PUSH0 SWAP2 POP SLOAD SWAP1 PUSH2 0x100 EXP SWAP1 DIV PUSH20 0xFFFFFFFFFFFFFFFFFFFFFFFFFFFFFFFFFFFFFFFF AND DUP2 JUMP JUMPDEST PUSH0 PUSH1 0x2 PUSH0 SWAP1 SLOAD SWAP1 PUSH2 0x100 EXP SWAP1 DIV PUSH20 0xFFFFFFFFFFFFFFFFFFFFFFFFFFFFFFFFFFFFFFFF AND PUSH20 0xFFFFFFFFFFFFFFFFFFFFFFFFFFFFFFFFFFFFFFFF AND CALLER PUSH20 0xFFFFFFFFFFFFFFFFFFFFFFFFFFFFFFFFFFFFFFFF AND EQ PUSH2 0x2555 JUMPI PUSH1 0x40 MLOAD PUSH32 0x8C379A000000000000000000000000000000000000000000000000000000000 DUP2 MSTORE PUSH1 0x4 ADD PUSH2 0x254C SWAP1 PUSH2 0x40BB JUMP JUMPDEST PUSH1 0x40 MLOAD DUP1 SWAP2 SUB SWAP1 REVERT JUMPDEST PUSH2 0x255D PUSH2 0x2946 JUMP JUMPDEST PUSH1 0x5 PUSH0 DUP6 PUSH20 0xFFFFFFFFFFFFFFFFFFFFFFFFFFFFFFFFFFFFFFFF AND PUSH20 0xFFFFFFFFFFFFFFFFFFFFFFFFFFFFFFFFFFFFFFFF AND DUP2 MSTORE PUSH1 0x20 ADD SWAP1 DUP2 MSTORE PUSH1 0x20 ADD PUSH0 KECCAK256 PUSH0 SWAP1 SLOAD SWAP1 PUSH2 0x100 EXP SWAP1 DIV PUSH1 0xFF AND PUSH2 0x25B3 JUMPI PUSH0 SWAP1 POP PUSH2 0x2725 JUMP JUMPDEST DUP2 PUSH1 0x4 PUSH0 DUP7 PUSH20 0xFFFFFFFFFFFFFFFFFFFFFFFFFFFFFFFFFFFFFFFF AND PUSH20 0xFFFFFFFFFFFFFFFFFFFFFFFFFFFFFFFFFFFFFFFF AND DUP2 MSTORE PUSH1 0x20 ADD SWAP1 DUP2 MSTORE PUSH1 0x20 ADD PUSH0 KECCAK256 PUSH1 0x3 ADD SLOAD LT ISZERO PUSH2 0x2603 JUMPI PUSH0 SWAP1 POP PUSH2 0x2725 JUMP JUMPDEST DUP2 PUSH1 0x4 PUSH0 DUP7 PUSH20 0xFFFFFFFFFFFFFFFFFFFFFFFFFFFFFFFFFFFFFFFF AND PUSH20 0xFFFFFFFFFFFFFFFFFFFFFFFFFFFFFFFFFFFFFFFF AND DUP2 MSTORE PUSH1 0x20 ADD SWAP1 DUP2 MSTORE PUSH1 0x20 ADD PUSH0 KECCAK256 PUSH1 0x3 ADD PUSH0 DUP3 DUP3 SLOAD PUSH2 0x2652 SWAP2 SWAP1 PUSH2 0x3B98 JUMP JUMPDEST SWAP3 POP POP DUP2 SWAP1 SSTORE POP ADDRESS PUSH20 0xFFFFFFFFFFFFFFFFFFFFFFFFFFFFFFFFFFFFFFFF AND PUSH4 0x33A738C9 DUP6 DUP6 DUP6 PUSH1 0x40 MLOAD DUP5 PUSH4 0xFFFFFFFF AND PUSH1 0xE0 SHL DUP2 MSTORE PUSH1 0x4 ADD PUSH2 0x2696 SWAP4 SWAP3 SWAP2 SWAP1 PUSH2 0x4141 JUMP JUMPDEST PUSH0 PUSH1 0x40 MLOAD DUP1 DUP4 SUB DUP2 PUSH0 DUP8 DUP1 EXTCODESIZE ISZERO DUP1 ISZERO PUSH2 0x26AD JUMPI PUSH0 PUSH0 REVERT JUMPDEST POP GAS CALL SWAP3 POP POP POP DUP1 ISZERO PUSH2 0x26BE JUMPI POP PUSH1 0x1 JUMPDEST PUSH2 0x2720 JUMPI DUP2 PUSH1 0x4 PUSH0 DUP7 PUSH20 0xFFFFFFFFFFFFFFFFFFFFFFFFFFFFFFFFFFFFFFFF AND PUSH20 0xFFFFFFFFFFFFFFFFFFFFFFFFFFFFFFFFFFFFFFFF AND DUP2 MSTORE PUSH1 0x20 ADD SWAP1 DUP2 MSTORE PUSH1 0x20 ADD PUSH0 KECCAK256 PUSH1 0x3 ADD PUSH0 DUP3 DUP3 SLOAD PUSH2 0x2711 SWAP2 SWAP1 PUSH2 0x3170 JUMP JUMPDEST SWAP3 POP POP DUP2 SWAP1 SSTORE POP PUSH0 SWAP1 POP PUSH2 0x2725 JUMP JUMPDEST PUSH1 0x1 SWAP1 POP JUMPDEST PUSH2 0x272D PUSH2 0x2A14 JUMP JUMPDEST SWAP4 SWAP3 POP POP POP JUMP JUMPDEST PUSH1 0x60 PUSH1 0x3 DUP1 SLOAD DUP1 PUSH1 0x20 MUL PUSH1 0x20 ADD PUSH1 0x40 MLOAD SWAP1 DUP2 ADD PUSH1 0x40 MSTORE DUP1 SWAP3 SWAP2 SWAP1 DUP2 DUP2 MSTORE PUSH1 0x20 ADD DUP3 DUP1 SLOAD DUP1 ISZERO PUSH2 0x27B5 JUMPI PUSH1 0x20 MUL DUP3 ADD SWAP2 SWAP1 PUSH0 MSTORE PUSH1 0x20 PUSH0 KECCAK256 SWAP1 JUMPDEST DUP2 PUSH0 SWAP1 SLOAD SWAP1 PUSH2 0x100 EXP SWAP1 DIV PUSH20 0xFFFFFFFFFFFFFFFFFFFFFFFFFFFFFFFFFFFFFFFF AND PUSH20 0xFFFFFFFFFFFFFFFFFFFFFFFFFFFFFFFFFFFFFFFF AND DUP2 MSTORE PUSH1 0x20 ADD SWAP1 PUSH1 0x1 ADD SWAP1 DUP1 DUP4 GT PUSH2 0x276C JUMPI JUMPDEST POP POP POP POP POP SWAP1 POP SWAP1 JUMP JUMPDEST PUSH2 0x27C8 DUP3 PUSH2 0x11F4 JUMP JUMPDEST PUSH2 0x27D1 DUP2 PUSH2 0x2A1D JUMP JUMPDEST PUSH2 0x27DB DUP4 DUP4 PUSH2 0x2B21 JUMP JUMPDEST POP POP POP POP JUMP JUMPDEST PUSH1 0x4 PUSH1 0x20 MSTORE DUP1 PUSH0 MSTORE PUSH1 0x40 PUSH0 KECCAK256 PUSH0 SWAP2 POP SWAP1 POP DUP1 PUSH0 ADD PUSH0 SWAP1 SLOAD SWAP1 PUSH2 0x100 EXP SWAP1 DIV PUSH20 0xFFFFFFFFFFFFFFFFFFFFFFFFFFFFFFFFFFFFFFFF AND SWAP1 DUP1 PUSH1 0x1 ADD DUP1 SLOAD PUSH2 0x2825 SWAP1 PUSH2 0x3D24 JUMP JUMPDEST DUP1 PUSH1 0x1F ADD PUSH1 0x20 DUP1 SWAP2 DIV MUL PUSH1 0x20 ADD PUSH1 0x40 MLOAD SWAP1 DUP2 ADD PUSH1 0x40 MSTORE DUP1 SWAP3 SWAP2 SWAP1 DUP2 DUP2 MSTORE PUSH1 0x20 ADD DUP3 DUP1 SLOAD PUSH2 0x2851 SWAP1 PUSH2 0x3D24 JUMP JUMPDEST DUP1 ISZERO PUSH2 0x289C JUMPI DUP1 PUSH1 0x1F LT PUSH2 0x2873 JUMPI PUSH2 0x100 DUP1 DUP4 SLOAD DIV MUL DUP4 MSTORE SWAP2 PUSH1 0x20 ADD SWAP2 PUSH2 0x289C JUMP JUMPDEST DUP3 ADD SWAP2 SWAP1 PUSH0 MSTORE PUSH1 0x20 PUSH0 KECCAK256 SWAP1 JUMPDEST DUP2 SLOAD DUP2 MSTORE SWAP1 PUSH1 0x1 ADD SWAP1 PUSH1 0x20 ADD DUP1 DUP4 GT PUSH2 0x287F JUMPI DUP3 SWAP1 SUB PUSH1 0x1F AND DUP3 ADD SWAP2 JUMPDEST POP POP POP POP POP SWAP1 DUP1 PUSH1 0x2 ADD PUSH0 SWAP1 SLOAD SWAP1 PUSH2 0x100 EXP SWAP1 DIV PUSH1 0xFF AND SWAP1 DUP1 PUSH1 0x2 ADD PUSH1 0x1 SWAP1 SLOAD SWAP1 PUSH2 0x100 EXP SWAP1 DIV PUSH1 0xFF AND SWAP1 DUP1 PUSH1 0x3 ADD SLOAD SWAP1 DUP1 PUSH1 0x4 ADD SLOAD SWAP1 POP DUP7 JUMP JUMPDEST PUSH1 0x6 SLOAD DUP2 JUMP JUMPDEST PUSH0 PUSH32 0x1FFC9A700000000000000000000000000000000000000000000000000000000 PUSH28 0xFFFFFFFFFFFFFFFFFFFFFFFFFFFFFFFFFFFFFFFFFFFFFFFFFFFFFFFF NOT AND DUP3 PUSH28 0xFFFFFFFFFFFFFFFFFFFFFFFFFFFFFFFFFFFFFFFFFFFFFFFFFFFFFFFF NOT AND EQ SWAP1 POP SWAP2 SWAP1 POP JUMP JUMPDEST PUSH1 0x2 PUSH1 0x1 SLOAD SUB PUSH2 0x298B JUMPI PUSH1 0x40 MLOAD PUSH32 0x8C379A000000000000000000000000000000000000000000000000000000000 DUP2 MSTORE PUSH1 0x4 ADD PUSH2 0x2982 SWAP1 PUSH2 0x41C0 JUMP JUMPDEST PUSH1 0x40 MLOAD DUP1 SWAP2 SUB SWAP1 REVERT JUMPDEST PUSH1 0x2 PUSH1 0x1 DUP2 SWAP1 SSTORE POP JUMP JUMPDEST PUSH2 0x2A0F DUP4 DUP5 PUSH20 0xFFFFFFFFFFFFFFFFFFFFFFFFFFFFFFFFFFFFFFFF AND PUSH4 0xA9059CBB DUP6 DUP6 PUSH1 0x40 MLOAD PUSH1 0x24 ADD PUSH2 0x29C8 SWAP3 SWAP2 SWAP1 PUSH2 0x41DE JUMP JUMPDEST PUSH1 0x40 MLOAD PUSH1 0x20 DUP2 DUP4 SUB SUB DUP2 MSTORE SWAP1 PUSH1 0x40 MSTORE SWAP2 POP PUSH1 0xE0 SHL PUSH1 0x20 DUP3 ADD DUP1 MLOAD PUSH28 0xFFFFFFFFFFFFFFFFFFFFFFFFFFFFFFFFFFFFFFFFFFFFFFFFFFFFFFFF DUP4 DUP2 DUP4 AND OR DUP4 MSTORE POP POP POP POP PUSH2 0x2DC1 JUMP JUMPDEST POP POP POP JUMP JUMPDEST PUSH1 0x1 DUP1 DUP2 SWAP1 SSTORE POP JUMP JUMPDEST PUSH2 0x2A2E DUP2 PUSH2 0x2A29 PUSH2 0x2B1A JUMP JUMPDEST PUSH2 0x2E5C JUMP JUMPDEST POP JUMP JUMPDEST PUSH0 PUSH2 0x2A3C DUP4 DUP4 PUSH2 0x1DE9 JUMP JUMPDEST PUSH2 0x2B10 JUMPI PUSH1 0x1 PUSH0 PUSH0 DUP6 DUP2 MSTORE PUSH1 0x20 ADD SWAP1 DUP2 MSTORE PUSH1 0x20 ADD PUSH0 KECCAK256 PUSH0 ADD PUSH0 DUP5 PUSH20 0xFFFFFFFFFFFFFFFFFFFFFFFFFFFFFFFFFFFFFFFF AND PUSH20 0xFFFFFFFFFFFFFFFFFFFFFFFFFFFFFFFFFFFFFFFF AND DUP2 MSTORE PUSH1 0x20 ADD SWAP1 DUP2 MSTORE PUSH1 0x20 ADD PUSH0 KECCAK256 PUSH0 PUSH2 0x100 EXP DUP2 SLOAD DUP2 PUSH1 0xFF MUL NOT AND SWAP1 DUP4 ISZERO ISZERO MUL OR SWAP1 SSTORE POP PUSH2 0x2AAD PUSH2 0x2B1A JUMP JUMPDEST PUSH20 0xFFFFFFFFFFFFFFFFFFFFFFFFFFFFFFFFFFFFFFFF AND DUP3 PUSH20 0xFFFFFFFFFFFFFFFFFFFFFFFFFFFFFFFFFFFFFFFF AND DUP5 PUSH32 0x2F8788117E7EFF1D82E926EC794901D17C78024A50270940304540A733656F0D PUSH1 0x40 MLOAD PUSH1 0x40 MLOAD DUP1 SWAP2 SUB SWAP1 LOG4 PUSH1 0x1 SWAP1 POP PUSH2 0x2B14 JUMP JUMPDEST PUSH0 SWAP1 POP JUMPDEST SWAP3 SWAP2 POP POP JUMP JUMPDEST PUSH0 CALLER SWAP1 POP SWAP1 JUMP JUMPDEST PUSH0 PUSH2 0x2B2C DUP4 DUP4 PUSH2 0x1DE9 JUMP JUMPDEST ISZERO PUSH2 0x2C00 JUMPI PUSH0 PUSH0 PUSH0 DUP6 DUP2 MSTORE PUSH1 0x20 ADD SWAP1 DUP2 MSTORE PUSH1 0x20 ADD PUSH0 KECCAK256 PUSH0 ADD PUSH0 DUP5 PUSH20 0xFFFFFFFFFFFFFFFFFFFFFFFFFFFFFFFFFFFFFFFF AND PUSH20 0xFFFFFFFFFFFFFFFFFFFFFFFFFFFFFFFFFFFFFFFF AND DUP2 MSTORE PUSH1 0x20 ADD SWAP1 DUP2 MSTORE PUSH1 0x20 ADD PUSH0 KECCAK256 PUSH0 PUSH2 0x100 EXP DUP2 SLOAD DUP2 PUSH1 0xFF MUL NOT AND SWAP1 DUP4 ISZERO ISZERO MUL OR SWAP1 SSTORE POP PUSH2 0x2B9D PUSH2 0x2B1A JUMP JUMPDEST PUSH20 0xFFFFFFFFFFFFFFFFFFFFFFFFFFFFFFFFFFFFFFFF AND DUP3 PUSH20 0xFFFFFFFFFFFFFFFFFFFFFFFFFFFFFFFFFFFFFFFF AND DUP5 PUSH32 0xF6391F5C32D9C69D2A47EA670B442974B53935D1EDC7FD64EB21E047A839171B PUSH1 0x40 MLOAD PUSH1 0x40 MLOAD DUP1 SWAP2 SUB SWAP1 LOG4 PUSH1 0x1 SWAP1 POP PUSH2 0x2C04 JUMP JUMPDEST PUSH0 SWAP1 POP JUMPDEST SWAP3 SWAP2 POP POP JUMP JUMPDEST PUSH0 PUSH1 0x40 MLOAD DUP1 PUSH1 0x40 ADD PUSH1 0x40 MSTORE DUP1 PUSH1 0x5 DUP2 MSTORE PUSH1 0x20 ADD PUSH32 0x544F4B454E000000000000000000000000000000000000000000000000000000 DUP2 MSTORE POP SWAP1 POP PUSH0 PUSH1 0x12 SWAP1 POP DUP3 PUSH20 0xFFFFFFFFFFFFFFFFFFFFFFFFFFFFFFFFFFFFFFFF AND PUSH4 0x313CE567 PUSH1 0x40 MLOAD DUP2 PUSH4 0xFFFFFFFF AND PUSH1 0xE0 SHL DUP2 MSTORE PUSH1 0x4 ADD PUSH1 0x20 PUSH1 0x40 MLOAD DUP1 DUP4 SUB DUP2 DUP7 GAS STATICCALL SWAP3 POP POP POP DUP1 ISZERO PUSH2 0x2CB0 JUMPI POP PUSH1 0x40 MLOAD RETURNDATASIZE PUSH1 0x1F NOT PUSH1 0x1F DUP3 ADD AND DUP3 ADD DUP1 PUSH1 0x40 MSTORE POP DUP2 ADD SWAP1 PUSH2 0x2CAD SWAP2 SWAP1 PUSH2 0x422F JUMP JUMPDEST PUSH1 0x1 JUMPDEST ISZERO PUSH2 0x2CBA JUMPI DUP1 SWAP2 POP POP JUMPDEST DUP3 PUSH20 0xFFFFFFFFFFFFFFFFFFFFFFFFFFFFFFFFFFFFFFFF AND PUSH4 0x95D89B41 PUSH1 0x40 MLOAD DUP2 PUSH4 0xFFFFFFFF AND PUSH1 0xE0 SHL DUP2 MSTORE PUSH1 0x4 ADD PUSH0 PUSH1 0x40 MLOAD DUP1 DUP4 SUB DUP2 DUP7 GAS STATICCALL SWAP3 POP POP POP DUP1 ISZERO PUSH2 0x2D25 JUMPI POP PUSH1 0x40 MLOAD RETURNDATASIZE PUSH0 DUP3 RETURNDATACOPY RETURNDATASIZE PUSH1 0x1F NOT PUSH1 0x1F DUP3 ADD AND DUP3 ADD DUP1 PUSH1 0x40 MSTORE POP DUP2 ADD SWAP1 PUSH2 0x2D22 SWAP2 SWAP1 PUSH2 0x434B JUMP JUMPDEST PUSH1 0x1 JUMPDEST ISZERO PUSH2 0x2D2F JUMPI DUP1 SWAP3 POP POP JUMPDEST PUSH2 0x2D3A DUP4 DUP4 DUP4 PUSH2 0x2EAD JUMP JUMPDEST POP POP POP JUMP JUMPDEST PUSH2 0x2DBB DUP5 DUP6 PUSH20 0xFFFFFFFFFFFFFFFFFFFFFFFFFFFFFFFFFFFFFFFF AND PUSH4 0x23B872DD DUP7 DUP7 DUP7 PUSH1 0x40 MLOAD PUSH1 0x24 ADD PUSH2 0x2D74 SWAP4 SWAP3 SWAP2 SWAP1 PUSH2 0x4141 JUMP JUMPDEST PUSH1 0x40 MLOAD PUSH1 0x20 DUP2 DUP4 SUB SUB DUP2 MSTORE SWAP1 PUSH1 0x40 MSTORE SWAP2 POP PUSH1 0xE0 SHL PUSH1 0x20 DUP3 ADD DUP1 MLOAD PUSH28 0xFFFFFFFFFFFFFFFFFFFFFFFFFFFFFFFFFFFFFFFFFFFFFFFFFFFFFFFF DUP4 DUP2 DUP4 AND OR DUP4 MSTORE POP POP POP POP PUSH2 0x2DC1 JUMP JUMPDEST POP POP POP POP JUMP JUMPDEST PUSH0 PUSH0 PUSH1 0x20 PUSH0 DUP5 MLOAD PUSH1 0x20 DUP7 ADD PUSH0 DUP9 GAS CALL DUP1 PUSH2 0x2DE0 JUMPI PUSH1 0x40 MLOAD RETURNDATASIZE PUSH0 DUP3 RETURNDATACOPY RETURNDATASIZE DUP2 REVERT JUMPDEST RETURNDATASIZE SWAP3 POP PUSH0 MLOAD SWAP2 POP POP PUSH0 DUP3 EQ PUSH2 0x2DF9 JUMPI PUSH1 0x1 DUP2 EQ ISZERO PUSH2 0x2E14 JUMP JUMPDEST PUSH0 DUP5 PUSH20 0xFFFFFFFFFFFFFFFFFFFFFFFFFFFFFFFFFFFFFFFF AND EXTCODESIZE EQ JUMPDEST ISZERO PUSH2 0x2E56 JUMPI DUP4 PUSH1 0x40 MLOAD PUSH32 0x5274AFE700000000000000000000000000000000000000000000000000000000 DUP2 MSTORE PUSH1 0x4 ADD PUSH2 0x2E4D SWAP2 SWAP1 PUSH2 0x37F7 JUMP JUMPDEST PUSH1 0x40 MLOAD DUP1 SWAP2 SUB SWAP1 REVERT JUMPDEST POP POP POP POP JUMP JUMPDEST PUSH2 0x2E66 DUP3 DUP3 PUSH2 0x1DE9 JUMP JUMPDEST PUSH2 0x2EA9 JUMPI DUP1 DUP3 PUSH1 0x40 MLOAD PUSH32 0xE2517D3F00000000000000000000000000000000000000000000000000000000 DUP2 MSTORE PUSH1 0x4 ADD PUSH2 0x2EA0 SWAP3 SWAP2 SWAP1 PUSH2 0x4392 JUMP JUMPDEST PUSH1 0x40 MLOAD DUP1 SWAP2 SUB SWAP1 REVERT JUMPDEST POP POP JUMP JUMPDEST PUSH1 0x40 MLOAD DUP1 PUSH1 0xC0 ADD PUSH1 0x40 MSTORE DUP1 DUP5 PUSH20 0xFFFFFFFFFFFFFFFFFFFFFFFFFFFFFFFFFFFFFFFF AND DUP2 MSTORE PUSH1 0x20 ADD DUP4 DUP2 MSTORE PUSH1 0x20 ADD DUP3 PUSH1 0xFF AND DUP2 MSTORE PUSH1 0x20 ADD PUSH1 0x1 ISZERO ISZERO DUP2 MSTORE PUSH1 0x20 ADD PUSH0 DUP2 MSTORE PUSH1 0x20 ADD PUSH0 DUP2 MSTORE POP PUSH1 0x4 PUSH0 DUP6 PUSH20 0xFFFFFFFFFFFFFFFFFFFFFFFFFFFFFFFFFFFFFFFF AND PUSH20 0xFFFFFFFFFFFFFFFFFFFFFFFFFFFFFFFFFFFFFFFF AND DUP2 MSTORE PUSH1 0x20 ADD SWAP1 DUP2 MSTORE PUSH1 0x20 ADD PUSH0 KECCAK256 PUSH0 DUP3 ADD MLOAD DUP2 PUSH0 ADD PUSH0 PUSH2 0x100 EXP DUP2 SLOAD DUP2 PUSH20 0xFFFFFFFFFFFFFFFFFFFFFFFFFFFFFFFFFFFFFFFF MUL NOT AND SWAP1 DUP4 PUSH20 0xFFFFFFFFFFFFFFFFFFFFFFFFFFFFFFFFFFFFFFFF AND MUL OR SWAP1 SSTORE POP PUSH1 0x20 DUP3 ADD MLOAD DUP2 PUSH1 0x1 ADD SWAP1 DUP2 PUSH2 0x2F8C SWAP2 SWAP1 PUSH2 0x4559 JUMP JUMPDEST POP PUSH1 0x40 DUP3 ADD MLOAD DUP2 PUSH1 0x2 ADD PUSH0 PUSH2 0x100 EXP DUP2 SLOAD DUP2 PUSH1 0xFF MUL NOT AND SWAP1 DUP4 PUSH1 0xFF AND MUL OR SWAP1 SSTORE POP PUSH1 0x60 DUP3 ADD MLOAD DUP2 PUSH1 0x2 ADD PUSH1 0x1 PUSH2 0x100 EXP DUP2 SLOAD DUP2 PUSH1 0xFF MUL NOT AND SWAP1 DUP4 ISZERO ISZERO MUL OR SWAP1 SSTORE POP PUSH1 0x80 DUP3 ADD MLOAD DUP2 PUSH1 0x3 ADD SSTORE PUSH1 0xA0 DUP3 ADD MLOAD DUP2 PUSH1 0x4 ADD SSTORE SWAP1 POP POP PUSH1 0x3 DUP4 SWAP1 DUP1 PUSH1 0x1 DUP2 SLOAD ADD DUP1 DUP3 SSTORE DUP1 SWAP2 POP POP PUSH1 0x1 SWAP1 SUB SWAP1 PUSH0 MSTORE PUSH1 0x20 PUSH0 KECCAK256 ADD PUSH0 SWAP1 SWAP2 SWAP1 SWAP2 SWAP1 SWAP2 PUSH2 0x100 EXP DUP2 SLOAD DUP2 PUSH20 0xFFFFFFFFFFFFFFFFFFFFFFFFFFFFFFFFFFFFFFFF MUL NOT AND SWAP1 DUP4 PUSH20 0xFFFFFFFFFFFFFFFFFFFFFFFFFFFFFFFFFFFFFFFF AND MUL OR SWAP1 SSTORE POP PUSH1 0x1 PUSH1 0x5 PUSH0 DUP6 PUSH20 0xFFFFFFFFFFFFFFFFFFFFFFFFFFFFFFFFFFFFFFFF AND PUSH20 0xFFFFFFFFFFFFFFFFFFFFFFFFFFFFFFFFFFFFFFFF AND DUP2 MSTORE PUSH1 0x20 ADD SWAP1 DUP2 MSTORE PUSH1 0x20 ADD PUSH0 KECCAK256 PUSH0 PUSH2 0x100 EXP DUP2 SLOAD DUP2 PUSH1 0xFF MUL NOT AND SWAP1 DUP4 ISZERO ISZERO MUL OR SWAP1 SSTORE POP DUP3 PUSH20 0xFFFFFFFFFFFFFFFFFFFFFFFFFFFFFFFFFFFFFFFF AND PUSH32 0x3BE0896D4CD1D645BDAE8ADE25A54BCDBB2C685CE55AC7E7BEAD95D0802B32DE DUP4 DUP4 PUSH1 0x40 MLOAD PUSH2 0x30E1 SWAP3 SWAP2 SWAP1 PUSH2 0x4628 JUMP JUMPDEST PUSH1 0x40 MLOAD DUP1 SWAP2 SUB SWAP1 LOG2 POP POP POP JUMP JUMPDEST PUSH1 0x40 MLOAD DUP1 PUSH1 0xC0 ADD PUSH1 0x40 MSTORE DUP1 PUSH0 PUSH20 0xFFFFFFFFFFFFFFFFFFFFFFFFFFFFFFFFFFFFFFFF AND DUP2 MSTORE PUSH1 0x20 ADD PUSH1 0x60 DUP2 MSTORE PUSH1 0x20 ADD PUSH0 PUSH1 0xFF AND DUP2 MSTORE PUSH1 0x20 ADD PUSH0 ISZERO ISZERO DUP2 MSTORE PUSH1 0x20 ADD PUSH0 DUP2 MSTORE PUSH1 0x20 ADD PUSH0 DUP2 MSTORE POP SWAP1 JUMP JUMPDEST PUSH0 DUP2 SWAP1 POP SWAP2 SWAP1 POP JUMP JUMPDEST PUSH32 0x4E487B7100000000000000000000000000000000000000000000000000000000 PUSH0 MSTORE PUSH1 0x11 PUSH1 0x4 MSTORE PUSH1 0x24 PUSH0 REVERT JUMPDEST PUSH0 PUSH2 0x317A DUP3 PUSH2 0x313A JUMP JUMPDEST SWAP2 POP PUSH2 0x3185 DUP4 PUSH2 0x313A JUMP JUMPDEST SWAP3 POP DUP3 DUP3 ADD SWAP1 POP DUP1 DUP3 GT ISZERO PUSH2 0x319D JUMPI PUSH2 0x319C PUSH2 0x3143 JUMP JUMPDEST JUMPDEST SWAP3 SWAP2 POP POP JUMP JUMPDEST PUSH2 0x31AC DUP2 PUSH2 0x313A JUMP JUMPDEST DUP3 MSTORE POP POP JUMP JUMPDEST PUSH0 PUSH1 0x20 DUP3 ADD SWAP1 POP PUSH2 0x31C5 PUSH0 DUP4 ADD DUP5 PUSH2 0x31A3 JUMP JUMPDEST SWAP3 SWAP2 POP POP JUMP JUMPDEST PUSH0 PUSH1 0x40 MLOAD SWAP1 POP SWAP1 JUMP JUMPDEST PUSH0 PUSH0 REVERT JUMPDEST PUSH0 PUSH0 REVERT JUMPDEST PUSH0 PUSH32 0xFFFFFFFF00000000000000000000000000000000000000000000000000000000 DUP3 AND SWAP1 POP SWAP2 SWAP1 POP JUMP JUMPDEST PUSH2 0x3210 DUP2 PUSH2 0x31DC JUMP JUMPDEST DUP2 EQ PUSH2 0x321A JUMPI PUSH0 PUSH0 REVERT JUMPDEST POP JUMP JUMPDEST PUSH0 DUP2 CALLDATALOAD SWAP1 POP PUSH2 0x322B DUP2 PUSH2 0x3207 JUMP JUMPDEST SWAP3 SWAP2 POP POP JUMP JUMPDEST PUSH0 PUSH1 0x20 DUP3 DUP5 SUB SLT ISZERO PUSH2 0x3246 JUMPI PUSH2 0x3245 PUSH2 0x31D4 JUMP JUMPDEST JUMPDEST PUSH0 PUSH2 0x3253 DUP5 DUP3 DUP6 ADD PUSH2 0x321D JUMP JUMPDEST SWAP2 POP POP SWAP3 SWAP2 POP POP JUMP JUMPDEST PUSH0 DUP2 ISZERO ISZERO SWAP1 POP SWAP2 SWAP1 POP JUMP JUMPDEST PUSH2 0x3270 DUP2 PUSH2 0x325C JUMP JUMPDEST DUP3 MSTORE POP POP JUMP JUMPDEST PUSH0 PUSH1 0x20 DUP3 ADD SWAP1 POP PUSH2 0x3289 PUSH0 DUP4 ADD DUP5 PUSH2 0x3267 JUMP JUMPDEST SWAP3 SWAP2 POP POP JUMP JUMPDEST PUSH2 0x3298 DUP2 PUSH2 0x313A JUMP JUMPDEST DUP2 EQ PUSH2 0x32A2 JUMPI PUSH0 PUSH0 REVERT JUMPDEST POP JUMP JUMPDEST PUSH0 DUP2 CALLDATALOAD SWAP1 POP PUSH2 0x32B3 DUP2 PUSH2 0x328F JUMP JUMPDEST SWAP3 SWAP2 POP POP JUMP JUMPDEST PUSH0 PUSH1 0x20 DUP3 DUP5 SUB SLT ISZERO PUSH2 0x32CE JUMPI PUSH2 0x32CD PUSH2 0x31D4 JUMP JUMPDEST JUMPDEST PUSH0 PUSH2 0x32DB DUP5 DUP3 DUP6 ADD PUSH2 0x32A5 JUMP JUMPDEST SWAP2 POP POP SWAP3 SWAP2 POP POP JUMP JUMPDEST PUSH0 PUSH20 0xFFFFFFFFFFFFFFFFFFFFFFFFFFFFFFFFFFFFFFFF DUP3 AND SWAP1 POP SWAP2 SWAP1 POP JUMP JUMPDEST PUSH0 PUSH2 0x330D DUP3 PUSH2 0x32E4 JUMP JUMPDEST SWAP1 POP SWAP2 SWAP1 POP JUMP JUMPDEST PUSH2 0x331D DUP2 PUSH2 0x3303 JUMP JUMPDEST DUP2 EQ PUSH2 0x3327 JUMPI PUSH0 PUSH0 REVERT JUMPDEST POP JUMP JUMPDEST PUSH0 DUP2 CALLDATALOAD SWAP1 POP PUSH2 0x3338 DUP2 PUSH2 0x3314 JUMP JUMPDEST SWAP3 SWAP2 POP POP JUMP JUMPDEST PUSH0 PUSH0 PUSH0 PUSH1 0x60 DUP5 DUP7 SUB SLT ISZERO PUSH2 0x3355 JUMPI PUSH2 0x3354 PUSH2 0x31D4 JUMP JUMPDEST JUMPDEST PUSH0 PUSH2 0x3362 DUP7 DUP3 DUP8 ADD PUSH2 0x332A JUMP JUMPDEST SWAP4 POP POP PUSH1 0x20 PUSH2 0x3373 DUP7 DUP3 DUP8 ADD PUSH2 0x332A JUMP JUMPDEST SWAP3 POP POP PUSH1 0x40 PUSH2 0x3384 DUP7 DUP3 DUP8 ADD PUSH2 0x32A5 JUMP JUMPDEST SWAP2 POP POP SWAP3 POP SWAP3 POP SWAP3 JUMP JUMPDEST PUSH0 PUSH1 0x20 DUP3 DUP5 SUB SLT ISZERO PUSH2 0x33A3 JUMPI PUSH2 0x33A2 PUSH2 0x31D4 JUMP JUMPDEST JUMPDEST PUSH0 PUSH2 0x33B0 DUP5 DUP3 DUP6 ADD PUSH2 0x332A JUMP JUMPDEST SWAP2 POP POP SWAP3 SWAP2 POP POP JUMP JUMPDEST PUSH2 0x33C2 DUP2 PUSH2 0x3303 JUMP JUMPDEST DUP3 MSTORE POP POP JUMP JUMPDEST PUSH0 DUP2 MLOAD SWAP1 POP SWAP2 SWAP1 POP JUMP JUMPDEST PUSH0 DUP3 DUP3 MSTORE PUSH1 0x20 DUP3 ADD SWAP1 POP SWAP3 SWAP2 POP POP JUMP JUMPDEST DUP3 DUP2 DUP4 MCOPY PUSH0 DUP4 DUP4 ADD MSTORE POP POP POP JUMP JUMPDEST PUSH0 PUSH1 0x1F NOT PUSH1 0x1F DUP4 ADD AND SWAP1 POP SWAP2 SWAP1 POP JUMP JUMPDEST PUSH0 PUSH2 0x340A DUP3 PUSH2 0x33C8 JUMP JUMPDEST PUSH2 0x3414 DUP2 DUP6 PUSH2 0x33D2 JUMP JUMPDEST SWAP4 POP PUSH2 0x3424 DUP2 DUP6 PUSH1 0x20 DUP7 ADD PUSH2 0x33E2 JUMP JUMPDEST PUSH2 0x342D DUP2 PUSH2 0x33F0 JUMP JUMPDEST DUP5 ADD SWAP2 POP POP SWAP3 SWAP2 POP POP JUMP JUMPDEST PUSH0 PUSH1 0xFF DUP3 AND SWAP1 POP SWAP2 SWAP1 POP JUMP JUMPDEST PUSH2 0x344D DUP2 PUSH2 0x3438 JUMP JUMPDEST DUP3 MSTORE POP POP JUMP JUMPDEST PUSH2 0x345C DUP2 PUSH2 0x325C JUMP JUMPDEST DUP3 MSTORE POP POP JUMP JUMPDEST PUSH2 0x346B DUP2 PUSH2 0x313A JUMP JUMPDEST DUP3 MSTORE POP POP JUMP JUMPDEST PUSH0 PUSH1 0xC0 DUP4 ADD PUSH0 DUP4 ADD MLOAD PUSH2 0x3486 PUSH0 DUP7 ADD DUP3 PUSH2 0x33B9 JUMP JUMPDEST POP PUSH1 0x20 DUP4 ADD MLOAD DUP5 DUP3 SUB PUSH1 0x20 DUP7 ADD MSTORE PUSH2 0x349E DUP3 DUP3 PUSH2 0x3400 JUMP JUMPDEST SWAP2 POP POP PUSH1 0x40 DUP4 ADD MLOAD PUSH2 0x34B3 PUSH1 0x40 DUP7 ADD DUP3 PUSH2 0x3444 JUMP JUMPDEST POP PUSH1 0x60 DUP4 ADD MLOAD PUSH2 0x34C6 PUSH1 0x60 DUP7 ADD DUP3 PUSH2 0x3453 JUMP JUMPDEST POP PUSH1 0x80 DUP4 ADD MLOAD PUSH2 0x34D9 PUSH1 0x80 DUP7 ADD DUP3 PUSH2 0x3462 JUMP JUMPDEST POP PUSH1 0xA0 DUP4 ADD MLOAD PUSH2 0x34EC PUSH1 0xA0 DUP7 ADD DUP3 PUSH2 0x3462 JUMP JUMPDEST POP DUP1 SWAP2 POP POP SWAP3 SWAP2 POP POP JUMP JUMPDEST PUSH0 PUSH1 0x20 DUP3 ADD SWAP1 POP DUP2 DUP2 SUB PUSH0 DUP4 ADD MSTORE PUSH2 0x350F DUP2 DUP5 PUSH2 0x3471 JUMP JUMPDEST SWAP1 POP SWAP3 SWAP2 POP POP JUMP JUMPDEST PUSH0 DUP2 SWAP1 POP SWAP2 SWAP1 POP JUMP JUMPDEST PUSH2 0x3529 DUP2 PUSH2 0x3517 JUMP JUMPDEST DUP2 EQ PUSH2 0x3533 JUMPI PUSH0 PUSH0 REVERT JUMPDEST POP JUMP JUMPDEST PUSH0 DUP2 CALLDATALOAD SWAP1 POP PUSH2 0x3544 DUP2 PUSH2 0x3520 JUMP JUMPDEST SWAP3 SWAP2 POP POP JUMP JUMPDEST PUSH0 PUSH1 0x20 DUP3 DUP5 SUB SLT ISZERO PUSH2 0x355F JUMPI PUSH2 0x355E PUSH2 0x31D4 JUMP JUMPDEST JUMPDEST PUSH0 PUSH2 0x356C DUP5 DUP3 DUP6 ADD PUSH2 0x3536 JUMP JUMPDEST SWAP2 POP POP SWAP3 SWAP2 POP POP JUMP JUMPDEST PUSH2 0x357E DUP2 PUSH2 0x3517 JUMP JUMPDEST DUP3 MSTORE POP POP JUMP JUMPDEST PUSH0 PUSH1 0x20 DUP3 ADD SWAP1 POP PUSH2 0x3597 PUSH0 DUP4 ADD DUP5 PUSH2 0x3575 JUMP JUMPDEST SWAP3 SWAP2 POP POP JUMP JUMPDEST PUSH0 PUSH0 PUSH1 0x40 DUP4 DUP6 SUB SLT ISZERO PUSH2 0x35B3 JUMPI PUSH2 0x35B2 PUSH2 0x31D4 JUMP JUMPDEST JUMPDEST PUSH0 PUSH2 0x35C0 DUP6 DUP3 DUP7 ADD PUSH2 0x332A JUMP JUMPDEST SWAP3 POP POP PUSH1 0x20 PUSH2 0x35D1 DUP6 DUP3 DUP7 ADD PUSH2 0x32A5 JUMP JUMPDEST SWAP2 POP POP SWAP3 POP SWAP3 SWAP1 POP JUMP JUMPDEST PUSH0 PUSH1 0x60 DUP3 ADD SWAP1 POP PUSH2 0x35EE PUSH0 DUP4 ADD DUP7 PUSH2 0x3267 JUMP JUMPDEST PUSH2 0x35FB PUSH1 0x20 DUP4 ADD DUP6 PUSH2 0x31A3 JUMP JUMPDEST PUSH2 0x3608 PUSH1 0x40 DUP4 ADD DUP5 PUSH2 0x31A3 JUMP JUMPDEST SWAP5 SWAP4 POP POP POP POP JUMP JUMPDEST PUSH0 PUSH0 PUSH1 0x40 DUP4 DUP6 SUB SLT ISZERO PUSH2 0x3626 JUMPI PUSH2 0x3625 PUSH2 0x31D4 JUMP JUMPDEST JUMPDEST PUSH0 PUSH2 0x3633 DUP6 DUP3 DUP7 ADD PUSH2 0x3536 JUMP JUMPDEST SWAP3 POP POP PUSH1 0x20 PUSH2 0x3644 DUP6 DUP3 DUP7 ADD PUSH2 0x332A JUMP JUMPDEST SWAP2 POP POP SWAP3 POP SWAP3 SWAP1 POP JUMP JUMPDEST PUSH0 DUP2 MLOAD SWAP1 POP SWAP2 SWAP1 POP JUMP JUMPDEST PUSH0 DUP3 DUP3 MSTORE PUSH1 0x20 DUP3 ADD SWAP1 POP SWAP3 SWAP2 POP POP JUMP JUMPDEST PUSH0 DUP2 SWAP1 POP PUSH1 0x20 DUP3 ADD SWAP1 POP SWAP2 SWAP1 POP JUMP JUMPDEST PUSH0 PUSH2 0x3682 DUP4 DUP4 PUSH2 0x33B9 JUMP JUMPDEST PUSH1 0x20 DUP4 ADD SWAP1 POP SWAP3 SWAP2 POP POP JUMP JUMPDEST PUSH0 PUSH1 0x20 DUP3 ADD SWAP1 POP SWAP2 SWAP1 POP JUMP JUMPDEST PUSH0 PUSH2 0x36A4 DUP3 PUSH2 0x364E JUMP JUMPDEST PUSH2 0x36AE DUP2 DUP6 PUSH2 0x3658 JUMP JUMPDEST SWAP4 POP PUSH2 0x36B9 DUP4 PUSH2 0x3668 JUMP JUMPDEST DUP1 PUSH0 JUMPDEST DUP4 DUP2 LT ISZERO PUSH2 0x36E9 JUMPI DUP2 MLOAD PUSH2 0x36D0 DUP9 DUP3 PUSH2 0x3677 JUMP JUMPDEST SWAP8 POP PUSH2 0x36DB DUP4 PUSH2 0x368E JUMP JUMPDEST SWAP3 POP POP PUSH1 0x1 DUP2 ADD SWAP1 POP PUSH2 0x36BC JUMP JUMPDEST POP DUP6 SWAP4 POP POP POP POP SWAP3 SWAP2 POP POP JUMP JUMPDEST PUSH0 DUP2 MLOAD SWAP1 POP SWAP2 SWAP1 POP JUMP JUMPDEST PUSH0 DUP3 DUP3 MSTORE PUSH1 0x20 DUP3 ADD SWAP1 POP SWAP3 SWAP2 POP POP JUMP JUMPDEST PUSH0 DUP2 SWAP1 POP PUSH1 0x20 DUP3 ADD SWAP1 POP SWAP2 SWAP1 POP JUMP JUMPDEST PUSH0 PUSH2 0x372A DUP4 DUP4 PUSH2 0x3462 JUMP JUMPDEST PUSH1 0x20 DUP4 ADD SWAP1 POP SWAP3 SWAP2 POP POP JUMP JUMPDEST PUSH0 PUSH1 0x20 DUP3 ADD SWAP1 POP SWAP2 SWAP1 POP JUMP JUMPDEST PUSH0 PUSH2 0x374C DUP3 PUSH2 0x36F6 JUMP JUMPDEST PUSH2 0x3756 DUP2 DUP6 PUSH2 0x3700 JUMP JUMPDEST SWAP4 POP PUSH2 0x3761 DUP4 PUSH2 0x3710 JUMP JUMPDEST DUP1 PUSH0 JUMPDEST DUP4 DUP2 LT ISZERO PUSH2 0x3791 JUMPI DUP2 MLOAD PUSH2 0x3778 DUP9 DUP3 PUSH2 0x371F JUMP JUMPDEST SWAP8 POP PUSH2 0x3783 DUP4 PUSH2 0x3736 JUMP JUMPDEST SWAP3 POP POP PUSH1 0x1 DUP2 ADD SWAP1 POP PUSH2 0x3764 JUMP JUMPDEST POP DUP6 SWAP4 POP POP POP POP SWAP3 SWAP2 POP POP JUMP JUMPDEST PUSH0 PUSH1 0x60 DUP3 ADD SWAP1 POP DUP2 DUP2 SUB PUSH0 DUP4 ADD MSTORE PUSH2 0x37B6 DUP2 DUP7 PUSH2 0x369A JUMP JUMPDEST SWAP1 POP DUP2 DUP2 SUB PUSH1 0x20 DUP4 ADD MSTORE PUSH2 0x37CA DUP2 DUP6 PUSH2 0x3742 JUMP JUMPDEST SWAP1 POP DUP2 DUP2 SUB PUSH1 0x40 DUP4 ADD MSTORE PUSH2 0x37DE DUP2 DUP5 PUSH2 0x3742 JUMP JUMPDEST SWAP1 POP SWAP5 SWAP4 POP POP POP POP JUMP JUMPDEST PUSH2 0x37F1 DUP2 PUSH2 0x3303 JUMP JUMPDEST DUP3 MSTORE POP POP JUMP JUMPDEST PUSH0 PUSH1 0x20 DUP3 ADD SWAP1 POP PUSH2 0x380A PUSH0 DUP4 ADD DUP5 PUSH2 0x37E8 JUMP JUMPDEST SWAP3 SWAP2 POP POP JUMP JUMPDEST PUSH0 PUSH1 0x20 DUP3 ADD SWAP1 POP DUP2 DUP2 SUB PUSH0 DUP4 ADD MSTORE PUSH2 0x3828 DUP2 DUP5 PUSH2 0x369A JUMP JUMPDEST SWAP1 POP SWAP3 SWAP2 POP POP JUMP JUMPDEST PUSH0 DUP3 DUP3 MSTORE PUSH1 0x20 DUP3 ADD SWAP1 POP SWAP3 SWAP2 POP POP JUMP JUMPDEST PUSH0 PUSH2 0x384A DUP3 PUSH2 0x33C8 JUMP JUMPDEST PUSH2 0x3854 DUP2 DUP6 PUSH2 0x3830 JUMP JUMPDEST SWAP4 POP PUSH2 0x3864 DUP2 DUP6 PUSH1 0x20 DUP7 ADD PUSH2 0x33E2 JUMP JUMPDEST PUSH2 0x386D DUP2 PUSH2 0x33F0 JUMP JUMPDEST DUP5 ADD SWAP2 POP POP SWAP3 SWAP2 POP POP JUMP JUMPDEST PUSH2 0x3881 DUP2 PUSH2 0x3438 JUMP JUMPDEST DUP3 MSTORE POP POP JUMP JUMPDEST PUSH0 PUSH1 0xC0 DUP3 ADD SWAP1 POP PUSH2 0x389A PUSH0 DUP4 ADD DUP10 PUSH2 0x37E8 JUMP JUMPDEST DUP2 DUP2 SUB PUSH1 0x20 DUP4 ADD MSTORE PUSH2 0x38AC DUP2 DUP9 PUSH2 0x3840 JUMP JUMPDEST SWAP1 POP PUSH2 0x38BB PUSH1 0x40 DUP4 ADD DUP8 PUSH2 0x3878 JUMP JUMPDEST PUSH2 0x38C8 PUSH1 0x60 DUP4 ADD DUP7 PUSH2 0x3267 JUMP JUMPDEST PUSH2 0x38D5 PUSH1 0x80 DUP4 ADD DUP6 PUSH2 0x31A3 JUMP JUMPDEST PUSH2 0x38E2 PUSH1 0xA0 DUP4 ADD DUP5 PUSH2 0x31A3 JUMP JUMPDEST SWAP8 SWAP7 POP POP POP POP POP POP POP JUMP JUMPDEST PUSH0 PUSH1 0x40 DUP3 ADD SWAP1 POP PUSH2 0x3900 PUSH0 DUP4 ADD DUP6 PUSH2 0x3575 JUMP JUMPDEST PUSH2 0x390D PUSH1 0x20 DUP4 ADD DUP5 PUSH2 0x37E8 JUMP JUMPDEST SWAP4 SWAP3 POP POP POP JUMP JUMPDEST PUSH2 0x391D DUP2 PUSH2 0x325C JUMP JUMPDEST DUP2 EQ PUSH2 0x3927 JUMPI PUSH0 PUSH0 REVERT JUMPDEST POP JUMP JUMPDEST PUSH0 DUP2 MLOAD SWAP1 POP PUSH2 0x3938 DUP2 PUSH2 0x3914 JUMP JUMPDEST SWAP3 SWAP2 POP POP JUMP JUMPDEST PUSH0 PUSH1 0x20 DUP3 DUP5 SUB SLT ISZERO PUSH2 0x3953 JUMPI PUSH2 0x3952 PUSH2 0x31D4 JUMP JUMPDEST JUMPDEST PUSH0 PUSH2 0x3960 DUP5 DUP3 DUP6 ADD PUSH2 0x392A JUMP JUMPDEST SWAP2 POP POP SWAP3 SWAP2 POP POP JUMP JUMPDEST PUSH32 0x4E6F7420617574686F72697A6564000000000000000000000000000000000000 PUSH0 DUP3 ADD MSTORE POP JUMP JUMPDEST PUSH0 PUSH2 0x399D PUSH1 0xE DUP4 PUSH2 0x3830 JUMP JUMPDEST SWAP2 POP PUSH2 0x39A8 DUP3 PUSH2 0x3969 JUMP JUMPDEST PUSH1 0x20 DUP3 ADD SWAP1 POP SWAP2 SWAP1 POP JUMP JUMPDEST PUSH0 PUSH1 0x20 DUP3 ADD SWAP1 POP DUP2 DUP2 SUB PUSH0 DUP4 ADD MSTORE PUSH2 0x39CA DUP2 PUSH2 0x3991 JUMP JUMPDEST SWAP1 POP SWAP2 SWAP1 POP JUMP JUMPDEST PUSH32 0x526573657276652070657263656E7461676520746F6F20686967680000000000 PUSH0 DUP3 ADD MSTORE POP JUMP JUMPDEST PUSH0 PUSH2 0x3A05 PUSH1 0x1B DUP4 PUSH2 0x3830 JUMP JUMPDEST SWAP2 POP PUSH2 0x3A10 DUP3 PUSH2 0x39D1 JUMP JUMPDEST PUSH1 0x20 DUP3 ADD SWAP1 POP SWAP2 SWAP1 POP JUMP JUMPDEST PUSH0 PUSH1 0x20 DUP3 ADD SWAP1 POP DUP2 DUP2 SUB PUSH0 DUP4 ADD MSTORE PUSH2 0x3A32 DUP2 PUSH2 0x39F9 JUMP JUMPDEST SWAP1 POP SWAP2 SWAP1 POP JUMP JUMPDEST PUSH0 PUSH1 0x40 DUP3 ADD SWAP1 POP PUSH2 0x3A4C PUSH0 DUP4 ADD DUP6 PUSH2 0x31A3 JUMP JUMPDEST PUSH2 0x3A59 PUSH1 0x20 DUP4 ADD DUP5 PUSH2 0x31A3 JUMP JUMPDEST SWAP4 SWAP3 POP POP POP JUMP JUMPDEST PUSH32 0x496E76616C696420726563697069656E74000000000000000000000000000000 PUSH0 DUP3 ADD MSTORE POP JUMP JUMPDEST PUSH0 PUSH2 0x3A94 PUSH1 0x11 DUP4 PUSH2 0x3830 JUMP JUMPDEST SWAP2 POP PUSH2 0x3A9F DUP3 PUSH2 0x3A60 JUMP JUMPDEST PUSH1 0x20 DUP3 ADD SWAP1 POP SWAP2 SWAP1 POP JUMP JUMPDEST PUSH0 PUSH1 0x20 DUP3 ADD SWAP1 POP DUP2 DUP2 SUB PUSH0 DUP4 ADD MSTORE PUSH2 0x3AC1 DUP2 PUSH2 0x3A88 JUMP JUMPDEST SWAP1 POP SWAP2 SWAP1 POP JUMP JUMPDEST PUSH32 0x416D6F756E74206D75737420626520706F736974697665000000000000000000 PUSH0 DUP3 ADD MSTORE POP JUMP JUMPDEST PUSH0 PUSH2 0x3AFC PUSH1 0x17 DUP4 PUSH2 0x3830 JUMP JUMPDEST SWAP2 POP PUSH2 0x3B07 DUP3 PUSH2 0x3AC8 JUMP JUMPDEST PUSH1 0x20 DUP3 ADD SWAP1 POP SWAP2 SWAP1 POP JUMP JUMPDEST PUSH0 PUSH1 0x20 DUP3 ADD SWAP1 POP DUP2 DUP2 SUB PUSH0 DUP4 ADD MSTORE PUSH2 0x3B29 DUP2 PUSH2 0x3AF0 JUMP JUMPDEST SWAP1 POP SWAP2 SWAP1 POP JUMP JUMPDEST PUSH32 0x496E73756666696369656E742062616C616E6365000000000000000000000000 PUSH0 DUP3 ADD MSTORE POP JUMP JUMPDEST PUSH0 PUSH2 0x3B64 PUSH1 0x14 DUP4 PUSH2 0x3830 JUMP JUMPDEST SWAP2 POP PUSH2 0x3B6F DUP3 PUSH2 0x3B30 JUMP JUMPDEST PUSH1 0x20 DUP3 ADD SWAP1 POP SWAP2 SWAP1 POP JUMP JUMPDEST PUSH0 PUSH1 0x20 DUP3 ADD SWAP1 POP DUP2 DUP2 SUB PUSH0 DUP4 ADD MSTORE PUSH2 0x3B91 DUP2 PUSH2 0x3B58 JUMP JUMPDEST SWAP1 POP SWAP2 SWAP1 POP JUMP JUMPDEST PUSH0 PUSH2 0x3BA2 DUP3 PUSH2 0x313A JUMP JUMPDEST SWAP2 POP PUSH2 0x3BAD DUP4 PUSH2 0x313A JUMP JUMPDEST SWAP3 POP DUP3 DUP3 SUB SWAP1 POP DUP2 DUP2 GT ISZERO PUSH2 0x3BC5 JUMPI PUSH2 0x3BC4 PUSH2 0x3143 JUMP JUMPDEST JUMPDEST SWAP3 SWAP2 POP POP JUMP JUMPDEST PUSH0 PUSH2 0x3BD5 DUP3 PUSH2 0x313A JUMP JUMPDEST SWAP2 POP PUSH2 0x3BE0 DUP4 PUSH2 0x313A JUMP JUMPDEST SWAP3 POP DUP3 DUP3 MUL PUSH2 0x3BEE DUP2 PUSH2 0x313A JUMP JUMPDEST SWAP2 POP DUP3 DUP3 DIV DUP5 EQ DUP4 ISZERO OR PUSH2 0x3C05 JUMPI PUSH2 0x3C04 PUSH2 0x3143 JUMP JUMPDEST JUMPDEST POP SWAP3 SWAP2 POP POP JUMP JUMPDEST PUSH32 0x4E487B7100000000000000000000000000000000000000000000000000000000 PUSH0 MSTORE PUSH1 0x12 PUSH1 0x4 MSTORE PUSH1 0x24 PUSH0 REVERT JUMPDEST PUSH0 PUSH2 0x3C43 DUP3 PUSH2 0x313A JUMP JUMPDEST SWAP2 POP PUSH2 0x3C4E DUP4 PUSH2 0x313A JUMP JUMPDEST SWAP3 POP DUP3 PUSH2 0x3C5E JUMPI PUSH2 0x3C5D PUSH2 0x3C0C JUMP JUMPDEST JUMPDEST DUP3 DUP3 DIV SWAP1 POP SWAP3 SWAP2 POP POP JUMP JUMPDEST PUSH32 0x576F756C642076696F6C617465207265736572766520726571756972656D656E PUSH0 DUP3 ADD MSTORE PUSH32 0x7400000000000000000000000000000000000000000000000000000000000000 PUSH1 0x20 DUP3 ADD MSTORE POP JUMP JUMPDEST PUSH0 PUSH2 0x3CC3 PUSH1 0x21 DUP4 PUSH2 0x3830 JUMP JUMPDEST SWAP2 POP PUSH2 0x3CCE DUP3 PUSH2 0x3C69 JUMP JUMPDEST PUSH1 0x40 DUP3 ADD SWAP1 POP SWAP2 SWAP1 POP JUMP JUMPDEST PUSH0 PUSH1 0x20 DUP3 ADD SWAP1 POP DUP2 DUP2 SUB PUSH0 DUP4 ADD MSTORE PUSH2 0x3CF0 DUP2 PUSH2 0x3CB7 JUMP JUMPDEST SWAP1 POP SWAP2 SWAP1 POP JUMP JUMPDEST PUSH32 0x4E487B7100000000000000000000000000000000000000000000000000000000 PUSH0 MSTORE PUSH1 0x22 PUSH1 0x4 MSTORE PUSH1 0x24 PUSH0 REVERT JUMPDEST PUSH0 PUSH1 0x2 DUP3 DIV SWAP1 POP PUSH1 0x1 DUP3 AND DUP1 PUSH2 0x3D3B JUMPI PUSH1 0x7F DUP3 AND SWAP2 POP JUMPDEST PUSH1 0x20 DUP3 LT DUP2 SUB PUSH2 0x3D4E JUMPI PUSH2 0x3D4D PUSH2 0x3CF7 JUMP JUMPDEST JUMPDEST POP SWAP2 SWAP1 POP JUMP JUMPDEST PUSH32 0x496E7465726E616C2066756E6374696F6E000000000000000000000000000000 PUSH0 DUP3 ADD MSTORE POP JUMP JUMPDEST PUSH0 PUSH2 0x3D88 PUSH1 0x11 DUP4 PUSH2 0x3830 JUMP JUMPDEST SWAP2 POP PUSH2 0x3D93 DUP3 PUSH2 0x3D54 JUMP JUMPDEST PUSH1 0x20 DUP3 ADD SWAP1 POP SWAP2 SWAP1 POP JUMP JUMPDEST PUSH0 PUSH1 0x20 DUP3 ADD SWAP1 POP DUP2 DUP2 SUB PUSH0 DUP4 ADD MSTORE PUSH2 0x3DB5 DUP2 PUSH2 0x3D7C JUMP JUMPDEST SWAP1 POP SWAP2 SWAP1 POP JUMP JUMPDEST PUSH32 0x43616E6E6F74206164642045544820616761696E000000000000000000000000 PUSH0 DUP3 ADD MSTORE POP JUMP JUMPDEST PUSH0 PUSH2 0x3DF0 PUSH1 0x14 DUP4 PUSH2 0x3830 JUMP JUMPDEST SWAP2 POP PUSH2 0x3DFB DUP3 PUSH2 0x3DBC JUMP JUMPDEST PUSH1 0x20 DUP3 ADD SWAP1 POP SWAP2 SWAP1 POP JUMP JUMPDEST PUSH0 PUSH1 0x20 DUP3 ADD SWAP1 POP DUP2 DUP2 SUB PUSH0 DUP4 ADD MSTORE PUSH2 0x3E1D DUP2 PUSH2 0x3DE4 JUMP JUMPDEST SWAP1 POP SWAP2 SWAP1 POP JUMP JUMPDEST PUSH32 0x546F6B656E20616C726561647920737570706F72746564000000000000000000 PUSH0 DUP3 ADD MSTORE POP JUMP JUMPDEST PUSH0 PUSH2 0x3E58 PUSH1 0x17 DUP4 PUSH2 0x3830 JUMP JUMPDEST SWAP2 POP PUSH2 0x3E63 DUP3 PUSH2 0x3E24 JUMP JUMPDEST PUSH1 0x20 DUP3 ADD SWAP1 POP SWAP2 SWAP1 POP JUMP JUMPDEST PUSH0 PUSH1 0x20 DUP3 ADD SWAP1 POP DUP2 DUP2 SUB PUSH0 DUP4 ADD MSTORE PUSH2 0x3E85 DUP2 PUSH2 0x3E4C JUMP JUMPDEST SWAP1 POP SWAP2 SWAP1 POP JUMP JUMPDEST PUSH32 0x43616E6E6F742072656D6F766520455448000000000000000000000000000000 PUSH0 DUP3 ADD MSTORE POP JUMP JUMPDEST PUSH0 PUSH2 0x3EC0 PUSH1 0x11 DUP4 PUSH2 0x3830 JUMP JUMPDEST SWAP2 POP PUSH2 0x3ECB DUP3 PUSH2 0x3E8C JUMP JUMPDEST PUSH1 0x20 DUP3 ADD SWAP1 POP SWAP2 SWAP1 POP JUMP JUMPDEST PUSH0 PUSH1 0x20 DUP3 ADD SWAP1 POP DUP2 DUP2 SUB PUSH0 DUP4 ADD MSTORE PUSH2 0x3EED DUP2 PUSH2 0x3EB4 JUMP JUMPDEST SWAP1 POP SWAP2 SWAP1 POP JUMP JUMPDEST PUSH32 0x546F6B656E206E6F7420737570706F7274656400000000000000000000000000 PUSH0 DUP3 ADD MSTORE POP JUMP JUMPDEST PUSH0 PUSH2 0x3F28 PUSH1 0x13 DUP4 PUSH2 0x3830 JUMP JUMPDEST SWAP2 POP PUSH2 0x3F33 DUP3 PUSH2 0x3EF4 JUMP JUMPDEST PUSH1 0x20 DUP3 ADD SWAP1 POP SWAP2 SWAP1 POP JUMP JUMPDEST PUSH0 PUSH1 0x20 DUP3 ADD SWAP1 POP DUP2 DUP2 SUB PUSH0 DUP4 ADD MSTORE PUSH2 0x3F55 DUP2 PUSH2 0x3F1C JUMP JUMPDEST SWAP1 POP SWAP2 SWAP1 POP JUMP JUMPDEST PUSH32 0x546F6B656E206861732062616C616E63652C2077697468647261772066697273 PUSH0 DUP3 ADD MSTORE PUSH32 0x7400000000000000000000000000000000000000000000000000000000000000 PUSH1 0x20 DUP3 ADD MSTORE POP JUMP JUMPDEST PUSH0 PUSH2 0x3FB6 PUSH1 0x21 DUP4 PUSH2 0x3830 JUMP JUMPDEST SWAP2 POP PUSH2 0x3FC1 DUP3 PUSH2 0x3F5C JUMP JUMPDEST PUSH1 0x40 DUP3 ADD SWAP1 POP SWAP2 SWAP1 POP JUMP JUMPDEST PUSH0 PUSH1 0x20 DUP3 ADD SWAP1 POP DUP2 DUP2 SUB PUSH0 DUP4 ADD MSTORE PUSH2 0x3FE3 DUP2 PUSH2 0x3FAA JUMP JUMPDEST SWAP1 POP SWAP2 SWAP1 POP JUMP JUMPDEST PUSH32 0x4E487B7100000000000000000000000000000000000000000000000000000000 PUSH0 MSTORE PUSH1 0x32 PUSH1 0x4 MSTORE PUSH1 0x24 PUSH0 REVERT JUMPDEST PUSH32 0x4E487B7100000000000000000000000000000000000000000000000000000000 PUSH0 MSTORE PUSH1 0x31 PUSH1 0x4 MSTORE PUSH1 0x24 PUSH0 REVERT JUMPDEST PUSH32 0x4E487B7100000000000000000000000000000000000000000000000000000000 PUSH0 MSTORE PUSH1 0x41 PUSH1 0x4 MSTORE PUSH1 0x24 PUSH0 REVERT JUMPDEST PUSH32 0x4F6E6C7920706179726F6C6C20636F72652063616E2063616C6C000000000000 PUSH0 DUP3 ADD MSTORE POP JUMP JUMPDEST PUSH0 PUSH2 0x40A5 PUSH1 0x1A DUP4 PUSH2 0x3830 JUMP JUMPDEST SWAP2 POP PUSH2 0x40B0 DUP3 PUSH2 0x4071 JUMP JUMPDEST PUSH1 0x20 DUP3 ADD SWAP1 POP SWAP2 SWAP1 POP JUMP JUMPDEST PUSH0 PUSH1 0x20 DUP3 ADD SWAP1 POP DUP2 DUP2 SUB PUSH0 DUP4 ADD MSTORE PUSH2 0x40D2 DUP2 PUSH2 0x4099 JUMP JUMPDEST SWAP1 POP SWAP2 SWAP1 POP JUMP JUMPDEST PUSH32 0x4E6F204554482073656E74000000000000000000000000000000000000000000 PUSH0 DUP3 ADD MSTORE POP JUMP JUMPDEST PUSH0 PUSH2 0x410D PUSH1 0xB DUP4 PUSH2 0x3830 JUMP JUMPDEST SWAP2 POP PUSH2 0x4118 DUP3 PUSH2 0x40D9 JUMP JUMPDEST PUSH1 0x20 DUP3 ADD SWAP1 POP SWAP2 SWAP1 POP JUMP JUMPDEST PUSH0 PUSH1 0x20 DUP3 ADD SWAP1 POP DUP2 DUP2 SUB PUSH0 DUP4 ADD MSTORE PUSH2 0x413A DUP2 PUSH2 0x4101 JUMP JUMPDEST SWAP1 POP SWAP2 SWAP1 POP JUMP JUMPDEST PUSH0 PUSH1 0x60 DUP3 ADD SWAP1 POP PUSH2 0x4154 PUSH0 DUP4 ADD DUP7 PUSH2 0x37E8 JUMP JUMPDEST PUSH2 0x4161 PUSH1 0x20 DUP4 ADD DUP6 PUSH2 0x37E8 JUMP JUMPDEST PUSH2 0x416E PUSH1 0x40 DUP4 ADD DUP5 PUSH2 0x31A3 JUMP JUMPDEST SWAP5 SWAP4 POP POP POP POP JUMP JUMPDEST PUSH32 0x5265656E7472616E637947756172643A207265656E7472616E742063616C6C00 PUSH0 DUP3 ADD MSTORE POP JUMP JUMPDEST PUSH0 PUSH2 0x41AA PUSH1 0x1F DUP4 PUSH2 0x3830 JUMP JUMPDEST SWAP2 POP PUSH2 0x41B5 DUP3 PUSH2 0x4176 JUMP JUMPDEST PUSH1 0x20 DUP3 ADD SWAP1 POP SWAP2 SWAP1 POP JUMP JUMPDEST PUSH0 PUSH1 0x20 DUP3 ADD SWAP1 POP DUP2 DUP2 SUB PUSH0 DUP4 ADD MSTORE PUSH2 0x41D7 DUP2 PUSH2 0x419E JUMP JUMPDEST SWAP1 POP SWAP2 SWAP1 POP JUMP JUMPDEST PUSH0 PUSH1 0x40 DUP3 ADD SWAP1 POP PUSH2 0x41F1 PUSH0 DUP4 ADD DUP6 PUSH2 0x37E8 JUMP JUMPDEST PUSH2 0x41FE PUSH1 0x20 DUP4 ADD DUP5 PUSH2 0x31A3 JUMP JUMPDEST SWAP4 SWAP3 POP POP POP JUMP JUMPDEST PUSH2 0x420E DUP2 PUSH2 0x3438 JUMP JUMPDEST DUP2 EQ PUSH2 0x4218 JUMPI PUSH0 PUSH0 REVERT JUMPDEST POP JUMP JUMPDEST PUSH0 DUP2 MLOAD SWAP1 POP PUSH2 0x4229 DUP2 PUSH2 0x4205 JUMP JUMPDEST SWAP3 SWAP2 POP POP JUMP JUMPDEST PUSH0 PUSH1 0x20 DUP3 DUP5 SUB SLT ISZERO PUSH2 0x4244 JUMPI PUSH2 0x4243 PUSH2 0x31D4 JUMP JUMPDEST JUMPDEST PUSH0 PUSH2 0x4251 DUP5 DUP3 DUP6 ADD PUSH2 0x421B JUMP JUMPDEST SWAP2 POP POP SWAP3 SWAP2 POP POP JUMP JUMPDEST PUSH0 PUSH0 REVERT JUMPDEST PUSH0 PUSH0 REVERT JUMPDEST PUSH2 0x426B DUP3 PUSH2 0x33F0 JUMP JUMPDEST DUP2 ADD DUP2 DUP2 LT PUSH8 0xFFFFFFFFFFFFFFFF DUP3 GT OR ISZERO PUSH2 0x428A JUMPI PUSH2 0x4289 PUSH2 0x4044 JUMP JUMPDEST JUMPDEST DUP1 PUSH1 0x40 MSTORE POP POP POP JUMP JUMPDEST PUSH0 PUSH2 0x429C PUSH2 0x31CB JUMP JUMPDEST SWAP1 POP PUSH2 0x42A8 DUP3 DUP3 PUSH2 0x4262 JUMP JUMPDEST SWAP2 SWAP1 POP JUMP JUMPDEST PUSH0 PUSH8 0xFFFFFFFFFFFFFFFF DUP3 GT ISZERO PUSH2 0x42C7 JUMPI PUSH2 0x42C6 PUSH2 0x4044 JUMP JUMPDEST JUMPDEST PUSH2 0x42D0 DUP3 PUSH2 0x33F0 JUMP JUMPDEST SWAP1 POP PUSH1 0x20 DUP2 ADD SWAP1 POP SWAP2 SWAP1 POP JUMP JUMPDEST PUSH0 PUSH2 0x42EF PUSH2 0x42EA DUP5 PUSH2 0x42AD JUMP JUMPDEST PUSH2 0x4293 JUMP JUMPDEST SWAP1 POP DUP3 DUP2 MSTORE PUSH1 0x20 DUP2 ADD DUP5 DUP5 DUP5 ADD GT ISZERO PUSH2 0x430B JUMPI PUSH2 0x430A PUSH2 0x425E JUMP JUMPDEST JUMPDEST PUSH2 0x4316 DUP5 DUP3 DUP6 PUSH2 0x33E2 JUMP JUMPDEST POP SWAP4 SWAP3 POP POP POP JUMP JUMPDEST PUSH0 DUP3 PUSH1 0x1F DUP4 ADD SLT PUSH2 0x4332 JUMPI PUSH2 0x4331 PUSH2 0x425A JUMP JUMPDEST JUMPDEST DUP2 MLOAD PUSH2 0x4342 DUP5 DUP3 PUSH1 0x20 DUP7 ADD PUSH2 0x42DD JUMP JUMPDEST SWAP2 POP POP SWAP3 SWAP2 POP POP JUMP JUMPDEST PUSH0 PUSH1 0x20 DUP3 DUP5 SUB SLT ISZERO PUSH2 0x4360 JUMPI PUSH2 0x435F PUSH2 0x31D4 JUMP JUMPDEST JUMPDEST PUSH0 DUP3 ADD MLOAD PUSH8 0xFFFFFFFFFFFFFFFF DUP2 GT ISZERO PUSH2 0x437D JUMPI PUSH2 0x437C PUSH2 0x31D8 JUMP JUMPDEST JUMPDEST PUSH2 0x4389 DUP5 DUP3 DUP6 ADD PUSH2 0x431E JUMP JUMPDEST SWAP2 POP POP SWAP3 SWAP2 POP POP JUMP JUMPDEST PUSH0 PUSH1 0x40 DUP3 ADD SWAP1 POP PUSH2 0x43A5 PUSH0 DUP4 ADD DUP6 PUSH2 0x37E8 JUMP JUMPDEST PUSH2 0x43B2 PUSH1 0x20 DUP4 ADD DUP5 PUSH2 0x3575 JUMP JUMPDEST SWAP4 SWAP3 POP POP POP JUMP JUMPDEST PUSH0 DUP2 SWAP1 POP DUP2 PUSH0 MSTORE PUSH1 0x20 PUSH0 KECCAK256 SWAP1 POP SWAP2 SWAP1 POP JUMP JUMPDEST PUSH0 PUSH1 0x20 PUSH1 0x1F DUP4 ADD DIV SWAP1 POP SWAP2 SWAP1 POP JUMP JUMPDEST PUSH0 DUP3 DUP3 SHL SWAP1 POP SWAP3 SWAP2 POP POP JUMP JUMPDEST PUSH0 PUSH1 0x8 DUP4 MUL PUSH2 0x4415 PUSH32 0xFFFFFFFFFFFFFFFFFFFFFFFFFFFFFFFFFFFFFFFFFFFFFFFFFFFFFFFFFFFFFFFF DUP3 PUSH2 0x43DA JUMP JUMPDEST PUSH2 0x441F DUP7 DUP4 PUSH2 0x43DA JUMP JUMPDEST SWAP6 POP DUP1 NOT DUP5 AND SWAP4 POP DUP1 DUP7 AND DUP5 OR SWAP3 POP POP POP SWAP4 SWAP3 POP POP POP JUMP JUMPDEST PUSH0 DUP2 SWAP1 POP SWAP2 SWAP1 POP JUMP JUMPDEST PUSH0 PUSH2 0x445A PUSH2 0x4455 PUSH2 0x4450 DUP5 PUSH2 0x313A JUMP JUMPDEST PUSH2 0x4437 JUMP JUMPDEST PUSH2 0x313A JUMP JUMPDEST SWAP1 POP SWAP2 SWAP1 POP JUMP JUMPDEST PUSH0 DUP2 SWAP1 POP SWAP2 SWAP1 POP JUMP JUMPDEST PUSH2 0x4473 DUP4 PUSH2 0x4440 JUMP JUMPDEST PUSH2 0x4487 PUSH2 0x447F DUP3 PUSH2 0x4461 JUMP JUMPDEST DUP5 DUP5 SLOAD PUSH2 0x43E6 JUMP JUMPDEST DUP3 SSTORE POP POP POP POP JUMP JUMPDEST PUSH0 PUSH0 SWAP1 POP SWAP1 JUMP JUMPDEST PUSH2 0x449E PUSH2 0x448F JUMP JUMPDEST PUSH2 0x44A9 DUP2 DUP5 DUP5 PUSH2 0x446A JUMP JUMPDEST POP POP POP JUMP JUMPDEST JUMPDEST DUP2 DUP2 LT ISZERO PUSH2 0x44CC JUMPI PUSH2 0x44C1 PUSH0 DUP3 PUSH2 0x4496 JUMP JUMPDEST PUSH1 0x1 DUP2 ADD SWAP1 POP PUSH2 0x44AF JUMP JUMPDEST POP POP JUMP JUMPDEST PUSH1 0x1F DUP3 GT ISZERO PUSH2 0x4511 JUMPI PUSH2 0x44E2 DUP2 PUSH2 0x43B9 JUMP JUMPDEST PUSH2 0x44EB DUP5 PUSH2 0x43CB JUMP JUMPDEST DUP2 ADD PUSH1 0x20 DUP6 LT ISZERO PUSH2 0x44FA JUMPI DUP2 SWAP1 POP JUMPDEST PUSH2 0x450E PUSH2 0x4506 DUP6 PUSH2 0x43CB JUMP JUMPDEST DUP4 ADD DUP3 PUSH2 0x44AE JUMP JUMPDEST POP POP JUMPDEST POP POP POP JUMP JUMPDEST PUSH0 DUP3 DUP3 SHR SWAP1 POP SWAP3 SWAP2 POP POP JUMP JUMPDEST PUSH0 PUSH2 0x4531 PUSH0 NOT DUP5 PUSH1 0x8 MUL PUSH2 0x4516 JUMP JUMPDEST NOT DUP1 DUP4 AND SWAP2 POP POP SWAP3 SWAP2 POP POP JUMP JUMPDEST PUSH0 PUSH2 0x4549 DUP4 DUP4 PUSH2 0x4522 JUMP JUMPDEST SWAP2 POP DUP3 PUSH1 0x2 MUL DUP3 OR SWAP1 POP SWAP3 SWAP2 POP POP JUMP JUMPDEST PUSH2 0x4562 DUP3 PUSH2 0x33C8 JUMP JUMPDEST PUSH8 0xFFFFFFFFFFFFFFFF DUP2 GT ISZERO PUSH2 0x457B JUMPI PUSH2 0x457A PUSH2 0x4044 JUMP JUMPDEST JUMPDEST PUSH2 0x4585 DUP3 SLOAD PUSH2 0x3D24 JUMP JUMPDEST PUSH2 0x4590 DUP3 DUP3 DUP6 PUSH2 0x44D0 JUMP JUMPDEST PUSH0 PUSH1 0x20 SWAP1 POP PUSH1 0x1F DUP4 GT PUSH1 0x1 DUP2 EQ PUSH2 0x45C1 JUMPI PUSH0 DUP5 ISZERO PUSH2 0x45AF JUMPI DUP3 DUP8 ADD MLOAD SWAP1 POP JUMPDEST PUSH2 0x45B9 DUP6 DUP3 PUSH2 0x453E JUMP JUMPDEST DUP7 SSTORE POP PUSH2 0x4620 JUMP JUMPDEST PUSH1 0x1F NOT DUP5 AND PUSH2 0x45CF DUP7 PUSH2 0x43B9 JUMP JUMPDEST PUSH0 JUMPDEST DUP3 DUP2 LT ISZERO PUSH2 0x45F6 JUMPI DUP5 DUP10 ADD MLOAD DUP3 SSTORE PUSH1 0x1 DUP3 ADD SWAP2 POP PUSH1 0x20 DUP6 ADD SWAP5 POP PUSH1 0x20 DUP2 ADD SWAP1 POP PUSH2 0x45D1 JUMP JUMPDEST DUP7 DUP4 LT ISZERO PUSH2 0x4613 JUMPI DUP5 DUP10 ADD MLOAD PUSH2 0x460F PUSH1 0x1F DUP10 AND DUP3 PUSH2 0x4522 JUMP JUMPDEST DUP4 SSTORE POP JUMPDEST PUSH1 0x1 PUSH1 0x2 DUP9 MUL ADD DUP9 SSTORE POP POP POP JUMPDEST POP POP POP POP POP POP JUMP JUMPDEST PUSH0 PUSH1 0x40 DUP3 ADD SWAP1 POP DUP2 DUP2 SUB PUSH0 DUP4 ADD MSTORE PUSH2 0x4640 DUP2 DUP6 PUSH2 0x3840 JUMP JUMPDEST SWAP1 POP PUSH2 0x464F PUSH1 0x20 DUP4 ADD DUP5 PUSH2 0x3878 JUMP JUMPDEST SWAP4 SWAP3 POP POP POP JUMP INVALID LOG2 PUSH5 0x6970667358 0x22 SLT KECCAK256 PUSH1 0x75 DUP2 PUSH18 0x40FD1BF69B6D21B5DD0336DE986AECE2520 DUP15 0xA9 0xB5 0xD8 SWAP2 0xCB PUSH8 0xFDBC6664736F6C63 NUMBER STOP ADDMOD 0x1E STOP CALLER "
		},
		"gasEstimates": {
			"creation": {
				"codeDepositCost": "3612000",
				"executionCost": "infinite",
				"totalCost": "infinite"
			},
			"external": {
				"ADMIN_ROLE()": "415",
				"DEFAULT_ADMIN_ROLE()": "374",
				"FINANCE_ROLE()": "370",
				"_executeTransfer(address,address,uint256)": "infinite",
				"addFunds(address,uint256)": "infinite",
				"addSupportedToken(address)": "infinite",
				"checkBalanceRequirement(address,uint256)": "infinite",
				"checkLowBalance(address,uint256)": "infinite",
				"estimateGasForPayment(address,address,uint256)": "infinite",
				"getRoleAdmin(bytes32)": "infinite",
				"getSupportedTokens()": "infinite",
				"getSupportedTokensCount()": "2508",
				"getTokenBalance(address)": "2924",
				"getTokenInfo(address)": "infinite",
				"getTreasuryOverview()": "infinite",
				"grantRole(bytes32,address)": "infinite",
				"hasRole(bytes32,address)": "3187",
				"isTokenSupported(address)": "2901",
				"payrollCore()": "2619",
				"processPayment(address,address,uint256)": "infinite",
				"removeSupportedToken(address)": "infinite",
				"renounceRole(bytes32,address)": "infinite",
				"reservePercentage()": "2535",
				"revokeRole(bytes32,address)": "infinite",
				"setReservePercentage(uint256)": "infinite",
				"supportedTokens(uint256)": "5033",
				"supportsInterface(bytes4)": "764",
				"tokenInfo(address)": "infinite",
				"withdrawFunds(address,address,uint256)": "infinite"
			},
			"internal": {
				"_addToken(address,string memory,uint8)": "infinite",
				"_addTokenWithDetails(address)": "infinite"
			}
		},
		"methodIdentifiers": {
			"ADMIN_ROLE()": "75b238fc",
			"DEFAULT_ADMIN_ROLE()": "a217fddf",
			"FINANCE_ROLE()": "349b5954",
			"_executeTransfer(address,address,uint256)": "33a738c9",
			"addFunds(address,uint256)": "bc4b3365",
			"addSupportedToken(address)": "6d69fcaf",
			"checkBalanceRequirement(address,uint256)": "28983ebd",
			"checkLowBalance(address,uint256)": "6e82ad06",
			"estimateGasForPayment(address,address,uint256)": "1cc0a1c3",
			"getRoleAdmin(bytes32)": "248a9ca3",
			"getSupportedTokens()": "d3c7c2c7",
			"getSupportedTokensCount()": "1d163923",
			"getTokenBalance(address)": "3aecd0e3",
			"getTokenInfo(address)": "1f69565f",
			"getTreasuryOverview()": "9304739d",
			"grantRole(bytes32,address)": "2f2ff15d",
			"hasRole(bytes32,address)": "91d14854",
			"isTokenSupported(address)": "75151b63",
			"payrollCore()": "a1c7c1a6",
			"processPayment(address,address,uint256)": "d1a0cc5c",
			"removeSupportedToken(address)": "76319190",
			"renounceRole(bytes32,address)": "36568abe",
			"reservePercentage()": "f700c829",
			"revokeRole(bytes32,address)": "d547741f",
			"setReservePercentage(uint256)": "1132454d",
			"supportedTokens(uint256)": "c6255626",
			"supportsInterface(bytes4)": "01ffc9a7",
			"tokenInfo(address)": "f5dab711",
			"withdrawFunds(address,address,uint256)": "1c20fadd"
		}
	},
	"abi": [
		{
			"inputs": [
				{
					"internalType": "address",
					"name": "_payrollCore",
					"type": "address"
				},
				{
					"internalType": "address[]",
					"name": "_initialTokens",
					"type": "address[]"
				}
			],
			"stateMutability": "nonpayable",
			"type": "constructor"
		},
		{
			"inputs": [],
			"name": "AccessControlBadConfirmation",
			"type": "error"
		},
		{
			"inputs": [
				{
					"internalType": "address",
					"name": "account",
					"type": "address"
				},
				{
					"internalType": "bytes32",
					"name": "neededRole",
					"type": "bytes32"
				}
			],
			"name": "AccessControlUnauthorizedAccount",
			"type": "error"
		},
		{
			"inputs": [
				{
					"internalType": "address",
					"name": "token",
					"type": "address"
				}
			],
			"name": "SafeERC20FailedOperation",
			"type": "error"
		},
		{
			"anonymous": false,
			"inputs": [
				{
					"indexed": true,
					"internalType": "address",
					"name": "token",
					"type": "address"
				},
				{
					"indexed": false,
					"internalType": "uint256",
					"name": "amount",
					"type": "uint256"
				},
				{
					"indexed": true,
					"internalType": "address",
					"name": "sender",
					"type": "address"
				}
			],
			"name": "FundsAdded",
			"type": "event"
		},
		{
			"anonymous": false,
			"inputs": [
				{
					"indexed": true,
					"internalType": "address",
					"name": "token",
					"type": "address"
				},
				{
					"indexed": false,
					"internalType": "uint256",
					"name": "amount",
					"type": "uint256"
				},
				{
					"indexed": true,
					"internalType": "address",
					"name": "recipient",
					"type": "address"
				}
			],
			"name": "FundsWithdrawn",
			"type": "event"
		},
		{
			"anonymous": false,
			"inputs": [
				{
					"indexed": true,
					"internalType": "address",
					"name": "token",
					"type": "address"
				},
				{
					"indexed": false,
					"internalType": "uint256",
					"name": "currentBalance",
					"type": "uint256"
				},
				{
					"indexed": false,
					"internalType": "uint256",
					"name": "requiredAmount",
					"type": "uint256"
				}
			],
			"name": "LowBalanceWarning",
			"type": "event"
		},
		{
			"anonymous": false,
			"inputs": [
				{
					"indexed": false,
					"internalType": "uint256",
					"name": "oldPercentage",
					"type": "uint256"
				},
				{
					"indexed": false,
					"internalType": "uint256",
					"name": "newPercentage",
					"type": "uint256"
				}
			],
			"name": "ReservePercentageUpdated",
			"type": "event"
		},
		{
			"anonymous": false,
			"inputs": [
				{
					"indexed": true,
					"internalType": "bytes32",
					"name": "role",
					"type": "bytes32"
				},
				{
					"indexed": true,
					"internalType": "bytes32",
					"name": "previousAdminRole",
					"type": "bytes32"
				},
				{
					"indexed": true,
					"internalType": "bytes32",
					"name": "newAdminRole",
					"type": "bytes32"
				}
			],
			"name": "RoleAdminChanged",
			"type": "event"
		},
		{
			"anonymous": false,
			"inputs": [
				{
					"indexed": true,
					"internalType": "bytes32",
					"name": "role",
					"type": "bytes32"
				},
				{
					"indexed": true,
					"internalType": "address",
					"name": "account",
					"type": "address"
				},
				{
					"indexed": true,
					"internalType": "address",
					"name": "sender",
					"type": "address"
				}
			],
			"name": "RoleGranted",
			"type": "event"
		},
		{
			"anonymous": false,
			"inputs": [
				{
					"indexed": true,
					"internalType": "bytes32",
					"name": "role",
					"type": "bytes32"
				},
				{
					"indexed": true,
					"internalType": "address",
					"name": "account",
					"type": "address"
				},
				{
					"indexed": true,
					"internalType": "address",
					"name": "sender",
					"type": "address"
				}
			],
			"name": "RoleRevoked",
			"type": "event"
		},
		{
			"anonymous": false,
			"inputs": [
				{
					"indexed": true,
					"internalType": "address",
					"name": "token",
					"type": "address"
				},
				{
					"indexed": false,
					"internalType": "string",
					"name": "symbol",
					"type": "string"
				},
				{
					"indexed": false,
					"internalType": "uint8",
					"name": "decimals",
					"type": "uint8"
				}
			],
			"name": "TokenAdded",
			"type": "event"
		},
		{
			"anonymous": false,
			"inputs": [
				{
					"indexed": true,
					"internalType": "address",
					"name": "token",
					"type": "address"
				}
			],
			"name": "TokenRemoved",
			"type": "event"
		},
		{
			"inputs": [],
			"name": "ADMIN_ROLE",
			"outputs": [
				{
					"internalType": "bytes32",
					"name": "",
					"type": "bytes32"
				}
			],
			"stateMutability": "view",
			"type": "function"
		},
		{
			"inputs": [],
			"name": "DEFAULT_ADMIN_ROLE",
			"outputs": [
				{
					"internalType": "bytes32",
					"name": "",
					"type": "bytes32"
				}
			],
			"stateMutability": "view",
			"type": "function"
		},
		{
			"inputs": [],
			"name": "FINANCE_ROLE",
			"outputs": [
				{
					"internalType": "bytes32",
					"name": "",
					"type": "bytes32"
				}
			],
			"stateMutability": "view",
			"type": "function"
		},
		{
			"inputs": [
				{
					"internalType": "address",
					"name": "_token",
					"type": "address"
				},
				{
					"internalType": "address",
					"name": "_to",
					"type": "address"
				},
				{
					"internalType": "uint256",
					"name": "_amount",
					"type": "uint256"
				}
			],
			"name": "_executeTransfer",
			"outputs": [],
			"stateMutability": "nonpayable",
			"type": "function"
		},
		{
			"inputs": [
				{
					"internalType": "address",
					"name": "_token",
					"type": "address"
				},
				{
					"internalType": "uint256",
					"name": "_amount",
					"type": "uint256"
				}
			],
			"name": "addFunds",
			"outputs": [],
			"stateMutability": "payable",
			"type": "function"
		},
		{
			"inputs": [
				{
					"internalType": "address",
					"name": "_token",
					"type": "address"
				}
			],
			"name": "addSupportedToken",
			"outputs": [],
			"stateMutability": "nonpayable",
			"type": "function"
		},
		{
			"inputs": [
				{
					"internalType": "address",
					"name": "_token",
					"type": "address"
				},
				{
					"internalType": "uint256",
					"name": "_requiredAmount",
					"type": "uint256"
				}
			],
			"name": "checkBalanceRequirement",
			"outputs": [
				{
					"internalType": "bool",
					"name": "sufficient",
					"type": "bool"
				},
				{
					"internalType": "uint256",
					"name": "currentBalance",
					"type": "uint256"
				},
				{
					"internalType": "uint256",
					"name": "shortfall",
					"type": "uint256"
				}
			],
			"stateMutability": "view",
			"type": "function"
		},
		{
			"inputs": [
				{
					"internalType": "address",
					"name": "_token",
					"type": "address"
				},
				{
					"internalType": "uint256",
					"name": "_threshold",
					"type": "uint256"
				}
			],
			"name": "checkLowBalance",
			"outputs": [],
			"stateMutability": "nonpayable",
			"type": "function"
		},
		{
			"inputs": [
				{
					"internalType": "address",
					"name": "_token",
					"type": "address"
				},
				{
					"internalType": "address",
					"name": "",
					"type": "address"
				},
				{
					"internalType": "uint256",
					"name": "",
					"type": "uint256"
				}
			],
			"name": "estimateGasForPayment",
			"outputs": [
				{
					"internalType": "uint256",
					"name": "",
					"type": "uint256"
				}
			],
			"stateMutability": "pure",
			"type": "function"
		},
		{
			"inputs": [
				{
					"internalType": "bytes32",
					"name": "role",
					"type": "bytes32"
				}
			],
			"name": "getRoleAdmin",
			"outputs": [
				{
					"internalType": "bytes32",
					"name": "",
					"type": "bytes32"
				}
			],
			"stateMutability": "view",
			"type": "function"
		},
		{
			"inputs": [],
			"name": "getSupportedTokens",
			"outputs": [
				{
					"internalType": "address[]",
					"name": "",
					"type": "address[]"
				}
			],
			"stateMutability": "view",
			"type": "function"
		},
		{
			"inputs": [],
			"name": "getSupportedTokensCount",
			"outputs": [
				{
					"internalType": "uint256",
					"name": "",
					"type": "uint256"
				}
			],
			"stateMutability": "view",
			"type": "function"
		},
		{
			"inputs": [
				{
					"internalType": "address",
					"name": "_token",
					"type": "address"
				}
			],
			"name": "getTokenBalance",
			"outputs": [
				{
					"internalType": "uint256",
					"name": "",
					"type": "uint256"
				}
			],
			"stateMutability": "view",
			"type": "function"
		},
		{
			"inputs": [
				{
					"internalType": "address",
					"name": "_token",
					"type": "address"
				}
			],
			"name": "getTokenInfo",
			"outputs": [
				{
					"components": [
						{
							"internalType": "address",
							"name": "tokenAddress",
							"type": "address"
						},
						{
							"internalType": "string",
							"name": "symbol",
							"type": "string"
						},
						{
							"internalType": "uint8",
							"name": "decimals",
							"type": "uint8"
						},
						{
							"internalType": "bool",
							"name": "isSupported",
							"type": "bool"
						},
						{
							"internalType": "uint256",
							"name": "balance",
							"type": "uint256"
						},
						{
							"internalType": "uint256",
							"name": "reserveAmount",
							"type": "uint256"
						}
					],
					"internalType": "struct TokenManager.TokenInfo",
					"name": "",
					"type": "tuple"
				}
			],
			"stateMutability": "view",
			"type": "function"
		},
		{
			"inputs": [],
			"name": "getTreasuryOverview",
			"outputs": [
				{
					"internalType": "address[]",
					"name": "tokens",
					"type": "address[]"
				},
				{
					"internalType": "uint256[]",
					"name": "balances",
					"type": "uint256[]"
				},
				{
					"internalType": "uint256[]",
					"name": "reserves",
					"type": "uint256[]"
				}
			],
			"stateMutability": "view",
			"type": "function"
		},
		{
			"inputs": [
				{
					"internalType": "bytes32",
					"name": "role",
					"type": "bytes32"
				},
				{
					"internalType": "address",
					"name": "account",
					"type": "address"
				}
			],
			"name": "grantRole",
			"outputs": [],
			"stateMutability": "nonpayable",
			"type": "function"
		},
		{
			"inputs": [
				{
					"internalType": "bytes32",
					"name": "role",
					"type": "bytes32"
				},
				{
					"internalType": "address",
					"name": "account",
					"type": "address"
				}
			],
			"name": "hasRole",
			"outputs": [
				{
					"internalType": "bool",
					"name": "",
					"type": "bool"
				}
			],
			"stateMutability": "view",
			"type": "function"
		},
		{
			"inputs": [
				{
					"internalType": "address",
					"name": "",
					"type": "address"
				}
			],
			"name": "isTokenSupported",
			"outputs": [
				{
					"internalType": "bool",
					"name": "",
					"type": "bool"
				}
			],
			"stateMutability": "view",
			"type": "function"
		},
		{
			"inputs": [],
			"name": "payrollCore",
			"outputs": [
				{
					"internalType": "address",
					"name": "",
					"type": "address"
				}
			],
			"stateMutability": "view",
			"type": "function"
		},
		{
			"inputs": [
				{
					"internalType": "address",
					"name": "_token",
					"type": "address"
				},
				{
					"internalType": "address",
					"name": "_to",
					"type": "address"
				},
				{
					"internalType": "uint256",
					"name": "_amount",
					"type": "uint256"
				}
			],
			"name": "processPayment",
			"outputs": [
				{
					"internalType": "bool",
					"name": "",
					"type": "bool"
				}
			],
			"stateMutability": "nonpayable",
			"type": "function"
		},
		{
			"inputs": [
				{
					"internalType": "address",
					"name": "_token",
					"type": "address"
				}
			],
			"name": "removeSupportedToken",
			"outputs": [],
			"stateMutability": "nonpayable",
			"type": "function"
		},
		{
			"inputs": [
				{
					"internalType": "bytes32",
					"name": "role",
					"type": "bytes32"
				},
				{
					"internalType": "address",
					"name": "callerConfirmation",
					"type": "address"
				}
			],
			"name": "renounceRole",
			"outputs": [],
			"stateMutability": "nonpayable",
			"type": "function"
		},
		{
			"inputs": [],
			"name": "reservePercentage",
			"outputs": [
				{
					"internalType": "uint256",
					"name": "",
					"type": "uint256"
				}
			],
			"stateMutability": "view",
			"type": "function"
		},
		{
			"inputs": [
				{
					"internalType": "bytes32",
					"name": "role",
					"type": "bytes32"
				},
				{
					"internalType": "address",
					"name": "account",
					"type": "address"
				}
			],
			"name": "revokeRole",
			"outputs": [],
			"stateMutability": "nonpayable",
			"type": "function"
		},
		{
			"inputs": [
				{
					"internalType": "uint256",
					"name": "_percentage",
					"type": "uint256"
				}
			],
			"name": "setReservePercentage",
			"outputs": [],
			"stateMutability": "nonpayable",
			"type": "function"
		},
		{
			"inputs": [
				{
					"internalType": "uint256",
					"name": "",
					"type": "uint256"
				}
			],
			"name": "supportedTokens",
			"outputs": [
				{
					"internalType": "address",
					"name": "",
					"type": "address"
				}
			],
			"stateMutability": "view",
			"type": "function"
		},
		{
			"inputs": [
				{
					"internalType": "bytes4",
					"name": "interfaceId",
					"type": "bytes4"
				}
			],
			"name": "supportsInterface",
			"outputs": [
				{
					"internalType": "bool",
					"name": "",
					"type": "bool"
				}
			],
			"stateMutability": "view",
			"type": "function"
		},
		{
			"inputs": [
				{
					"internalType": "address",
					"name": "",
					"type": "address"
				}
			],
			"name": "tokenInfo",
			"outputs": [
				{
					"internalType": "address",
					"name": "tokenAddress",
					"type": "address"
				},
				{
					"internalType": "string",
					"name": "symbol",
					"type": "string"
				},
				{
					"internalType": "uint8",
					"name": "decimals",
					"type": "uint8"
				},
				{
					"internalType": "bool",
					"name": "isSupported",
					"type": "bool"
				},
				{
					"internalType": "uint256",
					"name": "balance",
					"type": "uint256"
				},
				{
					"internalType": "uint256",
					"name": "reserveAmount",
					"type": "uint256"
				}
			],
			"stateMutability": "view",
			"type": "function"
		},
		{
			"inputs": [
				{
					"internalType": "address",
					"name": "_token",
					"type": "address"
				},
				{
					"internalType": "address",
					"name": "_to",
					"type": "address"
				},
				{
					"internalType": "uint256",
					"name": "_amount",
					"type": "uint256"
				}
			],
			"name": "withdrawFunds",
			"outputs": [],
			"stateMutability": "nonpayable",
			"type": "function"
		},
		{
			"stateMutability": "payable",
			"type": "receive"
		}
	]
}